:020000040001F9
:10600000D83600209D610100B7610100B96101002F
:106010000000000000000000000000000000000080
:10602000000000000000000000000000BB61010053
:106030000000000000000000BD610100BF61010020
:10604000C1610100C1610100C1610100C1610100C4
:10605000C161010000000000C1610100C1610100D7
:10606000C1610100C1610100C1610100C1610100A4
:10607000C1610100C1610100C1610100C161010094
:10608000C16101007F880100C1610100C16101009F
:10609000A1880100C1610100238D0100C1610100DF
:1060A000C1610100C16101000000000000000000AA
:1060B00000000000000000000000000000000000E0
:1060C00000F002F800F02FF80CA030C808382418AF
:1060D0002D18A246671EAB4654465D46AC4201D120
:1060E00000F021F87E460F3E0FCCB6460126334223
:1060F00000D0FB1AA246AB46334318477054000049
:1061000080540000103A02D378C878C1FAD85207F8
:1061100001D330C830C101D504680C6070471FB589
:106120001FBD10B510BD05F09BF91146FFF7F7FF35
:1061300000F040FE05F0B3F903B4FFF7F2FF03BC33
:1061400005F0BAF9401E00BF00BF00BF00BF00BF8E
:1061500000BF00BF00BF00BF00BF00BF00BFF1D144
:106160007047000070B505460C46164602E00FCC9D
:106170000FC5103E102EFAD2082E02D303CC03C551
:10618000083E042E07D301CC01C5361F03E0217859
:106190002970641C6D1C761EF9D270BD03210C4859
:1061A00002680A4302600B4802680A4302600A4818
:1061B00080470A480047FEE7FEE7FEE7FEE7FEE706
:1061C000FEE7000006480749074A084B70470000F1
:1061D0002405004054050040E3620100C160010055
:1061E000D8260020D8360020D82E0020D82E002017
:1061F0004F485049086070474F48008CC0B2012892
:106200001FD14D48808C0007000F002819D14A4843
:10621000806AF0210840A02806D14748C06A08409B
:10622000002801D1012070474348806AF0210840CE
:10623000D02806D14048C06A0840002801D101207A
:10624000F1E70020EFE73C48008CC0B2012812D1F2
:106250003948808C0007000F00280CD13648806A2E
:10626000F0210840402806D13348C06A0840002881
:1062700001D1012070470020FCE72F48008CC0B2FC
:1062800001282CD12C48808C0007000F002826D133
:106290002948806AF0210840002806D12648C06AB3
:1062A0000840002801D1012070472348806AF0216E
:1062B0000840102806D12048C06A0840002801D1B3
:1062C0000120F1E71C48806AF0210840302806D1FF
:1062D0001948C06A0840002801D10120E4E70020E5
:1062E000E2E710B5FFF7C9FF002805D013481449AD
:1062F0004860C81313498861FFF7A5FF002802D042
:10630000012011498860FFF777FF00280ED00F4861
:106310000068012807D00E480C49086000BF0B48F0
:1063200000680128FBD1C0200849486110BD000069
:106330000024F40000200020C00F00F0DFFF07C0A1
:1063400000050040006C00400006004000EC0640E4
:106350007593000030B513048C00234305242407F3
:1063600007252D0264198500635130BD182000F007
:1063700046FD00BF00BF00BF00BF00BFBFF34F8F8F
:1063800000BF00BF00BFFE48FE49C86000BF00BF9D
:1063900000BFBFF34F8F00BF00BF00BF00BF00BFF3
:1063A000FDE704460D462A462146F748FFF7DEFF83
:1063B00070B5F649F64801F04EFEC5B22946F548DB
:1063C00001F08BF80446002C0DD0082C0BD0F248BD
:1063D000844208D0F148844205D000BFF0A2BC211D
:1063E0002046FFF7C3FF70BD10B50446FFF7E0FF7E
:1063F00010BD70B50646ED49ED4801F02CFE85B2A2
:10640000EC480068401CEB4908602946EA4801F066
:1064100053FA0446002C0DD0082C0BD0DE488442E1
:1064200008D0DE48844205D000BFDDA2E921204625
:10643000FFF79CFF0321DF48006804F061FF00299B
:1064400001D0012000E00020DC49087070BD70B56B
:106450000546DA480078002809D0D949D94801F022
:10646000FAFD84B22146D44801F055FA00BF70BD50
:1064700010B50446D448007801214840D24908703C
:1064800008460178CC4801F077FA10BD10B5152008
:1064900000F0ACFC162000F0A9FC182000F0A6FCCF
:1064A00010BDF8B500BF0020C84B05221146009072
:1064B00002F0FAF9054600BF2E46002E06D000BFB6
:1064C000B7A2FF2131313046FFF750FF00BF00BFB8
:1064D000BF4A0121BF4802F064FA044600BF2546C6
:1064E000002D06D000BFAEA2FF2137312846FFF7AE
:1064F0003DFF00BFB84A0121B84802F052FA0446F5
:1065000000BF2546002D06D000BFA5A2FF213C31CB
:106510002846FFF72BFF00BFB14A0121B14802F026
:1065200040FA044600BF2546002D06D000BF9CA2BD
:10653000FF2141312846FFF719FF00BFAA4A012178
:10654000AA4802F02EFA044600BF2546002D06D0C8
:1065500000BF93A2FF2146312846FFF707FF00BF87
:10656000F8BD3EB500BF6846007801090901491C25
:10657000009168460078F02188431030009000BFF9
:1065800007229BA168467CDF044600BF2546002DFC
:1065900006D000BF82A2FF215A312846FFF7E6FE4F
:1065A00000BF954878DF044600BF2546002D06D081
:1065B00000BF7BA2FF215D312846FFF7D7FE00BF59
:1065C000002001900290FF219131684681804900AE
:1065D000C18000210181FF219131418101A87ADF31
:1065E000044600BF2546002D06D000BF6CA2FF2147
:1065F00067312846FFF7BAFE00BF3EBD30B593B005
:10660000062104917D4A07CA01AB07C3382105A8BA
:1066100004F074FE02216846017501218175018331
:1066200004A907910321818501A90C91002105A8E6
:1066300001F078FC044600BF2546002D06D000BFBF
:1066400057A2FF2188312846FFF790FE00BF142192
:106650006B4804F053FE00206949087048600872D6
:1066600028200882B420488213B030BD30B59BB0DA
:1066700003210091142116A804F040FE002016907A
:10668000012110A801776846189000BF18A800796A
:1066900001090901491C18A801710079F0218843FA
:1066A000103018A9087100BF00BF16A8407B000970
:1066B000000116A9487316A8407BF021884316A94B
:1066C000487300BF00BF16A8807B000900018873D3
:1066D00016A8807BF021884316A9887300BF00BFED
:1066E00018A8C07901090901491C18A8C171C0790D
:1066F000F0218843103018A9C87100BF00BF16A848
:10670000007C0009000116A9087416A8007CF0217D
:10671000884316A9087400BF274801F097F804467B
:1067200000BF2546002D06D000BF1DA2FF21B331BA
:106730002846FFF71BFE00BF142111A804F0DEFD60
:1067400000BF10A8407C01090901491C10A8417430
:10675000407CF0218843103010A9487400BF00BF6E
:1067600011A8807B00090001401C11A9887311A8A1
:10677000807BF0218843103011A9887300BF41E06D
:106780000400FA0500ED00E0EFBEADDE7C21002044
:1067900008200020142100200430000001340000F3
:1067A0002E2E5C6D61696E2E630000008C2100202E
:1067B00010200020342000202C2100200620002062
:1067C0009C2100201820002038200020AC2100202F
:1067D000E963010020200020F36301002420002051
:1067E0004F64010028200020716401002C2000204B
:1067F000444655314130360041030000E4B4010005
:106800000021002000BF11A8C07B00090001C8734F
:1068100011A8C07BF021884311A9C87300BF00BF35
:1068200010A8007D01090901491C10A80175007D0F
:10683000F0218843103010A9087500BF0020119086
:10684000012110A8017200201390642110A8017486
:1068500011A9F74800F020FE044600BF2546002D90
:1068600006D000BFF34AFF21C5312846FFF77EFD61
:1068700000BF402101A804F041FDEFA101A801F0F3
:10688000B7FB00BF10A8007801090901491C10A836
:1068900001700078F0218843103010A9087000BF03
:1068A00000BF10A8407800090001487010A8407887
:1068B000F021884310A9487000BF01A800F0C4FB74
:1068C000044600BF2546002D06D000BFD94AFF214F
:1068D000D0312846FFF74AFD00BF1BB030BD10B5D0
:1068E0005120DA49086064204860012088600873FC
:1068F000D74801F0A3FB8C20D6490860FF202D303B
:1069000048600A20886000200873D34801F096FB95
:106910006420D2490860FF20F5304860012088607B
:1069200000200873CE4801F089FB10BD70B500222D
:1069300001210904CB48006802F07AF8044600BF40
:106940002546002D06D000BFBA4AFF21F731284660
:10695000FFF70CFD00BF00220121C903C2480068F7
:1069600002F066F8044600BF2546002D06D000BFA1
:10697000B04AFF21FA312846FFF7F8FC00BF002299
:10698000BA49BB48006802F053F8044600BF2546E8
:10699000002D06D000BFA74AFF21FD312846FFF792
:1069A000E5FC00BF00220521C903B248006802F0DF
:1069B0003FF8044600BF2546002D05D000BF9D4A84
:1069C000AD492846FFF7D2FC00BF70BD38B5684618
:1069D00003F09DF9044600BF2546002D06D000BFF8
:1069E000944AA5490E312846FFF7C0FC00BF009825
:1069F000002803D00120A149087038BDA04873DFEA
:106A0000044600BF2546002D06D000BF894A9A499A
:106A100017312846FFF7AAFC00BF152000F0EFF958
:106A200000BFEAE770B505462878002810D13B2161
:106A30009448008876DF044600BF2646002E06D024
:106A400000BF7C4A8C492E313046FFF78FFC00BFD7
:106A500070BD044600BF774A4721C9002046FFF7B2
:106A600085FC30B587B01C21684604F047FC002047
:106A700000900520C00301900F2000040290032124
:106A800068460173804881896846C181002101748C
:106A90007E4805907E480690684602F0DAF9044682
:106AA00000BF2546002D06D000BF624A7249503112
:106AB0002846FFF75BFC00BF07B030BD70B5044649
:106AC0002088102804D011280CD0192825D10FE0D7
:106AD000162000F094F9152000F096F9A088694975
:106AE00008801BE0162000F08FF9FFF76FFF15E01C
:106AF000A079002810D1152000F086F934DF054672
:106B000000BF2E46002E06D000BF4A4A5A497331B4
:106B10003046FFF72BFC00BF00E000BF00BF70BD98
:106B200010B50446022C02D0032C0BD100E000BFAC
:106B300052480078002804D0002050490870FFF720
:106B400045FF00E000BF00BF10BD10B50446204661
:106B500003F0B9FF21464C4800F035FD214634488A
:106B600000F09DFB204602F048FA2046FFF7A6FF02
:106B700010BD10B50446204602F035FD2046FFF753
:106B8000CFFF10BDF8B500BF0023502241490820B7
:106B900002F07FF8054600BF2E46002E06D000BF4B
:106BA000244A3549BB313046FFF7E0FB00BF00BF48
:106BB000002000900090684660DF044600BF254634
:106BC000002D06D000BF1B4A2B49C3312846FFF7D2
:106BD000CDFB00BF304802F092F8044600BF2546C6
:106BE000002D06D000BF134A2349C8312846FFF7BD
:106BF000BDFB00BF294802F08BF8044600BF2546C4
:106C0000002D06D000BF0B4A1B49CC312846FFF7A8
:106C1000ADFB00BFF8BD10B5032200211120FFF726
:106C200099FB032200211220FFF794FB10BD000006
:106C300014210020A06701004E6F726469635365E0
:106C40006D69636F6E647563746F72007C210020E0
:106C5000082000208C210020102000209C210020F2
:106C6000182000202020002024200020662600007C
:106C7000282000202C200020FF01000031200020CF
:106C800000210020042000202C210020256A010082
:106C9000536A01003C2400204B6B0100736B010020
:106CA000F8B506460F46144600BF2546002D05D010
:106CB00000BF584A58492846FFF758FB00BF00203C
:106CC000F8BD7FB502F032FD044600BF2546002D19
:106CD00006D000BF4F4A50490F312846FFF746FB08
:106CE00000BF12204D490969C140C907C90F0029D9
:106CF00001D1012000E00020039003A803F080FAF6
:106D0000044600BF2546002D06D000BF414A424937
:106D100015312846FFF72AFB00BF062101A80230E3
:106D200004F0EAFA1E216846C180007A400840005B
:106D3000401C694608726846007A02218843694609
:106D400008726846007A1C2188430C306946087234
:106D50006846007A20218843694608720721684600
:106D60004172102181722E48009001216846017104
:106D700069462C4803F0B3FA044600BF2546002DAF
:106D800006D000BF234A244924312846FFF7EEFAF3
:106D900000BF7FBD70B540DF044600BF2546002D13
:106DA00006D000BF1B4A1C492D312846FFF7DEFAEA
:106DB00000BF70BDFFF76AFBFFF72DFFFFF7E2FE94
:106DC000FFF76FFBFFF77DFFFFF7CBFBFFF716FC2D
:106DD000FFF74CFCFFF783FDFFF743FEFFF7A6FD2F
:106DE000FFF7F4FD00BFFFF7D5FFFCE70321052205
:106DF000120707231B02D2188300D15070470121CC
:106E00008140064AD160704701218140034A916068
:106E100070470000A0670100E60200000005005076
:106E2000A16C01003020002070B504460D4600BF63
:106E3000002D01D0012000E000200646002E05D1E3
:106E400000BFE6A23321FFF791FA00BF00BF00BFE9
:106E5000002C01D0012000E000200646002E05D1C4
:106E600000BFDEA23421FFF781FA00BF00BF2878FF
:106E7000207029882879FF231B0219400020020670
:106E8000080A1043607028791B0229681940002005
:106E90000204080C1043A07029791B0228681840CE
:106EA00000210902000E0843E07028792071287A39
:106EB0006071190CA8680840000AA0710902A8684E
:106EC0000840000CE07170BDF8B505460E46002480
:106ED00000BF002E01D0012000E000200746002F57
:106EE00005D100BFBDA24B21FFF740FA00BF00BF94
:106EF00000BF002D01D0012000E000200746002F38
:106F000005D100BFB5A24C21FFF730FA00BF00BF8A
:106F100032782046611CCCB22A542919708800F0BE
:106F200054F90019C4B22919B08800F04EF90019BB
:106F3000C4B22919F08800F048F90019C4B200BFA2
:106F4000072C01D1012000E000200746002F05D1C9
:106F500000BFA2A25421FFF709FA00BF00BFF8BD8D
:106F6000F0B58FB007460D4614461E4600BF002DF3
:106F700001D0012000E0002000900098002805D1F9
:106F800000BF96A26D21FFF7F1F900BF00BF00BF5F
:106F9000002C01DD012000E0002000900098002876
:106FA00005D100BF8DA26E21FFF7E0F900BF00BF41
:106FB0001C2107A804F0A2F96946087F0221884332
:106FC000801C69460877002008900A900B900C906E
:106FD0000D9000BF012108A881766846078700BF91
:106FE0000020019031786846017171784171807993
:106FF00006218843811C6846817180790821884375
:1070000001466846817180791021884301466846AF
:10701000817180794108490068468171142102A874
:1070200004F06CF90EA8029001A80390684604824F
:10703000002141828482069502AA07A9744800882B
:10704000149BA2DF0FB0F0BD7FB5044600BF012145
:10705000684681736F49818100BF6D4A03A9012091
:10706000A0DF0546002D02D0284604B070BD208860
:1070700000280DDD68480090228823463C3367488D
:107080006168FFF76DFF0546002D01D02846ECE74B
:10709000208900280EDD62480090228923463C3377
:1070A0005E48401FE168FFF75BFF0546002D01D0F9
:1070B0002846DAE7208A00280EDD5A480090228A06
:1070C00023463C335548001F6169FFF749FF0546D9
:1070D000002D01D02846C8E7208B00280EDD52483D
:1070E0000090228B23463C334C48801EE169FFF719
:1070F00037FF0546002D01D02846B6E7208C002832
:107100000EDD4A480090228C23463C334348C01E83
:10711000616AFFF725FF0546002D01D02846A4E748
:10712000208D00280EDD42480090228D23463C33FE
:107130003A48401EE16AFFF713FF0546002D01D0D3
:10714000284692E7206B002813D001A8216BFFF797
:107150006BFE384823463C33082201A900902F4893
:10716000801FFFF7FDFE0546002D01D028467CE775
:1071700000BF606B00280FD02F480090606B027931
:1071800023463C3301682548401CFFF7E9FE0546CD
:10719000002D01D0284668E7A06B002813D001A875
:1071A000A16BFFF791FE254823463C33072201A936
:1071B00000901A482730FFF7D3FE0546002D01D076
:1071C000284652E700BF00204FE702460A70FF2022
:1071D0000002104000124870022070472E2E5C2ED4
:1071E0002E5C2E2E5C2E2E5C2E2E5C536F757263E1
:1071F000655C626C655C626C655F73657276696321
:1072000065735C626C655F6469732E6300000000E7
:107210003A2000200A1800003C200020292A000003
:10722000442000204C200020542000205C2000201E
:10723000642000206C200020742000207C2000208E
:107240008A88428270470022D24342827047F8B552
:1072500004460E46207D002820D0B51D298860896F
:1072600081421AD1288B022817D12068002814D017
:1072700000BF00BFA97EEA7E120211430846C10783
:10728000C90F002902D00020009001E001200090E9
:10729000694620462268904700BF00BFF8BD70B520
:1072A00005460C462088102804D0112807D0502805
:1072B0000FD109E021462846FFF7C2FF0AE0214628
:1072C0002846FFF7C0FF05E021462846FFF7BFFF2D
:1072D00000E000BF00BF70BDF0B591B004460D46A0
:1072E000207D002819D00020099000BF08A800794F
:1072F00001090901491C08A801710079F02188439E
:10730000103008A9087100BF697B08A84171807915
:1073100006218843801C08A988711C210AA803F053
:10732000EDFF08A8007A02218843811C08A8017299
:10733000007A10218843217D002901D0012100E03D
:107340000021090110221140084308A908720020F9
:107350000B900D900E90207D002801D009A800E030
:1073600000200F900020109000BF0121684681731B
:107370007749818100BF00200290A97B6846017295
:10738000E97B4172807A06218843811C68468172BC
:10739000807A08218843014668468172807A1021EC
:1073A0008843014668468172807A410849006846F0
:1073B0008172297B0191142104A803F09FFF03A887
:1073C000049002A8059001216846018300214183B1
:1073D0000121818301A80890A088A31D04AA0AA9FD
:1073E000A2DF0646002E02D0304611B0F0BDA868DC
:1073F00000284DD000BF0121684681735549818125
:1074000000BF00200290287C6946087200BF6846D1
:10741000407A0109090168464172407AF0218843A7
:107420006946487200BF6846807A06218843811CFD
:1074300068468172807A08218843014668468172D5
:10744000807A10218843014668468172807A41081B
:10745000490068468172A96800F0ACFD0746142116
:1074600004A803F04BFF03A8049002A80590684607
:10747000078300214183018B81830890E0882246A5
:107480000E3204A9A3DF0646002E03D03046ACE737
:107490000020E0810020A8E7F8B504460D462868E2
:1074A00020600020C043608228792075FF2020746E
:1074B00000BF0121684681702749018000BF221D5D
:1074C00069460120A0DF0646002E01D03046F8BDF7
:1074D00029462046FFF700FFF9E733B585B004469B
:1074E0000025207C6946097E88422FD00121049125
:1074F0006846007E2074E08806AB04AA0021A4DF61
:107500000546002D02D0284607B030BD608A1349D9
:10751000884219D0207D002816D0002000900190CC
:107520000290039001210491E188684601800121C5
:1075300081700021818004A8029006A80390608ACF
:107540006946A6DF054600E0082500BF2846DBE7C0
:10755000192A0000082900000F180000FFFF000092
:107560008A88028470470022D2430284704738B56B
:1075700005460C46208B022817D12868002814D015
:1075800000BF00BFA17EE27E120211430846C10780
:10759000C90F002902D00020009001E001200090D6
:1075A000694628462A68904700BF38BD70B5044632
:1075B0000D46AE1D3188A089814203D13146204657
:1075C000FFF7D5FF70BD70B505460C462088102822
:1075D00004D0112807D050280FD109E021462846B1
:1075E000FFF7BEFF0AE021462846FFF7BCFF05E093
:1075F00021462846FFF7DAFF00E000BF00BF70BD5C
:10760000F7B582B004461746002001900125607945
:10761000002803D004210198084301902220005D36
:10762000002803D002210198084301900398FF2805
:107630000ADD01210198084301907919039800F0AF
:10764000AAF94019C5B205E00398C2B22846691CE0
:10765000CDB23A544C20005B002803DD1021019884
:1076600008430190002618E0A81C14280BD94C20D0
:10767000005B801B4200700023462433C11818466B
:1076800003F0F6FD0DE07919720023462433985A71
:1076900000F081F94019C5B2761C4C20005BB04265
:1076A000E2DC00BF4C20005B801B81B24C20015308
:1076B00001983870284605B0F0BD30B595B0054644
:1076C0000C4600200D9000BF08A8007D01090901AB
:1076D000491C08A80175007DF0218843103008A9D5
:1076E000087500BF217B08A84175807D062188436D
:1076F000811C08A881751C210EA803F0FFFD08A8B5
:10770000007E10218843103008A9087600200F90D1
:10771000119012900DA813900020149000BF012129
:1077200068468177A049818300BF00200690617B75
:1077300068460176A17B4176807E06218843811CC4
:1077400068468176807E08218843014668468176B6
:10775000807E10218843014668468176807E4108FC
:107760004900491C68468176142108A803F0C6FD2B
:1077700007A8089006A8099001AA00212846FFF74B
:107780003FFF01466846018500214185142181851E
:1077900001A80C90E8882B46083308AA0EA9A2DF9E
:1077A00015B030BD30B58FB005460C461C2108A879
:1077B00003F0A4FD08A9087802218843801C08A9C9
:1077C0000870002009900B900C900D900E9000BF57
:1077D0000121684681727449491C018100BF002063
:1077E0000190E17B68460171217C4171807906211D
:1077F0008843811C6846817180790821884301464D
:1078000068468171807910218843014668468171FC
:1078100080794108490068468171142103A803F06A
:107820006DFD02A8039001A80490012168468182A1
:107830000021C18201210183A0680790E8882B46BE
:10784000103303AA08A9A2DF0FB030BDF8B5044673
:107850000E4630682060307960710020C04320847B
:107860000021222001554C20015300BF0121684610
:1078700081704E49018000BFA21D69460120A0DF32
:107880000546002D01D02846F8BD31462046FFF7B9
:1078900014FF0546002D01D02846F5E7B068002802
:1078A00008D031462046FFF77DFF0546002D01D068
:1078B0002846E9E70020E7E7F0B58BB004460F461D
:1078C000208C3B49884222D006AA39462046FFF741
:1078D00097FE0646059600200190029003900490C2
:1078E000218968468180012181710021018105A8DB
:1078F000039006A80490208C01A9A6DF0546002D60
:1079000004D16846808AB04200D00C2500E00825EA
:1079100028460BB0F0BD70B504460D464C20005B08
:1079200014280AD12622A118881E03F0A1FC4C209D
:10793000005B401E81B24C2001534C20015B005B78
:10794000401C82B24C20025349002046243045524C
:1079500070BD01464C20405A142801D101207047C7
:107960000020FCE70246108C114B984202D1517165
:10797000002070470820FCE722221154704713B5FD
:1079800082B0044601200190208A03AB01AA0021A5
:10799000A4DF04B010BD02460A70FF2000021040B0
:1079A0000012487002207047372A00000D180000AE
:1079B000FFFF0000F7B584B004460F46069806782E
:1079C000B01C1F2803DC6078801C1F2802DD0C20FF
:1079D00007B0F0BD1F20801B801E85B20295B11C30
:1079E000781802A97DDF03900398002801D003983E
:1079F000EEE72078022808D168460089A84204DC16
:107A000009200190684605890BE008200190607804
:107A1000002804D06078A84201DC657801E068465F
:107A20000589681CC2B23046711CCEB23A54304649
:107A3000721CD6B20199395406980178A81C08180E
:107A4000C1B2069801700020C2E7F8B505460C46A1
:107A50002078001D1F2801DD0C20F8BD684679DF65
:107A60000646002E01D03046F7E703212278501C4D
:107A70002070A95419212278501C2070A954207814
:107A800041196846008800F08AFA21784018207071
:107A90000020E2E7F8B505460F4616461C46686822
:107AA000002801D10720F8BD2078801C29884018C3
:107AB0001F2801DD0C20F6E72878401CC1B222788F
:107AC000501C2070B1542178481C207077542A88AB
:107AD00023789819696803F067FB207829784018A3
:107AE00020700020DFE730B503461078C01C1F2847
:107AF00001DD0C2030BD02241578681C10704C5537
:107B00000A241578681C10704C551578681C107084
:107B10004B550020EEE7FFB587B006461D46109C8A
:107B20000020069020780590002747E0B900706893
:107B300041180A886846028149884181002203A9C8
:107B400002A865DF04900498002802D004980BB0C6
:107B5000F0BD6846017B099881422ED10698002825
:107B600001D0002000E00220019020786946097BC6
:107B70004118019808181F2801DD0C20E7E7069836
:107B8000002809D12078401C20702278511C0898C8
:107B90002170A854012006902078421903A902A858
:107BA00065DF04900498002801D00498CFE720787E
:107BB0006946097B4018207000BF7F1C3088B8429E
:107BC000B4DC0698002806D021780598401C081AD5
:107BD000C1B2059829540020B9E7FFB581B0074626
:107BE00015460A9E009602223846049B0299FFF72A
:107BF00092FF0446002C02D0204605B0F0BD00964E
:107C0000102229463846049BFFF785FF0446002CC6
:107C100001D02046F1E70020EFE70146088806285A
:107C200008DB08881922D201904205DD0888E04A65
:107C3000904201D0072070474888062808DB488812
:107C40001922D201904205DD4888D94A904201D0DC
:107C50000720F0E70888D64A904208D0488890422A
:107C600005D008884A88904201DD0720E3E700201C
:107C7000E1E7F8B506460D4614462078801D1F281A
:107C800001D90C20F8BD3046FFF7C7FF0746002F8B
:107C900001D03846F6E705212278501C2070A954FF
:107CA00012212278501C2070A95422785119308852
:107CB00000F075F9217840182070227851197088E9
:107CC00000F06DF92178401820700020DAE7F8B54F
:107CD00005460E4614462879801CC7B22078801CC1
:107CE000C0191F2801DD0C20F8BD781CC1B2227814
:107CF000501C2070B154FF212278501C2070B154C8
:107D000022789119288800F04AF9217840182070CB
:107D1000A88800280EDDA868002801D10720E3E725
:107D2000AA8823789819A96803F03EFA207829795F
:107D3000401820700020D7E7FEB507460E461446CF
:107D4000386B002801D10720FEBD0020019032E0F1
:107D5000396B0C22019850430D182879801CC0B251
:107D600000900098401CC1B22278501C2070B15481
:107D700016212278501C2070B1542278911928883D
:107D800000F00DF9217840182070A88800280EDD39
:107D9000A868002801D10720D6E7AA882378981977
:107DA000A96803F001FA2078297940182070019819
:107DB000401CC0B201903420C15D01988142C7DCF3
:107DC0000020C1E7F8B504460F46164600250020FE
:107DD00030702078002809D0324639462046FFF717
:107DE000E9FD0546002D01D02846F8BDA078002801
:107DF00008D031463846FFF728FE0546002D01D051
:107E00002846F2E7A08800280ADD33463A460121D9
:107E1000201DFFF73FFE0546002D01D02846E4E770
:107E2000E06800280BD00020E16808563246394649
:107E3000FFF759FE0546002D01D02846D5E7208AD8
:107E400000280CDD3B460622022120461030009619
:107E5000FFF7C3FE0546002D01D02846C5E7208B5D
:107E600000280CDD3B4607220321204618300096EF
:107E7000FFF7B3FE0546002D01D02846B5E7208C5C
:107E800000280CDD3B4615221421204620300096A8
:107E9000FFF7A3FE0546002D01D02846A5E7A06AFE
:107EA000002809D032463946A06AFFF7E2FE0546AF
:107EB000002D01D0284698E7E06A002809D0324614
:107EC0003946E06AFFF703FF0546002D01D028463A
:107ED0008BE73420005D002809DD32463946204614
:107EE000FFF72AFF0546002D01D028467DE72846EA
:107EF0007BE701468888002808D08868002805D0DC
:107F00008868007804221040002801D107207047BB
:107F10000020FCE701468888002801DD0720704723
:107F20000020FCE7F3B593B00D46002112911191AA
:107F30001398002814D01398FFF7DBFF0446002C99
:107F400002D0204615B0F0BD12AA09A91398FFF778
:107F500039FF0446002C01D02046F3E709AE00E0CB
:107F60000026002D13D02846FFF7D4FF0446002C2E
:107F700001D02046E6E711AA01A92846FFF722FF13
:107F80000446002C01D02046DCE701AF00E00027CA
:107F900010A803793A46017A304672DFD2E70246EA
:107FA0000A70FF2000021040001248700220704743
:107FB000FFFF0000F8B505460E4600243278214642
:107FC000641C6A5472782146641C6A5400BF022CF7
:107FD00001D1012000E000200746002F05D100BF9D
:107FE00008A22021FEF7C2F900BF00BF2046F8BD5D
:107FF00070B504460D46284603F0B4F8208065604D
:1080000070BD00002E2E5C2E2E5C2E2E5C2E2E5C63
:108010002E2E5C536F757263655C626C655C626C7E
:10802000655F73657276696365735C626C655F73C7
:1080300072765F636F6D6D6F6E2E63000A7B002A30
:1080400004D04A6802600022027103E00A680260FC
:108050000122027170470246107900280FD048684B
:108060001368C01A8B68984204D910688B68C018CE
:10807000106013E048681060002010710EE0106876
:108080000B68C01A8B68984204D910688B68C01AB4
:10809000106003E0086810600120107110687047DC
:1080A00010B5002819DBFD4A03231B02D2188308F0
:1080B0009B00D2588307DC0EFF23A3409A438B0713
:1080C0001B0E8407E40EA3401A43F44B032424023E
:1080D0001B198408A4001A5118E0F14A03071B0F6A
:1080E000083B9B089B00D2588307DC0EFF23A3406C
:1080F0009A438B071B0E8407E40EA3401A43E84BF8
:108100000407240F083CA408A4001A5110BD10B5A0
:108110000446E448846003211120FFF7C1FF10BD2D
:1081200010B501200004E0494860DF49403948604B
:10813000112000F0FDFC112000F0E8FC0120DB49DB
:1081400008602F20FDF7FEFF0120D949087010BDFF
:1081500010B51120002806DBC206D20E0121914085
:10816000CE4A8032116000BF01200004CE498860F1
:10817000CD49403988600120CC4948602F20FDF767
:10818000E1FF0120C94988600020CA4908602F200A
:10819000FDF7D8FF0020C649087010BDF0B50246B3
:1081A00024205043C44B1B68C118C4480068401CBD
:1081B000002802D1C148026059E0C0484B680068FD
:1081C00024246043BC4C246800194068834217D8BB
:1081D000BA48006824235843B74B1B68C01840684E
:1081E0004B68C31AB548006824246043B24C246825
:1081F00000194360B14800680862B048026036E088
:108200004B68AE4D2C6828680DE024254543AA4EE6
:108210003668AD196D685B1B044624254543A64EA0
:108220003668AD19286A451C002D07D02425454322
:10823000A14E3668AD196D689D42E6D3451C002DF0
:108240000CD0242545439C4E3668AD196D68EE1A56
:1082500024254543984F3F68ED196E604B600862D6
:1082600024256543944E3668AD192A6200BFF0BDDF
:10827000F8B50646914805682C4609E0B44200D19D
:1082800009E02546242060438B4909684018046AA8
:10829000601C0028F2D100BF601C002800D1F8BD8E
:1082A000A54210D1854800682421484382490968C5
:1082B0004018006A8149086008460068401C002890
:1082C00001D1FFF745FF242060437B49096840182E
:1082D000476824206043784909684018016A2420CF
:1082E0006843754A12688018016224206843724905
:1082F00009684018046A601C00280CD024206043E0
:108300006D49096840184068C119242060436A4AD1
:1083100012688018416000BFC1E710B5112000F05D
:10832000FEFB10BD10B5142000F0F9FB10BD70B5B8
:10833000044663480068002813D0614AE169A069D7
:1083400012689047054600BF2E46002E07D000BF9A
:108350005CA2FF2164313046FEF708F800BF00BF81
:1083600002E0A169E069884770BDF8B5534800682C
:10837000401C00283AD0002700F00EFC04464D486F
:108380000168204600F00BFC06464C48056811E0E9
:10839000242068434849096844186068B04200D9FD
:1083A0000BE06068361A6068C719256A2046FFF737
:1083B000BEFF00BF681C0028EAD100BF4D4800780E
:1083C0004D490978884209D14B480078401CC0B219
:1083D00049490870022801D10020087046480078F9
:1083E000800046490F50FFF79DFF00BFF8BD0146D2
:1083F00040480078404A127890421DD03D480078AD
:10840000401C3C4A107010460078022801D1002020
:108410001070384800788000384A10580860254AA3
:10842000086812688018234A10601046006800022D
:10843000000A1060012070470020086000BFFAE7C2
:10844000FEB51E48006801902D480078009076E047
:108450000098C0002B490968441825786BE0182063
:10846000684361680F18681CC5B2A078A84200D1A3
:1084700000253878022802D0032859D144E024216D
:10848000786848430C4909684618307D002804D0B4
:108490007868FFF7EDFE002030754AE000E100E06B
:1084A0001CED00E0001501404013014000100140A8
:1084B000AC2000209820002088200020942000205C
:1084C000A82000202E2E5C2E2E5C2E2E5C2E2E5CE4
:1084D0002E2E5C536F757263655C6170705F636FA5
:1084E0006D6D6F6E5C6170705F74696D65722E6327
:1084F00000000000A4200020A52000209C200020D7
:108500008C200020902000200CE0F84909682422EB
:108510005143F74A1268881800210175F34A016A2D
:10852000116000BFF1480068401C0028EDD100E058
:1085300000BF00BF00BF6078A84290D100BF009884
:10854000411EC9B20091002882D1E8480168019813
:10855000814201D00120FEBD0020FCE7F0B50346BA
:10856000002426E0E14E366824277E43E04F3F6832
:10857000F01946689E4203D94668F61A46601DE027
:1085800046689B1B46683419002646600675D74E20
:108590003568D64F066A3E600669002E08D00E196F
:1085A0003602360A86600669C6601668066215607D
:1085B00000BFCE480068401C0028D3D100BFF0BDEA
:1085C000FEB50746C94800680290CA480078019085
:1085D0006BE00198C000C849096845185DE0781C47
:1085E000002807D03E4624207043C149096844183A
:1085F000276A23E02978182359436A685018297894
:10860000491C29702978AA78914201D1002129704A
:10861000466824217143B64A12688C1801780129F2
:1086200002D1217D002900D037E08168A160C168B6
:10863000E160016921614169E16100BFAF49A06862
:108640000968401A0002000AAD49884208D2AB49C5
:10865000A068096800F0A3FAE1684018606011E0C2
:10866000A648A168006800F09AFA0090E1680098B6
:10867000814204D9E1680098081A606001E0002096
:10868000606000BF0020A060E06001202075801EB7
:1086900020623046FFF782FD00BF781C00289ED183
:1086A0002878697888429AD100BF0198411EC9B2E2
:1086B000019100288DD18D4801680298814201D036
:1086C0000120FEBD0020FCE7FEB588480068401C84
:1086D000002834D08548006824214843844909682B
:1086E0004018456800F058FA019084480468214613
:1086F000019800F054FAC61C82480078002801D185
:10870000FFF70EFDAE4201D2284600E030460419C4
:108710002402240A20467C49086000BF00F03CFA8D
:1087200000900199009800F03AFAC71C2046019980
:1087300000F035FA874201D9FFF7EFFD01E0FFF7BE
:1087400007FDFEBDFEB50020C04301906B480468E4
:10875000664807686846FFF74AFE0546FFF770FE61
:108760000646002D05D001AA21460098FFF7F6FE27
:1087700001260198FFF724FF002800D00126002ED3
:1087800002D03846FFF7A0FFFEBD4170704770B5BC
:1087900002460B465078411C9078884200D1002157
:1087A0001078884201D1002070BD196050781826D9
:1087B000704355682C182046F6E7FFB581B0054692
:1087C0000E461746E9004C4A126888186946FFF7BA
:1087D000DEFF0446002C02D1042005B0F0BD0120CC
:1087E0002070666000F0D8F9A060E760049820610E
:1087F0000A986061E900404A126888180099FFF7FA
:10880000C4FFFFF78FFD0020E7E7F8B504460E46EA
:10881000E100394A126888186946FFF7B8FF054633
:10882000002D01D10420F8BD022028706E60E10007
:10883000314A126888180099FFF7A7FFFFF772FD09
:108840000020F0E738B50446E1002B4A126888188A
:108850006946FFF79CFF0546002D01D1042038BD75
:1088600003202870001F6860E100234A12688818FE
:108870000099FFF78AFFFFF755FD0020EFE710B5DD
:108880000020224908600021204841608160C160C9
:1088900000201E49403908604860FFF766FD10BDA2
:1088A00010B5FFF74FFF10BDFFB581B00E4617465C
:1088B0001C4620468107890F002901D1012100E0D3
:1088C0000021002902D1072005B0F0BD002C01D104
:1088D0000720F9E7FFF73CFC0D490A9808600D48AE
:1088E000067003480460002523E000009420002067
:1088F000882000208C20002090200020982000203C
:10890000FFFF7F00AC2000204015014040110140D6
:10891000A820002084200020002124206843A24AAF
:1089200012681154242068439F4A12688018017508
:108930006D1CB542F0DB24207043041903209B49D1
:1089400008709B480460183400250CE0E900984A40
:1089500012688818002101704170877044601821E6
:1089600079430C196D1C032DF0DB0020C0439149A5
:10897000086000209049087090490870142000F0A9
:10898000D7F803211420FFF78BFB142000F0BEF86A
:108990000198FFF7BCFB00F0FFF889490860002050
:1089A00092E770B503460C467F480068002801D165
:1089B000082070BD002A01D10720FAE7002B01D161
:1089C0000720F6E700211CE024204843764D2D685F
:1089D000285C002814D1012524204843724E3668B3
:1089E000355424204843704D2D684019447024208C
:1089F00048436D4D2D684019826119600020D8E709
:108A0000491C704800788142DEDB0420D1E710B5B4
:108A100000F098F8012802D0032804D101E00024D6
:108A200003E0012401E0022400BF00BF204610BD86
:108A3000FEB504460D4616465B480068002801D185
:108A40000820FEBD5F480078844201D2052D01D286
:108A50000720F6E72420604353490968085C012891
:108A600001D00820EDE7242060434F4909684018F1
:108A70004078012801D1284600E000200746FFF792
:108A8000C6FF3B462A46214600960190FFF795FE19
:108A9000D7E770B5044644480068002801D1082093
:108AA00070BD48480078844201D30720F8E72420AD
:108AB00060433D490968085C012801D00820EFE7C0
:108AC000FFF7A5FF05462146FFF79FFEE8E710B533
:108AD00035480068002801D1082010BDFFF797FF36
:108AE0000446FFF7AFFEF8E710B5044600F054F86F
:108AF0002060002010BD70B505460E461446314674
:108B0000284600F04CF82060002070BD002805DBEE
:108B1000C206D20E012191402B4A116070470028F5
:108B200005DBC206D20E01219140284A1160704730
:108B3000002806DBC206D20E01219140234A803272
:108B40001160704710B522484068C105C90D002961
:108B500020D00A46103A50B200280CDB1A4B0324EE
:108B600024021B198408A4001B598407E40EE34067
:108B70001B069B0F0CE0164B1C330407240F083C0C
:108B8000A408A4001B598407E40EE3401B069B0FB6
:108B9000D8B210BD0420FCE70E484068704702467A
:108BA000501A0002000A7047882000208C20002004
:108BB0009020002094200020A4200020A520002048
:108BC000982000208420002000E100E000E200E086
:108BD00000ED00E00015014070B506460C46154654
:108BE00029462046FDF7DDFB70BDF8B55A480078F0
:108BF000002800D1F8BD59480068002801D10120A3
:108C000000E00020054656480068002801D10120F8
:108C100000E00020064600BF002D14D1684651DF59
:108C20000446052C01D101250CE0002C06D000BF24
:108C30004CA269212046FDF799FB03E047490098C3
:108C40000968884700BF002E1AD154480088009058
:108C500069465348006861DF0446052C01D10126AE
:108C60000DE0002C06D000BF3EA280212046FDF77B
:108C70007DFB04E04A48006839490968884700BF1D
:108C8000002D02D0002E00D000E0C5E700BF00BFDD
:108C9000B0E7FFB581B00C4616461F46002C02D146
:108CA000072005B0F0BD20468107890F002901D1BA
:108CB000012100E00021002901D10720F1E7384817
:108CC000046036480680374807603749019810DF4E
:108CD0000546002D01D02846E3E701201E49087013
:108CE000162026DFDDE710B511DF0446002C01D089
:108CF000012000E0002018490870204610BD014600
:108D0000002901D10E207047154801600020FAE7C4
:108D10000146002901D10E20704710480160002053
:108D2000FAE770B51F480068002811D01D48006898
:108D30008047044600BF2546002D07D000BF09A28A
:108D4000FF2133312846FDF711FB00BF00BF01E0D2
:108D5000FFF74BFF70BD0000BA200020C0200020AC
:108D6000BC2000202E2E5C2E2E5C2E2E5C2E2E5C27
:108D70002E2E5C536F757263655C73645F636F6DF9
:108D80006D6F6E5C736F66746465766963655F684A
:108D9000616E646C65722E6300000000B8200020D4
:108DA000B4200020B0200020D98B01000146488863
:108DB000B74A1288904206DB4888B54A52889042EA
:108DC00001DC012070470020FCE738B50546B148BA
:108DD0000088B14988423BD0B0480078401CAF4978
:108DE0000870AF48007B097888420FDBA849A94882
:108DF000008875DF0446002C07D0A9488069002848
:108E000003D0A74881692046884721E00020A34974
:108E10000870A348007C00280FD03B219D480088A3
:108E200076DF0446002C07D09D488069002803D0D7
:108E30009B4881692046884700BF994840690028BF
:108E400006D000200090964841696846884700BFD8
:108E500038BD70B505461C2229469148FDF782F9B8
:108E6000002090490870286800280BD00822884804
:108E7000296802F099F986487ADF0446002C08D068
:108E8000204670BD82487BDF0446002C01D020467E
:108E9000F7E70020C0437F49088000207F49087021
:108EA000814A00218148FFF77CFDEAE710B57F4841
:108EB0000068FFF7EEFD10BD38B57D48FFF776FF7F
:108EC000002829D17748007800280AD074484069E2
:108ED000002820D0002000907148416968468847EA
:108EE00019E06E480078002802D16D48456801E01D
:108EF0006B488568002229466C480068FFF798FD9A
:108F00000446002C07D066488069002803D06448D6
:108F10008169204688470AE061484069002806D0F8
:108F2000012000905E4841696846884700BF0020E4
:108F30005C49087038BD10B50446A08855490880C2
:108F4000082221460E315A4802F02EF900205349DA
:108F500008705348C089002801D1FFF7ADFF10BD4C
:108F600070B505460020C0434A49088000204B499F
:108F700008704E480068FFF78CFD0446002C07D0AF
:108F800047488069002803D04548816920468847C2
:108F900070BD70B50546AC1D20884149C98988421D
:108FA00020D1208B02281DD100BF00BFA17EE27E10
:108FB000120211430846C107C90F002902D0FFF76A
:108FC0007BFF0FE039480068FFF763FD0646002E7F
:108FD00007D033488069002803D031488169304682
:108FE000884700BF70BD10B504460822A11D304857
:108FF00002F0DAF8FFF760FF10BD10B504462088D4
:10900000102806D0112808D012280ED0502810D1D0
:1090100007E02046FFF78FFF0CE02046FFF7A0FF98
:1090200008E02046FFF7B5FF04E02046FFF7DBFF2E
:1090300000E000BF00BF10BD38B50446082221463D
:10904000134802F0B1F812487ADF0546002D1CD112
:109050001748FFF7ABFE00280BD10120114908701B
:109060000B490C48008875DF054601200B49087044
:109070000BE00B484069002806D00120009008480A
:1090800041696846884700BF0025284638BD000072
:10909000C4200020CE200020FFFF0000CC200020B4
:1090A0008C240020DC200020CB8D0100D820002063
:1090B000D0200020002314214143FC4A53541421A2
:1090C000414389184B8001231421414389188B6047
:1090D0000023142141438918CB601421414389188E
:1090E0000B611421414389188B80704710B5002013
:1090F000EF490880EF490870EC49091F0870487073
:109100008870002403E02046FFF7D4FF641C0A2C7B
:10911000F9D310BDFFB583B004460F4615460326AC
:10912000E448007800280BD1002D06D106980028CD
:1091300003D10220DF49087002E00120DD490870F8
:10914000DC480078030002F0BEF907FD05314E84CB
:10915000BAD7FD00D8484069401C002808D0012239
:109160001207126991B2D44A506902F0C9F802E0BC
:10917000012000074069401E01210907096989B2E1
:10918000484302900120000700690004820C01207E
:109190000007006980B278430146029821DF064645
:1091A000002E02D10220C3490870D0E0384620DFEB
:1091B0000646002E16D1002D11D1069800280AD19E
:1091C0002078042803D10720BA4908700AE0052056
:1091D000B849087006E00420B649087002E0032090
:1091E000B4490870B3E0B4484069401C002808D076
:1091F00001221207126991B2AF4A506902F080F859
:1092000002E0012000074069401E012109070969A9
:1092100089B24843012109070290096989B279435B
:1092200008462A46029921DF0646002E10D10698EC
:1092300000280AD12078042803D106209D4908700F
:1092400006E005209B49087002E004209949087057
:109250007DE099484069401C002808D0012212078F
:10926000126991B2944A506902F04AF802E0012072
:1092700000074069401E01210907096989B2484376
:10928000A900401861884018012109070290096966
:1092900089B27943AA00891862888818069A0299C7
:1092A00021DF0646002E09D12078042803D10620AC
:1092B0008049087002E005207E49087047E00120DF
:1092C0000007006980B27843AB00C0180290608844
:1092D00082082169029821DF0646002E0BD1002D5D
:1092E00006D10698002803D107207249087002E0D1
:1092F0000620704908702AE06F484069401C002829
:1093000008D001221207126991B26B4A506901F02C
:10931000F7FF02E0012000074069401E0121090714
:10932000096989B24843019001200007006981B2B0
:10933000019801F0E5FF029020DF0646002E04D1DF
:10934000072000E002E05B49087000E000BF00BFBA
:10935000304607B0F0BDF0B585B00F275348001F69
:1093600000781421484351494418E56820780228C0
:1093700004D0042823D005286FD16FE02069039022
:109380004B48008886026088801B049003988019EF
:109390000390A08880194519012189020498884208
:1093A00006D2049882082846039921DF074605E083
:1093B000FF2201322846039921DF074681E0A06899
:1093C00000013E49401800890490A068000140183F
:1093D00040890390A06800014018406802900298FC
:1093E000A84205D10399049848436188884202D075
:1093F000A06802280DD101200007006981B228462B
:1094000001F07EFF2A4909884618304620DF0746CA
:1094100022E001200007006981B2284601F070FFB8
:10942000064601200007006980B27043281A8008B0
:10943000019001200007006980B2711C48436188D7
:109440004919401A8008009031462046009B019A35
:10945000FFF760FE074600BF33E031E00120000760
:10946000006981B2284601F04BFF0646A0884119E9
:1094700001200007006980B27043081A8008049038
:10948000A08840196188421801200007006980B255
:10949000711C4843801A8008039031462046039B84
:1094A000049AFFF737FE07460BE00000AC240020CB
:1094B000E8200020EB200020001000107425002080
:1094C00000BF00BF002F02D10120FE49887038463E
:1094D00005B0F0BDFFB581B0064617460024F94837
:1094E00040780A2837D0F7480078F649497840187C
:1094F000C4B20A2C02DB20460A38C4B214206043EE
:10950000F049091D0E5414206043401807611420CF
:1095100060434118029805C8CA60886014206043FF
:10952000E84A121D80180499418014206043801875
:109530000A9981800025101F8078002805D1FFF747
:109540000AFF0546112D00D10025DE484078401C59
:10955000DC49487000E00425284605B0F0BDF8B5A8
:109560000446D848007814214843D649091D0E5CAA
:10957000081F007814214843D249091D401880680B
:109580000001D1490D58CF48007814214843CD49F6
:10959000091D40184088091F009009781422514382
:1095A000C84A121D89180B69111F097814225143EA
:1095B000C44A121D89180846083022463146A84779
:1095C000F8BD10B50024BF484078002809DDFFF73A
:1095D000C2FE0446002C04D0112C02D02046FFF716
:1095E000BEFF204610BDFEB505460026B548807872
:1095F00001287DD10020B3498870B448007808283C
:1096000011D1022D03D10020B049087002E00020E2
:10961000AF490870FFF7D5FF0646002E02D030464E
:10962000FFF79DFFFEBD022D02D0032D79D174E01E
:10963000A448007814214843A249091D4418A548AC
:109640000088401CA34908802078022807D10846DA
:10965000008880026188884201DB012000E0002050
:1096600007462078052805D198480078072801D1B9
:10967000012000E0002002902078042805D19348C2
:109680000078072801D1012000E000200190207817
:1096900004280BD18F48008880026188884205DB4E
:1096A0008A480078002801D1012000E000200090C5
:1096B0000298002807D10198002804D100980028BA
:1096C00001D1002F1FD00020804908703046FFF7DD
:1096D00046FF7C490878FFF7EDFC00207D490880B3
:1096E00078484078401E774948700846007800E086
:1096F0001AE0401C0870084600780A2803DB084678
:1097000000780A380870FFF75CFF0646002E02D08A
:109710003046FFF724FF05E003E00D20FFF71FFFB1
:1097200000E000BF00BF00BF00BF7BE770B5FFF7E0
:10973000DDFC00206849088068484069401C00281A
:1097400008D001221207126991B2644A506901F0EF
:10975000D7FD02E0012000074069801E01210907B2
:10976000096989B248435E49086000205949088068
:1097700000BF0DE000210201534B99500201D218A5
:1097800011810201D21891810201D2185181401C2D
:109790000028EFD008204D49087050484069401C0F
:1097A000002808D001221207126991B24B4A506971
:1097B00001F0A6FD02E0012000074069401E0121E2
:1097C0000907096989B24843064601200007006974
:1097D00081B2304601F094FD054620DF0446002C9E
:1097E00004D101203749887039490870204670BD7E
:1097F000F8B504460D4600BF35480078002801D171
:109800000820F8BD00BF002C01D10E20F9E7002D83
:1098100001D10E20F5E72068002801D10E20F0E7E5
:10982000A08801210907096989B2884202DCA08861
:10983000102801DA0720E4E7E08800281ED0274836
:109840004069401C002808D001221207126991B219
:10985000224A506901F054FD02E0012000074069EE
:10986000401E01210907096989B24843E188A2889D
:1098700051431B4A12688918884201D20720C0E769
:1098800020798007800F002801D00720B9E712480F
:109890000088012801D10420B3E70F480088286020
:1098A0000F48006868600C4909880901064A891850
:1098B0006868486008490988090120685050A088F4
:1098C00005490FE0A824002074250020EB2000208B
:1098D000EA200020E8200020E020002000100010F6
:1098E000E42000200988090189180881E088FE49E0
:1098F00009880901891848810027A688E1884E4314
:1099000000BF781C87B201200007006980B2B04216
:1099100005D201200007006980B2361A00E0002657
:1099200001200007006980B2F04909684018EF493A
:10993000086001200007006980B2B042E1D9EA481E
:1099400000880001EA4940188781E7480088401CE8
:10995000E5490880002054E73CB5034600BFE548D0
:109960000078002801D108203CBD00BF002B01D1A8
:109970000E20F9E7002A01D10E20F5E7186800282B
:1099800005D118680001DA4C2058002801D10720C1
:10999000EAE75C68186801940090019C186800016F
:1099A000D34D4019008948432018019000980001C8
:1099B0002C4600194089009C2401641924896043C5
:1099C000009C2401641964680019019CA04201D81C
:1099D0000720C9E7019C0098546010600020C3E78D
:1099E000F8B504460E4615461F4600BFC14800782C
:1099F000002801D10820F8BD00BF002E01D10E20A3
:109A0000F9E7002C01D10E20F5E72068002805D1E8
:109A100020680001B6490858002801D10720EAE76C
:109A200020680001B2494018408921680901B04A04
:109A3000891809894843216809018918496840182B
:109A40006168884201D80720D5E7002D06D020683C
:109A50000001A74940180089A84201DA0720CAE797
:109A6000E81921680901A24A89180989884201DD9B
:109A70000720C0E7304600F05CF9002804D03846E3
:109A800000F057F9002801D11020B4E7606800F019
:109A900050F9002801D11020ADE72B46324621466F
:109AA00002200097FFF716FDA5E7F8B504460E461D
:109AB00015461F4600BF8F480078002801D10820B6
:109AC000F8BD00BF002E01D10E20F9E7002C01D116
:109AD0000E20F5E72068002805D1206800018449A0
:109AE0000858002801D10720EAE7206800018049D2
:109AF00040184089216809017D4A8918098948432D
:109B0000216809018918496840186168884201D8AC
:109B10000720D5E7002D06D02068000174494018C1
:109B20000089A84201DA0720CAE7E819216809017B
:109B30006F4A89180989884201DD0720C0E730464D
:109B400000F0F7F8002804D0384600F0F2F80028BA
:109B500001D11020B4E7606800F0EBF8002801D1D3
:109B60001020ADE72B463246214605200097FFF72F
:109B7000B1FCA5E7FFB581B00C4615461E4600BFF7
:109B80005C480078002802D1082005B0F0BD00BF75
:109B9000002C01D10E20F8E70198002801D10E20F9
:109BA000F3E72068002805D12068000150490858D3
:109BB000002801D10720E8E7206800014C4940183F
:109BC0004089216809014A4A89180989484321685E
:109BD00009018918496840186168884201D807203E
:109BE000D3E7002D06D020680001414940180089C4
:109BF000A84201DA0720C8E7A819216809013C4AF0
:109C000089180989884201DD0720BEE7019800F024
:109C100090F8002804D0304600F08BF8002801D1DD
:109C20001020B2E7606800F084F8002801D110200D
:109C3000ABE7606881192A46019801F0B5FA0095F2
:109C4000206800012A490F58002203212046019B69
:109C5000B847002099E7F8B504460D4600BF2548EF
:109C60000078002801D10820F8BD00BF002C01D1E8
:109C70000E20F9E72068002805D1206800011C4962
:109C80000858002801D10720EEE720680001184994
:109C90004018408921680901154A891809894843F3
:109CA000216809018918496840186168884201D80B
:109CB0000720D9E7606800F03CF8002801D11020A7
:109CC000D2E723681B010A4FDB1962685B68D01A70
:109CD000226812013B46D218118901F011FB0029BC
:109CE0000AD00720C0E70000E0200020E420002088
:109CF00074250020EA20002000202B460246214641
:109D000000900420FFF7E6FB06463046ACE701462C
:109D100000BF0C480078002801D10820704700BF20
:109D2000002901D10E20F9E707484078086000209B
:109D3000F4E701468807800F002801D10120704711
:109D40000020FCE7EA200020A824002070B503468C
:109D50000C460820002115E00C254D43FE4EAD19A0
:109D6000AD7A2540002D0CD0FC4DAB4205D00C2522
:109D70004D43AD192D899D4202D11160002003E0B1
:109D80000520491C0029E7D000BF70BD10B504466E
:109D900018216143F24A891808461130062101F062
:109DA000ABFA18206043EE49401800210160416081
:109DB0008160C160FF2118206043E94A8018017466
:109DC000182060438018C175204601F00EF910BDBF
:109DD0007CB50546A9B26A46E248FFF7BDFD0446D8
:109DE000002C09D14C216846FFF735FF0446002CB2
:109DF00002D12846FFF7CAFF20467CBDF8B50546CC
:109E00000E46052700240FE018216143D44A891823
:109E1000084610300722294601F076F9002802D1C1
:109E20003460002702E0641C072CEDD300BF3846E5
:109E3000F8BD10B5044601210C206043C64A8018C5
:109E40008172891E0C20604380180181FF210C2043
:109E500060438018C1720C2161438818072101F00A
:109E60004BFA10BD10B50446002010BDF0B587B008
:109E700007460C461420019061780C225143B64AE3
:109E80008918088901AA02A9AADF0646002E46D130
:109E9000617818225143B44A8918081D69468A8896
:109EA00002A901F031F9002812D160780C21484351
:109EB000A9494018807A0221084002282FD06178F1
:109EC00018225143A84A8818182101F017FA26E0F1
:109ED000607818214843A4490858002801D0A34DB0
:109EE00000E0A34D694689886078182250439E4A55
:109EF00011506178182251439B4A8918081D694600
:109F00008A8802A9FCF72EF9607818225043964AF5
:109F10008118302318223846A847064600BF002083
:109F200007B0F0BD02460020704770B505460C46EC
:109F30006178182251438C4A881830231822294608
:109F4000FFF718FE0646002E0DD160781821484311
:109F500085490858401C002805D100216078182246
:109F60005043814A1150304670BD02460020704770
:109F7000F8B50446002600276078182148437A493E
:109F8000085800281FD060780C21484372494018B7
:109F9000807A40210840402815D160780C21484340
:109FA0006D494018807A2021084020280BD0607825
:109FB000182148436C494018061D60781821484311
:109FC0006949085A87B261780C225143624A89185C
:109FD00008893A463146A9DF0546002D00D0654D77
:109FE0002846F8BD0146002070470146002902D1ED
:109FF000604833387047FF20087048708870C87018
:10A000000020F7E7FFB58BB00F461D4600BF5A484A
:10A010000068002801D10FB0F0BD00BF14984C2893
:10A0200000D9F8E70120029007A8FFF7DEFF0646F7
:10A0300000BF0196019E002E06D000BF4F4A504936
:10A040000198FCF793F900BF00BF00216846017733
:10A0500008A801700695149805900020019017E05B
:10A06000019881B203AA3F48FFF776FC0646002E0E
:10A070000BD1082203A90B9801F046F8002804D15F
:10A080000198C1B26846817705E00198401C0190B3
:10A0900001980728E4D300BF6846807FFF2875D069
:10A0A000042F0AD114984C2803D1202008A9087045
:10A0B00082E0402008A908707EE02949681A18212A
:10A0C00001F01EF90446072C1DD205A809900D9831
:10A0D000002810D16946887F01218140294A1268F1
:10A0E0001140002901D0012100E00021002902D106
:10A0F0000020029060E06946887F00F076FF202013
:10A1000008A9087058E02049681A182101F0F8F8E9
:10A110000446002C0DD105A80990202108A8017043
:10A1200068464477807F182148430D4940180690BF
:10A1300042E00D49681A182101F0E2F80446002CAB
:10A1400035D1302108A80170684644770121C177D4
:10A150000C20604300491AE05C260020FFFF00004D
:10A1600084250020EC20002044260020AB9A01002A
:10A17000E1990100418000006826002024B501001B
:10A18000BC040000F42000202C26002036E04018FB
:10A19000807A0221084002280ED06946497F1822A1
:10A1A0005143FB4A8818182101F0A8F804E0002068
:10A1B0000290402008A90870029801281ED1042F9F
:10A1C00006D108A908780321084308A908700EE001
:10A1D000032F06D108A908780121084308A90870AF
:10A1E00005E008A908780221084308A9087005A815
:10A1F000099008A907A80D9A00F03AFF00BF0AE7E6
:10A200007FB50646002E02D1E24804B070BD00249E
:10A210000BE000BF00210C206043DF4A11500C20EE
:10A2200060438018817200BF641C002CF1D00024B0
:10A2300003E02046FFF7FDFD641C002CF9D0182137
:10A24000D34801F05BF8002406E02046FFF79EFDAE
:10A25000FF20D2490855641C072CF6D34C216846D0
:10A2600081810721C181CE480290CE4902A8FFF723
:10A27000BFFA0546002D30D10120CB490870307857
:10A28000002821D100241CE0A1B26A46C548FFF78E
:10A2900063FB0546002D0FD118216143C34A88187E
:10A2A000002318226946FFF765FC0546002D07D0FC
:10A2B0000020BD49087006E00020BB49087002E09C
:10A2C000641C072CE0D308E06A469089D289504389
:10A2D00081B2B448FFF7BFFC0546284695E770B544
:10A2E00005460C4600BFB0480078002802D1A948B6
:10A2F000801F70BD00BF002D01D1A648F9E7002CDA
:10A3000001D1A448F5E72068002801D1A148F0E771
:10A31000A148006800280FD19F49206808600622E4
:10A32000A11D9D48001D00F03FFF20799A498872C9
:10A3300000202870002601E0964E0A3E3046D8E7FD
:10A3400070B5044600BF98480078002802D19148B3
:10A35000801F70BD00BF002C01D18E48F9E700BFFF
:10A360002078012806DA20780C2148438A490858C9
:10A37000002802D18748801FEBE700BF00BF60784C
:10A38000012807DA60780C21484389494018807A0F
:10A39000012802D17F48801CDBE700BF7D4DAD1F47
:10A3A00060780C21484382494018807A0221084095
:10A3B000022809D161780C2251437D4A8918088905
:10A3C0007549091D7EDF05462846C2E7024600BFE3
:10A3D00075480078002802D16E48801F704700BF82
:10A3E000002A01D16B48F9E7002901D16948F5E756
:10A3F00000BF1078012806DA10780C235843664B0A
:10A400001858002802D16348801FE7E700BF00BF4B
:10A410005078012807DA50780C235843644BC01851
:10A42000807A012802D15B48801CD7E700BF5078B2
:10A430000C2358435E4BC018807A04231840002830
:10A4400002D0012008700EE050780C235843584B7E
:10A45000C018807A40231840002802D002200870DB
:10A4600001E0002008700020B8E7F0B5044600BF06
:10A470004D480078002802D14648801FF0BD00BF3B
:10A48000002C01D14348F9E7002901D14148F5E703
:10A490000868002801D13F48F0E78868002801D10A
:10A4A0003C48EBE700BF2078012806DA20780C252D
:10A4B0006843394D2858002802D13648801FDDE70F
:10A4C00000BF00230022002024E018254543374E1A
:10A4D000AD19ED7DED07ED0F002D08D11825454391
:10A4E000AD1997008E68F5512C4EB054521C1825AA
:10A4F00045432E4EAD19ED7D02263540002D08D185
:10A5000018254543294EAD1910359F000E68F551A9
:10A510005B1C401C072805D20D799D4202D90D7B9A
:10A520009542D2D80B710A730020A7E7024619485A
:10A530008230704770B5044600BF1B480078002881
:10A5400002D11448801F70BD00BF002C01D11148FA
:10A55000F9E700BF2078012806DA20780C2148436B
:10A560000D490858002802D10A48801FEBE700BFB8
:10A5700000BFA078072807DAA078182148430B49C4
:10A580004018C07DFF2815D10248801CDBE7000081
:10A59000442600200E80000068260020F9200020BC
:10A5A00005A00100EC200020F820002084250020D8
:10A5B0005C26002000BFA078FFF70AFC054628466D
:10A5C000C1E770B5044600BFFE480078002801D1FD
:10A5D000FD4870BD00BF002C02D1FB48801DF8E78C
:10A5E00000BF2078012806DA20780C214843F7497B
:10A5F0000858002801D1F448EBE700BF00260025E9
:10A600000BE018206843F2494018C07DFF2803D0B2
:10A610002846FFF7DDFB06466D1C072DF1D33046BB
:10A62000D7E7FEB504460D4600BFE648007800288F
:10A6300001D1E548FEBD00BF002C02D1E248801DDB
:10A64000F8E7002D02D1E048801DF3E700BF207835
:10A65000012806DA20780C214843DC4908580028F4
:10A6600001D1D948E6E700BF00BF6078012807DACA
:10A6700060780C214843D7494018807A012802D1DC
:10A68000D1480830D6E700BF00BFA078072807DA16
:10A69000A07818214843CE494018C07DFF2802D138
:10A6A000C9480830C6E700BFA868002812D068680B
:10A6B00000280FD0686814280CD22878012809D106
:10A6C000637818277B43C44FDB19181D6A68A96893
:10A6D00000F06AFDA1786A46C048FFF73DF90646DA
:10A6E00028788000BE490A582146684690470646A9
:10A6F00030469FE77CB504460D4600BFB148007860
:10A70000002801D1B0487CBD00BF002C02D1AE486A
:10A71000801DF8E7002D02D1AB48801DF3E700BF94
:10A720002078012806DA20780C214843A7490858E8
:10A73000002801D1A448E6E700BF00BFA0780728A1
:10A7400007DAA07818214843A1494018C07DFF28A6
:10A7500002D19D480830D6E700BF60780C214843FD
:10A760009C494018807A02210840022802D096486D
:10A770008930C8E7A868002812D1686814280FD269
:10A78000287801280CD16078182148439249401854
:10A79000001DA8606078182148438F4908586860F8
:10A7A000A1786A468D48FFF7D7F8064628788000DA
:10A7B0008C490A5821466846904706463046A2E72B
:10A7C000014600BF7F480078002801D17E487047CD
:10A7D00000BF002902D17C48801DF8E700BF08783F
:10A7E000012806DA08780C225043784A10580028CD
:10A7F00001D17548EBE700BF00BF8878072807DA6A
:10A80000887818225043724A8018C07DFF2802D1F0
:10A810006D480830DBE700BF6B488830D7E7024659
:10A820006948893070470246674889307047014659
:10A83000654889307047024600BF624800780028AA
:10A8400001D16148704700BF002902D15E48801DD8
:10A85000F8E7002A02D15C48801DF3E700BF1078BA
:10A86000012806DA10780C235843584B1858002852
:10A8700001D15548E6E700BF107808700020E1E7F5
:10A88000FEB504460E46A1786A465448FFF764F8C0
:10A890000546002D49D160780C2148434D494018A8
:10A8A000807A20210840202801D0022E01D14E4F6D
:10A8B00004E0012E01D14D4F00E04D4FA078182249
:10A8C0005043434A8118002318226846B84705467A
:10A8D000002D1AD1022E18D060780C2148433D4932
:10A8E0004018807A2021884361780C225143394AEC
:10A8F000891888726078182250433E4A81181823BC
:10A900001A466846B847054600BF022E0DD020788B
:10A910000C2148432D494018807A800030490A585C
:10A92000214668469047054600BFFEBD70B5044607
:10A930000D4600BF23480078002801D1224870BD91
:10A9400000BF002C02D12048801DF8E7002D02D165
:10A950001D48801DF3E700BF2078012806DA207823
:10A960000C21484319490858002801D11648E6E748
:10A9700000BF00BFA078072807DAA0781821484355
:10A9800013494018C07DFF2802D10F480830D6E790
:10A9900000BF6078FF2839D12878022836D0A17806
:10A9A000182251430A4A89180846103007222946BE
:10A9B00000F0FAFBA078012181400F4A1268114390
:10A9C0000D4A1BE0F82000200880000068260020C7
:10A9D000842500205C26002044260020EC20002056
:10A9E000F0B4010000B50100AB9A0100E19901004B
:10A9F000659E01002C260020F4200020116000BF7D
:10AA000002212046FFF73CFF002600E0FE4E3046C4
:10AA100095E770B504460E4600BFFC480078002854
:10AA200002D1F948401C70BD00BF002C02D1F6488D
:10AA3000C01DF8E7002E02D1F348C01DF3E700BFA8
:10AA40002078012806DA20780C214843F04908587C
:10AA5000002802D1EC48401CE5E700BFEA4DAD1EDE
:10AA6000A078FF2817D16078FF282AD060780C21C1
:10AA70004843E8494018807A02210840022820D142
:10AA800060780C225043E34A81180722304600F0D8
:10AA90008BFB002515E0A07818214843DE494018BB
:10AAA000C07D0221084000280BD1A0781822504315
:10AAB000D94A8018014610310722304600F074FB55
:10AAC00000252846AFE7F0B58BB004460026FF20EE
:10AAD000049000BFCD480078002801D10BB0F0BD34
:10AAE00000BF00BFCA480068002800D1F6E700BFD9
:10AAF00008A8FFF77AFA054600BF2F46002F06D0B8
:10AB000000BFC64AC6493846FBF730FC00BF00BF4D
:10AB10000020039009900025201D069034216846EE
:10AB20008183FF2108A881700021017000200A9014
:10AB30002088102813D0A0880AAA0221FFF706F95E
:10AB40000546002D0BD10C210A984843B149401805
:10AB5000C17A08A881700A98C1B208A841702088FB
:10AB600014287DD006DC10280BD0112879D01328AA
:10AB700078D1DAE0172876D0182875D05228F7D186
:10AB80000DE20AAF3A460121A648FFF7DFF802902E
:10AB90000298002807D102210C22386850439D4AB0
:10ABA0008018817201E00420029002980546002D71
:10ABB00071D101261121684601750A98C1B208A811
:10ABC0004170A1880C220A985043924A8018018152
:10ABD00002210C220A9850438E4A801881720C225E
:10ABE0000A9951438B4A88180722A11D00F0DCFA0C
:10ABF000607B304000280AD0607B40088A49085CAE
:10AC0000FF2809D0607B4008085C049004E004A998
:10AC1000A01DFFF7F3F80546002D3CD10498C1B202
:10AC20000C220A9850437B4A8018C1720C210A9862
:10AC3000484311464018807A082108430C220A999B
:10AC40005143744A8918887208A904988870049836
:10AC500081B201AA7548FEF77FFE0546002D04E08B
:10AC60004EE019E0A4E1A1E078E113D118220A999D
:10AC700051436F4A881818231A4601A9FEF77AFF34
:10AC80006348807A80006B490A5808A901A8904758
:10AC9000054600BF00BF8CE10C210A9848435D497E
:10ACA0004018807A022188430C220A995143594A5C
:10ACB000891888720C210A98484311464018807AF6
:10ACC00008210840082804D1002108A8FFF7D8FD72
:10ACD0000AE008A88078FF2806D008A98878FFF73E
:10ACE00055F8FF2008A9887010210C220A985043BB
:10ACF000484A80188172012612206946087558E179
:10AD00000C210A98484343494018C07AFF2806D0CE
:10AD100018210A98484346494018001D0390A0880E
:10AD20000022039981DF054643E113206946087537
:10AD3000A088374A121D00217FDF0546002D02D072
:10AD40000995002631E00C210A9848433149401802
:10AD5000807A042108430C220A9951432D4A89180C
:10AD6000887201260C210A98484311464018C07A7F
:10AD7000FF281AD000BF16206946087518220A99C4
:10AD800051432D4A8918081D142100F0B7FA0C21EF
:10AD90000A9848431F494018807A202108430C2212
:10ADA0000A9951431B4A8918887202E10C210A98BA
:10ADB000484318494018807A042188430C220A9994
:10ADC0005143144A8918887214206946087501266F
:10ADD000A079002802D0A0790990BEE018210A9835
:10ADE000484313494118E07A887018210A9848436B
:10ADF0000F494118A07A487018220A9951430C4A09
:10AE00008918081D142219E007800000F82000208E
:10AE1000682600205C2600208425002024B501003F
:10AE2000F3080000FFFF0000F9200020EC200020C4
:10AE30002C26002000B501004426002021460C31BC
:10AE400000F0B2F90C210A984843A9494018807AC9
:10AE50004021084040286BD10C210A984843A4495E
:10AE60004018807A082108430C220A995143A04ACD
:10AE7000891888720C210A98484311464018C07AF4
:10AE8000FF2858D10C220A9850430A46811804A87A
:10AE900000F0B3F80546002D4BD108A9049888703E
:10AEA0000498C1B20C220A985043914A8018C1728A
:10AEB000E07A4007C00F002817D018220A995143A2
:10AEC0008C4A881810222146203100F06DF9182193
:10AED0000A98484387494018C07D41084900182214
:10AEE0000A985043834A8018C175E07A0007C00F62
:10AEF000002819D018220A9951437E4A8918084619
:10AF0000103007222146303100F04EF918210A98FE
:10AF1000484378494018C07D0221884318220A9985
:10AF20005143744A8918C875012108A8FFF7A8FC85
:10AF300013E0099511E00C210A9848436C49401828
:10AF4000807A202108430C220A995143684A8918C3
:10AF50008872002108A8FFF793FC2AE00C210A98C8
:10AF6000484363494018807A402108430C220A99DB
:10AF700051435F4A89188872152069460875002078
:10AF8000099001265C48807A80005C4A115808A824
:10AF900088470546002D01D05948099009E05648D8
:10AFA000807A8000554A115808A88847099000E027
:10AFB00000BF00BF002E16D005A908A8099A00F00E
:10AFC00057F86846007D12280DD100BF0C210A9861
:10AFD000484347494018807A012802D00A98FEF772
:10AFE00028FF00BF00BF00BF78E501218140454A2E
:10AFF00012688A4343490A607047F8B505460E4611
:10B000003F4FBF1C00242EE01820604339494018F0
:10B01000C07DFF2826D13078022814D01820604344
:10B020004018C07D0221884318216143314A8918A4
:10B03000C875182161438918084610300722314627
:10B0400000F0B2F80BE0182060432A494018C07D98
:10B050004108490018206043264A8018C1752C70A9
:10B06000002702E0641C072CCED300BF3846F8BD91
:10B07000F8B504460D4616461F480768324629466D
:10B080002046B847F8BD02460020704770B5054617
:10B090000E4631462846FEF7E9FE0446002C02D152
:10B0A00000BF00BF0446204670BD02460020704726
:10B0B00070B505460E4631462846FEF736FF044673
:10B0C000002C02D100BF00BF0446204670BD0146DF
:10B0D0000020704770B505462846FEF749FF044634
:10B0E000002C02D100BF00BF0446204670BD000006
:10B0F0005C260020842500206826002010B5010071
:10B1000041800000F4200020034610B50B439B074C
:10B110000FD1042A0DD308C810C9121FA342F8D0BA
:10B1200018BA21BA884201D9012010BD0020C043BD
:10B1300010BD002A03D0D30703D0521C07E0002023
:10B1400010BD03780C78401C491C1B1B07D10378E9
:10B150000C78401C491C1B1B01D1921EF1D11846D2
:10B1600010BD000030B5441C03E00178401C0029EC
:10B170000DD08107F9D10B4BDD0104C8D11A9143E1
:10B180002940FAD0001B0A0603D0C01E30BD001BA8
:10B1900030BD0A0401D0801E30BD0902FCD0401E23
:10B1A00030BD000001010101F8B5042A2CD383074A
:10B1B00012D00B78491C0370401C521E83070BD021
:10B1C0000B78491C0370401C521E830704D00B7877
:10B1D000491C0370401C521E8B079B0F05D0C91AD7
:10B1E000DF002023DE1B08C90AE0FAF7BBFFF8BD29
:10B1F0001D4608C9FD401C46B4402C4310C0121F18
:10B20000042AF5D2F308C91A521EF0D40B78491C4F
:10B210000370401C521EEAD40B78491C0370401C7A
:10B22000012AE4D409780170F8BD431A70B593423D
:10B230001BD28918801804E0491E401E0B78521E4C
:10B2400003709307F8D106E01039103878C9103927
:10B2500078C01038103A102AF6D203E0091F001FF8
:10B260000B680360121FF9D570BDFAF77BFF70BD44
:10B27000F8B5064614460843800707D0751AA5425C
:10B2800019D20819102D13D2311907E03046FFF7F3
:10B29000CCFFF8BD401E491E02780A70641EF9D228
:10B2A000F8BD471B2A463946FFF77EFF641B384628
:10B2B000A542F6D3011B22463046FFF775FFF8BDC5
:10B2C00001E004C0091F0429FBD28B0701D50280CD
:10B2D000801CC90700D00270704700290BD0C3073B
:10B2E00002D00270401C491E022904D3830702D5F4
:10B2F0000280801C891EE3E70022EEE70022DFE7E0
:10B30000002203098B422CD3030A8B4211D3002362
:10B310009C464EE003460B433CD4002243088B423C
:10B3200031D303098B421CD3030A8B4201D39446C9
:10B330003FE0C3098B4201D3CB01C01A52418309BC
:10B340008B4201D38B01C01A524143098B4201D376
:10B350004B01C01A524103098B4201D30B01C01AA1
:10B360005241C3088B4201D3CB00C01A524183081B
:10B370008B4201D38B00C01A524143088B4201D348
:10B380004B00C01A5241411A00D2014652411046A8
:10B3900070475DE0CA0F00D04942031000D340421D
:10B3A000534000229C4603098B422DD3030A8B4253
:10B3B00012D3FC22890112BA030A8B420CD38901F1
:10B3C00092118B4208D3890192118B4204D38901D7
:10B3D0003AD0921100E08909C3098B4201D3CB0115
:10B3E000C01A524183098B4201D38B01C01A5241CA
:10B3F00043098B4201D34B01C01A524103098B42CE
:10B4000001D30B01C01A5241C3088B4201D3CB00B8
:10B41000C01A524183088B4201D38B00C01A52419B
:10B42000D9D243088B4201D34B00C01A5241411A72
:10B4300000D20146634652415B10104601D34042A0
:10B44000002B00D54942704763465B1000D3404251
:10B4500001B50020C046C04602BD70477047704726
:10B46000754600F025F8AE46050069465346C0080B
:10B47000C000854618B020B5FAF7A4FE60BC0027CE
:10B480004908B6460026C0C5C0C5C0C5C0C5C0C5B0
:10B49000C0C5C0C5C0C5403D49008D46704710B508
:10B4A0000446C046C0462046FAF746FE10BD0000DE
:10B4B000004870477426002001491820ABBEFEE703
:10B4C00026000200704730B47446641E2578641C60
:10B4D000AB4204D3635D5B00E31830BC18471D46E4
:10B4E000F8E700000D1801000F1801000A1801000C
:10B4F00087B001006D9E0100259F01008DB0010005
:10B50000ABB001002B9F01006B9F0100B1B00100A7
:10B51000CFB00100719F0100E59F0100D5B001008F
:10B52000FFFFFFFF2E2E5C2E2E5C2E2E5C2E2E5C3F
:10B530002E2E5C536F757263655C626C655C64652E
:10B54000766963655F6D616E616765725C6465767F
:10B550006963655F6D616E616765725F7065726971
:10B5600070686572616C2E63000000007CB501009C
:10B570000020002000010000046101000024F4000C
:10B58000FFFF0100000000000000000000000000BC
:10B5900000000000000000000000000000000000AB
:10B5A000000000000000000000000000000000009B
:10B5B000000000000000000000000000000000008B
:10B5C000000000000000000000000000000000007B
:10B5D000000000000000000000000000000000006B
:10B5E000000000000000000000000000000000005B
:10B5F000000000000000000000000000000000004B
:10B60000000000000000000000000000000000003A
:10B61000000000000000000000000000000000002A
:10B62000000000000000000000000000000000001A
:10B63000000000000000000000000000000000000A
:10B6400000000000000000000000000000000000FA
:10B6500000000000000000000000000000000000EA
:10B6600000000000000000000000000000000000DA
:0CB67000000000000000000000000000CE
:04000005000160C1D5
:00000001FF
