:020000040003F7
:10AC00004034002061AE03007BAE03007DAE030044
:10AC10000000000000000000000000000000000034
:10AC20000000000000000000000000007FAE0300F4
:10AC3000000000000000000081AE030083AE0300AE
:10AC400085AE030085AE030085AE030085AE03002C
:10AC500085AE030000000000B1C3030085AE030011
:10AC600085AE030085AE030085AE030085AE03000C
:10AC700085AE030085AE030085AE030085AE0300FC
:10AC800085AE0300B7BC030085AE030085AE0300AC
:10AC9000CDBC030085AE0300ADC5030085AE030047
:10ACA00085AE030085AE0300000000000000000038
:10ACB0000000000000000000000000000000000094
:10ACC00000F002F800F03EF80CA030C80838241854
:10ACD0002D18A246671EAB4654465D46AC4201D1D4
:10ACE00000F030F87E460F3E0FCCB64601263342C8
:10ACF00000D0FB1AA246AB4633431847843000000D
:10AD0000A4300000103A02D378C878C1FAD85207AC
:10AD100001D330C830C101D504680C607047000011
:10AD20000023002400250026103A01D378C1FBD867
:10AD3000520700D330C100D50B6070471FB51FBD4F
:10AD400010B510BD02F0CCFF1146FFF7F7FF00F081
:10AD5000C0F802F0E4FF03B4FFF7F2FF03BC02F017
:10AD6000EBFF0000026882F3088843681847000080
:10AD7000401E00BF00BF00BF00BF00BF00BF00BF3C
:10AD800000BF00BF00BF00BF00BFF1D1704700008F
:10AD900070B505460C46164602E00FCC0FC5103EB6
:10ADA000102EFAD2082E02D303CC03C5083E042E7F
:10ADB00007D301CC01C5361F03E021782970641C3C
:10ADC0006D1C761EF9D270BD10B500F01DF800287C
:10ADD00005D01F491D484860C8131E4988611E4898
:10ADE000018CC9B201290ED1818C09070BD1018DCB
:10ADF0000906090F042906D1808D0006000F02D133
:10AE000016490120886010BD1348018CC9B2012980
:10AE100017D1818C090714D1018D09060A0F03D1BE
:10AE2000828D1206120F0ED0090F012903D1828DD7
:10AE30001206120F07D0032903D1808D0006000FE0
:10AE400001D000207047012070470000DFFF07C0DD
:10AE500000050040006C0040C00F00F000060040FC
:10AE600003210C4802680A4302600B4802680A4347
:10AE700002600A4880470A480047FEE7FEE7FEE70F
:10AE8000FEE7FEE7FEE7000006480749074A084BD1
:10AE9000704700002405004054050040C9AD030080
:10AEA000C1AC03004028002040340020402C00208A
:10AEB000402C002001207F490006886000F08BF8BC
:10AEC0000A4601467C48FFF7F5FF10B501F0E4FCA7
:10AED00010BD08B5794903200860091D0860091DE7
:10AEE0000860091D08607648EB21406989028842A4
:10AEF00013D10120000700690121890288420FD186
:10AF000070480090704B05220321002000F004FFE0
:10AF100000280AD06DA29D2105E06CA2EB2101E082
:10AF20006AA2EC210020FFF7C5FF67490120143910
:10AF300001F07EFA002802D064A29221F3E75F4973
:10AF4000032000040839086000F05BF8624A14210D
:10AF5000082001F033F9002802D05CA2DE21E2E7EC
:10AF6000544D28695D4CC00CC007C00F04D020466A
:10AF700000F081FA00280CD10120C005A86000F083
:10AF8000FAFA002802D051A2FD21CCE7172000F0E8
:10AF90002AF8204600F06FFA00280ED0152000F0A5
:10AFA00022F8162000F01FF8172000F01CF81820D7
:10AFB00000F019F8204600F00AFB152000F013F805
:10AFC000162000F010F8172000F00DF8182000F0FF
:10AFD0000AF800F000F8BFF34F8F42494048C860BC
:10AFE000BFF34F8FFEE7012181403248C1607047B7
:10AFF0001CB5019100903C4A0821684601F0F2F826
:10B000001CBD00B5394B85B00FCB03936B4607C30E
:10B01000684618DF002802D02CA2C42125E0EB20CE
:10B02000800213DF002802D028A2C7211DE02A4990
:10B030002F4B50225039082001F094FA002802D0FA
:10B0400022A2CA2111E0002069460490087404A8D5
:10B0500060DF002802D01DA2D22106E0254801F0C1
:10B060009DFA002803D019A2D621FFF723FF05B0CF
:10B0700000BD10B50246082905D0FF211EA21B31D4
:10B080000020FFF717FF11685068884710BD10B502
:10B090000021254A084601F0A5F810BD10B5002989
:10B0A00004D022A299210020FFF704FF01F01CFA2E
:10B0B00010BD000000050050EFBEADDE540700508B
:10B0C00000100010F1AF0300042100202E2E5C6D53
:10B0D00061696E2E6300000094230020006001006F
:10B0E0000400FA0500ED00E073B0030060DD03002A
:10B0F0008FB00300CBAE03002E2E5C2E2E5C2E2EC6
:10B100005C2E2E5C2E2E5C496E636C7564655C61F2
:10B1100070705F636F6D6D6F6E5C6170705F74698E
:10B120006D65722E680000009DB003002E2E5C2E0F
:10B130002E5C2E2E5C2E2E5C2E2E5C496E636C7562
:10B1400064655C73645F636F6D6D6F6E5C736F6677
:10B15000746465766963655F68616E646C65722EA0
:10B160006800000010460A4610B5B1494C68042C2E
:10B1700003D1022A01D1002806D0002803D0ADA2B5
:10B180004D21FFF797FE10BD8A69002AFBD01946B2
:10B19000904710BD10B5A64B01201870032000F099
:10B1A000A3F910BD10B5A24C2078002801D00820CA
:10B1B00010BD606900F0B2FE002803D09DA270218E
:10B1C000FFF778FE0F2100224904606900F03EFE7F
:10B1D000041E03D097A27321FFF76CFE204610BD1A
:10B1E000F0B59A4987B09848914D086000246C707A
:10B1F0002946974F6C802431944801F005FD0028C2
:10B200001CD10B20294640032431486028460146C2
:10B21000496AC1611C3093264760760202A800F09B
:10B2200001FA0498FE2802D13868401C0ED08048EC
:10B2300031461C3001F034FD002802D06C6007B0AC
:10B24000F0BD0220019A009900F04EF97848814A39
:10B250000021143000F0B3FD002803D075A2A42112
:10B26000FFF728FE0F2100224904686900F0EEFD77
:10B27000002803D06FA2A821FFF71CFEEE6001207A
:10B280002C6168600020DAE769498861704770B511
:10B29000674C0546E068854201D90C2070BDA807BF
:10B2A00001D0062070BD6068012801D0082070BD63
:10B2B000FFF778FF0028FAD10221A560616070BD18
:10B2C00070B5050004D0287A800703D0102070BD27
:10B2D0000E2070BD564C6068022805D0032803D0AC
:10B2E000042803D0082070BD042060606868A1684D
:10B2F000860020698019884204D90020C04320615B
:10B300000C2070BDFFF74EFF0028FAD14848A9680D
:10B3100032461C30236901F093FC0028F1D12169E9
:10B3200089192161A2689142EBD0092070BDF8B55E
:10B330003F4C05466068022802D0032805D101E091
:10B34000032060602069002801D00820F8BDFFF7C5
:10B3500029FF0028FAD13D4B0021403B08E0AA68B4
:10B360008E00965962789700521CDE516270491C1B
:10B370006A688A42F3D8F8BD70B52D4C606804281D
:10B3800005D105206060A1682069884201D00825A8
:10B3900015E0FFF707FF050011D100222C48A16836
:10B3A00001F07EF829496080403962780988002AD6
:10B3B00003D0884201D00B2070BD06206060284673
:10B3C00070BD3EB51A4C6068062802D00825284694
:10B3D0003EBD606900F0A2FD002804D0FF2115A247
:10B3E0009531FFF767FD1248A168243001F058FC41
:10B3F000002804D0FF210FA29931FFF75BFD0C4814
:10B4000000231C3041680830A26801F019FC0500D7
:10B41000DDD1009061886A469180A268029201990C
:10B4200000F062F8D3E710B5042000F05DF810BD1D
:10B43000042000202E2E5C6466755F6475616C5F6D
:10B4400062616E6B2E63000065B10300242500204D
:10B450000086020095B1030010B57C480368012BFB
:10B4600002D1022900D10160100003D078A234215A
:10B47000FFF720FD10BD38B50B2500246D03A84251
:10B4800015D1684600F0FEF80098016801290ED138
:10B490008188002908D0C1680022284601F000F800
:10B4A00000998988814201D1012400E000242046CE
:10B4B00038BD10B5044665481021001D01F06AFB37
:10B4C000002803D062A28521FFF7F4FC5F48002327
:10B4D00010222146001D01F0CCFA002803D05CA206
:10B4E0008B21FFF7E7FC10BD17B581B0684600F06F
:10B4F000C9F801995A48554C002913D003291CD08A
:10B50000FE22012923D002292CD0042909D101F0DF
:10B5100051FD002803D04EA2BE21FFF7CBFC042032
:10B5200020601FBD6946098981800399C16001219E
:10B53000FF2282600160216010E001F03BFD0028E5
:10B5400003D043A2A421FFF7B5FC0320E8E70021C4
:10B5500081800260C1600099896881604048FFF77E
:10B56000A8FF1FBD00990B6803608B888380C968A2
:10B570008260C160F2E73EB53A4800901020019029
:10B580000120029001F0EEF900281FD12F496846F2
:10B59000091D01F010FA002818D1FFF721FE00283C
:10B5A00014D101F004FE0546284C40DF002803D0EA
:10B5B0002DA24621FFF77EFC00F08AFE20680228BB
:10B5C00003D0032801D00428EFD128463EBD70B532
:10B5D00011DF002804D0FF211DA20A31FFF76AFC09
:10B5E000254900200B68244C012180340A46824002
:10B5F0001A4204D0C506ED0E0A46AA402260401C3D
:10B60000C0B22028F2D30B246403204613DF0028A5
:10B6100004D0FF210EA21431FFF74CFC204600F0AD
:10B620002DF870BD1FB50949044600231022091DDD
:10B63000684601F061FA0098206068468088A08022
:10B640000398E0600298A0601FBD00003020002039
:10B650002E2E5C626F6F746C6F616465722E630076
:10B660003025002059B403002E2E5C626F6F746C7D
:10B670006F616465722E630000E100E010B5FFF7B2
:10B6800071FB10BD014901607047000000FC030020
:10B6900030B585B0002822D00388FB4CA34220D0CF
:10B6A000FA4B1B78002B1CD0F84B10255B1C1D702F
:10B6B0005970002401259A70032269460A82009479
:10B6C000019402940394C2890A808D708C8004A92D
:10B6D0000291039300886946A6DF05B030BD0E20B5
:10B6E000FBE70820F9E7F0B589B004460227684671
:10B6F00007700D468783608A08AB07AA0021A5DF83
:10B700000026002804D0616A00291AD0884718E072
:10B710006846008CC007C00F13D06846868020881A
:10B720006946A8DF002812D1A97E284601221B30D5
:10B730000B0002F008FB093F0E1E202224263D28A4
:10B740003F00FF20FE30694688802088A8DF09B0CE
:10B75000F0BD0496298B022902D26846067502E0E4
:10B7600069460A750690226A04A92046904700207F
:10B77000EDE70492F7E70497F5E7032014E00420CF
:10B7800012E0052010E0298B032905D203220821AD
:10B790002046FFF77DFFDAE7417802780802104380
:10B7A0006946888202D006200490DCE70720FBE788
:10B7B0000920F9E70322EBE730B585B00D46040018
:10B7C00032D0002D30D0286800282DD00020C04372
:10B7D000AF4B20800FCB049301AB07C3AD48694644
:10B7E000088001A8811E63DF00281CD1A21C6946C5
:10B7F0000120A0DF002816D16846807820712046FD
:10B8000000F0C0F800280ED1204600F0FBF8002818
:10B8100009D1286820626868002800D060629B49CE
:10B8200001200870002058E70E2056E73EB500289A
:10B8300020D000291ED0026A002A1BD00A88102AB4
:10B8400019D0112A28D0502A17D0512A12D10446D3
:10B850008879891D02280DD14888E289904209D152
:10B860002046891CFFF73FFF002803D0616A0029AA
:10B8700000D088473EBD898810E0CA88C3889A42B4
:10B88000F8D1082200928A7F6B461A71203102910A
:10B89000026A694690473EBD0021C94301803EBD12
:10B8A000F0B585B00A4605002DD028887649884233
:10B8B0002BD076480078002827D0744C1020641CC8
:10B8C0002070072060700127A7700321684601825D
:10B8D0000026E11C104600F04CF801466846008A3C
:10B8E0000918684601820096019602960396E98936
:10B8F00001808770868004A8039402902888694696
:10B90000A6DF05B0F0BD0E20FBE70820F9E7F0B593
:10B9100085B00A46050028D028885B49884226D091
:10B920005A480078002822D0584C1120641C2070FE
:10B930000127684607820026611C104600F019F8AE
:10B9400001466846008A09186846018200960196F9
:10B9500002960396E98901808770868004A8039483
:10B96000029028886946A6DFCBE70E20C9E70820A9
:10B97000C7E70870020A4A70020C8A70000EC8708D
:10B980000420704730B58FB005461C21684602F090
:10B99000E4F86946087804210843694608700024E1
:10B9A00001940394049405940694287908A9887056
:10B9B00038486946801C0884601C00070794000F03
:10B9C0000C77103048778A7FF9200240F720921CCC
:10B9D0000240EF200240012002438A77142109A887
:10B9E00002F0BBF808A8099007A80A9069468C8560
:10B9F0001420CC8508860D946888AB1D09AAA2DFA7
:10BA00000FB030BD30B58FB005461C21684602F03E
:10BA1000A4F86946087808210843102210436946B3
:10BA200008700024019403940494059406942879E2
:10BA300008A9887017486946401C0884601C0007E4
:10BA40000794000F0C7710304877887FF921084061
:10BA5000F721801C0840104301210843694688777C
:10BA6000142109A802F079F808A8099007A80A90FB
:10BA700069468C851720CC8508860D942B466888EE
:10BA80000E3309AAA2DFBBE7FFFF00003C20002025
:10BA900070DD0300301500008307FF22DB0E9A40A3
:10BAA0008907090E994000280BDA0007000F0838B3
:10BAB0008308FF489B001818C36993430B43C36175
:10BAC00070478308FB489B001B1818689043084385
:10BAD0001860704770B50124F74960040860F749A1
:10BAE00040108860F54940398860F54D6C602F2022
:10BAF000FFF73EF9AC60F34D00242F206C61FFF797
:10BB000037F92C7170BDF0B5EE4F2821BC68414368
:10BB10000D1939694A1C09D028224A431619AB6805
:10BB2000B268934204D8D21AB26069623861F0BD3B
:10BB30000A4602E00A46796A9B1B4E1C0BD0282657
:10BB40004E433719BE689E42F4D328264E43361919
:10BB5000B768FF1AB760AB60696228214A431119C0
:10BB60004862F0BDF8B5D74C2569681C36D0D64878
:10BB7000002640686169401A07023F0A1AE028203F
:10BB80004543A0682A189068B84215D8A3693F1A9F
:10BB90008619556A002B0AD0116AD0699847002887
:10BBA00008D0FF21C9A26431FFF784F902E0D1690E
:10BBB000106A8847681CE2D1A178E078814206D1FA
:10BBC000401CC0B2E070022801D10020E070BD49E5
:10BBD0000006800D1C310E5000F0C8F9F8BDF8B514
:10BBE0000446B84801690091467856E0B548F1002E
:10BBF000C2688D184BE0601C07D0B24A28219268B9
:10BC00006143204689184C6A20E028781821414376
:10BC10006A68401CC0B252182870A978884201D1C5
:10BC200000202870A74B506828219B684143C91801
:10BC30001368012B2DD10B7E002B2AD19368CB608A
:10BC4000D3680B6113694B6152690A629D4ACF68E0
:10BC50005369BC46FA1A1202A84F120ABA4202D21B
:10BC60000B69D21809E062469A1A12020B69120A8D
:10BC7000934201D99A1A00E000228A600022CA6029
:10BC80000A6101220A76921E4A62FFF73CFF601C9D
:10BC9000B1D1287869788842ADD13046761EF6B2A7
:10BCA0000028A3D1874801690098814201D0012072
:10BCB000F8BD0020F8BD9249002008604860886007
:10BCC000C8608F494039086048604BE7F0B50020F4
:10BCD00087B0C04302907B4846690569684600F01A
:10BCE0004AF9074600F064F90446002F08D002AA7A
:10BCF0003146009800F0A4F90298FFF770FF06E0C3
:10BD00000298FFF76CFF002801D1002C02D02846D2
:10BD100000F0BFF907B0F0BDFFB59807002481B06F
:10BD20001E4615460F4600280BD1002E09D0FFF7FE
:10BD3000D1FE64490A9888610F70324600208E60F7
:10BD400008E0072005B0F0BD28234343D4509B18DA
:10BD50001C76401CB842F7DB28204743BB19032060
:10BD600048700F461846CB60194618300022182339
:10BD70002E465E43D3005B181C705C709D7058604B
:10BD80003018521C032AF5DB0020C0433861BC7018
:10BD9000FC7001245B482405046003211420FFF794
:10BDA0007BFE454880380460474C0198A060032121
:10BDB0001120FFF771FE606878610020C2E770B55E
:10BDC000404CA568002D06D0002A06D0002804D0DB
:10BDD0000023247809E0082070BD072070BD2826C4
:10BDE0005E43AE59002E04D05B1CA342F7DB042057
:10BDF00070BD282401265C432E516419E261616004
:10BE00000360002070BD2A494868C005C00D17D0E6
:10BE1000103807D50207120F083A920892005118FD
:10BE2000C96904E08108234A8900891809688007E4
:10BE3000C00EC1400806800F012803D0032803D09C
:10BE4000022070470020704701207047FEB504466D
:10BE50001C48174682680D46002A0CD001788C4297
:10BE600001D2052D01D20720FEBD214628235943CA
:10BE70005358012B01D00820FEBD881840680128C6
:10BE800048D00026FFF7BFFFC0000E490190C968E7
:10BE90004018694600F043F900283DD0012112C046
:10BEA00009494968E2C007490198C96841182BE06F
:10BEB00000ED00E000E400E080E100E0401301401C
:10BEC0000010014044200020001501402E2E5C2E61
:10BED0002E5C2E2E5C2E2E5C2E2E5C536F757263A4
:10BEE000655C6170705F636F6D6D6F6E5C617070CB
:10BEF0005F74696D65722E6300000000FFFF7F00B4
:10BF00004011014080E200E00098487000F02EF8F7
:10BF10000020FEBD2E46B5E70420FEBDF8B5A14DBC
:10BF20000446A868002809D029788C4201D307204C
:10BF3000F8BD282161434058012801D00820F8BDF0
:10BF4000FFF761FFC600E8686946301800F0E7F8BF
:10BF5000002809D0022112C0E86831180098487002
:10BF600000F004F80020F8BD0420F8BD01208E493F
:10BF700000050860704710B58A4900238A78CC789C
:10BF8000A24212D0521CD2B28A70022A00D18B7007
:10BF90008A78844B92001C339A58026048691018C2
:10BFA0000002000A4861012010BD0360002010BD9E
:10BFB000F8B57C4801690091457833E07948E9009B
:10BFC000C0680E1834782AE0182060437168641C39
:10BFD0000818B178E4B2A14200D100240168022916
:10BFE00002D003291BD113E06E4A406828219268D1
:10BFF00041438F18397E002911D000F0A2F80020AB
:10C0000038760CE028277843C0180276406A03E0AF
:10C01000644900228B680869471CF3D10861707875
:10C02000A042D1D128466D1EEDB20028C6D15D4890
:10C0300001690098814201D00120F8BD0020F8BDBF
:10C04000F7B5584C0025A76823691EE028215943FD
:10C05000C9198E68864202D9301A886017E0801BA1
:10C06000751900268E600E764E699C464B6AB64660
:10C07000002E0AD0019E76193602360ACE60764628
:10C080000E6116684E6261461160591CDED1236153
:10C09000FEBDF8B5434801694A1C3DD028225143F2
:10C0A000826889188E6841494C6847690079E11BAC
:10C0B0000D022D0AED1C002815D101203C4A000478
:10C0C00050603B4A403A5060374940008031086038
:10C0D000384908603849012008602F20FEF748FEE3
:10C0E000304901200871B54200D23546E8190002F6
:10C0F0002E49000A403108602C494968001B091B81
:10C100000902090A0002000AC91C814203D9012060
:10C11000254940040860F8BDFFF7DCFCF8BD427813
:10C120008378521C934200D100220378934201D1BC
:10C13000002070470A604168407818225043081870
:10C14000704770B5174E3569B26829460C4606E04F
:10C15000844207D0254628235C43A3185C6A631CED
:10C16000F6D170BD002BFCD0A54208D12820414358
:10C170008818406A3061401C01D1FFF7ABFCB16800
:10C18000282044436018282382685D43406A6B1866
:10C190005862431CE5D02823584340188168891809
:10C1A000816070BD4420002000E200E000150140E5
:10C1B0004013014000E100E00010014030B5CB0029
:10C1C00008339DB293070024002B01D0072030BD17
:10C1D000564B9A605219DA605C701C7058809980D6
:10C1E000002030BDF7B5514C82B060880F468142C7
:10C1F0006CD80020694608704E494D4E4868C0050D
:10C20000C00D16D0103807D50207120F083A920851
:10C2100092005118C96904E08108474A89008918C9
:10C2200009688007C00EC1400806850F012D01D1A5
:10C230000AE0042568462EDF02280BD0002803D030
:10C240003EA25921FEF736FE6078A188884203D2CB
:10C25000401C02E072B6F7E700202278C0B290429C
:10C2600007D066786078884201DA401C00E0002040
:10C270006070012D0BD062B6684600782FDF02286F
:10C2800005D0002803D02DA26121FEF713FE284817
:10C29000864219D0A068F5000499415102990029FD
:10C2A0000CD0002F0AD060883A464643E068301828
:10C2B00001F0F4FBA0682818878002E0002128180C
:10C2C0008180002005B0F0BD0420FBE70920F9E7DC
:10C2D0000EB504E068468188029A0098904702AA49
:10C2E00001A9684600F003F80028F3D00EBD70B530
:10C2F0000E4B05245D781E78B54215D01D781C784C
:10C300009E88B44201DA641C00E000241C705C8842
:10C31000DE686C43A41904609B68E800C418A48814
:10C320000C80185800241060204670BD6820002042
:10C33000FFFF000000ED00E000E400E02E2E5C2E88
:10C340002E5C2E2E5C2E2E5C2E2E5C536F7572632F
:10C35000655C6170705F636F6D6D6F6E5C61707056
:10C360005F7363686564756C65722E63000000001E
:10C37000F0B500220123032636041F4697403942B8
:10C3800012D0C5683D4203D1012464043D4301E05D
:10C390003446BD43C5603A4D97007D192F68B743B9
:10C3A0002F602F6827432F60521C202AE5D3F0BD51
:10C3B000F8B53448056934490020C863074632E0BF
:10C3C00014213A464A434168806854180121B94013
:10C3D000014226D0E068C64320686E4006403146E0
:10C3E0002046FFF7C5FF2748006968400CD0054389
:10C3F000E0682168C043684008400146009020463C
:10C40000FFF7B6FF009806433046A168A8430140F5
:10C410002A4660683240104002460A4301D0226931
:10C4200090477F1CFFB2194841788F42C8D3F8BDAE
:10C4300010B5002903D08A070024002A01D0072064
:10C4400010BD124A0B4651601070142154704143C4
:10C450001846946001F081FB00200D49C0438860BC
:10C460000C48402101600C4A1068FF231B049843CC
:10C470000B041843106009480160002010BD000043
:10C480000007005000050050406100407820002067
:10C490000063004080E200E004E400E000E100E02E
:10C4A00010B50446002A02D01088002210E00A4885
:10C4B000FBE7030A00020343A05C584003061B0F7E
:10C4C00043401803584083B21806C00C5840521C11
:10C4D0008A42EED310BD0000FFFF000010B50846F1
:10C4E0001146FEF7EDFC10BDF8B5394C2078002858
:10C4F00037D02069002807D00026E068002805D042
:10C500000025002E04D013E00126F6E70125F8E708
:10C51000684651DF052806D0002806D02DA26921E3
:10C52000FEF7C8FC04E0012602E021690098884774
:10C53000002D12D1608869460880A06861DF052857
:10C5400006D0002806D023A28021FEF7B3FC04E029
:10C55000012502E0E168A0688847002ED8D0002DB0
:10C56000CFD0F8BD70B5002901D08C0701D00720CD
:10C5700070BD174C0125A16062802449636010DF03
:10C580000028F5D12570162026DF70BD002803D0C5
:10C590000F49C860002070470E207047002803D064
:10C5A0000B490861002070470E20704710B50848FD
:10C5B0004068002808D08047002804D0FF2105A249
:10C5C0003331FEF777FC10BDFFF78EFF10BD000082
:10C5D000842000202E2E5C2E2E5C2E2E5C2E2E5CB7
:10C5E0002E2E5C536F757263655C73645F636F6D51
:10C5F0006D6F6E5C736F66746465766963655F68A2
:10C60000616E646C65722E6300000000DDC403007F
:10C6100018225043FA4A002180180171816041615B
:10C62000012281610261C1607047FFB581B0F54CA4
:10C63000049B039A054626691A4303200092002EA4
:10C6400003D1002A0ED0012222612769039A012614
:10C65000360792003B0001F076FB072707162940BA
:10C66000526127000222EFE77069326992B25043AB
:10C67000326933691204920C9BB2594321DF0028BE
:10C6800012D102210FE0084620DF00280CD10399C7
:10C69000002901D0032106E00499002916D1297848
:10C6A000042946D017E0216105B0F0BD70693269F8
:10C6B00092B25043326993B24B4301461846039AF3
:10C6C00021DF0028F0D10499002901D00421EAE7F4
:10C6D0002978042920D00521E5E773693069366996
:10C6E00080B2434368681B189B18B6B24E4330189B
:10C6F00080181946049A21DF0028E9D0D4E7306970
:10C7000080B24843696880188A08696921DF002877
:10C71000CAD1009900290CD00621C4E7706931699B
:10C7200089B24843316989B201F02AFA20DF002832
:10C73000BAD10721B7E7F8B5B14918230A780F2015
:10C740005A435418AF4922796669241DCF68022ADA
:10C750001BD001252D07042A2AD0052A5BD1286980
:10C7600081B2304601F00CFA0146A36828699A1993
:10C7700080B24843101A8208606818188619286920
:10C780004B1C80B25843801B34E0B8026268616978
:10C79000121A0918A3683018181801239B029A422C
:10C7A00002D2920821DF31E0FF22013221DF2DE0A9
:10C7B000E268934914205043F4314018001D0BC81F
:10C7C000B04203D160685943814218D0022A16D082
:10C7D000286981B2304601F0D3F90146286980B258
:10C7E0004843301A820828694B1C80B2584363685A
:10C7F0009B19C01A83082046FFF717FF06E0286937
:10C8000081B2304601F0BCF9C01920DF002802D106
:10C810007B4901228A70F8BDF8B5794C069E65788F
:10C820000A2D1DD027787D19EDB20A2D01D30A3DBE
:10C83000EDB218277D432D192871AA6103C9EE6056
:10C84000AB6069612861A1780020002904D1FFF75D
:10C8500072FF112800D100206178491C6170F8BD79
:10C860000420F8BD38B502466548182301785943BD
:10C87000081803690179022B0AD014246343604C21
:10C88000F434E4588368009383691030A04738BDBE
:10C890005C4B14331C68F5E7F8B5594B99780129BE
:10C8A00014D1002557499D700A69082A05D002282D
:10C8B0000FD003280AD10D2006E0022807D00D7002
:10C8C00000F012FA002801D0FFF7CCFFF8BD0D618F
:10C8D000F6E74B48182403784A496343CC68181894
:10C8E000641CCC600379001D022B05D14668A102AF
:10C8F000B14201D3012700E00027052B01D1072A0F
:10C9000003D00021042B02D003E00121FAE7072A1B
:10C9100003D00026042B02D007E00126FAE7406886
:10C92000A302834201D3002A1AD0002031430143DD
:10C930003943C5D0334E28463561FFF793FF304C5D
:10C940002078FFF765FEF5606078401E6070207803
:10C95000401CC0B220700A28B2D30A382070AFE75A
:10C960000120E3E770B50025264C2548E5602561E8
:10C970000570457085702E463046FFF749FE761CDF
:10C980000A2EF9D3012212076560516928461269FF
:10C99000491E92B25143E560A1601949F4310D601E
:10C9A0008D600D61CD60174914310D6088800121C3
:10C9B0002170206170BDF0B5124A1378002B23D08E
:10C9C000002823D0002921D00368002B1ED0012489
:10C9D000240743682569ADB2AB420FD8102B0DD3A5
:10C9E0008568002D0AD092685D436669AD18276995
:10C9F000BFB27E43B54201D89B0709D00720F0BDE6
:10CA000040250020982000200820F8E70E20F6E7B7
:10CA1000BE4D6B68012B1BD00B604A601946142574
:10CA20006943BB4D4E19726007686F504168B16031
:10CA30008168F16041688068002541436D1C206970
:10CA4000ADB280B2884205D2206980B2091A02E0F4
:10CA50000420D4E70021206980B28218206980B2C6
:10CA60008842EBD9A9485B1C826035614360002095
:10CA7000C5E7F8B50446A5481E46007815460F469A
:10CA8000002807D0002F07D0002C05D020680028F0
:10CA900017D103E00820F8BD0E20F8BD9C480168BE
:10CAA00000290ED0C268816840684A431018626845
:10CAB000904206D9002D04D0A94202D3A819884279
:10CAC00001D90720F8BD384600F008F9002811D038
:10CAD000304600F003F900280CD0606800F0FEF842
:10CAE000002807D02B463A46214602200096FFF741
:10CAF00093FEF8BD1020F8BDFFB5844881B00078E2
:10CB00001F4616460D46002808D0002D08D0019873
:10CB1000002805D02868002817D103E00820C3E5C5
:10CB20000E20C1E57A4C206800280ED0E168A0688C
:10CB30006268414389186A68914206D9002E04D080
:10CB4000B04202D3F119814201D90720ACE5019826
:10CB500000F0C4F800281BD0384600F0BFF80028C9
:10CB600016D0686800F0BAF8002811D0686832461C
:10CB7000C119019800F092FF0096286814214843DB
:10CB80002458002203212846019BA04700208BE562
:10CB9000102089E5F8B505465C480F460078002866
:10CBA00005D0002D05D02868002821D103E00820F9
:10CBB000F8BD0E20F8BD564C00262068002817D07E
:10CBC000A168E068484361684118686881420FD9EC
:10CBD00000F084F800280DD0296814225143091967
:10CBE00068684A688968801A00F0CAFF002903D083
:10CBF0000720F8BD1020F8BD3B460022294604203E
:10CC00000096FFF709FEF8BD404A1278002A0DD0C1
:10CC100000280DD000290BD00268002A08D03B4A1A
:10CC200014321368002B05D0042070470820704789
:10CC30000E20704702230B600068106000207047D0
:10CC4000F8B5044631481E46007817460D460028C0
:10CC500007D0002D07D0002C05D0206802281BD15A
:10CC600003E00820F8BD0E20F8BD28481430006805
:10CC7000002811D0084600F031F800280ED03046C8
:10CC800000F02CF8002809D03B462A462146022015
:10CC90000096FFF7C1FDF8BD0720F8BD1020F8BDD4
:10CCA00008B51A4A1278002A05D0002805D0026873
:10CCB000022A11D103E0082008BD0E2008BD134A46
:10CCC00014321268002A07D00B46002201460420C5
:10CCD0000092FFF7A1FD08BD072008BD800701D025
:10CCE0000020704701207047094810B5F43840789B
:10CCF0000024002807D0FFF71EFD040003D0112CEC
:10CD000001D0FFF7AFFD204610BD000098200020A5
:10CD1000342600204B48002101704C484A4A0260EA
:10CD20008160C16001610822416142608161084601
:10CD3000704710B500291DD000220A60434A53688D
:10CD4000002B1BD0202817D85B1E5360D0682423EB
:10CD5000401CD060106914684343E3180B60012342
:10CD600083409169401C19434007400F9161106155
:10CD7000002010BD0E2010BD0C2010BD042010BDE1
:10CD8000F0B5324A0646916800292AD0576910202A
:10CD9000791A4907490F14680B4624254D43651934
:10CDA000B54206D1012495698C406540002095610B
:10CDB00004E0491C4907490F8F42EED1491C4E0738
:10CDC000760F956901210C469C4025420AD1936853
:10CDD000002B07D05B1E936053685B1C5360334687
:10CDE000F1E70420F0BD194A2423117C1268491E82
:10CDF0004907490F5943203150500020704770B502
:10CE000000281AD0002918D0104AD368002B16D059
:10CE10005B1ED360936824265B1C9360536915687E
:10CE20001C467343EE1820330660E858641C086003
:10CE30006007400F5061002070BD0E2070BD0420BF
:10CE400070BD0000B4200020482600206827002084
:10CE500010B500280BD0FD48FD49808888420FD0CE
:10CE6000132176DF00280BD0FAA2702106E00846D5
:10CE7000FFF786FF002803D0F6A27621FEF71AF806
:10CE800010BD08280CD004DC002807D006280FD1DC
:10CE900008E00B280AD00C280AD105E001207047D1
:10CEA000022070470320704704207047042901D0F6
:10CEB0000620704705207047F0B5054608790E46F4
:10CEC00085B081070AD0032211462846FEF7E0FB11
:10CED000002821D0FF21DFA2253146E0DB49009068
:10CEE0001031FFF726FF010013D1D84CB168009A2A
:10CEF000206900F0D3FD0098FFF775FF002801D0EE
:10CF0000014606E0D14869461030FFF778FF01007E
:10CF100004D0284600F0CEF905B0F0BD0098800896
:10CF20000290032001902069039001A8FEF7C8F940
:10CF300007000CD0092F1BD02069FFF721FF002824
:10CF400003D00146284600F0B5F93946E1E73079CB
:10CF5000E18801224018E08003212846FEF798FB73
:10CF60000028D9D0FF21BBA25531FDF7A3FFD3E79D
:10CF70003079E188401881B2E18060780028CBD018
:10CF80006089401E0004000C6081C5D12846FEF770
:10CF9000BEFC002804D0FF21AEA26631FDF78AFF57
:10CFA00020896081B8E710B5FF21AAA2A131FDF761
:10CFB00081FF10BD10B5A54CA549A088884208D0B6
:10CFC000132176DF002815D0A2A2A849FDF772FF31
:10CFD00010E0A07800280DD074DF002804D0A34909
:10CFE000A3A2FF39FDF766FF0120A7494005C860ED
:10CFF0000020A07000F093FA002804D09B4995A26D
:10D000000931FDF757FF002010BD70B50D680446CB
:10D0100001208E4A2B0000F096FE0A3330320616AD
:10D0200024464B354F23FEF7A7F90421FFF729FFCC
:10D03000024604212046FEF72BFB002810D0FF21DA
:10D0400084A2D33140E0FFF7B5FF002804D0FF21D0
:10D0500080A2D931FDF72EFFFEF7B3F9002809D1E0
:10D0600070BDFFF7A7FF002804D0FF2179A2E531AA
:10D07000FDF720FFFEF7D7F970BD022000E0032086
:10D08000D06070BDD2682046012A06D0022A07D09F
:10D09000032AF6D1FFF710FF70BD00F01EF970BD36
:10D0A00000F044F970BD507088881081508170BDC7
:10D0B00000205070108170BDD1882046FEF7F0FB33
:10D0C0000028F8D063A27149FDF7F4FE70BD10B5D9
:10D0D0005E4CA07800280DD16D4873DF002804D085
:10D0E0006A495CA21331FDF7E5FE0120664A41055D
:10D0F0009160A07010BD70B5544C0588A388132DA5
:10D100002CD00ADC634A6049102D18D0112D15D19E
:10D11000CA60207800281BD01CE0522D29D0552D44
:10D120000CD18079002809D11321184676DF002818
:10D1300004D0564947A25C31FDF7BCFE70BD8A6041
:10D1400001225205CA608088A0800020A07070BDB6
:10D15000FFF7BDFF0020C043A08070BD3B4A1846CA
:10D16000143200217FDF0028F7D0484939A254311A
:10D17000E2E7002211461846A9DF0028EDD04D2134
:10D1800034A2C900D8E710B5044600F0F9F94048C8
:10D1900021461430FEF74AFB2046FFF7ACFF10BDD6
:10D1A00010B5B7212BA28900FDF784FE10BD30B564
:10D1B000264887B00024C460374803250560001D59
:10D1C000056035480C3005603448FFF7DFF900286A
:10D1D0003AD13348FEF758F8FFF79CFD002833D1C9
:10D1E00000F0D5F82F4800902F4801902848694654
:10D1F0001430FEF7E1FA002804D01C491CA23B3988
:10D20000FDF758FE00F0E7F81C21684600F0A5FC89
:10D21000264801900120800302900094684605731F
:10D22000C4810474224806900594684600F053F9BE
:10D23000002804D0FF210EA2B831FDF73BFE00F01C
:10D24000FFF8FFF744FF002007B030BDBC200020EE
:10D25000FFFF00002E2E5C6466755F7472616E7352
:10D26000706F72745F626C652E6300002A030000A9
:10D270002E2E5C6466755F7472616E73706F72746B
:10D280005F626C652E63000000050050060200001E
:10D2900084270020000040005407005087D103007D
:10D2A00051CE03000BD00300A1D10300CD0C000030
:10D2B000A7CF030010B50A46044603211046FFF726
:10D2C000E0FD024603212046FEF7E2F9002803D0E4
:10D2D000644AB821FDF7EEFD10BD70B5054608792A
:10D2E000042809D0032201212846FEF7D1F900289D
:10D2F0001BD05C4ACC2116E08C68204600F02FFC45
:10D30000E1780002000A09060843FDF7C0FF012189
:10D31000FFF7B7FD024601212846FEF7B9F90028BC
:10D3200003D0504ADD21FDF7C5FD70BDFEB50446B2
:10D3300001200090886802900879002283070FD0AE
:10D340008007800F0422121A0020034606E00E799F
:10D35000029D3618B600401CAB51C0B29042F6D3C5
:10D3600008798018800801906846FDF7E0FF0221E7
:10D37000FFF787FD024602212046FEF789F90028C3
:10D3800004D0FF21374A1031FDF794FDFEBD0EB5E4
:10D39000112069460872072233A102A87CDF002809
:10D3A00003D0304A3249FDF785FD00200090092264
:10D3B000694601900A800C224A808880FF209130C3
:10D3C000C88068467ADF002804D05521254AC90064
:10D3D000FDF770FD0EBD10B592B0062168460171D3
:10D3E0002448017968468170234901803C2102A8C4
:10D3F00000F0B3FB02200290002468464473012130
:10D40000018201A80590684681830890214602A800
:10D4100000F026FA002804D01549124A2831FDF7F9
:10D4200049FD14481421143800F097FB11481438B2
:10D4300004704460047228210182448212B010BD3D
:10D440000E491E200880887801221043E1221040F6
:10D45000DF220C30104088700720C870102008713F
:10D460007047000070D20300444655314230360008
:10D470009E0200009827002030150000D0200020D8
:10D4800038B56749674A488890420FD04A78664C59
:10D49000521CD2B24A70237B934208D3083175DF05
:10D4A000002803D0A169002900D0884738BD002595
:10D4B0004D70217C002907D03B2176DF002803D066
:10D4C000A169002900D0884761690029EED068462B
:10D4D0000095884738BD70B5054601461C22524864
:10D4E000FDF756FC4E4C002626702968002907D00F
:10D4F0000822A01800F0D2FA204608307ADF02E0B5
:10D50000474808307BDF002808D1401E608044482F
:10D510006670464A0021001DFEF751FC70BD10B533
:10D520003F484068FEF7FAFC10BDF8B53C481030A3
:10D5300000F069F800263A4D3B4C002806D061699E
:10D54000002919D001200090684614E028780028AE
:10D5500004D0616900290FD00096F5E768780028AB
:10D560000CD0A16800226868FEF770FC002803D088
:10D57000A169002900D088472E70F8BD6168F1E7E5
:10D58000F8B5294C02880027254DE689102A18D0C5
:10D5900029464968112A21D0122A2DD0502A0FD1AC
:10D5A000C288801DB2420BD1028B022A08D1C27EF2
:10D5B000837E10021843C007C00F13D0FFF7B5FFDA
:10D5C000F8BD818869800146154808220E31103067
:10D5D00000F064FA6F70002EF0D0F8BD0020C04358
:10D5E00068806F700846FEF799FC0028F5D0A169A5
:10D5F0000029F2D08847F8BD811D09480822103063
:10D6000000F04CFADAE74188054808300288914278
:10D6100004D34088814201D8012070470020704720
:10D62000D8200020FFFF0000C027002081D4030085
:10D63000FFB583B0074600200C9C86462678054639
:10D640003AE07868A90041180A88684682804988CB
:10D65000C1800022694601A865DF002810D1684614
:10D6600001780598814226D17046002801D0002219
:10D6700000E002222078891841181F2902D90C20C5
:10D6800007B0F0BD7146002908D1401CC0B2411C52
:10D69000069B049A21701A54012086462178069828
:10D6A0000A18694601A865DF0028E9D16946207893
:10D6B0000978401820706D1C3888A842C1DC70467B
:10D6C000002804D020780699801B401E8855002031
:10D6D000D6E7F8B51546069C1E460746022200947A
:10D6E000FFF7A6FF002806D1334610222946384608
:10D6F0000094FFF79DFFF8BDF7B582B00026054600
:10D70000167000681446002805D02846039900F0DA
:10D71000DFF806002DD1687900281BD02078039F00
:10D72000001D1F2824D8684679DF002821D12178E0
:10D730000322481C20707A5421781922481C20703A
:10D740007A542078C1196846008800F0BCF8217826
:10D75000401820702989002923D001208446EA68D6
:10D760000398002A07D0227853189B1C1F2B04D93A
:10D770000C2005B0F0BD0720FBE71346521C2270B9
:10D78000491CC15422786746511C21708754237864
:10D790002A891818E96800F081F92078297A401858
:10D7A00020702869002815D00021415622788C4627
:10D7B000D01C03991F28DBD8501C022320708B54E7
:10D7C00022780A23501C20708B5420786246431C18
:10D7D00023700A54A88A002809D0284600940622FB
:10D7E00002211430039BFFF774FF0600C1D1A88B00
:10D7F000002809D028460094072203211C30039BEF
:10D80000FFF767FF0600B4D1A88C002809D028468E
:10D810000094152214212430039BFFF75AFF0600C1
:10D82000A7D1E86A002805D02246039900F085F8C0
:10D8300006009ED1286B002805D02246039900F0EF
:10D84000BBF8060095D13820405D002806D022465E
:10D850002846039900F0E2F806008AD1304688E7AE
:10D8600070B50D4692B000216A46117007241171FF
:10D87000002812D00189002905D0C168002902D0F2
:10D880000978490702D4204612B070BD02A9FFF7FB
:10D8900033FF0028F8D102AE00E00026002D0BD0A7
:10D8A00028890028EFD101AA0AA92846FFF724FFFA
:10D8B0000028E9D10AAA00E000226846037901782D
:10D8C000304672DFE0E70870000A487002207047B7
:10D8D000F8B514780746A01C15460E461F2803D835
:10D8E0003879801C1F2801D90C20F8BD1D20001B91
:10D8F00080B26946864608803019801C7DDF00288A
:10D90000F3D13868022805D168460088704501D8EF
:10D91000092107E038790821002801D0704501D994
:10D9200068460088421C3255641CE2B2B154297822
:10D93000801C081828700020F8BDF8B50D46117835
:10D940000646881D14461F2801D90C20F8BD3388CF
:10D950000720062BFAD31927FF01BB4202D94E4AF2
:10D960009342F3D17288062AF0D3BA4202D94A4FC1
:10D97000BA42EBD1484FBB4203D0BA4201D09342E6
:10D98000E4D8481C052220706A5420781222411CD9
:10D9900021702A54207841193088FFF794FF2178AC
:10D9A0004018C0B2207041197088FFF78CFF2178B1
:10D9B000401820700020F8BD70B5054600790E466D
:10D9C000801C1446C0B21178821C8A181F2A01D903
:10D9D0000C2070BD0A46491C2170401CB0542078B0
:10D9E000FF22411C21703254207881192888FFF7CA
:10D9F0006AFF21784018C0B22070AA88002A09D096
:10DA0000A968002908D0801900F048F82078297901
:10DA100040182070002070BD072070BDF7B582B09F
:10DA200002981446406B0F46002832D00298002519
:10DA30002030009028E00298416B0C2068430E18BB
:10DA4000217830794A1C2270C01C78542078162224
:10DA5000411C21703A542078C1193088FFF733FFF8
:10DA600021784018C0B22070B288002A09D0B1686D
:10DA700000290ED0C01900F011F820783179401833
:10DA800020706D1C0098EDB2007EA842D3D8002013
:10DA90006FE607206DE60000FFFF0000F8B5042ADE
:10DAA0002CD3830712D00B78491C0370401C521EE4
:10DAB00083070BD00B78491C0370401C521E830750
:10DAC00004D00B78491C0370401C521E8B079B0F1F
:10DAD00005D0C91ADF002023DE1B08C90AE0FDF7C4
:10DAE00057F9F8BD1D4608C9FD401C46B4402C43FB
:10DAF00010C0121F042AF5D2F308C91A521EF0D41E
:10DB00000B78491C0370401C521EEAD40B78491C48
:10DB10000370401C012AE4D409780170F8BD01E0CB
:10DB200004C0091F0429FBD28B0701D50280801C89
:10DB3000C90700D00270704700290BD0C30702D07C
:10DB40000270401C491E022904D3830702D50280BB
:10DB5000801C891EE3E70022EEE70022DFE703785E
:10DB6000C2781946437812061B0219438378C0789D
:10DB70001B04194311430902090A000608437047B0
:10DB8000002203098B422CD3030A8B4211D30023BA
:10DB90009C464EE003460B433CD4002243088B4294
:10DBA00031D303098B421CD3030A8B4201D3944621
:10DBB0003FE0C3098B4201D3CB01C01A5241830914
:10DBC0008B4201D38B01C01A524143098B4201D3CE
:10DBD0004B01C01A524103098B4201D30B01C01AF9
:10DBE0005241C3088B4201D3CB00C01A5241830873
:10DBF0008B4201D38B00C01A524143088B4201D3A0
:10DC00004B00C01A5241411A00D2014652411046FF
:10DC100070475DE0CA0F00D04942031000D3404274
:10DC2000534000229C4603098B422DD3030A8B42AA
:10DC300012D3FC22890112BA030A8B420CD3890148
:10DC400092118B4208D3890192118B4204D389012E
:10DC50003AD0921100E08909C3098B4201D3CB016C
:10DC6000C01A524183098B4201D38B01C01A524121
:10DC700043098B4201D34B01C01A524103098B4225
:10DC800001D30B01C01A5241C3088B4201D3CB0010
:10DC9000C01A524183088B4201D38B00C01A5241F3
:10DCA000D9D243088B4201D34B00C01A5241411ACA
:10DCB00000D20146634652415B10104601D34042F8
:10DCC000002B00D54942704763465B1000D34042A9
:10DCD00001B50020C046C04602BD7047704770477E
:10DCE000754600F025F8AE46050069465346C00863
:10DCF000C000854618B020B5FDF7C6F860BC002707
:10DD00004908B6460026C0C5C0C5C0C5C0C5C0C507
:10DD1000C0C5C0C5C0C5403D49008D46704710B55F
:10DD20000446C046C0462046FDF715F810BD000069
:10DD300000487047DC27002001491820ABBEFEE7F1
:10DD400026000200704730B47446641E2578641CB7
:10DD5000AB4200D21D46635D5B00E31830BC184740
:10DD600002000000000000000000000000000000B1
:10DD700023D1BCEA5F782315DEEF12120000000009
:10DD8000A0DD030000200020F000000004AD03002F
:10DD900090DE0300F02000205013000020AD0300AF
:10DDA0000024F4000000000000000000000000005B
:10DDB0000000000000000000000000000000000063
:10DDC0000000000000000000000000000000000053
:10DDD0000000000000000000000000000000000043
:10DDE0000000000000000000000000000000000033
:10DDF0000000000000000000000000000000000023
:10DE00000000000000000000000000000000000012
:10DE10000000000000000000000000000000000002
:10DE200000000000000000000000000000000000F2
:10DE300000000000000000000000000000000000E2
:10DE400000000000000000000000000000000000D2
:10DE500000000000000000000000000000000000C2
:10DE6000FFFF0000000000000000000000000000B4
:10DE700000000000000000000000000000000000A2
:10DE80000000000000000000000000000000000092
:020000041000EA
:0410140000AC030029
:040000050003ACC187
:00000001FF
