:020000022000DC
:1070000000000420797302006173020063730200C0
:1070100065730200677302006973020000000000DC
:107020000000000000000000000000006B73020080
:107030006D730200000000006F73020071730200A4
:1070400081AC02007373020035B102007373020059
:1070500073730200737302008DAF0200737302003A
:107060007373020073730200737302007373020080
:107070007373020073730200737302007373020070
:1070800073730200C58A02007373020073730200F7
:107090007373020073730200B51003007373020070
:1070A0007373020073730200737302007373020040
:1070B0007373020073730200000000000000000000
:1070C0007373020073730200737302007373020020
:1070D0007373020073730200737302007373020010
:1070E00073730200737302007373020000000000E8
:1070F00000000000737302000000000073730200C0
:10710000000000000000000000000000000000007F
:10711000000000000000000000000000000000006F
:10712000000000000000000000000000000000005F
:10713000000000000000000000000000000000004F
:10714000000000000000000000000000000000003F
:10715000000000000000000000000000000000002F
:10716000000000000000000000000000000000001F
:10717000000000000000000000000000000000000F
:1071800000000000000000000000000000000000FF
:1071900000000000000000000000000000000000EF
:1071A00000000000000000000000000000000000DF
:1071B00000000000000000000000000000000000CF
:1071C00000000000000000000000000000000000BF
:1071D00000000000000000000000000000000000AF
:1071E000000000000000000000000000000000009F
:1071F000000000000000000000000000000000008F
:10720000364937480A1A02D0072291438D4635493C
:1072100035480A1A06D00722914381F309880222D1
:1072200082F3148831483249324A00F045F8324836
:107230003249334A00F040F832483349334A00F0CB
:107240003BF833483349344A00F036F83348344980
:10725000344A00F031F834483449354A00F02CF80B
:1072600034483549354A00F027F835483549002279
:1072700000F02DF834483549002200F028F8344851
:107280003449091A082903DB002202600430016036
:10729000314A90471F482049884205D0026804308F
:1072A00003B4904703BCF7E700208646EC46002075
:1072B00000212A4A9047FEE7884207D0521A05D09B
:1072C000037801300B700131013AF9D170478842DF
:1072D00002D002700130FAE770470000000004207D
:1072E00000E003200000042000000420543F0300BD
:1072F00084220020E0220020D4730200D473020014
:107300005C160300543F03008422002084220020E6
:10731000F0170300F0170300F0170300F017030045
:10732000F0170300F0170300F0170300F017030035
:10733000543F0300B03F0300E0220020E022002081
:10734000E0220020CC350020CC350020CC350020B8
:10735000CC350020CC550020A1730200EDC2020004
:10736000FEE7FEE7FEE7FEE7FEE7FEE7FEE7FEE7F5
:10737000FEE7FEE700F002B8FFF7FCBF0F484FF052
:107380000701884385460E4880470E48016841F44E
:1073900070010160BFF34F8FBFF36F8FFFF730BFF6
:1073A00009480A490A4A884207D0521A05D0037888
:1073B00001300B700131013AF9D17047000004200F
:1073C0008D7F020088ED00E0DC17030070220020B2
:0473D00084220020F3
:1073D400F0B595B01C4608460D46164603F0D2F9A2
:1073E4001A9B099400240D930822234605A92846D4
:1073F40008960A948DF82C400C9403F0E1F9079B4D
:107404000293BDF81830ADF80C30BDF81A30ADF861
:107414000E309DF814308DF8114003F00302012A58
:107424001DD1BDF81440059EC3F3C203C4F38314F5
:107434008DF81030A20008230EA9284603F0C0F9E5
:10744400C6F3952608AB0093224602AB0EA930463C
:1074540000F0F6FB284603F099F915B0F0BD022AB6
:10746400F8D1BDF81640C3F3C203C4F389148DF8F0
:1074740010300827082C264628BF08263B463246EB
:107484000EA9284603F09CF9A41B08AB02AA3146B6
:107494000EA8374400F038FC002CEBD1DAE70000EA
:1074A400014B01221A70704721230020704700000D
:1074B40070B50E4D06460FCD88B06C460FC495E8E6
:1074C4000F0084E80F0008A9002E4FF00603084AB5
:1074D40041F8203D08BF0022064803F065FB08B1CF
:1074E40000F08CFF044B1E7008B070BDF017030051
:1074F400A574020084220020E022002007B5044B7A
:107504000093044A4023FFF763FF03B05DF804FBD4
:107514001D750200E122002038B50D4B0D4D0020F1
:1075240018700D4804782D5DD2B21C4665B1043044
:1075340004F09CFA08B100F061FF084B1A7812B10C
:107544002378002BFBD038BD0C3004F03DF8F1E774
:1075540021230020D42B002084220020E0220020BC
:1075640008B50848084A0378D35C3BB1043004F0FA
:1075740015FA0020BDE80840FFF79ABF0C3003F06D
:10758400CDFFF6E784220020D42B00200120FFF752
:107594008FBF000008B5FFF7F9FF0421034800F08E
:1075A400BDFA034B01225A7108BD00BFB81703008E
:1075B40098220020037813F0040216D003F003038A
:1075C400012B03D0022B09D0012070470A680088E0
:1075D4000232C0F3831002440A60F5E70B68428864
:1075E400023303EB92130B60EEE710467047000082
:1075F4002DE9F04F89B00646851C08A8494C019234
:1076040000230F4600F8113D01F0E6F823683B60C3
:107614006268A3681344226801339B1A04F21C476E
:1076240004F5836A04F21448AB421AD3019A002386
:10763400002A6FD0012262F3010343F0040366F3CE
:1076440089132168A2689DF80F000A4003320D4493
:1076540044F82230256001F0E3F8012009B0BDE8C8
:10766400F08F0121384602F003FB504602F01DFB67
:10767400404602F01AFB0DF120096068D4F808B006
:1076840049F8100D00EA0B00033004EB8000494672
:10769400FFF790FF049BB8B90BEA030204EB8202E4
:1076A400D16805919A1C013303EA0B0B04EB8B0E92
:1076B4000492DEF80C30069301F00303012B21D071
:1076C400022B04D083460CE00BEA0300DCE7BDF890
:1076D4001630BDF81AB0C3F38913033302EB9303D6
:1076E4000493404602F0E4FA08B1049B63605946EF
:1076F400384602F0BDFA6268A36813442268013375
:107704009B1A91E7BDF81430BDF81AB0C3F3831384
:107714001344E5E7022262F3010343F0040366F332
:107724009F538EE7F42300200B4B0C48FF2210B527
:107734009A600022C3F818241A605A60C3F814240B
:1077440083F8202402F0D5FF044610B9044803F05E
:10775400FDF8204610BD00BFF4230020C817030025
:107764003018030030B50A4C71B10A4A0A49121B99
:10777400D20800239A4201D1002030BD31F82350B1
:10778400854202D00133F5E7034654F8330030BD97
:10779400C01603008817030070220020094B01392A
:1077A40003EBC000032909D8DFE801F00A0204064C
:1077B4000420704700797047407970470020704773
:1077C40002207047C0160300034B58681B68C31A95
:1077D40058425841704700BFF42300202DE9F0437C
:1077E40087B0FFF7F1FF0646002840F0F080804D97
:1077F400C5F81804BFF34F8F6868AC6806AF47F844
:10780400100D2040033005EB80003946FFF7D2FE0F
:10781400029B18B1D5F81824002A5CD004EA0302AC
:10782400991C013305EB8202234005EB8303D268E4
:10783400DB68049302F00303022B039202915CD1F0
:10784400BDF80E306B48C3F389184646502EA8BFC6
:10785400502666F38F1306F10801ADF80E3002F0DE
:1078640060FF0746002800F0BA8002F08BFF082270
:1078740003A90023384602F098FF029924EA010282
:1078840001329200964231D9002A00F0A2802140B0
:107894005FFA82F90331A6EB0906574C05EB810127
:1078A400F6B208234A46384602F07FFF34B109F1A4
:1078B400080332462146384602F077FF029B08F15E
:1078C400030803EB98030293D5F81834002B48D12E
:1078D400D5F8104454E02A689A4204D86A603046C5
:1078E40007B0BDE8F08304EA03008BE70C40E11C19
:1078F4000823324605EB8101DDE7012B6FD1BDF88A
:107904000C303C48C3F38311062928BF062161F3D8
:10791400891302318900ADF80C3002F002FF0746EA
:1079240000285CD002F02EFF0023082203A9384669
:1079340002F03BFF0026BDF80C20C2F38312B31CF7
:1079440096424FEA8303BFD202994A1C2140033175
:10795400029205EB81010422384602F026FF01362B
:10796400E9E7384602F012FFFFF72EFF80F001002E
:10797400C6B2B4E7E3685B79002B33D1E3681C68D3
:10798400002CF7D1384602F001FF06A800F8114D8B
:1079940000F022FFD5F818340BB9029B6B609DF8F8
:1079A400070000F03DFFDFE7236820469B68984707
:1079B400E3681C68002CF7D1104B11481149C01A18
:1079C400C008000440F0020000F076F8CCE700267E
:1079D40085E75FFA86F914460749164661E7D5F844
:1079E4001044E7E7236839461B6820469847C5E7F3
:1079F400F4230020C817030000240020C01603004D
:107A0400E81603003C1803002DE9F74F284C804684
:107A14000F46924601A9012218469B46A568FFF726
:107A2400E7FD88B3DDF80490002609F102025E4503
:107A340034D100211F4802F0CEF880F3100009F180
:107A440001022A4004EB8202000405EA090303331D
:107A540040EA1840D06014F8232068F3C50204F803
:107A6400232034F8232066F3891224F8232054F8C1
:107A74002320012167F39F2244F8232061F30102AC
:107A84006FF3820204F8232094F820341BB1FFF72B
:107A9400A5FE0028FBD103B0BDE8F08F02EA050182
:107AA40004EB81015AF82630CB6001360132BEE77F
:107AB400F42300201028002000231A46FFF7A4BF57
:107AC40013B502AC012344F8042D2246FFF79CFFB2
:107AD40002B010BD07B58DE80C0002236A46FFF71B
:107AE40093FF03B05DF804FB1FB50293069B01925C
:107AF400039301AA0323FFF787FF05B05DF804FB96
:107B04001FB58DE80C00069B0293079B03936A46FE
:107B14000423FFF779FF05B05DF804FB30B50F4986
:107B2400D1F81024002314463CB9C468237152B917
:107B3400C1F810042260184630BDE46825799D42DE
:107B440006D02468F0E7D268116821601060F2E77B
:107B540001330A2BE7D14FF0FF33ECE7F423002085
:107B6400094A38B50123D2F8104482F820341D465E
:107B740004B938BDE3685D71236820465B689847A3
:107B8400E3681C68F4E700BFF4230020C38873B5DE
:107B940004460D4633B1144A00921449144A284647
:107BA40002F0E7F8217A05291CD0637A4BB1A0884A
:107BB400FFF7F4FD0F4B104953F82020284602F03C
:107BC400D8F8227A0D4BA08853F822600021FFF7E1
:107BD400C9FD0B4903463246284602B0BDE8704051
:107BE40002F0C7B802B070BDA71803008F180300D5
:107BF4008718030054180300EF310300B81803007A
:107C0400AC180300037A052B10B50C460FD0437A49
:107C140023B1084A0849204602F0ABF80749204638
:107C240002F0A7F82046BDE8104002F097B8002AF9
:107C3400F8D0F3E7A7180300EF310300A4180300FA
:107C44002DE9F04385B01F460C9D002306460C46E3
:107C5400904695F80C902B7329463846FFF796FF0B
:107C6400B8F1060F09D8DFE808F00412181F28330A
:107C740040003146284602F07CF800222946384666
:107C8400FFF7C0FF85F80C9005B0BDE8F0832268CB
:107C94003146284602F06DF8EFE794E80C003146CF
:107CA400284602F066F8E8E7A3680093314694E8B2
:107CB4000C00284602F05DF8DFE7E3680193A3684F
:107CC4000093314694E80C00284602F052F8D4E7B9
:107CD40023690293E3680193A3680093314694E80F
:107CE4000C00284602F045F8C7E76369039323694B
:107CF4000293E3680193A3680093314694E80C006F
:107D0400284602F036F8B8E708292DE9F84F8046EE
:107D14000E4617461C463AD8002593F80C901D735E
:107D240019461046FFF732FFDFF884A0DFF884B06D
:107D3400AE422ED918F805205946204602F019F80B
:107D44000135082DF4D11849DFF86CB0204602F053
:107D540010F84FF0000A564520D918F80A507E2D25
:107D640003D8284609F0C4FB00B92E252A465946F3
:107D7400204601F0FEFF0AF1010ABAF1080FEAD128
:107D8400012221463846FFF73DFF84F80C90BDE8F8
:107D9400F88F5146204601F0ECFFD1E70349204615
:107DA40001F0E7FFE7E700BF821803008018030033
:107DB4007E1803007818030084180300074B1B5C2B
:107DC4001F2B8ABF064A4FF0A04203F01F03D2F8CC
:107DD4000405D840C04300F0010070471B1903009C
:107DE40000030050074B1B5C1F2B86BF03F01F03CF
:107DF40005494FF0A041012202FA03F3C1F80C3502
:107E0400704700BF1B19030000030050074B1B5CA5
:107E14001F2B86BF03F01F0305494FF0A041012229
:107E240002FA03F3C1F80835704700BF1B190300B9
:107E34000003005008B50020FFF7E8FF0120FFF71A
:107E4400E5FF0220FFF7E2FF0320BDE80840FFF74B
:107E5400DDBF08B50020FFF7C5FF0120FFF7C2FF13
:107E64000220FFF7BFFF0320BDE80840FFF7BABFB9
:107E74000A4B185C1F288ABF094B4FF0A04300F03F
:107E84001F00D3F804250121814021EA02000A40A1
:107E9400C3F80805C3F80C25704700BF1B1903007D
:107EA40000030050074B1B5C1F2B8ABF064A4FF090
:107EB400A04203F01F03D2F81005D840C04300F0DD
:107EC4000100704717190300000300500B2809D064
:107ED4000C2809D0182809D019280CBF03204FF00A
:107EE400FF30704700207047012070470220704720
:107EF400014B185C704700BF17190300C20770B527
:107F0400044614D5154D164E00220320535D1F2B35
:107F140086BF03F01F0331464FF0A04103F5E07321
:107F24000132042A41F82300F0D1FFF783FFA307AD
:107F340012D50C4C0A4D00220C20135D1F2B86BF5A
:107F440003F01F0329464FF0A04103F5E07301320B
:107F5400042A41F82300F0D170BD00BF1B190300AF
:107F64000003005017190300054B1B68082B01BFC1
:107F7400044B1868B0FA80F0400918BF002070471D
:107F8400300100103401001008B54FF08043002286
:107F9400C3F80C21C3F81021C3F838254FF08052E0
:107FA40003F54043D2F80414C3F82015D2F808149A
:107FB400C3F82415D2F80C14C3F82815D2F81014F9
:107FC400C3F82C15D2F81414C3F83015D2F81814C9
:107FD400C3F83415D2F81C14C3F84015D2F8201491
:107FE400C3F84415D2F82414C3F84815D2F8281459
:107FF400C3F84C15D2F82C14C3F85015D2F8301429
:10800400C3F85415D2F83414C3F86015D2F83814F0
:10801400C3F86415D2F83C14C3F86815D2F84014B8
:10802400C3F86C15D2F84424C3F87025FFF79CFFFD
:1080340010B1384B384A1A60FFF796FF18B1374B26
:10804400FB22C3F81825FFF78FFF48B13449354B9D
:108054000A681B6822F00F0203F00F0313430B603E
:10806400FFF782FF18B1304B4FF400721A604FF0E3
:108074008043D3F80024D20744BF6FF00102C3F851
:1080840000242A4AD2F8883043F47003C2F88830B6
:10809400BFF34F8FBFF36F8F4FF01023D3F800223D
:1080A400002A03DBD3F80432002B2FDA204B012201
:1080B400C3F80425D3F80024002AFBD04FF0102283
:1080C4001221C2F80012D3F80024002AFBD04FF08A
:1080D40010231222C3F80422154B1A46D3F80014B5
:1080E4000029FBD00021C3F80415D2F80034002B7A
:1080F400FBD0BFF34F8F0D490E4BCA6802F4E06208
:108104001343CB60BFF34F8F00BFFDE70A4B0B4A0D
:108114001A6008BD8C5600404881030000F00040FE
:10812400E40E0040580200104096024000ED00E0CA
:1081340000E001400400FA05A02200200090D003D2
:10814400C30710B507D4F0234008054A145C234044
:108154001943115410BD0901C9B20F23F4E700BF3C
:10816400E028002030B5094B1C78094B196800231E
:10817400A34202DB0022104630BD11F83350854281
:1081840001EBC302F7D00133F2E700BFB0280020AF
:108194000029002070B504460D46FFF7E3FF30B117
:1081A400436823B129462046BDE87040184770BD96
:1081B400034B044819680022490800F022BA00BFA2
:1081C400B4280020B828002010B5C0B2FFF7CAFFB9
:1081D4000446007802F0C8FE63785A1E53425341A5
:1081E400834208D1044BD3E90023134303D1BDE8F0
:1081F4001040FFF7DDBF10BDD828002037B5430875
:108204002E4AD35CC2074CBF1B0903F00F0304467C
:108214000D46042B2FD8DFE803F0031E2632360068
:1082240049B30121FFF78CFF02A8002300F8013DA8
:10823400234D00F0D1FA22460120002109F084F8F0
:10824400D5E9002310431943C5E900019DF807004F
:1082540000F0E6FA0FE0002914BF022100212046B5
:10826400FFF76EFF07E041B10321FFF769FF01212A
:108274002046FFF78FFF03B030BD0121EFE700294F
:10828400F9D10421EBE709B10321E8E7FFF758FF2F
:1082940029462046FFF77EFF02A800F8015D084D3D
:1082A40000F09AFA22460120002109F04DF8D5E9A0
:1082B400002322EA000023EA0101C5E7E0280020A8
:1082C400D82800202DE9F041124E134F00243378B2
:1082D4009C4208DB114BD3E90023134318D0BDE8BB
:1082E400F041FFF765BF3D6805EBC40815F834009D
:1082F40002F03AFE98F801104B1E594259410A1AED
:10830400514215F834005141FFF778FF0134DEE79C
:10831400BDE8F081B028002000290020D8280020E2
:10832400092AF7B505460C4616463FD902F04AFD20
:10833400D8B11F4B1F481D601F4B204F1C70204B92
:10834400002120221E6009F023F91E4B0020002189
:10835400C3E90001013CE4B20326FF2C0BD11A4A05
:108364001A48002100F042F903E002F0F5FC00286D
:10837400DFD003B0F0BD9DF806308DF8046020B264
:1083840003F0FC0305EBC0026FF382038DF80630A3
:10839400937815F830008DF805303A4601A902F0BB
:1083A4001BFD013CE4B20028D7D0E2E70720E0E758
:1083B40000290020E0280020B0280020CD81020000
:1083C400B4280020D8280020C98202002019030004
:1083D40070B5084D084E00242B789C4201D3002030
:1083E40070BD3368012113F8340002F073FD0134C9
:1083F400F2E700BFB0280020002900201FB50021AB
:10840400039001AA44F201000191029100F004F8E2
:1084140005B05DF804FB000010B572B6FFF7A0FBD1
:10842400FFF7DCF90028FBD1104B114C1149E41A79
:10843400E408240444F00100FFF73EFB0E4B1B68E4
:10844400DB0700D500BE0D4944F00200FFF734FB02
:10845400BFF34F8F0A490B4BCA6802F4E06213431F
:10846400CB60BFF34F8F00BFFDE700BFC016030012
:10847400E81603002F190300F0ED00E03B19030098
:1084840000ED00E00400FA05D0E90223D1E902017D
:10849400994208BF90422CBF012000207047000081
:1084A4002DE900480C4800F0F7FA0C4BD3E90023FF
:1084B40012EB000B43F1000C094BD3E900239C455C
:1084C40008BF93455846614603D21BF180704CF1B6
:1084D4000001BDE8008800BFA42200200829002074
:1084E4008029002037B505460C460A4801A901F049
:1084F400A6FA60B10570446001A9064801F0C9FA02
:1085040018B1054800F0CCFA002003B030BD0420B7
:10851400FBE700BF6C290020A422002038B5184BCB
:108524001B78044613B90025284638BD0028FAD024
:10853400037F03F0FF05002BF5D0FFF7B1FFD4E96B
:108544000223994208BF904214D3236903B92377C5
:108554006369A069984721690029E4D0237F03F067
:10856400FF05002BDFD0D4E90223521843F10003A6
:10857400C4E902232146034802F007FAD4E700BF06
:10858400102900204C19030013B5114B1149186828
:10859400019008235822104801F01CFA044698B9A7
:1085A4000E4A0F4801A900F05FF9044660B90121A1
:1085B4000B4800F053FA01230A4A0948194600F00F
:1085C400B7F9094B01221A70204602B010BD00BF52
:1085D40048190300142900206C2900205186020048
:1085E400A4220020FFFF7F00102900203AB1036875
:1085F4005A614A1E514251411961002070470720B7
:10860400704738B5037F04460D4683B98261FFF78E
:1086140047FF2369401941F10001C4E9020103B194
:10862400256121460020BDE83840FFF75BBF0020EC
:1086340038BD0023014603770120FFF753BF000034
:10864400014800F029BA00BFA42200202DE9F74F09
:10865400064600F00BFA40B15749D1E9002312F164
:10866400807243F10003C1E900230021304600F089
:108674000CFA38B1514C236823B12068FFF74EFF40
:10868400002323600121304600F0FFF920B1FFF7F9
:1086940007FF4B4BC3E9000101A94A48474D4A4C27
:1086A4004A4F01F006FA002833D1DFF81CA1434CED
:1086B400DFF820B1504602F07EF92368002871D01B
:1086C4007BB12368D0E90201D3E90223994208BFB0
:1086D40090425DD223681B7F1BB12168504602F093
:1086E40054F9504602F061F9D0E902890746FFF7D0
:1086F400D7FEB8EB000069EB0101012871F100031A
:1087040033DA0021584600F0B6F93846FFF706FF81
:1087140045E00378012B1DD00BD3022B11D14FF070
:108724000008204602F041F9002841D080F81C805E
:10873400F7E741680B7F23B901230B77204602F04A
:1087440024F901A91F4801F0DFF901A91D4801F02E
:10875400B0F9A8E741682B68994202D100232B6045
:10876400EFE7204602F02AF9EBE7194DA84212D9A7
:10877400FFF766FF42194FF496030021584600F0B4
:10878400F7F850B9236813B9304600F0C9F82760E8
:1087940003B0BDE8F08FBA68EDE70D28B5D000232B
:1087A400236087E7002BF3D1304600F0BDF8EFE7F4
:1087B40001233B70C5E700BF082900208829002059
:1087C400802900206C2900204C1903001029002066
:1087D400FFFFB400A422002070B5EFF3108672B638
:1087E4000C4A946801239CB993600B4B0B4DD3F84E
:1087F400801029401160C3F88050D3F88410516070
:108804004FF0FF32C3F88420047006B962B670BD1D
:108814000370FAE78C29002000E100E0FC06FFBDAC
:10882400084B9A6810B55AB150B9EFF3108272B67A
:1088340005491C680C605C684C60986002B962B6BB
:1088440010BD00BF8C29002000E100E0435882B035
:108854003BB10023435043580193019B012002B0D4
:1088640070471846FBE70000F8B54779244B254DBF
:1088740043F82720FE00AB19234A1B79234C4BB144
:10888400101BC0080004224940F00200FFF714F94D
:108894000820F8BD0368B1F800E0C3F808E590F9D2
:1088A40004308978002BA8BF03F1604E4FEA4111D0
:1088B400BBBF03F00F0CDFF860E00EF5614EC9B2E8
:1088C400AABFC9B20EF80C108EF800134FEA531C5D
:1088D4000121DFF848E003F01F0301FA03F34EF827
:1088E4002C3045F83700101B2E44C00800043171A9
:1088F40040F003000749FFF7DFF80020F8BD00BF90
:10890400A029002098290020F8160300C0160300AF
:10891400761903009819030014ED00E000E100E06B
:10892400036801221A607047036801225A60704785
:1089340073B58D0005F5A0750068ADB24FF48034B1
:108944008C400026C0F80843C0F84843465101F55E
:10895400A8714559019522F07F42019D40F82120DC
:10896400C0F844430BB1C0F8044302B070BD00002A
:108974002DE9F74F8E0098464FF4803503688D40FB
:1089840006F5A079C3F848531FFA89F9C3F80853C8
:10899400074698198A464FF0000BD3F8041522F0C5
:1089A4007F44D0F84025C0F8401543F809B053F887
:1089B40009300093009B531A23F07F43012B0CD101
:1089C400254B4FF4806043F0010398473B6843F81C
:1089D40009B053F809300193019B3868D0F8049525
:1089E400C0F84453A4EB090323F07F43012B1AD1AD
:1089F4000AF5A87A184B013440F82A4043F00103E1
:108A04004FF4806098473B68D3F80435994508D102
:108A14003B680020C3F84453C3F8045303B0BDE8D3
:108A2400F08F0D20FAE70644C8F1FF18C6F8404558
:108A3400D0F80435E21A013A22F07F4208F57F4863
:108A44009045EED3002AE3D10134C6F84045D0F86E
:108A540004259342DBE700BF701903000368022278
:108A6400C3F8442309B1C3F8042370474FF4827157
:108A74000068FFF7EBBE4FF4803303FA01F103689B
:108A8400C3F84813C3F808137047890001F5A071AF
:108A940089B20068FFF7DABE0368D3F804057047AB
:108AA40090F9043001215A0903F01F0301FA03F37A
:108AB4004032024941F82230704700BF00E100E033
:108AC400024B034A1B681068184700BFA029002006
:108AD4009829002070B5064E0546002456F8243027
:108AE4000BB1284698470134042CF7D170BD00BF60
:108AF400B0290020033080B240F2FE33984230B5F2
:108B04001FD8134B1A783AB95C891D892C44044444
:108B1400A4B2B4F5806F0AD91A7DAAB99A8BDC8BFA
:108B24002244024492B2B2F5806F0DD801220A8029
:108B34001446142202FB04335A891044588100203D
:108B440030BD48F2086030BD48F2066030BD00BF59
:108B5400E42900200B4A0C4B5188142000FB0131FE
:108B6400CB6833B90420496810700122074801F02A
:108B74008DBB05230649137002238B800122002339
:108B84000968F3E7C8290020E429002070220020A6
:108B9400AC2A002007B5002305490093054A09685B
:108BA4000548082301F0D8FA03B05DF804FB00BFC0
:108BB400AC2A0020B81903007022002007B5002356
:108BC400009301460823034A034801F0C5FA03B0A1
:108BD4005DF804FBB01903007022002013B50023D4
:108BE4000C46009301460423074A084801F0B4FAEE
:108BF40038B9074B142202FB04340123237402B056
:108C040010BD48F20D60FAE7AC1903007022002091
:108C1400E429002037B50A480A4B42689C88196841
:108C240053880325033305709BB2002000909B00FA
:108C340001EB8401044801F08FFA03B030BD00BF9A
:108C4400C8290020AC2A00207022002010B501465B
:108C5400044800F0F4FE1C220446002108F098FCAD
:108C6400204610BD982A00204388033300EB830379
:108C740099420BD382884FF6FF739A4208D0038837
:108C840033B18068431C58425841704702207047F2
:108C9400012070472DE9F8430223DFF864800B803C
:108CA4000D46174600F5805600F108044FF00109FF
:108CB400B44222D2236801331FD031462046FFF745
:108CC400D3FF48B10FB187F8009002280BD14FF4BD
:108CD40080632B80BDE8F883A368D8F80020934212
:108CE40001D9C8F800302B886288033313442B80E1
:108CF4006388033304EB8304DAE7BDE8F88300BF39
:108D0400DC290020144A142303FB002070B50B68EF
:108D140044680D4604F5805653B15C88033403EB74
:108D24008404A64202D9236801330BD1002070BD0C
:108D34000834F6E72C60012070BD6388033304EB2C
:108D44008304EEE731462046FFF78EFF0128F4D076
:108D5400F0D30228EAD0E4E7E4290020436873B59D
:108D640005460C4673B3254AD1688B422AD312694F
:108D7400934227D813F0030224D121490089098999
:108D840088421FD12868996888421BD11D494868C8
:108D9400834203D900F5805083420ED38A699342FB
:108DA4000DD902F58052934209D201232380002079
:108DB400B0FA80F0400902B070BD1346F6E748F2FD
:108DC4000960F5E7002323801E462388012B01D97F
:108DD4000020F0E7019601A92088FFF793FF18B956
:108DE400238801332380F0E7019B2A689968914224
:108DF400F1D16B60024B1B892B81DCE770220020D0
:108E0400C8290020E42900202DE9F8431C46214B01
:108E14001B7806460F461546002B32D0002A34D064
:108E2400002C32D0DFF874804FF01409A388012B92
:108E340003D948F20960BDE8F88309FB03F318F885
:108E440003302BB92146A088FFF75CFF20B92060CE
:108E5400A3880133A380E9E723681EB19988328887
:108E64009142EFD147B99A6885E80C000A4B1B89F7
:108E74002B810020BDE8F88319883A889142E1D11A
:108E8400F1E748F20160BDE8F88348F20460BDE808
:108E9400F88300BFC0290020C8290020E42900204D
:108EA40008B5074B191D5888FFF72CFF18B1BDE80A
:108EB4000840FFF7AFBEBDE80840FFF74BBE00BF58
:108EC400C82900202DE9F04FA34FDFF8B09289B0F4
:108ED4000646B8463B6823B94946A04800F0E9FD78
:108EE4003860D8F800502A78531E052B00F2F5811B
:108EF400DFE813F006007200720006010601630148
:108F04002EB1974B00225A604FF4064426E02B7989
:108F1400032B1ED8DFE803F016023D4891490B7875
:108F2400022B084633D00B7D022B4FF0010340F097
:108F3400198214225343C2180020C8545068FFF702
:108F44003DFE03E001232B71FFF724FE002800F00F
:108F5400D180834B00225A6048F20D641422002110
:108F640003A808F015FB41F61D539C4208BF0024DA
:108F7400D8F8003004941A78023A042A00F2CD8119
:108F8400DFE812F0AE01BA01DD01E501EC010023D6
:108F9400CFE775497548002302222B718A8001228C
:108FA400096801F073F9D1E76F4C00262E7120682F
:108FB4006C4DFFF703FE6E4BD4F800E05A8814237F
:108FC4005343EA18EE5451682160A188C2F804E0C2
:108FD40011810222A280B9E7B5F814A0DFF884B1A8
:108FE400B6B1AA7DEB88022A06D9142101FB0AB185
:108FF400DA1C088902440A81142202FB0ABAC3F566
:109004007F43BAF80A20FD331344AAF80A307BE7F9
:10901400142303FB0AB319895C68AB7D04EB810458
:10902400062B05D8DFE803F0284F37451D5B6900A0
:1090340048F20E64AA7DEB88022A06D9142101FBAA
:109044000AB1DA1C088902440A81142202FB0ABA12
:10905400C3F57F43BAF80A20FD331344AAF80A3053
:109064007CE74448444900234360AB690360FFF74D
:1090740075FE002800F02E810223AB7500230093B7
:109084000423EA182146394801F066F8002831D053
:1090940048F20D64CEE72B69002B14BF0323012390
:1090A400AB750023009305F10C02042304F10801BD
:1090B400E9E70123AB750022EB8800929B002A6943
:1090C40004F10C01DFE7032A0CBF05230623AB756B
:1090D40000230093042305F10802E118D3E70623D3
:1090E400AB75254B1988234B5868FFF777FD044669
:1090F40000289FD109B0BDE8F08F41F61D5499E7CF
:10910400002E7FF401AF2B79012B39D007D348F21D
:109114000E6241F61D54022B18BF14461EE70223AB
:109124002B71039604960596EB6803930DF10A01DF
:1091340003A8FFF713FE002800F0CC800498BDF8C4
:109144000A108388EB8003882B81FFF747FD0446D0
:10915400002C7FF403AFCDE7E0290020982A0020FB
:10916400C0290020E4290020AC2A0020702200201D
:10917400C8290020A4290020B82A0020D8290020CA
:10918400DFF804A203AA53463146A81DFFF73CFEAC
:10919400044660B9BAF804100498FFF71FFD0446AA
:1091A40048F209639C42D3D141F61D54D6E6082205
:1091B4003146504608F0ECF9F2E7002E7FF4A4AEF5
:1091C4006B4B1A7B5AB11E731A78013A062A00F2C5
:1091D4008480DFE802F04A5F676A826D78001A785B
:1091E400072AF1D801A151F822F000BF1192020020
:1091F400CD910200CD910200379202004B92020001
:109204006B9202006B920200339202001A89594950
:1092140001321A8100225A801A730A78B2FA82F251
:1092240052099A720A7DB2FA82F25209DA72012262
:1092340007E0514958688A884088033202448A808A
:1092440002221A70C0E74B4C5A884B49142505FB7F
:1092540002420868546850608888108102228A801B
:109264000C600622EDE70722EBE79A7A32B1414916
:1092740000229A72CA680AB9097C51B9DA7A62B1D1
:109284000022DA723B4A116A39B992F8242022B1D9
:1092940001225A80FFF704FE59E700221A705A800F
:1092A4005A6081E7FFF7B6FC51E7FFF753FC4EE73E
:1092B40006221A702F4A5B88142101FB0323586885
:1092C400FFF77CFC43E707221A7000225A60FFF77D
:1092D40061FC3CE748F2096440E648F20E643DE66E
:1092E40001228DF80C201A89ADF818209A88ADF85F
:1092F4001A20DB68059310E002228DF80C201A89ED
:10930400ADF818209A88ADF81A20DA6805929B7D8A
:109314009A1F534253418DF81C3003A8FFF7DAFB20
:10932400002649461548C8F8006000F0EDFB01210D
:10933400134800F0AAFC00287FF4CCADDAE603223F
:109344008DF80C20DA88ADF818201A89CFE70422AA
:109354008DF80C20DB88ADF81830DEE705238DF896
:109364000C30DAE7074A1370002353601CE700BF90
:10937400C8290020E4290020AC2A0020982A0020D3
:10938400A82A0020C0290020BC2A00204068FFF73A
:1093940099BD000008B50121044800F05CFC18B92F
:1093A400BDE80840FFF78EBD08BD00BFA82A002015
:1093B4002DE9F3419846364B1B7806460D46002BA3
:1093C4005AD000295BD009884FF6FF73994259D0CF
:1093D4006B88002B56D06B689B0756D14AB92F89EE
:1093E4000DF102013846FFF785FB30B102B0BDE84C
:1093F400F08113885788ADF8023001A8FFF726FCE6
:10940400044660B9BDF80230224A142101FB03234B
:1094140058890338C01B588148F20760E6E70023E7
:109424008375BDF8023083826B68036180F8008025
:109434000121194800F01CFCE0602B8823816B8813
:10944400A380B8F1030F04BF0423A375E78004BF0E
:109454003368A3610025658101A9104800F019FB58
:1094640036B17560E36833600D4BB5721B89338187
:10947400FFF790FF0020B9E748F20160B6E748F231
:109484000460B3E748F20360B0E748F20260ADE776
:10949400C0290020E4290020DC290020982A00208B
:1094A400C829002008B5084B1A68042A09D019688D
:1094B400064A42F821000121184600F0D9FB002099
:1094C40008BD48F20B6008BDB42A0020B029002072
:1094D4002DE9F04F89B01422002103A808F058F8B0
:1094E400814A137803F0FF01009191463BB103A830
:1094F400FFF7F0FA0026304609B0BDE8F08F101DE2
:1095040000F0D0FB05460028F4D140F6F8734FF084
:1095140080521B68DFF8FCA15C1C04BF734B1B6802
:1095240011695269581C08BF02FB01F3CAF81030D4
:109534000022A3F540536E49CAF80C30504600F09F
:10954400D7FD06460028D6D11C238C2269496A48D7
:1095540000F040FA3746B0464FF0030B3446CDF8DE
:1095640004A0019BDA6818EB020058F8022009D025
:10957400624B9A4206D14168614B994269D00133EA
:1095840099427FD0531C03D05C4B9A4240F09D809B
:1095940000F6FC71024652F8043F013340F0958016
:1095A4009142F8D1574A116829B902210123106068
:1095B400918000930EE014226243534B4FF0020C4F
:1095C400991803F802C0514A486054800134A1F844
:1095D40008C0A4B247F0010708F58058B8F5405F09
:1095E400BFD1BBF1010F88BF3D46EDB2022D02D0C1
:1095F400062D03D065B948F20A667CE7012389F891
:10960400003003A80023C9F80430FFF763FA72E7B7
:1096140002A8FFF71BFBC8B10123013D03700A2D0B
:1096240009D8DFE805F006080608070807080F113F
:109634000F000023037102A92F4800F02AFAFFF754
:10964400A9FE58E70323F5E70223F3E748F2076688
:1096540051E72D494FF0140E0EFB04FE01EB0E02F0
:109664004FF0000C01F80EC050600EF110020EF124
:10967400080E0A447144FFF70DFB47F0020701345A
:10968400A4B2A9E7009BDFF87CA083B11E4B14228F
:10969400624399184FF0020E03F802E0DAF8002052
:1096A4004A601A4AA1F808E054800134A4B20022A6
:1096B4001749CAF80000FFF7EDFABAF80420022AA5
:1096C40014BF08220422174386E70F491422624379
:1096D40001EB020E0BF1FF33CEF8040003201FFA56
:1096E40083FB8854CBE700BFC0290020141000106E
:1096F400AC1B03000C2A0020982A0020DEC0ADDE3B
:10970400FE011EF1AC2A0020E4290020C829002013
:10971400B02A00207022002073B50D460446C8B15B
:10972400C1B10DF10601FFF719FBB0B10C4BBDF847
:1097340006006668142202FB003001210C3000F0A0
:1097440097FA63682E600C336B600123A3720020C8
:1097540002B070BD48F20460FAE748F20960F7E726
:10976400E429002013B50446A8B10DF10601FFF762
:10977400F5FA98B10C4ABDF80630142101FB032315
:10978400DA6872B1A27A62B1DA680020013ADA606A
:10979400A07202B010BD48F20460FAE748F2096012
:1097A400F7E748F20560F4E7E429002002230022E9
:1097B400FFF7FEBD18B103230022FFF7F9BD48F2FD
:1097C40004607047114B1B7813B50446ABB14FF6D8
:1097D400FF73984214D001A8FFF738FA98B1052313
:1097E400037001230371C48001A9094800F051F9F1
:1097F400FFF7D0FD002002B010BD48F20160FAE787
:1098040048F20360F7E748F20760F4E7C029002054
:10981400982A00200F4B1B7807B5A3B101A8FFF7C6
:1098240015FA98B10623037001A90B4800F031F929
:109834000A4B1A780AB101221A73FFF7ABFD002014
:1098440003B05DF804FB48F20160F9E748F20760F1
:10985400F6E700BFC0290020982A0020C82900206C
:1098640007B5ADF8060002A820F8041D01460DF165
:109874000600FFF7C9FA03B05DF804FB13B502ACA8
:10988400134624F8020D0A4600202146FFF7BCFACD
:1098940002B010BD13B502AC134624F8020D0A46FB
:1098A40020460021FFF7B0FA02B010BD20B119B173
:1098B40003680B600020704748F2046070470000A2
:1098C400404B1B782DE9F74F0446002B6FD000283E
:1098D40070D01222002107F05BFE3B4F3B4A03236A
:1098E40023803B4B4FF00008BA464FF014094FF069
:1098F400010B7E8939897D68314489B2002D5CD0A1
:109904002868904259D168681844012855D809FB41
:1099140008A0B4F802E0C06870446080208906445E
:109924006089268108446081C1F58061A08989B27B
:10993400884205F1080638BFA18105F58055B54276
:1099440019D93168013116D0294630468DE80C000A
:10995400FFF78AF901289DE80C0017D023D30228C9
:10996400EDD1E18884F810B00131E180E189AD1BCB
:1099740001EBA505E58108F10108B8F1020F07F133
:109984001407B6D1002003B0BDE8F08FE18801319F
:10999400E180E189708803310144E18171880331F8
:1099A40006EB8106CBE7A1880131A180F6E748F2F6
:1099B4000160E8E748F20460E5E720880138208088
:1099C400A5E700BFC0290020E4290020DEC0ADDEE9
:1099D40002FEE10E10B561B1B2FBF3F403FB1424F3
:1099E400A4B244B980E8120084608281C381204615
:1099F40010BD0E2010BD092010BD82B050E8022F0A
:109A0400C188B2EB324F4FF0000317BF92B241EA64
:109A1400014142EA014104E04268B2EB324F08BF1F
:109A2400012340E80212002AE8D18DF807309DF89E
:109A34000730002B0CBF1120002002B0704737B54F
:109A440050E8013F9DB2C48925448489A54228BFBA
:109A54002D1B0489A54202BFBFF32F8F002207E00C
:109A6400C5EA030540E80154002CE9D14FF0010296
:109A74008DF803200193019B9DF803200B6002F0F5
:109A8400FF0322B10B880068184403B030BD1846A8
:109A9400FBE70A884B889A4209D150E8012FC2EAB1
:109AA400024240E80123002BF7D101207047002037
:109AB400704737B550E8023F1FFAA3F5C488A542A2
:109AC40002BFBFF32F8F00220DE0C489254484898F
:109AD400A54228BF2D1BC3EA054540E80254002CCB
:109AE400E8D14FF001028DF803200193019B9DF80A
:109AF40003200B6002F0FF0322B14B880068184476
:109B040003B030BD1846FBE70A884B889A4209D156
:109B140050E8022FC2EA224240E80223002BF7D188
:109B2400012070470020704701F01F024B090121FA
:109B3400914000EB830000F067B84B0910B501F0C9
:109B44001F040121A14000EB830000F050F8E04025
:109B540000F0010010BD01F01F0301229A404B09DF
:109B640000EB8300D14300F069B84B0901F01F01F9
:109B740050F82300C84000F0010070472DE9F04779
:109B84004E1E760980460F460136002558F82540BA
:109B940008EB850AE44394FAA4F4B4FA84F44FEA93
:109BA4004519202C06D10135AE42EFD83C4620465B
:109BB400BDE8F0874C44A742F5D921464046FFF75B
:109BC400BCFF0028F3D0DAF80040E44394FAA4F48C
:109BD400B4FA84F4E5E700B550E8002F0B4640E8FA
:109BE400003E9EF0000FF7D110465DF804FB00B56F
:109BF40050E8002F42EA010340E8003E9EF0000FC7
:109C0400F6D110465DF804FB00B550E8003F43EA86
:109C1400010240E8002E9EF0000FF6D110465DF8D8
:109C240004FB00B550E8002F02EA010340E8003EBF
:109C34009EF0000FF6D110465DF804FB00B550E825
:109C4400003F03EA010240E8002E9EF0000FF6D127
:109C540010465DF804FB00B550E8002F02EB010349
:109C640040E8003E9EF0000FF6D110465DF804FB7C
:109C740000B550E8003F03EB010240E8002E9EF0DF
:109C8400000FF6D110465DF804FB00B550E8003F24
:109C9400A3EB010240E8002E9EF0000FF6D110461F
:109CA4005DF804FB0121FFF7A2BF0121FFF7ACBF60
:109CB4000021FFF7B6BF10B590B142688368016810
:109CC4009B1ADBB20A60013BDBB2FF2B026802D1B4
:109CD4000020107110BD11684C1C14600B70F2E769
:109CE4000E2010BD37B5054602A8002400F8014D2A
:109CF400FEF772FD2A686B68116899420ED9481EF6
:109D0400106011F8014CEB68298A01FB0434AB683C
:109D140011791B1ADBB2994238BF13719DF8070001
:109D2400FEF77EFD204603B030BD37B5054602A8D8
:109D3400002300F8013D0C46FEF74EFD2A68136827
:109D4400591C1160E968641A298AB4FBF1F41C7087
:109D54009DF80700FEF764FD03B030BD826810B5BE
:109D640004462AB143690168006998470023A36047
:109D740010BD0EB403B5039929B102AA04AB42F88D
:109D8400043D00F075F802B05DF804EB03B07047D1
:109D94000A2938B504460D4602D10D21FFF7F8FF14
:109DA400A3682268591CA160D554A26863689A42CA
:109DB40004D32046BDE83840FFF7D0BF38BD0000CB
:109DC4002DE9F84F0A9C99460B9B17468246884614
:109DD4000A460126BA420FD24E4538BF4E4613F00A
:109DE400010B01D164B900240125B9F1010F1AD97D
:109DF40009F1FF397D43F8E7B2FBF7F20136E9E7F1
:109E04009B070ED5B9F1000F0CBF30252025A642C3
:109E1400EAD2013C29465046FFF7BAFF002CF6D19E
:109E2400E1E72025F3E7B8FBF5F39F42E2D9DFF839
:109E34003C90B8FBF5F3504619F8031005FB138862
:109E4400FFF7A6FFB5FBF7F5002DF2D1BBF1000F2C
:109E54000AD03CB9BDE8F88F013C20215046FFF7F9
:109E640097FF0CB1A642F7D3BDE8F88FC0190300E1
:109E74002DE9F74F054617460C46002900F03581B9
:109E840014F8011B49B92B7B002B00F02E812846C6
:109E940003B0BDE8F04FFFF761BF252940F02181F1
:109EA40023460026194611F8012B2D2A24D0302AE6
:109EB40026D02B2A27D000242A2A994603F101010F
:109EC40024D13B681A1D1B683A601C44894699F8E2
:109ED40000302E2B25D109F101014FF000088946ED
:109EE40011F8012BA2F1300009281CD80A2303FB26
:109EF4000823A3F13008F2E746F001060B46D1E748
:109F040046F00206FAE746F00406F7E71A780B462D
:109F1400A2F130010929DAD80A2101FB0424303CDA
:109F2400CAE74FF0000899F8001001F0FB02682A14
:109F340002D119F8011FF8E769290FD04BD8582925
:109F440065D007D825296ED009F101042378002BA8
:109F540096D198E7632962D06429F5D13A68D2F89A
:109F640000A0111D8AEAEA723960A2EBEA724FF08E
:109F7400010B092A5BDCC34538BFC3462CB1BAF1D7
:109F8400000F01DB710700D5013CB20702D5B8F11F
:109F9400000F04D0F30702D4002C4ED10024BAF1F0
:109FA400000F52DACAF1000A2D212846FFF7F0FE0D
:109FB40006F00302022A05D1B8F1000F02D1002CE9
:109FC40047D100248DE8500043460A2251462846D2
:109FD400FFF7F6FEB8E773294CD014D87029B3D133
:109FE4003B681A1D3A60302128461C68FFF7D0FEF2
:109FF40078212846FFF7CCFE002301930823009321
:10A0040010222146E3E775292BD078299CD13968A1
:10A014000A1D3A6043468DE85000102228E03B6850
:10A024001A1D19783A602846FFF7B2FE8CE70A2316
:10A034000BF1010B92FBF3F29BE7A345AFD2202176
:10A044002846013CFFF7A4FEA6E77007B0D52B21F4
:10A05400ABE7A345B6D230212846013CFFF798FE72
:10A06400ADE739680A1D3A608DE8500043460A227C
:10A074000968ACE73B681A1D3A60F107D3F800A001
:10A0840012D55646A6EB0A0B16F8011B41B95C45DE
:10A094007FF65AAF20212846013CFFF779FEF6E708
:10A0A4002846FFF775FEEDE7BAF1000F11D05046D0
:10A0B40007F0A2FA0646B44200D964B90AF1FF3A9D
:10A0C4001AF8011F00293FF43FAF2846FFF760FE4E
:10A0D400F6E75646EFE720212846013CFFF758FEF5
:10A0E400E9E72846FFF754FE30E703B0BDE8F08FF8
:10A0F40007B50B4688B9124B1248134AC01A0E23EF
:10A10400C0080093114B0004114940F00100FDF711
:10A11400EBFC0E2003B05DF804FB4BB9084B094877
:10A124000C4AC01AC0080E2300930004074BEBE747
:10A1340003601B68114603B05DF804EB184700BFC9
:10A14400C0160300101703007D1A0300D019030082
:10A15400821A0300F91A03002DE9F743DDF828C039
:10A1640088B93E4B3E483F4AC01AC0080E243E4BB5
:10A17400009400043D4940F00100FDF7B5FC204681
:10A1840003B0BDE8F0834AB9344B3548384AC01AA5
:10A19400C0080E2400040094334BEBE7D0F800E031
:10A1A400BEF1000F09D12D4B2D48324AC01AC00808
:10A1B4000824000400942C4BDCE74BB9274B2848B7
:10A1C4002D4AC01AC008092400040094264BD1E784
:10A1D4004768D7F80490B3FBF9F709FB17374FB179
:10A1E4001E4B1F48254AC01AC008092400040094C5
:10A1F4001D4BBFE78F0709D0184B1948204AC01AD6
:10A20400C008102400040094174BB3E712F0030FA6
:10A2140009D0124B12481B4AC01AC008102400046B
:10A224000094114BA6E7C768B9420DD34C1E0569CB
:10A234001C44AC4208D8CDF828C0DEF80C40A44633
:10A2440003B0BDE8F0436047044B05480E4AC01A0A
:10A25400C008102400040094034B8BE7C0160300CD
:10A26400101703007D1A0300E2190300821A030089
:10A27400FF1A0300F31A0300B21A0300051B0300BC
:10A284002F1B0300471B03006A1B0300F7B580B9AB
:10A294002A4B2B482B4AC01AC0080E242A4B009480
:10A2A40000042A4940F00100FDF71EFC204603B0DB
:10A2B400F0BDD0F800E0BEF1000F09D11F4B2048DB
:10A2C400234AC01AC0080824000400941E4BE8E77F
:10A2D4004AB91A4B1A481F4AC01AC0080924000474
:10A2E4000094194BDDE74768D7F800C00CF1FF373D
:10A2F4000F4209D0114B1248174AC01AC008102443
:10A3040000040094104BCCE7C768B94205D34C1E37
:10A3140005690CFB0244AC4209D9084B08480F4AB2
:10A32400C01AC008102400040094074BB9E7DEF8F3
:10A334001040A44603B0BDE8F0406047C0160300D7
:10A34400101703007D1A0300F5190300821A030095
:10A35400F31A0300B21A0300081A03002E1A0300AA
:10A3640029DF704728DF704770B503689D6886B0A1
:10A3740004460E466DB118220021684607F008F91C
:10A38400A3680593237901962BB1012B0DD0684660
:10A39400A84706B070BD01238DF8003023690293ED
:10A3A400E368039363690493F1E702238DF80030B3
:10A3B400E3681B030293F5E70846704700207047E3
:10A3C400024B187A003018BF01207047602B002020
:10A3D400034B187A0122B0FA80F05A74400970478E
:10A3E400602B002008B510461A4607F0A7F8002095
:10A3F40008BD000008B514220021044807F0C8F87D
:10A404000348FFF7FAFA002008BD00BF602B0020C4
:10A41400502B002010B5094C094B43602046FFF730
:10A4240041FC40B906F02AFE1C2320748C22054905
:10A434000548FFF7CFFA002010BD00BF602B0020B5
:10A44400A01B0300C42A0020502B002070B5244D0B
:10A45400244E2B7A2C463BB923492448FFF729FB89
:10A46400306008B9686070BD0223237233681A79BA
:10A4740072B1012A24D018460321FFF775FF002387
:10A484002372636018491948BDE87040FFF73CBB6C
:10A4940098695A69D9681D69121AB2F5805F28BF94
:10A4A4004FF480529208012A014438BF0122284403
:10A4B400FFF756FF50B11128DDD10123237270BD7F
:10A4C400D8681A691044FFF74DFFF3E7237C2BB9D2
:10A4D4000146BDE87040022000F00AB870BD00BF1C
:10A4E400602B0020782B0020742B0020502B0020A0
:10A4F40038B5831E012B45D8234C237A002B41D039
:10A50400022B09D1032830D0204B1B680022E260C3
:10A514001A793AB1012A22D0637C7BBBBDE838406A
:10A52400FFF794BF9A6959698D1AB5F5805F94BF96
:10A53400521902F580529A619142EDD102284FF0EE
:10A54400000308BF19462372104B18BF0D21186869
:10A55400FFF70AFF0E490F48FFF7D6FADCE71A693E
:10A5640001321A615B699A42E7E7E3680133082B19
:10A5740001D8E360D0E70023E360DFE7BDE83840BB
:10A5840006F06CBD38BD00BF602B0020782B002086
:10A59400742B0020502B002000F0FD03012B08D168
:10A5A400044B00225A74421E504250411874FFF763
:10A5B4004DBF7047602B002010B5064C201DFFF7DF
:10A5C40071FB28B9637C1BB9BDE81040FFF73EBF9F
:10A5D40010BD00BF602B00202DE9F34180460D46DD
:10A5E4000F4801A916461F46FFF729FA0446A8B1E9
:10A5F4001C22002106F0CCFF2D0B0123237101A99D
:10A60400C4F80080A760E56066610548FFF741FA79
:10A61400FFF7D2FF002002B0BDE8F0810420FAE782
:10A62400502B00202DE9F74381468846104801A9A4
:10A6340017461E46FFF703FA0446B8B11C22002150
:10A6440006F0A6FF00250A9BA36001A92571C4F8A2
:10A654000090C4F81080E76066610548FFF719FAB6
:10A66400FFF7AAFF284603B0BDE8F0830420FAE709
:10A67400502B00202DE9F047B0F806804479D2F839
:10A6840000909DF8207008FB04F4043C03EB090ED1
:10A69400744538BFA4EB03090E46191DC2F8009097
:10A6A400B1FBF8F5044608FB15114DB9A8EB010AF6
:10A6B400CA4528BFCA46B9F1000F04D1BDE8F087E6
:10A6C4002468013DF1E704317019631852466FB1F3
:10A6D4001946A9EB0A0906F031FFC8455544246818
:10A6E400C2464FF0000128BFCA46E4E701461846B7
:10A6F400EFE7FFF7E0BAF8B546790446721E002387
:10A704009342246804D301460025B54202D3F8BD20
:10A714000133F5E70F682046FFF707FB013539469B
:10A72400F3E72DE9F843078ACD1C8046FFF7DAFAF0
:10A73400043F3D440446B5FBF7F5002650B1012320
:10A74400EDB206714371C780013DC0F800808146B7
:10A75400AE4202D32046BDE8F8834046FFF7C2FA72
:10A76400074648B16379013363710136C9F80000C3
:10A77400C0F800808146EBE72046FFF7BCFF38466F
:10A78400BDE8F88301210430FFF772BA10B5012146
:10A7940004460430FFF779FA10F0FF0F04D1204685
:10A7A400BDE81040FFF7A7BF10BD1FB504AC44F8C7
:10A7B400042D002200922246FFF75CFF04B010BD76
:10A7C4001FB504AC44F8042D012200922246FFF781
:10A7D40051FF04B010BD33DF704741DF7047000004
:10A7E4000D4A08B5002313700C4A1360BFF35F8F42
:10A7F4000B490C4800F0B3F80B4A0C480121FDF753
:10A80400F5FE024630B94FF480410948BDE80840DE
:10A81400FDF7F7BE08BD00BFA82B0020AC2B00201D
:10A82400D01B03007C2B00203DA90200CC1B03009D
:10A83400882B002007B502A8002300F8013DFDF78E
:10A84400CBFFF1EE103A23F09F03E1EE103ABFF391
:10A854005F8F0A4B4022C3F884219DF80700FDF75F
:10A86400DFFF06F00BFC20B1FFF7B7FF03B05DF884
:10A8740004FB20BF40BF20BFF8E700BF00E100E0B9
:10A8840070B5274C054601212046FFF7A4F9BFF314
:10A894005F8F2646002841D1042D0AD0214B1A7817
:10A8A4001AB1BFF35F8F206070BD1F4A157001227B
:10A8B4001A701E4C1C4D6368BBB9FDF751F9FCF7C7
:10A8C4008DFF0028FBD1184B1B78023B012B14D8B9
:10A8D400BFF34F8F1649174BCA6802F4E062134363
:10A8E400CB60BFF34F8F00BFFDE71B682878984704
:10A8F40088B1204600F03DF8DDE706F0BFFB08B163
:10A90400FFF769FF4FF080430122C3F80025BFF32E
:10A914004F8F20BFFDE7BFF35F8F306070BD00BF76
:10A92400AC2B0020A82B0020842B00207C2B0020A3
:10A9340000ED00E00400FA05034B1B7813B104207A
:10A94400FFF79EBF704700BFA82B0020836800223A
:10A954005A609A601A615A61DA601A6070470B682B
:10A964004A684360934208BF0023016008BF436004
:10A974007047436843B10268916852680B4493423C
:10A98400436004BF00234360704770B544680646C3
:10A994000D46206818B1B3682946984718B923684A
:10A9A4002B60256070BD2468F3E74368186808B11C
:10A9B40002681A60704743681868704743681868EB
:10A9C40000B97047884203D102681A6001207047B9
:10A9D40003460068F4E700000D4930B5A1F5947210
:10A9E4000225914201D8002030BD8B1ADB1093FB65
:10A9F400F5F302EBC30452F83330834205D802D294
:10AA040004F10802EDE7606830BD2146E9E700BFC4
:10AA14002C1D030008B5FFF7DFFF024B002808BF19
:10AA2400184608BDEE1B030038B5084C04F10803B2
:10AA34000546002818BF1C4623682BB11A682260FB
:10AA44005B6828469847F7E738BD00BFB82B00205D
:10AA540020B9054B01225A70FFF7E6BF012802D145
:10AA6400014A9070F8E77047B02B002020B9034BDF
:10AA740001225A70FFF7D8BF704700BFB02B0020E7
:10AA840038B50B4C237883B90A486360A36023610B
:10AA9400E36000F0C7F8054606F0F0FA08B900F0E4
:10AAA400CFF801232370284638BD8525FBE700BF76
:10AAB400B02B002055AA020037B502A80023094C88
:10AAC40000F8013DFDF788FEE368013BE360E568BB
:10AAD40015B900F0C7F8A5709DF80700FDF7A0FEB2
:10AAE40003B030BDB02B0020012813B509D003D327
:10AAF40003281BD002B010BD0F4B0122C3F88020E5
:10AB0400F8E702A800230D4C00F8013DFDF764FEB0
:10AB140023780BB9FFF7B4FFE3689DF8070001330E
:10AB2400E3600123A370FDF77BFEE3E700F088F800
:10AB3400FFF7C2FFDEE700BF00E100E0B02B00201A
:10AB44001FB503788DF800304368019383688DF84E
:10AB54000830C3680393054A054B684653F821300F
:10AB640052F82110984705B05DF804FBC42B00206F
:10AB7400CC2B00201FB503788DF800304368019377
:10AB840083688DF80830C3680393054A054B68460B
:10AB940053F8213052F82110984705B05DF804FBB2
:10ABA400C42B0020CC2B0020F0B5194B0678DFF81D
:10ABB40070C043F82620174B96460A6943F82620AE
:10ABC4004B7F0CF806300C4607460FCC89B06D4617
:10ABD4000FC594E80F0085E80F001CF806300496B2
:10ABE40053B1BEF1000F0C4A694608BF0022381D5C
:10ABF40000F0F0FD09B0F0BDBEF1000F074A694650
:10AC040008BF002207F10C0000F0B2FBF2E700BF1E
:10AC1400CC2B0020C42B002045AB020079AB0200F2
:10AC2400D42B0020054A13792BB90121106011712E
:10AC34005371184670478520704700BFD82B0020F9
:10AC4400074B1A68D2075FBFC02283F80023012292
:10AC54001A604FF080430122C3F81825704700BFE3
:10AC640000E100E0044B01221A604FF08042D2F868
:10AC74001834DB03FBD470470C000040134B07B5BA
:10AC84001A687AB100221A601B680093009B4FF087
:10AC940080430122C3F808230D4B587910B95A7127
:10ACA4001B6898470B4B1A686AB100221A601B682C
:10ACB4000193019B4FF080430222C3F80823044B05
:10ACC40001201B68984703B05DF804FB00010040B5
:10ACD400D82B00200401004000F1804000F5C04062
:10ACE400002382B0036003680193019B02B07047A4
:10ACF40003681F2B83BF03F01F03036001484FF059
:10AD0400A04070470003005007B502AB43F8040DA0
:10AD14001846FFF7EDFF019B00EB8300D0F80037E6
:10AD240023F44033C0F80037D0F8003743EA014138
:10AD3400C0F8001703B05DF804FB0000054B4FF0AA
:10AD4400FF32072843F8202084BF1B1883F85820BB
:10AD5400704700BFE02B002010B5164C94F86A3001
:10AD640033BBFF21E2180133302B82F83010F9D1C4
:10AD74000021C8B2FFF7E2FF01310C29F9D100210B
:10AD840006220D4806F004FC0C4BC02283F806236F
:10AD940040221A604FF4BE70FFF79EFF084B4FF03D
:10ADA4000042C3F80423012384F86A30002010BD54
:10ADB400082010BDE02B0020442C002000E100E01E
:10ADC40000600040034B93F86A00003018BF012074
:10ADD400704700BFE02B0020F7B53C4C2318064613
:10ADE40093F93030002B6FDA8878C0F340000028E4
:10ADF4000BBF082300230C250825AB4202D10420F5
:10AE040003B0F0BD54F82370013745D1A7195DB2E2
:10AE140087F8305044F8232010B9234483F858604D
:10AE24008B785A0718D4D80738D502A840F8086D8B
:10AE3400FFF75EFF009B00EB8300D0F8003723F0A0
:10AE44000203C0F800372248F20806F0070701237E
:10AE5400BB40875C3B43835488780A7810F0020037
:10AE640029D0AB0003F1804303F5C0433602D3F885
:10AE7400101521F44F3121F44071C3F81015120458
:10AE8400D3F8101506F47C5602F4403216430E43F0
:10AE9400C3F810650020B3E70133AEE702A84A788F
:10AEA40040F8046DFFF724FF019B03F5E073920063
:10AEB40040F82320C7E7083D2C4494F8606046EA34
:10AEC400821284F860209BE7082099E7E02B002099
:10AED400442C002073B5224C2518064695F93020E1
:10AEE400072A1ADD224492F858309B09032B10D10B
:10AEF40002A840F8046DFFF7FBFE019AD0F8103564
:10AF0400D340DB0707D402213046FFF7FDFE02B031
:10AF140070BD012BF7D00321F6E7D3B2072BF6D887
:10AF2400930003F1804303F5C043D3F8100540F0C8
:10AF34000100C3F8100502F14000800080B2FFF761
:10AF4400CBFE0029E3D095F9303054F82330002BA0
:10AF5400DDD0012303FA02F2024BC3F80423D6E73F
:10AF6400E02B00200060004007B502AB43F8040D5D
:10AF74001846FFF7BDFE019BD0F81005D84000F03D
:10AF8400010003B05DF804FB2DE9F04F89B0002403
:10AF9400614A624E624D029403940121A2F5C040BD
:10AFA40052F8043B012B80B206D1D6F804330B428D
:10AFB40002D0FFF791FE0C43AA424FEA4101EDD1C2
:10AFC400584B1B68012B0ED14FF4BE70FFF784FE63
:10AFD4004FF0A04344F00044D3F810350293524B91
:10AFE400D3F81035039314F0FF0F34D1002C80F202
:10AFF4008F8004AE0023049373604C4F4FF0FF33F3
:10B00400069307934FF00108002425467B1993F912
:10B014006020531C63D0D2B222F0C00908AB4FEABF
:10B02400D90003EB000B02F007011BF8083C08FAF7
:10B0340001F10B4253D007EB0903920993F9303025
:10B0440057F823A0BAF1000F21D1032A47D1335C6A
:10B054000B4333541DE0354F01260025344210D0F4
:10B06400AB0003F1804303F5C043D3F81005D3F8D4
:10B07400101557F8253023B1C1F30141C0F3052061
:10B0840098470135082D4FEA4606E7D1AEE7032A73
:10B09400DDD001A8CDF80490FFF72AFE019B03F54B
:10B0A400E07350F823301BF8180C0842C3F3014333
:10B0B40005D0022B13D1032A0BD1114604E0032B34
:10B0C4000DD1032A05D102214846FFF71DFE0134A4
:10B0D400E4B2BAF1000F02D011464846D047013518
:10B0E400042D93D1A4B14FF0A0430299D3F81025B5
:10B0F40003F540739142D3F8103502D10399994274
:10B1040006D002920393049A059B069207937BE769
:10B1140009B0BDE8F08F00BF00610040006000404E
:10B12400206100407C61004000030050E02B0020BF
:10B13400014B1B68184700BF4C2C00200D4B984254
:10B1440037B50D4610D102A8002300F8013DFDF7E4
:10B1540043FB094B1C7914B901221D601A719DF837
:10B164000700FDF75DFB14B9002003B030BD1120CA
:10B17400FBE700BF002000404C2C0020034B98420A
:10B1840001BF034B00221A601A717047002000406F
:10B194004C2C00200023435082B043580193019B60
:10B1A40002B070470A4610B54FF48E71FFF7F2FFF4
:10B1B400136A9168C95C136A01331362C0F81C15E1
:10B1C40010BD8B690A4610B54FF4847123B9FFF79B
:10B1D400E1FFD0F8183510BDFFF7DCFF536AD168E2
:10B1E400D0F81805C854536A0133536210BD0000E7
:10B1F4001FB501238DF80030044B0290019168467D
:10B2040093E80600904705B05DF804FB542C002039
:10B2140030B54D4AD2F8043313F4007F85B0154697
:10B224004FD0D2F82431002B4BD04FF492711046FA
:10B23400FFF7B0FF4FF40173C2F80833434B93F8A0
:10B24400291009B9012151603F4902228DF80020DB
:10B25400D1F88024C1F8802403929A690292DA68B2
:10B26400019200229A61DA61684693E806009047E9
:10B274003548D0F81C315BB134494A690B6A9A42AB
:10B284000A464CD991F82830002B48D1FFF78AFFA1
:10B294002D4AD2F8443193B14FF4A2711046FFF70E
:10B2A40079FF2A4B93F8291009B1012111609A6999
:10B2B4002AB100229A61586AD968FFF799FF05B04C
:10B2C40030BDD5F804335B07D2D5D5F80831002B4F
:10B2D400CED01E4C1C482146FFF773FF636AA26957
:10B2E4009A422346C4D1E26952B12369E168E3601A
:10B2F4000023606AA261E3616362FFF779FFB7E745
:10B3040094F829200AB901226A600F4A4FF40171A6
:10B31400C2F8081300229A61586AD968EDE74FF41D
:10B324008E710948FFF736FF5369002BB0D051697D
:10B334000291002391688DF80030019153616846B1
:10B3440092E80A009847A3E700200040542C00200C
:10B354001F2886BF00F01F00044B4FF0A04300F5E8
:10B36400E070022243F82020704700BF0003005021
:10B374002DE9F843634B047991462C2202FB0432F5
:10B38400064692F82A200D469846002A40F0B680D8
:10B394005D490068FFF7D2FE0746002840F0B08000
:10B3A40029684A1C10D01F2987BF01F01F03574A80
:10B3B4000B464FF0A0420120984003F5E073C2F819
:10B3C4000805032042F823006868431C0DD01F2899
:10B3D4008BBF00F01F0303464C4A4FF0A04203F515
:10B3E400E0734FF0000E42F823E03368AA6995F841
:10B3F40014E0C3F824256A7DBEF1010F4EEA02026F
:10B40400C3F86C25C3F81405C3F80C152BD1A9682F
:10B41400481C0DD01F298BBF01F01F020A463B4870
:10B424004FF0A04002F5E0724FF0000E40F822E029
:10B43400E868421C13D01F2887BF00F01F0E334A50
:10B4440086464FF0A0424FF0010C0CFA0EFC0EF5AC
:10B45400E07EC2F808C54FF0030C42F82EC0C3F8D2
:10B464000805C3F810152C23634308EB0302C2F844
:10B4740004902A6948F80320B9F1000F2BD04FF447
:10B484008E7130682D7FFFF785FE30684FF4A2710E
:10B49400FFF780FE32681E4BC2F80433120B53B21E
:10B4A400002BA8BF03F160404FEA4511BBBF194808
:10B4B40002F00F0500F56140C9B2AABFC9B24155F7
:10B4C40080F8001302F01F02012101FA02F25B0965
:10B4D400114941F8232033680422C3F800252C23A2
:10B4E40003FB048300229A61DA6183F829205A61FC
:10B4F400012283F82A203846BDE8F8830827FAE7B2
:10B504001127F8E7542C002015B202000003005064
:10B514008000020014ED00E000E100E02DE9F041BC
:10B5240003680479254D0022C3F800252C2202FB70
:10B5340004520646526872B1214AC3F80823190B13
:10B544004AB20120520901F01F0100FA01F1203230
:10B554001C4840F82210D3F80C05D3F81485D3F80E
:10B564000815D3F810754FF0FF329042C3F8142534
:10B57400C3F80C25C3F80825C3F8102501D0FFF73C
:10B58400E7FEB8F1FF3F02D04046FFF7E1FE7A1C28
:10B5940002D03846FFF7DCFE4B1C02D00846FFF70A
:10B5A400D7FE3068FFF7EAFD2C2303FB0454002385
:10B5B40084F82A306360BDE8F08100BF542C002079
:10B5C4008402020000E100E02DE9F047244F0679EF
:10B5D4004FF02C0909FB067480466569002D38D1AB
:10B5E4006261A16025624FF48E71006884F828506E
:10B5F400FFF7D0FDD8F80000012383602146FFF750
:10B60400D1FD6368A1463BBBD8F80050D4F814A020
:10B61400236A9A4512D8D8F80030D3F81C21002A9E
:10B62400FBD00122DA6000202C2303FB06760023E2
:10B634007361BDE8F08794F8283043B9D5F81C311C
:10B64400002BF8D049462846FFF7ACFDE0E70F2071
:10B65400EAE71120BDE8F0872846BDE8F08700BF7F
:10B66400542C00200023435082B043580193019B83
:10B6740002B070471FB501238DF80030044B0290CF
:10B684000191684693E80600904705B05DF804FB15
:10B69400802C00201F2886BF00F01F00044B4FF0B1
:10B6A400A04300F5E070022243F82020704700BF59
:10B6B400000300507FB5454AD2F82461002E63D0C0
:10B6C40010464FF49271FFF7CDFF02238DF800303E
:10B6D400D2F88034C2F880340393D2F83C35029314
:10B6E4003B4BDA68019200229A61DA61684693E87A
:10B6F40006009047354AD2F844317BB14FF4A27129
:10B704001046FFF7AFFF324B996939B100219961B7
:10B71400D961D2F83C05D968FFF7ACFF2B4AD2F8BF
:10B724002031B3B14FF490711046FFF79BFF012312
:10B73400D360274B596961B1D2F84C1502910022AC
:10B7440099688DF8002001915A61684693E80600D3
:10B7540090471E4AD2F85831A3B14FF4AC71104649
:10B76400FFF780FF1A4B596961B1D2F84C15029169
:10B77400002299688DF8002001915A61684693E887
:10B784000600904704B070BDD2F81031002BB1D040
:10B794004FF488711046FFF765FF0D4BD2F83C0556
:10B7A40099698842A6D1DC696CB1D2F80052D96893
:10B7B40025F02005C2F800521A699C61DA60DE6146
:10B7C400FFF758FF96E79C61D968F9E7002000402D
:10B7D400802C00202DE9F8436A4B067991462422F7
:10B7E40002FB0632044692F820200D469846002AB1
:10B7F40040F0C38064490068FFF7A0FC07460028B6
:10B8040040F0BD802868421C10D01F2887BF00F07C
:10B814001F035E4A03464FF0A0420121994003F5FD
:10B82400E073C2F80815032142F8231069684B1C21
:10B834000DD01F298BBF01F01F030B46534A4FF055
:10B84400A04203F5E0734FF0000E42F823E02368B2
:10B85400AA6995F814E0C3F824256A7DBEF1010FA6
:10B864004EEA0202C3F86C25C3F80C05C3F814159C
:10B874002BD1A968481C0DD01F298BBF01F01F02D2
:10B884000A4642484FF0A04002F5E0724FF0000E25
:10B8940040F822E0E868421C13D01F2887BF00F05C
:10B8A4001F0E3A4A86464FF0A0424FF0010C0CFAA4
:10B8B4000EFC0EF5E07EC2F808C54FF0030C42F80A
:10B8C4002EC0C3F80805C3F810152423734308EBEE
:10B8D4000302C2F804902A6948F80320B9F1000F62
:10B8E4003AD04FF4887120682D7FFFF7BBFE4FF4E8
:10B8F40090712068FFF7B6FE4FF492712068FFF74D
:10B90400B1FE4FF4A2712068FFF7ACFE20684FF43B
:10B91400AC71FFF7A7FE22681D4BC2F80433120B6B
:10B9240053B2002BA8BF03F160404FEA4511BBBFDF
:10B93400184802F00F0500F56140C9B2AABFC9B2A8
:10B94400415580F8001302F01F02012101FA02F2AE
:10B954005B09114941F8232023680822C3F8002514
:10B96400242303FB068300229A61DA615A610122CF
:10B9740083F820203846BDE8F8830827FAE7112722
:10B98400F8E700BF802C0020B9B602000003005085
:10B994001003420014ED00E000E100E02DE9F04165
:10B9A4002F4E0479242303FB046305465B687BB1B3
:10B9B40003682C4AC3F808231B0B5AB2012152090D
:10B9C40003F01F0301FA03F32032274941F8223020
:10B9D4002868D0F80032012223F02003C0F8003296
:10B9E4004FF4AC714260FFF73DFE2B68DA60D3F888
:10B9F4005821002AFBD00022C3F80025D3F80C05F7
:10BA0400D3F81485D3F80815D3F810754FF0FF3226
:10BA14009042C3F80C25C3F81425C3F80825C3F8CD
:10BA2400102501D0FFF736FEB8F1FF3F02D04046A3
:10BA3400FFF730FE7A1C02D03846FFF72BFE4B1C72
:10BA440002D00846FFF726FE2868FFF797FB242359
:10BA540003FB0464002384F820306360BDE8F081B4
:10BA6400802C00201003420000E100E001F060435C
:10BA7400B3F1005F2DE9F041074638D1204B067938
:10BA8400242505FB063598466C69002C32D16A6181
:10BA9400A96000684FF49071FFF7E4FD4FF4AC71B6
:10BAA4003868FFF7DFFD3B686A69A968C3F8441585
:10BAB400C3F8482501229A606A68F2B9D3F82011C4
:10BAC400D3F8582119B9002AF8D00F2008E0002A29
:10BAD400FBD10122DA60D3F85821002AFBD00020E0
:10BAE400242303FB068600237361BDE8F081102044
:10BAF400BDE8F0811120BDE8F0812046BDE8F08169
:10BB0400802C00200220FCF7B3B9000008B5094BD3
:10BB14001B7853B10020FCF779F90120FCF776F982
:10BB24000320BDE80840FCF771B9BDE80840FCF704
:10BB340081B900BFA52C0020F8B5784C23780546C0
:10BB44001BB100232370FFF7E1FF172D00F287805C
:10BB5400DFE805F00C1717435464757F878C878CD6
:10BB6400949898989898C2C6CDD4DEDEFFF7CEFF9D
:10BB74006B48FCF75EFD6B4B002204461A702046AE
:10BB8400F8BD0020FCF71AF9F8B10020FCF73EF9E3
:10BB9400022D0CBF4FF4E1614FF47A61614B1D70CB
:10BBA4004FF400404FF47A740025E0FB01454FF454
:10BBB400FA6200232046294605F0DAFB00220146FA
:10BBC4005748BDE8F840FCF71CBDFCF70BF9022D03
:10BBD4000CBFC8214FF4C871E0E70020FCF7EEF871
:10BBE40040B10020FCF712F94FF4487103224D4B89
:10BBF4001A70D5E7FCF7F6F8C821F7E70020FCF740
:10BC0400DDF830B10020FCF701F94FF47A61042229
:10BC1400EDE7FCF7E7F84FF4C871F8E70020FCF70C
:10BC2400CDF848B10020FCF7F1F83E4B05221A701C
:10BC340040F6CD410022C3E7FCF7D4F8F5E7002035
:10BC4400FCF716F9374B06221A70002240F266619F
:10BC5400B6E70020FCF7C6F80722324B1A7000241E
:10BC64008DE701202070FCF703F9EEE70120207036
:10BC7400FCF7FEF800224FF40051A1E7FCF7E9F8C5
:10BC84000C22EAE72848294EFCF7D3FCD5F111052C
:10BC940004461CD0D8B9012D13D0C8235D434FF4FA
:10BCA4007A7000214FF400474FF4FA620023C7FB77
:10BCB400050105F05DFB224601461B48FCF7A1FC8B
:10BCC40004460220FCF78EF80123337057E7022064
:10BCD400FCF79CF80023F8E7FFF718FF1222BCE7F3
:10BCE400FFF714FF0020FCF77DF81322B5E7FFF7F8
:10BCF4000DFF0120FCF776F81422AEE7FFF706FFEC
:10BD04000020FCF76FF80120FCF76CF81522A4E77B
:10BD1400FCF79FF8034B1D70A1E700BF182D00200E
:10BD2400E82C0020202D0020A82C0020A52C002089
:10BD34002DE9F04781460D46FCF7C8F80328044670
:10BD440031D8012D04D022D3022D2ED0BDE8F087A6
:10BD5400194D47003A18A918AE5C4A7852B1DFF879
:10BD64006880164842464FF48041FCF74AFC08B903
:10BD740088F800903B192B449A78114B1A5596B1C8
:10BD8400104B1B687BB13046BDE8F04718470B48A1
:10BD9400FCF74FFC084B04EB440213449E78084B19
:10BDA4001B5DB342EBD0BDE8F087034B00EB4004CE
:10BDB4001C446678E3E700BF082D0020C82C00204F
:10BDC400212D00201C2D0020A42C0020022100780D
:10BDD400FFF7AEBF044B1B68DB0703D5034B187892
:10BDE400FFF7AABE704700BF142D0020202D0020AD
:10BDF400002910B514BF03240024FCF779F81F2888
:10BE04008ABF0A4B4FF0A04300F01F0003EB8000F1
:10BE1400D0F8002722F44032C0F80027D0F80037C9
:10BE240043EA0443C0F80037002010BD000300506B
:10BE3400032801D8FCF736B800207047044B1B6870
:10BE440013F0010301D0FFF777BE1846704700BF17
:10BE5400142D002038B51C4B18601C4B10F0020444
:10BE6400054619601AD01A4B1A480E221A700F226E
:10BE7400DA7010229A7111225A72042140F233327C
:10BE8400FCF74EFA044648B9FCF7A2FA044628B96E
:10BE94000146114A1148FCF7A9FB0446EB0711D5EA
:10BEA4000120FCF72BF86CB921460D4A0D48FCF72C
:10BEB4009DFB044630B90C4A0C480121BDE83840CA
:10BEC400FCF794BB204638BD142D00201C2D002007
:10BED400082D002008210300D1BD02002C210300FD
:10BEE400D9BD02003021030009BB02002821030050
:10BEF400032812D8012A0BD1012908D100F10E021E
:10BF0400D2B200EB40000C4B1A54002070470022C0
:10BF14000129F6D009D3022901D007207047064B26
:10BF240000EB400018444270EFE7034B00EB400085
:10BF340018448270E9E700BF082D0020032802D8C6
:10BF44000121FFF755BF0620704708B501220221E1
:10BF54000020FFF7CDFF08B1072810D107220221E6
:10BF64000120FFF7C5FF08B1072808D100210A22E4
:10BF74000846FFF7BDFF10B1072808BF002008BD21
:10BF84000388102B10B502D0112B1ED010BD194CF4
:10BF94002168B1B901220846FFF7AAFF08B10728B2
:10BFA40021D1072202210120FFF7A2FF08B10728AF
:10BFB40019D1042202210020FFF79AFF08B10728B3
:10BFC40011D123680133236010BD0A4A1368013B71
:10BFD400136073B9FFF7B9FF58B1074B1B6843B13E
:10BFE400BDE810401847044B1B68002BE9D0984764
:10BFF400E7E710BD2C2D0020282D002008B50020D7
:10C00400FFF79CFF08B1062806D10120FFF796FF31
:10C0140010B1062808BF002008BD00000D4B10B564
:10C0240018600C4629B10120FFF702FF40B102233A
:10C034002370094B1B6853B9BDE81040FFF785BF57
:10C04400FFF7F6FE08B10B23F2E72070F1E70020BA
:10C0540010BD00BF282D00202C2D002076DF704756
:10C064007ADF70477CDF70478FDF7047FCF7C6B913
:10C0740008B50020FFF7E2FE08B1FCF7BFF9FFF7AF
:10C08400BDFF08B1FCF7BAF904F0B8FF18B1BDE878
:10C094000840FCF7B3B908BD0388212B13B5044647
:10C0A4001ED003D8102B0AD002B010BD3B2B01D0F8
:10C0B400562BF9D11321A088FFF7D0FF0BE00720FE
:10C0C400FFF7BCFE08B1FCF799F90A4BA1880A48AE
:10C0D400198002F0FDFA0028E6D0FCF78FF9E3E7B7
:10C0E400002301A980888DF804308DF80530FFF70E
:10C0F400BBFFF0E7B02200207831002010B50446E1
:10C1040003F012FE2046BDE8104003F0F3BB00002C
:10C1140010B5254B254C8CB0032840D8DFE800F03F
:10C12400022A333A181BC408240444F003042049A7
:10C134002046FBF7C1FC2C22002101A805F028FAB7
:10C144004FF496720123059201A944F250621948F2
:10C1540006928DF808308DF8043000F0CBFE0021F3
:10C16400154801F055F9154902462046FBF7A8FC8D
:10C174000CB010BD181BC0080004114940F00300A6
:10C18400FBF79AFCF4E7181BC0080E49000440F0C2
:10C194000100F5E7181BC00800040B49F7E7181B5A
:10C1A400C00800040949F2E7E8160300C0160300BA
:10C1B40090210300302D0020D5C10200BE210300D0
:10C1C400D5210300F8210300312203005E2203007D
:10C1D40010B513210246FFF741FF034658B1064844
:10C1E400064C0749241AE408240444F00200BDE87C
:10C1F4001040FBF76FBC10BDC0160300E816030027
:10C2040085220300022810B50ED1084B084C0949B9
:10C21400E41AE408240444F003042046FBF74CFC2D
:10C2240005492046FBF748FC012010BDC016030059
:10C23400E81603003421030061210300032807D119
:10C244004FF08043A922C3F820250020FEF718BB35
:10C254007047000008B503784BB9054B3B2118889B
:10C26400FFF7FCFE18B1BDE80840FCF7C7B808BDED
:10C27400B0220020072808B513D00A280DD00428BE
:10C2840019D10D4B13211888FFF7E8FE30F008038D
:10C2940011D0BDE80840FCF7B1B8BDE80840FFF78D
:10C2A400E7BE054B1A884FF6FF739A4203D1034841
:10C2B40000F002FEEAE708BDB0220020302D002085
:10C2C40008B548B103280BD10220FFF7B7FD38B1F8
:10C2D400BDE80840FCF792B8BDE80840FFF7C8BEC7
:10C2E40008BDFCF78BB8000070B54FF48041ACB0CA
:10C2F4000020FBF719FA08B1FCF780F8FBF74AF9BC
:10C3040004F036FD08B1FCF779F8FCF73DF908B103
:10C31400FCF774F8FEF764FA08B1FCF76FF8854986
:10C324000320FFF797FD08B1FCF768F801A9002086
:10C33400FFF774FE08B1FCF761F89DF8045004F0AF
:10C3440021FE08B1FCF75AF8002301A9012001934A
:10C3540004F0DEFE08B1FCF751F801A804F08AFFEE
:10C3640008B1FCF74BF802F089FF08B1FCF746F876
:10C374000522002101A805F00BF99DF8043043F0D3
:10C384000103032203F0F10362F306136FF3C713EF
:10C394008DF8043007238DF8053010238DF806300E
:10C3A4009DF8073013438DF807309DF8083001A835
:10C3B40013438DF8083002F0FBFF08B1FCF71EF8B8
:10C3C4005D4802F0DDFF08B1FCF718F89DF8003075
:10C3D4005A48012262F303032CAC62F3071304F8F6
:10C3E400B03D05F009F9554982B22046FFF73AFEFF
:10C3F40008B1FCF703F80822002101A805F0C8F8E9
:10C404005023ADF80430A023ADF806300023ADF876
:10C41400083001A84FF4C873ADF80A30FFF720FEC6
:10C4240008B1FBF7EBFF0021454802F041F808B1E1
:10C43400FBF7E4FFAC22002101A805F0A9F80223D0
:10C444008DF80430062301268DF8073000213D4B7A
:10C4540006932C221FA88DF80660ADF8146005F031
:10C4640097F84FF49673239344F25063249301A9ED
:10C47400354B36488DF880602A9300F05EFB08B196
:10C48400FBF7BCFF0121314800F054FB002301936A
:10C4940021462F4B2F48009302F008F908B1FBF70F
:10C4A400ADFF2D4B019301A804F0E6FB08B1FBF7A7
:10C4B400A5FF1C22002101A805F06AF800234FF40F
:10C4C400A03201930292ADF812304FF4F0228DF8AD
:10C4D4001430224B039206930322214B8DF8102033
:10C4E40001A8079300F012FE08B1FBF787FF1D4B6C
:10C4F4001D4C1E49E41AE408240444F003042046B5
:10C50400FBF7DAFA022D0FD119492046FBF7D4FACA
:10C5140002F07AFF08B1FBF771FFFBF75FF900281F
:10C52400FBD1FEF787F9F8E70321084800F07AFB0E
:10C53400F0E700BF79C2020001C10200C622030075
:10C5440064310020AC220020C5C20200302D00203E
:10C55400E7C202007831002015C1020059C202006E
:10C5640071C00200C0160300E8160300CE220300C7
:10C57400F222030013DF704738B540F6F873144C09
:10C584001D6814486A1C03D1134B1D686B1C14D01E
:10C59400241AE40824042A46104944F00300FBF753
:10C5A4008FFA2846FFF7E6FF054620B10C4944F010
:10C5B4000100FBF781FA284638BD201AC0080004A0
:10C5C400084940F00100FBF777FA0425F3E700BFC0
:10C5D400E8160300C016030014100010FF22030025
:10C5E4002A2303005D23030038B50B4B0B4C0C4A84
:10C5F4000C49E41AE408240444F00300FBF760FA4D
:10C604000748FFF7B7FF054620B1074944F001008A
:10C61400FBF752FA284638BDC0160300E81603009B
:10C6240000700200752303002A2303006DDF7047A6
:10C6340079DF70477DDF704764DF70472DE9F74F7E
:10C644000C9CBDF834B02788002580468A46914664
:10C654002E46B8F8002096420BDB35B12288013A09
:10C66400D21B92B2FF2A39D8DA55002003B0BDE8B4
:10C67400F08FD8F8042052F82600019000220DF122
:10C68400030101A8FFF7D8FF0028EFD19DF803208C
:10C694004A4521D12288002D14BF0020022002EB3C
:10C6A40009010144594519DC3DB9013292B2228095
:10C6B40003F802A022880132228022880DF10301AE
:10C6C4001A4401A8FFF7B8FF0028CFD121889DF8AC
:10C6D40003200A44228001250136BAE70C20C5E76D
:10C6E4002DE9F341089CBDF8245017468DE830002D
:10C6F40002220646FFF7A2FF48B910223946304607
:10C704000995089402B0BDE8F041FFF797BF02B065
:10C71400BDE8F0812DE9F04F00231788138090F8CD
:10C724002D3085B006460D46144643B3082F4ED926
:10C7340002A8FFF77BFF002840F02081138808221D
:10C74400CA54238801339BB21B222380CA542088F5
:10C75400013080B2208006220DF10901284404F042
:10C76400EDFE23889DF8082006339BB212F0FE02EA
:10C7740018BF01222380EA54238801332380B3782D
:10C78400FBB123880433BB4221D802A8FFF750FF32
:10C79400002840F0F38023880322EA5423880133DD
:10C7A4009BB219222380EA542388BDF80820013360
:10C7B4009BB2E9182380EA54120A4A702388023390
:10C7C4002380F278AAB12388D91CB94201D90C205C
:10C7D400D4E00221E954238801339BB20121238050
:10C7E400E95423880B449BB22380EA5423880B44E6
:10C7F40023807268AAB12388D91CB942E7D80221E0
:10C8040092F90020E954238801339BB20A21238042
:10C81400E954238801339BB22380EA5423880133EB
:10C8240023803389002B40F09D80338A5BB18DE8EF
:10C8340090002B460722032106F11000FFF750FF5A
:10C84400002840F09B80338B5BB18DE890002B4631
:10C854001522142106F11800FFF742FF002840F0CA
:10C864008D80326A002A40F08C80D6F82480B8F19A
:10C87400000F2ED0B8F804302188981C8A1C02447A
:10C88400BA42A4D8FE28A2D803336B5423880133B8
:10C894009BB2FF222380EA54238801339BB2238076
:10C8A400B8F80020EA54E918120A4A7020880230C5
:10C8B40080B22080B8F804205AB1D8F808100029B2
:10C8C40069D0284404F03AFE2388B8F804201344BD
:10C8D400238096F82C30002B40F098803078002884
:10C8E4004CD03388012B56D021888A1CBA423FF69B
:10C8F4006EAF012805D1737802330B449F42FFF4D5
:10C9040066AF023F7F1A04A9BFB221F8087DA818B8
:10C91400FFF790FE90BB3378BDF80820022B02D0BD
:10C924007178914202D3BA4240F2B680012B40F0B2
:10C93400B08073789F42C0F0AC80ADF80830082115
:10C94400BDF80830FE2B3FF642AF22880133AB54CA
:10C954002288013292B22280A9542288134423806F
:10C9640000200BE08DE890002B460622022106F100
:10C974000800FFF7B5FE00283FF457AF05B0BDE847
:10C98400F08FB4F800E00EF10603BB423FF61FAF90
:10C994001188052901D80720F0E76FF4486C01EBF2
:10C9A4000C039BB24FF27D3C6345F4D95388052BAD
:10C9B400F1D96FF44860181880B26045EBD94FF68E
:10C9C400FF70814203D0834201D09942E3D805230A
:10C9D40005F80E30238801339BB212212380E954D9
:10C9E400238801339BB223801188E954E818090A8B
:10C9F4004170238802339BB223805288EA54E91899
:10CA0400120A4A702388023323802EE7B36A002B6C
:10CA1400C1D04FF000094FF00C0A4FF0160B96F8F6
:10CA24002C305FFA89F293427FF658AFB16A0AFB61
:10CA340002F201EB0208B8F80430981CFE283FF615
:10CA4400C6AE208803332B54238801339BB2238042
:10CA540005F803B0238801339BB223808A5AEA5431
:10CA6400E918120A4A702088023080B22080B8F88F
:10CA740004205AB1D8F8081000298CD0284404F0B6
:10CA84005DFD2388B8F804201344238009F10109CB
:10CA9400C5E7ADF8087052E7092151E770B558B100
:10CAA4004AB116880024B44203D305196D789D4217
:10CAB40008D08C4201D3002070BD055D01352C44A3
:10CAC400A4B2F0E78C42F6D2005DA31C01389BB2FD
:10CAD40080B21C188C42EEDC138070BD37B502ACFA
:10CAE400002324F8023D134622460546FFF7D6FFED
:10CAF40010B1BDF80600284403B030BD72DF7047A2
:10CB040073DF704774DF704738B5012204460D4661
:10CB1400B0F81414D0F81004FFF7E0FF00B105706A
:10CB240004F13C0204F5826104F15400BDE838408C
:10CB3400FFF7E4BF80F830107047F8B504460F469D
:10CB440041B138B191F87A3033B191F898301BB1D2
:10CB54000720F8BD0E20F8BD07F178060FCE4FF080
:10CB6400000E251D84F802E00FC50FCE0FC596E810
:10CB7400070085E8070084F830E0D7F8A430636341
:10CB8400D7F8A830A3634FF6FF7504F58263C4F8A1
:10CB94002034A4F824540722714604F2264004F0F9
:10CBA400F7FC23780BB984F8545094F82430002B04
:10CBB40014BFEE231F2304F15501C4F81014A4F884
:10CBC400143404F214423846FFF7A4FD48BB94F829
:10CBD4002430002B14BFEE231F2304F23121C4F8A8
:10CBE4001814A4F81C3404F21C4207F13C00FFF7AB
:10CBF40091FDB0B9A269A4F84820012362692064B8
:10CC040084F850006264014684F8513084F83C3062
:10CC140004F13C0204F15400FFF770FF08B92370DB
:10CC2400F8BDF8BDF8B5077804460D46002F00F0AE
:10CC3400088100F22646A17007220021304604F044
:10CC4400A7FCE38813B1A378012B04D0E3794BB19B
:10CC5400A378022B06D1636BA3B1012284F82D249F
:10CC640008209847334604F22C4113F8012F12B9D7
:10CC74009942FAD117466B1E032B56D8DFE803F00E
:10CC8400050B0F1284F82D34ECE7A3791BB194F84B
:10CC9400243003B95FB9E3790BB1002F47D1237A6C
:10CCA400002B46D1637A002B0CBF00250425636B4F
:10CCB400A570002B3FD0033D012D3CD86279002A9A
:10CCC40039D094F82E24B2BB84F83024012284F89D
:10CCD4002F240720984704F13C05182200212846F8
:10CCE40004F056FCE36A0122591E914284F83C2068
:10CCF40002D9042B40F0A78084F8513094F8242002
:10CD040042B1A36A591E012902D9042B40F09E8026
:10CD140084F85230A178002384F8503004291BD8B9
:10CD2400DFE801F0770D223559000025BFE7022521
:10CD3400BDE70325BBE7002384F82F34CBE7C4F811
:10CD4400203463640223012284F83C30802384F875
:10CD540031202664A4F84830A378002B5CD1636B9F
:10CD6400002B6AD10020F8BD022384F8313062B16F
:10CD7400072384F83C302369A4F848300023C4F81E
:10CD84002034E36826646364E6E70323F1E7636918
:10CD94006364A369A4F8483012B1062384F83C30D4
:10CDA4006379B3B194F82E349BB994F8303483B1D9
:10CDB400022384F8503004212046FFF7A5FE002802
:10CDC400CAD1052384F8313004F58263C4F82034D1
:10CDD400C2E70323F6E7E3696364236AA4F84830EF
:10CDE40012B1062384F83C30637983B194F82E346D
:10CDF4006BB994F8303453B1022384F850300421D1
:10CE04002046FFF781FE0028A6D10623DAE7042393
:10CE1400D8E784F831309FE72A46D4F8201404F187
:10CE24005400FFF76BFE98B994F8301094F854004E
:10CE3400FFF766FE002892D0F8BD94F831009847B9
:10CE440090E70820F8BD84F8512057E701235FE7F5
:10CE5400F8BD0388112B10B50C460AD0262B1CD024
:10CE6400102B28D1C37B012B25D18388A1F824342E
:10CE740010BD0022838881F82E24B1F824249A421C
:10CE840019D10B79BBB901212046FFF7CBFE90B134
:10CE9400A36B83B1BDE810401847037A013B012B13
:10CEA40009D889780523013191FBF3F303EB83035C
:10CEB400C91AC9B2E8E710BD38B5044690F8540061
:10CEC400FFF720FE012384F82E34002384F8303445
:10CED40084F8503006212046FFF716FE054638B97F
:10CEE400A1782046FFF79EFE10B1A36B03B19847CB
:10CEF400284638BD30B50D46041D0FCD0FC40FCDE7
:10CF04000FC495E8070084E8070030BD75DF70475B
:10CF140076DF70477ADF70477BDF7047034B1A88F0
:10CF240082420CBF18460020704700BFA031002089
:10CF3400024B9B6903B11847704700BF843100203E
:10CF440037B585B22846FFF7E9FF034670B1164CA2
:10CF5400017A227B91420BD200F10A012846FFF7A5
:10CF6400D5FFE8B1112801D0FFF7E2FF03B030BDCF
:10CF7400237C0022027243B13B212846FFF7C8FFFD
:10CF840030F0080301D0FFF7D3FF6369002BEDD025
:10CF940000228DF80420ADF8065001A89847E5E773
:10CFA4001A7A01321A72E1E78431002013B50B4674
:10CFB400497A0F4C024669B9A06861681C7A002C52
:10CFC40018BF01465868FBF71CFB08B1FFF7B0FF18
:10CFD40002B010BD002119726369002BF8D0012141
:10CFE400ADF806008DF8041001A89847F0E700BFDB
:10CFF400843100208388B3F5FA7F28BF6FF4F97277
:10D0040030B528BF9C1805884A8838BF002495424B
:10D014000CD84088904209D38A88A24206D303F2EE
:10D02400F310904234BF0020012030BD002030BDF9
:10D034000388112B70B501462ED002D8102B05D0D1
:10D0440070BD122B51D0502B35D070BDC37B012B3A
:10D054004AD14FF6FF70FFF761FF054620B904205F
:10D06400BDE87040FFF764BF264A8E88068000231F
:10D0740003721368C5F80A300A30536843601031EC
:10D08400FFF7B8FF204B6872DB896BBB294630463B
:10D09400BDE87040FFF78ABF8088FFF73FFF044672
:10D0A40010B34068FBF7C5FA08B1FFF741FF4FF62C
:10D0B400FF73238070BD144BC288DB899A4213D15D
:10D0C400038A022B10D186883046FFF727FF0546D6
:10D0D40050B101F1120000F0EAF90028D6D16868D5
:10D0E400FBF7A7FA0028BBD170BD86883046FFF74E
:10D0F40015FF05460028F7D008310A30FFF77AFFFC
:10D104006872C3E7B431002084310020F8B50646C4
:10D1140050B305460FCD154F3C460FC495E80700A4
:10D1240084E807003068124B3B60B8B1FFF7F2FEA9
:10D13400D8B931680A681A604A685A600D480E4ABC
:10D144004FF6FF7303800D4B40F8043F0021FBF7BB
:10D154004DFA002814BF03200020F8BD1846FFF73D
:10D16400DBFE0028EAD0F8BD0E20F8BD8431002093
:10D17400B4310020A031002045CF0200C03100208E
:10D18400F7B5174601900E4691B1019C6CB100258C
:10D194002C46294601A8FCF7E8FC18B13946A8B288
:10D1A400B04701340135142DF3D1204603B0F0BD4E
:10D1B4000C46FAE70AB1FCF7B7BCFCF7CCBC73B574
:10D1C4000191019C06466CB100242546294601A81C
:10D1D400FCF7CBFC18B106EB440301349D80013508
:10D1E400142DF3D13046346002B070BD2DE9F04700
:10D1F40003888488103B8CB005460A2B2CD8DFE8C2
:10D2040003F0063B2B2B2B2B2B2B2B5B4000314E9F
:10D21400B3680CA8DB4340F8303D7168FCF70EFDA1
:10D22400009901A8FFF7CBFF0DF106094FF00008A4
:10D23400019B984513D3132C47D821462648FCF765
:10D2440073FC21462548FCF76FFCEB7B012B03D0D4
:10D2540021462348FCF768FC0CB0BDE8F08739F898
:10D2640002AF002704375146F019FCF774FC782FFD
:10D27400F8D108F10108DBE721461748FCF76BFCFD
:10D28400EAE7057A17482D09032D94BF00220122ED
:10D294002146FFF78FFF022D94BF00220122214671
:10D2A4001148FFF787FF012D104894BF0022012287
:10D2B4002146FFF77FFFCFE7037A002BCCD1427AD8
:10D2C4000848C2F3C0022146F3E70420FBF796F8AE
:10D2D400C2E700BFE0310020E8310020E431002043
:10D2E400EC310020F8310020F4310020F03100202E
:10D2F4001328014602D80248FCF737BC00207047C7
:10D30400E431002010B50446FFF7F2FF38B121469E
:10D314000348FCF72AFC002814BF0220012010BD9A
:10D32400EC31002010B50446FFF7E2FF38B1214686
:10D334000348FCF71AFC002814BF0220012010BD8A
:10D34400E831002010B50446FFF7D2FF28B121468A
:10D354000248BDE81040FCF708BC10BDF0310020C5
:10D3640010B50446FFF7C4FF28B121460248BDE8C2
:10D374001040FCF7FABB10BDF431002010B5044690
:10D38400FFF7B6FF28B121460248BDE81040FCF77C
:10D39400ECBB10BDF831002008B518210248FCF799
:10D3A400EDFBC0B208BD00BFE031002070B50A4DEE
:10D3B400064628460C46FCF7D8FB58B13046FFF722
:10D3C40097FF38B1E01D314605EB8000BDE87040A1
:10D3D400FCF7CBBB002070BDE0310020F8B50B4D4D
:10D3E400064628460C461746FCF7BFFB60B130469C
:10D3F400FFF77EFF40B1E01D3A46314605EB800061
:10D40400BDE8F840FFF7D6BEF8BD00BFE03100200C
:10D41400034B9B680A4601461846FFF7B1BE00BF9E
:10D42400E0310020F8B50A4C05460E460146204678
:10D434001746FCF79AFB48B1063504EB85043A46D7
:10D4440060683146BDE8F840FFF79ABEF8BD00BFFA
:10D45400E0310020AADF70470B7803F0F0036FF38C
:10D46400071301380B70042811D8DFE800F0030813
:10D4740011171D000B78012262F3030304E00B78FB
:10D48400012262F30303022262F307130B70704755
:10D494000B78012262F303030322F5E70B780222DF
:10D4A40062F303030122EFE70B780222E4E700783A
:10D4B40000F0010070470078C0F340007047F0B5F9
:10D4C4008B7891B005460C46164603B90123032216
:10D4D4008DF80E3000212388ADF80C30684604F036
:10D4E40057F86946607CFFF7B7FF0DF10101A07C96
:10D4F400FFF7B2FF9DF80230E27B62F3C303227CA4
:10D5040062F30413227B62F30003227D002A14BF1A
:10D514000222012262F3420300211C2209A88DF891
:10D52400023004F035F8637B13F0300F1AD002AFE9
:10D5340003220021384604F02BF80DF10901E07CA8
:10D54400FFF78AFF9DF808300E97012262F3030368
:10D5540062F307138DF808309DF80A3062F3420332
:10D564008DF80A30637B8DF824301422A37B8DF868
:10D574002530002104A804F00BF803AB0493A3881E
:10D58400ADF81C30A368CDF814D01BB1E288ADF817
:10D5940018200893A369002B2ED001AF0322002189
:10D5A400384603F0F5FFA3691A88ADF82C205A8891
:10D5B400187BADF82E2039465A680A920D97FFF76A
:10D5C4004BFFA3690DF10501587BFFF745FFA269E5
:10D5D4009DF80630917A61F3C303D17A61F30413A1
:10D5E400117A927B002A61F3000314BF0222012204
:10D5F40062F342038DF80630E36903B10C933346BA
:10D6040004AA09A92846FFF725FF11B0F0BDA0DF41
:10D614007047A1DF7047ADDF7047B3DF7047B4DFF9
:10D62400704710B50446408800F094FDA080204661
:10D63400BDE8104001F01CBE30B587B005460C466D
:10D644001422002101A803F0A3FF072301A88DF8E9
:10D654000430ADF806500394FFF7E3FF07B030BD84
:10D6640070B586B005461422002101A803F090FF8E
:10D674004FF6FF739D42ADF8065029D0284600F0BE
:10D6840053FC0B2804462CD014D818B32046FDF7BD
:10D69400C1F91B4E1B4B1C49F61AF6083604024608
:10D6A4002B4646F00100FAF715FA21462846FFF703
:10D6B400C3FF05E0112805D043F202039842E5D1E7
:10D6C400002200E00122114B28461978FFF786FE5C
:10D6D40006B070BD0E238DF8043001A8FFF7A1FF3A
:10D6E400EEE70F238DF804300548064B0849C01AAD
:10D6F400C00800042A4640F00200FAF7E1F9ECE71A
:10D7040038170300C0160300BB2503006332002052
:10D714003B250300FFF7A4BF024B034918780022FE
:10D72400FFF780BE6532002031D702002DE9F047B3
:10D73400484D88B029780446FFF738FEA8460646C7
:10D7440000287FD1204600F057FC0828054632D037
:10D7540016D808B306285ED02846FDF75BF93E4F7D
:10D764003E4B3F49FF1AFF083F040246234647F059
:10D774000100FAF7AFF929462046FFF75DFF09E0FB
:10D7840043F20203984205D043F2014398425CD02D
:10D794001128E1D1012349E03146142203A803F002
:10D7A400F7FE102303A88DF80C30ADF80E400126C7
:10D7B400FFF737FFEEE70DF10600FFF72EFF012517
:10D7C40033464FF00209B24602AFBDF80620AA4222
:10D7D40021D9002239462846ADF80C90ADF80EA0A8
:10D7E4000497FFF71CFFB0B9BDF808203BB942F617
:10D7F4000523D21A534253410135ADB2E5E742F64F
:10D8040002118A42F8D101AA0492294603AA2046A9
:10D81400FFF701FF30B1204600F09CFC00F01AFC39
:10D82400002303E0BDF80420002AF4D01A460D4B6F
:10D8340020461978FFF7D2FD324698F800102046AA
:10D84400FFF7CCFD08B0BDE8F0872046FFF708FFDE
:10D85400A0E700BF6632002038170300C01603009B
:10D864000C2603006532002013B5044600F072FC58
:10D8740000236A46092101F0C3F8052805D1044BA9
:10D88400012219782046FFF7A9FD02B010BD00BFA0
:10D894006132002008B5084B084918780022FFF7C8
:10D8A400C1FD024630B9064B06491878BDE8084068
:10D8B400FFF7B8BD08BD00BF6432002015D90200CF
:10D8C40061320020CDD8020013B5042204460021A1
:10D8D400684603F05DFE0C4A42F6A6231068ADF8D4
:10D8E40000300190012301AA694620468DF80230D8
:10D8F400FFF78DFE28B91A46044B20461978FFF726
:10D904006DFD02B010BD00BF9E23030060320020F5
:10D9140070B5012186B006462A48FCF75CF9044636
:10D92400BFF35F8F80BB304600F0A2FA1128054692
:10D934002CD015D8E0B12846FDF76CF8224C234BC7
:10D944002349E41AE40824040246334644F001005F
:10D95400FAF7C0F829463046FFF76EFE002405E0CA
:10D96400862815D043F202039842E4D1224601E00E
:10D9740001240246174B30461978FFF72FFD1CB9D6
:10D98400BFF35F8F0F4B1C6006B070BD0122F1E73F
:10D994002146142201A803F0FBFD06238DF8043070
:10D9A40009480A4B0C49ADF80660C01AC0080004C7
:10D9B400324640F00200FAF783F801A8FFF731FE7F
:10D9C400D4E700BF5C32002038170300C016030000
:10D9D400E123030064320020AC23030038B503784C
:10D9E4000446A3B94088FFF73BFE6588284600F04B
:10D9F400F1FA28B1064B012219782846FFF7EEFC0C
:10DA04006088FFF731FFBDE83840FFF743BF38BDFA
:10DA1400653200200378082B37B5044630D1427AAA
:10DA240072BB057A072D1BD0082D2DD0012D27D1CF
:10DA34006A462946808801F06BFA08BB019B1B7873
:10DA4400F3B1A08800F0B4FB4FF6FF73984217D0EF
:10DA5400114B2A461978FFF7C1FCFFF75DFE0FE072
:10DA6400808800F0A5FB4FF6FF739842044607D068
:10DA74000A4B01221978FFF7B1FC2046FFF7F4FEA8
:10DA8400FFF708FF03B030BD054B19680129F7D132
:10DA9400BFF35F8F1A60F3E7653200206432002021
:10DAA4005C3200202DE9F843FFF776FCDFF8B090F4
:10DAB400DFF8B08089F80000FFF76EFC88F80000FA
:10DAC400FFF76AFC1D4F1E4E3870FFF765FC30707F
:10DAD400FFF762FC1B4D1C4C2870FFF75DFC2070A7
:10DAE400FFF75AFC194B187099F80030182B11D015
:10DAF40098F80030182B0DD03B78182B0AD03378C7
:10DB0400182B07D02B78182B04D02378182B01D08E
:10DB140018280CD10E4B0F480F49C01AC008000436
:10DB240040F00100F9F7C8FF0320BDE8F8830B4B70
:10DB340000201860BFF35F8FBDE8F88365320020D2
:10DB44006632002061320020603200206232002000
:10DB5400C016030038170300CC2403005C320020F5
:10DB6400643200206332002073B501230024009442
:10DB7400ADF8003009238DF80230124B019422468F
:10DB84000E4619780546FFF729FC0F4B0F49284626
:10DB9400A64208BF1946019100F0DCFA2246694604
:10DBA40000F09CFF60B1FCF735FF094A094B0A49B4
:10DBB4009B1ADB081B04024643F00200F9F780FFBE
:10DBC40002B070BD61320020A4230300A823030027
:10DBD400C0160300381703004C26030070B50388F1
:10DBE4008488502B86B0054638D00ED8352B48D0C3
:10DBF400362B00F08C80584B584918780022FFF7D8
:10DC040011FCFFF789FD06B070BD522B22D0542BB6
:10DC1400F1D11422002101A803F0BAFC11232046FB
:10DC24008DF80430ADF8064000F094FAADF8080021
:10DC340000F010FA4A4B204619780022FFF7CEFB79
:10DC4400484B204600221978FFF7C8FB01A8FFF7CC
:10DC5400E8FCD0E72046FFF703FDCCE7037B012B6C
:10DC6400C9D1827A012AC6D1018942F602139942A6
:10DC7400C1D13D4B20461978FFF7B0FBFFF70AFEF0
:10DC8400B9E73A4E20463178FFF790FB0028B2D02E
:10DC9400002231782046FFF7A1FBEA88B2F5857FA0
:10DCA4000AD072B1324B3348C01AC008000432495A
:10DCB40040F00200F9F704FF00212046FFF754FF6B
:10DCC40099E76A89012A09D0294B2A482B49C01AA5
:10DCD400C008000440F00200F9F7F2FEAB89012B02
:10DCE40007D0234A2348801AC00800041A4624494E
:10DCF400DEE70022E9892046FFF78BFC0028DBD110
:10DD04001A46204B20461978FFF768FB73E71D4E2F
:10DD140020463178FFF74AFB00283FF46CAF317896
:10DD240000222046FFF75AFBEE8836B1104B11480B
:10DD3400C01AC00800043246B9E7EA89012A05D0AE
:10DD44000B4B0C48C01AC0080004D0E7297C0031F2
:10DD540018BF0121B1E700BF6332002019D70200C8
:10DD640066320020653200206432002060320020D8
:10DD7400C0160300381703001E24030058240300B0
:10DD84009224030062320020AFDF7047B1DF704796
:10DD9400B2DF7047B3DF704710B50446808800F0E7
:10DDA40007FA60802046BDE8104001F063BA000025
:10DDB400F0B5204B204D93E8030089B001AC84E812
:10DDC40003004FF6FF772888B84217D00022214677
:10DDD40000F084FE064638B31422002103A803F0A1
:10DDE400D7FB2B88ADF81030112E07D0862E07D123
:10DDF40006238DF80C3003A8FFF7CEFF09B0F0BD61
:10DE04003046FCF707FE0D4C0D4B0E49E41AE408AE
:10DE140024042B88024644F00100F9F75BFE072333
:10DE24008DF80C300596E6E7288800F0C0FE2880BF
:10DE3400C9E700BFBC260300683200204017030076
:10DE4400C016030018280300044B1A884FF6FF730A
:10DE54009A4201D0FFF7ACBF704700BF6832002080
:10DE6400024B4FF6FF721A80002070476832002080
:10DE74002DE9F347804600F06DF94FF6FF739842A1
:10DE8400074647D0254B264EDFF898A0F61AF60829
:10DE9400360446F0010601226B460821384602F199
:10DEA400010901F039F81FFA89F9054668BB01999F
:10DEB4000A46032342F8043B06314046FFF768FF55
:10DEC400044648B93A460821384601F0EFF80446BA
:10DED400204602B0BDE8F0870C2814D0052800D1F4
:10DEE4002C460821384601F08DF840B1FCF792FD2C
:10DEF4003A46034651463046F9F7ECFD03244A46B8
:10DF0400002DC9D1E4E70125EBE7072814BF044637
:10DF14000C24DDE743F20204DAE700BFC016030075
:10DF240040170300442703002DE9F743074600F098
:10DF340011F94FF6FF73984227D100250326A8460E
:10DF44004FF0010933462A4641463846FFF71EFF83
:10DF54000428044630D0082834D00B282DD116F0DC
:10DF640002031ED1B8F1000F1FD115BB164B174881
:10DF74001749C01AC00800043A4640F00100F9F7F6
:10DF84009FFD204603B0BDE8F0836A46082100F0F7
:10DF9400BFFF0028D1D1019B03F106089D881E68AC
:10DFA400CEE701264FF00009CCE703261D4698462C
:10DFB400F8E703264546F5E71124B9F1000F08BF39
:10DFC4000B24DEE70024F8E7C01603004017030023
:10DFD400CC2603001FB50DF10703039300F0BAF834
:10DFE40002AA012100F094FF20B9039B187805B020
:10DFF4005DF804FB0020FAE738B504461148FFF742
:10E00400C9FE70B90F4B43F203054FF6FF7219882E
:10E014002046FFF7B9FEA84212D11A8801321A80AD
:10E02400F3E7FCF7F7FC084A084B09499B1ADB089D
:10E034001B04024643F00100F9F742FD032038BDFA
:10E0440038BD00BF6A320020C01603004017030029
:10E05400C327030013B5064A044692E803000022CE
:10E064008DE803006946204600F038FD02B010BD7B
:10E07400C426030046DF7047421E00F10F0312F866
:10E08400010F10B99A42FAD170470120704708B5C0
:10E0940080B171B103780A78534013F0FE0F08D1B0
:10E0A40006220131013003F028FAB0FA80F0400969
:10E0B40008BD002008BD2DE9F04700F101084F1C00
:10E0C40006460D4600F1110901F1110A10223946E4
:10E0D400404603F012FA0446E0B94046FFF7CCFF8D
:10E0E40018B13846FFF7C8FF044651464846FFF7C3
:10E0F400CEFF737C03F0FC03042B04D06B7C03F091
:10E10400FC03042B02D1201C18BF012000F00100E5
:10E11400BDE8F0870024E8E730B585B004460D4635
:10E1240000F0A6FC02AA0DF10601072000F0A8FCED
:10E1340010B94FF6FF700BE0BDF80630AB42F1D0DA
:10E1440003992046FFF7B7FF0028EBD0BDF806007F
:10E1540005B030BD132810B5044602D94FF6FF7040
:10E1640010BDFFF7C5F80028F8D00A206043014B22
:10E17400185A10BD6C320020132838B504460D46D9
:10E1840002D943F2020038BDFFF7B2F80028F8D0F4
:10E1940006480A2303FB040050F8023F2B608388DF
:10E1A400AB808379AB71002038BD00BF6C32002096
:10E1B4004FF6FF7398422DE9F041064604D14FF61D
:10E1C400FF752846BDE8F081094F00244FF00A0886
:10E1D40008FB04F3A5B2DB5BB34203D00134142C77
:10E1E400F6D1ECE72846FFF783F80028F6D0E8E7F5
:10E1F4006C320020038843B9821C00F10A0312F830
:10E20400010B10B99A42FAD170470120704710B53A
:10E214000446FFF7EFFF68B122880B889A4208D1C1
:10E2240008220231A01C03F068F9B0FA80F040091A
:10E2340010BD002010BD1FB5044600F019FC02AA51
:10E244000DF10601072000F01BFC10B94FF6FF701A
:10E2540007E0039920464631FFF7D9FF18B1BDF80E
:10E26400060004B010BD039920462A31FFF7CFFF02
:10E274000028E4D0F3E7000013289FBF0A23584383
:10E28400014B1952704700BF6C32002038B5054667
:10E29400FFF78EFF0446284600F0BEFE38B9132C63
:10E2A40005D80A236343024A4FF6FF71D15238BDA1
:10E2B4006C32002030B58DB014460D4600F11003C9
:10E2C4000DF1FF3213F8011D02F8011F9842F9D134
:10E2D4000D22002104A803F05BF92B788DF81F3080
:10E2E4006B788DF81E306846AB788DF81D30FFF7DB
:10E2F400C1FE9DF82F3023709DF82E3063709DF879
:10E304002D30A3700DB030BD30B5037803F0FE039B
:10E31400042B85B004460D4618D1411C032201A8E4
:10E3240003F00CF90322211D03A803F007F902AA44
:10E3340003A92846FFF7BEFF032202A901A803F0A0
:10E34400DCF8B0FA80F0400905B030BD0020FBE7EE
:10E3540030B50388102B93B052D1041D0FCC07ADF8
:10E364000FC50FCC0FC594E8070012AC85E8070071
:10E3740014F8283D03F0FE03062B4BD000F078FB85
:10E384009DF820305B08012B3CD9022B42D102AA14
:10E394000DF10601072000F073FB00283AD0039921
:10E3A40020460131FFF7B0FF0028F0D005E00399C3
:10E3B40020461131FFF76BFE20B3BDF80630BDF8DF
:10E3C4001C1016480A224A4385188352AA1C08982E
:10E3D400C5F80200A588A079958090714FF6FF7268
:10E3E40093420DD012ACADF80C30002304F8403D3C
:10E3F4002046ADF80A1000F03FFF2046FFF7EEFA82
:10E4040013B030BD02AA0DF10601072000F038FB5D
:10E414000028CCD14FF6FF73D1E700BF6C32002047
:10E4240090DF7047A5DF7047B5DF70477FB50023E5
:10E43400ADF80810ADF80A106A4602A90646ADF810
:10E444000C30ADF80E300093ADF80430FFF7E8FF60
:10E454000546F8B1114B124CE41AE408FCF7DAFA59
:10E46400240444F00104034632460E492046F9F7D9
:10E4740031FBBDF80020BDF8023002B91BB10A49D6
:10E484002046F9F727FBBDF804201AB107492046B6
:10E49400F9F716FB284604B070BD00BFC016030090
:10E4A400081703008F280300D92803001829030044
:10E4B40070B117231B2203804380C3800381002390
:10E4C400016102718372C37202734273184670470A
:10E4D4000E20704713B5034680880C46A0B91A88ED
:10E4E400232A00F0AD8011D8102A24D0112A53D049
:10E4F400A37A4BB1E1880020FFF794FF002840F095
:10E50400A5800123A072E37202B010BD3A2A4CD058
:10E51400552A66D0242AEBD11A7A0B694A73002B48
:10E52400E6D04DF67A210090ADF80400ADF8001065
:10E534008DF8042080E0DB7B0A790A73012B13D069
:10E54400022B14D0E18823898B4205D20020FFF7E7
:10E5540069FF70B90123E372217B637B8B42C7D2CD
:10E564000020FFF763FFC3E70B88E380EAE74B88EB
:10E57400FBE7112802D10123A372EDE7FCF74AFA65
:10E584003B4A3C4B3C499B1ADB081B04024643F0C4
:10E594000100F9F795FADFE71723CB800B811B23E2
:10E5A4008872C8720B734B73A2E75B89CA88934263
:10E5B40028BF1346172B0A6938BF17230B8162B192
:10E5C400C97A51B140F67721ADF80010ADF80200D8
:10E5D400ADF804306946204690470023E372A372E5
:10E5E40086E7DB88C988A072172B38BF17238B42B4
:10E5F40028BF0B462381FFF717FF60B1FCF70AFA27
:10E604001B4A1C4B1D499B1ADB081B04024643F0A2
:10E614000100F9F755FAE27A002A7FF469AF236919
:10E62400002B3FF465AF40F67721ADF80220228934
:10E63400ADF80010ADF8042069462046984757E726
:10E64400197A237B994228BF19468AE711283FF497
:10E654005BAFFCF7DFF9064A064B07499B1ADB0858
:10E664001B04024643F00100F9F72AFA4CE700BF05
:10E67400C0160300081703006E2903009F29030036
:10E68400B0DF704766DF7047034610B5002140884D
:10E69400FFF7F8FF024608B91A7210BD112801D11C
:10E6A4000122F9E75B68BDE81040184760B159B131
:10E6B4000378DE2B0AD00B684360DE2303704FF629
:10E6C400FF734380002070470E2070470820704776
:10E6D40028B10378DE2B04D14180002070470E203E
:10E6E400704708207047F0B5054685B00C46F1B177
:10E6F400E8B10B78DE2B1AD182884B889A4204D178
:10E704000B7A13B10846FFF7BFFF2B88112B32D0C9
:10E71400512B0ED0012B0AD12B7A012B07D1A988BA
:10E724006288914203D123722046FFF7ADFF05B002
:10E73400F0BDAE886388B342F9D1AF79022FF6D128
:10E74400AD7B2B1F022BF2D800211022684602F069
:10E754001FFF052D14BF4FF4C073002369463046D4
:10E764008DF80070ADF80430FFF78AFF0028DED082
:10E7740063689847DBE76388AA889A4204BF4FF628
:10E78400FF736380D3E7012804D0043805288CBFC5
:10E794000020012070474FF6FF73438000F0E8BA71
:10E7A4002DE9F041274E8AB00021082268463170D5
:10E7B40002F0EEFE4FF6FF7000F02AFD4FF6FF78F0
:10E7C400044648F20967444513D0A4F58045ADB228
:10E7D4006A4602A92846FBF75DF8B8420CD02846E1
:10E7E400FAF7F0FF48F20763984205460CD101237B
:10E7F40033700AB0BDE8F081204600F0ADFC20463D
:10E8040000F006FD0446DEE7002DF2D00E4B0F4863
:10E814000F49C01AC008000423462A4640F00100EC
:10E82400F9F758F9142200210DEB020002F0B0FEB2
:10E83400072305A88DF81430ADF818400795FFF7A5
:10E84400AAFFD6E73C330020C0160300601703007C
:10E85400B12A030070B5044686B01422002101A831
:10E8640002F096FEA08923782F4D00F5804080B2F7
:10E874005A1EADF80800042A25D8DFE802F0030385
:10E88400032F450043F6FE76B042E18904D901F531
:10E89400804292B2B24216D8DA1E534253418DF8E6
:10E8A4000D30A368049363688DF80C108BB90823AA
:10E8B4008DF804309DF8143043F001038DF81430C2
:10E8C40001A8FFF768FF2B780BB1FFF769FF06B0CB
:10E8D40070BD09228DF804200593F1E743F6FE7319
:10E8E4009842F0D8E389002BEDD163683BB90A2341
:10E8F4008DF8043000F030FC01232B70E0E70B228C
:10E904008DF804200393F7E763683BB913238DF86C
:10E9140004304FF6FF73ADF80830D1E714228DF8B8
:10E9240004200393F5E700BF3C33002073B504468D
:10E934000D46164600210822684602F029FEA5F578
:10E944008041A4F580406B46324689B280B2FAF722
:10E9540087FF002814BF0520002002B070BD00000E
:10E9640030B5224889B0FAF79DFD024668B12048C7
:10E97400204B21491B1ADB081B0443F00100F9F763
:10E984009FF80324204609B030BDFAF7A1FD0446E0
:10E9940060B1174B17481949C01AC0080004224631
:10E9A40040F00100F9F78CF88624EBE700F0B4FBA3
:10E9B4000822214603A802F0EBFD03AA05A94CF2A4
:10E9C4000700FAF75BFF0028DCD101A905A8FAF7D4
:10E9D400A3FE019B9D8805F58045ADB205A8FAF715
:10E9E400C1FE284600F0A0FBE7E700BF59E802009B
:10E9F400C016030060170300DB2903001D2A03006F
:10EA0400F0B5FF2887B004460D4617461E462CD89D
:10EA14000846FFF7B8FE40B303AA2046FFF786FF77
:10EA240018B10524204607B0F0BD01A903A8FAF7E0
:10EA340073FE04460028F4D1019BBD705D883D80BF
:10EA44002EB9029B7B6003A8FAF78CFEEAE73668CE
:10EA540002997868AD00AE4228BF2E46324602F0D5
:10EA64006DFDB542EFD90C24DCE70724DAE700009A
:10EA740008220021014802F08BBD00BF343300207E
:10EA8400F0B587B007460E461546FFF77CFE0446F0
:10EA9400F8B1A7F58040104A03A980B2FAF7EEFE58
:10EAA40018B10024204607B0F0BD01A903A8FAF765
:10EAB40033FE0028F5D1019BAF705A882A80029A50
:10EAC4006A609B8803F58043338003A8FAF74AFE03
:10EAD400E8E70124E6E700BF3433002070B5FF28DF
:10EAE40086B00546164649D88B781846FFF74BFE84
:10EAF400002843D0A5F58042ADF80020A3F580425C
:10EB0400ADF802204A6801920A880292194603AAC3
:10EB14002846FFF70BFF0528694603A816D1FAF724
:10EB240045FE48F20663984204461CD011D8F0B161
:10EB3400134B14481449C01AC008000422462B463B
:10EB440040F00100F8F7C6FF03240DE0FAF732FEA7
:10EB5400E7E748F20763984203D048F20D6398420E
:10EB6400E6D1112400E08624204606B070BD002EB4
:10EB7400FAD0314603A8FAF799FEF5E70724F3E73C
:10EB8400C0160300601703005B2A03004FF6FF70F2
:10EB940000F0CABAFF2808B505D800F0CBFAFFF791
:10EBA400FFFD002008BD072008BD00F0E9BA00F011
:10EBB40015BB00F02DBB00000A68084B70B50C258E
:10EBC400032A01D9002070BD05FB02F4E65A8642EF
:10EBD40002D10A60181970BD0132F1E794340020A3
:10EBE40073B502AC002344F8043D0E4605462146A5
:10EBF400FFF7E2FF38B18378B34206D1837A9B07EB
:10EC040003D143680BB902B070BD019B013301937A
:10EC140021462846ECE7000070B5054E0546002461
:10EC240056F82430284601349847042CF8D170BD96
:10EC3400102B030070B50F4E04460025237A9D4225
:10EC44000FD34FF6FF732380A370FF236372A37A5D
:10EC540003F0FD036FF30003A372002323726360C8
:10EC640070BD617A2944C9B2304601F0ADF801356E
:10EC7400E4E700BF8434002037B500230093044642
:10EC84000193417A837834488DF8023001F083F897
:10EC940060B9324B3248627A3249C01AC008000463
:10ECA40040F00100F8F70CFF032047E0237AA27834
:10ECB4008DF8022003EB83039B00ADF80030531E54
:10ECC4000190072B08D8DFE803F01F070707071F89
:10ECD40004211423ADF80030221D69462088FFF773
:10ECE400FDFE07282AD015D810B3FBF793FE1C4D60
:10ECF4001A4B1D49ED1AED082D040246238845F0F0
:10ED04000100F8F7E7FECFE70123E3E7838809333F
:10ED14009B08DFE7112813D08628E6D1A37A03F0F5
:10ED2400FD0343F00103A372104B01221A7005E0A6
:10ED3400A37A60F3410360F30003A37203B030BD10
:10ED4400A37A43F002036FF30003A372074B01227B
:10ED54001A700020F2E700BF84340020C0160300BC
:10ED640058170300CB2C03000B2D03008034002024
:10ED74002DE9F0473C4AC16886B0054600230C24BF
:10ED8400174604FB03204668B14203D00133042B29
:10ED9400F7D100202B78354E092B10D0132B09D036
:10EDA400082B5DD16C7A002C5AD100285AD0FFF779
:10EDB40041FF00E001242846FFF72EFF0BE06C7AA8
:10EDC400002C4DD100284DD0837A446043F00203D7
:10EDD40083720123337033783BB3002535704FF0D1
:10EDE4000C094FF0010A09FB05739A7AC2F3400338
:10EDF4000BB9D20730D586F800A003B964B309FB78
:10EE040005784046FFF738FF30B34FF6FF72ADF890
:10EE140006208628B8F80020ADF8082008D106237B
:10EE24008DF8043001A8FFF7F7FE06B0BDE8F087BF
:10EE340007228DF8042003900D4CFBF7EBFD0D4BDE
:10EE44000D49E41AE40824040246B8F8003044F0FA
:10EE54000100F8F73FFEE5E70135042DC3D1E4E7EF
:10EE64000024A8E70446A6E7943400208034002058
:10EE740058170300C01603003E2B03001D4BF7B5C3
:10EE840000221E464FF6FF754FF0FF0E0C27144666
:10EE940007FB02611D809D7083F809E0887A0132C6
:10EEA40000F0FD006FF30000042A887203F10C03E4
:10EEB40003F8044C43F8084CEAD150238DE80C00C5
:10EEC4000D490E4B0E484FF4A07200F051FF03465B
:10EED40068B1FBF79FFD0B4A0B4B0C499B1ADB08EF
:10EEE4001B04024643F00100F8F7EAFD0323184629
:10EEF40003B0F0BD9434002040330020C43400201B
:10EF040084340020C016030058170300202B03008C
:10EF14000023FFF775BD00002DE9F04180460E4641
:10EF240014461F46002B5FD0CB1F012B5FD8531E06
:10EF3400032B5CD8FFF754FE054618BBFF214FF6A0
:10EF4400FF70FFF74DFE0546C8B1A0F8008086703B
:10EF54006B7AFF2B1CD12146264800F04DFFFF2879
:10EF640068722BD14FF6FF732B80AB7AA87003F035
:10EF7400FD036FF30003AB7200232B726B6011204F
:10EF8400BDE8F081037A9C42E2D00F20BDE8F08115
:10EF94004FF000082C72697A164800F0FCFE80B924
:10EFA400154B16486A7A1649C01AC008000440F086
:10EFB4000100F8F785FD0320BDE8F0814FF001085A
:10EFC400E8E704EB84042401A4B2A408BE707860CA
:10EFD4003C80B8F1000F04D0082E02D1A400063CF6
:10EFE40084800020BDE8F0810E20BDE8F081072078
:10EFF400BDE8F08184340020C016030058170300D4
:10F00400462C030008B5FFF7EBFD18B1FFF712FE1D
:10F01400002008BD052008BD7FB504AC002344F8DA
:10F02400043D05462146FFF7C7FD0646A8B9284614
:10F03400FFF7B0FD034640B3072826D0FBF7EAFCF0
:10F04400164C174B1749E41AE408240403462A46CD
:10F0540044F00100F8F73EFD16E0B1782846FFF7CA
:10F06400D1FFA8B1052813D0FBF7D4FC0B4C0C4BF3
:10F074000D49E41AE408B3780093240402462B46AD
:10F0840044F00100F8F730FD0323184604B070BDC6
:10F09400039B0133039321462846C4E75817030012
:10F0A400C0160300F42B03009E2B0300CB1F012B7F
:10F0B40070B506460C46154601D9072070BD1046AA
:10F0C400FFF773FD0028F8D021463046FFF788FD8E
:10F0D40028B105808470BDE87040FFF7CDBD0520E0
:10F0E40070BD10B54FF6FF7304469C4208460AD122
:10F0F4004FF48071FAF742FD84B2B4F5807F09D1F0
:10F104004FF6FF7406E0FF2CFAD82146FAF715FDF6
:10F114000028F5D1204610BD40220021014802F00C
:10F1240037BA00BFC83400200149FFF7DABF00BF77
:10F13400C83400204FF6FF73984210B5044606D039
:10F144000449FFF7CEFF231A5842584110BD00204E
:10F1540010BD00BFE8340020FF2810B5044609D8CC
:10F1640001460548FAF7F7FC21460448BDE810407B
:10F17400FAF7F1BC10BD00BFC8340020E834002009
:10F18400FF28014602D80248FAF7EFBC0020704776
:10F19400C8340020FF28014602D80248FAF7E5BC2B
:10F1A40000207047E83400204FF6FF73984270B592
:10F1B40018BF441C0E4614BFA4B20024A5B2FF2DF0
:10F1C40002D94FF6FF7506E021463046FAF7CDFC2A
:10F1D40001340028F2D0284670BD000070B50B49F8
:10F1E4000A4EFFF7E1FF4FF6FF750446AC4201D12A
:10F1F400204670BD2046FFF7CDFF0028F8D02046FA
:10F204003146FFF7D1FF0446F0E700BFC8340020C1
:10F214000149FFF7C9BF00BFE8340020F8B5074D26
:10F22400074F064600242B789C4200DBF8BD57F8B4
:10F234002430304698470134F5E700BF1F350020DD
:10F2440010350020074B1B7810B504464BB1FFF76F
:10F254007FF8204601F00AFC2046BDE81040FEF786
:10F26400BDBC10BD1E35002008B1FFF7D7BF7047E5
:10F27400FFF7D4BFFFF7D2BFFFF7D0BF10B5FFF73A
:10F284006FFB80B1FBF7C6FB304C314B314A32493E
:10F29400E41AE4082404034644F00100F8F71AFCD5
:10F2A4000323184610BDFFF7E9FD50B1FBF7B2FB8D
:10F2B400264C274B274A2949E41AE4082404034628
:10F2C400EAE701F0A5FB50B1FBF7A4FB1F4C204B70
:10F2D400204A2349E41AE40824040346DCE700F046
:10F2E400ABFE50B1FBF796FB184C194B194A1D495C
:10F2F400E41AE40824040346CEE7FEF7D3FB50B136
:10F30400FBF788FB114C124B124A1749E41AE40824
:10F3140024040346C0E7FEF7A3FD034650B1FBF700
:10F3240079FB0A4C0A4B0B4A1049E41AE4082404FA
:10F334000346B1E70E4A4FF6FF7111800D4A106083
:10F344000D4A10700D4A01211170AAE7301703000D
:10F35400C0160300442D03005C2D0300862D03001A
:10F36400B02D0300D92D0300032E03002D2E03001E
:10F374001C35002024350020203500201E350020B7
:10F38400084B1B7853B1084A1378022B08D8074955
:10F3940041F82300013313700020704708207047A0
:10F3A400042070471E3500201F3500201035002032
:10F3B400034B1B780BB101F073BB0820704700BFEF
:10F3C4001E35002008B5054B1B782BB101F086FBD8
:10F3D400082808BF112008BD082008BD1E350020DC
:10F3E400034B1B780BB101F09EBA0820704700BF95
:10F3F4001E350020034B1B780BB1FEF747BF0820D6
:10F40400704700BF1E35002070B5234B1B7888B0B1
:10F41400002B3ED0214E01234FF6FF703370FFF7CF
:10F42400C6FB4FF6FF739842054614D100241422FC
:10F43400214603A8347002F0ABF80C230DEB030053
:10F444008DF80C30ADF81050ADF80E50FFF7E6FE15
:10F45400204608B070BD1E462846FFF7CBFF044681
:10F4640080B1FBF7D7FA0E4C0E4B0095E41AE40872
:10F47400240403460C4A0D4944F00100F8F734FB18
:10F484000324E5E72846FFF792FBB0420546E3D1A3
:10F49400DEE70824DCE700BF1E3500200C35002021
:10F4A40030170300C01603004C2D0300E02E0300A8
:10F4B4002DE9F04F87B08DE80C00344B1B78824661
:10F4C4008946002B60D04FF6FF70FFF770FB0423D2
:10F4D40003930DF10C0B02AB0025059304AA5B46C4
:10F4E4000621044602950495FFF78AFA072849D0B5
:10F4F4004FF6FF76B0464FF0FF37F0B1052825D020
:10F504004FF6FF739C422DD1A04529D0A6420CBFD3
:10F5140005200020BAF1000F01D0AAF80080B9F14B
:10F52400000F01D0C9F80050009B03B11E80019B5D
:10F5340003B11F6007B0BDE8F08F029BAB4224BF4C
:10F54400A0461D46BB423CBF26461F462046FFF749
:10F554002EFB5B4604AA06210446FFF751FACCE7CA
:10F564000520D7E7FBF756FA094D0A4B0A49ED1A6D
:10F57400ED082D040246234645F00100F8F7AAFAE7
:10F584000320D7E70520D5E70820D3E71E35002060
:10F5940030170300C0160300982E030038B50C4C36
:10F5A4000C4D00231A4621462846FFF781FF052803
:10F5B4000AD14FF6FF732B8000232360431F584268
:10F5C4005841054B187038BD0028F7D10120F8E7E1
:10F5D400083500201C35002020350020F0B50446F5
:10F5E40087B08088FEF7E4FD23786080083B032B16
:10F5F40020D8DFE803F002213166637A5BB93F4A21
:10F60400116851B1E068814207D113603C4AA18876
:10F614001180E3600EE0012B0CD13A4B1B784BB107
:10F62400374BA2881B889A4204D1237A062B01D136
:10F63400FFF7B4FF20465DE0637A002BFAD12F4A2E
:10F6440011680029F6D0E0688142F3D12E49136095
:10F654000A68013A0A60DCE72C4F3B7873B901254C
:10F66400284B1B7833B1264BA2881B889A4201D1C0
:10F67400FFF794FF002DDDD107B0F0BD4FF6FF700A
:10F68400FFF795FA4FF6FF7398420546E7D1FFF767
:10F6940090FAA8420646E2D100251422294601A880
:10F6A4003D7001F075FF0C2320468DF80430ADF851
:10F6B4000860ADF80660FFF7B1FD01A8FFF7AEFDE5
:10F6C400CEE7124B1A78002AB4D00021142201A8E4
:10F6D400197001F05DFF0D238DF804304FF6FF73B0
:10F6E400ADF80830ADF806302046A3680393FFF761
:10F6F40095FD01A8FFF792FDBEE700BF2435002069
:10F704001C35002020350020083500200C35002051
:10F714002DE9F041384B1B7888B00546002B66D0A4
:10F72400364B374C93E80300227801AF87E8030097
:10F734000AB9FFF733FF237823B91124204608B010
:10F74400BDE8F0812F4B1C689846002CF5D12E4B58
:10F754002E4E1B88AB4220D13368F3B114222146CC
:10F7640003A801F015FF082328468DF80C30FEF796
:10F774001FFD06238DF814309DF81C30ADF80E00E3
:10F7840064F3000303A8ADF810508DF815400694F7
:10F794008DF81C30FFF742FDD0E733685A1C28D09F
:10F7A4000133184A336039462846FFF797F904466F
:10F7B4000028C3D00023C8F800303368112803F1AF
:10F7C400FF333360B9D08628B8D00728B6D0FBF70A
:10F7D40021F90F4C0F4B1049E41AE40824040246A3
:10F7E4002B4644F00100F8F775F90324A6E7082432
:10F7F400A4E71324A2E700BF1E3500203C2D03001C
:10F8040020350020243500201C3500200835002038
:10F8140030170300C0160300582E030076DF70472C
:10F82400F7B5054669B901A9FFF7DAFD43F202020B
:10F83400904202D008B1F8F7E1FD9DF804309B072F
:10F8440022D400212846FFF7BDFD0646E0B1112869
:10F854001AD00D28204C214F18D1E41BE4082404AD
:10F8640044F002041E4920462A46F8F729F91321D8
:10F874002846FFF7D3FF38B1FBF7CCF82B460246F6
:10F8840018492046F8F726F903B0F0BD0B2809D132
:10F89400E01BC008144900042A4640F00200F8F7AF
:10F8A4000FF9F1E743F20203984205D1E01BC008C7
:10F8B40000042A460D49F0E7FBF7ACF8E41BE40822
:10F8C400240402462B4644F001000949F8F702F9E2
:10F8D4003046F8F793FDD7E748170300C016030036
:10F8E400352F0300A62F0300DD2F03003B30030058
:10F8F400853003002DE9F041037886B00446142BCB
:10F904003CD8DFE803F00B3B2D3B3B3B3E3B953BB8
:10F91400953B3B3B3B3B3B3B3B99BF008088FFF720
:10F92400F7FE862801D0112811D15D495D4A0B6884
:10F93400A08822F8130001335A4202F0070203F0B0
:10F94400070358BF53420B6000F0C0F816E01328B9
:10F9540003D8554BC340DB0710D4F8F74FFD0DE037
:10F96400037A012B0AD884881422002101A801F00B
:10F974000FFE01A8ADF80840FFF7BCFF06B0BDE8D4
:10F98400F0814A4F3C78002CF8D1494B494D4A4EFE
:10F994004A49ED1AED082D0445F003084046F8F7EE
:10F9A4008BF8337863B901A8F9F78AFF044608B1E4
:10F9B400F8F724FDBDF80A30003318BF0123337073
:10F9C400337843BB01AA19461846FFF771FD044674
:10F9D40078B9BDF804203A494046F8F771F8BDF803
:10F9E4000400FFF707FD044608B1F8F707FD0123FB
:10F9F4003370052C05D1334945F00100F8F75CF864
:10FA0400BCE7062C03D1304945F00200F6E724B1E7
:10FA14002046F8F7F3FC002CB0D1F9F7FBFE10B93F
:10FA240001233B70AAE748F20763984295D1A5E702
:10FA3400214B01221A70A1E71C4B1A4D00241C70A3
:10FA44001D4B1C70164B1F684FF6FF76E3195A4284
:10FA540002F0070203F0070358BF534235F813803E
:10FA6400B0450BD01422002101A825F8136001F041
:10FA74008FFD01A8ADF80880FFF73CFF0134082C86
:10FA8400E4D17BE7094B00221A70836848F20D62C7
:10FA940093423FF459AFB3F5064F7FF46FAF53E78A
:10FAA4002C350020B4220020C10008002835002095
:10FAB400C016030048170300B222002008310300D7
:10FAC400233103004D3103006B3103007FB5142251
:10FAD400002101A801F05CFD062301A88DF8043083
:10FAE400FFF708FF07B05DF804FB0000F7B50278E4
:10FAF4000446142A00F2E580DFE812F02B002B0004
:10FB040015002D002B002B004600530060007D00E3
:10FB14009600A400B700C0002B00CB002B002B00E4
:10FB24002B002B00D60040886A4DFDF7EBFB6A4A98
:10FB3400217A6388AD1A694A52F821200092ED08AF
:10FB4400674A684952F820202D0445F00300F7F76E
:10FB5400CBFF03B0F0BD40885E4DFDF7D3FB5E4A9A
:10FB64006388AD1A62890192217A5C4A52F8212095
:10FB74000092ED085A4A5C4952F820202D0445F0C1
:10FB84000300F7F7BDFFE4E7534B52485749C01A47
:10FB9400C008000440F0020003B0BDE8F040F7F7ED
:10FBA4008BBF8068FAF736FF4B4A4A4B50499B1A81
:10FBB400DB081B04024643F001003EE0464B454887
:10FBC400217A657AA288C01A4A4B53F821304A49EF
:10FBD40051F82550217C494C009511F0010F4FEA52
:10FBE400D00047494FEA004018BF2146019140F038
:10FBF40003004449C5E7027A3E4B858853F82260E6
:10FC0400427A3D4B006953F82270324CFAF702FFF6
:10FC1400314B0190E41AE4082404009733462A4641
:10FC2400394944F00200ACE72B4B2A48A2883749F3
:10FC3400C01AC008000440F0010003B0BDE8F04061
:10FC4400F7F73EBF85888068224CFAF7E3FE224B23
:10FC54002F49E41AE408240403462A4644F0010028
:10FC640003B0BDE8F040F7F735BF1B4B19482949ED
:10FC7400C01AC008000440F003008DE78068FAF75A
:10FC8400C9FE154A134B24499B1ADB081B04024680
:10FC940091E7114B0F4862882049C01AC00800043C
:10FCA400A38840F00200DBE78068FAF7B3FE0A4A53
:10FCB400084B1B499B1ADB081B04024643F0020055
:10FCC400BBE7054B03481749C01AC008000440F0BD
:10FCD4000200B2E748170300C0160300FC3003001B
:10FCE400F0300300B5310300F23103004432030065
:10FCF4005A320300C8300300C0300300A6180300C2
:10FD04008532030091320300D43203001E33030012
:10FD1400453303007233030085330300A933030022
:10FD2400E53303001434030010B50446FFF7DEFE88
:10FD3400217821B96088BDE81040FFF771BD07291B
:10FD44000FD1084B08480949C01AC008000440F004
:10FD54000100F7F7B1FEA06818B1BDE81040F8F74C
:10FD64004DBB10BDC016030048170300AA310300A1
:10FD740070B5049D059C60B159B153B104FB05F6FF
:10FD8400964206D82DB124B180E82A00C460002030
:10FD940070BD072070BD38B50C46054608B9002073
:10FDA40038BD0368002BFAD040680028F7D0FF293B
:10FDB400F5D0BFF35F8FF9F7D8FE0028EFD0EB68DA
:10FDC400286803FB040038BD38B50D46044690B1DD
:10FDD400036883B1406870B1FF290CD0BFF35F8F13
:10FDE400F9F7C3FE38B16068BFF35F8F2946BDE8F9
:10FDF4003840F9F7B0BE38BD2DE9F04188460646D3
:10FE040018B9FF242046BDE8F0810368002BF8D020
:10FE14004368002BF5D00027FF24B368FDB2AB4242
:10FE2400EFD929467068F9F788FEBFF35F8F40B9B0
:10FE3400FF2C08BF2C462D1B01354545E2D0013768
:10FE4400EBE7FF2C07D1FF24F9E721463046FFF703
:10FE5400BBFF0134E4B2A542F7D8F4E77EDF704774
:10FE64007FDF704786DF70470378182B10B5044690
:10FE740002D1FDF791FA207010BD10B504464088F8
:10FE8400FEF768F9A0802046BDE8104000F064BD8C
:10FE940010B586B004461422002101A801F078FBB5
:10FEA40004230DEB03008DF80430ADF80640FFF792
:10FEB400E4FF06B010BD30B587B005460C461422E9
:10FEC400002101A801F064FB072301A88DF8043088
:10FED400ADF806500394FFF7D0FF07B030BD000023
:10FEE400F0B587B004460F4616460021142201A837
:10FEF4001D4601F04DFB03238DF80430094BADF88A
:10FF04000640002219788DF80C702046ADF80E607A
:10FF14008DF81050FDF762FA01A8FFF7AEFF07B0A5
:10FF2400F0BD00BFC52200207FB502238DF8043048
:10FF34000388ADF8063043798DF80D1013F0040FE3
:10FF440014BF0123022301A88DF80C30FFF795FF9D
:10FF540007B05DF804FB000030B5114B0A1C87B0F4
:10FF64000C4618BF012219780546FDF737FA631EBF
:10FF74005A425A410B4B28461978FDF72FFA14229E
:10FF8400002101A801F004FB012301A88DF804302D
:10FF9400ADF806508DF80C40FFF76FFF07B030BD89
:10FFA400C7220020C62200201E4B2DE9F0470E4632
:10FFB400197805461746FDF7F9F9014678B31A4B47
:10FFC40028461978FDF7F2F9002805F580704FF0FE
:10FFD400070180B214BF4FF001094FF00209FFF787
:10FFE40011F8804698B1052811D0FAF713FD0F4C8B
:0CFFF4000F4B1049E41AE40824040246F4
:020000023000CC
:100000002B4644F00100F7F767FD41462846FFF70D
:1000100054FF3B46324649462846BDE8F047FFF7C5
:1000200061BF3B463246F7E7C7220020C6220020C8
:1000300070170300C016030036350300F8B5154FDE
:10004000154E164D164C3846FFF710FF3046FFF799
:100050000DFF2846FFF70AFF2046FFF707FF3B7812
:10006000182B08D03378182B05D02B78182B02D0FA
:100070002378182B0BD10B4B0B480C49C01AC00826
:10008000000440F00100F7F719FD0320F8BD00203F
:10009000F8BD00BFC5220020C7220020C6220020D4
:1000A000C4220020C016030070170300CC240300F4
:1000B0002DE9F0418AB00F4690460446FDF724F939
:1000C00020220646002102A801F064FA012E08D180
:1000D000444B002219782046FDF782F92FB9852577
:1000E00014E0002E7BD0002F75D02046FEF734F8A8
:1000F0004FF6FF73984211D100253B78DB0721D4DE
:10010000394BCDF814800993012E65D102AB3A46E4
:1001100029462046FFF7A6FE014630E0012EEBD12E
:10012000304D20462978FDF743F90028E4D12046D8
:10013000FFF7B0FE29782046FDF73AF90028DBD119
:100140008525DAE7852DDFD004F5807007216B4621
:10015000012280B2FEF7E2FE112801460FD090B1D5
:10016000FAF75AFC214D224B2249ED1AED082D04D5
:100170000246234645F00100F7F7AEFC032108468E
:100180000AB0BDE8F0815022019801F003FA01990C
:100190000B46204603F8346B029301F118030693D3
:1001A0004B1C07931131104BCDF814800993FDF7C8
:1001B000E5FF0028A8D0FAF72FFC0C4D0C4B0E4998
:1001C000ED1AED082D040246234645F00200F7F72C
:1001D00083FC0821D3E7852502AB002298E743F290
:1001E0000201CCE7C4220020303500207017030044
:1001F000C016030062370300C437030038B5054654
:100200000C46FDF781F8012808D154B12146284653
:10021000FFF726FE042808BF112038BD43F2020074
:1002200038BD204638BD00002DE9F0470388113B5A
:100230008AB00446092B7AD8DFE813F00A00790067
:100240001F0048007900790079007900BB006A013D
:10025000037A85883D2BC04B2846197841F23D042E
:1002600018BF4FF48854FDF7A3F800285FD0002290
:1002700021462846FFF79AFE59E08088FDF744F8AA
:10028000012802460FD1237AA58813F0010FB24B43
:1002900014BF0126022619782846FDF7A1F8314639
:1002A0002846FFF75BFE34F8045F142200210DEBB3
:1002B000020001F06FF9043405238DF81430ADF815
:1002C0001650079405A8FFF7DAFD30E000F110079B
:1002D0003846FDF7B2FF4FF6FF7398420646A088F6
:1002E00028D1FDF739FF06469B4BA58819780122D6
:1002F0002846FDF775F800212846FFF72FFE4FF638
:10030000FF739E421AD1002500231A462946A08871
:10031000FFF7AAFD0828074629D1904B904891493C
:10032000C01AC008000440F00200F7F7C7FB0AB08B
:10033000BDE8F0873146FDF7A1FFD5E705AA072103
:100340003046FEF7E7FD0028DDD1A37ED907DAD5D8
:10035000069D95F84430DA0701D53435D4E739469F
:1003600005F14600FDF755FF0028F6D1CBE798B11F
:10037000FAF752FB7A4D794AA3887B490096AD1A69
:10038000ED082D04024645F00100F7F7AFFB3946B2
:10039000A088FFF792FDCAE7A37EDB07C7D5002D33
:1003A000C5D1A0882B4641F206022946FFF79AFDE7
:1003B000BDE790F80880684B8588B8F1000F40F0E1
:1003C0009A801978061D42462846FDF709F8617A99
:1003D00011F0040103D13046FFF7A8FDA7E705F5AA
:1003E00080791FFA89F903AB012207214846FEF7FD
:1003F00095FD074698B1FAF70FFB594C574B5B49EF
:10040000E41AE408240402462B4644F00100F7F7FE
:1004100063FB39462846FFF750FD4146DBE7284697
:10042000FDF79AFE4FF6FF7398420446824630D19C
:1004300001460498FDF772FE50450446804600F0E0
:100440009D80DFF834A101462846FDF717FF9AF892
:1004500000102846FCF7ACFF8046D0B92846FFF7CD
:1004600019FD9AF800102846FCF7A2FF0146002863
:10047000B1D0484622460721FEF71AFE814650B900
:100480000121A8E721462846FDF7F8FE4FF00108B4
:10049000EFE7B846EDE786280ED1142200210DEBD8
:1004A000020001F077F8062305A88DF81430ADF8A6
:1004B0001650FFF7E4FCE3E7FAF7AEFA284F274BB4
:1004C0002B490094FF1AFF083F0402462B4647F0D1
:1004D0000100F7F70BFB49462846FFF7EEFC002129
:1004E0003046FFF723FDB8F1000F3FF420AF204660
:1004F000FDF7CEFE1BE7447A1978284604F0030482
:10050000FCF756FF00283FF412AF22464146B0E602
:10051000184B80881978FCF74BFF054600287FF4BC
:1005200006AFA088FCF710FF0146A08819B9012387
:1005300041F206023AE7084B2A461978FCF750FFC9
:1005400002238DF81430A388ADF816308DF81C50B6
:100550008DF81D50B6E600BFC5220020C01603006E
:10056000701703009F3503000F3603007F3603002A
:100570000C370300C7220020C4220020FEF708FB2E
:10058000404504467FF47EAF074B08480849C01A2F
:10059000C008000440F00100F7F790FA0421284653
:1005A000FFF78BFC394616E7C016030070170300EF
:1005B000DA360300002242608260024A126802605A
:1005C000704700BF7C35002060B3027802F08203E0
:1005D000802B26D0C2F30213042B22DC02F0F2039C
:1005E000322B1ED04178837899421AD8062918D91F
:1005F000102B16D8C17811F0040312D100794307EB
:100600000FD4084303070CD412F0010F00F00300CD
:1006100003D1B0FA80F040097047003018BF0120C4
:1006200070470020704770B515460E461422002111
:10063000044600F0AFFF2846FDF78EFD2670A0802F
:100640006580204670BDFEF711BE0378182B10B5EB
:10065000044602D1FCF7A2FE207010BD2DE9F04146
:1006600031F0080386B005460E46904629D0112980
:1006700027D00D291F4C204F28D1E01BC0080004B3
:100680002A461E4940F00200F7F71CFA2A460321C9
:1006900001A8FFF7C8FFB8F1000F15D098F8003097
:1006A00013F0010F0CBF022301238DF80C3000233F
:1006B0008DF8103041F20113ADF80E3001A8FFF7AC
:1006C000C2FF06B0BDE8F0810223EEE70846FAF764
:1006D000A3F9E41BE408240402462B46084944F02D
:1006E0000100F7F7F9F92A46072101A8FFF79BFF58
:1006F0000396E3E768170300C016030023380300DE
:10070000D8380300F7B506460C46FCF70DFE054643
:1007100000283DD03046FDF71FFDAB1E5D425D4118
:100720004FF6FF722378821A18BF012265F3000387
:1007300062F3C303237007463046FCF705FE2378B7
:1007400060F3410323703046FCF70CFE237860F31E
:10075000820323703046FCF713FE0546B0B93046DD
:10076000FCF7F2FD58B16A4607213846FEF7D2FB86
:1007700020B9019B93F8440000F001052846237836
:1007800060F304132370002003B0F0BD0120F6E7EE
:1007900043F20200F8E700002DE9F043054689B076
:1007A000914698460E4681BB6846FFF703FF2A46EE
:1007B000052103A8FFF737FF03A80596CDF818D049
:1007C000FFF741FF294B1B783BB99DF8093023B94E
:1007D0000526304609B0BDE8F083009F4A463946F9
:1007E0002846FFF70BFDA0F111035A425A41204B56
:1007F000044619782846FCF7F3FD0B2C03D006D8E5
:100800000CB1082C21D1264616E00027E6E7112C72
:1008100005D043F202039C42F5D00D2CF2E7154BB4
:10082000324619782846FCF7DBFD134B4A46197807
:100830002846FCF7D5FD0026B8F1000FC9D03A468E
:1008400021462846FFF70AFFC3E72046FAF7E4F8F7
:100850000A4E0B4B0B49F61AF608360402462B4695
:1008600046F00100F7F738F90326E5E7793500206F
:10087000CA220020C9220020C822002068170300D5
:10088000C016030043390300094B70B519780446BC
:10089000FCF78EFD074B054619782046FCF788FDCE
:1008A0002A46014601232046BDE87040FFF774BF89
:1008B000C8220020C922002030B589B0044668460D
:1008C0000D46FFF777FE2246052103A8FFF7ABFE92
:1008D00003A80595CDF818D0FFF7B5FE0E4B00998B
:1008E0001A682046FFF7E4FBA0F111035A425A416F
:1008F0000A4B054619782046FCF772FD084B204646
:1009000019780022FCF76CFD009A29462046FFF773
:10091000A5FE09B030BD00BF70350020CB220020FD
:10092000CA2200200021FFF7C7BF09B1FFF7EABEC6
:100930000E20704713B50C4602A9E02301F8043DD0
:10094000FFF7E0FE9DF80420237828B993430CBFFD
:100950000120002002B010BD0020FBE70378052B2A
:1009600013B5044605D0122B09D02046FFF76BFEC5
:1009700003E081684088FFF79FFF02B010BD124B73
:100980001A68EAB14088FCF7DFFC0146D0B1227A50
:100990006088C2F340039B0002A962F3C303C2F361
:1009A000800262F3041301F8043DFFF7C3FF80F0F7
:1009B0000102D2B2002101236088FFF7EDFED4E7E7
:1009C0000121F8E70246F6E77C35002008B50378F8
:1009D000083BDBB20B2B14D8012202FA03F340F6DA
:1009E0000F0213420DD0074B074918780022FCF77D
:1009F0001BFD064B064918780022BDE80840FCF7AD
:100A000013BD08BDCB22002025090300CA22002007
:100A10008908030010B50F480F4CFFF716FE0F486A
:100A2000FFF713FE0E48FFF710FE2046FFF70DFEFE
:100A30002378182B0BD10B4B0B480C49C01AC0085C
:100A4000000440F00100F7F739F8032010BD002042
:100A500010BD00BFCA220020CB220020C8220020E7
:100A6000C9220020C016030068170300CC2403002D
:100A700008B5FFF7D9FB074B074918780022FCF7A8
:100A8000D3FC064B064918780022BDE80840FCF765
:100A9000CBBC00BFCB22002025090300CA220020C6
:100AA0008908030010B5044630B90A4B18600A4B98
:100AB00001221A70002010BDFFF786FD38B1074BE8
:100AC00022681A6022791A71024A1360EFE7072040
:100AD00010BD00BF7C350020793500207435002022
:100AE00000230A461946FFF757BEA8DF7047ADDF5F
:100AF0007047AEDF7047B0DF704762DF70473CDFA2
:100B000070473DDF7047704770B5044688B028B124
:100B10000388112B1CD003D8102B15D008B070BD42
:100B2000512B1DD0532BF9D12F4DC288EB889A42FF
:100B3000F4D12B7E002BF1D000F0BAF90028EDD0D3
:100B40006B6902209847E9E78288274B9A80E5E79E
:100B5000254B81889A889142E0D14FF6FF72F5E7E4
:100B6000214D8288AB889A42D8D18679022ED5D180
:100B70000289EB889A42D1D1837B043B022BCDD9E9
:100B8000102200210DEB020000F004FD0023ADF85F
:100B90000A3002AA01AB6989A8888DF81060ADF807
:100BA00008600393FFF7A3FFD8B91846FCF785FC4C
:100BB000B8B19DF8163043F001038DF816300023CC
:100BC000ADF8143004A9A888FFF795FF1128F9D0D3
:100BD000BDF81430002BA1D104F1080000F004F995
:100BE0009CE740F2FD13EBE78035002030B587B07D
:100BF00005460C461022002102A800F0CBFC03237E
:100C0000ADF8023020238DF804300F4B8DF80550DD
:100C1000DA88ADF8082002228DF80A200022ADF80B
:100C20000C200DF10202049202A901AA98888DF805
:100C300006400592FFF75DFF20B9BDF80230032B97
:100C400018BF0C2007B030BD8035002010B54FF024
:100C5000FF310020FFF755FF044658B9B121FFF7D7
:100C60004EFF044630B9044B01205B6998470220CF
:100C7000F9F708FE204610BD80350020F0B51B4B6B
:100C800087B002AA064603F110071546186859688E
:100C9000144603C40833BB422246F7D126B3144B93
:100CA0004FF6FF729A8032685A61002119760AB9AC
:100CB000104A5A610E4800F053F898B906A94FF649
:100CC0005963012021F8143D0B4A8DF80600FFF707
:100CD0000CFF38B906492846FFF70FFF10B9044842
:100CE00000F058F807B0F0BD0E20FBE7A83903006C
:100CF00080350020070B0300823500204FF0030CE5
:100D000000DF704714490B6810B523B34B68F3B983
:100D100010BD124C236858B9587601210220FFF704
:100D200065FFC0B123685B690320BDE81040184728
:100D300000225A7606210220FFF758FF18B12368D7
:100D400003205B699847236802205B69EDE708315F
:100D500098470828DDD110BDBC350020B8350020EB
:100D600018B1034B1860002070470E20704700BF79
:100D7000B835002008B5FBF701FC38B90448FFF787
:100D8000BDFF18B9BDE80840FBF730BC08BD00BF87
:100D9000BC35002010B588B00446202200216846EA
:100DA00000F0F8FB22460323ADF8003012F8063BB2
:100DB0008DF802309DF80D30608843F0280317212C
:100DC0008DF80D30ADF80410012369468DF8103010
:100DD0008DF80C308DF813308DF812308DF81130FD
:100DE000FCF76FFB08B010BD70B50546007B2A4CC0
:100DF00001280ED0022825D00221287BFFF7F6FE1D
:100E000018B1236803205B699847236802205B6957
:100E10000AE023685E7E56B10621FFF7E7FE002850
:100E200039D023685B690320BDE870401847187605
:100E30000146FFF7DBFE70B3236811281E7626D12A
:100E40000621DAE76A7B531E132B22D8134E05F1D5
:100E50000E01301D00F074FB6B7BB36123685B7E79
:100E6000ABB90F49304651F8083B984718B9236889
:100E700001225A7670BD0F2809D10A4B0A480B4946
:100E8000C01AC008000440F00100F6F717FE042164
:100E9000B3E70521B1E770BDB83500209C350020CF
:100EA000BC350020C0160300E8160300B839030063
:100EB00008B5044B1B6800205B699847BDE80840F3
:100EC000FFF7C4BEB835002010DF704711DF704750
:100ED00013B5044609496846F9F743FD019808B976
:100EE00002B010BD036841682046984718B16846B3
:100EF000F9F741FDF2E71120F2E700BF8C3A030059
:100F000013B5044607496846F9F72BFD019B0BB959
:100F100002B010BD20461A68596890476846F9F734
:100F20002AFDF3E7A43A0300064B9A6822B11A6837
:100F300022F480021A607047034B4FF48002C3F81A
:100F4000802070478C29002000E100E00C4991F8D6
:100F500016335A09EC231341DB0708D442F202008E
:100F6000F7F74EBA1A6842F480021A607047054BD0
:100F70009A68002AF6D14FF480030B60704700BFD7
:100F800000E100E08C290020F7B5184F3C785CBBED
:100F9000174E012520463570FFF79AFF112820D003
:100FA0002046FFF7ADFF134B1868019002A800F828
:100FB000054DF7F713FC104901A8FFF785FF04461C
:100FC000B0FA80F0400938709DF80300F7F72AFC6A
:100FD0003CB90A4B34701C70FFF7B8FF2846FFF786
:100FE0008FFF204603B0F0BD0824FAE7C935002082
:100FF000C8350020863A03001D840200CA3500204F
:10100000F7B5154F3B7813B3144E01203070FFF73E
:101010005FFF11284FF000051BD00220FFF770FF83
:1010200002A800F8015DF7F7D9FBFFF74FFF044670
:101030009DF807003D70F7F7F5FB2CB93470FFF70A
:1010400073FF0320FFF75CFF204603B0F0BD0824C8
:10105000FAE72C46F8E700BFC9350020C835002064
:10106000054B1B7833B1054B1B780BB1FFF7C8BF9D
:10107000FFF78ABF08207047C8350020C935002017
:10108000014B1878704700BFC935002007B50849E3
:101090006846F9F766FC019B13B903B05DF804FBE1
:1010A00058681A6890476846F9F765FCF3E700BF8F
:1010B000983A0300FFF7EABF60DF704769DF7047C7
:1010C00061DF704730B5114B1B7891B0E3B1104D23
:1010D00034240DF1020103A8ADF80240FFF7F0FF40
:1010E00070B9294601A8F9F73CFC029B002BF0D00F
:1010F00003A81A685968904701A8F9F73CFCF4E77F
:10110000052801D0F7F77CF911B030BDCB350020B0
:10111000E43C030030B5054685B00C46002900F0DC
:1011200098804D4B0B600C22002101A800F032FA90
:1011300001238DF8063022688DF80450062301A99A
:101140002020ADF80830FFF7B9FF60B1F9F764FC73
:10115000424A434B43499B1ADB081B04024643F0B7
:101160000100F6F7AFFC0C22002101A800F012FAF2
:1011700001238DF805302268002301A940208DF855
:1011800006308DF80730FFF799FF60B1F9F744FC9E
:10119000324A334B34499B1ADB081B04024643F0A6
:1011A0000100F6F78FFC0C22002101A800F0F2F9F3
:1011B000012022688DF8040001A9FFF77FFF60B1CC
:1011C000F9F72AFC254A264B28499B1ADB081B0401
:1011D000024643F00100F6F775FC0C22002101A83D
:1011E00000F0D8F94FF4B0632268019301A9A1205F
:1011F000FFF764FF60B1F9F70FFC184A184B1C4960
:101200009B1ADB081B04024643F00100F6F75AFC68
:101210000C22002101A800F0BDF99DF804302268DD
:1012200043F0010301A9A0208DF80430FFF746FF29
:1012300088B1F9F7F1FB094A094B0E499B1ADB0803
:101240001B04024643F00100F6F73CFC002005B009
:1012500030BD0E20FBE7FAE770220020C016030025
:1012600020170300B83A0300FE3A03004A3B03008C
:10127000963B0300E73B0300F8B506460768FFF717
:101280001BFF33689F4205461DD2194B194C1A4962
:10129000E41AE408240444F002042046F6F70EFCA5
:1012A000336816493A462046F6F716FC4FF080534D
:1012B0003268D3F80C3112499B0203F100539A1A99
:1012C0002046F6F7FFFB25B90E4B01221A7028467F
:1012D000F8BD2846F9F7A0FB054A064B0A499B1AB8
:1012E000DB081B04024643F00100F6F7EBFBEEE7D8
:1012F000C0160300201703003A3C0300693C0300BA
:101300009A3C0300CB350020C43C03004BDF704700
:101310001FB50D4C01A8FFF7F9FF70B9214602A8CF
:10132000F9F71FFB039B002BF4D001981A6859684A
:10133000904702A8F9F71FFBF4E7052801D0F7F75B
:101340005FF804B010BD00BFFC3C0300B2F1200305
:101350000AD5C2F1200301FA02F120FA03F341EAAF
:10136000030100FA02F0704700FA03F14FF00000A9
:10137000704700BF53EA020C61D02DE9F04BB3FA7D
:1013800083F51E0007BFB2FA82F502FA05F403FAEC
:1013900005F41646C5F120051EBF22FA05F73C43A9
:1013A000203556EA044C4FEA144418BF0134A346D2
:1013B0004FF00009C846904271EB030C39D3094243
:1013C00007BFB0FA80F700FA07F6B1FA81F701FA21
:1013D00007F6C7F120071EBF20FA07FC46EA0C06F5
:1013E0002037B6FBFBFC7F1B103F07F01F04C4F146
:1013F00020060CFA04F42CFA06F644BF3446002604
:10140000202FA4BF2646002454EA060C08BF01245E
:1014100018EB040849EB0609A4FB027CC01B06FB81
:1014200002CC04FB03CC71EB0C01904271EB030C7A
:10143000C5D20B46024649464046BDE8F08BB2FB9A
:10144000F3F200BF7F2805D8034B185C034B5B5CAD
:101450001840704700207047143D0300943D03007E
:10146000A0F16103192B98BF20387047A0F1410308
:10147000192B98BF203070477F2805D8034B185C84
:10148000034B5B5C1840704700207047143D03001D
:10149000943D0300A0F16103192B98BF20387047D9
:1014A000A0F14103192B98BF203070477F299ABFC4
:1014B000017001206FF02E0070475AB10A787F2A20
:1014C0000AD800B10260002119605960501A18BF93
:1014D00001207047002070476FF02E007047000019
:1014E00008B5034B5B689B681B68984708BD00BF45
:1014F000CC22002008B50921FFF7F2FF08BDE2B1B8
:1015000070B4561E15D002780B789A4213D1431C42
:101510000131064418460A46B34205D00133013171
:1015200005781478A542F5D000781378C01A70BCFD
:1015300070470A46F8E70A46F6E7002070470000C1
:10154000844640EA010313F0030F18D18446202A91
:101550000BD32DE9F007B1E8F807A0E8F807A2F1EE
:101560002002202AF7D2BDE8F007042A07D351F859
:10157000043B40F8043BA2F10402042AF7D2002AFB
:1015800005D011F8013B00F8013B013AF9D1604662
:10159000704700BF8446002A2DD010F0030F04D0FE
:1015A00000F8011B013A26D0F7E7C9B241EA012150
:1015B00041EA0141202A12D3A2F120022DE9F003D1
:1015C0000B460C460D460E460F4688468946A0E857
:1015D000FA03203AFBD2BDE8F00320320BD0042AF4
:1015E00005D340F8041B043A05D0042AF9D200F8C8
:1015F000011B013AFBD16046704700BF00F10101B9
:1016000010F0030F11D010F8012B002A23D010F096
:10161000030F0AD010F8012B002A1CD010F0030F82
:1016200003D010F8012B002A15D02DE970004FF0DF
:1016300001324FF0803350F8044BA4EB020525EA49
:1016400004051D4000D1F6E7A0F1040070BC10F8BD
:0C165000012B002AFBD1A0EB0100704729
:10165C00F1D102000000000085BF02000000000074
:10166C0057CE0200302D0020D9E402006431002056
:10167C0035D002000000000049F20200000000001A
:10168C00EBE6020078310020090B030080350020C6
:08169C009DC0020000000000E7
:1016A400F5A402000000000071AA0200000000007E
:0816B400050D03000000000019
:0416BC0009C202005D
:1016C000EC20030000000000F220030000000000F6
:1016D000F920030000000000FD20030000000000CE
:1016E00002210300000000004D1803000000030366
:1016F0002419030000000000581903000000000036
:10170000E620030000000000CE29030000000303D0
:10171000911B030000000303B03A03000000030321
:10172000F03C030000000303083D03000000030336
:10173000282F030000000303A92603000000030371
:101740006D2803000000030321350300000003039C
:101750007F28030000000303BA2C030000000303EA
:10176000FD2A03000000030398390300000003036F
:101770001238030000000303DC1B0300000000001C
:08178000E51B0300000000005E
:101788009DA5020000000000EDAA02000000000074
:0817980041C202000000000044
:1017A000C51003000000000011130300000000003A
:0817B000D5A3020000000000B7
:1017B80010180300000000001C18030098220020E5
:1017C80024230020EC230020F42300202C230020D5
:0417D80018000000F5
:1017DC0000000000000000009193020000000000D7
:0417EC0000000000F9
:1017F000FFFFFFFFFFFFFFFFFFFFFFFFFFFFFFFFF9
:1018000000000000000000000000D60106010000FA
:101810000175020065750200B17402007561727491
:101820005F6C6F675F6261636B656E6400000000F0
:10183000182800207F000000982800204261636B78
:10184000656E647320666C757368656400617070A2
:1018500000000000A7180300CC180300871803003D
:10186000D4180300DC180300E4180300EC1803008C
:10187000F4180300FC1803002025303278002020E3
:1018800020007C002563001B5B313B33316D00255C
:10189000734C6F67732064726F70706564202825C5
:1018A000642925730D0A001B5B306D003C25733ED7
:1018B0002025733A200000000000000035190300C5
:1018C000041903000C190300111903001B5B313BC1
:1018D00033306D001B5B313B33326D001B5B313BA2
:1018E00033336D001B5B313B33346D001B5B313B8D
:1018F00033356D001B5B313B33366D001B5B313B79
:1019000033376D007761726E696E6700696E666F5E
:10191000006465627567000B0C18190D0E0F10003E
:10192000B82800206170705F627574746F6E004635
:101930006174616C206572726F72005379737465A3
:101940006D207265736574000100060000000000E0
:10195000042900208D8402006170705F74696D65D8
:101960007200000000000000000000000000000005
:101970000338FDD8704752544320696E7374616E0A
:10198000636520616C726561647920696E69746950
:10199000616C697A65642E005254433A20696E691D
:1019A0007469616C697A65642E0000000000FFFFB5
:1019B000DEC0ADDEFE011EF1DEC0ADDEFF011EF1B8
:1019C0003031323334353637383941424344454675
:1019D0006E72665F6673746F726167655F696E6968
:1019E00074006E72665F6673746F726167655F77AD
:1019F00072697465006E72665F6673746F72616798
:101A0000655F657261736500616464725F69735FCD
:101A1000706167655F616C69676E656428705F6699
:101A2000732C20706167655F616464722900616472
:101A300064725F69735F77697468696E5F626F75FE
:101A40006E647328705F66732C20706167655F61D8
:101A50006464722C20286C656E202A20705F667387
:101A60002D3E705F666C6173685F696E666F2D3EB8
:101A700065726173655F756E6974292900705F66B0
:101A80007300257320636865636B206661696C650C
:101A90006420696E20257328292077697468207670
:101AA000616C756520307825782E00705F646573F1
:101AB00074006C656E00616464725F69735F616C71
:101AC00069676E65643332287372632900616464E8
:101AD000725F69735F77697468696E5F626F756E54
:101AE000647328705F66732C207372632C206C659E
:101AF0006E2900705F66732D3E705F6170690070C3
:101B00005F7372630021286C656E202520705F660C
:101B1000732D3E705F666C6173685F696E666F2DD2
:101B20003E70726F6772616D5F756E6974290061D6
:101B30006464725F69735F616C69676E6564333298
:101B400028646573742900616464725F69735F61FE
:101B50006C69676E65643332282875696E74333238
:101B60005F7429705F7372632900616464725F69D6
:101B7000735F77697468696E5F626F756E647328EE
:101B8000705F66732C20646573742C206C656E29FD
:101B9000006E72665F6673746F7261676500000045
:101BA00000100000040000000100000019A4020061
:101BB000F9A30200E9A3020029A60200DDA50200A4
:101BC000BDA30200C1A30200C5A30200882B002010
:101BD000BC160300C0160300040000007077725F9B
:101BE0006D676D7400736F72746C69737400556EF9
:101BF0006B6E6F776E206572726F7220636F6465B3
:101C000000000000000000002C1D03000100000087
:101C1000381D030002000000561D030003000000F1
:101C2000771D0300040000008A1D0300050000006A
:101C30009B1D030006000000AF1D0300070000000D
:101C4000C71D030008000000DF1D0300090000009D
:101C5000F71D03000A000000101E03000B00000027
:101C6000281E03000C0000003F1E03000D000000B2
:101C7000531E03000E000000651E03000F0000004D
:101C8000741E030010000000881E030011000000F5
:101C90009F1E030012000000AE1E03001300000090
:101CA000C31E030080000000D71E03008100000057
:101CB000F81E030082000000141F030083000000D0
:101CC000301F0300840000004E1F03008500000049
:101CD0006F1F030086000000941F030090000000A7
:101CE000AB1F030091000000C91F03009200000019
:101CF000E71F030000820000FC1F030001820000B8
:101D00001A20030002820000362003000084000035
:101D100052200300018400007620030002840000AA
:101D2000A020030003840000C52003004E52465F3C
:101D300053554343455353004E52465F4552524F0D
:101D4000525F5356435F48414E444C45525F4D49A4
:101D50005353494E47004E52465F4552524F525FD1
:101D6000534F46544445564943455F4E4F545F4593
:101D70004E41424C4544004E52465F4552524F52EE
:101D80005F494E5445524E414C004E52465F4552BB
:101D9000524F525F4E4F5F4D454D004E52465F458C
:101DA00052524F525F4E4F545F464F554E44004E75
:101DB00052465F4552524F525F4E4F545F535550FB
:101DC000504F52544544004E52465F4552524F5276
:101DD0005F494E56414C49445F504152414D004E7F
:101DE00052465F4552524F525F494E56414C49440C
:101DF0005F5354415445004E52465F4552524F5234
:101E00005F494E56414C49445F4C454E475448004B
:101E10004E52465F4552524F525F494E56414C49D1
:101E2000445F464C414753004E52465F4552524F25
:101E3000525F494E56414C49445F44415441004E23
:101E400052465F4552524F525F444154415F53499D
:101E50005A45004E52465F4552524F525F54494DCB
:101E6000454F5554004E52465F4552524F525F4EB9
:101E7000554C4C004E52465F4552524F525F464FB2
:101E80005242494444454E004E52465F4552524FDD
:101E9000525F494E56414C49445F41444452004EC2
:101EA00052465F4552524F525F42555359004E526F
:101EB000465F4552524F525F434F4E4E5F434F5520
:101EC0004E54004E52465F4552524F525F52455358
:101ED0004F5552434553004E52465F4552524F5262
:101EE0005F4D4F44554C455F4E4F545F494E4954EA
:101EF00049414C495A4544004E52465F4552524F63
:101F0000525F4D555445585F494E49545F464149CB
:101F10004C4544004E52465F4552524F525F4D551C
:101F20005445585F4C4F434B5F4641494C45440034
:101F30004E52465F4552524F525F4D555445585F81
:101F4000554E4C4F434B5F4641494C4544004E5221
:101F5000465F4552524F525F4D555445585F434F6F
:101F60004E445F494E49545F4641494C4544004EFA
:101F700052465F4552524F525F4D4F44554C455F5C
:101F8000414C52454144595F494E495449414C499D
:101F90005A4544004E52465F4552524F525F535489
:101FA0004F524147455F46554C4C004E52465F45A7
:101FB00052524F525F4150495F4E4F545F494D500E
:101FC0004C454D454E544544004E52465F45525295
:101FD0004F525F464541545552455F4E4F545F4501
:101FE0004E41424C4544004E52465F4552524F527C
:101FF0005F494F5F50454E44494E47004E52465F41
:102000004552524F525F4452565F5457495F4552B2
:10201000525F4F56455252554E004E52465F455202
:10202000524F525F4452565F5457495F4552525F78
:10203000414E41434B004E52465F4552524F525F14
:102040004452565F5457495F4552525F444E414394
:102050004B004E52465F4552524F525F424C455FD5
:10206000495053505F52585F504B545F5452554E35
:102070004341544544004E52465F4552524F525FD1
:10208000424C455F495053505F4348414E4E454C8A
:102090005F414C52454144595F45584953545300A0
:1020A0004E52465F4552524F525F424C455F495037
:1020B00053505F4C494E4B5F444953434F4E4E453E
:1020C00043544544004E52465F4552524F525F4280
:1020D0004C455F495053505F504545525F52454A09
:1020E000454354454400636C6F636B00434C4F435E
:1020F0004B004750494F54450050525300554152F0
:1021000054005541525445000B00030035BD0200F8
:102110000C00030035BD02001800030035BD0200AD
:102120001900030035BD0200A82C0020C82C002097
:10213000E82C0020506F776572206D616E616765D5
:102140006D656E742077616E747320746F20726594
:1021500073657420746F20444655206D6F64652E3E
:1021600000506F776572206D616E6167656D656E99
:102170007420616C6C6F77656420746F2072657376
:10218000657420746F20444655206D6F64652E0081
:102190004465766963652069732070726570617249
:1021A000696E6720746F20656E74657220626F6F50
:1021B000746C6F61646572206D6F64652E00446994
:1021C00073636F6E6E6563746564202564206C694B
:1021D0006E6B732E004465766963652077696C6C5D
:1021E00020656E74657220626F6F746C6F616465D8
:1021F00072206D6F64652E00526571756573742071
:10220000746F20656E74657220626F6F746C6F619D
:10221000646572206D6F6465206661696C65642019
:102220006173796E6368726F6E656F75736C792E0A
:10223000005265717565737420746F2073656E64E8
:10224000206120726573706F6E736520746F2063F8
:102250006C69656E74206661696C65642E00556EEC
:102260006B6E6F776E206576656E742066726F6D2B
:1022700020626C655F6466755F627574746F6E6C06
:102280006573732E004661696C656420746F206409
:102290006973636F6E6E65637420636F6E6E6563E2
:1022A00074696F6E2E20436F6E6E656374696F6E16
:1022B0002068616E646C653A202564204572726FF7
:1022C000723A202564004446553341313600427548
:1022D00074746F6E6C657373204446552041707042
:1022E0006C69636174696F6E207374617274656484
:1022F0002E00457261736520626F6E647321005316
:10230000657474696E6720766563746F722074619A
:10231000626C6520746F20626F6F746C6F616465AE
:10232000723A20307825303878004661696C6564EF
:102330002072756E6E696E672073645F736F66746A
:102340006465766963655F766563746F725F7461F7
:10235000626C655F626173655F736574004E6F20C8
:10236000626F6F746C6F6164657220776173206651
:102370006F756E640053657474696E67207665636B
:10238000746F72207461626C6520746F206D616976
:102390006E206170703A2030782530387800010066
:1023A000FFFF00000000000001000000466C6173A8
:1023B000682066756C6C2E20436F756C64206E6FA0
:1023C000742073746F7265206461746120666F722B
:1023D00020636F6E6E5F68616E646C653A20256481
:1023E000006773636D5F6C6F63616C5F64625F63F2
:1023F000616368655F757064617465282920726522
:102400007475726E656420257320666F7220636F29
:102410006E6E5F68616E646C653A20256400556E6F
:102420006578706563746564204741545420737403
:1024300061747573207768696C6520676574746969
:102440006E672043415220636861722076616C752B
:10245000653A2030782578004D756C7469706C652C
:1024600020282564292043415220636861726163FA
:1024700074657269737469637320666F756E642C1A
:10248000207573696E67207468652066697273745D
:102490002E00556E65787065637465642043415203
:1024A0002063686172616374657269737469632023
:1024B00076616C7565206C656E677468202825648C
:1024C000292C2073746F726520302E00436F756C59
:1024D00064206E6F74206163717569726520636F2B
:1024E0006E6E5F7374617465207573657220666CBF
:1024F0006167732E20496E63726561736520424C7B
:10250000455F434F4E4E5F53544154455F555345CD
:10251000525F464C41475F434F554E5420696E20F1
:1025200074686520626C655F636F6E6E5F73746163
:102530007465206D6F64756C652E00546865206C41
:102540006F63616C206461746162617365206861AE
:1025500073206368616E6765642C20736F20736FEE
:102560006D6520737562736372697074696F6E73E1
:1025700020746F206E6F74696669636174696F6E31
:102580007320616E6420696E6469636174696F6E43
:102590007320636F756C64206E6F742062652072A7
:1025A0006573746F72656420666F7220636F6E6E00
:1025B0005F68616E646C65202564006773636D5F9E
:1025C0006C6F63616C5F64625F63616368655F61C8
:1025D00070706C7928292072657475726E6564203C
:1025E00025732077686963682073686F756C642051
:1025F0006E6F742068617070656E2E20636F6E6EF2
:102600005F68616E646C653A202564006773636D72
:102610005F736572766963655F6368616E67656441
:102620005F696E645F73656E6428292072657475D6
:10263000726E656420257320666F7220636F6E6E04
:102640005F68616E646C653A2025640043415220E6
:10265000636861722076616C756520636F756C6468
:102660006E27742062652073746F7265642028651C
:1026700072726F723A202573292E2052656174742C
:10268000656D70742077696C6C2068617070656E20
:10269000206F6E20746865206E65787420636F6E9D
:1026A0006E656374696F6E2E00706565725F6D6133
:1026B0006E616765725F67636D0000000100010075
:1026C00010280300010001001428030073645F62F6
:1026D0006C655F67617474735F7379735F61747441
:1026E000725F73657428292072657475726E6564F3
:1026F000204E52465F4552524F525F494E56414C12
:1027000049445F4441544120666F72204E554C4C01
:1027100020706F696E7465722077686963682073D2
:10272000686F756C64206E65766572206861707084
:10273000656E2E20636F6E6E5F68616E646C653AC5
:102740002025640044696420616E6F74686572209E
:10275000746872656164206D616E6970756C617416
:102760006520504D5F504545525F444154415F499B
:10277000445F474154545F4C4F43414C20666F7255
:1027800020706565725F696420256420617420741F
:1027900068652073616D652074696D653F207064A4
:1027A000625F77726974655F6275665F72656C659A
:1027B00061736528292072657475726E65642025C1
:1027C000732E0073645F626C655F67617474735F1E
:1027D000696E697469616C5F757365725F68616E5B
:1027E000646C655F67657428292072657475726E04
:1027F00065642025732077686963682073686F7546
:102800006C64206E6F742068617070656E2E0000BD
:1028100001000000000000007064735F7065657265
:102820005F646174615F73746F72652829207265DB
:102830007475726E6564202573207768696C6520F5
:1028400073746F72696E6720736572766963652051
:102850006368616E676564737461746520666F7226
:1028600020706565722069642025642E007065659E
:10287000725F6D616E616765725F6773636D007033
:102880006565725F6D616E616765725F696D00732A
:10289000645F626C655F6761705F646174615F6CE7
:1028A000656E6774685F7570646174652829202897
:1028B0007265717565737429206F6E20636F6E6E1B
:1028C000656374696F6E2030782578207265747541
:1028D000726E65642025732E0054686520726571E0
:1028E0007565737465642054582F52582070616365
:1028F0006B6574206C656E67746820697320746FF3
:102900006F206C6F6E672062792025752F257520EA
:102910006F63746574732E005468652072657175F9
:10292000657374656420636F6D62696E6174696F4D
:102930006E206F6620545820616E642052582070BB
:1029400061636B6574206C656E677468732069736E
:1029500020746F6F206C6F6E672062792025752060
:102960006D6963726F7365636F6E64732E00736459
:102970005F626C655F67617474635F6578636861EB
:102980006E67655F6D74755F7265717565737428C8
:10299000292072657475726E65642025732E00732C
:1029A000645F626C655F67617474735F65786368A8
:1029B000616E67655F6D74755F7265706C792829EB
:1029C0002072657475726E65642025732E006E72B8
:1029D000665F626C655F6761747400436F756C64F9
:1029E000206E6F7420696E697469616C697A652004
:1029F000666C6173682073746F726167652E206600
:102A000064735F72656769737465722829207265E3
:102A10007475726E656420307825782E00436F756A
:102A20006C64206E6F7420696E697469616C697A78
:102A30006520666C6173682073746F726167652EC0
:102A4000206664735F696E697428292072657475E5
:102A5000726E656420307825782E00436F756C6443
:102A6000206E6F74207772697465206461746120D0
:102A7000746F20666C6173682E206664735F726584
:102A8000636F72645F7B77726974657C7570646173
:102A900074657D28292072657475726E65642030B6
:102AA0007825782E20706565725F69643A20256408
:102AB00000436F756C64206E6F742064656C657480
:102AC00065207065657220646174612E2066647390
:102AD0005F66696C655F64656C6574652829207242
:102AE000657475726E6564203078257820666F7223
:102AF00020706565725F69643A20256400706565C1
:102B0000725F6D616E616765725F70647300000073
:102B1000E1F50200CD0903004DDE020019DA0200E2
:102B2000504D5F4255464645525F494E495428290B
:102B30002072657475726E65642025732E00536F64
:102B40006D652070656572206461746120776173C2
:102B5000206E6F742070726F7065726C792077725E
:102B6000697474656E20746F20666C6173682E20C2
:102B700077726974655F6275665F73746F726528DA
:102B8000292072657475726E656420257320666FE6
:102B90007220706565725F69643A20256400706414
:102BA000625F77726974655F6275665F72656C6596
:102BB00061736528292072657475726E65642025BD
:102BC000732077686963682073686F756C64206E22
:102BD0006F742068617070656E2E20706565725F1D
:102BE00069643A2025642C20646174615F69643AE9
:102BF00020256400506565722049442025642077B3
:102C00006173206E6F742070726F7065726C7920C2
:102C100072656C65617365642E207064735F7065A6
:102C200065725F69645F66726565282920726574E4
:102C300075726E65642025732E20706565725F69FC
:102C4000643A2025640043616E6E6F742073746F64
:102C50007265206461746120746F20666C617368B2
:102C6000206265636175736520706D5F627566666D
:102C700065725F7074725F676574282920636F7571
:102C80006C64206E6F74207265747269657665205D
:102C900052414D206275666665722E20497320622E
:102CA0006C6F636B5F6964202564206E6F742061B4
:102CB0006C6C6F63617465643F00706565725F6D15
:102CC000616E616765725F70646200706D5F6275EE
:102CD000666665725F7074725F6765742829206329
:102CE0006F756C64206E6F7420726574726965769E
:102CF000652052414D206275666665722E20626CB9
:102D00006F636B5F69643A202564007064735F7061
:102D10006565725F646174615F73746F72652829A1
:102D20002072657475726E65642025732E2070653F
:102D300065725F69643A20256400000001000600A6
:102D400008350020706D5F696E697400706D5F708A
:102D5000656572735F64656C6574650025732066D4
:102D600061696C6564206265636175736520706478
:102D7000735F696E697428292072657475726E6557
:102D8000642025732E002573206661696C656420BC
:102D900062656361757365207064625F696E6974F2
:102DA00028292072657475726E65642025732E0063
:102DB0002573206661696C65642062656361757363
:102DC0006520736D5F696E6974282920726574755A
:102DD000726E65642025732E002573206661696C10
:102DE0006564206265636175736520736D645F69F6
:102DF0006E697428292072657475726E6564202569
:102E0000732E002573206661696C656420626563BA
:102E1000617573652067636D5F696E697428292029
:102E200072657475726E65642025732E002573209B
:102E30006661696C656420626563617573652067AE
:102E400073636D5F696E6974282920726574757289
:102E50006E65642025732E00436F756C64206E6F61
:102E600074207570646174652072616E6B2E2070C1
:102E700064625F7261775F73746F72652829207274
:102E8000657475726E65642025732E207065657299
:102E90005F69643A20256400436F756C64206E6F2F
:102EA000742072657472656976652072616E6B73E9
:102EB0002E207064625F706565725F646174615F2B
:102EC0006C6F616428292072657475726E65642068
:102ED00025732E20706565725F69643A2025640051
:102EE00025732829206661696C65642062656361C9
:102EF00075736520612063616C6C20746F20706D48
:102F00005F706565725F64656C6574652829207201
:102F1000657475726E65642025732E207065657208
:102F20005F69643A20256400706565725F6D616E4B
:102F30006167657200706D5F636F6E6E5F7365636E
:102F40007572652829206661696C65642062656315
:102F50006175736520616E20534D502074696D65F5
:102F60006F75742069732070726576656E74696E12
:102F700067207365637572697479206F6E20746859
:102F800065206C696E6B2E20446973636F6E6E658D
:102F90006374696E6720636F6E6E5F68616E646CE8
:102FA000652025642E0073645F626C655F676170E5
:102FB0005F646973636F6E6E656374282920726540
:102FC0007475726E6564202573206F6E20636F6E5A
:102FD0006E5F68616E646C652025642E00706D5FA5
:102FE000636F6E6E5F736563757265282920666115
:102FF000696C6564206265636175736520746865DA
:103000002073746F726564206461746120666F72EE
:1030100020636F6E6E5F68616E646C65202564204E
:10302000646F6573206E6F7420686176652061201F
:1030300076616C6964206B65792E00706D5F636FDB
:103040006E6E5F7365637572652829206661696CB1
:103050006564206265636175736520636F6E6E5F82
:1030600068616E646C65202564206973206E6F74DE
:1030700020612076616C696420636F6E6E65637495
:10308000696F6E2E00417373657274696E672E20CE
:10309000706D5F636F6E6E5F73656375726528290F
:1030A0002072657475726E6564202573206F6E20C2
:1030B000636F6E6E5F68616E646C652025642E00C0
:1030C0003234030039340300403403004D3403002C
:1030D0006A3403007734030084340300953403001A
:1030E000A5340300AF340300BC340300CB34030029
:1030F000013503000E35030019350300E6340300E3
:10310000F1340300F9340300417474656D7074691F
:103110006E6720746F20636C65616E20666C6173EE
:10312000682E0044656C6574696E67206C6F776506
:1031300073742072616E6B656420706565722028FF
:10314000706565725F69643A20256429005468657A
:10315000726520617265206E6F20706565727320E4
:10316000746F2064656C6574652E0050656572200F
:1031700072616E6B732066756E6374696F6E616CDD
:103180006974792069732064697361626C65642C69
:1031900020736F206E6F2070656572732061726599
:1031A0002064656C657465642E0041737365727488
:1031B000696E672E00436F6E6E656374696F6E2073
:1031C000736563757265643A20726F6C653A202589
:1031D000732C20636F6E6E5F68616E646C653A205D
:1031E00025642C2070726F6365647572653A2025C2
:1031F0007300436F6E6E656374696F6E20736563F1
:103200007572697479206661696C65643A20726FC1
:103210006C653A2025732C20636F6E6E5F68616E5B
:10322000646C653A20307825782C2070726F636565
:10323000647572653A2025732C206572726F723A3C
:1032400020256400466C6173682073746F72616737
:10325000652069732066756C6C00556E65787065C5
:103260006374656420666174616C206572726F724C
:10327000206F636375727265643A206572726F7253
:103280003A202573002C206E6F206368616E67659D
:1032900000506565722064617461207570646174AA
:1032A000656420696E20666C6173683A207065659C
:1032B000725F69643A2025642C20646174615F69DF
:1032C000643A2025732C20616374696F6E3A20255F
:1032D0007325730050656572206461746120757098
:1032E0006461746564206661696C65643A20706528
:1032F00065725F69643A2025642C20646174615FA3
:1033000069643A2025732C20616374696F6E3A20DA
:1033100025732C206572726F723A202573005065F8
:1033200065722064656C657465642073756363659C
:10333000737366756C6C793A20706565725F696449
:103340003A20256400506565722064656C65746977
:103350006F6E206661696C65643A20706565725FA6
:1033600069643A2025642C206572726F723A2025B8
:103370007300416C6C2070656572732064656C65C8
:103380007465642E00416C6C207065657220646504
:103390006C6574696F6E206661696C65643A20655E
:1033A00072726F723A202573004C6F63616C204417
:1033B0004220636F756C64206E6F742062652061BB
:1033C00070706C6965643A20636F6E6E5F68616EE1
:1033D000646C653A2025642C20706565725F6964B1
:1033E0003A20256400466C617368206761726261EF
:1033F000676520636F6C6C656374696F6E206661CE
:10340000696C65642077697468206572726F7220D8
:1034100025732E00556E6578706563746564205061
:103420004D206576656E742049443A2030782578C1
:103430002E005570646174650044656C65746500A8
:103440004F75746461746564202830290053657277
:1034500076696365206368616E6765642070656E78
:1034600064696E6720666C6167004F75746461748F
:10347000656420283229004F757464617465642086
:10348000283329004170706C69636174696F6E2024
:10349000646174610052656D6F746520646174616C
:1034A0006261736500506565722072616E6B0042E7
:1034B0006F6E64696E672064617461004C6F636154
:1034C0006C2064617461626173650043656E74723F
:1034D000616C2061646472657373207265736F6CD4
:1034E0007574696F6E00456E6372797074696F6E82
:1034F00000426F6E64696E670050616972696E6741
:1035000000496E76616C696420526F6C650050658D
:10351000726970686572616C0043656E7472616C8B
:1035200000706565725F6D616E616765725F68618D
:103530006E646C657200436F756C64206E6F7420EE
:10354000636C65616E2075702061667465722066BB
:1035500061696C656420626F6E64696E6720707269
:103560006F6365647572652E207064625F7772693F
:1035700074655F6275665F72656C65617365282945
:103580002072657475726E65642025732E20636FDA
:103590006E6E5F68616E646C653A2025642E007300
:1035A000645F626C655F6761705F7365635F696EBE
:1035B000666F5F7265706C79282920726574757208
:1035C0006E6564204E52465F45524F525F494E56DB
:1035D000414C49445F53544154452C2077686963FA
:1035E0006820697320616E6572726F7220756E6CEF
:1035F00065737320746865206C696E6B2069732035
:10360000646973636F6E6E656374696E672E0043E1
:103610006F756C64206E6F7420636F6D706C657471
:103620006520656E6372797074696F6E2070726F59
:103630006365647572652E2073645F626C655F6795
:1036400061705F7365635F696E666F5F7265706CF2
:103650007928292072657475726E65642025732E31
:1036600020636F6E6E5F68616E646C653A202564DE
:103670002C20706565725F69643A2025642E0052C3
:10368000414D2062756666657220666F72206E65B8
:103690007720626F6E642077617320756E6176614A
:1036A000696C61626C652E207064625F7772697408
:1036B000655F6275665F6765742829207265747539
:1036C000726E65642025732E20636F6E6E5F686175
:1036D0006E646C653A2025642E00436F756C64201F
:1036E0006E6F7420616C6C6F63617465206E6577BA
:1036F00020706565725F696420666F7220696E6311
:103700006F6D696E6720626F6E642E00436F756C1B
:1037100064206E6F742073746F726520626F6E64C4
:103720002E207064625F77726974655F6275665F90
:1037300073746F726528292072657475726E656482
:103740002025732E20636F6E6E5F68616E646C65FA
:103750003A2025642C20706565725F69643A2025E3
:103760006400436F756C64206E6F742072657472B0
:10377000696576652052414D2062756666657220E6
:10378000666F7220696E636F6D696E6720626F6E1F
:10379000642E207064625F77726974655F6275661B
:1037A0005F67657428292072657475726E65642080
:1037B00025732E20636F6E6E5F68616E646C653A70
:1037C00020256400696D5F626C655F616464725F8F
:1037D00067657428292072657475726E656420258A
:1037E000732E20636F6E6E5F68616E646C653A2045
:1037F00025642E204C696E6B20776173206C696B99
:10380000656C7920646973636F6E6E65637465645B
:103810002E00706565725F6D616E616765725F73C2
:103820006D640043616E6E6F7420736563757265BD
:10383000206C696E6B206265636175736520612021
:1038400070726576696F75732073656375726974DC
:10385000792070726F63656475726520656E64654A
:103860006420696E2074696D656F75742E204469DB
:1038700073636F6E6E65637420616E64207265742D
:1038800072792E20736D645F706172616D735F7207
:1038900065706C792829206F7220736D645F6C6984
:1038A0006E6B5F7365637572652829207265747528
:1038B000726E6564204E52465F4552524F525F54BD
:1038C000494D454F55542E20636F6E6E5F68616E93
:1038D000646C653A20256400436F756C64206E6FDC
:1038E0007420706572666F726D207365637572699E
:1038F00074792070726F6365647572652E20736DC4
:10390000645F706172616D735F7265706C79282994
:10391000206F7220736D645F6C696E6B5F7365639B
:1039200075726528292072657475726E656420252C
:10393000732E20636F6E6E5F68616E646C653A20F3
:10394000256400436F756C64206E6F74207065721F
:10395000666F726D20736563757269747920707219
:103960006F6365647572652E20736D645F6C696E3C
:103970006B5F736563757265282920726574757253
:103980006E65642025732E20636F6E6E5F68616EB6
:10399000646C653A20256400706565725F6D616EC8
:1039A000616765725F736D0050EADA308883B89F93
:1039B000604F15F30000C98E54686520626F6F7404
:1039C0006C6F6164657220686173207772697465D9
:1039D0002070726F746563746564206974732073FA
:1039E000657474696E677320706167652E20546812
:1039F00069732070726F686962697473207365748B
:103A000074696E6720746865206164766572746994
:103A100073696E67206E616D652E20546865206243
:103A20006F6F746C6F61646572206D757374206262
:103A30006520636F6D70696C6564207769746820B8
:103A40004E52465F424C5F53455454494E47535F74
:103A5000504147455F50524F544543543D302074C8
:103A60006F20616C6C6F772073657474696E67206A
:103A7000746865206164766572746973696E672025
:103A80006E616D652E00010000070000B017030095
:103A9000B817030008000000A0170300B0170300C8
:103AA0000800000088170300A017030008000000AA
:103AB0006E72665F7364680073645F626C655F63F7
:103AC00066675F73657428292072657475726E6508
:103AD00064202573207768656E20617474656D704D
:103AE00074696E6720746F2073657420424C455F63
:103AF000434F4E4E5F4346475F4741502E0073642D
:103B00005F626C655F6366675F7365742829207206
:103B1000657475726E6564202573207768656E2004
:103B2000617474656D7074696E6720746F2073655D
:103B30007420424C455F4741505F4346475F524FB8
:103B40004C455F434F554E542E0073645F626C6565
:103B50005F6366675F736574282920726574757288
:103B60006E6564202573207768656E2061747465C6
:103B70006D7074696E6720746F2073657420424C99
:103B8000455F434F4D4D4F4E5F4346475F56535F32
:103B9000555549442E0073645F626C655F636667C8
:103BA0005F73657428292072657475726E65642070
:103BB0002573207768656E20617474656D70746913
:103BC0006E6720746F2073657420424C455F4741D7
:103BD0005454535F4346475F415454525F544142EB
:103BE0005F53495A452E0073645F626C655F63667C
:103BF000675F73657428292072657475726E6564D9
:103C0000202573207768656E20617474656D70740B
:103C1000696E6720746F2073657420424C455F475E
:103C2000415454535F4346475F53455256494345B9
:103C30005F4348414E4745442E00496E73756666A2
:103C4000696369656E742052414D20616C6C6F63CD
:103C50006174656420666F722074686520536F66B6
:103C6000744465766963652E004368616E676520FC
:103C70007468652052414D207374617274206C6FBA
:103C8000636174696F6E2066726F6D20307825787D
:103C900020746F20307825782E004D6178696D751D
:103CA0006D2052414D2073697A6520666F722061E4
:103CB00070706C69636174696F6E2069732030780D
:103CC00025782E0073645F626C655F656E61626C5F
:103CD0006528292072657475726E65642025732EBF
:103CE000000000005C160300A4160300080000009A
:103CF0006E72665F7364685F626C6500A416030091
:103D0000BC160300080000006E72665F7364685F93
:103D1000736F630020202020202020202068282886
:103D20002828202020202020202020202020202083
:103D3000202020204810101010101010101010100B
:103D400010101010848484848484848484841010EB
:103D50001010101010818181818181010101010108
:103D60000101010101010101010101010101011034
:103D700010101010108282828282820202020202DD
:103D80000202020202020202020202020202021005
:103D900010101020000703200417020108571040DC
:103DA00080000000483F03000C3E0300203F03005A
:103DB00053756E004D6F6E00547565005765640055
:103DC0005468750046726900536174000000000079
:103DD0004A616E00466562004D617200417072007A
:103DE0004D6179004A756E004A756C004175670037
:103DF000536570004F6374004E6F76004465630036
:103E000000000000414D00504D000000443F030001
:103E1000403F0300403F0300403F0300403F03009A
:103E2000403F0300403F0300403F0300403F03008A
:103E3000403F0300FFFFFFFFFFFFFFFFFFFFFFFF0C
:103E4000FFFF0000803E0300B03D0300BC3E0300C6
:103E5000D03D0300043E0300643E0300143F030012
:103E6000703E0300256D2F25642F2579000000008A
:103E70002561202562202565202554202559000034
:103E800053756E646179004D6F6E6461790054758D
:103E90006573646179005765646E65736461790068
:103EA000546875727364617900467269646179005F
:103EB0005361747572646179000000004A616E7527
:103EC000617279004665627275617279004D617246
:103ED000636800417072696C004D6179004A756ECB
:103EE00065004A756C790041756775737400536598
:103EF0007074656D626572004F63746F6265720005
:103F00004E6F76656D62657200446563656D6265CE
:103F10007200000025483A254D3A25530000000064
:103F200045140300611403006D14030079140300A9
:103F300095140300A1140300AD140300BB14030087
:103F4000000000002E00000043000000504F5349C5
:043F50005800000015
:103F5400000000000020004000000000002000409D
:103F64000000000000000000FF0000000090D003EB
:103F740000100140110004000A180100FFFF0100B5
:103F8400FFFFFFFFFFFFFFFFFFFFFFFFFFFFFFFF3D
:103F94001818181818181818A43D0300A43D030095
:0C3FA400A43D0300A43D0300A43D030065
:0400000320007379ED
:00000001FF
