:020000040003F7
:10AC00003834002061AE030073AE030075AE03005C
:10AC10000000000000000000000000000000000034
:10AC200000000000000000000000000077AE0300FC
:10AC3000000000000000000079AE03007BAE0300BE
:10AC40007DAE03007DAE03007DAE03007DAE03004C
:10AC50007DAE03000000000021C303007DAE0300B1
:10AC60007DAE03007DAE03007DAE03007DAE03002C
:10AC70007DAE03007DAE03007DAE03007DAE03001C
:10AC80007DAE03001DBC03007DAE03007DAE03005E
:10AC900033BC03007DAE03001DC503007DAE030081
:10ACA0007DAE03007DAE0300000000000000000048
:10ACB0000000000000000000000000000000000094
:10ACC00000F002F800F03EF80CA030C80838241854
:10ACD0002D18A246671EAB4654465D46AC4201D1D4
:10ACE00000F030F87E460F3E0FCCB64601263342C8
:10ACF00000D0FB1AA246AB4633431847D02F0000C2
:10AD0000F02F0000103A02D378C878C1FAD8520761
:10AD100001D330C830C101D504680C607047000011
:10AD20000023002400250026103A01D378C1FBD867
:10AD3000520700D330C100D50B6070471FB51FBD4F
:10AD400010B510BD02F07AFF1146FFF7F7FF00F0D3
:10AD5000BAF802F092FF03B4FFF7F2FF03BC02F06F
:10AD600099FF0000026882F30888436818470000D2
:10AD7000401E00BF00BF00BF00BF00BF00BF00BF3C
:10AD800000BF00BF00BF00BF00BFF1D1704700008F
:10AD900070B505460C46164602E00FCC0FC5103EB6
:10ADA000102EFAD2082E02D303CC03C5083E042E7F
:10ADB00007D301CC01C5361F03E021782970641C3C
:10ADC0006D1C761EF9D270BD10B500F01DF800287C
:10ADD00005D01F491D484860C8131E4988611E4898
:10ADE000018CC9B201290ED1818C09070BD1018DCB
:10ADF0000906090F042906D1808D0006000F02D133
:10AE000016490120886010BD1348018CC9B2012980
:10AE100017D1818C090714D1018D09060A0F03D1BE
:10AE2000828D1206120F0ED0090F012903D1828DD7
:10AE30001206120F07D0032903D1808D0006000FE0
:10AE400001D000207047012070470000DFFF07C0DD
:10AE500000050040006C0040C00F00F000060040FC
:10AE60000A48026803210A430260094880470948EA
:10AE70000047FEE7FEE7FEE7FEE7FEE7FEE700002D
:10AE800005480649064A074B704700002405004064
:10AE9000C9AD0300C1AC03003828002038340020BD
:10AEA000382C0020382C002001206F49C005C860D4
:10AEB00000F0A4F80A4601466C48FFF7F5FF10B50C
:10AEC00001F0A2FC10BD08B5694901200860091D08
:10AED000086067492C390860654908310860654891
:10AEE00001680524A403A14218D14069EB2189021D
:10AEF000884216D10120000700690125AD02A84251
:10AF000012D15D4800905D4B05220321002000F026
:10AF1000B6FE00280DD05AA2982108E058A2D521EB
:10AF200004E057A2D72101E055A2D8210020FFF765
:10AF3000BBFF52490120143901F032FA002802D037
:10AF40004FA28D21F3E70320494900040839086026
:10AF50004E4B50224E49082001F0BCFA002802D086
:10AF600047A2BB21E3E74B4801F0D0FA002802D00A
:10AF700043A2BE21DBE7464A14215032082001F0EB
:10AF8000D5F8002802D03EA2C621D0E7364E30695F
:10AF9000C00CC007C00F04D0204600F042FA0028C1
:10AFA0000AD1F56000F0BDFA002802D034A2E921F0
:10AFB000BDE70A2000F02AF8204600F032FA002807
:10AFC0000ED0152000F022F8162000F01FF80A20FD
:10AFD00000F01CF8172000F019F8204600F0CDFA18
:10AFE000152000F013F8162000F010F80A2000F0E9
:10AFF0000DF8172000F00AF800F000F8BFF34F8FAB
:10B0000026492548C860BFF34F8FFEE701218140E4
:10B010001548816070471CB501910090204A0821B5
:10B02000684601F097F81CBD10B500211D4A08467E
:10B0300001F090F810BD10B50246082905D0FF2197
:10B0400019A214310020FFF72FFF116850688847BC
:10B0500010BD10B5002904D01FA298210020FFF7D1
:10B0600023FF01F0F9F910BD00050050EFBEADDE81
:10B07000540700500010001017B0030000210020FA
:10B080002E2E5C6D61696E2E6300000029B00300F6
:10B0900040230020BFAE03000400FA0500ED00E0ED
:10B0A00037B0030053B003002E2E5C2E2E5C2E2EE4
:10B0B0005C2E2E5C2E2E5C496E636C7564655C6143
:10B0C00070705F636F6D6D6F6E5C6170705F7469DF
:10B0D0006D65722E680000002E2E5C2E2E5C2E2ECA
:10B0E0005C2E2E5C2E2E5C496E636C7564655C7301
:10B0F000645F636F6D6D6F6E5C736F6674646576AD
:10B100006963655F68616E646C65722E680000003B
:10B1100010460A4610B5B1494C68042C03D1022AE6
:10B1200001D1002806D0002803D0ADA24D21FFF7A1
:10B13000BBFE10BD8A69002AFBD01946904710BD9E
:10B1400010B5A64B01201870032000F0A3F910BD24
:10B1500010B5A24C2078002801D0082010BD6069ED
:10B1600000F061FE002803D09DA27021FFF79CFE35
:10B170000F2100224904606900F01AFE041E03D06A
:10B1800097A27321FFF790FE204610BDF0B59A49B3
:10B1900087B09848914D086000246C702946974FFD
:10B1A0006C802431944801F0DCFC00281CD105207F
:10B1B000294680032431486028460146496AC16116
:10B1C0001C309B264760760202A800F0FFF9049825
:10B1D000FE2802D13868401C0ED0804831461C3011
:10B1E00001F00BFD002802D06C6007B0F0BD02201A
:10B1F000019A009900F04EF97848814A00211430F4
:10B2000000F08FFD002803D075A2A421FFF74CFEAB
:10B210000F2100224904686900F0CAFD002803D00C
:10B220006FA2A821FFF740FEEE6001202C6168604C
:10B230000020DAE769498861704770B5674C0546B8
:10B24000E068854201D90C2070BDA80701D0062016
:10B2500070BD6068012801D0082070BDFFF778FF3D
:10B260000028FAD10221A560616070BD70B50500AB
:10B2700004D0287A800703D0102070BD0E2070BD46
:10B28000564C6068022805D0032803D0042803D058
:10B29000082070BD042060606868A168860020698D
:10B2A0008019884204D90020C04320610C2070BD61
:10B2B000FFF74EFF0028FAD14848A96832461C30F3
:10B2C000236901F06AFC0028F1D121698919216103
:10B2D000A2689142EBD0092070BDF8B53F4C0546FD
:10B2E0006068022802D0032805D101E003206060D5
:10B2F0002069002801D00820F8BDFFF729FF0028A9
:10B30000FAD13D4B0021403B08E0AA688E009659D7
:10B3100062789700521CDE516270491C6A688A424A
:10B32000F3D8F8BD70B52D4C6068042805D1052010
:10B330006060A1682069884201D0082515E0FFF708
:10B3400007FF050011D100222C48A16801F060F828
:10B3500029496080403962780988002A03D08842F0
:10B3600001D00B2070BD06206060284670BD3EB540
:10B370001A4C6068062802D0082528463EBD606940
:10B3800000F051FD002804D0FF2115A29531FFF7F0
:10B390008BFD1248A168243001F02FFC002804D056
:10B3A000FF210FA29931FFF77FFD0C4800231C30CD
:10B3B00041680830A26801F0F0FB0500DDD1009083
:10B3C00061886A469180A2680292019900F062F851
:10B3D000D3E710B5042000F05DF810BD0420002074
:10B3E0002E2E5C6466755F6475616C5F62616E6B66
:10B3F0002E63000011B1030020250020007602001A
:10B4000041B1030010B57B480368012B02D102292A
:10B4100000D10160100003D077A23421FFF744FD72
:10B4200010BD38B505250024AD03A84215D16846E6
:10B4300000F0FCF80098016801290ED181880029EC
:10B4400008D0C1680022284600F0E2FF00998988F0
:10B45000814201D1012400E00024204638BD10B50E
:10B46000044664481021001D01F041FB002803D070
:10B4700061A28521FFF718FD5E48002310222146B6
:10B48000001D01F0AEFA002803D05BA28B21FFF76C
:10B490000BFD10BD17B581B0684600F0C7F80199E3
:10B4A0005948544C002913D003291CD0FE220129ED
:10B4B00023D002292CD0042909D101F027FD00282E
:10B4C00003D04DA2BE21FFF7EFFC042020601FBD7A
:10B4D0006946098981800399C1600121FF22826048
:10B4E0000160216010E001F011FD002803D042A2AC
:10B4F000A421FFF7D9FC0320E8E700218180026046
:10B50000C1600099896881603F48FFF7A8FF1FBDAF
:10B5100000990B6803608B888380C9688260C16072
:10B52000F2E73EB5394800901020019001200290CA
:10B5300001F0D0F900281FD12E496846091D01F0FD
:10B54000F2F9002818D1FFF721FE002814D101F0EC
:10B55000DAFD0546274C3DDF002803D02CA246210A
:10B56000FFF7A2FC00F06CFE2068022803D003283D
:10B5700001D00428EFD128463EBD70B511DF002868
:10B5800004D0FF211CA20A31FFF78EFC24490020C1
:10B590000B68234C012180340A4682401A4204D0B1
:10B5A000C506ED0E0A46AA402260401CC0B2202803
:10B5B000F2D313DF002804D0FF210FA20F31FFF7D1
:10B5C00073FC0520800300F02DF870BD1FB50949FC
:10B5D000044600231022091D684601F045FA009830
:10B5E000206068468088A0800398E0600298A06090
:10B5F0001FBD0000302000202E2E5C626F6F746C27
:10B600006F616465722E63002C25002005B4030071
:10B610002E2E5C626F6F746C6F616465722E6300B6
:10B6200000E100E010B5FFF79DFB10BD014901608E
:10B630007047000000FC030030B585B0002822D020
:10B640000388F74CA34220D0F64B1B78002B1CD06C
:10B65000F44B10255B1C1D705970002401259A7055
:10B66000032269460A820094019402940394C289D9
:10B670000A808D708C8004A902910393008869462A
:10B68000A6DF05B030BD0E20FBE70820F9E7F0B5D6
:10B6900089B004460227684607730D468783608A8F
:10B6A00008AB07AA0021A5DF0026002804D0616AA4
:10B6B000002917D0884715E06846008CC007C00FE6
:10B6C00010D068460682208803A9A8DF002810D180
:10B6D000A97E0B0002F0E5FA093A0F11191B1D1F94
:10B6E00038223A00FF20FE3069460882208803A9EC
:10B6F000A8DF09B0F0BD009601E001200CE0226A4D
:10B700006946204690470020F3E70097F7E70320BB
:10B7100002E0042000E005200090F0E7288B0328D9
:10B7200005D2032208212046FFF786FFE1E7287FA4
:10B73000E97E000208436946888003D00620009015
:10B74000226ADEE70720FAE70920E5E70322EAE7B5
:10B7500030B585B00D46040032D0002D30D02868B9
:10B7600000282DD00020C043AF4B20800FCB049386
:10B7700001AB07C3AD486946088001A8811E62DF9E
:10B7800000281CD1A21C69460120A0DF002816D188
:10B79000684680782071204600F0C0F800280ED15D
:10B7A000204600F0FBF8002809D12868206268686C
:10B7B000002800D060629B4901200870002060E7EB
:10B7C0000E205EE73EB5002820D000291ED0026A78
:10B7D000002A1BD00A88102A19D0112A28D0502AF2
:10B7E00017D0512A12D104468879891D02280DD11B
:10B7F0004888E289904209D12046891CFFF747FF1B
:10B80000002803D0616A002900D088473EBD89889E
:10B8100010E0CA88C3889A42F8D1082200928A7F31
:10B820006B461A7120310291026A694690473EBD0B
:10B830000021C94301803EBDF0B585B00A46050030
:10B840002DD02888764988422BD076480078002869
:10B8500027D0744C1020641C2070072060700127D2
:10B86000A7700321684601820026E11C104600F003
:10B870004CF801466846008A09186846018200961D
:10B88000019602960396E98901808770868004A854
:10B890000394029028886946A6DF05B0F0BD0E200B
:10B8A000FBE70820F9E7F0B585B00A46050028D087
:10B8B00028885B49884226D05A480078002822D040
:10B8C000584C1120641C207001276846078200260E
:10B8D000611C104600F019F801466846008A0918F4
:10B8E000684601820096019602960396E9890180D6
:10B8F0008770868004A80394029028886946A6DF92
:10B90000CBE70E20C9E70820C7E70870020A4A7093
:10B91000020C8A70000EC8700420704730B58FB0DA
:10B9200005461C21684602F0C6F8694608780421DD
:10B930000843694608700024019403940494059414
:10B940000694287908A9887038486946801C0884BC
:10B95000601C00070794000F0C77103048778A7F2F
:10B96000F9200240F720921C0240EF200240012003
:10B9700002438A77142109A802F09DF808A80990CB
:10B9800007A80A9069468C851420CC8508860D94FA
:10B990006888AB1D09AAA2DF0FB030BD30B58FB0EB
:10B9A00005461C21684602F086F869460878082199
:10B9B0000843102210436946087000240194039440
:10B9C000049405940694287908A988701748694654
:10B9D000401C0884601C00070794000F0C7710308F
:10B9E0004877887FF9210840F721801C08401043E0
:10B9F0000121084369468877142109A802F05BF801
:10BA000008A8099007A80A9069468C851720CC855C
:10BA100008860D942B4668880E3309AAA2DFBBE77F
:10BA2000FFFF00003C200020BCDC030030150000BC
:10BA30008307FF22DB0E9A408907090E99400028F0
:10BA40000BDA0007000F08388308FC489B00181821
:10BA5000C36993430B43C36170478308F8489B0055
:10BA60001B1818689043084318607047F0B5F54FED
:10BA700028217C6841430D19F9684A1C09D0282205
:10BA80004A431619AB68B268934204D8D21AB2601E
:10BA90006962F860F0BD0A4602E00A46796A9B1BBB
:10BAA0004E1C0BD028264E433719BE689E42F4D355
:10BAB00028264E433619B768FF1AB760AB60696233
:10BAC00028214A4311194862F0BDF8B5DD4CE568FC
:10BAD000681C36D0DC48002640682169401A0702FD
:10BAE0003F0A1AE02820454360682A189068B84247
:10BAF00015D863693F1A8619556A002B0AD0116A56
:10BB0000D0699847002808D0FF21D0A25531FFF70F
:10BB1000CBF902E0D169106A8847681CE2D1A178AC
:10BB2000E078814206D1401CC0B2E070022801D109
:10BB30000020E070C3490006800D18310E5000F05F
:10BB4000D3F9F8BDF8B50446BE48C16800914678FF
:10BB500056E0BC48F10082688D184BE0601C07D0AD
:10BB6000B84A282152686143204689184C6A20E06F
:10BB70002878182141436A68401CC0B252182870C6
:10BB8000A978884201D100202870AE4B5068282146
:10BB90005B684143C9181368012B2DD10B7E002B24
:10BBA0002AD19368CB60D3680B6113694B615269EA
:10BBB0000A62A44ACF681369BC46FA1A1202AF4F50
:10BBC000120ABA4202D20B69D21809E062469A1AE6
:10BBD00012020B69120A934201D99A1A00E000225C
:10BBE0008A600022CA600A6101220A76921E4A62B5
:10BBF000FFF73CFF601CB1D1287869788842ADD14D
:10BC00003046761EF6B20028A3D18E48C16800984F
:10BC1000814201D00120F8BD0020F8BD98490020E4
:10BC2000086048608860C86095494039086048608D
:10BC30004BE7F0B5002087B0C04302908148066909
:10BC4000C568684600F056F9074600F070F90446EA
:10BC5000002F08D002AA3146009800F0B0F90298EF
:10BC6000FFF770FF06E00298FFF76CFF002801D194
:10BC7000002C02D0284600F0CBF907B0F0BDFFB58C
:10BC80009807002481B01E4615460F4600280BD1A8
:10BC9000002E09D000F017F96A490A9848610F7020
:10BCA000324600204E6008E0072005B0F0BD282392
:10BCB0004343D4509B181C76401CB842F7DB282025
:10BCC0004743BB19032048700F4618468B6019463E
:10BCD0001830002218232E465E43D3005B181C70D8
:10BCE0005C709D7058603018521C032AF5DB0020F0
:10BCF000C043F860BC70FC700124624824050460F5
:10BD000003211420FFF794FE5F4804604E4C019815
:10BD1000A06003211120FFF78BFE606838610020CE
:10BD2000C3E770B5474C6568002D06D0002A06D0E1
:10BD3000002804D00023247809E0082070BD0720E3
:10BD400070BD28265E43AE59002E04D05B1CA34272
:10BD5000F7DB042070BD282401265C432E516419B2
:10BD6000E26161600360002070BD34494868C0052D
:10BD7000C00D17D0103807D50207120F083A9208E5
:10BD800092005118C96904E081082D4A8900891878
:10BD900009688007C00EC1400806800F012803D043
:10BDA000032803D00220704700207047012070470D
:10BDB000FEB504462348174642680D46002A0CD0BB
:10BDC00001788C4201D2052D01D20720FEBD21460B
:10BDD000282359435358012B01D00820FEBD881851
:10BDE000406801281BD00026FFF7BFFFC00015499F
:10BDF000019089684018694600F04DF9002810D07C
:10BE0000012112C010494968E2C00E4901988968B1
:10BE100041180098487000F067F80020FEBD2E46DB
:10BE2000E2E70420FEBDF8B5064D04466868002828
:10BE300031D029788C4229D30720F8BD00ED00E0ED
:10BE400000E400E044200020001501402E2E5C2E6E
:10BE50002E5C2E2E5C2E2E5C2E2E5C536F75726324
:10BE6000655C6170705F636F6D6D6F6E5C6170704B
:10BE70005F74696D65722E6300000000FFFF7F0034
:10BE80004011014080E200E000E100E02821614330
:10BE90004058012801D00820CFE7FFF766FFC60011
:10BEA000A8686946301800F0F6F8002809D0022189
:10BEB00012C0A86831180098487000F015F80020EA
:10BEC000BBE70420B9E710B50121924A480410608D
:10BED000914A40109060904A403A90608F4841608B
:10BEE0002F20FEF745FF10BD01208A490005803153
:10BEF0000860704710B58A4900238A78CC78A2423E
:10BF000012D0521CD2B28A70022A00D18B708A7869
:10BF1000834B920018339A58026008691018000287
:10BF2000000A0861012010BD0360002010BDF8B5B3
:10BF30007B48C1680091457833E07948E900806822
:10BF40000E1834782AE0182060437168641C0818C1
:10BF5000B178E4B2A14200D100240168022902D0E4
:10BF600003291BD113E06E4A4068282152684143DF
:10BF70008F18397E002911D000F09FF80020387604
:10BF80000CE028277843C0180276406A03E0644931
:10BF900000224B68C868471CF3D1C8607078A04283
:10BFA000D1D128466D1EEDB20028C6D15C48C168CB
:10BFB0000098814201D001203FE700203DE7F7B51E
:10BFC000574C00256768E3681EE028215943C919CA
:10BFD0008E68864202D9301A886017E0801B751976
:10BFE00000268E600E764E699C464B6AB646002E41
:10BFF0000AD0019E76193602360ACE6076460E6168
:10C0000016684E6261461160591CDED1E360FEBDC8
:10C01000F8B54349CA68531C3AD028235A434B68A1
:10C02000D21896683F4A54680F69401CE11B0D0204
:10C030002D0A0121ED1C002810D1374A0804506058
:10C04000354A403A5060384A40001060314A803AE0
:10C050001060324801602F20FEF78AFEB54200D200
:10C060003546E81900022F49000A403108602D4981
:10C070004968001B091B0902090A0002000AC91CC1
:10C08000814204D901202349400480310860D4E66C
:10C09000FFF719FFD1E642788378521C934200D112
:10C0A00000220378934201D1002070470A60416862
:10C0B0004078182250430818704770B5184DEA6848
:10C0C0006B681446114606E0814207D00A462826CE
:10C0D0007143C918496A4E1CF6D170BD002EFCD0C0
:10C0E0008A4204D128204443E018406AE8602820AE
:10C0F0004143C818282481686243406AD2185062BC
:10C10000421CEAD028225043C0188268511881602E
:10C1100070BD000080E100E04013014000100140CC
:10C12000442000200015014080E200E030B5CB0043
:10C1300008339DB293070024002B01D0072030BDA7
:10C14000564B9A605219DA605C701C705880998066
:10C15000002030BDF7B5514C82B060880F46814257
:10C160006CD80020694608704E494D4E4868C0059D
:10C17000C00D16D0103807D50207120F083A9208E2
:10C1800092005118C96904E08108474A890089185A
:10C1900009688007C00EC1400806850F012D01D136
:10C1A0000AE0042568462BDF02280BD0002803D0C4
:10C1B0003EA25921FEF778FE6078A188884203D21A
:10C1C000401C02E072B6F7E700202278C0B290422D
:10C1D00007D066786078884201DA401C00E00020D1
:10C1E0006070012D0BD062B6684600782CDF022803
:10C1F00005D0002803D02DA26121FEF755FE284866
:10C20000864219D0A068F50004994151029900298D
:10C210000CD0002F0AD060883A464643E0683018B8
:10C2200001F0EAFBA0682818878002E000212818A6
:10C230008180002005B0F0BD0420FBE70920F9E76C
:10C240000EB504E068468188029A0098904702AAD9
:10C2500001A9684600F003F80028F3D00EBD70B5C0
:10C260000E4B05245D781E78B54215D01D781C78DC
:10C270009E88B44201DA641C00E000241C705C88D3
:10C28000DE686C43A41904609B68E800C418A488A5
:10C290000C80185800241060204670BD64200020D7
:10C2A000FFFF000000ED00E000E400E02E2E5C2E19
:10C2B0002E5C2E2E5C2E2E5C2E2E5C536F757263C0
:10C2C000655C6170705F636F6D6D6F6E5C617070E7
:10C2D0005F7363686564756C65722E6300000000AF
:10C2E000F0B500220123032636041F469740394249
:10C2F00012D0C5683D4203D1012464043D4301E0EE
:10C300003446BD43C5603A4D97007D192F68B74349
:10C310002F602F6827432F60521C202AE5D3F0BDE1
:10C32000F8B53448056934490020C863074632E04F
:10C3300014213A464A434168806854180121B940A3
:10C34000014226D0E068C64320686E400640314670
:10C350002046FFF7C5FF2748006968400CD0054319
:10C36000E0682168C04368400840014600902046CC
:10C37000FFF7B6FF009806433046A168A843014086
:10C380002A4660683240104002460A4301D02269C2
:10C3900090477F1CFFB2194841788F42C8D3F8BD3F
:10C3A00010B5002903D08A070024002A01D00720F5
:10C3B00010BD124A0B465160107014215470414355
:10C3C0001846946001F077FB00200D49C043886057
:10C3D0000C48402101600C4A1068FF231B0498435D
:10C3E0000B041843106009480160002010BD0000D4
:10C3F00000070050000500504061004074200020FC
:10C400000063004080E200E004E400E000E100E0BE
:10C4100010B50446002A02D01088002210E00A4815
:10C42000FBE7030A00020343A05C584003061B0F0E
:10C4300043401803584083B21806C00C5840521CA1
:10C440008A42EED310BD0000FFFF000010B5084681
:10C450001146FEF72FFD10BDF8B5394C20780028A5
:10C4600037D02069002807D00026E068002805D0D2
:10C470000025002E04D013E00126F6E70125F8E799
:10C4800068464EDF052806D0002806D02DA2692177
:10C49000FEF70AFD04E0012602E0216900988847C2
:10C4A000002D12D1608869460880A06860DF0528E9
:10C4B00006D0002806D023A28021FEF7F5FC04E078
:10C4C000012502E0E168A0688847002ED8D0002D41
:10C4D000CFD0F8BD70B5002901D08C0701D007205E
:10C4E00070BD174C0125A16062802449636010DF94
:10C4F0000028F5D12570162023DF70BD002803D059
:10C500000F49C860002070470E207047002803D0F4
:10C510000B490861002070470E20704710B508488D
:10C520004068002808D08047002804D0FF2105A2D9
:10C530003331FEF7B9FC10BDFFF78EFF10BD0000D0
:10C54000802000202E2E5C2E2E5C2E2E5C2E2E5C4B
:10C550002E2E5C536F757263655C73645F636F6DE1
:10C560006D6F6E5C736F66746465766963655F6832
:10C57000616E646C65722E63000000004DC40300A0
:10C5800018225043FA4A00218018017181604161EC
:10C59000012281610261C1607047FFB581B0F54C35
:10C5A000049B039A054626691A4303200092002E35
:10C5B00003D1002A0ED0012222612769039A0126A5
:10C5C000360792003B0001F06CFB07270716294055
:10C5D000526127000222EFE77069326992B250433C
:10C5E000326933691204920C9BB2594351DF00281F
:10C5F00012D102210FE0084650DF00280CD1039928
:10C60000002901D0032106E00499002916D12978D8
:10C61000042946D017E0216105B0F0BD7069326988
:10C6200092B25043326993B24B4301461846039A83
:10C6300051DF0028F0D10499002901D00421EAE754
:10C640002978042920D00521E5E773693069366926
:10C6500080B2434368681B189B18B6B24E4330182B
:10C6600080181946049A51DF0028E9D0D4E73069D0
:10C6700080B24843696880188A08696951DF0028D8
:10C68000CAD1009900290CD00621C4E7706931692C
:10C6900089B24843316989B201F020FA50DF00289D
:10C6A000BAD10721B7E7F8B5B14918230A780F20A6
:10C6B0005A435418AF4922796669241DCF68022A6B
:10C6C0001BD001252D07042A2AD0052A5BD1286911
:10C6D00081B2304601F002FA0146A36828699A192E
:10C6E00080B24843101A82086068181886192869B1
:10C6F0004B1C80B25843801B34E0B8026268616909
:10C70000121A0918A3683018181801239B029A42BC
:10C7100002D2920851DF31E0FF22013251DF2DE0D9
:10C72000E268934914205043F4314018001D0BC8AF
:10C73000B04203D160685943814218D0022A16D012
:10C74000286981B2304601F0C9F90146286980B2F2
:10C750004843301A820828694B1C80B258436368EA
:10C760009B19C01A83082046FFF717FF06E02869C7
:10C7700081B2304601F0B2F9C01950DF002802D171
:10C780007B4901228A70F8BDF8B5794C069E657820
:10C790000A2D1DD027787D19EDB20A2D01D30A3D4F
:10C7A000EDB218277D432D192871AA6103C9EE60E7
:10C7B000AB6069612861A1780020002904D1FFF7EE
:10C7C00072FF112800D100206178491C6170F8BD0A
:10C7D0000420F8BD38B5024665481823017859434E
:10C7E000081803690179022B0AD014246343604CB2
:10C7F000F434E4588368009383691030A04738BD4F
:10C800005C4B14331C68F5E7F8B5594B997801294E
:10C8100014D1002557499D700A69082A05D00228BD
:10C820000FD003280AD10D2006E0022807D00D7092
:10C8300000F007FA002801D0FFF7CCFFF8BD0D612A
:10C84000F6E74B48182403784A496343CC68181824
:10C85000641CCC600379001D022B05D14668A1023F
:10C86000B14201D3012700E00027052B01D1072A9F
:10C8700003D00021042B02D003E00121FAE7072AAC
:10C8800003D00026042B02D007E00126FAE7406817
:10C89000A302834201D3002A1AD00020314301436E
:10C8A0003943C5D0334E28463561FFF793FF304CEE
:10C8B0002078FFF765FEF5606078401E6070207894
:10C8C000401CC0B220700A28B2D30A382070AFE7EB
:10C8D0000120E3E770B50025264C2548E560256179
:10C8E0000570457085702E463046FFF749FE761C70
:10C8F0000A2EF9D301221207656051692846126990
:10C90000491E92B25143E560A1601949F4310D60AE
:10C910008D600D61CD60174914310D608880012153
:10C920002170206170BDF0B5124A1378002B23D01E
:10C93000002823D0002921D00368002B1ED0012419
:10C94000240743682569ADB2AB420FD8102B0DD335
:10C950008568002D0AD092685D436669AD18276925
:10C96000BFB27E43B54201D89B0709D00720F0BD76
:10C970003C250020942000200820F8E70E20F6E750
:10C98000B84D6B68012B1BD00B604A60194614250B
:10C990006943B54D4E19726007686F504168B160C8
:10C9A0008168F16041688068002541436D1C206901
:10C9B000ADB280B2884205D2206980B2091A02E085
:10C9C0000420D4E70021206980B28218206980B257
:10C9D0008842EBD9A3485B1C82603561436000202C
:10C9E000C5E7F8B504469F481E46007815460F4631
:10C9F000002807D0002F07D0002C05D02068002881
:10CA000017D103E00820F8BD0E20F8BD9648016854
:10CA100000290ED0C268816840684A4310186268D5
:10CA2000904206D9002D04D0A94202D3A819884209
:10CA300001D90720F8BD384600F0FDF8002811D0D4
:10CA4000304600F0F8F800280CD0606800F0F3F8E9
:10CA5000002807D02B463A46214602200096FFF7D1
:10CA600093FEF8BD1020F8BDF8B507467D481E4678
:10CA7000007815460C46002807D0002C07D0002F60
:10CA800005D02068002817D103E00820F8BD0E204B
:10CA9000F8BD7548016800290ED0C26881684068F9
:10CAA0004A4310186268904206D9002D04D0A9426A
:10CAB00002D3A819884201D90720F8BD384600F0F2
:10CAC000BAF8002811D0304600F0B5F800280CD094
:10CAD000606800F0B0F8002807D060682A46811925
:10CAE000384600F089FF0020F8BD1020F8BDF8B5E9
:10CAF00005465C480F460078002805D0002D05D07B
:10CB00002868002821D103E00820F8BD0E20F8BDD8
:10CB1000554C00262068002817D0A168E0684843DB
:10CB200061684118686881420FD900F084F80028D4
:10CB30000DD0296814225143091968684A68896828
:10CB4000801A00F0CBFF002903D00720F8BD102089
:10CB5000F8BD3B460022294604200096FFF714FE4C
:10CB6000F8BD404A1278002A0DD000280DD00029C7
:10CB70000BD00268002A08D03A4A14321368002BFE
:10CB800005D004207047082070470E20704702230C
:10CB90000B600068106000207047F8B5044631480B
:10CBA0001E46007817460D46002807D0002D07D0F6
:10CBB000002C05D0206802281BD103E00820F8BD16
:10CBC0000E20F8BD274814300068002811D0084610
:10CBD00000F031F800280ED0304600F02CF8002884
:10CBE00009D03B462A46214602200096FFF7CCFD9D
:10CBF000F8BD0720F8BD1020F8BD08B5194A127815
:10CC0000002A05D0002805D00268022A11D103E0CD
:10CC1000082008BD0E2008BD124A14321268002AEE
:10CC200007D00B460022014604200092FFF7ACFD1E
:10CC300008BD072008BD800701D0002070470120F3
:10CC40007047094810B5F43840780024002807D010
:10CC5000FFF729FD040003D0112C01D0FFF7BAFD26
:10CC6000204610BD94200020302600204B48002193
:10CC700001704C484A4A02608160C160016108222B
:10CC80004161426081610846704710B500291DD09E
:10CC900000220A60434A5368002B1BD0202817D873
:10CCA0005B1E5360D0682423401CD0601069146858
:10CCB0004343E3180B60012383409169401C1943EF
:10CCC0004007400F91611061002010BD0E2010BD83
:10CCD0000C2010BD042010BDF0B5324A0646916804
:10CCE00000292AD057691020791A4907490F14687A
:10CCF0000B4624254D436519B54206D1012495699B
:10CD00008C4065400020956104E0491C4907490FAB
:10CD10008F42EED1491C4E07760F956901210C46D2
:10CD20009C4025420AD19368002B07D05B1E93607C
:10CD300053685B1C53603346F1E70420F0BD194A89
:10CD40002423117C1268491E4907490F5943203199
:10CD500050500020704770B500281AD0002918D014
:10CD6000104AD368002B16D05B1ED360936824262C
:10CD70005B1C9360536915681C467343EE1820339F
:10CD80000660E858641C08606007400F506100208E
:10CD900070BD0E2070BD042070BD0000B0200020CA
:10CDA000442600206427002010B500280BD0FD4841
:10CDB000FD49808888420FD0132176DF00280BD0F0
:10CDC000FAA2702106E00846FFF786FF002803D08C
:10CDD000F6A27621FEF768F810BD08280CD004DC16
:10CDE000002807D006280FD108E00B280AD00C280D
:10CDF0000AD105E0012070470220704703207047E8
:10CE000004207047042901D0062070470520704790
:10CE1000F0B5054608790E4685B081070AD0032291
:10CE200011462846FEF708FC002821D0FF21DFA28A
:10CE3000253146E0DB4900901031FFF726FF010065
:10CE400013D1D84CB168009A206900F0D5FD009844
:10CE5000FFF775FF002801D0014606E0D14869467A
:10CE60001030FFF778FF010004D0284600F0CEF91B
:10CE700005B0F0BD00988008029003200190206961
:10CE8000039001A8FEF7F2F907000CD0092F1BD080
:10CE90002069FFF721FF002803D00146284600F053
:10CEA000B5F93946E1E73079E18801224018E080A0
:10CEB00003212846FEF7C0FB0028D9D0FF21BBA2E2
:10CEC0005531FDF7F1FFD3E73079E188401881B2A1
:10CED000E18060780028CBD06089401E0004000CFF
:10CEE0006081C5D12846FEF7DEFC002804D0FF2172
:10CEF000AEA26631FDF7D8FF20896081B8E710B592
:10CF0000FF21AAA2A131FDF7CFFF10BD10B5A54C9E
:10CF1000A549A088884208D0132176DF002815D0C3
:10CF2000A2A2A849FDF7C0FF10E0A07800280DD00C
:10CF300074DF002804D0A349A3A2FF39FDF7B4FF92
:10CF40000120A749400588600020A07000F095FAF4
:10CF5000002804D09B4995A20931FDF7A5FF0020C8
:10CF600010BD70B50D68044601208E4A2B0000F0FC
:10CF700098FE0A333032061624464B354F23FEF70F
:10CF8000D1F90421FFF729FF024604212046FEF7CC
:10CF900053FB002810D0FF2184A2D33140E0FFF7DB
:10CFA000B5FF002804D0FF2180A2D931FDF77CFF16
:10CFB000FEF7DDF9002809D170BDFFF7A7FF0028B3
:10CFC00004D0FF2179A2E531FDF76EFFFEF701FAEB
:10CFD00070BD022000E00320D06070BDD268204602
:10CFE000012A06D0022A07D0032AF6D1FFF710FF44
:10CFF00070BD00F01EF970BD00F044F970BD5070B6
:10D0000088881081508170BD00205070108170BDE3
:10D01000D1882046FEF710FC0028F8D063A27149A1
:10D02000FDF742FF70BD10B55E4CA07800280DD111
:10D030006D4873DF002804D06A495CA21331FDF704
:10D0400033FF0120664A4105D160A07010BD70B564
:10D05000544C0588A388132D2CD00ADC634A604900
:10D06000102D18D0112D15D18A60207800281BD0E2
:10D070001CE0522D29D0552D0CD18079002809D1E2
:10D080001321184676DF002804D0564947A25C31A8
:10D09000FDF70AFF70BDCA60012252058A608088D0
:10D0A000A0800020A07070BDFFF7BDFF0020C0432E
:10D0B000A08070BD3B4A1846143200217FDF002853
:10D0C000F7D0484939A25431E2E700221146184608
:10D0D000A9DF0028EDD04D2134A2C900D8E710B552
:10D0E000044600F0FBF9404821461430FEF76AFB85
:10D0F0002046FFF7ACFF10BD10B5B7212BA2890069
:10D10000FDF7D2FE10BD10B5264888B00024C460DB
:10D11000374901200860091D0860091D086035486D
:10D12000FFF7ECF900283BD13348FEF783F8FFF70F
:10D130009DFD002834D100F0D6F8304800903048EA
:10D140000190294869461430FEF702FB002804D0FC
:10D150001C491DA23B39FDF7A7FE00F0E8F81C2191
:10D16000684600F0A8FC2748019001208003029047
:10D170000094032168460173C48104742248069018
:10D180000594684600F055F9002804D0FF210EA24E
:10D19000B831FDF789FE00F0FFF8FFF744FF0020EB
:10D1A00008B010BDB8200020FFFF00002E2E5C64E8
:10D1B00066755F7472616E73706F72745F626C65B6
:10D1C0002E6300002A0300002E2E5C6466755F74D7
:10D1D00072616E73706F72745F626C652E630000B3
:10D1E00000050050060200008027002000004000DB
:10D1F00054070050DFD00300A9CD030063CF030024
:10D20000F9D00300CD0C0000FFCE030010B50A4694
:10D21000044603211046FFF7E0FD024603212046A5
:10D22000FEF70AFA0028BCD0644AB821FDF73CFE9C
:10D23000B7E770B505460879042809D00322012113
:10D240002846FEF7F9F900281BD05C4ACC2116E0ED
:10D250008C68204600F031FCE1780002000A0906E3
:10D260000843FDF7EAFF0121FFF7B7FD0246012160
:10D270002846FEF7E1F9002803D0504ADD21FDF7EA
:10D2800013FE70BDFEB50446012000908868029030
:10D290000879002283070FD08007800F0422121A1A
:10D2A0000020034606E00E79029D3618B600401CA9
:10D2B000AB51C0B29042F6D3087980188008019033
:10D2C0006846FEF70AF80221FFF787FD02460221B1
:10D2D0002046FEF7B1F9002804D0FF21374A10316B
:10D2E000FDF7E2FDFEBD0EB5112069460872082269
:10D2F00033A102A87CDF002803D0304A3349FDF770
:10D30000D3FD002000900922694601900A800C227A
:10D310004A808880FF209130C88068467ADF0028E4
:10D3200004D05521254AC900FDF7BEFD0EBD10B53C
:10D3300092B00621684601712548017968468170DE
:10D34000244901803C2102A800F0B5FB0220029094
:10D350000024684644730121018201A805906846B3
:10D3600081830890214602A800F028FA002804D002
:10D370001649124A2831FDF797FD15481421143833
:10D3800000F099FB1248143804704460047228219C
:10D390000182448212B004E70F491E200880887879
:10D3A00001221043E1221040DF220C30104088702F
:10D3B0000720C8701020087170470000C8D1030012
:10D3C0004446553142303532000000009E020000D4
:10D3D0009427002030150000CC20002038B5674984
:10D3E000674A488890420FD04A78664C521CD2B2A5
:10D3F0004A70237B934208D3083175DF002803D09D
:10D40000A169002900D0884738BD00254D70217CD6
:10D41000002907D03B2176DF002803D0A16900292D
:10D4200000D0884761690029EED06846009588479A
:10D4300038BD70B5054601461C225248FDF7A8FCD0
:10D440004E4C002626702968002907D00822A01813
:10D4500000F0D2FA204608307ADF02E04748083070
:10D460007BDF002808D1401E608044486670464A31
:10D470000021001DFEF755FC70BD10B53F48406807
:10D48000FEF7D1FC10BDF8B53C48103000F069F84B
:10D4900000263A4D3B4C002806D06169002919D07E
:10D4A00001200090684614E02878002804D06169C3
:10D4B00000290FD00096F5E7687800280CD0A16805
:10D4C00000226868FEF774FC002803D0A1690029D7
:10D4D00000D088472E70F8BD6168F1E7F8B5294C97
:10D4E00002880027254DE689102A18D02946496868
:10D4F000112A21D0122A2DD0502A0FD1C288801D86
:10D50000B2420BD1028B022A08D1C27E837E100266
:10D510001843C007C00F13D0FFF7B5FFF8BD8188CF
:10D5200069800146154808220E31103000F064FA77
:10D530006F70002EF0D0F8BD0020C04368806F707F
:10D540000846FEF770FC0028F5D0A1690029F2D04A
:10D550008847F8BD811D09480822103000F04CFAB8
:10D56000DAE74188054808300288914204D34088B0
:10D57000814201D80120704700207047D42000204C
:10D58000FFFF0000BC270020DDD30300FFB583B000
:10D59000074600200C9C8646267805463AE07868C7
:10D5A000A90041180A88684682804988C180002203
:10D5B000694601A864DF002810D168460178059803
:10D5C000814226D17046002801D0002200E00222CC
:10D5D0002078891841181F2902D90C2007B0F0BD06
:10D5E0007146002908D1401CC0B2411C069B049A18
:10D5F00021701A5401208646217806980A18694637
:10D6000001A864DF0028E9D169462078097840182C
:10D6100020706D1C3888A842C1DC7046002804D0F8
:10D6200020780699801B401E88550020D6E7F8B563
:10D630001546069C1E46074602220094FFF7A6FFE9
:10D64000002806D133461022294638460094FFF7B9
:10D650009DFFF8BDF7B582B000260546167000683C
:10D660001446002805D02846039900F0DFF806008C
:10D670002DD1687900281BD02078039F001D1F281A
:10D6800024D8684679DF002821D121780322481C5C
:10D6900020707A5421781922481C20707A542078FE
:10D6A000C1196846008800F0BCF821784018207045
:10D6B0002989002923D001208446EA680398002A9A
:10D6C00007D0227853189B1C1F2B04D90C2005B0BF
:10D6D000F0BD0720FBE71346521C2270491CC154C1
:10D6E00022786746511C2170875423782A8918189C
:10D6F000E96800F081F92078297A401820702869BB
:10D70000002815D00021415622788C46D01C039960
:10D710001F28DBD8501C022320708B5422780A2348
:10D72000501C20708B5420786246431C23700A548E
:10D73000A88A002809D02846009406220221143025
:10D74000039BFFF774FF0600C1D1A88B002809D006
:10D7500028460094072203211C30039BFFF767FF34
:10D760000600B4D1A88C002809D0284600941522C0
:10D7700014212430039BFFF75AFF0600A7D1E86A63
:10D78000002805D02246039900F085F806009ED1B6
:10D79000286B002805D02246039900F0BBF806004C
:10D7A00095D13820405D002806D0224628460399AE
:10D7B00000F0E2F806008AD1304688E770B50D46E1
:10D7C00092B000216A46117007241171002812D00E
:10D7D0000189002905D0C168002902D009784907CC
:10D7E00002D4204612B070BD02A9FFF733FF002813
:10D7F000F8D102AE00E00026002D0BD028890028C9
:10D80000EFD101AA0AA92846FFF724FF0028E9D191
:10D810000AAA00E00022684603790178304672DFE8
:10D82000E0E70870000A487002207047F8B51478E5
:10D830000746A01C15460E461F2803D83879801CC1
:10D840001F2801D90C20F8BD1D20001B80B269469D
:10D85000864608803019801C7DDF0028F3D13868A7
:10D86000022805D168460088704501D8092107E0E3
:10D8700038790821002801D0704501D96846008810
:10D88000421C3255641CE2B2B1542978801C08183D
:10D8900028700020F8BDF8B50D4611780646881DA1
:10D8A00014461F2801D90C20F8BD33880720062B09
:10D8B000FAD31927FF01BB4202D94E4A9342F3D152
:10D8C0007288062AF0D3BA4202D94A4FBA42EBD143
:10D8D000484FBB4203D0BA4201D09342E4D8481C1F
:10D8E000052220706A5420781222411C21702A548B
:10D8F000207841193088FFF794FF21784018C0B292
:10D90000207041197088FFF78CFF21784018207033
:10D910000020F8BD70B5054600790E46801C1446FF
:10D92000C0B21178821C8A181F2A01D90C2070BD40
:10D930000A46491C2170401CB0542078FF22411C2B
:10D9400021703254207881192888FFF76AFF2178E6
:10D950004018C0B22070AA88002A09D0A9680029FE
:10D9600008D0801900F048F82078297940182070F4
:10D97000002070BD072070BDF7B582B00298144634
:10D98000406B0F46002832D00298002520300090CE
:10D9900028E00298416B0C2068430E1821783079FA
:10D9A0004A1C2270C01C785420781622411C217019
:10D9B0003A542078C1193088FFF733FF2178401896
:10D9C000C0B22070B288002A09D0B16800290ED0F8
:10D9D000C01900F011F820783179401820706D1CC2
:10D9E0000098EDB2007EA842D3D800206FE6072051
:10D9F0006DE60000FFFF0000F8B5042A2CD3830772
:10DA000012D00B78491C0370401C521E83070BD0A8
:10DA10000B78491C0370401C521E830704D00B78FE
:10DA2000491C0370401C521E8B079B0F05D0C91A5E
:10DA3000DF002023DE1B08C90AE0FDF7A9F9F8BDC5
:10DA40001D4608C9FD401C46B4402C4310C0121F9F
:10DA5000042AF5D2F308C91A521EF0D40B78491CD7
:10DA60000370401C521EEAD40B78491C0370401C02
:10DA7000012AE4D409780170F8BD01E004C0091F4F
:10DA80000429FBD28B0701D50280801CC90700D076
:10DA90000270704700290BD0C30702D00270401CEF
:10DAA000491E022904D3830702D50280801C891EE7
:10DAB000E3E70022EEE70022DFE70378C2781946A9
:10DAC000437812061B0219438378C0781B0419435C
:10DAD00011430902090A000608437047002203099E
:10DAE0008B422CD3030A8B4211D300239C464EE079
:10DAF00003460B433CD4002243088B4231D3030935
:10DB00008B421CD3030A8B4201D394463FE0C309E6
:10DB10008B4201D3CB01C01A524183098B4201D3FE
:10DB20008B01C01A524143098B4201D34B01C01AE9
:10DB3000524103098B4201D30B01C01A5241C30861
:10DB40008B4201D3CB00C01A524183088B4201D3D0
:10DB50008B00C01A524143088B4201D34B00C01ABC
:10DB60005241411A00D201465241104670475DE0D1
:10DB7000CA0F00D04942031000D340425340002254
:10DB80009C4603098B422DD3030A8B4212D3FC22FD
:10DB9000890112BA030A8B420CD3890192118B427C
:10DBA00008D3890192118B4204D389013AD0921192
:10DBB00000E08909C3098B4201D3CB01C01A52414D
:10DBC00083098B4201D38B01C01A524143098B4216
:10DBD00001D34B01C01A524103098B4201D30B01FF
:10DBE000C01A5241C3088B4201D3CB00C01A524124
:10DBF00083088B4201D38B00C01A5241D9D243080B
:10DC00008B4201D34B00C01A5241411A00D2014647
:10DC1000634652415B10104601D34042002B00D5B1
:10DC20004942704763465B1000D3404201B5002073
:10DC3000C046C04602BD704770477047754600F049
:10DC400025F8AE46050069465346C008C000854623
:10DC500018B020B5FDF714F960BC00274908B64696
:10DC60000026C0C5C0C5C0C5C0C5C0C5C0C5C0C5EB
:10DC7000C0C5403D49008D46704710B50446C046BA
:10DC8000C0462046FDF767F810BD00000048704709
:10DC9000D827002001491820ABBEFEE7260002006D
:10DCA000704730B47446641E2578641CAB4200D2C1
:10DCB0001D46635D5B00E31830BC184723D1BCEA06
:10DCC0005F782315DEEF121200000000ECDC030089
:10DCD00000200020EC00000004AD0300D8DD0300AC
:10DCE000EC2000204C13000020AD03000024F400C1
:10DCF0000000000000000000000000000000000024
:10DD00000000000000000000000000000000000013
:10DD10000000000000000000000000000000000003
:10DD200000000000000000000000000000000000F3
:10DD300000000000000000000000000000000000E3
:10DD400000000000000000000000000000000000D3
:10DD500000000000000000000000000000000000C3
:10DD600000000000000000000000000000000000B3
:10DD700000000000000000000000000000000000A3
:10DD80000000000000000000000000000000000093
:10DD90000000000000000000000000000000000083
:10DDA0000000000000000000FFFF00000000000075
:10DDB0000000000000000000000000000000000063
:10DDC0000000000000000000000000000000000053
:08DDD00000000000000000004B
:020000041000EA
:0410140000AC030029
:040000050003ACC187
:00000001FF
