:020000040000FA
:10000000C0070000D1060000D1000000B1060000CA
:1000100000000000000000000000000000000000E0
:100020000000000000000000000000005107000078
:100030000000000000000000DB000000E500000000
:10004000EF000000F9000000030100000D010000B6
:1000500017010000210100002B0100003501000004
:100060003F01000049010000530100005D01000054
:1000700067010000710100007B01000085010000A4
:100080008F01000099010000A3010000AD010000F4
:10009000B7010000C1010000CB010000D501000044
:1000A000DF010000E9010000F3010000FD01000094
:1000B00007020000110200001B02000025020000E0
:1000C0001FB5C046C04600F0EFFA04B00FB41FBD24
:1000D00008205A49096809580847382057490968CB
:1000E000095808473C2055490968095808474020E5
:1000F0005249096809580847442050490968095875
:10010000084748204D490968095808474C204B4981
:10011000096809580847502048490968095808479C
:100120005420464909680958084758204349096836
:10013000095808475C204149096809580847602068
:100140003E4909680958084764203C49096809582C
:100150000847682039490968095808476C20374919
:100160000968095808477020344909680958084740
:100170007420324909680958084778202F490968CE
:10018000095808477C202D490968095808478020EC
:100190002A490968095808478420284909680958E4
:1001A0000847882025490968095808478C202349B1
:1001B00009680958084790202049096809580847E4
:1001C00094201E4909680958084798201B49096866
:1001D000095808479C201949096809580847A02070
:1001E0001649096809580847A4201449096809589C
:1001F0000847A8201149096809580847AC200F4949
:10020000096809580847B0200C4909680958084787
:10021000B4200A49096809580847B82007490968FD
:1002200009580847BC2005490968095808470000D3
:1002300003480449024A034B7047000000000020B5
:10024000C0070000C00700000122D84B5A6000BF61
:10025000D74A1268002AFBD0016000BFD44A126856
:10026000002AFBD00022D14B5A6000BFD04A12684E
:10027000002AFBD07047F0B505460E46174600240D
:1002800006E0A200B158A2005019FFF7DDFF641C80
:10029000BC42F6D30020F0BD0120C043C549086030
:1002A000401048607047014601229204086890425D
:1002B00001D9102070470020FCE7F0B505460C4638
:1002C0001646002706E028462168FFF7BDFF2D1DD2
:1002D000241D7F1CB742F6D3F0BD70B505460C4611
:1002E0002E460BE0304600F075F9FF2C01D80024B3
:1002F00001E0FF3C013C012080023618002CF1D1C6
:1003000070BD0146012292044868904201D909203B
:100310007047A9484069401C01D10F20F8E7002030
:10032000F6E7FEB504462068030000F037FA05043E
:100330002B4249598B00201DFFF7E3FF0546002D96
:1003400001D02846FEBDFFF7A7FF0120C00200F044
:1003500041F9042221469948FFF78DFF002801D07A
:100360000320EFE708222146944800F06DF90028A9
:1003700006D1002192480068FFF766FF00F00CF9F3
:100380000320DFE7A768E6686068019031463846D9
:10039000FFF7A3FF324638460199FFF78EFFB20000
:1003A0003846019900F050F9002800D1CAE703202F
:1003B000C8E700F0E3F9834800688349086041E03A
:1003C00060680190E668A0680090B200009901980A
:1003D00000F03AF90746002F00D1B3E70E20B1E74D
:1003E000201DFFF760FF0546002D01D02846A9E734
:1003F0006068002807D1FFF74FFF0320800200F05C
:10040000E9F800F0C9F8FFF747FF0120C00200F04B
:10041000E1F8042221466948FFF72DFF002801D0AA
:1004200003208FE708222146644800F00DF90028D8
:1004300006D1002162480068FFF706FF00F0ACF823
:1004400003207FE700BF00207CE770B505460C461F
:10045000182D04D12068FFF764FF206002E001201E
:10046000206000BF00BF70BDF0B589B05248406940
:1004700003905248806881000398081802900398FE
:10048000000B01900121090302984018401E000B47
:1004900000900124002520462946019A00F0C4F866
:1004A0000022401E91410791069001260027304608
:1004B0003946009A00F0B8F80022401E914105919B
:1004C0000490049BDB43059AD2430698184307998E
:1004D00011430791069037490698086007984860CD
:1004E00009B0F0BD70B53448446934488568466841
:1004F000AA003146204600F0A7F8002801D00020CD
:1005000070BD0120FCE72D484068002801D0012083
:1005100000E000200546FFF7E5FF002807D0FFF7C1
:10052000BBFE0320800200F055F800F035F8FFF71D
:100530009BFF002D0ED020484669204884684768FC
:1005400021463046FFF7C9FE224639463046FFF7BE
:10055000B4FE00BF00F020F810B5184844681A48EF
:100560000460204600F0DCF810BD15480068006803
:10057000401C01D100BFFEE710480068002802D0EF
:10058000042806D101E0FFF7BEFFFFF7E5FF00BF3B
:10059000FEE700BF00BFFEE7BFF34F8F0B480C49DB
:1005A000C860BFF34F8F00BFFEE7000000E50140C9
:1005B00000E40140000600400010001000080000A8
:1005C000B8070000BC070000000000200400FA0586
:1005D00000ED00E010B50146104B1A6808460223F2
:1005E0000F4C636000BF0F4B1B68002BFBD0531CEC
:1005F00004D0904202D20A4B186101E0084B986087
:1006000000BF084B1B68002BFBD00023044C636029
:1006100000BF044B1B68002BFBD010BD0010001066
:1006200000E5014000E4014010B5202A04DB01464A
:10063000203A9140002010BD914020239C1A03468F
:10064000E3401943904010BD034610B50B439B0790
:100650000FD1042A0DD308C810C9121FA342F8D025
:1006600018BA21BA884201D9012010BD0020C04328
:1006700010BD002A03D0D30703D0521C07E000208E
:1006800010BD03780C78401C491C1B1B07D1037854
:100690000C78401C491C1B1B01D1921EF1D118463D
:1006A00010BD70477047704710B500F007F810BDD7
:1006B000014B1B68DB6818470000002019481A49E5
:1006C0007047FFF7FBFFFFF7FBFC00BD20BFFDE716
:1006D0001649174C24688C420BD1164B1B68994263
:1006E0000CD1154B154A1360186810498842EDD09B
:1006F0000AE0134880F30888124B18470F4A13602A
:1007000018680A498842E1D080F308880E49884277
:1007100004DD0E48026802210A4302605B68184744
:100720000346DFE7C0070000C0070000FFFFFFFF30
:10073000000C000014100010001000000000002049
:10074000000400206B05000000200020240500406C
:100750000D48704502D1EFF3098101E0EFF3088104
:10076000886902380078182802D1C046074A104725
:10077000074A12682C3212681047000000B5054B7A
:10078000054A9B58984700BDFDFFFFFF4B04000042
:1007900000000020001000000400000030B4744687
:1007A000641E2578641CAB4204D3635D5B00E318D0
:1007B00030BC18471D46F8E7000C00000010000090
:10100000881D0020E14F0100993D0000474F01007D
:1010100000000000000000000000000000000000D0
:10102000000000000000000000000000515001001E
:101030000000000000000000993D0000993D000004
:10104000BD500100C3500100993D0000993D0000D2
:10105000993D0000993D0000993D0000993D000038
:10106000C9500100993D0000993D0000CF5001009A
:10107000993D0000D5500100DB500100E150010016
:10108000993D0000993D0000993D0000993D000008
:10109000993D0000993D0000993D0000993D0000F8
:1010A000E7500100ED500100993D0000993D00001E
:1010B000993D0000993D0000993D0000993D0000D8
:1010C00000F002F813F06DFF0CA030C808382418A7
:1010D0002D18A246671EAB4654465D46AC4201D170
:1010E00013F05FFF7E460F3E0FCCB646012633421B
:1010F00000D0FB1AA246AB4633431847AC40010070
:10110000DC400100103A02D378C878C1FAD85207FF
:1011100001D330C830C101D504680C6070470000AD
:101120000023002400250026103A01D378C1FBD803
:10113000520700D330C100D50B6070471FB5C046C1
:10114000C04613F0CFFE04B00FB41FBD8269024940
:1011500081610248104470476111000001000000E5
:1011600001B41EB400B510F0E7FB01B40198864647
:1011700001BC01B01EBD0000F0B4404649465246D5
:101180005B460FB402A0013001B50648004700BF1E
:1011900001BC86460FBC8046894692469B46F0BC01
:1011A00070470000C1100000401E00BF00BF00BF1C
:1011B00000BF00BF00BF00BF00BF00BF00BF00BF37
:1011C00000BFF1D17047000070B505460C461646C9
:1011D00002E00FCC0FC5103E102EFAD2082E02D31B
:1011E00003CC03C5083E042E07D301CC01C5361F2E
:1011F00003E021782970641C6D1C761EF9D270BD45
:101200008307FF22DB0E9A408907090E99400028C8
:101210000BDA0007000F0838830828489B001B18CA
:10122000D86990430843D8617047830824489B00DD
:101230001B181868904308431860704710B504469F
:1012400000210120FFF7DCFF00211820FFF7D8FF65
:1012500000210B20FFF7D4FF02211920FFF7D0FF58
:1012600002210D20FFF7CCFF02210E20FFF7C8FF5F
:1012700002210F20FFF7C4FF0221C81FFFF7C0FFA4
:1012800003211620FFF7BCFF03211520FFF7B8FF4D
:10129000204600F019F8002010BD5A210180704747
:1012A00010B500F03AF810BD0648704710B500F0D0
:1012B00035F810BD704770477047000000ED00E042
:1012C00000E400E003F900C330B50446374D95B0A3
:1012D00007202870A81CFFF7E0FF5920A880344899
:1012E00001F01CFC0546072000F0DCF929462F48D8
:1012F00000F08CFA641E072C0AD830216846017071
:10130000847001F0E0FA002802D009A800F0DDFCAA
:10131000284601F083FE15B030BD7047F8B5234E66
:101320000446B61E307801270D46002807D0204617
:1013300060380B2808D8204601F09AFB2BE0602C7F
:10134000F9D01C480860F8BD20466C38032803D843
:10135000204601F0CFFB1EE0204670381F2803D83E
:10136000204600F037F816E0204690380F2803D8C2
:10137000204600F0BBF80EE02046A0380F2803D826
:10138000204600F023F906E02046B0380F2804D8A4
:10139000204600F000F9286000E02F60602CD2D1D8
:1013A00028680028CFD13770F8BD00001A0000204F
:1013B000C533000001300000704770477047704728
:1013C000704770477047704710B5012801D100F091
:1013D00042FA10BD10B57038030013F09FFE150CD3
:1013E00012161E22252C33383D41454950555C6468
:1013F0006C747B8085004A680878114603F093FF7F
:1014000010BD086803F0F7FF10BD0C790B7B8A68EC
:101410000868214603F0FFFF10BD086804F075F866
:1014200010BD03F03DFC10BD08884A6880B211462B
:1014300004F03AFA10BD0A790888114680B204F027
:1014400086FA10BD087840B204F091FA10BD088801
:1014500080B204F0ADFA10BD086804F0BCFA10BD0B
:10146000086804F0CFFA10BD086804F0F8FA10BD5F
:10147000088982B209C9194604F020FB10BD05C9CC
:10148000114604F074FB10BD08884A6880B211460A
:1014900004F08DFB10BD0B7908888A6880B219466C
:1014A00004F0E1FB10BD0B7908888A6880B2194608
:1014B00004F09AFC10BD08884B688A6880B219460F
:1014C00004F0D8FC10BD08884A6880B2114604F0C8
:1014D00023FD10BD088880B204F042FD10BD0888CD
:1014E00080B204F062FD10BD012010BD10B590382F
:1014F000030013F013FE09060F161D242C363F4679
:101500004E0088888A6883B20888194680B205F040
:101510007DF910BD08884A6880B2114605F0D3F9FC
:1015200010BD08884A6880B2114605F017FA10BD50
:1015300008884A6880B2114605F04DFA10BD088847
:101540004B688A6880B2194605F07EFA10BD08899A
:1015500082B2888883B20888194680B205F0B3FA4F
:1015600010BD08894B6882B20888194680B205F020
:10157000E8FA10BD08884A6880B2114605F018FBE9
:1015800010BD888882B20888114680B205F0ACFB95
:1015900010BD012010BD10B5B02805D0B12808D06D
:1015A000B2280BD0012010BD088880B205F08AFE59
:1015B00010BD088880B205F0B5FE10BD08884B68E4
:1015C0008A6880B2194605F0BEFE10BD10B5A0387D
:1015D000030013F0A3FD0B070E172028323C434DE8
:1015E000545D65004B6808788A68194607F0EFF982
:1015F00010BD88888A6883B20888194680B207F0CF
:10160000FBF910BD08884C68CB688A6880B2214617
:1016100007F002FA10BD08884B688A6880B2194644
:1016200007F01CFA10BD8888CB6884B208888A68E5
:1016300080B2214607F03CFA10BD8888CB6884B29E
:1016400008888A6880B2214607F05CFA10BD0888D5
:101650004A6880B2114607F090FA10BD088982B23C
:10166000888883B20888194680B207F090FA10BDC6
:1016700008884A6880B2114607F0ADFA10BD0889A3
:101680004B6882B20888194680B207F02AFB10BD69
:1016900008884B688A6880B2194607F0E7FB10BDDE
:1016A000012010BD10B507F0CEFC0FF05FFF00F079
:1016B00007F810F0ADF808F0C9F908F055F910BDB9
:1016C00001202B49C00308602A490020087003202C
:1016D0002949800288607047F8B5264D044628786D
:1016E000A04207D0002C05D0002803D023A14D2014
:1016F00013F023FC2878A04213D02C70032500237C
:101700002349AD021C48002C27D01B4A214E4032F1
:10171000214F012C06D0022C13D018A16E2013F0FB
:101720000CFCF8BD0B6002230B604E6185601B4909
:1017300011625762091D91621749091DD162456006
:10174000F8BD0B6003230B604E610121C90281606B
:10175000134B9362D7624160F8BD0B600B608560EC
:10176000F8BD10B505A1772013F0E7FB10BD000010
:1017700080E100E02000002000F501407372635C0E
:1017800068616C5F63636D5F6161722E630000006E
:1017900000F500407C01002000F0004000110040F6
:1017A000488100401CB50446002069460870204668
:1017B00009F0CAF86946204608F088FF002803D1DE
:1017C000FBA1B62013F0B9FB01A9204608F0DDFE0D
:1017D000002803D1F6A1BB2013F0AFFB68460078C8
:1017E0001CBD70B5F74D002428462C76203084713E
:1017F000C47113F0A1FC2846403804702030847373
:10180000847484762C74AC7070BDEAE710B50C4615
:10181000ED4982888A8042884A80007808700846AC
:101820000A38847008F087FEFFF7DBFF20460AF0D5
:10183000EFF9E44AE0321146383908461446813857
:1018400009F0F0F82146E0480BF084FC09F073F849
:1018500013F072FC10BD10B50120FFF7ADFD10BDF7
:10186000F8B509F049FDD84DD64C0A3D022802D002
:10187000207C00287CD0207E0026102819D1A0785A
:10188000002803D0CAA1D14813F057FBCD48E8384F
:10189000817A89070DD50146267160398989E180F1
:1018A000C17A217281896181C089A0810120A070E3
:1018B0002676C44F203FB87C002859D1C4486946D9
:1018C000808908F003FF002805D069466878097808
:1018D0004018687004E0BD48B5A11D3013F02DFB21
:1018E000207C002838D0BA488189FF300930406D0B
:1018F0008089814204D0B548ADA1223013F01DFB90
:10190000B348808908F088FF002804D1AF48A8A117
:10191000283013F012FB08F0F6FF00281CD0AC486A
:101920008089FFF73FFF697840186870A548403804
:10193000416D20318A7C012A0DD1A54A3E779289DA
:10194000C287C87C20700120B876207E102801D084
:10195000282800D1267626746978002908D09C486A
:101960008289FF300930C28601870120B8746E7009
:1019700009F092FC002805D1207C002802D0A8782C
:1019800001F0F0F8F8BDF8B50F460446FFF768FF20
:101990008C4D403D28788B4E002813D0002F10D15D
:1019A000307E002804D0FF2081A1C63013F0C5FA94
:1019B0002C22A91C204613F024F90E2020700020B0
:1019C00028708FE07F4D203DA87B002818D0002F85
:1019D000F7D1307E102808D0282806D0002804D05F
:1019E000FF2073A1D23013F0A8FA0120E070E87B49
:1019F000A070287C60700F2020700020A87371E018
:101A00000121204608F0B8FF002807D0307C0028CC
:101A100051D13946204608F0AFFFF8BDA97C69488E
:101A20000C38009068480A38002913D0017805293D
:101A300010D2002F56D1491C0170002666700D206F
:101A40002070012028750622A01C009913F0D9F8F7
:101A5000AE7447E05C4800210A380170B078002875
:101A600014D0002F3ED1307E002803D050A1594819
:101A700013F063FA002565700120524920700A2294
:101A8000091DA01C13F0BDF8B5702BE039462046A7
:101A90000BF0CAFA002825D1A87C002805D0002F19
:101AA00020D149480A380178C5E7A87E002802D02D
:101AB000307C002801D00020F8BD002F12D1307EEC
:101AC000002804D08F203AA1800013F036FA0026B7
:101AD00066700A203B4920700622091FA01C13F0E3
:101AE00090F8AE760120F8BD10B53648017E002989
:101AF00008D1007C012805D001210020FFF743FF19
:101B0000002801D0072010BD012010BD10B5012410
:101B10000AF0C6F80443FFF7E7FF044308F00CFFA0
:101B200001462143084610BDF8B51D4614460E4631
:101B300008F04BFD002807D0684608F051FD00284A
:101B400003D0002C07D101E00120F8BD9B2018A193
:101B5000800013F0F2F908F0EFFCA04204D21D4817
:101B600013A1583013F0E9F9009808F05DF93146F7
:101B7000009808F06BF9E2B22946009808F022FBC1
:101B800008F040FD002804D19F2009A1800013F037
:101B9000D4F908F0D3FE0E4800244030417C0029DF
:101BA00002D044740AF067F90948C480CCE7000009
:101BB0007372635C6C6C5F6374726C2E73302E6333
:101BC00000000000200300202C00002084060000FC
:101BD000D80100201502000010B50179002908D0B5
:101BE00001290BD0FF20FE49043013F0A6F9002094
:101BF00010BD831D42880488022103E042880488C6
:101C0000831D01212046FFF78FFF10BDF8B51F4649
:101C100015460E46044609F06FFB022803D0F14832
:101C2000007C00281FD0F0488089208008F0F4FD57
:101C3000002803D1EA49ED4813F07FF905246846EE
:101C400008F0F5FD00280ED0009808F037F9307044
:101C5000022809D0012807D008F029FE641E2406B6
:101C6000240EECD10020F8BD3946009808F0C2FAE5
:101C70002880002804D1AF20D949800013F05DF9F5
:101C800008F015FE002804D1D848D549193013F0C2
:101C900054F90120F8BD38B50446831D821C6946FD
:101CA000FFF7B4FF00280DD000206071684600786F
:101CB000012808D0022806D0FF20C949253013F09A
:101CC0003CF9012038BD2071FBE700215BE670B5CF
:101CD000C44C0546403C2078002803D1C148007E12
:101CE000002803D0BE49C24813F027F9287808F02D
:101CF00054FF28780BF079FB0020207101206071DF
:101D00003921E170207070BD70B5B64D0446403D7C
:101D10002878002803D1B348007E002804D0B448B6
:101D2000AF49183813F009F9AF4E2188B0898842BD
:101D300003D109F0E1FA022807D00220287101201E
:101D400068713821E970287070BD7F207076A648D0
:101D5000E17820304174A17801740020EEE710B5DD
:101D6000A04C403C207800280BD19E48007E0028E3
:101D700007D109F0C1FA032803D009F0C1FA0328FA
:101D800004D19A489649653013F0D7F89549002058
:101D90002031C8712071012060713A21E1702070FA
:101DA00010BD70B58F4C0646403C207800280BD102
:101DB0008C48007E002807D109F09EFA032803D042
:101DC00009F09EFA032804D1884885497B3013F036
:101DD000B4F8844D2035E87908280CD2E87910222F
:101DE000000100196830314600F029FEE879401CF6
:101DF000E871002000E007202071012060713B2184
:101E0000E170207070BDF8B5764D0446403D2878ED
:101E1000002803D17348007E002804D0B720704901
:101E2000C00013F08AF8704F2188B889884203D126
:101E300009F062FA022801D0022022E03E8C648878
:101E40007200788CF98B521C944217D3694A514323
:101E50009200504312F04FFF401EFF2180B2F53137
:101E6000884200D90846844200D22046711C401C9A
:101E700012F041FF761C7043401E86B2FE85EE8054
:101E800000202871012068713C21E9702870F8BD9C
:101E9000F8B5544C0546403C2078002803D1514801
:101EA000007E002804D052484D497E3813F045F892
:101EB000A878002801D0012804D1A888FF21F53195
:101EC000884204D94A484649783813F036F8464ED5
:101ED0002988B089884203D109F00EFA022807D078
:101EE00002202071012060713621E1702070F8BD60
:101EF0003D48002720308772A988B18501213176BD
:101F0000A978012900D00021817237484030407CF7
:101F1000002801D009F0AFFF2771E3E770B5314C1D
:101F20000546403C2078002807D12E48007E002836
:101F300003D109F0E1F9002804D02D482849A5383B
:101F400012F0FBFF287809F0AEFE0020207101207E
:101F500060713021E170207070BD70B5214C054674
:101F6000403C2078002803D11E48007E002804D081
:101F70001F481B490D3012F0E0FF287800280BD0D5
:101F8000012809D0022807D06878402804D31848CF
:101F90001349143012F0D1FF284609F0A4F90028A3
:101FA00001D0002000E00C2020710120607134215C
:101FB000E170207070BD70B50A4C0546403C207839
:101FC000002807D10748007E002803D109F094F9C2
:101FD000002804D006480249983812F0AEFF0BE002
:101FE000B01B000020030020D8010020AA0200003E
:101FF0000A060000C40900002978002914D00A2923
:1020000012D0142910D01E290ED028290CD0322924
:102010000AD04B2908D0642906D0FF2904D00B2010
:10202000FD49C00112F089FF284609F0BBFE0020DF
:102030002071012060713321E170207070BD70B596
:10204000F64C06462078251D002804D12046403055
:10205000007E002803D0F049F14812F06EFF3146AF
:10206000002008F06FFD2870002804D106223146B8
:10207000EC4812F0C6FD012060713221E170207041
:1020800070BD70B5E54C05462078002804D1204687
:102090004030007E002804D0E148DF49183812F0B3
:1020A0004CFF00216956042914D0002912D0081DC4
:1020B00010D0001D0ED0001D0CD0001D0AD0001D38
:1020C00008D00A3006D0283104D0D548D249163875
:1020D00012F033FFD448297801700120607131215A
:1020E000E170207070BD10B5CC4C2078002804D170
:1020F00020464030007E002803D0C749CB4812F06C
:102100001CFF08F019FAE08008F0DEFA20720020C7
:102110002071012060710521E170207010BDF8B5BB
:10212000BE4C07462034A07B25462035002805D12B
:10213000287E002802D1A878002804D05120B64972
:10214000000112F0FAFE09F0D7F81026022822D179
:10215000B7483988808988421DD1B0494839084636
:102160000A7F6038807A002A03D080070CD40C20C4
:102170000CE0800708D406200877AD484030407C4A
:10218000002801D009F077FE2E760020E073267437
:102190000120A073F8BD0220F8E710B59F4C20780D
:1021A000002804D120464030007E002804D09C48FE
:1021B0009949543812F0C1FE002020710E20A07001
:1021C0000F20E070FF20A0710020C04320819548BF
:1021D000C01D0178A1728188A1814088E081012021
:1021E0006071207010BD10B58C4C2078002804D18F
:1021F00020464030007E002803D087498D4812F0E9
:102200009CFE0821A01D0FF04DFA00202071012036
:1022100060712B21E170207010BD70B57F4D0446B8
:102220002878002804D128464030007E002804D0B9
:102230007E487949B83812F080FE7D481022214648
:10224000303800F0FCFB7A481022A118203800F04A
:10225000F6FB774830380FF02CFB75491022103907
:102260002C46A81D00F0EBFB002020710E20A07072
:102270002A20E07001206071207070BDF8B5674CB5
:1022800005462034A07B26462036002802D1307E29
:10229000002804D023206049400112F04EFEA978A6
:1022A000052912D0132910D014290ED015290CD0CD
:1022B0001A290AD0292908D03D2906D03B2904D063
:1022C0008D205549C00012F038FE28885A498842AE
:1022D00004D953485049E13812F02FFE09F00CF8A8
:1022E0000C212827022809D151482A888089904248
:1022F00015D14A484838027E002A01D0E17310E027
:10230000A97841760121017637760020E0734848AC
:102310004030407C002804D009F0ADFD01E00220EF
:10232000E07327740120A073F8BDF8B53B4F064653
:1023300038783D1D002804D138464030007E002802
:1023400004D03C483449D13012F0F7FD3146012029
:1023500008F0F8FB01242870002807D12F48062236
:1023600060303146054612F04CFCAC717C71172090
:10237000F8703C70F8BDF0B52B4F85B0403F3D7A0A
:10238000064626480078002804D13846A038007E4A
:10239000002804D0D3202049800012F0CEFD3078F0
:1023A000002806D0012804D022481B492C3812F0FE
:1023B000C4FD082D4CD21C4820380190C4693078E7
:1023C00000283FD0012804D01A4813491E3812F0C3
:1023D000B4FD294608310120884004430120A8406B
:1023E00020430090B1790D4C0802727969000919F7
:1023F0001043FF3101318881B01C12F063FC717809
:1024000000020843A9000919C031C862387A401C8B
:1024100038720199009811E0B01B0000E002002022
:10242000520500002500002000040020E9060000FD
:10243000D801002079030000FF0E0000C8610020D1
:10244000207108E029460831012088408443C5E70F
:10245000F748072101710121F5480B224171C27033
:10246000017005B0F0BD10B5F14C2078002804D102
:1024700020464030007E002803D0EE49EE4812F09E
:102480005CFD12F059FE00202071012060710A21CC
:10249000E170207010BD10B509F09DFB002804D03C
:1024A000E548E449583812F048FD08F043FA08F0CE
:1024B00026F80AF040FE002804D0BD20DD49800047
:1024C00012F03BFD08F085FA002804D05F20D949BE
:1024D000C00012F032FD12F02FFED8480024047024
:1024E000FFF77FF9D2480121047141710222C270C5
:1024F000017010BD70B5CE4D04462878002804D177
:1025000028464030007E002804D0CB48C9498F308F
:1025100012F013FD20781F2801D8601C04D1C64892
:10252000C449903012F009FD002028712078611C08
:1025300008F022FB012068712021E970287070BD2D
:10254000F8B5BB4C0646207825464035002802D118
:10255000287E002804D0B848B6499D3012F0EDFC22
:102560003078012806D0002804D0F720B149800037
:1025700012F0E3FC012060710C20207130780027FC
:10258000AF4E012808D008F0B7FE032869D008F044
:10259000B7FE032873D078E008F0AEFE002803D120
:1025A00008F0AEFE002804D008F0A6FE02283DD0B8
:1025B0006BE008F04DFA002867D0287C002864D131
:1025C0009F4802210C300EF0F6FF002806D00F21A4
:1025D000B089090212F08FFBB18100E0B7810122BE
:1025E0000321974807F02EFE954808F0D3FBB089E9
:1025F00007F0A4FF002804D18F488E49B93012F0AB
:102600009CFCB089002108F09DF9002804D08A487C
:102610008849BD3012F091FC297F688B09F047FB97
:10262000002831D084488349C13017E008F068FEA3
:1026300000282AD1287F002827D0012825D0042867
:1026400023D008F005FA00281FD0297F688B09F0F5
:102650002EFB002818D078487649D53012F06DFC52
:1026600012E0002009F056FA00280ED12771287CCC
:1026700000280AD1B089FFF795F806E0FFE70020AF
:1026800009F048FA002800D127711B20E0700120D2
:102690002070F8BD70B5664D04462878002804D136
:1026A00028464030007E002804D0634861498130CC
:1026B00012F043FC20781F2801D8601C04D10F20A1
:1026C0005C49800112F039FC002028712078611CDF
:1026D00008F066FA012068711A21E970287070BD4F
:1026E000F8B5534D044628780C272E46403600286E
:1026F0000AD1307E002807D108F0FEFD032803D060
:1027000008F0FEFD032804D14B484A49473012F037
:1027100014FC6079002801D0012829D1A079002873
:1027200001D0012824D1A07B002805D0012803D0A6
:10273000022801D003281BD1607B400718D0628893
:1027400001208003824202D82188814201D9207968
:102750000CE02079002804D0022805D0032803D0FB
:1027600004E0202A12D20CE0A0290FD201280DD0BB
:102770002079042805D12088202802D36188884246
:1027800004D92D482B495D3012F0D7FB2088708387
:10279000207930776079002802D0012803D00CE03E
:1027A000284A002105E0224A60329079002804D0AE
:1027B0000121204608F050F9074601202F71687169
:1027C0001821E9702870F8BD70B5194C05462078BD
:1027D000002804D120464030007E002803D015494F
:1027E000194812F0AAFB08F087FD0C2102280ED12F
:1027F00013482A8883899A4228D10246C032137F1F
:10280000002B04D1807E0E2803D00F2801D0217127
:1028100003E005201077002020710E20A0702E20EC
:10282000E0702888E08001206071207070BD000099
:10283000E0020020B01B00003E0300000004002066
:10284000D801002025000020D30400000220E3E787
:1028500070B5814C05462078002804D120464030D0
:10286000007E002803D07D497D4812F066FB08F009
:1028700043FD0C2102280ED17A482A8883899A4286
:102880001FD10646C036327F002A04D1807E0E2832
:1028900003D00F2801D0217109E06F481022A91C34
:1028A0001E3812F0AEF904203077002020710E207F
:1028B000A0702D20E0702888E080012060712070D9
:1028C000B4E70220F2E710B501780B0012F026FC05
:1028D0003D878738878758878787873B3E878787E5
:1028E00051548787878787874228872C3087878737
:1028F00087348787878787878746874A4E8720243C
:10290000876B5B5F6367876F877E827B77738700E8
:10291000801CFFF79DFF60E0801CFFF755FF5CE027
:10292000801CFFF7DDFE58E0801CFFF7B3FE54E08B
:10293000801CFFF705FE50E0801CFFF7DBFD4CE03C
:10294000FFF7A9FD49E0FFF78EFD46E0801CFFF789
:1029500012FD42E0801CFFF7E8FC3EE0801CFFF720
:102960008DFC3AE0801CFFF758FC36E0FFF73BFC9B
:1029700033E0FFF712FC30E0801CFFF7D0FB2CE0C7
:10298000FFF7B1FB29E0801CFFF77BFB25E0801CF3
:10299000FFF755FB21E0801CFFF70DFB1DE0801CBD
:1029A000FFF7DBFA19E0801CFFF7B8FA15E0801C8E
:1029B000FFF76EFA11E0801CFFF725FA0DE0801C8E
:1029C000FFF7EFF909E0FFF7CAF906E0801CFFF70F
:1029D0009BF902E0801CFFF77AF9012010BD00206E
:1029E00010BD10B51D49204812F0A7FA10BD70B5F2
:1029F000194A012411461B4D4031030012F08EFB91
:102A000005191C1C04191C0001220021154807F09F
:102A100019FC11480021483801774177C03809F086
:102A2000C2F9002804D010480C49D33012F085FABE
:102A3000FCE60C745565F9E608490C48F6E730B534
:102A4000134606E0CC18203CE47FD51A44555B1EA3
:102A5000DBB2002BF6D130BDE0020020B01B00003D
:102A6000A7040000D8010020430600004907000029
:102A700010B56038030012F051FB0A060A0F131854
:102A80001F262A31363B086800F090FD10BD05C9AD
:102A9000114600F0AAFD10BD086800F044FE10BD0C
:102AA00005C9114600F048FE10BD4B6808788A68D9
:102AB000194600F053FE10BD4B688A680868194635
:102AC00000F067FE10BD086800F07CFE10BD0888AD
:102AD0004A6880B2114600F098FE10BD05C9114643
:102AE00000F0C4FE10BD05C9114600F0FAFE10BD8D
:102AF000012010BD0120704701203F4940060860B9
:102B00003E4908603E490A68FF231B029A4383122C
:102B10001A430A60384980390860704710B5024688
:102B20000420384904E0C3005B181B79002B0AD04D
:102B30000346401EC0B2002BF5D133A1432012F052
:102B4000FCF9FF2010BDC300CA50002259184A7179
:102B50008A7101220A7110BD2A4A0021C000801822
:102B60000171704710B50446042803D326A15220F2
:102B700012F0E3F92348E1000C182079012803D072
:102B800021A1532012F0D9F96079A179401CC0B27B
:102B9000814200D0607101201749400680310860F1
:102BA00010BD70B5164800680004800F022803D0DD
:102BB00015A1692012F0C1F9124E194C0325207895
:102BC000C10088190279012A07D1427983799A4292
:102BD00003D042798271705880472078401CC0B27F
:102BE0002070042801D30020207028466D1EEDB20D
:102BF0000028E4D170BD000080E100E080E200E048
:102C000018E400E02C1200207372635C736F635F42
:102C10007369676E616C6C696E672E6300000000FB
:102C20003C00002010B5EFF31080C407E40F72B62B
:102C3000D6484178491C41704078012801D10FF0F5
:102C400021F9002C00D162B610BD70B5CF4CE078F0
:102C500000280AD10125E570FFF7E4FF0FF01AF90B
:102C6000002804D000200FF0EDF8002070BDC84807
:102C700065714560F9E770B5EFF31080C507ED0F9A
:102C800072B6C24C6078002803D1C2A18F2012F026
:102C900054F96078401E60706078002801D10FF010
:102CA000F5F8002D00D162B670BD10B5B748C178F7
:102CB000002904D000214171C170FFF7DCFF002022
:102CC00010BD10B504460FF0E5F8B049C9780840CA
:102CD00000D001202060002010BDF8B50246AB4CAA
:102CE0000026A6710820042101251027130012F0E8
:102CF00015FA0D080A0C0E101214161E2621232593
:102D00002800257122E0022001E021711EE02071DF
:102D10001CE027711AE02020F9E7012616E0FFF7F2
:102D200081FF0FF0B7F80028FBD002260EE02171DA
:102D3000A5710BE02771FBE7202000E04020207107
:102D4000F6E7FF2093A17E3012F0F7F80FF0AEF80F
:102D5000002809D00FF0B0F8B04205D130460FF08E
:102D6000AEF80028FAD024E001208007C5608D4A23
:102D7000002151608C4A9661854B02225A60856021
:102D80008A4803690569DB43DB06DB175B1C1027F8
:102D90003D430561834D00E020BF6F68002FFBD0ED
:102DA000002B03D1076910239F4307617848826095
:102DB0006960A07900280CD00FF06CF805460EF081
:102DC000C9FF7B4A002D02D0A260E06001E0E26012
:102DD000A060002E01D100F0B1F8F8BD10B5044696
:102DE0000FF05EF8002805D068490120C8704A78C5
:102DF000521C4A702046FFF770FF10BDF8B5694FAE
:102E0000B8680025012802D1BD600FF01BF8786872
:102E1000012800D17D60386801265C4C012814D15E
:102E20003D606079002803D000200FF00BF8657139
:102E30002078002809D00FF02DF8002805D0594837
:102E4000C038866300060661A670386901282CD157
:102E50003D6100F068F8012080074661A0790028F4
:102E600015D00FF017F800900EF074FF00990029AC
:102E700001D0E16800E0A168411A022901DA8A1C48
:102E800013DC0099002901D0E06000E0A060FFF7AA
:102E9000C9FE0EF0FFFF002806D04248C038866306
:102EA00000060661A67000E02670F868012819D1B6
:102EB00000F039F800F037F800F035F8A078002875
:102EC00004D1FF2033A1053012F037F8FD60A57062
:102ED0002570FFF7D0FE0EF0B4FA002802D031487A
:102EE000C038C663F8BD10B5284CE078002801D181
:102EF0000EF0CCFF01208107886100F014F8A07863
:102F000000280BD0274CE068002803D10EF0D7FF33
:102F10000028F8D10020E06000F005F800201C49EE
:102F2000C043886010BD08B55020694608806A46D5
:102F30001088411E11800028F9D108BDF8B5144849
:102F400019278760174900200860C8600EF0A2FFAB
:102F5000BD0701240D4E002805D01248C0388463F7
:102F60002C61B47000E03470FFF75CFE08484760E5
:102F70000D4930798863FFF7D6FFAC61FFF7D3FFC7
:102F80000849002008616C61F8BD00004000002085
:102F9000000300407372635C736F635F636C6F6305
:102FA0006B2E6300000100400005004000ED00E0D2
:102FB000FFFFFF7F10B510F020F810BD002004497E
:102FC000C863012001218140024A116000BF70479F
:102FD000C01F004080E200E010B504460BF051F83D
:102FE00020460CF066F810BD704770477047704778
:102FF0007047704770477047704770477047704719
:1030000010FFFFFFDBE5B151006001005A00FFFF38
:1030100003B40148019001BD09000020FE49487039
:10302000704710B5030012F079F8080E050E080875
:103030000B0B0E1104F06BF810BDFFF7CDFF10BDA8
:103040000DF0A0FF10BD01F077FE10BDFF20F3A131
:103050009A3011F072FF10BD7FB5F44905464868FB
:103060008968082301910090F14A1946F1480EF051
:1030700043FD0024F0480EF05DFD641CE4B2082C12
:10308000F8D3EB490320803140020CF0E7F8002828
:1030900003D0E2A1BF2011F050FF1E220221E74819
:1030A0000AF09FFCE5481E22032110300BF013FAB2
:1030B000E2480722342174300AF0ECFBDF484C214F
:1030C000283011F0FDFDDD496A46743108464C3860
:1030D0000164FF317B31416401211172039002F0E0
:1030E000AAF802A80CF008FC002803D0CBA1D3203A
:1030F00011F023FFCF4802222421A8380AF0CAFB8E
:10310000CC4802222C215C380AF0C4FBCC490B20AD
:103110000EF03AF8002803D0C0A1E02011F00DFF16
:1031200003F0DEFF03F0E2F904F03EFE6B460022FE
:103130000821C4A001F06EFF002803D0B7A1E7204A
:1031400011F0FBFE284605F049F9002803D0B3A191
:10315000E92011F0F2FE8521C900BD4811F0B0FD53
:10316000BB49B24A0020135C0C18401CC0B2E3708B
:103170000428F8D3A849002048608870C8707FBD33
:1031800070B5B44E0546706A94B00C46401C04D12C
:10319000B06AC0430004000C0BD0306AC007C00FF7
:1031A0002870706A11F09FFDB06A2071000A60718A
:1031B00014E02B206946087009A968460AF0B0FBA4
:1031C000002804D0FF2095A10E3011F0B6FE01209A
:1031D000287006220AA9204611F013FD287800283D
:1031E00003D06079C0210843607114B070BDF0B5A0
:1031F000984C0646206895B00D463746401C083767
:10320000002808D16068401C05D1A068401C02D18C
:10321000E068401C11D02068314611F064FD606800
:10322000311D11F060FDA068394611F05CFDE068C9
:1032300031460C3111F057FD25E02B20694608700E
:1032400009A968460AF06CFB002804D0FF2073A18E
:10325000373011F072FE08220AA9304611F0D1FC75
:103260002B206946087009A968460AF059FB002816
:1032700004D0FF2069A13E3011F05FFE08220AA9A8
:10328000384611F0BEFC20692E46401C0836002846
:1032900008D16069401C05D1A069401C02D1E069D9
:1032A000401C12D02069294611F01DFD6069291DBE
:1032B00011F019FDA069314611F015FDE0692946AC
:1032C0000C3111F010FD15B0F0BD2B2468460470D0
:1032D00009A90AF025FB002804D0FF204FA15C308B
:1032E00011F02BFE082209AF0AA9284611F089FC2B
:1032F0006846047009A90AF013FB002804D0FF20D7
:1033000046A1633011F019FE0822391D304611F034
:1033100078FCD8E710B5002108460EF0C3FC002168
:1033200001200EF0BFFC002102200EF0BBFC0021AA
:1033300003200EF0B7FC002104200EF0B3FC0021A6
:1033400005200EF0AFFC10BD10B5414CA0780B2845
:1033500004D3FF2031A1B33011F0EFFD20786021BC
:10336000484300190830002101704178E722C9085C
:10337000C900C91C11404170274A0121917010BD3C
:1033800070B5254CA07800280ED031480025017872
:10339000491CC9B201700B2900D105708178491C04
:1033A00081700EF04AFDA57070BD70B51A4C0546CF
:1033B0006068002804D0FF2018A1DC3011F0BDFDAA
:1033C000656070BD70B5144E214DFFF7BDFF71688B
:1033D0000446002907D06022FDF7F6FEFFF7D0FF74
:1033E00000207060F1E72879002876D011485C3819
:1033F0000AF060FA6060002804D1FF2007A1FA30CB
:1034000011F09BFD60680AF0B3FA002831D0204625
:1034100000F03FFF60781FE0340000207372635CAF
:10342000686F73745F636F72652E630048510100AB
:10343000040400200C12002023300000840A002025
:10344000B41000206E524635313832320000000090
:103450008C0C002080000010010707D5C008C000B8
:10346000401C60702879401E287127E0F748616889
:103470002AE0F64861680AF026FA687900282CD01C
:10348000F2484C380AF016FA6060002804D1872010
:10349000EF49800011F051FD60680AF06DFA0028D4
:1034A00016D0204603F072FE6078010709D5C008E7
:1034B000C000801C60706879401E6871FFF760FF73
:1034C00083E7E24861684C380AF0FDF97DE704E0E3
:1034D000DE4861684C380AF0F6F970BDF7B505466C
:1034E0000078002700090C463E46062803D0D8493C
:1034F000D84811F022FD287A00280ED0012814D0D7
:10350000D448D349213011F018FD0298002C0680D0
:1035100001D0278066800020FEBD02270926002CEE
:103520000ED0A889A080A87B08E003271426002CD1
:1035300006D02869E060A88A2082287B2072E4E710
:1035400002980680E7E770B50E4600211C461980F8
:103550001546030011F0E2FD0723050B1711231D8B
:10356000230022462946304603F0DCFD70BD22468A
:103570002946304601F051F970BD224629463046B1
:1035800004F00DFB70BD22462946304602F0E2FFF2
:1035900070BD224629463046FFF7A0FF70BDAD48FA
:1035A000AB49473011F0C9FC032070BD10B5AA4CDF
:1035B0002178002901D0082010BDFFF74DFD012022
:1035C0002070002010BD0146A04810B54C380AF00C
:1035D0007AF9A2494879401CC0B24871012803D148
:1035E0009D484078FFF7BEFA10BDF8B505469C48E7
:1035F0000F46814208D3002D01D0854204D3E81C38
:1036000080088000A84201D01020F8BD934881783E
:10361000002911D0398800914178602251430C185B
:10362000083420783B460007000F00222146FFF7B0
:103630008AFF060004D015E0002038800520F8BD80
:10364000002D13D039880098814201D90C260DE055
:1036500020783B460007000F2A462146FFF773FFFC
:10366000060005D00C2E01D0002038803046F8BD71
:103670007A4D6878401CC0B268700B2801D10020D8
:103680006870A878401EA87061784807400F02282B
:1036900010D00128EAD16D4861680AF014F9287940
:1036A000401CC0B228710128E0D16B484078FFF778
:1036B00059FADBE7C806D9D46068FFF784FFD5E77D
:1036C00070B50446674816460D46814204D16148EC
:1036D0005F49C53011F031FC012E05D05D485C49D1
:1036E000D53011F02AFC70BD5B480121C170662005
:1036F000207000202072A581A17370BD70B51646A0
:103700000D46040001D1FFF71FFE66210170012163
:10371000017229680161A98881820673002C01D198
:10372000FFF72EFE70BD4E49884201D2102070472F
:1037300007210170002070474B4A10B5904208D312
:103740000124A404464AA04201D3904201D39142ED
:1037500001D2102010BD0DF050FD10BD424B10B530
:10376000994208D30124A4043D4BA14201D39942BC
:1037700001D39A4201D2102010BD022803D0102894
:1037800001D0092010BD0DF05EFD0028FAD0052003
:1037900010BD354B10B598420CD30124A404304B16
:1037A000A04201D3984205D3994203D3002A03D003
:1037B0009A4201D2102010BD0DF06BFD0028FAD006
:1037C000072010BD10B50446254894B0844202D2AB
:1037D000102014B010BD01F09AFD002801D0112076
:1037E000F7E70F2008A9087369460BA80AF098F8B4
:1037F0000028EED16846007A2070684640896080D3
:1038000068468089A0800020E3E710B5124C084686
:10381000E17800290ED000280AD0114A904202D344
:103820000368934201D2102010BD8288002A03D081
:10383000012903D0082010BD092010BD04F018FB99
:103840000028FAD10021E17010BD0000B011002065
:103850001C3400003E020000340000208C0C0020CC
:1038600000200020FFFF00000060010010B5244A86
:1038700094B091420DD301229204224B914201D384
:10388000994206D3441E1E2C24D8914203D3994258
:1038900001D210209DE701281AD108780024C00722
:1038A000C00F002803D001206946887001E06846F7
:1038B000847039206946087009A968460AF030F812
:1038C000002803D010498C2011F037FB204680E7F8
:1038D00007207EE70246203A1F2AF9D801F03AFC79
:1038E00077E7084A10B5914201D21020ACE70246B2
:1038F000203A1F2A02D801F083FCA5E70720A3E79E
:1039000000600100002000201C3400008107C90E67
:10391000002808DA0007000F083880082C4A8000C9
:103920008018C06904E080082A4A80008018006876
:10393000C8400006800F704710B50D20FFF7E6FF66
:10394000C4B20420C043FFF7E1FFC0B2844203D0F9
:1039500021A11A2011F0F1FA10BD0121234A4803D8
:103960001060234B00221A60224A5160224A1060E4
:10397000224A11601D4980390860704701211B4AA5
:10398000480310601D4A5160194A002111601A490C
:103990000860704710B516490868012804D00EA1C8
:1039A000562011F0CAFA10BD154880680022C0B236
:1039B0000A600DF09DFE10BD10B50D48016800298C
:1039C000FCD0FFF7E7FF01200B494003086010BD62
:1039D00000ED00E000E400E07372635C736F635F0E
:1039E00068616C5F726E672E6300000080E100E02A
:1039F00000D1004000D3004080E200E000D0004051
:103A000000D5004030B40121BC48C9020160CD108E
:103A100005604A030260BA4803681B021B0A036080
:103A200004680023240A24020460B6480468240AB7
:103A300024020460B448012444608460B34C2360D1
:103A40006360A360B24B19601D601A60B14B1960CE
:103A50001A600121016030BC704710B40121A748F1
:103A6000CC0204600A0202600B060360A6484160B3
:103A70008160A6490020086048608860A44804600E
:103A80000260036010BC70470121A148C9020160B7
:103A9000C91001607047002805D0012805D0022810
:103AA00005D19D4870479D4870479D48704710B5A7
:103AB0009CA18B2011F041FA002010BD70B50021AF
:103AC0009F4CA04DA04A914B002808D001281DD042
:103AD000022822D093A1B32011F02FFA70BD01204B
:103AE0000004A060A86011601960984B42109A60B1
:103AF000974A9060814A001210609648016087489A
:103B00000160954801609548017070BD0120400436
:103B1000A060A8605160596070BD01208004A06061
:103B2000A8609160996070BDF8B59446844A854D4F
:103B300000240127754E002808D0012836D002281D
:103B400044D078A1E82011F0F8F9F8BD891E0902E7
:103B5000090A012000049060346068607A4A1160AC
:103B6000012B21D000217D4A7D4B517061463D31B2
:103B7000DC63DF637B4B5C6002249C6004241C617B
:103B8000744B196074490F60614B89151960704B53
:103B900058606048016075487349C16086606B4930
:103BA000600348601770F8BD0121DCE701205C4E1E
:103BB00040046F4F012B04D134605060686039605D
:103BC000F8BD9060346068603960F8BD0120524EE5
:103BD0008004684F012BF4D1EEE7674840687047D6
:103BE00070B54A4D28680026554C012806D1A068BA
:103BF000C00303D501200004A0602E60686801287E
:103C000009D1A068800306D501204004A0606E6041
:103C100001200FF02EF9A868012809D1A0684003FF
:103C200006D501208004A060AE6002200FF021F9CB
:103C300070BD10B549490878002818D00120434AC2
:103C4000C0039060424A400090602C4A001210600D
:103C5000404A00201060314A10603F4A10600870EE
:103C60004A78002A02D048700FF003F910BD0320F3
:103C7000FAE7012041490006086070470120244905
:103C800000060860704701203C4940050860704705
:103C900001201F4940050860704731490020C86372
:103CA00088151B4908607047410A354AC005C00D98
:103CB0005043801C5143400A0818704710B4314CDF
:103CC000430B63431B0C5C020C602D4C6343C31A13
:103CD0002D485C0258432A4B400D4343E31A01240C
:103CE000DB0324041B191B1613700A6810180860E4
:103CF00010BC704710B50FF094F910BD80E100E0E2
:103D000008E400E018E400E000B0004040B10040EA
:103D100080E200E000E100E048B100404081004066
:103D200044B100407372635C72656D5F68616C5F83
:103D30006576656E745F74696D65722E6300000050
:103D400000B3004040B3004040B5004000F50140E2
:103D50000083004040850040008200405000002069
:103D6000C08F0040008500400080004080F5014089
:103D700044B5004048B5004000B5004000E200E016
:103D8000093D0000378600006F0C01000E4A1268E2
:103D90000C498A420AD118470B4A1268094B9A42C9
:103DA00004D101B50DF0BFFD03BC8E46074909687B
:103DB0000958084706480749054A064B704700005E
:103DC00000000000BEBAFECA1C0100200400002052
:103DD000881D0020881D002010B5F84C94B0216883
:103DE000087A002836D017206A46107000A80622EC
:103DF0000931023010F005FF09A9684609F090FD6D
:103E0000112825D02168C0318979062920D00729B9
:103E10001ED008291CD004291AD0092918D00A2933
:103E200016D00B2914D0052912D0002803D0E4A104
:103E3000F42011F082F82168B820405806221C3086
:103E4000093110F0DEFE2068017A8030806BC17687
:103E500014B010BD3220C7E770B5D84D04462968AC
:103E60000300C03111F05AF90C077C0B1A212E3BCC
:103E700048515C677080FF20D1A10A306EE08879DC
:103E800001286DD009286BD0052869D00A2867D091
:103E90000B2865D0FF20CAA10F305FE08879012888
:103EA0005ED0FF20C6A1163058E08879062857D08A
:103EB000072855D0082853D0052851D0FF20C0A18D
:103EC00019304BE0887909284AD00A2848D00B28B5
:103ED00046D0042844D0FF20B9A11F303EE08879A5
:103EE00003283DD007283BD0082839D0092837D0EF
:103EF000FF20B3A1253031E08879062830D00A2888
:103F00002ED0FF20AEA12B3028E08879062827D0BC
:103F1000072825D00B2823D0FF20A9A12F301DE092
:103F2000887906281CD00A281AD00B2818D0FF2020
:103F3000A3A1343012E08879092811D00A280FD0C3
:103F4000FF209FA1393009E08879092808D00A2884
:103F500006D0082804D0FF2099A13D3010F0EDFFD5
:103F60002868C030847170BDFF2095A14230F5E70C
:103F70009249C9220968525CD206920F05D1A0313C
:103F80008A8B824201D1887F70470020704770B5CC
:103F90000446112020700021884D61702968C031CD
:103FA000897A002908D003290ED0042910D0FF20D7
:103FB00083A16B3010F0C1FF20780009012802D9DD
:103FC0002868807D607070BD0007000F203002E01F
:103FD0000007000F30302070EEE730B503887C49D1
:103FE0007C4C8B4202D09A1FA2421ED242888A4247
:103FF00002D0951FA54218D2934216D883887D24FB
:10400000E400A34211D8C088884205D0714D04460F
:104010000A3C2D1FAC4208D2884208D08A4206D002
:104020005B1C5A43C000824201DD072030BD0020E6
:1040300030BDFFB50022099B002802D0994205DC63
:104040005CE0002902D1002004B0F0BD0920FBE7AC
:10405000845C002C12D085186F780D2F4CD010DCAA
:104060003B0011F05BF80A421B2A2A303032323A08
:104070003A42835C002B3FD1521CD2B28A42F8DB19
:10408000E1E7122F31D004DC0E2F35D00F2F2CD1C9
:1040900032E0142F11D0152F27D116E0022CD5D1E4
:1040A000AB78039C072B237001D25B0701D40A2055
:1040B000CAE7029B01241B7814E0E343DB0708E016
:1040C000012C08D011E00620BEE70F2523072D079D
:1040D0005B19002BF4D03046B6E7029B1B789C0797
:1040E0000AD402242343029C2370835C521C9A1836
:1040F000D2B28A4204DDA9E70B20A5E71926760291
:104100008A42A5DB9FE705E00278401C002A01D027
:10411000002070470A46491E89B2002AF4D10120C6
:10412000704770B5254D00212868C943A0308183B0
:1041300000248477214606200DF0B4FD00210520DF
:104140000DF0B0FD002102200DF0ACFD0120FFF7C5
:1041500083FE2868C030C471047201F062FF70BD34
:1041600030B5164C95B02268C0329279042A0CD032
:10417000052A0AD028236A4613705080132906D0D6
:104180003B2904D0072015B030BD0820FBE7117192
:10419000104609A909F0C4FB05000BD12068C03006
:1041A0008179062908D0082906D0072904D00520DE
:1041B000FFF752FE2846E6E70420F9E75400002006
:1041C0007372635C6761705F636F72652E6300007A
:1041D000FFFF00007B0C000030B587B0040003D067
:1041E000002107200DF05EFDF74D012128686A4689
:1041F00001720421117003210C300DF053FA29686B
:104200004022887B8006800E1043887368460BF03E
:1042100094FB00280DD12968098A00290AD0002CB6
:1042200008D08B000122002107200DF096FC072802
:1042300002D0032007B030BD0020FBE770B5002599
:104240000646002803D0002107200DF02BFDDE4C90
:10425000012120680172062109300DF023FA20683F
:10426000817B8906890E8173FFF7B6FD2068008A7D
:1042700000280AD0002E08D0830001220021072048
:104280000DF06BFC072802D00325284670BD0025E1
:10429000FBE7F0B59BB0040003D1CC49CC4810F04B
:1042A0004CFE72202070616800260A780825521F93
:1042B0000127C548130010F031FF0F097CDFFD7C9A
:1042C0007EFCFBBB7C7C7C7CFAF97C00BE480068F1
:1042D000C0308079032804D0BD48BC49093010F0B3
:1042E0002CFE002108460DF0DDFC002107200DF01A
:1042F000D9FC6078B44A28436070106810250146E4
:10430000C0314B7A2B434B7263689D783C2D4DD066
:1043100002469D88A032977763688030DB890B80E6
:1043200063681B8A4B8063685B8A8B8095836168B6
:10433000826BC97911756168806B0831153006226E
:1043400010F05FFC0620FFF787FD9F48FB23006805
:104350000146C0318E72027E1A400276B82212588F
:10436000937A9B089B0093724682487A4006400EDF
:104370004872284602F0C0FE002804D094489349B1
:10438000243010F0DAFD284602F0D0F8002804D0DE
:104390008F488E49273010F0D0FD284603F016FDD7
:1043A000002806D08A48894929303EE10120FFF7DC
:1043B00053FD1BB0F0BD074600688E88C030807981
:1043C000062812D0072810D008280ED004280CD0B8
:1043D00009280AD00A2808D00B2806D0052804D0BE
:1043E0007B487A49353010F0A8FD6078284360702A
:1043F0003868C030417A294341728079092811D048
:104400000A280FD00B280DD005280BD0FFF789FE06
:10441000304602F07AFE304602F08EF8304603F065
:104420000BFDC6E7FFF77DFE0220FFF715FDEFE766
:104430000068C0308079062812D0072810D00828DC
:104440000ED004280CD009280AD00A2808D00B283E
:1044500006D0052804D05E485C49593010F06DFD47
:104460006068807902F004FF0028A2D061782943B7
:1044700061706168C8809CE707460068C030807939
:10448000062812D0072810D008280ED004280CD0F7
:1044900009280AD00A2808D00B2806D0052804D0FD
:1044A0004B484A496C3010F048FD04E037E1A1E187
:1044B00090E090E015E06078284360706068C18803
:1044C0003868C03001806168098941806168498924
:1044D0008180002102200DF0E5FB3868C030C671F4
:1044E00067E706460068C0308079062819D007289B
:1044F00017D0082815D0042893D0092811D00A28ED
:104500000FD00B280DD005288BD031482F49833090
:1045100010F013FD3068C03080790428ABD0052836
:10452000A9D03068807C40063AD5606802210C3002
:10453000FFF7E9FD002833D060680821001DFFF770
:10454000E2FD00282CD03168B8204058807A8007DE
:1045500008D1CA20405C002808D1488AC20505D588
:10456000C00703D1488A4022904348824A8A80206B
:1045700082434A822D2268460270BC20425A684615
:1045800042801022973101A810F03BFB09A9684630
:1045900009F0C6F90028A3D03D200C49000144E0F1
:1045A00062683068AC2192890A5261680822091D4C
:1045B000AE3010F026FB10A805743068AE301590B0
:1045C00014A80BF0BAF9F4E654000020C041000032
:1045D000260300008F7106460068C03081790629E5
:1045E00019D0072917D0082915D00429EBD009299B
:1045F00011D00A290FD00B290DD00529E3D0FD20B9
:10460000FA49800010F099FC3068C03080790428A5
:10461000D9D00528D7D060688179002902D0807868
:10462000002805D02320F149400110F086FCC0E6A7
:104630006078B8212843607030680958897A890702
:10464000890F012951D1817C09064ED4017E490789
:1046500001D5042100E00321C03081722B2069467E
:10466000087009A9684609F05BF9002803D0DF4902
:10467000DF4810F062FC68463168008D88820E22A7
:1046800010A80274DB48B8221590525808324261D3
:104690000A4660324260927902700A461432026120
:1046A000521D82601032C260133A82619632C2613A
:1046B000921C0262473A4262103282621032C26237
:1046C000473AC263521E0264921F503142648164B1
:1046D00014A80CF01BFB022815D0002813D0C448E6
:1046E000C249293010F029FC0DE0817C4906017E89
:1046F000490701D5042100E00321C0308172002167
:1047000006200DF0CFFA3068418A0A0602D4402212
:104710009143418289B280229143418249E6B64861
:104720000068C0308079032804D0B148AF495730C1
:1047300010F003FC002108460DF0B4FA0021072018
:104740000DF0B0FA6078AC4A28436070106810250C
:104750000146C0314B7A2B434B7263689D783C2DE8
:1047600000D123E602469D88A032977763688030A7
:10477000DB890B8063681B8A4B8063685B8A8B8054
:1047800095836168826BC97911756168806B0831A6
:104790001530062210F035FA0620FFF75DFB96482B
:1047A000FB2301680A46C0329672087E18400876DC
:1047B0004E82507A4006400E5072284602F09CFC11
:1047C000002804D08A488949723010F0B6FB284688
:1047D00001F0ACFE002804D085488449753010F003
:1047E000ACFB284603F0F2FA002897D080487F49B6
:1047F00077301AE7607828436070DAE500290BD03B
:1048000088807D480068C0300288CA8002880A819A
:1048100042884A81808888817047F7B506460078CB
:104820000C460027010982B03D46012974D0724828
:1048300000680090C03002296FD0072904D00A29EF
:104840006CD06A496D480DE271680A78521F1300F6
:1048500010F064FC0F09A451A4A42F585847A4A435
:10486000A4A4656FA4008A783C2A1BD010271625C3
:10487000002C7DD08888A0807068A21DC08920820D
:104880007068C089E0817068008A60827068408AC0
:10489000A082716808460831C07901F0B1FB0020A0
:1048A000607375E019270725002CE2D00021A17163
:1048B00071E011270725002CDBD089880091A180A9
:1048C0007168F7228979A171417A1140417200988B
:1048D00002F01CFC009801F033FE009803F0BAFAD5
:1048E000D2E101270925002CC3D08888A0807068F8
:1048F00080792072C8E1888812270E252146FFF7AB
:104900007DFFC1E118270825002CB2D08888A0803F
:10491000A01DFFF73CFBB7E144E0A6E15CE01A27ED
:104920000725002CA5D04888A08070680079A07168
:10493000AAE18A783C2AB5D010271625002C98D0F9
:104940008888A0807068C08920827068C089E081F2
:104950007068008A60827068408AA0827168607B9B
:10496000497D40084000C907C90F0843607300E053
:1049700093E17168C007497DC00F490849000843A9
:1049800060737168A21D08460831C07901F038FBD8
:1049900019480068C030417AEF2273E1A72013491B
:1049A000C0005FE1307A012803D014480F49C838AD
:1049B00058E112270E2570892146FFF71FFF002CB2
:1049C00092D070784007400F032889D10A480068C8
:1049D000C030417AFB2255E107490968A031002C1B
:1049E00001D08A8BA280327A921E09E0C041000079
:1049F00015040000AC12002054000020170600002F
:104A0000130010F08BFB073D4853FDEB6F05FD00D5
:104A100013270C25002C85D0009900224A82F168CA
:104A200089788907890F0129217A26D04908490008
:104A30002172FD231940F3689B785B07DB0F5B0055
:104A400019432172E323E2801940F3681B785B0766
:104A5000DB0E19432172DF231940F3685B78DB0713
:104A60009B0E194321726272F1680122C978A1720A
:104A7000017A1143F7221140ADE001231943D7E732
:104A800015270C25002C9BD0F06806220068A11D7C
:104A90000EF05CFFF8E016270725002C90D0317B44
:104AA000A171017A08221BE00172EDE014271225A2
:104AB000002C85D00098A21D8030806B01461531F6
:104AC000007D01F09DFAB089E081207C012108433E
:104AD000F92108402074FD480068C030017A0222A4
:104AE0001143E1E717273825002C94D03221A01D6F
:104AF00010F0E4F80020A071207A0321084320720E
:104B0000FB210840F14909680A7E5207D20F920042
:104B100010432072B8204058807A800757D0A07A7E
:104B20008A7C4008D2074000D20F1043FD2210407B
:104B3000A0728B7CFB229B07DB0F10409B0018436D
:104B4000A0728B7CF7269B07DB0F3040DB001843FD
:104B5000EF231840A072E07A10408A7CD206D20F70
:104B600092001043E0728A7C3040D206D20FD2000D
:104B70001043E072888AA0812046102267310E30EF
:104B800010F03FF8D149A07F0968C0078A7DC00FA7
:104B900052001043A0770A7E400852074000D20F0F
:104BA0001043A077084640304DC820344DC4303CF7
:104BB0003F20405C22463032393101F021FAC348AF
:104BC00000688030806B817A890889008172BF48D3
:104BD0000068C030017AFB22114065E7327B022A6F
:104BE00018D017273825002C11D0017AFB23194043
:104BF0000172012A17D0032A22D0042A23D000E010
:104C00002DE0052A1FD0B249B24810F096F901F004
:104C100008FA39E019270725002CF8D0898BA180E4
:104C20000121A17103E00121A1710021E171417A0B
:104C3000CA094906D201890E49000A434272E6E7D1
:104C40000220A07106E0707B0007000F8030A07189
:104C5000052A02D00020E071D9E70120FBE79D483A
:104C60009B490C3010F069F90EE0317A00290BD124
:104C700019270725002C10D0491EA1800021A17101
:104C8000417AFD22114041720498002C058001D028
:104C900027806580002005B0F0BD04980580F9E705
:104CA00010B58A4C94B02068C0308079022809D0B1
:104CB000032807D0052805D0092803D00A2801D0E9
:104CC0000B2837D11B2108A8017300218173694685
:104CD0000BA808F025FE002804D1684640781B2860
:104CE00002D0032014B010BD002108460CF0DAFFFA
:104CF000002107200CF0D6FF68468078002819D1E3
:104D00002068C0308079801E030010F007FA0A0680
:104D10000613081313130D0F1113012000E00420D4
:104D2000FFF79AF80020DDE70620F9E70720F7E70C
:104D30000820F5E70820D5E770B50025634C00286A
:104D400007D0022817D0072828D062486049793058
:104D500046E0FFF7A5FF00280CD1FEF7F5FA222167
:104D600001700572FEF70CFB2068C030417A022208
:104D70001143417270BDFEF7E7FA12210170012163
:104D800001722168BC22525A4281C031CD71FEF7B6
:104D9000F7FA2068C030417A0422E9E72168C6208A
:104DA000405C022809D0032807D0092805D00A282A
:104DB00003D00B2801D00528DCD1887B810901298B
:104DC00011D0800904D043484149703010F0B5F843
:104DD0000020FFF733FA0028CCD03E483C4974301D
:104DE00010F0ABF870BD0020FFF7F6F9F3E770B5EF
:104DF0000D46040004D137483549813010F09DF844
:104E00002078012805D0334831499F3010F095F8BB
:104E100070BDA18830482D4E814209D1E28882427E
:104E200006D130681321A030808BFFF799F970BD4F
:104E3000814202D1E08800280AD0122028706878C8
:104E400008210843687007CC083507C5002106E033
:104E500000227823114602200CF07FFE02213068E8
:104E6000C030C17170BD00B5184A87B01268C03239
:104E7000527AD20907D106236A4613700190117243
:104E800068460AF05AFD07B000BD00B587B007209C
:104E90006946087068460AF050FDF4E70B48006860
:104EA000C030807A704738B5084C054602782068D3
:104EB00013000146C03110F031F909A9061111A300
:104EC000204E738BA900FEF787FF38BD54000020E9
:104ED000C0410000F2050000FFFF000088790628AD
:104EE00005D0092803D0FE49FE4810F026F82068B6
:104EF0000422017E1143017682E0A9880029E4D0D2
:104F0000A030808BF8498842DFD0A868002804D1FF
:104F1000F448F349103010F010F82068C030407A9F
:104F2000C00904D0EF48EE49113010F006F8A86827
:104F300006220A38A86000902068AB88A030808BD9
:104F4000042102F00DF80028BFD0DB20E449C000A6
:104F50000FF0F3FFB9E788790528B6D92879012839
:104F600002D0022808D103E0487A80221043487218
:104F7000487A012210434872284601F05CF8206804
:104F8000C03080790628A0D9082801D8062004E07E
:104F900009289AD90B2898D80920FEF75DFF94E7D5
:104FA000887906280AD0042808D0092806D00528C0
:104FB00004D0CC48CA493D300FF0BFFF0ECDCB48DE
:104FC0000361C2608160A2210170FEF7EEF97CE707
:104FD0008879062818D0072816D009280DD00A2865
:104FE0000BD0C048BE4950300FF0A7FF2068C0303A
:104FF0008079062808D0072806D00B20FEF72CFF62
:10500000284601F018F860E70820F7E7B548B449EA
:1050100064309DE7FFB593B0012468460321847096
:10502000C9021D4601800AF060F90022694601208C
:1050300003F085F906460AF05CF9002E5CD168465B
:10504000152184704902018000271C2101A80897BE
:105050000FF036FE01200146103108A80170002033
:10506000014608A841708178F9200140891C21433C
:1050700008A88170684601790226314301711499AC
:105080008185C7851F21018608A80A9013980D9075
:10509000684609900AF029F90EAA09A901A802F0A8
:1050A0001CFF07460AF025F9002F02D0384617B03A
:1050B000F0BD8F4F68463968008F4880684684701D
:1050C0008C49018008A88078F9210840801C41089B
:1050D000490008A8817068468685068615A80D9047
:1050E0000AF003F90EAA09A901A802F0F6FE064685
:1050F0000AF0FFF8002E01D03046D8E7684639683C
:10510000008F88807B4968468470C91C018029888B
:1051100010A8018069884180A9888180E988C180C0
:10512000082168468185018610A80D900AF0DDF8F7
:105130000EAA09A901A802F0D0FE04460AF0D9F887
:10514000002C01D02046B2E768463968008FC8803D
:105150000020ACE7F0B5684E95B00C46B14235D3AF
:105160000127BF04654DBC4201D3AC422ED3202899
:1051700004D0212824D0222837D13DE03C216846A4
:105180000170218841806188818009A908F0C8FBED
:10519000002806D108A98979002904D002290DD058
:1051A000032015B0F0BD6168B142FAD3B94201D312
:1051B000A942F6D36A46128D0A80F2E75048F0E71A
:1051C00008684B4C002812D0A84201D21020E8E712
:1051D00006210EF0A5FB411C07D02168A8225050E3
:1051E0000120A03188750020DBE70720D9E720687F
:1051F0000021A0308175F6E7084600F028FFD0E7CF
:105200003D4A10B5914206D301229204914204D343
:105210003A4A914201D2102010BD202805D0212801
:1052200003D0222803D0072010BD062010BD084659
:1052300000F042FF10BD70B504462C48CC21AC30C4
:105240000FF03EFD29482A4EAC3000213060C943A2
:10525000A0308183002585770120FEF7FDFD3068B1
:10526000C7210D54E121C57389000182B6210D5477
:10527000014609310830FDF783FF316808460A7A94
:1052800060308271062209310FF0BBFC316808469C
:1052900029311930FDF7ABFF002C37D03068803052
:1052A0008463FEF799FD1E20E081607A8F2108401B
:1052B000303060723068014614312161983161628A
:1052C000933921601031616025721339A162091F81
:1052D000E1628531E163303921631031616311E0AE
:1052E000C0410000C2060000FFFF00004C12002079
:1052F00054000020012A000000600100002000206E
:105300000230000010310930A163A06470BDF7487D
:105310000068C0308079042803D0052801D000201F
:1053200070470120704770B50646F1480C4681422F
:1053300006D301208004844204D3EE48844201D283
:10534000102070BDFFF7E3FF002801D0112070BDD1
:10535000E948E64D002E02D0012E46D12FE02278FA
:10536000002A0AD00121012A09D0022A14D0032AD6
:10537000EDD1A2799209EAD112E0002103E0A279ED
:105380009209032AE3D128680622017260308171F4
:10539000611C0FF036FC05E0A2799209012AD6D1F2
:1053A00028680172002107200CF07CFC2868062286
:1053B000611C09300FF025FCFEF70EFD11E021788D
:1053C000002912D0012910D0022910D00329BED102
:1053D0000120FEF733FF002803D0C849C8480FF06A
:1053E000ACFD2868C673002070BD072070BD012089
:1053F000FEF7F2FEEFE7BF4910B5884201D2102058
:1054000010BDBA49024609680B7A0931184600F006
:10541000F7FD002010BDFFB599B005460020694694
:105420000871087208A90874144608750122B04969
:105430009204B0481E46002D05D08D420BD39542F4
:1054400001D3854207D3002C08D08C4203D3944269
:1054500004D3844202D210201DB0F0BD2846204360
:1054600018D01F270CAB01AA009728461A99FEF7FF
:10547000E0FD0028F0D10DAB02AA3146204600978E
:10548000FEF7D7FD0028E7D16846007AC10703D0B0
:105490000A20E1E70720DFE7800705D568460079A5
:1054A000800701D50B20D7E7FFF731FF002801D097
:1054B0001120D1E703AF002D0FD01A2069460873E1
:1054C0001A9888732946F81C1A9A0FF09AFB0EA9AD
:1054D00003A808F025FA0028BED1002C0ED0202108
:1054E00068460173867332462146F81C0FF089FB2B
:1054F0000EA903A808F014FA0028ADD17B4908A82A
:105500000968007C08700020A6E7F0B504467848DA
:10551000002695B0844276D301208004844202D3D1
:1055200074488442F7D32378012B09D1704960680D
:105530008842F0D39904884202D36E498842EAD364
:105540006A490A681546C035A879022814D003288C
:1055500012D0052810D009280ED00A280CD00B280C
:105560000AD0012803D0002B06D0012B04D0687A82
:10557000C506AD0F06D101E0082012E6850701D46B
:10558000400701D511200CE6208A5E4F0546203DDC
:10559000BD4207D3012B6ED10028FCD1658A002DB6
:1055A000F9D111E0022B01D0032B01D1A02862D345
:1055B000012B01D1002807D01578ED0704D0658AAA
:1055C000002D58D0B42D56D8002B06D0012B08D072
:1055D000022B04D0032BDED118E0002519E00225B0
:1055E00017E0002802D1608A00280DD004256068E9
:1055F000007800280DD001280AD0022808D00328FE
:1056000006D03D48CDE563E00125F0E7032500E045
:105610000126D07B01281CD1108A002819D0907B4C
:105620008109012911D0800904D035483349EC3073
:105630000FF083FC0120FEF701FE00280BD030485C
:105640002E49F0300FF079FC05E00120FEF7C4FD93
:10565000F3E7FEF7C1FB207A002806D0012806D028
:10566000022806D0032806D106E0002705E001271E
:1056700003E0022701E087E00327002D01D0022D7F
:1056800048D1002F46D0E06800287DD0017900295C
:1056900020D0082978D8027B082A75D800290AD09A
:1056A000134B0168994213D301239B04994202D3FF
:1056B000104B99420CD3002A10D080680C498842C4
:1056C00006D301218904884208D30A49884205D2B9
:1056D000102066E5027B002A6AD0DCE703480068F8
:1056E0000078800710D00448401E5AE5540000207E
:1056F000006001000020002002320000C0410000D4
:1057000086080000E13F0000022D03D1022F4FD098
:10571000032F4DD0182168460170218A4180218ACB
:1057200081808571FE480068007A002801D0012838
:105730007ED16946C8716846067221780930012910
:1057400023D006210FF0BAFA07216846C173077407
:1057500009A908F0E5F80028BBD10A2069460870BD
:1057600009A9684608F0DCF80028B2D13A20694659
:10577000087009A9684608F0D3F80028A9D1002DBF
:1057800009D0022D07D04CE012E061680622491CC6
:105790000FF037FAD8E7002F43D00026374623E032
:1057A0000168B00009580978002903D0012904D004
:1057B0000720F6E469468F7002E001216A46917085
:1057C000E16806220968095800A8491C03300FF057
:1057D00018FA0B206946087009A9684608F0A0F875
:1057E0000028E6D1761CF6B2E0680179B142D7D83C
:1057F00000266F4611E08068B10041581022B81CA5
:105800000FF0FFF93B206946087009A9684608F0C7
:1058100087F80028CDD1761CF6B2E068017BB14252
:10582000E9D81B20694608700120887009A900E0AA
:1058300036E0684608F074F80028BAD108A8407924
:105840001B282DD12B000FF069FC0504040606046B
:105850001E00032015E0B2480068C03080790300C4
:105860000FF05CFC091E061E1E0A1E080C0E1E0010
:10587000022006E0092004E0052002E00A2000E002
:105880000B20FEF7E9FA012D0CD0608A002809D020
:1058900000228300114610460CF05FF9002801D069
:1058A00003207EE400207CE470B586B00C00064640
:1058B00009D09C48844248D301208004844202D30A
:1058C0009948844241D3964D2868C030C179022955
:1058D00002D0407A400702D5112006B070BD002CDE
:1058E00004D02046FEF779FB0028F6D13046FEF7BB
:1058F0003FFB012803D0022823D08C48EDE721008C
:105900001BD1082069468882286801ABC08805AA97
:10591000002103F0F7F80028DFD16846808A0828C4
:1059200001D00320D9E7684681888181C188C1817F
:10593000018901824189418203A9304601F068FC56
:10594000CBE7002C01D00620C7E71020C5E770B5D3
:105950000C460546FEF70CFB012803D0022801D0B7
:10596000724870BD21462846FEF7FAFB70BD00B5AF
:105970000146143095B0192801D2880707D008468F
:105980001E3004D00A3002D0072015B000BDFFF74A
:10599000BEFC002801D01120F7E7614831220068E1
:1059A000417068460270817009A907F0B9FFECE701
:1059B00001B582B0022069460880594802AB0068F0
:1059C0006A468088002102F00DFF69460988022995
:1059D00000D003200EBD38B502216A46118052491D
:1059E000884201D2102038BD4D49034609688C8891
:1059F0000021204603F086F8694609880229F2D082
:105A0000032038BD3EB50446082069460880454855
:105A1000844206D301208004844204D34248844255
:105A200001D210203EBD2046FEF7D7FA0028F9D15A
:105A30002088694688806088C880A0880881E088BE
:105A40004881374801AB00686A46C088002102F0EF
:105A5000C9FE694609880829E4D003203EBD1FB568
:105A600004460820694688812E48844206D30120D6
:105A70008004844205D32C48844202D2102004B012
:105A800010BD27480B46006803AAC088002103F018
:105A900039F80028F3D169468989082901D0032003
:105AA000EDE7694609882180694649886180694631
:105AB0008988A1806946C988E180E0E7FEB50E4685
:105AC0001849174605468E4206D30122920416480D
:105AD000964203D3864201D21020FEBD1F2F01D96A
:105AE0000C20FEBD0E4C8D4232D3954201D385422F
:105AF0002ED3206801A9408802F026FE0028F0D1AC
:105B0000287869464871206801A9408802F0FFFDA5
:105B10000028E6D16946009008780221084307E092
:105B2000540000200060010000200020023000002E
:105B3000694608704979090703D008210843694676
:105B4000087020686946408802F08BFD0028C8D1A3
:105B500069460F8120683346408802AA002102F07E
:105B600041FE69460989B942BBD00320FEBD38B564
:105B70000C46F749002801D0884201D38C4201D25B
:105B8000102038BD21886A461180002801D00029E4
:105B90000BD0F049034609684D880021284602F0E1
:105BA000B1FF69460988218038BD0C2038BD30B569
:105BB0000C46E94987B08C4206D3012189048C4206
:105BC00005D3E3498C4202D2102007B030BDE14D2D
:105BD0002968C0310A7A520708D48A79521F130003
:105BE0000FF09CFA05040604040604000820ECE704
:105BF000497AC90901D00D20E7E7FEF7B9F9012874
:105C000003D002282DD0D548DFE720881E2801D2F6
:105C10000720DAE72868C030807906281FD00A20DC
:105C2000FEF71AF905216846017000798108A0780D
:105C30008900C007C00F014368460171FB20014085
:105C4000A0788007C00F8000014368460171218859
:105C5000C18009F072FE0028B7D00320B5E7072005
:105C6000DEE70620B1E7F0B587B014460D46FEF733
:105C70007FF9012804D0022802D0B84807B0F0BD4F
:105C8000B44B18680146C0310A7AD20707D08A7926
:105C9000062A04D9092A02D0002D02D050E008209B
:105CA000ECE7AD4A944206D301229204944204D315
:105CB000A74A944201D21020E0E7A278D206520F00
:105CC000042A0CD8E378072B09D3102B07D82279A4
:105CD0009A4204D3102A02D822881E2A01D0072013
:105CE000CCE702468032966BF727F372966B2379E6
:105CF0003373966B737A3B40A778BF06FF0FFF00A4
:105D00003B437372966B2388F381966BA778B37AC3
:105D1000FF079B089B00FF0F3B43B372FB273B40F1
:105D2000A778966BBF07FF0FBF003B43B372926B20
:105D3000A478537AE406DB08DB00640F2343537234
:105D40000B226B461A70852D22D008DC002D17D04F
:105D5000812D17D0822D17D0832D08D116E0862DE6
:105D600018D0882D18D0892D18D08A2D18D00B2244
:105D70001A71B622125C774C002A13D0A83012E0B8
:105D80000022F5E70122F3E70222F1E70322EFE721
:105D90000522EDE70622EBE70822E9E70922E7E71B
:105DA0000A22E5E7002002908879072806D0082813
:105DB00004D00A2804D00B2802D004E0062000E01A
:105DC0000920FEF749F8684609F0B7FD002801D020
:105DD000032053E720680422C030017A49084900B3
:105DE00011430172002049E770B55A4E0D463168E3
:105DF00086B0C031097A1446090701D408206CE541
:105E0000FEF7B6F8012803D0022801D0534864E514
:105E1000002D10D05048844206D3012080048442D3
:105E200004D34B48844201D2102056E5012D0BD0FB
:105E3000022D02D106E0002C01D007204DE5002004
:105E4000029005E0022000E00120694608710294FA
:105E5000032069460870684609F06FFD002801D0EC
:105E600003203AE53068F722C030017A1140017210
:105E7000002032E570B594B014460E46FEF778F86F
:105E8000012804D0022802D0344814B070BD314D2E
:105E90002868C030007A800701D40820F5E7002C7C
:105EA00001D00720F1E7FFF732FA002801D01120D6
:105EB000EBE7002E1DD02D21684601702C68BC2018
:105EC000015B684641801022B11C01A80EF099FECA
:105ED000207EFB210840B17CC907490F084320768A
:105EE000B07CFF214008A075608A8231084360823F
:105EF00007E02E21684601702868A030818B684633
:105F0000418009A9684607F00BFD2968FD23C031CF
:105F10000A7A1A400A72B8E710B50C46FEF728F85C
:105F2000012803D0022801D00C4810BD0A48844241
:105F300006D301208004844204D30548844201D260
:105F4000102010BD2046FEF722F8002010BD0000F2
:105F500000200020540000200060010002300000FA
:105F600010B594B00446FEF703F8012804D00228C7
:105F700002D0644814B0E9E763480068C030817912
:105F8000042910D005290ED03820694608704C80AD
:105F900001200871487109A9684607F0C1FC002872
:105FA000E8D00B20E6E70020E4E710B594B0044603
:105FB000FDF7DEFF012803D0022801D05148D9E7C0
:105FC00051480068C030817904290DD005290BD0D3
:105FD0003820694608704C8000200871487109A972
:105FE000684607F09DFCC5E70020C3E74648006807
:105FF000C0308079062801D3012070470020704707
:1060000008B51346002806D040A0006800904879E3
:106010006A468009105C18700622581C0EF0F1FDCB
:1060200008BD00B587B0012069460870684609F0D0
:1060300084FC07B000BD10B50446FDF785F9A22128
:1060400001700ECC08300EC0FDF79AF97EE770B5EE
:106050002D4C054601682068002911D02C4A914238
:1060600006D301229204914204D32A4A914201D2DA
:10607000102070BD102277300EF0C3FD2068012182
:106080008030806B01722068A9880182C17B012960
:106090000CD1807B800901280AD00120FEF7CEF8C0
:1060A000002803D01C491D480EF047FF002070BD9A
:1060B0000120FEF791F8F3E770B505460068124C31
:1060C00000281AD01349884201D2102070BD2068E0
:1060D000B8210958097A012909D0014677312930B8
:1060E0000AF063FF206801218030806B0172216813
:1060F0001022286877310EF084FD2068008AA8807D
:10610000002070BD02300000540000200302FF0197
:106110000060010000200020C041000003030000D7
:10612000FFB581B001980E46C078174610360E377D
:10613000022809D0032840D005287DD0F2A1F748D5
:106140000EF0FBFE05B0F0BDCC890A2060430E3096
:10615000188031230A98002A0380F3D04868008809
:1061600090800020D0801081097B9481891FCDB25E
:106170001AE030887168388048780A780002104345
:10618000F880C8788A78000210433881BA1C091D4B
:1061900028460BF058F8002D01D0002802D000202E
:1061A0003871788008360A372046641EA4B2002869
:1061B000DFD101990020C870C4E7CC890A20604370
:1061C0000E30188032230A98002A0380BAD048681B
:1061D000002500889080D5801581087B401FC0B2C3
:1061E0000090948142E0716832880878FA803A79A8
:1061F000C30752085200DB0F1A43FD231A408307DE
:10620000DB0F5B001A43FB231A404307DB0F9B00A5
:106210001A43F7231A400307DB0FDB001A43EF236F
:106220001A40C306DB0F1B011A43DF231A40830603
:10623000DB0F5B011A4300E020E0BF231A40430656
:10624000DB0F9B011A433A71C00978718A784B7849
:106250001002184338813A46C91C00980AF0F3FF2F
:10626000002801D0BD703D8008360A372046641EE4
:10627000A4B20028B7D10198C57063E7087BCC8928
:10628000801E85B2284608306043103018803423C1
:106290000A98002A03808FD04868174600889080AB
:1062A0000020D080108194811037E000D581C01982
:1062B0000CE030883880009878602A467168009831
:1062C0000EF09FFC009808360837401900902046D1
:1062D000641EA4B20028ECD16BE7FFB50546C07878
:1062E00081B00C460A9E03000EF018FF0BA307179F
:1062F00033414F6D8F9D9D9DA300207B174608283D
:1063000006D0032804D085487FA154300EF015FE36
:1063100004990E20088030200CE0207B17460428CA
:1063200004D07E4878A171300EF007FE04990E204B
:10633000088031203080002F44D060680088B88009
:10634000607AFF300130F880E08938810020B88120
:1063500037E0207B1746042804D070486AA18D30AE
:106360000EF0EBFD04990E2008803220E2E7207B3E
:106370001746022804D0694863A1A9300EF0DDFD5C
:1063800004990E2008803320D4E7207B1746042888
:1063900004D062485CA1C4300EF0CFFD04981021F7
:1063A000018034203080002F0CD060680088B880D5
:1063B000607AFF300130F880E08938810020B881B0
:1063C000F881E870BEE6207B1746052806D006282F
:1063D00004D052484CA1E1300EF0AFFD04981221D8
:1063E000018035203080002FECD060680088B880B4
:1063F000607AFF300130F880E0893881E089B88127
:1064000000203882A988F981DBE7207B174607281E
:1064100004D042483CA1F8300EF08FFD04990E20C4
:106420000880362086E700962846049B00F02DFD64
:1064300088E635A13A480EF080FD83E670B5054642
:1064400000780C46082603000EF068FE124C343427
:10645000241C380A0A0A0A0A0A0A0A0A0A0A0A4C00
:106460006878002804D02E4827A12C300EF065FD56
:10647000002C03D11F2024A1400108E060783043A4
:10648000607020E0002CF9D17D201FA1C0000EF02B
:1064900054FDF3E7002904D03F201BA100010EF0BA
:1064A0004CFDFCF751FF0446407830436070FCF728
:1064B00067FF08E01A4814A1473002E0184812A10B
:1064C0004C300EF03AFD002C0AD06078000707D55A
:1064D000932020702046582229460830FAF774FE8F
:1064E000002070BD0E4808A15030EAE710B500202A
:1064F0000C4C0D490346C2008C525218401C000639
:10650000D370000EF7D010BD7372635C6761747452
:10651000635F636F72652E63000000005A02000023
:10652000B3030000FFFF000058000020FE49088070
:106530000120887000207047FB4900208870704758
:1065400010B50021F848C94301800021C17007F04F
:1065500021FAD8E7F7B584B00546002768460781D9
:10656000878068680C46008800F0ECFB0646287AB5
:10657000032805D0002E03D1EC49ED480EF0DDFCD8
:10658000297A2046C91E123000900B000EF0C6FD7D
:106590000FF2F1F03D09AA465C6D34B3CDF38B8B5D
:1065A000F000F078012803D0E049AD200EF0C5FCE2
:1065B000A8896946C0000E30888030200881002CF0
:1065C00022D068680188A180E7802781A989A181FC
:1065D00000200DE0C100B27909190A74B288CA819D
:1065E00082005219D3894B82128A401C8A8280B25F
:1065F000A1898142EED8D7E002A8009001AB2246E3
:106600002946304600F0CCFBF1E002A8009001AB37
:1066100022462946304600F005FCE8E0F0780628DE
:106620001AD0FF20C149223014E068680188A18097
:10663000E7802781A989A181B188E181E989218247
:10664000EA89296900982BE0F078062804D0FF2019
:10665000B6493C300EF071FCE889694612308880FA
:1066600035200881002CE0D1C1E0F078072804D063
:10667000FF20AE4956300EF060FCA88969460E3006
:10668000888036200881002CBED068680188A180EF
:10669000E7802781A989A1812046AA890E3029692E
:1066A0000EF0AFFA80E0E8896946123080B23822F5
:1066B00088800A81002C79D068680188A180E780F1
:1066C0002781A989A181287A102809D00221A173E4
:1066D000E9892182EA89296900980EF092FA86E018
:1066E0000121F4E702A8009001AB2246294630467A
:1066F000FFF716FD7BE0F078082803D08B498D4822
:106700000EF01BFC14206946888037200881002C7D
:106710006DD068680188A180E7802781A989A1815F
:10672000678227820120A0733EE0F078092804D018
:1067300080487E4918300EF000FC288A69461430E3
:10674000888037200881002C51D068680188A1809A
:10675000E78004212781A173A989A181E989218288
:10676000298A618220462A8A1430696998E702E002
:1067700038E01CE024E0F0780A2804D06D486B492A
:1067800033300EF0DAFB1420694688803720088108
:10679000002C2CD068680188A180E7802781052122
:1067A000A173A78127826782F77020E017E002A813
:1067B000009001AB224629463046FFF78EFD16E0D9
:1067C0000D206946392288800A81002C07D00120DB
:1067D000E08055480188A1802781277307E006994A
:1067E000088010E08F205149C0000EF0A6FB6846DB
:1067F000069980880880002C05D068460089208092
:10680000684680886080002007B0F0BDF7B594B07E
:1068100015460F46149800F0A0FA04000AD0032091
:1068200000F088FB022802D2E078002804D0112072
:1068300017B0F0BD4048FBE71720694601260883E2
:10684000002D0FD00321684601711021018210A88C
:106850000246059004A928460AF01BFD00280DD029
:106860000720E5E708216846017100210781C94337
:10687000418105218673C90281810CE0A878A0714D
:106880002888A080684605218673C902818100217D
:106890000781C943418109AA023206A901A807F06C
:1068A000B2F8002802D000F06BFAC1E707A8009008
:1068B0006846038B04220321149800F051FB002842
:1068C000B6D1E670B4E770B592B00D0006460ED0B2
:1068D00000F043FA04000CD0032000F02BFB022848
:1068E00002D2E078002806D0112012B070BD10202E
:1068F000FBE71148F9E717216846818004210172FE
:10690000298881816988C181012181740B490182B3
:106910000AAA023201A902A807F075F800280FD0D0
:1069200000F02EFAE1E700005800002008650000A2
:106930003C04000063020000023000000228000056
:1069400008A800906846838804220321304600F09E
:1069500007FB0028C9D10221E170C6E770B592B0EB
:106960000D0006460DD000F0F8F904000BD003200E
:1069700000F0E0FA022802D2E078002805D01120C9
:10698000B3E71020B1E7FA48AFE7172168468180E6
:1069900004210172298881816988C1810121817462
:1069A000F44901820AAA023201A902A807F02BF8D1
:1069B000002802D000F0E4F997E708A800906846A4
:1069C000838804220321304600F0CAFA00288CD1C3
:1069D0000321E17089E770B592B00D0006460DD035
:1069E00000F0BBF904000BD0032000F0A3FA02284A
:1069F00002D2E078002805D0112076E7102074E755
:106A0000DB4872E702216846017229888181698822
:106A1000C181172181800AAA023201A902A806F0C9
:106A2000F2FF002802D000F0ABF95EE708A8009062
:106A30006846838804220321304600F091FA00283A
:106A4000DBD10421E17050E7F0B591B015000E469E
:106A500007460ED000F081F904000CD0032000F0AE
:106A600069FA022802D2E078002806D0112011B07D
:106A7000F0BD1020FBE7BE48F9E71721684681808A
:106A800004210172298881816988C181B17881746A
:106A9000318801820AAA023201A902A806F0B3FFD6
:106AA000002802D000F06CF9E1E708A800906846E1
:106AB000838804220321384600F052FA0028D6D1F8
:106AC0000521E170D3E7F7B592B015460E4612984E
:106AD00000F043F904000AD0032000F02BFA02284A
:106AE00002D2E078002804D0112015B0F0BDA048F3
:106AF000FBE70627002D12D0684607728681C58104
:106B0000A5801720694688800AAA023201A902A836
:106B100006F079FF002807D000F032F9E5E70521FB
:106B2000684601728681EBE708A800906846838872
:106B300004220321129800F013FA0028D5D1E7703F
:106B4000D3E7F7B592B016460D000ED0129800F0BC
:106B500004F904000BD0032000F0ECF9022802D263
:106B6000E078002805D01120BFE71020BDE780485D
:106B7000BBE7072768460772868117210495818045
:106B80000AAA023201A902A806F03DFF002802D09D
:106B900000F0F6F8A9E708A8009068468388042268
:106BA0000321129800F0DCF900289ED1E7709CE7E1
:106BB000F3B5172091B00C46002915D021780B00B1
:106BC0000EF0ACFA062B05051A041C2B1520C01E6E
:106BD000E28880B2002A02D0A368002B04D082424F
:106BE00004D90C2013B0F0BD1020FBE7042905D018
:106BF000A088002811D101E00620F3E7119800F0E9
:106C0000ACF805000BD02078092701281AD00228FB
:106C100007D0042824D0052835D00720E2E75448BF
:106C2000E0E76846077161880181E1884181A068D9
:106C300008260390304600F07DF9072829D34C48F8
:106C4000801CCFE70C216846017161880181E188D1
:106C50004181A06803900EE0E878002811D118E087
:106C60000D216846017161880181A1884181E18817
:106C70008181A06804900326304600F05BF9022869
:106C8000EAD31120AEE70E2168460171217B017223
:106C9000F1E717216846018309AA023206A901A873
:106CA00006F0B1FE002802D000F06AF89AE707A8C3
:106CB00000906846038B04223146119800F050F989
:106CC00000288FD12178012907D002298AD00429F0
:106CD00005D0052905D0032084E7082102E0EF70E4
:106CE00080E70A21E9707DE730B591B00C46054692
:106CF00000F033F8002808D0032000F01BF9022828
:106D000005D31B48801C11B030BD1948FBE70F218B
:106D10006846017104811721018309AA023206A97C
:106D200001A806F070FE002802D000F029F8EAE77A
:106D300007A800906846038B04220321284600F030
:106D40000FF9E0E70C49884205D00C4909888142D7
:106D500001D10A4870470020704710B5FFF7F2FFD5
:106D6000002802D08178C90700D1002010BD0000A2
:106D70000230000003280000FFFF00005800002040
:106D8000002806D0012805D0052805D0062805D002
:106D90000320704711207047082070475C487047F7
:106DA000FFB583B003980C9EC0781D4614460F466D
:106DB000012803D05749D2200EF0BFF8F889C0004F
:106DC0000E30288030203080387B001FC0B2019008
:106DD000002C26D078680088A0800020E0802081E8
:106DE000F889A081002616E0F0000519C01900906E
:106DF0002A4641690E3201980AF025FA002802D08D
:106E000000202874E8810098761C008A6882009827
:106E1000B6B2408AA882A089B042E5D80399002082
:106E2000C870F1E4F8B50646C0781F4614460D4612
:106E3000042804D0FF20374903300EF07EF8A889DB
:106E4000062148430E30388033210698002C0180FB
:106E50001AD068680088A0800020E0802081A9897D
:106E6000A18103460CE01946062251434A1909192B
:106E7000D789CF81977C8F74128A5B1C0A829BB260
:106E8000A1899942EFD8F070F8BD70B51446054657
:106E9000142204981A8037220280002C18D04868E7
:106EA00000260088A080487AFF300130E080C88941
:106EB0002081C889A0816682E878082809D009283D
:106EC00011D00A2819D0134913480EF036F8EE7085
:106ED00070BD087B0C2804D00F480E490C380EF00A
:106EE0002CF8012012E0087B0D2804D00A4809493B
:106EF00008380EF022F8042008E0087B0E2804D0A1
:106F000005480449001F0EF018F80520A073DEE7BD
:106F100003300000086500008203000001460020E5
:106F2000F74A02E0401C082803D24300D35A8B42A0
:106F3000F8D1704730B50446F14A0020163A11796D
:106F400053790AE05518AD79A54201D1401CC0B271
:106F5000491CC9B2102900D100218B42F2D130BDA9
:106F6000FFB5E74881B0163841790A9C491CCDB27B
:106F70001E46102D00D10025E14816380079A842A0
:106F800002D1042005B0F0BD0820FFF7D3FF07466B
:106F9000072804D9FF20DBA1A1300DF0CEFF029815
:106FA000082801D1072F17D001982080301D60805C
:106FB000002060712071E68003982081204606F051
:106FC000D3FC00280AD0CE48029916384379821D96
:106FD000995445710020D5E7CF48D3E7FF20C9A1D8
:106FE000B3300DF0AAFF0320CCE7F0B58DB0044616
:106FF00000256846057116468C460620FFF79AFF65
:1070000000281CD121780127C807002801D01329A6
:1070100017D9684687766178C17602218183C58356
:1070200004A8009070680C23008805220621FFF751
:1070300097FF002803D0B3A184200DF07EFF0DB090
:10704000F0BDAF4816380278002AF8D0427863784D
:107050009A42F4D1012918D0132919D16146062981
:1070600016D10570002101200AF01CFE6846077148
:10707000706801886846C1800021C9430181607938
:1070800022790102114368461AE06146062908D0B8
:10709000684600790028D2D0314601A8FDF7A7FE46
:1070A000CDE70570002101200AF0FCFD684607715C
:1070B0006079227901021143684601810021C943A8
:1070C0004181E9E78E4810B50021163801704A1E4B
:1070D000428041700171417101200AF0E3FD10BD51
:1070E00010B5FFF7EFFF0020854902464300401C22
:1070F000CA520828FAD310BD10B50446FFF7E2FFC4
:107100007F4816384480002010BDDBE770470EB57D
:1071100001216846017081498180C1800021FDF70D
:1071200066FE0EBDF7B505460078002700090C463F
:107130003E46012804D0FF2072A164300DF0FDFE10
:10714000287A02280CD0FF206EA17A300DF0F5FECF
:107150000298002C068001D0278066800020FEBDAA
:10716000EA89702710460A3086B2002C0BD0686876
:107170000088A080A8892081E28020460A30296901
:107180000DF03FFDE4E702980680E7E7F8B54368B5
:107190000246D9799C79090221435C7A1E7A25023C
:1071A0005C88981D3543241FA1421DD11B79022BF9
:1071B0001AD1042D19D0052D26D0062D19D0402D19
:1071C00012D3061D0F4614462846FFF7A7FE0828CF
:1071D0000AD01120207002202072A581E78126614B
:1071E0006078082108436070F8BD001D00F0D9F8F0
:1071F000F8BD041D0D46FEF7F9FE0028F8D029461B
:107200002046FDF730FEF8BD001DFFF7EEFEF8BD8D
:1072100010B53B4C8AB0163C2278012A26D01223A6
:107220006A46937363789B1CD373082313820B887D
:1072300053824B8893828B88D382C988118301A99A
:1072400000910C2305220721FFF78AFE00280BD1AD
:107250000022F023114601200AF07FFC012020705B
:107260006078801C607000200AB010BD1120FBE720
:10727000F8B5234C0027163C0646A51D1BE0607997
:107280002179884204D187201EA180000DF055FE8F
:107290002079405D042804D0082804D17F1CFFB267
:1072A00001E0FDF7F2FD2079401CC0B220711028EA
:1072B00001D1002020713046761EF6B20028DED1C2
:1072C0003846F8BD10B50446402801D2072010BD4D
:1072D000FFF724FE082802D03120000210BD002153
:1072E000074802E0491C082903D24A00825A002AB2
:1072F000F8D1082914D049004452002010BD0000E4
:10730000DA1300207372635C6C326361705F636FC9
:1073100072652E630000000004300000FFFF0000D3
:107320000420EBE700B5402801D2072000BDFFF79D
:10733000F5FD082805D000213B4A400011520846BF
:1073400000BD052000BDF0B58BB016460C00074609
:1073500007D0002E05D06188402904D207200BB049
:10736000F0BD1020FBE72088002801D0172801D9A4
:107370000C20F4E70846FFF7D1FD08280FD0258838
:1073800003A82A46314602300DF03BFC01A80090CC
:1073900062882B4608213846FFF7E2FDDFE705202B
:1073A000DDE7F0B50E46074601468BB014460125D1
:1073B000304606F0A5FC08281CD100206946088547
:1073C0000120FFF7B7FD002802D117206946088584
:1073D00003AB02330AAA39463046009407F0A3F8FB
:1073E000002809D0022818D0032803D00F49FC2018
:1073F0000DF0A3FD2846B2E76846038D002BF9D0B7
:1074000001A800906068042200880121FFF7A8FD10
:107410000028EFD00549E720EAE760780025102131
:1074200008436070E6E70000DA13002004730000F0
:10743000002803D08178012939D101E0102070475C
:107440000188FA4A881A914233D01BDCF84A881A1C
:1074500091422ED00BDC00292BD00320C002081A49
:1074600027D0012825D001210903401A07E001286F
:107470001FD002281DD0FF281BD0FF38013800285C
:1074800015D116E0FF220132811A904211D008DC9A
:1074900001280ED002280CD0FE280AD0FF2806D1E1
:1074A00007E0012905D0022903D0032901D00020DB
:1074B00070470F20704700B50A2821D008DC030070
:1074C0000DF02CFE0A1C2024241A24282224261A1B
:1074D000102819D008DC0B2816D00C2814D00D2841
:1074E0001AD00F2808D111E011280FD0822807D018
:1074F00084280DD085280DD0032000BD002000BDBC
:10750000052000BDCB4800BD072000BD0F2000BDF9
:10751000042000BD062000BD0C2000BD70B5002970
:107520000BD0CB1FFA3B81241E46CDB2112B1BD2B0
:10753000012805D0022806D009E0002010701DE0C7
:10754000FF20043001E0FF200330814218D03300D7
:107550000DF0E4FD11161313161316161316161656
:1075600013131313161316000846FF3881381F280B
:1075700003D9FF39FE39022902D81570002070BDE9
:107580001470072070BD00B503000DF0C7FD0604A0
:1075900006040C080A0C002000BD112000BD0720C5
:1075A00000BD082000BD032000BD00780207120FB7
:1075B00004D0012A05D0022A0AD10EE0000907D121
:1075C00008E00009012805D0022803D0032801D0D3
:1075D0000720704708700020704706207047002879
:1075E00007D0012807D0022807D0032807D007209A
:1075F0007047002004E0112002E0212000E031204B
:1076000008700020704738B50C4605004FD0694619
:10761000FFF7CBFF002822D120880321890288436D
:10762000694609788907090D084320806946681C66
:10763000FFF7BBFF002812D12188032000038143FC
:10764000684600788007800C01432180A8784007B5
:10765000820F2020012A03D0022A03D0072038BD40
:10766000814300E00143218088B20105890F08D0E1
:10767000012189038843A9780907C90F89030843B1
:10768000208080B28104890F0AD0A9784004C906FD
:10769000C90F400CC903084320808004800F02D129
:1076A0002088400403D52088402108432080002002
:1076B00038BD70B504460020088015466068FFF7A5
:1076C000A2FF002815D12189A089814210D86168C4
:1076D000594E8978C90707D0711E884208D83146AB
:1076E0000DF009FB298009E0FF21FF31884201D913
:1076F0000C2070BDFF30FF30033028806068807838
:10770000C007A08903D031460DF0F5FA03E0FF3041
:10771000FF30033081B229802068817847480173A7
:1077200020684649008820394885002070BD10B582
:10773000137804785B08E4075B00E40F23431370BD
:10774000FD2423400478A407E40F6400234313704E
:10775000FB24234004786407E40FA4002343137040
:10776000F724234004782407E40FE4002343137034
:10777000EF2423400478E406E40F2401234313702C
:10778000DF2423400478A406E40F6401234313702C
:107790000078BF244006C00F2340800103431370CC
:1077A000002906D00878C10701D1800701D5012042
:1077B00000E00020C0015906490E0843107010BDBA
:1077C00030B50A8803239B0204889A4323059D0F42
:1077D00002D1A3049C0F01D09B0F00E001239B0268
:1077E0001A4303230A801B039A4303889804840FD7
:1077F00002D11805830F01D0800F00E001200003A3
:1078000002430A8030BDF3B591B00D0018D0119835
:10781000002818D0122128460DF050FA01A90120A5
:1078200007F07DFE00242646374677E00229000057
:107830000128000003300000010200000C140020A9
:10784000102013B0F0BD0720FBE76846007C01283C
:107850000BD16846C1890520C002081A0AD0012848
:107860000AD002280CD003280CD0042C0ED0052CF2
:107870000FD10DE0012400E002246846868908E06B
:10788000032406E068460424878902E0052400E01A
:10789000062468468189119881423FD12C74002EBC
:1078A0003AD00BA800900CAB10220021304607F014
:1078B000C8FE002820D16846808D2A46C0B20CA997
:1078C00009F0C1FC002817D1AE81002F24D00BA8ED
:1078D000009006AB13220021384607F0B2FE0028C4
:1078E0000AD16846808D06A9C01E0331C0B22A1D88
:1078F00009F0A9FC002801D00320A2E76846817E98
:10790000427E08021043E881062C05D16846007CBF
:10791000A8726846C0892881002092E701A807F074
:1079200006FE002891D0FFF7C6FD8AE7002804D0A4
:10793000012903D0022904D003207047F949C98DD9
:1079400002E0F8494031C988814201D100207047E6
:107950000720704730B5F34C0025608B91B0C00B09
:107960002ED1216900292BD0207B800728D4012229
:1079700068460271027200224272228B8281A28AC0
:10798000828204911721018309AA0023023206A9E9
:1079900001A807F07BF9002803D0FFF7F4FD11B030
:1079A00030BD207B02210843207307A80090694660
:1079B0000B8B208804220121FFF7D2FA05460BE049
:1079C000FBF7C2FC842101700921017218341ECC1E
:1079D0000C301EC0FBF7D4FC2846E0E710B5D14CB4
:1079E000034621690020002909D0214601221031D7
:1079F0001846FBF783FE00202061A0820120217B36
:107A0000F9221140217310BD70B50C4605461C21AA
:107A100020460DF053F900202080002D08D0012DC4
:107A200004D0C1A1C5480DF088FA70BD062000E061
:107A30000520A07070BD10B507F050FB10BDFEB55D
:107A40000546007800260C46374603000DF066FB1D
:107A50000C91070C1D962F462F46486C899168683B
:107A60000A38FBF7B0FD89E0002904D0B348AEA185
:107A70001B300DF062FAFBF767FC044640780821E2
:107A800008436070FBF77CFC78E0002C04D1BB203D
:107A9000A5A180000DF051FA284601F0A2FA0028B5
:107AA0006CD06078082108436070022666E0E888A0
:107AB000694608800190002C04D1A0489AA12F307B
:107AC0000DF03BFA287807281CD10198C00B19D07B
:107AD000944800218171A988818012E003264DE03D
:107AE000002C04D1C52090A180000DF026FA8D480D
:107AF000017B89070BD50069002802D0E888C00BFC
:107B00003CD00226607808210843607036E0291DC9
:107B10008EC918308EC028380188022601222046DE
:107B2000FBF7CEFD0127EDE7002C04D183487EA1B1
:107B300064300DF002FA7B480821007B4007C00F3B
:107B40004600607808436070002E17D1287901281C
:107B500002D16879002811D02046FFF73FFF074681
:107B60000CE0002CCED10D206FA180010DF0E5F9C5
:107B7000C8E772486CA17A300DF0DFF9002C0CD008
:107B80006078000709D5002F07D184202070204697
:107B9000582229460830F9F717FB3046FEBDF7B5E5
:107BA000027A88B00C46054620460C3004900692B6
:107BB00016300027921E02903E460A3159481300A3
:107BC0000DF0ACFA0ADF06E62AE62AE66A98C6E66F
:107BD0004288002A02D052270726DDE051271E26C0
:107BE000002C7DD06A684F481288A2800122A271C1
:107BF0008079C0004019C089FFF705FE002877D1C1
:107C000048488179C9004919C98921818079C00012
:107C10004019408AA083BFE0688A00900698072830
:107C200017D1E889C00B14D000985127223086B2B2
:107C3000002C55D0A8890499FFF7E5FD002857D1FD
:107C400068680088A0800220A071A8892081012096
:107C500041E000985027203086B2002C40D0A889FF
:107C6000FFF7D1FD002843D168680088A080A8896B
:107C7000E080287A07280AD002202072288AA08370
:107C80000098E083204669692030009A01E00120D5
:107C9000F3E70CF0B6FF7FE0698A009101690029E3
:107CA00002D0E989C90B22D00099512722318EB226
:107CB00000218171A9898180002C5FD00088A0807B
:107CC000A8890499FFF79FFD002811D10220A07117
:107CD000A88920810420A072288AE083009801E00E
:107CE0004CE005E020846969009A0298D1E70320FE
:107CF0000BB0F0BD007B400702D55127222601E0E2
:107D000050272026002C39D06868502F0088A0808A
:107D100016D00220A0712146287B0831FFF774FE9F
:107D20003AE00000EC1300207372635C67617474C6
:107D3000735F636F72652E6300000000CB0200006A
:107D4000287BA11DFFF760FE0020FFF747FE23E020
:107D5000A9890089884207D154270626002C0DD016
:107D600068680088A08017E053270826002C05D0FB
:107D700068680088A080A889E0800DE00A980680E5
:107D800010E055270726002CF8D00020A07103E052
:107D9000FD49FE480DF0D1F80A98002C068001D06C
:107DA000278066800020A3E7F9480021017220386F
:107DB00001814181418081718180027BF9235208D8
:107DC00052001A40027301618182704770B5F04C15
:107DD00086B0203C208000206080A071A080694691
:107DE000012007F09CFB102608E001990888024654
:107DF0001207D20FB043120110430880684607F003
:107E000096FB0500F1D02069002804D0DF48DE4948
:107E100033300DF092F8207B800704D5DB48DA4937
:107E200034300DF08AF8822D04D02846FFF743FB4A
:107E300006B070BD0020FBE7D54810B52038017BA7
:107E4000012211430173002141808171818006F07C
:107E500019FB10BD10B5CE4C0020C043203C208043
:107E60000020FFF7BBFD207B40084000207310BDC1
:107E700070B5C74D0446203D287B800704D5C34814
:107E8000C1494B300DF059F8287BC00706D128882E
:107E9000C049884202D02869002801D0082070BD5E
:107EA000002C08D0A088162801D2092070BD2068B7
:107EB0002861A088A882FFF74DFD70BD10B50C4663
:107EC00007F001FB002804D0C520AF49C0000DF029
:107ED00034F82046FFF7EFFA10BDF0B5AC4D04467C
:107EE000203591B00020089068820E462882E881F3
:107EF0002946E8804039088669460883088508864F
:107F000088838882A2480E90007A1746012808D0FC
:107F1000022806D0032804D0042802D0082011B07B
:107F2000F0BD9D498C425FD301208004844202D37E
:107F30009A4A944258D398498E4255D301208004DE
:107F4000864202D3954886424ED36068002814D0FA
:107F50009149884248D301218904884202D38F493C
:107F6000884241D360892189884203D80122520284
:107F7000914201D90C20D2E7089010AA0CA93046F2
:107F8000FFF797FB0028CAD106A92069FFF73BFB42
:107F90000028C4D1206900280CD060788007002810
:107FA0006846008B03DA8004800F6ED002E0800404
:107FB000800F6AD16846008B810617D58004800F38
:107FC000606805D0002811D0744988420CD301E0C4
:107FD00000280BD07049884206D3012189048842C9
:107FE00004D36E49884201D2102098E705A9606940
:107FF000FFF709FB002892D16069002808D0684685
:10800000808A0105890F01293FD18004800F3CD06F
:1080100007A9A069FFF7F7FA002880D16846808A8F
:10802000800632D46846808B81062ED4A16900294F
:1080300006D00105890F012927D18004800F24D0A3
:10804000E068002804D0007800281ED01C281CD22C
:108050004F4A611C123220460992FFF768FB032148
:1080600000208902884301218902411868460D9148
:108070000185012181744A490182454A0FA91532BF
:10808000306809F006F9002801D0072047E708A862
:10809000007F3F49C01CC2B26A7100201031FF321C
:1080A00000900190FF3203460291039003320AA927
:1080B00004A807F0A3F9002827D135482038008EFE
:1080C0000B903348338938303269014612390291B6
:1080D00000930192039010A90A8873890CA9306853
:1080E00007F08CF901007DD12948E98811308170B1
:1080F000090AC1700026009631386A79008E31462F
:10810000099B07F0FAF8002802D0FFF7D4F906E738
:108110000E98807CC00928D068460D990185012100
:108120008174292109020182AE81287B617840088F
:10813000C9074000C90F08432873FD210840617832
:1081400002228907C90F490008432873104800928A
:108150002A30811C0191029000230396114A0AA93A
:1081600004A807F04BF901003CD1606800283BD01F
:10817000206900281ED106A90CA8FFF721FB607812
:10818000800717D469460FE0287D00002204000014
:108190000C140020FFFF0000006001000020002000
:1081A0000328000003020000088B03210903884311
:1081B00069460883012069468874FD480882208941
:1081C000FC490CF098FD6268089BFB480192009303
:1081D00002900A460396002306A904A807F00EF9A8
:1081E000010000E07EE07DD12078C10601D4800648
:1081F0002ED568460684606900280DD105A90CA813
:10820000FFF7DEFA6846808A03218902884301214C
:1082100089024118684681826946888A4821084354
:108220006946888201208874E14808AA401C0882B7
:10823000E1490192891C0220DE4A0291009000234C
:108240000396921C05A904A807F0D8F8010063D191
:108250002078C0072ED068460684A06900280DD17A
:1082600007A90CA8FFF7ACFA6846818B03208002AF
:108270008143012080020918684681836846818B0A
:10828000402001436846818301218174C84908AABE
:10829000891C0182C8480192001D0221C54A009133
:1082A000029000230396921C07A904A807F0A6F8E1
:1082B000010031D1E068002832D068460D9901856F
:1082C00001218174BA49C91C0182E16808A80A78B1
:1082D000027049784170E068418868464184E068EE
:1082E000017900E018E008A80171E0680722C18860
:1082F00008A84171090A8171AF4808A9801D009240
:1083000001910290412200230396D2000AA904A8F9
:1083100007F074F8010003D00B98FFF7CFFDFEE5DE
:1083200003210E98002F017207D0E8883880E88971
:108330007880288AB880688AF8800020EFE5F0B558
:1083400001248BB016460F46012802D002281BD10B
:1083500004E0684605218474C90202E06846974932
:1083600084740182002F11D00321002089028843E8
:108370000121890241186846018506AA05A93846E7
:1083800008F087FF002803D00720B1E41020AFE4F5
:10839000894DB8782E3D287338882F46203F788540
:1083A0006A46127D0020294606AB00920E310193E9
:1083B000FF32029103900346FF3203320AA904A858
:1083C00007F01CF8002802D0FFF775F890E4002EA3
:1083D00001D0F88D30802C72002089E470B592B005
:1083E0000446012508A8857075496846018406F091
:1083F0007CFF002208A90120FFF7A1FF064606F036
:1084000078FF30003AD120780024C00700283FD000
:108410001C2168460CF054FC68460178202001437A
:108420006846017008A88570664968460184119401
:108430000794817FF9200140891C684681770020DC
:1084400001466846017700200146684641770421CD
:108450008185C485018607A80A9011A80D9008A8F7
:10846000099006F042FF0EAA09A96846FFF735FDFC
:10847000054606F03EFF002D02D0284612B070BD22
:108480004D486946098F4E3801816946898F41817F
:1084900049482E3804720020F0E7F7B5464E9CB0EC
:1084A00000212E3E0091317A012904D0022902D008
:1084B00008201FB0F0BD40494E39CA8D824201D01C
:1084C0000620F6E71D98824201D10720F1E73B48DC
:1084D000012110AA9176401C1083002003239B02E7
:1084E00002469A438B02D31810AA93846A46918459
:1084F0003549D18410AA9077908317AA0A926A46C8
:1085000091850C9009A807F031F8002425462746EC
:1085100004A909A807F02DF8002810D082287BD1E3
:10852000002C7CD0002D7AD010A804814581002435
:10853000047518A8807812AD012872D07AE06846D8
:10854000807D002F1FD0012862D16846818A1B4898
:10855000401C814219D114A800906846408A0EAB95
:108560001022002107F06DF8002877D110A8008AAA
:10857000042801D006285BD16846018F1D988142EE
:1085800046D10F2095E7012842D16846808A05210F
:10859000C902884202D0491C884239D106484E3867
:1085A000C18D6846408A814210D101270FE000004A
:1085B00001290000010200003A14002001280000F7
:1085C00001180000052A0000FFFF00000027002C12
:1085D00001D0002D0DD01D99884219D114A9009108
:1085E00004460EAB1022002107F02BF8002835D1ED
:1085F00001E0009D0CE010A8008A022801D010289C
:1086000016D1C0B218AA0EA908F01DFE00280FD17D
:108610006846408A00907BE720E000E001E005200A
:1086200047E72A1D15A918A808F033FE002801D035
:1086300003203EE710A8007D0023001DC2B210A851
:1086400002751E98029019A901950394009216A82C
:1086500006F0D4FE002801D102213172FEF72BFF73
:1086600027E73EB50B46401E84B201AA00211846FA
:10867000FFF75DF806F039FE02A8009001AB012279
:108680000021204606F039FE044606F032FE684618
:108690000089012803D0FE49FE480CF04EFC20461C
:1086A000FEF709FF3EBDF0B5FB4E0446307A89B0B7
:1086B0000F46032804D0042802D0082009B0F0BDDA
:1086C00004AA06A92046FEF7F4FF0500F6D1F248F9
:1086D00023893830226901461039029100930192B2
:1086E000039069460A8A638906A9206806F086FE17
:1086F000002802D0FEF7DFFEE0E7002F03D0E648B7
:10870000203000893880042030722846D6E738B5FA
:108710000C00054608D00022694606F0ECFF002850
:1087200004D0FEF7C8FE38BD102038BD694620468B
:10873000FEF769FF0028F8D1A0786946C207D20F7A
:10874000284606F0F3FFECE73EB50C0008D002AA7D
:10875000694606F0D0FF002804D0FEF7ACFE3EBD0F
:1087600010203EBD032120460CF0A8FA6846008880
:1087700001A90005800FFEF732FF00280BD16846E3
:10878000007920706846008801A98004800FFEF7F8
:1087900026FF002801D003203EBD684600796070A6
:1087A000A278EF20024068460088C10B09010A4305
:1087B000F7210A404104C90FC9000A43A270F921F8
:1087C0000A40800601D5012000E0022040006946F1
:1087D0000243097A50084000C907C90F0843A07036
:1087E00000203EBDFEB51D4614460E46074606F067
:1087F0007CFD01A8009022882B463146384606F0C1
:108800007CFD054668468088208006F072FD28467B
:10881000FEF751FEFEBDF0B50C46002199B00746AB
:10882000684681850D46002C11D0E068002806D0EE
:10883000A06800280BD002886B469A850180A0783A
:10884000012806D0022804D0072019B0F0BD10205E
:10885000FBE72088002807D0401E80B201A906F05F
:108860005EFE002842D136E08C48EEE769468A89F0
:1088700021888A420BD26846007C002501282CD131
:108880006846C0898649884227D1012525E08A4269
:1088900003D1002D2FD06D1C01E0022D02D0032D3D
:1088A0001BD31FE06946097C012916D169467C4B20
:1088B000CA895B1ED11A9A421DD005DC7948101A6C
:1088C00019D0012809D116E0012914D0FF39013946
:1088D00003D1032506E00D26B60201A806F027FE07
:1088E0000028C3D0822804D0002806D0FEF7E3FD7C
:1088F000ABE7022DFAD13046A7E7E068002813D095
:1089000006F0F3FC0BA800906A46A1882088928D9F
:10891000E36806F0F2FC054606F0EBFC002D19D1E9
:108920006846A168808D088002980078C00601D54D
:108930005D488AE706F0D9FC0EA800906846808959
:108940000CAB0222002106F07CFE054606F0D1FCAD
:10895000002D01D02846C9E76846008F022801D0C3
:10896000032072E7A078012808A8007C03D08007C4
:108970000ED4082069E7C007FBD00820FEF7DAFA1A
:10898000072802D34548401C5FE70825022001E084
:1089900002250320694608762188684681831721CD
:1089A000818611AA002302320DA906A806F06EF9ED
:1089B000002802D0FEF7E7FD47E70FA800906846C1
:1089C000838E042229463846FEF7CAFA3DE770B581
:1089D000064615460C460846FEF72AFD00280AD131
:1089E00006F083FC2A4621463046FFF7A8FC0446E1
:1089F00006F07FFC204670BD70B514460D46064655
:108A000006F073FC224629463046FFF746FD044631
:108A100006F06FFC204670BD70B51E4614460D0072
:108A20001AD0002C18D06168002915D00121FEF75A
:108A30007DFF00280FD12068FEF7FAFC00280AD13C
:108A400006F053FC324621462846FFF746FA044614
:108A500006F04FFC204670BD102070BD70B5154665
:108A60000C0023D00221FEF761FF00280ED1206800
:108A7000FEF7DEFC002809D106F037FC2946204627
:108A8000FFF711FE044606F034FC204670BD0000DE
:108A9000287D00003E0600000C140020033000007A
:108AA0000328000000280000013400001020EDE73A
:108AB000FEB50746FF481C4615460E46824218D3AF
:108AC000002C01D0844214D3384600F047FA002825
:108AD0000AD1002C0FD101AA6946384606F00BFED8
:108AE000002802D0FEF7E7FCFEBD6846008880063D
:108AF00001D41020FEBD23462A4631463846FFF7F2
:108B000071FEFEBDFFB585B01E4614000F4609D0AC
:108B100003AA02A9059806F0EEFD002804D0FEF78E
:108B2000CAFCCBE51020C9E568460089C00601D51E
:108B3000E148C3E506F0D9FB01A800900023DF4A15
:108B40003946059806F07DFD054606F0D2FB002D5E
:108B500011D1002E0CD006F0C8FB00200090228816
:108B600033463946059806F06CFD054606F0C1FB14
:108B70006846808820802846D1E7002906D0D04B5F
:108B80000A885B899A4201D8CE48704743E610B5FF
:108B900086B004236C46A382C94B1C89002C07D0E5
:108BA0005B898B4201D2914204D9C64806B010BD00
:108BB0000620FBE76B4619825A8200210091019141
:108BC0001C800221997005A9029104A903916946AC
:108BD000FFF721FEEAE7F0B591B00D468120694626
:108BE000087105F081FC0646002D08D02878B44CA9
:108BF000012806D0022828D0072011B0F0BD10208F
:108C0000FBE7A98801AAFEF789FC0028F5D1B00787
:108C100034D568460079002820D1A879C0071DD036
:108C200006F063FB002000906A892989A088EB6820
:108C300006F063FB6946087106F05BFB694608793C
:108C400000280BD0FEF737FCD7E7A98801AAFEF76A
:108C500065FC0028D1D1342006420FD0012168469E
:108C60000172017301794173F00609D5A188684644
:108C70000182A18A01832069059004E00820BCE7F5
:108C8000A08869460882FAF75FFB05461720694607
:108C900088830AAA2B46023207A902A805F0F6FF2C
:108CA00007466878000701D5FAF76AFB002F03D062
:108CB0003846FEF768FCA0E7F00603D5207B0621C6
:108CC00008432073B00602D50020FEF787FE08A8EF
:108CD000009069468B8B208804220121FEF740F921
:108CE0008BE7F0B5002695B014460D4600290FD04D
:108CF000022C4FD3A71EBAB270480AF037FE2919CA
:108D00001039CA7B8B7B11021943884242D1BCB215
:108D100001A9012006F003FC7AE0029F38880107D0
:108D200076D5002D41D0A9190691CA788B78361DC9
:108D30001102B6B219438919A1422BD869468A8912
:108D400006994B7809781B020B439A4222D1C00640
:108D500023D506F0CAFA07A800900698AB19C17887
:108D600080780A020699024348780978000208438D
:108D7000002106F0C2FA009006F0BBFA0098002825
:108D80003ED10698C178827808026946898B1043E3
:108D9000884202D00B2015B0F0BD0698C1788278C9
:108DA00008021043801986B22EE0C0062CD50020A0
:108DB00007AA01461154401C80B21028FAD306F0CD
:108DC00094FA06A80090684600238089102219466C
:108DD00006F037FC0090002803D006F08AFA0098CD
:108DE0000EE00BA86946009088890A8B07AB00212A
:108DF00006F083FA009006F07CFA0098002803D071
:108E0000FEF759FBC7E703E0388810218843388014
:108E100001A806F08CFB002800D17EE7284D698868
:108E2000002921D001226846027602770024447787
:108E30000184172181850EAA234602320BA906A8B8
:108E400005F024FF002802D0FEF79DFBA3E70CA845
:108E5000009069468B8D288804220121FEF780F856
:108E6000002898D16C8096E7002094E7F0B50024A4
:108E700087B015460E46002A04D002A9012006F04C
:108E80004EFB4CE0102007B0F0BD039800780007BF
:108E900045D506F02AFA01A8009068460023008A0A
:108EA000064A194606F0CDFB074606F022FA002FC7
:108EB0002ED109E00020002001340000FFFF000057
:108EC000EC13002003300000002E23D06846808879
:108ED000298820183719001D814230D36946098A34
:108EE0003970090A797069468988B970090AF97078
:108EF00006F0FBF901A869460090088A8A883B1DA4
:108F0000002106F09EFB074606F0F3F9002F01D082
:108F10000320B8E7684680882018001D84B202A8A4
:108F200006F005FB0028B0D0822802D0FEF7C3FA75
:108F3000A9E7002E0ED02988A01C814201D20C2066
:108F4000A1E72246314639480AF010FD3119087070
:108F5000000A4870A41C2C80002094E700B585B05E
:108F60006946FEF750FC00280AD16846007C0300E1
:108F70000CF0D4F808052F2F2F2F080805310320F7
:108F800005B000BD68468078012807D16846008892
:108F90000321C902401A1CD001281AD068468079E2
:108FA000012806D16846808815214902401A052803
:108FB0000FD96846807A012811D168460189292095
:108FC0000002081A05D0022803D0032801D0042883
:108FD00005D10F20D4E7164916480BF0AEFF00204C
:108FE000CEE738B5144A0021518003791AE0CC004D
:108FF0002418A46800946C462488250707D5E50644
:1090000005D5D90008182038C08B508006E06404CC
:1090100006D59171C9000818C0889080012038BD1C
:10902000491CC9B28B42E2D8002038BDFFFF0000C6
:10903000287D000033020000EC1300200120F949D4
:109040004006C861704770B5F64D0024AC702846E4
:109050006C7020304470C4736C61AC72AC6209F007
:10906000FEFEA861284630300AF098FD002804D0A2
:10907000FF20EDA13A300BF060FFEF48C463012000
:109080004006E86170BD70B50125EC4902260E600E
:10909000E949CD63EA49C96A09070ED4E849403174
:1090A000CB6AE84A53620B6B93624B6BD3628B6B58
:1090B0001363C96BD30519435163DA49E24CC9699B
:1090C00000282BD001282DD0FF20D7A169300BF02C
:1090D00034FFDE48A063FF20043060632563DC4971
:1090E000032008602061D849962040314860DA4862
:1090F000D8494163D649FC390163D649091FC16388
:10910000D349F03981630320D349000340394860D3
:10911000D24910204860D248066070BDD1486061D5
:10912000D14804E0D048E0306061CF48801F01435F
:10913000A161CEE7BB49012008707047B949002002
:109140000870704770477047BF4940310028086871
:1091500002D00122104301E040084000086070473F
:1091600070B50C46AF4D01460622E81C0BF049FDD8
:109170006C7270BDAB48203040787047A94A91703E
:109180005070704770B50D460446082904D9FF2079
:10919000A5A1C6300BF0D1FE0022B44809E0910031
:1091A000635809180B6053001B191B8C0B62521C6F
:1091B000D2B2AA42F3D3206BAC494031086070BDF3
:1091C0000B23DB4310B5C21A9F4998421FD008DC1D
:1091D0001C3222D00A2A20D0142A1CD0182A08D1E6
:1091E00017E0083011D004280DD0082809D00C2829
:1091F00005D0FF208CA1F2300BF09FFE10BD0420A3
:109200000CE000200AE0FC2008E0F82006E0F42052
:1092100004E0F02002E0EC2000E0D820C86010BD9F
:1092200080482030007B704710B5874CC178616260
:109230000BF048FD0002E06110BD252808D026286B
:1092400008D0272808D041000A2807D8091D06E0C1
:10925000022105E01A2103E0502101E0891DC9B275
:10926000794A916078494031486170476D49486159
:10927000704770B56B4CA07200F01FFBA07AC0075E
:1092800040D0734D2868800703D467A178480BF05D
:1092900054FEA07A01061DD5800707D5744862A147
:1092A000801C0BF04AFEA07A000613D520786A4E87
:1092B000012816D0002804D051205BA1C0000BF07B
:1092C0003CFE6C487061A0693061FF20624901304A
:1092D00040394860A07A800714D52868C00708D1B3
:1092E00002E06448001FEDE761484FA11A300BF01F
:1092F00024FEA07A4007286801D5042100E0082157
:109300000843286070BD70B50021464C012561748A
:10931000002807D0012818D002281AD0544842A1AA
:1093200045380BE000F0C9FA52482178001F0129A6
:1093300007D0002907D011203BA140010BF0FDFD13
:1093400070BD056070BD456070BD8120FFF791FF65
:1093500070BD00F0B2FA6069002804D1452032A146
:10936000C0000BF0EAFD6169A06A40184249C8607C
:1093700039484249403001603E490C31416008148F
:1093800035494039486027482030C57370BDF8B56D
:109390000C2069460870314C6068C006C50F102665
:1093A000A66034480021FC300161324B01221B1FB2
:1093B0001A610BE000BF00BF00BF00BF00BF00BFCD
:1093C00000BF00BF6B461A78521E1A706A461278A8
:1093D000002A02D00269002AECD0016168460078B8
:1093E000002804D1224810A131380BF0A6FD002D31
:1093F00000D06660F8BD0B490020C861704710B509
:109400000BF060FC00021049000AC86310BD0B4954
:10941000022008607047094902200860104908606E
:1094200070470000481400207372635C68616C5FD1
:109430007263732E63000000C01F004080E100E0F3
:109440008000001000170040001500405B0600007F
:10945000001200404480004040F5014000130040ED
:1094600080E200E006010200250003000016004033
:109470007702000004100040408500404C8100400D
:10948000F74902200860CBE7F6490870C8E710B535
:10949000F5480AF08BFB002803D0F449F4480BF0A0
:1094A0004CFD10BD10B5F0480AF098FB10BDF14915
:1094B0004860B5E7EC4910B53039EF4B0022C86081
:1094C0005A60896A0818ED49486000F0FDF910BD3E
:1094D000E54810B5C6213038C160E74A0021516027
:1094E000806AE649C630486000F0EEF910BD012000
:1094F000E34940028860DC4900203039C860DF4918
:1095000048608DE7D84900203039886288E7D6481E
:10951000DA493038806AFE30886081E7D749002018
:1095200088607DE7D7480168102291430160D649E1
:109530000120886174E7D5490020C861D1480168DD
:109540001022114301606BE700B5FFF7EBFFC6493E
:1095500000203039087400BD00B5FFF7ECFFC249A8
:1095600001203039087400BDC849CA69012A01D0F8
:10957000002055E7BF4A403292685206520E5242CE
:1095800002700020C86101204AE7F8B5BF4C20698D
:10959000012806D00021B44830380078012802D0D4
:1095A00004E04021F7E7E268012A04D000220A43E0
:1095B000012802D004E02022F9E76168012905D0E2
:1095C00000211143B24A002802D007E01021F8E739
:1095D0001368012B02D1E368012B04D000230B4355
:1095E000002802D007E00823F9E71168002902D11A
:1095F000E168012905D000221A439F4E002802D0BD
:1096000004E00422F8E77168012904D00021114325
:10961000002802D004E00221F9E76068012829D07F
:1096200000259C480D4301680906090E02D06169B6
:10963000012900D000218C4F103F397300680006CB
:10964000000E02D0A069012800D0002078738B485A
:109650008068002803D000F03BFA012800D00020E9
:10966000B8730021E160216161606161A161716095
:109670002846F8BD0125D4E77B4930394874CFE648
:10968000F8B5794E0127103EF07B0025002826D042
:109690007C4C206800902560FFF779FE00982060E0
:1096A0007A48C5600561456045618561744900146B
:1096B00088603446203C2178734801290BD000296A
:1096C0000BD06B486949B9300BF037FCF573607CFF
:1096D000022879D0F8BD0760F8E74760F6E7FFF7A2
:1096E00054FF0446604D0020303D68746348426872
:1096F0006A620068A8622978002909D1A97800293E
:1097000006D05C4B5B681B780B406978994309D0A5
:1097100000213170E10707D0104602F016FD01214B
:10972000A86A08E03770F5E7A10601D5022102E03A
:10973000A10702D5002102F017FD4E4F79680622DD
:109740000931E81C0BF030FA002807D1687A7968F3
:109750000978C909884201D1012000E00020707019
:10976000204600F0BBF83F48C6260078002816D0F7
:1097700001282AD002283DD003285AD093203B4903
:10978000C0000BF0DAFB287C002804D028780028E1
:1097900064D0FFF7C7FE2878002860D086E0A007D5
:1097A00001D501F0CDFB200703D50120EE6001F0CB
:1097B000EFFB600703D50020EE6001F0E9FBA00697
:1097C000E1D501F06DFBDEE774E0A00701D503F001
:1097D00005FF200703D50120EE6003F07EFE600741
:1097E00003D50020EE6003F078FEA006CBD503F091
:1097F000FFFDC8E7A007BF27002802DA3C40F9F7C1
:10980000F5FB200704D53C400120EE60F9F7EDFBA5
:10981000600704D53C400020EE60F9F7E6FBA006A7
:1098200002D53C40F9F7E0FB6006ACD5F9F7DFFB69
:10983000A9E7A00701D5F9F7DDFB200703D5012033
:10984000EE60F9F7D6FB600703D50020EE60F9F76C
:10985000D0FBA00697D5F9F7CBFB94E71CE01EE000
:1098600000E100E06000002078140020289400004F
:10987000AD020000001500404081004040850040DE
:1098800000F50140001200400010004000110040AF
:109890000014004040160040FFF74DFE7BE7E868EB
:1098A000002803D0A96A091828484160687C01286B
:1098B00000D00FE7F9F7ACFBF8BD2549032008609D
:1098C000881524498860ABE5224823494030C161AE
:1098D000224981611F4940154860A1E570B50546E0
:1098E000FFF7EBFF1E4CA17A080701D568071CD4CF
:1098F0001C4AC80605D5507B002802D0907B002862
:1099000013D0880602D5107800280ED1480602D55B
:109910005078002809D000208A070026002A07DA9C
:109920004A0704D50122227002E00120F4E72670E4
:10993000CA0709D0AA0705D4890705D5002803D08E
:10994000A80601D4FFF723FDA67270BD4085004034
:109950000012004000F5014010100040448100401A
:1099600048140020681400202E4800210170417026
:10997000704770B5064614460D460120F7F7ACFE59
:1099800028490120284B08709E60DC601D6170BD75
:10999000F8B504460120F7F79FFE22490120087020
:1099A00021494C60214900264E600321204D890247
:1099B000A960204F002C0AD0012C03D01EA140200A
:1099C0000BF0BBFA3E60032080026860F8BD38608F
:1099D00001208002F9E710B51248017800290ED065
:1099E0000321134A8902916010494A680021002A24
:1099F00003D0154A1268427000E0417001700020E7
:109A0000F7F76AFE10BD07480178002907D007481C
:109A10004068002802D00C480068C0B27047407807
:109A2000704700006100002000F5004000F1004098
:109A300000F5014000F200407372635C68616C5F86
:109A400063636D2E6300000000F40040364800217F
:109A50000170417010218170704770B50646144640
:109A60000D460220F7F738FE01202F492F4A0870D3
:109A7000E41E14619660556070BD10B50220F7F7C2
:109A80002BFE29490120087029480021016041600E
:109A900081602849C014486010BD10B5224C207860
:109AA000002811D001202349C002886000F02EF860
:109AB0000021002804D0012060701F48006801E0E8
:109AC00061701020A07021700020F7F705FE10BD16
:109AD00010B515480178002905D000F017F80028C6
:109AE00000D0012010BD407810BD10B50E4801789F
:109AF000002909D000F00AF8002803D00E480068B9
:109B0000C0B210BD102010BD807810BD084801689B
:109B1000002905D04168002902D08068002801D0C2
:109B200000207047012070476300002000F50040CE
:109B300000F1004000F5014000F4004010B528217C
:109B40000BF0BCF810BD40788006800E704740785E
:109B50008006800EC01C70472820704770B50546EF
:109B600000780A0700090001120F104328700B004B
:109B70000BF0D4FA07050705070509050B000624B5
:109B800008E00C2406E0222404E00024FEA1582072
:109B90000BF0D3F96878800980012043687070BDAC
:109BA00000780007000F704710B50622C01C0BF0AC
:109BB00028F810BD0B4610B5C11C062218460BF044
:109BC00020F810BD10B5062209300BF01AF810BDB0
:109BD0000B46014610B50622093118460BF011F864
:109BE00010BD0278BF23C9071A40490E0A4302700C
:109BF000704700784006C00F704702785206520E38
:109C0000C9010A43027070470078C009704770B5F7
:109C10000C460546C11C2046062209300AF0F1FF19
:109C200020784006400E207029784906C90FC901E6
:109C30000843207070BD70B515460E4604461F2AB5
:109C400003D9D1A1A9200BF078F920462A46314644
:109C500009300AF0D6FF6078AD1D80098001A906A1
:109C6000890E0843607070BD70B5054640780E4699
:109C70008406A40E062C03D2C3A1B9200BF05DF913
:109C8000A41FE4B21F2C00D91F2429462246093103
:109C900030460AF0B6FF204670BD70B515460E4638
:109CA00004461F2A03D9B8A1CD200BF046F920465F
:109CB0002A46314609300AF0A4FF6078AD1D8009BC
:109CC0008001A906890E0843607070BD70B5044616
:109CD00040780E468506AD0E062D03D2AAA1DE20E1
:109CE0000BF02BF9AD1FEDB21F2D03D9A6A1E22079
:109CF0000BF023F921462A46093130460AF081FF4C
:109D0000284670BD10B504220F300AF07AFF10BD4E
:109D10000B46014610B504220F3118460AF071FFB8
:109D200010BD10B5032213300AF06BFF10BD0B46B7
:109D3000014610B50322133118460AF062FF10BD28
:109D40004176090A81767047817E427E080210437F
:109D50007047C176090A01777047017FC27E080209
:109D6000104370474177090A81777047817F427FAE
:109D7000080210437047C175090A01767047017ED9
:109D8000C27D08021043704781757047807D70471F
:109D900020300279C90652095201C90E0A430271E4
:109DA000704720300079C006C00E7047203002791D
:109DB000D206D20E49010A43027170472030007961
:109DC0004009704710B505221F300AF01AFF10BD78
:109DD0000B46014610B505221F3118460AF011FF47
:109DE00010BD30B5411C837E0A461902D37D447EE6
:109DF000927D1B0221431343674D827D8C1FAC4231
:109E000010D8002A0ED0082A0CD88A420AD28B42D7
:109E100008D8817F427F08021043A91D884201D8DB
:109E2000012030BD002030BD00210A464254491CAB
:109E30002229FBDB70474078C006C00E704740788F
:109E4000C006C00EC01C70472220704710B50278B3
:109E50008B07920892009B0F1A43027042785209B6
:109E600052014270012908D0022906D0032905D0E9
:109E7000FF2045A1A3300BF060F810BD01210A437B
:109E8000427010BD10B502788B07920892009B0FAC
:109E90001A4302704278520952014270012908D0D7
:109EA000022906D0032905D0FF2037A1BD300BF0D1
:109EB00044F810BD01210A43427010BD00788007AC
:109EC000800F70470278FB23C9071A40490F0A43E5
:109ED0000270704700784007C00F70470278F72380
:109EE000C9071A40090F0A4302707047007800073B
:109EF000C00F70470278EF23C9071A40C90E0A4302
:109F0000027070470078C006C00F704770B50546F4
:109F1000C1700B000BF002F90E080A0C0E101212A1
:109F20000C14141212160C180C2413E0082411E05F
:109F300002240FE017240DE00D240BE0012409E0BA
:109F4000092407E0062405E0452000240EA1C000F6
:109F50000AF0F3FF6878400940012043687070BD43
:109F6000C078704770B5044640780E46C506ED0EC1
:109F70001B2D03D904A109480AF0DFFF6019C01C9A
:109F8000042231460CE000007372635C756C5F70F4
:109F900064752E63000000007A0C00003A02000095
:109FA0000AF02FFE70BD70B5044640780E46C50617
:109FB000ED0E1B2D03D9A049A0480AF0BEFF611980
:109FC000C91C042230460AF01CFE70BDC171090A8A
:109FD00001727047017AC2790802104370474172DA
:109FE000090A81727047817A427A080210437047E9
:109FF000C172090A01737047017BC27A08021043DB
:10A0000070474171090A817170478179427908026C
:10A010001043704701717047007970474173090A16
:10A0200081737047817B427B08021043704730B5D3
:10A03000411C037A0A46C4791902214353791479E1
:10A040001B0223437E4D00798C1FAC4210D80028A0
:10A050000ED008280CD888420AD28B4208D8D07A71
:10A06000917A00020843A91D884201D8012030BD21
:10A07000002030BD10B50522001D0AF0C2FD10BD44
:10A080000B4610B5011D052218460AF0BAFD10BD99
:10A090004172090A81727047817A427A080210433C
:10A0A0007047017170470079704710B50822001D94
:10A0B0000AF0A7FD10BD0B4610B5011D0822184679
:10A0C0000AF09FFD10BD0A7802734978417370470A
:10A0D000027B0A70407B4870704710B508220E3032
:10A0E0000AF08FFD10BD0B46014610B508220E3157
:10A0F00018460AF086FD10BD10B5042216300AF08D
:10A1000080FD10BD0B46014610B5042216311846DD
:10A110000AF077FD10BD10B50822001D0AF071FD90
:10A1200010BD0B4610B5011D082218460AF069FD46
:10A1300010BD10B504220C300AF063FD10BD0B46B3
:10A14000014610B504220C3118460AF05AFD10BD24
:10A15000017170474171090A81717047C171090A23
:10A160000172704700797047817942790802104383
:10A170007047017AC2790802104370470171704735
:10A1800000797047017170470079704710B5082257
:10A19000001D0AF036FD10BD0B4610B5011D08224A
:10A1A00018460AF02EFD10BD10B50822001D0AF059
:10A1B00028FD10BD0B4610B5011D082218460AF0F7
:10A1C00020FD10BD70B515460E4604461B2A04D965
:10A1D0003720194900010AF0B0FE2A463146E01C3A
:10A1E0000AF00FFD6078E90640094001C90E0843F6
:10A1F000607070BD70B5054640780E46C406E40E2A
:10A200001B2C04D9DF200C4980000AF096FE224660
:10A21000E91C30460AF0F5FC204670BD4078C006C7
:10A22000C00E1B2801D8012070470020704710B5D0
:10A2300022220AF0E6FC10BD889F000043020000C5
:10A240007A0C0000FEB50F46044601460646203053
:10A250002546C031603640350190032F04D0002FD1
:10A260002DD0012F2BD04BE000206080A080E0801B
:10A2700020816081A082E085E0826874A074E0742F
:10A28000A076E076A073E07320746074019B9874EC
:10A2900001232B74A88228830876E883B070688332
:10A2A000A873E87320776077019988720199087420
:10A2B00030727072B0723274B074A883FEBD002028
:10A2C000A8822883012F52D0E08B0090608C0290EE
:10A2D000C00000990AF00FFD401C80B2E88200998E
:10A2E000192241439202914201DD401EE8827D2005
:10A2F000000200990AF0FFFC401C3080002F01D0C2
:10A30000022FDBD10198007AC1060198C90E0172B3
:10A3100000206873221824218B5C4032D9075B0827
:10A32000DE07C90FF60F71185B08DE07F60F71180C
:10A330005B08DE07F60F71185B08DE07F60F711871
:10A340005B08DE07F60F71185B08DE07F60F76185C
:10A350005908891911726A7B401C5118C0B269737F
:10A360000528D7D3002FA9D10020A874FEBD4A7FAD
:10A370002046E030022A12D0097F022913D050A1D2
:10A3800073200AF0DAFD012000900290E08BA98B87
:10A39000484300990AF0BDFCA883029898E7818899
:10A3A00000910089F1E7018A0091808AEDE770B59C
:10A3B00004464034667B0546002E68D0252E66D8BC
:10A3C000002964D03E20405DA27B4843101825211F
:10A3D0000AF091FC0846A1734207C908520F3C4B92
:10A3E000691820319A5C09798A4367D031460AF0AE
:10A3F00082FC491CCAB2002006E0002804D02918BB
:10A400004031C979511ACAB2291848235B5C93427A
:10A410003AD320310979C943CB07DB17D21A521E30
:10A420001206120E34D08B07DB17D21A521E1206F8
:10A43000120E2FD04B07DB17D21A521E1206120E25
:10A440002BD00B07DB17D21A521E1206120E27D082
:10A45000CB06DB17D21A521E1206120E23D08B0621
:10A46000DB17D21A521E1206120E1FD04B06DB1734
:10A47000D21A521E1206120E1BD00906C917511A03
:10A48000491E0A06120E17D0401C0528B5DB70BD08
:10A49000C00013E0C000401C10E0C000801C0DE0B4
:10A4A000C000C01C0AE0C000001D07E0C000401D45
:10A4B00004E0C000801D01E0C000C01DE07370BD5D
:10A4C0007372635C6C6C5F7574696C2E6300000062
:10A4D0005451010010B5FF48002101704170817096
:10A4E000C17041718171C171083009F057FB0028BA
:10A4F00004D0FF20F8A184300AF01FFD10BD10B574
:10A50000F44900204872081D09F048FB002804D0D7
:10A51000FF20F1A1C3300AF010FDFFF7DBFFF14887
:10A52000FFF782FC0021EF48FFF7E4FC0121ED4832
:10A53000FFF78CFC10BDE2E71B207047E5494A7A23
:10A54000002A01D0002070474881012048727047DE
:10A5500010B5E0494A7A002A02D04989814201D0E7
:10A56000002010BDDB48001D09F020FB002804D0AE
:10A57000FF20D9A1B4300AF0E0FCD648001D09F054
:10A580002DFBFFF7A7FF012010BD70B5D14C0025B2
:10A59000627A002A02D06289824201D00D700DE0F9
:10A5A000227863789A4203D322786378D21A04E03F
:10A5B00062782378D21A10239A1A0A70FFF7C8FF1C
:10A5C000002801D06572012070BDC2494A7A002A74
:10A5D00004D04989814201D1012070470020704791
:10A5E000BC490A784B78521C1207120F9A4207D0C6
:10A5F000097822225143BC4A891801600120704722
:10A6000000207047B34801784278491C0907090FB8
:10A61000914206D00178491C0907090F01700120F9
:10A62000704700207047AB494A7A002A04D0498914
:10A63000814201D10120704700207047A5490A7866
:10A640004B789A4207D0497822225143A64A89186A
:10A650000160012070470020704710B59D4C2078A4
:10A660006178884216D06078401C0007000F607047
:10A67000201D09F09BFA002804D0E078401CE0700F
:10A68000012010BDA078401CA0709248001D09F068
:10A69000A5FAF5E7002010BD8E4801784078814288
:10A6A00001D101207047002070478A480178427824
:10A6B000914202D30178407803E041780078081A8B
:10A6C0001021081AC0B270470F20704770B5814C36
:10A6D0000D46617A002916D06189814213D1002686
:10A6E0002E70201D09F062FA002805D1A07828708C
:10A6F000A670201D09F072FA2878E17840182870B9
:10A70000E670012070BD002070BD76490160704781
:10A7100070494A7A002A04D04989814201D1012036
:10A720007047002070476B494979002901D000200B
:10A7300070476E49016001207047664841790029E1
:10A7400001D00020704701214171084670476149DE
:10A750004A7A002A04D04989814201D101207047F8
:10A76000002070475B494979012901D000207047DA
:10A770005E4901600120704756484179012901D0A6
:10A7800000207047002141710120704751484079F5
:10A79000012801D001207047002070474D494A7AB6
:10A7A000002A04D04989814201D10120704700204C
:10A7B000704770B5474C0546A0790721401C0AF048
:10A7C0009AFAE079814208D0A0792221484347498A
:10A7D000223140182860012070BD002070BD10B5E6
:10A7E0003C4C0721A079401C0AF085FAE0798142AF
:10A7F00007D0A0790721401C0AF07DFAA171012041
:10A8000010BD002010BD33488179C079814201D14B
:10A8100001207047002070472E494A7A002A04D050
:10A820004989814201D1012070470020704710B54D
:10A8300004462848083009F0B9F9002815D12549FF
:10A840008879CA7990420CD0C87922214843274997
:10A850002231401820601F48083009F0BFF901205C
:10A8600010BD1C48083009F0B9F9002010BD10B522
:10A8700004461848083009F099F9002815D11549FF
:10A880008879CA7990420CD0C87922214843174967
:10A890002231401820600F48083009F09FF901204C
:10A8A00010BD0C48083009F099F9002010BD094886
:10A8B00010B5083009F07AF9002822D1054CA079AA
:10A8C000E17988421AD0E0790721401C0AF013FA96
:10A8D000E1710DE0660000207372635C646D5F716E
:10A8E0002E630000AC1700207C1400209C16002072
:10A8F0002046083009F072F9012010BD0C4809F01B
:10A900006DF9002010BD0A4808388179C07981426C
:10A9100001D101207047002070470548083881792F
:10A92000C079814201D101207047002070470000AA
:10A930006E00002070477047FF20704770477047D7
:10A9400000207047002070470020704700207047AB
:10A95000002070470020704700207047002070479B
:10A96000002070470120704700207047002070478A
:10A970000020704700207047F8B5FE4D0446287F40
:10A98000002600280AD0002921D1667010202070EE
:10A99000687FA070A87FE0702E7718E0A879012862
:10A9A00001D00020F8BD002911D16670F149E87985
:10A9B00001270831002801D0132000E00520207075
:10A9C0001422A01C0AF01DF9A771EE71AE710120CE
:10A9D000F8BD70B5E8480078002802D00C26304653
:10A9E00070BD0026E34D3446203DAE74EE746E75A6
:10A9F000AE752E7528466E7320384673E87D0028A4
:10AA000004D0FEF78BFDFFF748F8EC75D948847148
:10AA1000C47104772030FFF791F8D6484830FFF72B
:10AA20008DF8DCE710B5D44C00232370D14C203CCA
:10AA3000E375D04B01241C71603B583307C3FFF70B
:10AA4000C8FF002803D0CDA1FF200AF076FA10BD80
:10AA5000C8482038807C7047F8B5C64D0646407B14
:10AA6000203DE873C34837791346AF73B27B427118
:10AA70000446603C217006221946601C0AF0C1F8A9
:10AA8000B07960730622F11DE01D0AF0BAF8687B08
:10AA90000126002800D0EE74B6484038407B0028DC
:10AAA00000D02E753B000AF039FB0504062347064B
:10AAB000490000211DE0AF4801212030FFF74EF88A
:10AAC000AC48E11D2030FFF77DF8607B002807D0FF
:10AAD000012807D0FF20A9A142300AF02EFA0CE08D
:10AAE000002100E00121A3482030FFF786F804E0B0
:10AAF0000621A0482030FFF731F800206875A875BE
:10AB00009C48611C2030FFF74FF89A48217820308C
:10AB1000FFF767F8974804214830FFF71FF895487A
:10AB2000611C4830FFF740F8924821784830FFF721
:10AB300058F8AE740020F8BD0221DAE7FF208FA19B
:10AB40004C30CAE770B58B4C0125203C0246A575F8
:10AB500088488079002801D03A2070BD8548603847
:10AB60000378934206D1002262750622401C0AF047
:10AB700048F86575002070BD70B504467D4D002015
:10AB8000203D28752846224632380AF03AF82846F1
:10AB9000203844730120287570BD764908717047CC
:10ABA00010B5744C0022203CE274607302462046CB
:10ABB00012380AF026F80120E07410BDF8B500F054
:10ABC00044FB6C4C0025203CE07D002804D0FEF7BF
:10ABD000A5FCFEF762FFE575674E3570FEF762FC77
:10ABE000A07B012804D00021084601F077FAF8BDC7
:10ABF0000021022001F072FA5E4CA07901270028A2
:10AC000007D0207F0028F2D105206077A57727772D
:10AC1000F8BD70780028FBD0564906226039487B81
:10AC20006073C91D0846673009F0EBFF3C202072B5
:10AC3000A7717570F8BD10B54E4C203CE17B207CAF
:10AC4000CA0701D0C2070BD08A070FD582070DD4DF
:10AC50002620FEF7F2FA207C02210843207410BD62
:10AC60002520FEF7EAFA207C0121F6E74907F6D510
:10AC70004007F4D42720FEF7E0FA207C0421ECE71B
:10AC800070B53D4D2878002873D13A4C203CA07C0B
:10AC900000287DD0FEF7FBFB0026267466746E70DC
:10ACA0003046FEF7F1FB0020FEF7EDF93748FEF7DE
:10ACB000BBFA2546403D296E8857FEF781FA334896
:10ACC000C01EFEF79CFBFEF712FCFFF7B4FFFEF779
:10ACD00031FAFEF7D5FB0120FEF715FB0F21052009
:10ACE000FEF74CFA2978681CFEF73AFAA07B012897
:10ACF0000CD004280AD0E07C002807D02146123965
:10AD00000846627B5230FEF796FFE674207D0028ED
:10AD100008D0184840380146427B12398830FEF787
:10AD2000BCFF2675607D00280BD01248691C2030BE
:10AD3000FEF73AFF0F48691C4830FEF735FF66758D
:10AD4000A675E86D0178002903D00178001DFEF793
:10AD500019FAA86D0178002907D00178054A401C2E
:10AD60007332FEF77AFE0120E075FEF79BFB0020B0
:10AD700070BD0DE030180020740000207372635C19
:10AD80006C6C5F6164762E63000000005F5101000F
:10AD90000C20EDE7FE494860704770B50546FEF7A8
:10ADA000A6FB002D06D00020FEF763FAFEF7C2F9DD
:10ADB000FFF741FFF74C607C002809D0A07B0128F9
:10ADC00003D1F549F5480AF0B8F8FFF7F7FECFE7E9
:10ADD000002D15D0A07B01280CD0FF202D30FEF7D0
:10ADE00045FA0220FEF78FFAEA4820300079012860
:10ADF00003D005E099208000F1E70220FEF73CFC3B
:10AE0000E4484030FEF753FB012008F084FDFEF7D4
:10AE100099F9A07B03000AF081F9050404040604F3
:10AE20000A00032000E00120FEF723FA04E0DB48DB
:10AE3000D9492A300AF081F8E17B207C8143012046
:10AE4000002903D1A17B012903D06074D049087087
:10AE50008EE700212174F9E710B5FEF718FBCC4806
:10AE6000007800280ED1CB48807C00280AD0002032
:10AE7000FFF793FFF6F7A5FAC648203000790128BE
:10AE800006D007E000F0E1F9FEF70CFB0C2010BD46
:10AE9000F8F7BEF8002010BDBD490120487070478A
:10AEA00070B500F0BEFF00281BD0B94E3078B94C09
:10AEB0002034012818D0022801D0032834D0B64904
:10AEC000B7480AF03AF83078002809D0F6F779FA4E
:10AED0003078022804D12079012801D1FEF7CCFB7B
:10AEE00046E7FFF76BFE43E7AA4DA87B03281BD07C
:10AEF000FEF7EEFAE87D002803D0FEF7BEFDFEF770
:10AF000006FBA4489030FEF7D2FA012008F004FDB9
:10AF1000A87B01280CD004280AD061796F20012970
:10AF200008D0032906D006E00120FFF736FFCAE764
:10AF3000012000E07F20FEF79CF902203070C2E77C
:10AF400010B59448C07D002803D0FEF7E7FAFEF75D
:10AF5000A4FD00F066FF002817D08D4C2078022851
:10AF600004D08F488C492B3009F0E7FF0120FFF710
:10AF700014FF2078002807D02078012804D08848C2
:10AF80008549333009F0D9FF10BDFFF717FE10BD1A
:10AF9000F1B582B0FEF744F90746FEF799FD0128A6
:10AFA00029D000267A480078022804D07C487A49C3
:10AFB000563009F0C2FF774DE87D002803D0FEF738
:10AFC000ADFAFEF76AFDFEF792FA72489030FEF78E
:10AFD000E7FD0446029800286DD0FEF7CBF8002864
:10AFE00069D020466B4C030020340AF097F80664C1
:10AFF0006464066425640126D4E7A87B01285AD03E
:10B00000042858D0374304D16079002801D00228A1
:10B0100051D160486830FEF74AFA012008F07BFC05
:10B020000120FEF726F95A480321017020790128F2
:10B0300044D1FEF721FB41E056489030C178D0382A
:10B04000C27991421DD10146D0310A79037A9A42E0
:10B0500017D14A79437A9A4213D18A79837A9A42EC
:10B060000FD1CA79C37A9A420BD10A7A037B9A42EA
:10B0700007D10978407B4906C90F814201D10121DE
:10B0800000E00021A87B012801D0042801D100297B
:10B0900008D100280FD1374304D16079002801D0AE
:10B0A000012808D13B489030FEF79BFE002802D0D3
:10B0B000A87D002812D00120FFF76FFE34480178E8
:10B0C00000290AD00178012907D00078032804D08C
:10B0D000324831492A3809F030FFFEBD2C4F2D4946
:10B0E000786804229F31343009F08BFD29484021D3
:10B0F000903000784006C20F78680A54254906222D
:10B100009331413009F07DFD224978680322A33153
:10B11000383009F076FD1F483B219030827D7868F9
:10B120000A541C4990310A7ECB7D12021A43828751
:10B130008A7E4B7E12021A43C2830A7FCB7E1102A3
:10B1400019430184134990318A7F4B7F11021943BF
:10B15000418410490522AF31243009F052FD0D49D8
:10B160007F68B0310879C20638462030D20E009090
:10B17000827709794909C177A079002819D0207F01
:10B18000002856D1E07900280CD013200BE00000F5
:10B1900074000020101800207CAD0000E7030000C0
:10B1A00093020000052060770020A077012020771F
:10B1B0003FE0E97D2B48002924D000212172B98984
:10B1C00061814021C95D617339460622413109F030
:10B1D00018FDF88BA082388CE082788C2083009850
:10B1E000C07FA076E07E400840003043E076FEF766
:10B1F0007CFCE17E4000C907C90F0143E1760120D4
:10B20000E07115E000212172B98961814021C95D99
:10B21000617339460622413109F0F3FCF88BA082B4
:10B22000388CE082788C20830098C07FA076012043
:10B23000A0710D4C0020207000F007F8FEF732F9E5
:10B240000120616800F04AFF38E710B5FEF75AF9AF
:10B25000FEF74DF9FEF79BF80020FEF70AF8FEF71F
:10B26000DAF810BD3E180020740000208107C90ED6
:10B27000002808DA0007000F08388008FA4A800022
:10B280008018C06904E08008F84A800080180068CF
:10B29000C8400006800F704710B500F079FF10BD60
:10B2A00070B5F34C0546A26800290DD0002A04D0E1
:10B2B000FF20F0A1363009F040FEA560F6F782F8D5
:10B2C0000220F6F779F870BD002A04D1FF20E9A129
:10B2D0003E3009F032FE0020A060F6F774F801203D
:10B2E000F6F772F870BDE2480C30C07E002801D03D
:10B2F0000020704701207047DD480C30C07E704749
:10B30000DB483430C07E70470021C1768176016011
:10B310004162D7480C30C07E002807D1D448343071
:10B32000C07E002802D1D24901200870704710B5B4
:10B330000B46C17E847EA14204D01146184607F018
:10B34000A6FB10BDFFF7E0FF10BD38B5C84C606824
:10B3500001684978012924D00121684606F050F996
:10B3600068460078C749000209F0C5FC60680268B9
:10B37000C0685268511807F0A7F96168C860BC49F5
:10B38000606834310022884215D0018B002912D028
:10B390004272032101720271021D017FFFF7C7FF94
:10B3A00038BD7D21C068C90007F08EF96168C860AA
:10B3B000B5480861E3E7018B491C01830221417212
:10B3C000E7E7FFB5AA4E01460C36706A3468056897
:10B3D00085B060680190306A03906A880798801A87
:10B3E00080B202900898002804D0274638372046BB
:10B3F000483002E0371D2846643000900320387141
:10B40000002915D001297DD0022951D003297AD0F5
:10B41000AF2098A1C00009F090FD08980028387965
:10B4200072D0032803D093A1984809F086FD3BE130
:10B43000306A002804D195488EA1723809F07DFD4C
:10B440009249A88F9F3948434018069900F0A6FEFC
:10B45000A0618E49E88B9F394843069900F09EFE13
:10B46000E0618A4AA88F9F3A316A50430918A0695F
:10B47000874A091A89183B22A162844B525D9F3B7F
:10B480005A4382181018FF30163020626062306A0A
:10B49000081AFF38ED213538C9008842BDD27D49F0
:10B4A000884204D2794873A1653809F046FDB7E0B7
:10B4B000764AA88F9F3AE16850430818069900F031
:10B4C0006DFEA0617149E88B9F394843069900F0F1
:10B4D00065FEE061306A002804D16C4865A15D38E2
:10B4E00009F02BFD5820405B6B4A0028A88FE168CB
:10B4F00020D050430818A169401AA0622169A068B1
:10B50000484302E01FE04EE0C9E0A169624A4018EA
:10B510003B21495D514341180818FF301430206227
:10B52000E88BE1695043411A0F208001081A6062DC
:10B53000A06A35E050430818A169401A3168D33831
:10B5400049684018D9E7284640300190008B002810
:10B5500002D0306A002804D14C4846A1453809F091
:10B56000ECFCE88B4C49E3694843C01AA06201999E
:10B570009C460A8B2169A368521A4B43A16959184A
:10B5800063465343C9183B22525D434B5A438A18C2
:10B590005118FF31143121620F218901411A616272
:10B5A000316A401A35E00898002803D03420005D45
:10B5B000002873D1E88B38494843E169401A029961
:10B5C0004843A062284640300490008B0028019830
:10B5D00029D0002804D02D4826A11F3809F0ADFC41
:10B5E00004982D4A018B02980818E16948434000ED
:10B5F000FF3014302062E88B5043411A0F20800145
:10B60000081A606200F0C4FD00281CD0A16A0398EB
:10B61000081AFF38ED212338C900884200D3FCE620
:10B6200002203871F9E6002802D00398002804D1DE
:10B63000164810A1263809F080FC0198A16AD33879
:10B640000818A062CCE706F0A8FD0146706907F073
:10B65000CDFFA16A081AFF38ED211E38C9008842C3
:10B66000DDD2012009B0F0BD00ED00E000E400E013
:10B67000C81800207372635C6C6C5F6C6D2E733045
:10B680002E63000010270000B78913008105000019
:10B6900036040000A3020000E20400002AE00328B0
:10B6A00002D1FD4907200870A16A706907F00CF803
:10B6B000B860616A206A884202D90098016001E09E
:10B6C000009908600098F54900680818F860A98892
:10B6D0000798081A00B2002801DD022000E00020CF
:10B6E0007871089838700898002805D03420005DDB
:10B6F000002801D00220B5E70898012148402034F5
:10B700006075317F3A463046FFF711FE0020A9E709
:10B7100010B5E14900284A68516A096807D01268E3
:10B72000C98BDF4BD2695943891A09F0E4FA10BD7D
:10B73000F8B5D94F35227868416A0C680168525CC7
:10B74000002A0AD0498E6288914206D1407A0028A8
:10B7500003D1D449D44809F0F0FB06F01EFD0146A0
:10B760007868406907F042FFFFF7D2FF7968658883
:10B770000B682E185A8EB24202DB521C5A8602E027
:10B78000401C2818588608683622125C002A05D109
:10B79000428E23899A4201D1521C4286088B03288B
:10B7A00002D2401C088302E00868408EA080204638
:10B7B0004030C18A808A081A6188401E401885B2CC
:10B7C000203416E0496AE67F097976004B00B749D4
:10B7D000007DCB5A895BC91889B20023FFF7F1FDC0
:10B7E000002811D0012810D0AF48AE493A3009F0F6
:10B7F000A4FB79680868428EAB1A1BB2002BE1DA11
:10B800000820E07400F00DFEF8BD78680068418EF5
:10B81000491C4186EDE770B59F4D1F202870A86830
:10B8200000210162C27E130009F078FC0454540325
:10B830004654426A146802681170026851600068D8
:10B840002030407D002808D106F0A7FCA9680968CF
:10B85000096C07F0CBFE002815DCA86801684A8E49
:10B8600061888A4204D12289511A6181628004E090
:10B87000511A61810168498E61800268C168116452
:10B88000C16841610FE0A8680168098E6288891A61
:10B8900061810168098E618001680A6CC2600A6C6E
:10B8A0004261886C6066204601F06FFC00280ED073
:10B8B0007B487C49D33808E0C1684161FFF7E0F973
:10B8C000002804D076487749CD3809F036FBF5F7E3
:10B8D00078FD70BD72487349C638F6E710B56E4AF8
:10B8E0000B00526809F01AFC0906090F1F0C2D2DD8
:10B8F000082A2D00FFF78FFF10BD00F05DFC10BD82
:10B90000FDF7BEFE10BDD07E022806D0D07E0328F3
:10B9100006D00120634940020DE0FFF709FF10BD8A
:10B92000FFF713FD10BDD07E0228F6D0D07E03288D
:10B93000F6D05C495E4809F000FBF1E706F013FC25
:10B9400010BD5B4857490F3009F0F7FA10BDF3B549
:10B9500081B0514C02982546002601270C35030082
:10B9600009F0DCFB0906313C3C3143433C3C4300DD
:10B97000494801210C30FFF793FC02990198FFF729
:10B98000ADFFE87E022828D1A0680468406A0668F6
:10B9900006F0E2FBF18B424A5143E269891AD3393E
:10B9A000FF223232E162904202D24248081802E09D
:10B9B000081A41494018E0624048E16A814200D8D3
:10B9C0000846E06206E001460198FFF787FFE87E3F
:10B9D000022802D1286820300775FEBD0146656047
:10B9E0000198FFF77BFF6660FEBDFF202D49AB305D
:10B9F00009F0A3FAFEBDF8B5064627480D46002417
:10BA00003430254F0B0009F089FB09060C10100C8F
:10BA1000161610101600204801213430FFF740FCA4
:10BA200029463046FFF75AFFF8BD78603046FFF7E9
:10BA300055FF7C60F8BDFF201A49DF3009F07DFA20
:10BA4000F8BDF0B5144C0020616885B003268E76F1
:10BA5000CA7E0746032A03D0C97E00293FD03FE0B3
:10BA6000087F002804D112480E49CE3009F065FA4B
:10BA70006068057F684606710221417106F08DFB02
:10BA80000290FF20F530039001216846017069465D
:10BA9000284606F0FCFF14E0C81800201917000023
:10BAA000E204000074B60000620600006451010068
:10BAB0000B0200007CF8FFFFADF9FFFF3812000019
:10BAC00020BF6068007F07F01DFE0028F8D0606886
:10BAD000007F06F048FB60680777FFF715FC012040
:10BAE00061688F7605B0BEE5FE494A68907600E051
:10BAF00020BF4A68D07E002803D0D07E937E984233
:10BB0000F6D0D07E002803D0002000219176704727
:10BB10000120FAE770B5F34900240C31CA7EF14DDB
:10BB2000032A03D02831CA7E032A17D1696000286E
:10BB300010D001280AD0EC49EC4809F0FEF90020A9
:10BB40006968002C0860686008D070BD0320FFF7AA
:10BB5000CBFF01E0FFF775FF0446F0E70C2070BD56
:10BB6000F8B5E04F04461F25E67E330009F0D6FA0B
:10BB7000042A20031B20DB480C30844203D0DA491E
:10BB8000DB4809F0DAF902207C60FFF7ADFF0028FE
:10BB900005D07968002008604862786012E00C25C2
:10BBA000002078600BE00120FFF7B4FF054604E0B9
:10BBB000CF48CD490C3009F0C0F9002D02D0E07E0D
:10BBC000B042D1D1E07E002804D0C948C649123025
:10BBD00009F0B3F9F8BDC34810B50C30FFF7C0FF4A
:10BBE000C0483430FFF7BCFFBE4900205C31087507
:10BBF000C0494870BB490C3148610A46283250613F
:10BC00008876907601220C390A708860486010BDF1
:10BC100070B504460120FFF729FBC5B20B20FFF7E2
:10BC200025FBC0B2854204D0B148AF49343809F091
:10BC300084F90120FFF71AFBC5B21820FFF716FBA5
:10BC4000C0B2854204D08920A749800009F075F967
:10BC50000420C043FFF70AFBC5B21920FFF706FB1B
:10BC6000C0B2854204D0A2489F49323809F065F934
:10BC7000A0489C490C38047000200C31C8768876A6
:10BC80000A462832D07690769A4B0124083B1C71E4
:10BC900018604862506208601060FFF79CFF70BD3A
:10BCA0009048007870479349083908717047F3B598
:10BCB0000D468C4983B00C31CA7E08462830894C29
:10BCC000002A02D1C27E002A03D0C97E022903D0F5
:10BCD00005E08948616006E0C17E002901D00C20A2
:10BCE00000E76060854806F0EAF9616808776068F7
:10BCF00080490160007F002804D17C487A4962387D
:10BD000009F01BF906F028FA7D49884200D208465E
:10BD1000FF30C83086B260680321C1760027012D4C
:10BD20002FD0734A03991A32514302685160006858
:10BD300001210170684605F063FC6846007871498E
:10BD4000000208F0D8FF019106F027FA0199711856
:10BD500006F0BAFC6168032DC86021D06A4808610A
:10BD6000606803210172022141720771021D017F87
:10BD7000FFF7DDFA60680783072020700020676006
:10BD8000B0E606F00AFA314606F09EFC6168C8602B
:10BD90005E48086108680770096801204870DFE79D
:10BDA0005B48DCE77047F8B54E4E0C36F17E002953
:10BDB00004D131462831C97E002901D00C20F8BDBC
:10BDC0000221F176474C4B4F5C34083F7762346078
:10BDD000002538602575397920304A004D49C07FEB
:10BDE0008A5A4000085A2B46101881B22A46284623
:10BDF000FFF7E7FA002804D03C483B49323009F00D
:10BE00009CF825610120A56020756586258635484A
:10BE10007C30857539684888401E4880358300200D
:10BE2000F8BD10B52F4801248068817E03290CD00D
:10BE300001684978002906D0006A3749884202D94A
:10BE40000024FFF729F8204610BD0024FBE7254811
:10BE5000806802681178491C1170016A0068C26A22
:10BE6000914204D8007D012801D0012070470020B4
:10BE7000704700207047F8B51A481A4C0C306060C3
:10BE8000416A00260D68006834212F460E54403761
:10BE9000B97C002966D1007D032863D106F07DF9C5
:10BEA00001466068406907F0A1FB00285ADDFFF7F2
:10BEB0002FFC6988401C4118606802681186006880
:10BEC000018E2A89511A09B200294BDD0121203047
:10BED0008175F88AB98A401A6988401E401887B26D
:10BEE00039E00000C818002074B600007703000095
:10BEF00057020000880000204FB90000F7B9000089
:10BF0000F605000010270000F7130000B7891300A2
:10BF1000E2090000645101002C841300496A097988
:10BF20004A00CE498B5A028E007D94463F22525DD4
:10BF30005200895AC91889B201236246FFF741FAB3
:10BF400000280FD001280FD002280BD0C920C449E7
:10BF5000C00008F0F2FF61680868028EBA1A12B2D7
:10BF6000002ADBDA6660F8BD60680068018E491C53
:10BF70000186F0E7F8B5BB4D0026AA680128516A92
:10BF80000C6810D00720287006F052F8B6480078E8
:10BF9000F6F7E8FDA86806830268618851860068A4
:10BFA00020308675F8BD087913684100AB481F7DC5
:10BFB000415A032F17D01A7D022A21D01A7D012A57
:10BFC000E2D13F231B5D22895B00C05A0023401849
:10BFD00081B20120FFF7F5F90028D5D0A049A34888
:10BFE00008F0ABFFD0E71E6112683F2396601B5D2F
:10BFF00022895B00C05A0023401881B20320E9E780
:10C000005822125B1A613F231B5D22895B00C05AD4
:10C010000023401881B20220FFF7D3F9AA6801215A
:10C0200012681175D8E738B58E4C0021A0680D460E
:10C0300000684278002A01D045701FE0007800288F
:10C0400009D00121684605F0DBFA68460078884986
:10C05000000208F050FEA0680268C06852685118DB
:10C0600006F032FB0146A068C160057102214172F1
:10C07000021D017FFFF75BF9A068058305F0D8FF7B
:10C0800079480078F6F76EFD38BD10B50146754A5F
:10C090000B00906809F042F8060D150408190C1CF5
:10C0A000012100F0A8F807E00021506800F0A3F893
:10C0B00010BD0120FFF75EFF00210846FFF7F0F8F2
:10C0C00010BD00680321017510BD00F0A7F810BD78
:10C0D0003D206349400108F030FF10BD70B5614C50
:10C0E000002809D0012816D0022821D05F485C49D9
:10C0F000C73008F022FF70BDFFF795FF002108460A
:10C10000FFF7CEF8A068807E002801D01F2000E055
:10C110000720207070BDA068002501684D70FFF7F2
:10C12000F3F80320F6F763FC05F082FFA56070BD0D
:10C13000FFF779FFA068FFF7E7F800210846FFF74F
:10C14000AFF80420F6F753FC70BD46498968CA7EF3
:10C15000022A08D10A681378002B04D150600968BC
:10C16000CA6A1018C862704710B53E4A0029926822
:10C170000CD0012907D0022907D03C483849E730C4
:10C1800008F0DBFE10BD401E00E0401F106210BD35
:10C1900034488068002800D00120704710B504465C
:10C1A0000020002907D0334808F0A5FD01462046AD
:10C1B00008F0A1FD401C10BD10B52A488068C07E63
:10C1C000030008F0ABFF041414030A1401F0E5F8AF
:10C1D00000280BD02249284806E0FEF73DFE002843
:10C1E00004D025481E49001D08F0A7FE10BD2248B6
:10C1F0001B490B30F8E710B50446002903D0002096
:10C20000FFF7B8FE03E018480078F6F7ABFC2046CD
:10C21000FFF77AF80020F6F7EAFB10BD10B51148D9
:10C220008268506A11680068CB698B60124BC18BC1
:10C23000B13359431368D9600146E0314B88838795
:10C240000C783B231C548B88C383CB8803840989D7
:10C25000418411680220087510BD0000645101007E
:10C2600074B60000C81800207C000020FD06000005
:10C270001027000040420F0031040000F8B5FEF71F
:10C2800014FA0646FEF782FAF94D07466879F94C2A
:10C29000002809D0012823D0022826D003282ED038
:10C2A000FF20F5A1C63033E0F2481830FEF75AFA05
:10C2B000002801D003200FE0EE481830FEF7BEF949
:10C2C000002804D060696030007A002806D0E94870
:10C2D0001830FEF71AFA012068711BE00220FBE714
:10C2E000E4481830FEF711FA14E0E2481830FEF77F
:10C2F000A5F900280ED1FF20DFA1B83008E0DD4805
:10C300001830FEF72FFA002804D1FF20DAA1C03040
:10C3100008F013FEA169F722087810400870AA7986
:10C32000D207120F1043FB2210400870EA79D2079F
:10C33000520F104308706B79EF22022B04D0012BAF
:10C3400007D0032B07D00CE0012E06D8002F04D015
:10C3500007E07F1E3E43002E03D010401022104302
:10C3600000E010400870287C002811D0687901286E
:10C370000ED0BF485438FDF79AF8BD49606954396A
:10C380007830A269FDF7F5FA0020FDF701FB04E023
:10C390000846FDF78CF8FDF71EFBA0690078C00683
:10C3A00006D4E0690078C00602D4E079002802D003
:10C3B000A079002801D0012000E00320FCF759FFFC
:10C3C0000320207001202071F8BDAA4810B51C3050
:10C3D000FEF7EFF9A74C002802D00020607004E0BF
:10C3E00001206070A2485438E061A148407C0028D8
:10C3F00002D06078002805D0E069FDF758F8FDF715
:10C40000EAFA10BD9A485438FDF751F8984A606925
:10C41000543AA030E169FDF7ACFA0120FDF7B8FA13
:10C4200010BD10B593490022486932238276C27646
:10C4300001221A544030807C002803D00A70002169
:10C44000022001E000210320FFF71FFE10BD70B5A0
:10C45000884C6079C2062046416908464030002A6F
:10C4600001DA002202E0028B4B89D2180B460283CC
:10C47000C0331A7E002A03D0828B4D8952198283E1
:10C48000627A002A03D03D2001F0BEF852E08A7E95
:10C49000032A4FD0227A002A13D0500701D4D006A5
:10C4A00001D51E2036E0100701D53D2032E0D0072F
:10C4B00005D1900703D470A1734808F03EFD2A20EF
:10C4C00028E060318A78002A05D0C28B551CC583CC
:10C4D0000D88AA420FD25A7F062A02D01A7F062A56
:10C4E00005D1428B531C438309888A4203D2828B35
:10C4F000C18A8A4201D322200CE0027C808A002A71
:10C500000FD006280FD35A48C07B012801D03E2007
:10C5100000E0082001F078F86069807E032809D0E7
:10C5200001E08842F5D20120207000210846FFF783
:10C53000ACFD70BDFFF775FF70BD10B54C494D489F
:10C54000CA7B002A2BD0012A29D0022A27D0032A0D
:10C5500004D049A14D4808F0F0FC10BD897B0229A8
:10C560000FD007291BD0406901464031CA8A898A09
:10C57000511A891E89B2032900D303210289511857
:10C580000BE04069014640318A8A032A01D20189C1
:10C5900003E04288C98A5118491C818010BD406956
:10C5A000F5E700B5030008F0B9FD0604070B0F120C
:10C5B000121700290ED00FE0491E02290AD90BE0FC
:10C5C000491F012906D907E0072903D004E00A39E9
:10C5D0000C2901D8012000BD002000BDFEB5054694
:10C5E00024481830FEF79FF8002804D1274822A1DC
:10C5F000CF3808F0A2FC1F4CA069FDF715FC032101
:10C60000A069FDF73FFCA069EF220178114001709D
:10C610002946FDF77BFC002601272B0008F07EFD54
:10C620000E5D5D085D1D6161155D4D5D613D385DAF
:10C6300060697121095C002901D0062101E0C03048
:10C64000417EA069FDF72DFD4BE0E069FDF788FC18
:10C650000146A069FDF796FD43E06169A069D0310C
:10C66000FDF759FD6169A0699531FDF762FD38E07C
:10C67000C4190020900000207372635C6C6C5F73BF
:10C680006C6176652E6300006B0200007808000084
:10C690000621A069FDF772FD23E020690178A069F9
:10C6A000FDF756FD20698188A069FDF753FD2069DB
:10C6B0004188A069FDF752FD13E00096019660697C
:10C6C0006030007C002803D0694608783843087041
:10C6D0006946A069FDF768FD03E0FE49FE4808F0E1
:10C6E0002CFCFEF72AF8002804D1FB48F949801DEC
:10C6F00008F023FC0C2D07D0072D04D060695E21C3
:10C700000E5260308770FEBD606940304683FEBDCA
:10C71000F0B5F24CDC2061698DB0405C042809D092
:10C72000052834D16031487A002829D00120487486
:10C73000022026E01022EA31684600F09DFF616980
:10C740001022C83104A800F097FF684605F0B1F840
:10C75000616908AA6CCA0F46CB6778378A670846B2
:10C76000FE608030BD60074620376CC7002303633E
:10C7700043630120A0310876D9494874052000E0C0
:10C780000D20FFF72BFF61690020C03108770DB045
:10C79000F0BDF8B5D1481830FDF7C5FF002842D0EC
:10C7A000CE4C207A00283ED160690025C030007E42
:10C7B000CB4E00280BD0B17B0120FFF7F2FE002802
:10C7C00005D1B17B0420FFF7ECFE002806D060699C
:10C7D0000127C030407F062807D00CE060695C214B
:10C7E0000D526030457402202FE0B17B0420FFF72A
:10C7F000D8FE002810D0B07B030008F08FFC173F54
:10C800003F3F3F1E3F3F3F3D3F203F3F3F292C3FA3
:10C810003F3F3F3F3F2F3F0060696A21095CC907E6
:10C8200002D0C0304577F8BD0C20FFF7D7FE606915
:10C830006030817A39438172F8BD072005E0FDF749
:10C84000E2FF0028F8D075740B20FFF7C7FEF8BD93
:10C8500000F021FFF8BDFFF75BFFF8BD6069002124
:10C8600080308160C160057437740620FFF7B6FE22
:10C87000606960308570F8BD0920E6E700F0CDFE04
:10C88000F8BD70B5964DA87B072834D1934CDE22B5
:10C8900060694188125A491C91422CD1217A0029A1
:10C8A00029D10146E0318B88C28B934207D1CA88D7
:10C8B000068CB24203D10A89468CB2420DD0884A16
:10C8C0008689303A56819381CB88D3810989118238
:10C8D00001462E3151600121117001221146FDF7F0
:10C8E000B1FC00210420FFF7D0FB61690020C031BA
:10C8F0004877A873E87370BD70B5794CA07B162893
:10C9000003D07449774808F018FB74480021426945
:10C9100073486032117291703038067E0B25012306
:10C92000002E06D0027D002A12D14575817503754F
:10C930000EE0567A002E06D05172228882838176CC
:10C940000C22027604E02288828381768377057642
:10C95000A17370BDF8B5614DA879800723D5287AF9
:10C96000002820D15E4C0120A17BFFF71AFE002891
:10C9700019D1A8690127C0780026030008F0CEFB72
:10C980000E626208622E3B4F0A62146220524562B8
:10C99000022021E0A07B042804D052484D493338BE
:10C9A00008F0CBFAA673F8BDA07B082804D04D4848
:10C9B00048492D3808F0C1FA686960308670F1E79F
:10C9C000A07B0A2804D047484249263808F0B5FA27
:10C9D0006869603007720B20A073F8BDA07B0E2839
:10C9E00004D0AB203B49C00008F0A7FA686960306A
:10C9F00007720F20F0E7A07B0F2804D03948354993
:10CA0000183808F09AFA1120E6E7A07B0F2804D026
:10CA100034483049123808F090FA1320DCE7FFF769
:10CA20006BFFF8BD69690846C0310A7F062A04D148
:10CA30006030807A800700D50E77487F0628F0D1D5
:10CA40004E77F8BD274823496E3008F076FAF8BDD6
:10CA500010B5234C0020A17BFFF7A3FD002804D1D3
:10CA60001E480122017A114301720420A07310BDF7
:10CA700010B51A4C60690146C0314A7F002A06D0C1
:10CA8000097F062903D0217A0122114321726030E7
:10CA9000807A800715D4E069FDF764FB6169603135
:10CAA000C872E069FDF760FB616960318881E06907
:10CAB000FDF75FFB616902226031C881887A10430B
:10CAC0008872606900220146C0310B7F062B00D1BD
:10CAD0000A7709E078C60000ED070000900000200A
:10CAE000C4190020770500006A231B5CDB0703D113
:10CAF00006234B774030428310BDF8B5FE48817B5A
:10CB00000020FFF74EFDFD4C0126002807D160698B
:10CB10006030407A002802D1207A30432072616967
:10CB200000255E20455262204654C831E069FDF779
:10CB3000DAFA6169E0699131FDF7E4FA616904228A
:10CB400008469131B93008F05CF8EB483038017E86
:10CB50000827002906D0017D002912D14775857567
:10CB600006750EE06169054689894183E249E069FD
:10CB70001439FDF7A0FAE049E0690C39FDF7A8FA8D
:10CB80002F76DD480E218173F8BD70B5DA4D002097
:10CB9000A97BFFF706FDD94C002803D1207A01219B
:10CBA00008432072E069FDF742FA00280ED0E069E0
:10CBB000FDF738FA6169DE225052498800F0B6FD6F
:10CBC000002806D0282000F01FFD70BDFFF740FFB1
:10CBD00070BDE069FDF720FA6169E0310870E06935
:10CBE000FDF713FA6169E0314880E069FDF7F2F979
:10CBF0006169E0318880E069FDF7F5F96169E0314C
:10CC0000C880E069FDF7F8F96169E0310881072023
:10CC1000A87370BDF8B5B94CA079C0076FD0207A61
:10CC200000286CD1B44D0120A97BFFF7BAFC002885
:10CC300053D1E0690027C178022201260B0008F0D9
:10CC40006DFA0D161308354A4A384C474A192944DB
:10CC50004A00FDF728FA6169DA225054AE735E206B
:10CC6000475260318E7038E000F06BFD35E0FFF721
:10CC70008CFF32E0A97B0020FFF793FC002802D153
:10CC8000207A3043207260695E210F5260308670D6
:10CC90000A2018E0A87B0B2802D0207A10432072CB
:10CCA0002F746069603046720C200CE0FFF725FF9E
:10CCB00013E0A87B112802D0207A1043207260690B
:10CCC000603087701620A87307E0FFF7D1FE04E0FC
:10CCD00000F004FD01E0FFF7BBFEFDF780FD00283A
:10CCE00004D14F208649000108F027F9606900232C
:10CCF0008030016B426B491C5A4142630163F8BDAD
:10CD0000F8B57D4F012814D1787C002802D1387CF9
:10CD1000002801D0FCF75FFEFCF7F4FBFCF7E7FB13
:10CD20000020FCF7A6FAFCF732FBFCF774FBFCF7DB
:10CD3000B9FBF87B01260025704C00280FD16079E3
:10CD4000C10705D00220F87360694030057402E025
:10CD5000800717D5FE7300210120FFF796F9F87BB5
:10CD6000012802D0022808D00CE06079C00709D061
:10CD70000220F8736069403005746079000701D5BE
:10CD80000320F87300F00EFDFFF703FD2079002863
:10CD900001D03D8102E03889401C38816079C007AC
:10CDA000606904D072210D544030858203E0403028
:10CDB000818A491C8182E079002806D0616960314E
:10CDC000887C022806D8401C887460696030807CAA
:10CDD000022804D93D817D81606960308574B97B0A
:10CDE0000020FFF7DEFB002802D1B87B06284BD1DC
:10CDF00060690146C0310A7F062A45D0497F06296D
:10CE000042D03D49C97B03293ED16030807C002857
:10CE10003AD1FDF741FC002836D0FDF7B7FC0028D9
:10CE200032D06169C88801282ED90A46403256742A
:10CE3000D08A978A831E9F4201DB012002E0C01B3B
:10CE4000401E80B22C4B1F89A3899F4201D301232E
:10CE500002E0DB1B5B1C9BB2984200D918460128FC
:10CE600000D155742A22525C002A11D0224A898DA1
:10CE700052898A4201D3012102E0891A491C89B2F0
:10CE8000884205D9084603E06169012040314D74AC
:10CE900061694A8810180881FFF74FFB6069122208
:10CEA00015490C3007F0ADFEFFF7D1FAFEF7E1FFB0
:10CEB00000280AD0104810388179002905D161690D
:10CEC00002468989203A118586710C481C30FDF78D
:10CED000CEFC00280FD0E06900788007800F012881
:10CEE00009D0022807D0FDF7E2FC002803D104494D
:10CEF000044808F022F807E0C41900209000002040
:10CF000078C600007F030000606940308574F8BD7A
:10CF100070B5FE4C607900283CD0FD4D022810D140
:10CF2000FDF79BFB002803D1FA49FB4808F005F800
:10CF30006A69002380329068D168401C5941D160F1
:10CF40009060002666712079012804D12671A879A5
:10CF500010210843A871E078012816D1E670A8795D
:10CF600008210843A871FDF707FC002804D1EA480E
:10CF7000E849183007F0E1FF6969002380318A68C9
:10CF8000C868521C58418A60C860A079012802D044
:10CF90000120A07170BDA67170BDF8B5DC4CDB4DF1
:10CFA000E26900271078042183079B0FE8790126A6
:10CFB000012B11D0022B0FD0032B01D0207A30E0AF
:10CFC0006178002905D1AE70A1793143A17123E0C8
:10CFD000EF71F8BDEE71F8BD5278D3061CD06078C1
:10CFE0000028F8D1D006C00E1B2818D86079084355
:10CFF0006071FDF7F4FB002804D1C748C5494B30E8
:10D0000007F09BFF606900238030026B416B521C6C
:10D01000594102634163E8790128DBD1D8E7207ADE
:10D02000102108432072F8BDF8B5B84D0446303DD4
:10D03000287D002700280AD0002978D167701020A9
:10D040002070687DA070A87DE0702F756FE0287853
:10D05000002814D000296AD1072067702E4620705E
:10D06000083607E0686807802F700A223146A01C46
:10D0700007F0C7FD28780028F4D1A77057E0287E74
:10D08000A24E143E002837D0002950D1297EA04856
:10D090000B0008F043F80D2C2C2C2C2C2C2C2C11D4
:10D0A0002C2C20082C0067700C212170A97EA17007
:10D0B00040698089A08018E008216770217040696C
:10D0C0000A468089914960801439201D07F099FD36
:10D0D0003089A08109E067700B212170A97EA170C1
:10D0E00040698089A080A87FA0712F761FE08949C0
:10D0F0008A4807F022FF1AE0844810388279002A13
:10D1000008D0002913D1677011212170B189618085
:10D1100087710CE0827A002A0BD0002907D1677052
:10D1200012212170318A6180718AA1808772012069
:10D13000F8BD0020F8BD76480078012801D00C2009
:10D140007047724900203039087008750876203120
:10D150008871704770B56E4C064620780D460028E1
:10D1600004D093206B49000107F0E7FE01202661FF
:10D17000E07225622070FFF7DEFF002804D06748C8
:10D180006449493007F0D9FE70BDF8B5604C21788C
:10D19000012902D12178012901D00C20F8BD0146D6
:10D1A0000546606112220C31584807F02AFD01271C
:10D1B0004035AF74554D2888FDF735FA002827D043
:10D1C0002888FDF7EBFA002822D02888FDF7A0FA7E
:10D1D00000281DD02888FDF7BAFA002818D0FCF7DF
:10D1E00056F960690026C088002825D048481830C4
:10D1F000FDF799FA00281FD06069C030007E002832
:10D200001AD0A97B0120FFF7CCF9002802D013E047
:10D210001220F8BDA97B0420FFF7C3F900280BD129
:10D22000606901464030868360314E740220FFF70A
:10D23000D5F96069403046743448303800780028A9
:10D2400004D16169C88D098C884201D86069008C5D
:10D25000A08160694189491E8AB22989891829817A
:10D26000297B002902D06E812E7302E0698989181A
:10D270006981014640318B8A9B188B82C388012BC0
:10D2800001D85B1CC380002A01D060308674A87B63
:10D29000032816D0487C002815D02889A189884207
:10D2A00011D2FDF7F9F900280DD060692A21095C37
:10D2B000002908D06989808D814204D3A670E77067
:10D2C00003E0A77001E0A670E670606951210E547A
:10D2D000A97B052901D0062915D1DE214288095AEA
:10D2E000511A09B200290EDB01460522E031243033
:10D2F000F3F76AFF012202216069FCF7A3FF60696E
:10D30000C0304677AE736069418909E0C4190020D6
:10D310009000002078C6000039070000F1080000E6
:10D32000FDF745F8A07800282AD160692030807A7E
:10D33000002800D06E810120FBF7A5FE606938301F
:10D34000FCF75DF860693430FBF76EFF216A00205E
:10D350000856FBF735FF0120FCF796F8FBF7EEFEC9
:10D36000FCF78EF80120FBF7CEFF6069406EFCF7FA
:10D37000A1F8FFF72AF860694030C07BFBF75DFF3A
:10D380006671E671A6712672A67266722671022017
:10D390002070FCF787F80020F8BD10B5F74C207816
:10D3A000022801D00C2010BDA078002803D0002056
:10D3B000FFF7A6FC17E0FCF76AF800F01DF96069BA
:10D3C0002030007C012809D0FCF7BEF8FBF7BBFE3B
:10D3D000F3F7F7FFE07A012803D004E0FCF7BCF88C
:10D3E000F4E7F5F715FE002010BDE449C872704758
:10D3F00010B5E24C2078032803D0E149E14807F05A
:10D400009CFDE14801218278002A06D0002282702A
:10D410000171A27904231A43A271A2691378DB4334
:10D420009B0707D1C378002B04D1C170A0790221DA
:10D430000843A0711078C00606D4E0690078C006E1
:10D4400002D4E07900280CD06078002809D1A079B6
:10D45000002806D1FEF7FBFC002802D0207A002825
:10D4600003D00120FFF74CFC03E0FEF7AEFF00F015
:10D47000C3F82078012806D0F3F7A3FFE07A01284B
:10D4800001D1FCF7F9F810BD38B5BC4C606920300B
:10D49000007C012820D1A07A00281DD16846FCF725
:10D4A00063F8002818D061693120405C012810D150
:10D4B000B54A0D236D460020D3562856834208D026
:10D4C00050738989303A9185114620318873012043
:10D4D0008872A07A401CA07238BD70B5A74C064671
:10D4E0002078042804D0A748A549553007F025FD29
:10D4F000607910210843A44D6071002E47D0FCF7DD
:10D5000082FA61780126084300280ED1687C002841
:10D510000BD0E0694178C90607D00078E9790007A7
:10D52000C00F884201D1667247E0E078002809D038
:10D53000E0694178C90605D10078C00602D4FFF73A
:10D54000A3FF3AE0FFF7A0FFE069A9790078400760
:10D55000C00F884205D0FFF7DBFC60790821084343
:10D560006071E069E97900780007C00F884201D155
:10D57000FFF713FD6079304360710020E071A079FE
:10D58000000702D5A87B022817D0207A13E00221D9
:10D5900008436071E079401CC0B2E07101280CD8EA
:10D5A000687C00280DD0784854384078C106C90EF0
:10D5B000052906D2C006002803D00120FFF7A0FBF2
:10D5C00001E0FEF75BFE2078012806D0F3F7F9FEB4
:10D5D000E07A012801D1FCF74FF870BD10B567481B
:10D5E0000078042804D067486549B73007F0A5FCE7
:10D5F0000120FFF785FB10BD10B50720FBF739FEB2
:10D600005E490420087010BD5C49332249695054BA
:10D610005D4A032090738876704710B5574C606957
:10D62000C030007F00281CD0062806D05648817BD9
:10D630000020FEF7B6FF002813D060690146C03114
:10D640000A7F130007F06AFD070D0D0D0D0D0D0586
:10D650000D006030807AC20704D0C043800700D13B
:10D66000087710BD0C20FEF7B9FF60690122603019
:10D67000817A1143817210BD10B5002A0AD00023AF
:10D6800006E0D41A6418203CE47FC4545B1CDBB26F
:10D690009342F6D310BD10B503F0B1FF0C281CD394
:10D6A000364C08216069D03003F0AAFF002806D06C
:10D6B00060690421953003F0A3FF002803D13049AD
:10D6C000324807F03AFC6169042208469531BD30C2
:10D6D00007F097FA0420FEF781FF10BD7CB52A4EB3
:10D6E0000020B17BFEF75DFF0125244C002802D10C
:10D6F000207A284320726946E069FCF75BFD6846A2
:10D7000000780021C207D20F684602706069002AC3
:10D7100002D06030057401E06030017460695E22FF
:10D720001152603085700820B0737CBD401A1849D2
:10D7300000B2884201DC002801DC01207047002093
:10D74000704770B5104D0020A97BFEF72AFF0B4CE7
:10D75000002803D1207A012108432072E069FCF7F8
:10D760009BFC6169DE2250524988FFF7DFFF0028E9
:10D7700010D02820FFF748FF70BD00009000002067
:10D7800078C60000320A0000C419002062060000BA
:10D79000FE7F00006169E069E031FCF771FC052063
:10D7A000A873E9E770B500F047F8384C384D607958
:10D7B000400709D5A97B0520FEF7F3FE002803D01A
:10D7C000207A082108432072FFF724FA00F012F8AB
:10D7D000FFF7C0F8A079C00609D5A87B030007F0C1
:10D7E0009DFC06060606060604060620A873FFF73B
:10D7F00048F8C1E710B525488179490714D5017A61
:10D80000002911D12249897B0B0007F087FC080D04
:10D81000050D0D0D0E0D100D4069002262210A54F8
:10D82000C030807EFFF7F0FE10BD012100E0022134
:10D830004069C030417710BD10B51448817909079F
:10D840001DD5017A00291AD1114A947B230007F0D3
:10D8500065FC1416160B1616161616161616161640
:10D860001616161616161716406960308170407C21
:10D87000002801D0062000E01620FFF7C5FE10BDED
:10D880004069603001728170917310BD900000207A
:10D89000C419002010B5031D03600020521E04E0CF
:10D8A0005C181C60401C2346C0B29042F8DB00208C
:10D8B000186010BD01460A680020002A02D01046F8
:10D8C00012680A60704702680A60016070470000D1
:10D8D00000B51A2822D00ADC030007F01FFC0D1146
:10D8E0001F131F1F191915171F1F1F1B1F002A2881
:10D8F00014DD3A38030007F011FC030F1109110081
:10D90000002000BD1E4800BD042000BD0D2000BD4C
:10D910000F2000BD082000BD112000BD032000BD68
:10D9200010B50C46F4F7CFFF00281AD02046F4F7C4
:10D93000CCF9002812D020780E280BD00F2809D05F
:10D94000022807D0032805D00EA1772007F0F5FAAA
:10D95000002010BDA078FFF7BBFF10BD09A17D20FE
:10D96000F4E708A18320F1E710B5F4F735F910BD0D
:10D9700010B5F4F7AAF910BD10B5F4F78CF910BD85
:10D98000023000007372635C686F73745F68636970
:10D990002E630000F0B597B00021032004F082F957
:10D9A0000025FE4E022775807574347C12E0F06805
:10D9B000E1004018818800290CD0858069460F70ED
:10D9C0004D70016802918088694688800021684610
:10D9D000F8F734FD2046641EE4B20028E7D117B002
:10D9E000F0BDEE4BD86019741A80D3E7EB49EC4BCD
:10D9F0004A8800201A4200D00120497C002901D029
:10DA0000082108437047F7B504460E460078012107
:10DA1000E34A8140521C114098B0E04A009151887D
:10DA2000E04B994205D0009B002B05D0DC4B1942FE
:10DA300002D001201BB0F0BD009BD84A1943518091
:10DA40001A9D002D11D00020287022781A980027E6
:10DA5000401C130007F062FB10EF0D152137555DD8
:10DA60006A39AFAB85B3EEEDECEF0B28EDD00420B7
:10DA7000E0E702212970A1880170090A41700320A2
:10DA800093E004212970A1880170090A4170E1889E
:10DA90008170090AC170052087E006212970A188DC
:10DAA0000170090A4170E1888170090AC1702189F9
:10DAB0000171090A4171A289E81D216907F0A1F8E5
:10DAC000A089C01D71E0082129702178082901D1A1
:10DAD00010212970A1880170090A4170E1888170C4
:10DAE000090AC1700520308020466A1D01A908304E
:10DAF00003F0CFFB00287DD16946308809794018B2
:10DB000053E00A212970A1880170090A417003209D
:10DB10000AE00C212970A1880170090A4170E1888E
:10DB20008170090AC170052030809DE0A08884467C
:10DB30004000401C81B2308888425BD3052959D30C
:10DB40000E202870002008E0A36842009B5A52195A
:10DB500053701B0A401C937080B26045F4D331802F
:10DB6000B6E08E49487C002873D0401E4874C868CF
:10DB700021790822C9004518A98828684018083862
:10DB8000A16807F03EF80221684601710021417149
:10DB900028680390A98868460181002101A8F8F748
:10DBA0004DFC0020A880002E00D0308090E0297825
:10DBB0008022114329702978402211432970297845
:10DBC0008909890112312970A1880170090A4170FF
:10DBD000E288E81CA16807F014F8E088C01C3080D7
:10DBE0002878410640D5C00972D0012168460171EC
:10DBF000002100E02BE041713188ED1C091D0181FD
:10DC00001A980390E08840190490001D634D059018
:10DC1000297C68460176002101A8F8F70FFC074629
:10DC200030880C303080022F06D0002F50D060E0BA
:10DC30003CE032E01CE059E06946097EE868CA0031
:10DC400080182A7C914202D28188002902D00427C0
:10DC50004FE02EE0697C491C69741A990160318893
:10DC600081800020308044E04C48A188C1802FE0B2
:10DC700029788909890116312970A1880170090A5A
:10DC80004170E1888170090AC1702289681DE168CC
:10DC900006F0B7FF2089401D46E7287880098001FB
:10DCA000183028702079687002207EE73B480A040B
:10DCB00001D405271DE00289A3889A4201D00627D6
:10DCC00017E01E222A70012249043280490C41804B
:10DCD000009800280DD0314D00222888114683007D
:10DCE000032003F03AFF2078287107E000203080FD
:10DCF00003272A48009942888A434280384699E699
:10DD0000F7B59AB002000C4606D0172A04D823486B
:10DD1000244B4088984202D107201DB0F0BD2378E3
:10DD20005D0601D4DB0901D00820F6E700236D462B
:10DD30002B706B701D462378611C9F06931E1893F1
:10DD4000531E19939BB2169302AB1793134BBF0E3E
:10DD5000DE883B0007F0E2F9208511F15EF16BF1FE
:10DD6000A3F1C6F1F2F1FBF1EEF1EDF1ECF1F1F11D
:10DD7000EBF1EAF1E9F1E8F185F1052A71D104222C
:10DD800069460A7005490A7969460A71E178A378FB
:10DD90000A021A436946CA80227905E0D819002090
:10DDA000FE710000FFFF00004A7061788906890E4D
:10DDB0000C2923D009DC891E0B0007F0AFF90913E9
:10DDC00052155219521B521D520012291CD004DC4C
:10DDD0000E2915D01029D1D114E0162916D01829F2
:10DDE000CCD115E0800700E04007002839DA2AE1AD
:10DDF0000007FAE7C006F8E78006F6E74006F4E712
:10DE00000006F2E7C005F0E7C004EEE78004ECE7A7
:10DE10004004EAE7800724D5032AAFD105206A46EB
:10DE20001070487809780002084390800BE14007A1
:10DE3000F1D5062A15D31898617880B2012902D04D
:10DE400002299BD101E0022700E010270622694643
:10DE50000A7000228A8001AEA11C0236BA1C1792F9
:10DE600018E0B6E04A780B7812021A433280801E1E
:10DE7000891C1890B21C1691384603F0E4F91699E3
:10DE800018986B469A88C919C01BB61D521C9A80F7
:10DE9000179A80B28242E5D900289CD1D3E00007CE
:10DEA000B9D51998694682B2072008700020888089
:10DEB000601C891D11E0437806781B0233430B80F8
:10DEC000C37886781B0233434B806E46121FB3889B
:10DED000001D091D5B1C92B2B380042AEBD2002AFC
:10DEE00077D1B0E0C00674D5022A72D31898082101
:10DEF00082B2684601700021C18063780371A01C62
:10DF000017990EE04678077836023E430E80861C4D
:10DF10004E606F46D21AFE88C0180831761C92B245
:10DF2000FE809342EED9DAE76FE076E065E051E0FB
:10DF300046E01EE014E00AE000E0A0E0800648D5DC
:10DF400009206A46107096801698D0800FE040062F
:10DF50003FD50A22684602708680169AC28006E083
:10DF6000000636D50B206A461070169890800291F4
:10DF700069E0C0052DD5022A7FD318980C2182B202
:10DF8000684601700021C18063780371A01C179955
:10DF900013E04678077836023E430E80C6788778CD
:10DFA00036023E434E80061D4E606F46D21AFE88F2
:10DFB000C0180831761C92B2FE809342E9D98EE7F0
:10DFC000C0045AD5012A58D10D21684601708680B7
:10DFD00039E052E0800450D5052A4ED30E2368461E
:10DFE00003708680C8788B78010219436846C18027
:10DFF000521F0281601D039025E040043DD5012A97
:10E000003BD10F20694608701DE0030435D44B78DE
:10E010000E781B023343244E3381032A2DD31B2F4A
:10E0200027D011236E46337001261F4BF603304371
:10E03000588048780B780102194368468180D21EC7
:10E04000C280E01C029020788006800E1B280AD037
:10E050001D2808D00021032003F024FE1248418827
:10E06000C90BC903418068461C99F8F7E7F92846AF
:10E0700053E610206B461870DBE70725F7E7082505
:10E08000F5E700B50022D243074997B04A8003283C
:10E0900007D1032268460270097901710021F8F75F
:10E0A000CDF917B000BD0000D8190020FFB589B028
:10E0B0000020019009981027FE4C1E46154608289E
:10E0C00006D0E06901F05EF8002809D03770BEE0A4
:10E0D000288809213843108013980227017016E020
:10E0E000E169012088710521E269C9029180E16935
:10E0F0008872E169F0480881E16900208873288806
:10E1000020210843288011211398042701701398B7
:10E110000225801C0290307806900A203070E54875
:10E120001830049001F022FA0020059020462C308F
:10E1300003906DE00998102808D1022D06D00199AE
:10E140000298A28D401A8270110AC170E08D0A995E
:10E15000884202D901F0CDF806E0884204D1069841
:10E16000002801D030701CE00298E18D0170090A8E
:10E17000417012980088401BC01B82B2FF20C01B58
:10E18000904200D2024607A8009002980021C319CD
:10E19000E08D01F056FA3070002805D0C0B2832817
:10E1A00058D0E08D20833EE00598002804D0206CF4
:10E1B00000790A282CD336E06846808BC119C9B291
:10E1C0000191022D0DD01399019A4978914202D103
:10E1D000228F824208D00191206C0178032908D057
:10E1E00023E0084613994870206C0178042906D072
:10E1F00007E000790A2818D20120059008E0E18D97
:10E20000818002990198081802900198281885B217
:10E210000399049801F0ADF9002804D11298008800
:10E22000401BB84286DA022D0DD00998102806D17D
:10E2300002990198A28D081A8270110AC170129871
:10E24000058000203070206C0078032802D0002068
:10E250000DB0F0BD0220FBE7F8B5964A0026126D1E
:10E26000002A2ED0401F934D84B24035E88A2346C1
:10E270000833AF8AC318BB4222D88B784F781B0271
:10E2800010183B4303701B0A43700B79CF781A02B6
:10E290003A438270120AC2700471220A4271224605
:10E2A000491D801D06F0ADFCE88AA41D001980B24E
:10E2B0008049E882096D002208180270427000E06F
:10E2C00009263046F8BD30B57A4B028840339B8A28
:10E2D000934213D9774B1C6DA3185C781D782402E8
:10E2E0002C430BD05C791D7924022C436404640C0C
:10E2F000A41D1219028000200B6030BD822030BDA9
:10E30000F0B585B0074600266846068155E00198BD
:10E31000417802780D0215434179027908021043D1
:10E3200000044AD43D8003A8002301220090520239
:10E330001946284601F085F9040044D16846018950
:10E3400001820198417902790902114343780278E8
:10E350001C021443AC421CD10A041AD44A04012101
:10E36000520C89030A430096C17880780902014360
:10E370000023204600F0C1FF040010D10199487924
:10E380000A79000210430122D20310430871000AE7
:10E39000487101A904A8FFF796FF0400D1D00199A4
:10E3A00000964878097800020843694600238A8964
:10E3B000194600F0A2FF822C05D101A902A8FFF79F
:10E3C00082FF0400A3D06846068109E001994879DC
:10E3D0000A79000210434004400C0871000A487199
:10E3E00001A902A8FFF76FFF0028EFD0822C02D00E
:10E3F000204605B0F0BD0020FBE7F7B584B0144619
:10E400000646002700F071FF2A480025006D00280D
:10E410002FD0059801282CD12046FFF771FF070067
:10E4200027D1002E29D06846058118E00199487847
:10E430000978000208432080019B009558791979DA
:10E440000202D8780A4301029F78587839431F782E
:10E4500000029B1D384300F050FF002805D101A9A0
:10E4600002A8FFF730FF0028E0D0822800D100206A
:10E470000746002E01D00F48056500F03AFF3846E8
:10E4800007B0F0BDF0B597B00021042003F00AFCFE
:10E49000084F00243D467C8040356C73AC73287B6C
:10E4A000B96CC00008380E18B08800280DD00120C3
:10E4B000694603E0EC19002001280000087030686C
:10E4C000019000216846F9F7BAFAB4803C65AC8245
:10E4D000EC8217B0F0BDFE4B9864184640300173D3
:10E4E0001A803838D861CDE7F949002049880A07F1
:10E4F00000D501200A06120F01D002221043CA05DE
:10E5000001D5042210438A0501D510221043490584
:10E5100001D520210843EE494031497B002901D033
:10E52000082108437047FFB5A7B004002898164695
:10E530001B9022D00178E6484D064288229202467E
:10E5400040320092002D14DB8A06920E1E2A0ED055
:10E55000229A5205520E10D13288172A0DD3009AF2
:10E56000927B002A09D1DB4D229AAA4205D0CA0922
:10E5700006D08A06920E122A02D003202BB0F0BDDC
:10E58000D348826C0098007B2590C0000838101892
:10E590001F9048060CD40098407B002808D00099B2
:10E5A00088731F99289808601F9884800220E5E7E7
:10E5B000002718A90F7069460F72C54902AA0A649C
:10E5C000309A4A6410A90F850F861B981D46007863
:10E5D00020908106BE4B601F24901A462C32219257
:10E5E0002898DA691833890E1E93401C0B0006F038
:10E5F00095FD1FFDFD11FD1AFD90FDFCFDFBFDFAD3
:10E60000FDF9FDFCFDF8FDFDFDF7FDF6FDFDFDFD51
:10E61000FDF5FD00032C7BD10320287017226A70C2
:10E620000022AA70E0E2052CF5D1417802780902B7
:10E630001143A74B10AA19831185C2788078120262
:10E6400002435A8300297DD091427BD8002118468D
:10E6500081720181491E01841E9800F087FF052008
:10E660002870A81C1D900220009021991E9800F08F
:10E6700080FF002803D047E018A90870F0E2944812
:10E680002030807C012803D002206870102002E036
:10E6900001206870022022908D48303023900022A3
:10E6A00020A9239802F0F5FD00282AD120A800789F
:10E6B0002299814225D132880099801C511A8142C9
:10E6C0001FDB83481D99C08D0870000A48701D9893
:10E6D00020A9801C1D9000981D9A801C00902398F2
:10E6E00002F0D7FD20A909781D9840181D900098C8
:10E6F000401880B2009021991E9800F03AFF00283F
:10E70000CDD0009802288DD10A2018A908706CE29B
:10E710006DE0072C6BD341780378090219436C4BE9
:10E720008446198310AB1985C37880781B0218437F
:10E73000674B0029588305D0814203D80121184630
:10E74000817200E0A4E061464B7909791B020B431A
:10E75000038100218173104600F014FD00280FD1C1
:10E760005B480121C26991710522C369D2029A8076
:10E77000C2699172C26958491181C06900218173CF
:10E780005349E01F08841B98C01D48621E9800F082
:10E79000EDFE07202870681C009001201D904C4859
:10E7A0000021C18530E01D98012815D04848C16975
:10E7B000897901292FD000981038C17B807B09020C
:10E7C000014300980170090A41700098801C009074
:10E7D0001D98801C80B21D903D4809E013E2BEE107
:10E7E0007AE1D8E00DE2A0E080E03BE01EE2B6E096
:10E7F000C18D00980170090A41700098801C00903A
:10E800001D98801C80B21D9021991E9800F0B1FEC9
:10E81000002802D006E0818DD3E731881D98081AC0
:10E820000428C0DA1D98012800D16DE72848C16985
:10E830008979012903D0828D26498A4205D1818DAB
:10E8400000980170090A417009E000981038C17BF6
:10E85000827B0802009910430870000A48701D98D6
:10E86000801CC1E1072C01D0152C78D141780378A8
:10E8700009021943164B198310AB1985C3788078A8
:10E880001B02034312480029438301D0994201D956
:10E890000120F1E60E48012181720021018181737E
:10E8A000052C07D024981B99C0B2491D02F0CBFC5F
:10E8B0000028BAD100200649C04308841B9800965E
:10E8C0000195007818AB8006800E1CAA002105E097
:10E8D000EC190020FFFF000001280000FFF7E6FB15
:10E8E0000746FE4810A9008B08857EE1032CBCD1A9
:10E8F000402210A90A86417802780802F74910439D
:10E90000088310A9088520A9009131886B1C491E35
:10E910008AB2002100F095FE18A90870002830D1B5
:10E920000B20287020A8008833E0052C9DD1802181
:10E9300010AB1986014640780B780202E7481A436B
:10E940000283CB7889781B021943E44B1046198463
:10E9500010AB1A85E24A914202D307208CE697E079
:10E960003F23DE4A9B021943118421AA0092328878
:10E970006B1C521E92B200F064FE18A908700028A9
:10E9800003D08328B1D102272FE10D20287020A8C1
:10E990008088401C28E120990C22C9095143C91CD8
:10E9A0001E91A14204D92098400671D500201BE198
:10E9B000417800780902014310A801851B9800786E
:10E9C00042062898C01C1D90002A62DA05206A467B
:10E9D00010721B980078C00944D008226846027261
:10E9E0008181A01A87B268468782289806901E986F
:10E9F000201A81B26846C1811D980490401806F023
:10EA000061F9079006982599C0190890491E08A831
:10EA1000017102A83099F9F712F8074600216846FB
:10EA20000172002F1BD0022F18D1009808A9007B7B
:10EA30000979401E884210DDA848289A836CC900D5
:10EA40005A50816C08A80079C000001D0C52009833
:10EA50000099407B401C4873C7E00527EAE0062088
:10EA600069460872002000901E980021201A20900C
:10EA700082B21B9B10A8DB1C008D00F03EFC0146FF
:10EA800018A80170002268460272832903D003E0AF
:10EA900093E00720E4E702271B98007840060ED594
:10EAA0008E484188C90506D510AA018B128D914266
:10EAB00001D100214162002018A9087094E0FF21D3
:10EAC000013110A80186018D8448018320990184B9
:10EAD0001D994162132085E0052C6ED3417803789F
:10EAE0000A021A4310A90A859446092269460A7245
:10EAF0000021009101222499D20311438AB2C178E6
:10EB0000807809021B9B01435B1D604600F0F5FB0A
:10EB100018A90870002269460A720122520210A93F
:10EB20000A86832802D0002805D099E06B48098D19
:10EB3000018302277EE06948006D002807D0204647
:10EB40001B99FFF789FB18A9087000284DD12B46A7
:10EB5000324620461B9900F024FB074645E01B98EF
:10EB6000022C4078009064D1002801D0012860D1A7
:10EB70000A2168460172009901731AAA00200099BF
:10EB8000FFF73BFC0146684641730021817302A8F0
:10EB90003099F8F754FF07460021684601720121B9
:10EBA000890210A80186022F08D04C48006C807999
:10EBB000002807D018A9087020E04BE047490098CA
:10EBC000088337E0002F03D0812018A9087031E0B6
:10EBD0001AAA01200099FFF710FC18A90870002854
:10EBE00003D119202870012030806846007A00285F
:10EBF00004D002A83099F8F722FF0746002F2BD047
:10EC000018E0062038E522993448090711D5012C6F
:10EC10000FD10B2269460A72C08888810021042026
:10EC200003F040F8082010A90886BFE620984006A7
:10EC300010D50327294810AA4188128E114341801C
:10EC40005005400E04D01F99289808601F988480B2
:10EC5000384693E404200FE518A8007800280ED069
:10EC6000012028701B980078687010A8008DA8708B
:10EC7000000AE87018A8007828710520308017482D
:10EC800010AA4188128E91434180E1E7FFB5064604
:10EC90009FB000201B903178012088401149124A12
:10ECA000084010A908860D494988914203D00028E0
:10ECB00004D0080702D5012023B0F0BD219D002714
:10ECC0002F7020983C46018810A8018418A807716D
:10ECD00000F00BFB6846077202A907E0EC19002060
:10ECE0000102000009F80000FFFF0000FA4801647B
:10ECF00001464031826C1A91097BC90008395718C6
:10ED000022994164307801282AD0022809D00328AA
:10ED100079D12878800980011D302870EE48B188AB
:10ED2000C1803078022804D12878800980011B3006
:10ED3000287001A8009010A8008CEB1CC01E82B2A5
:10ED4000B088002100F07DFC0028E1D1B188697015
:10ED5000090AA9706946888810A9C01C08842DE199
:10ED6000717918A801713079012802D00228CFD119
:10ED7000E6E0D9487F2340881B010246184010ABCB
:10ED80001886802840D006DC102810D020280ED00D
:10ED900040280AD120E0FF38013859D0FF38013827
:10EDA0006AD0FF38FF3802387ED0052491E0D006C3
:10EDB00001D5082000E010201B900420694608724D
:10EDC0000020888118A800900195318919AB1CAAF0
:10EDD0001B98FFF76BF977E0BF4B3289188B8242A3
:10EDE0004FD10A221B92002973D101A9009110A9C9
:10EDF000098C6B1C491E8AB2002100F022FC18A964
:10EE000008710B2017E0F6E0B34B3289188B824271
:10EE100037D10C221B9200295BD101A9009110A9C6
:10EE2000098C491E8AB21946098C6B1C00F009FC3A
:10EE300018A908710D2028706946888810A9401CFF
:10EE40000884042069460872A348008B888140E04A
:10EE5000A14A3389108B834213D112231B930029BB
:10EE600037D1536A002B05D00091128C00F045FA7F
:10EE700018A9087113205EE097483289038B9A42E3
:10EE800001D00424E7E016221B92026D002A09D16A
:10EE9000F268002A06D002651A98328A82821A9A8B
:10EEA0000020D082002900E02FE012D1B888396814
:10EEB000FFF7D2F918A9087100280AD1B8882B46A3
:10EEC00018AA396800F06DF90446022818D0042CFD
:10EED00016D0B88800280FD06846007A002804D0E1
:10EEE00002A82299F8F7ABFD044601206946087292
:10EEF000386803900020B880002C5FD0052C7BD0B0
:10EF00006846007A032873D0A5E018201B900029DA
:10EF100005D071483189018300210165D9E76E4828
:10EF20000246017E18320120FFF767FA18A908711E
:10EF30000028CED119202870012010A90884C8E724
:10EF40001A98407B002856D0307AC0001358001D14
:10EF50000193105A1D9000291AD100F0CAF9062019
:10EF600069460872002000901D980F3882B20198FF
:10EF70008178437808021843019B0021DB1C00F0D4
:10EF8000BCF918A90871002269460A72832830D09A
:10EF9000002118A8017110A801840121684601729E
:10EFA000019803901A981A99407B401E48731A984A
:10EFB000807B002802D01A99401E887310A8008E0A
:10EFC0007F21090102468A431DD043480022008860
:10EFD00011468300042002F0C0FD3F4831780171E2
:10EFE00010A94088098E08433B4948800FE003E0A0
:10EFF0002BE002242FE00524374810AA4188128E06
:10F000009143418027E034494A8882434A806846D8
:10F01000007A002805D03048416C02A8F8F70FFDAF
:10F02000044618A80079002815D01B9868700120A4
:10F0300028702948008BA870000AE87018A8007989
:10F040002871052110A8018405E02348416C02A81D
:10F05000F8F7F5FC044600F04CF91F4840884005DD
:10F06000400E20D11A98807B00281CD1B888002837
:10F0700019D0209910AA0988118422990091396821
:10F0800018AA219BFFF74FFA044602280BD0012053
:10F09000694608723868039002A82299F8F7CFFCF5
:10F0A00004460020B88010A8018C209801802046DA
:10F0B00002E600B50022D243074997B04A800428EF
:10F0C00007D1022268460270097901710021F8F720
:10F0D000B6FC17B000BD0000EC19002010B5394C8B
:10F0E00003780022216C012B02D0022B44D126E0B0
:10F0F0000B78002B01D0042B03D10A71226C032161
:10F100001170216C83880A79D200921D8B52216C78
:10F110000A79D20008328918C2880A80216C0389D2
:10F120000A79D2000A328B524289206C0179C900D7
:10F130000C314252216C0879401C087120E00A749D
:10F14000226C81889180216CC288CA80226C0189DE
:10F150001181226C41895181216CC068C860616C49
:10F16000206CF8F76CFC0146022807D0206C007C6C
:10F17000002802D1002903D0812010BD832010BDBA
:10F18000002010BD8178012909D100880521C9021C
:10F19000884202D0491C884201D1002070470520D6
:10F1A000704710B51488844201D2052010BD172481
:10F1B0001C701080421E491C581C05F022FD0020C6
:10F1C00010BD0000EC19002010B58B78002B11D079
:10F1D00082789A4207D10B88002B0BD003E0091DDF
:10F1E0008B78002B08D08B789A42F8D103880C8852
:10F1F000A342F4D1002010BD812010BD10B500291C
:10F2000002D001290DD102E00088000501E000884C
:10F210008004800F07D001281CD0022809D00328C1
:10F2200010D0812010BD002901D0032010BD022084
:10F2300010BDF5F733FE03280CD004280AD00028AF
:10F2400006D009E0F5F72AFE042803D0022803D0EF
:10F25000052010BD002010BD0F2010BDF3B5C81C47
:10F2600080080E46800081B0B04201D08620FEBDED
:10F27000FE4C354626600198A08000202081E08069
:10F2800014E0B807A978800D0843F94905F033FD6B
:10F29000E088401CE080B80607D42089401880B27E
:10F2A00020810199081A8019A8600C352F887807E9
:10F2B000E7D40020A072FEBDEC480C22C188008972
:10F2C0005143081880B2704770B51346E74A451895
:10F2D0009488AC4201D2842070BD126810180A468E
:10F2E000194605F08EFC002070BDE04901208872AF
:10F2F0007047DE49002088727047FFB589B09704D7
:10F300000E460546BF0C029200F034FA040021D0EC
:10F31000002069460873D548807A012812D001215F
:10F320002046FFF76BFF002815D12078400609D54D
:10F330000221684601730582218841828682C78244
:10F340000C9806900298000407D500273E46012538
:10F3500001970CE001200DB0F0BD2078A178800766
:10F36000800D0843C249019005F0C5FC0D46029886
:10F3700040040AD50198A84207D12088E178800589
:10F38000800F00020843B04201D3AE4201D90720EA
:10F39000E1E7B81980B20290A84201D90D20DAE75E
:10F3A0006846007B002804D003A8F8F744FB002837
:10F3B000D1D10198A8420BD12088032109028843AA
:10F3C00002998905890F0902084320800298E0709C
:10F3D0001298002800D007800C9800280CD02078C4
:10F3E000000609D4A0683A4680190C9905F009FC7A
:10F3F00020881021884320800020ACE7FFB59B4D7A
:10F4000081B00E46E8882F680C21009048433C18D4
:10F410009749039805F06FFC0A462889E11B84464A
:10F420000C314018318880B28B0601D5002300E0F2
:10F4300013461818AB8880B2834202D8842005B0E6
:10F44000F0BD0098894D401C80B2E88021800D9964
:10F45000002900D00C600399A170E2702188039DFF
:10F460008908AD058900AD0F294303252D02A94365
:10F470009505AD0F2D0229430425294321800C99C0
:10F48000002900D0088001998978A1710199098823
:10F49000A1803178890601D50B9905E07349624452
:10F4A00092B20A81991AC919A16000212173327898
:10F4B000920601D50020C2E700910B9B0A9A04999D
:10F4C000FFF71BFFBBE7FEB5044600F053F907004A
:10F4D00008D0664D641EE8880190A6B228683446BC
:10F4E000009015E00120FEBD0C2000996043095AF0
:10F4F0008A060BD489078A0D0099801C085C5C4938
:10F50000104305F0F8FB2889401A2881641CA4B236
:10F510000198A042E8D8EE8000203870FEBD002897
:10F5200003D0401E0880002070470120704710B5AE
:10F530004E490288CB889A4201D3822010BD0B68C5
:10F540000C21514359180B88CC789B059B0F1B024B
:10F55000234341608C7904738C884481C38189681A
:10F56000521C016102800281002010BD0121018234
:10F570007047FEB505460020C043088068680F4606
:10F58000817868468170686801886846018000213A
:10F590008171288A2C88A04200D304462C8234E052
:10F5A000288A401C2882301D6968FFF70DFE00285C
:10F5B00029D139882F48814201D1601E388068885E
:10F5C000A04227D33088F1788005800F00020843DD
:10F5D00002906946301DFFF7F7FD002813D12989F5
:10F5E000244881421AD000213046FFF707FE002848
:10F5F00009D12A890298824205D1E968B06805F0EC
:10F60000D3FA00280AD0641CA4B2204600F0B2F855
:10F610000600C5D1641E2C828220FEBD7C80B0799C
:10F62000B871B088B8803088388130788007810D13
:10F63000B078014379810298B881B06838610020C0
:10F64000FEBDFFB585B014460F46059800F092F850
:10F65000050037D00548BE05807AB60D01281CD0BC
:10F6600000212846FFF7CAFD002805E0441A0020C3
:10F6700001020000FFFF000022D1287840060CD5CF
:10F68000012168460170059981802988C180068121
:10F690004481F8F7D0F9002812D12888AA78810788
:10F6A000890D11438005800FEA7800021043BE42A5
:10F6B0000AD0374A914207D3611E814204DD0B20F4
:10F6C00009B0F0BD0120FBE7864201D90720F7E72A
:10F6D000801B82B2A24200D922460E98002800D098
:10F6E00002800898002804D0A8688119089805F0BD
:10F6F00088FA0020E4E770B514460D4600F03AF8A9
:10F7000000280DD001882980002C0DD00178807848
:10F710008907890D01431E48814203D2012002E07E
:10F72000012070BD00202070002070BD70B516460D
:10F730000D4600F01FF804000DD02D882580FF2E07
:10F7400016D0A807A178800D0843114905F0D3FA17
:10F75000002E06D101E0012070BDFF31FF310331E1
:10F7600089B2A170A80880008905890F084320800C
:10F77000002070BD0749CA88824207D3002805D0FF
:10F780000C22096850430C38081870470020704755
:10F7900001020000441A0020F0B585B00E4605466F
:10F7A0000020694608707078FE49C00003900C582C
:10F7B000FD4F002D0ED0022D73D0002C72D020787A
:10F7C000801E030005F0AAFC09837F7F7F83797F79
:10F7D00077727F00002C03D1F4A16B2005F0ADFB04
:10F7E0002078801E030005F099FC09065E5E5E1914
:10F7F000365E50545E003078062803D0EBA17620A8
:10F8000005F09BFBB8687168806C032205F0F9F97C
:10F81000012069460870002835D1CEE730780C28E1
:10F8200003D0E2A1812005F088FBE0680078002881
:10F8300006D0B8687168806B102205F0E2F928E004
:10F84000B8681021006B05F039FAB868816A006B5E
:10F850000A787168F1E730780D2803D0D3A194209D
:10F8600005F06BFB042069460870716848780978D8
:10F8700000020843B9684A6A5178127809021143B4
:10F88000484069468880084608E0C8A1AF2005F0D6
:10F8900054FB6846007800288FD06846F5F703FBD4
:10F8A0008BE727E01CE0C1A1B420F0E7B8686169EC
:10F8B000006CFEF708F8A16900E0E168B868006C28
:10F8C000FEF701F803E0B9A1E32005F036FBB868C4
:10F8D0002146006CFDF7F7FFB24A03990020505013
:10F8E000022D07D0002D05D0012D03D0AFA1EF20B0
:10F8F00005F023FB05B0F0BD10B501780124012906
:10F9000002D0022910D112E04268A748002182608B
:10F910000170A4486C38C166016741678167D2896C
:10F9200002214C3001F0E1F90024204610BDFF20F7
:10F930009EA1163005F001FBF7E7F0B505469EA144
:10F9400003C997B014911390002008A90875954930
:10F950002A781031944C0491217805910126914F19
:10F96000A168130005F0DAFB0CEF07309AF0EDEC1C
:10F97000EBEAE9E9E8EF20700124FF264F3605465F
:10F9800010A80570457001F0C1F90746012803D0A1
:10F9900086A1304605F0D1FA10A93846FFF7FCFEE3
:10F9A0002046641EE4B20028EAD10A2069460870A5
:10F9B0006846029501F088FA002803D0FF207BA159
:10F9C000583068E0002646E3C86A0078C0072FD0A8
:10F9D000012069460870684601F076FA002804D0D4
:10F9E000FF2072A16B3005F0A8FAA068006CFDF74B
:10F9F00061FF050004D1FF206CA16E3005F09DFA77
:10FA000008984078C0003D5006202870A068016822
:10FA100069600069A8606448C01CE860284601F07D
:10FA200053FA022804D0FF2060A1783005F085FA4F
:10FA3000A068C06A00784007C4D5012069460870F4
:10FA4000684601F041FA002804D0FF2057A1803019
:10FA500005F073FAA068006CFDF72CFF050004D1D7
:10FA6000FF2052A1833005F068FA08984078C00062
:10FA70003D5006202870A068016869600069A86090
:10FA80004948401DE860284601F01EFA022899D036
:10FA9000FF2046A18D3005F050FA93E7A9680029B0
:10FAA00033D0694608712979012932D0022904D05E
:10FAB000FF203EA1A73005F040FA3A48102210304E
:10FAC000A96805F09EF83748103036492031486063
:10FAD0002078C1062CD5EF2108402070032069460C
:10FAE0000870304810300290684601F00FF9044663
:10FAF000022808D0002C06D0012C04D0FF202BA116
:10FB0000B83005F01AFA69466FE101216A461171B1
:10FB1000DBE7244A04996C3AD06748608860C86083
:10FB20000621A86803F0FCFE1E4910310860CAE7F0
:10FB300020210843207045E7A1E15AE119E1E6E000
:10FB400086E056E000E081E2886C40798009012877
:10FB500004D0FF2015A1CC3005F0EFF9A068017AA0
:10FB6000002906D1416B406801F01FFAA16801200D
:10FB70000872012069460870684601F0A5F900285E
:10FB800004D0FF2009A1D73005F0D7F9A068006C98
:10FB9000FDF790FE050004D1FF2004A1DA3005F046
:10FBA000CCF90DE0BC1A0020B40000207372635C35
:10FBB000736D2E630000000004411A8800A48000C9
:10FBC00008984078C0003D5002202870A068416B22
:10FBD0006960806CC01CA860284601F075F90400BB
:10FBE00004D0FF20FD49E23005F0A7F9294628316D
:10FBF000FBE01722684602720122027080788208B8
:10FC0000287992008007800F024368468270FB20AB
:10FC1000024028794007C00F800002436846827086
:10FC2000EA8882804A6C02A901F090F9002804D089
:10FC3000FF20EA49F73005F080F9052108A8017591
:10FC40006846017A0187A0680026406C0F9006E2A2
:10FC5000012069460870684601F036F9002803D093
:10FC6000DE49DF4805F069F9A068006CFDF722FE67
:10FC7000060004D18320D949800005F05EF9A06810
:10FC8000006CFDF717FE1290002804D1D448D34928
:10FC9000801D05F052F9D3488068006CFDF70AFE1C
:10FCA000040004D1CE48CD49093005F046F9089842
:10FCB0004078C0003E500A203070287A3071686861
:10FCC000C84DB060A868406C30611720307312983E
:10FCD000B4617061304601F0F7F80446022808D09C
:10FCE000002C06D0012C04D01120BC49400105F0A5
:10FCF00024F92046316AFFF74FFD2878052101409D
:10FD0000042900D05EE6FB21084028702AE005980F
:10FD100040084000207082071CD5FD221040207052
:10FD20000F206A46107017201071486C02906846C8
:10FD300000F0ECFF0546022808D0002D06D0012D6A
:10FD400004D0A748A5493A3005F0F7F86946284697
:10FD5000FFF722FD2078052101400429D2D1FB21A3
:10FD600008402070072008A908759E48807808760A
:10FD700028E6012069460870684601F0A5F80028C9
:10FD800004D097489549543005F0D7F8A068006C26
:10FD9000FDF790FD060004D113209049400105F0C5
:10FDA000CCF890488068006CFDF784FD040004D115
:10FDB0008B488A495A3005F0C0F808984078C0004E
:10FDC0003E500720307087488068406870606868DF
:10FDD000F460B060304601F077F8040004D0804849
:10FDE0007E49653005F0A9F8316A2046FFF7D4FC5A
:10FDF000E8E5012069460870684601F065F80028CA
:10FE000004D0774875497A3005F097F8089840781B
:10FE10001190A068006CFDF74DFD060004D1512043
:10FE20006E49C00005F089F8A068006CFDF742FD3E
:10FE3000040004D16A486949823005F07EF81198BF
:10FE4000C0003E50C01929694160092030706868BF
:10FE50007060A868B060A889B081634830611030D4
:10FE6000B4617061304601F02FF8022804D05C487C
:10FE70005A49903005F061F811982875A2E55A4A60
:10FE800000208C32107002206B4618700192287985
:10FE9000002801D0107098E0524803230C304068CD
:10FEA000FB2703708378504A9B089B003B4083707C
:10FEB0004B7A00271B07DB0F43708C3257600B7B9C
:10FEC000C370CB7A1372537A0C7D5B08E4075B0036
:10FED000E40F23430C461534D460FD242340CC7E2C
:10FEE000E407A40F234353720B461C33136147717D
:10FEF00007718B7A3B4A9C070C32A40F1268012CC5
:10FF000004D19478A407A40F012C1DD09B089B005A
:10FF10008B7293785B0702D48B7A5B0728D54B7A78
:10FF200013AF5B075B0FDC005B00E3181478640021
:10FF30001B19DBB2DC083C5D5F077F0F0623DB1B70
:10FF4000DC40A3079B0F14E04C7A53796406640FDE
:10FF500023404371147906273C400471E4001C439C
:10FF6000204B5C7083789B089B005B1C8370D0E700
:10FF700000238478FB273C408F7A7F07FF0FBF0068
:10FF80003C4384704C7A6407640F047050780128F5
:10FF900007D1487A000704D5032008A90875022074
:10FFA0002DE0022B27D0012B2BD00F4B0020049AE1
:10FFB000D86750609060D06018467C30024610329E
:10FFC0005060887AFB2210408872684600F09EFEDE
:10FFD000040035D0012C34D0004907E0ACFB000010
:10FFE00009020000B4000020501A00206520C00063
:10FFF00004F0A3FF25E0032008A908750120087676
:020000040001F9
:10000000E3E77E4C0D21E01C04F058FE2046103042
:100010004460022008A908750E94A868002807D03B
:100020000068206005997648202211430170CCE7D2
:1000300005980007C9D57349734804F07EFFC4E7EB
:10004000002669462046FFF7A7FB04E06E486D498D
:10005000203004F072FF08A8007D002802D00DA80F
:10006000F4F721FF304617B0F0BDF0B597B00C465D
:10007000054600206946087061482F785F4E017878
:10008000583E82683B0005F049F80BAA8407263BDE
:100090004C6B79798F9CAA002B20694608730CA9B8
:1000A00003A8FDF73DFC002804D0574855494130CE
:1000B00004F043FF55490D9804F01DFE4F480160C0
:1000C0004F4869680C300160AA68426001910820BD
:1000D000694608708CE08A0610D5DF221140017055
:1000E00003202070454810304168A1604068002816
:1000F00002D00020207177E00120FBE7102256E0BB
:100100002B20694608733D4903A85C39FDF708FCBC
:10011000002804D03C483B496A3004F00EFF04201C
:100120001BE02A206946087303A810220230696880
:1001300004F067FD07A810220230A96804F061FDF1
:100140002E4903A85C39FDF7EBFB002804D03920C9
:100150002C49000104F0F1FE05202070666043E0A8
:100160002A79002A02D00122114301700520694634
:10017000087028798880A868029039E0D06A402306
:10018000018819430180D06B6968102204F039FDA1
:100190002AE0FB2211400170062069460870A96818
:1001A00068680291019023E0CB0703D0022211433B
:1001B000017058E70F20207017202071506CA0604C
:1001C00012E0937A9B0706D0D26A44781388FF34F2
:1001D00001342343138004221143017004E00A48D0
:1001E0000849BD3004F0A9FE684600780028E0D038
:1001F0006846F4F758FE36E701207047CC1A002015
:10020000B4000020ACFB00001503000040420F00CA
:1002100070B504780D460646230004F07FFF0B1CE2
:10022000181C1C1C1C07181C1C181C000021052075
:1002300001F038FDB068007805280CD0FA4800229B
:10024000008811468300052001F087FC03E00021AF
:10025000052001F027FD002D0ED000202870294632
:100260003046FFF702FFF1482978005D884201D14E
:10027000032070BD022070BD00213046FFF7F5FE5F
:10028000002070BD30B5E8494B68497A0A01114633
:100290000C315C5C032C0CD0044600252034257105
:1002A00025725C5CA500AA18641C5C54985003205D
:1002B00030BD062030BDF0B50446264620360D463A
:1002C0003279012008218FB0002A0CD0012A21D0D8
:1002D000022A2BD0032A04D12A78052A01D12970B9
:1002E00000200FB0F0BD01203071606800280AD0F6
:1002F000A069017061684160216981606169C160C4
:10030000FFF7C0FFEDE7072028702069686060698B
:10031000A86009E029780729E3D10220307105207F
:100320002870C248203868600320DAE72978052958
:10033000D7D1A08910280AD9103880B2A081A1682D
:100340001023091803A86A6800F054FE2DE0102855
:1003500004D0C1B20BAA1020A76809E010232269BB
:10036000A16817E0491EC9B2401EC0B27B5C13549D
:100370000029F7D100280AD0401EC0B280211154B4
:10038000002102E0401EC0B211540028FAD1626977
:1003900010230BA907A800F02DFE102307A903A81E
:1003A0006A6800F027FE032030716068019003A89E
:1003B000029005206946087029466846FFF728FF25
:1003C0008FE7F0B5044626460D46203631790120E8
:1003D0008DB000290BD0012938D0022905D1297808
:1003E000052902D10920287000200DB0F0BD217D23
:1003F0006846CA07D20F02738807C10F68460174A6
:10040000012203A905A800F0EDFD04A9012205AF12
:10041000481D00F0E7FD0722B81CE16800F0E2FD8E
:1004200007A807220130216900F0DCFD6068019017
:1004300009A80290102305AAA16800F0DBFD0120A5
:100440003071052168460170294621E02978052987
:10045000CBD1062203A8E16900F0C4FD04A806225E
:100460000230A16900F0BEFD042106A800F0B2FD33
:100470006068019007A80290102303AA696800F041
:10048000B9FD02203071052069460870294668468A
:10049000FFF7BEFEA9E7F0B5074685B00D46002080
:1004A000694608703E4662482036327981791338B1
:1004B00001240078130004F031FE180DFEFDFCFB52
:1004C000FAF9F8F7F6F5F4F3F2F1F0EFEEEDECEB04
:1004D000EAE9E8E7B968039100291BD001226946DF
:1004E0000A7003220A710A224A7139690291397924
:1004F00000297DD0039A1278002A7AD00C2A78D26B
:10050000130004F00BFE0BEF09EF354D8498B0F1AA
:10051000EDECEF000020C8E30021062001F0C2FB53
:100520003879072866D1424C133C2078022802D043
:1005300000287FD101E00020207003980079C11FBE
:100540000A2901D30A2598E1607039480722C01FA3
:10055000039900F047FD01203071207002206946A8
:1005600008703348801F01903869401C029037E2C0
:1005700011293DD12E4C133C0228DAD160686178F4
:10058000007A884201D9062577E10399264810228E
:10059000491C303800F026FD03202070022045E180
:1005A0001129E6D1224C133C0428C2D10520207029
:1005B00003991D481022491C203800F013FD062025
:1005C0003071786903210170626851684160164991
:1005D0002039816021460C31C160C91D0161017D56
:1005E000537A49084900DB07DB0F1943017502E024
:1005F00070E354E384E1D3688361FD231940537AA7
:100600009B07DB0F5B0019430175116976E1022935
:10061000AFD1002867D0052069460871039840785B
:1006200048713869029051E3201B00209C51010061
:10063000DB00002082E011299BD1F74C06287DD1F8
:10064000A0680399806B1022491C00F0CBFC0621A6
:100650006846017038690290002168460171FFF711
:10066000D7FD072057E00B299BD1EB4C07287ED103
:10067000A0680399006B0222491C00F0B3FCA0683B
:100680000822406B039917E00EE116E3FDE2DDE27C
:10069000C7E2BCE29EE267E248E241E21FE2F5E126
:1006A000DFE1C8E1BEE1B1E1A5E16AE147E128E1AE
:1006B000DAE0BEE0AFE075E0C91C00F093FC062173
:1006C0006846017038690290002168460171FFF7A1
:1006D0009FFD204613304179490849003EE041E042
:1006E0001BE001E05CE0EFE2112991D1CA4C08283F
:1006F0003DD1A0680399C06B1022491C00F072FC28
:10070000062168460170386902900021684601712F
:10071000FFF77EFD09202070C9E208298CD1BE496F
:10072000092824D1039842788868016C0A700399DB
:10073000406C0622891C00F055FC00E017E0062101
:100740006846017038690290002168460171FFF720
:100750005FFDB14813304179FD221FE041715EE237
:100760003071F2E11129C0D1AB490A2801D0082526
:1007700083E088680399806C1022491C00F032FCE9
:1007800006216846017038690290002168460171AF
:10079000FFF73EFDA04813304179FB221140DDE711
:1007A00007256AE0297802297ED19B490128FBD1DF
:1007B0006A684A6015780846002D5CD106216A46B1
:1007C00011703969029107211171029902240C708C
:1007D000CA785207520FCA704B795B075B0F4B7197
:1007E0008B795B075B0F8B71D20701D18A714A71DC
:1007F00005460A794078824200D26A70864807220C
:10080000133000F0EFFB00202C7030710146684679
:10081000FFF7FEFC4BE229780429C5D103286FD1EC
:1008200008227E48696800F0DDFB03203071042057
:10083000F2E129780429B7D1774F0328B4D177485A
:1008400008220830696800F0CDFB04203071786818
:100850004168002906D003212970002129714068D0
:10086000A86072E10320D7E1287803289CD1287979
:1008700000281AD00546002D16D0062168460170C2
:1008800038690290022168460171029805210170C1
:10089000457000216846FFF7BBFC012168460170E6
:1008A00004210171457115E293E15B49A86849682B
:1008B0000028486001D15A484860052030717869A5
:1008C000032202704A684260544A8260524A0C32E3
:1008D000C260D21D0261027D4B7A5208DB075200D2
:1008E000DB0F1A430275CB688361FD231A404B7AF4
:1008F0009B07DB0F5B001A4302750969C16130E198
:100900000DE12978092988D14349032885D104209C
:100910000870062069460870386902901120087135
:10092000029803210170401C1022696800F05AFBF4
:1009300000216846FFF76CFC00203071B7E1297890
:10094000092993D1052891D134496A6820391020AA
:10095000401EC0B20B5C145CA34203D000200425EF
:1009600030718AE70028F3D10720307178690421BB
:1009700001702949496849684160284981601039F6
:10098000EEE028780A28BED106206946087038694A
:10099000029011200871029804210170401C10225D
:1009A0001E4900F01FFB00216846FFF731FC1A4882
:1009B000102140786A68091AC9B2101800F00AFBC1
:1009C0006868019014481330C178C9070BD0817949
:1009D000002902D14079002805D0082030711BE1A0
:1009E00029466846EFE007206946087000216846FE
:1009F000FFF70EFC5FE128780E2884D1064869686D
:100A000081608969407808700920A9E6C80701D08B
:100A10000A20FFE00F20A3E6C8000020101B0020E2
:100A20007C51010028780F2879D1A868386128798D
:100A300038730B20FAE628780428F5D1FC4C696855
:100A4000A0680822006A00F0CDFA0C2030717869A5
:100A50000722B9690270A268D3684360126A826093
:100A60007EE028780D28DFD1F14C6968A068022368
:100A70000269C06900F0BEFA0D2030717869062164
:100A80000170A1688A684260096966E028780C28CC
:100A9000CAD1E74C6968A0686278406A00F0A2FA9F
:100AA0006078A2681021091A526AC9B2101800F0C1
:100AB00091FA062168460170386902901122684651
:100AC0000271029810220170A168401C496A00F06E
:100AD00089FA00216846FFF79BFB0E206EE028781C
:100AE0000F2876D1062168460170386902900B21E3
:100AF00068460171029C0720CD4D2070A868022233
:100B0000C169601C00F06EFAA8680822016AE01C46
:100B100000F068FA00216846FFF77AFB7AE7C8E040
:100B2000880701D5102075E0132019E628780F28D2
:100B30004FD1A86838612879387311203071BC48CA
:100B4000816848690078002801D00324CAE07869E8
:100B500006220270C9684160B6498160B549091D25
:100B6000C160FFF78FFB30E0B148806841690978C8
:100B700000290CD129780C292BD1AD4C6968806AE9
:100B8000102200F02FFAA16801204969087006219F
:100B90006846017038690290112168460171029817
:100BA00008210170A249401C89681022896A00F05E
:100BB00019FA00216846FFF72BFB1220307109213A
:100BC000684601702946FFF723FB044601287DD0C3
:100BD00088E06FE028780F286CD1062069460870FD
:100BE0003869029008200871029809210170904923
:100BF00089680A78D207D20F427049680622801CA1
:100C000000F0F0F900216846FFF702FB8CE7480787
:100C100005D514203071092069460870E0E61620D9
:100C20009EE528780F2851D1A86838612879387353
:100C3000152030717869062101707D4989688A68BC
:100C40004260096981607B49891D89E728780C2801
:100C500045D1774C6968A0681022C06A00F0C2F9DB
:100C600006206946087038690290112008710298C0
:100C70000A210170A168401CC96A102200F0B2F973
:100C800000216846FFF7C4FAC9E769481330407984
:100C9000002810D0C10703D065480621017006E086
:100CA000800701D5082000E00A206149087000246F
:100CB00018E00BE013E0172052E55D49002805D04D
:100CC0000020307108700A20694608706846007874
:100CD000002804D000216846FFF79AFA00245448FF
:100CE00000210170204605B0F0BD10B5524BFF2425
:100CF0005C72586019721A80002204E0491EC9B261
:100D00000B010C33C2540029F8D110BDF0B54A4E86
:100D10000546717A01208DB0FF2971D00127727AC2
:100D2000736811015C180C31595C8900091F645803
:100D30006A7021780B0004F0F1F90B960709272C53
:100D400059888D4A4F5492002F707CE02146203103
:100D50000A9109790120002902D0012967D10EE00A
:100D60006068019005A802900D21C01C00F032F9C6
:100D7000032205A8A16800F035F90A984EE0297809
:100D8000052974D106215DE029462046FFF719FBAD
:100D900069E021462031069109790120002902D01D
:100DA000012964D10EE06068019007A80290082232
:100DB000E16800F017F9082209A8A16800F012F90B
:100DC00006982BE02978052951D10A213AE02946D5
:100DD000204600F01AF946E029462046FFF76BFA54
:100DE00041E029462046FFF756FB3CE021462031F2
:100DF000059109790120002903D0012937D11DE08F
:100E000056E06068019007A802900822A16800F0EF
:100E1000E9F8082109A800F0DDF80598694607718E
:100E20000520087029466846FFF7F2F91BE00BE041
:100E3000C800002074510100201B002029780529DA
:100E400015D10B212970002011E02946204600F021
:100E500023F908E02946204600F04EF903E0294630
:100E60002046FFF7C9F9002801D001280CD12562DE
:100E7000717A736809010C315A5C521E1206120E07
:100E80005A5401D003204AE70328FCD0737A7268D1
:100E900019011D010D312C46515C7172FF270D3473
:100EA00017550C35545D002C02D0FF2903D1737205
:100EB0000DB0F0BD21460C010D34145DFF2CF9D1AD
:100EC00009010D315354F3E770B5AD4C0546607A16
:100ED000214603464A6811E0010108460C30105CC7
:100EE00008E0401EC0B286008E199659AE4201D16C
:100EF000042070BD0028F4D10D31505CFF28EBD1E7
:100F00009F480021007A01E0491CC9B2884204D9F7
:100F10000E010C36965D002EF6D1884201D80520D0
:100F200070BD08010D30135461722846FFF7AAF90D
:100F3000032806D0617A626809010D31515C617243
:100F400070BD28462830FFF7E1FE70BD10B504786B
:100F50000123012C14D10C78022C11D30B23137014
:100F600083785B075B0F537002220A708088002829
:100F700005D0830000221146062000F0EEFD00237C
:100F8000184610BD0EB50022012105280AD00628FA
:100F900007D1684601700221017142710021FFF7FB
:100FA00064F80EBD68460170F6E710B58EB00C46C9
:100FB00006216A461170019072480290001D03904C
:100FC0006846FFF781FF102220460B9900F00AF8CF
:100FD0000EB010BD002202E0491EC9B242540029E1
:100FE000FAD1704703E0521ED2B28B5C8354002AC0
:100FF000F9D1704730B505E05B1EDBB2CC5CD55C47
:101000006C40C454002BF7D130BD3EB504462030AF
:101010000D4602790121002A02D0012A3AD10FE0BF
:101020006168019157490831029101210171052040
:101030006946087029466846FFF7EAF8014629E044
:101040002878052826D169681022A06800F087F862
:101050006868C07B000606D54A4AA068102318328B
:101060000146FFF7C7FF1022A168E06800F077F89B
:10107000A068C07B000606D5424AE06810231832FB
:101080000146FFF7B7FF07202870A0686860E06896
:101090000021A86008463EBDF0B5044626460F462E
:1010A00020363179012089B0002909D0012905D1E4
:1010B0003978052902D10C203870002009B0F0BD24
:1010C000606803AD01900295022203A8A168FFF7B2
:1010D00089FF0222A81CE168FFF784FF0C21281D6C
:1010E000FFF778FF01203071052069460870394606
:1010F0006846FFF78DF8E1E710B5034620331C7909
:101100000122002C04D0012C10D0022C25D11EE08D
:1011100001211971C16806220A70406848601948A7
:10112000801C8860801CC86008460CE00C780C2C81
:1011300013D102221A71C2680523137049685160E5
:10114000806890601046FFF79DF8024605E0087839
:101150000B2802D10D2008700022104610BD10B5DA
:10116000002409E00B78521E5B0023430370401CEF
:101170000B78491CD2B2DC09002AF3D110BD000063
:10118000201B00207451010070B50D46040012D0E0
:10119000002D10D02101284603F090FD1022544963
:1011A000284603F02EFD5248012108380180448072
:1011B0004560002070BD012070BD70B54C4E00240C
:1011C0000546083E11E0716820014018817BAA7B2A
:1011D000914209D1C17BEA7B914205D10C2229467B
:1011E00003F0E2FC002806D0641C30888442EADB6D
:1011F0000020C04370BD204670BD70B50D4606008E
:101200000AD0002D08D03A4C083C20886188401C48
:10121000884203D9042070BD102070BD3046FFF70E
:10122000CCFF002801DB401C0AE020886168000137
:1012300040181022314603F0E4FC2088401C208036
:101240002870002070BD70B514460D001FD0002C12
:101250001DD00021A170022802D0102817D108E06B
:10126000687829780002084311D00121A17010800C
:101270000BE02846FFF7A1FF002808DB401CA07008
:10128000687B297B000208432080002070BD01207C
:1012900070BD70B5054614460E000AD000203070AF
:1012A000A878012807D004D9114908390A88904242
:1012B0000BD9012070BD002C04D02878207028881C
:1012C000000A50700220087010E0002C0CD0496811
:1012D0000001411810391022204603F092FC2878B2
:1012E00020732888000A607310203070002070BDC1
:1012F000EC000020734909680160002070477149C3
:1013000008600020704701216F4A704B002803D00D
:10131000012805D06E48704791630020187001E0E5
:10132000D1631970002070476A490120086068483D
:10133000801C70470422684B6649002805D05A601B
:10134000086901221043086108E00869400840006C
:1013500008619A605C490020C031886000207047B5
:101360005C490622002808D0012809D002280DD0A7
:1013700003280FD05648401C70470869904302E08C
:1013800008699043801C08610020704708699043F9
:10139000001DF8E708691043F5E74E494A6A024321
:1013A0004A62002070474B494A6A82434A620020E1
:1013B00070474849496A0160002070474549CA6939
:1013C0000243CA61002070474249CA698243CA6128
:1013D000002070473F49C96901600020704730B55F
:1013E0000546002072B601463A4A384C4032002D7C
:1013F00011D00123012D0CD0022D02D0072062B69E
:1014000030BDA3706478002C01D09363F7E791633B
:10141000F5E7A170F9E7A170F9E72F49042088608A
:1014200029490020C03188602849012008702B49D3
:101430000A688023120A12021A430A6028490860C7
:10144000704722480078704770B5EFF31080C507E9
:10145000ED0F72B61D4C6078401C0006000E6070E7
:1014600003D120A1CC2003F068FD6078012806D1CB
:10147000A078002803D01749012040318863002D4F
:1014800000D162B670BD70B5EFF31080C507ED0FE7
:1014900072B60E4C6078002803D112A1DC2003F054
:1014A0004CFD6078401E0006000E607006D1A078EA
:1014B000002803D00749002040318863002D00D167
:1014C00062B670BD0004004040000040FC000020F7
:1014D00004200000000500400003004000E400E09C
:1014E00000E100E07372635C736F635F706F776538
:1014F000722E63008107C90E002808DA0007000F6A
:1015000008388008B94A80008018C06904E0800863
:10151000B74A800080180068C8400006800F7047F6
:10152000B44948788978884201D3401A02E02122E0
:10153000511A0818C0B27047AE49233148788978EB
:10154000884201D3401A02E02122511A0818C0B281
:101550007047A849463148788978884201D3401AB3
:1015600002E02122511A0818C0B27047A04810B5F5
:101570000C300168FF22120291430122D203114371
:1015800001609C49002023314870887023394870DD
:101590008870463148708870974802F0FFFA964884
:1015A000401C02F0FBFAF2F7C7F900F015F910BD84
:1015B00020207047B4E770B50C4605460026FFF7BB
:1015C000AFFF8C49A04214D30A46203A002320469C
:1015D000641EE4B200280BD08878105C28708878EC
:1015E0006D1C401CC0B288702128F0D18B70EEE7D2
:1015F000012600F0F1F8304670BD202070479BE7CF
:1016000070B50C4605460026FFF796FF7949233151
:10161000A04214D30A46203A00232046641EE4B2B6
:1016200000280BD08878105C287088786D1C401CCE
:10163000C0B288702128F0D18B70EEE7012600F04F
:10164000CBF8304670BD202101700020704710B5E6
:101650000446FFF77EFF2070002010BD70B50C46D9
:101660000546FFF776FF63494631A04215D30A4687
:10167000203A00232046641EE4B200280BD088786C
:10168000105C287088786D1C401CC0B288702128BE
:10169000F0D18B70EEE7002400E0584C00F09CF88D
:1016A000204670BD70B50C460546212904D9FF209F
:1016B00053A1473003F041FC4C484068103840B219
:1016C000FFF718FFC6B20D20FFF714FFC0B2864225
:1016D00007D2FF204AA14D3003F02FFC01E0F2F7C2
:1016E0006BF921462846FFF766FF0028F7D070BD4A
:1016F000F8B5404E07462336B1787078212200F0C5
:1017000060F8354623353B4C00280ED0A178607830
:10171000212200F056F8002814D0A97868782122F8
:1017200000F04FF800281AD025E032497078C91C23
:101730000F547078401CC0B2707021281BD100205B
:10174000707018E02B49607820390F546078401C85
:10175000C0B2607021280ED1002060700BE02549D6
:10176000687826310F546878401CC0B26870212810
:1017700001D100206870B1787078212200F021F842
:1017800000281DD0A1786078212200F01AF80028E6
:1017900016D0A9786878212200F013F800280FD01D
:1017A000F2F7ECF8144802F001FA012149038842EB
:1017B00003D013A1C12003F0C0FB0F4802F00EFAC2
:1017C000F8BD401C884205D0904201D1002901D0CB
:1017D000002070470120704710B5074802F0E6F975
:1017E000002801D1F2F7B9F810BD000000ED00E0CB
:1017F00000E400E04C1B0020FF0000200720000058
:101800007372635C736F635F72616E642E6300005A
:1018100010B5284802F0C2F9002803D026A11D20E7
:1018200003F08BFB2348401C02F0B8F9002803D0DA
:1018300021A1212003F081FB10BDF1B5224D6F687D
:1018400001261C4802F0B2F91A4C002803D10026E8
:10185000601C02F0C3F91D4A1D490120506000BF01
:1018600000BF00BF00BF00BF00230B604B60009BA8
:101870006B60106000BF00BF00BF00BF00BF086802
:10188000002802D148680028F9D048680028E4D12F
:10189000002E04D06F60601C02F088F907E0601C25
:1018A00002F084F90028D3D1024802F097F9002011
:1018B000F8BDC2E7010100207372635C736F635F60
:1018C0006563622E6300000000E5004000E0004018
:1018D00000E1004030B5EFF31081CC07E40F72B6A1
:1018E0001D4A116910230D461D431561002C00D1BE
:1018F00062B61A4DC406E40E0120A0402C680442D2
:101900000DD0C8060AD4EFF31080C007C00F72B61E
:10191000116999431161002800D162B630BD20BF22
:1019200040BF20BFEAE70E4908784A78401CC0B2A1
:10193000904200D008707047084A094820BF40BF55
:1019400020BF4178037843701368002B02D10378DD
:101950008B42F3D00020704700ED00E000E200E091
:1019600003010020FEB5F64C07466068FF213E01EA
:1019700081552178FF2913D0090108314158324699
:10198000491E083209020192090A805800F0CEF976
:10199000002802D02478254615E061682078885513
:1019A0002770FEBDE6484268019811582801009052
:1019B0000830105800F0BAF9002806D1E0482C464B
:1019C000416800980D5CFF2DECD1DD482101406895
:1019D00085554754FEBD70B5D94A04460020157A96
:1019E00053680AE00201561C9E5DA64203D10C32E8
:1019F0009A588A4204D0401CC0B28542F2D8FF20D7
:101A000070BDF8B5CE4F3E7801F01AFE0146FF2EAC
:101A100071D03401254678680835405900F086F9C0
:101A200002280CD97868405901F0FDFD01F008FE4C
:101A300001467868405900F079F902285BD8C0491E
:101A40004868025D0A70A11C425C002A0CD0521E3C
:101A5000425441590122D20589180902090A41510B
:101A60003046FFF77FFF30E0631CC25C0092221D0E
:101A700094468258002A10D001239B029A420FD923
:101A80009205920D43595703DB191B021B0A435160
:101A90006346C3589A1A920A09E0FF21C1540AE02A
:101AA000435952039A181202120A42510022425418
:101AB0003046FFF757FFA2480C344168C2680098CF
:101AC000095980001258009890479D4C2078FF28B3
:101AD00011D0000161680830085801F0A4FD01F040
:101AE000AFFD01462078626800010830105800F010
:101AF0001DF9022886D3F8BDF8B51C4615460E46DA
:101B00000746FF2B03D38FA1D42003F016FA8C488D
:101B1000FF21C760456004720674017000224270A4
:101B2000104604E00201521C401CA954C0B2A0425D
:101B3000F8D3F8BD70B5824C06466578207C8542A6
:101B400003D380A1E72003F0F8F9E068A90046502C
:101B50006078401C6070284670BDFFB581B01D469E
:101B6000FF2401F06DFD764F064679780198814299
:101B700003D874A1F52003F0E0F971480021037A3D
:101B8000406810E00A019446521C825CFF2A25D06E
:101B9000019FBA4205D162460C328758029A974299
:101BA0001ED0491CC9B28B42ECD8FF2C18D02101A1
:101BB0004A1C019B83540B460C33029AC250039B70
:101BC0005F4F0022012B0ED00B1DC25001239B0240
:101BD0009D4216D9AA05920D08D008E00C46E0E710
:101BE000FF2005B0F0BD0B1DC550EFE71A465303AB
:101BF0009B190E461B0208361B0AAA1A8351920A29
:101C000009E0002D00D101256B039B191D022D0A4F
:101C10000B460833C550891C42543D463E78204649
:101C2000FFF7A0FE2878B04214D0000169680830A0
:101C3000085801F0F8FC01F003FD29786A680901F1
:101C4000083152580146104600F070F8022801D2BF
:101C5000FFF7D7FE0198C4E770B50C46054601F0C2
:101C6000EFFC064621462846FFF7B5FEFF2817D0B1
:101C7000334D04012046696808300858314600F0A9
:101C800055F80121090340186968A41C095D400B3F
:101C9000002901D089020818002800D1012070BD58
:101CA000002070BDF3B581B00F460198FFF793FE99
:101CB000FF282AD0224E3578726829460C4604E067
:101CC000844205D025462301D45CFF2CF8D11CE0CA
:101CD000FF2C1AD0A5421CD10801105C3070FF28DF
:101CE00015D000010830105801F09DFC01F0A8FC4F
:101CF00001463078726800010830105800F016F87C
:101D0000022806D2FFF77DFE03E00020FEBD01F0B1
:101D100092FC39460198FFF79FFF22017168FF236B
:101D2000541C0B558A5C2B01CA54FEBD401A00029C
:101D30000121000AC905884200D90020704700002F
:101D4000981B00207372635C736F635F74696D65C9
:101D5000722E6300F0B500241C4A01211C4B0803BD
:101D6000546018601B4B1C601B4C20601B480469AE
:101D7000E443E406E6170469761C10252C4304614D
:101D8000174C6160174D296000E020BF1F68002FCD
:101D9000FBD0002E03D107691026B7430761906876
:101DA0008005906801D5104A10436960A160002148
:101DB00019600121084A09031160F0BD10B50446FD
:101DC000FFF7C8FF2060002010BD000000C50040E4
:101DD00080E100E000C1004080E200E000ED00E0B2
:101DE00000C3004000C0004000FCFFFF70B51F4969
:101DF0000A68002A17D000231D4601244A68521C95
:101E00004A60092A00D34D600E792246B2400E681E
:101E100016420AD072B60B6893430B6062B64968EB
:101E20000160002070BD052070BD5B1C092BE5D34F
:101E30000FA1362003F081F8F5E701201049800555
:101E400008607047EFF31081CA07D20F72B6012104
:101E500081400648036819430160002A00D162B638
:101E6000EBE7024800210160416070470801002053
:101E70007372635C736F635F6576742E630000003A
:101E800000E200E00120810708607047012081071F
:101E9000486070471048C068C00700D001207047F4
:101EA0000D488068C00700D0012070470A4840698B
:101EB000C00700D0012070470748C0697047064935
:101EC0008A69D20306D589698907890F814201D1C0
:101ED000012070470020704700040040F8B5FE4C18
:101EE000207BE17A88421AD00126FC4D0027E07A57
:101EF000215C14200A4642435019037C052B0FD065
:101F0000062B1BD0072B28D0437C012B33D0F4A108
:101F1000F64803F012F8207BE17A8842E7D1F8BD59
:101F20000674E07A0A2807D0E07A401CE072491C67
:101F3000C8B2AA5802210CE00020F7E70674E07A44
:101F40000A2808D0E07A401CE072491CC8B2AA589E
:101F500003219047DFE70020F6E70674E07A0A28BD
:101F600007D0E07A401CE072491CC8B2AA58082188
:101F7000EFE70020F7E74774E07A0A2807D0E07A15
:101F8000401CE072491CC8B2AA580721E1E70020B2
:101F9000F7E770B5D64D06206872D648002444771E
:101FA000047738300473C472D34801F0F7FDD34886
:101FB0000475EC72D249601E88606C71AC70EC7074
:101FC0002C716C70CF48022104704470CE480470AC
:101FD000047528300470491EFAD10120F1F76EFD16
:101FE0000020F1F76BFD0120A871F0F785FDC748CF
:101FF000F0F794FDC64C2070C648F0F78FFD607076
:10200000F1F700FD70BD10B5F1F727FDC04C207849
:10201000F0F7A2FD6078F0F79FFDB54C207A00281C
:1020200005D0FFF730FAF0F726FE0020207210BD31
:1020300070B5AF4CA079002804D0A9A1B64802F031
:102040007CFF70BDE07A002804D11320A4A14001D8
:1020500002F073FF0126A6710025E572607A042163
:10206000142250439D4A80180174A5488168491C78
:1020700004D0691E81600120F1F720FD0020F1F7F6
:102080001DFDF1F701FD01F023FEF1F706FEA34867
:10209000056005600120A249C0030860F0F78EFFCB
:1020A00098480078022804D0032804D1E07800285A
:1020B00001D0A67000E0A570F1F7DBFD70BD03460E
:1020C00086490520142242435218203A127F002AE2
:1020D00004D0401E0006000EF4D170471422424383
:1020E00051180A46403AD362012220390A777047D4
:1020F000012805D0032805D1002903D1002070470D
:102100000029FBD010B47A4C002363707D4A00286C
:1021100090700CD002280AD007291AD20B007B44F9
:102120001B79DB189F441505070D0F111300D370A1
:1021300003E01B2000E03A20D0700120607010BC4A
:1021400070475820F8E77720F6E79620F4E7B520A7
:10215000F2E710BC0020704710B56A484078F1F7EC
:10216000A3FD80B210BD411E1422504310B55B4A3E
:102170008418203C042902D8207F002803D158A1CC
:10218000684802F0DAFE207F012803D054A1664897
:1021900002F0D3FE0020207710BD70B5554C607F53
:1021A000217F884201D1012500E00025F1F715FDCE
:1021B000F1F77AFD617F227F914201D1012100E098
:1021C0000021A942EBD170BDF7B50646481E8446F2
:1021D0008EB0C0B2142204905043404A851828465D
:1021E0000595007C2D1D07282AD13B4C0027E07A5D
:1021F000227B824221D0235C049A934201D10127A1
:1022000001E0002F04D00A2811D0421CA25C225405
:102210000A280ED0401C227BC0B28242EBD1002F94
:102220000BD0207B002806D0207B401E04E000223B
:10223000ECE70020EFE70A202073059A01201074D4
:1022400060462B4C04280FD814204143234808181B
:102250002038007F002807D00598007C012807D08F
:102260001098807A012807D01DA1304802F065FE41
:102270001098807A012871D10598184B007C0228AB
:102280001AD0154C207B0A2874D0207BE17A401CA0
:10229000884204D1C92012A1800002F04EFE0599A7
:1022A00001204874217B04986054207B0A2865D063
:1022B000207B401C20731CE1607A049A0146904206
:1022C00006D0014614277843C018807C9042F8D18C
:1022D000627A824235D12BE0A41C0020B41C00207D
:1022E0007372635C72656D2E63000000D50500009B
:1022F000381D00206C1C0020441D00208C1C002078
:10230000181D002012010020C41C0020031A010027
:1023100010010020DD1E01007F02000000F50040DA
:1023200080E200E0CD020000CE02000017030000B2
:10233000617A14225143C918897C61720121A1720A
:1023400007E014224243D21814277943927CC9181B
:102350008A74142206215043C01881741098007AA0
:10236000062819D203007B441B79DB189F4408120E
:10237000100E0C0AE07A00288CD090E7002099E734
:1023800000210FE0B4210DE073210BE0322109E0C0
:102390000A2107E0062105E0FF20FE49E23002F0B5
:1023A000CCFD0021109802910068401A2860109915
:1023B000097A002912D00221401A0102090A296073
:1023C00010980268406810180002000A68601098AF
:1023D000807A0228109803D0007B74E00421EBE798
:1023E000007A002813D00222029810188446109810
:1023F0004268604608301718E748029A40789042D1
:1024000002D9E278002A04D03846083005E00422D8
:10241000EAE7029A801AC0190830627A062A1CD0AC
:10242000627A14235A43DD4BD2185268914214D079
:10243000DB4B0793617A14225143D84A89184A68C2
