:020000040001F9
:10F00000184E002015F201001DF201001FF2010050
:10F0100021F2010023F2010025F2010000000000AE
:10F0200000000000000000000000000027F20100C6
:10F0300029F20100000000002BF201002DF2010076
:10F040001DF501002FF201008DF801002FF20100E3
:10F050002FF201002FF2010019F301002FF201003D
:10F060002FF201002FF201002FF201002FF2010018
:10F070002FF201002FF201002FF201002FF2010008
:10F080002FF2010075F501002FF201002FF20100AF
:10F0900099F501002FF201009DF501002FF201000A
:10F0A0002FF201002FF201002FF201002FF20100D8
:10F0B0002FF201002FF2010000000000000000000C
:10F0C0002FF201002FF201002FF201002FF20100B8
:10F0D0002FF201002FF201002FF2010000000000CA
:10F0E0000000000000000000000000000000000020
:10F0F0000000000000000000000000000000000010
:10F1000000000000000000000000000000000000FF
:10F1100000000000000000000000000000000000EF
:10F1200000000000000000000000000000000000DF
:10F1300000000000000000000000000000000000CF
:10F1400000000000000000000000000000000000BF
:10F1500000000000000000000000000000000000AF
:10F16000000000000000000000000000000000009F
:10F17000000000000000000000000000000000008F
:10F18000000000000000000000000000000000007F
:10F19000000000000000000000000000000000006F
:10F1A000000000000000000000000000000000005F
:10F1B000000000000000000000000000000000004F
:10F1C000000000000000000000000000000000003F
:10F1D000000000000000000000000000000000002F
:10F1E000000000000000000000000000000000001F
:10F1F000000000000000000000000000000000000F
:10F20000DFF80CD000F04AF800480047C52902009A
:10F21000184E00200648804706480047FEE7FEE7F4
:10F22000FEE7FEE7FEE7FEE7FEE7FEE7FEE7FEE7B6
:10F23000C1F5010001F2010040EA01039B0703D080
:10F2400009E008C9121F08C0042AFAD203E011F825
:10F25000013B00F8013B521EF9D27047D2B201E0E7
:10F2600000F8012B491EFBD270470022F6E710B5CB
:10F2700013460A4604461946FFF7F0FF204610BD24
:10F2800030B504460020034600E05B1C934203D2E5
:10F29000E05CCD5C401BF8D030BD0000064C074D53
:10F2A00006E0E06840F0010394E807009847103456
:10F2B000AC42F6D3FFF7A8FFAC630200CC630200B8
:10F2C00070B58C1810F8015B15F0070301D110F828
:10F2D000013B2A1106D110F8012B03E010F8016B55
:10F2E00001F8016B5B1EF9D12B0705D40023521ED8
:10F2F0000DD401F8013BFAE710F8013BCB1A921C40
:10F3000003E013F8015B01F8015B521EF9D5A1423D
:10F31000D8D3002070BD00002DE9F04700268CB046
:10F32000DFF86091B0464FF48075012437460696A9
:10F33000284603F0E5FF38B1D9F80403204203D092
:10F34000284603F0D3FF26432D1D64007F1CADB279
:10F35000082FEDD34FF4BE74204603F0D1FF48B11F
:10F36000204603F0C3FF46F0004606AA0121002014
:10F3700003F0A8FF444D16F0FF0F15D0012700241D
:10F3800037420DD009EB8401D1F81005D1F81015E2
:10F39000C0F3042055F82420C1F3014102B1904785
:10F3A0007F00641C082CEBD3002E67DA4FF0FF308F
:10F3B000CDE9088000263446281910F8507F90F9CE
:10F3C000000027F0C008401C44D009A9404603F0C3
:10F3D0007BFC58B34FEA9719404601F087FC55F87B
:10F3E00020701FB1B9F1030F03D00FE0B9F1030F83
:10F3F00030D108A84FEAD80208F00703815C4FF02B
:10F40000010C0CFA03FC41EA0C0181544FF0A041BD
:10F4100001EB8800D0F8000706A9C0F3014A404676
:10F4200003F052FC18B1BAF1020F03D012E0BAF1A6
:10F43000030F0FD1B9F1030F08D1BAF1020F1BD09E
:10F440000221404603F021FF761CF6B217B149466F
:10F450004046B847641C042CAED3002E0ED06A463A
:10F460000121002003F02EFF06990098884205D064
:10F470000690089809909DE70321E2E70CB0BDE8EB
:10F48000F087000000600040EC2B002000F01F021D
:10F49000012191404009800000F1E020C0F8801275
:10F4A000704700F01F02012191404009800000F1E7
:10F4B000E020C0F88011704700F01F020121914048
:10F4C0004009800000F1E020C0F80011704700F012
:10F4D0001F02012191404009800000F1E020C0F8A6
:10F4E0000011704700F01F02012191404009800087
:10F4F00000F1E020C0F8001270474907090E00280B
:10F5000006DA00F00F0000F1E02080F8141D7047CB
:10F5100000F1E02080F80014704700002DE9F04170
:10F520004FF48077384603F0D7FB0124104EA5072F
:10F5300048B1384603F0D7FB0120C5F808037470C2
:10F54000002001F013FC4FF48277384603F0C4FB2F
:10F5500000280BD0384603F0C6FB0220C5F808038C
:10F56000B470BDE8F041012001F000BCBDE8F081BD
:10F57000D82B002007480021C0F84011C0F84411E2
:10F58000C0F84811C0F84C11C0F80011C0F80411BF
:10F5900006F0C4BA0010014006F038BA074810B5AA
:10F5A000406830B18047002807D0BDE8104000F027
:10F5B00041BBBDE8104002F0DDBE10BD4C22002072
:10F5C000F0B5A3480023021D01780125101D4FF05E
:10F5D000805406290BD11678360708D10678C6F371
:10F5E0000316032E06D0042E04D0052E02D00629C1
:10F5F00007D00EE0B4F82463964FC6F304263E60AD
:10F6000002E01678360704D10678C6F30316032EF7
:10F6100002D0062904D00FE0904F8F4E7E670EE097
:10F620001678360708D10678C6F30316032E06D0DF
:10F63000042E04D0052E02D0062907D00EE0D4F8FF
:10F640004462874FC6F342363E6002E016783607C2
:10F6500004D10678C6F30316032E02D0062906D07D
:10F6600011E0804E376827F0807737600EE016781B
:10F67000360708D10678C6F30316032E06D0042EEB
:10F6800004D0052E02D006290AD011E04FF08046A2
:10F69000C6F80C31C6F81031714E361F336002E0E7
:10F6A0001678360704D10678C6F30316032E02D067
:10F6B000062905D00CE06A4F032664373E600AE055
:10F6C0001678360704D10678C6F30316032E02D047
:10F6D00006290DD014E0644F05263E60624E783650
:10F6E0003560614E083633603F263F1D3E6002E0C4
:10F6F0001678360704D10678C6F30316052E02D015
:10F70000062957D068E059490968594A1160574994
:10F71000091D0968121D1160544908310968121D3C
:10F72000116052490C310968121D11604F491031A6
:10F730000968121D11604D4914310968121D1160CC
:10F740004A49183109684A4A2032116047491C3138
:10F750000968121D1160454920310968121D1160A8
:10F76000424924310968121D116040492831096855
:10F77000121D11603D492C310968121D11603B4971
:10F78000303109683A4A40321160384934310968E9
:10F79000121D1160354938310968121D1160334955
:10F7A0003C310968121D1160304940310968121D51
:10F7B000116002E0117809070ED10078C0F3031040
:10F7C000032803D0042801D0052805D1D4F8580215
:10F7D000284900F04F00086022487438016841F45D
:10F7E00070010160BFF34F8FBFF36F8F4FF0102197
:10F7F000D1F80002002803DBD1F80402002822DA45
:10F800001D4A15601D480468002CFCD01524C1F861
:10F8100000420568002DFCD0C1F8044201680029AF
:10F82000FCD0136001680029FCD0BFF34F8F0D4856
:10F83000F0380168124A01F4E06111430160BFF33E
:10F840004F8F00BFFDE710490E480860F0BD000073
:10F85000E00F00F0403501400DF0ADBA00C00740A8
:10F860003C050040FCED00E0105600400404001090
:10F8700020C50040E40E004004E5014000E40140E2
:10F880000400FA050090D003602200200448017FA4
:10F8900004480029024901D006F02FBA06F09EB9AB
:10F8A000442C00200020004002E008C8121F08C1BC
:10F8B000002AFAD170477047002001E001C1121FF1
:10F8C000002AFBD1704700000121202803DA814083
:10F8D0000548014003E0402802DA2038814009B1A0
:10F8E0000120704700207047FC06FFBC10B560B1D6
:10F8F00059B102780B785208B2EB530F05D10622AA
:10F90000401C491CFFF7BCFC08B1002010BD0120C1
:10F9100010BD2DE9FC47002517880646158090F894
:10F920002D001446894630B13A462146484600F03B
:10F93000F5FD050009D1B0784FF00C0A18B3208806
:10F94000C846001DB84202D95046BDE8FC8768464B
:10F9500079DF0028F9D12088032108F800102088D9
:10F960001921401C80B2208008F800102088401C1B
:10F9700080B2208000EB0801BDF8000006F035FAE7
:10F98000218808442080F0780222C8B1218896F9A5
:10F99000033001F1030C4846BC45D5D842542188B8
:10F9A0004FF0010C491C89B2218000F801C0218868
:10F9B000491C89B2218009F801302088401C208030
:10F9C0007068B8B1218890F9003001F1030C484605
:10F9D000BC45B9D8425421880A22491C89B22180E9
:10F9E00042542188491C89B2218009F801302088BD
:10F9F000401C2080308950B1CDE900474B4606229B
:10FA0000022106F1080006F049FA05009DD1308A6E
:10FA100050B1CDE900474B460722032106F1100003
:10FA200006F03CFA050090D1308B50B1CDE900478B
:10FA30004B461522142106F1180006F02FFA050096
:10FA400083D1306A30B13B462246494601F0F8F98D
:10FA50000500DBD1706A30B13B462246494603F0CF
:10FA60006FF80500D2D196F82C0038B13B462246FB
:10FA70004946304605F078FC0500C7D1307838B1EA
:10FA80003B4622464946304603F08CF80500BDD17E
:10FA900028465AE7134A0021535C0BB1012203E0C8
:10FAA000491C0629F8D300220F49012806D0022854
:10FAB00009D003280CD0042812D10DE0487810B1E9
:10FAC0000AB101207047887810B10AB1022070474E
:10FAD000C87808B103207047087908B1042070473E
:10FAE0000020704769210020D023002010B501229A
:10FAF0000221002000F088FF08B1072810D107225A
:10FB00000221012000F080FF08B1072808D1002160
:10FB10000A22084600F078FF08B1072800D100202B
:10FB200010BD70B58CB015460E4600236C46C3F16F
:10FB30000F01415CE1545B1C102BF8D30D2104F143
:10FB40001000FFF792FB0020C0F10F02315C22444D
:10FB5000401C11740328F7D3684643DF0020C0F12E
:10FB60000F01214491F820102954401C0328F6D39A
:10FB70000CB070BD022000F009BE000070B500247A
:10FB8000064D06E06868012110F8340003F058FAC9
:10FB9000641C28788442F5D3002070BDEC2100203D
:10FBA000F8B515460C460646052A01D20720F8BDD1
:10FBB00003F02CFB18B903F0FBFA0028F7D1104929
:10FBC00000204E600C70C1E902500E4D08610DE03E
:10FBD00006EBC4006968009181788DF80110007807
:10FBE000094A694603F07EFA0028E0D1641EE4B2B7
:10FBF000EED2BDE8F840054A0021024800F046B8C0
:10FC0000EC21002090630200711D0200151002001B
:10FC1000BFF34F8F05480168054A01F4E0611143C5
:10FC20000160BFF34F8F00BFFDE700000CED00E067
:10FC30000400FA050EB500210091CDE901106A46D5
:10FC400044F20100FFF7E4FF0EBD000010B50E4CBA
:10FC500003E0401C00E000202070207861788142A1
:10FC600010D022786188E068A36802FB010003EBF2
:10FC7000C20153F83220898890472078A1888842B1
:10FC8000E9DAE6E710BD000000220020074B5B68C0
:10FC900023B12AB120B10068037C1BB10820704752
:10FCA00007207047417442610020704720220020E5
:10FCB0002DE9F047074698461446894690074FF0CD
:10FCC000000526D12CB305F061F8134E06F11000A3
:10FCD000C6F80C800570457080F80290446075602D
:10FCE000357075701420FFF7D1FB07211420FFF742
:10FCF00004FC1420FFF7E0FB0848076007211120EF
:10FD0000FFF7FBFB0548001F0068B0600020BDE85E
:10FD1000F0870720FBE700001022002008150140B3
:10FD20002DE9FC47DFF87890D9F8043073B368B355
:10FD3000052902D20720BDE8FC87436933B3437C21
:10FD4000012B25D0002704460025884616468DF84D
:10FD50000050684600F038F801A806F087F8C8B1EE
:10FD6000012101700F4944600968C0E90218C0E927
:10FD700004769DF8040089F801009DF8000000F069
:10FD800047F81420FFF7AEFB2846D4E70820D2E757
:10FD90000F46D8E704259DF8000000F039F8F3E796
:10FDA00020220020041501400649496839B130B1CC
:10FDB000416921B100210174022105F08BBE0820A8
:10FDC000704700002022002030B5EFF3108172B69A
:10FDD0000D4A9468012324B10370002900D162B652
:10FDE00030BD93604FF0E023D3F88051074C25409D
:10FDF0001560C3F88041D3F8844154605A17C3F8A2
:10FE0000842100220270E8E7842C0020FC06FFBC5D
:10FE10000B498A68002A11D000280FD1EFF3108017
:10FE200072B60B684FF0E022C2F800314B68C2F89E
:10FE3000043100228A60002800D162B670470000B9
:10FE4000842C00202DE9F043044687B0008800F0A0
:10FE500001FB8146208802F0FFF9214F8046667A37
:10FE6000208800223978A56800F042FBB9F1000F24
:10FE700033D06079400711D50721404603F072FE68
:10FE8000A0B108218DF80C1021880590ADF80E1056
:10FE9000ADF8108003A801F0BBF907E02088B9781D
:10FEA00000F012FB10B1404602F0C2F903208DF8B9
:10FEB00000002088ADF802006079C0F380008DF862
:10FEC0000400A079C0F380008DF805008DF806507D
:10FED0008DF80760684601F09BF907B0BDE8F08334
:10FEE000C8210020F0B50C4693B01F210726ADF8BD
:10FEF0000010ADF80410002750B1C17849070DD5A6
:10FF00006A4602A9FFF705FD002808D102AD02E00C
:10FF10000025ADF800706CB1E07810B1304613B038
:10FF2000F0BD01AA0AA92046FFF7F3FC0028F6D18C
:10FF30000AAA02E00022ADF80470BDF80400C3B2C2
:10FF4000BDF80000C1B2284672DFE8E72DE9F047AE
:10FF50001F46DDF8208013468946040042D0EBB3EB
:10FF6000404D012000262870EE70202219463E48A0
:10FF7000FFF762F9C5E904784FF6FF702881AE619A
:10FF80003948AE83AE773C212030FFF76EF9364812
:10FF9000217820300170A1788170E178C17061789A
:10FFA00041703149D4E90423C1E90C23D4E9022387
:10FFB000C1E90A23D4E90623C1E90E23616AE1B14C
:10FFC00000F13C0100F1480241628A60636A1B88CB
:10FFD0000B80616A436A8988998000E002E0002111
:10FFE000436A07E00E20BDE8F087656AAD686D5C86
:10FFF0005554491C9D888D42F7D8A16AD9B11A4A37
:020000040002F8
:100000009432A2F10C018A608162A36A9B888B8082
:10001000A16A836A098819800021836A04E0A56ABD
:10002000AD686D5C5554491C9D888D42F7D894F895
:100030002C1080F82C10216A49B10A490A3101625A
:10004000226A52884A80216A026A0988118061689E
:1000500001B141604946BDE8F04703482030FFF751
:1000600041BF000050210020D023002010B501889E
:10007000144C102918D011291CD01B2919D1007A31
:10008000002816D1E0780521401CB0FBF1F201FBFD
:10009000120000BF00F050F800280AD06169002962
:1000A00007D0BDE810400847C17B012901D18088F5
:1000B000208110BD00216171808821898842F8D19A
:1000C0000120E7E75021002010B5022801D00328C5
:1000D00010D1094C607800280CD000206070E078C6
:1000E00000F02AF8002805D06169002902D0BDE897
:1000F0001040084710BD00005021002010B574DFEB
:100100000B4C01200B4960710020E0710620C87083
:1001100000210848FFF7E6FE002807D1E07800F04C
:100120000BF810B1616901B18847002010BD0000D3
:1001300050210020F02300202DE9F0413D4C804665
:1001400086B0207848B184F8038004A801F056FBFB
:100150000498012628B1667067E0082006B0BDE863
:10016000F0810025A561344FA583A577787810B17B
:10017000E078012806D0B87858B1E078012801D09D
:10018000022806D1216919B126710820884700E0AC
:1001900025714046FFF77EFCE070216939B10328E4
:1001A00001D0042803D1387808B1607990B1A571E5
:1001B00000950295019503958DF800508DF8085033
:1001C0001C48E1781830052925D2DFE801F0300815
:1001D000111D2100E571A67107208847E8E7A67088
:1001E00001908DF80060ADF80C50ADF80A5014E0A5
:1001F0000221A17001908DF80060B889ADF80C0063
:100200003889ADF80A0008E0684605F0F1F802E028
:10021000684605F011F9E07818B1684673DF0028E8
:100220009CD1216909B1A0788847002096E7A57084
:10023000F7E7000050210020D023002070B50546CC
:1002400001461C220F48FEF7F7FF0F4C00262670D0
:10025000286830B1016861604068A060201D7ADFC5
:1002600002E00948001D7BDF00280AD14FF6FF702D
:1002700060806670BDE87040044A00210448FFF7C2
:1002800005BD70BDA424002070210020F55D020092
:10029000E862020070B51E4C068800231B49E28903
:1002A000102E15D01B4D112E1CD0122E29D0502EE1
:1002B00017D130F8061F914213D14189022910D17C
:1002C0000C3000F013FA88B1BDE8704000F0FEBDBC
:1002D00084884C800469CC60406908614B70002AB6
:1002E000F2D070BD4FF6FF7048804B702868FFF762
:1002F0005BFD0028F5D0A1690029F2D0BDE870406F
:1003000008478268CA60C0680861DDE77021002084
:10031000A4240020E862020002490A7D091D04F0BD
:100320006BBE0000C024002002460248C17D001DB3
:1003300004F04FBEC024002002460248017E001D8A
:1003400004F047BEC02400202DE9F047044603888E
:100350003F4801228CB000F1150A102B09D0112B57
:1003600055D01A2B71D1217AB2EB111F54D201232F
:1003700053E0027D417D05468A43011D06A804F035
:100380003BFE142206A901A8FEF756FFDFF8C09035
:100390000026374609F114090DF104080AE000BFF0
:1003A00008EB46001D2283884946281D009704F06B
:1003B000D5FD761C0198B042F2D8287DA688C043AE
:1003C000C0B204F0EDFDA0F57F41FF3917D005EB79
:1003D00040000123868032465146281D04F031FE3C
:1003E000012332464946281D04F02BFEE07B0228FB
:1003F0000BD000231649A2881631281D20E00CB02E
:100400000420BDE8F047FFF715BC0123F2E7002305
:10041000A2885146001D13E000230D490546A2881D
:100420001731001D04F00DFE207A0221B1EB101FE0
:1004300001D2012300E000230549A2881831281DBC
:100440000CB0BDE8F04704F0FCBD0CB0BDE8F0878F
:10045000C024002070B50A4E05460024317D2A468E
:10046000301D04F0B6FD40B1B17D2A46301D04F0C8
:10047000B0FD08B1022400E00124204670BD000058
:10048000C024002010B50024204605F0E3FC28B16C
:10049000641CE4B2182CF7D3182010BD03480122C5
:1004A000A240016811430160204610BDC024002015
:1004B00010B5044605F0CEFC002802D001482044C7
:1004C000407E10BDC024002070B505460C4608468D
:1004D00005F0C0FC002808D004482A460119001D78
:1004E000497EBDE8704004F074BD70BDC02400209A
:1004F00070B5064615460C46084605F0ABFC0028CC
:1005000009D005482B4601193246BDE87040001D50
:10051000193104F096BD70BDC02400207CB505469D
:1005200008880C460930904201D90C207CBD6846F1
:100530006DDF0028FAD121880820685420881B210B
:10054000401C80B2208029542088401C80B220802A
:100550002844DDF801100160BDF805108180208875
:10056000801D80B220809DF80010490800D0012134
:1005700029542088401C208000207CBD704700004A
:1005800030B51A4B0D4604000FCB85B08DE80F0037
:100590002AD04DB31648214604604FF6FF70A08064
:1005A0002868206100202075A073684663DF00285A
:1005B00018D120788DF812000120ADF81000A21C8F
:1005C00004A9A0DF00280DD12946204604F015FC1F
:1005D000002807D1012002F03DFC002802D102F0E2
:1005E0006BFC002005B030BD0E20FBE7EC62020082
:1005F0008421002038B5002824D0002922D00A8880
:10060000102A1DD0112A1ED0502A33D0512A19D1B8
:100610008A8883889A4215D111F8062F022A11D1AF
:100620004A88C3889A420DD10A7A042A0AD0062A37
:1006300008D0052A06D0BDE83840891C02F002BF68
:100640008988818038BD828889888A42FAD14FF6AC
:10065000FF718180007D0028F4D0BFF34F8F1348D5
:100660000168134A01F4E06111430160BFF34F8F49
:1006700000BFFDE7044631F8060F62899042E1D1E0
:1006800048890228DED101F10C0000F02FF8A07398
:100690002269002AD6D008B1012000E002208DF89E
:1006A000000069462046904738BD00000CED00E090
:1006B0000400FA0510B50446FFF746FE204603F095
:1006C00003FF2046FFF7E6FD204600F0E7F820464E
:1006D00002F04CFE2046FFF7C9FC2146BDE8104061
:1006E0000148FFF787BF00004C230020007800F08E
:1006F0000100704700B5164889B0002300680790D4
:100700005022144907A805F035F908B1FFF792FA0D
:100710006A460121002005F017F908B1FFF78AFAAF
:100720001720ADF81000684605F004F908B1FFF78E
:1007300081FA094805F0F4F808B1FFF77BFA074899
:1007400005F050F9002801D0FFF774FA09B000BD98
:10075000B0620200FC220020B5060200F959020036
:100760000149085C70470000B86202000649095C54
:100770004FF0A040D0F81005C84010F0010000D0A4
:10078000012080F001007047B862020007490B5C4D
:100790004FF0A041D1F804250120984020EA02033F
:1007A000C1F808351040C1F80C057047B46202006A
:1007B0000249085C012102F079BD0000B462020028
:1007C0000249085C002102F071BD0000B462020021
:1007D0000649095C4FF0A040D0F80405C84010F06D
:1007E000010000D0012080F001007047B4620200D7
:1007F0007CB50024084E25460122305D009500237B
:100800001146019502F00CFD641C042CF4D3BDE8E4
:100810007C4000F003B80000B462020010B5002470
:100820002046FFF7C5FF641C042CF9D310BD10B59A
:1008300000242046FFF7C4FF641C042CF9D310BD2C
:1008400010B50246064B4FF0FF3000215C5C94422D
:1008500001D1084610BD491C0429F7D310BD000082
:10086000B862020070B50C4E0C004FF0000530600D
:100870000BD0012000F0A4F808B1022004E0002011
:1008800000F09EF800B10B202070706810B9FFF7DF
:100890002DF90546284670BD4821002010B51A4C98
:1008A0000188606810290ED011292BD1401E60608C
:1008B00028D1FFF71BF9002824D02168002921D076
:1008C000BDE810400847D0B900210122084600F0D9
:1008D0009BF808B107280FD107220221012000F060
:1008E00093F808B1072807D104220221002000F064
:1008F0008BF820B1072802D0216801B188476068D1
:10090000401C606010BD00004821002010B5002090
:1009100000F0AEF908B1062806D1012000F0A8F9D0
:1009200008B1062800D1002010BD00002DE9F047D5
:100930000D468146FFF784FF0446042838D2DFF8CD
:1009400078801C481D4EA8F1100735B3012D0ED03C
:10095000022D2DD104EB440030444578002D27D0E2
:10096000F968002924D02846BDE8F047084704EB81
:100970004401755C0E44717859B179680E4A01EBF7
:10098000810149000E3A8068FFF7CAF908B987F873
:100990000290B17808F80410E0E78068FFF704FAE5
:1009A00004EB4401314418F804008D78A842D5D0F6
:1009B000BDE8F087BC62020044210020A42300208F
:1009C000FFF7D4BE01460F4810B50088042907D0B0
:1009D00007290ED00A2914D1BDE8104004F04EBDFD
:1009E000132176DF0BE000280BD0BDE81040FFF7A5
:1009F00021B9A0F57F41FF3903D1FFF77FFB08281C
:100A0000F1D110BD2821002070B50023042810D298
:100A10000D4D00EB4004012A02D101290CD0002227
:100A2000094E00EB4000304461B1012906D0022993
:100A300006D00723184670BD0E30C2B22A55F9E71A
:100A40004270F7E78270F5E7A4230020044A0146CC
:100A50000020127AD20702D0084600F04FB8704743
:100A6000342100202DE9F04106461F4800240F469E
:100A70004160C0E90262B0071FD50025012211467E
:100A80002846FFF7C1FF6D1C0446042D02D2002C3E
:100A9000F4D012E08CB97A0804211448FFF780F8EA
:100AA00004000AD1FFF76AF8040006D10F48104A83
:100AB0000021001FFFF7EAF80446F00701D0FFF716
:100AC00097FE74B909480B4A00210C38FFF7DEF88D
:100AD000040006D10548084A01210838FFF7D6F876
:100AE00004462046BDE8F08134210020C86202009F
:100AF000810C02002924020075FB01002DE9F0475A
:100B0000594C05460026607818B100206070FFF748
:100B100085FE0120554F4FF47A694FF4C87A4FF0A3
:100B20006408182D2CD2DFE805F0890C0C2C3A470C
:100B300051565A615A619B6969696969898C8F92BA
:100B40009B9B0020FFF744FE00284FF0000008D0D8
:100B5000FFF72EFE022D02D14FF4E16006E0484679
:100B600004E0FFF72DFE022D2ED05046B0FBF8F129
:100B700025706068414300223868FFF7D1F80646C7
:100B800059E00020FFF724FE28B10020FFF710FEF7
:100B90004FF44870EAE70020FFF712FE14E000204F
:100BA000FFF716FE00284FF0000002D0FFF700FE0E
:100BB000D5E7FFF705FED8E70020FFF709FE00287C
:100BC000E9D00020FFF7F4FDC820CFE70020FFF7B1
:100BD000DDFD257007E000203FE025702BE0607010
:100BE0000120FFF7D3FD00226168C5E76070012096
:100BF000FFF7CCFD606800EB8001BCE77868FFF789
:100C0000D3F80646D5F1110000D01EB10220FFF73F
:100C1000CFFD10E001280BD9C82110FB01F1B1FB79
:100C2000F8F16068002241437868FFF779F80646DA
:100C30000220FFF7C5FD3046BDE8F087FFF7EEFD67
:100C4000CBE7FFF7EBFDC6E7FFF7E8FD04E0FFF7B2
:100C5000E5FD0020FFF7B4FD0120FFF7B1FDBCE783
:100C6000FFF7E5FDB9E7000034210020BC62020077
:100C700010B5FFF775FD032102F0F6FA002010BD54
:100C800000780221FFF752BE05494FF0FF320828D5
:100C900041F8202002D3084480F848207047000023
:100CA000EC2B0020F0B54FF0FF3512B100230826E1
:100CB00001E008230C260C4C05E000BF54F823701B
:100CC0007F1C04D05B1CB342F8D32846F0BD261825
:100CD0005DB286F8305044F82310002AF5D1E118AF
:100CE00081F84800F1E70000EC2B0020024908449D
:100CF00090F9300070470000EC2B002038B1054916
:100D0000814204D80449814201D901207047002062
:100D1000704700006422002084220020044A0168F9
:100D2000914201D0083101E0014938390160704732
:100D30006C2D002070B504464FF6FF750A46284614
:100D4000AC4208D14FF480742146104603F078FB82
:100D5000A04209D070BDFF2CFCD82146104603F0FC
:100D600062FB08B1204670BD284670BD70B5084CC6
:100D7000050009D010342168002907D008682060D8
:100D8000496828468847F6E70834F4E770BD000054
:100D9000D82B00202DE9F05F26484168F1B3DFF839
:100DA00098B00E688146DBF8004087688078E11BC8
:100DB00021F07F45ED1CB0B9DFF880804FF4803022
:100DC000C8F84403C8F804031120FEF75FFB1120A4
:100DD000FEF772FB4FF0010AC8F800A02F2001F0C7
:100DE000D1FF89F802A0B54200D23546124BE8196E
:100DF0003C3320F07F401860DBF800105A46091B96
:100E000021F07F41001B20F07F40C91C81420FD997
:100E1000106818602F2001F0B5FF00E004E0BDE885
:100E2000F05F1120FEF75EBBBDE8F05F03F0AEBFE0
:100E3000BDE8F09F10220020041501400010014081
:100E40002DE9F04117880646B81D14460D46984214
:100E500002D90C20BDE8F0813188072206290AD387
:100E60004FF4486C4FF6FF73614501D9994202D1A6
:100E70007088062801D21046ECE7604501D99842F7
:100E8000F9D1994203D0984201D08142F3D805208C
:100E9000E85520881221401C80B2208029542088E7
:100EA000401C80B220804119308804F09EFF2188C8
:100EB000084480B220804119708804F096FF218890
:100EC000084420800020C5E7FEF7B4BEF8B51348FB
:100ED00001F08CFA114D0026114C0C3D30B16169C6
:100EE000B9B101208DF80000684611E0287820B1E2
:100EF000616971B18DF80060F6E7687858B1A16852
:100F0000084800220068FEF70BFF10B1A16901B18B
:100F100088472E70F8BD6168F2E700007C21002050
:100F2000A4240020E8620200F0B54FF0FF3622B1A1
:100F30001268D24300230A4D0DE03246FAE7C45C42
:100F400062400824D70700D037462F4087EA520274
:100F5000641EF7D15B1C8B42F1D3D043F0BD00007F
:100F60002083B8ED10B5034801F0C6FEBDE810407F
:100F7000FEF76CBEA08601002DE9FF410C4618B1BA
:100F8000012004B0BDE8F08120790027DFF87C80E3
:100F9000012638B141F61D5501281ED0022829D05E
:100FA0000F20EEE702970397E0680190694601A8D9
:100FB00003F026FE68B102988188E18000882081D4
:100FC000029803F091FEBDF8002008EB02118E7329
:100FD00000E00A2002212171D3E70D4B6A4600216F
:100FE000A01D03F0C9FD38B1094908398F60CF60F1
:100FF0000A28C6D12846C4E7019803F075FE0449C3
:101000008A8808EB02118E73F2E700007C2D002025
:10101000382200202DE9F04100260125144C22E061
:101020006068226900EBC607387805FA00F11142C2
:1010300017D08A43226102F0B1F802463878E3689B
:1010400005FA00F1194002FA00F3994209D17978C2
:10105000012901D0012100E0002151407A6802B14C
:101060009047761CF6B220788642D9D3BDE8F0814D
:10107000EC210020044A09B9002313705268002AA9
:1010800000D0104770470000E42100200E4910B541
:101090000A784C780023A24212D0521CD2B20A70B5
:1010A000022A00D10B70084A0B78183252F823201C
:1010B00002608868104420F07F408860012010BDE5
:1010C0000360002010BD0000102200203EB5094D35
:1010D00038CD8DE83800ADF8041007498DF80620AA
:1010E000ADF8020000220978FFF702FA684600F026
:1010F0008FF83EBD7C630200C821002010B5037844
:101100000022072B06D2DFE803F00504060C1C259D
:101110002B000A7010BD01220A7002898A81828820
:1011200014E002220A7002898A818288CA81C26818
:101130008A60007C062802D00020087410BD0120BF
:10114000FBE703220A70C2888A810289CA81C068CB
:10115000886010BD04230B70C0888881CA8110BDCF
:101160000520087010BD000070B5064D064600242D
:1011700055F8241009B130468847641C082CF7D371
:1011800070BD00009C2C00200EB5002911D0112943
:101190000FD0002200920292ADF8020001910D29B9
:1011A00008D0862908D009208DF80000684600F094
:1011B0003DF80EBD0B20F7E70A20F5E70149096865
:1011C000084700009021002070B5054D0646002418
:1011D000304655F824108847641C022CF8D370BDA3
:1011E000146302002DE9F04107460024064E074D26
:1011F00005E000BF56F8241038468847641CE8789C
:101200008442F7DBBDE8F081D4280020B82100201B
:1012100070B5054D06460024304655F82410884721
:10122000641C022CF8D370BD4463020001490968B4
:1012300008470000886302007FB50446406858B143
:101240000020039020780026384D06285DD2DFE884
:1012500000F05C05052641690120F2E7A08900F055
:10126000B3F918B9E08903F051FD80B3A089A0F566
:101270004040ADF80200A07B8DF8040020780128E2
:10128000606806D048B104208DF8000060680390C3
:101290001AE00028F8D00320F6E70120F4E7A0893F
:1012A00000F092F918B9E08903F030FD78B1A08917
:1012B000A0F54040ADF80200A07B8DF80400606806
:1012C00030B105208DF80000A06802901AE01CE003
:1012D0000220F7E7A08900F077F9B0B1E089A0B962
:1012E000A089FF21A0F5404080B2ADF802008DF842
:1012F0000410616881B107208DF800006E70AE7037
:1013000002F0EEFD684602F0C3FC6878002802D0C7
:101310006E7002F0E5FD7FBD06218DF8001002F031
:101320006DFEEBE708208DF80000EBE7A42100201C
:1013300000B5114987B00978890702D4022007B0A7
:1013400000BDA0F57F41FF3911D005218DF80010B7
:1013500001218DF80410ADF8060000221146684600
:1013600002F0F6F828B103F0E9FB0020E7E70420DB
:10137000E5E70820E3E700003022002000B50E4832
:1013800087B00078800702D4022007B000BD062095
:101390008DF8000000221146684602F0D9F840B1ED
:1013A0000648017809B10121017303F0C7FB002051
:1013B000EBE70820E9E70000302200209C2D002008
:1013C00000B58DB014216846FDF74FFF1E48007828
:1013D000810703D56846FFF7C7FE33E0C00731D168
:1013E000012000F015F900F0A7F902F04DF970B1F5
:1013F00006280FD001218DF814100C281BD2DFE82D
:1014000000F01A101A101A181A181A1216120B20B5
:101410000DB000BD022000F0FBF8012000F0DEF866
:10142000D8E7002000E003208DF8180003E0022038
:10143000FAE78DF818100022114605A802F088F886
:1014400003F07CFB0020E3E73022002038B50400E5
:1014500011D0694603F0D4FB88B10A48BDF80010EA
:1014600000EB0110818941B1A27A32B1491E81811C
:101470000020A07238BD052038BD062038BD0A20E6
:1014800038BD00007C2D00201FB501A9684603F07F
:1014900073FB04B010BD07B513460A466946002029
:1014A00003F06AFB0EBD07B513460A4600216846E5
:1014B00003F062FB0EBD20B119B100680860002086
:1014C000704705207047000038B50D46040015D060
:1014D000A5B1694603F094FB90B10A49BDF800201C
:1014E000606801EB02129189491C91812860606853
:1014F0000C3068600120A072002038BD052038BD86
:101500000A2038BD7C2D002018B10323002204F0EE
:1015100095BD052070470223002204F08FBD12B153
:10152000022304F08BBD052070470000064A517865
:10153000082906D0054B43F82100491C51700020B2
:1015400070470C2070470000302200209C2C0020A7
:1015500038B504460A480D460078800701D40220B9
:1015600038BD54B16946284604F078FE0028F7D10A
:10157000BDF800102180658038BD052038BD000011
:101580003022002010B504460D480078800701D4B1
:10159000022010BD84B1218802290FD8094800EB30
:1015A000011042896088121A032A07D404F04CFE05
:1015B00000202080608010BD052010BD042010BDDB
:1015C000302200207C2D002043F6FE71A0F5404023
:1015D000884201D8012070470020704702490A78EC
:1015E00082430A70704700003022002010B5044684
:1015F0000078182802D1FEF745FF207010BD10B505
:1016000004460078182802D1FEF73CFF207010BD78
:1016100002490A7802430A70704700003022002015
:1016200070B51346002206461546862905D01129B5
:1016300001D019B170BD012500E001220D4C73B13C
:101640006179FEF755FF2A4621793046FEF750FFB3
:10165000002261783046FEF74BFF002203E06178FC
:10166000FEF746FF2A4621783046BDE87040FEF777
:101670003FBF0000CC21002010B5002907D1044C49
:1016800013212068808876DF21680120087510BD4D
:1016900084210020F8B506461A481F4615460078F2
:1016A0000C46C00708D03046FFF728FB30B13CB1EC
:1016B000200507D00620F8BD0120F8BD0220F8BDA6
:1016C0000320F8BD3068A04204D8716804EB0530EF
:1016D000884201D90520F8BD7DB1684603F07CF948
:1016E00068B100980221C0E900670172210B818175
:1016F000058203F033FA0020F8BD0420F8BD07206E
:10170000F8BD000048220020084603F081B900001F
:10171000084A136823F00103136031B143F0020358
:1017200013604268002A03D0104723F00203F7E752
:1017300070470000302100202DE9F0472748284C51
:101740004FF01021001B0209496910464B1C03D1C0
:101750004FF0805149690903DFF888A09AF80070BA
:10176000FB0702D00020BDE8F0870023A14607E078
:1017700009EB0314256815B1646804B1401E5B1CB5
:101780009342F5D3002422E0002504F0FF0C2B4601
:1017900013E000BF09EB0316D6F80080B8F1000F84
:1017A00004D0D6F80480B8F1000F05D1767BAE42A4
:1017B00002D9354603F0FF0C5B1C9342EAD309EBD8
:1017C0000C13641C59601D7BA1EB05311960844228
:1017D000DAD347F001018AF80010C3E78422002021
:1017E00064220020482200200348406E042801D0D3
:1017F0000020704701207047AC2D002020B1034924
:10180000496E01600020704703207047AC2D002016
:101810002DE9F84307461D48DDF820801E46007874
:1018200015460C46C0070CD03846FFF767FA50B192
:101830005DB154B145EA0400800708D00620BDE838
:10184000F8830120FBE70220F9E70320F7E7386877
:10185000A04204D8786804EB8601884201D20520B2
:10186000EDE77EB1684603F0B7F868B10098012152
:10187000C0E900780172C0E90354868203F06EF972
:101880000020DCE70420DAE70720D8E74822002020
:1018900070B5174A17490446106E0B7800EB4000EC
:1018A00002EBC0009D0715D5022C02D0032C1BD1E2
:1018B00002E001F023FE17E04A78521CD2B24A70CF
:1018C000032A11D900224A70082103F08FFC03F08B
:1018D0006DF809E0580707D523F004000870526E30
:1018E00012B140F002000870BDE8704003F0EEB89D
:1018F000AC2D00204822002070B508B1012070BD39
:10190000184C0025207B08B1257301E000F0A2F8F7
:101910002078082824D2DFE800F02304080C1023E4
:10192000141EBDE8704000F01FB8BDE8704000F024
:101930007FB8BDE8704000F061B8BDE8704000F0CD
:1019400037B808496088203901EB00104068BDE8CD
:10195000704001F079BE6560BDE8704001F082BE64
:101960000F2070BD9C2D00201049F0B48A1C00206F
:101970000346A1F120050C18A67A3EB1A37205EB2F
:101980000014A68916B9A47B012C0AD0401C80B291
:101990000228F0D30B704B804B60F0BC41F61D5019
:1019A00070471080F0BC00F043B800009C2D002070
:1019B00010B50F4CA4F12001608801EB0010818963
:1019C00061B1052020700B4802210023818001684D
:1019D000BDE8104001220848FFF75CBE41680023C3
:1019E00001220548FFF756FE0421217010BD0000BA
:1019F0009C2D0020402200207422002038B50A4986
:101A0000084803240B684268898803EB81015388E6
:101A100004700020DB1C00909BB20448FFF7F8FE26
:101A200038BD00009C2D00204022002074220020A0
:101A3000074910B54888091D03F030F918B1BDE811
:101A40001040FFF7DBBFBDE81040FFF7B1BF00005B
:101A50009C2D0020F0B51D481D4901250678022463
:101A60008B88A0F12002082E18D2DFE806F00417B8
:101A7000171A212C2C160189491C01810021418053
:101A800080F80C1002EB01131B7843B100234418BB
:101A9000491C89B2A3720229F4D30570F0BD012359
:101AA000F5E742685288D21C1A448A800470F0BD5F
:101AB00046880D6802EB061256680E605560138169
:101AC0008C80062100E007210170F0BD9C2D0020D4
:101AD00040220020F0B504460088384D8DB05028D3
:101AE0001ED0522802D0542828D103E0A08800F04C
:101AF000D9FE23E006208DF81400A08800F0ACFB8E
:101B0000ADF81600A188ADF8181000F05DF9A088B6
:101B10000022E978FEF7ECFC05A8FFF74FFB0DE08B
:101B2000207B01280AD1A07A012807D12089A0F5BD
:101B30002451023902D1A08800F0EEFEA878FEF709
:101B4000B7FCC8B108A8FEF7E7FB142208A968464D
:101B5000FDF772FB00246E460BE000BF06EB440766
:101B6000A978B888FEF7B0FC10B1B88800F09AFEEA
:101B7000641C0098A042F1D86878FEF799FCC8B1BF
:101B800008A8FEF7C9FB142208A96846FDF754FB14
:101B900000246E460BE000BF06EB44076978B88866
:101BA000FEF792FC10B1B88800F0B6FE641C0098F5
:101BB000A042F1D803F040FB0DB0F0BD8821002019
:101BC0003EB504464088ADF802002078A8B101284F
:101BD0001FD0022810D1207900280DD0608800F095
:101BE0007BFAA0F57F41FF3906D00F490122C97861
:101BF000FEF77EFC03F020FB3EBD00208DF80000C8
:101C00006846FFF7DBFA608800F066FA00F04AFEEB
:101C10003EBD01208DF80000A088ADF804006846A4
:101C2000FFF7CCFA3EBD00008821002010B5044625
:101C3000007801280FD1608800F034FE608800F041
:101C400089F9002807D0044960880122C978BDE8D5
:101C50001040FEF74DBC10BD8821002010B5104C7F
:101C600000202070FEF70EFC6070FEF70BFCA070E9
:101C7000FEF708FCE070FEF705FC2071617818297A
:101C80000BD0A178182908D0E178182905D0182898
:101C900003D001202070002010BD032010BD0000E3
:101CA000882100202DE9F04186B000F0A5F86846B3
:101CB000FEF732FB00246D464FF6FF77DFF83480E5
:101CC0000FE000BF05EB4406B08800F0C5FAB8424B
:101CD00005D1B088012298F80310FEF709FC641CB6
:101CE000A4B20098A042EDD803F0A6FA06B0BDE871
:101CF000F0810000882100200178072902D1408866
:101D000000F00ABE7047000010B504460A4841784A
:101D10002046FEF7D9FB68B10848002101EB4102DB
:101D200000EB82025288A24201D1C8B210BD491C08
:101D30000829F3D3FF2010BDA0210020F4240020A7
:101D400070B5094D094E002404EB440005EB8000FA
:101D500071784088FEF7B8FB20B1641C082CF3D3DF
:101D6000FF2070BDE0B270BDF4240020A02100204F
:101D70002DE9F041124E07460125BD403068FEF7BF
:101D800013F800280DD10F4C2069284207D138469E
:101D900001F004FA0028E06805D0284304E0A843D5
:101DA0002061BDE8F081A843E060206928432061FC
:101DB000A1683068BDE8F0410022FDF7B1BF000026
:101DC00090630200EC2100201CB5054AD2E9021202
:101DD000CDE900120022694601F027FE1CBD00007B
:101DE0000063020003484FF6FF71818001210170FA
:101DF000002070479421002010B54FF6FF7001F0CD
:101E00004BFD03498880BDE8104003F041BA000053
:101E1000942100202DE9FC41804600F01DFA0024A9
:101E200003250127A0F57F412646FF3908D06A46E1
:101E3000082101F0D5FD18B90198841D8688056830
:101E400032462B4621464046A9DF042804D0082804
:101E500004D00B2808D002E0112000E00020002F61
:101E600000D10B20BDE8FC810027A80701D5012582
:101E7000E6E73443F5D0002426460325E0E72DE9C4
:101E8000FC41804600F0E8F90746A0F57F40FF38A6
:101E90000ED001252A466D1C0026ADB26B460821E6
:101EA000384601F0C7FD040006D0072C24D024E0FA
:101EB00043F20200BDE8FC81019903230A1D0B6077
:101EC0004046891DAADF040004D00C2C08D0052C44
:101ED00008D008E00821384601F044FE04460CE032
:101EE000012600E000240821384601F027FE00B159
:101EF0000324002ECED100E00C242046DAE70000B7
:101F00001FB504460078012815D12079012812D187
:101F1000608802AA012101F063FD60B902208DF8FA
:101F200000006088ADF80200094901208DF8040026
:101F3000096868468847064808388088A0F57F41C8
:101F4000FF3903D0BDE81F4003F0A2B91FBD000058
:101F50009C2100201CB500F07FF96A46012101F0A8
:101F60003FFD08B100201CBD019800781CBD000099
:101F70002DE9F041084C07464FF6FF7643F2030582
:101F8000324661883846A7DFA84203D16088401CEA
:101F90006080F5E7BDE8F081942100208188A1F5FB
:101FA0007F42FF3A03D0008808B10120704700202B
:101FB00070473EB5027802230C46B3EB520F17D19F
:101FC000B0F80110ADF80010C1788DF802108188CA
:101FD000ADF8041080798DF8060002AA01A9204608
:101FE000FDF79FFD032202A96846FDF749F908B1F4
:101FF00000203EBD01203EBD10B50C46FFF784FE1B
:10200000FF280CD0074900EB400001EB800041683D
:1020100021600189A180807AA071002010BD052077
:1020200010BD0000F424002070B5018890B0102984
:102030004FD1011D34226846FDF7FEF89DF80400DB
:102040004FF6FF76032134466D46B1EB500F2AD090
:1020500001F086FE9DF8040040080ED001280CD047
:10206000022820D118E00F99281D1131FDF73EFC00
:1020700018B100BFBDF8344015E00EAA0DA9072025
:1020800001F046FE0028EED10DE00F99281D491CF5
:10209000FFF78FFF0028EDD10EAA0DA9072001F050
:1020A00037FE0028F1D1BDF80000291D00F0C8FD61
:1020B000B4420ED0BDF80000214600F07EF8BDF815
:1020C0000000ADF8360001208DF834000DA8FFF7B0
:1020D0007BF810B070BD0000094A002101EB4103FC
:1020E00032F82330834205D101EB410002EB80003E
:1020F00040887047491C0829F0D34FF6FF7070479D
:10210000F424002010B50D4C18200D4A60700020FA
:102110004FF6FF7100EB400302EB8303401C598034
:102120000828F7D3FEF7AEF96070182803D0012015
:102130002070002010BD032010BD0000A021002051
:10214000F424002070B504460D46401C00F05CF9F4
:1021500000280ED01022691C601CFDF791F848B1D0
:102160005FF0000605F1110104F11100FDF7BEFB5F
:10217000304370BD0126F5E7018811B94218927805
:102180000AB101207047491C0829F7D30020704785
:1021900010B50C460346FFF7EFFF00280AD0188859
:1021A0002188884205D10822A11C981CFDF768F8F7
:1021B00008B1002010BD012010BD01F073BF10B5A3
:1021C0000446007888B0002828D12079072825D136
:1021D000608801AA072101F003FC00281ED101F04C
:1021E000BFFD1DE06088BDF80010884218D004993A
:1021F0000298FFF7A7FF98B16088FFF76DFFADF871
:10220000160000208DF814006088ADF81800BDF8A5
:102210000000ADF81A0005A8FEF7D6FF08B010BD03
:1022200003AA6946072001F073FD0028DAD1F5E71B
:1022300070B50446FFF750FF0546204601F0D3FB7A
:102240004FF6FF7104468D4203D014B9284601F0C1
:1022500029FF204670BD000010B5FFF755FDFF288F
:1022600005D0044900EB400031F8200010BD4FF6C6
:10227000FF7010BDF42400203EB5044601F070FD4F
:102280000EE0019920464631FFF782FF28B90199F7
:1022900020462A31FFF77CFF10B1BDF808003EBD93
:1022A0006A4602A9072001F033FD0028E9D14FF664
:1022B000FF703EBD2DE9F0410F4628B10120FFF728
:1022C0008DF90120BDE8F081397961B10026264DF4
:1022D00001290DD0254C4FF002080229206822D098
:1022E00003293CD128E001F0BDF90121397134E026
:1022F0005FF0000005EB0011097802290CD0401CAA
:1023000080B20228F6D30220FFF782F90120FFF7FE
:1023100065F941F61D50D5E705EB0014606801F042
:1023200093F9267019E00146002301221048FFF7B7
:10233000B1F9A4F804800FE001F086F90A49226897
:102340002031498805EB01114B6823604A60A2885F
:102350000A81A4F804800E703E710028B2D00120DA
:10236000FFF73CF90E20ADE77C2D00204022002035
:1023700074220020F8B51C4C2078002832D0E06888
:10238000002658B10025607800282BD1684648DF28
:10239000052805D030B1FDF74DFC0AE00125F2E734
:1023A000012606E0009800F029FE216909B1009895
:1023B00088479DB96078002814D16088ADF8000086
:1023C0006946A06861DF052803D020B1FDF732FC23
:1023D00004E0012502E0D4E902018847002ED2D0B2
:1023E000002DE6D0F8BD00004C22002005494088B1
:1023F0000A88904204D34988884201D80120704756
:1024000000207047742100200021425C0AB10120A5
:102410007047491C1029F8D300207047800701D06D
:1024200000207047012070470348017AC90702D095
:102430000078FEF763BB7047342100202DE9F04798
:10244000234D81461F46287A0E469046084302D007
:1024500026B1002104E00520BDE8F0871C491031B9
:10246000484603F061F90446014600224846FFF75A
:10247000D7F81FB121464846FEF786FE112C0FD033
:1024800005DC5CB1082C09D00D2C06D106E0862CA9
:1024900012D0A4F54050023800D003242046DBE7D8
:1024A0003246E9784846FEF723F84246A97848467E
:1024B000FEF71EF80024F1E73246E9784846FEF7B9
:1024C00017F84246A9784846FEF712F8E6E70000FA
:1024D000CC2100202DE9FC4117460C00064604D013
:1024E0002078C00705D0012004E000217EDFBDE890
:1024F000FC8102208DF804003046FFF7ADFE054652
:10250000A0F57F40FF3808D001A800902B463A463E
:102510002146304600F021F806E020782146C00729
:10252000304603D000F07DF804460BE07EDF040067
:102530004FF00000009007D00022012329463046CA
:1025400002F01AFE14B106E00122F6E79DF804102D
:10255000304602F03BFE2046C9E72DE9F04F85B03A
:1025600090468946834600259A462E4601AA0721B1
:1025700018460E9F01F034FA040008D1029D95F828
:102580004400183510F0010601D0029D343558EA98
:1025900004004FF000080FD175B126B905F1120003
:1025A000FFF7EAFD40B12A4605F11201584685DFE2
:1025B000044687F8008021E00CB1052C1ED199F863
:1025C0000000C0070DD003AB01220721504601F0E7
:1025D00031FA04000AD10721504601F025FB04001E
:1025E00004D1494658467EDF040007D007215046F3
:1025F00001F0A4FA10B1052800D00324CDF8008022
:10260000387808B1012300E0002344B1002251468C
:10261000584602F0B1FD05B02046BDE8F08F01221A
:10262000F5E7FEB50F46064601F0D0F90546A0F5E0
:102630007F40FF381ED001AB01220721284601F060
:10264000F9F904000AD10721284601F0EDFA040047
:1026500004D1394630467EDF040007D007212846E2
:1026600001F06CFA10B1052800D00324012000907D
:102670005CB102E0032400200090002201232946DF
:10268000304602F079FD2046FEBD0122F6E700004B
:102690002DE9F041134D0F46164680462978FDF787
:1026A00013FF00281BD04046FFF7D6FD0446A0F5D7
:1026B0007F40FF3813D069784046FDF705FF38B1F9
:1026C00033463A4621464046BDE8F04101F058B84D
:1026D000324639464046BDE8F041FEF7F7BCBDE85A
:1026E000F0810000C82100202DE9F04385B081462B
:1026F000FDF7DEFE002820D06846FDF70DFE002421
:102700006E4617E006EB44054946A888FDF7DCFE57
:1027100078B10B4FA888B978FDF7D6FE8046A88817
:10272000F978FDF7D1FE0146A88801234246FFF75C
:1027300085FE641C0098A042E4D805B0BDE8F08393
:10274000CC2100202DE9F043264CA4F11009227879
:10275000D9F8048099F80350404694F801C0D9F89C
:10276000086031E002EB42036168521C01EBC301D7
:10277000A378D2B2934200D100220B78022B02D070
:10278000032B21D11DE003464F68194603E0B942EF
:1027900003D00B46C969B9B1F9E7A9B18B4205D19C
:1027A000C06918B9104E0125B56000260F68C969C7
:1027B000D96149B10B683B440B6005E00174C06905
:1027C00000E000210028F9D19445CBD1C9E90106E8
:1027D00089F80350404502D00120BDE8F083002075
:1027E000FBE7000020220020001001402DE9F0410D
:1027F0002A4F0446002607F11005D7F804803EE072
:1028000002D02046E4691DE02878696800EB4002A8
:10281000401CC0B201EBC2012870AA78904200D1DE
:102820002E700A784868012A2BD1027C4ABB8A683C
:102830004260CA6882600A69C26049698161F97848
:1028400001B146604368BA68DFF854C0991A21F0B4
:102850007F41614502D28268114406E0D11A826844
:1028600021F07F418A4202D9511A016000E00660DE
:102870004660012186600174C66103F00DF9002CE9
:10288000BED1287869788842BED17968414502D0A6
:102890000120BDE8F0810020FBE7000010220020AD
:1028A000FFFF7F00FEB504460026A0F57F40FF38FD
:1028B0002FD02046FFF7AEFA050013D00B2D15D010
:1028C000112D11D0A5F5405002381CD009208DF8EB
:1028D00000002046FFF7C0FCADF80200ADF8044050
:1028E00002950DE0022002E001260CE003208DF8A5
:1028F00000002046FFF7B0FCADF80200ADF8044040
:102900006846FEF75BFC0348324681782046FDF7B7
:10291000EFFDFEBD88210020FEB504460026FFF72E
:10292000AEFA0546112818D003DCA5B10C2D06D14E
:1029300015E0862D27D0A5F5405002381CD009207F
:102940008DF800002046FFF787FCADF80200ADF8D7
:10295000044002950DE0012002E001260CE0072072
:102960008DF80000ADF804402046FFF775FCADF887
:1029700002006846FEF722FC0448324641782046B1
:10298000FDF7B6FDFEBD0820EAE700008821002023
:10299000F8B5054600780C46002620420FD10020ED
:1029A0008DF800006846FDF70FFA2878204202D122
:1029B0002043287001269DF80000FDF729FA3046D3
:1029C000F8BD0000002398B0534A05211846FDF7D2
:1029D0006FF908B1FDF72EF9504A40F6CD410320BA
:1029E000FEF740F808B1FDF725F969460020FDF72C
:1029F00039FF08B1FDF71EF99DF8000002287CD0D0
:102A00005FF00004FDF776FE204601F059FB9DF8CB
:102A1000080043A120F00F00401C20F0F00010300F
:102A20008DF80800082202A87CDF08B1FDF702F942
:102A3000002400945020ADF80000A0200194ADF8CF
:102A40000200ADF804404FF4C870ADF806006846C7
:102A50007ADF08B1FDF7EEF83C2101A8FCF705FC90
:102A600002208DF8040001258DF8065006208DF80F
:102A700007002E480690ADF81450202110A8FCF74E
:102A8000F4FB4FF4967014908DF84350B4201590D9
:102A9000274B10AA0021009401A8FDF757FA08B1AE
:102AA000FDF7C8F82348CDE9000404208DF80400A0
:102AB0008DF8050018486946C830FDF761FD08B17A
:102AC000FDF7B8F81C216846FCF7CFFB4FF4203027
:102AD000CDE900404FF47020029003208DF80C00E7
:102AE0001548059015480690ADF80E408DF8104039
:102AF0006846FDF7A3FB18B100E005E0FDF79AF882
:102B00000320FDF719FB02E001247BE73EDF0028EC
:102B1000FCD0FDF78FF8F9E784220020C5090200F8
:102B20004446553241313232000000002A21002053
:102B3000493302007D05020029340200C90E02005B
:102B400070B5144682880E4605462088111D014442
:102B5000921C994201D8FE2A01D90C2070BD521C4A
:102B600032542088FF21401C80B2208031542088BC
:102B7000401C80B220808119288803F036F9218812
:102B8000084480B22080AA8842B1A96841B130448B
:102B9000FCF752FB2088A98808442080002070BDE3
:102BA000072070BDF8B50E46017814460546012988
:102BB00001D1687830B12088821C9A422DD8012931
:102BC00002D006E00720F8BD69780144891C9942CB
:102BD00023D8181A801E87B2ADF800702188B01C67
:102BE000084469467DDF0028EDD12878022805D108
:102BF000BDF80010B94201D809210AE008210128D6
:102C000005D16878B84202D8ADF8000001E0ADF80F
:102C10000070BDF80000FE2801D90C20F8BD228804
:102C2000401CB0542088401C80B220803154208841
:102C3000401C2080BDF80010084420800020F8BD12
:102C400070B505460C004FF0FF0020D04FF6FF7620
:102C5000B5421CD00E48012241782846FDF748FCB9
:102C60002846FFF751F8FF2803D1FFF769F8FF283E
:102C70000DD0084B00EB400203EB82014D8023F89E
:102C8000226022684A60A2880A81A2798A7270BD95
:102C9000A0210020F424002070B54FF6FF750E46E9
:102CA000A84201D1002000E0401C84B208E0214687
:102CB000304601F0E0FB08B1204670BD641CA4B2B0
:102CC000FF2CF4D9284670BDC20800F0070301208C
:102CD000895C98400840704700F1804000680028F7
:102CE00000D00120704708B500F18040002101604C
:102CF0000068009008BD000000283ED01F49204A0F
:102D0000096800BF00BF00BF00BF00BF00BF00BF19
:102D100000BF91422FD000BF00BF00BF00BF00BF67
:102D200000BF00BF00BF00BF00BF00BF00BF00BFAB
:102D300000BF00BF00BF00BF00BF00BF00BF00BF9B
:102D400000BF00BF00BF00BF00BF00BF00BF00BF8B
:102D500000BF00BF00BF00BF00BF00BF00BF00BF7B
:102D600000BF00BF00BF00BF00BF00BF00BF00BF6B
:102D700000BF00BF00BF401EC3D1704760220020CB
:102D80000024F40000283ED01F49204A096800BFF3
:102D900000BF00BF00BF00BF00BF00BF00BF914227
:102DA0002FD000BF00BF00BF00BF00BF00BF00BFEB
:102DB00000BF00BF00BF00BF00BF00BF00BF00BF1B
:102DC00000BF00BF00BF00BF00BF00BF00BF00BF0B
:102DD00000BF00BF00BF00BF00BF00BF00BF00BFFB
:102DE00000BF00BF00BF00BF00BF00BF00BF00BFEB
:102DF00000BF00BF00BF00BF00BF00BF00BF00BFDB
:102E000000BF401EC3D17047602200200024F400A0
:102E100070B50E4C0B460146256800206E0702D5A2
:102E2000A80701D50A2070BD45F00100206098B2C6
:102E3000134602460648FEF72DFC216810B121F02A
:102E4000010101E041F00101216070BD302100204D
:102E5000642200200249042008600020704700001E
:102E600030210020F8B50E4C0D46064621680020A2
:102E70004F0702D5880701D50A20F8BD41F00100AF
:102E80002060009393B22A4631460648FEF7C0FC04
:102E90000028F2D1216841F001012160F8BD000055
:102EA0003021002064220020002258210148FEF732
:102EB0003BB80000802A002070B5114900204FF473
:102EC000AE7508702A460F490F48FCF7B5F90E4C4D
:102ED0002068401C04D0FFF7E7FF216881420ED034
:102EE00029460948FCF7C1F901206060002000F084
:102EF0000DF8002803D0BDE87040FCF79BBE70BD04
:102F0000E421002000F007007C2A002070B505466F
:102F1000174C01E0FEF726F820780028FAD10120AE
:102F20002070656003F021F8002201211148FFF7AD
:102F30006FFF0728F6D00025B0B9FFF7B5FF0E499F
:102F40004FF4AE720860A1F5AE70FCF775F900BFE2
:102F500003F00BF8094B572209490648FFF782FF97
:102F60000728F5D0002801D02570032070BD00008F
:102F7000E421002000F007007C2A002075100200E8
:102F80002029002070B50F4C0025207808B1852538
:102F900016E00021A16061602161E1604FF0E02056
:102FA000D0F80001012610F0010F03D10721002005
:102FB00000F029F802F010FD08B9034806602670F9
:102FC000284670BDD82B00201805004038B50020D9
:102FD0008DF800006846FCF7F7FE074C207808B92A
:102FE000FFF7D0FFE068401CE0600120A0709DF872
:102FF0000000FCF70DFF38BDD82B0020002801D1C0
:10300000FDF7B4BE70474907090E002806DA00F044
:103010000F0202F1E02282F8141D03E000F1E02229
:1030200082F8001400F01F02012191404009800045
:1030300000F1E020C0F88012C0F8001170470000D5
:103040002DE9F0418846054601F078F8234E002826
:1030500028461AD0FDF74AFE304490F8480080090F
:10306000032802D001280ED007E04FF0A040D0F88E
:103070001005E84010F0010F05D003212846BDE8F7
:10308000F04100F002B90221F8E701F063F80028EE
:1030900022D02846FDF72AFE04464FF4807000EB4C
:1030A00084000F4F81B207EB8400D0F8102542F066
:1030B0000102C0F81025084600F018F9B8F1000F19
:1030C0000AD02846FDF712FE56F82000002803D04B
:1030D0000120A040C7F80403BDE8F081EC2B0020DC
:1030E000006000402DE9FC41DFF8A480044608EBB5
:1030F0000400002790F930001346C0170E46401C0C
:1031000001D0082741E0F27819462046FDF7CAFDB4
:103110000546401C38D0B07850B14FF0A04000EBCD
:103120008400D0F8001721F00201C0F8001707E072
:1031300000217378204600910A46019100F082F840
:10314000F078C0B11348317800EB8500D0F8102535
:10315000114B1A40C0F810254FF4F8524FF4403389
:1031600002EA042203EA01410A43D0F810150A4397
:10317000C0F8102509E008EB0500327810F8481F68
:1031800041EA8211017000E004273846BDE8FC8165
:10319000EC2B002000600040FFE0FCFF4FF0A0415E
:1031A000D1F81015C14011F0010000D00120704786
:1031B00070B5144D95F8540008B1082070BD00207A
:1031C000411E2A18401CC0B282F830102028F8D3C3
:1031D00000242046FDF758FD641CE4B20C2CF8D303
:1031E00007210620FFF70FFF4FF4BE7000F07EF8B6
:1031F00005494FF00040C1F80403012085F8540050
:10320000002070BDEC2B002000600040034890F8C7
:103210005400002800D0012070470000EC2B002053
:1032200070B541EA4201DDE904564FF0A04441EA9D
:10323000830141EA052104EB800041EA0641C0F820
:10324000001770BD70B541EA4201DDE904564FF048
:10325000A04441EA830141EA052104EB800041EAF0
:103260000641C0F8001770BD4FF0A04202EB80008D
:10327000D0F8002722F44032C0F80027D0F8002709
:1032800042EA0141C0F8001770474FF0A04202EB3C
:103290008000D0F8002722F44032C0F80027D0F890
:1032A000002742EA0141C0F80017704701224FF0A1
:1032B000A043824011B1C3F808257047C3F80C251C
:1032C0007047000018B5084B6C4601441B6800931A
:1032D00006E000BF54F82030D3F81035401C08C277
:1032E0008142F7D818BD00008C630200034908B57D
:1032F0000844002101600068009008BD00600040A3
:1033000002494058012800D000207047006000406A
:103310004058002800D00120704708B500224250D4
:103320004058009008BDD0F80403084000D00120A8
:1033300070474058002800D00120704708B500228F
:1033400042504058009008BD10B550B103280CD130
:103350000220FDF77BFB002807D0BDE81040FCF7FA
:1033600069BCBDE8104002F089B810BD10B5044634
:10337000008888B03B281FD009DC022826D01028FE
:103380000FD0112816D10020FDF760FB17E051285F
:1033900020D0552842D056280CD1A088132176DFA2
:1033A0000DE00720FDF752FB08B1FCF743FC1D4977
:1033B000A088088008B010BDA088132176DF0028FF
:1033C000F8D008B0BDE81040FCF734BCA08800215C
:1033D00067DFF4E71022A11D04A8FBF72DFF9DF87D
:1033E00010100029E6D09DF81800042803D0062804
:1033F00001D00528DED102290ED001208DF8000071
:103400004FF4C170ADF80400A0886946A8DF002819
:10341000D0D0FCF70FFCCDE70220EFE7A088172102
:10342000ADDFCCE7282100200078002807D1044830
:103430003B21008876DF002801D0FCF7FBBB7047FA
:1034400028210020F0B58DB0002604460596022004
:103450000696079608968DF81400A07B8E460127E5
:1034600020B18DF81A70ADF8186003E040F2FD103D
:10347000ADF81800A08805A9A8DF1128FAD0BDF87A
:103480001800002832D19EF80C00012830D0022507
:1034900002960321ADF83010019620218DF82C10F2
:1034A0008DF82D00039604968DF82E50E088ADF827
:1034B00004000CA803900BA88DF80670ADF8086006
:1034C0000490A08801A9A6DF012D0FD19EF80C0061
:1034D00001280BD1226920461AB18DF80060694697
:1034E0009047044887650448FFF710FD0DB0F0BD14
:1034F0000125CDE77C2A002079160200134A10B579
:1035000000215170017A012912D002291DD181892F
:10351000491C8181C189491C89B2C181028A9142B9
:1035200013D1002101F062FEBDE8104001F03EBA67
:10353000838AC28A4FF480619C1A8C4200DAA1B25D
:10354000114489B2C1829942EBD010BD48220020BB
:10355000F8B51E4D17460E4601466A6F0020032A35
:1035600033D805F17804C6F1080C636C63452CD898
:1035700095F87000104400F00300C0EBC00005EBAC
:1035800080001C22FBF758FE686F401C6867DEB1A4
:1035900094F8440094F840100023084400F0070019
:1035A00004EBC00000900AE007EBC3020098D2E9E8
:1035B0000012C0E900126846FDF7B0FB5B1CB34285
:1035C000F2D3606C304460640120F8BDBC2C002054
:1035D0000389CA1C1A4402814289511AC91E4181B9
:1035E000704700002DE9F04700F58055002700F1F5
:1035F0000804022090460E460880DFF8489012E04A
:103600002046FEF7CBFCD0B1A068D9F80420904248
:1036100001D9C9F804006088318804EB80040844AB
:10362000C01C30800C34AC4202D22068401CE7D170
:10363000B8F1000F01D088F80070BDE8F0870127CD
:10364000E9E700003022002008B500210091014682
:103650000223024A0248FEF7DBF808BDA463020019
:103660007422002008B50020009004480223044A78
:1036700001680448FEF7CCF808BD00004022002095
:103680009C630200742200202DE9F05F0025374F73
:10369000DFF8DC80DFF8DC90DFF8DCB02C46AA46EF
:1036A0002E46386800EB06300268424505D1334AA1
:1036B0004168891830D001290DD000214FF4806273
:1036C00050F821305B1C33D009EB04110320087043
:1036D000641CA4B219E0BAF1000F09D0022209EB70
:1036E0000411641C0A70DBF800304B600A81A4B23C
:1036F00000220BF10401CBF80000FFF773FFBBF8C9
:103700000400022830D008200543761CB6B2032EF0
:10371000C7D3E8B2BDE8F09F09EB0411002201F81D
:10372000042B01C18A1DFFF75DFF45F00205CFE7BD
:10373000491C9142C4D3DBF8002059465AB109EB29
:10374000041102220A7048600A480A81203044802D
:10375000641CA4B205E008600220ABF804004FF03E
:10376000010A45F00105D0E70420CDE774220020CE
:10377000DEC0ADDE7C2D00204022002002FEE10EE6
:1037800070B5184D0E46044623CD86B08DE8230053
:10379000154DADF80420ADF802408DF80630A9783B
:1037A0002046FCF791FE18B13046FEF741FD0FE0D0
:1037B0000721304600F0C2F950B1052808D109218F
:1037C0008DF80C100490ADF80E4003A8FDF720FD15
:1037D000002229782046FCF78BFE6846FDF718FD8D
:1037E00006B070BD70630200C8210020F0B585B03E
:1037F0000746FCF75DFE002814D06846FCF78CFDF8
:1038000000246D460BE000BF05EB44063946B08846
:10381000FCF75AFE10B1B08802F024F8641C00983E
:10382000A042F1D805B0F0BD70B5054D06460024A4
:10383000304655F824108847641C052CF8D370BD19
:10384000206302003EB5104D002400BF04EB84004D
:1038500005EB800002F0CCFB641C082CF6D301249D
:10386000502008210094CDE901100949C200074BFE
:1038700001F5207000F0A8FC08B103203EBD03480C
:10388000447000203EBD0000F4270020B02100203D
:103890006425002000F038BA00F038BA2DE9FF4165
:1038A0000026044600960196029603964088ADF8DD
:1038B000020020798DF8040037462179608802F0F3
:1038C0006FFB21783F4D0A2947D2DFE801F005055B
:1038D0003319193537393F4468B1417CC9070AD0DB
:1038E00002F096FB8DF800702078012800D00020AF
:1038F0008DF808001AE001208DF80000A06823E090
:1039000078B18168A26891420BD1417CCA0708D086
:103910006A6821F00101521C41F004016A6041749F
:103920001BE002208DF80000E06803906846FFF776
:103930007BFF12E003200BE0042002E0052007E0FB
:1039400006208DF80000E0680290EFE701260720CE
:103950008DF80000EAE7E06802906868002826D049
:10396000194C002505EB850704EB8700417C4A07CD
:1039700003D4C1F3400131421FD0817834F82700CD
:1039800000F0F0F8C8B105EB8501862834F8211065
:10399000ADF8021004EB870189788DF8041008D087
:1039A00009218DF8001002906846FFF73DFFBDE841
:1039B000FF8108208DF80000F6E76D1C082DD1D39B
:1039C000F5E70000B0210020F427002000F054BAF1
:1039D00008B513889B0000936B4600F0C9F908BD39
:1039E000002300F0C5B938B505460024204609E09B
:1039F0008178284600F0A2F810B1052800D00324F1
:103A00000098401C00906946284602F0DBFA002826
:103A1000EED134B9284600F033FA10B1072802D0AD
:103A20000324204638BD0724FBE71346002200F09C
:103A3000D3B900002DE9F0475FEA030815460E46AA
:103A4000824604D0072E05D0082E17D102E00E20A2
:103A5000BDE8F08795B1082D10D8504600F01BFA4C
:103A600060B14FF000093146504602F099FA041E49
:103A700025D0E068A84213D24F460AE04FF0070075
:103A8000E6E7207C3844C1B22B4800F0D1FB7F1C14
:103A9000FFB2E068B842F4D8204602F0A9FA0EE07E
:103AA00017D9EFB207E0207C3844C1B2224800F0B9
:103AB000BFFB7F1CFFB2E068B842F4D84CB9574650
:103AC000FF214FF6FF7002F06BFA041E05D007804D
:103AD000A670207CFF2802D00CE01120B8E7294610
:103AE000154800F043FB014620462174FF2913D0FE
:103AF0004FF00109E560217C0F4800F085FB0200D2
:103B00000DD0ABB23146404600F052FAB9F1000F89
:103B100010D0082E05D00DE002F06AFADDE7032090
:103B200096E7B8F800006FF0050101EB8000D8F8C7
:103B30000410888000208BE7E427002070B5002463
:103B400002F02EFA05000BD0686820B100F0BCF935
:103B5000040000D00324284602F05AFA204670BD23
:103B6000052070BD7CB50D460646072903D0082DFB
:103B700001D007207CBD0020009001908DF80250FC
:103B80002946304602F00CFA040004D0607CC007DD
:103B900003D000207CBD05207CBD217C204800F0A6
:103BA00033FB020022D029466846E36800F094F90E
:103BB000684602F0E3F904F108036946304662689A
:103BC00000F00AF90146627C1648530704D59307B2
:103BD00002D543685B1E436051B111290DD086297F
:103BE00015D0072900D0032108467CBD03207CBDE9
:103BF00022F0060040F0010010E04168491C4160DD
:103C000022F0020040F0040060740021ECE74368F9
:103C10005B1C436022F0040040F002006074E3E7A4
:103C2000E4270020B02100207CB50D46072903D0F1
:103C3000082D01D007207CBD002602F0B1F9040058
:103C400002D0606810B11CE005207CBD217C0F48CB
:103C500000F0DAFA02004FF00000009001908DF8B9
:103C6000025010D029466846E36800F035F96846EE
:103C700002F084F9211D684600F00FF90646092874
:103C800001D030467CBD03207CBD0000E42700202D
:103C900001490968084700001C63020030B587B07D
:103CA0001748FDF743FC10B1032007B030BDFDF706
:103CB00087FB08B18620F8E700F0CCF900200290DD
:103CC0004CF2070403900EE0694604A8FDF7FCFBE4
:103CD00000988088A0F5404085B204A8FDF7B6FBA7
:103CE000284600F073F902AA04A92046FDF7D3FB89
:103CF0000028E9D00349012008700020D5E7000022
:103D000039120200A421002000F086B900F08AB91F
:103D100070B5054686B014460E4600F5404080B2A8
:103D20000E4A6946FDF7B7FB20B903A96846FDF7BF
:103D3000CBFB10B1002006B070BDA5700398408881
:103D400020800498606003988088A0F5404030800F
:103D50006846FDF77BFB0120EDE70000A82100206D
:103D6000024800214160816070470000A4210020CA
:103D7000F0B587B01D46144607460E46FF280AD800
:103D8000084600F005F930B103AA3146384600F084
:103D9000E7F840B902E0072007B0F0BD01A903A889
:103DA000FDF792FB08B10520F6E7A6700198408860
:103DB000208055B182002868904204D8029960683A
:103DC000FBF73AFA03E00420E6E70298606003A8F4
:103DD000FDF73CFB0020DFE77FB588B01E460D46AF
:103DE0000446FF282ED8A87800F0D2F850B36868AF
:103DF00006902888ADF81C0004F54040ADF800009E
:103E0000A87803AA00F54040ADF8020006A801908A
:103E10000120ADF80800A978204600F0A1F8052897
:103E200012D00AA8FDF7AEFB694603A8FDF76CFBAC
:103E3000B8B107281ED008281AD00E2818D00320A1
:103E40000CB070BD0720FBE70A9828B10AAA6946A2
:103E500003A8FDF764FBEBE7694603A8FDF75BFBEE
:103E6000E6E71EB1314603A8FDF725FB0020E7E792
:103E70001120E5E78620E3E74FF6FF7000F0A6B8D3
:103E800010B5FF2801D9072010BD00F0A5F800F0FB
:103E900027F8002010BD00F0F1B870B504460D46BB
:103EA000807800F075F858B121882846FDF750FB5E
:103EB000002804D0072805D0092800D0032070BDB1
:103EC000072070BD862070BD01B56846FDF75AFB1E
:103ED000002800D0032008BD9BB200F069B80000A4
:103EE000F0B589B000264FF6FF7704963846059660
:103EF00003E0204600F082F8204600F08DF80446EA
:103F0000B84208D004F5404080B204AA06A9FDF7E3
:103F1000CAFA0A28EDD0114DA87800281AD1BC425F
:103F200018D0012704F54040AF7080B2FDF700FAC9
:103F3000082811D000280DD0AE7009218DF800108E
:103F4000CDE90260FF21ADF802408DF8041068460B
:103F5000FFF79EFE09B0F0BD6F70FBE7A4210020C3
:103F60007CB5054616460C46084600F011F80020C0
:103F7000009005F54045019004F54044A8B2A1B277
:103F80006B463246FDF780FA002800D005207CBD44
:103F900007280BD0012809D0082807D0052805D00C
:103FA000062803D0042801D0002070470120704764
:103FB00010B503EB83034FF6FF7404EA031381701B
:103FC000DB1C99084260018010BD00000149FCF72C
:103FD000B1BE00009428002010B50446A0F57F4033
:103FE000FF3807D004492046FCF7A4FEA04201D1C7
:103FF000012010BD002010BDB428002010B50446DB
:10400000044900F0BBFE03492046BDE810402031C2
:1040100000F0B4BE942800200149FEF73DBE000028
:10402000B428002070B50A49FEF736FE04464FF664
:10403000FF7507E000F02CF838B105492046FEF77F
:104040002BFE0446AC42F5D170BD204670BD000089
:104050009428002010B508484021FBF706F94FF4DA
:1040600080742146044800F0D7F921460248BDE893
:104070001040203000F0D0B994280020FF2803D849
:104080000146024800F0F7B900207047942800204C
:10409000FF2803D80146024800F0EDB90020704720
:1040A000B428002010B50C46FDF72EFEFF2804D0E2
:1040B000024900EB400021F8204010BDF42400200C
:1040C0001CB5044600F06CF908B1FBF7B3FD24B150
:1040D00000F080FB08B1FBF7ADFD002000900190DF
:1040E0009DF8000020F07E0040F00100303020F00C
:1040F00080008DF8000007208DF8010010208DF859
:1041000002009DF8030040F003008DF803009DF8C5
:10411000040040F003008DF80400684600F08CFBBA
:1041200008B1FBF787FD044800F070FB002801D0C0
:10413000FBF780FD1CBD00006342020004490844F7
:1041400090F93000082801DB0120704700207047FB
:10415000EC2B00200449084490F93000082801D2D3
:104160000120704700207047EC2B00202DE9F04122
:104170000F46060026D0306820B3706810B3FF24C5
:1041800000251CE02946706800F04DF948B1FF2C6D
:1041900000D12C46281B401CB8420ED12046BDE859
:1041A000F081FF2C06D108E02146304600F040F8AF
:1041B000641CE4B2AC42F7D3FF246D1CEDB2B068CE
:1041C000A842DFD8FF20EAE72DE9F0410400DDE94D
:1041D0000705069E16D0A9B1A3B100FB05F79742CB
:1041E00010D8C21DB6EBD20F0CD358B155B1E56053
:1041F0002160C4E9013081B2184600F00DF90020B9
:10420000BDE8F0810720FBE770B504000D460DD036
:10421000206858B1606848B1FF2D07D000F02BF935
:1042200020B1E168206805FB010070BD002070BD71
:1042300070B504000D4611D0206800280ED06068CB
:1042400000280BD0FF2D09D000F015F9002805D06B
:1042500029466068BDE8704000F019B970BD01F0F2
:104260002DB908B501780F290FD2DFE801F0080E4B
:10427000080E0F16260E1D0E2622260E28008088F8
:1042800000F0ECF9112800D078B908BD00210091A8
:1042900040886946FFF7E3FF08BDFDF76FF80E2879
:1042A000FAD00828F8D0EFE70020BDE80840FBF777
:1042B000C1BC0320FBF740FFE6E78068E4E7BDE808
:1042C000084000F09FB870B586B0044614216846D7
:1042D000FAF7CBFF6088ADF80400FDF7FDFEADF8FE
:1042E0000200257800200822072105230A2D29D263
:1042F000DFE805F005050C0E1017192B1D208DF8B1
:1043000009008DF800108DF808201BE00D200BE04F
:104310000E2009E08DF809008DF800108DF80830A6
:1043200010E00F2000E010208DF800000AE08DF86A
:10433000003007E006208DF80000A0680290A088F9
:10434000ADF802006846FCF74DFF06B070BD0000F6
:1043500010B50446007886B0D8B1012817D10F49AE
:10436000608801224979FCF7C3F814216846FAF7FE
:104370007CFF6088ADF802006088FDF76DFFADF846
:10438000040000208DF800006846FCF72BFF06B003
:1043900010BDE08800F058F9F9E70000B8210020CE
:1043A00070B5FFF77BFC48BBFFF74CFA30BB01F060
:1043B00091F818BB01F09AF900BBFDF74FFCE8B982
:1043C000FDF710FDD0B9FDF79DFEB8B90C4C4FF6C6
:1043D000FF700025E0801820A56020716071FCF757
:1043E00051F82071182809D0FCF74CF86071182892
:1043F00004D0657001202070002070BD032070BDC6
:10440000B821002003480078002801D0FDF74ABCFD
:1044100070470000B8210020002803D0C91DC9083A
:10442000FAF723BF7047002809D001F007030122E3
:104430009A40D2B200EBD1001146FEF7A9BA7047FC
:104440002DE9F0410D46060013D0002401270EE0AF
:1044500004F0070007FA00F0C1B206EBD400FEF743
:1044600097FA10B12046BDE8F081641CA4B2AC42BA
:10447000EED32846F7E740B100EBD10001F0070288
:10448000007801219140084000D001207047F8B524
:104490000400C1F3C70501F007014FF0010000FA65
:1044A00001F0C6B20FD0605D30420CD000208DF814
:1044B00000006846FBF788FC605DB04360559DF8DE
:1044C0000000FBF7A5FCF8BD10B5044607480078CE
:1044D00000280AD02046FDF7A7FD204600F0E2FFA5
:1044E0002046BDE81040FDF7F5BA10BDB821002008
:1044F000F0B58BB0044614216846FAF7B6FE608822
:10450000ADF80400FDF7E8FDADF8020023780120C6
:104510000822072100264B4D4FF6FF770A2B6CD25D
:10452000DFE803F00510263C444E6C8D85878DF83E
:10453000001021798DF808108DF8096003968DF828
:104540000A0079E08DF8001021798DF808108DF8B7
:104550000960A16803918DF80A00A86800286BD053
:10456000A168814268D1AE60BDF80400E88013E024
:104570008DF8002020798DF808008DF80960A0687A
:104580000390E0680490A868B0B3A168814253D159
:10459000AE60E868401EE86003964DE08DF80010BC
:1045A00021798DF808108DF80900F5E78DF80020C5
:1045B00021798DF808108DF80900A06804903BE07F
:1045C00009208DF80000A878B0B13846FFF764F9EB
:1045D000B84231D13846FFF75DF9B8422CD1AE7000
:1045E000142105A8FAF741FE0B208DF81400ADF850
:1045F0001870ADF8167016E01EE020E00A208DF865
:104600000000A0680290A878B0B1AE70142105A88F
:10461000FAF72BFE0C208DF81400ADF81870ADF8E9
:104620001670A068079005A8FCF7DCFD04E00520E3
:1046300000E006208DF800006846FCF7D3FD0BB0C3
:10464000F0BD0000B82100200349097809B1FDF749
:10465000EFBD082070470000B8210020F0B52D4CB8
:10466000074687B0207838B12B49D1E90201CDE95E
:104670000501607818B10EE0082007B0F0BD2549AB
:1046800000230C311A46881F00F048F808B10528AD
:1046900001D1012060706078A168401E084301D0FC
:1046A000112534E0E088002687421CD1E068D0B1B3
:1046B000002514216846FAF7D8FD07208DF8000080
:1046C0003846FDF709FDADF8020006208DF8080018
:1046D0008DF80960ADF8047003968DF80A6068469D
:1046E000FCF780FD13E0E0680A4A401CE0600832F5
:1046F00005A93846FFF799F9050008D0A660E068DB
:10470000401EE060112D02D0862D00D003252846E2
:10471000B3E70000B8210020346302002DE9FF4F09
:104720002A4883B09946007892468B46B8B14FF636
:10473000FF763046FFF7B0F880460020009024480E
:1047400001AA062100680190CDF808D04046FFF785
:104750003FF900256C1E3746072804D017E00820D3
:1047600007B0BDE8F08F0520FAE700200090A842CE
:1047700001D305464746A04201D20446464640467C
:10478000FFF78AF8804601AA0621FFF721F9D8B180
:104790000528EAD0A8F57F41FF3901D00320DFE7E3
:1047A0000399002001B10F80BBF1000F01D0CBF8BD
:1047B0000050BAF1000F01D0AAF80060B9F1000F63
:1047C000CED0C9F80040CBE70098D0E7B821002050
:1047D0003463020070B50C48017829B10121817061
:1047E0004FF6FF75284607E0082070BDFFF72CFF45
:1047F00008B1032070BD2046FFF74EF80446A842DA
:10480000F4D1002070BD0000B8210020084A1178C2
:1048100021B1D178032903D30420704708207047C1
:10482000044B43F82100491CD17000207047000060
:10483000B8210020D42800200349097809B100F0EC
:104840008DBE082070470000B82100202DE9F043FC
:1048500085B00446012714216846FAF706FD6088F2
:10486000ADF80200504E94F800C000250720032246
:10487000317973794FF00209BCF10D0F76D2DFE880
:104880000CF0848F071A2D3E484D57646A6C8000E7
:1048900001208DF80000207908B1012200E00022FB
:1048A000012806D000256088FBF722FE60882A4692
:1048B00010E00125F7E78DF80090207908B101207C
:1048C00000E002208DF8080060880122FBF710FE4E
:1048D000227960887179FBF70BFE57E08DF8002094
:1048E00060881946FBF7F0FD08B1012000E00220C6
:1048F0008DF80800A0798DF80C00A0883EE0608853
:10490000FBF7E2FD00284BD18DF800908DF80850A0
:104910003CE08DF800208DF80850EBE78DF80000A2
:10492000A1888DF80800ADF804108DF8095034E026
:1049300008218DF80010A1888DF80800ADF804104A
:104940008DF80950A068049027E006208DF800003B
:10495000606802901AE0052014E08DF8002060885D
:104960001946FBF7B1FD10B1012001E00DE0022076
:104970008DF808008DF80C5041F20110ADF80A00D6
:1049800004E004208DF8000000E000276088FDF7B7
:1049900063FCADF80400002F02D06846FCF722FC4F
:1049A00005B0BDE8F0830000B82100200848416E42
:1049B000491E416604D107490A7822F002020A70B2
:1049C000016E491C0166042901D10021016670476E
:1049D000AC2D00204822002070B50C490446486EDA
:1049E000042811D00A6E0244042A00D3121F401C6E
:1049F000486602EB420001EBC00005461821FAF7B9
:104A000034FC0120256070BD002070BDAC2D00205D
:104A1000F0B52D4C002785B0216F41F61D56C1EB36
:104A2000C10104EB81052978072919D2DFE801F0DB
:104A3000180408080C0C10002946FDF73BFC09E09F
:104A4000294601F08DFB05E02946FCF795FA01E0C7
:104A5000FCF752FF002831D0B04202D1019710E09C
:104A60000F2001902878022801D0032809D1164888
:104A7000AA7D7830016C11440164AA7D416C891AC9
:104A8000416469462846FCF739FB6846FCF76CFB35
:104A9000206F1C21C0EBC00004EB8000FAF7E5FB9F
:104AA000606F68B194F87010491C01F00301401E5A
:104AB000C4E91C1004D00020FFF7AAFF05B0F0BD28
:104AC0000420FCF78BFDF9E7BC2C0020194830B41A
:104AD000016E01EB410100EBC104406E002827D0BC
:104AE000207A012802D0022816D10FE0A18AE08A9C
:104AF0004FF48062091A914200DA8AB2E1682369B0
:104B000001EB800103EB800029DF01E0A08928DFB1
:104B1000112806D000280BD0204630BC092100F017
:104B200065BB0549087820F0020040F004000870D9
:104B300030BC7047AC2D002048220020064810B53C
:104B40000078400707D40420FCF762FDBDE8104060
:104B50000020FFF75DBF10BD302200200549087816
:104B600010F0060F04D140F002000870FFF7AEBF4E
:104B700070470000482200202DE9F04707461E48F4
:104B80001C46154600780E46800702D40220BDE878
:104B9000F08765B15CB1DFF864804FF00009A08850
:104BA000022827D208EB00100078F8B916E005209B
:104BB000EDE720681FB181883A8891420ED11EB17D
:104BC00001883288914209D1806828602068686035
:104BD0000A482030008928810020D8E7A088214693
:104BE00000F05CF80028E4D1C4F80090A088401CD4
:104BF000A080D4E70A20CAE7302200207C2D0020C4
:104C0000F8B505464068234F0C46002638B32249C4
:104C10000A68824223D84968814220D3FDF7FEFB0F
:104C2000E8B128893989884219D1D5E900018A6813
:104C3000904214D10020A7F1200300BF03EB001223
:104C400052688A4205D202F580528A4201D92080F8
:104C500011E0401C80B20228F0D30020F8BD26806D
:104C600000960AE0009829688068884205D100987B
:104C70006860388928810120F8BD2088694600F0E5
:104C80000DF80028EED12088401C80B22080022838
:104C9000E6D3E2E79C2D00207422002070B50E467A
:104CA0000A68104901EB00151AB1508802EB800424
:104CB0000CE06C6808340AE02046FDF76FF910B18B
:104CC0000120346070BD608804EB80040C34686897
:104CD00000F58050A04202D92068401CECD1002091
:104CE00070BD00007C2D002008B500210091014618
:104CF0000123044A0448FCF78BFD002800D00E2055
:104D000008BD0000986302007422002043F6FE7183
:104D1000A0F54040884201D801207047002070472C
:104D200038B5044613480025426C42B1036C00EBD1
:104D3000C3055B1C03F00703521EC0E910320020BC
:104D40000090A08AAB8801EB80010B482A68FCF731
:104D50005FFDA18AAA881144A182A17D491E11F09C
:104D6000FF01A17501D101212174002800D00E207E
:104D700038BD0000342D0020742200200A46FF2890
:104D800003D801461046FFF782BB704770B5012675
:104D900070044FF0E0210025C1F88001084C40105C
:104DA000C4F84803C4F8080366602F20FDF7EAFF43
:104DB000A660044C2F20A560FDF7E4FFA57070BD30
:104DC000001001401022002070B50546C87D0C4639
:104DD00000284FF4847128460AD0FEF79EFAD5F8D1
:104DE0001805627EE1688854607E401C607670BD64
:104DF000FEF793FAD5F8180570BD30B58FB00024D2
:104E0000054607949DF81C001C2120F00F00401C53
:104E100020F0F00010308DF81C009DF81D0020F0EF
:104E20000F00401C20F0F00010308DF81D009DF8A0
:104E30001E0020F00600801C8DF81E006846FAF760
:104E400014FA9DF80000019440F018008DF800005D
:104E500007A8CDE904400394069428788DF83A0019
:104E60000120ADF838000D949DF83400142120F095
:104E70000F00401C20F0F00010308DF834009DF839
:104E8000350020F00F00401C20F0F00010308DF8AD
:104E900035009DF8360020F00600801C20F0080048
:104EA00040F011008DF8360008A8FAF7DEF90EA8D8
:104EB00008900DA809901720ADF82840ADF82A40B9
:104EC000ADF82C006888AB1D08AA6946A2DF0FB0B8
:104ED00030BD1FB501238DF800308DF80810019208
:104EE000D0E90012684690471FBD000010B5044687
:104EF000FAF7EAFC40B1002C09DA04F00F0000F1E7
:104F0000E02090F8140D06E042F2010010BD04F11B
:104F1000E02090F800044109082914D299B1012930
:104F200011D004290FD005290DD00B48012281682A
:104F300061B1610950F8213004F01F04A24013430D
:104F400040F8213005E042F2020010BD2046FAF799
:104F5000BEFA002010BD0000842C002070B500288F
:104F6000049D18D0002916D0002A14D05FF0000448
:104F700030F814609E420FD100200123A34008E0C6
:104F800001EB000426780DB11E4300E09E4326701D
:104F9000401C9042F4D370BD641C082CE8D370BD53
:104FA00070B5054600242146284600F00AF808B1ED
:104FB000204670BD641CA4B2082CF4D34FF6FF70D9
:104FC00070BD01228A40024201D0012070470020BA
:104FD000704730B40B4660B1002130F81140944264
:104FE00004D130BC89B21846FFF7EBBF491C082931
:104FF000F3D330BC002070472DE9F04186B08046E5
:105000004FF0000017460D00009012D000246E46AD
:10501000A1B23846FFF7D5FF40B1009935F814002A
:1050200006EB410188800098401C0090641C082C0D
:10503000EED3142269464046FAF7FEF806B0BDE802
:10504000F08108B5009313460122FFF787FF08BDE2
:105050002DE9F04105460C3086B000278046FDF76B
:105060000BF9064628884FF6FF74ADF80600A642F5
:1050700003D12888FDF7F0F80646A64212D004AA0C
:1050800007213046FEF7ACFC60B9059C94F844005B
:105090003434C00705D1414604F11200FDF778F819
:1050A00000B12746002328881A46394686DF48B1D2
:1050B000092102908DF8041001A8FCF7A9F806B0A8
:1050C000BDE8F08100245FB12888002100F07EF85F
:1050D0000094012228880023314600F04DF8EEE7C5
:1050E00006208DF8040041F20600ADF808008DF8A6
:1050F0000A4001A8FCF78CF80094002328881A467F
:10510000EAE7002835D00278910701D411062FD4A0
:10511000C2F3021104292BD8930703D5032901D127
:10512000110625D5437881788B4221D8072B1FD3D0
:1051300010291DD8C1784B071AD40079430717D41A
:105140000B0715D4030713D4D2074FEAC17201D05D
:1051500042B10FE062B989070AD4C10708D18007BC
:1051600006D407E0890705D4C10703D1800701D41D
:1051700000207047012070472DE9F047124D884606
:105180001F46164681462978089CFBF7B1F98EB177
:105190003A4669784846FBF7ABF92246A978484673
:1051A000FBF7A6F9002C0CD041464846BDE8F04775
:1051B000FDF703B8002C04D04046BDE8F047FDF7EA
:1051C00037B8BDE8F0870000C82100203EB5064C86
:1051D0001CCC8DE81C00ADF802008DF80410684668
:1051E000FCF716F83EBD00004C6302001FB500221C
:1051F0000092019202920392037A012B02D0022BB9
:1052000013D107E08DF8002002690292828AADF87E
:105210000C200AE001228DF800208289C389D21A6D
:10522000ADF808208289ADF80A2042680192006832
:105230008268684690471FBDF0B5144D8BB0E87882
:10524000FBF736F900281ED005A8FBF765F81422F5
:1052500005A96846F9F7F0FF00246F4610E000BF8B
:1052600007EB4406E978B088FBF72EF938B1B0882F
:105270002979FBF729F910B9B08800F02BF8641CE4
:105280000098A042ECD80BB0F0BD000088210020AF
:105290007CB50E490E4C0022D1E90001CDE9000198
:1052A0006946A088FEF7C1FB4FF6FF7507E0084688
:1052B000FEF7F2FAA08000226946FEF7B6FBA1884D
:1052C000A94201D01128F2D17CBD00000063020088
:1052D00094210020FEB5064601250024FCF748FE77
:1052E00011281CD005DC30B3062830D0082808D19E
:1052F0002DE0A0F54051023911D0A1F54071FF39E0
:105300002CD0092102908DF80010ADF804603046D1
:10531000FCF7A2FFADF802006846FBF74FFF2A46F4
:10532000104D3046E978FBF7E3F8224629793046FC
:10533000FBF7DEF8FEBD05208DF8000001243046A5
:10534000FCF78AFFADF80200ADF80460E4E7002541
:105350003046FCF781FFFCF737FDE0E73046FDF70C
:10536000A1FADCE7882100202DE9F0410746806A98
:1053700014468846C8B3002531E000BFB96A05EB82
:10538000450001EB8006B088801CFE2802D90C2065
:10539000BDE8F0812288401C08F80200208816220F
:1053A000401C80B2208008F800202088401C80B279
:1053B000208000EB0801308800F017FD21880844A8
:1053C00080B22080B28842B1B16871B14044F9F72F
:1053D00033FF2088B188084420806D1CEDB297F817
:1053E0002C00A842CAD80020D2E7FFE70720CFE769
:1053F00010B50F490F4C0A8A42818A8A8281097846
:1054000091B1617981B9E17971B1022101720849E3
:1054100004202031C870064800212030FAF762FDD0
:10542000002804D1052000E00320A070002010BD5A
:10543000D02300205021002010B50E490E4C0A8BBD
:1054400042818A8B82810A78042182B1627972B9A1
:10545000E27962B10222027206482030C170002156
:10546000FAF740FD002804D10620A07000E0A170EA
:10547000002010BDD02300205021002010B50020B6
:10548000FBF7E4FA08B1FAF7D5FBFBF73FFA08B1EE
:10549000FAF7D0FB32DF002803D0BDE81040FAF75E
:1054A000C9BB10BD10B500F0ABF803480078BDE8EB
:1054B0001040FDF719B90000CC210020097821B176
:1054C000002203498979FBF713B80122F9E70000AC
:1054D000CC21002010B51248FCF791F81048401C70
:1054E000FCF78DF80E48801CFCF789F80C48C01CAE
:1054F000FCF785F80A48001DFCF781F80848401DB4
:10550000FCF77DF80648801DFCF779F8044881799E
:10551000182903D00121C171002010BD032010BD46
:10552000CC21002010B500780B4C082813D2DFE8FE
:1055300000F00A0A0A0A0A0A0A046079FEF756F914
:105540006078FDF7D1F82079FEF750F92078BDE8B2
:105550001040FDF7C9B810BDCC21002070B5094D31
:1055600004000AD0FFF7CDFD48B1206828612079FA
:10557000287501202872002070BD0020FAE707205E
:1055800070BD0000CC2100203EB5044600780A28FA
:1055900033D2DFE800F0050A252525252525252518
:1055A0006088BDE83E4000F05DB914480021007AF3
:1055B00080B1124823791030007800F0010203B165
:1055C00001239A4206D36279C0F3400002B101225E
:1055D000904200D20121608801230022FCF72EFFB7
:1055E00020788DF800006088ADF80200D4E9010150
:1055F000CDE901016846FBF719FE3EBDCC21002034
:105600003EB504460088192837D00ADC112821D07D
:1056100013282AD014281CD1201DBDE83E40FFF7D6
:1056200017BD1A2839D01E2813D12E4A07CA8DE873
:105630000700A088ADF80200207A00F001008DF884
:105640000400207AC0F340008DF805006846FBF79F
:10565000DFFD3EBD207A3D2804D04FF48851A0885C
:10566000002211E041F23D01F9E700200090019095
:105670000290A088ADF80200E8E7217A201D41B130
:105680004279008802F0030203B0BDE83040FCF725
:10569000FFBFBDE83E40FAF7D5BBA088FAF744FE4D
:1056A0000028A08815D0104D6978FAF70DFF20B9B1
:1056B000A08800222978FAF71BFFA088ADF8020025
:1056C00005208DF80000A088FAF736FE8DF804005A
:1056D000BCE703B00122BDE8304041F20601FBF710
:1056E000F5BC000064630200C821002010B50D481D
:1056F000FBF77CFF0B48401CFBF778FF0948801C38
:10570000FBF774FF07480178182909D04178182958
:1057100006D08178182903D00121C170002010BD66
:10572000032010BDC821002070B516460C46054662
:10573000FAF790FE01280BD0022802D043F20200B3
:1057400070BD324621462846BDE87040FCF7C2BE17
:10575000284621467EDF70BD2DE9F04F8BB0924682
:105760000E468346FAF776FE80464FF6FF754FF0F9
:1057700000092C464F46202102A8F9F776FDB8F122
:10578000000F17D0DEB13078C0073DD05846FCF787
:1057900063FD0446A84205D1FEF718F90446A84265
:1057A00010D001276B4601220721FEF743F90500BF
:1057B0000BD03AE043F202000BB0BDE8F08F4FF09F
:1057C000850921E00325009741E050210198F9F770
:1057D0004CFD019981F800800198CDF814A0343077
:1057E000029001981830069001980199401C07908A
:1057F0001B48099058461131FCF7FEFB0721204653
:10580000FEF712FA050010D1B8F1020F02AB07D073
:105810003246494658467FDF054636B145B104E079
:105820000022494658467FDF0546009755B10EE0F5
:105830003078C00701D0012100E002215846FFF76F
:10584000C5FC0097B9F1850F01D0012200E00022CC
:10585000012321465846FFF78FFC2846ACE700009D
:10586000E02800203EB50546FAF7F4FD1E4C01285D
:1058700018D12846FCF7F0FCA0F57F41FF3911D084
:105880000122A1792846FAF733FE0020009001900A
:1058900002900C208DF80000ADF802506846FBF72E
:1058A000C5FC04E00022A1792846FAF721FE207AFF
:1058B00020B1A1792846FAF707FE88B100221146E7
:1058C0002846FFF749FF0446014601222846FBF718
:1058D000A7FE03B021462846BDE83040FBF754BC84
:1058E0000149E2681031EBE7CC2100203EB50446C7
:1058F0000078002811D1207907280ED1074A07CA5D
:105900008DE807006088FCF7E7FBADF802006088CF
:10591000ADF804006846FBF77BFC3EBD586302000F
:1059200018B10349C860002070470E20704700007E
:105930004C2200201CB5034901910091694660DFAB
:105940001CBD00002821002070B50E4605461446F7
:105950001C211046F9F789FC012020800021A1615B
:1059600020752672657205B1A072002070BDFAF72D
:105970004FB900002DE9F041074619B188074FF0F3
:10598000000402D00720BDE8F081114D4FF0E02067
:105990000126A9606A806B60D0F8000110F0010F49
:1059A00003D034460020F9F77CFD0A49384610DF61
:1059B000070005D014B10020F9F789FD3846E2E769
:1059C0002E70FDF703FBBDE8F0411620FFF78EBAFD
:1059D0004C2200206F5902000148007870470000F7
:1059E0004C22002018B103490861002070470E20A6
:1059F000704700004C22002010B50446FBF748FF1A
:105A00002046BDE81040FAF75FBB00002DE9F84FD3
:105A1000204C00256846D4E901B6FBF737FB8046E9
:105A2000FCF790FE0746A946B8F1000F25D00023E9
:105A3000009ACC46606819E007680146974202D98F
:105A4000BA1A026014E0C1F800C0D1F80C80D21B71
:105A5000C8693B448A46B8F1000F07D0F71827F011
:105A60007F47C1E90178CAF81C500D460028E3D1F0
:105A700060602846FCF7BAFE04E02846FCF7B6FE54
:105A800000B917B15846FBF785F984F80390BDE8D3
:105A9000F88F0000102200200D4B10B5596831B16D
:105AA00002680C68A24204D8A21A0A60C161586058
:105AB00010BD0B4603E00B46C969121B21B10C68EF
:105AC0009442F8D3A41A0C600260C161D86110BD81
:105AD000102200207CB5064600240D468DF80040BB
:105AE0006846FAF771F901A800F0C0F970B10570C5
:105AF000094946609DF8040048709DF80000FAF7D7
:105B000087F91420F9F7EEFC20467CBD04249DF8AB
:105B10000000FAF77DF9F7E7202200202DE9F04197
:105B20001D4D6C68002C35D01C4800270068A96802
:105B3000B846401A20F07F462068B04215D8224669
:105B4000361A0744E469107C68B182F81080EB686B
:105B500033B1D2E90501984728B1FAF76BF802E0B2
:105B6000D2E905108847002CE6D12978687881426F
:105B700006D1401CC0B26870022801D185F80180AE
:105B800005486978183040F82170BDE8F0411420CC
:105B9000F9F7A8BCBDE8F0811022002004150140EF
:105BA00070B50C4605464FF48E71FDF7B6FBA18A21
:105BB000A068415CA08A401CA082C5F81C1570BD7D
:105BC0001FB500228DF800208DF808108168019122
:105BD0008275D0E90012684690471FBD2DE9FF4746
:105BE0000C4605464FF40071FDF79DFB01274FF46D
:105BF0000178002618B34FF4927949462846FDF7FC
:105C000087FBE0B149462846FDF787FBC5F80883C6
:105C1000A07E00B96F6002208DF80000D5F88004E6
:105C2000C5F880040390E07D8DF80800E0680190DD
:105C3000E6752676D4E900126846904727E00421ED
:105C40002846FDF770FB10B34FF484712846FDF72A
:105C50005FFBE0B121462846FFF7B6F8E07D617EA4
:105C6000884214D1207E38B1617EE268E0752069F7
:105C7000E0602676667607E0A07E00B96F60C5F822
:105C80000883E675617EE2682046FFF722F94FF44B
:105C90008E7841462846FDF73BFB88B1A08AA17D5E
:105CA000884204D221462846FFF77AFF08E04146A1
:105CB0002846FDF732FBA17D11B12046FFF780FF9A
:105CC0004FF4A27841462846FDF722FB002812D067
:105CD00041462846FDF721FBA07E00B12F60E07D04
:105CE000002808D0E675617EE26804B02046BDE871
:105CF000F047FFF7EEB8BDE8FF872DE9FF410C46FE
:105D00004FF4927705463946FDF713FB0026C0B1E4
:105D100039462846FDF712FB02208DF80000D5F821
:105D20008004C5F880040390D5F83C058DF8080080
:105D3000E0680190E6752676D4E90012684690473F
:105D400024E04FF4887739462846FDF7F2FAE8B1A7
:105D500039462846FDF7F2FAD5F83C05C1B2E07D98
:105D6000884213D1207E60B1E268D5F8000220F0AD
:105D70002000C5F80002207EE0752069E0602676EC
:105D800001E0E675E2682046FFF7A3F84FF4A2773A
:105D900039462846FDF7CDFA68B139462846FDF761
:105DA000CDFAE07D38B1E675D5F83C05E268C1B2C0
:105DB0002046FFF78EF84FF4907631462846FDF7DF
:105DC000B8FA00280FD031462846FDF7B7FAA07D73
:105DD000002808D0D5F84C0504B0C1B22046BDE873
:105DE000F041FFF7EDBEBDE8FF810870000A487082
:105DF0000220704738B515494888A0F57F42FF3A20
:105E000023D04A78124C521CD2B24A70237B934260
:105E10000AD3091D75DF002817D0A169002914D005
:105E200001B0BDE83040084700254D70217C29B104
:105E30003B2176DF10B1A16901B188476169002972
:105E400003D08DF800506846884738BD7021002087
:105E5000A42400200449012282400968114201D093
:105E60000120704700207047C02400200A4A10B566
:105E700053789478591CC9B28C4200D1002114780F
:105E80008C4201D1002010BD0170506803EB43012A
:105E900000EBC10010BD0000202200202DE9FC41D4
:105EA0001646DDE90854CDE900541F46804602221B
:105EB00000F00CF8002807D1CDE900543B46102231
:105EC0003146404600F002F8BDE8FC812DE9FC5F58
:105ED0000026DDE90C4B994692468E46804627887F
:105EE000354630E0D8F80400002200EB8500694612
:105EF0000068019001A865DF002830D19DF80000FE
:105F000050451FD10EB1002100E002212288084433
:105F10001118594522D846B9521C90B2208009F870
:105F200000E02088401C20800126218801A801EB88
:105F30000902694665DF002811D120889DF800100C
:105F4000084420806D1CB8F80000A842CADC56B195
:105F50002088C01B401E80B2FF2802D90C20BDE85B
:105F6000FC9F09F807000020F9E710B501E0FAF7F7
:105F7000F9FFFBF739FC0028F9D110BD8278012127
:105F8000012A0BD0062A09D0072A06D0082A06D1F2
:105F9000416889880931890800E01421018070472F
:105FA00038B505460C46002001E00098401C0090E2
:105FB0006946284600F006F8002802D08178A14200
:105FC000F3D138BD0968094A0CE000BF01EB810339
:105FD00032F82330834204D101EB810002EB8000D0
:105FE0007047491C0829F1D300207047F42700208E
:105FF0004FF6FF710180FF2181700174417C21F017
:10600000070141740021C160416081607047000058
:1060100070B50546002406E0287C2044C1B206483D
:10602000FEF706F9641CE868A042F5D82846BDE8EA
:106030007040FFF7DDBF0000E42700202DE9F04F9E
:1060400005468FB0002006460C9043489A4690467D
:1060500000780C46800703D402200FB0BDE8F08F13
:1060600064B12088A0F57F41FF3909D0608838B13C
:10607000B4F808900027D4F804B009E00520ECE754
:106080000420EAE75BF83700FCF7C8F970B37F1C1F
:106090004F45F7D34FF00409B8F1000F28D0B8F8F6
:1060A0000000ADF80800B8F8026000BF00278DF8C6
:1060B0001C70BDF808008DF80CA0ADF81E00207A09
:1060C0008DF8220024490320ADF820004868401CC8
:1060D000486006902088ADF814006088ADF8100084
:1060E000ADF81260BAF1030F16D019E00320B4E73F
:1060F00000204A46218906E0636802EBC007401C85
:10610000DB5B33449EB28142F6D802A9304600F0F0
:10611000A5F80028A1D1C9E78DF81C90286809903E
:106120000C98ADF81600218903A86268FDF710FAF3
:1061300058B135B16F60069828600848AF72008981
:106140002881FEF7FBFC002087E7BDF808103046E9
:1061500000F07AF8082080E7302200209C2D0020F3
:106160002DE9F8430D46498A354A02EB011730B153
:10617000E9883846FDF72CFA0120BDE8F883398913
:106180007868002400EB81062D48297CEC384FF01C
:106190000E08072951D2DFE801F00D2E192804401E
:1061A0004D004460A969016025486946EC38FEF756
:1061B00027FD48B1314601232A1D22480094FBF7F0
:1061C00027FB0221297423E00A20D6E7012305F1E9
:1061D0000C0206F108011B480094FBF719FBA97D8E
:1061E00009B1032213E0012211E031462846FEF7EF
:1061F00097FD044617E0012305F10802311D1148FF
:106200000094FBF705FB2978032904D006222A74A1
:1062100070B1444608E00522F9E74068FEF764FDE6
:106220000446062028741CB1E9883846FDF7D0F9E9
:106230002046A2E741F61D54F6E70F24F4E70000DC
:106240007C2D002074220020034A02EB01114A89B0
:10625000101AC01E488170477C2D0020F0B5C01C6C
:1062600082B240F2FE30824201D30920F0BD0F4CD1
:1062700000204FF4806600BF04EB00131D7875B951
:106280001D895F8915443D44ADB2B54207D20880EF
:1062900004EB00104089104458810020F0BD401CE0
:1062A00080B20228E8D30720F0BD00007C2D00203A
:1062B00001000007111213140D0E0F1064230020AB
:1062C00084230020B02300200D0003002D090200CC
:1062D0000E0003002D0902000F0003002D0902002B
:1062E000100003002D0902008424002050EADA3057
:1062F0008883B89F604F15F30000408E01000000B6
:1063000001000100FC6202000100010010630200B4
:1063100000000000514302002D1C02009D380200C5
:10632000F1440200BF21020025550200ED58020091
:10633000011F020001000000000000000100060033
:10634000C421002089550200F91C0200020000004F
:106350000000000000000000070000000000000036
:10636000000000000100000000000000000000002C
:106370000400000000000000000000000600000013
:1063800000000000000000004D4802000000005026
:10639000642C0020030000000000FFFFDEC0ADDE23
:1063A000FF011EF1DEC0ADDEFE011EF1CC63020076
:1063B000282100205C010000C0F20100FC63020003
:1063C00084220020942B0000B8F801000663FFFF30
:1063D0000A180194C742028BC11B0C01202C18180B
:1063E00018042901018E1490D0033210133008CB09
:0C63F0001117D01A09102303FF00000051
:040000050001F20103
:00000001FF
