:020000022000DC
:102000000000042059220200B1220200B322020083
:10201000B5220200B7220200B9220200000000002F
:10202000000000000000000000000000BB220200D1
:10203000BD22020000000000BF220200C1220200F7
:1020400041530200C7220200A15C0200CB22020021
:10205000CD220200CF2202005D560200D3220200F0
:10206000D5220200D7220200D9220200DB22020080
:10207000DD220200DF220200E1220200E322020050
:10208000E5220200ED300200E9220200EB2202000C
:1020900089310200EF2202001DA70200F322020094
:1020A000F5220200F7220200F9220200FB220200C0
:1020B000FD220200FF220200C3220200C32202000E
:1020C000012302000323020005230200072302006C
:1020D000092302000B2302000D2302000F2302003C
:1020E000112302001323020015230200172302000C
:0820F000C322020019230200C3
:1020F800364937480A1A02D0072291438D46354996
:1021080035480A1A06D00722914381F3098802222A
:1021180082F3148831483249324A00F045F832488F
:102128003249334A00F040F832483349334A00F024
:102138003BF833483349344A00F036F833483449D9
:10214800344A00F031F834483449354A00F02CF864
:1021580034483549354A00F027F8354835490022D2
:1021680000F02DF834483549002200F028F83448AA
:102178003449091A082903DB00220260043001608F
:10218800314A90471F482049884205D002680430E8
:1021980003B4904703BCF7E700208646EC460020CE
:1021A80000212A4A9047FEE7884207D0521A05D0F4
:1021B800037801300B700131013AF9D17047884238
:1021C80002D002700130FAE77047000000000420D6
:1021D80000F80320000004200000042014BC0200C2
:1021E800B4210020F42100201C2302001C2302003B
:1021F80068AC020014BC0200B4210020B421002005
:10220800D0AD0200D0AD0200D0AD0200D0AD0200CA
:10221800D0AD0200D0AD0200D0AD0200D0AD0200BA
:1022280014BC020054BC0200F4210020F421002058
:10223800F4210020973000209830002098300020AA
:1022480098300020983200207D220200616602004A
:102258000F484FF00701884385460E4880470E48CF
:10226800016841F470010160BFF34F8FBFF36F8FB6
:10227800FFF73EBF09480A490A4A884207D0521A5E
:1022880005D0037801300B700131013AF9D170475C
:102298000000042095A3020088ED00E044AD020090
:1022A80028210020B4210020FEE7FEE7FEE7FEE734
:1022B800FEE7FEE7FEE7FEE7FEE7FEE7FEE7FEE7EE
:1022C800FEE7FEE7FEE7FEE7FEE7FEE7FEE7FEE7DE
:1022D800FEE7FEE7FEE7FEE7FEE7FEE7FEE7FEE7CE
:1022E800FEE7FEE7FEE7FEE7FEE7FEE7FEE7FEE7BE
:1022F800FEE7FEE7FEE7FEE7FEE7FEE7FEE7FEE7AE
:10230800FEE7FEE7FEE7FEE7FEE7FEE7FEE7FEE79D
:04231800FEE700BF1D
:10231C00F0B595B01C4608460D46164602F0A3FDD6
:10232C001A9B099400240D930822234605A92846DC
:10233C0008960A948DF82C400C9402F0E0FD079B53
:10234C000293069BADF80C309DF814308DF81040BC
:10235C0003F00302012A21D1BDF81440059EC3F3FA
:10236C00C202C4F38314C3F380038DF80E208DF8DE
:10237C000F30A20008230EA9284602F0C0FDC6F3B8
:10238C00952608AB0093224602AB0EA9304600F00E
:10239C0067FB284602F074FD15B0F0BD022AF8D197
:1023AC00BDF81640C3F3C202C3F38003C4F389140F
:1023BC008DF80E208DF80F300827082C264628BFE4
:1023CC0008263B4632460EA9284602F098FDA41B6F
:1023DC0008AB02AA31460EA8374400F0A7FB002C2C
:1023EC00EBD1D6E7014B01221A7070473522002041
:1023FC007047000070B50E4D06460FCD88B06C4688
:10240C000FC495E80F0084E80F0008A9002E4FF0C8
:10241C000603084A41F8203D08BF0022064803F095
:10242C0075FA08B100F074FD044B1E7008B070BD55
:10243C00D0AD0200F1230200B4210020F4210020D1
:10244C0008B5044803F026FB0020BDE80840FFF760
:10245C00D1BF00BFB421002007B5044B0093044A40
:10246C004023FFF755FF03B05DF804FB8124020005
:10247C00F521002010B5084C08480023D2B2237077
:10248C0003F084FB08B100F043FD054B1A7812B140
:10249C002378002BFBD010BD35220020B421002066
:1024AC00F42100200120FFF7A5BF000010B5054C5A
:1024BC00FFF7F8FF0421204600F056FA012363725F
:1024CC0010BD00BFBC2100202DE9F04F85B00446A3
:1024DC0004A8002500F80D5D0E4601F03BF83C4BBE
:1024EC001A68326098685A681E6802440132B71C38
:1024FC00921B04F1040803F5836C012103F2144EC2
:10250C00424509D39DF803003C441C6001F046F899
:10251C00012005B0BDE8F08F5CE8002F42EA01090C
:10252C004CE8009A9AF0000FF6D15EE8002F42EAD0
:10253C0001094EE8009A9AF0000FF6D15A6800EAA9
:10254C00020909F1030903EB890999F800A01AF0B3
:10255C00030F2AD000EA020903EB89090232D9F8E9
:10256C000C90CDF8049009F00309B9F1010F28D0B3
:10257C00B9F1020F07D1BDF80690C9F3891909F119
:10258C00030902EB99025EE8009F09EA050A4EE88E
:10259C0000AB9BF0000FF6D1B9F1000F00D05A60E0
:1025AC005A6802440132921BAAE7B9F802A0B9F8A2
:1025BC000090C9F3891909EB9A1909F101094A44E8
:1025CC00BDE7BDF80490C9F383194A44DBE700BFAB
:1025DC003822002038B50F4B0F48FF229A6000229A
:1025EC00C3F818241A605A60C3F8142483F81C2406
:1025FC0002F0F0FB40B9094A094B0A4C9B1ADB0864
:10260C0002460C219A4200D138BD01FB02F52A5337
:10261C000132F7E738220020FCAD0200CCAC0200FE
:10262C001CAD02002821002070B50B4C81B10B4A67
:10263C000B4D121BD20800230C219A4201D1002011
:10264C0070BD01FB03567688864202D00133F4E755
:10265C00034654F8330070BDCCAC02001CAD020034
:10266C0028210020064B032903EBC00003D00429CA
:10267C0003D000207047007970474079704700BF45
:10268C00CCAC0200034B58681B68C31A5842584123
:10269C00704700BF382200202DE9F04F85B0FFF7BE
:1026AC00F1FF002840F0D1806E4DC5F81804BFF33F
:1026BC004F8F6B68AC6804EA0302033205EB8202AD
:1026CC00117889075BD004EA03029E1C013305EBE9
:1026DC008202234005EB8303D268DB68029302F08D
:1026EC000303022B01925BD1BDF806305E48C3F3A5
:1026FC008919B9F1500FCA46A8BF4FF0500A6AF3B6
:10270C008F130AF10801ADF8063002F07BFB80460E
:10271C0000287CD024EA0607013702F0A4FBBF0096
:10272C000023082201A9404602F0BEFBBA452FD96E
:10273C00002F00F08C805FFA87FB04EA060103315E
:10274C00AAEB0B0A494F05EB81015FFA8AFA0823C1
:10275C005A46404602F0A8FB37B10BF1080352462B
:10276C003946404602F0A0FB09F1030906EB990635
:10277C00D5F81834002B47D1D5F8104452E05188C5
:10278C001288C2F3891202EB91120132134492E7C0
:10279C0004EA060103310823524605EB8101E0E708
:1027AC00012B34D1BDF804302F48C3F38311062913
:1027BC0028BF062161F3891302318900ADF804307A
:1027CC0002F020FB804610B302F04DFB00230822E0
:1027DC0001A9404602F068FB0027BDF80420C2F3B3
:1027EC008312BB1C97424FEA8303C1D204EA060151
:1027FC00033106F10109042205EB8101404602F088
:10280C0053FB01374E46E8E7404602F039FBFFF731
:10281C0039FF80F00100C0B205B0BDE8F08F637ADB
:10282C00D3B96468002CFAD1404602F029FB04A805
:10283C0000F80D4D00F08EFED5F8183403B96E601B
:10284C009DF8030000F0AAFEE1E70020E4E75FFA40
:10285C008AFB0649BA467AE7236841461B6820463C
:10286C009847DEE738220020FCAD0200442200200D
:10287C002DE9F347294C06468A46184601A990468D
:10288C001F46D4F80890FFF71FFE214630B991F887
:10289C001C34002B3CD102B0BDE8F087019C09EA46
:1028AC0004050335012211F8253062F30103C6F348
:1028BC00001262F3820366F3C50301F8253031F888
:1028CC00253067F3891321F8253051F825306AF348
:1028DC009F2341F82530A51C013404EA090401EBBF
:1028EC008404360C0022E66001951446BC4204EBCD
:1028FC00050303D1002ACAD00193C8E709EA0303F0
:10290C0001EB830358F82420DA6001340246EDE72A
:10291C00FFF7C2FE0028FBD1BDE700BF3822002024
:10292C0000231A46FFF7A4BF13B502AC012344F8E9
:10293C00042D2246FFF79CFF02B010BD07B58DE8B1
:10294C000C0002236A46FFF793FF03B05DF804FB0B
:10295C001FB50293069B0192039301AA0323FFF771
:10296C0087FF05B05DF804FB0F4A30B5D2F8104470
:10297C000023214641B90372D2F810444CB9C2F875
:10298C0010044160184630BD0D7A9D4205D049684F
:10299C00F0E7626842606060F4E701330A2BE8D12B
:1029AC004FF0FF33EEE700BF38220020084A38B55D
:1029BC000123D2F8104482F81C341D4604B938BDEA
:1029CC002368657220465B6898476468F6E700BF29
:1029DC0038220020C37910B50C467BB9037A23B199
:1029EC00084A0949204601F025FE0849204601F015
:1029FC0021FE2046BDE8104001F011BE002AF8D09F
:102A0C00F3E700BF47AE02004CAE02004FAE02002F
:102A1C0070B5037A04460D4653B181798088FFF76F
:102A2C0021FE0B4B0B4953F82020284601F002FEE7
:102A3C00A279094BA08853F822600021FFF7F4FD1E
:102A4C003246034605492846BDE8704001F0F2BD08
:102A5C0014AE02004CAE02005CAE020052AE02009C
:102A6C002DE9F04385B01F460C9D002395F80C9082
:102A7C002B73FB7906460C4690461BB92946384603
:102A8C00FFF7C6FFB8F1060F09D8DFE808F004120B
:102A9C00181F283340003146284601F0CBFD002298
:102AAC0029463846FFF796FF85F80C9005B0BDE82F
:102ABC00F08322683146284601F0BCFDEFE794E82C
:102ACC000C003146284601F0B5FDE8E7A3680093F9
:102ADC00314694E80C00284601F0ACFDDFE7E368D2
:102AEC000193A3680093314694E80C00284601F04A
:102AFC00A1FDD4E723690293E3680193A3680093D3
:102B0C00314694E80C00284601F094FDC7E7636950
:102B1C00039323690293E3680193A36800933146FE
:102B2C0094E80C00284601F085FDB8E708292DE94A
:102B3C00F84F80460F4616461C4639D893F80C9031
:102B4C0000232373D3791BB921461046FFF760FF8E
:102B5C00DFF87CA0DFF87CB00025AF422AD918F84A
:102B6C0005205946204601F065FD0135082DF4D1AC
:102B7C001549DFF864B0204601F05CFD0025AF423A
:102B8C001DD918F805A0504607F0B4FF002814BF53
:102B9C0052462E225946204601F04CFD0135082D97
:102BAC00EDD1012221463046FFF714FF84F80C903A
:102BBC00BDE8F88F5146204601F03CFDD5E70349AE
:102BCC00204601F037FDE9E742AE020040AE0200BC
:102BDC003EAE020038AE020044AE0200074B1B5C56
:102BEC001F2B8ABF064A4FF0A04203F01F03D2F8F6
:102BFC000405D840C04300F001007047C7AE020086
:102C0C0000030050074B1B5C1F2B86BF03F01F03F8
:102C1C0005494FF0A041012202FA03F3C1F80C352B
:102C2C00704700BFC7AE020000030050074B1B5C8F
:102C3C001F2B86BF03F01F0305494FF0A041012253
:102C4C0002FA03F3C1F80835704700BFC7AE0200A3
:102C5C000003005008B50020FFF7E8FF0120FFF744
:102C6C00E5FF0220FFF7E2FF0320BDE80840FFF775
:102C7C00DDBF08B50020FFF7C5FF0120FFF7C2FF3D
:102C8C000220FFF7BFFF0320BDE80840FFF7BABFE3
:102C9C000A4B185C1F288ABF094B4FF0A04300F069
:102CAC001F00D3F804250121814021EA02000A40CB
:102CBC00C3F80805C3F80C25704700BFC7AE020067
:102CCC000003005030B40B4C0B4D00220320135D5D
:102CDC001F2B86BF03F01F0329464FF0A04103F5BD
:102CEC00E0730132042A41F82300F0D130BCFFF725
:102CFC00B1BF00BFC7AE020000030050074B1B5C06
:102D0C001F2B8ABF064A4FF0A04203F01F03D2F8D4
:102D1C001005D840C04300F001007047C3AE02005C
:102D2C00000300500B2809D00C2809D0182809D012
:102D3C0019280CBF03204FF0FF307047002070475C
:102D4C000120704702207047014B185C704700BF90
:102D5C00C3AE02002DE9F84F1D4FDFF880801D4EE9
:102D6C004FF000093B785FFA89F5AB4201D8BDE81A
:102D7C00F88FD8F800B033681BF83500012404FA3A
:102D8C0000F21A420BEBC50A1ED023EA0203336091
:102D9C0002F04EFC104A1BF8353012689C4014406F
:102DAC0000FA03F294420FD1DAF8044064B19AF8B5
:102DBC000120551E6A426A41A2EB000EDEF10001B1
:102DCC0041EB0E011846A04709F10109CAE700BF03
:102DDC0028270020542700205027002058270020A7
:102DEC0070B50646124800F0A5FBF8B9114A01244B
:102DFC001368B4401C42154615D1304602F018FC3D
:102E0C000D4B1A6860B122431A602B6808481C43AA
:102E1C000A4B2C6000221968BDE8704000F044BBDE
:102E2C0022EA0402F0E723EA0404146070BD00BF38
:102E3C003027002054270020502700202C2700206A
:102E4C00042A2DE9F34106460C46154638D902F002
:102E5C0031FBB8B11B4B1C4A1E601C4B1C4F1C7029
:102E6C001C4B1D60002515601B4A013C1560E4B22B
:102E7C004FF00308FF2C0CD1184A1948002100F020
:102E8C0001FB03E002F0EAFA0028E3D002B0BDE84F
:102E9C00F08123B206EBC30201A992788DF80520CC
:102EAC0016F833008DF804803A468DF806508DF8EC
:102EBC00075002F009FB013CE4B20028DAD0E5E748
:102ECC000720E3E758270020502700202827002060
:102EDC00ED2D02002C27002054270020612D02002C
:102EEC00CCAE020070B5084D084E00242B789C42E5
:102EFC0001D3002070BD3368012113F8340002F0B7
:102F0C004FFB0134F2E700BF282700205827002090
:102F1C001FB50021039001AA44F20100ADF8041082
:102F2C00029100F003F805B05DF804FB10B5FFF753
:102F3C003DFDFFF7B1FB0028FBD1104C1049208858
:102F4C00000440F00100FFF7EBFC0E4B1B68DB07A5
:102F5C0000D5FFDE20880C49000440F00200FFF78A
:102F6C00DFFCBFF34F8F0949094BCA6802F4E062DA
:102F7C001343CB60BFF34F8F00BFFDE72821002028
:102F8C00D0AE0200F0ED00E0DCAE020000ED00E09F
:102F9C000400FA05094A537891780133DBB299425F
:102FAC0008BF0023117899421FBF03705078182373
:102FBC0003FB002014BF0430002070475C27002066
:102FCC0073B5054602A8002400F8014D0E4600F02A
:102FDC00C1FA0DF10600FFF7DDFF90B106700A4B48
:102FEC009DF8062045605A709DF8070000F0D6FA4F
:102FFC0024B9064B4FF48012C3F80021204602B0CE
:10300C0070BD0424F0E700BF5C27002000E100E065
:10301C00204B21491A682F2300BF00BF00BF00BFFF
:10302C0000BF00BF00BF00BF8A422FD000BF00BF4F
:10303C0000BF00BF00BF00BF00BF00BF00BF00BF8C
:10304C0000BF00BF00BF00BF00BF00BF00BF00BF7C
:10305C0000BF00BF00BF00BF00BF00BF00BF00BF6C
:10306C0000BF00BF00BF00BF00BF00BF00BF00BF5C
:10307C0000BF00BF00BF00BF00BF00BF00BF00BF4C
:10308C0000BF00BF00BF00BF00BF00BF013BC3D1EA
:10309C00704700BFDC2100200024F4000C4B0D48CD
:1030AC004FF4003210B5C3F8802001244FF4803364
:1030BC00C0F84833C0F808334460FFF7A9FF064B4B
:1030CC00846000201860FFF7A3FF044B187010BD3C
:1030DC0000E100E000100140782800206928002061
:1030EC00F8B51F4B1F491B680025C1F84051C1F8AA
:1030FC004451C1F84851C1F84C51C1F80051C1F8C4
:10310C0004514BB3D1F8044517490968641A24F0EB
:10311C007F442F461A68A24209D8A41A15441A7C77
:10312C00DE691AB11F745A6998699047AEB90F4B92
:10313C000F4A197813788B4205D10133DBB2022B7D
:10314C0008BF0023137012780A4B43F822500A4B25
:10315C004FF48012C3F80021F8BD3346DAE700BF04
:10316C007C280020001001407828002074280020C2
:10317C00752800206C28002000E100E02DE9F74FB5
:10318C009C4A9D49137809789C4D994258D001333B
:10319C00DBB2022B08BF0023137099491278994BAC
:1031AC000F6853F822003B1823F07F4300220B607A
:1031BC002B6814461646964613B942B12B6006E0AE
:1031CC00196881422AD902B12B60091A19600127AA
:1031DC002B688D4EDFF83CA201934FF00008002CB9
:1031EC0064D02046E469864BD0F804E01A68AEEB54
:1031FC00020323F07F41854B9942836800F2B5802E
:10320C000B440360002343608360C3612B6801227D
:10321C000274002B40F0B2802860E0E7401A0E44A4
:10322C00D968C3F800E0D3F81CC031B1BA1922F048
:10323C007F42DC615A6099601C4663460122BBE701
:10324C0000242746C4E7531CB178DBB29942337093
:10325C004FF0180303FB026208BF347013799068B7
:10326C00022B1BD0032B11D0012B1FD1017CE9B9F0
:10327C00D3684360136983605369C3609369836146
:10328C00634B1B78002BAED04160ACE700232C685D
:10329C001A46002C65D14BB12C6007E0D5F800B074
:1032AC005B46D946002B57D10023037432787378D0
:1032BC009342C8D1B8F1000F05D12B68019A9A42FC
:1032CC0001D1002F42D02B68002B72D0D3F8009084
:1032DC00504C4B4BD4F8046518684F4F351A3B785B
:1032EC0025F07F4503359BB94FF48033C4F8443344
:1032FC00C4F80433494B4FF400324FF00108C3F8C3
:10330C0080211A60C4F80080FFF782FE87F80080E5
:10331C00A9452CBF4844401920F07F40C4F8400513
:10332C00D4F804359B1B23F07F43801B033320F020
:10333C007F4083420AD9D4F80435C4F84035FFF7EE
:10334C0067FE364B4FF40032C3F80021304B00229D
:10335C001A7003B0BDE8F08F98422DD09946DB6906
:10336C00A0E722740123E46993E7A2EB0E0222F09A
:10337C007F429A4234BF9B1A002342E702681968C5
:10338C008A420BD88A1A1A60C36145E7521AD96966
:10339C009E4661B90260C161D86120E79E461968FA
:1033AC009142F3D3891A196019467346F2E70B461A
:1033BC00F5E7FFF773FEC9E748450CD1DBF81C3085
:1033CC002B6043B90E490122CAF808200B60104B40
:1033DC001A70FFF71DFEC2690368C9F81C2012B1F0
:1033EC0011680B4413602B689B4518BF4FF0010804
:1033FC005AE700BF74280020752800207C28002084
:10340C00782800206C2800205C270020FEFF7F001D
:10341C0068280020001001406928002000E100E02D
:10342C0008B5FFF73BFE114B00200B2218709A7069
:10343C0058700F4B18600F4B18700F4B18700F4BC8
:10344C004FF48012E021C3F8802183F814131A6022
:10345C0002F18042A2F56F22C2F8080583F811131D
:10346C00074BD2F804251A6008BD00BF5C2700206A
:10347C007C280020742800207528002000E100E042
:10348C0078280020074B9B784BB132B128B10368E8
:10349C00187C20B959745A6170470720704708206E
:1034AC00704700BF5C2700202DE9F7431E4FBB7807
:1034BC0005460E469046ABB3A0B3042930D94369F8
:1034CC0083B3437C02A80024012B00F8014D0CBFF0
:1034DC008946A14600F03EF80DF10600FFF75AFDB3
:1034EC00E0B101230370114B4560D3F804358360C0
:1034FC009DF80630C660C0F81090C0F814807B7040
:10350C009DF8070000F04AF824B9094B4FF48012DB
:10351C00C3F80021204603B0BDE8F0830424EFE794
:10352C000724F7E70824F5E75C270020001001408A
:10353C0000E100E0064A92783AB130B1426922B11A
:10354C00002202740221FFF73BBD0820704700BF28
:10355C005C27002070B5EFF3108672B60C4A9468A5
:10356C0001239CB993600B4B0B4DD3F88010294071
:10357C001160C3F88050D3F8841051604FF0FF32C3
:10358C00C3F88420047006B962B670BD0370FAE704
:10359C008028002000E100E0FC06FFBD084B9A6883
:1035AC0010B55AB150B9EFF3108272B605491C68C8
:1035BC000C605C684C60986002B962B610BD00BFCC
:1035CC008028002000E100E070B5064E054600247E
:1035DC0056F824300BB1284698470134042CF7D107
:1035EC0070BD00BF98280020033080B240F2FD333C
:1035FC00984230B51FD8124B1A783AB95C891D899C
:10360C002C440444A4B2B4F5806F0AD31A7DA2B939
:10361C009A8BDC8B2244024492B2B2F5806F0CD2AE
:10362C0001220A801446142202FB04335A891044E6
:10363C005881002030BD092030BD072030BD00BFAF
:10364C00CC2800200B4A0C4B5188142000FB013174
:10365C00CB6833B90420496810700122074801F087
:10366C00DEB905230649137002238B800122002347
:10367C000968F3E7B0280020CC280020A021002006
:10368C009429002007B5002305490093054A0968D1
:10369C000548082301F08DF903B05DF804FB00BF69
:1036AC0094290020F8AE0200A021002007B50023C9
:1036BC00009301460823034A034801F07AF903B04A
:1036CC005DF804FBF0AE0200A021002013B500232E
:1036DC000C46009301460423074A084801F069F997
:1036EC0038B9074B142202FB04340123237402B0B3
:1036FC0010BD0E20FBE700BFECAE0200A0210020A5
:10370C00CC28002037B50A480A4B42689C881968B7
:10371C0053880325033305709BB2002000909B0057
:10372C0001EB8401044801F044F903B030BD00BF43
:10373C00B028002094290020A021002010B50146BB
:10374C00044800F0A4FE1C220446002107F022FAD3
:10375C00204610BD802900204388033300EB8303EF
:10376C00994209D382884FF6FF739A4206D000889B
:10377C00B0FA80F040097047022070470120704772
:10378C002DE9F8430223DFF864800B800D461746C1
:10379C0000F5805600F108044FF00109B44222D222
:1037AC00236801331FD031462046FFF7D5FF48B1BF
:1037BC000FB187F8009002280BD14FF480632B8057
:1037CC00BDE8F883A368D8F80020934201D9C8F863
:1037DC0000302B886288033313442B8063880333B7
:1037EC0004EB8304DAE7BDE8F88300BFC4280020AB
:1037FC00144A142303FB002070B50B6844680D4673
:10380C0004F5805653B15C88033403EB8404A64260
:10381C0002D9236801330BD1002070BD0834F6E7C0
:10382C002C60012070BD6388033304EB8304EEE746
:10383C0031462046FFF790FF0128F4D0F0D3022840
:10384C00EAD0E4E7CC280020436873B505460C4663
:10385C006BB3254AD1688B4229D31269934226D87F
:10386C0013F0030223D121490089098988421ED112
:10387C002868996888421AD11D494868834203D93F
:10388C0000F5805083420ED38A6993420DD902F51C
:10389C008052934209D2012323800020B0FA80F099
:1038AC00400902B070BD1346F6E70A20F6E7002384
:1038BC0023801E462388012B01D90020F1E70196B5
:1038CC0001A92088FFF794FF18B9238801332380BE
:1038DC00F0E7019B2A6899689142F1D16B60034B28
:1038EC001B892B81DDE700BFA0210020B028002020
:1038FC00CC2800202DE9F8431C461E4B1B780646AD
:10390C000F4615467BB38AB384B3DFF870804FF053
:10391C001409A388012B02D90A20BDE8F88309FBFE
:10392C0003F318F803302BB92146A088FFF760FF8A
:10393C0020B92060A3880133A380EAE723681EB175
:10394C00998832889142EFD147B99A6885E80C0082
:10395C00094B1B892B810020BDE8F88319883A8814
:10396C009142E1D1F1E70220BDE8F8830520BDE8E2
:10397C00F88300BFA8280020B0280020CC28002005
:10398C0008B5074B191D5888FFF732FF18B1BDE871
:10399C000840FFF7B7BEBDE80840FFF753BE00BFB5
:1039AC00B02800202DE9F047A64EDFF8BC8288B085
:1039BC0004463746336823B94146A34800F0A1FDBD
:1039CC0030603D682A78531E052B00F2DF81DFE85A
:1039DC0013F0060073007300F400F4004F0124B1DF
:1039EC009A4B00225A60012425E02B79032B1ED818
:1039FC00DFE803F016023C4795490B78022B08468A
:103A0C0032D00B7D022B4FF0010340F013821422B5
:103A1C005343C2180020C8545068FFF747FE03E018
:103A2C0001232B71FFF72EFE002800F0C080874B7E
:103A3C0000225A600E241422002103A807F0AAF8D1
:103A4C0041F61D539C423B681A7808BF0024013A8A
:103A5C000494052A00F2AE81DFE812F09A019E016F
:103A6C00C401D401E001EA010023D0E779497A4886
:103A7C00002302222B718A800122096800F0CFFFFB
:103A8C00D2E7744C4FF0000985F804902068704D13
:103A9C00FFF70CFE714BD4F800E05A881423534303
:103AAC00EA1805F8039051682160A188C2F804E077
:103ABC0011810222A280B7E7B5F81490DFF890A12B
:103ACC0014236CB103FB09A3EA881889D11C0144A7
:103ADC001981C2F57F425989FD320A445A8182E725
:103AEC0003FB09A319895C68AB7D04EB8104062BED
:103AFC0005D8DFE803F01F452D3B14515F000F2460
:103B0C00142303FB09A3EA881889D11C01441981E9
:103B1C00C2F57F425989FD320A445A818BE75048DD
:103B2C00504900234360AB690360FFF78DFE00280A
:103B3C0000F02A810223AB75002300930423EA18BA
:103B4C002146454800F035FF002830D00E24D7E739
:103B5C002B69002B14BF03230123AB7500230093A7
:103B6C0005F10C02042304F10801EAE70123AB750B
:103B7C000022EB8800929B002A6904F10C01E0E71B
:103B8C00032A0CBF05230623AB75002300930423E3
:103B9C0005F10802E118D4E70623AB75314B1988FF
:103BAC002F4B5868FFF792FD04460028A8D108B0A7
:103BBC00BDE8F08741F61D54A2E7002C7FF413AF4B
:103BCC002B79012B23D005D3022B41F61D5418BFA2
:103BDC000F2430E702232B71039404940594EB68B3
:103BEC0003930DF10A0103A8FFF72EFE002800F045
:103BFC00CB800498BDF80A108388EB8003882B8156
:103C0C00FFF764FD0446002C7FF415AFCFE7DFF817
:103C1C005C9021464B4603AAA81DFFF76BFE044699
:103C2C0050B9B9F804100498FFF750FD04460A2C5B
:103C3C00E9D141F61D54FEE608220021484606F063
:103C4C00A9FFF4E7C828002080290020A82800201C
:103C5C00CC28002094290020A0210020B02800208E
:103C6C008C280020A0290020C0280020A429002096
:103C7C00002C7FF4B8AE724B1A7B5AB11C731A78B5
:103C8C00013A062A00F28280DFE802F0495E66699A
:103C9C00806C77001A78072AF1D801A151F822F02C
:103CAC00CD3C02008B3C02008B3C0200F33C02003A
:103CBC00073D0200273D0200273D0200EF3C0200B9
:103CCC001A89604901321A8100225A801A730A78C3
:103CDC00B2FA82F252099A720A7DB2FA82F252094F
:103CEC00DA72012207E0584958688A884088033202
:103CFC0002448A8002221A70C1E7524C5A885249F7
:103D0C00142505FB024208685468506088881081AD
:103D1C0002228A800C600622EDE70722EBE79A7AF2
:103D2C0032B1484900229A72CA680AB9097C51B961
:103D3C00DA7A62B10022DA72424A116A39B992F81F
:103D4C00242022B101225A80FFF71AFE5AE70022E2
:103D5C001A705A805A606CE7FFF7D4FC52E7FFF7F1
:103D6C0071FC4FE706221A70364A5B88142101FB5E
:103D7C0003235868FFF79AFC44E707221A700022C5
:103D8C005A60FFF77FFC3DE70A2454E60F2452E605
:103D9C0000238DF80C300DE001228DF80C201A89CF
:103DAC00ADF818209A88ADF81A20DB68059300232B
:103DBC008DF81C3003A8FFF707FC0023414623486D
:103DCC003B6000F0C9FB0122214B53E8000FA0EB34
:103DDC00020143E8001595F0000FF6D100297FF49D
:103DEC00E9ADE4E602228DF80C201A89ADF8182012
:103DFC009A88ADF81A20DA6805929B7D9A1F534277
:103E0C005341D5E703228DF80C20DA88ADF8182041
:103E1C001A89ADF81A20DB680593CBE704228DF8DC
:103E2C000C20DB88ADF818300023ADF81A30F3E71E
:103E3C000523AEE7074A137000235360F9E600BF71
:103E4C00B0280020CC2800209429002080290020B4
:103E5C0090290020A82800204068FFF7A3BD00008F
:103E6C0010B40122084B53E8000F00EB020143E8A9
:103E7C00001494F0000FF6D118B95DF8044BFFF75D
:103E8C0091BD5DF8044B7047902900202DE9F3415A
:103E9C009846374B1B7806460D46002B60D0002900
:103EAC0060D009884FF6FF7399425DD06B88002B68
:103EBC005AD06B689B0759D14AB92F890DF1020171
:103ECC003846FFF791FB30B102B0BDE8F0811388A2
:103EDC005788ADF8023001A8FFF730FC044658B9FA
:103EEC00BDF80230234A142101FB032358890338FF
:103EFC00C01B58810820E7E700238375BDF802300A
:103F0C0083826B68036180F8008001221A4B53E8AE
:103F1C00000F00EB020143E8001E9EF0000FF6D1EB
:103F2C00E1602B8823816B88A380B8F1030F04BF59
:103F3C000423A375E78004BF3368A3610025658162
:103F4C0001A90E4800F0CDFA36B17560E368336014
:103F5C000B4BB5721B893381FFF782FF0020B3E74F
:103F6C000220B1E70520AFE70420ADE70320ABE763
:103F7C00A8280020CC280020C4280020802900205C
:103F8C00B02800200B4B1A68042A10B50FD0196802
:103F9C00094A42F82100012253E8001F01EB0200FC
:103FAC0043E8000494F0000FF6D1002010BD0C2063
:103FBC0010BD00BF9C290020982800202DE9F04F4F
:103FCC0089B01422002103A806F0E4FD7E4A137880
:103FDC00904603F0FF0A3BB103A8FFF7F5FA002661
:103FEC00304609B0BDE8F08F131D012253E8004F95
:103FFC0044EA020143E8001090F0000FF6D100945F
:10400C00002CECD14FF010234FF080525B691169FA
:10401C005269DFF8E091581C08BF02FB01F3C9F8A4
:10402C0010300022A3F540536849C9F80C304846BB
:10403C0000F0B6FC06460028D2D11C238C22644921
:10404C00644800F0EFF9354637464FF0030B344621
:10405C00CDF80490019BDA68B8180BD0BA585E4BB7
:10406C009A4207D142685D4B9A4200F085805C49C8
:10407C008A425FD0021F00F6FC7152F8043F0133F4
:10408C0040F093808A42F8D1564A116829B902212E
:10409C00106091804FF0010A0EE014226243524BE3
:1040AC004FF0020C991803F802C0504A4860548033
:1040BC000134A1F808C0A4B245F0010507F58057FA
:1040CC00B7F5405FC6D1009BBBF1010F88BF2B46F3
:1040DC00DDB2022D02D0062D02D05DB90B267FE792
:1040EC00012388F8003003A80023C8F80430FFF738
:1040FC006BFA75E702A8FFF721FBC8B10123013D5C
:10410C0003700A2D09D8DFE805F006080608070831
:10411C0007080F110F000023037102A92D4800F0AE
:10412C00E0F9FFF79DFE5BE70323F5E70223F3E7D6
:10413C00082655E7DFF8AC90BAF1000F0ED02A4BE9
:10414C001422624399184FF0020E03F802E0013476
:10415C00D9F800204A60A1F808E0A4B20022244952
:10416C00C9F80000FFF70CFBB9F80420022A14BFB1
:10417C00082204221543A1E71B494FF0140E0EFB35
:10418C0004FE01EB0E024FF0000C01F80EC0506063
:10419C000EF110020EF1080E0A447144FFF7F0FA0A
:1041AC0045F002050134A4B288E70F49142262439A
:1041BC0001EB020E0BF1FF33CEF8040003201FFAC3
:1041CC0083FB8854EEE700BFA828002024AF020030
:1041DC00F428002080290020DEC0ADDEFE011EF197
:1041EC00FF011EF194290020CC280020B0280020CB
:1041FC0098290020A0210020F7B50C460546F0B107
:10420C00E9B10DF10601FFF71FFBD0B1BDF8063087
:10421C000D4A6968142000FB03230C33012253E878
:10422C00000F00EB020643E8006797F0000FF6D191
:10423C0021600C3161600020AA7203B0F0BD052032
:10424C00FBE70A20F9E700BFCC28002013B5044691
:10425C00A8B10DF10601FFF7F7FA90B10B4ABDF8C2
:10426C000630142101FB0323DA6862B1A27A52B141
:10427C00DA680020013ADA60A07202B010BD0520A5
:10428C00FBE70A20F9E70620F7E700BFCC2800205F
:10429C000B4B1B7837B504460D4663B168B10DF175
:1042AC0006012846FFF7A0F918B9BDF8063023809F
:1042BC00658003B030BD0220FBE70520F9E700BFA5
:1042CC00A8280020104B1B7810B5B3B1B8B10288E8
:1042DC00022A16D80D494388142404FB02129C1C94
:1042EC0051898C420DDAC3F57F43FD330B44538166
:1042FC00002303804380184610BD022010BD05200A
:10430C0010BD042010BD00BFA8280020CC28002020
:10431C0002230022FFF7BABD12B10223FFF7B6BD8C
:10432C000520704718B103230022FFF7AFBD05200D
:10433C0070470000104B1B7813B50446ABB14FF619
:10434C00FF73984213D001A8FFF7F8F988B1052341
:10435C00037001230371C48001A9084800F0C1F85F
:10436C00FFF77EFD002002B010BD0220FBE7042009
:10437C00F9E70820F7E700BFA828002080290020D3
:10438C000E4B1B7807B5A3B101A8FFF7D7F990B175
:10439C000623037001A90A4800F0A3F8094B1A7808
:1043AC000AB101221A73FFF75BFD002003B05DF820
:1043BC0004FB0220FAE70820F8E700BFA828002039
:1043CC0080290020B028002007B5ADF8060002A80F
:1043DC0020F8041D01460DF10600FFF78BFA03B01F
:1043EC005DF804FB13B502AC134624F8020D0A4623
:1043FC0000202146FFF77EFA02B010BD13B502ACC7
:10440C00134624F8020D0A4620460021FFF772FAE3
:10441C0002B010BD20B119B103680B6000207047C9
:10442C000520704710B561B1B2FBF3F403FB142403
:10443C00A4B244B980E8120084608281C381204612
:10444C0010BD0E2010BD092010BD82B050E8022F07
:10445C00C188B2EB324F4FF0000317BF92B241EA62
:10446C00014142EA014104E04268B2EB324F08BF1D
:10447C00012340E80212002AE8D18DF807309DF89C
:10448C000730002B0CBF1120002002B0704737B54D
:10449C0050E8013F9DB2C48925448489A54228BFB8
:1044AC002D1B0489A54202BFBFF32F8F002207E00A
:1044BC00C5EA030540E80154002CE9D14FF0010294
:1044CC008DF803200193019B9DF803200B6002F0F3
:1044DC00FF0322B10B880068184403B030BD1846A6
:1044EC00FBE70A884B889A4209D150E8012FC2EAAF
:1044FC00024240E80123002BF7D101207047002035
:10450C00704737B550E8023F1FFAA3F5C488A5429F
:10451C0002BFBFF32F8F00220DE0C489254484898C
:10452C00A54228BF2D1BC3EA054540E80254002CC8
:10453C00E8D14FF001028DF803200193019B9DF807
:10454C0003200B6002F0FF0322B14B880068184473
:10455C0003B030BD1846FBE70A884B889A4209D154
:10456C0050E8022FC2EA224240E80223002BF7D186
:10457C00012070470020704710B590B142688368E5
:10458C0001689B1ADBB20A60013BDBB2FF2B0268AD
:10459C0002D10020107110BD11684C1C14600B70FE
:1045AC00F2E70E2010BD37B5054602A8002400F82E
:1045BC00014DFEF7CFFF2A686B68116899420ED93E
:1045CC00481E106011F8014CEB68298A01FB043479
:1045DC00AB6811791B1ADBB2994238BF13719DF885
:1045EC000700FEF7DBFF204603B030BD37B50546AC
:1045FC0002A8002300F8013D0C46FEF7ABFF2A6829
:10460C001368591C1160E968641A298AB4FBF1F427
:10461C001C709DF80700FEF7C1FF03B030BD826827
:10462C0010B504462AB14369016800699847002314
:10463C00A36010BD0EB403B5039929B102AA04AB53
:10464C0042F8043D00F06CF802B05DF804EB03B0E6
:10465C007047826830B40468551C8560A154826828
:10466C0043689A4202D330BCFFF7D9BF30BC7047C5
:10467C002DE9F84F0A9C99460B9B174682468846B3
:10468C000A460126BA420FD24E4538BF4E4613F0A9
:10469C00010B01D164B900240125B9F1010F1AD91C
:1046AC0009F1FF397D43F8E7B2FBF7F20136E9E790
:1046BC009B070ED5B9F1000F0CBF30252025A64263
:1046CC00EAD2013C29465046FFF7C3FF002CF6D135
:1046DC00E1E72025F3E7B8FBF5F39F42E2D9DFF8D9
:1046EC003C90B8FBF5F3504619F8031005FB138802
:1046FC00FFF7AFFFB5FBF7F5002DF2D1BBF1000FC3
:10470C000AD03CB9BDE8F88F013C20215046FFF798
:10471C00A0FF0CB1A642F7D3BDE8F88F07AF02009B
:10472C002DE9F74F054617460C46002900F0358158
:10473C0014F8011B49B92B7B002B00F02E81284665
:10474C0003B0BDE8F04FFFF76ABF252940F0218187
:10475C0023460026194611F8012B2D2A24D0302A85
:10476C0026D02B2A27D000242A2A994603F10101AE
:10477C0024D13B681A1D1B683A601C44894699F881
:10478C0000302E2B25D109F101014FF0000889468C
:10479C0011F8012BA2F1300009281CD80A2303FBC5
:1047AC000823A3F13008F2E746F001060B46D1E7E7
:1047BC0046F00206FAE746F00406F7E71A780B46CD
:1047CC00A2F130010929DAD80A2101FB0424303C7A
:1047DC00CAE74FF0000899F8001001F0FB02682AB4
:1047EC0002D119F8011FF8E769290FD04BD85829C5
:1047FC0065D007D825296ED009F101042378002B48
:10480C0096D198E7632962D06429F5D13A68D2F839
:10481C0000A0111D8AEAEA723960A2EBEA724FF02D
:10482C00010B092A5BDCC34538BFC3462CB1BAF176
:10483C00000F01DB710700D5013CB20702D5B8F1BE
:10484C00000F04D0F30702D4002C4ED10024BAF18F
:10485C00000F52DACAF1000A2D212846FFF7F9FEA3
:10486C0006F00302022A05D1B8F1000F02D1002C88
:10487C0047D100248DE8500043460A225146284671
:10488C00FFF7F6FEB8E773294CD014D87029B3D1D2
:10489C003B681A1D3A60302128461C68FFF7D9FE88
:1048AC0078212846FFF7D5FE0023019308230093B7
:1048BC0010222146E3E775292BD078299CD1396841
:1048CC000A1D3A6043468DE85000102228E03B68F0
:1048DC001A1D19783A602846FFF7BBFE8CE70A23AD
:1048EC000BF1010B92FBF3F29BE7A345AFD2202116
:1048FC002846013CFFF7ADFEA6E77007B0D52B218B
:10490C00ABE7A345B6D230212846013CFFF7A1FE08
:10491C00ADE739680A1D3A608DE8500043460A221B
:10492C000968ACE73B681A1D3A60F107D3F800A0A0
:10493C0012D55646A6EB0A0B16F8011B41B95C457D
:10494C007FF65AAF20212846013CFFF782FEF6E79E
:10495C002846FFF77EFEEDE7BAF1000F11D0504666
:10496C0006F04CF90646B44200D964B90AF1FF3A94
:10497C001AF8011F00293FF43FAF2846FFF769FEE4
:10498C00F6E75646EFE720212846013CFFF761FE8B
:10499C00E9E72846FFF75DFE30E703B0BDE8F08F8E
:1049AC000B4620B11BB1036011461B6818470E2043
:1049BC0070472DE9F043DDF81C809646F0B1EAB162
:1049CC00D0F800C0BCF1000F1BD0EBB14768D7F892
:1049DC000490B3FBF9F709FB1737AFB942EA010EA4
:1049EC001EF0030F07D1C768B94204D34C1E0569EA
:1049FC001C44AC420BD91020BDE8F0830E20BDE85E
:104A0C00F0830820BDE8F0830920BDE8F083CDF8E1
:104A1C001C80DCF80C40A446BDE8F0436047F0B5C0
:104A2C00B8B1D0F800E0BEF1000F14D0AAB14768BD
:104A3C00D7F800C00CF1FF370F4208D1C768B94254
:104A4C0005D34C1E05690CFB0244AC4207D910205F
:104A5C00F0BD0E20F0BD0820F0BD0920F0BDDEF841
:104A6C001040A446BDE8F0406047000070B508B1A6
:104A7C000368B3B90D4D0E4B14225B1B0024B3FB22
:104A8C00F2F302FB03F6A64201D1002070BD2B59B4
:104A9C0028190BB91434F6E7DB6998470028F9D0CC
:104AAC0070BDDB69BDE87040184700BFA021002035
:104ABC00B421002029DF704728DF704770B50368E8
:104ACC009D6886B004460E466DB11422002101A8E3
:104ADC0006F060F8A3680593237902962BB1012B9D
:104AEC000BD001A8A84706B070BD01238DF8043087
:104AFC002369039363690493F3E702238DF804306D
:104B0C00E3681B03F5E70846704700207047000078
:104B1C00024B187A003018BF01207047482A002039
:104B2C00034B187A0122B0FA80F05A74400970478E
:104B3C00482A002008B510461A4606F001F8002055
:104B4C0008BD000008B514220021044806F022F824
:104B5C000348FFF77AFC002008BD00BF482A00205C
:104B6C00382A002038B5254C237A012B05D0022B8E
:104B7C0042D1022808D0032831D0637C002B37D1D6
:104B8C00BDE8384000F042B81D4B1B680022E260C3
:104B9C001A793AB1012AF0D11A6901321A615B69AA
:104BAC009A420AE09A6959698D1AB5F5805F94BFEB
:104BBC00521902F580529A619142DED102284FF0CF
:104BCC00000308BF194623720D4B18BF0D2118683E
:104BDC00FFF774FF0B490C48FFF7BEFCCDE7E36809
:104BEC000133082B01D8E360C7E70023E360E5E756
:104BFC00BDE8384005F062BD38BD00BF482A002032
:104C0C00602A00205C2A0020382A002070B5214D33
:104C1C00214E2B7A2C463BB920492148FFF771FCD9
:104C2C00306008B9686070BD0223237233681A794A
:104C3C004AB1012A1FD018460321FFF73FFF00237A
:104C4C002372636070BD98695A69D9681D69121A1C
:104C5C00B2F5805F28BF4FF480529208012A0144BC
:104C6C0038BF01222844FFF725FF50B11128E2D1AB
:104C7C000123237270BDD8681A691044FFF71CFF1A
:104C8C00F3E7237C002BDDD10146BDE87040022008
:104C9C00FFF768BF482A0020602A00205C2A002009
:104CAC00382A002000F0FD03012B08D1044B002210
:104CBC005A74421E504250411874FFF7A7BF7047F8
:104CCC00482A002038B50C4C012354E8002F42EA46
:104CDC00030144E8001595F0000FF6D152B9074BCB
:104CEC00436005F0FBFC1C2320748C22044905480E
:104CFC00FFF798FB002038BD482A002018AF0200AF
:104D0C00AC290020382A002037B50A4901220B1D96
:104D1C0053E8000F144643E8004595F0000FF7D117
:104D2C000190019B1BB94B7C0BB9FFF76FFF03B0D4
:104D3C0030BD00BF482A00202DE9F34180460D46C6
:104D4C000F4801A916461F46FFF7A1FB0446A8B160
:104D5C001C22002105F01EFF2D0B0123237101A93C
:104D6C00C4F80080A760E56066610548FFF7B9FBF1
:104D7C00FFF7CAFF002002B0BDE8F0810420FAE77B
:104D8C00382A00202DE9F74381468846104801A9AE
:104D9C0017461E46FFF77BFB0446B8B11C220021C8
:104DAC0005F0F8FE00250A9BA36001A92571C4F843
:104DBC000090C4F81080E76066610548FFF791FB2E
:104DCC00FFF7A2FF284603B0BDE8F0830420FAE702
:104DDC00382A0020FFF7D0BBF8B546790446721E7E
:104DEC0000239342246804D301460025B54202D324
:104DFC00F8BD0133F5E70F682046FFF7F7FB0135E7
:104E0C003946F3E72DE9F843078ACD1C8046FFF7B6
:104E1C00CAFB043F3D440446B5FBF7F5002650B1F0
:104E2C000123EDB206714371C780013DC0F80080CB
:104E3C008146AE4202D32046BDE8F8834046FFF7D8
:104E4C00B2FB074648B16379013363710136C9F887
:104E5C000000C0F800808146EBE72046FFF7BCFF5E
:104E6C003846BDE8F88310B50430012350E8002F14
:104E7C0002EB030140E8001494F0000FF6D110BDD2
:104E8C0030B4031D012253E8004FA4EB020143E8A8
:104E9C00001595F0000FF6D111F0FF0F02D130BCC8
:104EAC00FFF79ABF30BC70472DE9F843C68804332E
:104EBC000F46B3FBF6F4154606FB143380463CB99B
:104ECC00A6EB0309A94528BFA9462DB9BDE8F8836F
:104EDC00D8F80080013CF2E7043308EB0300A5EBA3
:104EEC0009054A46391905F02BFEAE424C44D8F858
:104EFC000080B1464FF0000328BFA946E5E72DE935
:104F0C00F843C6880F46191D1546B1FBF6F48046CA
:104F1C0006FB14113CB9A6EB0109A94528BFA9460B
:104F2C002DB9BDE8F883D8F80080013CF2E70431D4
:104F3C004144A5EB09054A46381905F001FEAE427D
:104F4C004C44D8F80080B1464FF0000128BFA94668
:104F5C00E6E732DF70473EDF704700000D4A08B5C8
:104F6C00002313700C4A1360BFF35F8F0B490C487E
:104F7C0000F0ACF80B4A0C480121FEF783FA02460C
:104F8C0030B94FF400410948BDE80840FEF78CBA2F
:104F9C0008BD00BF902A0020942A002048AF0200D0
:104FAC00642A0020C550020044AF0200702A002081
:104FBC0007B502A8002300F8013DFEF7CBFAF1EE8D
:104FCC00103A23F09F03E1EE103ABFF35F8F0A4BC8
:104FDC004022C3F884219DF80700FEF7DFFA05F0A4
:104FEC007DFB20B1FFF7B7FF03B05DF804FB20BFDA
:104FFC0040BF20BFF8E700BF00E100E070B5284BD0
:10500C00012253E8004F114643E8001595F0000FBC
:10501C00F7D1BFF35F8F1D46002C40D1042809D077
:10502C0020490E781EB1BFF35F8F1C6070BD1E4B04
:10503C000A7018701D4C1C4E6368BBB9FDF7B6FCAA
:10504C00FDF72AFB0028FBD1174B1B78023B012BE9
:10505C0014D8BFF34F8F1649164BCA6802F4E0629E
:10506C001343CB60BFF34F8F00BFFDE71B68307855
:10507C00984788B1204600F033F8DDE705F02EFBA9
:10508C0008B1FFF766FF4FF080430122C3F80025FB
:10509C00BFF34F8F20BFFDE7BFF35F8F286070BD5C
:1050AC00942A0020902A00206C2A0020642A0020D8
:1050BC0000ED00E00400FA05034B1B7813B104204B
:1050CC00FFF79CBF704700BF902A00200B684A680E
:1050DC004360934208BF0023016008BF43607047E0
:1050EC00436843B10268916852680B449342436031
:1050FC0004BF0023436070470D4930B5A1F1F002A5
:10510C000225914201D8002030BD8B1ADB1093FB95
:10511C00F5F302EBC30452F83330834205D802D2C4
:10512C0004F10802EDE7606830BD2146E9E700BFF5
:10513C0060B0020008B5FFF7DFFF024B002808BF84
:10514C00184608BD5DAF020010B50023012101FA1D
:10515C0003F404429AB204D10133202BF7D14FF659
:10516C00FF72104610BD70B59DF81050D0B1C9B18A
:10517C00C2B1002430F814609E4210D1012303FA0E
:10518C0004F4E643002308683DB1204301339A42FE
:10519C00086001F10401F6D170BD3040F6E701342E
:1051AC00202CE7D170BD07B5009313460122FFF701
:1051BC00DAFF03B05DF804FB10B580B1002330F8C2
:1051CC001340944207D1012202FA03F30B4214BF9D
:1051DC001046002010BD0133202BF0D1002010BD53
:1051EC00F0B599B100231C46012505FA04F61642C8
:1051FC001EBF00EB430631F81470B78004F10104B4
:10520C0018BF0133202CF0D10360F0BD0B46FBE737
:10521C0038B5084C04F108030546002818BF1C4695
:10522C0023682BB11A6822605B6828469847F7E719
:10523C0038BD00BFA02A002008B9FFF7E9BF7047AE
:10524C00064B01221A604FF08042D2F8183413F446
:10525C008033FAD1024A9370704700BF0C000040B3
:10526C00982A002010B50E4C2378BBB96360A3605C
:10527C00E36023610B4B186810F0010002D1072189
:10528C0000F086F805F02AFA20B94FF0804301228D
:10529C00C3F8182501232370002010BD852010BDF4
:1052AC00982A002000E100E007B502A8002300F8CE
:1052BC00013DFEF74FF9074BDA68013ADA60DB681B
:1052CC000BB9FFF7BDFF9DF80700FEF767F903B0B8
:1052DC005DF804FB982A0020012813B509D003D3EC
:1052EC0003281BD002B010BD104B0122C3F8802044
:1052FC00F8E702A800230E4C00F8013DFEF72AF94E
:10530C0023780BB9FFF7AEFFE3689DF80700013374
:10531C00E3600123A370FEF741F9E3E707210020C6
:10532C0000F036F8FFF7C0FFDCE700BF00E100E05B
:10533C00982A0020134B07B51A686AB10020186030
:10534C001B6800934FF08042009B0123C2F8083386
:10535C000D4A5370FFF75CFF0C4B1A6872B10022B8
:10536C001A601B680193019B4FF080430222C3F823
:10537C000823054B01209870FFF74AFF03B05DF836
:10538C0004FB00BF00010040982A002004010040EB
:10539C0000284FEA4111BFBF00F00F020E4BC9B2FB
:1053AC009954A8BF00F1604300F01F024FEA50105F
:1053BC00A8BF03F561434FEA8000A8BFC9B200F152
:1053CC006040A8BF83F8001300F5614001239340AF
:1053DC00C0F880310360704714ED00E000F18040AC
:1053EC0000F5C040002382B0036003680193019B69
:1053FC0002B0704703681F2B83BF03F01F030360C9
:10540C0001484FF0A04070470003005007B502ABB5
:10541C0043F8040D1846FFF7EDFF019B00EB8300EA
:10542C00D0F8003723F44033C0F80037D0F80037F9
:10543C0043EA0141C0F8001703B05DF804FB00001B
:10544C00054B4FF0FF32072843F8202084BF1B1870
:10545C0083F85820704700BFAC2A002010B5134CBD
:10546C0094F86430FBB9FF21E2180133302B82F839
:10547C003010F9D10021C8B2FFF7E2FF01310C293D
:10548C00F9D107210620FFF783FF4FF4BE70FFF719
:10549C00A5FF074B4FF00042C3F80423012384F807
:1054AC006430002010BD082010BD00BFAC2A0020C5
:1054BC0000600040034B93F86400003018BF0120DB
:1054CC00704700BFAC2A0020F7B5344E33180546A0
:1054DC0093F93030002B5FDAC87800280BBF082313
:1054EC0000230C240824A34202D1042003B0F0BDF5
:1054FC0056F82370013718D177195CB287F8304011
:10550C0046F8232010B9334483F858508B7873B97C
:10551C0002A84A7840F8045DFFF76CFF019B03F585
:10552C00E073920040F823200FE00133DBE702A880
:10553C0040F8085DFFF75EFF009B00EB8300D0F89E
:10554C00003723F00203C0F80037C8780A78D0B1CE
:10555C00A30003F1804303F5C0432D02D3F81015CB
:10556C0021F44F3121F44071C3F810151204D3F813
:10557C00101505F47C5502F4403215430D43C3F865
:10558C0010550020B2E7083C344494F8605045EACA
:10559C00821284F86020A9E70820A7E7AC2A002033
:1055AC0037B5214C2318054693F93020072A1ADD0C
:1055BC00224492F858309B09032B10D102A840F8D2
:1055CC00045DFFF717FF019AD0F81035D340DB07C5
:1055DC0007D402212846FFF719FF03B030BD012B79
:1055EC00F7D00321F6E7D3B2072BF6D8930003F1DB
:1055FC00804303F5C043D3F8100540F00100C3F815
:10560C00100502F14000800080B2FFF7E7FE002990
:10561C00E3D054F82230002BDFD0012303FA02F23E
:10562C00024BC3F80423D8E7AC2A002000600040EA
:10563C0007B502AB43F8040D1846FFF7DBFE019BE0
:10564C00D0F81005D84000F0010003B05DF804FB61
:10565C002DE9F04F89B00024614A624E624D0294EC
:10566C0003940121A2F5C04052F8043B012B80B2F7
:10567C0006D1D6F804330B4202D0FFF7AFFE0C4331
:10568C00AA424FEA4101EDD1584B1B68012B0ED1B8
:10569C004FF4BE70FFF7A2FE4FF0A04344F000445D
:1056AC00D3F810350293524BD3F81035039314F002
:1056BC00FF0F34D1002C80F28F8004AE00230493B2
:1056CC0073604C4F4FF0FF33069307934FF0010874
:1056DC00002425467B1993F96020531C63D0D2B269
:1056EC0022F0C00908AB4FEAD90003EB000B02F023
:1056FC0007011BF8083C08FA01F10B4253D007EBE9
:10570C000903920993F9303057F823A0BAF1000F2E
:10571C0021D1032A47D1335C0B4333541DE0354F61
:10572C0001260025344210D0AB0003F1804303F571
:10573C00C043D3F81005D3F8101557F8253023B112
:10574C00C1F30141C0F3052098470135082D4FEAFC
:10575C004606E7D1AEE7032ADDD001A8CDF80490C8
:10576C00FFF748FE019B03F5E07350F823301BF85C
:10577C00180C0842C3F3014305D0022B13D1032AA2
:10578C000BD1114604E0032B0DD1032A05D10221C4
:10579C004846FFF73BFE0134E4B2BAF1000F02D0E9
:1057AC0011464846D0470135042D93D1A4B14FF092
:1057BC00A0430299D3F8102503F540739142D3F816
:1057CC00103502D10399994206D002920393049AA0
:1057DC00059B069207937BE709B0BDE8F08F00BFED
:1057EC000061004000600040206100407C6100408E
:1057FC0000030050AC2A00200023435082B04358D1
:10580C000193019B02B070470023435082B0435870
:10581C000193019B02B070470A4610B54FF48E718C
:10582C00FFF7EAFF938A91689BB2C95C938A0133B4
:10583C009BB29382C0F81C1510BD1FB582688DF801
:10584C00081000238DF800308375019290E80A004F
:10585C006846984705B05DF804FB10B5CB7D0A4649
:10586C004FF4847123B9FFF7C7FFD0F8183510BD7A
:10587C00FFF7C2FF537ED168D0F81805C854537E89
:10588C000133DBB2537610BD1FB501238DF8003008
:10589C00054B8DF808000191684693E80600904787
:1058AC0005B05DF804FB00BF142B00201F2886BF39
:1058BC0000F01F00044B4FF0A04300F5E0700322F2
:1058CC0043F82020704700BF000300501F2886BFFC
:1058DC0000F01F00044B4FF0A04300F5E0700222D3
:1058EC0043F82020704700BF000300501F2886BFDC
:1058FC0000F01F00044A4FF0A042012303FA00F00D
:10590C00C2F80805704700BF000300502DE9F041B4
:10591C0006795C4D7601AB191746DA7E0446002AEF
:10592C0040F0AC8008684A7F1A77431C04D0FFF71C
:10593C00DDFF0868FFF7BAFF4B68581C0DD01F2B12
:10594C008BBF03F01F021A464F484FF0A04002F5E0
:10595C00E0724FF0000E40F822E02279D1F800C03E
:10596C00D1F81880087D05EB421292F81CE04A7DB4
:10597C00BEF1000F66D0D4F800E00243CEF82485C7
:10598C00CEF86C25CEF80CC5CEF8143501281DD1F7
:10599C008B685A1C0BD01F2B86BF03F01F033A4A8F
:1059AC004FF0A04203F5E073002042F82300C868D2
:1059BC00431C04D0FFF79AFFC868FFF777FF2368F2
:1059CC00C8688A68C3F80805C3F81025AB195F606E
:1059DC000B69AB511FB323790A7F05EB43131B7F74
:1059EC00002B3BD04FF488712068FFF70DFF4FF46C
:1059FC0090712068FFF708FF4FF492712068FFF751
:105A0C0003FF20684FF4A271FFF7FEFE20681F4BC6
:105A1C00C0F80433114640F30730FFF7B9FC237983
:105A2C0005EB43131B7F33B3236808223544C3F8BB
:105A3C00002500200123E8752876A875EB76A8765A
:105A4C00BDE8F081D4F800E00243CEF82485CEF80E
:105A5C006C25CEF81435CEF80CC597E74FF48E7143
:105A6C002068FFF7C9FE20684FF4A271FFF7C4FE4F
:105A7C002068074BCCE723680422D7E70820BDE851
:105A8C00F08100BF142B0020000300501003020013
:105A9C0080000200F8B504793849026864010B19DA
:105AAC001B7F002B43D00025C2F800550A19526801
:105ABC00002A5FD0002B3DD00368314AC3F808237D
:105ACC001B0B5AB20125520903F01F0305FA03F30D
:105ADC0020322C4D45F8223003684FF0FF32D3F8BA
:105AEC000C05D3F81475D3F80855D3F81065C3F822
:105AFC000C25C3F81425C3F80825C3F81025431C3E
:105B0C0001D0FFF7E3FE781C02D03846FFF7DEFE2B
:105B1C00721C02D03046FFF7D9FE6B1C02D028460F
:105B2C00FFF7D4FE21440023CB764B60F8BDC2F8BE
:105B3C000035BBE70368144AC3F808231B0B5AB2A1
:105B4C000125520903F01F0305FA03F320320D4D12
:105B5C0045F8223003684FF0FF32D3F80C05D3F828
:105B6C001475D3F80855D3F81065C3F81425C3F889
:105B7C000C25C0E7002BAFD1ECE700BF142B0020A5
:105B8C001003020000E100E0840202002DE9F04164
:105B9C0007793F4D4FEA471805EB080306461B7F74
:105BAC0023B101F06040B0F1005F6BD105EB08044C
:105BBC00A07D002869D1A275A160A0824BB34FF4DF
:105BCC0090713068FFF720FE4FF4AC713068FFF72E
:105BDC001BFE3368A27DA168C3F84415C3F84825A1
:105BEC0001229A60626812B10020BDE8F081D3F8FE
:105BFC002011D3F8582119B9002AF8D00F2003E04E
:105C0C00002A14BF0F20002045440023AB75BDE8CB
:105C1C00F0814FF48E713068FFF7EEFD3068012390
:105C2C0005EB471783603946FFF7F6FD6368002BD9
:105C3C00DAD1A17DA38A9BB28B4204F1140213D258
:105C4C00306804E0A38A9BB2B3F5807F03D0D0F810
:105C5C001C31002BF6D0A38A9BB2B3F5807FE9D020
:105C6C003946FFF7D9FDE4E713889BB2B3F5807F83
:105C7C00C4D03368D3F81C21002AFBD00122DA608F
:105C8C000020C1E71020BDE8F0811120BDE8F081B3
:105C9C00142B00207FB5784C784A237F002B65D0DD
:105CAC00D2F82461002E3FD04FF492711046FFF7CA
:105CBC00ABFD02238DF80030D2F88034C2F880346A
:105CCC000393D2F83C358DF80830E3680193002338
:105CDC00E3752376684694E80A009847674AD2F839
:105CEC00443173B14FF4A2711046FFF78DFDE37D83
:105CFC003BB10023E375D2F83C05E168C0B2FFF775
:105D0C00C3FD5E4AD2F8203163B14FF49071104656
:105D1C00FFF77AFDA37D2BB1D2F84C155648C9B2CA
:105D2C00FFF78BFD04B070BDD2F81031002BD5D02D
:105D3C0010464FF48871FFF767FDD2F83C35E07DD3
:105D4C00DBB29842CAD1237E6BB1D2F80052E16823
:105D5C0025F02005C2F80052E3752369E36026762E
:105D6C00FFF792FDBAE7E375E168F9E7D2F804337F
:105D7C00990549D5D2F82431002B45D04FF49271B6
:105D8C001046FFF739FD4FF40173C2F80833A37EB8
:105D9C000BB901235360394A02238DF80030D2F835
:105DAC008034C2F880340393E37D8DF80830E368C7
:105DBC0001930023E3752376684694E80A0098471C
:105DCC002E48D0F81C313BB1A38AA27D9BB29A42DB
:105DDC0046D92949FFF720FD284AD2F84431002B37
:105DEC00A0D04FF4A2711046FFF706FDA37E0BB1B5
:105DFC0001231360E37D002B94D00023607EE168C7
:105E0C00E375FFF741FD8DE71C4DD5F804335B07B7
:105E1C00D6D5D5F80831002BD2D017492846FFF734
:105E2C001CFD637EE27D9A42CAD1237E53B1E37599
:105E3C002369E168E3600023607E23766376FFF7D5
:105E4C0023FDBDE7A37E0BB901236B600B4BE1680F
:105E5C004FF40172C3F808230023E375607EEEE76C
:105E6C004FF48E71FFF7C8FCA17D0029B4D0024815
:105E7C00FFF7E3FCB0E700BF142B0020002000402C
:105E8C001F288ABF094B4FF0A04300F01F0003EB03
:105E9C008000D0F8003723F44033C0F80037D0F836
:105EAC00003743EA0141C0F8001770470003005067
:105EBC000220FCF7EDBE000008B5094B1B7853B16E
:105ECC000020FCF7B3FE0120FCF7B0FE0320BDE878
:105EDC000840FCF7ABBEBDE80840FCF7BBBE00BFFA
:105EEC00352B0020F8B5764C237805461BB10023E2
:105EFC002370FFF7E1FF172D00F28380DFE805F038
:105F0C000C13133F5060717B838883889094949416
:105F1C009494BEC2C9D0DADAFFF7CEFF694B0024E5
:105F2C001C702046F8BD0020FCF758FEF8B100208C
:105F3C00FCF77CFE022D0CBF4FF4E1614FF47A614B
:105F4C00604B1D704FF400404FF4FA740025E0FBD9
:105F5C0001454FF47A7200232046294604F00AFDCD
:105F6C00002201465848BDE8F840FDF79DBAFCF701
:105F7C0049FE022D0CBFC8214FF4C871E0E7002088
:105F8C00FCF72CFE40B10020FCF750FE4FF448719A
:105F9C0003224C4B1A70D5E7FCF734FEC821F7E707
:105FAC000020FCF71BFE30B10020FCF73FFE4FF445
:105FBC007A610422EDE7FCF725FE4FF4C871F8E78F
:105FCC000020FCF70BFE48B10020FCF72FFE3D4BE8
:105FDC0005221A7041F69A110022C3E7FCF712FE53
:105FEC00F5E70020FCF754FE364B06221A7000220F
:105FFC0040F6CD41B6E70020FCF704FE0722314BFA
:10600C001A7000248DE701202070FCF741FEEEE7AA
:10601C0001202070FCF73CFE00224FF48041A1E7E8
:10602C00FCF727FE0C22EAE72848294EFDF782FAF6
:10603C00D5F1110504461CD0D8B9012D13D0C823B5
:10604C005D434FF4FA7000214FF400474FF47A721D
:10605C000023C7FB050104F08DFC224601461B48BA
:10606C00FDF722FA04460220FCF7CCFD0123337025
:10607C0057E70220FCF7DAFD0023F8E7FFF71CFFD7
:10608C001222BCE7FFF718FF0020FCF7BBFD132220
:10609C00B5E7FFF711FF0120FCF7B4FD1422AEE7C2
:1060AC00FFF70AFF0020FCF7ADFD0120FCF7AAFD6D
:1060BC001522A4E7FCF7DDFD024B1D70A1E700BF24
:1060CC00882B0020B02B00208C2B0020382B00209C
:1060DC00352B00202DE9F04781460D46FCF722FEBA
:1060EC000328044631D8012D04D022D3022D2ED002
:1060FC00BDE8F087194D47003A18A918AE5C4A78EC
:10610C0052B1DFF86880164842464FF40041FDF763
:10611C00CBF908B988F800903B192B449A78114BAD
:10612C001A5596B1104B1B687BB13046BDE8F04751
:10613C0018470B48FDF7FEF9084B04EB44021344D7
:10614C009E78084B1B5DB342EBD0BDE8F087034B48
:10615C0000EB40041C446678E3E700BF782B00207A
:10616C00582B0020B12B0020AC2B0020342B00200E
:10617C0002210078FFF7AEBF044B1B68DB0703D589
:10618C00034B1878FFF7AEBE704700BF842B00207E
:10619C00B02B0020FCF7B2BD044B1B6813F00103BD
:1061AC0001D0FFF79FBE1846704700BF842B00201C
:1061BC001B4B13B518601B4B044610F00200196002
:1061CC0017D0194B19480E221A700F22DA701022B0
:1061DC009A7111225A72042140F26662FCF730FE69
:1061EC0038B9FCF77FFE20B90146114A1148FDF77A
:1061FC0049F9E30703D50190FCF764FD019868B9F0
:10620C0001460D4A0D48FDF73DF938B90C4A0D48C9
:10621C00012102B0BDE81040FDF734B902B010BD49
:10622C00842B0020AC2B0020782B00205CB30200C8
:10623C007D61020080B302008561020084B302001C
:10624C00BD5E02007CB30200032812D8012A0BD1D8
:10625C00012908D100F10E02D2B200EB40000C4B28
:10626C001A540020704700220129F6D009D30229C4
:10627C0001D007207047064B00EB400018444270D9
:10628C00EFE7034B00EB400018448270E9E700BFD6
:10629C00782B002008B5FCF757FD0321FFF7F0FD24
:1062AC00002008BD08B5012202210020FFF7CCFF19
:1062BC0008B1072810D1072202210120FFF7C4FFE3
:1062CC0008B1072808D100210A220846FFF7BCFFB5
:1062DC0010B1072808BF002008BD00000388102B50
:1062EC0010B502D0112B1ED010BD194C2168B1B9BC
:1062FC0001220846FFF7A8FF08B1072821D1072281
:10630C0002210120FFF7A0FF08B1072819D10422B0
:10631C0002210020FFF798FF08B1072811D123684C
:10632C000133236010BD0A4A1368013B136073B933
:10633C00FFF7B8FF58B1074B1B6843B1BDE81040DD
:10634C001847044B1B68002BE9D09847E7E710BDB2
:10635C00BC2B0020B82B002008B50020FFF79AFFBB
:10636C0008B1062806D10120FFF794FF10B10628CA
:10637C0008BF002008BD00000D4B10B518600C467E
:10638C0029B10120FFF706FF40B102232370094B0E
:10639C001B6853B9BDE81040FFF784BFFFF7FAFE46
:1063AC0008B10B23F2E72070F1E7002010BD00BF0D
:1063BC00B82B0020BC2B002076DF70477ADF7047AB
:1063CC007CDF7047A8DF704766DF704732DF7047AD
:1063DC00FCF79EBD1FB503883B2B04460AD005D89D
:1063EC00012B1AD0102B0ED004B010BD512B19D08C
:1063FC00562BF9D11321A088FFF7DEFF0028F3D02C
:10640C00FCF786FDF0E70720FFF7C6FE08B1FCF7A6
:10641C007FFD0F4BA2881A80E6E700218088FFF7EA
:10642C00D3FFEBE78379002BDED0827B043A022A80
:10643C00DAD8022B18BF01238DF8003069464FF4CF
:10644C00C1738088ADF80430FFF7BCFFD6E700BFFE
:10645C00CC21002008B50020FFF79EFE08B1FCF708
:10646C0057FDFFF779FF08B1FCF752FDFFF7AEFFC0
:10647C0018B1BDE80840FCF74BBD08BD022810B5AB
:10648C000ED1084C08492088000440F00300FCF7AA
:10649C0047FA20880549000440F00300FCF740FA55
:1064AC00012010BD2821002088B30200B5B30200E2
:1064BC000F4B032818D8DFE800F002090D131888D9
:1064CC000C49000440F00300FCF72ABA18880A496A
:1064DC000004F7E718880949000440F00100F3E7CD
:1064EC00188807490004F8E7188806490004F4E7FF
:1064FC0028210020E4B3020012B4020035B40200DB
:10650C006EB402009BB4020008B503784BB9054B7E
:10651C003B211888FFF750FF18B1BDE80840FCF785
:10652C00F7BC08BDCC210020072808B513D00A28D9
:10653C000DD0042819D10D4B13211888FFF73CFFFF
:10654C0030F0080311D0BDE80840FCF7E1BCBDE811
:10655C000840FFF77FBF054B1A884FF6FF739A422E
:10656C0003D1034800F02AFEEAE708BDCC21002045
:10657C00C02B002008B548B103280BD10220FFF72F
:10658C000BFE38B1BDE80840FCF7C2BCBDE80840C2
:10659C00FFF760BF08BD000008B50321044800F0F8
:1065AC00E6FC18B1BDE80840FCF7B2BC08BD00BF62
:1065BC00C02B002030B5037885B004460F2B11D8C2
:1065CC00DFE803F00810121023102B40103C104091
:1065DC00364010391C4B1D491888000440F003004C
:1065EC00FCF79EF905B030BD174B40881D8800F0B4
:1065FC00C1FF2D04227A009245F003050246638800
:10660C0013492846FCF7A4F9ECE704A9002301F888
:10661C00043D408802F0B2FCE4E7FDF7B1FE0E2821
:10662C000346DFD033F00803DCD0FCF771FCD9E76C
:10663C00FFF7B2FFD6E702F0A5FCD3E7006900280C
:10664C00D0D0F2E78068FAE728210020EDB40200F0
:10665C0016B5020000B50020ABB0FBF7BBFF08B1CC
:10666C00FCF756FCFBF722FFFCF7DAFE08B1FCF74F
:10667C004FFCFEF773FC08B1FCF74AFC7E49032083
:10668C00FFF796FD08B1FCF743FC02A90020FFF7C9
:10669C0073FE08B1FCF73CFC9DF8084003F0BAFF10
:1066AC0008B1FCF735FC002302A90120029304F089
:1066BC005BF808B1FCF72CFC02A804F001F908B156
:1066CC00FCF726FC02F0FAFB08B1FCF721FC0522D2
:1066DC00002102A804F05EFA9DF8083043F0010393
:1066EC00032203F0F10362F306136FF3C7138DF863
:1066FC00083007238DF8093010238DF80A309DF8E7
:10670C000B3013438DF80B309DF80C3002A813435B
:10671C008DF80C3002F028FC08B1FCF7F9FB574857
:10672C0002F00AFC08B1FCF7F3FB9DF80430544866
:10673C00012262F303032AAD62F3071305F8A43DAB
:10674C0004F05CFA4E4982B22846FFF739FE08B1D4
:10675C00FCF7DEFB082200210DEB020004F01AFA14
:10676C005023ADF80830A023ADF80A300023ADF863
:10677C000C3002A84FF4C873ADF80E30FFF71EFEB4
:10678C0008B1FCF7C5FB00213E4801F0E1FC08B163
:10679C00FCF7BEFBA022002102A804F0FBF90223A7
:1067AC008DF8083001238DF80A30ADF818308DF8CB
:1067BC0084304FF4967306222493B4238DF80B2067
:1067CC002593314A314B3248079202A9289300F0A5
:1067DC002AFB08B1FCF79CFB01212D4800F020FBA3
:1067EC002C4B029303F010FD08B1FCF791FB02A8AF
:1067FC0003F09CFC08B1FCF78BFB1C22002102A8C7
:10680C0004F0C8F900234FF4203202930392ADF840
:10681C0016304FF470228DF818301F4B04920793EA
:10682C0003221E4B8DF8142002A8089300F0E4FDFF
:10683C0008B1FCF76DFB1A4D1A492888000440F08A
:10684C000300FCF76DF8022C12D1288816490004BD
:10685C0040F00300FCF764F802F0A6FB08B1FCF76B
:10686C0057FBFBF719FF0028FBD1FEF7A1FBF8E75C
:10687C00FFF792FEF5E700BF35650200C165020027
:10688C00C2B40200982C0020C821002081650200AF
:10689C00C02B0020BD64020015650200DD63020000
:1068AC0028210020CBB40200E0B4020013DF7047B3
:1068BC0038B54FF01024114D6369013315D0288879
:1068CC0062690F49000440F00300FCF72DF8606981
:1068DC00FFF7ECFF044630B128880A49000440F069
:1068EC000100FCF71DF8204638BD28880649000435
:1068FC0040F00100FCF714F80424F4E728210020F0
:10690C0056B5020081B50200B4B5020038B50B4D86
:10691C000B4A28880B49000440F00300FCF704F8EC
:10692C000748FFF7C3FF044630B128880649000426
:10693C0040F00100FBF7F4FF204638BD2821002071
:10694C0000200200CCB5020081B502006DDF70475B
:10695C0072DF704779DF70477DDF704764DF704707
:10696C002DE9F74F0C9CBDF834B0278800258046E4
:10697C008A4691462E46B8F8002096420BDB35B17C
:10698C002288013AD21B92B2FF2A39D8DA5500205C
:10699C0003B0BDE8F08FD8F8042052F8260001901F
:1069AC0000220DF1030101A8FFF7D8FF0028EFD159
:1069BC009DF803204A4521D12288002D14BF0020C8
:1069CC00022002EB09010144594519DC3DB90132A1
:1069DC0092B2228003F802A02288013222802288FF
:1069EC000DF103011A4401A8FFF7B8FF0028CFD11D
:1069FC0021889DF803200A44228001250136BAE73C
:106A0C000C20C5E72DE9F341089CBDF8245017462E
:106A1C008DE8300002220646FFF7A2FF48B910228B
:106A2C00394630460995089402B0BDE8F041FFF7AD
:106A3C0097BF02B0BDE8F0812DE9F04F0023168816
:106A4C00138090F82D3085B007460D46144643B39D
:106A5C00082E4ED902A8FFF779FF002840F00181DB
:106A6C0013880822CA54238801339BB21B2223802B
:106A7C00CA542088013080B2208006220DF1090111
:106A8C00284404F05DF823889DF8082006339BB257
:106A9C0012F0FE0218BF01222380EA54238801332E
:106AAC002380BB78FBB123880433B34221D802A8DE
:106ABC00FFF750FF002840F0D48023880322EA54CB
:106ACC00238801339BB219222380EA542388BDF812
:106ADC00082001339BB2E9182380EA54120A4A7049
:106AEC00238802332380FA78AAB12388D91CB142B7
:106AFC0001D90C20B5E00221E954238801339BB263
:106B0C0001212380E95423880B449BB22380EA544F
:106B1C0023880B4423807A68AAB12388D91CB142FC
:106B2C00E7D8022192F90020E954238801339BB263
:106B3C000A212380E954238801339BB22380EA5431
:106B4C002388013323803B89002B7ED13B8A53B1B0
:106B5C008DE850002B460722032107F11000FFF7A8
:106B6C0051FF00287DD13B8B53B18DE850002B4653
:106B7C001522142107F11800FFF744FF002870D1EB
:106B8C003A6A002A70D1D7F82480B8F1000F2ED0C1
:106B9C00B8F804302188981C8A1C0244B242A8D848
:106BAC00FE28A6D803336B54238801339BB2FF22F3
:106BBC002380EA54238801339BB22380B8F8002049
:106BCC00EA54E918120A4A702088023080B22080F8
:106BDC00B8F804205AB1D8F8081000294ED028442F
:106BEC0003F0AEFF2388B8F804201344238097F8F1
:106BFC002C30002B7DD1387898B33B88012B3DD0BD
:106C0C00228802F1020EB6453FF673AF012805D17A
:106C1C007B78023313449E42FFF46BAF023EB61AEC
:106C2C0004A9B6B221F8086D05EB0E00FFF794FE2F
:106C3C00B8B93B78022B40F09F80BDF80830B342C6
:106C4C0040F2B580ADF808609FE08DE850002B460F
:106C5C000622022107F10800FFF7D4FE00283FF4BA
:106C6C0075AF05B0BDE8F08FB4F800E00EF1060387
:106C7C00B3423FF63EAF1188052901D80720F0E753
:106C8C006FF4486C01EB0C039BB24FF27D3C6345F7
:106C9C00F4D95388052BF1D96FF44860181880B2D9
:106CAC006045EBD94FF6FF70814203D0834201D08F
:106CBC009942E3D8052305F80E30238801339BB2A3
:106CCC0012212380E954238801339BB2238011883D
:106CDC00E954E818090A4170238802339BB22380D7
:106CEC005288EA54E918120A4A7023880233238026
:106CFC0049E7BB6A002BC1D04FF000094FF00C0ADA
:106D0C004FF0160B97F82C305FFA89F293427FF60E
:106D1C0072AFB96A0AFB02F201EB0208B8F8043050
:106D2C00981CFE283FF6E5AE208803332B542388AD
:106D3C0001339BB2238005F803B0238801339BB247
:106D4C0023808A5AEA54E918120A4A7020880230C1
:106D5C0080B22080B8F804205AB1D8F80810002965
:106D6C008CD0284403F0ECFE2388B8F8042013449C
:106D7C00238009F10109C5E7012B7FF463AF7B7810
:106D8C009E42FFF45FAFADF808300821BDF8083023
:106D9C00FE2B3FF6AEAE22880133AB542288013273
:106DAC0092B22280A95422881344238059E70921E6
:106DBC00ECE730B593B01F230D46ADF80430ADF8B9
:106DCC000630044628B1C3785B071DD4072013B0E6
:106DDC0030BDADF8040065B1EB78002BF6D10DF1A8
:106DEC0006020AA92846FFF727FE0028EFD10AAAB7
:106DFC0002E0ADF806502A469DF806309DF80410C6
:106E0C002046FFF7A5FDE2E701AA02A9FFF714FE51
:106E1C000028DCD102ACDEE773DF704774DF70470B
:106E2C0080F824107047F8B504460D46002900F090
:106E3C009C80002800F099800026012301F1780E37
:106E4C000370C670071DBEE80F000FC79EE80F0049
:106E5C0087E80F0084F82460D5F89830C4F8CC305B
:106E6C00D5F89C30C4F8D0304FF6FF73A4F8C83076
:106E7C000722314604F1250004F1300703F08AFEA5
:106E8C003C223146384603F085FE2B7884F83030AE
:106E9C00AB7884F83230EB7884F833306B7884F844
:106EAC00313005F1100292E8030004F1400305F1C2
:106EBC00080283E8030092E8030004F1380305F1AB
:106ECC00180283E8030092E8030004F148036A6A9D
:106EDC0083E8030095F82D3084F85D30B2B9A96AC7
:106EEC0041BB2B6A43B104F1C40222655A881B884A
:106EFC00A4F8C620A4F8C4306B6803B1636305F131
:106F0C003C013846BDE8F840FFF753BF1188A4F8A0
:106F1C006C1004F16C0363659188A4F8701004F193
:106F2C00780363678E42DAD29068805D03F8010BB8
:106F3C000136F7E704F198028888A26504F1A403EE
:106F4C000A88A4F89820C4F8A030A4F89C00002269
:106F5C00824204D395F82C3084F85C30C1E78E68FB
:106F6C00B65C03F8016B0132F2E70E20F8BDF0B508
:106F7C00077885B004460D46002F00F0D680E170EE
:106F8C000020FDF773FD014620B101236370002042
:106F9C0005B0F0BD04F125060722304603F0FAFDDA
:106FAC00E38813B1E378012B04D0E37953B1E37890
:106FBC00022B07D1D4F8CC30A3B1012284F82C20B9
:106FCC0008209847334604F12B0113F8012F12B90E
:106FDC009942FAD117466B1E032B38D8DFE803F021
:106FEC0005080B0D84F82C30ECE7A37903B14FB9ED
:106FFC00E37903B16FBB237A6BBB637A002B0CBFB5
:10700C0000250425D4F8CC30E57033B3033D012DB5
:10701C0023D862790AB394F8D420F2B984F8D62034
:10702C00012284F8D52007209847102200216846B9
:10703C0003F0B0FDE27800238DF800308DF80830B5
:10704C00042A18D8DFE802F0470D212C4B0000254C
:10705C00D8E70225D6E70325D4E7002384F8D530FA
:10706C00E3E70123A3708DF8003000230196ADF8FF
:10707C000C30ADF80A30E378002B4ED1D4F8CC307C
:10708C00002B84D0A078984781E70223A3700123BA
:10709C008DF800302369ADF80C300196E368E8E711
:1070AC006369ADF80A30A369ADF80C306379A3B10C
:1070BC0094F8D41089B994F8D63073B102238DF8B2
:1070CC000830042384F8333004F13000FFF771FEEC
:1070DC000028D0D10523A370CDE70323FBE7E36998
:1070EC00ADF80A30236AADF80C3063799BB194F893
:1070FC00D41081B994F8D6306BB102238DF80830D6
:10710C00042384F8333004F13000FFF752FE0028DA
:10711C00B1D10623DFE70423DDE794F82410684699
:10712C00FFF77AFE0028A9D032E7082030E7038861
:10713C00112B10B50C460AD01B2B1DD0102B27D1B0
:10714C00C37B012B24D18388A1F8C83010BD002249
:10715C00838881F8D420B1F8C8209A4218D10B79D1
:10716C00B3B901212046FFF702FF88B1D4F8D03023
:10717C0073B1BDE810401847037A4BB9C9780523A1
:10718C00013191FBF3F303EB8303C91AC9B2E9E7AD
:10719C0010BD0238012810B50C460ED84B7863B1DF
:1071AC0000234B702046C978FFF7E1FE28B1D4F8D4
:1071BC00D03013B1BDE81040184710BD38B50446A7
:1071CC00FFF72CFE012384F8D4300021062384F829
:1071DC00D61084F8333004F13000FFF7EAFD054691
:1071EC0040B9E1782046FFF7C2FE18B1D4F8D03090
:1071FC0003B19847284638BD75DF704776DF704776
:10720C007ADF70477BDF7047034B1A8882420CBFD2
:10721C0018460020704700BFC82C0020024B9B6909
:10722C0003B11847704700BFAC2C002037B585B2AE
:10723C002846FFF7E9FF034670B1164C017A227B12
:10724C0091420BD200F10A012846FFF7D5FFE8B1B5
:10725C00112801D0FFF7E2FF03B030BD237C0022E0
:10726C00027243B13B212846FFF7C8FF30F00803F8
:10727C0001D0FFF7D3FF6369002BEDD000228DF80E
:10728C000420ADF8065001A89847E5E71A7A0132B8
:10729C001A72E1E7AC2C002013B50B46497A0F4C5F
:1072AC00024669B9A06861681C7A002C18BF0146B7
:1072BC005868FCF7F9F808B1FFF7B0FF02B010BD41
:1072CC00002119726369002BF8D00121ADF806007A
:1072DC008DF8041001A89847F0E700BFAC2C0020F3
:1072EC008388B3F5FA7F28BF6FF4F97230B528BFE5
:1072FC009C1805884A8838BF002495420CD84088D1
:10730C00904209D38A88A24206D303F2F31090422A
:10731C0034BF0020012030BD002030BD0388112B6C
:10732C0070B501462ED002D8102B05D070BD122B93
:10733C0051D0502B35D070BDC37B012B4AD14FF6A9
:10734C00FF70FFF761FF054620B90420BDE87040CF
:10735C00FFF764BF264A8E880680002303721368E9
:10736C00C5F80A300A30536843601031FFF7B8FF94
:10737C00204B6872DB896BBB29463046BDE87040F8
:10738C00FFF78ABF8088FFF73FFF044610B34068C1
:10739C00FCF7D0F808B1FFF741FF4FF6FF732380DD
:1073AC0070BD144BC288DB899A4213D1038A022B1D
:1073BC0010D186883046FFF727FF054650B101F102
:1073CC00120000F04BF90028D6D16868FCF7B2F82F
:1073DC000028BBD170BD86883046FFF715FF0546E7
:1073EC000028F7D008310A30FFF77AFF6872C3E73C
:1073FC00DC2C0020AC2C0020F8B5064650B305461A
:10740C000FCD154F3C460FC495E8070084E80700E4
:10741C003068124B3B60B8B1FFF7F2FED8B9316857
:10742C000A681A604A685A600D480E4A4FF6FF7394
:10743C0003800D4B40F8043F0021FCF723F8002893
:10744C0014BF03200020F8BD1846FFF7DBFE002810
:10745C00EAD0F8BD0E20F8BDAC2C0020DC2C0020AE
:10746C00C82C002039720200E42C00202DE9F043D6
:10747C000388112B95B0064649D01A2B4DD0102BF2
:10748C0066D1354DAA6C6B6C03AF23EA0202291D41
:10749C003846FDF7A5FE01244FF0000805F144091C
:1074AC00039A631E934204F1010426D3686CB488DA
:1074BC00C043FDF749FE4FF6FF73984242D027496F
:1074CC0005EB4000012384802246A1F14400FDF726
:1074DC006AFE23490123A1F140002246FDF763FE19
:1074EC00F37B20499A1E53425341B288A1F14800C4
:1074FC0015B0BDE8F043FDF756BE37F814301A4806
:10750C00CDF800801D224946FDF72DFEC8E7134932
:10751C0082880023A1F14400EAE7037A13498288A8
:10752C001F2B94BF00230123A1F14C00FDF73BFE60
:10753C00337A0F49B2882F2B94BF00230123A1F17A
:10754C005000D5E7042015B0BDE8F043FBF7E0BCD4
:10755C0015B0BDE8F08300BF042D00204C2D002099
:10756C00482D0020502D0020082D0020542D0020E7
:10757C00582D002038B5094C05460246616C201D7B
:10758C00FDF71AFE40B12A46E16C201DFDF714FEF2
:10759C00002814BF0220012038BD00BF042D00209C
:1075AC00024B0246196D181DFDF706BE042D002076
:1075BC0010B5044904464A6C0431FDF711FE20460F
:1075CC0010BD00BF042D002008490A6830B5002307
:1075DC00012505FA03F42242D8B202D122430A60F3
:1075EC0030BD0133182BF4D1184630BD042D0020CA
:1075FC0030B4084C012325688B40024613EA050081
:10760C0006D004EB8101201D896D30BCFDF7D4BD83
:10761C0030BC7047042D002030B4084C13460125B3
:10762C0022688D40154207D01631024604EB8101C9
:10763C00201D30BCFDF7B7BD30BC7047042D0020B9
:10764C00054A0123116883400B401ABF02EB8002EC
:10765C00906D1846704700BF042D0020007800F094
:10766C00010070470078C0F34000704710B5044625
:10767C00408800F007FCA0802046BDE8104001F0D7
:10768C0009BC30B587B005460C461422002101A870
:10769C0003F080FA072301A88DF80430ADF80650EA
:1076AC000394FFF7E3FF07B030BD000030B587B09F
:1076BC0005461422002101A803F06CFA4FF6FF7363
:1076CC009D42ADF806501AD0284600F06CFA0B28F3
:1076DC0004461DD005D8A0B121462846FFF7D1FF9E
:1076EC0005E0112805D043F202039842F4D10022A0
:1076FC0000E00122074B28461978FFF78DFF07B0F1
:10770C0030BD0E2301A88DF80430FFF7AFFFEEE774
:10771C000F23F7E7BD2D00202DE9F04F97B005465C
:10772C00FFF78EFF48B105A8FFF742FF0DF11609D0
:10773C004FF00008059B984502D317B0BDE8F08FB9
:10774C0039F8024F29462046FFF752FF074630B161
:10775C004B4B1B78AB4205D12046FFF7A7FF08F136
:10776C000108E7E7474B1B78AB423AD1002146486A
:10777C0001F0E0FD07460028F1D0204600F0CEF9DC
:10778C00112801461DD004D860B12046FFF779FFBF
:10779C0005E0862817D043F202039842F5D1002663
:1077AC00374601E03E460746364B3A4619782046A6
:1077BC00FFF732FF002EC0D13146334801F0DFFD18
:1077CC00CDE70026F0E714220021684603F0E2F929
:1077DC00062368468DF80030ADF80240FFF746FFEF
:1077EC00DDE7DFF8A8B09BF80030AB42B7D1DFF88B
:1077FC00A0A020469AF80010FFF7FAFE06460028D3
:10780C00ADD1204600F02CFA082801462DD006D820
:10781C00E0B1062829D02046FFF733FF09E043F2F8
:10782C000203984205D043F20143984224D0112818
:10783C00F1D13A469BF800102046FFF7EDFE324698
:10784C009AF800102046FFF7E7FE88E7314614222D
:10785C00684603F09FF9102368468DF80030ADF8A8
:10786C0002403E46FFF702FFE3E7204600F00AFB2A
:10787C0000F010FA0027DCE72046FFF717FFD8E7E7
:10788C00BD2D0020BE2D0020BC2D0020BF2D0020C2
:10789C00C02D0020037810B5044673B94088FFF75B
:1078AC0005FF608800F0CAF938B1044B608819787C
:1078BC000122BDE81040FFF7AFBE10BDBF2D002068
:1078CC000378082B73B504461B4E2CD1417A51BB5F
:1078DC00057A072D1CD0082D2AD0012D23D16A46FC
:1078EC002946808801F0BEF8E8B9019B1B78D3B11A
:1078FC00A08800F0EFFA4FF6FF73984213D00F4CAC
:10790C002A462178FFF788FE2078FFF705FF0AE06A
:10791C00808800F0DFFA4FF6FF73984203D0012203
:10792C003178FFF779FE3078FFF7F6FE02B070BDC4
:10793C00034801F024FDF6E7BE2D0020BF2D0020EA
:10794C00BC2D002070B5FFF73FFE104E104D30706F
:10795C00FFF73AFE2870FFF737FE0E4C2070FFF74A
:10796C0033FE0D4B18703378182B0DD02B78182B49
:10797C000AD02378182B07D0182805D001210748E6
:10798C0001F0D1FC002070BD032070BDBE2D002085
:10799C00BD2D0020BF2D0020C02D0020BC2D0020AF
:1079AC0070B503888488244E522B86B017D0542B84
:1079BC0021D0502B16D1037B012B13D1827A012AB3
:1079CC0010D1018942F6021399420BD11B4D20466E
:1079DC002978FFF721FE2878FFF79EFE02E020466B
:1079EC00FFF764FE164B1878FFF796FE3078FFF71A
:1079FC0093FE06B070BD1422002101A803F0CAF852
:107A0C00112320468DF80430ADF8064000F03AFA08
:107A1C00ADF8080000F03EF90A4B20461978002218
:107A2C00FFF7FAFD204600223178FFF7F5FD01A89B
:107A3C00FFF71CFED6E700BFBF2D0020BE2D002097
:107A4C00BD2D0020C02D0020F0B593B000F0E8F85B
:107A5C0001A8FFF7ADFD104F00244FF6FF76019AF9
:107A6C00A3B29A4206D80C4B187813B0BDE8F0407C
:107A7C00FFF752BE12AA02EB430333F8405C2846D0
:107A8C0000F000FAB04204D1012239782846FFF701
:107A9C00C3FD0134E3E700BFBF2D0020A7DF704713
:107AAC00A9DF7047AADF7047ABDF704773B50F4B88
:107ABC000F4C93E8030000228DE8030069462088F0
:107ACC0001F0FBF86D464FF6FF762388B34201D0E8
:107ADC00112801D102B070BD184601F0E0F8002267
:107AEC002946208001F0E9F8EFE700BFF8B5020065
:107AFC00C22D0020044B1A884FF6FF739A4201D016
:107B0C00FFF7D4BF704700BFC22D0020024B4FF6C9
:107B1C00FF721A8000207047C22D00202DE9F74318
:107B2C00804600F0AFF94FF6FF739842064637D007
:107B3C0001224FF003096B4608213046571C00F018
:107B4C0095FFBFB2054630BB01990A46032342F8A4
:107B5C00049B06314046FFF7A5FF044648B9324660
:107B6C000821304601F088F80446204603B0BDE8F1
:107B7C00F0830C280DD0052800D12C460821304666
:107B8C0001F012F8002818BF03243A46002DD2D178
:107B9C00EBE70125F2E7072814BF04460C24E4E7C1
:107BAC0043F20204E1E72DE9F341804600F06AF963
:107BBC004FF6FF73984217D1002403252646012760
:107BCC002B46224631464046FFF76AFF042820D058
:107BDC00082823D00B281DD115F002030FD18EB924
:107BEC00A4B902B0BDE8F0816A46082100F03AFF62
:107BFC000028E1D1019B9E1D9C881D68DFE70125B3
:107C0C000027DDE703251C461E46F9E7032534460D
:107C1C00F6E71120002F08BF0B20E2E70020F9E760
:107C2C0008B54FF6FF7001F03AF8034B1880BDE829
:107C3C000840FFF73BBF00BFC22D00201FB50DF160
:107C4C000703039300F01EF902AA012100F00AFFBA
:107C5C0020B9039B187805B05DF804FB0020FAE707
:107C6C0038B504460A48FFF71FFF70B9084B43F2BA
:107C7C0003054FF6FF7219882046FFF70FFFA84245
:107C8C0004D11A8801321A80F3E7032038BD00BFF3
:107C9C00C42D002013B5064A044692E803000022C6
:107CAC008DE803006946204601F007F802B010BDCC
:107CBC0000B6020043DF7047F8B5094D094E0024A9
:107CCC000C2707FB046329785888FFF791FC08B947
:107CDC00E0B2F8BD0134142CF3D1FF20F8BD00BF85
:107CEC00C62D0020C82D00200A4B10B5197804466B
:107CFC00FFF77EFC60B1084B00200C2202FB003128
:107D0C004988A14201D1C0B210BD01301428F5D16F
:107D1C00FF2010BDC62D0020C82D002038B505460B
:107D2C000C4609B9FF2038BD4FF6FF739842F9D0C5
:107D3C000E4B01221978FFF76FFC2846FFF7D4FF92
:107D4C00FF2803D1FFF7B8FFFF28EBD008490C231D
:107D5C004343CA1855804FF6FF75CD5221685160C8
:107D6C00131DA2889A80A2799A7138BDC62D002065
:107D7C00C82D0020421E00F10F0312F8010F10B99C
:107D8C009A42FAD170470120704708B580B171B1A1
:107D9C0003780A78534013F0FE0F08D10622013104
:107DAC00013002F0ACFEB0FA80F0400908BD0020B2
:107DBC0008BD2DE9F04700F101084F1C06460D46A1
:107DCC0000F1110901F1110A10223946404602F066
:107DDC0096FE0446E0B94046FFF7CCFF18B1384692
:107DEC00FFF7C8FF044651464846FFF7CEFF737CA9
:107DFC0003F0FC03042B04D06B7C03F0FC03042B7A
:107E0C0002D1201C18BF012000F00100BDE8F08752
:107E1C000024E8E730B585B004460D4600F0EEFBD3
:107E2C0002AA0DF10601072000F0F0FB10B94FF685
:107E3C00FF700BE0BDF80630AB42F1D00399204641
:107E4C00FFF7B7FF0028EBD0BDF8060005B030BD3A
:107E5C0010B50A4C0A48182222704FF6FF71002206
:107E6C0083180C32F02A5980FAD1FFF7ADFB182891
:107E7C0020700CBF0320002010BD00BFC62D0020B9
:107E8C00C82D002008B5FFF72FFFFF281FBF0C23BC
:107E9C005843034B185A08BF4FF6FF7008BD00BF7C
:107EAC00C82D002010B50C46FFF71EFFFF280CD084
:107EBC00074B0C2202FB003050F8043F23608388F0
:107ECC00A3808379A371002010BD052010BD00BFD5
:107EDC00C82D0020084A30B500230C2404FB03F104
:107EEC008D5A854202D10A44508830BD0133142B7F
:107EFC00F4D14FF6FF7030BDC82D0020038843B974
:107F0C00821C00F10A0312F8010B10B99A42FAD143
:107F1C0070470120704710B50446FFF7EFFF68B1BA
:107F2C0022880B889A4208D108220231A01C02F048
:107F3C00E6FDB0FA80F0400910BD002010BD1FB561
:107F4C00044600F05BFB02AA0DF10601072000F0CD
:107F5C005DFB10B94FF6FF7007E0039920464631E0
:107F6C00FFF7D9FF18B1BDF8060004B010BD039996
:107F7C0020462A31FFF7CFFF0028E4D0F3E70000BA
:107F8C0010B50C46FFF7B0FEFF281FBF0C2358435B
:107F9C00014B1C5210BD00BFC82D002070B504460B
:107FAC00FFF798FF0646204600F012FE4FF6FF75CD
:107FBC00AE42044609D040B93046FFF795FEFF2883
:107FCC001FBF0C235843024B1D52204670BD00BFEF
:107FDC00C82D002030B58DB014460D4600F11003AD
:107FEC000DF1FF3213F8011D02F8011F9842F9D16F
:107FFC000D22002104A802F0CDFD2B788DF81F3046
:10800C006B788DF81E306846AB788DF81D30FFF715
:10801C0051FE9DF82F3023709DF82E3063709DF823
:10802C002D30A3700DB030BD30B5037803F0FE03D6
:10803C00042B85B004460D4618D1411C032201A81F
:10804C0002F07EFD0322211D03A802F079FD02AA95
:10805C0003A92846FFF7BEFF032202A901A802F0DC
:10806C004EFDB0FA80F0400905B030BD0020FBE7B2
:10807C0030B50388102B95B055D1041D0FCC07AD2E
:10808C000FC50FCC0FC50FCC0FC523682B6014ADDB
:10809C0015F8303D03F0FE03062B4ED000F0AEFA7F
:1080AC009DF820305B08012B3FD9022B45D102AA49
:1080BC000DF10601072000F0A9FA00283DD0039924
:1080CC0028460131FFF7B0FF0028F0D005E00399F6
:1080DC0028461131FFF759FE38B3BDF80640BDF8FC
:1080EC001C002946FFF71AFE4FF6FF739C421AD06C
:1080FC00BDF81C00FFF7F8FDFF281EBF0C235843EA
:10810C000F4BADF80C4018BF1C52BDF81C30ADF82D
:10811C000A3014AC002304F8483D204600F0BCFEA5
:10812C002046FFF7B7FB15B030BD02AA0DF10601D2
:10813C00072000F06BFA0028C9D14FF6FF74CEE788
:10814C00C82D002090DF70479EDF7047ADDF704771
:10815C0070B117231B2203804380C380038100234B
:10816C00016102718372C3720273427318467047C5
:10817C000E20704773B582880C46AAB90388222B4F
:10818C0000F0BF8012D8102B25D0112B68D0A37A09
:10819C0053B1E1880020FFF7D7FF0246002840F0DA
:1081AC00CB800123A072E37202B070BD3A2B60D079
:1081BC00552B7AD0232BEAD12369017A6173002BDA
:1081CC00E5D00092ADF804204DF67A22ADF80020EF
:1081DC008DF8041091E0C37B0A790A73012B2CD023
:1081EC00022B2DD0E18823898B4206D20020FFF789
:1081FC00ABFF024630BB0123E372237B627B9A42C6
:10820C00C5D200259BB22A4669462846ADF80030F7
:10821C00ADF80230ADF80450ADF80650FFF792FF00
:10822C0003460028B3D04A4A4A49168836042A46DF
:10823C0046F00100FAF782FBA9E70B88E380D1E74F
:10824C004B88FBE7112802D10123A372D5E7404BE1
:10825C0041491B881B0443F00100FAF765FBCCE78E
:10826C001723CB800B811B238A72CA720B734B733F
:10827C008DE74389C98825698B4228BF0B46172B8C
:10828C0038BF1723238165B1E17A51B140F67721CC
:10829C00ADF80010ADF80220ADF804306946204668
:1082AC00A8470023E372A37271E7C388C988A2723E
:1082BC00172B38BF17238B4228BF0B461046238140
:1082CC00FFF744FF024638B1214B24491B881B049D
:1082DC0043F00100FAF728FBE27A002A7FF457AF4B
:1082EC002369002B3FF453AF40F67721ADF8022001
:1082FC002289ADF80010ADF8042069462046984755
:10830C0045E7037A097B01928B4228BF0B46104646
:10831C006946ADF80030ADF80230FFF713FF0246A6
:10832C0000283FF434AF0A4B0D491B881B0443F063
:10833C000100FAF7F9FA2AE711283FF435AF044B9C
:10834C0005491888000440F00100FAF7EDFA2BE714
:10835C007021002054B6020010B60200B1B6020023
:10836C00F3B60200012804D0043804288CBF002086
:10837C00012070474FF6FF73438000F0C9BA00002C
:10838C002DE9F0418AB008220021684602F002FC77
:10839C004FF6FF7000F03AFD4FF6FF750446AC4205
:1083AC0008D0A4F580406A4602A980B2FCF726F8F2
:1083BC000A2818D0194F3E7896B94FF6FF739C4295
:1083CC000ED0A4F580404FF0010880B287F80080F1
:1083DC00FBF7B0FF082805460DD1114B83F8008040
:1083EC000AB0BDE8F081204600F0B4FC204600F055
:1083FC000DFD0446D3E70028F2D0142231460DEBD4
:10840C0002003E7002F0C6FB072305A88DF814305D
:10841C00ADF818400795FFF7ADFFE1E7C02E00203F
:10842C00C12E002070B5044686B01422002101A88C
:10843C0002F0B0FBA08923782E4D00F5804080B26D
:10844C005A1EADF80800042A25D8DFE802F0030311
:10845C0003314A0043F6FE76B042E18904D901F5B6
:10846C00804292B2B24216D8DA1E534253418DF872
:10847C000D30A368049363688DF80C109BB9082326
:10848C008DF804309DF8143043F001038DF814304E
:10849C0001A8FFF76FFF2B781BB100232B70FFF7A0
:1084AC006FFF06B070BD09228DF804200593EFE72D
:1084BC0043F6FE739842EED8E389002BEBD1636848
:1084CC005BB90A238DF8043000F044FC0A4A0023FF
:1084DC002B701370FFF754FFDAE70B238DF8043081
:1084EC00F4E713238DF804304FF6FF73ADF8083022
:1084FC00CEE700BFC12E0020C02E002073B504466D
:10850C000D46164600210822684602F043FBA5F5ED
:10851C008041A4F580406B46324689B280B2FBF7AD
:10852C0053FF002814BF0520002002B070BD0000CE
:10853C0030B5174889B0FBF725FD20BBFBF73EFD96
:10854C00044610BB00F0D8FB0822214603A802F019
:10855C0021FB03AA05A94CF20700FBF743FF10B15E
:10856C00204609B030BD01A905A8FBF745FE019BCB
:10857C009D8805F58045ADB205A8FBF767FE28463A
:10858C0000F0D0FBE5E70324EAE78624E8E700BF28
:10859C0031840200F0B5FF2887B004460E4615461C
:1085AC001F4627D80846FFF7DDFE18B303AA20465E
:1085BC00FFF7A4FF18B10524204607B0F0BD01A9B0
:1085CC0003A8FBF719FE04460028F4D1019BAE70FA
:1085DC005A882A802FB9029B6B6003A8FBF736FEE2
:1085EC00EAE73B6892009A4206D80299686802F062
:1085FC00A7FAF2E70724DFE70424DDE708220021CD
:10860C00014802F0C7BA00BFB82E0020F0B587B001
:10861C0007460E461546FFF7A5FE0446F8B1A7F52A
:10862C008040104A03A980B2FBF7DCFE18B100248D
:10863C00204607B0F0BD01A903A8FBF7DDFD00281B
:10864C00F5D1019BAF705A882A80029A6A609B8888
:10865C0003F58043338003A8FBF7F8FDE8E701241A
:10866C00E6E700BFB82E002008B5034680780A461E
:10867C00FFF778FE68B119881046FBF709FE07284A
:10868C0005D0092806D0002818BF032008BD862075
:10869C0008BD072008BD07B502AB43F8040D18460A
:1086AC00FBF710FE002814BF0320002003B05DF878
:1086BC0004FB30B589B0FF28044601921D4645D80D
:1086CC008B781846FFF74EFE00283FD0A4F5804269
:1086DC00ADF80820A3F58042ADF80A204A68039251
:1086EC000A880492194605AA2046FFF707FF0528B9
:1086FC00019B11D153B902A905A8FBF709FE072864
:10870C00044618D011D8D0B1032415E001AA02A94F
:10871C0005A8FBF701FEF2E713B101A8FBF7D2FDA8
:10872C0002A905A8FBF7FEFDE9E7082801D00E28F1
:10873C00EAD1112400E08624204609B030BD002D7A
:10874C00FAD0294605A8FBF765FEF5E70724F3E701
:10875C004FF6FF7000F0E6BAFF2808B505D800F018
:10876C00E7FAFFF70DFE002008BD072008BD00F05A
:10877C0005BB00F031BB00F049BB000030B50A6806
:10878C00064B012A01D9002030BD1401E55A85425F
:10879C0002D10A60181930BD0132F2E7782F00209F
:1087AC0073B502AC002344F8043D0E460546214641
:1087BC00FFF7E4FF38B18378B34206D1837B9B0784
:1087CC0003D183680BB902B070BD019B01330193D7
:1087DC0021462846ECE7000070B5054E05460024FE
:1087EC0056F82430284601349847042CF8D170BD33
:1087FC0044B702008378013B072B07D8DFE803F06E
:10880C000706060606070409142303807047012394
:10881C00FBE743689B8809339B08F6E770B50F4E5E
:10882C0004460025237B9D4210D34FF6FF73238013
:10883C00A370FF236373A37B03F0FD036FF30003AB
:10884C00A373002323736360A36070BD617B294411
:10885C00C9B2304600F022FD0135E3E7682F002055
:10886C0013B50023009304460193417B837826487B
:10887C008DF8023000F0FBFC08B3237BA27801904A
:10888C0003EB83039B0068468DF80220ADF80030A3
:10889C00FFF7B0FF6268208804F108036946FFF710
:1088AC0008FFA37B03F00303032B01BF174A1368D4
:1088BC0003F1FF331360072823D002D878B10320CB
:1088CC001FE0112812D08628F9D1104A1368013301
:1088DC001360A37B03F0FD0343F0010304E0A37BCF
:1088EC0060F3410360F30003A3730AE0074A1368C3
:1088FC0001331360A37B43F002036FF30003A373F4
:10890C00002002B010BD00BF682F0020642F002093
:10891C00F0B5344DC368AA68934287B0064615D0AB
:10892C00AA69934214D1012405EB041033782E4F1D
:10893C00092B14D0132B0DD0082B4FD1747A002C8B
:10894C004CD100284CD0FFF769FF04E00024EBE782
:10895C000020EBE701243046FFF73EFF0CE0747A71
:10896C00002C3BD100283BD03B68846001333B603A
:10897C00837B43F0020383733B6833B3AB7B980771
:10898C0025D51848FFF76CFF30BBAB7F9A0702D494
:10899C00DB071AD5CCB11548FFF762FFA8B101234C
:1089AC001B018628EB5AADF808304FF6FF720EBF4C
:1089BC0006230723039001A8ADF806200CBF8DF801
:1089CC0004308DF80430FFF707FF07B0F0BDD9076E
:1089DC00DBD5002CD5D1D8E70023E1E70024BAE79A
:1089EC000446B8E7782F0020642F0020882F002041
:1089FC001FB5174B1748FF225A739A7B4FF6FF711E
:108A0C001980997019829974597702F0FD02997F37
:108A1C006FF300029A7301F0FD01002262F3000172
:108A2C001A735A609A6099771A775A619A61012180
:108A3C00022250238DE80E00074B0849A02200F0BB
:108A4C00FBFB002814BF0320002005B05DF804FBDD
:108A5C00782F0020682F0020982F0020C42E002093
:108A6C00FFF776BE0023FFF795BD00002DE9F84F08
:108A7C0081460F4615469846002B00F08D80CB1F83
:108A8C00012B02D90720BDE8F88F531E012BF9D812
:108A9C00FFF76DFE06460028F4D039464846FFF72E
:108AAC007FFE0446E8B1037B9D422CD9DFF8F4B07D
:108ABC004FF0000A237B5FFA8AF18B420AF1010A1C
:108ACC001AD84FF6FF732380A370FF236373A37B25
:108ADC0003F0FD036FF30003A373002323736360A0
:108AEC00A360FF214FF6FF70FFF75AFE044650B308
:108AFC00A4F80090A7700EE0637B1944C9B25846E5
:108B0C0000F0CCFBD6E706D2DFF898A05FFA85F927
:108B1C00237B4B451AD8637BFF2B22D12946214856
:108B2C0000F0D1FBFF2860731CD14FF6FF7323803C
:108B3C00A37BA07003F0FD036FF30003A37300236A
:108B4C0023736360A3601120BDE8F88F617B4944F7
:108B5C00C9B2504609F1010900F0A0FB5FFA89F98E
:108B6C00D6E700262573617B0E4800F080FBB0B180
:108B7C0005EB85052D01ADB2AD0888F80270C8F87B
:108B8C000400A8F8005026B1082F02D1AD00063D14
:108B9C0085800020BDE8F88F0E20BDE8F88F0320FB
:108BAC00BDE8F88F682F002038B5FFF7F9FD0546B2
:108BBC0060B1406810B1FFF76EFD28B9002428465B
:108BCC00FFF72CFE204638BD0324F8E70524F9E70F
:108BDC0073B502AD002445F8044D06462946FFF74F
:108BEC00CDFD58B93CB93046FFF7B6FD044610B17F
:108BFC00072818BF0324204602B070BD8178304688
:108C0C00FFF7D2FF10B1052818BF0324019B0133D5
:108C1C00019329463046E2E7CB1F012B73B50E4674
:108C2C0021D8FFF7BDFD0446F8B14568FDB9417B7D
:108C3C00104800F01CFB009501958DF8026078B18E
:108C4C00237B019003EB83039B006846ADF8003057
:108C5C00FFF7D0FD211D6846FFF706FD092800D15E
:108C6C00032002B070BD0720FBE70520F9E70020C8
:108C7C00F7E700BF682F002038B5CB1F012B0C463F
:108C8C00154608D8FFF78CFD38B105808470BDE817
:108C9C003840FFF7E5BD072038BD052038BDFFF78C
:108CAC0068BDFFF768BD13B5148802ABA40043F888
:108CBC00044DFFF76FFC02B010BD13460022FFF706
:108CCC00F8BC10B54FF6FF7304469C4208460AD117
:108CDC004FF4807100F070FBB0F5807F044609D131
:108CEC004FF6FF7406E0FF2CFAD8214600F022FB69
:108CFC000028F5D0204610BD10B5094C40220021AB
:108D0C00204601F047FF20464FF4807100F00BFB2A
:108D1C0004F120004FF48071BDE8104000F003BB5B
:108D2C00992F00200149FFF7CCBF00BF992F0020DD
:108D3C004FF6FF73984210B5044606D00449FFF76E
:108D4C00C0FF231A5842584110BD002010BD00BF6F
:108D5C00B92F0020FF2810B5044609D80146054854
:108D6C0000F00DFB21460448BDE8104000F007BBA5
:108D7C0010BD00BF992F0020B92F0020FF280146FD
:108D8C0002D8024800F04CBB00207047992F0020FD
:108D9C00FF28014602D8024800F042BB0020704771
:108DAC00B92F002038B54FF6FF73984218BF013029
:108DBC000D4614BF84B20024FF2C03D94FF6FF7468
:108DCC00204638BD2146284600F02AFB0028F7D162
:108DDC000134A4B2F0E7000070B50B490A4EFFF75E
:108DEC00E1FF4FF6FF750446AC4201D1204670BD41
:108DFC002046FFF7CDFF0028F8D020463146FFF77C
:108E0C00D1FF0446F0E700BF992F00200149FFF77E
:108E1C00C9BF00BFB92F0020F8B5074D074F064654
:108E2C0000242B789C4200DBF8BD57F824303046E8
:108E3C0098470134F5E700BFF32F0020E42F002002
:108E4C00074B1B7810B504464BB1FFF711F92046C0
:108E5C0001F06EF82046BDE81040FEF7A1BD10BD34
:108E6C00F22F002010B5044680B10378022B08D1F4
:108E7C00027A4088531E5A425A41054B1978FEF724
:108E8C00CBFB2046BDE81040FFF7C6BF10BD00BFAE
:108E9C00D92F0020FFF7C0BF037810B504462BB9BB
:108EAC00054B408819780122FEF7B6FB2046BDE839
:108EBC001040FFF7B1BF00BFD92F002038B5FFF726
:108ECC0037FB10B10324204638BDFFF791FD002875
:108EDC00F8D101F007F80028F4D100F093FB00283A
:108EEC00F0D1FEF72FFD0028ECD1FEF70FFE002885
:108EFC00E8D1FEF7ADFF04460028E3D1094B0A4D3B
:108F0C004FF6FF721A80094B186018232B70FEF76E
:108F1C005BFB18282870D5D0054B1C70054B012223
:108F2C001A70D0E7F02F0020D92F0020F82F002046
:108F3C00F42F0020F22F0020084B1B7853B1084A65
:108F4C001378022B08D8074941F82300013313701A
:108F5C00002070470820704704207047F22F002033
:108F6C00F32F0020E42F0020034B1B780BB100F0F3
:108F7C00EBBF0820704700BFF22F002009B101F0B1
:108F8C0001B87047024B1B780BB1FEF75DBD704703
:108F9C00F22F0020034B1B780BB1FEF7FFBF08200C
:108FAC00704700BFF22F002070B51A4B1B7886B0AB
:108FBC0063B3194E01234FF6FF703370FFF76FFE4A
:108FCC004FF6FF739842054613D100241422214614
:108FDC0001A8347001F0DEFD0C2301A88DF80430DB
:108FEC00ADF80850ADF80650FFF716FF204606B056
:108FFC0070BD1E462846FFF7CDFF044640B92846F3
:10900C00FFF74DFEB0420546F4D1EFE70824EDE73B
:10901C000324EBE7F22F0020E02F00202DE9F04F86
:10902C001C462C4B1B7887B083468A469146002BF6
:10903C004DD04FF6FF70FFF732FE0025012304954B
:10904C0004AAADF81030062103AB06460395059330
:10905C00FFF729FE072836D04FF6FF7843464FF02E
:10906C00FF37E0B1052818D04FF6FF7296422CD18D
:10907C00BBF1000F01D0ABF80030BAF1000F01D0FA
:10908C00CAF80050B9F1000F01D0A9F8008004B162
:10909C002760002007B0BDE8F08F00220392039AEE
:1090AC00AA4224BF334615463046BA423CBFB046AE
:1090BC0017460193FFF7F3FD04AA06210646FFF7B6
:1090CC00F2FD019BCDE70520E4E70320E2E7082051
:1090DC00E0E700BFF22F002008B500231A4606492E
:1090EC000648FFF79BFF28B1431F58425841044BD9
:1090FC00187008BD0120FAE7DC2F0020F02F0020AB
:10910C00F42F0020F0B5044687B08088FEF7E2FE0D
:10911C0023786080083B032B20D8DFE803F0022182
:10912C003166637A5BB93F4A116851B1E06881429C
:10913C0007D113603C4AA1881180E3600EE0012B3B
:10914C000CD13A4B1B784BB1374BA2881B889A42F7
:10915C0004D1237A062B01D1FFF7BEFF20465DE038
:10916C00637A002BFAD12F4A11680029F6D0E068F7
:10917C008142F3D12E4913600A68013A0A60DCE798
:10918C002C4F3B7873B90125284B1B7833B1264BF8
:10919C00A2881B889A4201D1FFF79EFF002DDDD1DA
:1091AC0007B0F0BD4FF6FF70FFF779FD4FF6FF7378
:1091BC0098420546E7D1FFF774FDA8420646E2D176
:1091CC0000251422294601A83D7001F0E3FC0C2374
:1091DC0020468DF80430ADF80860ADF80660FFF756
:1091EC001BFE01A8FFF718FECEE7124B1A78002AD7
:1091FC00B4D00021142201A8197001F0CBFC0D236E
:10920C008DF804304FF6FF73ADF80830ADF806302A
:10921C002046A3680393FFF7FFFD01A8FFF7FCFDB1
:10922C00BEE700BFF82F0020F02F0020F42F002005
:10923C00DC2F0020E02F002070B5059C069DA0B10E
:10924C0099B193B105FB04F696420ED8049AE61D2B
:10925C00B2EBD60F09D344B13DB180E83A001846C1
:10926C00A1B200F060F8002070BD072070BD38B5C9
:10927C000C46054608B9002038BD0368002BFAD00F
:10928C0040680028F7D0FF29F5D000F0C9F8002875
:10929C00F1D0EB68286803FB040038BD38B50546EF
:1092AC0080B1036873B1406860B1FF290AD08CB2F9
:1092BC00214600F0B5F828B121466868BDE8384071
:1092CC0000F05DB838BD2DE9F0418846064618B966
:1092DC00FF242046BDE8F0810368002BF8D04368DA
:1092EC00002BF5D00027FF24B368FDB2AB42EFD9B9
:1092FC002946706800F01EF840B1FF2C08BF2C46C0
:10930C002D1B01354545E4D00137EDE7FF2C07D186
:10931C00FF24F9E721463046FFF7C0FF0134E4B2E1
:10932C00A542F7D8F4E720B1CA1DD210002101F0F4
:10933C0031BC70472DE9F3410546D0B1CF0801F09F
:10934C0007044FF0010808FA04F4C65DE4B22640A5
:10935C0013D102A800F8016DFAF7FCF8EB5D9DF84B
:10936C0007001C4205BF1C43EC5535464546FAF731
:10937C0015F9284602B0BDE8F0810025F9E773B570
:10938C00C1F3C706012501F007018D40EAB204467E
:10939C0080B1835D1A420DD002A8002300F8013D74
:1093AC00FAF7D8F8A15D9DF8070021EA0505A55547
:1093BC00FAF7F4F802B070BD2DE9F74F0E4682466D
:1093CC0020B9B046404603B0BDE8F08F4FF000091D
:1093DC0001274E451FFA89F8F3D04FEAD80B08F055
:1093EC00070407FA04F41AF80B50E4B2254002D033
:1093FC0009F10109EDE70DF107008DF80750FAF7B7
:10940C00A9F81AF80B309DF807001C4202BF1C4348
:10941C000AF80B400125FAF7C1F8002DE8D0D1E786
:10942C0058B1CB0801F00701C25C012303FA01F12A
:10943C000A4214BF184600207047012070477EDF97
:10944C0070477FDF704786DF70470378182B10B5A5
:10945C00044602D1FEF7B8F8207010BD10B50446D2
:10946C004088FEF70FFDA0802046BDE8104000F0BC
:10947C00DBBC10B586B004461422002101A801F013
:10948C0089FB04230DEB03008DF80430ADF8064086
:10949C00FFF7E4FF06B010BD30B587B005460C46AB
:1094AC001422002101A801F075FB072301A88DF8F7
:1094BC000430ADF806500394FFF7D0FF07B030BD71
:1094CC00F0B587B004460F4616460021142201A8B9
:1094DC001D4601F05FFB03238DF80430094BADF8FA
:1094EC000640002219788DF80C702046ADF80E60FD
:1094FC008DF81050FEF790F801A8FFF7AFFF07B0FA
:10950C00F0BD00BFCF21002030B5144B0A1C87B032
:10951C000C4618BF012219780546FEF77DF8631E2C
:10952C005A425A410E4B28461978FEF775F80D4BE6
:10953C00284619780022FEF76FF81422002101A8A2
:10954C0001F028FB012301A88DF80430ADF806507A
:10955C008DF80C40FFF782FF07B030BDD221002000
:10956C00D0210020D12100201F4B2DE9F0410E46C7
:10957C00197804461746FEF73BF8014680B320469F
:10958C00FEF780FC194B054619782046FEF730F89B
:10959C00174B00281978204614BF4FF001084FF0E4
:1095AC000208FEF725F850B12846FEF7F7FC3B46BB
:1095BC00324641462046BDE8F041FFF781BF4FF6E9
:1095CC00FF739D42F3D007212846FFF7EDFA0146C1
:1095DC000028ECD00528EAD02046FFF75DFFE6E72F
:1095EC003B463246E6E700BFD2210020D0210020C6
:1095FC00D1210020024B0A781978FEF70DB800BF74
:10960C00CE2100202DE9F041DFF86480144F154E77
:10961C00154D164C4046FFF718FF3846FFF715FF5F
:10962C003046FFF712FF2846FFF70FFF2046FFF7E3
:10963C000CFF98F80030182B0FD03B78182B0CD05F
:10964C003378182B09D02B78182B06D02378182BAD
:10965C000CBF03200020BDE8F0810320BDE8F081A1
:10966C00D2210020D0210020D1210020CE210020A9
:10967C00CF2100202DE9F04F8BB09346064688464B
:10968C00FDF778FF554C074621783046FDF7B0FFC3
:10969C0020228246002102A801F07CFA012FA1466B
:1096AC000CD14F4B002219783046FDF7B5FFB8F1BD
:1096BC00000F0CD185274FF6FF7540E0002F5AD0D4
:1096CC00B8F1000F03D185274FF6FF750DE098F820
:1096DC000030DB070CD4434BCDF814B009934FF694
:1096EC00FF75012F4FF0000729D002AB002228E0B4
:1096FC003046FEF7C7FB4FF6FF739842054604460B
:10970C000CD1FFF7ADF9A042054637D10324BAF1CD
:10971C00000F2CD02846FEF741FC28E0012F2FD15A
:10972C002F4C30462178FDF763FF48BB3046FFF7DE
:10973C00A0FE21783046FDF75BFF08BB852702AB06
:10974C00424639463046FFF77CFE04460028DED1FF
:10975C00002FDCD1BAF1000F09D099F80010304677
:10976C000122FDF759FF29463046FEF709FC204639
:10977C000BB0BDE8F08F43F20204F8E74FF0010A9A
:10978C006B46012207212846FFF770F91128044681
:10979C00BDD0002CBAD121465022019801F0FAF923
:1097AC0001990B46304603F8347B029301F1180300
:1097BC0006934B1C079311310A4BCDF814B0099347
:1097CC00FEF770FB0028A1D107212846FFF724FAE9
:1097DC00052804469AD0002899D182E7D12100208F
:1097EC00CE210020FC2F002038B505460C46FDF795
:1097FC00C1FE012806D144B121462846BDE83840B7
:10980C00FFF71DBE43F2020038BD204638BD0000F4
:10981C002DE9F0430388113B89B00446092B71D81C
:10982C00DFE813F00A0070001F00470070007000A2
:10983C007000700097001801037A85883D2B9D4BB2
:10984C002846197841F23D0418BF4FF48854FDF7AF
:10985C00CFFE002856D0002221462846FFF784FE72
:10986C0050E08088FDF786FE012802460FD1237A4E
:10987C00A58813F0010F8F4B14BF0126022619780F
:10988C002846FDF7C9FE31462846FFF73DFE34F861
:10989C00045F1422002103A801F07CF90434052391
:1098AC008DF80C30ADF80E50059403A8FFF7D6FDDB
:1098BC0028E000F110063046FEF741FB4FF6FF732F
:1098CC0098420546A08820D1FEF7DCFA0546794B74
:1098DC00A788197801223846FDF79EFE00213846EC
:1098EC00FFF712FE4FF6FF739D4212D100250023A5
:1098FC0029461A46A088FFF7A6FD0146F8B1A088B4
:10990C00FFF7CAFD09B0BDE8F0832946FEF738FB26
:10991C00DDE703AA07212846FFF7A4F80028E5D1C4
:10992C00049D95F84430DB0701D53435DFE731462B
:10993C0005F14600FEF7EFFA0028F6D1D6E7002D28
:10994C00E0D1A0882B4641F206022946FFF7B8FD6C
:10995C00D8E7067A574F8588002E6ED12846FDF73A
:10996C0009FE81462846FEF78DFA32468046397844
:10997C002846FDF751FEB9F1000FC3D0637A13F0FE
:10998C0004074DD0072101AB01224046FFF76EF8CA
:10999C00014690B12846FFF77FFD02238DF80C306D
:1099AC00637AADF80E5013F0040F14BF0123022399
:1099BC008DF814308DF8156077E74FF6FF7102982B
:1099CC00FEF728FA4FF6FF739842074665D03A4ED9
:1099DC0001462846FEF7D4FA31782846FDF708FEF2
:1099EC00002864D12846FFF744FD31782846FDF75E
:1099FC00FFFD064600285AD1304B28461978FDF752
:109A0C00F7FD0028C9D04046FEF7C8FAC5E728463E
:109A1C00FFF742FD00264FF6FF739F42ECD1BCE7E7
:109A2C00264B28461978FDF7E3FD06460028B4D0EE
:109A3C004046FEF7B3FA3E46AFE7447A39782846FB
:109A4C0004F00304FDF7D4FD00283FF45BAF22467D
:109A5C00314602E71A4B80881978FDF7C9FD054697
:109A6C0000287FF44FAFA088FDF79AFD0146A0882F
:109A7C0019B9012341F2060268E70E4B2A46197800
:109A8C00FDF7CAFD02238DF80C30A388ADF80E301B
:109A9C008DF814508DF8155007E7424607214046C3
:109AAC00FFF7EAF801460028B1D10126B3E73A46A0
:109ABC00F4E700BFCF210020CE210020D1210020CF
:109ACC00D2210020002242608260024A12680260A9
:109ADC00704700BF4830002060B3027802F0820368
:109AEC00802B26D0C2F30213042B22DC02F0F203EB
:109AFC00322B1ED04178837899421AD8062918D96E
:109B0C00102B16D8C17811F0040312D10079430739
:109B1C000FD4084303070CD412F0010F00F003001C
:109B2C0003D1B0FA80F040097047003018BF012013
:109B3C00704700207047FFF795B90378182B10B5C4
:109B4C00044602D1FDF740FD207010BD70B586B003
:109B5C0006460C4615460021142201A801F01AF8FD
:109B6C003046ADF80660FEF78DF90D2CADF8080007
:109B7C0019D103238DF804309DB12B7813F0010F0C
:109B8C000CBF022301238DF80C3000238DF810300C
:109B9C0041F20113ADF80E3001A8FFF7CCFF06B06F
:109BAC0070BD0223EFE7862C0BBF062307238DF82D
:109BBC0004308DF8043018BF0394EDE72DE9F0471D
:109BCC00054688B091469A460F4600293BD1684617
:109BDC00FFF778FF052628468DF80C60ADF80E507F
:109BEC00FEF750F9ADF8100003A80597CDF818D082
:109BFC00FFF7A1FF334B1B781BB99DF80930002BE5
:109C0C003CD0DDF800804A4641462846FFF7ECFD83
:109C1C00862804461AD0A0F111035E425E41002250
:109C2C00294B28461978FDF7F7FC284B3246197852
:109C3C002846FDF7F1FC0D2C03D00AD80CB1082CEA
:109C4C0036D1264635E04FF00008DCE7002601222D
:109C5C00E6E7862C16D043F202039C42F1D0112C7D
:109C6C0026D11B4B3A4619782846FDF7D5FC194BE3
:109C7C004A4619782846FDF7CFFC0026304608B036
:109C8C00BDE8F087124B3A4619782846FDF7C4FC1C
:109C9C00104B4A4619782846FDF7BEFC2646BAF109
:109CAC00000FEBD0424621462846FFF74FFFE5E771
:109CBC000326BAF1000FE1D034F00803DED0112CEA
:109CCC00F0D1DBE745300020D6210020D521002043
:109CDC00D4210020D32100202DE9F04792B0074673
:109CEC00FDF7AEFC60B101A8FDF762FCDFF84C801B
:109CFC00DFF84C900DF106060025019B9D4202D326
:109D0C0012B0BDE8F08736F8024F39462046FDF711
:109D1C006FFC80B198F800102046FDF769FC99F8AB
:109D2C00001082462046FDF763FC01230146524693
:109D3C002046FFF743FF0135DFE700BFD3210020AA
:109D4C00D421002070B588B0044668460D46FFF754
:109D5C00B9FE052320468DF80C30ADF80E40FEF709
:109D6C0091F8ADF8100003A80595CDF818D0FFF7C1
:109D7C00E2FE1A4B00991A682046FFF77BFC8628F6
:109D8C00054627D0A0F111035E425E410022144B20
:109D9C0020461978FDF740FC124B324619782046C4
:109DAC00FDF73AFC104B002219782046FDF734FCE5
:109DBC000E4B002219782046FDF72EFC35F00803D7
:109DCC0006D0112D04D0009A29462046FFF7BEFE7E
:109DDC0008B070BD00260122D9E700BF3C3000203E
:109DEC00D8210020D7210020D6210020D521002009
:109DFC00F0B593B0074601A8FDF7DAFB0DF10605A7
:109E0C000024019B9C4201D313B0F0BD35F8026FC6
:109E1C0039463046FDF7ECFB18B100213046FFF710
:109E2C0091FF0134EDE700000378052B10B50446D3
:109E3C0006D0122B0AD02046BDE81040FFF77BBE9F
:109E4C0081684088BDE81040FFF77CBF0C4B1B6855
:109E5C009BB10C4B1978037A01F001029A420CDB8E
:109E6C00437AC1F340019942ACBF00210121012387
:109E7C0000226088FFF7A2FEDDE70121F7E700BFB3
:109E8C0048300020403000200378082B10B51FD339
:109E9C000B2B0ED9132B1BD10E4B1C782046FDF728
:109EAC00CFFB10B12046FFF7A3FF0B4B1878FFF741
:109EBC0013FF0A4B1C782046FDF7C2FB10B120465D
:109ECC00FFF796FF064BBDE810401878FFF704BF6C
:109EDC0010BD00BFD8210020D6210020D7210020A2
:109EEC00D521002010B50C480C4CFFF726FE0C4871
:109EFC00FFF723FE0B48FFF720FE0B48FFF71DFE74
:109F0C000A48FFF71AFE2046FFF717FE2378182B96
:109F1C000CBF0320002010BDD5210020D82100202B
:109F2C00D6210020D3210020D4210020D7210020CD
:109F3C0008B5FFF76DFC034B1878BDE80840FFF738
:109F4C00CBBE00BFD521002010B5044630B90A4B5A
:109F5C0018600A4B01221A70002010BDFFF7BCFDDF
:109F6C0038B1074B22681A6022791A71024A1360C1
:109F7C00EFE7072010BD00BF48300020453000201F
:109F8C0040300020FFF736BBA0DF7047A6DF7047DC
:109F9C00A8DF704762DF70473ADF70473BDF7047DE
:109FAC007FB5044638B10388502B5AD005D8102BF6
:109FBC0017D0112B19D004B070BD512B1DD0532BC1
:109FCC00F9D1334DC288EB889A42F4D16B7E002BC9
:109FDC00F1D000F0BDF90028EDD06B690220984754
:109FEC00E9E782882A4B9A80E5E7294B81889A8891
:109FFC009142E0D14FF6FF72F5E7254D8288AB8890
:10A00C009A42D8D18679022ED5D10289EB889A4210
:10A01C00D1D1837B043B022BCDD910220021684681
:10A02C0000F0B8FD2B7E8DF80060BBB19DF80630BA
:10A03C0043F001038DF806300023ADF80430694677
:10A04C00A888FFF7A5FF1128F9D0BDF80430002B24
:10A05C00B1D104F1080000F02FF9ACE740F2FD1388
:10A06C00EBE70B4DC2886B899A42A4D1038A022B71
:10A07C00A1D11230FDF7F6FA064B28761B8806495B
:10A08C001B04024643F00300F8F74EFC93E700BFB5
:10A09C004C3000202821002064B7020030B587B076
:10A0AC0005460C461022002102A800F073FD032384
:10A0BC00ADF8023020238DF804300F4B8DF805508D
:10A0CC00DA88ADF8082002228DF80A200022ADF8BB
:10A0DC000C200DF10202049202A901AA98888DF8B5
:10A0EC0006400592FFF752FF20B9BDF80230032B52
:10A0FC0018BF0C2007B030BD4C30002010B54FF00D
:10A10C00FF310020FFF74AFF044658B9B121FFF791
:10A11C0043FF044630B9044B01205B699847022089
:10A12C00FAF76CFF204610BD4C300020F0B51A4BEE
:10A13C0087B002AA064603F110071546186859683D
:10A14C00144603C40833BB422246F7D116B3134C52
:10A15C004FF6FF73A3803368636120460023637658
:10A16C00237600F047F898B906A94FF659630120F9
:10A17C0021F8143DA21C8DF80600FFF705FF38B935
:10A18C0021462846FFF706FF10B9204600F04CF890
:10A19C0007B0F0BD0E20FBE754B702004C30002096
:10A1AC00A2DF70474FF0030C00DF70470F490B68BC
:10A1BC0010B5CBB14B689BB910BD0D4C236858B989
:10A1CC00987601210220FFF769FF68B1236803200C
:10A1DC005B69BDE81040184700229A760421F1E72C
:10A1EC00083198471128E8D110BD00BF88300020F5
:10A1FC008430002018B1034B1860002070470E20EB
:10A20C00704700BF8430002008B5FCF751FB38B90B
:10A21C000448FFF7C7FF18B9BDE80840FCF776BB48
:10A22C0008BD00BF8830002010B590B004461C2239
:10A23C00002109A800F0AEFC1422002104A800F0B3
:10A24C00A9FC0122134662F307138DF80430134660
:10A25C0062F307138DF805304FF0000362F34203ED
:10A26C008DF8063028238DF8243001AB0E9323464D
:10A27C00608813F8061B8DF80E100321ADF80C1036
:10A28C00114662F307118DF80810114662F307119D
:10A29C00924042F011028DF80A2003AA049202AAFD
:10A2AC00059217228DF80910ADF81C2009A904AAF3
:10A2BC00FFF776FF10B010BD70B50446007B012887
:10A2CC000AD002281FD00221207BFFF7E7FE0028CE
:10A2DC0037D01C4B1B6808E01A4D2B689E7E4EB184
:10A2EC000621FFF7DBFE60B32B685B690320BDE83A
:10A2FC007040184758760146FFF7D0FE08B32B681C
:10A30C005E760421E0E7627B531E132B17D80E4DAB
:10A31C000C4E04F10E01281D00F012FC637BAB61A6
:10A32C0033689B7E002BECD10849284651F8083B3A
:10A33C0098470028E5D1336801229A7670BD052133
:10A34C00C2E770BD843000206830002088300020C7
:10A35C0008B5044B1B6800205B699847BDE80840B2
:10A36C00FFF7CCBE84300020054B1B68082B01BFC7
:10A37C00044B1868B0FA80F0400918BF00207047F1
:10A38C00300100103401001008B5FFF7EDFF40B1AB
:10A39C004FF080430022C3F80C21C3F81021C3F8FE
:10A3AC003825FFF7E1FF002846D04FF080525E4B76
:10A3BC00D2F80414C3F82015D2F80814C3F82415E5
:10A3CC00D2F80C14C3F82815D2F81014C3F82C15B5
:10A3DC00D2F81414C3F83015D2F81814C3F8341585
:10A3EC00D2F81C14C3F84015D2F82014C3F8441545
:10A3FC00D2F82414C3F84815D2F82814C3F84C1515
:10A40C00D2F82C14C3F85015D2F83014C3F85415E4
:10A41C00D2F83414C3F86015D2F83814C3F86415A4
:10A42C00D2F83C14C3F86815D2F84014C3F86C1574
:10A43C00D2F84424C3F87025FFF796FF10B13B4BBC
:10A44C003B4A1A60FFF790FF18B13A4BFB22C3F856
:10A45C001825FFF789FF48B13749384B0A681B6844
:10A46C0022F00F0203F00F0313430B60FFF77CFF86
:10A47C0018B1334B4FF400721A60FFF775FF48B1F7
:10A48C004FF08043D3F80024D20744BF6FF0010291
:10A49C00C3F800242B4AD2F8883043F47003C2F876
:10A4AC008830BFF34F8FBFF36F8F4FF01023D3F86B
:10A4BC000022002A03DBD3F80432002B2FDA224BC4
:10A4CC000122C3F80425D3F80024002AFBD04FF056
:10A4DC0010221221C2F80012D3F80024002AFBD05B
:10A4EC004FF010231222C3F80422174B1A46D3F84C
:10A4FC0000140029FBD00021C3F80415D2F8003455
:10A50C00002BFBD0BFF34F8F0E49104BCA6802F4DF
:10A51C00E0621343CB60BFF34F8F00BFFDE70C4BE2
:10A52C000C4A1A6008BD00BF00C000408C560040A9
:10A53C004881030000F00040E40E00405802001077
:10A54C004096024000ED00E000E001400400FA05F6
:10A55C00DC2100200090D00310DF704711DF704722
:10A56C0013B5044609496846FAF7B0FD019808B9D5
:10A57C0002B010BD036841682046984718B1684680
:10A58C00FAF7AEFDF2E71120F2E700BF88B7020040
:10A59C0013B5044607496846FAF798FD019B0BB9B9
:10A5AC0002B010BD20461A68596890476846FAF701
:10A5BC0097FDF3E7A0B70200064B9A6822B11A6820
:10A5CC0022F480021A607047034B4FF48002C3F8E8
:10A5DC00802070478028002000E100E00B4A92F8B0
:10A5EC001633C3F34113012B0BD9094B996821B1D5
:10A5FC001A6842F480021A6070474FF480031360AB
:10A60C00704742F20200F8F783BC00BF00E100E0A3
:10A61C0080280020F7B5124F3C78FCB9114E01256B
:10A62C0020463570FFF79CFF112814D02046FFF709
:10A63C00AFFF0D4B0D491868019001A8FFF78CFF77
:10A64C00044640B90A4B307018703D70FFF7C6FFD6
:10A65C002846FFF79DFF204603B0F0BD0824FAE71B
:10A66C00953000209430002081B70200392F020071
:10A67C009630002070B50F4E3378B3B10E4D0120DB
:10A68C002870FFF76DFF112811D00220FFF780FF13
:10A69C00FFF764FF044630B930702870FFF78CFF69
:10A6AC000320FFF775FF204670BD0824FBE700244C
:10A6BC00F9E700BF9530002094300020054B1B7843
:10A6CC0033B1054B1B780BB1FFF7D4BFFFF7A2BF1B
:10A6DC00082070479430002095300020014B1878EA
:10A6EC00704700BF9530002007B508496846FAF757
:10A6FC00EDFC019B13B903B05DF804FB58681A68B4
:10A70C0090476846FAF7ECFCF3E700BF94B70200F9
:10A71C00FFF7EABF60DF704769DF704761DF7047A2
:10A72C0030B5104D93B038240DF1060104A8ADF8E6
:10A73C000640FFF7F3FF70B9294602A8FAF7C6FCEA
:10A74C00039B002BF0D004A81A685968904702A804
:10A75C00FAF7C6FCF4E7052801D0F8F7D9FB13B0DB
:10A76C0030BD00BFA4B9020030B5054685B00C461B
:10A77C00002900F093804B4B0B600C22002101A8A8
:10A78C0000F008FA01238DF8063022688DF8045089
:10A79C00032301A92020ADF80830FFF7BDFF58B105
:10A7AC00414B1D88FAF7C6FC2D0445F00105024605
:10A7BC003E492846F8F7B8F80C22002101A800F011
:10A7CC00E9F901238DF804302268002301A9402007
:10A7DC008DF805308DF80630FFF79EFF58B1324BDF
:10A7EC001D88FAF7A7FC2D0445F0010502463049F7
:10A7FC002846F8F799F80C22002101A800F0CAF9B4
:10A80C00012022688DF8040001A9FFF785FF58B1DB
:10A81C00254B1D88FAF78EFC2D0445F001050246E8
:10A82C0024492846F8F780F80C22002101A800F0F2
:10A83C00B1F94FF4B0632268019301A9A120FFF78D
:10A84C006BFF58B1184B1D88FAF774FC2D0445F0BA
:10A85C000105024618492846F8F766F80C22002133
:10A86C0001A800F097F99DF80430226843F0010329
:10A87C0001A9A0208DF80430FFF74EFF80B10A4BE0
:10A88C001C88FAF757FC240444F0010402460B49D7
:10A89C002046F8F749F8002005B030BD0E20FBE744
:10A8AC00FAE700BF2821002088210020B4B702005D
:10A8BC00FAB7020046B8020092B80200E3B80200F0
:10A8CC0070B504460268FFF725FF23689A420546D7
:10A8DC0017D0144E14493088000440F00200F8F7E9
:10A8EC002DF84FF080533088D3F80C3122680F4983
:10A8FC009B0203F1005300049A1A40F00200F8F78F
:10A90C0013F865B1074B28461C88FAF713FC24048E
:10A91C0044F00104024606492046F8F705F828469B
:10A92C0070BD00BF8821002036B9020063B9020057
:10A93C0085B9020048DF70471FB50D4C01A8FFF721
:10A94C00F9FF70B9214602A8FAF7C0FB039B002B54
:10A95C00F4D001981A685968904702A8FAF7C0FB1E
:10A96C00F4E7052801D0F8F7D3FA04B010BD00BF06
:10A97C00BCB9020053EA020C61D02DE9F04BB3FADA
:10A98C0083F51E0007BFB2FA82F502FA05F403FA4A
:10A99C0005F41646C5F120051EBF22FA05F73C4307
:10A9AC00203556EA044C4FEA144418BF0134A34630
:10A9BC004FF00009C846904271EB030C39D30942A1
:10A9CC0007BFB0FA80F700FA07F6B1FA81F701FA7F
:10A9DC0007F6C7F120071EBF20FA07FC46EA0C0653
:10A9EC002037B6FBFBFC7F1B103F07F01F04C4F1A4
:10A9FC0020060CFA04F42CFA06F644BF3446002662
:10AA0C00202FA4BF2646002454EA060C08BF0124BC
:10AA1C0018EB040849EB0609A4FB027CC01B06FBDF
:10AA2C0002CC04FB03CC71EB0C01904271EB030CD8
:10AA3C00C5D20B46024649464046BDE8F08BB2FBF8
:10AA4C00F3F200BF7F2805D8034B185C034B5B5C0B
:10AA5C001840704700207047D4B9020054BA020065
:10AA6C00A0F16103192B98BF20387047A0F1410366
:10AA7C00192B98BF203070477F2805D8034B185CE2
:10AA8C00034B5B5C1840704700207047D4B9020040
:10AA9C0054BA0200A0F16103192B98BF20387047FB
:10AAAC00A0F14103192B98BF203070477F299ABF22
:10AABC00017001206FF02E0070475AB10A787F2A7E
:10AACC000AD800B10260002119605960501A18BFF1
:10AADC0001207047002070476FF02E007047000077
:10AAEC0008B5034B5B689B681B68984708BD00BFA3
:10AAFC00E021002008B50921FFF7F2FF08BDE2B103
:10AB0C0070B4561E15D002780B789A4213D1431CA0
:10AB1C000131064418460A46B34205D001330131CF
:10AB2C0005781478A542F5D000781378C01A70BC5B
:10AB3C0070470A46F8E70A46F6E70020704700001F
:10AB4C00844640EA010313F0030F18D18446202AEF
:10AB5C000BD32DE9F007B1E8F807A0E8F807A2F14C
:10AB6C002002202AF7D2BDE8F007042A07D351F8B7
:10AB7C00043B40F8043BA2F10402042AF7D2002A59
:10AB8C0005D011F8013B00F8013B013AF9D16046C0
:10AB9C00704700BF8446002A2DD010F0030F04D05C
:10ABAC0000F8011B013A26D0F7E7C9B241EA0121AE
:10ABBC0041EA0141202A12D3A2F120022DE9F0032F
:10ABCC000B460C460D460E460F4688468946A0E8B5
:10ABDC00FA03203AFBD2BDE8F00320320BD0042A52
:10ABEC0005D340F8041B043A05D0042AF9D200F826
:10ABFC00011B013AFBD16046704700BF00F1010117
:10AC0C0010F0030F11D010F8012B002A23D010F0F4
:10AC1C00030F0AD010F8012B002A1CD010F0030FE0
:10AC2C0003D010F8012B002A15D02DE970004FF03D
:10AC3C0001324FF0803350F8044BA4EB020525EAA7
:10AC4C0004051D4000D1F6E7A0F1040070BC10F81B
:0CAC5C00012B002AFBD1A0EB0100704787
:10AC68007974020000000000E962020000000000A0
:10AC78003B710200C02B002081810200982C00202B
:10AC880029730200000000004D8E02000000000041
:10AC9800AD9F02004C300020E1630200000000007C
:10ACA800714B020000000000455202000000000045
:10ACB8009F710200C02B0020B9A102000000000013
:04ACC8008964020099
:10ACCC0010AE02000000030000AF02000000000004
:10ACDC0054AF02000000000047B302000000000067
:10ACEC004DB302000000000054B30200000000004D
:10ACFC003BB7020000000300ACB7020000000300E9
:10AD0C00B0B9020000000300C8B902000000030043
:10AD1C00B14C020000000000E552020000000000EF
:10AD2C002DA702000000000045A902000000000051
:08AD3C002D4B02000000000095
:10AD440000000000000000000000000000000000FF
:10AD540000000000000000000000000000000000EF
:10AD640000000000000000000000000000000000DF
:10AD740000000000000000000000000000000000CF
:10AD840000000000000000000000000000000000BF
:10AD940000000000000000000000000000000000AF
:10ADA400000000000000000000000000000000009F
:08ADB400000000000000000097
:10ADBC000000000000000000653E020000000000E2
:04ADCC000000000083
:10ADD000FFFFFFFFFFFFFFFFFFFFFFFFFFFFFFFF83
:10ADE00000000000000000000000D6010701000084
:10ADF000652402004D240200FD2302005826002095
:10AE000020270020282700206026002018000000AE
:10AE10006170700047AE020070AE020078AE0200B2
:10AE200080AE020088AE020090AE020098AE020032
:10AE3000A0AE0200A8AE020020253032780020200B
:10AE400020007C002563001B5B306D002573000D26
:10AE50000A003C25733E2025733A200000000000C4
:10AE6000D6AE0200B0AE0200B8AE0200BDAE020027
:10AE70001B5B313B33306D001B5B313B33316D006D
:10AE80001B5B313B33326D001B5B313B33336D0059
:10AE90001B5B313B33346D001B5B313B33356D0045
:10AEA0001B5B313B33366D001B5B313B33376D0031
:10AEB0007761726E696E6700696E666F00646562C5
:10AEC0007567000B0C18190D0E0F100030270020AD
:10AED000466174616C206572726F7200537973748D
:10AEE000656D207265736574000000000000FFFF4F
:10AEF000DEC0ADDEFE011EF1DEC0ADDEFF011EF1E3
:10AF000062616C6C6F630030313233343536373800
:10AF1000394142434445460000100000040000004F
:10AF200001000000D14C0200514B0200414B0200D5
:10AF3000914D0200454D0200134B0200174B0200D9
:10AF40001D4B0200702A0020C8AC0200CCAC0200ED
:10AF5000040000007077725F6D676D7400556E6B52
:10AF60006E6F776E206572726F7220636F6465001A
:10AF70000000000060B00200010000006CB00200A0
:10AF8000020000008AB0020003000000ABB0020023
:10AF900004000000BEB0020005000000CFB00200B7
:10AFA00006000000E3B0020007000000FBB0020052
:10AFB0000800000013B10200090000002BB10200DC
:10AFC0000A00000044B102000B0000005CB1020066
:10AFD0000C00000073B102000D00000087B10200F8
:10AFE0000E00000099B102000F000000A8B102009D
:10AFF00010000000BCB1020011000000D3B102003B
:10B0000080000000E2B102008100000002B20200F4
:10B01000820000001EB20200830000003AB202006B
:10B020008400000058B202008500000079B20200DE
:10B03000860000009EB2020090000000B5B202003F
:10B0400091000000D3B2020000820000F1B20200C1
:10B05000018200000FB30200028200002BB3020045
:10B060004E52465F53554343455353004E52465F3D
:10B070004552524F525F5356435F48414E444C45F0
:10B08000525F4D495353494E47004E52465F455219
:10B09000524F525F534F46544445564943455F4EC5
:10B0A0004F545F454E41424C4544004E52465F4529
:10B0B00052524F525F494E5445524E414C004E52EF
:10B0C000465F4552524F525F4E4F5F4D454D004EC9
:10B0D00052465F4552524F525F4E4F545F464F5556
:10B0E0004E44004E52465F4552524F525F4E4F54AF
:10B0F0005F535550504F52544544004E52465F45A1
:10B1000052524F525F494E56414C49445F50415252
:10B11000414D004E52465F4552524F525F494E5686
:10B12000414C49445F5354415445004E52465F459B
:10B1300052524F525F494E56414C49445F4C454E26
:10B14000475448004E52465F4552524F525F494E57
:10B1500056414C49445F464C414753004E52465F6E
:10B160004552524F525F494E56414C49445F44410B
:10B170005441004E52465F4552524F525F44415433
:10B18000415F53495A45004E52465F4552524F5215
:10B190005F54494D454F5554004E52465F455252FB
:10B1A0004F525F4E554C4C004E52465F4552524FE7
:10B1B000525F464F5242494444454E004E52465F0C
:10B1C0004552524F525F494E56414C49445F4144AB
:10B1D0004452004E52465F4552524F525F425553C1
:10B1E00059004E52465F4552524F525F4D4F4455A3
:10B1F0004C455F4E4F545F494E495449414C5A4566
:10B2000044004E52465F4552524F525F4D55544591
:10B21000585F494E49545F4641494C4544004E529F
:10B22000465F4552524F525F4D555445585F4C4F03
:10B23000434B5F4641494C4544004E52465F4552A0
:10B24000524F525F4D555445585F554E4C4F434BEE
:10B250005F4641494C4544004E52465F4552524F6D
:10B26000525F4D555445585F434F4E445F494E49D8
:10B27000545F4641494C4544004E52465F45525248
:10B280004F525F4D4F44554C455F414C52454144F0
:10B29000595F494E495449414C495A4544004E5220
:10B2A000465F4552524F525F53544F524147455F9C
:10B2B00046554C4C004E52465F4552524F525F41EC
:10B2C00050495F4E4F545F494D504C454D454E548B
:10B2D0004544004E52465F4552524F525F464541EB
:10B2E000545552455F4E4F545F454E41424C454484
:10B2F000004E52465F4552524F525F4452565F5481
:10B3000057495F4552525F4F56455252554E004E77
:10B3100052465F4552524F525F4452565F5457490E
:10B320005F4552525F414E41434B004E52465F458E
:10B3300052524F525F4452565F5457495F455252E2
:10B340005F444E41434B00636C6F636B00677069F1
:10B350006F74650075617274000000000B000300DB
:10B36000E16002000C000300E1600200180003002D
:10B37000E160020019000300E1600200382B0020A8
:10B38000582B00208C2B0020506F776572206D6148
:10B390006E6167656D656E742077616E747320747D
:10B3A0006F20726573657420746F20444655206D5C
:10B3B0006F64652E00506F776572206D616E6167F6
:10B3C000656D656E7420616C6C6F77656420746F59
:10B3D00020726573657420746F20444655206D6F2C
:10B3E00064652E0044657669636520697320707218
:10B3F00065706172696E6720746F20656E74657226
:10B4000020626F6F746C6F61646572206D6F64652C
:10B410002E004465766963652077696C6C20656EE3
:10B4200074657220626F6F746C6F61646572206DF9
:10B430006F64652E005265717565737420746F209A
:10B44000656E74657220626F6F746C6F6164657293
:10B45000206D6F6465206661696C65642061737935
:10B460006E6368726F6E656F75736C792E005265CE
:10B47000717565737420746F2073656E642061202C
:10B48000726573706F6E736520746F20636C69658D
:10B490006E74206661696C65642E00556E6B6E6F0C
:10B4A000776E206576656E742066726F6D20626CB3
:10B4B000655F6466755F627574746F6E6C657373D7
:10B4C0002E004446553341313431004170706C696F
:10B4D000636174696F6E20737461727465640A00CD
:10B4E000457261736520626F6E64732100436F6EF5
:10B4F0006E656374656420746F2061207072657678
:10B50000696F75736C7920626F6E64656420646521
:10B51000766963652E00436F6E6E656374696F6E46
:10B5200020736563757265643A20726F6C653A20AA
:10B5300025642C20636F6E6E5F68616E646C653A83
:10B5400020307825782C2070726F63656475726581
:10B550003A2025642E0053657474696E6720766501
:10B5600063746F72207461626C6520746F20626F07
:10B570006F746C6F616465723A203078253038786A
:10B58000004661696C65642072756E6E696E672035
:10B5900073645F736F66746465766963655F76650F
:10B5A00063746F725F7461626C655F626173655F23
:10B5B000736574004E6F20626F6F746C6F616465A9
:10B5C000722077617320666F756E640053657474C2
:10B5D000696E6720766563746F72207461626C6552
:10B5E00020746F206D61696E206170703A20307830
:10B5F00025303878000000000100010008B6020084
:10B60000010001000CB60200010000000000000073
:10B6100073645F626C655F67617474635F657863B0
:10B6200068616E67655F6D74755F7265717565736E
:10B630007428292072657475726E656420756E6554
:10B64000787065637465642076616C756520307808
:10B6500025782E0073645F626C655F6761705F645C
:10B660006174615F6C656E6774685F757064617446
:10B6700065282920287265717565737429206F6E9D
:10B6800020636F6E6E656374696F6E203078257805
:10B690002072657475726E656420756E657870656C
:10B6A000637465642076616C756520307825782E2A
:10B6B0000073645F626C655F67617474735F657863
:10B6C0006368616E67655F6D74755F7265706C79D4
:10B6D00028292072657475726E656420756E6578B0
:10B6E0007065637465642076616C756520307825BB
:10B6F000782E0073645F626C655F6761705F646180
:10B7000074615F6C656E6774685F757064617465A1
:10B71000282920287265706C7929207265747572E9
:10B720006E656420756E65787065637465642076F7
:10B73000616C756520307825782E00626C655F67D6
:10B740006174740011910200959E0200017B020059
:10B75000CD78020050EADA308883B89F604F15F345
:10B760000000C98E526563656976656420696E6400
:10B7700069636174696F6E207374617465202564F8
:10B7800000010000070000003CAD020044AD0200D3
:10B79000080000002CAD02003CAD020008000000D3
:10B7A0001CAD02002CAD0200080000006E72665F46
:10B7B0007364680073645F626C655F6366675F7380
:10B7C000657428292072657475726E65642025730E
:10B7D000207768656E20617474656D7074696E673A
:10B7E00020746F2073657420424C455F434F4E4E6A
:10B7F0005F4346475F4741502E0073645F626C654C
:10B800005F6366675F73657428292072657475725B
:10B810006E6564202573207768656E206174746599
:10B820006D7074696E6720746F2073657420424C6C
:10B83000455F4741505F4346475F524F4C455F432A
:10B840004F554E542E0073645F626C655F6366678C
:10B850005F73657428292072657475726E65642043
:10B860002573207768656E20617474656D707469E6
:10B870006E6720746F2073657420424C455F434FA0
:10B880004D4D4F4E5F4346475F56535F55554944B4
:10B890002E0073645F626C655F6366675F736574D7
:10B8A00028292072657475726E656420257320776F
:10B8B00068656E20617474656D7074696E6720745C
:10B8C0006F2073657420424C455F47415454535F69
:10B8D0004346475F415454525F5441425F53495A73
:10B8E000452E0073645F626C655F6366675F7365B6
:10B8F0007428292072657475726E65642025732022
:10B900007768656E20617474656D7074696E672008
:10B91000746F2073657420424C455F474154545303
:10B920005F4346475F534552564943455F4348414D
:10B930004E4745442E0052414D207374617274731A
:10B9400020617420307825782C2063616E20626538
:10B950002061646A757374656420746F2030782583
:10B96000782E0052414D2073697A652063616E2004
:10B9700062652061646A757374656420746F203039
:10B980007825782E0073645F626C655F656E616216
:10B990006C6528292072657475726E656420257344
:10B9A0002E00000068AC0200A8AC020008000000F5
:10B9B0006E72665F7364685F626C6500A8AC0200BB
:10B9C000C8AC0200080000006E72665F7364685FB6
:10B9D000736F63002020202020202020206828284A
:10B9E0002828202020202020202020202020202047
:10B9F00020202020481010101010101010101010CF
:10BA000010101010848484848484848484841010AE
:10BA100010101010108181818181810101010101CB
:10BA200001010101010101010101010101010110F7
:10BA300010101010108282828282820202020202A0
:10BA400002020202020202020202020202020210C8
:10BA5000101010200007032004170201085710409F
:10BA60008000000008BC0200CCBA0200E0BB02006B
:10BA700053756E004D6F6E00547565005765640018
:10BA8000546875004672690053617400000000003C
:10BA90004A616E00466562004D617200417072003D
:10BAA0004D6179004A756E004A756C0041756700FA
:10BAB000536570004F6374004E6F760044656300F9
:10BAC00000000000414D00504D00000004BC020089
:10BAD00000BC020000BC020000BC020000BC02006E
:10BAE00000BC020000BC020000BC020000BC02005E
:10BAF00000BC0200FFFFFFFFFFFFFFFFFFFFFFFF94
:10BB0000FFFF000040BB020070BA02007CBB0200D5
:10BB100090BA0200C4BA020024BB0200D4BB0200E7
:10BB200030BB0200256D2F25642F25790000000011
:10BB300025612025622025652025542025590000F7
:10BB400053756E646179004D6F6E64617900547550
:10BB50006573646179005765646E6573646179002B
:10BB60005468757273646179004672696461790022
:10BB70005361747572646179000000004A616E75EA
:10BB8000617279004665627275617279004D617209
:10BB9000636800417072696C004D6179004A756E8E
:10BBA00065004A756C79004175677573740053655B
:10BBB0007074656D626572004F63746F62657200C8
:10BBC0004E6F76656D62657200446563656D626592
:10BBD0007200000025483A254D3A25530000000028
:10BBE00051AA02006DAA020079AA020085AA0200E9
:10BBF000A1AA0200ADAA0200B9AA0200C7AA0200C7
:10BC0000000000002E00000043000000504F534988
:04BC100058000000D8
:10BC14000020004000000000F0AD02000000000021
:10BC2400000000000A180100FFFF1818181818185F
:10BC340018181818180000000090D00364BA020005
:10BC440064BA020064BA020064BA020064BA020070
:04000003200022595E
:00000001FF
