:020000022000DC
:10600000000001203D6202009562020097620200DA
:10601000996202009B6202009D6202000000000083
:106020000000000000000000000000009F6202006D
:10603000A162020000000000A3620200A56202004B
:106040009D990200AB620200D99D0200AF6202007E
:10605000B1620200B3620200559C0200B762020006
:10606000B9620200BB620200BD620200BF620200B0
:10607000C1620200C3620200C5620200C762020080
:10608000C96202004D740200CD620200CF620200BC
:10609000E9740200D3620200BDED0200D762020083
:1060A000D9620200DB620200DD620200DF620200F0
:1060B000E1620200E3620200A7620200A76202003E
:1060C000E5620200E7620200E9620200EB620200A0
:0C60D000ED620200EF620200F1620200CB
:1060DC00364937480A1A02D0072291438D46354972
:1060EC0035480A1A06D00722914381F30988022207
:1060FC0082F3148831483249324A00F045F832486C
:10610C003249334A00F040F832483349334A00F000
:10611C003BF833483349344A00F036F833483449B5
:10612C00344A00F031F834483449354A00F02CF840
:10613C0034483549354A00F027F8354835490022AE
:10614C0000F02DF834483549002200F028F8344886
:10615C003449091A082903DB00220260043001606B
:10616C00314A90471F482049884205D002680430C4
:10617C0003B4904703BCF7E700208646EC460020AA
:10618C0000212A4A9047FEE7884207D0521A05D0D0
:10619C00037801300B700131013AF9D17047884214
:1061AC0002D002700130FAE77047000000000120B5
:1061BC0000E0002000000120000001208C070300FB
:1061CC007C220020F0220020F4620200F462020023
:1061DC0058F302008C0703007C2200207C22002054
:1061EC00E0F40200E0F40200E0F40200E0F402004B
:1061FC00E0F40200E0F40200E0F40200E0F402003B
:10620C008C07030000080300F0220020F02200207D
:10621C00F02200206C3100206C3100206C31002009
:10622C006C3100206C51002061620200A1AE0200B2
:10623C000F484FF00701884385460E4880470E48AB
:10624C00016841F470010160BFF34F8FBFF36F8F92
:10625C00FFF73EBF09480A490A4A884207D0521A3A
:10626C0005D0037801300B700131013AF9D1704738
:10627C00000001207D6E020088ED00E08CF402002D
:10628C00282200207C220020FEE7FEE7FEE7FEE746
:10629C00FEE7FEE7FEE7FEE7FEE7FEE7FEE7FEE7CA
:1062AC00FEE7FEE7FEE7FEE7FEE7FEE7FEE7FEE7BA
:1062BC00FEE7FEE7FEE7FEE7FEE7FEE7FEE7FEE7AA
:1062CC00FEE7FEE7FEE7FEE7FEE7FEE7FEE7FEE79A
:1062DC00FEE7FEE7FEE7FEE7FEE7FEE7FEE7FEE78A
:0862EC00FEE7FEE7FEE700BF3C
:1062F400F0B595B01C4608460D46164603F0B5F8B1
:106304001A9B099400240D930822234605A92846C4
:1063140008960A948DF82C400C9403F0E4F8079B3B
:106324000293BDF81830ADF80C30BDF81A30ADF852
:106334000E309DF814308DF8114003F00302012A49
:106344001DD1BDF81440059EC3F3C203C4F38314E6
:106354008DF81030A20008230EA9284603F0C3F8D4
:10636400C6F3952608AB0093224602AB0EA930462D
:1063740000F0F2FB284603F07CF815B0F0BD022AC9
:10638400F8D1BDF81640C3F3C203C4F389148DF8E1
:1063940010300827082C264628BF08263B463246DC
:1063A4000EA9284603F09FF8A41B08AB02AA3146A5
:1063B4000EA8374400F034FC002CEBD1DAE70000DF
:1063C400014B01221A7070473123002070470000EE
:1063D40070B50E4D06460FCD88B06C460FC495E8D7
:1063E4000F0084E80F0008A9002E4FF00603084AA6
:1063F40041F8203D08BF0022064803F057FA08B1CF
:1064040000F076FF044B1E7008B070BDE0F402008B
:10641400C56302007C220020F022002007B5044B53
:106424000093044A4023FFF763FF03B05DF804FBC5
:106434003D640200F122002038B50D4B0D4D0020C3
:1064440018700D4804782D5DD2B21C4665B1043035
:1064540004F000F908B100F04BFF084B1A7812B1B0
:106464002378002BFBD038BD0C3003F0E9FEF1E7B4
:10647400312300209C2B00207C220020F0220020CD
:1064840008B50848084A0378D35C3BB1043004F0EB
:106494007DF80020BDE80840FFF79ABF0C3003F0F8
:1064A4006BFEF6E77C2200209C2B00200120FFF7E6
:1064B4008FBF000010B5054CFFF7F8FF04212046FC
:1064C40000F0BAFA0123637210BD00BF90220020CD
:1064D400037813F0030F10B503F0040402D004F0A2
:1064E400FF02F4B1B4B103F00303012B03D0022B78
:1064F40009D0012010BD0A6800880232C0F383105D
:1065040002440A60F5E70B684288023303EB9213F6
:106514000B60EEE70B684288013303EB92130288A9
:10652400F4E7104610BD00002DE9F04F89B006468F
:10653400851C08A8494C019200230F4600F8113D20
:1065440001F0BCF923683B606268A36813442268C5
:1065540001339B1A04F21C4704F5836A04F21448BD
:10656400AB421AD3019A0023002A6FD0012262F3AE
:10657400010343F0040366F389132168A2689DF8BC
:106584000F000A4003320D4444F82230256001F024
:10659400B9F9012009B0BDE8F08F0121384602F0B5
:1065A40021FA504602F03BFA404602F038FA0DF167
:1065B40020096068D4F808B049F8100D00EA0B000F
:1065C400033004EB80004946FFF782FF049BB8B90F
:1065D4000BEA030204EB8202D16805919A1C013391
:1065E40003EA0B0B04EB8B0E0492DEF80C300693DB
:1065F40001F00303012B21D0022B04D083460CE0CD
:106604000BEA0300DCE7BDF81630BDF81AB0C3F39B
:106614008913033302EB93030493404602F002FA16
:1066240008B1049B63605946384602F0DBF962689E
:10663400A3681344226801339B1A91E7BDF8143010
:10664400BDF81AB0C3F383131344E5E7022262F3DF
:10665400010343F0040366F39F538EE704240020F0
:1066640008B50E4B0E48FF229A600022C3F8182486
:106674001A605A60C3F8142483F8202402F0ACFE94
:1066840038B9084A084B09499B1ADB0802469A4262
:1066940000D108BD21F822200132F8E704240020AB
:1066A40044F40200C4F3020044F40200282200204F
:1066B40030B50B4C79B10B4A0B49121BD20800239D
:1066C4009A4201D1002030BD01EB83056D888542DB
:1066D40002D00133F4E7034654F8330030BD00BF61
:1066E400C4F3020044F4020028220020094B0139BB
:1066F40003EBC000032909D8DFE801F00A0204060D
:106704000420704700797047407970470020704733
:1067140002207047C4F30200034B58681B68C31A75
:1067240058425841704700BF042400202DE9F0432B
:1067340087B0FFF7F1FF0746002840F0E6807B4D65
:10674400C5F81804BFF34F8F6868AC680DF11808DA
:1067540048F8100D2040033005EB80004146FFF758
:10676400B7FE029B064600285AD104EA0302991C8C
:10677400013305EB8202234005EB8303D268DB6817
:10678400049302F00303022B039202915AD1BDF841
:106794000E306748C3F389194F46502FA8BF5027BE
:1067A40067F38F1307F10801ADF80E3002F02CFEE9
:1067B4008046002800F0B08002F057FE082203A9AA
:1067C4003346404602F064FE029924EA0102013293
:1067D400920097422FD9002A00F099802140D6B226
:1067E4000331BF1B534C05EB8101FFB20823324632
:1067F400404602F04DFE34B106F108033A46214604
:10680400404602F045FE029B09F1030903EB99039C
:106814000293D5F81834002B47D1D5F8104450E032
:106824002A689A4204D86A60384607B0BDE8F08303
:1068340004EA03008FE70C40E11C08233A4605EB09
:106844008101DDE7012B67D1BDF80C303848C3F373
:106854008311062928BF062161F3891302318900B7
:10686400ADF80C3002F0D0FD8046002854D002F080
:10687400FCFD3346082203A9404602F009FEBDF898
:106884000C20C2F38312B31C96424FEA8303C0D296
:1068940002994A1C21400331029205EB8101042232
:1068A400404602F0F5FD0136E9E7404602F0E1FD1D
:1068B400FFF732FF80F00100C7B2B5E7637A73BB1C
:1068C4006468002CFAD1404602F0D3FD06A800F813
:1068D400114D00F0F3FFD5F818340BB9029B6B602F
:1068E4009DF8070001F00EF8E2E7236820469B6854
:1068F40098476468002CF8D10F4B1049188800049D
:1069040040F0020000F074F8D2E700278CE7FEB2F2
:1069140014460849174669E7D5F81044EAE723689E
:1069240041461B6820469847CAE700BF042400205C
:1069340044F40200102400203C2200200CF5020044
:106944002DE9F74F284C80460F46924601A90122B3
:1069540018469B46A568FFF7E7FD88B3DDF8049069
:10696400002609F102025E4534D100211F4801F0DE
:10697400ECFF80F3100009F101022A4004EB8202CB
:10698400000405EA0903033340EA1840D06014F810
:10699400232068F3C50204F8232034F8232066F387
:1069A400891224F8232054F82320012167F39F221D
:1069B40044F8232061F301026FF3820204F82320D8
:1069C40094F820341BB1FFF7B1FE0028FBD103B0CB
:1069D400BDE8F08F02EA050104EB81015AF8263084
:1069E400CB6001360132BEE70424002020280020B9
:1069F40000231A46FFF7A4BF13B502AC012344F8E1
:106A0400042D2246FFF79CFF02B010BD07B58DE8A8
:106A14000C0002236A46FFF793FF03B05DF804FB02
:106A24001FB50293069B0192039301AA0323FFF768
:106A340087FF05B05DF804FB0F4A30B5D2F8104467
:106A44000023214641B90372D2F810444CB9C2F86C
:106A540010044160184630BD0D7A9D4205D0496846
:106A6400F0E7626842606060F4E701330A2BE8D122
:106A74004FF0FF33EEE700BF04240020084A38B586
:106A84000123D2F8104482F820341D4604B938BDDD
:106A94002368657220465B6898476468F6E700BF20
:106AA40004240020C38873B504460D4633B1144A48
:106AB40000921449144A284602F015F8217A05294F
:106AC4001CD0637A4BB1A088FFF710FE0F4B10491E
:106AD40053F82020284602F006F8227A0D4BA088AD
:106AE40053F822600021FFF7E3FD0B4903463246C9
:106AF400284602B0BDE8704001F0F5BF02B070BD99
:106B040087F502006FF5020067F5020034F5020014
:106B14008CF502009CF502008FF50200037A052B28
:106B240010B50C460FD0437A23B1084A08492046D1
:106B340001F0D9FF0749204601F0D5FF2046BDE802
:106B4400104001F0C5BF002AF8D0F3E787F5020032
:106B54008CF5020084F502002DE9F04385B01F4650
:106B64000C9D002306460C46904695F80C902B731A
:106B740029463846FFF796FFB8F1060F09D8DFE833
:106B840008F00412181F283340003146284601F04B
:106B9400AAFF002229463846FFF7C0FF85F80C906B
:106BA40005B0BDE8F08322683146284601F09BFF1A
:106BB400EFE794E80C003146284601F094FFE8E73B
:106BC400A3680093314694E80C00284601F08BFF3B
:106BD400DFE7E3680193A3680093314694E80C006F
:106BE400284601F080FFD4E723690293E368019308
:106BF400A3680093314694E80C00284601F073FF23
:106C0400C7E76369039323690293E3680193A36865
:106C14000093314694E80C00284601F064FFB8E77D
:106C240008292DE9F84F80460E4617461C4636D8EB
:106C3400002593F80C901D7319461046FFF732FF98
:106C4400DFF87CA0DFF87CB0AE422AD918F8052022
:106C54005946204601F047FF0135082DF4D1164965
:106C6400DFF864B0204601F03EFF0025AE421DD996
:106C740018F805A0504608F0B9FA002814BF524687
:106C84002E225946204601F02EFF0135082DEDD164
:106C9400012221463846FFF741FF84F80C90BDE8F5
:106CA400F88F5146204601F01EFFD5E703492046E0
:106CB40001F019FFE9E700BF62F5020060F5020088
:106CC4005EF5020058F5020064F50200054A4FF033
:106CD400A043105CD3F8043523FA00F0C04300F05D
:106CE40001007047FFF50200044B1A5C0123934036
:106CF4004FF0A042C2F80C35704700BFFFF5020008
:106D0400044B1A5C012393404FF0A042C2F80835AB
:106D1400704700BFFFF5020008B50020FFF7F0FF41
:106D24000120FFF7EDFF0220FFF7EAFF0320BDE893
:106D34000840FFF7E5BF08B50020FFF7D5FF0120A5
:106D4400FFF7D2FF0220FFF7CFFF0320BDE8084082
:106D5400FFF7CABF074A4FF0A041105CD1F80435D1
:106D64000122824022EA03001340C1F80805C1F859
:106D74000C357047FFF50200054A4FF0A043105C44
:106D8400D3F8103523FA00F0C04300F00100704737
:106D9400FBF502000D2809D00E2809D00F2809D0D0
:106DA40010280CBF03204FF0FF30704700207047BD
:106DB4000120704702207047014B185C704700BFE8
:106DC400FBF50200C20708B501460CD54FF0A043FD
:106DD4000322C3F84427C3F84827C3F84C27C3F851
:106DE4005027FFF799FF8B070AD54FF0A0430C22D9
:106DF400C3F83427C3F83827C3F83C27C3F840271F
:106E040008BD0000094B1B78062B0CD1084B1B68EE
:106E14001A0708D1074B186800F0F000A0F13003FE
:106E24005842584170470020704700BFE00F00F0FF
:106E3400E40F00F0E80F00F00C4B1B78062B10D188
:106E44000B4B1B681A070CD10A4B186800F0F003AF
:106E5400302B08D000F0E000A0F140035842584124
:106E64007047002070470120704700BFE00F00F01A
:106E7400E40F00F0E80F00F008B5FFF7DDFF28B1DC
:106E84007F4B804A1B68C3F304231360FFF7BAFFE8
:106E940010B17D4B7D4A1A60FFF7CEFF28B17C4BC1
:106EA4007C4A1B68C3F342331360FFF7ABFF20B186
:106EB400794AD36823F08073D360FFF7BDFF40B1F4
:106EC4004FF080430022C3F80C21C3F81021C3F80B
:106ED4003825FFF797FF10B1704B03221A60FFF7B4
:106EE40091FF40B16E4B05221A6001229A6700227D
:106EF4009A603F225A606B4B1B78062B09D16A4B70
:106F04001B68190705D1694B1B6803F0F003502B6C
:106F140067D0FFF791FF28B1654B664A1B6803F001
:106F24004F031360FFF788FF48B14FF08043D3F855
:106F34000024D20744BF6FF00102C3F800245E4B63
:106F44001B68062B04D15D4B1B68062B00F0918057
:106F54005B4AD2F8883043F47003C2F88830BFF338
:106F64004F8FBFF36F8F4FF01023D3F80022002A06
:106F740003DBD3F80432002B2FDA524B0122C3F87F
:106F84000425D3F80024002AFBD04FF01022152149
:106F9400C2F80012D3F80024002AFBD04FF01023CB
:106FA4001522C3F80422474B1A46D3F800140029CB
:106FB400FBD00021C3F80415D2F80034002BFBD019
:106FC400BFF34F8F3E49404BCA6802F4E06213435B
:106FD400CB60BFF34F8F00BFFDE73C4B3C4A1A60C8
:106FE40008BD4FF080523B4BD2F80414C3F820156F
:106FF400D2F80814C3F82415D2F80C14C3F82815D1
:10700400D2F81014C3F82C15D2F81414C3F83015A0
:10701400D2F81814C3F83415D2F81C14C3F8401568
:10702400D2F82014C3F84415D2F82414C3F8481530
:10703400D2F82814C3F84C15D2F82C14C3F8501500
:10704400D2F83014C3F85415D2F83414C3F86015C8
:10705400D2F83814C3F86415D2F83C14C3F8681590
:10706400D2F84014C3F86C15D2F84424C3F8702540
:107074004FE7194A136843F48063136068E700BF5D
:10708400240300104035014074C007400DF0ADBA30
:10709400440200103C050040F0ED00E0A005004073
:1070A40010560040E00F00F0E40F00F0E80F00F08D
:1070B40058020010E40E00403001001034010010AA
:1070C40000ED00E000E001400400FA059C220020ED
:1070D4000090D00300C000403C1700402DE9F84F59
:1070E400DFF8A4B00025254B1B78ECB2A34201D8ED
:1070F400BDE8F88F224BD3F8008018F834900120B3
:107104004A46002107F09EFFDBE9002300EA02065D
:1071140001EA03073E4308EBC40A2CD023EA010129
:1071240022EA0000CBE90001484602F087FD18F886
:107134003440814622460120002107F083FF114B91
:10714400D3E90067224606400F404846002107F075
:1071540079FF8F4208BF86420DD1DAF8043053B16B
:107164009AF801104A1E51425141A1EB09004142D3
:107174004141204698470135B5E700BF2828002043
:107184006028002050280020582800202DE9F843CA
:1071940007461F4800F082FB002837D13A460120F9
:1071A400002107F04FFF1B4B04460D46D3E90001B5
:1071B40004EA000805EA010958EA09021E461FD13B
:1071C400384602F03BFD144B98B1D3E9000120434B
:1071D4002943C3E90001D6E900231D430F4B0C48A2
:1071E40019681443C6E900450022BDE8F84300F0DD
:1071F4000FBBD3E9000120EA040021EA0501E8E716
:1072040020EA040421EA0505C3E90045BDE8F88342
:107214003028002058280020502800202C28002046
:10722400042AF7B505460C46164638D902F042FC46
:10723400C8B11C4B1C491D601C4B1D4F1C701D4BC1
:1072440000221E600023C1E900231B49C1E9002379
:10725400013CE4B20026FF2C0BD1184A1848002147
:1072640000F0C4FA03E002F0EDFB0028E1D003B023
:10727400F0BD23B205EBC302032192788DF804100C
:107284008DF8052001A93A4615F833008DF80660FB
:1072940002F01AFC013CE4B20028DCD0E7E7072046
:1072A400E5E700BF6028002050280020282800209F
:1072B400917102002C28002058280020E17002005F
:1072C40004F6020070B5084D084E00242B789C4249
:1072D40001D3002070BD3368012113F8340002F09B
:1072E40067FC0134F2E700BF282800206028002052
:1072F4001FB50021039001AA44F2010001910291FB
:1073040000F004F805B05DF804FB000010B572B697
:10731400FFF7B4FBFFF70AFA0028FBD1104C114920
:107324002088000440F00100FFF762FB0E4B1B684D
:10733400DB0700D500BE20880C49000440F00200A1
:10734400FFF756FBBFF34F8F09490A4BCA6802F493
:10735400E0621343CB60BFF34F8F00BFFDE700BF74
:107364003C22002008F60200F0ED00E014F60200D2
:1073740000ED00E00400FA05094A537891780133DE
:10738400DBB2994208BF0023117899421FBF0370F2
:107394005078182303FB002014BF043000207047EA
:1073A4006428002073B5054602A8002400F8014DA6
:1073B4000E4600F083FA0DF10600FFF7DDFF90B1F1
:1073C40006700A4B9DF8062045605A709DF8070028
:1073D40000F098FA24B9064B4FF48012C3F8002148
:1073E400204602B070BD0424F0E700BF64280020EA
:1073F40000E100E0024B4FF43C6043F00103184706
:1074040030F6020038B50C4B0C4C4FF40032C3F884
:10741400802001254FF48033C4F84833C4F808337E
:107424006560FFF7E7FF064BA56000241C60FFF7CB
:10743400E1FF044B1C7038BD00E100E00010014086
:107444008029002071290020F8B51F4B1F491B68B3
:107454000025C1F84051C1F84451C1F84851C1F860
:107464004C51C1F80051C1F804514BB3D1F8044553
:1074740017490968641A24F07F442F461A68A24207
:1074840009D8A41A15441A7CDE691AB11F745A6902
:1074940098699047AEB90F4B0F4A197813788B420D
:1074A40005D10133DBB2022B08BF0023137012781D
:1074B4000A4B43F822500A4B4FF48012C3F80021C0
:1074C400F8BD3346DAE700BF8429002000100140EC
:1074D400802900207C2900207D2900207429002097
:1074E40000E100E02DE9F74F9C4A9D4913780978A3
:1074F4009C4E994257D00133DBB2022B08BF0023C4
:10750400137099491278994B0F6853F822003B186D
:1075140023F07F4300220B603368154614469646D9
:1075240013B942B1336006E01968814229D902B126
:107534003360091A19604FF0010833688C4FDFF883
:107544003CB200934FF00009002D61D02C46ED6948
:10755400854B60681A68831A23F07F41854B9942F2
:10756400A36800F2B7800B44236000236360A36028
:10757400E361336801222274002B40F0B38034604D
:10758400E2E7401A0C44D968C3F800E0D3F81CC001
:1075940031B13A1922F07F42DD615A6099601D468B
:1075A40063460122BCE70025A846C6E7531CB97808
:1075B400DBB299423B704FF0180303FB027208BF21
:1075C4003D7013799468022B1BD0032B11D0012B2F
:1075D4001ED1217CE1B9D36863601369A360536948
:1075E400E3609369A361644B1B78002BB0D06160A6
:1075F400AEE7002335681A46002D67D143B13560E4
:1076040006E0326813469246002B5AD100232374B5
:107614003A787B789342C9D1B9F1000F06D1336827
:10762400009A9A4202D1B8F1000F44D03368002B7B
:1076340073D0D3F800A0514D4B4BD5F804751C689A
:10764400DFF840813E1B98F8003026F07F46033671
:107654009BB94FF48033C5F84433C5F80433484B21
:107664004FF400324FF00109C3F880211A60C5F8C5
:107674000090FFF7BFFE88F80090B2452CBF544439
:10768400A41924F07F44C5F84045D5F80435DB1B24
:1076940023F07F43E41B033324F07F44A3420AD93D
:1076A400D5F80435C5F84035FFF7A4FE344B4FF444
:1076B4000032C3F80021304B00221A7003B0BDE839
:1076C400F08F9C422CD09A46DB699DE72A740123F3
:1076D400ED6991E7121A22F07F429A4234BF9B1A55
:1076E400002341E7226819688A420BD88A1A1A6073
:1076F400E36144E7521AD969184661B92260E1612D
:10770400DC6121E7184619689142F3D3891A19609C
:1077140019460346F2E70B46F5E7FFF773FECAE79F
:1077240054450DD1D369336053B90F4801920121F7
:10773400CBF808100360104B1970FFF75BFE019A39
:10774400E1692368CAF81C1011B1086803440B608E
:1077540033689A4218BF4FF0010957E77C2900208B
:107764007D290020842900208029002074290020FC
:1077740064280020FEFF7F007029002000100140D3
:1077840000E100E07129002008B5FFF73BFE114B32
:1077940000200B2218709A7058700F4B18600F4B12
:1077A40018700F4B18700F4B4FF48012E021C3F880
:1077B400802183F814131A6002F18042A2F56F222B
:1077C400C2F8080583F81113074BD2F804251A6090
:1077D40008BD00BF64280020842900207C290020E3
:1077E4007D29002000E100E080290020074B9B78E0
:1077F4004BB132B128B10368187C20B959745A616D
:107804007047072070470820704700BF6428002095
:107814002DE9F7431E4FBB7805460E469046ABB3A1
:10782400A0B3042930D9436983B3437C02A800245C
:10783400012B00F8014D0CBF8946A14600F03EF82B
:107844000DF10600FFF798FDE0B101230370114B21
:107854004560D3F8043583609DF80630C660C0F8EF
:107864001090C0F814807B709DF8070000F04AF86F
:1078740024B9094B4FF48012C3F80021204603B009
:10788400BDE8F0830424EFE70724F7E70824F5E7CD
:10789400642800200010014000E100E0064A9278CC
:1078A4003AB130B1426922B1002202740221FFF7D9
:1078B40079BD0820704700BF6428002070B5EFF33D
:1078C400108672B60C4A946801239CB993600B4BE2
:1078D4000B4DD3F8801029401160C3F88050D3F8C1
:1078E400841051604FF0FF32C3F88420047006B94D
:1078F40062B670BD0370FAE78829002000E100E059
:10790400FC06FFBD084B9A6810B55AB150B9EFF3A5
:10791400108272B605491C680C605C684C60986003
:1079240002B962B610BD00BF8829002000E100E062
:1079340070B5064E0546002456F824300BB128468F
:1079440098470134042CF7D170BD00BFA029002052
:10795400033080B240F2FD33984230B51FD8124B49
:107964001A783AB95C891D892C440444A4B2B4F54C
:10797400806F0AD31A7DA2B99A8BDC8B224402440D
:1079840092B2B2F5806F0CD201220A8014461422FE
:1079940002FB04335A8910445881002030BD092069
:1079A40030BD072030BD00BFD42900200B4A0C4B4A
:1079B4005188142000FB0131CB6833B90420496895
:1079C40010700122074801F0FBBA05230649137021
:1079D40002238B80012200230968F3E7B8290020E1
:1079E400D4290020682200208C2A002007B5002317
:1079F40005490093054A09680548082301F058FA27
:107A040003B05DF804FB00BF8C2A002044F602009A
:107A14006822002007B50023009301460823034A87
:107A2400034801F045FA03B05DF804FB3CF602009C
:107A34006822002013B500230C460093014604235A
:107A4400074A084801F034FA38B9074B142202FBFC
:107A540004340123237402B010BD0E20FBE700BFE1
:107A640038F6020068220020D429002037B50A48DD
:107A74000A4B42689C8819685388032503330570B0
:107A84009BB2002000909B0001EB8401044801F0AC
:107A94000FFA03B030BD00BFB82900208C2A0020A3
:107AA4006822002010B50146044800F082FE1C2222
:107AB4000446002107F0EAFB204610BDA022002066
:107AC4004388033300EB8303994209D382884FF63A
:107AD400FF739A4206D00088B0FA80F040097047DC
:107AE40002207047012070472DE9F8430223DFF894
:107AF40064800B800D46174600F5805600F108049B
:107B04004FF00109B44222D2236801331FD0314619
:107B14002046FFF7D5FF48B10FB187F8009002283F
:107B24000BD14FF480632B80BDE8F883A368D8F8A9
:107B34000020934201D9C8F800302B8862880333AF
:107B440013442B806388033304EB8304DAE7BDE832
:107B5400F88300BFCC290020144A142303FB00201F
:107B640070B50B6844680D4604F5805653B15C88C3
:107B7400033403EB8404A64202D9236801330BD1F6
:107B8400002070BD0834F6E72C60012070BD6388C6
:107B9400033304EB8304EEE731462046FFF790FFFE
:107BA4000128F4D0F0D30228EAD0E4E7D429002055
:107BB400436873B505460C466BB3254AD1688B42BE
:107BC40029D31269934226D813F0030223D1214901
:107BD4000089098988421ED12868996888421AD187
:107BE4001D494868834203D900F5805083420ED36F
:107BF4008A6993420DD902F58052934209D2012336
:107C040023800020B0FA80F0400902B070BD134612
:107C1400F6E70A20F6E7002323801E462388012B7B
:107C240001D90020F1E7019601A92088FFF794FF0C
:107C340018B9238801332380F0E7019B2A689968E7
:107C44009142F1D16B60034B1B892B81DDE700BFAF
:107C540068220020B8290020D42900202DE9F84307
:107C64001C461E4B1B7806460F4615467BB38AB34B
:107C740084B3DFF870804FF01409A388012B02D974
:107C84000A20BDE8F88309FB03F318F803302BB985
:107C94002146A088FFF760FF20B92060A388013344
:107CA400A380EAE723681EB1998832889142EFD114
:107CB40047B99A6885E80C00094B1B892B81002081
:107CC400BDE8F88319883A889142E1D1F1E70220AE
:107CD400BDE8F8830520BDE8F88300BFB029002083
:107CE400B8290020D429002008B5074B191D58884D
:107CF400FFF732FF18B1BDE80840FFF7B7BEBDE893
:107D04000840FFF753BE00BFB82900202DE9F04F0B
:107D1400A04FDFF8A49289B00646B8463B6823B961
:107D240049469D4800F07FFD3860D8F800502A7815
:107D3400531E052B00F2EC81DFE813F006007000FF
:107D44007000020102015B0126B1944B00225A60CB
:107D5400012425E02B79032B1ED8DFE803F016025B
:107D64003C478F490B78022B084632D00B7D022BFF
:107D74004FF0010340F0108214225343C218002034
:107D8400C8545068FFF746FE03E001232B71FFF748
:107D94002DFE002800F0CE80804B00225A600E2475
:107DA4001422002103A807F071FA41F61D539C42E6
:107DB40008BF0024D8F8003004941A78023A042A40
:107DC40000F2C581DFE812F0A601B201D501DD01A0
:107DD400E4010023D0E773497348002302222B7186
:107DE4008A800122096801F0EBF8D2E76D4C002685
:107DF4002E7120686A4DFFF70DFE6C4BD4F800E03D
:107E04005A8814235343EA18EE5451682160A18818
:107E1400C2F804E011810222A280BAE7B5F814A0E6
:107E2400DFF87CB1B6B1AA7DEB88022A06D9142109
:107E340001FB0AB1DA1C088902440A81142202FBFC
:107E44000ABAC3F57F43BAF80A20FD331344AAF8EB
:107E54000A307DE7142303FB0AB319895C68AB7D00
:107E640004EB8104062B05D8DFE803F0274D3543E6
:107E74001C5967000F24AA7DEB88022A06D9142115
:107E840001FB0AB1DA1C088902440A81142202FBAC
:107E94000ABAC3F57F43BAF80A20FD331344AAF89B
:107EA4000A307DE74248434900234360AB690360DD
:107EB400FFF77EFE002800F029810223AB75002322
:107EC40000930423EA182146374800F0F1FF002804
:107ED40030D00E24CFE72B69002B14BF03230123DA
:107EE400AB750023009305F10C02042304F108018F
:107EF400EAE70123AB750022EB8800929B002A6914
:107F040004F10C01E0E7032A0CBF05230623AB753B
:107F140000230093042305F10802E118D4E70623A3
:107F2400AB75244B1988224B5868FFF783FD044630
:107F34000028A0D109B0BDE8F08F41F61D549AE79E
:107F4400002E7FF405AF2B79012B37D005D3022BFC
:107F540041F61D5418BF0F2422E702232B71039608
:107F640004960596EB6803930DF10A0103A8FFF745
:107F74001FFE002800F0CA800498BDF80A10838808
:107F8400EB8003882B81FFF755FD0446002C7FF41A
:107F940007AFCFE7D0290020A0220020B02900207D
:107FA400D42900208C2A002068220020B82900202F
:107FB40094290020982A0020C8290020DFF8FCA179
:107FC40003AA53463146A81DFFF748FE044650B99C
:107FD400BAF804100498FFF72DFD04460A2CD5D1F5
:107FE40041F61D54DCE608223146504607F04EF9AE
:107FF400F4E7002E7FF4ACAE6A4B1A7B5AB11E73C1
:108004001A78013A062A00F28380DFE802F04A5F18
:10801400676A816D78001A78072AF1D801A151F8AE
:1080240022F000BF498002000580020005800200A2
:108034006F80020083800200A3800200A3800200FC
:108044006B8002001A89584901321A8100225A8031
:108054001A730A78B2FA82F252099A720A7DB2FA53
:1080640082F25209DA72012207E0504958688A887C
:108074004088033202448A8002221A70C0E74A4CC4
:108084005A884A49142505FB02420868546850601E
:108094008888108102228A800C600622EDE707227C
:1080A400EBE79A7A32B1404900229A72CA680AB957
:1080B400097C51B9DA7A62B10022DA723A4A116A59
:1080C40039B992F8242022B101225A80FFF70CFE1C
:1080D4005BE700221A705A805A6081E7FFF7C6FCFA
:1080E40053E7FFF763FC50E706221A702E4A5B88B9
:1080F400142101FB03235868FFF78CFC45E7072292
:108104001A7000225A60FFF771FC3EE70A2447E622
:108114000F2445E601228DF80C201A89ADF81820A9
:108124009A88ADF81A20DB68059310E002228DF8D6
:108134000C201A89ADF818209A88ADF81A20DA684C
:1081440005929B7D9A1F534253418DF81C3003A81E
:10815400FFF7EEFB002649461548C8F8006000F01A
:108164008DFB0121134800F04AFC00287FF4D6ADB2
:10817400E0E603228DF80C20DA88ADF818201A897D
:10818400CFE704228DF80C20DB88ADF81830DEE749
:1081940005238DF80C30DAE7074A13700023536087
:1081A4001EE700BFB8290020D42900208C2A002013
:1081B400A0220020882A0020B02900209C2A002028
:1081C4004068FFF7A3BD000008B50121044800F092
:1081D400FCFB18B9BDE80840FFF798BD08BD00BF17
:1081E400882A00202DE9F3419846344B1B78064633
:1081F4000D46002B59D0002959D009884FF6FF733A
:10820400994256D06B88002B53D06B689B0752D190
:108214004AB92F890DF102013846FFF799FB30B1B5
:1082240002B0BDE8F08113885788ADF8023001A888
:10823400FFF738FC044658B9BDF80230204A14212F
:1082440001FB032358890338C01B58810820E7E742
:1082540000238375BDF8023083826B68036180F864
:1082640000800121174800F0BDFBE0602B882381CA
:108274006B88A380B8F1030F04BF0423A375E780C0
:1082840004BF3368A3610025658101A90E4800F08D
:10829400BAFA36B17560E36833600C4BB5721B896A
:1082A4003381FFF791FF0020BAE70220B8E70520E9
:1082B400B6E70420B4E70320B2E700BFB0290020EA
:1082C400D4290020CC290020A0220020B829002095
:1082D40008B5084B1A68042A09D01968064A42F8F6
:1082E40021000121184600F07DFB002008BD0C2070
:1082F40008BD00BF942A0020A02900202DE9F04FDA
:1083040089B01422002103A806F0C0FF7A4A13782A
:1083140003F0FF01009191463BB103A8FFF708FB6E
:108324000026304609B0BDE8F08F101D00F074FB44
:1083340005460028F4D14FF010234FF080525B69BA
:1083440011695269DFF8DCA1581C08BF02FB01F374
:10835400CAF810300022A3F540536849CAF80C301B
:10836400504600F077FD06460028DAD11C238C2203
:108374006349644800F0E8F93746B0464FF0030B10
:108384003446CDF804A0019BDA6818EB02000CD047
:1083940058F802205C4B9A4207D142685B4B9A42E0
:1083A40000F083805A498A425ED0021F00F6FC71B5
:1083B40052F8043F013340F091809142F8D1554A7C
:1083C400116829B9022101231060918000930EE005
:1083D40014226243504B4FF0020C991803F802C068
:1083E4004E4A486054800134A1F808C0A4B247F052
:1083F400010708F58058B8F5405FC4D1BBF1010FFF
:1084040088BF3D46EDB2022D02D0062D02D05DB9E3
:108414000B2686E7012389F8003003A80023C9F856
:108424000430FFF785FA7CE702A8FFF73BFBC8B1ED
:108434000123013D03700A2D09D8DFE805F0060881
:108444000608070807080F110F000023037102A98B
:108454002C4800F0D8F9FFF7B7FE62E70323F5E7ED
:108464000223F3E708265CE7009BDFF8A8A073B1BA
:10847400294B1422624399184FF0020E03F802E0CC
:108484000134DAF800204A60A1F808E0A4B200221E
:108494002349CAF80000FFF727FBBAF80420022A90
:1084A40014BF082204221743A3E71B494FF0140EFC
:1084B4000EFB04FE01EB0E024FF0000C01F80EC09F
:1084C40050600EF110020EF1080E0A447144FFF7D9
:1084D4000BFB47F002070134A4B28AE70E491422C9
:1084E400624301EB020E0BF1FF33CEF804000320CC
:1084F4001FFA83FB8854EEE7B029002048F80200F5
:10850400FC290020A0220020DEC0ADDEFE011EF109
:10851400FF011EF18C2A0020D4290020B829002054
:10852400902A00206822002073B50D460446C8B185
:10853400C1B10DF10601FFF73BFBA8B10B4BBDF830
:1085440006006668142202FB003001210C3000F0A2
:1085540049FA63682E600C336B600123A372002018
:1085640002B070BD0520FBE70A20F9E7D4290020FA
:1085740013B50446A8B10DF10601FFF719FB90B13C
:108584000B4ABDF80630142101FB0323DA6862B1FB
:10859400A27A52B1DA680020013ADA60A07202B01D
:1085A40010BD0520FBE70A20F9E70620F7E700BF26
:1085B400D42900200B4B1B7837B504460D4663B114
:1085C40068B10DF106012846FFF7C2F918B9BDF8E4
:1085D40006302380658003B030BD0220FBE7052010
:1085E400F9E700BFB0290020104B1B7810B5B3B1D8
:1085F400B8B10288022A16D80D494388142404FB12
:1086040002129C1C51898C420DDAC3F57F43FD3361
:108614000B445381002303804380184610BD02207D
:1086240010BD052010BD042010BD00BFB0290020DE
:10863400D429002002230022FFF7D4BD12B1022363
:10864400FFF7D0BD0520704718B103230022FFF7C0
:10865400C9BD052070470000104B1B7813B50446B4
:10866400ABB14FF6FF73984213D001A8FFF71AFA83
:1086740088B10523037001230371C48001A908484C
:1086840000F0C1F8FFF7A0FD002002B010BD0220E9
:10869400FBE70420F9E70820F7E700BFB029002032
:1086A400A02200200E4B1B7807B5A3B101A8FFF749
:1086B400F9F990B10623037001A90A4800F0A3F860
:1086C400094B1A780AB101221A73FFF77DFD0020C5
:1086D40003B05DF804FB0220FAE70820F8E700BFC6
:1086E400B0290020A0220020B829002007B5ADF849
:1086F400060002A820F8041D01460DF10600FFF74C
:10870400ADFA03B05DF804FB13B502AC134624F8CC
:10871400020D0A4600202146FFF7A0FA02B010BD60
:1087240013B502AC134624F8020D0A462046002174
:10873400FFF794FA02B010BD20B119B103680B60C1
:10874400002070470520704710B561B1B2FBF3F407
:1087540003FB1424A4B244B980E81200846082812B
:10876400C381204610BD0E2010BD092010BD82B06B
:1087740050E8022FC188B2EB324F4FF0000317BF0D
:1087840092B241EA014142EA014104E04268B2EB9B
:10879400324F08BF012340E80212002AE8D18DF8C5
:1087A40007309DF80730002B0CBF1120002002B0C9
:1087B400704737B550E8013F9DB2C4892544848988
:1087C400A54228BF2D1B0489A54202BFBFF32F8FEA
:1087D400002207E0C5EA030540E80154002CE9D172
:1087E4004FF001028DF803200193019B9DF80320B3
:1087F4000B6002F0FF0322B10B880068184403B039
:1088040030BD1846FBE70A884B889A4209D150E8E4
:10881400012FC2EA024240E80123002BF7D10120D4
:1088240070470020704737B550E8023F1FFAA3F5A0
:10883400C488A54202BFBFF32F8F00220DE0C48974
:1088440025448489A54228BF2D1BC3EA054540E879
:108854000254002CE8D14FF001028DF8032001935B
:10886400019B9DF803200B6002F0FF0322B14B88AB
:108874000068184403B030BD1846FBE70A884B88EB
:108884009A4209D150E8022FC2EA224240E8022368
:10889400002BF7D1012070470020704701F01F0220
:1088A4004B090121914000EB830000F067B84B09AC
:1088B40010B501F01F040121A14000EB830000F07A
:1088C40050F8E04000F0010010BD01F01F03012248
:1088D4009A404B0900EB8300D14300F069B84B097F
:1088E40001F01F0150F82300C84000F00100704758
:1088F4002DE9F0474E1E760980460F4601360025C5
:1089040058F8254008EB850AE44394FAA4F4B4FA31
:1089140084F44FEA4519202C06D10135AE42EFD834
:108924003C462046BDE8F0874C44A742F5D9214691
:108934004046FFF7BCFF0028F3D0DAF80040E443D8
:1089440094FAA4F4B4FA84F4E5E700B550E8002FEF
:108954000B4640E8003E9EF0000FF7D110465DF84C
:1089640004FB00B550E8002F42EA010340E8003E52
:108974009EF0000FF6D110465DF804FB00B550E8F8
:10898400003F43EA010240E8002E9EF0000FF6D1BA
:1089940010465DF804FB00B550E8002F02EA01031D
:1089A40040E8003E9EF0000FF6D110465DF804FB4F
:1089B40000B550E8003F03EA010240E8002E9EF0B3
:1089C400000FF6D110465DF804FB00B550E8002F07
:1089D40002EB010340E8003E9EF0000FF6D1104682
:1089E4005DF804FB00B550E8003F03EB010240E8EA
:1089F400002E9EF0000FF6D110465DF804FB00B582
:108A040050E8003FA3EB010240E8002E9EF0000F67
:108A1400F6D110465DF804FB0121FFF7A2BF012146
:108A2400FFF7ACBF0021FFF7B6BF10B590B14268A5
:108A3400836801689B1ADBB20A60013BDBB2FF2B3F
:108A4400026802D10020107110BD11684C1C146022
:108A54000B70F2E70E2010BD37B5054602A80024BE
:108A640000F8014DFEF72AFF2A686B6811689942E5
:108A74000ED9481E106011F8014CEB68A98A01FB5D
:108A84000434AB6811791B1ADBB2994238BF1371F5
:108A94009DF80700FEF736FF204603B030BD37B51A
:108AA400054602A8002300F8013D0C46FEF706FF28
:108AB4002A681368591C1160E968641AA98AB4FB0E
:108AC400F1F41C709DF80700FEF71CFF03B030BDE5
:108AD400826810B504462AB1436901680069984761
:108AE4000023A36010BD0EB403B5039929B102AAF3
:108AF40004AB42F8043D00F06DF802B05DF804EBFD
:108B040003B07047826830B40468551C8560A15472
:108B1400826843689A4202D330BCFFF7D9BF30BCA5
:108B2400704700002DE9F84F0A9C99460B9B1746A5
:108B3400824688460A460126BA420FD24E4538BFBD
:108B44004E4613F0010B01D164B900240125B9F19B
:108B5400010F1AD909F1FF397D43F8E7B2FBF7F2A7
:108B64000136E9E79B070ED5B9F1000F0CBF30259C
:108B74002025A642EAD2013C29465046FFF7C2FF0F
:108B8400002CF6D1E1E72025F3E7B8FBF5F39F428B
:108B9400E2D9DFF83C90B8FBF5F3504619F803101E
:108BA40005FB1388FFF7AEFFB5FBF7F5002DF2D1F7
:108BB400BBF1000F0AD03CB9BDE8F88F013C20217D
:108BC4005046FFF79FFF0CB1A642F7D3BDE8F88FDC
:108BD4005BF602002DE9F74F054617460C460029BF
:108BE40000F0358114F8011B49B92B7B002B00F0F0
:108BF4002E81284603B0BDE8F04FFFF769BF252951
:108C040040F0218123460026194611F8012B2D2A14
:108C140024D0302A26D02B2A27D000242A2A994669
:108C240003F1010124D13B681A1D1B683A601C44FE
:108C3400894699F800302E2B25D109F101014FF016
:108C44000008894611F8012BA2F1300009281CD82C
:108C54000A2303FB0823A3F13008F2E746F00106D8
:108C64000B46D1E746F00206FAE746F00406F7E7BA
:108C74001A780B46A2F130010929DAD80A2101FB3E
:108C84000424303CCAE74FF0000899F8001001F0C2
:108C9400FB02682A02D119F8011FF8E769290FD0ED
:108CA4004BD8582965D007D825296ED009F101047D
:108CB4002378002B96D198E7632962D06429F5D1F3
:108CC4003A68D2F800A0111D8AEAEA723960A2EB70
:108CD400EA724FF0010B092A5BDCC34538BFC34677
:108CE4002CB1BAF1000F01DB710700D5013CB207CA
:108CF40002D5B8F1000F04D0F30702D4002C4ED1F2
:108D04000024BAF1000F52DACAF1000A2D212846D4
:108D1400FFF7F8FE06F00302022A05D1B8F1000FAE
:108D240002D1002C47D100248DE8500043460A228A
:108D340051462846FFF7F6FEB8E773294CD014D8FD
:108D44007029B3D13B681A1D3A60302128461C684B
:108D5400FFF7D8FE78212846FFF7D4FE00230193BD
:108D64000823009310222146E3E775292BD07829A4
:108D74009CD139680A1D3A6043468DE850001022A0
:108D840028E03B681A1D19783A602846FFF7BAFEB6
:108D94008CE70A230BF1010B92FBF3F29BE7A3454B
:108DA400AFD220212846013CFFF7ACFEA6E77007AE
:108DB400B0D52B21ABE7A345B6D230212846013CE0
:108DC400FFF7A0FEADE739680A1D3A608DE8500050
:108DD40043460A220968ACE73B681A1D3A60F1076A
:108DE400D3F800A012D55646A6EB0A0B16F8011BC1
:108DF40041B95C457FF65AAF20212846013CFFF774
:108E040081FEF6E72846FFF77DFEEDE7BAF1000F95
:108E140011D0504606F06EFA0646B44200D964B941
:108E24000AF1FF3A1AF8011F00293FF43FAF284620
:108E3400FFF768FEF6E75646EFE720212846013C97
:108E4400FFF760FEE9E72846FFF75CFE30E703B072
:108E5400BDE8F08F07B50B4678B9104B104A188857
:108E64000E2300930F4B00040F4940F00100FDF75F
:108E7400D7FD0E2003B05DF804FB3BB9074B0B4A4A
:108E840018880E2300930004064BEDE703601B686B
:108E9400114603B05DF804EB184700BF54220020CC
:108EA40018F702006BF602001DF7020094F70200A7
:108EB4002DE9F743DDF828C078B9364B364A1888CF
:108EC400364B0E2400040094354940F00100FDF7B0
:108ED400A7FD204603B0BDE8F0833AB92D4B314AD3
:108EE40018882E4B0E2400040094EDE7D0F800E01F
:108EF400BEF1000F07D1274B2B4A1888274B0824B3
:108F040000040094E0E73BB9224B284A1888234B1D
:108F1400092400040094D7E74768D7F80490B3FB0A
:108F2400F9F709FB17373FB11A4B214A18881B4B35
:108F3400092400040094C7E78F0707D0154B1D4A86
:108F44001888164B102400040094BDE712F0030F98
:108F540007D0104B184A1888104B102400040094B2
:108F6400B2E7C768B9420DD34C1E05691C44AC4234
:108F740008D8CDF828C0DEF80C40A44603B0BDE8FC
:108F8400F0436047034B0D4A1888044B1024000437
:108F9400009499E75422002018F702007DF602009D
:108FA4001DF702009AF702008EF702004DF7020047
:108FB400A0F70200CAF70200E2F7020005F8020077
:108FC400F7B570B9254B264A1888264B0E240004A1
:108FD4000094254940F00100FDF722FD204603B02E
:108FE400F0BDD0F800E0BEF1000F07D11B4B1F4AC3
:108FF40018881C4B082400040094EAE73AB9174B7C
:109004001B4A1888174B092400040094E1E74768B9
:10901400D7F800C00CF1FF370F4207D00F4B154AA9
:109024001888104B102400040094D2E7C768B94292
:1090340005D34C1E05690CFB0244AC4207D9074B0F
:109044000D4A1888074B102400040094C1E7DEF889
:109054001040A44603B0BDE8F0406047542200200D
:1090640018F7020090F602001DF702008EF70200C6
:109074004DF70200A3F60200C9F6020070B508B16C
:109084000368B3B90D4D0E4B14225B1B0024B3FBD4
:10909400F2F302FB03F6A64201D1002070BD2B5966
:1090A40028190BB91434F6E7DB6998470028F9D07E
:1090B40070BDDB69BDE87040184700BF682200201E
:1090C4007C22002029DF704728DF704770B50368D1
:1090D4009D6886B004460E466DB11822002168468C
:1090E40006F0D4F8A3680593237901962BB1012BDC
:1090F4000DD06846A84706B070BD01238DF8003036
:1091040023690293E368039363690493F1E70223F9
:109114008DF80030E3681B030293F5E708467047B7
:1091240000207047024B187A003018BF01207047A6
:10913400302B0020034B187A0122B0FA80F05A74C5
:1091440040097047302B002008B510461A4606F037
:1091540073F8002008BD000008B51422002104485B
:1091640006F094F80348FFF702FB002008BD00BF97
:10917400302B0020B422002010B5094C094B436069
:109184002046FFF749FC40B905F0FCFD1C23207480
:109194008C2205490548FFF7D7FA002010BD00BF0F
:1091A400302B00203CF80200A42A0020B422002026
:1091B40070B5244D244E2B7A2C463BB923492448C0
:1091C400FFF731FB306008B9686070BD0223237279
:1091D40033681A7972B1012A24D018460321FFF7A3
:1091E40075FF00232372636018491948BDE8704075
:1091F400FFF744BB98695A69D9681D69121AB2F518
:10920400805F28BF4FF480529208012A014438BF7E
:1092140001222844FFF756FF50B11128DDD1012364
:10922400237270BDD8681A691044FFF74DFFF3E745
:10923400237C2BB90146BDE87040022000F00AB837
:1092440070BD00BF302B0020482B0020442B002091
:10925400B422002038B5831E012B45D8234C237A31
:10926400002B41D0022B09D1032830D0204B1B689E
:109274000022E2601A793AB1012A22D0637C7BBBD6
:10928400BDE83840FFF794BF9A6959698D1AB5F55E
:10929400805F94BF521902F580529A619142EDD1D8
:1092A40002284FF0000308BF19462372104B18BF61
:1092B4000D211868FFF70AFF0E490F48FFF7DEFA81
:1092C400DCE71A6901321A615B699A42E7E7E368ED
:1092D4000133082B01D8E360D0E70023E360DFE724
:1092E400BDE8384005F03EBD38BD00BF302B00203E
:1092F400482B0020442B0020B422002000F0FD0362
:10930400012B08D1044B00225A74421E5042504192
:109314001874FFF74DBF7047302B002010B5064C72
:10932400201DFFF779FB28B9637C1BB9BDE8104009
:10933400FFF73EBF10BD00BF302B00202DE9F341E5
:1093440080460D460F4801A916461F46FFF731FA1D
:109354000446A8B11C22002105F098FF2D0B01231F
:10936400237101A9C4F80080A760E560666105481F
:10937400FFF749FAFFF7D2FF002002B0BDE8F08101
:109384000420FAE7B42200202DE9F74381468846F9
:10939400104801A917461E46FFF70BFA0446B8B158
:1093A4001C22002105F072FF00250A9BA36001A97D
:1093B4002571C4F80090C4F81080E7606661054820
:1093C400FFF721FAFFF7AAFF284603B0BDE8F083B0
:1093D4000420FAE7B4220020FFF727BBF8B546794A
:1093E4000446721E00239342246804D301460025D8
:1093F400B54202D3F8BD0133F5E70F682046FFF705
:109404004EFB01353946F3E72DE9F843878ACD1C35
:109414008046FFF721FB043F3D440446B5FBF7F5C6
:10942400002650B10123EDB206714371C780013D9E
:10943400C0F800808146AE4202D32046BDE8F883DE
:109444004046FFF709FB074648B16379013363716E
:109454000136C9F80000C0F800808146EBE72046D9
:10946400FFF7BCFF3846BDE8F88301210430FFF75D
:10947400B9BA10B5012104460430FFF7C0FA10F060
:10948400FF0F04D12046BDE81040FFF7A7BF10BD71
:109494002DE9F843C68804330F46B3FBF6F41546AA
:1094A40006FB143380463CB9A6EB0309A94528BF43
:1094B400A9462DB9BDE8F883D8F80080013CF2E74D
:1094C400043308EB0300A5EB09054A46391905F0F6
:1094D400B3FEAE424C44D8F80080B1464FF00003CE
:1094E40028BFA946E5E72DE9F843C6880F46191DAC
:1094F4001546B1FBF6F4804606FB14113CB9A6EB05
:109504000109A94528BFA9462DB9BDE8F883D8F8B3
:109514000080013CF2E704314144A5EB09054A46C9
:10952400381905F089FEAE424C44D8F80080B146A3
:109534004FF0000128BFA946E6E733DF704741DF5B
:10954400704700000D4A08B5002313700C4A1360DD
:10955400BFF35F8F0B490C4800F0AAF80B4A0C4884
:109564000121FEF743F9024630B94FF4004109489E
:10957400BDE80840FEF74CB908BD00BF782B0020B9
:109584007C2B00207CF802004C2B0020A1960200CA
:1095940078F80200582B002007B502A8002300F831
:1095A400013DFEF78BF9F1EE103A23F09F03E1EE53
:1095B400103ABFF35F8F0A4B4022C3F884219DF811
:1095C4000700FEF79FF905F0DDFB20B1FFF7B7FFB9
:1095D40003B05DF804FB20BF40BF20BFF8E700BF25
:1095E40000E100E070B5274C054601212046FFF755
:1095F400ACF9BFF35F8F2646002841D1042D0AD071
:10960400214B1A781AB1BFF35F8F206070BD1F4AD7
:10961400157001221A701E4C1C4D6368BBB9FDF70E
:109624002DFAFDF783F80028FBD1184B1B78023B79
:10963400012B14D8BFF34F8F1649174BCA6802F495
:10964400E0621343CB60BFF34F8F00BFFDE71B689D
:109654002878984788B1204600F034F8DDE705F013
:1096640091FB08B1FFF769FF4FF080430122C3F873
:109674000025BFF34F8F20BFFDE7BFF35F8F30603E
:1096840070BD00BF7C2B0020782B0020542B0020C1
:109694004C2B002000ED00E00400FA05034B1B787E
:1096A40013B10420FFF79EBF704700BF782B002042
:1096B4000B684A684360934208BF0023016008BFF7
:1096C40043607047436843B10268916852680B4431
:1096D4009342436004BF0023436070470D4930B593
:1096E400A1F594720225914201D8002030BD8B1A55
:1096F400DB1093FBF5F302EBC30452F833308342DF
:1097040005D802D204F10802EDE7606830BD2146B5
:10971400E9E700BFCCF9020008B5FFF7DFFF024B11
:10972400002808BF184608BD91F8020038B5084C57
:1097340004F108030546002818BF1C4623682BB112
:109744001A6822605B6828469847F7E738BD00BF6F
:10975400882B002020B9054B01225A70FFF7E6BF81
:10976400012802D1014A9070F8E77047802B00204D
:1097740020B9034B01225A70FFF7D8BF704700BFCE
:10978400802B002038B50B4C237883B90A486360DA
:10979400A3602361E36000F0D1F8054605F0F2FA16
:1097A40008B900F0D9F801232370284638BD85256F
:1097B400FBE700BF802B00205997020037B502A8B1
:1097C4000023094C00F8013DFEF778F8E368013BFB
:1097D400E360E56815B900F0D3F8A5709DF80700BB
:1097E400FEF790F803B030BD802B0020012813B59C
:1097F40009D003D303281BD002B010BD0F4B0122A4
:10980400C3F88020F8E702A800230D4C00F8013DBE
:10981400FEF754F823780BB9FFF7B4FFE3689DF81B
:1098240007000133E3600123A370FEF76BF8E3E75D
:1098340000F092F8FFF7C2FFDEE700BF00E100E0AE
:10984400802B00201FB503788DF800304368019306
:10985400037A8DF80830C3680393054A054B6846BC
:1098640053F8213052F82110984705B05DF804FBF5
:10987400942B0020982B00201FB503788DF800301E
:109884004368019383688DF80830C3680393054ADD
:10989400054B684653F8213052F82110984705B01B
:1098A4005DF804FB942B0020982B0020F0B5194B95
:1098B400067891F81DC043F82620174B96460A698E
:1098C40043F82620154B03F806C00C4607460FCC78
:1098D40089B06D460FC594E80F0085E80F00049623
:1098E400BCF1000F0AD0BEF1000F0D4A694608BF53
:1098F4000022381D00F080FD09B0F0BDBEF1000F5C
:10990400084A694608BF002207F10C0000F072FB08
:10991400F2E700BF982B0020942B00209C2B002002
:10992400499802007D98020000F180400023036002
:1099340082B003680193019B02B07047054A137912
:109944002BB901211060117153711846704785209D
:10995400704700BFA02B0020084B1A68D20706D41A
:10996400E02283F800230122C3F880211A604FF01B
:1099740080430122C3F81825704700BF00E100E0CE
:10998400044B01221A604FF08042D2F81834DB03F2
:10999400FBD470470C000040124B1B6810B573B128
:1099A4004FF48070FFF7C0FF4FF080430122C3F8EB
:1099B40008230D4B587910B95A711B6898470B4B03
:1099C4001B6873B14FF48270FFF7AEFF4FF0804312
:1099D4000222C3F80823044B01201B68BDE8104091
:1099E400184710BD00010040A02B002004010040D6
:1099F40000F1804000F5C040002382B0036003689A
:109A04000193019B02B07047800000F1A040D0F8A0
:109A1400003723F44033C0F80037D0F8003743EA66
:109A24000141C0F800177047054B4FF0FF3207287B
:109A340043F8202084BF1B1883F84820704700BFD8
:109A4400A82B002010B5174C94F8583043BBFF21C5
:109A5400E2180133202B82F83010F9D10021C8B26A
:109A6400FFF7E2FF01310C29F9D1002104220E484D
:109A740005F00CFC0D4BE02283F806234022C3F8CA
:109A840080214FF4BE701A60FFF7B2FF084B4FF00D
:109A94000042C3F80423012384F85830002010BD89
:109AA400082010BDA82B0020FC2B002000E100E0C2
:109AB40000600040034B93F85800003018BF0120A9
:109AC400704700BFA82B0020F0B5374D2B1893F931
:109AD4003030002B65DA8E78C6F34006002E0BBFBB
:109AE400082300230C240824A34201D10420F0BD40
:109AF40055F82370013740D12F185CB287F83040F5
:109B040045F8232016B92B4483F848008B785A076C
:109B140013D4DE0733D5830003F1A043D3F8002721
:109B240022F00202C3F80027204EC20800F0070703
:109B34000123BB40B75C3B43B3548B780A7813F0E2
:109B4400020325D0A30003F1804303F5C0430002C0
:109B5400D3F8101521F4473121F44071C3F81015DE
:109B64001204D3F8101500F4F85002F440321043F4
:109B74000843C3F810050020F0BD0133B4E74A7868
:109B840000F5E0734FF0A046920046F82320CBE79F
:109B9400083C2C4494F8500040EA821284F8502087
:109BA400E9E70820F0BD00BFA82B0020FC2B002013
:109BB40038B5204C251895F93020072A18DD2244A1
:109BC40092F848309B09032B0DD14FF0A043D3F8F2
:109BD4001035C34013F0010F0CBF02210321BDE86F
:109BE4003840FFF711BF012B14BF03210221F6E710
:109BF400D3B2072B1CD8930003F1804303F5C04371
:109C0400D3F8100540F00100C3F8100502F140003C
:109C1400800080B2FFF7ECFE51B195F9303054F872
:109C240023302BB1012303FA02F2034BC3F80423BC
:109C340038BD00BFA82B0020006000404FF0A043B7
:109C4400D3F8103523FA00F000F00100704700004B
:109C54002DE9FF4700245A4A5A4E5B4D01940121D5
:109C6400A2F5C04052F8043B012B80B206D1D6F8CD
:109C740004330B4202D0FFF7BBFE0C43AA424FEA67
:109C84004101EDD1514B1B68012B0AD14FF4BE7039
:109C9400FFF7AEFE4FF0A04344F00044D3F8103574
:109CA400019314F0FF0F38D1002C80F2858000233B
:109CB4000293DFF81C914FF0FF3303930126002435
:109CC400A0464FF0A04709EB080393F95020531C1A
:109CD40061D0D2B222F0C005E90804A8084402F019
:109CE400070310F804EC06FA03F31EEA030F52D03C
:109CF40009EB050E92099EF930E059F82EA0BAF14D
:109D0400000F26D1032A46D10DF1080C1CF801E0FE
:109D14004EEA030E0CF801E01DE02D4F012600254C
:109D2400344210D0AB0003F1804303F5C043D3F8B1
:109D34001005D3F8101557F8253023B1C1F30141AC
:109D4400C0F3042098470135082D4FEA4606E7D1B1
:109D5400AAE7032AD8D005F5E07110F80C0C57F8DF
:109D640021101842C1F3014105D0022913D1032A5D
:109D74000BD1114604E003290DD1032A05D1022198
:109D84002846FFF741FE0134E4B2BAF1000F02D0D5
:109D940011462846D04708F10108B8F1040F92D1C2
:109DA40054B14FF0A043019AD3F81035934203D035
:109DB4000193029B039382E704B0BDE8F08700BFE0
:109DC4000061004000600040206100407C61004070
:109DD400A82B0020014B1B68184700BF042C00204F
:109DE4000D4B984237B50D4610D102A8002300F858
:109DF400013DFDF763FD094B1C7914B901221D6077
:109E04001A719DF80700FDF77DFD14B9002003B019
:109E140030BD1120FBE700BF00200040042C0020CF
:109E2400034B984201BF034B00221A601A7170471A
:109E340000200040042C00200023435082B04358EB
:109E44000193019B02B070470A4610B54FF48E711E
:109E5400FFF7F2FF136A9168C95C136A0133136256
:109E6400C0F81C1510BD8B690A4610B54FF48471F7
:109E740023B9FFF7E1FFD0F8183510BDFFF7DCFF79
:109E8400536AD168D0F81805C854536A0133536231
:109E940010BD00001FB501238DF80030044B029063
:109EA4000191684693E80600904705B05DF804FB0D
:109EB4000C2C002030B54D4AD2F8043313F4007F43
:109EC40085B015464FD0D2F82431002B4BD04FF437
:109ED40092711046FFF7B0FF4FF40173C2F80833D4
:109EE400434B93F8291009B9012151603F490222DB
:109EF4008DF80020D1F88024C1F8802403929A6957
:109F04000292DA68019200229A61DA61684693E863
:109F1400060090473548D0F81C315BB134490A6AD1
:109F24004B699A420A464CD291F82830002B48D10A
:109F3400FFF78AFF2D4AD2F8443193B14FF4A2714E
:109F44001046FFF779FF2A4B93F8291009B1012134
:109F540011609A692AB100229A61586AD968FFF798
:109F640099FF05B030BDD5F804335B07D2D5D5F8D9
:109F74000831002BCED01E4C1C482146FFF773FF3E
:109F8400636AA2699A422346C4D1E26952B1236941
:109F9400E168E3600023606AA261E3616362FFF742
:109FA40079FFB7E794F829200AB901226A600F4AB9
:109FB4004FF40171C2F8081300229A61586AD968F3
:109FC400EDE74FF48E710948FFF736FF5169002918
:109FD400B0D00023029191688DF800300191536153
:109FE400684692E80A009847A4E700BF00200040B2
:109FF4000C2C00202DE9F8435B4B047991462C226C
:10A0040002FB0432064692F82A200D469846002A9E
:10A0140040F0A58055490068FFF7E2FE0746002896
:10A0240040F09F8029683368481C0BD04FF0A04053
:10A0340001228A40C0F8082501F5E0724FF0030EB2
:10A0440040F822E06868421C1FBF00F5E0724FF040
:10A05400A04E4FF0000C4EF822C0AA6995F814E007
:10A06400C3F824256A7DBEF1010F4EEA0202C3F84B
:10A074006C25C3F81405C3F80C151DD1AA68511C2E
:10A084001FBF02F5E0714FF0A0404FF0000E40F802
:10A0940021E0E968481C0BD04FF0A04E0120884015
:10A0A400CEF8080501F5E0704FF0030C4EF820C01F
:10A0B400C3F80815C3F810252C23634308EB0302E7
:10A0C400C2F804902A6948F80320B9F1000F33D08C
:10A0D4004FF48E7130682D7FFFF7AEFE30684FF479
:10A0E400A271FFF7A9FE3268214BC2F80433120BA8
:10A0F40053B2002BA8BF03F160404FEA53134FEA59
:10A104004511BABF1B4802F00F0500F561404FEA44
:10A114008303B4BFC9B2C9B203F16043B4BF4155AC
:10A1240080F8001303F5614302F01F02012101FAD4
:10A1340002F2C3F880211A6033680422C3F80025B0
:10A144002C2303FB048300229A61DA6183F829201B
:10A154005A61012283F82A203846BDE8F88308278B
:10A16400FAE71127F8E700BF0C2C0020B99E020083
:10A174008000020014ED00E0F8B5047900682D4D6C
:10A184000023C0F800352C2303FB04535B6873B130
:10A19400294BC0F80833020B53B201215B0902F0CA
:10A1A4001F0201FA02F22033244941F82320D0F897
:10A1B4000C65D0F81415D0F80835D0F810254FF0F8
:10A1C400FF37BE42C0F8147518BF06F5E076C0F834
:10A1D4000C75C0F80875C0F810751EBF4FF0A04785
:10A1E4004FF0020E47F826E04E1C1FBF4FF0A0466A
:10A1F40001F5E071022746F82170511C1FBF4FF092
:10A20400A04102F5E072022641F822605A1C1FBFE9
:10A2140003F5E0734FF0A042022142F82310FFF748
:10A22400FFFD2C2303FB0454002384F82A306360CD
:10A23400F8BD00BF0C2C00208402020000E100E005
:10A244002DE9F843234F06794FF02C0909FB0674D6
:10A2540080466569002D37D16261A16025624FF4A3
:10A264008E71006884F82850FFF7E6FDD8F80000E6
:10A27400012383602146FFF7E7FD6368A14633BBF2
:10A28400D8F80050226A63699A4212D3D8F8003091
:10A29400D3F81C21002AFBD00122DA6000202C23F1
:10A2A40003FB067600237361BDE8F88394F8283035
:10A2B40043B9D5F81C31002BF8D049462846FFF79E
:10A2C400C3FDDFE70F20EAE71120BDE8F883284645
:10A2D400BDE8F8830C2C00200023435082B043587F
:10A2E4000193019B02B070471FB501238DF8003024
:10A2F400054B8DF808000191684693E806009047E5
:10A3040005B05DF804FB00BF382C00207FB5384A47
:10A31400D2F82461002E49D010464FF49271FFF711
:10A32400DBFF02238DF80030D2F88034C2F8803489
:10A334000393D2F83C358DF808302E4BDA6801923D
:10A3440000229A61DA61684693E806009047284A39
:10A35400D2F8443173B14FF4A2711046FFF7BCFF39
:10A36400244B996931B100219961D2F83C05D9682F
:10A37400FFF7BAFF1E4AD2F82031ABB14FF4907107
:10A384001046FFF7A9FF1B4B596969B1D2F84C1568
:10A394008DF80810002299688DF8002001915A6107
:10A3A400684693E80600904704B070BDD2F81031B7
:10A3B400002BCCD04FF488711046FFF78DFF0D4B66
:10A3C400D2F83C0599698842C1D1DC696CB1D2F8F4
:10A3D4000052D96825F02005C2F800521A699C6120
:10A3E400DA60DE61FFF780FFB1E79C61D968F9E7C5
:10A3F40000200040382C00202DE9F8435F4B0679FB
:10A404009146242202FB0632044692F820200D468F
:10A414009846002A40F0AD8059490068FFF7E0FCF7
:10A424000746002840F0A78029682368481C0BD001
:10A434004FF0A04001228A40C0F8082501F5E072DF
:10A444004FF0030E40F822E06868421C1FBF00F57D
:10A45400E0724FF0A04E4FF0000C4EF822C0AA69F3
:10A4640095F814E0C3F824256A7DBEF1010F4EEA85
:10A474000202C3F86C25C3F80C15C3F814051DD1EA
:10A48400AA68511C1FBF02F5E0714FF0A0404FF0C5
:10A49400000E40F821E0E968481C0BD04FF0A04EB4
:10A4A40001208840CEF8080501F5E0704FF0030C58
:10A4B4004EF820C0C3F80815C3F8102524237343AD
:10A4C40008EB0302C2F804902A6948F80320B9F1A2
:10A4D400000F3DD04FF4887120682D7FFFF7FCFEFC
:10A4E4004FF490712068FFF7F7FE4FF492712068E3
:10A4F400FFF7F2FE20684FF4A271FFF7EDFE226829
:10A50400204BC2F80433120B53B2002BA8BF03F143
:10A5140060404FEA53134FEA4511BABF1A4802F09C
:10A524000F0500F561404FEA8303B4BFC9B2C9B255
:10A5340003F16043B4BF415580F8001303F5614350
:10A5440002F01F02012101FA02F2C3F880211A600D
:10A5540023680822C3F80025242303FB0683002272
:10A564009A61DA615A61012283F820203846BDE8F5
:10A57400F8830827FAE71127F8E700BF382C0020F2
:10A5840011A302001003020014ED00E0F8B50479F1
:10A5940000682D4D0023C0F80035242303FB045329
:10A5A4005B6873B1294BC0F80833020B53B2012125
:10A5B4005B0902F01F0201FA02F22033244941F838
:10A5C4002320D0F80C65D0F81415D0F80835D0F84D
:10A5D40010254FF0FF37BE42C0F80C7518BF06F5C2
:10A5E400E076C0F81475C0F80875C0F810751EBF81
:10A5F4004FF0A0474FF0020E47F826E04E1C1FBF55
:10A604004FF0A04601F5E071022746F82170511C75
:10A614001FBF4FF0A04102F5E072022641F822600C
:10A624005A1C1FBF03F5E0734FF0A042022142F809
:10A634002310FFF7F5FB242303FB0454002384F8C1
:10A6440020306360F8BD00BF382C002010030200E6
:10A6540000E100E001F06043B3F1005F2DE9F04157
:10A66400074632D11D4B0679242505FB063598464D
:10A674006C696CBB6A61A96000684FF49071FFF764
:10A684002BFE4FF4AC713868FFF726FE3B686A690D
:10A69400A968C3F84415C3F8482501229A606A687A
:10A6A400CAB9D3F82011D3F8582149B9002AF8D0EF
:10A6B4000F20242303FB068600237361BDE8F08189
:10A6C400002A14BF0F200020F3E71020BDE8F0811A
:10A6D4001120BDE8F0812046BDE8F081382C00202F
:10A6E4000220FCF737BB000008B5094B1B7853B1B7
:10A6F4000020FCF705FB0120FCF702FB0320BDE86A
:10A704000840FCF7FDBABDE80840FCF705BB00BFF4
:10A714005D2C0020F8B5764C237805461BB1002348
:10A724002370FFF7E1FF172D00F28380DFE805F0C7
:10A734000C13133F5060717B8388838890949494A6
:10A744009494BEC2C9D0DADAFFF7CEFF694B002475
:10A754001C702046F8BD0020FCF7B8FAF8B10020C0
:10A76400FCF7CEFA022D0CBF4FF4E1614FF47A618D
:10A77400604B1D704FF400404FF4FA740025E0FB69
:10A7840001454FF47A7200232046294604F06EFCFA
:10A79400002201465848BDE8F840FDF739B8FCF7F7
:10A7A400A3FA022D0CBFC8214FF4C871E0E70020C2
:10A7B400FCF78CFA40B10020FCF7A2FA4FF4487180
:10A7C40003224C4B1A70D5E7FCF78EFAC821F7E741
:10A7D4000020FCF77BFA30B10020FCF791FA4FF42B
:10A7E4007A610422EDE7FCF77FFA4FF4C871F8E7C9
:10A7F4000020FCF76BFA48B10020FCF781FA3D4BCE
:10A8040005221A7041F69A110022C3E7FCF76CFA8C
:10A81400F5E70020FCF79EFA364B06221A70002258
:10A8240040F6CD41B6E70020FCF75EFA0722314B33
:10A834001A7000248DE701202070FCF78BFAEEE7F4
:10A8440001202070FCF786FA00224FF48041A1E732
:10A85400FCF771FA0C22EAE72848294EFDF71EF8A6
:10A86400D5F1110504461CD0D8B9012D13D0C82345
:10A874005D434FF4FA7000214FF400474FF47A72AD
:10A884000023C7FB050104F0F1FB224601461B48E7
:10A89400FCF7BEFF04460220FCF726FA01233370BE
:10A8A40057E70220FCF72CFA0023F8E7FFF71CFF18
:10A8B4001222BCE7FFF718FF0020FCF715FA132259
:10A8C400B5E7FFF711FF0120FCF70EFA1422AEE7FB
:10A8D400FFF70AFF0020FCF707FA0120FCF704FA4F
:10A8E4001522A4E7FCF727FA024B1D70A1E700BF6D
:10A8F400D02C0020D82C0020A02C0020602C00207C
:10A904005D2C00202DE9F04781460D46FCF742FA04
:10A914000328044631D8012D04D022D3022D2ED091
:10A92400BDE8F087194D47003A18A918AE5C4A787B
:10A9340052B1DFF86880164842464FF40041FCF7F4
:10A9440067FF08B988F800903B192B449A78114B9B
:10A954001A5596B1104B1B687BB13046BDE8F047E1
:10A9640018470B48FCF79AFF084B04EB44021344C6
:10A974009E78084B1B5DB342EBD0BDE8F087034BD8
:10A9840000EB40041C446678E3E700BFC02C0020C1
:10A99400802C0020D92C0020D42C00205C2C0020FA
:10A9A40002210078FFF7AEBF044B1B68DB0703D519
:10A9B400034B1878FFF7AEBE704700BFCC2C0020C5
:10A9C400D82C0020032801D8FCF7D6B90020704702
:10A9D400044B1B6813F0010301D0FFF79BBE18461C
:10A9E400704700BFCC2C002038B51C4B18601C4BA2
:10A9F40010F00204054619601AD01A4B1A480E22A8
:10AA04001A700F22DA7010229A7111225A720421DC
:10AA140040F26662FCF704FC044648B9FCF752FCB9
:10AA2400044628B90146114A1148FCF7DFFE0446E2
:10AA3400EB0711D50120FCF7C5F96CB921460D4A85
:10AA44000D48FCF7D3FE044630B90C4A0C480121EA
:10AA5400BDE83840FCF7CABE204638BDCC2C0020E7
:10AA6400D42C0020C02C0020A8FD0200A5A90200BF
:10AA7400CCFD0200ADA90200D0FD0200E5A6020053
:10AA8400C8FD0200032812D8012A0BD1012908D1DC
:10AA940000F10E02D2B200EB40000C4B1A5400201D
:10AAA400704700220129F6D009D3022901D00720DA
:10AAB4007047064B00EB400018444270EFE7034B2D
:10AAC40000EB400018448270E9E700BFC02C00206E
:10AAD400032808B512D8FCF76FF9800000F1A040F4
:10AAE400D0F8003723F44033C0F80037D0F80037EB
:10AAF40043F44033C0F80037002008BD062008BDE9
:10AB040008B5012202210020FFF7BCFF08B1072885
:10AB140010D1072202210120FFF7B4FF08B1072852
:10AB240008D100210A220846FFF7ACFF10B107281C
:10AB340008BF002008BD00000388102B10B502D008
:10AB4400112B1ED010BD194C2168B1B90122084641
:10AB5400FFF798FF08B1072821D10722022101201D
:10AB6400FFF790FF08B1072819D104220221002021
:10AB7400FFF788FF08B1072811D123680133236048
:10AB840010BD0A4A1368013B136073B9FFF7B8FF9D
:10AB940058B1074B1B6843B1BDE810401847044B3C
:10ABA4001B68002BE9D09847E7E710BDE42C002090
:10ABB400E02C002008B50020FFF78AFF08B1062822
:10ABC40006D10120FFF784FF10B1062808BF00203A
:10ABD40008BD00000D4B10B518600C4629B10120CA
:10ABE400FFF7F0FE40B102232370094B1B6853B9F1
:10ABF400BDE81040FFF784BFFFF7E4FE08B10B2364
:10AC0400F2E72070F1E7002010BD00BFE02C002027
:10AC1400E42C002076DF70477ADF70477CDF7047D2
:10AC24008FDF7047FCF764BB08B50020FFF7D0FE48
:10AC340008B1FCF75DFBFFF7BDFF08B1FCF758FB5B
:10AC440004F060F818B1BDE80840FCF751BB08BD3A
:10AC54000388212B13B504461ED003D8102B0AD029
:10AC640002B010BD3B2B01D0562BF9D11321A08883
:10AC7400FFF7D0FF0BE00720FFF7AAFE08B1FCF7AF
:10AC840037FB0A4BA1880A48198001F0D1FF00283C
:10AC9400E6D0FCF72DFBE3E7002301A980888DF8BB
:10ACA40004308DF80530FFF7BBFFF0E7CC2200201D
:10ACB400B42D0020022810B50ED1084C0849208874
:10ACC400000440F00300FBF793FE208805490004CC
:10ACD40040F00300FBF78CFE012010BD3C22002055
:10ACE400D4FD020001FE02000F4B032818D8DFE850
:10ACF40000F002090D1318880C49000440F0030009
:10AD0400FBF776BE18880A490004F7E71888094952
:10AD1400000440F00100F3E7188807490004F8E74D
:10AD2400188806490004F4E73C22002030FE0200A3
:10AD34005EFE020081FE0200BAFE0200E7FE02008F
:10AD4400032807D14FF08043A922C3F8202500200F
:10AD5400FEF748BC7047000008B503784BB9054BB3
:10AD64003B211888FFF756FF18B1BDE80840FCF7EF
:10AD7400BFBA08BDCC220020072808B513D00A2882
:10AD84000DD0042819D10D4B13211888FFF742FF69
:10AD940030F0080311D0BDE80840FCF7A9BABDE8BB
:10ADA4000840FFF741BF054B1A884FF6FF739A42DC
:10ADB40003D1034800F053FEEAE708BDCC2200208B
:10ADC400E82C002008B548B103280BD10220FFF776
:10ADD400FFFD38B1BDE80840FCF78ABABDE8084079
:10ADE400FFF722BF08BD000008B50321044800F0A6
:10ADF400CDFC18B1BDE80840FCF77ABA08BD00BF25
:10AE0400E82C002030B5037885B004460D2B10D80B
:10AE1400DFE803F0070F110F220F2A390F350F391E
:10AE240032391A4B1A491888000440F00300FBF722
:10AE3400DFFD05B030BD154B40881D8801F00CF8CE
:10AE44002D04227A009245F00305024663881149D5
:10AE54002846FBF7E5FDECE704A9002301F8043DCF
:10AE6400408802F0D3FCE4E7FDF71CFC30F0080353
:10AE7400DFD0FCF73DFADCE7FFF7B6FFD9E700695E
:10AE84000028D6D0F5E78068FAE700BF3C2200200E
:10AE940047FF020070FF0200FCF72ABA00B54FF426
:10AEA4000041ADB00020FBF7DBFB08B1FCF720FA52
:10AEB400FBF700FBFCF768FC08B1FCF719FAFEF796
:10AEC40041FB08B1FCF714FA83490320FFF78CFD1A
:10AED40008B1FCF70DFA01A90020FFF77BFE08B1C9
:10AEE400FCF706FA9DF8045003F0C8FE08B1FCF71D
:10AEF400FFF9002301A90120019303F08DFF08B19C
:10AF0400FCF7F6F901A804F033F808B1FCF7F0F9FE
:10AF140002F028FC08B1FCF7EBF90522002101A896
:10AF240004F0B4F99DF8043043F00103032203F064
:10AF3400F10362F306136FF3C7138DF8043007238C
:10AF44008DF8053010238DF806309DF80730134333
:10AF54008DF807309DF8083001A813438DF80830A8
:10AF640002F04AFC08B1FCF7C3F95C4802F02CFC7F
:10AF740008B1FCF7BDF99DF800305948012262F38D
:10AF840003032CAC62F3071304F8B03D04F0B2F9E8
:10AF9400534982B22046FFF741FE08B1FCF7A8F9F5
:10AFA4000822002101A804F071F95023ADF80430FF
:10AFB400A023ADF806300023ADF8083001A84FF403
:10AFC400C873ADF80A30FFF727FE08B1FCF790F913
:10AFD4000021444801F022FD08B1FCF789F9AC22B4
:10AFE400002101A804F052F902238DF80430012352
:10AFF4008DF80630ADF814308DF880304FF4967328
:10B004000622239344F250638DF807202493364A92
:10B01400364B3748069201A92A9300F046FB08B143
:10B02400FCF766F90121324800F03CFB0023019350
:10B034002146304B3048009301F0E8FD08B1FCF79D
:10B0440057F903F0F7FC08B1FCF752F92B4B0193C5
:10B0540001A803F077FC08B1FCF74AF91C2200218F
:10B0640001A804F013F900234FF420320193029253
:10B07400ADF812304FF470228DF81430204B039247
:10B08400069303221F4B8DF8102001A8079300F0AC
:10B0940005FE08B1FCF72CF91B4C1C492088000460
:10B0A40040F00300FBF7A4FC022D12D120881849BC
:10B0B400000440F00300FBF79BFC02F0B5FB08B171
:10B0C400FCF716F9FBF732FB0028FBD1FEF764FA14
:10B0D400F8E7FFF789FEF5E77DAD020009AE02004F
:10B0E4000EFF0200A02D0020C8220020C9AD0200DE
:10B0F400E82C00209DAE0200B42D0020EDAC02002F
:10B104005DAD020029AC02003C22002016FF0200C3
:10B114003AFF020013DF704738B54FF01024114D89
:10B124006369013315D0288862690F49000440F02F
:10B134000300FBF761FC6069FFF7ECFF044630B1E4
:10B1440028880A49000440F00100FBF751FC20461E
:10B1540038BD28880649000440F00100FBF748FC8C
:10B164000424F4E73C220020B0FF0200DBFF0200CD
:10B174000E00030038B50B4D0B4A28880B49000418
:10B1840040F00300FBF738FC0748FFF7C3FF044611
:10B1940030B128880649000440F00100FBF728FC80
:10B1A400204638BD3C220020006002002600030037
:10B1B400DBFF02006DDF704779DF70477DDF70478A
:10B1C40064DF70472DE9F74F0C9CBDF834B0278835
:10B1D400002580468A4691462E46B8F800209642BD
:10B1E4000BDB35B12288013AD21B92B2FF2A39D83F
:10B1F400DA55002003B0BDE8F08FD8F8042052F8E7
:10B204002600019000220DF1030101A8FFF7D8FFE9
:10B214000028EFD19DF803204A4521D12288002D32
:10B2240014BF0020022002EB09010144594519DC36
:10B234003DB9013292B2228003F802A02288013281
:10B24400228022880DF103011A4401A8FFF7B8FFF8
:10B254000028CFD121889DF803200A4422800125AB
:10B264000136BAE70C20C5E72DE9F341089CBDF887
:10B27400245017468DE8300002220646FFF7A2FF4D
:10B2840048B91022394630460995089402B0BDE801
:10B29400F041FFF797BF02B0BDE8F0812DE9F04F10
:10B2A40000231688138090F82D3085B007460D468C
:10B2B400144643B3082E4ED902A8FFF77BFF00289B
:10B2C40040F0FF8013880822CA54238801339BB2BC
:10B2D4001B222380CA542088013080B22080062299
:10B2E4000DF10901284403F0A7FF23889DF80820E5
:10B2F40006339BB212F0FE0218BF01222380EA54E7
:10B30400238801332380BB78FBB123880433B34201
:10B3140021D802A8FFF750FF002840F0D2802388EC
:10B324000322EA54238801339BB219222380EA546E
:10B334002388BDF8082001339BB2E9182380EA541E
:10B34400120A4A70238802332380FA78AAB1238828
:10B35400D91CB14201D90C20B3E00221E95423885D
:10B3640001339BB201212380E95423880B449BB20F
:10B374002380EA5423880B4423807A68AAB1238863
:10B38400D91CB142E7D8022192F90020E95423885C
:10B3940001339BB20A212380E954238801339BB2F1
:10B3A4002380EA542388013323803B89002B7CD1FA
:10B3B4003B8A53B18DE850002B460722032107F145
:10B3C4001000FFF751FF00287BD13B8B53B18DE870
:10B3D40050002B461522142107F11800FFF744FFF3
:10B3E40000286ED13A6A002A6ED1D7F82480B8F1C9
:10B3F400000F2ED0B8F804302188981C8A1C02440F
:10B40400B242A8D8FE28A6D803336B54238801334C
:10B414009BB2FF222380EA54238801339BB223800A
:10B42400B8F80020EA54E918120A4A702088023059
:10B4340080B22080B8F804205AB1D8F80810002946
:10B444004CD0284403F0F8FE2388B8F804201344B1
:10B45400238097F82C30002B7BD1387888B33B8835
:10B46400012B3BD021888A1CB2423FF674AF0128DD
:10B4740005D17B7802330B449E42FFF46CAF023E4D
:10B48400761A04A9B6B221F8086DA818FFF796FE3B
:10B49400B8B93B78022B40F09F80BDF80830B34226
:10B4A40040F2B680ADF808609FE08DE850002B466E
:10B4B4000622022107F10800FFF7D6FE00283FF418
:10B4C40077AF05B0BDE8F08FB4F800E00EF10603E5
:10B4D400B3423FF640AF1188052901D80720F0E7B1
:10B4E4006FF4486C01EB0C039BB24FF27D3C634557
:10B4F400F4D95388052BF1D96FF44860181880B239
:10B504006045EBD94FF6FF70814203D0834201D0EE
:10B514009942E3D8052305F80E30238801339BB202
:10B5240012212380E954238801339BB2238011889C
:10B53400E954E818090A4170238802339BB2238036
:10B544005288EA54E918120A4A7023880233238085
:10B554004BE7BB6A002BC1D04FF000094FF00C0A37
:10B564004FF0160B97F82C305FFA89F293427FF66E
:10B5740074AFB96A0AFB02F201EB0208B8F80430AE
:10B58400981CFE283FF6E7AE208803332B5423880B
:10B5940001339BB2238005F803B0238801339BB2A7
:10B5A40023808A5AEA54E918120A4A702088023021
:10B5B40080B22080B8F804205AB1D8F808100029C5
:10B5C4008CD0284403F038FE2388B8F804201344B0
:10B5D400238009F10109C5E7012B7FF463AF7B7870
:10B5E4009E42FFF45FAFADF808300821BDF8083083
:10B5F400FE2B3FF6B0AE22880133AB5422880132D1
:10B6040092B22280A954228813442380002058E750
:10B614000921EBE770B558B14AB116880024B44249
:10B6240003D305196D789D4208D08C4201D30020C4
:10B6340070BD055D01352C44A4B2F0E78C42F6D20E
:10B64400A31C1380005D013880B270BD37B502AC15
:10B65400002324F8023D134622460546FFF7DAFF8D
:10B6640010B1BDF80600284403B030BD72DF704746
:10B6740073DF704774DF704738B5012204460D4606
:10B68400B0F89810D0F89400FFF7E0FF00B105700F
:10B6940004F13C0204F1940104F15400BDE8384083
:10B6A400FFF7E4BF80F830107047F8B504460F4642
:10B6B40081B178B191F87A3013B191F898303BB9EF
:10B6C400D7F8A030042B03D0D7F89C30042B03D137
:10B6D4000720F8BD0E20F8BD07F178060FCE4FF015
:10B6E400000E251D84F802E00FC50FCE0FC596E8A5
:10B6F400070085E8070084F830E0D7F8A4306363D6
:10B70400D7F8A830A3634FF6FF7504F19403C4F887
:10B71400A430A4F8A8500722714604F1AA0003F04B
:10B72400B5FD23780BB984F85450224604F1550131
:10B734001F25C4F89410384622F8985FFFF7AEFD31
:10B7440010BB224604F17401C4F89C1007F13C00BC
:10B7540022F8A05FFFF7A2FDB0B9A269A4F84820BF
:10B7640001236269206484F850006264014684F80D
:10B77400513084F83C3004F13C0204F15400FFF7EA
:10B7840075FF08B92370F8BDF8BD0000F8B5077857
:10B7940004460D46002F00F0F680A1700020FDF74E
:10B7A4006DFC014618B1012363700020F8BD04F15B
:10B7B400AA060722304603F069FDE38813B1A37893
:10B7C400012B04D0E3794BB1A378022B06D1636B30
:10B7D4009BB1012284F8B12008209847324604F135
:10B7E400B00112F8013F5BB98A42FAD16A1E032AFA
:10B7F4003CD8DFE802F0070D101284F8B130EDE711
:10B804003B46F3E7A2791AB194F8242002B94BB964
:10B81400E27902B163BB237A63BB637A002B0CBF6A
:10B8240000250425636BA57033B3033D012D23D894
:10B8340062790AB394F8B220F2B984F8B4200122F0
:10B8440084F8B3200720984704F13C05182200210E
:10B85400284603F01BFDE36A0122591E914284F835
:10B864003C2000F2928084F8513091E00025D9E721
:10B874000225D7E70325D5E7002384F8B330E3E7AF
:10B8840001238CE0C4F8A43063640223012284F809
:10B894003C30802384F831202664A4F84830A3780F
:10B8A400002B5FD1636B002B3FF47FAF94F8310022
:10B8B40098477AE7022384F8313062B1072384F889
:10B8C4003C302369A4F848300023C4F8A430E3686A
:10B8D40026646364E3E70323F1E763696364A369AC
:10B8E400A4F8483012B1062384F83C306379B3B12C
:10B8F40094F8B2309BB994F8B43083B1022384F83D
:10B90400503004212046FFF7B7FE0028C7D1052395
:10B9140084F8313004F19403C4F8A430BFE703235E
:10B92400F6E7E3696364236AA4F8483012B1062396
:10B9340084F83C30637983B194F8B2306BB994F8ED
:10B94400B43053B1022384F8503004212046FFF769
:10B9540093FE0028A3D10623DAE70423D8E784F86A
:10B9640031309CE72A46D4F8A41004F15400FFF7C0
:10B974007DFE58BB94F8301094F85400FFF778FE1D
:10B9840000288FD0F8BD0820F8BD84F85120002786
:10B9940094F824202AB1002F3FF472AFA36A84F8EC
:10B9A4005230A178002384F8503004293FF677AF51
:10B9B40001A050F821F000BF63B9020089B8020069
:10B9C400B9B80200DFB8020027B90200F8BD00BF11
:10B9D4000388112B10B50C460AD0262B1CD0102B33
:10B9E40028D1C37B012B25D18388A1F8A83010BDB1
:10B9F4000022838881F8B220B1F8A8209A4219D194
:10BA04000B79BBB901212046FFF7C0FE90B1A36BAF
:10BA140083B1BDE810401847037A013B012B09D8D4
:10BA240089780523013191FBF3F303EB8303C91AEE
:10BA3400C9B2E8E710BD0238012810B50C460DD88C
:10BA44004B785BB100234B7020468978FFF79EFE4C
:10BA540020B1A36B13B1BDE81040184710BD38B531
:10BA6400044690F85400FFF705FE012384F8B23031
:10BA7400002384F8B43084F8503006212046FFF7C0
:10BA8400FBFD054638B9A1782046FFF77FFE10B1CB
:10BA9400A36B03B19847284638BD75DF704776DF3E
:10BAA40070477ADF70477BDF70470000034B1A88CA
:10BAB40082420CBF18460020704700BFDC2D0020D6
:10BAC400024B9B6903B11847704700BFC02D00208B
:10BAD40037B585B22846FFF7E9FF034670B1164C27
:10BAE400017A227B91420BD200F10A012846FFF72A
:10BAF400D4FFE8B1112801D0FFF7E2FF03B030BD55
:10BB0400237C0022027243B13B212846FFF7C7FF82
:10BB140030F0080301D0FFF7D3FF6369002BEDD0A9
:10BB240000228DF80420ADF8065001A89847E5E7F7
:10BB34001A7A01321A72E1E7C02D002013B50B46C0
:10BB4400497A0F4C024669B9A06861681C7A002CD6
:10BB540018BF01465868FBF75BFE08B1FFF7B0FF5A
:10BB640002B010BD002119726369002BF8D00121C5
:10BB7400ADF806008DF8041001A89847F0E700BF5F
:10BB8400C02D00208388B3F5FA7F28BF6FF4F972C3
:10BB940030B528BF9C1805884A8838BF00249542D0
:10BBA4000CD84088904209D38A88A24206D303F273
:10BBB400F310904234BF0020012030BD002030BD7E
:10BBC4000388112B70B501462ED002D8102B05D056
:10BBD40070BD122B51D0502B35D070BDC37B012BBF
:10BBE4004AD14FF6FF70FFF761FF054620B90420E4
:10BBF400BDE87040FFF764BF264A8E8806800023A4
:10BC040003721368C5F80A300A3053684360103170
:10BC1400FFF7B8FF204B6872DB896BBB29463046BF
:10BC2400BDE87040FFF78ABF8088FFF73FFF0446F6
:10BC340010B34068FBF732FE08B1FFF741FF4FF63F
:10BC4400FF73238070BD144BC288DB899A4213D1E1
:10BC5400038A022B10D186883046FFF727FF05465A
:10BC640050B101F1120000F06DF90028D6D16868D6
:10BC7400FBF714FE0028BBD170BD86883046FFF761
:10BC840015FF05460028F7D008310A30FFF77AFF80
:10BC94006872C3E7F02D0020C02D0020F8B50646D9
:10BCA40050B305460FCD154F3C460FC495E8070029
:10BCB40084E807003068124B3B60B8B1FFF7F1FE2F
:10BCC400D8B931680A681A604A685A600D480E4A41
:10BCD4004FF6FF7303800D4B40F8043F0021FBF740
:10BCE40085FD002814BF03200020F8BD1846FFF787
:10BCF400DAFE0028EAD0F8BD0E20F8BDC02D0020E1
:10BD0400F02D0020DC2D0020D5BA0200F82D0020F3
:10BD1400F7B5174601900E4691B1019C6CB1002510
:10BD24002C46294601A8FCF7DAFD18B13946A8B219
:10BD3400B04701340135142DF3D1204603B0F0BDD2
:10BD44000C46FAE773B50191019C06466CB10024D8
:10BD54002546294601A8FCF7C2FD18B106EB4403A9
:10BD640001349D800135142DF3D13046346002B086
:10BD740070BD00002DE9F04703888488112B8CB036
:10BD8400064638D01A2B3BD0102B24D1274DAB6854
:10BD94000CA8DB4340F8303D6968FCF709FE0099C4
:10BDA40001A8FFF7CFFF0DF106094FF00008019B32
:10BDB400984513D3132C35D821461D48FCF76EFD46
:10BDC40021461C48FCF76AFDF37B012B03D01A487B
:10BDD4002146FCF763FD0CB0BDE8F08739F802AFEB
:10BDE400002704375146E819FCF76FFD742FF8D18A
:10BDF40008F10108DBE70E482146FCF766FDEAE797
:10BE0400057A0E482D09012D214606DDFCF746FD75
:10BE1400022D21460A48F0D0DBE7FCF756FD214607
:10BE24000748EAE70420FBF763FAD4E7182E00205A
:10BE3400202E00201C2E0020242E0020282E00203E
:10BE44002C2E00201328014602D80248FCF747BDD7
:10BE5400002070471C2E002010B50446FFF7F2FFA7
:10BE640038B121460348FCF73AFD002814BF0220EC
:10BE7400012010BD242E002010B50446FFF7E2FF78
:10BE840028B121460248BDE81040FCF728BD10BD8A
:10BE9400282E002008B518210248FCF729FDC0B25D
:10BEA40008BD00BF182E002070B50A4D064628466E
:10BEB4000C46FCF714FD58B13046FFF7C3FF38B108
:10BEC400A01D314605EB8000BDE87040FCF707BDBE
:10BED400002070BD182E0020F8B50D4D06462846EA
:10BEE4000C461746FCF7FBFC80B13046FFF7AAFF6F
:10BEF40060B1A01D314605EB80001FB1BDE8F840DC
:10BF0400FCF7CCBCBDE8F840FCF7DFBCF8BD00BFD3
:10BF1400182E0020F8B50A4C05460E460146204668
:10BF24001746FCF7DCFC48B1043504EB85043A46BB
:10BF3400A0683146BDE8F840FFF7EABEF8BD00BF8F
:10BF4400182E0020007800F0010070470078C0F33C
:10BF54004000704710B50446408800F0B5FBA0804F
:10BF64002046BDE8104001F0F9BB30B587B0054666
:10BF74000C461422002101A803F088F9072301A824
:10BF84008DF80430ADF806500394FFF7E3FF07B0D3
:10BF940030BD000030B587B005461422002101A849
:10BFA40003F074F94FF6FF739D42ADF806501AD0B2
:10BFB400284600F028FA0B2804461DD005D8A0B165
:10BFC40021462846FFF7D1FF05E0112805D043F2AA
:10BFD40002039842F4D1002200E00122074B2846D4
:10BFE4001978FFF779FF07B030BD0E2301A88DF84B
:10BFF4000430FFF7AFFFEEE70F23F7E7912E0020A1
:10C00400FFF7C8BF024B034918780022FFF782BF2D
:10C01400932E002031C00200024B034918780022FD
:10C02400FFF778BF922E0020C9C0020070B5234EDE
:10C0340086B031780446FFF737FF0546C0BB20467B
:10C0440000F030FA0828014622D006D888B1062824
:10C054001ED02046FFF789FF09E043F2020398420D
:10C0640005D043F20143984224D01128F1D1012292
:10C0740014E02946142201A803F008F9102301A8AA
:10C084008DF80430ADF806400125FFF763FFEEE7B5
:10C09400204600F019FB00F01FFA0022084B20464E
:10C0A4001978FFF719FF2A4631782046FFF714FF65
:10C0B40006B070BD2046FFF76DFFD8E7942E002030
:10C0C400932E002070B5002186B006461C4801F06E
:10C0D40071FD054608B3304600F050F911280146B9
:10C0E4001DD004D860B13046FFF73FFF05E0862835
:10C0F40017D043F202039842F5D10024254601E00B
:10C104002C4605460F4B2A4619783046FFF7E4FEC5
:10C114001CB921460A4801F072FD06B070BD002426
:10C12400F0E71422002101A803F0B0F8062301A8C7
:10C134008DF80430ADF80660FFF70CFFDDE700BFB3
:10C14400902E0020922E0020037810B5044673B977
:10C154004088FFF71FFF608800F092F938B1044B64
:10C16400608819780122BDE81040FFF7B5BE10BD04
:10C17400932E00200378082B37B504462CD1417A3E
:10C1840051BB057A072D1BD0082D29D0012D23D1B1
:10C194006A462946808801F009F9E8B9019B1B78B1
:10C1A400D3B1A08800F0B8FA4FF6FF73984213D0C9
:10C1B4000D4B2A461978FFF78FFEFFF723FF0BE09C
:10C1C400808800F0A9FA4FF6FF73984204D0074B19
:10C1D40001221978FFF780FEFFF71EFF03B030BD80
:10C1E400034801F00CFDF7E7932E0020922E002067
:10C1F400902E002070B5FFF74DFE104E104D30709C
:10C20400FFF748FE2870FFF745FE0E4C2070FFF73D
:10C2140041FE0D4B18703378182B0DD02B78182B4A
:10C224000AD02378182B07D0182805D001210748F5
:10C2340001F0B9FC002070BD032070BD922E0020D7
:10C24400912E0020932E0020942E0020902E00206A
:10C2540010B503888488522B86B016D0542B21D075
:10C26400502B15D1037B012B12D1827A012A0FD1D5
:10C27400018942F6021399420AD11B4B20461978D0
:10C28400FFF72AFEFFF7C8FE02E02046FFF782FE12
:10C29400164B174918780022FFF73CFEFFF7B2FE51
:10C2A40006B010BD1422002101A802F0EFFF1123F3
:10C2B40020468DF80430ADF8064000F005FAADF8DC
:10C2C400080000F009F90B4B204619780022FFF70B
:10C2D40003FE094B204600221978FFF7FDFD01A853
:10C2E400FFF738FED4E700BF922E0020912E0020E5
:10C2F40005C00200942E0020932E0020AFDF70476B
:10C30400B1DF7047B2DF7047B3DF704773B50F4BCF
:10C314000F4C93E8030000228DE80300694620884F
:10C3240001F043F96D464FF6FF762388B34201D0FE
:10C33400112801D102B070BD184601F028F900227D
:10C344002946208001F031F9EFE700BF50000300D7
:10C35400962E0020044B1A884FF6FF739A4201D0A0
:10C36400FFF7D4BF704700BF962E0020024B4FF654
:10C37400FF721A8000207047962E00202DE9F743A3
:10C38400804600F0A1F94FF6FF739842064637D075
:10C3940001224FF003096B4608213046571C01F077
:10C3A40009F8BFB2054630BB01990A46032342F897
:10C3B400049B06314046FFF7A5FF044648B93246C0
:10C3C4000821304601F0D0F80446204603B0BDE809
:10C3D400F0830C280DD0052800D12C4608213046C6
:10C3E40001F05AF8002818BF03243A46002DD2D190
:10C3F400EBE70125F2E7072814BF04460C24E4E721
:10C4040043F20204E1E72DE9F341804600F05CF9D0
:10C414004FF6FF73984217D10024032526460127BF
:10C424002B46224631464046FFF76AFF042820D0B7
:10C43400082823D00B281DD115F002030FD18EB983
:10C44400A4B902B0BDE8F0816A46082100F0AEFF4D
:10C454000028E1D1019B9E1D9C881D68DFE7012512
:10C464000027DDE703251C461E46F9E7032534466D
:10C47400F6E71120002F08BF0B20E2E70020F9E7C0
:10C484001FB50DF10703039300F01EF902AA012161
:10C4940000F08CFF20B9039B187805B05DF804FB0D
:10C4A4000020FAE738B504460A48FFF72DFF70B9B3
:10C4B400084B43F203054FF6FF7219882046FFF735
:10C4C4001DFFA84204D11A8801321A80F3E7032021
:10C4D40038BD00BF982E002013B5064A044692E8E2
:10C4E400030000228DE803006946204601F05DF850
:10C4F40002B010BD5800030046DF7047F8B5094D7F
:10C50400094E00240C2707FB046329785888FFF799
:10C51400CBFC08B9E0B2F8BD0134142CF3D1FF20F0
:10C52400F8BD00BF9A2E00209C2E00200A4B10B5A7
:10C5340019780446FFF7B8FC60B1084B00200C22C0
:10C5440002FB00314988A14201D1C0B210BD0130C3
:10C554001428F5D1FF2010BD9A2E00209C2E002017
:10C5640038B505460C4609B9FF2038BD4FF6FF73B0
:10C574009842F9D00E4B01221978FFF7ADFC2846FA
:10C58400FFF7D4FFFF2803D1FFF7B8FFFF28EBD054
:10C5940008490C234343CA1855804FF6FF75CD5202
:10C5A40021685160131DA2889A80A2799A7138BDBE
:10C5B4009A2E00209C2E0020421E00F10F0312F838
:10C5C400010F10B99A42FAD170470120704708B59B
:10C5D40080B171B103780A78534013F0FE0F08D18B
:10C5E40006220131013002F006FEB0FA80F0400963
:10C5F40008BD002008BD2DE9F04700F101084F1CDB
:10C6040006460D4600F1110901F1110A10223946BE
:10C61400404602F0F0FD0446E0B94046FFF7CCFF87
:10C6240018B13846FFF7C8FF044651464846FFF79D
:10C63400CEFF737C03F0FC03042B04D06B7C03F06B
:10C64400FC03042B02D1201C18BF012000F00100C0
:10C65400BDE8F0870024E8E730B585B004460D4610
:10C6640000F074FC02AA0DF10601072000F076FC2C
:10C6740010B94FF6FF700BE0BDF80630AB42F1D0B5
:10C6840003992046FFF7B7FF0028EBD0BDF806005A
:10C6940005B030BD10B50A4C0A48182222704FF676
:10C6A400FF71002283180C32F02A5980FAD1FFF767
:10C6B400F1FB182820700CBF0320002010BD00BF20
:10C6C4009A2E00209C2E002008B5FFF72FFFFF288C
:10C6D4001FBF0C235843034B185A08BF4FF6FF7073
:10C6E40008BD00BF9C2E002010B50C46FFF71EFFAE
:10C6F400FF280CD0074B0C2202FB003050F8043FFB
:10C7040023608388A3808379A371002010BD052052
:10C7140010BD00BF9C2E0020084A30B500230C2415
:10C7240004FB03F18D5A854202D10A44508830BD7E
:10C734000133142BF4D14FF6FF7030BD9C2E002032
:10C74400038843B9821C00F10A0312F8010B10B9E3
:10C754009A42FAD170470120704710B50446FFF79A
:10C76400EFFF68B122880B889A4208D1082202316F
:10C77400A01C02F040FDB0FA80F0400910BD00207A
:10C7840010BD1FB5044600F0E1FB02AA0DF106013D
:10C79400072000F0E3FB10B94FF6FF7007E00399A0
:10C7A40020464631FFF7D9FF18B1BDF8060004B0A2
:10C7B40010BD039920462A31FFF7CFFF0028E4D0AB
:10C7C400F3E7000010B50C46FFF7B0FEFF281FBFCB
:10C7D4000C235843014B1C5210BD00BF9C2E00205B
:10C7E40070B50446FFF798FF0646204600F068FE41
:10C7F4004FF6FF75AE42044609D040B93046FFF704
:10C8040095FEFF281FBF0C235843024B1D522046A0
:10C8140070BD00BF9C2E002030B58DB014460D466F
:10C8240000F110030DF1FF3213F8011D02F8011F8E
:10C834009842F9D10D22002104A802F027FD2B789B
:10C844008DF81F306B788DF81E306846AB788DF804
:10C854001D30FFF751FE9DF82F3023709DF82E30C8
:10C8640063709DF82D30A3700DB030BD30B50378E2
:10C8740003F0FE03042B85B004460D4618D1411C79
:10C88400032201A802F0D8FC0322211D03A802F010
:10C89400D3FC02AA03A92846FFF7BEFF032202A97C
:10C8A40001A802F0A8FCB0FA80F0400905B030BD40
:10C8B4000020FBE730B50388102B93B055D1041D3D
:10C8C4000FCC07AD0FC50FCC0FC594E8070085E862
:10C8D400070012AD15F8283D03F0FE03062B4ED0D9
:10C8E40000F034FB9DF820305B08012B3FD9022B6C
:10C8F40045D102AA0DF10601072000F02FFB002804
:10C904003DD0039928460131FFF7B0FF0028F0D04D
:10C9140005E0039928461131FFF759FE38B3BDF8F5
:10C924000640BDF81C002946FFF71AFE4FF6FF73B8
:10C934009C421AD0BDF81C00FFF7F8FDFF281EBF6B
:10C944000C2358430F4BADF80C4018BF1C52BDF8D4
:10C954001C30ADF80A3012AC002304F8403D2046E8
:10C9640000F0FEFE2046FFF7EFFB13B030BD02AA35
:10C974000DF10601072000F0F1FA0028C9D14FF6A5
:10C98400FF74CEE79C2E002090DF7047A5DF704730
:10C99400B5DF7047F0B585B00023ADF80810ADF8E9
:10C9A4000A106A4602A90746ADF80C30ADF80E30FD
:10C9B4000093ADF80430FFF7E7FF064618B3134CB5
:10C9C4002588FCF7A9FE2D0445F0010503463A46E7
:10C9D4000F492846FAF71AF8BDF80020BDF80230CE
:10C9E40002B933B120880B49000440F00100FAF782
:10C9F4000DF8BDF8042032B120880749000440F046
:10CA04000100F9F7F9FF304605B0F0BD50220020CF
:10CA140068000300B2000300F100030070B11723A3
:10CA24001B2203804380C3800381002301610271C0
:10CA34008372C37202734273184670470E207047A4
:10CA440037B5034680880C46A0B91A88232A00F01B
:10CA5400AB8011D8102A24D0112A52D0A37A4BB11A
:10CA6400E1880020FFF792FF002840F0A380012313
:10CA7400A072E37203B030BD3A2A4BD0552A65D078
:10CA8400242AEBD11A7A0B694A73002BE6D04DF6AF
:10CA94007A210090ADF80400ADF800108DF8042060
:10CAA4007EE0DB7B0A790A73012B13D0022B14D0AE
:10CAB400E18823898B4205D20020FFF767FF70B914
:10CAC4000123E372217B637B8B42C7D20020FFF7F3
:10CAD40061FFC3E70B88E380EAE74B88FBE7112893
:10CAE40002D10123A372EDE73A4B1D88FCF714FE33
:10CAF4002D0445F00105024637492846F9F77CFF25
:10CB0400E0E71723CB800B811B238872C8720B7359
:10CB14004B73A3E75B89CA88934228BF1346172B3C
:10CB24000A6938BF17230B8162B1C97A51B140F643
:10CB34007721ADF80010ADF80200ADF80430694675
:10CB4400204690470023E372A37287E7DB88C988F5
:10CB5400A072172B38BF17238B4228BF0B462381A3
:10CB6400FFF716FF58B11B4B1D88FCF7D5FD2D04AC
:10CB740045F00105024619492846F9F73DFFE27AD6
:10CB8400002A7FF46BAF2369002B3FF467AF40F6B4
:10CB94007721ADF802202289ADF80010ADF8042009
:10CBA40069462046984759E7197A237B994228BF5A
:10CBB40019468CE711283FF45DAF064B1C88FCF73F
:10CBC400ABFD240444F00104024603492046F9F76E
:10CBD40013FF4FE7502200204701030078010300B0
:10CBE400B0DF704766DF7047034610B50021408808
:10CBF400FFF7F8FF024608B91A7210BD112801D1D7
:10CC04000122F9E75B68BDE81040184760B159B1EB
:10CC14000378DE2B0AD00B684360DE2303704FF6E3
:10CC2400FF734380002070470E2070470820704730
:10CC340028B10378DE2B04D14180002070470E20F8
:10CC4400704708207047F0B5054685B00C46F1B131
:10CC5400E8B10B78DE2B1AD182884B889A4204D132
:10CC64000B7A13B10846FFF7BFFF2B88112B32D084
:10CC7400512B0ED0012B0AD12B7A012B07D1A98875
:10CC84006288914203D123722046FFF7ADFF05B0BD
:10CC9400F0BDAE886388B342F9D1AF79022FF6D1E3
:10CCA400AD7B2B1F022BF2D800211022684602F024
:10CCB400EDFA052D14BF4FF4C073002369463046C6
:10CCC4008DF80070ADF80430FFF78AFF0028DED03D
:10CCD40063689847DBE76388AA889A4204BF4FF6E3
:10CCE400FF736380D3E7012804D0043804288CBF81
:10CCF4000020012070474FF6FF73438000F0A4BA70
:10CD0400F0B51F4D8BB0002108226846297002F04F
:10CD1400BDFA4FF6FF7000F0F1FC4FF6FF770446C2
:10CD2400BC4211D0A4F58046B6B26A4602A9304688
:10CD3400FBF7F6FC0A2809D03046FBF78DFC0828DF
:10CD440006460BD101232B700BB0F0BD204600F03A
:10CD540079FC204600F0D2FC0446E1E7002EF3D033
:10CD6400142200210DEB020002F090FA072305A81B
:10CD74008DF81430ADF818400796FFF7BCFFE3E7D1
:10CD8400942F002070B5044686B01422002101A817
:10CD940002F07CFAA08923782B4D00F5804080B204
:10CDA4005A1EADF80800042A25D8DFE802F0030370
:10CDB400032F440043F6FE76B042E18904D901F51D
:10CDC400804292B2B24216D8DA1E534253418DF8D1
:10CDD4000D30A368049363688DF80C108BB9082395
:10CDE4008DF804309DF8143043F001038DF81430AD
:10CDF40001A8FFF780FF2B780BB1FFF781FF06B086
:10CE040070BD09228DF804200593F1E743F6FE7303
:10CE14009842F0D8E389002BEDD163683BB90A232B
:10CE24008DF8043000F00EFC01232B70E0E70B2397
:10CE34008DF80430F8E713238DF804304FF6FF73B0
:10CE4400ADF80830D4E700BF942F002073B5044632
:10CE54000D46164600210822684602F017FAA5F589
:10CE64008041A4F580406B46324689B280B2FBF71C
:10CE74003DFC002814BF0520002002B070BD000056
:10CE840030B5174889B0FBF723FA20BBFBF736FA15
:10CE9400044610BB00F0A8FB0822214603A802F0B8
:10CEA400F5F903AA05A94CF20700FBF72DFC10B114
:10CEB400204609B030BD01A905A8FBF735FB019B4D
:10CEC4009D8805F58045ADB205A8FBF751FB2846C2
:10CED40000F0A0FBE5E70324EAE78624E8E700BFC7
:10CEE40089CD0200F0B5FF2887B004460E461546EA
:10CEF4001F4627D80846FFF7F6FE18B303AA2046B4
:10CF0400FFF7A4FF18B10524204607B0F0BD01A91E
:10CF140003A8FBF709FB04460028F4D1019BAE707B
:10CF24005A882A802FB9029B6B6003A8FBF720FB69
:10CF3400EAE73B6892009A4206D80299686802F0D0
:10CF44007BF9F2E70724DFE70424DDE70822002168
:10CF5400014802F09BB900BF8C2F0020F0B587B0C8
:10CF640007460E461546FFF7BEFE0446F8B1A7F580
:10CF74008040104A03A980B2FBF7C6FB18B1002415
:10CF8400204607B0F0BD01A903A8FBF7CDFA00289D
:10CF9400F5D1019BAF705A882A80029A6A609B88F7
:10CFA40003F58043338003A8FBF7E2FAE8E70124A2
:10CFB400E6E700BF8C2F002008B5034680780A46B8
:10CFC400FFF791FE68B119881046FBF7F3FA0728BA
:10CFD40005D0092806D0002818BF032008BD8620E4
:10CFE40008BD072008BD07B502AB43F8040D184679
:10CFF400FBF7FAFA002814BF0320002003B05DF801
:10D0040004FB30B589B0FF28044601921D4645D87B
:10D014008B781846FFF767FE00283FD0A4F58042BE
:10D02400ADF80820A3F58042ADF80A204A680392BF
:10D034000A880492194605AA2046FFF707FF052827
:10D04400019B11D153B902A905A8FBF7F3FA0728EC
:10D05400044618D011D8D0B1032415E001AA02A9BE
:10D0640005A8FBF7EBFAF2E713B101A8FBF7BCFA4A
:10D0740002A905A8FBF7E8FAE9E7082801D00E2879
:10D08400EAD1112400E08624204609B030BD002DE9
:10D09400FAD0294605A8FBF74FFBF5E70724F3E789
:10D0A4004FF6FF7000F0B6BAFF2808B505D800F0B7
:10D0B400B7FAFFF725FE002008BD072008BD00F0E1
:10D0C400D5BA00F001BB00F019BB000030B50A6806
:10D0D400064B012A01D9002030BD1401E55A8542CE
:10D0E40002D10A60181930BD0132F2E74C30002039
:10D0F40073B502AC002344F8043D0E4605462146B0
:10D10400FFF7E4FF38B18378B34206D1837B9B07F2
:10D1140003D183680BB902B070BD019B0133019345
:10D1240021462846ECE7000070B5054E054600246C
:10D1340056F82430284601349847042CF8D170BDA1
:10D14400B40103008378013B072B07D8DFE803F021
:10D154000706060606070409142303807047012303
:10D16400FBE743689B8809339B08F6E770B50F4ECD
:10D1740004460025237B9D4210D34FF6FF73238082
:10D18400A370FF236373A37B03F0FD036FF300031A
:10D19400A373002323736360A36070BD617B294480
:10D1A400C9B2304600F0BAFC0135E3E73C30002058
:10D1B40037B58378417B00250446214800950195C5
:10D1C4008DF8023000F093FCB8B1237BA278019073
:10D1D40003EB83039B0068468DF80220ADF8003012
:10D1E400FFF7B0FF04F10803626820886946FFF77F
:10D1F40008FF072817D002D878B1032013E01128BC
:10D2040013D08628F9D1A37B03F0FD0343F0010377
:10D21400A3730C4B01221A7005E0A37B60F3410356
:10D2240060F30003A37303B030BDA37B43F0020398
:10D2340065F30003A373034B01221A702846F2E737
:10D244003C30002038300020F0B5384DC368AA685F
:10D25400934287B0064615D0AA69934214D101249B
:10D2640005EB04103378324F092B14D0132B0DD057
:10D27400082B51D1747A002C4ED100284ED0FFF7E0
:10D2840075FF04E00024EBE70020EBE701243046BF
:10D29400FFF74AFF0BE0747A002C3DD100283DD003
:10D2A400837B846043F00203837301233B703E78E5
:10D2B4003EB3AB7B980726D51C48FFF779FF48BBE4
:10D2C4003346AA7F910702D4D2072AD54CB3194812
:10D2D400FFF76EFF20B301231B018628EB5AADF83C
:10D2E40008304FF6FF720EBF06230723039001A8F0
:10D2F400ADF806200CBF8DF804308DF80430FFF72C
:10D3040013FF07B0F0BD13F00103DAD0002CD3D122
:10D314002346D6E70023DFE70024B8E70446B6E750
:10D324003346002BEDD13B70EBE700BF4C300020BF
:10D33400383000205C3000201FB5174B1748FF22FF
:10D344005A739A7B4FF6FF711980997019829974F8
:10D35400597702F0FD02997F6FF300029A7301F08E
:10D36400FD01002262F300011A735A609A609977F2
:10D374001A775A619A610121022250238DE80E0026
:10D38400074B0849A02200F097FB002814BF032094
:10D39400002005B05DF804FB4C3000203C30002038
:10D3A4006C300020982F0020FFF77ABE0023FFF78F
:10D3B40099BD00002DE9F84381460E4614461F46E8
:10D3C400002B61D0CB1F012B02D90720BDE8F883C5
:10D3D400531E012BF9D8FFF772FE05460028F4D03E
:10D3E40031464846FFF784FE804668BBFF214FF66E
:10D3F400FF70FFF77DFE804618B3A0F8009086709A
:10D4040098F80D30FF2B25D12146224800F09BFBD4
:10D41400FF2888F80D001ED14FF6FF73A8F80030DE
:10D4240098F80E3088F8020003F0FD036FF3000350
:10D4340088F80E30002388F80C30C8F80430C8F897
:10D4440008301120BDE8F883037B9C42D8D00F201C
:10D45400BDE8F883002588F80C4098F80D100D48B5
:10D4640000F045FB98B104EB84042401A4B2A408A1
:10D47400BE7078603C8025B1082E02D1A400063C21
:10D4840084800020BDE8F8830E20BDE8F8830320E3
:10D49400BDE8F8833C30002038B5FFF729FE054687
:10D4A40060B1406810B1FFF79EFD28B900242846FA
:10D4B400FFF75CFE204638BD0324F8E70524F9E7AE
:10D4C40073B502AD002445F8044D06462946FFF71E
:10D4D400FDFD58B93CB93046FFF7E6FD044610B1EE
:10D4E400072818BF0324204602B070BD8178304657
:10D4F400FFF7D2FF10B1052818BF0324019B0133A5
:10D50400019329463046E2E7CB1F012B73B50E4643
:10D5140021D8FFF7EDFD0446F8B14568FDB9417B1C
:10D52400104800F0E4FA009501958DF8026078B196
:10D53400237B019003EB83039B006846ADF8003026
:10D54400FFF700FE211D6846FFF736FD092800D1CC
:10D55400032002B070BD0720FBE70520F9E7002097
:10D56400F7E700BF3C30002038B5CB1F012B0C4639
:10D57400154608D8FFF7BCFD38B105808470BDE8B6
:10D584003840FFF715BE072038BD052038BDFFF72A
:10D5940098BDFFF798BD13B5148802ABA40043F8F7
:10D5A400044DFFF79FFC02B010BD13460022FFF7A5
:10D5B40028BD10B54FF6FF7304469C4208460AD1B5
:10D5C4004FF4807100F038FBB0F5807F044609D138
:10D5D4004FF6FF7406E0FF2CFAD8214600F0EAFA71
:10D5E4000028F5D0204610BD10B5094C402200217A
:10D5F400204601F04BFE20464FF4807100F0D3FA30
:10D6040004F120004FF48071BDE8104000F0CBBA63
:10D614006D3000200149FFF7CCBF00BF6D30002002
:10D624004FF6FF73984210B5044606D00449FFF73D
:10D63400C0FF231A5842584110BD002010BD00BF3E
:10D644008D300020FF2810B5044609D8014605484E
:10D6540000F0D5FA21460448BDE8104000F0CFBAE6
:10D6640010BD00BF6D3000208D300020FF28014622
:10D6740002D8024800F014BB002070476D3000202F
:10D68400FF28014602D8024800F00ABB0020704778
:10D694008D30002038B54FF6FF73984218BF013023
:10D6A4000D4614BF84B20024FF2C03D94FF6FF7437
:10D6B400204638BD2146284600F0F2FA0028F7D16A
:10D6C4000134A4B2F0E7000070B50B490A4EFFF72D
:10D6D400E1FF4FF6FF750446AC4201D1204670BD10
:10D6E4002046FFF7CDFF0028F8D020463146FFF74B
:10D6F400D1FF0446F0E700BF6D3000200149FFF779
:10D70400C9BF00BF8D300020F8B5074D074F06464E
:10D7140000242B789C4200DBF8BD57F824303046B7
:10D7240098470134F5E700BFC7300020B830002027
:10D73400074B1B7810B504464BB1FFF7BBF82046E6
:10D7440000F0FEFF2046BDE81040FEF781BD10BD8D
:10D75400C630002008B1FFF7D7BF7047FFF7D4BF2A
:10D76400FFF7D2BF08B5FFF78BFB08B1032008BD54
:10D77400FFF7E2FD0028F9D100F0BCFF0028F5D145
:10D7840000F080FB0028F1D1FEF734FD0028EDD134
:10D79400FEF7ECFD0028E9D1FEF77CFF0028E5D177
:10D7A400054B4FF6FF721A80044B1860044B187037
:10D7B400044B01221A7008BDC4300020CC30002074
:10D7C400C8300020C6300020084B1B7853B1084AEB
:10D7D4001378022B08D8074941F82300013313704A
:10D7E400002070470820704704207047C63000208E
:10D7F400C7300020B8300020034B1B780BB100F079
:10D80400AFBF0820704700BFC630002009B100F048
:10D81400C5BF7047034B1B780BB1FEF7E1BF08206F
:10D82400704700BFC630002070B51A4B1B7886B015
:10D8340063B3194E01234FF6FF703370FFF7A7FE51
:10D844004FF6FF739842054613D100241422214653
:10D8540001A8347001F01AFD0C2301A88DF80430DE
:10D86400ADF80850ADF80650FFF74EFF204606B05D
:10D8740070BD1E462846FFF7CDFF044640B9284632
:10D88400FFF785FEB0420546F4D1EFE70824EDE743
:10D894000324EBE7C6300020B43000202DE9F04F1C
:10D8A4001C462C4B1B7887B083468A469146002B36
:10D8B4004DD04FF6FF70FFF76AFE00250123049553
:10D8C40004AAADF81030062103AB06460395059370
:10D8D400FFF761FE072836D04FF6FF7843464FF036
:10D8E400FF37E0B1052818D04FF6FF7296422CD1CD
:10D8F400BBF1000F01D0ABF80030BAF1000F01D03A
:10D90400CAF80050B9F1000F01D0A9F8008004B1A1
:10D914002760002007B0BDE8F08F00220392039A2D
:10D92400AA4224BF334615463046BA423CBFB046ED
:10D9340017460193FFF72BFE04AA06210646FFF7BC
:10D944002AFE019BCDE70520E4E70320E2E7082057
:10D95400E0E700BFC630002008B500231A46064998
:10D964000648FFF79BFF28B1431F58425841044B18
:10D97400187008BD0120FAE7B0300020C430002040
:10D98400C8300020F0B5044687B08088FEF7C4FE96
:10D9940023786080083B032B20D8DFE803F00221C2
:10D9A4003166637A5BB93F4A116851B1E0688142DC
:10D9B40007D113603C4AA1881180E3600EE0012B7B
:10D9C4000CD13A4B1B784BB1374BA2881B889A4237
:10D9D40004D1237A062B01D1FFF7BEFF20465DE078
:10D9E400637A002BFAD12F4A11680029F6D0E06837
:10D9F4008142F3D12E4913600A68013A0A60DCE7D8
:10DA04002C4F3B7873B90125284B1B7833B1264B37
:10DA1400A2881B889A4201D1FFF79EFF002DDDD119
:10DA240007B0F0BD4FF6FF70FFF7B1FD4FF6FF737F
:10DA340098420546E7D1FFF7ACFDA8420646E2D17D
:10DA440000251422294601A83D7001F01FFC0C2377
:10DA540020468DF80430ADF80860ADF80660FFF795
:10DA640053FE01A8FFF750FECEE7124B1A78002AA6
:10DA7400B4D00021142201A8197001F007FC0D2371
:10DA84008DF804304FF6FF73ADF80830ADF806306A
:10DA94002046A3680393FFF737FE01A8FFF734FE7F
:10DAA400BEE700BFCC300020C4300020C8300020C6
:10DAB400B0300020B430002070B5059C069DA0B1A4
:10DAC40099B193B105FB04F696420ED8049AE61D6B
:10DAD400B2EBD60F09D344B13DB180E83A00184601
:10DAE400A1B200F060F8002070BD072070BD38B509
:10DAF4000C46054608B9002038BD0368002BFAD04F
:10DB040040680028F7D0FF29F5D000F0C9F80028B4
:10DB1400F1D0EB68286803FB040038BD38B505462E
:10DB240080B1036873B1406860B1FF290AD08CB238
:10DB3400214600F0B5F828B121466868BDE83840B0
:10DB440000F05DB838BD2DE9F0418846064618B9A5
:10DB5400FF242046BDE8F0810368002BF8D0436819
:10DB6400002BF5D00027FF24B368FDB2AB42EFD9F8
:10DB74002946706800F01EF840B1FF2C08BF2C46FF
:10DB84002D1B01354545E4D00137EDE7FF2C07D1C6
:10DB9400FF24F9E721463046FFF7C0FF0134E4B221
:10DBA400A542F7D8F4E720B1CA1DD210002101F034
:10DBB4006DBB70472DE9F3410546D0B1CF0801F0A4
:10DBC40007044FF0010808FA04F4C65DE4B22640E5
:10DBD40013D102A800F8016DF9F770FEEB5D9DF812
:10DBE40007001C4205BF1C43EC5535464546F9F772
:10DBF40089FE284602B0BDE8F0810025F9E773B537
:10DC0400C1F3C706012501F007018D40EAB20446BD
:10DC140080B1835D1A420DD002A8002300F8013DB3
:10DC2400F9F74CFEA15D9DF8070021EA0505A5550D
:10DC3400F9F768FE02B070BD2DE9F74F0E46824633
:10DC440020B9B046404603B0BDE8F08F4FF000095C
:10DC540001274E451FFA89F8F3D04FEAD80B08F094
:10DC6400070407FA04F41AF80B50E4B2254002D072
:10DC740009F10109EDE70DF107008DF80750F9F7F7
:10DC84001DFE1AF80B309DF807001C4202BF1C430E
:10DC94000AF80B400125F9F735FE002DE8D0D1E74D
:10DCA40058B1CB0801F00701C25C012303FA01F16A
:10DCB4000A4214BF184600207047012070477EDFD7
:10DCC40070477FDF704786DF70470378182B10B5E5
:10DCD400044602D1FEF7DEF8207010BD10B50446EC
:10DCE4004088FEF7F1FCA0802046BDE8104000F01B
:10DCF400A1BC10B586B004461422002101A801F08D
:10DD0400C5FA04230DEB03008DF80430ADF806408A
:10DD1400FFF7E4FF06B010BD30B587B005460C46EA
:10DD24001422002101A801F0B1FA072301A88DF8FB
:10DD34000430ADF806500394FFF7D0FF07B030BDB0
:10DD4400F0B587B004460F4616460021142201A8F8
:10DD54001D4601F09BFA03238DF80430094BADF8FE
:10DD64000640002219788DF80C702046ADF80E603C
:10DD74008DF81050FEF7B0F801A8FFF7AFFF07B019
:10DD8400F0BD00BFCF22002030B5144B0A1C87B071
:10DD94000C4618BF012219780546FEF79DF8631E4C
:10DDA4005A425A410E4B28461978FEF795F80D4B06
:10DDB400284619780022FEF78FF81422002101A8C2
:10DDC40001F064FA012301A88DF80430ADF806507F
:10DDD4008DF80C40FFF782FF07B030BDD22200203F
:10DDE400D0220020D12200201F4B2DE9F0410E4605
:10DDF400197804461746FEF757F8014680B32046C3
:10DE0400FEF762FC194B054619782046FEF74CF8DC
:10DE1400174B00281978204614BF4FF001084FF023
:10DE24000208FEF741F850B12846FEF7D9FC3B46FC
:10DE3400324641462046BDE8F041FFF781BF4FF628
:10DE4400FF739D42F3D007212846FFF725FB0146C7
:10DE54000028ECD00528EAD02046FFF75DFFE6E76E
:10DE64003B463246E6E700BFD2220020D022002003
:10DE7400D1220020024B0A781978FEF72DB800BF92
:10DE8400CE2200202DE9F041DFF86480144F154EB6
:10DE9400154D164C4046FFF718FF3846FFF715FF9F
:10DEA4003046FFF712FF2846FFF70FFF2046FFF723
:10DEB4000CFF98F80030182B0FD03B78182B0CD09F
:10DEC4003378182B09D02B78182B06D02378182BED
:10DED4000CBF03200020BDE8F0810320BDE8F081E1
:10DEE400D2220020D0220020D1220020CE220020E5
:10DEF400CF2200202DE9F04F8BB09346064688468A
:10DF0400FDF7AAFF554C074621783046FDF7CCFFB4
:10DF140020228246002102A801F0B8F9012FA1466F
:10DF24000CD14F4B002219783046FDF7D5FFB8F1DC
:10DF3400000F0CD185274FF6FF7540E0002F5AD013
:10DF4400B8F1000F03D185274FF6FF750DE098F85F
:10DF54000030DB070CD4434BCDF814B009934FF6D3
:10DF6400FF75012F4FF0000729D002AB002228E0F3
:10DF74003046FEF7A9FB4FF6FF7398420546044668
:10DF84000CD1FFF711FAA042054637D10324BAF1A8
:10DF9400000F2CD02846FEF723FC28E0012F2FD1B8
:10DFA4002F4C30462178FDF77FFF48BB3046FFF702
:10DFB400A0FE21783046FDF777FF08BB852702AB2A
:10DFC400424639463046FFF77CFE04460028DED13F
:10DFD400002FDCD1BAF1000F09D099F800103046B7
:10DFE4000122FDF779FF29463046FEF7EBFB204678
:10DFF4000BB0BDE8F08F43F20204F8E74FF0010ADA
:10E004006B46012207212846FFF7D4F9112804465C
:10E01400BDD0002CBAD121465022019801F036F926
:10E0240001990B46304603F8347B029301F118033F
:10E0340006934B1C079311310A4BCDF814B0099386
:10E04400FEF752FB0028A1D107212846FFF75CFA0E
:10E05400052804469AD0002899D182E7D1220020CD
:10E06400CE220020D030002038B505460C46FDF7FE
:10E07400F3FE012806D144B121462846BDE83840C4
:10E08400FFF71DBE43F2020038BD204638BD000034
:10E094002DE9F0410388113B88B00446092B71D85F
:10E0A400DFE813F00A0070001F00470070007000E2
:10E0B4007000700097001201037A85883D2B994BFC
:10E0C4002846197841F23D0418BF4FF48854FDF7EF
:10E0D400EBFE002856D0002221462846FFF784FE96
:10E0E40050E08088FDF7B8FE012802460FD1237A5C
:10E0F400A58813F0010F8B4B14BF01260226197853
:10E104002846FDF7E9FE31462846FFF73DFE34F880
:10E11400045F1422002103A801F0B8F80434052395
:10E124008DF80C30ADF80E50059403A8FFF7D6FD1A
:10E1340028E000F110063046FEF723FB4FF6FF738C
:10E1440098420546A08820D1FEF7BEFA0546754BD5
:10E15400A788197801223846FDF7BEFE002138460B
:10E16400FFF712FE4FF6FF739D4212D100250023E4
:10E1740029461A46A088FFF7A6FD0146F8B1A088F3
:10E18400FFF7CAFD08B0BDE8F0812946FEF71AFB87
:10E19400DDE703AA07212846FFF708F90028E5D19F
:10E1A400049D95F84430DB0701D53435DFE731466B
:10E1B40005F14600FEF7D1FA0028F6D1D6E7002D86
:10E1C400E0D1A0882B4641F206022946FFF7B8FDAC
:10E1D400D8E7057A534F8688002D67D13046FEF77D
:10E1E40073FA397880462A463046FDF775FE637A1D
:10E1F40013F004074DD0072101AB01224046FFF77D
:10E20400D9F8014690B13046FFF786FD02238DF818
:10E214000C30637AADF80E6013F0040F14BF0123C1
:10E2240002238DF814308DF815507EE74FF6FF71F8
:10E234000298FEF711FA4FF6FF739842074664D02E
:10E24400394D01463046FEF7BDFA29783046FDF7D0
:10E254002BFE002863D13046FFF74BFD297830466A
:10E26400FDF722FE0546002859D1304B3046197877
:10E27400FDF71AFE0028C9D04046FEF7B1FAC5E7FB
:10E284003046FFF749FD00254FF6FF739F42ECD15E
:10E29400BCE7264B30461978FDF706FE05460028F4
:10E2A400B4D04046FEF79CFA3D46AFE7447A39784D
:10E2B400304604F00304FDF7F7FD00283FF462AF95
:10E2C40022462946304609E7194B80881978FDF71C
:10E2D400EBFD054600287FF455AFA088FDF7CCFD83
:10E2E4000146A08819B9012341F206026EE70D4BDD
:10E2F4002A461978FDF7F0FD02238DF80C30A38827
:10E30400ADF80E308DF814508DE742460721404693
:10E31400FFF72AF901460028B2D10125B4E73A46AD
:10E32400F4E700BFCF220020CE220020D12200201B
:10E33400D2220020002242608260024A12680260F7
:10E34400704700BF1C31002060B3027802F08203E2
:10E35400802B26D0C2F30213042B22DC02F0F2033A
:10E36400322B1ED04178837899421AD8062918D9BD
:10E37400102B16D8C17811F0040312D10079430789
:10E384000FD4084303070CD412F0010F00F003006C
:10E3940003D1B0FA80F040097047003018BF012063
:10E3A400704700207047FFF7D5B90378182B10B5D4
:10E3B400044602D1FDF76EFD207010BD70B586B025
:10E3C40006460C4615460021142201A800F05EFF03
:10E3D4003046ADF80660FEF777F90D2CADF808006D
:10E3E40019D103238DF804309DB12B7813F0010F5C
:10E3F4000CBF022301238DF80C3000238DF810305C
:10E4040041F20113ADF80E3001A8FFF7CCFF06B0BE
:10E4140070BD0223EFE7862C0BBF062307238DF87C
:10E4240004308DF8043018BF0394EDE72DE9F0476C
:10E43400054688B091469A460F4600293ED1684663
:10E44400FFF778FF052628468DF80C60ADF80E50CE
:10E45400FEF73AF9ADF8100003A80597CDF818D0E7
:10E46400FFF7A1FF354B1B781BB99DF80930002B32
:10E474003FD0DDF800804A4641462846FFF7F4FDC8
:10E48400862804461DD0A0F111035E425E4100229D
:10E494002B4B28461978FDF71FFD2A4B3246197875
:10E4A4002846FDF719FD0D2C06D00DD8082C03D0F5
:10E4B4000B2C01D0002C36D1264635E04FF0000855
:10E4C400D9E700260122E3E7862C16D043F20203A3
:10E4D4009C42F1D0112C26D11B4B3A461978284680
:10E4E400FDF7FAFC194B4A4619782846FDF7F4FC67
:10E4F4000026304608B0BDE8F087134B3A46197839
:10E504002846FDF7E9FC114B4A4619782846FDF7E1
:10E51400E3FC2646BAF1000FEBD0424621462846DA
:10E52400FFF74CFFE5E70326BAF1000FE1D034F022
:10E534000803DED0112CF0D1DBE700BF1931002035
:10E54400D6220020D5220020D4220020D32200206D
:10E55400094B70B519780446FDF7A6FC074B054630
:10E5640019782046FDF7A0FC2A46014601232046DF
:10E57400BDE87040FFF75ABFD3220020D422002008
:10E5840070B588B0044668460D46FFF7D3FE0523F0
:10E5940020468DF80C30ADF80E40FEF795F8ADF836
:10E5A400100003A80595CDF818D0FFF7FCFE1A4B10
:10E5B40000991A682046FFF79DFC8628054627D057
:10E5C400A0F111035E425E410022144B20461978EB
:10E5D400FDF782FC124B324619782046FDF77CFC8D
:10E5E400104B002219782046FDF776FC0E4B0022D2
:10E5F40019782046FDF770FC35F0080306D0112D7C
:10E6040004D0009A29462046FFF7D8FE08B070BD12
:10E6140000260122D9E700BF10310020D8220020B3
:10E62400D7220020D6220020D52200200021FFF787
:10E63400A7BF00000378052B10B5044606D0122BA3
:10E644000AD02046BDE81040FFF7ADBE816840887F
:10E65400BDE81040FFF794BF0C4B1B689BB10C4BFB
:10E664001978037A01F001029A420CDB437AC1F370
:10E6740040019942ACBF002101210123002260889E
:10E68400FFF7D4FEDDE70121F7E700BF1C310020CE
:10E694001431002008B50378082B1DD30B2B0DD99A
:10E6A400132B19D10D4B0E4918780022FDF732FCBB
:10E6B4000C4B0D4918780022FDF72CFC0B4B084934
:10E6C40018780022FDF726FC094B07491878002228
:10E6D400BDE80840FDF71EBC08BD00BFD8220020DD
:10E6E40031E60200D622002055E50200D7220020A0
:10E6F400D522002010B50C480C4CFFF756FE0C48F0
:10E70400FFF753FE0B48FFF750FE0B48FFF74DFE93
:10E714000A48FFF74AFE2046FFF747FE2378182BE6
:10E724000CBF0320002010BDD5220020D8220020D9
:10E73400D6220020D3220020D4220020D722002079
:10E7440008B5FFF7A5FC044B044918780022BDE87E
:10E754000840FDF7DFBB00BFD522002055E50200CD
:10E7640010B5044630B90A4B18600A4B01221A70DE
:10E77400002010BDFFF7E8FD38B1074B22681A608E
:10E7840022791A71024A1360EFE7072010BD00BF17
:10E794001C3100201931002014310020FFF76ABB1E
:10E7A400A8DF7047AEDF7047B0DF704762DF7047A5
:10E7B4003CDF70473DDF70477FB5044638B10388BE
:10E7C400502B5AD005D8102B17D0112B19D004B0C8
:10E7D40070BD512B1DD0532BF9D1334DC288EB881A
:10E7E4009A42F4D16B7E002BF1D000F0DBF90028C3
:10E7F400EDD06B6902209847E9E782882A4B9A801A
:10E80400E5E7294B81889A889142E0D14FF6FF725F
:10E81400F5E7254D8288AB889A42D8D18679022EB5
:10E82400D5D10289EB889A42D1D1837B043B022B58
:10E83400CDD910220021684600F028FD2B7E8DF8EA
:10E844000060BBB19DF8063043F001038DF806303B
:10E854000023ADF804306946A888FFF7A5FF112806
:10E86400F9D0BDF80430002BB1D104F1080000F058
:10E8740039F9ACE740F2FD13EBE70B4DC2886B8925
:10E884009A42A4D1038A022BA1D11230FDF75EFB78
:10E89400064B28761B8806491B04024643F00300F6
:10E8A400F8F7AAF893E700BF203100203C220020AB
:10E8B400D401030030B587B005460C461022002170
:10E8C40002A800F0E3FC0323ADF8023020238DF806
:10E8D40004300F4B8DF80550DA88ADF80820022279
:10E8E4008DF80A200022ADF80C200DF102020492EA
:10E8F40002A901AA98888DF806400592FFF752FFF5
:10E9040020B9BDF80230032B18BF0C2007B030BD6E
:10E914002031002010B54FF0FF310020FFF74AFFEF
:10E92400044658B9B121FFF743FF044630B9044BFC
:10E9340001205B6998470220FAF754FE204610BD77
:10E9440020310020F0B51A4B87B002AA064603F125
:10E954001007154618685968144603C40833BB42A7
:10E964002246F7D116B3134C4FF6FF73A3803368D6
:10E974006361204600236376237600F051F898B94A
:10E9840006A94FF65963012021F8143DA21C8DF805
:10E994000600FFF705FF38B921462846FFF706FFB2
:10E9A40010B9204600F056F807B0F0BD0E20FBE782
:10E9B400C401030020310020AADF70474FF0030C8C
:10E9C40000DF704714490B6810B523B34B68F3B9E3
:10E9D40010BD124C236858B9987601210220FFF724
:10E9E40069FFC0B123685B690320BDE81040184784
:10E9F40000229A7606210220FFF75CFF18B12368F3
:10EA040003205B699847236802205B69EDE70831BE
:10EA140098470828DDD110BD5C3100205831002012
:10EA240018B1034B1860002070470E20704700BFD8
:10EA34005831002008B5FCF76FFB38B90448FFF7DC
:10EA4400BDFF18B9BDE80840FCF794BB08BD00BF82
:10EA54005C31002010B590B004461C22002109A8A6
:10EA640000F014FC1422002104A800F00FFC012281
:10EA7400134662F307138DF80430134662F3071349
:10EA84008DF805304FF0000362F342038DF8063031
:10EA940028238DF8243001AB0E932346608813F8A5
:10EAA400061B8DF80E100321ADF80C10114662F30D
:10EAB40007118DF80810114662F30711924042F0D5
:10EAC40011028DF80A2003AA049202AA05921722C1
:10EAD4008DF80910ADF81C2009A904AAFFF76CFFF2
:10EAE40010B010BD70B50546007B294C01280ED02E
:10EAF400022825D00221287BFFF7DCFE18B1236809
:10EB040003205B699847236802205B690AE0236855
:10EB14009E7E56B10621FFF7CDFE002837D023682C
:10EB24005B690320BDE87040184758760146FFF73B
:10EB3400C1FE60B3236811285E7624D10621DAE78A
:10EB44006A7B531E132B20D8124E05F10E01301D83
:10EB540000F072FB6B7BB36123689B7E9BB90E490B
:10EB6400304651F8083B984718B9236801229A7631
:10EB740070BD0F2807D1094B09491888000440F0DB
:10EB84000100F7F735FF0421B5E70521B3E770BDB0
:10EB9400583100203C3100205C3100203C22002010
:10EBA400F101030008B5044B1B6800205B6998471A
:10EBB400BDE80840FFF7AEBE5831002010DF7047B3
:10EBC40011DF704713B5044609496846FAF770FD2A
:10EBD400019808B902B010BD0368416820469847FF
:10EBE40018B16846FAF76EFDF2E71120F2E700BFAC
:10EBF400C402030013B5044607496846FAF758FDF2
:10EC0400019B0BB902B010BD20461A6859689047A1
:10EC14006846FAF757FDF3E7DC0203000C4A92F862
:10EC240016335B09012B01D9042B08D142F20200EF
:10EC3400F8F75EBB1A6842F480021A607047054B0D
:10EC440099680029F6D14FF480031360704700BF20
:10EC540000E100E088290020064B9A6822B11A6876
:10EC640022F480021A607047034B4FF48002C3F809
:10EC7400802070478829002000E100E0F7B51B4F91
:10EC84003C788CBB1A4E012520463570FFF79AFF5D
:10EC9400112826D02046FFF7ADFF164B18680190C7
:10ECA40002A800F8054DF8F709FE134901A8FFF77B
:10ECB40085FF0446B0FA80F0400938709DF80300DF
:10ECC400F8F720FE6CB90D4B34701C700C4BE0222D
:10ECD40083F8162383F81523FFF7A0FF2846FFF7D0
:10ECE40089FF204603B0F0BD0824FAE7693100200B
:10ECF40068310020BF020300117302006A31002052
:10ED040000E100E0F7B5154F3B7813B3144E012032
:10ED14003070FFF757FF11284FF000051BD0022079
:10ED2400FFF768FF02A800F8015DF8F7C7FDFFF7D9
:10ED340047FF04469DF807003D70F8F7E3FD2CB942
:10ED44003470FFF789FF0320FFF754FF204603B018
:10ED5400F0BD0824FAE72C46F8E700BF693100202B
:10ED640068310020054B1B7833B1054B1B780BB180
:10ED7400FFF7C8BFFFF782BF082070476831002043
:10ED840069310020014B1878704700BF69310020B9
:10ED940007B508496846FAF78BFC019B13B903B021
:10EDA4005DF804FB58681A6890476846FAF78AFCCD
:10EDB400F3E700BFD0020300FFF7EABF60DF70474C
:10EDC40069DF704761DF704730B5114B1B7891B034
:10EDD400E3B1104D34240DF1020103A8ADF8024053
:10EDE400FFF7F0FF70B9294601A8FAF761FC029B0E
:10EDF400002BF0D003A81A685968904701A8FAF7C5
:10EE040061FCF4E7052801D0F8F772FA11B030BDBF
:10EE14006B3100201C05030030B5054685B00C4657
:10EE2400002900F093804B4B0B600C22002101A8B9
:10EE340000F02CFA01238DF8063022688DF8045076
:10EE4400062301A92020ADF80830FFF7B9FF58B117
:10EE5400414B1D88FAF760FC2D0445F0010502467C
:10EE64003E492846F7F7C8FD0C22002101A800F00E
:10EE74000DFA01238DF805302268002301A94020F2
:10EE84008DF806308DF80730FFF79AFF58B1324BF2
:10EE94001D88FAF741FC2D0445F00105024630496E
:10EEA4002846F7F7A9FD0C22002101A800F0EEF98D
:10EEB400012022688DF8040001A9FFF781FF58B1F1
:10EEC400254B1D88FAF728FC2D0445F00105024660
:10EED40024492846F7F790FD0C22002101A800F0F0
:10EEE400D5F94FF4B0632268019301A9A120FFF77B
:10EEF40067FF58B1184B1D88FAF70EFC2D0445F036
:10EF04000105024618492846F7F776FD0C22002130
:10EF140001A800F0BBF99DF80430226843F0010316
:10EF240001A9A0208DF80430FFF74AFF80B10A4BF5
:10EF34001C88FAF7F1FB240444F0010402460B494F
:10EF44002046F7F759FD002005B030BD0E20FBE741
:10EF5400FAE700BF282200205C220020F002030010
:10EF64003603030082030300CE0303001F040300DF
:10EF7400F8B504460768FFF721FF23689F4205465A
:10EF840020D21A4E1A493088000440F00200F7F7E4
:10EF94002FFD30882368174900043A4640F00200E8
:10EFA400F7F734FD4FF080533088D3F80C312268E2
:10EFB40011499B0203F1005300049A1A40F0020025
:10EFC400F7F71AFD25B90D4B01221A702846F8BD32
:10EFD400064B28461C88FAF79FFB240444F00104DE
:10EFE400024607492046F7F707FDEFE75C220020B9
:10EFF40072040300A1040300D20403006B31002057
:10F00400FC0403004BDF70471FB50D4C01A8FFF74C
:10F01400F9FF70B9214602A8FAF74AFB039B002BBB
:10F02400F4D001981A685968904702A8FAF74AFB85
:10F03400F4E7052801D0F8F75BF904B010BD00BF70
:10F0440034050300B2F120030AD5C2F1200301FA0A
:10F0540002F120FA03F341EA030100FA02F07047D7
:10F0640000FA03F14FF00000704700BF53EA020CAE
:10F0740061D02DE9F04BB3FA83F51E0007BFB2FA55
:10F0840082F502FA05F403FA05F41646C5F12005E3
:10F094001EBF22FA05F73C43203556EA044C4FEADA
:10F0A400144418BF0134A3464FF00009C8469042E7
:10F0B40071EB030C39D3094207BFB0FA80F700FAA9
:10F0C40007F6B1FA81F701FA07F6C7F120071EBF68
:10F0D40020FA07FC46EA0C062037B6FBFBFC7F1B34
:10F0E400103F07F01F04C4F120060CFA04F42CFAB4
:10F0F40006F644BF34460026202FA4BF264600242B
:10F1040054EA060C08BF012418EB040849EB06096D
:10F11400A4FB027CC01B06FB02CC04FB03CC71EBFA
:10F124000C01904271EB030CC5D20B4602464946D2
:10F134004046BDE8F08BB2FBF3F200BF7F2805D850
:10F14400034B185C034B5B5C18407047002070470E
:10F154004C050300CC050300A0F16103192B98BFF3
:10F1640020387047A0F14103192B98BF2030704715
:10F174007F2805D8034B185C034B5B5C1840704731
:10F18400002070474C050300CC050300A0F1610387
:10F19400192B98BF20387047A0F14103192B98BF51
:10F1A400203070477F299ABF017001206FF02E0034
:10F1B40070475AB10A787F2A0AD800B10260002148
:10F1C40019605960501A18BF012070470020704719
:10F1D4006FF02E007047000008B5034B5B689B6816
:10F1E4001B68984708BD00BFDC22002008B5092130
:10F1F400FFF7F2FF08BDE2B170B4561E15D00278D5
:10F204000B789A4213D1431C0131064418460A462E
:10F21400B34205D00133013105781478A542F5D005
:10F2240000781378C01A70BC70470A46F8E70A469B
:10F23400F6E7002070470000844640EA010313F01B
:10F24400030F18D18446202A0BD32DE9F007B1E827
:10F25400F807A0E8F807A2F12002202AF7D2BDE8B7
:10F26400F007042A07D351F8043B40F8043BA2F109
:10F274000402042AF7D2002A05D011F8013B00F851
:10F28400013B013AF9D16046704700BF8446002A29
:10F294002DD010F0030F04D000F8011B013A26D042
:10F2A400F7E7C9B241EA012141EA0141202A12D318
:10F2B400A2F120022DE9F0030B460C460D460E4642
:10F2C4000F4688468946A0E8FA03203AFBD2BDE8F7
:10F2D400F00320320BD0042A05D340F8041B043A6F
:10F2E40005D0042AF9D200F8011B013AFBD160468B
:10F2F400704700BF00F1010110F0030F11D010F8A6
:10F30400012B002A23D010F0030F0AD010F8012B90
:10F31400002A1CD010F0030F03D010F8012B002A90
:10F3240015D02DE970004FF001324FF0803350F8C2
:10F33400044BA4EB020525EA04051D4000D1F6E7C1
:10F34400A0F1040070BC10F8012B002AFBD1A0EB43
:04F3540001007047FD
:10F3580079BD0200000000003DAB02000000000083
:10F36800D5B90200E82C002045CA0200A02D0020D3
:10F37800C5BB02000000000035D7020000000000F5
:10F388004BCC0200B42D0020BDE702002031002044
:08F3980055AC0200000000006A
:10F3A0005992020000000000759702000000000062
:10F3B0003BBA0200E82C0020C9E90200000000006E
:04F3C000B9AC0200E2
:10F3C4008CFD02000000000092FD0200000000001D
:10F3D40099FD0200000000009DFD020000000000F5
:10F3E400A2FD0200000000001DF50200000003035E
:10F3F40068F80200000000034CF60200000000035D
:10F4040021F502000000000386FD02000000000058
:10F41400A7010300000003032CF80200000003030B
:10F42400E8020300000003032805030000000303AF
:10F43400400503000000030388F8020000000000F8
:10F4440034230020FC230020042400203C2300203B
:08F4540048220020180000000E
:10F45C000193020000000000F19702000000000080
:08F46C0045AD020000000000A4
:10F47400CDED0200000000000DF0020000000000CD
:08F484003991020000000000B4
:10F48C000000000000000000000000000000000070
:10F49C000000000000000000000000000000000060
:10F4AC000000000000000000000000000000000050
:10F4BC000000000000000000000000000000000040
:10F4CC000000000000000000C581020000000000E8
:04F4DC00000000002C
:10F4E000FFFFFFFFFFFFFFFFFFFFFFFFFFFFFFFF2C
:10F4F00000000000000000000000D601070100002D
:10F500002164020085640200D16302004261636BE2
:10F51000656E647320666C757368656400617070F5
:10F520000062616C6C6F632E6C6F675F6D656D70F0
:10F530006F6F6C0087F50200B0F5020067F50200FE
:10F54000B8F50200C0F50200C8F50200D0F50200CF
:10F55000D8F50200E0F502002025303278002020A6
:10F5600020007C002563001B5B313B33316D00259F
:10F57000734C6F67732064726F7070656420282508
:10F58000642925730D0A001B5B306D002573003C58
:10F5900025733E2025733A20000000000000000083
:10F5A0000EF60200E8F50200F0F50200F5F50200A3
:10F5B0001B5B313B33306D001B5B313B33326D00E5
:10F5C0001B5B313B33336D001B5B313B33346D00D0
:10F5D0001B5B313B33356D001B5B313B33366D00BC
:10F5E0001B5B313B33376D007761726E696E67006C
:10F5F000696E666F006465627567000D0E0F10110D
:10F600001213140030280020466174616C2065726A
:10F61000726F720053797374656D207265736574CF
:10F6200000000000000000000000000000000000DA
:10F630000338FDD8704700000000FFFFDEC0ADDEDC
:10F64000FE011EF1DEC0ADDEFF011EF161746669D0
:10F65000666F2E6D5F7175657565003031323334BC
:10F6600035363738394142434445466E72665F66E7
:10F6700073746F726167655F696E6974006E72663C
:10F680005F6673746F726167655F77726974650036
:10F690006E72665F6673746F726167655F657261D3
:10F6A000736500616464725F69735F706167655F51
:10F6B000616C69676E656428705F66732C20706189
:10F6C00067655F616464722900616464725F697375
:10F6D0005F77697468696E5F626F756E64732870B6
:10F6E0005F66732C20706167655F616464722C20B3
:10F6F000286C656E202A20705F66732D3E705F66F1
:10F700006C6173685F696E666F2D3E6572617365CB
:10F710005F756E6974292900705F66730025732018
:10F72000636865636B206661696C656420696E203F
:10F730002573282920776974682076616C756520A7
:10F74000307825782E00705F64657374006C656E88
:10F7500000616464725F69735F616C69676E6564A0
:10F760003332287372632900616464725F69735F66
:10F7700077697468696E5F626F756E647328705F15
:10F7800066732C207372632C206C656E2900705F89
:10F7900066732D3E705F61706900705F7372630005
:10F7A00021286C656E202520705F66732D3E705F8A
:10F7B000666C6173685F696E666F2D3E70726F670D
:10F7C00072616D5F756E69742900616464725F694E
:10F7D000735F616C69676E65643332286465737446
:10F7E0002900616464725F69735F616C69676E654B
:10F7F000643332282875696E7433325F7429705F00
:10F800007372632900616464725F69735F776974FE
:10F8100068696E5F626F756E647328705F66732CC3
:10F8200020646573742C206C656E29006E72665FAF
:10F830006673746F7261676500000000001000005D
:10F8400004000000010000007D9102005D910200B3
:10F850004D9102008D93020041930200219102001C
:10F86000259102002991020061746669666F2E6D10
:10F870005F6669666F000000582B0020C0F302002D
:10F88000C4F30200040000007077725F6D676D744E
:10F8900000556E6B6E6F776E206572726F722063AB
:10F8A0006F64650000000000CCF902000100000058
:10F8B000D8F9020002000000F6F90200030000007F
:10F8C00017FA0200040000002AFA020005000000F6
:10F8D0003BFA0200060000004FFA02000700000099
:10F8E00067FA0200080000007FFA02000900000029
:10F8F00097FA02000A000000B0FA02000B000000B4
:10F90000C8FA02000C000000DFFA02000D0000003F
:10F91000F3FA02000E00000005FB02000F000000D9
:10F9200014FB02001000000028FB02001100000080
:10F930003FFB0200120000004EFB0200130000001B
:10F9400063FB02008000000077FB020081000000E2
:10F9500098FB020082000000B4FB0200830000005C
:10F96000D0FB020084000000EEFB020085000000D6
:10F970000FFC02008600000034FC02009000000032
:10F980004BFC02009100000069FC020092000000A4
:10F9900087FC0200008200009CFC02000182000043
:10F9A000BAFC020002820000D6FC020000840000C3
:10F9B000F2FC02000184000016FD02000284000037
:10F9C00040FD02000384000065FD02004E52465FC8
:10F9D00053554343455353004E52465F4552524F91
:10F9E000525F5356435F48414E444C45525F4D4928
:10F9F0005353494E47004E52465F4552524F525F55
:10FA0000534F46544445564943455F4E4F545F4516
:10FA10004E41424C4544004E52465F4552524F5271
:10FA20005F494E5445524E414C004E52465F45523E
:10FA3000524F525F4E4F5F4D454D004E52465F450F
:10FA400052524F525F4E4F545F464F554E44004EF8
:10FA500052465F4552524F525F4E4F545F5355507E
:10FA6000504F52544544004E52465F4552524F52F9
:10FA70005F494E56414C49445F504152414D004E02
:10FA800052465F4552524F525F494E56414C49448F
:10FA90005F5354415445004E52465F4552524F52B7
:10FAA0005F494E56414C49445F4C454E47544800CF
:10FAB0004E52465F4552524F525F494E56414C4955
:10FAC000445F464C414753004E52465F4552524FA9
:10FAD000525F494E56414C49445F44415441004EA7
:10FAE00052465F4552524F525F444154415F534921
:10FAF0005A45004E52465F4552524F525F54494D4F
:10FB0000454F5554004E52465F4552524F525F4E3C
:10FB1000554C4C004E52465F4552524F525F464F35
:10FB20005242494444454E004E52465F4552524F60
:10FB3000525F494E56414C49445F41444452004E45
:10FB400052465F4552524F525F42555359004E52F2
:10FB5000465F4552524F525F434F4E4E5F434F55A3
:10FB60004E54004E52465F4552524F525F524553DB
:10FB70004F5552434553004E52465F4552524F52E5
:10FB80005F4D4F44554C455F4E4F545F494E49546D
:10FB900049414C495A4544004E52465F4552524FE6
:10FBA000525F4D555445585F494E49545F4641494F
:10FBB0004C4544004E52465F4552524F525F4D55A0
:10FBC0005445585F4C4F434B5F4641494C454400B8
:10FBD0004E52465F4552524F525F4D555445585F05
:10FBE000554E4C4F434B5F4641494C4544004E52A5
:10FBF000465F4552524F525F4D555445585F434FF3
:10FC00004E445F494E49545F4641494C4544004E7D
:10FC100052465F4552524F525F4D4F44554C455FDF
:10FC2000414C52454144595F494E495449414C4920
:10FC30005A4544004E52465F4552524F525F53540C
:10FC40004F524147455F46554C4C004E52465F452A
:10FC500052524F525F4150495F4E4F545F494D5091
:10FC60004C454D454E544544004E52465F45525218
:10FC70004F525F464541545552455F4E4F545F4584
:10FC80004E41424C4544004E52465F4552524F52FF
:10FC90005F494F5F50454E44494E47004E52465FC4
:10FCA0004552524F525F4452565F5457495F455236
:10FCB000525F4F56455252554E004E52465F455286
:10FCC000524F525F4452565F5457495F4552525FFC
:10FCD000414E41434B004E52465F4552524F525F98
:10FCE0004452565F5457495F4552525F444E414318
:10FCF0004B004E52465F4552524F525F424C455F59
:10FD0000495053505F52585F504B545F5452554EB8
:10FD10004341544544004E52465F4552524F525F54
:10FD2000424C455F495053505F4348414E4E454C0D
:10FD30005F414C52454144595F4558495354530023
:10FD40004E52465F4552524F525F424C455F4950BA
:10FD500053505F4C494E4B5F444953434F4E4E45C1
:10FD600043544544004E52465F4552524F525F4203
:10FD70004C455F495053505F504545525F52454A8C
:10FD8000454354454400636C6F636B00434C4F43E1
:10FD90004B004750494F5445005052530055415273
:10FDA00054005541525445000D00030009A90200BA
:10FDB0000E00030009A902000F00030009A90200B8
:10FDC0001000030009A90200602C0020802C0020F4
:10FDD000A02C0020506F776572206D616E616765A1
:10FDE0006D656E742077616E747320746F20726518
:10FDF00073657420746F20444655206D6F64652EC2
:10FE000000506F776572206D616E6167656D656E1C
:10FE10007420616C6C6F77656420746F20726573F9
:10FE2000657420746F20444655206D6F64652E0004
:10FE300044657669636520697320707265706172CC
:10FE4000696E6720746F20656E74657220626F6FD3
:10FE5000746C6F61646572206D6F64652E0044651B
:10FE6000766963652077696C6C20656E74657220B5
:10FE7000626F6F746C6F61646572206D6F64652E64
:10FE8000005265717565737420746F20656E7465BA
:10FE90007220626F6F746C6F61646572206D6F6445
:10FEA00065206661696C6564206173796E63687250
:10FEB0006F6E656F75736C792E0052657175657321
:10FEC0007420746F2073656E642061207265737096
:10FED0006F6E736520746F20636C69656E74206645
:10FEE00061696C65642E00556E6B6E6F776E206570
:10FEF00076656E742066726F6D20626C655F6466F5
:10FF0000755F627574746F6E6C6573732E00444612
:10FF1000553241313500427574746F6E6C65737380
:10FF200020444655204170706C69636174696F6E3E
:10FF300020737461727465642E004572617365206C
:10FF4000626F6E64732100436F6E6E6563746564E7
:10FF500020746F20612070726576696F75736C799B
:10FF600020626F6E646564206465766963652E0047
:10FF7000436F6E6E656374696F6E2073656375722F
:10FF800065643A20726F6C653A2025642C20636F9B
:10FF90006E6E5F68616E646C653A20307825782CEF
:10FFA0002070726F6365647572653A2025642E0057
:10FFB00053657474696E6720766563746F7220741C
:10FFC00061626C6520746F20626F6F746C6F616426
:10FFD00065723A20307825303878004661696C6562
:10FFE000642072756E6E696E672073645F736F66EE
:10FFF000746465766963655F766563746F725F7458
:020000023000CC
:1000000061626C655F626173655F736574004E6FFA
:1000100020626F6F746C6F6164657220776173200A
:10002000666F756E640053657474696E67207665DB
:1000300063746F72207461626C6520746F206D61EF
:10004000696E206170703A20307825303878000071
:1000500001000100600003000100010064000300D2
:10006000010000000000000073645F626C655F6760
:1000700061705F646174615F6C656E6774685F7501
:1000800070646174652829202872657175657374C0
:1000900029206F6E20636F6E6E656374696F6E20CA
:1000A000307825782072657475726E6564202573CA
:1000B0002E005468652072657175657374656420DF
:1000C00054582F5258207061636B6574206C656EB4
:1000D00067746820697320746F6F206C6F6E67207F
:1000E00062792025752F2575206F63746574732ED2
:1000F000005468652072657175657374656420636A
:100100006F6D62696E6174696F6E206F66205458FE
:1001100020616E64205258207061636B6574206C9E
:10012000656E6774687320697320746F6F206C6FDD
:100130006E67206279202575206D6963726F736523
:10014000636F6E64732E0073645F626C655F6761DA
:100150007474635F65786368616E67655F6D7475FD
:100160005F72657175657374282920726574757284
:100170006E65642025732E0073645F626C655F6733
:10018000617474735F65786368616E67655F6D74D1
:10019000755F7265706C7928292072657475726E4E
:1001A00065642025732E006E72665F626C655F6702
:1001B0006174740089D9020099E6020059C30200F3
:1001C00079C1020050EADA308883B89F604F15F396
:1001D0000000C98E526563656976656420696E6446
:1001E00069636174696F6E2073746174652025643E
:1001F0000054686520626F6F746C6F616465722073
:100200006861732077726974652070726F746563BA
:10021000746564206974732073657474696E6773A0
:1002200020706167652E20546869732070726F6852
:1002300069626974732073657474696E6720746889
:1002400065206164766572746973696E67206E619A
:100250006D652E2054686520626F6F746C6F6164E9
:100260006572206D75737420626520636F6D7069AF
:100270006C65642077697468204E52465F424C5F1B
:1002800053455454494E47535F504147455F505280
:100290004F544543543D3020746F20616C6C6F7730
:1002A0002073657474696E67207468652061647674
:1002B0006572746973696E67206E616D652E0001E9
:1002C0000000070084F402008CF402000800000023
:1002D00074F4020084F40200080000005CF40200E0
:1002E00074F40200080000006E72665F73646800B8
:1002F00073645F626C655F6366675F73657428290A
:100300002072657475726E65642025732077686548
:100310006E20617474656D7074696E6720746F20EF
:1003200073657420424C455F434F4E4E5F434647D2
:100330005F4741502E0073645F626C655F63666760
:100340005F73657428292072657475726E65642008
:100350002573207768656E20617474656D707469AB
:100360006E6720746F2073657420424C455F47416F
:10037000505F4346475F524F4C455F434F554E5485
:100380002E0073645F626C655F6366675F7365749C
:1003900028292072657475726E6564202573207734
:1003A00068656E20617474656D7074696E67207421
:1003B0006F2073657420424C455F434F4D4D4F4E47
:1003C0005F4346475F56535F555549442E0073645B
:1003D0005F626C655F6366675F736574282920726E
:1003E000657475726E6564202573207768656E206C
:1003F000617474656D7074696E6720746F207365C5
:100400007420424C455F47415454535F4346475F15
:10041000415454525F5441425F53495A452E007330
:10042000645F626C655F6366675F7365742829202B
:1004300072657475726E6564202573207768656EC9
:1004400020617474656D7074696E6720746F2073B9
:10045000657420424C455F47415454535F434647BF
:100460005F534552564943455F4348414E474544D3
:100470002E00496E73756666696369656E742052F5
:10048000414D20616C6C6F636174656420666F72AE
:100490002074686520536F66744465766963652EC1
:1004A000004368616E6765207468652052414D2085
:1004B0007374617274206C6F636174696F6E20660F
:1004C000726F6D203078257820746F203078257811
:1004D0002E004D6178696D756D2052414D20736914
:1004E0007A6520666F72206170706C6963617469EF
:1004F0006F6E20697320307825782E0073645F62F8
:100500006C655F656E61626C652829207265747523
:10051000726E65642025732E0000000058F30200FF
:10052000A0F30200080000006E72665F7364685FEB
:10053000626C6500A0F30200C0F302000800000036
:100540006E72665F7364685F736F630020202020A3
:100550002020202020682828282820202020202033
:100560002020202020202020202020204810101093
:1005700010101010101010101010101084848484AB
:100580008484848484841010101010101081818160
:1005900081818101010101010101010101010101CB
:1005A000010101010101011010101010108282825E
:1005B000828282020202020202020202020202029B
:1005C0000202020202020210101010200007032093
:1005D0000417020108571040800000008007030044
:1005E000440603005807030053756E004D6F6E00FC
:1005F000547565005765640054687500467269005B
:1006000053617400000000004A616E00466562009C
:100610004D617200417072004D6179004A756E0043
:100620004A756C0041756700536570004F63740034
:100630004E6F76004465630000000000414D00509D
:100640004D0000007C0703007807030078070300D3
:100650007807030078070300780703007807030092
:10066000780703007807030078070300FFFFFFFF08
:10067000FFFFFFFFFFFFFFFFFFFF0000B8060300C3
:10068000E8050300F4060300080603003C06030027
:100690009C0603004C070300A8060300256D2F25C8
:1006A000642F257900000000256120256220256542
:1006B000202554202559000053756E646179004D42
:1006C0006F6E646179005475657364617900576574
:1006D000646E6573646179005468757273646179DE
:1006E000004672696461790053617475726461795E
:1006F000000000004A616E756172790046656272A1
:1007000075617279004D6172636800417072696C45
:10071000004D6179004A756E65004A756C7900413B
:1007200075677573740053657074656D62657200EA
:100730004F63746F626572004E6F76656D626572AD
:1007400000446563656D62657200000025483A25C6
:100750004D3A25530000000041F102005DF1020016
:1007600069F1020075F1020091F102009DF10200B1
:10077000A9F10200B7F10200000000002E00000005
:0C07800043000000504F53495800000097
:10078C00000000000020004000000000002000409D
:10079C000000000000F50200000000000000000056
:1007AC000090D003000000000000000000000000DA
:1007BC0000000000442200200000000000000000A7
:1007CC000000000000000000402200200A18010078
:1007DC00FFFF181818181818181818181800000007
:1007EC00DC050300DC050300DC050300DC0503006D
:0407FC00DC05030015
:040000032000623D3A
:00000001FF
