:020000040002F8
:10300000F8520020E9330200F1330200F3330200EA
:10301000F5330200F7330200F9330200000000002C
:10302000000000000000000000000000FB33020070
:10303000FD33020000000000FF33020001340200F3
:103040007D37020003340200FD3A0200033402001F
:103050000334020003340200A535020003340200E9
:10306000033402000334020003340200033402007C
:10307000033402000334020003340200033402006C
:1030800003340200D5370200033402000334020087
:10309000F937020003340200FD3702000334020056
:1030A000033402000334020003340200033402003C
:1030B000033402000334020000000000000000009E
:1030C000033402000334020003340200033402001C
:1030D0000334020003340200033402000000000045
:1030E00000000000000000000000000000000000E0
:1030F00000000000000000000000000000000000D0
:1031000000000000000000000000000000000000BF
:1031100000000000000000000000000000000000AF
:10312000000000000000000000000000000000009F
:10313000000000000000000000000000000000008F
:10314000000000000000000000000000000000007F
:10315000000000000000000000000000000000006F
:10316000000000000000000000000000000000005F
:10317000000000000000000000000000000000004F
:10318000000000000000000000000000000000003F
:10319000000000000000000000000000000000002F
:1031A000000000000000000000000000000000001F
:1031B000000000000000000000000000000000000F
:1031C00000000000000000000000000000000000FF
:1031D00000000000000000000000000000000000EF
:1031E00000000000000000000000000000000000DF
:1031F00000000000000000000000000000000000CF
:10320000DFF80CD000F090F900480047ED720200A2
:10321000F852002030B4044654E8000F0D4644E84C
:103220000053002BF8D1156030BC704730B4044611
:1032300054E8000F40EA010544E80053002BF7D1A1
:10324000156030BC704730B4044654E8000F00EA03
:10325000010544E80053002BF7D1156030BC7047DE
:1032600030B4044654E8000F80EA010544E80053F6
:10327000002BF7D1156030BC704730B4044654E8D9
:10328000000F00EB010544E80053002BF7D1156057
:1032900030BC704730B4044654E8000FA0EB010581
:1032A00044E80053002BF7D1156030BC7047000094
:1032B00030B4044654E8000F0D4644E80053002B98
:1032C000F8D1156030BC704730B4044654E8000FA4
:1032D00040EA010544E80053002BF7D1156030BCEB
:1032E000704730B4044654E8000F00EA010544E892
:1032F0000053002BF7D1156030BC704730B4044642
:1033000054E8000F80EA010544E80053002BF7D190
:10331000156030BC704730B4044654E8000F00EB31
:10332000010544E80053002BF7D1156030BC70470D
:1033300030B4044654E8000FA0EB010544E8005304
:10334000002BF7D1156030BC7047000030B4044644
:1033500054E8000F0D4644E80053002BF8D11560E7
:1033600030BC704730B4044654E8000F40EA010511
:1033700044E80053002BF7D1156030BC704730B4DF
:10338000044654E8000F00EA010544E80053002B0E
:10339000F7D1156030BC704730B4044654E8000FD4
:1033A00080EA010544E80053002BF7D1156030BCDA
:1033B000704730B4044654E8000F00EB010544E8C0
:1033C0000053002BF7D1156030BC704730B4044671
:1033D00054E8000FA0EB010544E80053002BF7D19F
:1033E000156030BC7047000006488047064800471B
:1033F000FEE7FEE7FEE7FEE7FEE7FEE7FEE7FEE7A5
:10340000FEE7FEE701380200013202002DE9F05F1D
:103410000546002092469B46884606468146402443
:103420001BE0284641464746224600F06CF85346CA
:103430005A46C01A914110D311461846224600F050
:1034400053F82D1A67EB01084F4622460120002150
:1034500000F04AF817EB00094E41201EA4F10104C8
:10346000DFDC484631462A464346BDE8F09F00006F
:103470000048704758C4020040EA01039B0703D08C
:1034800009E008C9121F08C0042AFAD203E011F8A3
:10349000013B00F8013B521EF9D27047D2B201E065
:1034A00000F8012B491EFBD270470022F6E710B549
:1034B00013460A4604461946FFF7F0FF204610BDA2
:1034C000421C10F8011B0029FBD1801A704730B54F
:1034D00004460020034600E05B1C934203D2E05CFC
:1034E000CD5C401BF8D030BD202A04DB203A00FA26
:1034F00002F1002070479140C2F1200320FA03F34B
:10350000194390407047202A04DB203A21FA02F048
:103510000021704721FA02F3D040C2F1200291400D
:103520000843194670470000064C074D06E0E06866
:1035300040F0010394E8070098471034AC42F6D3FA
:10354000FFF762FEE0CA020000CB020070B58C18E3
:1035500010F8015B15F0070301D110F8013B2A11A7
:1035600006D110F8012B03E010F8016B01F8016B94
:103570005B1EF9D12B0705D40023521E0DD401F890
:10358000013BFAE710F8013BCB1A921C03E013F859
:10359000015B01F8015B521EF9D5A142D8D300208E
:1035A00070BD00002DE9F04700268CB0DFF8609177
:1035B000B0464FF48075012437460696284604F03D
:1035C000B9FF38B1D9F80403204203D0284604F0EB
:1035D000A7FF26432D1D64007F1CADB2082FEDD33D
:1035E0004FF4BE74204604F0A5FF48B1204604F015
:1035F00097FF46F0004606AA0121002004F07CFF58
:10360000444D16F0FF0F15D00127002437420DD08E
:1036100009EB8401D1F81005D1F81015C0F304208E
:1036200055F82420C1F3014102B190477F00641C8A
:10363000082CEBD3002E67DA4FF0FF30CDE908807D
:1036400000263446281910F8507F90F9000027F022
:10365000C008401C44D009A9404604F0B0F858B353
:103660004FEA9719404602F043F855F820701FB111
:10367000B9F1030F03D00FE0B9F1030F30D108A85F
:103680004FEAD80208F00703815C4FF0010C0CFAF6
:1036900003FC41EA0C0181544FF0A04101EB88008A
:1036A000D0F8000706A9C0F3014A404604F087F8A5
:1036B00018B1BAF1020F03D012E0BAF1030F0FD123
:1036C000B9F1030F08D1BAF1020F1BD00221404615
:1036D00004F0F6FE761CF6B217B149464046B847EC
:1036E000641C042CAED3002E0ED06A4601210020AB
:1036F00004F002FF06990098884205D006900898C9
:1037000009909DE70321E2E70CB0BDE8F0870000D7
:1037100000600040C02A002000F01F0201219140FB
:103720004009800000F1E020C0F88012704700F0EE
:103730001F02012191404009800000F1E020C0F803
:103740000011704700F01F020121914040098000E4
:1037500000F1E020C0F8001270474907090E002868
:1037600006DA00F00F0000F1E02080F8141D704729
:1037700000F1E02080F80014704700002DE9F041CE
:103780004FF48077384604F0D7F80124104EA5078F
:1037900048B1384604F0D7F80120C5F80803747022
:1037A000002001F0C9FF4FF48277384604F0C4F8D6
:1037B00000280BD0384604F0C6F80220C5F80803EC
:1037C000B470BDE8F041012001F0B6BFBDE8F08162
:1037D000AC2A002007480021C0F84011C0F844116D
:1037E000C0F84811C0F84C11C0F80011C0F804111D
:1037F00008F006B80010014007F050BF05F0DCBB30
:10380000F0B5AE480023021D01780125101D4FF0D0
:10381000805406290BD11678360708D10678C6F3EE
:103820000316032E06D0042E04D0052E02D006293E
:1038300007D00EE0B4F82463A14FC6F304263E601F
:1038400002E01678360704D10678C6F30316032E75
:1038500002D0062904D00FE09B4F9A4E7E670EE0FF
:103860001678360708D10678C6F30316032E06D05D
:10387000042E04D0052E02D0062907D00EE0D4F87D
:103880004462924FC6F342363E6002E01678360735
:1038900004D10678C6F30316032E02D0062906D0FB
:1038A00011E08B4E376827F0807737600EE016788E
:1038B000360708D10678C6F30316032E06D0042E69
:1038C00004D0052E02D006290AD011E04FF0804620
:1038D000C6F80C31C6F810317C4E361F336002E05A
:1038E0001678360704D10678C6F30316032E02D0E5
:1038F000062905D00CE0754F032664373E600AE0C8
:103900001678360704D10678C6F30316032E02D0C4
:1039100006290DD014E06F4F05263E606D4E7836B7
:1039200035606C4E083633603F263F1D3E6002E036
:103930001678360704D10678C6F30316052E02D092
:10394000062957D062E0644E3668644F3E60624E8E
:10395000361D36683F1D3E605F4E083636683F1D97
:103960003E605D4E0C3636683F1D3E605A4E103646
:1039700036683F1D3E60584E143636683F1D3E6027
:10398000554E18363668554F20373E60524E1C361D
:1039900036683F1D3E60504E203636683F1D3E6003
:1039A0004D4E243636683F1D3E604B4E28363668F5
:1039B0003F1D3E60484E2C3636683F1D3E60464EE9
:1039C00030363668454F40373E60434E34363668B1
:1039D0003F1D3E60404E383636683F1D3E603E4ECD
:1039E0003C3636683F1D3E603B4E403636683F1DD4
:1039F0003E6002E01678360708D10678C6F3031653
:103A0000032E06D0042E04D0052E02D0062907D09E
:103A100019E0D4F85812324A01F04F01116002E067
:103A2000117809070FD10078C0F30310032803D0E1
:103A3000042801D0052806D12A480168C90702D008
:103A40006FF00101016022487438016841F470018F
:103A50000160BFF34F8FBFF36F8F4FF01021D1F88C
:103A60000002002803DBD1F80402002822DA1E4AF3
:103A700015601E480468002CFCD01524C1F80042D3
:103A80000568002DFCD0C1F8044201680029FCD073
:103A9000136001680029FCD0BFF34F8F0C48F03849
:103AA0000168134A01F4E06111430160BFF34F8FD5
:103AB00000BFFDE710490F480860F0BDE00F00F0BF
:103AC000403501400DF0ADBA00C007403C05004054
:103AD000FCED00E0105600400404001020C500403A
:103AE000E40E00400004004004E5014000E4014011
:103AF0000400FA050090D003BC2200200448017F96
:103B000004480029024901D007F08FBF07F0FEBE2C
:103B1000182B00200020004002E008C8121F08C136
:103B2000002AFAD170477047002001E001C1121F3E
:103B3000002AFBD1704700000121202803DA8140D0
:103B40000548014003E0402802DA2038814009B1ED
:103B50000120704700207047FC06FFBD10B560B122
:103B600059B102780B785208B2EB530F05D10622F7
:103B7000401C491CFFF7ABFC08B1002010BD012020
:103B800010BD800701D00020704701207047C36836
:103B90008B4206D811440069491E814201D8012098
:103BA00070470020704710B501220221002001F06B
:103BB000C7FB08B1072810D107220221012001F01C
:103BC000BFFB08B1072808D100210A22084601F0EE
:103BD000B7FB08B1072800D1002010BD10B550B1C7
:103BE0000A480321008801EB004009A104F05CFEB3
:103BF00006F030FC03E00321094800F08FFC0028A8
:103C000003D0BDE8104000F0BFB810BD1C23002059
:103C1000457261736520626F6E647321000000005D
:103C20006023002070B58CB015460E4600236C460C
:103C3000C3F10F01415CE1545B1C102BF8D30D2143
:103C400004F11000FFF731FC0020C0F10F02315CDD
:103C50002244401C11740328F7D3684643DF002038
:103C6000C0F10F01214491F820102954401C032871
:103C7000F6D30CB070BD022001F05ABA70B5002422
:103C8000064D06E06868012110F8340003F0C0FF1B
:103C9000641C28788442F5D3002070BD08220020DF
:103CA000F8B515460C460646052A01D20720F8BD90
:103CB00004F094F818B904F063F80028F7D110491B
:103CC00000204E600C70C1E902500E4D08610DE0FD
:103CD00006EBC4006968009181788DF801100078C6
:103CE000094A694603F0E6FF0028E0D1641EE4B209
:103CF000EED2BDE8F840054A0021024800F096B82F
:103D00000822002078C10200E1640200615902002B
:103D1000134C0121208801EB004012A104F0C4FDE6
:103D200004F08CFE04F0EAFC0028FBD10F48006888
:103D3000C00700D000BE2088032101EB00400CA189
:103D400004F0B2FDBFF34F8F0848E43801680D4A14
:103D500001F4E06111430160BFF34F8F00BFFDE745
:103D60001C230020466174616C000000F0ED00E04F
:103D7000486974207765616B2068616E646C657258
:103D8000000000000400FA050EB500210091CDE905
:103D900001106A4644F20100FFF7BAFF0EBD0000B1
:103DA00070B502280DD1084C032508A1208805EB29
:103DB000004004F079FD208810A105EB004004F0DC
:103DC00073FD012070BD00001C230020506F77653B
:103DD00072206D616E6167656D656E742077616ECE
:103DE000747320746F20726573657420746F20443F
:103DF0004655206D6F64652E00000000506F77659A
:103E000072206D616E6167656D656E7420616C6CAA
:103E10006F77656420746F20726573657420746FAA
:103E200020444655206D6F64652E0000074B9B783B
:103E300023B12AB120B10068037C1BB10820704770
:103E4000072070474174426100207047582B0020C2
:103E500070B506F007FE104800240B210470447072
:103E60000E4D817014206C602C706C70FFF754FC48
:103E700007211420FFF771FC1420FFF758FC0848B5
:103E8000046007211120FFF768FC0548001F006847
:103E9000A860002070BD0000582B00201C220020CC
:103EA000081501402DE9FC47DFF8789099F80230B9
:103EB00073B368B3052902D20720BDE8FC874369C4
:103EC00033B3437C012B25D00027044600258846C8
:103ED00016468DF80050684600F038F801A807F043
:103EE000BDFEC8B1012101700F4944600968C0E9F5
:103EF0000218C0E904769DF8040089F801009DF8D5
:103F0000000000F047F81420FFF71CFC2846D4E717
:103F10000820D2E70F46D8E704259DF8000000F0FE
:103F200039F8F3E7582B0020041501400649897839
:103F300039B130B1416921B100210174022107F08A
:103F40003BBC082070470000582B002030B5EFF331
:103F5000108172B60D4A9468012324B103700029C0
:103F600000D162B630BD93604FF0E023D3F88051AA
:103F7000074C25401560C3F88041D3F88441546054
:103F80005A17C3F8842100220270E8E7642C00204D
:103F9000FC06FFBD0B498A68002A11D000280FD10A
:103FA000EFF3108072B60B684FF0E022C2F80031D8
:103FB0004B68C2F8043100228A60002800D162B642
:103FC00070470000642C00202DE9F0410646086887
:103FD0000C46411C4FF0A0474FF0010506D005FAF2
:103FE00000F1C7F80815206804F04FFA6068411C1A
:103FF00002D0002104F040FA3079204901EB401052
:10400000A169007F00283068C0F8241525D0607DA4
:10401000227D31681043C1F86C05D4E90012306884
:10402000C0F80C15C0F8142524E0A068411C02D08B
:10403000002104F021FAE068411C05D08540C7F852
:104040000855E06804F021FAD4E902123068C0F89B
:104050000825C0F81015BDE8F081607D217D32682B
:104060000843C2F86C05D4E900123068C0F8142582
:10407000C0F80C15207D0128D7D0ECE7182B0020C4
:104080002DE9F043044687B0008800F079FB8146B3
:10409000208802F099FC214F8046667A2088002211
:1040A0003978A56800F0BEFBB9F1000F33D0607914
:1040B000400711D50721404605F0E8FBA0B10821D3
:1040C0008DF80C1021880590ADF80E10ADF8108019
:1040D00003A801F081FD07E02088B97800F08CFB8F
:1040E00010B1404602F05CFC03208DF800002088EF
:1040F000ADF802006079C0F380008DF80400A0796B
:10410000C0F380008DF805008DF806508DF807602B
:10411000684601F061FD07B0BDE8F083E8210020AA
:104120002DE9FC47002517880646158090F82D00DC
:104130001446894630B13A462146484600F08AFB8B
:10414000050009D1B0784FF00C0A18B32088C84692
:10415000001DB84202D95046BDE8FC87684679DFA9
:104160000028F9D12088032108F80010208819219F
:10417000401C80B2208008F800102088401C80B2CB
:10418000208000EB0801BDF8000007F0C6FC218884
:1041900008442080F0780222C8B1218896F90330C3
:1041A00001F1030C4846BC45D5D8425421884FF054
:1041B000010C491C89B2218000F801C02188491CEA
:1041C00089B2218009F801302088401C2080706865
:1041D000B8B1218890F9003001F1030C4846BC4584
:1041E000B9D8425421880A22491C89B221804254FC
:1041F0002188491C89B2218009F801302088401C9F
:104200002080308950B1CDE900474B46062202217B
:1042100006F1080007F03AFD05009DD1308A50B143
:10422000CDE900474B460722032106F1100007F0B5
:104230002DFD050090D1308B50B1CDE900474B46A4
:104240001522142106F1180007F020FD050083D186
:10425000306A30B13B462246494601F0D7FA0500A4
:10426000DBD1706A30B13B462246494603F02CF957
:104270000500D2D196F82C0038B13B46224649467B
:10428000304606F0DFFE0500C7D1307838B13B4636
:1042900022464946304603F0A1F90500BDD1284623
:1042A0005AE7F0B50C4693B01F210726ADF8001071
:1042B000ADF80410002750B1C17849070DD56A4602
:1042C00002A9FFF72DFF002808D102AD02E000256A
:1042D000ADF800706CB1E07810B1304613B0F0BDAD
:1042E00001AA0AA92046FFF71BFF0028F6D10AAA57
:1042F00002E00022ADF80470BDF80400C3B2BDF8BE
:104300000000C1B2284672DFE8E780F82410704749
:1043100070B50D00044653D0F4B301202070002680
:10432000E670202205F17801201DFFF7A5F884F83A
:104330002460D5F89800C4F8CC00D5F89C00C4F8E7
:10434000D0004FF6FF70A4F8C800C4F82560A4F8A8
:10435000296084F82B6004F130003C210646FFF709
:10436000A4F8287884F83000A87884F83200E87837
:1043700084F83300687884F83100D5E90401C4E991
:104380001001D5E90201C4E90E01D5E90601C4E92D
:10439000120195F82D0000E012E084F85D00686AD3
:1043A000D8B104F1780104F16C0061676065696A55
:1043B00009880180686A616D80888880002008E033
:1043C0000E2070BD696A22188968095C82F878102D
:1043D000401C616D89888142F4D8A86AE8B104F173
:1043E000A400C4F8A0000C38A065A96A898881805F
:1043F000A86AA16D00880880002006E0A96A22183A
:104400008968095C82F8A410401CA16D89888142EA
:10441000F4D895F82C0084F85C00286A48B104F1BF
:10442000C4002065296A49884180286A216D008876
:104430000880686800B1606305F13C013046BDE862
:104440007040FFF72EBF10B50288102A1AD0112A2B
:104450001FD01B2A1CD1007A0C46002818D1E07806
:104460000521401CB0FBF1F201FB1201204600F0D7
:1044700055F800280CD0D4F8D010002908D0BDE899
:1044800010400847C27B012A02D18088A1F8C800E9
:1044900010BD0C46002184F8D4108088B4F8C810F0
:1044A0008842F5D120790028F2D10121DEE710B54C
:1044B0000C46022801D0032811D1607800280ED0C4
:1044C00000206070E178204600F028F8002806D02F
:1044D000D4F8D010002902D0BDE81040084710BD24
:1044E00010B5044674DF012084F8D400002084F85D
:1044F000D600062084F83300002104F13000FFF7D5
:10450000D0FE002809D1E178204600F007F818B164
:10451000D4F8D01001B18847002010BD2DE9FF4725
:10452000044600780F4638B1E770002003F08EFE95
:10453000012628B16670D2E0082004B0BDE8F087FB
:104540000025C4F82550A4F8295084F82B50A079F0
:1045500010B1E078012806D0E07970B1E078012848
:1045600001D0022809D1D4F8CC1021B184F82C60F4
:104570000820884701E084F82C5004F1260100202F
:104580000A5C0AB1304603E0401C0628F8D300203C
:104590004FF002084FF0030A4FF00409012F06D034
:1045A000022F09D0032F0CD0042F12D10DE0A179D6
:1045B00011B108B130460DE0E17911B108B14046C2
:1045C00008E0207A08B1504604E0607A08B1484615
:1045D00000E02846E070D4F8CC1041B1032801D0A7
:1045E000042804D1607910B194F8D400A8B184F8FB
:1045F000D55000950295019503958DF800508DF8E2
:104600000850E17804F1250004F13002052958D260
:10461000DFE801F0670A131F3B0084F8D65084F8E6
:10462000D56007208847E4E7A67001908DF8006008
:10463000ADF80C50ADF80A5043E084F802800190C8
:104640008DF80060208AADF80C00A089ADF80A0052
:1046500037E0A08AADF80A00208BADF80C00607935
:1046600080B194F8D40068B994F8D60050B18DF8B0
:10467000088084F8339000211046FFF712FE00BB3B
:1046800005211AE084F802A01BE0A08BADF80A0017
:10469000208CADF80C00607988B194F8D40070B922
:1046A00094F8D60058B18DF8088084F83390002132
:1046B0001046FFF7F6FD20B90621A17001E084F84D
:1046C0000290E07830B194F82410684673DF002837
:1046D0007FF433AFD4F8CC1009B1A078884700201C
:1046E0002BE7A570F6E7000070B5040012D0014674
:1046F0001C221448FEF7C0FE1248134D05602068C6
:1047000050B17ADF002806D120680168296040682E
:10471000686005E00E2070BD0B487BDF0028FAD1F1
:1047200008484FF6FF711438084A20F8041B054961
:10473000343901600021FFF779FB0028EBD003201A
:1047400070BD0000D8240020A0210020DDBB0200A5
:1047500002494A6C091D06F0C7BA0000F424002083
:1047600002460248016D001D06F0ABBAF424002099
:1047700002460248416D001D06F0A3BAF424002051
:1047800070B50A4E054600242A46301D716C06F0AD
:1047900098FA40B12A46301DF16C06F092FA08B141
:1047A000022400E00124204670BD0000F424002013
:1047B00010B50024204607F045FA28B1641CE4B285
:1047C000182CF7D3182010BD03480122A24001681D
:1047D00011430160204610BDF424002010B50446AA
:1047E00007F030FA002803D0024800EB8400806D07
:1047F00010BD0000F424002070B505460C460846A4
:1048000007F020FA002809D005482A4600EB840169
:10481000001D896DBDE8704006F053BA70BD000000
:10482000F424002070B5064615460C46084607F0ED
:1048300009FA00280AD006482B4600EB84013246CC
:10484000BDE87040001D583106F073BA70BD00001D
:10485000F42400207CB5054608880C4609309042B7
:1048600001D90C207CBD68466DDF0028FAD1218873
:104870000820685420881B21401C80B220802954C5
:104880002088401C80B220802844DDF8011001609F
:10489000BDF8051081802088801D80B220809DF8A1
:1048A0000010490800D0012129542088401C208094
:1048B00000207CBD10B503F095F8002809D105480B
:1048C0004FF0030C00DF002803D1BDE8104003F0D7
:1048D000EDB810BD842A002018B1034908600020FB
:1048E00070470E20704700000422002010B54FF0E2
:1048F000FF3100203BDF00280BD1B1213ADF002837
:1049000007D10448416901208847022004F0BEF91C
:10491000002010BD682A0020044810B500684169D5
:1049200000208847BDE81040FFF7E0BF04220020C8
:1049300030B58FB005461C2101A8FEF7B6FD002456
:10494000142109A80894FEF7B0FD9DF820000094FA
:1049500020F00F00401C20F0F00010308DF82000F7
:104960009DF82100029420F00F00401C20F0F00080
:1049700010308DF821009DF82200049420F00600EC
:10498000801C8DF822009DF8040009AA40F0280040
:104990008DF8040008A8CDE90540079428788DF823
:1049A0003A000320ADF838009DF80000ADF82C4027
:1049B00020F00F00401C20F0F00010308DF80000B7
:1049C0009DF80100ADF82E4020F00F00401C20F0B3
:1049D000F00010308DF801009DF802000D9420F0D9
:1049E0000600801C20F0080040F011008DF8020045
:1049F0000EA809901720CDF828D0ADF830006888AF
:104A0000AB1D01A9A2DF0FB030BD000010B5164CE0
:104A100086B01ECC8DE81E0020B3144C4FF6FF71FB
:104A2000A180006860610020607620762046FFF754
:104A300053FF002814D101208DF812004FF6596061
:104A4000ADF81000A21C04A90120A0DF002807D1A6
:104A50002146684662DF002802D12046FFF768FF42
:104A600006B010BD0E20FBE764C10200682A0020DA
:104A700010B500280FD00188204C502926D00BDC1F
:104A800010291DD0112906D1A1888088814202D128
:104A90004FF6FF70A08010BD512913D05329FAD1D1
:104AA000C088E1888842F6D1607E0028F3D0FFF705
:104AB00033FF0028EFD06169BDE8104002200847AD
:104AC0008088E7E7BDE8104004F0CCBB30F8061F53
:104AD00062899142DFD141890229DCD10C3000F09A
:104AE00009FB0749207603220988BDE8104002EB44
:104AF0000143024603A1184603F0DABE682A0020EB
:104B00001C230020526563656976656420696E64C4
:104B100069636174696F6E207374617465202564C4
:104B2000000000002DE9F0410546007B0426234CDF
:104B30004FF0010801280FD002281FD00226287B41
:104B40004FEA060100F064F8002832D0206841697D
:104B5000BDE8F0410320084720680027817E11B19D
:104B600006210120EEE780F819800121084600F0B7
:104B70004FF800281DD020684776E0E76A7B142AAA
:104B800019D8C2B10E4F05F10E01381DFEF774FCA5
:104B9000687BB86121683846897E0029CFD1A0F1B1
:104BA0000C010A68011F90470028C8D1216881F8CC
:104BB0001A80BDE8F0810526C1E70000042200202C
:104BC000902A002070B5104900250A68002A19D0E3
:104BD0004A68002A16D008319047112812D00B4C91
:104BE0000028206885760BD00421022000F010F800
:104BF000002807D020684169BDE8704003200847BD
:104C00000121F2E770BD0000842A00200422002068
:104C100086B00323ADF8003020238DF814308DF8D2
:104C2000150000220E48019202928DF81610C188DC
:104C3000ADF8041002218DF8061005A90491ADF815
:104C40000820CDF80CD0808801A9A6DF002804D167
:104C5000BDF80010032900D00C2006B070470000FA
:104C6000682A00200F4A0321128801EB024268B132
:104C700001280ED00B4A01210228128801EB0242C2
:104C80000AD0032810460AD007A109E0104610A157
:104C900006E010461AA103E0104622A100E030A170
:104CA00003F002BE1C230020556E6B6E6F776E20E2
:104CB0006576656E742066726F6D20626C655F64E8
:104CC00066755F627574746F6E6C6573732E000029
:104CD00044657669636520697320707265706172DE
:104CE000696E6720746F20656E74657220626F6FE5
:104CF000746C6F61646572206D6F64652E000000D6
:104D00004465766963652077696C6C20656E7465AF
:104D10007220626F6F746C6F61646572206D6F6476
:104D2000652E00005265717565737420746F20657F
:104D30006E74657220626F6F746C6F61646572204F
:104D40006D6F6465206661696C6564206173796E5E
:104D50006368726F6E656F75736C792E000000006A
:104D60005265717565737420746F2073656E64206D
:104D70006120726573706F6E736520746F20636C51
:104D800069656E74206661696C65642E00000000C0
:104D900010B50446008888B021281FD009DC0128FE
:104DA0002FD010280FD0112816D1002000F0EAFAD9
:104DB00020E03B281BD0512827D056280CD1A088B2
:104DC000132176DF16E0072000F0DCFA08B1FEF7C9
:104DD000DBFF1F49A088088008B010BD00200090AC
:104DE000A08869468FDF2EE0FEF7CEFFF4E7A088AB
:104DF000132176DF0028EFD008B0BDE81040FEF7A1
:104E0000C3BFA088002166DFF4E71022A11D04A81B
:104E1000FEF732FB9DF810100029DDD09DF8180038
:104E2000042803D0062801D00528D5D102290DD0A9
:104E30005FF001008DF800004FF4C170ADF8040080
:104E4000A0886946A8DF0028CED1C5E70220F1E797
:104E50008021002010B51A4C0188606810290ED0FE
:104E600011292BD1401E606028D1FEF79CFE00283E
:104E700024D02168002921D0BDE810400847D0B9CE
:104E800000210122084600F05BFA08B107280FD183
:104E900007220221012000F053FA08B1072807D1A8
:104EA00004220221002000F04BFA20B1072802D092
:104EB000216801B188476068401C606010BD000037
:104EC000982100202DE9F04701883B4E40F2F3196C
:104ED0004FF6FF7510291BD011293ED0122954D04E
:104EE000502946D1C188F289841D914241D16189FE
:104EF00002293ED18688304601F00CFE050038D0EC
:104F000004F10C0000F0FAF8A8B3294630464EE050
:104F1000C17B8788044601292BD1A846284601F089
:104F2000F9FD050017D02F80002028722348434642
:104F30004A460168C5F80A104068C5F80E0004F139
:104F4000100105F10A0001F087FE6872F08900285F
:104F50000FD129462AE0042013E0808801F0DAFD11
:104F6000040006D06068FEF7E1FF08B105F0B6FF67
:104F70002580BDE8F087FFE76868FEF7D7FF0028C7
:104F8000F7D0BDE8F04705F0A9BF87880646384648
:104F900001F0C0FD0400ECD02B464A4606F10801A2
:104FA00004F10A0001F058FE607221463846BDE85F
:104FB000F04700F071BC0000D8240020A0210020A0
:104FC0002DE9F047044603883F480122A4B000F1D0
:104FD000480A102B09D0112B54D01A2B70D1217AEA
:104FE000B2EB111F53D2012352E0D0E911218A43C1
:104FF0000546011D12A805F077FE442212A901A85A
:10500000FEF73AFADFF8C0900026374609F1440966
:105010000DF104080AE000BF08EB46001D2283885A
:105020004946281D009705F011FE761C0198B042F4
:10503000F2D8686CA688C04305F02AFEA0F57F412F
:10504000FF3917D005EB40000123868032465146D8
:10505000281D05F06EFE012332464946281D05F045
:1050600068FEE07B02280BD000231749A2884C3150
:10507000281D20E024B00420BDE8F047FEF784BEE0
:105080000123F2E70023A2885146001D13E000230C
:105090000D490546A2885031001D05F04AFE207AD0
:1050A0000221B1EB101F01D2012300E000230649C9
:1050B000A2885431281D24B0BDE8F04705F039BE60
:1050C00024B0BDE8F0870000F424002010B50446A9
:1050D0000748007800280AD0204601F05DFB2046F2
:1050E00006F046F82046BDE8104001F0ABB810BD10
:1050F000D82100200078C0F340007047007800F00D
:10510000010070470149085C704700009CC0020024
:105110000649095C4FF0A040D0F81005C84010F0D7
:10512000010000D0012080F0010070479CC0020007
:1051300007490B5C4FF0A041D1F8042501209840AD
:1051400020EA0203C1F808351040C1F80C05704789
:1051500098C002000249085C012103F0C2B90000B6
:1051600098C002000249085C002103F0BAB90000AF
:1051700098C002000649095C4FF0A040D0F8040531
:10518000C84010F0010000D0012080F001007047FD
:1051900098C002007CB50024084E25460122305DEF
:1051A000009500231146019503F027F9641C042C97
:1051B000F4D3BDE87C4000F003B8000098C00200C2
:1051C00010B500242046FFF7C5FF641C042CF9D35A
:1051D00010BD10B500242046FFF7C4FF641C042C4A
:1051E000F9D310BD10B50246064B4FF0FF30002139
:1051F0005C5C944201D1084610BD491C0429F7D3D8
:1052000010BD00009CC0020070B50C4E0C004FF0A9
:10521000000530600BD0012000F06AF808B10220D0
:1052200004E0002000F064F800B10B2020707068EA
:1052300010B9FEF7B8FC0546284670BD982100203D
:1052400010B5002000F0D0F908B1062806D10120E1
:1052500000F0CAF908B1062800D1002010BD0000F6
:105260002DE9F0470D468146FFF7BCFF04460428B0
:1052700036D2DFF874801B481C4EA8F10C0725B30A
:10528000012D0ED0022D2BD104EB44003044457883
:10529000002D25D0B968002922D02846BDE8F04766
:1052A000084704EB4401755C0E44717849B10E4A1D
:1052B0004FF40041093A8068FEF7F4FD08B987F819
:1052C0000390B17808F80410E2E78068FEF72EFE3C
:1052D00004EB4401314418F804008D78A842D7D07B
:1052E000BDE8F087A0C002009421002078240020AF
:1052F000FFF70EBF0146104810B50088042907D0FB
:1053000007290ED00A2915D1BDE8104005F01CBFB1
:10531000132176DF0CE000280CD0BDE81040FEF72A
:1053200033BDA0F57F41FF3904D10448FFF7D8F819
:105330000828F0D110BD000080210020602300204B
:1053400070B50023042810D20D4D00EB4004012A53
:1053500002D101290CD00022094E00EB400030445C
:1053600061B1012906D0022906D00723184670BD75
:105370000E30C2B22A55F9E74270F7E78270F5E7BE
:1053800078240020044A014600201279D20702D076
:10539000084600F04DB870478821002070B50646D9
:1053A0001E480024C0E90161B00720D50025012274
:1053B00011462846FFF7C4FF6D1C0446042D02D297
:1053C000002CF4D013E094B940F266620421144832
:1053D000FEF766FC04000AD1FEF750FC040006D17B
:1053E0000F48104A0021001FFEF720FD0446F00779
:1053F00001D0FFF7CFFE74B909480B4A00210C38E1
:10540000FEF714FD040006D10548084A01210838BA
:10541000FEF70CFD0446204670BD000088210020E8
:10542000ACC0020085560200ED6C0200773C020021
:105430002DE9F05F6A4C054600266078B34618B146
:1054400084F801B001F03AFC664F4FF47A694FF4EA
:10545000C87A4FF00108182D62D2DFE805F0AC0CD5
:105460000C31404D62676B746B74BE7D7D7D7D7DBC
:10547000ACAFB2B5BEBE0020FFF77CFE00284FF0F7
:10548000000008D0FFF766FE022D02D14FF4E16064
:1054900008E0484606E0FFF765FE022D01D1C8206E
:1054A00000E05046410CC0034FF4FA72801841F1FD
:1054B0000001257052000023FDF7A8FF01462AE0F5
:1054C0000020FFF757FE00284FF0000004D0FFF740
:1054D00041FE4FF44870E5E7FFF744FEDFE70020A8
:1054E000FFF748FE00284FF0000002D0FFF732FE21
:1054F000CFE7FFF737FED4E70020FFF73BFE002899
:105500004FF0000002D0FFF725FE01E0FFF72AFE72
:10551000257041F69A1100223868FEF7C3FC064652
:1055200046E00020FFF704FE257008E0002051E06F
:1055300025703DE084F801800120FFF7F9FD00228D
:1055400040F6CD41E8E784F801800120FFF7F0FD47
:1055500000224FF48041DFE77868FEF7E7FC06465B
:10556000D5F1110000D02EB10220FFF7F3FD84F831
:1055700002B01DE0012816D980B2C8214843C117E6
:10558000C90341EA5041C0034FF4FA72801841F157
:10559000000152000023FDF739FF01460022786820
:1055A000FEF780FC06460220FFF7DCFD84F802804F
:1055B0003046BDE8F09F01F081FBB9E701F07EFBCA
:1055C000B4E701F07BFB04E001F078FB0020FFF77B
:1055D000C9FD0120FFF7C6FDAAE7FFF7FAFDA7E71F
:1055E00088210020A0C0020010B5FFF78BFD032129
:1055F00002F055FF002010BDF8B5861C00208DF884
:1056000000000C4601276846FEF7A0FC0F48016821
:105610002160D0E90012891A82680446511AB51C2B
:1056200007E000BF01F01AFED4E90001401AA168AA
:10563000091A491C8D42F5D82068304420609DF835
:105640000000FEF7A7FC3846F8BD0000D82E002069
:1056500030B482680468531C8360A154D0E90112FD
:105660008A4202D330BC02F0C8BC30BC7047000094
:10567000034803C8814201D10120704700207047D0
:10568000D82E002000780221FFF7EABD05494FF02F
:10569000FF32082841F8202002D3084480F848202F
:1056A00070470000C02A0020F0B54FF0FF3512B15E
:1056B0000023082601E008230C260C4C05E000BF5F
:1056C00054F823707F1C04D05B1CB342F8D32846E7
:1056D000F0BD26185DB286F8305044F82310002A39
:1056E000F5D1E11881F84800F1E70000C02A002058
:1056F0000249084490F9300070470000C02A002099
:1057000070B504464FF6FF750A462846AC4208D1EC
:105710004FF480742146104604F0A2FDA04209D047
:1057200070BDFF2CFCD82146104604F08CFD08B15A
:10573000204670BD284670BD70B5084C050009D0E4
:1057400010342168002907D008682060496828467D
:105750008847F6E70834F4E770BD0000AC2A002063
:105760002DE9F05F26484168F1B3DFF898B00E6884
:105770008146DBF8004087688078E11B21F07F4597
:10578000ED1CB0B9DFF880804FF48030C8F84403D6
:10579000C8F804031120FDF7BFFF1120FDF7C7FF74
:1057A0004FF0010AC8F800A02F2002F0D5F889F8C0
:1057B00002A0B54200D23546124BE8193C3320F026
:1057C0007F401860DBF800105A46091B21F07F412A
:1057D000001B20F07F40C91C81420FD9106818605F
:1057E0002F2002F0B9F800E004E0BDE8F05F1120DE
:1057F000FDF7A8BFBDE8F05F05F034B9BDE8F09F44
:105800001C22002004150140001001402DE9F04148
:1058100017880646B81D14460D46984202D90C203A
:10582000BDE8F0813188072206290AD34FF4486C7D
:105830004FF6FF73614501D9994202D1708806285D
:1058400001D21046ECE7604501D99842F9D199425E
:1058500003D0984201D08142F3D80520E855208832
:105860001221401C80B2208029542088401C80B224
:1058700020804119308806F050F92188084480B210
:1058800020804119708806F048F92188084420805A
:105890000020C5E7FEF778BA38B54A7A0F4B62B1F7
:1058A00000220A725969002906D001228DF80020D1
:1058B000ADF802006846884738BD0A7A62B19B6835
:1058C0004C68024619462046FEF7ECFA0028F3D051
:1058D000BDE8384005F002BB5B68F1E7D824002042
:1058E0007FB50C4610B1012004B070BD20790026B0
:1058F00038B141F61D5501281BD0022826D00F20B3
:10590000F2E702960396E0680190694601A805F067
:1059100009F850B102988188E18000882081BDF8A3
:105920000010029805F072F800E00A2002212171AF
:10593000DAE70A4B6A460021A01D04F0AFFF38B138
:10594000064908398E60CE600A28CDD12846CBE7BB
:1059500002488188019805F059F8F5E738220020BF
:105960002DE9F04100260125144C22E060682269EF
:1059700000EBC607387805FA00F1114217D08A43C8
:10598000226102F0F3F902463878E36805FA00F183
:10599000194002FA00F3994209D17978012901D01E
:1059A000012100E0002151407A6802B19047761C45
:1059B000F6B220788642D9D3BDE8F08108220020D3
:1059C0000E4910B50A784C780023A24212D0521C1E
:1059D000D2B20A70022A00D10B70084A0B780C323E
:1059E00052F8232002608868104420F07F408860CD
:1059F000012010BD0360002010BD00001C2200200B
:105A00003EB5094D38CD8DE83800ADF80410074992
:105A10008DF80620ADF8020000220978FEF702FF9B
:105A2000684600F0D9F83EBD54C10200E8210020CC
:105A3000F8B507460C481C46154680780E4608B156
:105A40000820F8BD684604F055FE58B100980121C1
:105A500001710760310B4561C0E9024104F00AFFA2
:105A60000020F8BD0420F8BD4822002010B50378BE
:105A70000022072B06D2DFE803F0050406102029D8
:105A800030000A7010BD01230B7003898B8183885D
:105A9000CB81C06888600A7410BD02220A70028936
:105AA0008A818288CA81C2688A60807D062802D085
:105AB0000020087410BD0120FBE703220A70C28891
:105AC0008A810289CA81C068886010BD04230B7076
:105AD000C0888881CA818A6010BD0520087010BD09
:105AE00070B5064D0646002455F8241009B130461D
:105AF0008847641C042CF7D370BD00007C2C002068
:105B000030B50446006885B00D46806800281CD07A
:105B100014216846FDF7C9FC0195A068049020791E
:105B200010B101280DD104E001208DF8000020699A
:105B300004E002208DF80000E06800030290606934
:105B40000390206881686846884705B030BD0EB56F
:105B5000002911D011290FD0002200920292ADF835
:105B6000020001910D2908D0862908D009208DF85E
:105B70000000684600F03EF80EBD0B20F7E70A2053
:105B8000F5E700000149096808470000B02100203E
:105B900070B5054D06460024304655F82410884758
:105BA000641C022CF8D370BDE4C002002DE9F04162
:105BB00007460024064E074D05E000BF56F82410A6
:105BC00038468847641CE8788442F7DBBDE8F081FA
:105BD0001C2A0020D821002070B5054D064600245F
:105BE000304655F824108847641C022CF8D370BD49
:105BF0001CC10200014909680847000060C1020099
:105C00007FB50446406858B10020039020780026F4
:105C1000384D06285DD2DFE800F05C0505264169B5
:105C20000120F2E7A08900F0C3F918B9E08904F077
:105C300007FF80B3A089A0F54040ADF80200A07B2B
:105C40008DF8040020780128606806D048B104204F
:105C50008DF80000606803901AE00028F8D0032057
:105C6000F6E70120F4E7A08900F0A2F918B9E0896D
:105C700004F0E6FE78B1A089A0F54040ADF802003E
:105C8000A07B8DF80400606830B105208DF800001D
:105C9000A06802901AE01CE00220F7E7A08900F05B
:105CA00087F9B0B1E089A0B9A089FF21A0F54040F3
:105CB00080B2ADF802008DF80410616881B1072050
:105CC0008DF800006E70AE7003F098FF684603F028
:105CD00073FE6878002802D06E7003F08FFF7FBDDE
:105CE00006218DF8001004F017F8EBE708208DF876
:105CF0000000EBE7C421002000B5104987B0097807
:105D0000890702D4022007B000BDA0F57F41FF390A
:105D10000FD005218DF8001001218DF80410ADF889
:105D20000600684603F0D6FA28B104F093FD00207F
:105D3000E9E70420E7E70820E5E70000302200203B
:105D400000B50D4887B00078800702D4022007B064
:105D500000BD06208DF80000684603F0BBFA40B194
:105D60000648017809B10121017304F073FD002098
:105D7000EDE70820EBE7000030220020242D002072
:105D800010B58CB014216846FDF78FFB26480078CB
:105D9000810703D56846FFF7A3FE43E0C00741D162
:105DA000012000F029F94FF0102042690004016938
:105DB0004069531C01D0104600E048431B490022B3
:105DC0000861A0F54050C8601949184802F035FA3A
:105DD00000280FD101248DF8144003F0F1FA0C28AB
:105DE0001BD2DFE800F0061006101A1809181A1264
:105DF00016120B200CB010BD022000F0FDF801209F
:105E000000F0E0F8C6E7002000E003208DF818005D
:105E100003E00220FAE78DF8184005A803F05AFACB
:105E200004F018FD0020E5E730220020C022002009
:105E3000ACC1020038B5040011D0694604F072FD0F
:105E400088B10A48BDF8001000EB0110818941B10A
:105E5000A27A32B1491E81810020A07238BD05208E
:105E600038BD062038BD0A2038BD0000042D0020B2
:105E70001FB501A9684604F011FD04B010BD07B5B7
:105E800013460A466946002004F008FD0EBD07B51A
:105E900013460A460021684604F000FD0EBD20B1FD
:105EA00019B10068086000207047052070470000A5
:105EB00038B50D46040015D0A5B1694604F032FD91
:105EC00090B10A49BDF80020606801EB0212918987
:105ED000491C9181286060680C3068600120A072C4
:105EE000002038BD052038BD0A2038BD042D002013
:105EF00018B10323002205F0ABBF05207047022331
:105F0000002205F0A5BF12B1022305F0A1BF0520B4
:105F100070470000064A5178042906D0054B43F823
:105F20002100491C5170002070470C207047000070
:105F3000302200207C2C002038B504460A480D464B
:105F40000078800701D4022038BD54B16946284644
:105F500006F076F80028F7D1BDF8001021806580A2
:105F600038BD052038BD00003022002010B50446A1
:105F70000D480078800701D4022010BD84B121882B
:105F800002290FD8094800EB011042896088121AD3
:105F9000032A07D406F04AF800202080608010BD54
:105FA000052010BD042010BD30220020042D00204B
:105FB00043F6FE71A0F54040884201D801207047A9
:105FC0000020704702490A7882430A707047000037
:105FD0003022002010B504460078182802D1FEF7C0
:105FE000E7FB207010BD10B504460078182802D1D8
:105FF000FEF7DEFB207010BD02490A7802430A70EA
:10600000704700003022002070B51346002206467B
:106010001546862905D0112901D019B170BD012579
:1060200000E001220D4C73B16179FEF7FBFB2A46BB
:1060300021793046FEF7F6FB002261783046FEF704
:10604000F1FB002203E06178FEF7ECFB2A462178A1
:106050003046BDE87040FEF7E5BB0000EC210020B3
:10606000406804F063BB000070B508B1012070BD4A
:10607000184C0025207B08B1257301E000F0A2F840
:106080002078082824D2DFE800F02304080C10232D
:10609000141EBDE8704000F01FB8BDE8704000F06D
:1060A0007FB8BDE8704000F061B8BDE8704000F016
:1060B00037B808496088203901EB00104068BDE816
:1060C000704003F05DB96560BDE8704003F066B9EB
:1060D0000F2070BD242D00201049F0B48A1C002030
:1060E0000346A1F120050C18A67A3EB1A37205EB78
:1060F0000014A68916B9A47B012C0AD0401C80B2DA
:106100000228F0D30B704B804B60F0BC41F61D5061
:1061100070471080F0BC00F043B80000242D002030
:1061200010B50F4CA4F12001608801EB00108189AB
:1061300061B1052020700B48022100238180016895
:10614000BDE810400122084802F050B84168002321
:106150000122054802F04AF80421217010BD000018
:10616000242D002040220020C022002038B50A49FA
:10617000084803240B684268898803EB810153882F
:106180000470DB1C00201B0400909B0B034802F0F2
:1061900001F938BD242D002040220020C02200201B
:1061A000074910B54888091D04F00AFC18B1BDE87C
:1061B0001040FFF7DBBFBDE81040FFF7B1BF0000A4
:1061C000242D0020F0B51D481D4901250678022424
:1061D0008B88A0F12002082E18D2DFE806F0041701
:1061E000171A212C2C160189491C0181002141809C
:1061F00080F80C1002EB01131B7843B10023441804
:10620000491C89B2A3720229F4D30570F0BD0123A1
:10621000F5E742685288D21C1A448A800470F0BDA7
:1062200046880D6802EB061256680E6055601381B1
:106230008C80062100E007210170F0BD242D002094
:1062400040220020F0B504460088384DA5B0502803
:106250001ED0522802D0542828D103E0A08800F094
:106260006DFF23E006208DF84400A08800F0ACFB11
:10627000ADF84600A188ADF8481000F05DF9A0889F
:106280000022E978FEF7CEFA11A8FFF77BFC0DE0BB
:10629000207B01280AD1A07A012807D12089A0F506
:1062A0002451023902D1A08800F082FFA878FEF7BD
:1062B00095FAC8B114A8FEF74BFA442214A968460F
:1062C000FDF7DAF800246E460BE000BF06EB44074A
:1062D000A978B888FEF790FA10B1B88800F02EFFC0
:1062E000641C0098A042F1D86878FEF777FAC8B12C
:1062F00014A8FEF72DFA442214A96846FDF7BCF84D
:1063000000246E460BE000BF06EB44076978B888AE
:10631000FEF772FA10B1B88800F04AFF641C0098CA
:10632000A042F1D804F0F6FD25B0F0BDA821002070
:106330003EB504464088ADF802002078A8B1012897
:106340001FD0022810D1207900280DD0608800F0DD
:106350007BFAA0F57F41FF3906D00F490122C978A9
:10636000FEF760FA04F0D6FD3EBD00208DF8000077
:106370006846FFF707FC608800F066FA00F0DEFE72
:106380003EBD01208DF80000A088ADF804006846ED
:10639000FFF7F8FB3EBD0000A821002010B5044621
:1063A000007801280FD1608800F0C8FE608800F0F6
:1063B00089F9002807D0044960880122C978BDE81E
:1063C0001040FEF72FBA10BDA821002010B5104CC8
:1063D00000202070FEF7ECF96070FEF7E9F9A0707C
:1063E000FEF7E6F9E070FEF7E3F92071617818290D
:1063F0000BD0A178182908D0E178182905D01828E1
:1064000003D001202070002010BD032010BD00002B
:10641000A82100202DE9F04192B000F0A5F86846CF
:10642000FEF796F900246D464FF6FF77DFF83480CB
:106430000FE000BF05EB4406B08800F0C5FAB84293
:1064400005D1B088012298F80310FEF7EBF9641C1F
:10645000A4B20098A042EDD804F05CFD12B0BDE8F3
:10646000F0810000A82100200178072902D140888E
:1064700000F09EBE7047000010B504460A484178FF
:106480002046FEF7B9F968B10848002101EB410246
:1064900000EB82025288A24201D1C8B210BD491C51
:1064A0001429F3D3FF2010BDC0210020AC2500200B
:1064B00070B5094D094E002404EB440005EB800043
:1064C00071784088FEF798F920B1641C142CF3D33E
:1064D000FF2070BDE0B270BDAC250020C0210020BF
:1064E0002DE9F041124E07460125BD403068FDF709
:1064F0001DFD00280DD10F4C2069284207D13846D8
:1065000001F034FC0028E06805D0284304E0A843EB
:106510002061BDE8F081A843E06020692843206144
:10652000A1683068BDE8F0410022FDF7BBBC000067
:1065300078C10200082200201CB5054AD2E90212E7
:10654000CDE900120022694603F003F91CBD0000EA
:10655000D0C0020003484FF6FF7181800121017015
:1065600000207047B421002010B54FF6FF7003F0F3
:106570002FF803498880BDE8104004F0F7BC000004
:10658000B42100202DE9FC41804600F01DFA0024D2
:1065900003250127A0F57F412646FF3908D06A462A
:1065A000082103F0B1F818B90198841D86880568A0
:1065B00032462B4621464046A9DF042804D008284D
:1065C00004D00B2808D002E0112000E00020002FAA
:1065D00000D10B20BDE8FC810027A80701D50125CB
:1065E000E6E73443F5D0002426460325E0E72DE90D
:1065F000FC41804600F0E8F90746A0F57F40FF38EF
:106600000ED001252A466D1C0026ADB26B4608212E
:10661000384603F0A3F8040006D0072C24D024E069
:1066200043F20200BDE8FC81019903230A1D0B60BF
:106630004046891DAADF040004D00C2C08D0052C8C
:1066400008D008E00821384603F020F904460CE0A1
:10665000012600E000240821384603F003F900B1C8
:106660000324002ECED100E00C242046DAE70000FF
:106670001FB504460078012815D12079012812D1D0
:10668000608802AA012103F03FF860B902208DF86A
:1066900000006088ADF80200094901208DF804006F
:1066A000096868468847064808388088A0F57F4111
:1066B000FF3903D0BDE81F4004F058BC1FBD0000E7
:1066C000BC2100201CB500F07FF96A46012103F0CF
:1066D0001BF808B100201CBD019800781CBD00000B
:1066E0002DE9F041084C07464FF6FF7643F20305CB
:1066F000324661883846A7DFA84203D16088401C33
:106700006080F5E7BDE8F081B42100208188A1F523
:106710007F42FF3A03D0008808B101207047002073
:1067200070473EB5027802230C46B3EB520F17D1E7
:10673000B0F80110ADF80010C1788DF80210818812
:10674000ADF8041080798DF8060002AA01A9204650
:10675000FDF768FA032202A96846FCF7B8FE08B103
:1067600000203EBD01203EBD10B50C46FFF784FE63
:10677000FF280CD0074900EB400001EB8000416886
:1067800021600189A180807AA071002010BD0520C0
:1067900010BD0000AC25002070B5018890B0102914
:1067A0004FD1011D34226846FCF766FE9DF80400B7
:1067B0004FF6FF76032134466D46B1EB500F2AD0D9
:1067C00003F062F99DF8040040080ED001280CD0B7
:1067D000022820D118E00F99281D1131FDF7BEF9CC
:1067E00018B100BFBDF8344015E00EAA0DA907206E
:1067F00003F022F90028EED10DE00F99281D491C65
:10680000FFF78FFF0028EDD10EAA0DA9072003F096
:1068100013F90028F1D1BDF80000291D00F02CFF6C
:10682000B4420ED0BDF80000214600F07EF8BDF85D
:106830000000ADF8360001208DF834000DA8FFF7F8
:10684000A7F910B070BD0000094A002101EB410317
:1068500032F82330834205D101EB410002EB800086
:1068600040887047491C1429F0D34FF6FF707047D9
:10687000AC25002010B50D4C18200D4A607000208A
:106880004FF6FF7100EB400302EB8303401C59807D
:106890001428F7D3FDF78CFF6070182803D001206F
:1068A0002070002010BD032010BD0000C02100207A
:1068B000AC25002070B504460D46401C00F0EEF9F2
:1068C00000280ED01022691C601CFCF700FE48B1A5
:1068D0005FF0000605F1110104F11100FDF73EF92A
:1068E000304370BD0126F5E7018811B9421892784E
:1068F0000AB101207047491C0829F7D300207047CE
:1069000010B50C460346FFF7EFFF00280AD01888A1
:106910002188884205D10822A11C981CFCF7D7FDCC
:1069200008B1002010BD012010BD03F049BA10B518
:106930000446007888B0002828D12079072825D17E
:10694000608801AA072102F0DFFE00281ED103F0B3
:106950009BF81DE06088BDF80010884218D00499AB
:106960000298FFF7A7FF98B16088FFF76DFFADF8B9
:10697000160000208DF814006088ADF81800BDF8EE
:106980000000ADF81A0005A8FFF702F908B010BD25
:1069900003AA6946072003F04FF80028DAD1F5E78B
:1069A00070B50446FFF750FF0546204602F0AFFEE3
:1069B0004FF6FF7104468D4203D014B9284603F008
:1069C000FFF9204670BD000010B5FFF755FDFF2808
:1069D00005D0044900EB400031F8200010BD4FF60F
:1069E000FF7010BDAC2500203EB5044603F04CF806
:1069F0000EE0019920464631FFF782FF28B9019940
:106A000020462A31FFF77CFF10B1BDF808003EBDDB
:106A10006A4602A9072003F00FF80028E9D14FF6D3
:106A2000FF703EBD70B5094D0749002441602C60E0
:106A300002F0D4FA2946C870054804600467446728
:106A400000206C6070BD0000A4C10200482200203C
:106A5000342D00202DE9F0410F4628B10120FFF729
:106A6000B1FA0120BDE8F081397961B10026264DE7
:106A700001290DD0254C4FF002080229206822D0B0
:106A800003293CD128E002F089FC0121397134E06E
:106A90005FF0000005EB0011097802290CD0401CC2
:106AA00080B20228F6D30220FFF7A6FA0120FFF7F2
:106AB00089FA41F61D50D5E705EB0014606802F035
:106AC0005FFC267019E0014600230122104801F006
:106AD0008DFBA4F804800FE002F052FC0A49226802
:106AE0002031498805EB01114B6823604A60A28878
:106AF0000A81A4F804800E703E710028B2D00120F3
:106B0000FFF760FA0E20ADE7042D002040220020A0
:106B1000C02200200146034802888A4200D000209B
:106B200070470000C42400202DE9FC5F0E0083465E
:106B3000DDE90C47C6F1000098469246814600D434
:106B40000846012503E000BF90FBFAF06D1C50459C
:106B5000FADAA84500D9454624B1002E01DB7807B2
:106B600000D5641EB80702D5B8F1000F0AD0F807A7
:106B700008D13CB1A54205D220215846641EFEF73B
:106B800067FDF6E7002E02DA4E462D2102E0780777
:106B900003D52B215846FEF75BFD07F003000228C2
:106BA0000BD1B8F1000F08D13CB1A54205D230217C
:106BB0005846641EFEF74CFDF6E7CDE90047434614
:106BC00052463146584604F0AFFFBDE8FC9F000036
:106BD00070B50E460446007918494FF4A27501EBD2
:106BE0004010017F2068A1B14FF4887102F08CFA47
:106BF0004FF49071206802F087FA4FF49271206888
:106C000002F082FA2946206802F07EFA0C492068D8
:106C100009E04FF48E7102F066FA2946206802F00E
:106C200062FA08492068C0F80413206800F0EDFFFC
:106C30003146BDE8704000F0CCBF0000182B0020AA
:106C400010030200800002000248406F002800D0BC
:106C500001207047342D0020F0B58488A518944297
:106C600000D82246A41AC288D6189A4200D81346E1
:106C7000D21A4B880788BB420CD34088834209D87C
:106C80008888A04206D3A84204D8C888904201D37D
:106C9000B04201D90020F0BD0120F0BD0021425CCE
:106CA0000AB101207047491C1029F8D30020704711
:106CB000800701D000207047012070470A4810B5B6
:106CC000807860B1002401E0022C06D02046FEF757
:106CD00041FA641C042CF7D310BD0324F6E7BDE889
:106CE0001040FEF76DBA00008821002003480179AA
:106CF000C90702D00078FEF79BBB704788210020AF
:106D000006490120086006480168C1F300410029D6
:106D1000FAD1044900208870704700000C00004040
:106D200018040040AC2A0020172101804180002176
:106D3000017141711B218171C17170472DE9F047CB
:106D4000234D81461F46287A0E469046084302D0BE
:106D500026B1002104E00520BDE8F0871C49103170
:106D6000484604F047FB0446014600224846FFF728
:106D70004BF91FB121464846FEF7E9FE112C0FD012
:106D800005DC5CB1082C09D00D2C06D106E0862C60
:106D900012D0A4F54050023800D003242046DBE78F
:106DA0003246E9784846FDF73DFD4246A978484617
:106DB000FDF738FD0024F1E73246E9784846FDF753
:106DC00031FD4246A9784846FDF72CFDE6E7000074
:106DD000EC2100202DE9FC4117460C00064604D0AA
:106DE0002078C00705D0012004E000217EDFBDE847
:106DF000FC8102208DF804003046FFF7E5FD0546D2
:106E0000A0F57F40FF3808D001A800902B463A46F5
:106E10002146304600F021F806E020782146C007E0
:106E2000304603D000F07DF804460BE07EDF04001E
:106E30004FF00000009007D0002201232946304681
:106E400004F012F814B106E00122F6E79DF80410F0
:106E5000304604F033F82046C9E72DE9F04F85B0FD
:106E600090468946834600259A462E4601AA072168
:106E700018460E9F02F048FC040008D1029D95F8C8
:106E80004400183510F0010601D0029D343558EA4F
:106E900004004FF000080FD175B126B905F11200BA
:106EA000FFF722FD40B12A4605F11201584685DF61
:106EB000044687F8008021E00CB1052C1ED199F81A
:106EC0000000C0070DD003AB01220721504602F09D
:106ED00045FC04000AD10721504602F039FD0400A8
:106EE00004D1494658467EDF040007D007215046AA
:106EF00002F0B8FC10B1052800D00324CDF80080C2
:106F0000387808B1012300E0002344B10022514643
:106F1000584603F0A9FF05B02046BDE8F08F0122D6
:106F2000F5E7FEB50F46064602F0ECFB0546A0F578
:106F30007F40FF381ED001AB01220721284602F016
:106F40000DFC04000AD10721284602F001FD0400CF
:106F500004D1394630467EDF040007D00721284699
:106F600002F080FC10B1052800D00324012000901D
:106F70005CB102E003240020009000220123294696
:106F8000304603F071FF2046FEBD0122F6E7000007
:106F90002DE9F041134D0F46164680462978FDF73E
:106FA0002BFC00281BD04046FFF70EFD0446A0F541
:106FB0007F40FF3813D069784046FDF71DFC38B19B
:106FC00033463A4621464046BDE8F04102F074BAE5
:106FD000324639464046BDE8F041FEF711BDBDE8F6
:106FE000F0810000E82100202DE9F04391B08146B6
:106FF000FDF7F4FB002820D06846FDF7A9FB00242C
:107000006E4617E006EB44054946A888FDF7F4FBF9
:1070100078B10B4FA888B978FDF7EEFB8046A888B9
:10702000F978FDF7E9FB0146A88801234246FFF7FE
:1070300085FE641C0098A042E4D811B0BDE8F0833E
:10704000EC2100202DE9F047394E002780463D46CF
:10705000DFF8E090D6F804A057E003D00446D0F85B
:107060001C8035E099F8002002EB4201521CD2B29C
:1070700089F8002009EBC10199F80230091D9A42F4
:1070800001D189F8005048680A780446012A12D0D4
:10709000022A02D0032A3BD108E004F05DFB00B1D4
:1070A0000127257434E00574C06900E07068002889
:1070B000F9D170602CE0207C50BB88686060C868A3
:1070C000A0600869E0604869A061F07800B165607F
:1070D0006268B168184B501A20F07F40984202D283
:1070E000A168084406E0881AA16820F07F40814228
:1070F00002D9081A206000E0256065600120A560C3
:1071000020742046E56104F009FBB8F10000A4D129
:1071100099F8001099F801008142A3D117B971685C
:10712000514502D00120BDE8F0870020FBE70000B8
:107130001C220020582B0020FFFF7F00FEB50446D4
:107140000026A0F57F40FF382FD02046FFF71AFA1F
:10715000050013D00B2D15D0112D11D0A5F54050E1
:1071600002381CD009208DF800002046FFF72CFCC7
:10717000ADF80200ADF8044002950DE0022002E0F7
:1071800001260CE003208DF800002046FFF71CFCD0
:10719000ADF80200ADF804406846FEF7F3FC034882
:1071A000324681782046FDF73DFBFEBDA821002038
:1071B000FEB504460026FFF71AFA0546112818D036
:1071C00003DCA5B10C2D06D115E0862D27D0A5F541
:1071D000405002381CD009208DF800002046FFF7EF
:1071E000F3FBADF80200ADF8044002950DE001207C
:1071F00002E001260CE007208DF80000ADF8044005
:107200002046FFF7E1FBADF802006846FEF7BAFC46
:107210000448324641782046FDF704FBFEBD0820B5
:10722000EAE70000A8210020F8B5054600780C46E2
:10723000002620420FD100208DF800006846FCF7A0
:1072400085FE2878204202D12043287001269DF82F
:107250000000FCF79FFE3046F8BD00002DE9FE431C
:10726000214DD5E9014704EA070005EB800605F545
:1072700083600C3600F04AFA05F21440804600F0B4
:1072800045FA0AE0C0F3891101EB9050641C0444F4
:1072900004EA070005EB80060C3630688107F1D060
:1072A0000020694604EA070205EB8202641CD268EA
:1072B00041F82020401C0228F4D3009800F003007D
:1072C000022800980AD0C0F383100444404600F01E
:1072D00017FA002800D06C60BDE8FE83032101EBA3
:1072E000905004EB9004F1E7D82E0020A8B00020C5
:1072F00001F04CFB08B1FCF747FD01F0F1F9FCF798
:10730000A7FD08B1FCF740FD01F076FC08B1FCF7E1
:107310003BFD5D490320FEF741F808B1FCF734FD61
:1073200069460020FDF770FF08B1FCF72DFD9DF8C0
:10733000000002287DD0002501F012FE08B1FCF704
:1073400023FD002469460120009401F0CFFC08B120
:10735000FCF71AFD684601F053FD08B1FCF714FD77
:1073600002F03CFD9DF8080048A120F00F00401CF1
:1073700020F0F00010308DF80800072202A87CDF12
:1073800008B1FCF701FD00945020ADF80000A020EA
:107390000194ADF80200ADF804404FF4C870ADF8A8
:1073A000060068467ADF08B1FCF7EEFC0021394898
:1073B00000F00DFA08B1FCF7E7FCA0216846FCF7E5
:1073C00074F802208DF8000001208DF802000621DB
:1073D000ADF810008DF87C008DF803104FF4967016
:1073E0002D4922900591B42023902C4826902948BD
:1073F00069461430FCF78CFF08B1FCF7C5FC254842
:1074000001211430FCF781FF254800680090FDF74A
:1074100051FA08B1FCF7B8FC6846FDF7F7FA08B175
:10742000FCF7B2FC1C216846FCF73FF84FF4203013
:1074300000E026E0CDE900404FF4702002901948AA
:107440000590032618488DF80C600690ADF80E40A4
:107450008DF810406846FDF747F908B1FCF794FC39
:10746000124813A1008806EB004001F01DFA2846DF
:10747000FCF7B4FB01F042F90028FBD101F0E4FB7A
:10748000F8E7012558E70000F5520200444655325E
:10749000413134004C23002082210020159102004C
:1074A00094C0020039910200955802001C2300206C
:1074B0004170706C69636174696F6E20737461727E
:1074C0007465640A0000000070B5144682880E4698
:1074D00005462088111D0144921C994201D8FE2ABC
:1074E00001D90C2070BD521C32542088FF21401C51
:1074F00080B2208031542088401C80B220808119C5
:10750000288804F00AFB2188084480B22080AA88D9
:1075100042B1A96841B13044FBF7AEFF2088A98889
:1075200008442080002070BD072070BD2DE9F04781
:10753000C7880446181D16468946B0FBF7F1B0FB14
:10754000F7F207FB12009A193A44D21CB2FBF7F289
:10755000DDF820A001E02468491E0029FBD13D1A76
:107560008846B54216D818E0BAF1000F05D02118A8
:1075700009EB08002A46091D04E0204409EB080134
:107580002A46001DFBF778FF00202468761BA844DC
:10759000B74201D9354600E03D46002EE4D1BDE8B2
:1075A000F087000030B50B46024601F01DFA63B1CA
:1075B0000021094C0CE000BF01EB410304EB830305
:1075C00015685B88AB4202D11160002030BD491CB8
:1075D0008142F1D3052030BDD4220020F8B50E46FB
:1075E000017814460546012901D1687830B1208818
:1075F000821C9A422DD8012902D006E00720F8BD4E
:1076000069780144891C994223D8181A801E87B2D0
:10761000ADF800702188B01C084469467DDF002861
:10762000EDD12878022805D1BDF80010B94201D863
:1076300009210AE00821012805D16878B84202D85A
:10764000ADF8000001E0ADF80070BDF80000FE28C4
:1076500001D90C20F8BD2288401CB0542088401C61
:1076600080B2208031542088401C2080BDF800105A
:10767000084420800020F8BD70B505460C004FF08E
:10768000FF0020D04FF6FF76B5421CD00E480122F5
:1076900041782846FDF7C6F82846FEF7EDFEFF289C
:1076A00003D1FEF705FFFF280DD0084B00EB400289
:1076B00003EB82014D8023F8226022684A60A28891
:1076C0000A81A2798A7270BDC0210020AC250020F9
:1076D00070B54FF6FF750E46A84201D1002000E0BC
:1076E000401C84B208E02146304602F0D4FD08B1C7
:1076F000204670BD641CA4B2FF2CF4D9284670BD8E
:1077000008B500216A46FBF73AFE08BD08B501211D
:107710006A46FBF727FE009808BD38B504460025E9
:107720008DF800506846FCF711FC21686268086813
:1077300090420ED9401E08600178238AE26801FB5E
:107740000325227A2168101AC0B20A79824200D237
:1077500008719DF80000FCF71DFC284638BD38B5BF
:10776000054600208DF800000C466846FCF7EEFB4D
:10777000E868298A201AB0FBF1F12A681068431CD6
:10778000136001709DF80000FCF704FC38BD10B5D3
:1077900030B1017A42680368891AC9B21A6006E0FA
:1077A0000E2010BD03681A68541C1C601170491E1D
:1077B000C9B2F7D2006800210171084610BDC208A5
:1077C00000F007030120895C98400840704710B51D
:1077D00060B10161172120F8021B20F8021B1B2158
:1077E00000F8021BFFF7A0FA002010BD0E2010BD0C
:1077F0002DE9F043858895B00C46002D3DD10188D8
:10780000DFF824810026DFF82491012724293CD0C9
:1078100006DC102909D011290CD023296DD150E0A4
:107820003A290BD0552968D12AE00146204601F0BB
:1078300091FC62E0A01DFFF777FA5EE022464089E6
:1078400034F8061F814200D808466080172800D20D
:1078500017206080106970B1607960B1D8E90010BC
:10786000CDE90310ADF80E506088ADF81000136933
:1078700003A9104698476671267115B0BDE8F083DC
:107880000146204601F0B4FC37E0011D342206A871
:10789000FBF7F2FDBDF81800BDF81C2004EBC00199
:1078A0004A7322694AB3D8E90432CDE90432ADF80B
:1078B0001200487B8DF814002269204604A99047E5
:1078C0001BE00496059630F8041F04EBC102017911
:1078D000127B8A4200D21146ADF81010ADF812109A
:1078E0000088002204A990DF020006D0B9F8000049
:1078F0000F4907EB004000F0DBFFA07A0028BCD066
:10790000E18828469EDF02000BD0112AB5D0B9F8D5
:10791000000015B007EB0040BDE8F043054900F05A
:10792000C7BFA672E772A8E7ECC00200D42200200D
:10793000E4C402005CC4020000F18040006800283A
:1079400000D00120704708B500F18040002101609F
:107950000068009008BD000000283ED01F49204A62
:10796000096800BF00BF00BF00BF00BF00BF00BF6D
:1079700000BF91422FD000BF00BF00BF00BF00BFBB
:1079800000BF00BF00BF00BF00BF00BF00BF00BFFF
:1079900000BF00BF00BF00BF00BF00BF00BF00BFEF
:1079A00000BF00BF00BF00BF00BF00BF00BF00BFDF
:1079B00000BF00BF00BF00BF00BF00BF00BF00BFCF
:1079C00000BF00BF00BF00BF00BF00BF00BF00BFBF
:1079D00000BF00BF00BF0138C3D17047BC220020E8
:1079E0000024F40070B54FF010246169104D012699
:1079F000491C288814D06269032101EB00400DA1C5
:107A000000F056FF606913DF040007D0288814A136
:107A100006EB004000F048FF204670BD002070BD1E
:107A200006EB00401BA100F03FFF042070BD0000EA
:107A30001C23002053657474696E67207665637437
:107A40006F72207461626C6520746F20626F6F7456
:107A50006C6F616465723A203078253038780000A8
:107A60004661696C65642072756E6E696E6720731D
:107A7000645F736F66746465766963655F7665637A
:107A8000746F725F7461626C655F626173655F736E
:107A9000657400004E6F20626F6F746C6F61646577
:107AA000722077617320666F756E640070B50C4D3F
:107AB00003210C4A288801EB00400BA100F0F8FEDE
:107AC000084813DF040008D02888012101EB00409A
:107AD00010A100F0E9FE204670BD002070BD00003E
:107AE0001C2300200030020053657474696E672007
:107AF000766563746F72207461626C6520746F20A8
:107B00006D61696E206170703A2030782530387868
:107B1000000000004661696C65642072756E6E69D4
:107B20006E672073645F736F6674646576696365FE
:107B30005F766563746F725F7461626C655F6261CA
:107B400073655F736574000070B50F4C0025207875
:107B500008B1852516E00021A16061602161E16026
:107B60004FF0E020D0F80001012610F0010F03D102
:107B70000721002000F02DF801F030FA08B9034881
:107B800006602670284670BDAC2A0020180500400B
:107B900008B500208DF800006846FCF7D7F90648C4
:107BA000C168491EC160C06808B9FFF7A9F89DF80F
:107BB0000000FCF7EFF908BDAC2A002000F01F021E
:107BC000012191404009800000F1E020C0F88011BF
:107BD00070474907090E002806DA00F00F0202F18B
:107BE000E02282F8141D03E000F1E02282F8001484
:107BF00000F01F02012191404009800000F1E020C7
:107C0000C0F88012C0F800117047000B40B27047F6
:107C10002DE9F0418846054602F016F9234E00286A
:107C200028461AD0FDF764FD304490F848008009DA
:107C3000032802D001280ED007E04FF0A040D0F872
:107C40001005E84010F0010F05D003212846BDE8DB
:107C5000F04100F035BC0221F8E702F001F90028FC
:107C600022D02846FDF744FD04464FF4807000EB17
:107C700084000F4F81B207EB8400D0F8102542F04A
:107C80000102C0F81025084600F04AFCB8F1000FC8
:107C90000AD02846FDF72CFD56F82000002803D016
:107CA0000120A040C7F80403BDE8F081C02A0020ED
:107CB000006000402DE9FC41DFF8A480044608EB99
:107CC0000400002790F930001346C0170E46401CF0
:107CD00001D0082741E0F27819462046FDF7E4FC80
:107CE0000546401C38D0B07850B14FF0A04000EBB2
:107CF0008400D0F8001721F00201C0F8001707E057
:107D000000217378204600910A46019100F087FB1C
:107D1000F078C0B11348317800EB8500D0F8102519
:107D2000114B1A40C0F810254FF4F8524FF440336D
:107D300002EA042203EA01410A43D0F810150A437B
:107D4000C0F8102509E008EB0500327810F8481F4C
:107D500041EA8211017000E004273846BDE8FC8149
:107D6000C02A002000600040FFE0FCFF4FF0A0416F
:107D7000D1F81015C14011F0010000D0012070476A
:107D800070B5144D95F8540008B1082070BD00205E
:107D9000411E2A18401CC0B282F830102028F8D3A7
:107DA00000242046FDF772FC641CE4B20C2CF8D3CE
:107DB00007210620FFF70DFF4FF4BE7000F0B0FB67
:107DC00005494FF00040C1F80403012085F8540034
:107DD000002070BDC02A002000600040034890F8D9
:107DE0005400002800D0012070470000C02A002065
:107DF0000121B1EB507F01D1012070470020704775
:107E00002DE9F04105460079164F904607EB4014E6
:107E10000E46E07E10B10820BDE8F081707F20772B
:107E20002846FCF7D1F85FEA0800606031692160FC
:107E300003D0317F2846FEF7CBFE287907EB4010B0
:107E4000007F0028286801D0082100E00421C0F844
:107E500000150020E0752076A0750121E176A0765E
:107E6000DAE70000182B00202DE9F04705460079DD
:107E70003F4E904606EB40140F46207F18B108464F
:107E8000FFF7B6FF30B1284600F074F820B111209A
:107E9000BDE8F0871020FBE784F81680A760002774
:107EA000A78228794FF0010806EB40143E46207F58
:107EB0000028286825D04FF49079494601F024F92C
:107EC0004FF4AC7A5146286801F01EF92868A17D6C
:107ED000A268C0F84425C0F848152868C0F8088092
:107EE0006068F0B94946286801F009F980465146B2
:107EF000286801F004F958EA0001F3D058BBA775CF
:107F00000FE04FF48E7A514601F0EDF82868C0F882
:107F100008802146286803F0ADFC61684FF480704A
:107F200089B13046B4E75146286801F0D7F810B956
:107F3000A08A4845F7D1A08A484505D0214628683F
:107F400003F098FC00E08146A08AA17D8842EAD334
:107F5000A08A484501D10F26D1E75146286801F093
:107F6000BDF80028F9D02868C0F80C80C7E70000E9
:107F7000182B00200079044901EB4010807D002877
:107F800000D0012070470000182B002070B5044677
:107F900000791149002601EB401520682A7FC0F8BE
:107FA0000065686888B1207901EB4010007F0028E7
:107FB000206801D0094901E008498C39C0F808134C
:107FC0002068FFF722FEFFF7F9FD204601F054FF7D
:107FD000EE766E6070BD0000182B002010030200CA
:107FE0000FB408B50399002904D004AA00926A4688
:107FF00000F00FF801B05DF814FB10B5826804467C
:10800000002A05D0D4E90403216898470020A06025
:1080100010BD2DE9FC4791460C00804676D014F83F
:10802000011B39B125290ED04046FDF711FB207800
:108030000028F4D198F80C00002867D04046BDE82D
:10804000FC47FFF7DABF0020012221782B291BD043
:108050002D2902D0302908D102E040F0010001E0D2
:1080600040F00200641C002AEFD100252A290ED01E
:108070002178A1F130020A2A11D205EB850201EB29
:108080004205641C303DF1E740F00400EAE7D9F80E
:1080900000100B1DC9F800300968641C0D442178DC
:1080A00000232E290BD114F8011FA1F130020A2A56
:1080B00005D203EB830201EB4203303BF3E76C296B
:1080C0000DD068290BD0692921D00BDC252918D0C7
:1080D000582931D063290ED0642915D117E014F83E
:1080E000011FECE7702969D0732932D075291BD0A4
:1080F000782909D120E0D9F80000011DC9F8001045
:1081000001784046FDF7A4FA641C90E76CE0D9F8CA
:1081100000100A1DC9F800200968CDE900500A22A4
:108120004046FEF701FDEFE7D9F800100A1DC9F837
:10813000002009680A2206E0D9F800100A1DC9F8D3
:10814000002009681022CDE90050404603F0ECFC05
:10815000DAE7D9F8001000270A1DC9F800200E68D8
:10816000C00705D112E04046761C7F1CFDF770FA6F
:1081700031780029F7D104E0202140466D1EFDF73B
:1081800067FABD42C0D9002DF6D1BDE74EB13046E9
:10819000FBF796F9074604E0202140466D1EFDF7E7
:1081A00057FABD4206D9002DF6D103E04046761CB1
:1081B000FDF74EFA31780029F8D1A5E7D9F800008B
:1081C000011DC9F80010056830214046FDF740FA4E
:1081D00078214046FDF73CFA08200021CDE9000156
:1081E000034610222946B0E7BDE8FC872DE9F0419F
:1081F0001F46154604000E4616D02068B8B1C5B11A
:1082000060680268501E304215D16A432046FBF771
:10821000BEFC80B120683B462A46D0F810C03146EB
:108220002046BDE8F04160470E20BDE8F0810820FF
:10823000FBE70920F9E71020F7E720B119B1016049
:108240000B68114618470E20704700002DE9F041D9
:1082500028B1016819B14969BDE8F04108470D4DE1
:108260000D480024461B14270DE000BF04EB8400DA
:1082700005EB8000016829B14969884710B10120E8
:10828000BDE8F081641CB6FBF7F0A042EED80020F8
:10829000F6E70000C0220020D422002008B1012807
:1082A00008D1054801218170017809B9407808B1E9
:1082B000002070470120704748220020012801D08B
:1082C000032808D10449002201288A7000D0002028
:1082D000C87002F07BBA704748220020F0B52B4EE0
:1082E000074687B030780025F0B3294C022F206F65
:1082F000C0EBC00004EB8001304602D0032F39D11F
:1083000017E04560087910B1012833D10AE0D1E9BE
:108310000502801A4FF48053984200D31846104447
:10832000886102E00869401C08614A69904206D0F1
:1083300020E04268521C4260082A1BD945601C227A
:108340006846FBF799F8606F401E6067206F401C1D
:108350002067042800D125673570022F05D00D2134
:108360006846FDF7CDFB05E001E00021F8E77078F5
:1083700000B17570B07820B107B0BDE8F04000F0F2
:1083800033BE07B0BDE8F04002F020BA482200201A
:10839000342D00202DE9F8431D46089F16468846D7
:1083A00004000DD066B1206860B135B160684068E6
:1083B000B5FBF0F100FB115030B10920BDE8F883A6
:1083C0000E20FBE70820F9E74046FBF7DAFB90B107
:1083D0003046FBF7D6FB70B12A4641462046FBF7F4
:1083E000D6FB40B1009720682B463246C76841460D
:1083F0002046B847E2E71020E0E770B541EA4201C5
:10840000DDE904564FF0A04441EA830141EA052129
:1084100004EB800041EA0641C0F8001770BD70B55A
:1084200041EA4201DDE904564FF0A04441EA8301EC
:1084300041EA052104EB800041EA0641C0F800173B
:1084400070BD70B541EA4201DDE904564FF0A04429
:1084500041EA830141EA052104EB800041EA06413B
:10846000C0F8001770BD1CB5002100910B46012219
:108470000191FFF7E6FF1CBD1CB500220B460092E0
:1084800011460192FFF7DDFF1CBD1CB500210091D4
:108490000B46012201911146FFF7D3FF1CBD4FF09F
:1084A000A04202EB8000D0F8002722F44032C0F84E
:1084B0000027D0F8002742EA0141C0F800177047B2
:1084C0004FF0A04202EB8000D0F8002722F44032A7
:1084D000C0F80027D0F8002742EA0141C0F8001791
:1084E000704701224FF0A043824011B1C3F8082524
:1084F0007047C3F80C25704718B5084B6C4601440B
:108500001B68009306E000BF54F82030D3F8103504
:10851000401C08C28142F7D818BD000074C1020097
:10852000034908B50844002101600068009008BDB7
:108530000060004002494058012800D000207047E8
:108540000060004070B5184A0024D2F81034194673
:1085500009E00D7AA54205D1641C0A2CF7DB4FF027
:10856000FF341FE049680029F3D1611C1AD004725E
:10857000D2F8101431B149684160D2F81014486043
:1085800000250BE00021C2F810044160F8E7002349
:108590001A462946204600F031FA6D1C00F024FAF4
:1085A000A842F4D8204670BDD82E0020F0B595B072
:1085B0001C4615460F4608461A9E00F0F7FA182189
:1085C00009A8FAF772FF0E96CDE909540023082294
:1085D00003A9384600F004FB059806900498ADF80E
:1085E0001C0000208DF820000398082600F00300EE
:1085F000012802D002281DD03CE003983346850AAA
:10860000C0F3C2008DF81E0003980FA9C0F38000CC
:108610008DF81F000398C0F38314A200384600F0C1
:10862000DFFA09A8009006AB22460FA9284600F001
:1086300019FA1FE00398840DC0F3C2008DF81E00E4
:108640000398C0F380008DF81F00082C01D2254646
:1086500000E0082533462A460FA9384600F0C0FA44
:108660002E44641B09AB06AA29460FA800F038F96E
:10867000002CEAD1384600F0A2FA15B0F0BD7047E0
:10868000012003F01BB9000010B50448FFF77EFC81
:10869000BDE81040002003F011B900005C2200206A
:1086A00008B5034A00924023024AFFF77FFF08BD46
:1086B000EDAE0200D82D0020084A012902EBC000CF
:1086C00005D0022903D0032903D0042903D00020B8
:1086D00070470079704740797047000000CB020076
:1086E00010B5FFF7CDFF04210348FFF72BFF024928
:1086F0000120487210BD0000642200202DE9FE4FC9
:10870000FCF7B6FF10B10020BDE8FE8F63480021E2
:10871000C0F81414D0E9014604EA060100EB810117
:108720004FF000090AE000BFC1F3891202EB91513A
:10873000641C0C4404EA060100EB8101C9688A0745
:10874000F2D000216A46804604EA060008EB800069
:10875000641CC06842F82100491C0229F4D3009827
:1087600000F00300022800981CD0C0F383110629F2
:1087700000D3062161F389100090C0F38310801CA0
:108780008100474800F0C9F9070075D000F00EFAE3
:108790004B4608226946384600F028FA09F10809D4
:1087A000002557E0810D50228A46B2EB905F00D839
:1087B00050210D4665F39F5000900831384800F075
:1087C000ACF9070058D000F0F1F94B460822694691
:1087D000384600F00BFA04EA0601701A8000001D0A
:1087E00009F1080B854220D92C4E0C3630B1C2B2AB
:1087F00008EB8101281A91460C3104E03146EAB2B7
:10880000002691463046C5B25B46384600F0EEF988
:108810000BEB090326B12A463146384600F0E6F94B
:108820000AF1030004EB90041AE008EB81015B46B7
:108830002A4638460C31F1E704EA060008EB8001CD
:108840004B46042238460C31641C00F0CFF909F184
:1088500004096D1C0098C0F38310A842ECD85FB1E6
:108860001048FEF74DFFD8F81054464605B140B108
:10887000384600F0A4F97460FCF7FAFE80F00100BD
:1088800042E7687A012804D12A68284639461268E6
:1088900090476D68002DF4D1EAE70000D82E002043
:1088A0001CC30200EC32002000231A4602F0AABECC
:1088B00008B5012300926A4602F0A4FE08BD1CB56B
:1088C000CDE9002302236A4602F09CFE1CBD3EB5A2
:1088D000069C8DE81C0003236A4602F093FE3EBD11
:1088E0002DE9F0470E4680461C46924608293ED8A0
:1088F00094F80C90002020731946104601F0CCFE2D
:108900000025B54206D218F805201AA12046FFF727
:1089100067FB03E019A12046FFF762FB6D1C082DE1
:10892000EFD317A12046FFF75BFB0025B54210D21D
:1089300018F80570FAF79CFD0068C05D10F03E0F56
:1089400001D03A4600E02E220EA12046FFF748FB58
:1089500003E00DA12046FFF743FB6D1C082DE5D376
:1089600001222146504601F079FE84F80C90BDE8C2
:10897000F087000020253032780000002020200001
:108980007C0000002563000020000000114810B5A5
:10899000FF218160002101604160C0F81814C0F817
:1089A000141480F81C140C4800F007F900280FD1AB
:1089B0000A480B490B4B401AC108002005E000BFD4
:1089C00000EB400223F82200401C8842F8D300202C
:1089D00010BD0000D82E00201CC3020050CB0200A6
:1089E00000CB0200D422002002480349401AC008EC
:1089F0007047000050CB020000CB02001FB51146AB
:108A0000002443B901A8FEF7CDFD20B90348019920
:108A100000EBC100847904B0204610BD00CB0200F9
:108A200013B56846FEF7BEFD08B100201CBD024824
:108A3000009950F831001CBD00CB020070B5084809
:108A40000125D0F8104480F81C5405E065722168B7
:108A50002046496888476468002CF7D170BD000043
:108A6000D82E00202DE9FF4781460C9D00200C46A2
:108A70002F7B2873984616462946184601F00CFEAF
:108A8000072E42D2DFE806F004090F161F2A36002F
:108A900049462846FFF7A4FA37E0494628462268A7
:108AA000FFF79EFA31E0D4E9002349462846FFF754
:108AB00097FA2AE0A0680090D4E9002349462846A6
:108AC000FFF78EFA21E0D4E90201CDE90001D4E9F3
:108AD000002349462846FFF783FA16E004F1080010
:108AE00007C88DE80700D4E9002349462846FFF768
:108AF00077FA0AE004F108000FC88DE80F00D4E906
:108B0000002349462846FFF76BFA002229464046D3
:108B100001F0A4FD2F73BDE8FF872DE9F041058A20
:108B200080462D1F4819C01CB0FBF5F0C6B2404668
:108B3000FEF7F3FD041E19D00020207101206071A2
:108B4000E58000272546761EC4F800800BE04046ED
:108B5000FEF7E3FD60B16179491C6171286005464B
:108B60007F1CC0F80080B742F1D32046BDE8F081F9
:108B7000204600F002F80020F8E72DE9F0414579A1
:108B800001466B1E002201E00968521C9A42FBD389
:108B90000F680146002605E038460C68FEF7DFFD49
:108BA0002146761CAE42F7D3BDE8F08108B501211D
:108BB0006A46001DFAF761FB08BDFEF7E8BD38B54F
:108BC0000446001D01216A46FAF764FB009810F084
:108BD000FF0F04D12046BDE83840FFF7CEBF38BDB7
:108BE00038B501240094FEF7A1FC38BD38B5002447
:108BF0000094FEF79BFC38BD0F4910B5002048706B
:108C0000091D0860BFF35F8F0C490D4800F018FA8A
:108C10000A480C4A0121001FFBF708F9002809D176
:108C200006480022001F4FF400410068BDE81040D4
:108C3000FBF738B910BD000050220020E0C102004F
:108C4000CC2D0020C58C020008B500208DF8000056
:108C50006846FBF77BF9F1EE100A20F09F00E1EE89
:108C6000100ABFF35F8F08494020C1F880029DF8C9
:108C70000000FBF78FF900F0B1F908B13EDF08BD45
:108C800020BF40BF20BF08BD04E000E0F8B50446A7
:108C90000B4801216A46FAF70BFB0025002809D191
:108CA0000121074E042C08D0301F42781AB13560DC
:108CB000BFF35F8FF8BD0470417002F007FAF6E76A
:108CC0005422002003484078002802D00420FFF7F7
:108CD000DDBF70475022002020B103494968016080
:108CE000002070470E207047A0C302002DE9FE430C
:108CF00002460E460846FFF7EFFF00286FD100241A
:108D000000940194012503208DF80020ADF80400A3
:108D100002948DF8025069462020326869DF314F95
:108D200040B100F0D1F9024638882F4905EB0040E8
:108D3000FFF7BEFD00948DF800508DF801400194BE
:108D400002948DF8024069464020326869DF40B1E4
:108D500000F0BAF902463888244905EB0040FFF7D5
:108D6000A7FD0094019402948DF8005069460120FB
:108D7000326869DF40B100F0A7F9024638881C4923
:108D800005EB0040FFF794FDDFF868800194029442
:108D9000D8F8080000906946A120326869DF40B128
:108DA00000F092F902463888134905EB0040FFF7BE
:108DB0007FFD00940194029498F800008DF8000063
:108DC0006946A020326869DF40B100F07DF90246B3
:108DD00038880A4905EB0040FFF76AFD0020BDE82E
:108DE000FE83000034230020F0C9020038CA0200CC
:108DF00050C90200A0C302009CC90200FCC80200C6
:108E00002DE9F0410446076860DF2268134D0646ED
:108E1000BA4214D02888022707EB004010A1FFF7C0
:108E200047FDF806D0F80C012168800200F10050DF
:108E3000421A288814A107EB0040FFF739FD56B10C
:108E4000304600F041F902462888012101EB00403C
:108E500017A1FFF72DFD3046BDE8F0813423002037
:108E600052414D2073746172742073686F756C6425
:108E70002062652061646A757374656420746F2074
:108E8000307825782E00000052414D2073697A65B4
:108E90002073686F756C642062652061646A757305
:108EA00074656420746F20307825782E00000000EF
:108EB00073645F626C655F656E61626C6528292012
:108EC00072657475726E65642025732E0000000053
:108ED00030B593B05FF03805ADF8445011A903A840
:108EE00061DF30B1052816D013B0BDE83040FAF785
:108EF0004BBF03AC0949684600F0A2F807E000BF89
:108F0000D0E9002120469047684600F0B0F802986A
:108F10000028E1D0F4E713B030BD0000ACC302007C
:108F200010B50E4C2078B8B10120A07001F060FEA1
:108F300011280FD0022001F073FE11DF00280AD1A2
:108F40002070A070162001F0D1FD002803D103206D
:108F500001F066FE002010BD082010BDB8220020E0
:108F600038B5124C207808B1082038BD0125A5700D
:108F7000002001F03DFE112815D0002001F050FE28
:108F80000B480C4900680090684610DF0028ECD1BF
:108F90002570A0706070162001F0C8FD0028E4D193
:108FA000012001F03DFE002038BD0000B822002065
:108FB00040C30200113D02000EB50749684600F0AB
:108FC0003FF805E0D0E900108847684600F04FF808
:108FD00002980028F6D10EBD5CC30200014800785B
:108FE00070470000B82200200548817819B1007848
:108FF00018B1FFF795BF08207047FFF7B1BF000019
:10900000B82200201FB5684648DF30B1052814D0CB
:1090100004B0BDE81040FAF7B7BE084901A800F057
:109020000FF806E0D0E900210098904701A800F071
:109030001EF803980028E6D0F4E71FBDC8C302005D
:10904000016009684160AFF3008010B5D0E90021EC
:109050005368994201D1002104E0D1E90034A342D0
:1090600002D01946816010BD08314160F0E7816887
:1090700000290BD0026892680A44826041684B68FC
:109080009A4203D108314160FFF7DFBF704700000B
:109090000C4A10B502F1F0030EE0991AC91001EB69
:1090A000D171491002EBC1010C68844201D90B4611
:1090B00002E005D201F108029A42EED3002010BD71
:1090C000486810BD00C2020000B5FFF7E1FF0028AC
:1090D00000D1014800BD0000ECC10200405800284A
:1090E00000D00120704708B500224250405800903F
:1090F00008BDD0F80403084000D001207047405854
:10910000002800D00120704708B500224250405886
:10911000009008BD10B550B103280CD10220FCF717
:1091200031F9002807D0BDE81040FAF72DBEBDE8A0
:10913000104002F009B810BD0078002807D104489B
:109140003B21008876DF002801D0FAF71DBE70476A
:10915000802100202DE9FC418E88027900EBC605B4
:10916000AC1D2A73C97B012902D0022904D101E078
:10917000008800E040882080218860880127DFF88F
:10918000648081420CD930469EDF020025D0112A2E
:1091900025D0B8F80000144907EB0040FFF788FB22
:1091A000A079E179884216D9002000900190287BAF
:1091B000ADF80000287BADF8020000226946304679
:1091C00090DF030007D0B8F80000324607EB0040FC
:1091D0000649FFF774FBBDE8FC816771E0E7277182
:1091E000DEE70000D42200205CC402002CC502008F
:1091F0007CB506468D88C88806EBC504A41D1728D3
:1092000000D217202188814200D8084660800020C3
:10921000207121882846ADDF020007D00E480121C9
:10922000008801EB00400D49FFF742FB6079002800
:1092300010D1306900280DD00948D0E90210CDE9DD
:109240000010ADF802506088ADF80400326969463C
:10925000304690477CBD0000D4220020A0C402000C
:10926000ECC002007FB51A4D8188AA8891422DD1A9
:1092700010F8061F022929D14188EA88914225D198
:10928000017A042922D0062920D005291ED0841C69
:109290000020009002210190029003908DF80010B0
:1092A000297E19B101218DF8061001E040F2FD1070
:1092B000ADF80400A8886946A8DF1128FAD0BDF8E7
:1092C0000400002802D12046FBF72CFC7FBD0000E3
:1092D000682A002010B50B4C01460020626F032A5B
:1092E0000FD894F87000104400F00300C0EBC000E9
:1092F00004EB80001C22FAF7BFF8606F401C606727
:10930000012010BD8C2C00200389CA1C1A44028144
:109310004289511AC91E4181704700002DE9F0476A
:1093200000F58055002700F10804022090460E4603
:109330000880DFF8489012E02046FDF7E7F9D0B149
:10934000A068D9F80420904201D9C9F804006088C7
:10935000318804EB80040844C01C30800C34AC42DB
:1093600002D22068401CE7D1B8F1000F01D088F884
:109370000070BDE8F0870127E9E7000030220020F7
:1093800008B50021009101460823024A0248FFF770
:1093900001F808BD8CC10200C022002008B50020E1
:1093A000009004480823044A01680448FEF7F2FFCD
:1093B00008BD00004022002084C10200C02200201D
:1093C0002DE9F05F0025374FDFF8DC80DFF8DC9017
:1093D000DFF8DCB02C46AA462E46F86800EB0630D3
:1093E0000268424505D1334A4168891830D00129C5
:1093F0000DD000214FF4806250F821305B1C33D037
:1094000009EB041103200870641CA4B219E0BAF13E
:10941000000F09D0022209EB0411641C0A70DBF86A
:1094200000304B600A81A4B200220BF10401CBF89A
:109430000000FFF773FFBBF80400022830D00820BB
:109440000543761CB6B2032EC7D3E8B2BDE8F09F41
:1094500009EB0411002201F8042B01C18A1DFFF75A
:109460005DFF45F00205CFE7491C9142C4D3DBF80C
:10947000002059465AB109EB041102220A704860D3
:109480000A480A8120304480641CA4B205E00860C8
:109490000220ABF804004FF0010A45F00105D0E7C7
:1094A0000420CDE7C0220020DEC0ADDE042D002068
:1094B0004022002002FEE10E70B5184D0E46044613
:1094C00023CD86B08DE82300154DADF80420ADF80E
:1094D00002408DF80630A9782046FBF78DF918B1C7
:1094E0003046FDF75DFA0FE00721304600F0BAF98B
:1094F00050B1052808D109218DF80C100490ADF861
:109500000E4003A8FCF768FB002229782046FBF7F1
:1095100089F96846FCF760FB06B070BD48C10200DF
:10952000E8210020F0B591B00746FBF757F9002875
:1095300014D06846FBF70CF900246D460BE000BF21
:1095400005EB44063946B088FBF756F910B1B088F0
:1095500001F0F4FF641C0098A042F1D811B0F0BDF6
:1095600070B5054D06460024304655F8241088474E
:10957000641C052CF8D370BD08C102003EB5104D27
:10958000002400BF04EB840005EB800002F03AFCED
:10959000641C082CF6D30124502008210094CDE946
:1095A00001100949C200074B01F5207000F0CEFC04
:1095B00008B103203EBD0348447000203EBD0000BA
:1095C0003C290020D0210020AC26002000F030BA39
:1095D00000F030BA2DE9FF410026044600960196BE
:1095E000029603964088ADF8020020798DF80400B9
:1095F00037462179608802F0DDFB21783F4D0A294A
:1096000047D2DFE801F005053319193537393F44F2
:1096100068B1417CC9070AD002F004FC8DF80070E3
:109620002078012800D000208DF808001AE00120E1
:109630008DF80000A06823E078B18168A2689142AB
:109640000BD1417CCA0708D06A6821F00101521C85
:1096500041F004016A6041741BE002208DF80000B3
:10966000E06803906846FFF77BFF12E003200BE001
:10967000042002E0052007E006208DF80000E068E5
:109680000290EFE7012607208DF80000EAE7E06886
:1096900002906868002826D0194C002505EB850744
:1096A00004EB8700417C4A0703D4C1F340013142F7
:1096B0001FD0817834F8270000F0E8F8C8B105EB36
:1096C0008501862834F82110ADF8021004EB8701DB
:1096D00089788DF8041008D009218DF800100290C7
:1096E0006846FFF73DFFBDE8FF8108208DF80000C8
:1096F000F6E76D1C082DD1D3F5E70000D02100203E
:109700003C29002000F047BA002300F0C5B938B565
:1097100005460024204609E08178284600F0A2F89A
:1097200010B1052800D003240098401C0090694621
:10973000284602F051FB0028EED134B9284600F04B
:109740002EFA10B1072802D00324204638BD072482
:10975000FBE71346002200F0D3B900002DE9F047E3
:109760005FEA030815460E46824604D0072E05D050
:10977000082E17D102E00E20BDE8F08795B1082D24
:1097800010D8504600F016FA60B14FF0000931468B
:10979000504602F00FFB041E25D0E068A84213D209
:1097A0004F460AE04FF00700E6E7207C3844C1B29C
:1097B0002B4800F0FFFB7F1CFFB2E068B842F4D8F2
:1097C000204602F01FFB0EE017D9EFB207E0207C25
:1097D0003844C1B2224800F0EDFB7F1CFFB2E068C4
:1097E000B842F4D84CB95746FF214FF6FF7002F04B
:1097F000E1FA041E05D00780A670207CFF2802D065
:109800000CE01120B8E72946154800F071FB01462D
:1098100020462174FF2913D04FF00109E560217C17
:109820000F4800F0B3FB02000DD0ABB2314640460A
:1098300000F04CFAB9F1000F10D0082E05D00DE061
:1098400002F0E0FADDE7032096E7B8F800006FF0D9
:10985000050101EB8000D8F80410888000208BE718
:109860002C29002070B5002402F0A4FA05000BD0CA
:10987000686820B100F0B7F9040000D0032428463E
:1098800002F0D0FA204670BD052070BD7CB50D46B3
:109890000646072903D0082D01D007207CBD0020F3
:1098A000009001908DF802502946304602F082FA6D
:1098B000040004D0607CC00703D000207CBD0520DC
:1098C0007CBD217C204800F061FB020022D02946AB
:1098D0006846E36800F08FF9684602F059FA04F12F
:1098E000080369463046626800F00AF90146627C66
:1098F0001648530704D5930702D543685B1E43609F
:1099000051B111290DD0862915D0072900D0032186
:1099100008467CBD03207CBD22F0060040F001001B
:1099200010E04168491C416022F0020040F0040050
:1099300060740021ECE743685B1C436022F0040084
:1099400040F002006074E3E72C290020D0210020C1
:109950007CB50D46072903D0082D01D007207CBD1A
:10996000002602F027FA040002D0606810B11CE063
:1099700005207CBD217C0F4800F008FB02004FF061
:109980000000009001908DF8025010D029466846E2
:10999000E36800F030F9684602F0FAF9211D6846E4
:1099A00000F00AF90646092801D030467CBD0320A4
:1099B0007CBD00002C2900200149096808470000EF
:1099C00004C1020030B587B01748FCF7A3FA10B104
:1099D000032007B030BDFCF7D3F908B18620F8E7C3
:1099E00000F0C6F9002002904CF2070403900EE04C
:1099F000694604A8FCF75CFA00988088A0F540400E
:109A000085B204A8FCF716FA284600F06DF902AA00
:109A100004A92046FCF733FA0028E9D003490120C5
:109A200008700020D5E70000015C0200C42100207E
:109A300000F080B900F084B970B5054686B01446D0
:109A40000E4600F5404080B20E4A6946FCF717FA10
:109A500020B903A96846FCF72BFA10B1002006B024
:109A600070BDA570039840882080049860600398BA
:109A70008088A0F5404030806846FCF7DBF9012083
:109A8000EDE70000C821002002480021416081600C
:109A900070470000C4210020F0B587B01D46144671
:109AA00007460E46FF280AD8084600F0FFF830B1F6
:109AB00003AA3146384600F0E1F840B902E0072039
:109AC00007B0F0BD01A903A8FCF7F2F908B1052021
:109AD000F6E7A67001984088208055B1820028687A
:109AE000904204D802996068F9F7C6FC03E00420AC
:109AF000E6E70298606003A8FCF79CF90020DFE726
:109B00007FB586B01E460D460446FF282AD8A878A1
:109B100000F0CCF830B304F54040ADF80000A87870
:109B200003AA00F54040ADF802006868019028885B
:109B30000290A978204600F0A1F80528089813D0D3
:109B400010B108A8FCF712FA694603A8FCF7D0F98F
:109B5000B0B107281DD0082819D00E2817D003202F
:109B60000AB070BD0720FBE728B108AA694603A820
:109B7000FCF7C9F9ECE7694603A8FCF7C0F9E7E789
:109B80001EB1314603A8FCF78AF90020E8E711204E
:109B9000E6E78620E4E74FF6FF7000F0A5B810B5C1
:109BA000FF2801D9072010BD00F0A4F800F026F826
:109BB000002010BD00F0F0B870B504460D46807866
:109BC00000F074F858B121882846FCF7B5F9002850
:109BD00004D0072805D0092800D0032070BD072035
:109BE00070BD862070BD01B56846FCF7BFF900283E
:109BF00000D0032008BD9BB200F068B8F0B589B072
:109C000000264FF6FF7704963846059603E0204677
:109C100000F082F8204600F08DF80446B84208D0E3
:109C200004F5404080B204AA06A9FCF730F90A28DE
:109C3000EDD0114DA87800281AD1BC4218D00127C8
:109C400004F54040AF7080B2FCF756F8082811D0F8
:109C500000280DD0AE7009218DF80010CDE902600A
:109C6000FF21ADF802408DF804106846FFF7A4FE0E
:109C700009B0F0BD6F70FBE7C42100207CB505463C
:109C800016460C46084600F011F80020009005F535
:109C90004045019004F54044A8B2A1B26B4632465B
:109CA000FCF7E6F8002800D005207CBD07280BD083
:109CB000012809D0082807D0052805D0062803D098
:109CC000042801D0002070470120704710B503EB35
:109CD00083034FF6FF7404EA03138170DB1C9908B9
:109CE0004260018010BD00000149FBF709BD000082
:109CF000DC29002010B50446A0F57F40FF3807D0CE
:109D000004492046FBF7FCFCA04201D1012010BD14
:109D1000002010BDFC29002010B50446044900F0C5
:109D200099FE03492046BDE81040203100F092BE64
:109D3000DC2900200149FDF7CBBC0000FC290020F4
:109D400070B50A49FDF7C4FC04464FF6FF7507E0FD
:109D500000F02CF838B105492046FDF7B9FC04465F
:109D6000AC42F5D170BD204670BD0000DC2900205A
:109D700010B508484021F9F798FB4FF4807421464C
:109D8000044800F059FA21460248BDE8104020304E
:109D900000F052BADC290020FF2803D8014602480F
:109DA00000F079BA00207047DC290020FF2803D892
:109DB0000146024800F06FBA00207047FC290020DD
:109DC00010B50C46FCF758FBFF2804D0024900EB05
:109DD000400021F8204010BDAC2500201CB500F04B
:109DE000EFF908B1F9F7D0FF0020009001909DF83D
:109DF000000020F07E0040F00100303020F08000B4
:109E00008DF8000007208DF8010010208DF8020069
:109E10009DF8030040F003008DF803009DF8040056
:109E200040F003008DF80400684600F05DFB08B1C7
:109E3000F9F7AAFF034800F041FB002801D0F9F729
:109E4000A3FF1CBDE99F02000449084490F93000BB
:109E5000082801DB0120704700207047C02A00203D
:109E60000449084490F93000082801D201207047C5
:109E700000207047C02A002070B5034600791B49B6
:109E800001EB40101968027F4FF0FF30002AD1F833
:109E90000C25D1F81465D1F80855D1F8104504D037
:109EA000C1F80C05C1F8140503E0C1F81405C1F8A8
:109EB0000C051968C1F80805C1F81005501C02D03E
:109EC0001046FEF7D0FA701C02D03046FEF7CBFAEF
:109ED000601C02D02046FEF7C6FA681C04D0284653
:109EE000BDE87040FEF7BFBA70BD0000182B00201F
:109EF0002DE9F0410F46060026D0306820B3706887
:109F000010B3FF2400251CE02946706800F09BF97F
:109F100048B1FF2C00D12C46281B401CB8420ED162
:109F20002046BDE8F081FF2C06D108E021463046EE
:109F300000F040F8641CE4B2AC42F7D3FF246D1C7F
:109F4000EDB2B068A842DFD8FF20EAE72DE9F04182
:109F50000400DDE90705069E16D0A9B1A3B100FBF8
:109F600005F7974210D8C21DB6EBD20F0CD358B1EB
:109F700055B1E5602160C4E9013081B2184600F0B6
:109F80005BF90020BDE8F0810720FBE770B5040015
:109F90000D460DD0206858B1606848B1FF2D07D03C
:109FA00000F079F920B1E168206805FB010070BD7F
:109FB000002070BD70B504000D4611D02068002847
:109FC0000ED0606800280BD0FF2D09D000F063F997
:109FD000002805D029466068BDE8704000F067B9E8
:109FE00070BD01F0D1B80000F8B504460078224DEC
:109FF00003260F281ED2DFE800F0081D101D1E25C5
:10A000003C1D3A1D3C313C1D360028881BA106EB47
:10A010000040BDE8F840FEF747BC6088FAF7B0FBA7
:10A020000246207A00902888638806EB00401EA133
:10A03000FEF74DFCF8BD0020009060886946FFF7F0
:10A04000D0FFF8BDFBF77CFE0E28FAD00828F8D028
:10A050000028F6D0BDE8F840F9F796BEBDE8F84014
:10A060000020F9F7BBBDBDE8F84000F0DBB820697F
:10A07000EEE7A068ECE700001C230020436F6E6E43
:10A08000656374656420746F206120707265766901
:10A090006F75736C7920626F6E6465642064657699
:10A0A0006963652E00000000436F6E6E656374691E
:10A0B0006F6E20736563757265643A20726F6C65AC
:10A0C0003A2025642C20636F6E6E5F68616E646C4D
:10A0D000653A20307825782C2070726F636564753E
:10A0E00072653A2025642E0070B586B004461421AE
:10A0F0006846F9F7DAF96088ADF80400FCF7A4FBCC
:10A10000ADF80200257800200822072105230A2D3A
:10A1100029D2DFE805F005050C0E1017192B1D20BC
:10A120008DF809008DF800108DF808201BE00D2037
:10A130000BE00E2009E08DF809008DF800108DF875
:10A14000083010E00F2000E010208DF800000AE039
:10A150008DF8003007E006208DF80000A06802901E
:10A16000A088ADF802006846FBF720FD06B070BD80
:10A1700010B50446007886B0D8B1012817D10F4930
:10A18000608801224979FAF74DFB14216846F9F7F6
:10A190008CF96088ADF802006088FCF715FCADF81A
:10A1A000040000208DF800006846FBF7FFFC06B0B5
:10A1B00010BDE08800F044F9F9E70000D821002044
:10A1C00070B5FFF7FFFB48BBFFF7D8F930BB00F0D5
:10A1D000E7FF18BB01F0F0F800BBFCF7F7F8E8B9AF
:10A1E000FCF7B8F9D0B9FCF745FBB8B90C4C4FF601
:10A1F000FF700025E0801820A56020716071FAF7DB
:10A20000D7FA2071182809D0FAF7D2FA6071182805
:10A2100004D0657001202070002070BD032070BD47
:10A22000D821002003480078002801D0FCF7F2B8BC
:10A2300070470000D8210020002803D0C91DC9089C
:10A24000F9F733B97047002809D001F0070301225C
:10A250009A40D2B200EBD1001146FCF7E5BF70473F
:10A260002DE9F0410D46060013D0002401270EE031
:10A2700004F0070007FA00F0C1B206EBD400FCF7C7
:10A28000D3FF10B12046BDE8F081641CA4B2AC42FB
:10A29000EED32846F7E740B100EBD10001F007020A
:10A2A000007801219140084000D001207047F8B5A6
:10A2B0000400C1F3C70501F007014FF0010000FAE7
:10A2C00001F0C6B20FD0605D30420CD000208DF896
:10A2D00000006846F9F73AFE605DB04360559DF8AE
:10A2E0000000F9F757FEF8BDF0B58BB00446142115
:10A2F0006846F9F7DAF86088ADF80400FCF7A4FACC
:10A30000ADF80200237801200822072100264B4DDA
:10A310004FF6FF770A2B6CD2DFE803F00510263CDE
:10A32000444E6C8D85878DF8001021798DF80810CA
:10A330008DF8096003968DF80A0079E08DF8001019
:10A3400021798DF808108DF80960A16803918DF8C6
:10A350000A00A86800286BD0A168814268D1AE606D
:10A36000BDF80400E88013E08DF8002020798DF816
:10A3700008008DF80960A0680390E0680490A86860
:10A38000B0B3A168814253D1AE60E868401EE86076
:10A3900003964DE08DF8001021798DF808108DF8A6
:10A3A0000900F5E78DF8002021798DF808108DF867
:10A3B0000900A06804903BE009208DF80000A8780F
:10A3C000B0B13846FFF704F9B84231D13846FFF74B
:10A3D000FDF8B8422CD1AE70142105A8F9F765F844
:10A3E0000B208DF81400ADF81870ADF8167016E05B
:10A3F0001EE020E00A208DF80000A0680290A878F6
:10A40000B0B1AE70142105A8F9F74FF80C208DF803
:10A410001400ADF81870ADF81670A068079005A884
:10A42000FBF7C4FB04E0052000E006208DF80000E7
:10A430006846FBF7BBFB0BB0F0BD0000D821002045
:10A440000349097809B1FCF7ABBA0820704700004E
:10A45000D821002070B5184E86B03078D0B10120D8
:10A46000B0704FF6FF742046FFF7B2F80546A042E1
:10A470001DD10020B07014216846F9F716F80B20A2
:10A480008DF80000ADF80440ADF802406846FBF7D7
:10A490008DFB0EE0082006B070BD00BFFFF7D0FFB7
:10A4A00008B10320F7E72846FFF792F80546A542D2
:10A4B000F4D10020EFE70000D8210020084A1178ED
:10A4C00021B1D178032903D30420704708207047B5
:10A4D000044B43F82100491CD17000207047000054
:10A4E000D82100201C2A00200349097809B100F076
:10A4F0009BBE082070470000D82100202DE9F043C2
:10A5000085B00446012714216846F8F7CEFF60881D
:10A51000ADF80200504E94F800C000250720032239
:10A52000317973794FF00209BCF10D0F76D2DFE873
:10A530000CF0848F071A2D3E484D57646A6C8000DA
:10A5400001208DF80000207908B1012200E00022EE
:10A55000012806D000256088FAF764F960882A4649
:10A5600010E00125F7E78DF80090207908B101206F
:10A5700000E002208DF8080060880122FAF752F905
:10A58000227960887179FAF74DF957E08DF800204B
:10A5900060881946FAF730F908B1012000E002207E
:10A5A0008DF80800A0798DF80C00A0883EE0608846
:10A5B000FAF722F900284BD18DF800908DF8085059
:10A5C0003CE08DF800208DF80850EBE78DF8000096
:10A5D000A1888DF80800ADF804108DF8095034E01A
:10A5E00008218DF80010A1888DF80800ADF804103E
:10A5F0008DF80950A068049027E006208DF800002F
:10A60000606802901AE0052014E08DF80020608850
:10A610001946FAF7F1F810B1012001E00DE002202F
:10A620008DF808008DF80C5041F20110ADF80A00C9
:10A6300004E004208DF8000000E000276088FCF7AB
:10A64000C3F9ADF80400002F02D06846FBF7AEFA5C
:10A6500005B0BDE8F0830000D821002010B50C46FD
:10A66000C17949B11AB109A12046FDF7B9FC2046CC
:10A67000BDE81040FDF7C1BC007A0028F3D00448C3
:10A6800004A102682046FDF7ABFCECE70D0A0000D0
:10A69000942200202573000070B50446C0790D4651
:10A6A00000281CD1207A50B1A179A088FEF704F8C7
:10A6B0000B4951F820200BA12846FDF791FCA088FA
:10A6C0000021FEF7ADF903460549A079143951F888
:10A6D00020202846BDE8704003A1FDF781BC70BD75
:10A6E00094220020257300003C25733E2025733AF8
:10A6F0002000000070B50C490446486F042811D0B2
:10A700000A6F0244042A00D3121F401C4867C2EBA0
:10A71000C20001EB800005461C21F8F7C6FE0120AF
:10A72000256070BD002070BD342D0020F0B5264C92
:10A73000002785B0216F41F61D56C1EBC10104EB26
:10A7400081052978072919D2DFE801F018040808E3
:10A750000C0C10002946FCF77DF909E0294601F0B0
:10A76000EBFB05E02946FBF7BBF801E0FBF77CFCBF
:10A77000002822D0B04202D1019701E00F200190C1
:10A7800069462846FBF772F96846FBF7A9F9206F7E
:10A790001C21C0EBC00004EB8000F8F786FE606F60
:10A7A00068B194F87010491C01F00301401EC4E91F
:10A7B0001C1004D00020FFF7B9FF05B0F0BD042045
:10A7C000FBF700FCF9E700008C2C0020F0B41F48D8
:10A7D000416F00292FD0016F1D4DC1EBC10100EB6E
:10A7E000810401262E70207910B101281BD113E0BD
:10A7F000D4E90501401A4FF48052904200D310462C
:10A80000B6EB900F01D2820800E001222069E368D4
:10A810000844194429DF03E0D4E90301084428DF90
:10A8200058B1112804D02046F0BC0321FBF768B9C9
:10A83000002028706E70F0BC7047E8780028FAD1CC
:10A84000F0BC00210220FDF749BD0000342D00209E
:10A8500048220020064810B50078400707D404209D
:10A86000FBF7CAFBBDE810400020FFF75FBF10BD3B
:10A870003022002004480178002904D140780028C3
:10A8800001D1FFF7A3BF70474822002010B5104642
:10A890001A46F8F7F1FD002010BD00002DE9F04741
:10A8A00007461E481C46154600780E46800702D40F
:10A8B0000220BDE8F08765B15CB1DFF864804FF03D
:10A8C0000009A088022827D208EB00100078F8B908
:10A8D00016E00520EDE720681FB181883A88914293
:10A8E0000ED11EB101883288914209D1806828605A
:10A8F000206868600A482030008928810020D8E755
:10A90000A088214600F05CF80028E4D1C4F800904B
:10A91000A088401CA080D4E70A20CAE7302200208B
:10A92000042D0020F8B505464068234F0C4600264C
:10A9300038B32249CA68824223D80969814220D3A8
:10A94000FCF7B6F9E8B128893989884219D1D5E9E7
:10A9500000018A68904214D10020A7F1200300BFB3
:10A9600003EB001252688A4205D202F580528A42F5
:10A9700001D9208011E0401C80B20228F0D30020D1
:10A98000F8BD268000960AE0009829688068884211
:10A9900005D100986860388928810120F8BD208899
:10A9A000694600F00DF80028EED12088401C80B2E6
:10A9B00020800228E6D3E2E7242D0020C0220020D8
:10A9C00070B50E460A68104901EB00151AB150889F
:10A9D00002EB80040CE06C6808340AE02046FBF7C8
:10A9E00095FE10B10120346070BD608804EB8004D6
:10A9F0000C34686800F58050A04202D92068401CE1
:10AA0000ECD1002070BD0000042D002038B50C46AC
:10AA10000021009101460423064A0748FDF7BAFCCD
:10AA200008B10E2038BD0549012001EB04118873DF
:10AA3000002038BD80C10200C0220020042D00206B
:10AA400043F6FE71A0F54040884201D801207047CE
:10AA5000002070470A46FF2803D801461046FFF73A
:10AA600026BC704770B5012670044FF0E021002528
:10AA7000C1F88001084C4010C4F84803C4F808032A
:10AA800066602F20FCF768FFA660044C2F20A560AD
:10AA9000FCF762FFA57070BD001001401C22002071
:10AAA00070B50546C87D0C4600284FF484712846D1
:10AAB0000AD0FEF718FBD5F81805627EE1688854C5
:10AAC000607E401C607670BDFEF70DFBD5F8180562
:10AAD00070BD1FB501238DF800308DF8081001926C
:10AAE000D0E90012684690471FBD000010B504462B
:10AAF000F9F722F868B10C4A936804F01F000121AD
:10AB00008140600943B152F820308B4342F8203035
:10AB100007E042F2010010BD800000F1E020C0F823
:10AB20008011002010BD0000642C002010B50446E8
:10AB3000F9F702F840B1002C09DA04F00F0000F137
:10AB4000E02090F8140D06E042F2010010BD04F17F
:10AB5000E02090F800044109082912D289B10129A6
:10AB60000FD004290DD00C4A936804F01F01012076
:10AB70008840610943B152F82130034342F8213043
:10AB800007E042F2020010BD890001F1E021C1F8A6
:10AB90000001002010BD0000642C002038B5002109
:10ABA000012558B101280ED003280BD10721002020
:10ABB000FDF70FF8BDE83840FCF7EABF4FF0E020A2
:10ABC000C0F8805138BD8DF800106846F9F7BEF91D
:10ABD000064C207808B9FCF7B7FFE068401CE0603D
:10ABE000A5709DF80000F9F7D5F938BDAC2A002012
:10ABF0003EB5044609496846FEF722FA08E000BF60
:10AC0000D0E900212046904730B16846FEF72FFA80
:10AC100002980028F4D13EBD11203EBD44C302007D
:10AC20003EB5044608496846FEF70AFA07E000BF49
:10AC3000D0E90021204690476846FEF718FA0298AE
:10AC40000028F5D13EBD000050C3020070B50028B9
:10AC5000049D18D0002916D0002A14D05FF00004FB
:10AC600030F814609E420FD100200123A34008E079
:10AC700001EB800426680DB11E4300E09E43401C9A
:10AC800026609042F4D370BD641C202CE8D370BDC4
:10AC900070B5054600242146284600F00AF808B1A0
:10ACA000204670BD641CA4B2202CF4D34FF6FF7074
:10ACB00070BD01228A40024201D00120704700206D
:10ACC000704730B40B4660B1002130F81140944217
:10ACD00004D130BC89B21846FFF7EBBF491C2029CC
:10ACE000F3D330BC002070472DE9F04192B080468C
:10ACF0004FF0000017460D00009012D000246E4661
:10AD0000A1B23846FFF7D5FF40B1009935F81400DD
:10AD100006EB410188800098401C0090641C202CA8
:10AD2000EED3442269464046F8F7A6FB12B0BDE8D0
:10AD3000F08108B5009313460122FFF787FF08BD95
:10AD40002DE9F04105460C3086B000278046FBF720
:10AD50004BFE064628884FF6FF74ADF80600A64263
:10AD600003D12888FBF730FE0646A64212D004AA7B
:10AD700007213046FEF7C8FC60B9059C94F84400F2
:10AD80003434C00705D1414604F11200FBF7B8FD89
:10AD900000B12746002328881A46394686DF48B185
:10ADA000092102908DF8041001A8FAF715FF06B0EA
:10ADB000BDE8F08100245FB12888002100F07EF812
:10ADC0000094012228880023314600F04DF8EEE778
:10ADD00006208DF8040041F20600ADF808008DF859
:10ADE0000A4001A8FAF7F8FE0094002328881A46C2
:10ADF000EAE7002835D00278910701D411062FD454
:10AE0000C2F3021104292BD8930703D5032901D1DA
:10AE1000110625D5437881788B4221D8072B1FD383
:10AE200010291DD8C1784B071AD40079430717D4CD
:10AE30000B0715D4030713D4D2074FEAC17201D010
:10AE400042B10FE062B989070AD4C10708D180076F
:10AE500006D407E0890705D4C10703D1800701D4D0
:10AE600000207047012070472DE9F047124D8846B9
:10AE70001F46164681462978089CF9F7D3FC8EB107
:10AE80003A4669784846F9F7CDFC2246A978484603
:10AE9000F9F7C8FC002C0CD041464846BDE8F04705
:10AEA000FBF743BD002C04D04046BDE8F047FBF75C
:10AEB00077BDBDE8F0870000E82100203EB5064CD4
:10AEC0001CCC8DE81C00ADF802008DF8041068461B
:10AED000FAF782FE3EBD000024C1020002498969E2
:10AEE000002900D008477047D824002010B5084C2E
:10AEF0000020D2B22070201DFCF7B6FF08B1F8F791
:10AF000043FF6078002802D021780029FAD010BDD4
:10AF100058220020F0B5144DA3B0E878F9F75EFC94
:10AF200000281ED011A8F9F713FC442211A9684685
:10AF3000F8F7A2FA00246F4610E000BF07EB4406C2
:10AF4000E978B088F9F758FC38B1B0882979F9F771
:10AF500053FC10B9B08800F02BF8641C0098A04294
:10AF6000ECD823B0F0BD0000A82100207CB50E492C
:10AF70000E4C0022D1E90001CDE900016946A0880C
:10AF8000FEF7E7FB4FF6FF7507E00846FEF720FBEC
:10AF9000A08000226946FEF7DCFBA188A94201D00F
:10AFA0001128F2D17CBD0000D0C00200B4210020E5
:10AFB000FEB5064601250024FBF792FB11281CD0A4
:10AFC00005DC30B3062830D0082808D12DE0A0F5E4
:10AFD0004051023911D0A1F54071FF392CD009211F
:10AFE00002908DF80010ADF804603046FBF7ECFCE1
:10AFF000ADF802006846FAF7C5FD2A46104D304606
:10B00000E978F9F70FFC224629793046F9F70AFC6E
:10B01000FEBD05208DF8000001243046FBF7D4FC6E
:10B02000ADF80200ADF80460E4E700253046FBF718
:10B03000CBFCFBF781FAE0E73046FCF77FF8DCE772
:10B04000A82100202DE9F0410746806A1446884671
:10B05000C8B3002531E000BFB96A05EB450001EB3C
:10B060008006B088801CFE2802D90C20BDE8F08143
:10B070002288401C08F8020020881622401C80B25A
:10B08000208008F800202088401C80B2208000EB3F
:10B090000801308800F041FD2188084480B22080FA
:10B0A000B28842B1B16871B14044F8F7E5F920883F
:10B0B000B188084420806D1CEDB297F82C00A8429E
:10B0C000CAD80020D2E7FFE70720CFE770B5194DB7
:10B0D000194C07E0016820788847002829D01548D6
:10B0E000FDF7C5FFA8680028F4D1FDF7A7FC00BF55
:10B0F000FDF704FB0028FBD1207803280CD00228A0
:10B100000AD0FDF76BFF00B132DF0C490120086067
:10B11000BFF34F8F20BFFDE7BFF34F8F0848016893
:10B12000084A01F4E06111430160BFF34F8F00BF93
:10B13000FDE770BDCC2D002050220020000500400E
:10B140000CED00E00400FA0510B50020FAF71AF93A
:10B1500008B1F8F719FEFAF773F808B1F8F714FE1A
:10B1600032DF002803D0BDE81040F8F70DBE10BD57
:10B1700010B500F0ABF803480078BDE81040FBF7CD
:10B1800033BF0000EC210020097821B100220349DF
:10B190008979F9F747BB0122F9E70000EC2100208B
:10B1A00010B51248FAF71FFF1048401CFAF71BFFB2
:10B1B0000E48801CFAF717FF0C48C01CFAF713FF63
:10B1C0000A48001DFAF70FFF0848401DFAF70BFF69
:10B1D0000648801DFAF707FF04488179182903D033
:10B1E0000121C171002010BD032010BDEC21002001
:10B1F00010B500780B4C082813D2DFE800F00A0ADB
:10B200000A0A0A0A0A046079FEF78CF96078FBF7EB
:10B21000EBFE2079FEF786F92078BDE81040FBF7B9
:10B22000E3BE10BDEC21002070B5094D04000AD02A
:10B23000FFF7DFFD48B120682861207928750120DB
:10B240002872002070BD0020FAE7072070BD0000C2
:10B25000EC2100203EB5044600780A2833D2DFE80E
:10B2600000F0050A25252525252525256088BDE82A
:10B270003E4000F063B914480021007A80B11248C2
:10B2800023791030007800F0010203B101239A42C3
:10B2900006D36279C0F3400002B10122904200D28D
:10B2A0000121608801230022FBF748FD20788DF8FA
:10B2B00000006088ADF80200D4E90101CDE9010188
:10B2C0006846FAF797FC3EBDEC2100203EB50446E7
:10B2D0000088192837D00ADC112821D013282AD059
:10B2E00014281CD1201DBDE83E40FFF729BD1A28B7
:10B2F00039D01E2813D12E4A07CA8DE80700A0882E
:10B30000ADF80200207A00F001008DF80400207AE8
:10B31000C0F340008DF805006846FAF75DFC3EBDBD
:10B32000207A3D2804D04FF48851A088002211E0F3
:10B3300041F23D01F9E70020009001900290A088C1
:10B34000ADF80200E8E7217A201D41B1427900887A
:10B3500002F0030203B0BDE83040FBF719BEBDE8C0
:10B360003E40F8F78DBEA088F9F7FAF90028A088CA
:10B3700015D0104D6978F9F73FFA20B9A08800225E
:10B380002978F9F74FFAA088ADF8020005208DF86A
:10B390000000A088F9F7ECF98DF80400BCE703B0D1
:10B3A0000122BDE8304041F20601FAF729BB000056
:10B3B0003CC10200E821002010B50D48FAF70AFE52
:10B3C0000B48401CFAF706FE0948801CFAF702FEFB
:10B3D00007480178182909D04178182906D08178C2
:10B3E000182903D00121C170002010BD032010BD19
:10B3F000E821002070B516460C460546F9F7C0F95D
:10B4000001280BD0022802D043F2020070BD324660
:10B4100021462846BDE87040FBF7DCBC28462146A3
:10B420007EDF70BD2DE9F74F8AB092460E460A982E
:10B43000F9F7A6F980464FF6FF754FF000092C4644
:10B440004F46202102A8F8F730F8B8F1000F19D0C4
:10B45000EEB13078DFF8E0B0C0073ED00A98FBF7D5
:10B46000B3FA0446A84205D1FEF74CF90446A842B7
:10B4700010D001276B4601220721FEF76FF9050066
:10B480000BD03FE043F202000DB0BDE8F08F4FF06B
:10B49000850926E00325009746E050210198F8F73A
:10B4A00004F8019981F800800198CDF814A0343097
:10B4B00002900198CDF824B01830069001980199B7
:10B4C000401C079011310A98FBF74EF907212046DE
:10B4D000FEF73EFA050004D014E0CDF824B0CDF814
:10B4E00014A0B8F1020F02AB07D0324649460A98C1
:10B4F0007FDF054636B145B104E0002249460A988F
:10B500007FDF0546009755B10EE03078C00701D0C7
:10B51000012100E002210A98FFF7D0FC0097B9F161
:10B52000850F01D0012200E00022012321460A9864
:10B53000FFF79AFC2846A7E7282A00203EB50546D3
:10B54000F9F71EF91E4C012818D12846FBF73CFAE2
:10B55000A0F57F41FF3911D00122A1792846F9F7E2
:10B5600061F900200090019002900C208DF80000FD
:10B57000ADF802506846FAF73DFB04E00022A179DD
:10B580002846F9F74FF9207A20B1A1792846F9F732
:10B5900033F988B1002211462846FFF743FF0446DD
:10B5A000014601222846FAF72FFD03B0214628461E
:10B5B000BDE83040FAF7CBBA0149E2681031EBE759
:10B5C000EC2100203EB504460078002811D12079F6
:10B5D00007280ED1074A07CA8DE807006088FBF7E5
:10B5E00033F9ADF802006088ADF804006846FAF758
:10B5F000F3FA3EBD30C10200002801D1FAF79CB831
:10B60000704700002DE9F843DFF88C80044691462E
:10B6100098F81C04D8F808500F461E46002838D168
:10B6200069461846F9F7E8FF002832D00098C4466A
:10B6300000EA050108EB810252F80C1F21F003011A
:10B64000491C401C1160E30602D541F0040101E0F1
:10B6500021F0040164F3C50166F3891167F39F21AA
:10B66000116000EA0501220C0CEB8101401CCA604C
:10B67000009000200BE000BF009959F8203001EA4B
:10B6800005020CEB8202491CD360401C0091B042C1
:10B69000F2D3BDE8F8830000D82E00202DE9F84F42
:10B6A0001D4C00256846D4E901A6FAF789F9002760
:10B6B00038B30023009A61681CE0D1F800C0084646
:10B6C000944503D9ACEB02020A6015E0A2EB0C0230
:10B6D00063440760D0F80CC0C1698146BCF1000F1B
:10B6E00008D006EB030828F07F48C0E9018CC9F8B0
:10B6F0001C5005460029E0D128466160FBF7A2FCFA
:10B7000003E02846FBF79EFC10B15046FAF728F8F4
:10B71000E770BDE8F88F00001C2200200D4B10B52B
:10B72000596831B102680C68A24204D8A21A0A60B2
:10B73000C161586010BD0B4603E00B46C969121B7E
:10B7400021B10C689442F8D3A41A0C600260C16164
:10B75000D86110BD1C2200202DE9F041144E7768FD
:10B760003D462C4603E0844204D02546E469002C83
:10B77000F9D11BE0D4B1A5420BD1F869706040B992
:10B780000C49012088600021B160F0702F20FCF787
:10B79000E3F82168E069E86110B1026811440160D2
:10B7A0007068874202D00120BDE8F0810020FBE7ED
:10B7B0001C220020001001407CB5064600240D46E6
:10B7C0008DF800406846F8F7C1FB01A800F046FA82
:10B7D00070B10570094946609DF8040048709DF8F5
:10B7E0000000F8F7D7FB1420F7F7ACFF20467CBD2C
:10B7F00004249DF80000F8F7CDFBF7E7582B002054
:10B800002DE9F041194D6C68002C2CD01848002708
:10B810000068A968B846401A20F07F462068B04208
:10B820000CD82146361A0744E469087C20B181F817
:10B830001080886949698847002CEFD12978687899
:10B84000814206D1401CC0B26870022801D185F83F
:10B850000180064869780C3040F82170BDE8F0415D
:10B860001420F7F76FBFBDE8F08100001C22002014
:10B870000415014070B50C4605464FF48E71FDF776
:10B8800032FCA18AA068415CA08A401CA082C5F855
:10B890001C1570BD1FB500228DF800208DF8081012
:10B8A000816801918275D0E90012684690471FBDFA
:10B8B00001490120087070475822002010B588B057
:10B8C000044620220E496846F7F7D6FD0620009070
:10B8D000C01F0190029003904FF0EB7006900CB1E6
:10B8E000084A00E0002269460748FCF789FA08B1D7
:10B8F000F8F74AFA0448001F447008B010BD000071
:10B90000FCC20200B1B802005C2200202DE9FF4712
:10B910000C4605464FF40071FDF7EBFB01274FF491
:10B920000178002618B34FF4927949462846FDF76E
:10B93000D5FBE0B149462846FDF7D5FBC5F808839D
:10B94000A07E00B96F6002208DF80000D5F8800459
:10B95000C5F880040390E07D8DF80800E068019050
:10B96000E6752676D4E900126846904727E0042160
:10B970002846FDF7BEFB10B34FF484712846FDF74F
:10B98000ADFBE0B121462846FFF78AF8E07D617EF5
:10B99000884214D1207E38B1617EE268E07520696A
:10B9A000E0602676667607E0A07E00B96F60C5F895
:10B9B0000883E675617EE2682046FFF78AF84FF457
:10B9C0008E7841462846FDF789FB88B1A08AA17D83
:10B9D000884204D221462846FFF74CFF08E0414642
:10B9E0002846FDF780FBA17D11B12046FFF752FFED
:10B9F0004FF4A27841462846FDF770FB002812D08C
:10BA000041462846FDF76FFBA07E00B12F60E07D28
:10BA1000002808D0E675617EE26804B02046BDE8E3
:10BA2000F047FFF756B8BDE8FF872DE9FF410C4608
:10BA30004FF4927705463946FDF761FB0026C0B109
:10BA400039462846FDF760FB02208DF80000D5F846
:10BA50008004C5F880040390D5F83C058DF80800F3
:10BA6000E0680190E6752676D4E9001268469047B2
:10BA700024E04FF4887739462846FDF740FBE8B1CB
:10BA800039462846FDF740FBD5F83C05C1B2E07DBC
:10BA9000884213D1207E60B1E268D5F8000220F020
:10BAA0002000C5F80002207EE0752069E06026765F
:10BAB00001E0E675E2682046FFF70BF84FF4A27745
:10BAC00039462846FDF71BFB68B139462846FDF785
:10BAD0001BFBE07D38B1E675D5F83C05E268C1B2E4
:10BAE0002046FEF7F6FF4FF4907631462846FDF7E4
:10BAF00006FB00280FD031462846FDF705FBA07D48
:10BB0000002808D0D5F84C0504B0C1B22046BDE8E5
:10BB1000F041FFF7BFBEBDE8FF810870000A487022
:10BB200002207047002070472DE9F05F8346DDE971
:10BB30000A4A994690460D460846012703E000BF91
:10BB4000B0FBF8F07F1C4045FAD2B94500D94F460A
:10BB50005FEACA7012D18CB15FEA8A7002D5B9F17E
:10BB6000000F01D0202607E0302605E03146584678
:10BB7000641EF9F76DFD0CB1A742F7D35FF0010623
:10BB8000B9F1010F02D9A9F1010903E0B5FBF6F003
:10BB9000404502D306FB08F6F2E7DFF83C9000BF11
:10BBA000B5FBF6F000FB165519F800105846F9F7EA
:10BBB0004FFDB6FBF8F6002EF2D15FEACA7009D04D
:10BBC000002C07D0A74205D220215846641EF9F761
:10BBD0003FFDF5E7BDE8F09F94C10200F8B50546CA
:10BBE00080B2FAF797FF040013D0154E207A002791
:10BBF000317B88420ED2A8B204F10A0175DF28B168
:10BC0000112806D0BDE8F840FFF768B9207A401C3B
:10BC10002072F8BD2772307C38B1A8B23B2176DFA4
:10BC200018B1082801D0FFF759F971690029F0D03F
:10BC30008DF80070ADF8025068468847F8BD0000E6
:10BC4000D82400200449012282400968114201D011
:10BC50000120704700207047F42400200A494A78E8
:10BC60008B78521CD2B2934200D100220B789342BF
:10BC700001D1002070470270487800EB400001EBD2
:10BC8000C000001D70470000582B00202DE9FC412A
:10BC90001646DDE90854CDE900541F4680460222CD
:10BCA00000F00CF8002807D1CDE900543B461022E3
:10BCB0003146404600F002F8BDE8FC812DE9FC5F0A
:10BCC0000026DDE90C4B994692468E468046278831
:10BCD000354630E0D8F80400002200EB85006946C4
:10BCE0000068019001A864DF002830D19DF80000B1
:10BCF00050451FD10EB1002100E0022122880844E6
:10BD00001118594522D846B9521C90B2208009F822
:10BD100000E02088401C20800126218801A801EB3A
:10BD20000902694664DF002811D120889DF80010BF
:10BD3000084420806D1CB8F80000A842CADC56B147
:10BD40002088C01B401E80B2FF2802D90C20BDE80D
:10BD5000FC9F09F807000020F9E72DE9F8430746A2
:10BD60001C4615460E466846DDF82080FEF7C2FCEC
:10BD700060B10098002101710760C0E90464C0E966
:10BD80000285FEF777FD0020BDE8F8830420FBE77D
:10BD900082780121012A0BD0062A09D0072A06D071
:10BDA000082A06D1416889880931890800E01421F0
:10BDB0000180704738B505460C46002001E0009828
:10BDC000401C00906946284600F006F8002802D082
:10BDD0008178A142F3D138BD0968094A0CE000BF5F
:10BDE00001EB810332F82330834204D101EB81005F
:10BDF00002EB80007047491C0829F1D300207047EE
:10BE00003C2900204FF6FF710180FF2181700174F1
:10BE1000417C21F0070141740021C16041608160D3
:10BE20007047000070B50546002406E0287C2044D9
:10BE3000C1B20648FEF7BEF8641CE868A042F5D817
:10BE40002846BDE87040FFF7DDBF00002C29002028
:10BE50002DE9F047DFF8D8A0054688B09AF8000031
:10BE60001F4616460C464FF00008800703D40220F8
:10BE700008B0BDE8F08764B32088A0F57F41FF39A2
:10BE800029D0608838B36068FAF712FF28B336B358
:10BE90003088ADF8000076888DF804704FF0000906
:10BEA0008DF81A90BDF80000ADF818006068059094
:10BEB000DAF80400401CCAF8040004902088ADF8A9
:10BEC0000C006088ADF80800ADF80A60032F0FD0B1
:10BED00013E00520CCE70420CAE70320C8E7208947
:10BEE000694686B2304600F0ABF80028C0D1D3E7EF
:10BEF00004208DF81A0028680790ADF80E8001A87C
:10BF0000FDF7E8F968B145B1C5F80490049909480E
:10BF1000296085F80A9000892881FEF79BFC0020A3
:10BF2000A6E7BDF80010304600F080F808209FE733
:10BF300030220020242D00202DE9F8430D46898A67
:10BF4000374A02EB011630B1E9883046FDF7DCF9DB
:10BF50000120BDE8F88331897068002400EB810777
:10BF60002F48A97D94384FF00E08072950D2DFE8FA
:10BF700001F00D2D162404404C004460A9690160B5
:10BF8000274828499438FEF7CDFC30B10220A87527
:10BF9000042339462A1D009423E00A20D9E72869A2
:10BFA0002A4608B1032000E001209075042305F122
:10BFB0000C0207F10801009413E00120A875009419
:10BFC000E88807F10C0183002A690AE028782A46EC
:10BFD00003280CD006209075042305F10802391DB2
:10BFE00000941148FCF7D6F9B8B1444611E0052099
:10BFF000F1E70C494068891E4988FEF707FD0400F7
:10C000004FF00600A87504D107E041F61D5400E08A
:10C010000F24E9883046FDF777F9204699E70000BC
:10C02000042D002032220020C0220020034A02EB0F
:10C0300001114A89101AC01E48817047042D002042
:10C04000F0B5C01C82B240F2FE30824201D309201A
:10C05000F0BD0F4C00204FF4806600BF04EB0013CE
:10C060001D7875B91D895F8915443D44ADB2B5424F
:10C0700007D2088004EB001040891044588100204A
:10C08000F0BD401C80B20228E8D30720F0BD0000BC
:10C09000042D0020654C0200111213140D0E0F1018
:10C0A0003824002058240020842400200D000300A0
:10C0B000615202000E000300615202000F000300F3
:10C0C00061520200100003006152020001000000F2
:10C0D00001000100CCC0020001000100E0C002002C
:10C0E0000000000071A102009D630200770A0000B9
:10C0F00000000000770A0000000000007ADA00006B
:10C1000000000000D5950200E9A202002F6902009C
:10C11000F1B10200C5B502007166020055B202001D
:10C12000696402000200000000000000000000003E
:10C1300007000000000000000000000001000000F7
:10C1400000000000000000000400000000000000EB
:10C1500000000000060000000000000000000000D9
:10C16000FDA4020050EADA308883B89F604F15F3CF
:10C170000000C98E00000050382B00200300000092
:10C180000000FFFFDEC0ADDEFF011EF1DEC0ADDE50
:10C19000FE011EF130313233343536373839414201
:10C1A000434445460010000004000000256A0200D8
:10C1B00025BB02008DA802005BBD0200315A0200BF
:10C1C000496C020050CB020054CB0200000000007A
:10C1D000000000000000000000000000AC2D002066
:10C1E000C4C10200DCC1020004000000556E6B6E89
:10C1F0006F776E206572726F7220636F64650000E6
:10C200000000000064C802000100000024C7020012
:10C2100002000000A4C502000300000098C702004D
:10C2200004000000ECC7020005000000E4C60200A4
:10C230000600000084C6020007000000D4C7020008
:10C2400008000000F8C602000900000044C7020010
:10C250000A0000004CC802000B0000008CC5020060
:10C260000C00000010C702000D00000070C80200A2
:10C270000E000000C4C702000F00000000C802004A
:10C280001000000034C802001100000084C8020041
:10C2900080000000C4C602008100000048C6020001
:10C2A0008200000008C6020083000000E8C502000A
:10C2B0008400000024C60200850000009CC6020025
:10C2C00086000000ACC702009000000064C60200B7
:10C2D00091000000C8C502000082000014C80200DE
:10C2E0000182000060C70200028200007CC70200D9
:10C2F000A1860200898602007F860200FFFFFFFF01
:10C30000FFFFFFFFFFFFFFFFFFFFFFFF0000000039
:10C31000000000000000D601070100007822002084
:10C320007022002078220020182E00201800000023
:10C3300094CB02009CCB0200000000000000000033
:10C340000100000730C3020040C3020008000000E3
:10C3500068C3020078C302000800000078C302002E
:10C3600088C3020008000000CCCB0200DCCB020036
:10C370000000000000000000BCCB0200CCCB02009B
:10C38000000000000000000054CB02005CCB020063
:10C390005CCB02006CCB02006CCB020094CB0200A1
:10C3A00001000000802100208005000088C30200F9
:10C3B000A0C30200080000009CCB0200ACCB02002E
:10C3C000ACCB0200BCCB0200B8C30200C8C3020061
:10C3D0000800000000404040404040404040414193
:10C3E000414141404040404040404040404040404A
:10C3F00040404040400502020202020202020202E4
:10C4000002020202022020202020202020202002E0
:10C410000202020202029090909090901010101070
:10C42000101010101010101010101010101010100C
:10C4300002020202020288888888888808080808A0
:10C44000080808080808080808080808080808086C
:10C450000202020240000000D5C3020073645F6262
:10C460006C655F67617474635F65786368616E674C
:10C47000655F6D74755F72657175657374282920C9
:10C4800072657475726E656420756E65787065632B
:10C490007465642076616C756520307825782E008F
:10C4A00073645F626C655F67617474735F65786302
:10C4B00068616E67655F6D74755F7265706C792811
:10C4C000292072657475726E656420756E6578706A
:10C4D00065637465642076616C75652030782578B5
:10C4E0002E00000073645F626C655F6761705F645B
:10C4F0006174615F6C656E6774685F7570646174A8
:10C5000065282920287265706C79292072657475F8
:10C51000726E656420756E657870656374656420FD
:10C5200076616C756520307825782E0073645F62C3
:10C530006C655F6761705F646174615F6C656E6795
:10C5400074685F757064617465282920287265714C
:10C550007565737429206F6E20636F6E6E656374EA
:10C56000696F6E20307825782072657475726E65FB
:10C570006420756E65787065637465642076616C9F
:10C58000756520307825782E000000004E52465FF9
:10C590004552524F525F494E56414C49445F4441C7
:10C5A000544100004E52465F4552524F525F534F26
:10C5B00046544445564943455F4E4F545F454E41AE
:10C5C000424C4544000000004E52465F4552524FD7
:10C5D000525F464541545552455F4E4F545F454E5C
:10C5E00041424C45440000004E52465F4552524F76
:10C5F000525F4D555445585F554E4C4F434B5F4627
:10C6000041494C45440000004E52465F4552524F4E
:10C61000525F4D555445585F4C4F434B5F4641491F
:10C620004C4544004E52465F4552524F525F4D5565
:10C630005445585F434F4E445F494E49545F46410D
:10C64000494C4544000000004E52465F4552524F4F
:10C65000525F4D555445585F494E49545F464149D4
:10C660004C4544004E52465F4552524F525F415036
:10C67000495F4E4F545F494D504C454D454E5445D2
:10C68000440000004E52465F4552524F525F4E4F9B
:10C69000545F535550504F52544544004E52465FDC
:10C6A0004552524F525F4D4F44554C455F414C529D
:10C6B000454144595F494E495449414C495A4544C2
:10C6C000000000004E52465F4552524F525F4D4FA0
:10C6D00044554C455F4E4F545F494E495449414C77
:10C6E0005A4544004E52465F4552524F525F4E4F9C
:10C6F000545F464F554E44004E52465F4552524F8E
:10C70000525F494E56414C49445F53544154450091
:10C710004E52465F4552524F525F444154415F531F
:10C72000495A45004E52465F4552524F525F53564A
:10C73000435F48414E444C45525F4D495353494E27
:10C74000470000004E52465F4552524F525F494EDD
:10C7500056414C49445F4C454E4754480000000048
:10C760004E52465F4552524F525F4452565F5457A5
:10C77000495F4552525F414E41434B004E52465F26
:10C780004552524F525F4452565F5457495F45528B
:10C79000525F444E41434B004E52465F4552524F0A
:10C7A000525F494E5445524E414C00004E52465F36
:10C7B0004552524F525F53544F524147455F465581
:10C7C0004C4C00004E52465F4552524F525F4E5500
:10C7D0004C4C00004E52465F4552524F525F494EFC
:10C7E00056414C49445F504152414D004E52465FC4
:10C7F0004552524F525F4E4F5F4D454D0000000075
:10C800004E52465F4552524F525F464F5242494444
:10C8100044454E004E52465F4552524F525F44527D
:10C82000565F5457495F4552525F4F5645525255D5
:10C830004E0000004E52465F4552524F525F494EE5
:10C8400056414C49445F4144445200004E52465FB9
:10C850004552524F525F494E56414C49445F464CF7
:10C86000414753004E52465F53554343455353008F
:10C870004E52465F4552524F525F54494D454F55B7
:10C88000540000004E52465F4552524F525F42558F
:10C89000535900007761726E696E67006465627556
:10C8A000670000001B5B313B33306D001B5B306D5C
:10C8B000000000001B5B313B33316D001B5B313BE3
:10C8C00033326D001B5B313B33336D001B5B313BFF
:10C8D00033346D001B5B313B33356D001B5B313BEB
:10C8E00033366D001B5B313B33376D00696E666F0D
:10C8F000000000006572726F7200000073645F6276
:10C900006C655F6366675F73657428292072657460
:10C9100075726E6564202573207768656E2061747A
:10C9200074656D7074696E6720746F207365742010
:10C93000424C455F47415454535F4346475F53451C
:10C9400052564943455F4348414E4745442E0000F7
:10C9500073645F626C655F6366675F7365742829E3
:10C960002072657475726E65642025732077686522
:10C970006E20617474656D7074696E6720746F20C9
:10C9800073657420424C455F434F4D4D4F4E5F439E
:10C9900046475F56535F555549442E0073645F62A6
:10C9A0006C655F6366675F736574282920726574C0
:10C9B00075726E6564202573207768656E206174DA
:10C9C00074656D7074696E6720746F207365742070
:10C9D000424C455F47415454535F4346475F41547F
:10C9E00054525F5441425F53495A452E00000000A3
:10C9F00073645F626C655F6366675F736574282943
:10CA00002072657475726E65642025732077686581
:10CA10006E20617474656D7074696E6720746F2028
:10CA200073657420424C455F434F4E4E5F4346470B
:10CA30005F4741502E00000073645F626C655F6366
:10CA400066675F73657428292072657475726E65F8
:10CA500064202573207768656E20617474656D703D
:10CA600074696E6720746F2073657420424C455F53
:10CA70004741505F4346475F524F4C455F434F55D8
:10CA80004E542E00626C655F676174740000000094
:10CA9000636C6F636B0000006770696F7465000002
:10CAA000756172740000000062616C6C6F6300005D
:10CAB0007077725F6D676D740000000061707000C8
:10CAC0006E72665F736468006E72665F7364685F3F
:10CAD000626C65006E72665F7364685F736F63009B
:10CAE000DCCB020080210020CC0100004C3502008C
:10CAF00034CC02004C230020AC2F0000283B020065
:10CB000084CA02000000030090CA02000000000076
:10CB100098CA020000000000A0CA02000000000045
:10CB2000A8CA020000000000B0CA02000000000015
:10CB3000BCCA020000000300C0CA020000000300DB
:10CB4000C8CA020000000300D4CA020000000300AB
:10CB5000A13D0200C14F020000000000914D020003
:10CB600000000000554E020000000000F1770200B6
:10CB70004C2300204744020060230020C54E0200E1
:10CB800000000000CD50020000000000714A0200C9
:10CB9000682A00209D82020000000000F9B5020012
:10CBA00000000000DD82020000000000AF4402002F
:10CBB00060230020C54B020000000000D18E02005F
:10CBC0000000000005900200000000009DAB020084
:10CBD00000000000BD82020000000000062BFFFFE5
:10CBE0000A180194E9A0028B31630C01202C18185B
:10CBF00018042901016A122042400B1CF0C2A8143B
:10CC0000F4C8021A94041AEC041A9C041AAC041A0C
:10CC1000A4041AB4041ABC041AC4041ACC041AD406
:10CC2000041ADC041AE404518490D0030B1C6160E4
:04CC30006401640037
:0400000500023201C2
:00000001FF
