:020000040003F7
:10AC0000183C002079DC030093DC030095DC030092
:10AC10000000000000000000000000000000000034
:10AC2000000000000000000000000000D5AC0300A0
:10AC3000000000000000000099DC03009BDC030022
:10AC40009DDC03009DDC03009DDC03009DDC030014
:10AC50009DDC0300000000009DDC03009DDC030080
:10AC60009DDC03009DDC03009DDC03009DDC0300F4
:10AC70009DDC03009DDC03009DDC03009DDC0300E4
:10AC80009DDC03004DC203009DDC03009DDC03003E
:10AC900069C203009DDC03006BDB03009DDC030045
:10ACA0009DDC03009DDC03000000000000000000AC
:10ACB0000000000000000000000000000000000094
:10ACC0000348854603F0B6F80048004787AE030006
:10ACD000183C00200648704502D1EFF3098101E0DD
:10ACE000EFF30881886902380078024A10470000B3
:10ACF000FDFFFFFF6DAD0300401E00BF00BF00BFA2
:10AD000000BF00BF00BF00BF00BF00BF00BF00BF4B
:10AD100000BFF1D170470000401E00BF00BF00BF60
:10AD200000BF00BF00BF00BF00BF00BF00BF00BF2B
:10AD300000BFF1D170470000056885F308884068BE
:10AD4000FF2464B2EFF30585002D01D1A64600472C
:10AD50002546064621273FBAF0B4002400250026E8
:10AD60000027F0B4F92040B20047000010B50C46AF
:10AD7000002802D00120086010BD2168002911D0F0
:10AD80001E48421A814212D03C2A0DD201223C3088
:10AD90003C310B7803701346521C401E491E3C2B5D
:10ADA000F7D904E00E200BE03C2203F007F8002264
:10ADB0003C21124801F026FE1049891E088000201F
:10ADC000206010BD70B505000BD000223C210B485F
:10ADD00001F018FE094CA41E2188884203D00B20E4
:10ADE00070BD0E2070BD3C220449284602F0E6FFEB
:10ADF0002088401C2080002070BD0000827F002041
:10AE000010B500F0D5FF10BD30B575498BB00A1DE7
:10AE10003CCA059206AA38C209680991002805D0E3
:10AE200005A818DF002801D001F070F8EB2080029F
:10AE300013DF002801D001F069F86A4B48226A4903
:10AE400009A802F06DFE002801D001F05FF8012191
:10AE50006A46084602F097FE002801D001F056F835
:10AE6000012069460873684602F0A1FE002801D05F
:10AE700001F04CF85D4802F070FE002801D001F0AE
:10AE800045F80BB030BD1CB55948C1690026B12941
:10AE900053D00024152518270122009600231146BF
:10AEA0002846019600F080F86D1CBD42F4D90F20B1
:10AEB000504D4005A8605048EB2140698902884206
:10AEC00002D0002001F022F80120000700690121D2
:10AED0008902884202D0002001F018F8474B484A06
:10AEE0000521002001F0C4F9002801D001F00EF87E
:10AEF00003230022142011460096019300F054F819
:10AF000001F0D0FC01F010FD0127FE05002817D04C
:10AF1000EE6001F018FD002801D000F0F7FF204698
:10AF20007840FFF771FF00F04FF801F02CFD00288A
:10AF300001D000F0EBFFAE6008E00124C661A9E794
:10AF400020467840FFF760FF00F03EF82869000DCA
:10AF5000C007C00F04D0002020432A4C07D101E0D5
:10AF60000120F9E7A06801F0FAFB002807D1EE60A4
:10AF700001F0AAFC002801D000F0C8FFAE60A06874
:10AF800001F0EDFB002806D001F0CEFC002802D134
:10AF9000A06801F0A5FCBFF34F8F1C491A48C86098
:10AFA000BFF34F8F00BFFDE730B552000A43990051
:10AFB000039C0A432102049D0A4329040A431449BD
:10AFC00080004018026030BD074A10B54832142195
:10AFD000082000F0B5FF002801D000F097FF10BD59
:10AFE00090DE030067DC03009C2E002001AE03000E
:10AFF000000500400005005000100010A7C6030027
:10B00000D42C0020003000000400FA0500ED00E020
:10B0100000070050FFB583B0074600200C9C864611
:10B02000268805463AE07868A900421811886846E3
:10B0300081805188C1800022694601A865DF00280F
:10B0400039D1684601780598814226D1704600289A
:10B0500001D0002200E002222088891842180D99B0
:10B060008A4227D8714600290AD1401C80B220802C
:10B07000069A049911542088401C2080012086469D
:10B08000218806980A18694601A865DF002812D1B0
:10B09000694620880978401820806D1C3888A842AD
:10B0A000C1DC704600280AD02088801B401E80B278
:10B0B000FF2802D90C2007B0F0BD06998855002062
:10B0C000F9E7FFB583B016460C9D0D9C1F46022282
:10B0D000009501940398FFF79DFF0028EBD13B46B4
:10B0E00010223146009501940398FFF793FFE2E7A1
:10B0F000F7B584B00025168807461580406B1446C6
:10B10000002813D003780598032E51D30221017033
:10B1100021881122491C89B2218042542188491C6E
:10B1200089B2218043542088401C2080386B00283D
:10B130001DD005462088059902461232B24237D802
:10B1400011220A5420881022401C80B220800A5408
:10B150002088401C20800F202A5C2388401ECA546F
:10B16000228840B2521C22800028F5DA0025384699
:10B1700020300290807B002806D033462246059975
:10B1800000F0F9F8050096D10298407B002806D01F
:10B1900032462146059800F018F905008BD1B878A1
:10B1A000002822D0059886462088001DB04201D98B
:10B1B0000C2080E7684679DF0028FAD12188032037
:10B1C0007246505420881921401C80B220801154AE
:10B1D00020887146401C80B2208041186846008853
:10B1E00000F0C4F8218840182080F878002817D093
:10B1F000218803230A46FB56C91C0598B142D7D8BB
:10B200000221815421880122491C89B221804254A3
:10B210002188491C89B2218043542088401C208009
:10B220007868002817D021880023C3560A46C91C15
:10B230000598B142BCD80221815421880A22491CB8
:10B2400089B2218042542188491C89B2218043540B
:10B250002088401C2080388900280AD00094384675
:10B260000196062202210830059BFFF72AFF050000
:10B270009FD1388A00280AD00094384601960722C8
:10B2800003211030059BFFF71CFF050091D1388B7F
:10B2900000280AD00094384601961522142118304F
:10B2A000059BFFF70EFF050087D1386A002806D0FE
:10B2B00033462246059900F006F90500D8D1786A90
:10B2C000002806D033462246059900F03DF90500D6
:10B2D000CED10298007B002807D03346224638465C
:10B2E000059900F065F90500C2D13878002807D02B
:10B2F000334622463846059900F096F80500B7D146
:10B300002846D8E6F0B50C4693B01F216A46118056
:10B31000072600279180002809D0C17849070DD55C
:10B3200002A9FFF7E5FE002809D102AD01E00025E2
:10B330001780002C0ED0E078002802D0304613B0E1
:10B34000F0BD01AA0AA92046FFF7D2FE0028F6D1D7
:10B350000AAA02E068460022878068468088C3B255
:10B3600068460088C1B2284672DFE8E70870000A24
:10B3700048700220704730B51588EC1C9C4201D9FA
:10B380000C2030BD02244C5513881C255B1C9BB23D
:10B390001380CD5413885B1C9BB21380012807D007
:10B3A000022807D0032807D0042807D0072030BD83
:10B3B000002004E0012002E0CC5401E00320C85446
:10B3C0001088401C1080002030BD7CB505460888E0
:10B3D0000C460930904201D90C207CBD684671DFD3
:10B3E0000028FAD121880820685420881B21401C9D
:10B3F00080B220802954208800A9401C80B220807F
:10B4000040190622013102F0D9FC20886946801DCE
:10B4100080B220800978002900D001212954208899
:10B42000401C208000207CBDF8B50F4601781446F2
:10B430000546012902D16878002806D02088821CA0
:10B440009A422DD8012902D006E00720F8BD69787C
:10B450004118891C994223D8181A801E86B2684662
:10B4600006802188B81C081869467DDF0028EDD1C8
:10B470002878022805D169460988B14201D80921F6
:10B480000AE00821012805D16878B04202D86A464E
:10B49000108001E06846068068460088FE2801D9D1
:10B4A0000C20F8BD2288401CB8542088401C80B273
:10B4B0002080395420886946401C20800988401823
:10B4C00020800020F8BDF8B5064610881446844652
:10B4D000801D0D46984201D90C20F8BD3288072006
:10B4E000062AFAD31927FF01554BBA4201D99A42CD
:10B4F000F3D171880629F0D3B94201D99942ECD130
:10B500009A4203D0994201D08A42E6D8052160468A
:10B51000295420881221401C80B220802954208880
:10B52000401C80B2208041193088FFF71FFF21881E
:10B53000401880B2208041197088FFF717FF2188DA
:10B54000401820800020F8BD70B5144682880E4651
:10B5500005462088111D4118921C994201D8FE2AE7
:10B5600001D90C2070BD521C32542088FF21401C90
:10B5700080B2208031542088401C80B22080811904
:10B580002888FFF7F3FE2188401880B22080AA881F
:10B59000002A09D0A968002908D0801902F00EFC01
:10B5A0002088A98840182080002070BD072070BD29
:10B5B000FFB50746806A81B0144600283DD00025BB
:10B5C00038462030009033E00C20B96A68430E18EA
:10B5D000B088801CFE2802D90C2005B0F0BD22885E
:10B5E0000299401C885420881622401C80B220807A
:10B5F00002990A542088401C80B220800299411888
:10B600003088FFF7B3FE2188401880B22080B288CE
:10B61000002A0AD0B16800290FD0029BC01802F09E
:10B62000CDFB2088B188401820806D1C0098EDB2B9
:10B63000007BA842C8D80020CFE70720CDE7000054
:10B64000FFFF000038B56749674A488890420FD02D
:10B650004A78664C521CD2B24A70237B934208D37C
:10B66000091D75DF002803D0A169002900D0884793
:10B6700038BD00254D70217C002907D03B2176DFA5
:10B68000002803D0A169002900D0884761690029FA
:10B69000EED068460570884738BD70B5054601464E
:10B6A0001C22524802F08AFB4E4C00262670296864
:10B6B000002906D00822201D02F080FB201D7ADF21
:10B6C00002E04848001D7BDF002807D1401E608053
:10B6D0006670474A0021474800F00AFE70BD10B569
:10B6E0004448006800F077FE10BDF8B53D480C30C6
:10B6F00000F06BF800263B4D3C4C002807D06169F8
:10B7000000291CD001206A461070684616E028788F
:10B71000002805D06169002911D0684606700DE047
:10B72000687800280DD0A16832480022006800F037
:10B7300019FE002803D0A169002900D088472E7087
:10B74000F8BD6168F0E7F8B5284C02880027254D60
:10B75000E689102A17D02749112A21D0122A2DD084
:10B76000502A0FD1C288801DB2420BD14289022AD1
:10B7700008D1427B037B10021843C007C00F13D0CF
:10B78000FFF7B3FFF8BD818869800146154808229C
:10B7900018310C3002F012FB6F70002EF0D0F8BDA3
:10B7A0000020C04368806F70086800F014FE002815
:10B7B000F5D0A1690029F2D08847F8BD0822811888
:10B7C00008480C3002F0FAFADAE741880548001D13
:10B7D0000288914204D34088814201D801207047F9
:10B7E00000207047002C0020FFFF00005430002094
:10B7F00045B60300A4DE030030B585B0002822D092
:10B800000388FE4CA34220D0FD4B1B78002B1CD09C
:10B81000FB4B10255B1C1D705970002401259A708C
:10B82000032269460A820094019402940394028AD6
:10B830000A808D708C8004A9029103930088694668
:10B84000A6DF05B030BD0E20FBE70820F9E7F0B514
:10B850008BB00C46054602216846017301268674AA
:10B86000228982826289C28220460C30002706909B
:10B87000089768460184478407A80990A98A288800
:10B8800008AAA5DF002804D0E96A002919D0884752
:10B8900017E06846808BC007C00F12D06846078249
:10B8A000288803A9A8DF002812D1217B20460D306B
:10B8B0000B0002F0D1FA09420F1C22242729402B49
:10B8C0004200FF20FE3069460882288803A9A8DFCD
:10B8D0000BB0F0BD6A4617700BE006221BE069460C
:10B8E0000E720190AA6A284690470020F0E76A4647
:10B8F00016706289022AF2D2EFE7022000E00320EC
:10B90000694614E00420FBE70520F9E76189032973
:10B9100005D2032208212846FFF76EFFD8E74178B9
:10B920000278080210436946888002D00620087019
:10B93000D8E70720FBE70920E2E70322EBE730B571
:10B9400085B00D46040038D0002D36D06868002838
:10B9500033D00020C043AB4B20800FCB049301AB0E
:10B9600007C3A9486946088001A8811E63DF002833
:10B9700022D1221D69460120A0DF00281CD1684683
:10B980008078A071204600F0CEF8002814D120461F
:10B9900000F059F900280FD12946204600F004F99B
:10B9A000002809D16868A062A868002800D0E06279
:10B9B000934901200870002043E70E2041E73EB57F
:10B9C000002828D0002926D0826A002A23D00A889D
:10B9D000102A21D0112A30D0502A1FD0512A1AD132
:10B9E0000A460446891D0878022814D14888238A0B
:10B9F000984210D1907B04280DD006280BD0052842
:10BA000009D02046891CFFF722FF002803D0E16AF5
:10BA1000002900D088473EBD898810E0CB88028984
:10BA20009342F8D108226B461A700A7C1A721231BE
:10BA30000191826A694690473EBD0021C943018059
:10BA40003EBDF0B585B00A4605002DD028886B496B
:10BA500088422BD06A480078002827D0684C1020F4
:10BA6000641C2070072060700127A77003216846BE
:10BA700001820026E11C104600F04CF801466846A1
:10BA8000008A09186846018200960196029603967C
:10BA9000298A01808770868004A8039402902888F0
:10BAA0006946A6DF05B0F0BD0E20FBE70820F9E7E8
:10BAB000F0B585B00A46050028D028884F4988424D
:10BAC00026D04F480078002822D04D4C1120641C0D
:10BAD00020700127684607820026611C104600F08E
:10BAE00019F801466846008A0918684601820096DE
:10BAF000019602960396298A01808770868004A8A1
:10BB00000394029028886946A6DFCBE70E20C9E798
:10BB10000820C7E70870020A4A70020C8A70000EFB
:10BB2000C8700420704730B58FB005461C216846A8
:10BB300002F05DF9694608780421084369460870F7
:10BB4000002401940394049405940694A87908A908
:10BB500088702D486946801C0884601C0007079483
:10BB6000000F0C77103048778A7FF9200240F720C9
:10BB7000921C0240EF200240012002438A771421E8
:10BB800009A802F034F908A8099007A80A906946A4
:10BB90008C851420CC8508860D942B46A888083304
:10BBA00009AAA2DF0FB030BDF0B58FB00F46054631
:10BBB0001C21684602F01BF96846017802263143D1
:10BBC0000170002401940394049405940694A979C7
:10BBD00008A881700C496846091D0184601C010792
:10BBE000090F684610310794017700200146684626
:10BBF0004177817FF9200140F72007E0FFFF000037
:10BC0000142C0020A8DE030030150000891C014020
:10BC1000EF2001400120014368468177142109A8E3
:10BC200002F0E5F808A8099007A80A9068468685FA
:10BC3000C48506860D972B46A888203309AA694635
:10BC4000A2DF0FB0F0BD30B58FB005461C216846AD
:10BC500002F0CDF869460878082108431022104305
:10BC60006946087000240194039404940594069492
:10BC7000A87908A98870144869460884601C0007E0
:10BC80000794000F0C7710304877887FF92108401F
:10BC9000F721801C0840104301210843694688773A
:10BCA000142109A802F0A3F808A8099007A80A908F
:10BCB00069468C851720CC8508860D942B46A8886C
:10BCC000103309AAA2DF6DE73115000031B5054C2C
:10BCD00004E0401E00902046FFF70EF80098002870
:10BCE000F7D138BDE703000018225043854A0021F0
:10BCF0008018017181604161032281610261C1602C
:10BD0000704770B57F4C182221780F2051430A19D3
:10BD10007D4916795369121D4D68012E0FD0032EEF
:10BD20000CD101200007006981B2184602F030F8FA
:10BD3000401928DF002801D10121A17070BDA8029F
:10BD4000556851692D1A091892681818101801229F
:10BD50009202954202D2AA0829DFEBE7FF220132C4
:10BD600029DFE7E7F8B5674C069E65780A2D1DD0F8
:10BD700027787D19EDB20A2D01D30A3DEDB21827BF
:10BD80007D432D192871AA6103C9EE60AB6069611A
:10BD90002861A1780020002904D1FFF7B2FF112803
:10BDA00000D100206178491C6170F8BD0420F8BD05
:10BDB000F8B5544C0022A17801293ED10023A3708C
:10BDC0000646214608781827054678434118022E72
:10BDD00003D0032E31D10D202CE04B484668761C51
:10BDE00046608968B6028E4214D343606078401E74
:10BDF0006070681CC0B220700A2801D30A38207015
:10BE00001820684301191046091D00F06BF82846F8
:10BE1000FFF76AFF607800280FD0A07800280CD1C7
:10BE2000FFF76FFF002808D0112806D021781822CC
:10BE300051430919091D00F055F8F8BD70B50024EB
:10BE4000314E304874600470447084702546284632
:10BE5000FFF74AFF6D1C0A2DF9D32A4934600020F0
:10BE6000F43174608200401C8C500328FAD3002007
:10BE700070BD10B5244B1A68032A09D00A60214C02
:10BE80009100F43400686050521C00201A6010BD0C
:10BE9000042010BDF8B507461D4616460C46084658
:10BEA00000F01AF800280CD0601900F015F80028EE
:10BEB00007D033462246394601200095FFF752FF4E
:10BEC000F8BD1020F8BD08B50B460022014603203E
:10BED0000092FFF747FF08BD800701D000207047A0
:10BEE0000120704738B50C46E268064B9200F433E7
:10BEF0009D58097862680092024620460C306369BA
:10BF0000A84738BD703000201C2C00200EB5002141
:10BF1000029000916A460191014800F003F80EBDBD
:10BF200001400000BFF34F8F04490348C860BFF3CE
:10BF30004F8F00BFFDE700000400FA0500ED00E0B0
:10BF400030B5CB0008339DB293070024002B01D0FD
:10BF5000072030BD404B9A605219DA605C701C704B
:10BF600058809980002030BDF7B53B4C82B0608886
:10BF70000E4681423FD800256846384F057000F0D4
:10BF80009DFB22786078A188884201DA401C00E09D
:10BF90000020C0B2904204D16846007800F0A6FBB1
:10BFA00027E065786078884201DA401C00E00020D4
:10BFB00060706846007800F099FBBD4219D0A06817
:10BFC000EF000499C151029900290CD0002E0AD02B
:10BFD000608832464543E068281801F0EFFEA0680B
:10BFE0003818868002E0002138188180002005B0D2
:10BFF000F0BD0420FBE70920F9E70EB504E0684630
:10C000008188029A0098904702AA01A9684600F028
:10C0100003F80028F3D00EBD70B50F4B05241D7832
:10C020005E78AE4215D01D781C789E88B44201DA45
:10C03000641C00E000241C705C88DE686C43A4195A
:10C0400004609B68E800C418A4880C801858002479
:10C050001060204670BD0000242C0020FFFF00006F
:10C060008307FF22DB0E9A408907090E99400028BA
:10C070000BDA0007000F08388308F9489B001818EE
:10C08000C36993430B43C36170478308F5489B0022
:10C090001B181868904308431860704770B5012456
:10C0A000F14960040860F14940108860EF49403967
:10C0B0008860EF4D6C602F20FEF72EFEAC60ED4DDA
:10C0C00000242F202C61FEF727FEEC7070BDF8B520
:10C0D000E849C8680A690C780F79896886469446E9
:10C0E00000913EE00099E20055182A7836E01823C6
:10C0F00053436968521CC918AB78D2B2934200D13D
:10C1000000220B78022B02D0032B27D123E04E68AC
:10C110000346014603E0B14204D00B46C969002939
:10C120001CD0F8E7002919D08B4208D1C06900283B
:10C1300005D1CF4F0126BE600026B44601270E6808
:10C14000C969D961002909D00B689B190B6005E00A
:10C150000174C06900E000210028F9D1697891429A
:10C16000C5D12146641EE4B20029BBD1C149624653
:10C170000A61C8600F71704501D00120F8BD002030
:10C18000F8BDF8B50446BB480026C16800910778A1
:10C190004EE0B848F90080680D1843E0002C02D04A
:10C1A0002046E4691FE02878182141436A68401C52
:10C1B000C0B251182870AA78904200D12E700A7827
:10C1C0004868012A30D1027C002A2DD18A68426059
:10C1D000CA6882600A69C26049698161A5490979B2
:10C1E000002900D04660A34943680A699C46991A11
:10C1F0000902A14B090A994202D28268891807E014
:10C200006146511A09028268090A8A4202D9511A02
:10C21000016000E006604660012186600174C6612D
:10C2200000F000F9002CB9D1287869788842BAD199
:10C2300038467F1EFFB20028ABD18E48C1680098F7
:10C24000814201D00120F8BD0020F8BD10B58B4916
:10C250000020086048608860C860884940390860EC
:10C26000486000F016F910BD10B500F04DF910BD92
:10C27000FFB59007002581B014460E46002833D143
:10C280007C4F002C32D0FFF709FF0498786103201F
:10C29000387033461821224600204B43BC601834C6
:10C2A000C10089180D704D708E704C601C19401CB7
:10C2B0000328F5DBFD607D7001247148BD70240505
:10C2C000046003211420FFF7CBFE67488038046028
:10C2D0006C4C0198A06003211120FFF7C1FE60683B
:10C2E0003861002005B0F0BD0720FBE7BD60FBE72B
:10C2F000604B9B68002B07D0002A07D0002805D090
:10C300000068037C002B03D008207047072070478B
:10C310004174426100207047EFF30580C005C00DF5
:10C320001AD0103840B2002808DA0107090F08397E
:10C3300089084B4A89008918C96904E08108494A7B
:10C340008900891809688007C00EC1400806800F5F
:10C35000012803D0032803D0022070470020704733
:10C3600001207047FEB50D464249174689680446CC
:10C3700000292AD0002C28D0052D01D20720FEBD8F
:10C380006069002821D0607C012820D00026FFF7BA
:10C39000C3FFC0003749019089684018694600F022
:10C3A000F3F8002815D0012101703649446049682E
:10C3B0000830E2C02F490198896841186846007822
:10C3C000487000F061F80020FEBD0820FEBD2E463A
:10C3D000DDE70420FEBDF8B5264D0446A968002916
:10C3E0001CD0002C1AD06069002817D000262674B3
:10C3F000FFF792FFC700A8686946381800F0C4F834
:10C4000000280DD0022101704460A86839186846E0
:10C410000078487000F038F83046F8BD0820F8BDC4
:10C420000420F8BD10B5134BD968002906D0026866
:10C430000C68A24204D8A21A0A60C161D86010BD7B
:10C440000B4604E00B46C969121B002904D00C6896
:10C450009442F7D3A41A0C600260C161D86110BD88
:10C4600000ED00E000E400E080E100E04013014066
:10C4700000100140342C0020FFFF7F0040110140DC
:10C4800080E200E00015014001207B4900050860C2
:10C490007047F8B5794DEC68002C34D07848002707
:10C4A00040682969401A0602360A2068B04218D846
:10C4B000361AC7192246107CE46900280FD00020E4
:10C4C00010746B69002B07D0916950699847002858
:10C4D00005D0FFF71BFD02E0516990698847002CE9
:10C4E000E3D16978A878814206D1401CC0B2A87017
:10C4F000022801D10020A87060490006800D183183
:10C500000F50FFF7C1FFF8BDFEB55C4C0025276951
:10C51000E0680290684600F04AF80190FFF7D7FD06
:10C5200006460198002822D000230098E16817E011
:10C530000E680A46864202D9301A086012E0801B53
:10C54000F31800261660D668D169B446002E07D0CD
:10C55000FE183602360A566066469660D561154664
:10C560000029E5D12846E160FFF70BFE06E02846EA
:10C57000FFF707FE002801D1002E02D0029800F03C
:10C5800033F800202071FEBD42788378521CD2B26D
:10C59000934200D100220378934201D100207047DA
:10C5A0000A7041684078182250430818704710B547
:10C5B000324900234A788C78A24212D0521CD2B25F
:10C5C0004A70022A00D14B704A782C4B92001833E3
:10C5D0009A580260086910180002000A08610120D8
:10C5E0003DE7036000203AE7F8B52448C168002918
:10C5F0003ED00E6822494C680769C078E11B0D02E5
:10C600002D0AED1C002815D101201E4A000450609F
:10C610001C4A403A506018494000803108601A496D
:10C6200008601A49012008602F20FEF775FB1349A6
:10C630000120C870B54200D23546E8190002104BFF
:10C64000000A403318600E4A5168001B091B09029A
:10C65000090A0002000AC91C814208D95068186002
:10C660002F20FEF759FB0120034940040860F8BD64
:10C67000FFF714FDF8BD000000E200E0342C0020BC
:10C68000001501404013014000E100E000100140AE
:10C6900010B50446082902D00020FFF737FC2168B6
:10C6A0006068884710BD1CB501910090024A0821BE
:10C6B0006846FFF759FC1CBD91C6030030B5EFF387
:10C6C000108172B6134A54680123002C04D0037001
:10C6D000002900D162B630BD53600F4B1D680F4C6E
:10C6E000254015601C6000220270F1E709494A6884
:10C6F000002A0DD000280BD1EFF3108072B60A6823
:10C70000054B803B1A6000224A60002800D162B6C7
:10C7100070470000C82C002080E100E0FC06FFBC50
:10C7200010B5AF480378012B03D1012901D10221B3
:10C730000170100001D0FFF7E9FB10BD10B5A84C47
:10C7400048DF002801D0FFF7E1FBFFF756FC207817
:10C75000022803D0032801D00428F1D110BD38B538
:10C760000068401C19D00024684600F041F9009888
:10C770000178012910D1418800290AD0816803205D
:10C7800000038068002200F03DF900994988814249
:10C7900001D1012400E00024204638BD10B5044634
:10C7A0008F481C21001DFFF78EFB002801D0FFF7EA
:10C7B000ADFB8B4800231C222146001DFFF76AFBBE
:10C7C000002801D0FFF7A2FB10BD0FB4F8B56846F2
:10C7D00000F00EF96846027E418B0123804CFF2554
:10C7E0008048002A12D0012A16D0032A2AD000211C
:10C7F000022A36D0052A46D0042A4CD0062A01D176
:10C8000004202070F8BC08BC04B018474180099986
:10C8100081600370057110E04180089A07998918BA
:10C82000099A89188160A521017005710799C16075
:10C830000899426101610A99816123706948FFF793
:10C84000ADFFDFE700990A7802704A884280896864
:10C850008160AA2101710799C16008990161099954
:10C860000BE0009A1678A52E09D0067056884680EF
:10C87000926882600571C16001614161DDE74180BC
:10C8800081600570F6E700F037FD002801D0FFF762
:10C890003DFB0320B5E7418081600570009909796F
:10C8A0000171CBE70EB5504A6B4607CA07C3FFF7C5
:10C8B000C5FA002807D14A49FF208002091D4860B7
:10C8C0006846FFF7D6FA0EBD10B500F0B0F90028A3
:10C8D00005D100F0DFFE0446FFF730FF204610BD13
:10C8E00070B511DF002801D0FFF710FB3F49002091
:10C8F0000A683E4B012180330C468440144204D028
:10C90000C506ED0E0C46AC401C60401C2028F3D33D
:10C9100003242403A06813DF002801D0FFF7F6FAF0
:10C92000A06800F06BF870BD08B5684600F060F8CC
:10C9300000980178A52904D00079AA2801D0002008
:10C9400008BD012008BD10B500F08CFB002803D104
:10C9500000F05DFB002815D06420FFF7B7F900F068
:10C96000F2FA002801D0FFF7D1FA00F07BFB002893
:10C9700001D0FFF7CBFA00F020FB041E01D0FFF737
:10C98000C5FA204610BD00B5174987B014220C31F6
:10C9900001A801F013FA0598009001A80FC8FFF74D
:10C9A00014FFFFF7CBFE002007B000BD38B50446EA
:10C9B000684600F01DF800980078207000984088C4
:10C9C000608000988168A16001792171C168E1608F
:10C9D00001692161416961618069A06138BD000020
:10C9E000542C002070310020B8DE030000E100E08C
:10C9F000014901607047000000FC030010B5FEF71C
:10CA00009BF910BD10B50446002A02D01088002200
:10CA100010E00A48FBE7030A00020343A05C584009
:10CA200003061B0F43401803584083B21806C00C7E
:10CA30005840521C8A42EED310BD0000FFFF000098
:10CA400070B5FA4C1E4660781546012902D00329BC
:10CA500016D108E0052813D16369002B10D03246A7
:10CA6000294604200BE002280AD1F148406880479B
:10CA7000032060706369002B02D032462946984734
:10CA8000280001D0FFF742FA70BD00B5E74987B032
:10CA9000012008700520694608710598009001A8DA
:10CAA0000FC8FFF792FE07B000BD10B5DF48007851
:10CAB000002801D0082010BDDE4C2068FFF78BFC59
:10CAC000002801D0FFF722FA0F21002289042068F4
:10CAD000FFF748FC041E01D0FFF718FA204610BDEE
:10CAE000D24910B5D1482031016102214170C1689D
:10CAF0002030FFF7E8F9002801D0FFF707FA10BD52
:10CB0000CA4910B5C948183101610221417003209A
:10CB100000038068EB2189021D22091A5203101AB2
:10CB20004005400D081A03218902401A4108BF48F8
:10CB30001830FFF7C8F9002801D0FFF7E7F910BD5A
:10CB4000704700B5BB4987B01422091D01A801F048
:10CB500035F90598009001A80FC8FFF736FEA2E747
:10CB600000B587B0012168460171B04881886846E8
:10CB7000C1800320000380680590AD48903841686B
:10CB8000029181680391C0680490059800900A465C
:10CB9000049B02990198FFF718FE002083E730B547
:10CBA000A34CA248903C87B02030E168FFF78BF996
:10CBB000002801D0FFF7AAF99C48E26818304168C4
:10CBC00000230830FFF766F9050012D1142101A8EF
:10CBD00001F00DF90021684601719448818868468A
:10CBE000C180E06804900598009001A80FC8FFF785
:10CBF000ECFD284607B030BD00B587B0032168467C
:10CC000001718A4881886846C180894890384168A6
:10CC1000029181680391C0680490059800900A46CB
:10CC2000049B02990198FFF7D0FD00203BE7FEB579
:10CC3000804E6B463046183007C807C37B4C002532
:10CC4000A5702146A58020316846FFF712F900281B
:10CC500001D06570FEBD0320744900038068203157
:10CC6000486020390A46126A8A611D225203EB216C
:10CC7000121A89025205091A520D891A03229202C8
:10CC8000891A4908081869496B4A18314860002117
:10CC90006848FFF72DFB002801D0FFF737F90F2177
:10CCA000002289043068FFF75DFB002801D0FFF700
:10CCB0002DF90120A56060700020FEBD5B49486130
:10CCC000704770B542685A48146853689168903844
:10CCD000D26804604360C26081600078440701D577
:10CCE000840705D19C0703D18C0701D1940701D09B
:10CCF000062070BD5B189A184C4D05231B03EA6093
:10CD000099421CD84D4B4E49494CC60709D09868EA
:10CD1000081A904213D34B4820604B4860604B4840
:10CD200018E09B68EB26C91AB602F61A4905490DA8
:10CD30000323711A9B02C91A4908914201D20C209F
:10CD400070BD4349216043496160800701D5424875
:10CD500000E04248A0606878012802D008263046EA
:10CD600070BDFFF7A2FE0600FAD12168E868884787
:10CD7000F5E770B5050004D0287A800703D01020AD
:10CD800070BD0E2070BD294C6078032803D00428A4
:10CD900001D0052801D0082070BD6868E1688600D0
:10CDA000A0688019884204D90020C043A0600C20EC
:10CDB00070BDFFF77AFE0028FAD1A9683246A36851
:10CDC0002069FFF767F80028F2D1A1688919A160EE
:10CDD000E2689142ECD0092070BD10B5134C0820D8
:10CDE000A168002900D010BD61780429FBD110484A
:10CDF000A178803800F07EF9002802D00021A170CF
:10CE000010BD0521617010BDF8B5084C074660786B
:10CE1000032804D0042804D008252846F8BD04209F
:10CE20006070A06800281BD00820F8BD602C00208E
:10CE30003C320020D8DE03008BCA03000030000023
:10CE400000A00300E1CA030043CB030061CB030051
:10CE500001CB030041CB0300F9CB03009FCB0300C0
:10CE6000FFF723FE0500E0D178688600A0788119DD
:10CE7000802901D90920F8BD9B4AB96810183246AB
:10CE800000F09CFFA0788019A070C6E710B5974C01
:10CE90006078052813D1E168A06888420FD1062088
:10CEA0006070FFF702FE002808D12069E168406841
:10CEB00000F05BF9002801D10721617010BD082046
:10CEC00010BD10B589484078072801D0082010BD52
:10CED00087480068FFF77FFA002801D0FFF716F8AF
:10CEE000814880308068804710BD00B587B006203B
:10CEF000694608710598009001A80FC8FFF765FC06
:10CF0000D1E5F8B51C4617460D46064600F0D6F8A2
:10CF1000002817D001200003854207D92346291B8A
:10CF2000301B1A46FFF7EDFF00280BD13A46294681
:10CF3000304600F0CEF8002804D13A462946304663
:10CF400000F0BCF8F8BDF0B589B06846FFF72EFDDB
:10CF5000039800282AD001210903069A401890421C
:10CF600026D9501A45081046039A0C4687180246DF
:10CF700068001618001907900320000380680399C1
:10CF800088420DD261190846042200F0A2F8002858
:10CF90000CD121460422084600F09BF8002805D158
:10CFA000BA1B2B4630460799FFF7ABFF09B0F0BD1F
:10CFB000039A069800F08DF8F8E700B58DB0684642
:10CFC000FFF7F4FC049800280DD0039800280CD03B
:10CFD000039906984018089000210498079180084A
:10CFE000099007A818DF0DB000BD0320000380687A
:10CFF0001D225203EB21121A89025205091A520D01
:10D00000891A03229202891A49080818E3E700B531
:10D010008BB004A8FFF7CAFC0898002810D0EB21B9
:10D020000798890200280DD0079A0A988018029064
:10D03000032208980092800803900191684618DF47
:10D040000BB000BD0320000380681D235B031B1A87
:10D050005B050A1A5B0DD21A03239B02D21A5208EF
:10D060001018E4E730B58FB06846FFF79FFC0398CF
:10D07000002814D001210903069A4018904214D9BF
:10D08000501A43081046039A5C0082180019611870
:10D0900003242403A468039DAC4202D20E200FB0E7
:10D0A00030BD121AFFF72DFFF9E703200BAB07C3C2
:10D0B000039880080E900BA818DFF0E71FB5032334
:10D0C00001909008039000930291684618DF04B025
:10D0D00010BD1FB5012301909008039000930291A9
:10D0E000684618DFF3E70000BC310020602C002008
:10D0F000D8DE030070B500250C290ED30446431872
:10D10000008941000919581A0A38C2B21E48022A79
:10D11000027002D30A318B4201D2092070BD1B4834
:10D1200000F04CFE1A481B4902888A4202D023882C
:10D13000934218D14088884202D06188814212D13E
:10D14000144A0323521E20891B03A8420BD96900ED
:10D1500009194989914204D09E896D1CB6B2B14229
:10D16000F3D1002070BD0B2070BD10B50022FFF779
:10D1700049FC064A5178127809021143884201D0CD
:10D180000B2010BD002010BD882C0020483200204C
:10D1900080100010FFFF000008280CD004DC0028DD
:10D1A00007D006280FD108E00B280AD00C280AD196
:10D1B00005E00120704702207047032070470420DB
:10D1C0007047042901D0062070470520704770B5CC
:10D1D00015460A4603281FD004281CD1FB4C002901
:10D1E00006D0E088FA49884215D0132176DF0EE098
:10D1F000284600F0EFFB002801D0FEF787FEA0696B
:10D20000A84208D101220321F248FEF7F5FA0028CE
:10D2100001D0FEF77BFE70BD01211046FFF7BCFF79
:10D2200002460121F0E7F0B50546087A0E4685B0C2
:10D2300081070AD0032211462846FEF7DDFA0028AE
:10D2400001D0FEF763FE05B0F0BDE0490090143157
:10D2500000F099FB010011D1DC4C7168009A606903
:10D2600000F0ACFD009800F0E8FB010006D120467C
:10D270006946143000F0EDFB010003D0284600F0B1
:10D28000C3FAE0E7042001900098800802906069EA
:10D29000039001A8FFF76DFD07000BD0092F10D0F8
:10D2A000606900F097FB010002D0284600F0ACFA5C
:10D2B0003946E3E7307A2169401820616069A0614E
:10D2C000C1E7307A21694118216160780028BAD01D
:10D2D0006089401E0004000C6081B4D12846FEF72E
:10D2E000E7FB002801D0FEF711FE20896081AAE744
:10D2F00010B5FEF70BFE10BD10B5B44C0120207028
:10D30000E088B349884206D0132176DF00280FD089
:10D31000FEF7FCFD0CE0A078002809D074DF00289F
:10D3200001D0FEF7F3FD152000F03CFA0020A070BC
:10D33000FEF7D5F9002801D0FEF7E8FD002010BD6A
:10D3400070B50D7804460120A04A2B0000F084FD42
:10D350000A252A3D06111C5156405A10FFF796FD2A
:10D360000421FFF719FF0246042128E0FEF7CEFD55
:10D3700070BDFFF7C1FF002801D0FEF7C7FDFFF722
:10D38000A0FD002806D170BDFFF7B6FF002801D030
:10D39000FEF7BCFDFFF7A9FD70BD1071486800786D
:10D3A000507170BD02201071486800780128F8D1D2
:10D3B000FFF713FD0221FFF7EFFE02460221204690
:10D3C000FEF71AFA0028D1D170BD0320107170BD8C
:10D3D00012792046012A06D0022A07D0032AF6D164
:10D3E000FFF721FF70BD00F020FA70BD00F058FA81
:10D3F00070BD507088881081508170BD00205070C1
:10D40000108170BD20461169FEF71BFBDAE710B5ED
:10D410000446704890B08179684681706E490180F9
:10D42000382101A800F0E3FC0221684601710021C7
:10D430008171C471012181810490002101A8FDF74F
:10D4400061FF002801D0FEF761FD10B010BDF0B5FE
:10D450005E4C8BB0A07800283CD15E48182118386B
:10D4600000F0C5FC20465B4CC078183C0025012626
:10D47000002839D02746483700950195029510229B
:10D480006946F81D039500F0BDFC002824D0F81D66
:10D49000089009976846067509A8049068460677BB
:10D4A00008A806900420FFF7B2FF25700220207222
:10D4B00004A8E0602820208246486582183873DF7F
:10D4C000002801D0FEF722FD012044494005C86034
:10D4D0003E4886700BB0F0BD0520FFF798FF267020
:10D4E000676025722582E7E70620FFF790FF257029
:10D4F00065602572DEE7F0B50546344C00880027EC
:10D500000122E688A7B0192810D024DC112843D0C6
:10D510000EDC02287DD0102808D130498004C86074
:10D52000152000F03FF9A888E080A77027B0F0BD73
:10D53000284C303427461837132851D01428F5D1F9
:10D54000288A628D0021904200D139460023A888A4
:10D55000E21D86DF1BE051286CD00EDC1A287DD03E
:10D560001B28E3D1287A0028E0D1A770E068401E8C
:10D57000E0604FD0FFF76BFFD8E7522876D05528F0
:10D58000D4D1A8790028D1D11321304676DF0028E4
:10D59000CCD0FEF7BBFCC9E78020694688803220EA
:10D5A000E060162000F0FEF8012301AA06A9E08839
:10D5B000AADF002801D0FEF7A9FC2078002801D1BD
:10D5C000FFF745FF0020C043E080AFE78C2C002030
:10D5D000FFFF00006C3200203015000000050050F5
:10D5E0000722D24912A800F0E9FB1022E11D0EA883
:10D5F00000F0E4FB1C22394614A800F0DFFB0EA863
:10D600000B9014A80A9006ABC94A852130467FDFEB
:10D61000BDE70BE01422C74906A800F0CFFB0A982B
:10D6200006AC00900FCCFFF7D0F87FE70021304622
:10D6300067DFACE7A97900299ED0A87B042803D036
:10D64000062801D0052897D102290BD0684602721E
:10D65000FF2083306946888102A900E006E0304659
:10D66000A8DF94E7022069460872F1E700F09FF80E
:10D670008DE710B50446FEF766F8AC482146303811
:10D68000FEF79DF92046FFF736FF10BD10B5FEF7F7
:10D690003DFC10BD30B5A64D87B000241C3D2C705C
:10D6A0002C71152000F078F8162000F075F8152080
:10D6B00000F078F8162000F075F89F4800F045FA61
:10D6C000002864D19D48FFF7F9FA00F04DF90028D1
:10D6D0005DD19648FDF776FB00285AD0684671DF89
:10D6E000002801D0FEF712FC69464878401C4870BB
:10D6F000002070DF002801D0FEF708FC11206946E9
:10D70000087207228EA102A87CDF002801D0FEF754
:10D71000FDFB00940C216846019401801821418092
:10D72000FF2184809131C1807ADF002801D0FEF78B
:10D73000EDFB0820694600940880834801908348E7
:10D7400002907A483038FEF7FAF8002801D0FEF748
:10D75000DDFB1C21684600F04AFB7D48019001205A
:10D76000800302900094032168460173C48104740D
:10D770007848069005946846FDF78FFF002801D091
:10D78000FEF7C4FB00F0B9F8FFF761FE002007B018
:10D7900030BD0120E870B1E76F4A03218000801896
:10D7A00001607047012181406C488160704770B50D
:10D7B0005F4C6B4D1C3CE088A84201D1082070BD35
:10D7C000E17800291BD05949012308223431A9DF0F
:10D7D0000028F4D1022300221146E088A9DF0028A6
:10D7E000EDD12A460C21E088A7DF5E49884204D0AB
:10D7F000082802D0891C8842E1D1002070BD002396
:10D800001A461946A9DF70BD10B50A460446032121
:10D810001046FFF7C1FC024603212046FDF7ECFF4E
:10D82000002801D0FEF772FB10BD30B5054687B069
:10D83000002000900190029003903D486A461C38F9
:10D84000407910703B4A0C3A106892680490684620
:10D8500006920590087A0C2804D0032219E0FEF7FE
:10D8600055FB94E74C68204600F056F80190201DC7
:10D8700000F052F802902046083000F04DF8039076
:10D8800004A8FFF71EFA002881D00121FFF784FCCD
:10D89000024601212846FDF7AFFF0028DFD176E7D9
:10D8A000FEB50446087A82070ED08207920F042341
:10D8B0009B1A0022154604E04E683554401CC0B245
:10D8C000521C9A42F8D308720120009048680290D6
:10D8D000087A800801906846FFF796FA00280BD076
:10D8E0000221FFF759FC024602212046FDF784FF82
:10D8F000002801D0FEF70AFBFEBD0D498122087801
:10D9000040084000104030304006400E08700720AC
:10D91000487010208870704710B5044600F07FFAF8
:10D920000002E178000A0906084310BD9C3200207D
:10D93000A82C002008DF030073D60300CFD103001A
:10D94000444655314231310041D303008DD60300A6
:10D95000CD0C0000F1D2030000070050000500507C
:10D96000FFFF0000023000004B48002101704C48CE
:10D970004A4A02608160C1600161082241614260DF
:10D9800081610846704710B500291DD000220A6049
:10D99000434A5368002B1BD0202817D85B1E5360C6
:10D9A000D0682423401CD060106914684343E318F6
:10D9B0000B60012383409169401C19434007400FCD
:10D9C00091611061002010BD0E2010BD0C2010BD13
:10D9D000042010BDF0B5324A0646916800292AD0CD
:10D9E00057691020791A4907490F14680B462425F6
:10D9F0004D436519B54206D1012495698C406540B7
:10DA00000020956104E0491C4907490F8F42EED17F
:10DA1000491C4E07760F956901210C469C40254212
:10DA20000AD19368002B07D05B1E936053685B1C80
:10DA300053603346F1E70420F0BD194A2423117CDA
:10DA40001268491E4907490F5943203150500020A0
:10DA5000704770B500281AD0002918D0104AD36832
:10DA6000002B16D05B1ED360936824265B1C93604A
:10DA7000536915681C467343EE1820330660E85856
:10DA8000641C08606007400F5061002070BD0E20CC
:10DA900070BD042070BD0000AD2C0020D8320020E5
:10DAA000F833002010B5FEF73DFA10BDF8B5614C13
:10DAB0002078002833D02069002807D00026E068AD
:10DAC000002805D00025002E04D011E00126F6E73D
:10DAD0000125F8E7684652DF052804D0002804D065
:10DAE000FEF714FA04E0012602E021690098884755
:10DAF000002D10D1608869460880A06861DF052884
:10DB000004D0002804D0FEF701FA04E0012502E069
:10DB1000E168A0688847002EDCD0002DD3D0F8BD86
:10DB200070B5002901D08C0701D0072070BD414C91
:10DB30000125A16062804049636010DF0028F5D1B3
:10DB40002570162000F03AF870BD002803D039493E
:10DB5000C860002070470E207047002803D0354968
:10DB60000861002070470E20704710B531484068AA
:10DB7000002805D08047002801D0FEF7C7F910BD66
:10DB8000FFF794FF10BD70B50E46054614461421EC
:10DB9000104600F02CF90120002120802161217322
:10DBA00026726572002D00D0A072002070BD1CB5D9
:10DBB000224901910091694660DF1CBD10B5012129
:10DBC000202805DA1E4A8140114201D11D4810BDAE
:10DBD0008107C90E002808DA0207120F083A9208D6
:10DBE000194B9200D218D26904E08208174B9200B8
:10DBF000D2181268CA401106890F042912D20029CE
:10DC000010D002290ED00B4914314C68C306DB0E2C
:10DC100001229A40002C08D0400980000B58134381
:10DC20000B5004E00748401C10BD0948026000206A
:10DC300010BD0000B42C0020A5DA0300002C002049
:10DC4000FC06FFBC0120000000ED00E000E400E065
:10DC500000E100E010B5002902D00020FEF756F9DF
:10DC6000FFF724FF10BD10B50021024A0846FEF759
:10DC70007BF910BD55DC03000321094802680A4303
:10DC80000260084802680A43026007488047074864
:10DC90000047FEE7FEE7FEE7FEE7FEE7FEE70000DF
:10DCA0002405004054050040B1DC0300C1AC030072
:10DCB00010B500F03EF8002805D02F492D484860E7
:10DCC000C8132E4988612E48018CC9B201290BD195
:10DCD000828C120708D1028D1206120F042A03D17A
:10DCE000828D1206120F0AD0012921D1818C0907D9
:10DCF0001ED1018D0906090F0A2904D007E0214A27
:10DD000001219160F5E7828D1206120F05D00D29D1
:10DD10000ED1808D0006000F0AD11B480168012931
:10DD200004D01A49016001680129FCD1C021416178
:10DD300010BD1348018CC9B2012917D1818C090784
:10DD400014D1018D09060A0F03D1828D1206120F1C
:10DD50000ED0090F012903D1828D1206120F07D0B0
:10DD6000032903D1808D0006000F01D000207047E9
:10DD700001207047DFFF07C000050040006C004035
:10DD8000C00F00F00006004000EC06407593000054
:10DD900030B50B46014600202022012409E00D4643
:10DDA000D5409D4205D31D469540491B25469540CB
:10DDB00040191546521E002DF1DC30BD03460B43C1
:10DDC0009B0703D009E008C9121F08C0042AFAD231
:10DDD00003E00B780370401C491C521EF9D27047B7
:10DDE000D2B201E00270401C491EFBD270470022F3
:10DDF000F6E710B513460A4604461946FFF7F0FF4A
:10DE0000204610BD30B504460020034600E05B1CF0
:10DE1000934203D2E05CCD5C401BF8D030BD0321BF
:10DE2000001D401E037812021A43491EF9D5104600
:10DE300070470000064C0125064E05E0E36807CC5C
:10DE40002B430C3C98471034B442F7D3FCF73CFF0B
:10DE50001CDF03003CDF030030B47446641E2578E9
:10DE6000641CAB4200D21D46635D5B00E31830BC0E
:10DE7000184702E008C8121F08C1002AFAD17047EB
:10DE80007047002001E001C1121F002AFBD170473A
:10DE90000100000702000000000000000000000078
:10DEA000000000003430002023D1BCEA5F78231545
:10DEB000DEEF12120000000021C703000000000086
:10DEC0000000000002000000000000000000000050
:10DED00000000000000000008C3100200400000061
:10DEE0000000000000000000000000000000000032
:10DEF00041CA030000000000000000000300000011
:10DF0000000000000000000005000000000000000C
:10DF10000000000000000000000000003CDF0300E3
:10DF2000002C0020D400000072DE030010E003008B
:10DF3000D42C0020440F000082DE0300000000000B
:10DF400000000000000000000000000000000000D1
:10DF500000000000000000000000000000000000C1
:10DF600000000000000000000000000000000000B1
:10DF700000000000000000000000000000000000A1
:10DF80000000000000000000000000000000000091
:10DF90000000000000000000000000000000000081
:10DFA0000000000000000000000000000000000071
:10DFB0000000000000000000000000000000000061
:10DFC0000000000000000000000000000000FFFF53
:10DFD000000000003200000000000000000000000F
:10DFE0000000000000000000000000000000000031
:10DFF0000000000000000000000000000000000021
:10E000000000000000000000000000000024F400F8
:020000041000EA
:0410140000AC030029
:040000050003ACC187
:00000001FF
