:0200000270008C
:108000000000012079830700618307006383070074
:10801000658307006783070069830700000000008D
:10802000000000000000000000000000C1D10700B7
:108030006D830700000000006F8307007183070055
:10804000738307007383070073830700738307003C
:10805000738307007383070073830700738307002C
:10806000738307007383070073830700738307001C
:10807000738307007383070073830700738307000C
:1080800081B40700738307007383070073830700BD
:108090007383070073830700C1D30700738307004E
:1080A00073830700738307007383070073830700DC
:1080B00073830700738307000000000000000000C6
:1080C00073830700738307007383070073830700BC
:1080D00031B10700738307007383070000000000BD
:1080E0000000000000000000000000000000000090
:1080F0000000000000000000000000000000000080
:10810000000000000000000000000000000000006F
:10811000000000000000000000000000000000005F
:10812000000000000000000000000000000000004F
:10813000000000000000000000000000000000003F
:10814000000000000000000000000000000000002F
:10815000000000000000000000000000000000001F
:10816000000000000000000000000000000000000F
:1081700000000000000000000000000000000000FF
:1081800000000000000000000000000000000000EF
:1081900000000000000000000000000000000000DF
:1081A00000000000000000000000000000000000CF
:1081B00000000000000000000000000000000000BF
:1081C00000000000000000000000000000000000AF
:1081D000000000000000000000000000000000009F
:1081E000000000000000000000000000000000008F
:1081F000000000000000000000000000000000007F
:10820000364937480A1A02D0072291438D4635492C
:1082100035480A1A06D00722914381F309880222C1
:1082200082F3148831483249324A00F045F8324826
:108230003249334A00F040F832483349334A00F0BB
:108240003BF833483349344A00F036F83348344970
:10825000344A00F031F834483449354A00F02CF8FB
:1082600034483549354A00F027F835483549002269
:1082700000F02DF834483549002200F028F8344841
:108280003449091A082903DB002202600430016026
:10829000314A90471F482049884205D0026804307F
:1082A00003B4904703BCF7E700208646EC46002065
:1082B00000212A4A9047FEE7884207D0521A05D08B
:1082C000037801300B700131013AF9D170478842CF
:1082D00002D002700130FAE7704700000000012070
:1082E00000F80020000001200000012020DC070031
:1082F0007C590020B4590020D4830700D4830700A0
:10830000ECD6070020DC07007C5900207C590020B7
:1083100058D7070058D7070058D7070058D7070085
:1083200058D7070058D7070058D7070058D7070075
:1083300020DC070058DC0700B4590020B4590020A5
:10834000B4590020647F0020647F0020647F0020F7
:10835000647F0020647F0020A1830700619D0700E7
:10836000FEE7FEE7FEE7FEE7FEE7FEE7FEE7FEE7E5
:10837000FEE7FEE700F002B8FFF7FCBF0F484FF042
:108380000701884385460E4880470E48016841F43E
:1083900070010160BFF34F8FBFF36F8FFFF730BFE6
:1083A00009480A490A4A884207D0521A05D0037878
:1083B00001300B700131013AF9D170470000012002
:1083C0006DB5070088ED00E044D70700685900202C
:0483D0007C590020B4
:1083D40012F0030310B511D1094C22604C1CE400C7
:1083E400A4B22244074C2260074A1370074A137050
:1083F400074A1080074A1846118010BD072010BD97
:10840400BC590020B8590020B4590020C459002098
:10841400C0590020C25900202DE9F3472B4D2B8869
:108424008B4206460C4617464BD302A84FF0000871
:1084340000F8018D00F088F8254B264A1878117849
:10844400CBB2254909888B4238BF0133C0B238BF4B
:108454005FFA83F840452ED092F800801378DBB29F
:10846400994286BF0133DBB2002313709DF80700E5
:1084740000F08EF84FF6FF73984524D0DFF860A023
:10848400DAF800304FEAC80903EB090243F8387000
:10849400A6B19CB1114B28881B68224608FB00300A
:1084A400314605F093F8DAF800304B4400209C8004
:1084B40002B0BDE8F0874FF6FF78D7E70020908040
:1084C400F6E70920F4E70420F2E700BFC0590020D2
:1084D400C4590020B4590020C2590020B8590020C2
:1084E400BC590020F8B5124C124D264622782B7840
:1084F4009A4200D1F8BD23780F48104A07881268C1
:108504000F48DBB219B202EBC10E006852F83120F9
:10851400BEF8041003FB070090470A4A2378128828
:10852400DBB29A4286BF0133DBB200233370DDE74E
:10853400C4590020B4590020C0590020BC5900205F
:10854400B8590020C259002070B5EFF3108672B6F6
:108554000C4A946801239CB993600B4B0B4DD3F8E0
:10856400801029401160C3F88050D3F88410516002
:108574004FF0FF32C3F88420047006B962B670BDB0
:108584000370FAE7C859002000E100E0FC06FFBDD3
:10859400084B9A6810B55AB150B9EFF3108272B60D
:1085A40005491C680C605C684C60986002B962B64E
:1085B40010BD00BFC859002000E100E030B53AB159
:1085C4001368DB430B4C0144814204D1D84330BDD2
:1085D4004FF0FF33F6E710F8012B5340082213F055
:1085E400010F14BF25460025013A85EA5303F6D14D
:1085F400EAE700BF2083B8ED10B561B1B2FBF3F434
:1086040003FB1424A4B244B980E81200846082817C
:10861400C381204610BD0E2010BD092010BD82B0BC
:1086240050E8022FC188B2EB324F4FF0000317BF5E
:1086340092B241EA014142EA014104E04268B2EBEC
:10864400324F08BF012340E80212002AE8D18DF816
:1086540007309DF80730002B0CBF1120002002B01A
:10866400704737B550E8013F9DB2C48925448489D9
:10867400A54228BF2D1B0489A54202BFBFF32F8F3B
:10868400002207E0C5EA030540E80154002CE9D1C3
:108694004FF001028DF803200193019B9DF8032004
:1086A4000B6002F0FF0322B10B880068184403B08A
:1086B40030BD1846FBE70A884B889A4209D150E836
:1086C400012FC2EA024240E80123002BF7D1012026
:1086D40070470020704737B550E8023F1FFAA3F5F2
:1086E400C488A54202BFBFF32F8F00220DE0C489C6
:1086F40025448489A54228BF2D1BC3EA054540E8CB
:108704000254002CE8D14FF001028DF803200193AC
:10871400019B9DF803200B6002F0FF0322B14B88FC
:108724000068184403B030BD1846FBE70A884B883C
:108734009A4209D150E8022FC2EA224240E80223B9
:10874400002BF7D1012070470020704700B550E896
:10875400002F42EA010340E8003E9EF0000FF6D1EC
:1087640010465DF804FB00B550E8003F03EA01023F
:1087740040E8002E9EF0000FF6D110465DF804FB91
:108784000121FFF7E3BF0021FFF7EDBF10B590B162
:108794004268836801689B1ADBB20A60013BDBB262
:1087A400FF2B026802D10020107110BD11684C1C0F
:1087B40014600B70F2E70E2010BD37B5054602A811
:1087C400002400F8014DFFF7BFFE2A686B681168AA
:1087D40099420ED9481E106011F8014CEB68298AA1
:1087E40001FB0434AB6811791B1ADBB2994238BF20
:1087F40013719DF80700FFF7CBFE204603B030BD90
:1088040037B5054602A8002300F8013D0C46FFF7E2
:108814009BFE2A681368591C1160E968641A298A46
:10882400B4FBF1F41C709DF80700FFF7B1FE03B030
:1088340030BD01600B681146184710B40468E46841
:10884400A4465DF8044B604710B404682469A44648
:108854005DF8044B6047000070B508B10368B3B914
:108864000D4D0E4B14225B1B0024B3FBF2F302FBF1
:1088740003F6A64201D1002070BD2B5928190BB96B
:108884001434F6E7DB6998470028F9D070BDDB693A
:10889400BDE87040184700BF685900207C5900208B
:1088A400014B43600020704758D7070008467047C3
:1088B40000207047024B1868003018BF0120704731
:1088C400D459002008B50248FFF75DFF002008BD19
:1088D400D459002008B510461A4604F077FE00204B
:1088E40008BD00002DE9F041804686B014480E46CC
:1088F40015461F46FFF744FF0446F0B9A54214D1BC
:108904000F48FFF740FFD8F8083000249BB102223B
:1089140068468DF800200194029603940495059707
:108924009847204606B0BDE8F08106EB043001F01C
:1089340077F80134E2E71846F4E71120F2E700BFC4
:10894400D45900202DE9F041804686B012480F46E4
:1089540016461D46FFF714FF0446D8B9AA08314647
:10896400384601F08BF80C48FFF70DFFD8F80830B3
:1089740073B101228DF800200C9A01946846029785
:108984000396049505929847204606B0BDE8F08109
:108994001846FAE71120F8E7D459002029DF704778
:1089A40028DF704770B503689D6886B004460E469C
:1089B4006DB118220021684604F032FEA3680593C5
:1089C400237901962BB1012B0DD06846A84706B038
:1089D40070BD01238DF8003023690293E36803938B
:1089E40063690493F1E702238DF80030E3681B0305
:1089F4000293F5E70846704700207047024B187A47
:108A0400003018BF01207047C45B0020034B187A64
:108A14000122B0FA80F05A7440097047C45B002008
:108A240008B510461A4604F0D1FD002008BD000028
:108A340008B514220021044804F0F2FD0348FFF7AE
:108A4400EEFD002008BD00BFC45B0020B45B002025
:108A540010B5094C094B43602046FFF791FE48B915
:108A640004F092FC1C2320744FF4EE720449054870
:108A7400FFF7C2FD002010BDC45B002084D70700AF
:108A8400D8590020B45B002070B5234D234E2B7AB7
:108A94002C463BB922492348FFF71DFE306008B934
:108AA400686070BD0223237233681A7972B1012A97
:108AB40022D018460321FFF775FF00232372636059
:108AC40017491848BDE87040FFF730BE98695A69E5
:108AD400D9681D69121A142A28BF14229208012A7F
:108AE400014438BF01222844FFF758FF50B1112830
:108AF400DFD10123237270BDD8681A691044FFF7CF
:108B04004FFFF3E7237C2BB90146BDE870400220F8
:108B140000F00AB870BD00BFC45B0020DC5B00201D
:108B2400D85B0020B45B002038B5831E012B43D8EA
:108B3400224C237A002B3FD0022B09D103282ED0BC
:108B44001F4B1B680022E2601A793AB1012A20D037
:108B5400637C6BBBBDE83840FFF796BF9A695969DF
:108B64008D1A142D94BF521914329A619142EFD187
:108B740002284FF0000308BF19462372104B18BF98
:108B84000D211868FFF70EFF0E490F48FFF7CEFDC1
:108B9400DEE71A6901321A615B699A42E7E7E36822
:108BA4000133082B01D8E360D2E70023E360DFE759
:108BB400BDE8384004F0D8BB38BD00BFC45B00201A
:108BC400DC5B0020D85B0020B45B002000F0FD03D8
:108BD400012B08D1044B00225A74421E50425041CA
:108BE4001874FFF751BF7047C45B002010B5064CE2
:108BF400201DFFF7C5FD28B9637C1BB9BDE81040F3
:108C0400FFF742BF10BD00BFC45B00202DE9F34154
:108C140080460D460F4801A916461F46FFF721FD61
:108C24000446A8B11C22002104F0FAFC2D0B0123F8
:108C3400237101A9C4F80080A760E5606661054856
:108C4400FFF739FDFFF7D2FF002002B0BDE8F08145
:108C54000420FAE7B45B00202DE9F74381468846F7
:108C6400104801A917461E46FFF7FBFC0446B8B19D
:108C74001C22002104F0D4FC00250A9BA36001A956
:108C84002571C4F80090C4F81080E7606661054857
:108C9400FFF711FDFFF7AAFF284603B0BDE8F083F4
:108CA4000420FAE7B45B00200B684A6843609342EF
:108CB40008BF0023016008BF43607047436843B1A5
:108CC4000268916852680B449342436004BF0023D6
:108CD400436070472DE9F04F0022C9B04B780C78FF
:108CE4001B0443EA0463CC7823438C7843EA0423CB
:108CF40008AC0431A3500432402AEFD1234638ADE6
:108D0400996B1E464FEAF14282EA714282EA91224D
:108D1400716A366853F8044F31440A444FEAB44147
:108D240081EAF41181EAD4010A449D42DA63E7D16D
:108D3400036D0093436D0193836D0293C36D03939D
:108D4400036E0493436E0593836E069304A991E81E
:108D54000250C36EDDF80C80029DDFF8AC900793DF
:108D64009DE850009B4600274FEAF12383EAB113A4
:108D740083EA716A59F827301A4608AB53F827304A
:108D84001A44134653442EEA010201EA0C0A82EA09
:108D94000A021A444FEA743A85EA06035A448AEAF4
:108DA400B40A06EA050B234083EA0B038AEAB45AA1
:108DB40001379A44402F02EB0803F3465244A84675
:108DC4001AD1009F1744019A076522444265029A0A
:108DD40032448265039A2A44C265049A1A44059B64
:108DE40002660B444366069B63448366079B734495
:108DF400C36649B0BDE8F08FE64635468C46264644
:108E040019461446B0E700BFB0D7070030B5E0B14B
:108E14000F4A02650F4A42650F4A82650F4AC265CE
:108E24000F4A02660F4A42660F4A826602F1745282
:108E3400A2F52302002300240025A2F69242036433
:108E4400C0E91245C266184630BD0E2030BD00BFD1
:108E540067E6096A85AE67BB72F36E3C3AF54FA5C7
:108E64007F520E518C68059BABD9831FF8B504461D
:108E7400F0B10AB90020F8BDD1B10D468E18002713
:108E8400B542F7D0236C15F8012BE2540133402B83
:108E94002364F5D121462046FFF71CFFD4E91201D3
:108EA40010F5007041F10001C4E912012764E7E7FD
:108EB4000E20F8BD70B50D4616460446002800F095
:108EC4008680002900F08380026C8021372A00EB21
:108ED400020381544BD800F13802002101339A4235
:108EE40043D1D4E91223206C0821E1FB002322FAA8
:108EF40001F1C4E9122384F83F2084F83E10110CD8
:108F0400120E84F83C201A0A84F83B3084F83A2084
:108F14001A0C1B0E84F83D1084F83920214684F87D
:108F240038302046FFF7D6FE691E8EB30023E26E6A
:108F3400DA4001F8012FA26EDA400A71626EDA405B
:108F44000A72226EDA400A73E26DDA400A74A26D84
:108F5400DA400A75626DDA400A76226DDA40083327
:108F6400202B0A77E3D1002070BD1970B6E70021E9
:108F740001331A1B3F2A09D921462046FFF7AAFECE
:108F840038220021204604F04BFBAAE71970EFE7D2
:108F94001823226DDA4001F8012F626DDA400A715C
:108FA400A26DDA400A72E26DDA400A73226EDA4088
:108FB4000A74626EDA400A75A26EDA400A76E26ECC
:108FC400DA40083B13F1080F0A77E2D1CBE70E2011
:108FD40070BD43689B68184708B5436808305A79E0
:108FE40000F06DFE002008BD2DE9F0430D469BB056
:108FF400084699469046FFF7ECFF6E6874794C4535
:1090040028BF4C4607462246414602A800F04CFEC3
:10901400727922990AA800F052FE00970AAB224600
:1090240002A905F1080001F015FD002848F242509C
:1090340018BF00201BB0BDE8F083002383608B8839
:10904400C2601A44B1F9063002611A4401604160F9
:1090540042610888003018BF0120704742681188B7
:1090640038B50346002937D0148A02F11001416053
:109074002CB9C2680168FFF7E0FF204638BD90783C
:10908400118900F03005302D14D1947C04F03004A3
:10909400302C0FD190881969091A19610021908A1E
:1090A400B2F916200844196901441961114459613F
:1090B400012038BD00F0F004202C07D15089414331
:1090C400002DECD1986801309860E8E700F0C0000A
:1090D400802808BF0421F3E7084638BD70B5456809
:1090E40004460E4663681A88B24204D19B7803F0A2
:1090F4000F03082B07D12046FFF7B0FF63689D429A
:10910400F0D1002070BD012070BD43681A44426054
:1091140011B10139934201D10120704713F8010BB9
:1091240001F8010FF6E770B54268937803F00F0475
:10913400082C86B01FD103691C6800260CB906B040
:1091440070BD236862689D68267329466846FFF7E8
:1091540074FF6368049304F10C030593AB7803F084
:10916400C003802B08BF231D684608BF0493FFF784
:10917400DAFFA468E2E713F0C0011BD103F0300565
:10918400102D08D143691970072C09D10169D068E1
:1091940000F01AF8D3E79D06F6D543691980CEE7A7
:1091A400D1680069128911B104F010FAC7E704F01C
:1091B40037FAC4E78029C2D1016900229B060A60FC
:1091C400BDD543691A80BAE77FB50A4601466846A9
:1091D400FFF733FF30B16846FFF7A5FF6846FFF796
:1091E4003DFFF7E707B05DF804FB83682DE9F34121
:1091F4000446884623B90027384602B0BDE8F0810A
:10920400036801220DF10701984707460028F2D0B0
:10921400A3689DF80750013B2A06A3601AD505F000
:109224007F050726A368002BE5D0236801220DF1F2
:109234000701204698470028DDD0A3689DF8072041
:10924400013BA36002F07F03B3401D43130606F104
:10925400070602D4C8F80050CEE7232EE2D1CAE7AD
:1092640030B5044685B01546A9B90268114B9A4237
:1092740011D0102D06D82A4669462046FFF7F0FF84
:1092840005B030BD102269462046FFF7E9FF0028EB
:10929400F6D0103DEDE7A3689D4201D90020EFE729
:1092A40023682A46204698470028F7D0A3685D1B08
:1092B400A560E5E70F91070073B50D4601A90646C1
:1092C4001446FFF792FF88B1019A511C10D2AB7873
:1092D40003F0C003802B0BD02B89994208D8214678
:1092E4003046FFF7BDFF019B0022E25402B070BD7F
:1092F4000020FBE773B50D4601A906461446FFF7A7
:1093040074FF98B1019AB2F5803F11D2911C0FD22B
:10931400AB7803F0C003802B0AD02B89994207D87D
:109324002146304621F8022BFFF79AFF02B070BDA8
:109334000020FBE710B58260024C0460002241600B
:10934400C26010BD0F9107002DE9F34704460F4694
:109354004FF000084FF000090025A36803B3236809
:1093640001220DF10701204698470646C0B1A368C3
:109374009DF807A0013B2A46A3600AF07F00002164
:1093840004F0F0F81AF0800F48EA000849EA0109ED
:1093940005F1070502D1C7E9008902E0462DDCD1B9
:1093A4000026304602B0BDE8F08737B50D46694661
:1093B4001446FFF7C9FF68B12B89082B0CD1DDE9EE
:1093C4000001C4E90001DDE900238B4206BF8242AB
:1093D4000120002003B030BD042B04D1DDE90001DD
:1093E40020600021EFE7022B03D10098208080B297
:1093F400F7E7012B05D1DDE90001207000F0FF0043
:10940400EFE70020E6E737B50D4669461446FFF757
:109414009BFF30B12A89082A05D1DDE90023C4E97C
:10942400002303B030BD009B042A18464FEAE371C1
:1094340008D123601A460B468B4206BF82420120A4
:109444000020EEE7022A04D11BB223801AB2D317FC
:10945400F2E7012A03D15BB223705AB2F7E7002086
:10946400DFE7F7B50C46002119702170116001A9DE
:10947400074615461E46FFF7B8FE30B9BB6813B958
:1094840001233370002003B0F0BD01990029F7D007
:10949400CB0801F007012B602170F4E713B50446F3
:1094A40005291FD8DFE801F0030F151E1E1C012239
:1094B40001A92046FFF7D4FE18B19DF90430002B12
:1094C400F5DB02B010BD082200212046FFF7C8FEDC
:1094D400F7E701A9FFF789FE0028F2D0019AF3E724
:1094E4000422F1E70020ECE773B50D4601A9044618
:1094F400FFF77BFE064618B90026304602B070BD61
:1095040094E80F0085E80F0001998A42F4D3A9601A
:10951400A3685B1AA360F0E72DE9F0435468A378CD
:1095240013F0C00C89B006468E46154604D0BCF133
:10953400400F68D0002444E003F00F025C4903F0BC
:109544003003102B51F822701DD006D8002BF1D116
:109554002A692146B847044633E0202B17D0302B24
:10956400E8D16B6921881980072A09D161462289CB
:10957400286904F055F86B682969D868FFF724FE58
:109584002A6969683DE06B6901221A70E0E7BEF15F
:10959400020FD5F8148027D1042A25D804A9FFF78F
:1095A400A3FF04460028C5D0069B2BB16968B8F810
:1095B40000304A899A4208D8059B7360069B002BA9
:1095C400B8D1204609B0BDE8F08308892A6903FBB5
:1095D400002204A8B84728B1B8F800300133A8F82D
:1095E4000030E1E70446E7E7B8F8003062899A42C0
:1095F400A0D921892A69581C03FB0122A8F800007C
:1096040021463046A6E717693B6807F1040913B9F8
:10961400FFF744FF9FE7022913D104A9FFF764FF72
:10962400002887D03B6869684A4604A898470446DE
:1096340000283FF47FAF069B002BF3D1059B73609A
:10964400BFE701292AD009D305297FF473AF042287
:109654000DEB0201FFF704FE042424E000240DF1C5
:10966400040801340B2C3FF465AF01224146304617
:10967400FFF7F6FD00283FF45DAF18F9013B002B1E
:10968400EFDB0C4B049301AB059300230694079383
:109694003B6869684A4604A898475CE7082201A920
:1096A400FFF7DEFD082400283FF444AFE9E700BFDC
:1096B400BCD807000F9107002DE9F04F91B00026A8
:1096C400044604A802960396FFF7B7FCA3683BBBC5
:1096D400059B069C9D7804A8FFF7C0FC0028F7D1E1
:1096E40015F0300F03D1059B1B8803B10134002C06
:1096F40000F0B4806209002302A9934240F0A780DD
:1097040010AA02EB830304F01F04C4F120044FF0F9
:10971400FF3053F8383CE040C31A584258410EE039
:109724000DF1030301AA0DF102012046FFF799FE92
:10973400814638B99DF80330002BC9D1002011B0FF
:10974400BDE8F08F019904A8FFF7C8FC00285AD19E
:10975400019B9E421DD8059D059A937803F00F0343
:10976400082B7DD004A8FFF779FC059B9D42F3D11B
:109774004FF0FF36019FBE420BD8089BD4F80880F7
:109784009DF802A01D68A3680DB1984509D09845BD
:109794009CD19DF802102046FFF780FE002895D149
:1097A400CCE72B68D3F800B0BBF1000F08D05346C8
:1097B4003A4629462046D8470028BFD0AD68E2E79C
:1097C400D3F808B0BBF800309F421AD16A685946F2
:1097D4000AA8FFF732FC6B680E9305F10C030F9394
:1097E4009BF8023003F0C003802B04BF2B1D0E93A3
:1097F4004FF001032B730AAA51462046FFF78CFE53
:10980400DAE74846D8E7059B9B7813F0300F0FD171
:10981400069A3F2A0CD8510910AB03EB810102F0E0
:109824001F020123934051F8382C134341F8383C6C
:10983400E5682DB104AB9DF8022001992046A847A4
:1098440004AA9DF802102046FFF766FEA6E751F829
:10985400235001357FF473AF01334EE701206EE7E7
:10986400168887E770B50C4606461546114620460D
:10987400FFF7AAFC2A4621463046BDE87040FFF7B0
:109884001BBFF0B585B00C46CD6869460746164641
:10989400FFF72AFE68B1E06858B1A37803F03003FB
:1098A400202B32462946684605D1FFF7DBFF019B92
:1098B4007B6005B0F0BDFFF7FFFEF8E7D3B50C46BB
:1098C4006946FFF741FD70B1DDE90023002702F08E
:1098D40001065B084FEA320256EA07011CBFD24375
:1098E400DB43C4E9002302B0D0BD37B50D46694659
:1098F4001446FFF7E3FF68B12B89082B0CD1DDE98F
:109904000001C4E90001DDE900238B4206BF824265
:109914000120002003B030BD042B03D10098206047
:10992400C117F0E7022B04D1BDF90000208000B27A
:10993400F6E7012B04D19DF90000207040B2EFE757
:109944000020E7E713B504220C460DEB0201FFF7F4
:1099540087FC08B1019B236002B010BD1146FFF7DC
:10996400F1BF13B508220C466946FFF779FC18B11C
:10997400DDE90023C4E9002302B010BD1146FFF75E
:10998400F0BF0000044B1A5C012393404FF0A04247
:10999400C2F80C35704700BFE0D80700044B1A5CCE
:1099A400012393404FF0A042C2F80835704700BF2E
:1099B400E0D8070008B50020FFF7F0FF0120FFF70B
:1099C400EDFF0220FFF7EAFF0320BDE80840FFF7A0
:1099D400E5BFC20708B501460CD54FF0A0430322EA
:1099E400C3F84427C3F84827C3F84C27C3F85027C3
:1099F400FFF7E0FF8B070AD54FF0A0430C22C3F812
:109A04003427C3F83827C3F83C27C3F8402708BDD8
:109A1400024AD2F80034002BFBD0704700E001402A
:109A24000A4908B50223C1F80435BFF36F8FBFF3A9
:109A34004F8FC1F80805FFF7EBFF0023C1F8043589
:109A4400BFF36F8FBFF34F8F08BD00BF00E001402D
:109A540010B5094C0123C4F80435BFF36F8FBFF36D
:109A64004F8F0160FFF7D4FF0023C4F80435BFF320
:109A74006F8FBFF34F8F10BD00E0014070B50E4DE6
:109A840016460122C5F80425BFF36F8FBFF34F8F2D
:109A94000024B44207D10023C5F80435BFF36F8F07
:109AA400BFF34F8F70BD51F8243040F82430FFF7D6
:109AB400AFFF0134EDE700BF00E0014028B139B148
:109AC400002348600B601846704748F210507047F6
:109AD40048F21350704730B1036848F240508B424B
:109AE40008BF0020704748F21050704728B148F270
:109AF4001150914208BF0020704748F2105070473F
:109B040070B506460C461D46FFF7D8FF40B9B37939
:109B140052B1AB420BD111462046FFF75DFA00B1BA
:109B240070BD044B236070BD48F2105070BD48F204
:109B3400115070BD7052464D2DE9F0470C46074652
:109B44000F49089EDDF82490204615469846FFF7F5
:109B5400C2FF98B963685A79494652003046FFF704
:109B6400C5FF58B945B1089643462A4621463846AA
:109B7400BDE8F047FFF738BA48F21050BDE8F08767
:109B84007052464D10B5044638B149B141600B6876
:109B9400984738B9044B236010BD48F2015010BDFA
:109BA40048F2105010BD00BF6E524648F0B4134640
:109BB400044660B107680A4EB7420CD111B948F2A5
:109BC400105006E053B16368F0BC5B68184748F274
:109BD4000150F0BC704748F20250FAE71846F8E723
:109BE4006E524648F0B40346154678B107680C4EE9
:109BF400B7420FD111B948F2135009E05B682D68E0
:109C0400DC68A54209D39B68F0BC184748F20150B0
:109C1400F0BC704748F20250FAE748F21450F7E7F4
:109C24006E5246482DE9F041069D079E04461746AC
:109C34009846FFF7A7FF60B9424639462046FFF72A
:109C4400B5FF30B9324629462046BDE8F041FFF75A
:109C5400C9BFBDE8F0810000F8B50A4F0A4C0B4DAE
:109C6400E41B0121E40829700026A64203D1022343
:109C74002B700020F8BD57F8363098470028F9D1EA
:109C84000136F2E7ECD60700ECD60700E05B0020D3
:109C940001390144884200D9704703780A7800F8F2
:109CA400012B01F80139F5E7013A024401398242F6
:109CB40000D2704711F8013F02F80139F7E770B597
:109CC40016460D46FFF7F0FF3246A9193044BDE8A9
:109CD4007040FFF7E9BF38B50D460446FFF7D8FFDB
:109CE40029466019BDE83840FFF7D2BFBFF34F8F54
:109CF4000549064BCA6802F4E0621343CB60BFF324
:109D04004F8F00BFFDE700BF00ED00E00400FA053F
:109D140008B507281BD8DFE800F004121A1A1A0441
:109D24001A040120FFF755FE0020FFF72BFE012047
:109D3400FFF728FE0220BDE80840FFF72FBE0120F0
:109D4400FFF72CFE0220BDE80840FFF71BBE08BD4C
:109D540008B5FFF7CBFF08B5FFF7C8FF08B501F05A
:109D640059FB002210464FF4805101F007F90246D6
:109D740008B1FFF7BBFF0548C0F5FC2101F0FEF870
:109D84000028F6D1024801F021F8F2E7008007002C
:109D9400159D07008B1802448B4200D1704713F8BD
:109DA400010D02F8010DF7E700000000C3F10803FC
:109DB400DB0070B50133002403A500BF5B1920C983
:109DC40040CAAD1920C0184720C940CA754120C0F7
:109DD40020C940CA754120C020C940CA754120C06D
:109DE40020C940CA754120C020C940CA754120C05D
:109DF40020C940CA754120C020C940CA754120C04D
:109E04006441204670BD00BF00000000C3F1080398
:109E1400DB0070B50133002403A500BF5B1920C922
:109E240040CAAD1B20C0184720C940CAB54120C054
:109E340020C940CAB54120C020C940CAB54120C08C
:109E440020C940CAB54120C020C940CAB54120C07C
:109E540020C940CAB54120C020C940CAB54120C06C
:109E64006441B4FA84F0400970BD00BF2DE9F04F9D
:109E740008B4F8CA04B451F8042BA3FB028940F8CF
:109E8400048B4FF0000AE4FB629A4FF0000BE5FBF1
:109E940062AB4FF0000CE6FB62BC4FF0000EE7FB38
:109EA40062CE51F8042B4FF00008E3FB628940F8BE
:109EB400048BE4FB629AE5FB62ABE6FB62BCE7FB66
:109EC40062CE51F8042B4FF00008E3FB628940F89E
:109ED400048BE4FB629AE5FB62ABE6FB62BCE7FB46
:109EE40062CE51F8042B4FF00008E3FB628940F87E
:109EF400048BE4FB629AE5FB62ABE6FB62BCE7FB26
:109F040062CE51F8042B4FF00008E3FB628940F85D
:109F1400048BE4FB629AE5FB62ABE6FB62BCE7FB05
:109F240062CE40F8049B40F804AB40F804BB40F810
:109F340004CB40F804EB0CBC052B00F01E810C682C
:109F4400A0F11400A1F11401A2F1140252F804EBDF
:109F54004FF0000550F8046BE4FB6E5652F804EB26
:109F640050F8047BE4FB6E6752F804EB50F8048B62
:109F7400E4FB6E7852F804EB50F8049BE4FB6E8922
:109F840052F804EB50F804ABE4FB6E9AA0F1140011
:109F940052F8044B51F804EB4FF0000CE4FB6EC58F
:109FA40040F804CB51F804EBE4FB6E5640F8045B34
:109FB40051F804EBE4FB6E6740F8046B51F804EBD2
:109FC400E4FB6E7840F8047B51F804EBE4FB6E8903
:109FD40040F8048B51F804EBE4FB6E9AA0E8000609
:109FE400062B00F0CA800C68A0F11800A1F118013A
:109FF400A2F1180252F804EB4FF0000550F8046B7C
:10A00400E4FB6E5652F804EB50F8047BE4FB6E67F5
:10A0140052F804EB50F8048BE4FB6E7852F804EB2E
:10A0240050F8049BE4FB6E8952F804EB50F804AB3F
:10A03400E4FB6E9A52F804EB50F804BBE4FB6EABFD
:10A04400A0F1180052F8044B51F804EB4FF0000C47
:10A05400E4FB6EC540F804CB51F804EBE4FB6E5608
:10A0640040F8045B51F804EBE4FB6E6740F8046BC2
:10A0740051F804EBE4FB6E7840F8047B51F804EBF0
:10A08400E4FB6E8940F8048B51F804EBE4FB6E9A10
:10A0940040F8049B51F804EBE4FB6EABA0E8000C21
:10A0A400072B6AD008B40C68A0F11C00A1F11C01B4
:10A0B400A2F11C0252F804EB4FF0000550F8046BB7
:10A0C400E4FB6E5652F804EB50F8047BE4FB6E6735
:10A0D40052F804EB50F8048BE4FB6E7852F804EB6E
:10A0E40050F8049BE4FB6E8952F804EB50F804AB7F
:10A0F400E4FB6E9A52F804EB50F804BBE4FB6EAB3D
:10A1040052F804EB50F804CBE4FB6EBCA0F11C0045
:10A1140052F8044B51F804EB4FF00003E4FB6E35A6
:10A1240040F8043B51F804EBE4FB6E5640F8045B42
:10A1340051F804EBE4FB6E6740F8046B51F804EB50
:10A14400E4FB6E7840F8047B51F804EBE4FB6E8981
:10A1540040F8048B51F804EBE4FB6E9A40F8049B3E
:10A1640051F804EBE4FB6EAB40F804AB51F804EB9C
:10A17400E4FB6EBCA0E8001808BCBDE8F08F002327
:10A1840010B51C465AB2914200DC10BD40F8234081
:10A194000133F7E710B500231A465CB2A14203DC91
:10A1A400B2FA82F0400910BD50F823400133224333
:10A1B400F3E74A11012350F8220001F01F0103FACA
:10A1C40001F108407047013949B20A06CBB205D4FF
:10A1D400013900EB81025268002AF6D001335BB2E8
:10A1E40073B103F18042013A50F82220002022B9D1
:10A1F400013B00EB431318B2704752080130F6E7F5
:10A204001846704710B500235CB2A24200DC10BDB2
:10A2140051F8234040F823400133F5E710B5013AE3
:10A2240052B2130601D5002010BD50F8224051F857
:10A2340022309C4205D802F1FF32F2D24FF0FF30B7
:10A24400F2E70120F0E700EB81010023884200D30C
:10A25400704751F8042D43EA52030B60D307F5E726
:10A2640070B59DF910401E4623460546FFF79EFD36
:10A2740030B9224629463046FFF7D0FF012807D0DF
:10A284002346324629462846BDE87040FFF7BEBD46
:10A2940070BD70B59DF910401E4623460546FFF774
:10A2A400B5FD38B12346324629462846BDE87040FC
:10A2B400FFF77CBD70BD2DE9F04FB5B004AD9DF93D
:10A2C400F8401F46814623462846FFF7CFFD24ABBE
:10A2D40021463846CDE90235FFF775FFC0EB8410FF
:10A2E40005B26B4203F01F034FF0200695FBF6F610
:10A2F40076B205F01F0814A858BFC3F10008314610
:10A30400FFF73DFFB8F1000F30B22DDD14AB002292
:10A3140003EB8000C8F1200C1346A34219D327B2E3
:10A324007B00019314AB03EB870704F1FF3834ABD4
:10A33400012603EB8808002D53DA34AB03EB8606C1
:10A34400224656F8C81C4846FFF75CFF35B0BDE806
:10A35400F08F57F8236006FA08F10A4340F82320E7
:10A3640026FA0CF20133D8E714AB2246394603EB44
:10A374008000FFF747FFD2E70FFA82FE5AF8C83C85
:10A3840053F82EB034AB03EB820252F8803CABEBB3
:10A3940003031B1A9B4502D034BF012000205CF844
:10A3A400C82C42F82E300131019B4AB29A42E3DBB9
:10A3B400331A5E42214614A85E41FFF744FF34ABD2
:10A3C40003EB8403214653F8802C58F8803C38462C
:10A3D40043EAC273013D48F8803C2DB2FFF733FFD6
:10A3E400A9E734AB0021C6F1010C084603EB860A49
:10A3F40003EB8C0CD8E730B51C4691B0054693F9B5
:10A4040000306846FFF732FDD4F8AC306946284680
:10A41400984711B030BD13460A46FFF7ECBF2DE94B
:10A42400F04793F9006092B00446894610463146DD
:10A4340015469846FFF7AEFE002840F0918042464C
:10A44400494602A8FFF7E7FF434602AA21460AA8A5
:10A45400FFF7D1FF02A908464246FFF7DCFF434657
:10A464002A4649464846FFF7C6FF08F10407424614
:10A4740029462846FFF7CFFF3B462A462146204679
:10A484000096FFF7EDFE3B462A46294628460096ED
:10A49400FFF7E6FE3B462A46214628460096FFF78C
:10A4A400F8FE43462A4621462046FFF7A4FF3B46D2
:10A4B4002246214628460096FFF7D2FE3B460096E8
:10A4C4002A4621462046FFF7CBFE2368DB074AD500
:10A4D40033463A4621462046FFF768FC3146824619
:10A4E4002046FFF7B0FE06F18043013B54F82300F9
:10A4F40040EACA7044F82300424621462846FFF742
:10A504008AFF3B460AAA294628460096FFF7C1FE61
:10A514003B460AAA294628460096FFF7BAFE0AA92E
:10A5240008463B462A460096FFF7B3FE43460AAA6E
:10A5340021462046FFF75FFF02AA3B46104621460C
:10A544000096FFF7A6FE324629462046FFF75AFE3C
:10A5540049462846FFF756FE02A94846FFF752FE31
:10A5640012B0BDE8F08731462046FFF76CFEC3E722
:10A574002DE9F0438BB00446154689460AAE1C22E9
:10A58400002103A803F04CF8032346F8203D95F975
:10A5940000802A46494620462F1DFFF73CFF3B46D4
:10A5A400324621462046CDF80080FFF772FE2B4646
:10A5B4004A4621462046FFF71EFFCDF800803B4661
:10A5C40005F1840221462046FFF74AFE0BB0BDE8A0
:10A5D400F0830000F0B5082289B00C460646FFF768
:10A5E40011FECB6A03930B6B04934B6B05938B6B3C
:10A5F4000693CB6B0793002708236A46694668468F
:10A60400CDE901770097FFF7D1FB082305466A4699
:10A6140031463046FFF7CAFB236B0393636B049305
:10A62400A36B0593E36B0544CDE906376A4608231B
:10A6340069466846FFF7BAFB082305446A46314673
:10A644003046FFF7B3FB236A0093636A0193A36A5E
:10A654000293A36B0693E36B0793054408236A46AE
:10A6640031463046CDE904770397FFF79FFB636AD1
:10A674000093A36AA26B0193E36A02930492636B4F
:10A68400E26B0393CDE90523236A0793054408236A
:10A694006A4631463046FFF789FBE36A0093236B31
:10A6A4000193636B0293236A0693A36A0793054499
:10A6B40008236A4631463046CDE904770397FFF70D
:10A6C400A5FB236B0093636B0193A36B0293E36B72
:10A6D4000393636A0693E36A07932D1A08236A4671
:10A6E40031463046CDE90477FFF790FB636B009366
:10A6F400A36B0193E36B0293236A0393636A04934A
:10A70400A36ACDE90537236B07932D1A08236A46FC
:10A7140031463046FFF77AFBA36B0093E36BCDE938
:10A724000137636A0393A36A0493E36ACDE90537A7
:10A73400636B07932D1A08236A4631463046FFF7A8
:10A7440065FB2D1A0D4C0FD435B90822314620462D
:10A75400FFF764FD01280FD0082322463146304616
:10A76400FFF754FB2D1AEFE7082322463146304603
:10A77400FFF71CFB2D18F7D409B0F0BD28D907004A
:10A78400F0B5154689B01C4607460E461A462946BA
:10A794006846FFF740FE23466A4639463846FFF7C7
:10A7A4002AFE23462A4669466846FFF724FE2346C6
:10A7B4006A4631463046FFF71EFE09B0F0BD2DE96A
:10A7C400F0438BB01446129D15F9046B00961F4696
:10A7D400804689462B460246214602A8FFF759FDCA
:10A7E40002A9129A0846FFF716FE129B02AA4146D6
:10A7F4004046FFF700FE129B02AA21462046FFF7BF
:10A80400FAFD2B464A46394638460096FFF741FD85
:10A81400129A394602A8FFF7FEFD02A92B464246CA
:10A8240008460096FFF735FD02A92B462246084646
:10A834000096FFF72EFD2B46424621462046009601
:10A84400FFF727FD129B224649464846FFF7D3FDF2
:10A854002B4602AA414620460096FFF71AFD129B9A
:10A86400224639463846FFF7C6FD2B464A46394646
:10A8740038460096FFF70DFD324602A92046FFF741
:10A88400C1FC0BB0BDE8F0832DE9F047B3F90240F9
:10A8940088461E4604F11F012023073491FBF3F779
:10A8A40008234FFA87F994FBF3F4944228BF144623
:10A8B40049460546FFF763FC22464146FFF76AFA1C
:10A8C400B6F90230E4009C421FD9E41A05EB870173
:10A8D4000022C4F120078D420ED324364A4629466D
:10A8E4003046FFF79BFC01280FD04B4632462846E2
:10A8F400BDE8F047FFF78ABA51F8040D20FA04F3D3
:10A9040013430B6000FA07F2E5E7BDE8F08770B582
:10A91400036813F001050646144605D013460A469B
:10A924000146FFF743FA054621463046FFF78BFC04
:10A9340045B104F18042013A56F8223043F0004315
:10A9440046F8223070BDF0B50F46A1B00646194650
:10A95400384615461C46FFF71DFC20B13046FFF76C
:10A964000EFC21B0F0BD224639466846FFF74AFC8A
:10A97400294608A8FFF746FC10A82146FFF7FFFB6D
:10A98400012318A81093FFF7FAFB224608A968468A
:10A99400FFF744FC28B9224610A93046FFF732FCE1
:10A9A400DFE7009BDA0709D421466846FFF74BFC32
:10A9B4002246294610A8FFF7AAFFE6E7089BDB0713
:10A9C40007D4214608A8FFF73EFC2246294618A8CA
:10A9D400F1E7002823461CDD08AA69466846FFF70C
:10A9E40015FA21466846FFF72EFC224618A910A83E
:10A9F400FFF714FC002805DA10A923462A46084666
:10AA0400FFF7D4F910A9234618AA0846FFF7FEF960
:10AA1400CEE708A96A460846FFF7F8F9214608A8D0
:10AA2400FFF711FC224610A918A8FFF7F7FB00282E
:10AA340005DA18A923462A460846FFF7B7F918A9E4
:10AA4400234610AA0846FFF7E1F9BEE7004870471D
:10AA540024D907002DE9F04FEDB01F46DDF8D88169
:10AA64000590B8F9026098F9004020231F3696FB40
:10AA7400F3F676B206F1FF3924AB002543F82950EA
:10AA84006CAB03EB89034CA88A469346394698F984
:10AA9400012043F8805C43F8605CFFF77BF998F988
:10AAA400012054A8B918FFF775F921464CA8FFF7FF
:10AAB40071FB0746002840F02E8154A8FFF76AFB7B
:10AAC4000290002840F0298108F1240332464CA961
:10AAD40018460393FFF7A2FB012840F02081324679
:10AAE40054A90398FFF79AFB0128069040F01781B8
:10AAF4001CAD0CAF3346039A54A92846FFF723FF35
:10AB0400029B47F829305A46514638464346FFF7D8
:10AB1400BBFE39463846039B00962A46FFF7CBFB1B
:10AB24000DF5B879039B00962A464CA914A8FFF7A3
:10AB3400C2FB224648460599FFF764FBA30009EBD4
:10AB4400030A0793059BA100591808F1440B5046CA
:10AB5400FFF758FB594634A8FFF754FBA3000BEB4F
:10AB640003013CA8FFF74EFB08F10403494634AA4D
:10AB7400284600940493FFF78CFB53464A463CA9AD
:10AB840034A8CDF80080FFF71AFE2346049A29461C
:10AB94002846FFF7D8FE2A46514648464346FFF763
:10ABA400EFFD029BCDE9083B059B31463846CDE9D4
:10ABB4000A39FFF708FB3146814614A8FFF703FB67
:10ABC4008145B8BF81461FFA89F909F1FF3B0FFAA5
:10ABD4008BFB59463846FFF7ECFA5946071C14A874
:10ABE40018BF0127FFF7E5FA002814BF022300234A
:10ABF4001F430DF1200A22465AF8277024A839462B
:10AC0400FFF700FB0DF1B00BA300F9185846FFF74E
:10AC1400F9FA21462846FFF7B2FAA9F10209069B80
:10AC24002B600FFA89F90DF1900AB9F1000F23DABC
:10AC34002346049A29462846FFF785FE43462A46BA
:10AC440059465046FFF79CFD324651460398FFF79C
:10AC5400E5FA012804D03346039A5046FFF7D6F8A4
:10AC6400013C64B24CAA23064BD5029BB3FA83F091
:10AC740040096DB0BDE8F08F43462A46D8F8A47069
:10AC840059465046B84749460CA8FFF792FA494638
:10AC9400071C14A818BF0127FFF78BFA002814BF5C
:10ACA400022300231F4308AB53F8277027B322461F
:10ACB400394634A8FFF7A6FA079B3CA8F918FFF712
:10ACC400A1FA43462A463CA934A8FFF759FD049B40
:10ACD400009434AA514644A8FFF7DBFA5B46524677
:10ACE4003CA934A8CDF80080FFF769FD434644AA87
:10ACF40029462846FFF77FFB09F1FF390FFA89F946
:10AD040093E752F824105AF824304B40029919431F
:10AD14000291013CA7E72846ABE73846A9E7029829
:10AD2400A7E7007800F00100704741DF704700009A
:10AD3400014B01221A70704704600020BFF34F8F4B
:10AD44000549064BCA6802F4E0621343CB60BFF3C3
:10AD54004F8F00BFFDE700BF00ED00E00400FA05DF
:10AD6400024B034800221A7001F04CBC046000201E
:10AD740041AD0700831E10B50446052B09D8DFE852
:10AD840003F0160303080F0F0B494FF4701000F083
:10AD940015FA0A4B1B686BB12046BDE810401847F2
:10ADA400074B084800221A7001F02CFCF1E701F06F
:10ADB4006BFBEEE710BD00BF65AD07000860002027
:10ADC4000460002041AD07000020704738B5554BA2
:10ADD400554A18604FF0A0430020C3F8402701F003
:10ADE40027FC044640B900F0BFFA012800F0908027
:10ADF40004D3022800F09280032038BD4FF0804332
:10AE0400D3F8002412F4803234D04FF48032C3F8E3
:10AE14000024464D2B6A012B40D04FF4701400F0EF
:10AE240039FB434A20211820FDF7D2FA08B1FEF776
:10AE340092FF404B1A6802F0F802B02A06D11A6851
:10AE4400D20742BF1A6802F04E021A60FFF7BCFF35
:10AE54000028D1D12046384900F0B0F9374800F035
:10AE6400DDFC0028C8D100F03BFBFDF73BFBFFF7FE
:10AE74005CFFF8E7D3F8201501F0F801A8290BD1FD
:10AE8400D3F82015C80707D5D3F8201501F05601CB
:10AE9400C3F820151446BCE70124BAE743F20403BF
:10AEA4001A68274B9A4209D001F060FCAA6901464E
:10AEB40094B1244801F054FF90B9AEE76A6B1CB911
:10AEC40095F86032012BEFD04FF480511E4801F009
:10AED40047FF0028E8D1A0E795F8A132012BE8D17B
:10AEE4004FF0A043D3F81035D90396D5114B1B6806
:10AEF40013F0B10F91D101F0E5FB00287FF47CAF92
:10AF0400124B1870124801F07DFB00F025F873E72E
:10AF14000E4B10481C7001F075FB6DE74FF4A02434
:10AF24007DE700BF086000200C000300D4770020F8
:10AF3400E45B00201C05004065AD070079AD070007
:10AF4400DBE5B151757A0020347A002004600020DA
:10AF540035AD070041AD070008B5074B4FF0FF3290
:10AF6400C3F88020C3F8802101F0B5F84FF4805075
:10AF7400BDE8084000F02EB800E100E0C1F30B0387
:10AF840030B52BBBB0F5FE2F22D8000B013900EBF6
:10AF9400113101254FF08042814201D2002030BDA1
:10AFA40000F01F03440905FA03F3032C05D8DFE876
:10AFB40004F00206090CC2F800360130ECE7C2F8CE
:10AFC4000436FAE7C2F81036F7E7C2F81436F4E7A5
:10AFD400072030BD10B5044617480022C0F5FE21F5
:10AFE400FFF7CCFF08B1FEF7B6FE01F0BFFB134B31
:10AFF400996901F6FF7121F47F6121F00F010022AC
:10B0040001441046FFF7BAFF08B1FEF7A4FEEFF3C0
:10B014000583002394E8060083F3148883F31088DF
:10B0240083F3118883F3138881F308884FF0FF3387
:10B034009E46104710BD00BF00800700D477002053
:10B0440037B56FF07F42154C057BD4F804358A423E
:10B0540028BF0A46891A13444A1E942A23F07F43C0
:10B0640005F5A8729BBF963B96314160416044F858
:10B0740022300B4B4FF4F86043F001039847094B1F
:10B08400AA00134400221A601B680193019B4FF429
:10B094008033AB40C4F8043303B030BD00400240F9
:10B0A400E0D907004041024018490A7884B0002AD8
:10B0B40029D14FF08043A020D3F81834DB035EBFBE
:10B0C400134B01221A60134A00231360126803927F
:10B0D400039A114A136012680292029A0F4A13608B
:10B0E40012680192019A0E4A82F8240310205060DB
:10B0F4000C4A0D48C2F8083501230360022013608E
:10B10400C2F804030B7004B0704700BF1060002045
:10B1140008000040004102404041024044410240D6
:10B1240000E100E000400240084002401C4BF7B53B
:10B134001A6842B11B490A6801320A6000221A6087
:10B144001B680093009B184C184E194D2368A3B13B
:10B154000023236023680193A719019BBB00E8180F
:10B164004FF48032017B8A401249C1F808234168B8
:10B1740000F5A06239B1FFF763FF0F4B04349C4222
:10B18400E4D103B0F0BDA2F59F63196809B1FFF7DC
:10B1940057FF55F82730002BEFD09847EDE700BF55
:10B1A400044102400C60002040410240C0BEFD3F0B
:10B1B4007C590020004002404841024070B50B4BCE
:10B1C4001C68227B4FF480339340094A0E46C2F830
:10B1D4000833054640B1FFF767FF2660294620463D
:10B1E400BDE87040FFF72CBF70BD00BF9C59002024
:10B1F4000040024070B5074B1C6805460E46A0602F
:10B20400FFF752FF266029462046BDE87040FFF74D
:10B2140017BF00BFA0590020014B01221A707047CC
:10B224001160002070B5144DEA6A6E6AAC6CAC2AE9
:10B234001AD16B6B1C44F61AEB6AAC2B06D132465E
:10B24400A4F580410D4802F0A1F998B13246214697
:10B254000A4802F09BF968B100F042F931462046F1
:10B26400BDE8704000F018BF002CE5D101F094FA5D
:10B274000446E1E7002070BDD47700200080070079
:10B284002DE9F74F80468946A9EB0804240B02F602
:10B29400FF76154600F0FEF8082C28BF0824230387
:10B2A400DFF860B00193360B0DB92B4626E0B442AB
:10B2B4002CBFB246A2464FF00002514640462CBF76
:10B2C4002F46019F00F0D0FE0346B8B9FA1C22F0C5
:10B2D40003024946404600F0B9FE034670B9DBF864
:10B2E4003030ED1BB844B9441F44CBF8307001F042
:10B2F4008FF9A6EB0A0603460028D5D0184603B0FA
:10B30400BDE8F08FD477002010B501F055FA154A46
:10B3140042F20403916CCC5803F1A34303F54713A1
:10B3240003F2D7539C4218D1136B526B934216D03D
:10B3340018441944884204D10020BDE8104001F0AB
:10B3440067B9D21A02F6FF7222F47F6222F00F026A
:10B35400FFF796FF0028EFD010BD032010BD00209A
:10B36400FAE700BFD477002070B5264CE36AA52B1A
:10B3740036D003D8012B0BD0002070BDAA2B33D0BC
:10B38400AC2BF9D1FFF7C0FF60BBFFF74BFF29E0FF
:10B39400A56C666A01F0EAF9226B1044A918884288
:10B3A40029D101F0E3F900223146FDF707F9A36A38
:10B3B400984201BF01232362E061A661002512487F
:10B3C40001F0C8F9114B124800221A7001F020F95B
:10B3D40068B975B1236A012B14BF0120022070BD26
:10B3E400FFF792FF0125EAE7FFF71CFFE6E70320DA
:10B3F40070BD012070BDB21AFFF742FF0028DDD1F5
:10B40400CFE700BFD4770020F87700201160002038
:10B414001DB2070040F6F87008B50368013302D185
:10B424000749FEF715FB40F6FC700368013305D1AC
:10B434004FF4FC21BDE80840FEF70ABB08BD00BF7D
:10B44400008007000A4AD2F800347BB1094800237F
:10B45400D2F80815D940C90748BF03F5C07103F1F4
:10B46400010348BF42F82100072BF1D1704700BF08
:10B47400000001403546526EFFF7E4BF044B002242
:10B484001A6082B01B680193019B02B0704700BF31
:10B494000001014038B50E4D2A78C2B90D4BD3F8DE
:10B4A400002492B1D3F8044540F615539C42CCBF16
:10B4B400A4F548649624FFF7C5FF07492046FFF723
:10B4C40099FE064B4FF480321A6001232B7038BD6D
:10B4D40012600020000001407DB4070000E100E09C
:10B4E400034BD3F800340BB1FFF7ACBF704700BF78
:10B4F40000000140094B1B78062B0CD1084B1B683C
:10B504001A0708D1074B186800F0F000A0F13003C7
:10B514005842584170470020704700BFE00F00F0C8
:10B52400E40F00F0E80F00F00C4B1B78062B10D151
:10B534000B4B1B681A070CD10A4B186800F0F00378
:10B54400302B08D000F0E000A0F1400358425841ED
:10B554007047002070470120704700BFE00F00F0E3
:10B56400E40F00F0E80F00F008B5FFF7DDFF28B1A5
:10B574007F4B804A1B68C3F304231360FFF7BAFFB1
:10B5840010B17D4B7D4A1A60FFF7CEFF28B17C4B8A
:10B594007C4A1B68C3F342331360FFF7ABFF20B14F
:10B5A400794AD36823F08073D360FFF7BDFF40B1BD
:10B5B4004FF080430022C3F80C21C3F81021C3F8D4
:10B5C4003825FFF797FF10B1704B03221A60FFF77D
:10B5D40091FF40B16E4B05221A6001229A67002246
:10B5E4009A603F225A606B4B1B78062B09D16A4B39
:10B5F4001B68190705D1694B1B6803F0F003502B36
:10B6040067D0FFF791FF28B1654B664A1B6803F0CA
:10B614004F031360FFF788FF48B14FF08043D3F81E
:10B624000024D20744BF6FF00102C3F800245E4B2C
:10B634001B68062B04D15D4B1B68062B00F0918020
:10B644005B4AD2F8883043F47003C2F88830BFF301
:10B654004F8FBFF36F8F4FF01023D3F80022002ACF
:10B6640003DBD3F80432002B2FDA524B0122C3F848
:10B674000425D3F80024002AFBD04FF01022152112
:10B68400C2F80012D3F80024002AFBD04FF0102394
:10B694001522C3F80422474B1A46D3F80014002994
:10B6A400FBD00021C3F80415D2F80034002BFBD0E2
:10B6B400BFF34F8F3E49404BCA6802F4E062134324
:10B6C400CB60BFF34F8F00BFFDE73C4B3C4A1A6091
:10B6D40008BD4FF080523B4BD2F80414C3F8201538
:10B6E400D2F80814C3F82415D2F80C14C3F828159A
:10B6F400D2F81014C3F82C15D2F81414C3F830156A
:10B70400D2F81814C3F83415D2F81C14C3F8401531
:10B71400D2F82014C3F84415D2F82414C3F84815F9
:10B72400D2F82814C3F84C15D2F82C14C3F85015C9
:10B73400D2F83014C3F85415D2F83414C3F8601591
:10B74400D2F83814C3F86415D2F83C14C3F8681559
:10B75400D2F84014C3F86C15D2F84424C3F8702509
:10B764004FE7194A136843F48063136068E700BF26
:10B77400240300104035014074C007400DF0ADBAF9
:10B78400440200103C050040F0ED00E0A00500403C
:10B7940010560040E00F00F0E40F00F0E80F00F056
:10B7A40058020010E40E0040300100103401001073
:10B7B40000ED00E000E001400400FA05A459002077
:10B7C4000090D00300C000403C17004013681F2BBA
:10B7D40010B5144607D900220830FDF76BFB20B9D9
:10B7E4002023236010BD48F2145010BD0830FDF72B
:10B7F4003DBB0830FDF70ABB831F012B10B504467F
:10B8040002D8002000F08EFF034B1B681BB12046BA
:10B81400BDE81040184710BD1460002008B5074B60
:10B8240018600020FFF7E8FF054800F063FF20B927
:10B834000348BDE8084000F0D9BD08BD14600020ED
:10B84400FDB707006CDF70476DDF704772DF70472C
:10B8540073DF704774DF704775DF704776DF7047BA
:10B864007ADF70477CDF70477DDF70477FDF70478A
:10B8740086DF70478FDF704790DF7047A8DF70471F
:10B88400AADF7047ADDF7047AEDF7047B0DF7047A7
:10B89400B1DF7047B5DF704762DF704766DF70471E
:10B8A40013DF704710B586B00446ADF806101022B9
:10B8B400002102A801F0B4FE084B05949B89ADF861
:10B8C400083001238DF80A300DF106030493044B6C
:10B8D40002A91888FFF7D8FF06B010BD82700020B7
:10B8E400AA59002001460148FCF78ABF00D7070087
:10B8F40030B518228DB000210DEB020001F090FE4E
:10B9040028230124089310221623002102A8ADF84D
:10B9140006308DF818408DF82D4001F081FE184B4B
:10B9240002930222062109251A7099701A710321C3
:10B934005922D9705A710DF10601FE225819ADF839
:10B944000C505C709A71FFF78FFFB8B9BDF80620F0
:10B954001D721119D971BDF80C301A44094BADF898
:10B964000C2002A906AA1846FFF770FF30B9187810
:10B97400FFF770FF21461878FFF76AFF0DB030BD5E
:10B9840096700020A8590020F0B503881F2B8BB0B7
:10B99400044600F0C38028D8112B57D006D8012BB9
:10B9A40000F0CD80102B43D00BB0F0BD142B00F071
:10B9B40046811A2B35D0132BF6D10023A34C0493C4
:10B9C4000223ADF8103004AA02AB42F60521208808
:10B9D4000593FFF757FF08B1FEF7BDF900231A4698
:10B9E40085212088FFF742FF88E0512B00F0AD80CD
:10B9F40010D8232B00F08A80502B3BD0212BD3D19D
:10BA0400002304A980888DF810308DF81130FFF7D9
:10BA140031FF73E0552B59D0562B00F08680522B02
:10BA2400C2D100231A461946A088FFF731FF65E00A
:10BA3400864B82881A80864A12681C460AB1012005
:10BA4400904784492088FFF707FFADE77F4B4FF607
:10BA5400FF721A80804B1B685A0704D4FFF748FF13
:10BA640008B1FEF778F97A4B1B68002B9CD00220B2
:10BA7400984799E7794EC288B3889A4294D1784816
:10BA8400FCF79BFE054600288ED0228A04F11201A1
:10BA940001F09CFD1822002104A801F0C1FD082337
:10BAA4008DF810306F4B06936F4B079304A8238ACD
:10BAB40005960895ADF8243000F08EFC00283FF47C
:10BAC40073AF29466648FCF79BFE6DE7C188F629EB
:10BAD4001AD8CB1E9B070DD0CB1F9BB2013B5A42F9
:10BAE40002F0030203F0030301F1FF3158BF534294
:10BAF400C91A89B2554B1888FFF7CCFE00283FF4C9
:10BB040053AFFEF728F94FE7F721F3E7002204A922
:10BB1400808804920592FFF7AFFEEFE74B4B00F1EC
:10BB240008011888FFF798FEE8E78379002B7FF473
:10BB34003BAF464B13211888FFF790FEDEE7434BDB
:10BB440000211888FFF7AAFED8E78579002D3FF475
:10BB54002BAF022D7FF428AF404E0289B3899A425D
:10BB640037467FF421AF837B012B7FF41DAF102276
:10BB740000210DEB020001F053FD01238DF8163076
:10BB8400238AADF81830638AADF81A3004F114032F
:10BB94000793002302938DF81050ADF808502B4DF5
:10BBA400318A288801AB02AA0393FFF76BFE2E4665
:10BBB40060B91846FFF7B5F840B940F2FD1304A97F
:10BBC4002888ADF81430FFF761FEEDE6002304A9E0
:10BBD4003088ADF81430FFF759FE014600287FF491
:10BBE400E3AE182204A801F01BFD237D1D4A8DF845
:10BBF4001030022B0597069218D0062B10D0012B7B
:10BC040010D11A4B1A881A4B1A80637DD4F8162067
:10BC14000893012B099205D1164800F083FD01E039
:10BC2400637D089304A800F0D7FBBDE6A27D637D85
:10BC340043EA02230D4A13800D4A1380F2E70023DE
:10BC44001A4619468088FFF713FE57E7AA590020C1
:10BC5400BC700020D6DB0700B87000208270002082
:10BC640000D70700E5BC0700E9B80700C070002052
:10BC7400C2700020ECD6070014490A6838B512F0E7
:10BC8400010321D0124B98421ED0124B18884FF654
:10BC9400FF73984213D042F004020A601321FFF7A5
:10BCA400DDFD90B90C4DC82445F001054FF47A40F0
:10BCB400A847013CFAD1BDE8384001F025BB074B49
:10BCC4001878FFF7C7FDF6E7002038BDB8700020EC
:10BCD400ECD60700AA590020D0DB0700A8590020A1
:10BCE40010B5044686B01122002101A801F098FC89
:10BCF4002378082B0BD1374A374913880988013B2D
:10BD04009BB21380D9B1D3B9032311802370627815
:10BD140023788DF805306021012A8DF804108DF800
:10BD240006200ED00B2A52D100F0ACF98DF8070092
:10BD3400002000F0A1F9042101A8FFF7B3FD06B02B
:10BD440010BD062B1DD0082B01D0032B3FD16268F8
:10BD5400A3688DF80720110A8DF80810110C120E33
:10BD64008DF80A201A0A8DF80B308DF80C201A0C65
:10BD74001B0E8DF809108DF80D208DF80E300B2157
:10BD8400DAE7E16862688DF80710080A8DF80800A0
:10BD9400080C090EA3688DF80A10110A8DF80B20FF
:10BDA4008DF80C10110C120E8DF80E201A0A8DF855
:10BDB4000F308DF810201A0C1B0E8DF80D108DF815
:10BDC40009008DF811208DF812300F21B4E70321FA
:10BDD400B2E700BFC2700020C07000202DE9F0431C
:10BDE4004F4B95B04FF6FF7214A91A8080464FF658
:10BDF4005963012021F8483D42468DF80A00FFF7B7
:10BE04003DFD0446002840F08780464B04AA03F118
:10BE14001006154618685968144603C40833B3421B
:10BE24002246F7D108F102012846FFF735FD044602
:10BE3400002871D101461C220DA801F0F1FB9DF8E8
:10BE44003430ADF8044043F004038DF83430022359
:10BE5400ADF80C3098F802308DF80E304FF001092F
:10BE6400230A69F3030369F307138DF80530E3B27A
:10BE740043EA090369F342032146142208A88DF812
:10BE8400063001F0CDFBF423ADF82C3001AD03AE48
:10BE940008F1040308AA0DA9B8F80000089609954A
:10BEA400FFF7EEFC27460446B0BB01461C220DA852
:10BEB40001F0B6FB9DF83430ADF8044043F01803AC
:10BEC4008DF8343098F802308DF80E30230A69F377
:10BED400030369F307138DF80530FBB243EA090342
:10BEE40069F34203DBB243F010032146142208A88D
:10BEF4008DF80630ADF80C9001F092FB1723ADF8E5
:10BF04002C3008AA08F10C030DA9B8F80000089613
:10BF14000995FFF7B5FC0446204615B0BDE8F0834B
:10BF2400AA590020B4DB070030B5354C236813F060
:10BF3400010585B05AD1334B18603348FCF726FC11
:10BF4400029500F0BAF898BB3048FFF7A9FC78BB1B
:10BF540001F09EF960BB02A801F066FA40BB02A999
:10BF6400012001F06BFA18BB02A801F0D1FAF8B96C
:10BF740000F098FB30B1264800F088FB236843F0BA
:10BF8400020323609DF80430012262F3030362F389
:10BF9400071302A88DF80430FFF756FC40B99DF84A
:10BFA400093002A801338DF80930FFF74BFCF8B1D2
:10BFB40005B030BD16498869043182B201A8FFF783
:10BFC40051FC0028F4D11348FFF74AFC0028EFD1B4
:10BFD4001148FFF703FF0028EAD1FFF789FC002886
:10BFE400E6D1236843F001032360E1E70020DFE7A3
:10BFF40023689B07DED4094801F046FB0749DCE7C8
:10C00400B8700020BC70002000D707000080070033
:10C0140018600020D6DB070082700020C4DB070014
:10C0240043690BB1C068184770470000044B0549C9
:10C034000022904208BF19460348FCF7FABB00BF30
:10C0440064D7070090D707006859002007B500930C
:10C0540013460A4601460348FCF7EFFB03B05DF8BC
:10C0640004FB00BF6859002013460A4601460148F4
:10C07400FCF7EABB68590020014B18700B2070478D
:10C08400C4700020024B002218781A70704700BF59
:10C09400C470002018DF704730B585B00546102203
:10C0A4000C466846002101F0BBFAA40868460195D5
:10C0B4000294FFF7EFFF05B030BD1FB51022002139
:10C0C400684601F0ADFA022368460093FFF7E2FFE9
:10C0D40005B05DF804FB4FF000534FF480521A6032
:10C0E40000207047014B06201B681847D0700020C1
:10C0F4000A2803D90B38C0B2FFF7BEBF704700004F
:10C1040010B5044686B00020FCF7A6FB014630B10A
:10C11400164A18212046FCF77FF906B010BD1822F4
:10C12400684601F07DFA04238DF80030104B196D38
:10C13400104B1B68994211D10F4B186800F074FF23
:10C144008DF80100FFF7D4FFA3688DF80100616842
:10C1540068469847094800F05BFADEE701238DF84A
:10C1640001306168A36868469847D6E705C10700AF
:10C17400D4770020C8700020CC700020E9C00700EC
:10C18400F0B5044687B018220021684601F048FA49
:10C1940023788DF8003001220C2B8DF8012000F259
:10C1A4000F819A4012F4AD7F15D1510706D4D30400
:10C1B40040F10681834B07201B689847A368616898
:10C1C400684698479DF80130012B00F0EE807D4BC6
:10C1D40005201B68E8E0062B7B4A01D0012B01D126
:10C1E400216911701178012904D0022953D0002348
:10C1F400137095E0013B072BE0D801A252F823F01D
:10C2040025C20700C1C107008FC2070063C207002F
:10C21400C1C1070089C20700C1C107003DC20700B0
:10C22400684B03201B689847606900F0E7FCFFF740
:10C234005FFF8DF80100C1E7A18A206900F0F6FCD8
:10C24400FFF756FF614B8DF80100DA6B1B6C02930C
:10C25400E3680192002BB1D020699847AEE75C49AE
:10C264005C4800F031FDFFF743FF01288DF8010021
:10C27400A4D1002000F0CCF900289FD00A238DF827
:10C2840001309BE74FF400730393504BDA6B1B6C44
:10C294000192029392E7013B072B8FD801A252F837
:10C2A40023F000BFC9C20700C1C107007FC3070054
:10C2B40089C30700C1C10700B3C30700C1C1070098
:10C2C40029C3070000F0D2FC08B90823D7E7626944
:10C2D4000AB90323D3E7C2F30B0333B13B4B3C4905
:10C2E4005B6D096813448B42F3D1B2F5805F01D9C9
:10C2F4000423C4E7354B3649586D096815188D4237
:10C30400E3D85A64DA6C9A6418651863314B1B6875
:10C31400002201211844FFF7A7FE00283FF44EAF86
:10C324000523ACE700F0A2FC0028CED0274DA18A5B
:10C334006A6D2B6D9B1A6A6C0B449342C9D8254BCA
:10C344002E6B1B68206905F148021E44FCF736F980
:10C35400E368A28A216907463046FFF777FE08B1F1
:10C36400E36879E7A38A2A6BAF641A442A632A6DC7
:10C37400029713442B65019320E7144B9A6C0292A5
:10C384001B6DF8E7114B186D5A6D596C821A8A426D
:10C394009BD19A6C5865002120465964DA64FFF7F2
:10C3A400AFFE084B1B680420984707B0F0BD074B4D
:10C3B4009A6C1B6D01934FF4805302920393FDE634
:10C3C40002235CE7D0700020AC590020D477002011
:10C3D400C8700020CC70002083681BB1024A182169
:10C3E400FCF71AB80720704785C1070038B5054621
:10C3F400C0B10120FFF71AFE044648B900F0ECFB77
:10C4040000F034FC30B9084B00201D60FFF734FE07
:10C41400204638BD0549064800F056FC0128F2D0F4
:10C424000324F5E70724F3E7D0700020C870002048
:10C43400CC7000202DE9F04115464FF46072064699
:10C4440088461F4601F0A2F820B905B1A84700208C
:10C45400BDE8F081002201213046FFF705FE10B14E
:10C464000320BDE8F0814FF460724146384601F084
:10C47400ADF82B464FF4607239463046FFF7E6FDBF
:10C484000028EDD1E3E70000F8B5414C23680133FF
:10C4940021D058210022201DFCF790F82568291A84
:10C4A4004D424D413B4E3C4C37683B68013363D0B1
:10C4B40000225821381DFCF781F83B6883425FD184
:10C4C4007B68012B09D15DB34FF46072304920467B
:10C4D40001F07CF814E00025E4E7002207F5187069
:10C4E400C321FCF76BF8D7F85C321A1A574257414C
:10C4F400A5B14FF460722649274801F067F8E7B107
:10C50400316826485422043101F060F83168244827
:10C514004FF432725C3101F059F80EE0834204D1D9
:10C524004FF4607231681C48F5E74FF460720021E3
:10C53400194801F075F8022363606568012D26D15E
:10C544001849402201F5E47001F040F816491C2214
:10C5540001F5E47001F03AF8144984F8A15200237B
:10C56400042201F2862084F8603284F8E23201F079
:10C574002DF802236360F8BD002DD6D00027B8E75C
:10C58400002DD2D04FF4607201492046C3E7F8BDB4
:10C5940000F00700B0590020D4770020D87700209D
:10C5A400307800203079002070790020F077002066
:10C5B40070B50C4C054600225821201DFBF7FEFFE8
:10C5C40000222060C32104F51870FBF7F7FF2A4608
:10C5D400C4F85C022146044B0448BDE87040FFF7F0
:10C5E40029BF00BFD4770020D470002000F00700DA
:10C5F40002460248024B0068FFF71CBFB0590020F6
:10C60400547400200149FFF7F3BF00BF00F0070096
:10C6140038B505460020FFF7CBFF044618B9034997
:10C624002846FFF7E5FF204638BD00BFD477002039
:10C6340010B5FFF7FBFC044608B1032010BDFFF75B
:10C6440023FF2046FFF7E4FF0028F6D110BD29DFC1
:10C654007047000038B5044690B10B4DD5F86433EB
:10C6640001330FD1002218210430FBF7A7FF214624
:10C674002060072205F55970BDE83840FFF7E7BF91
:10C684000E2038BD082038BD00F0070008B528B1D9
:10C694001C22034900F09AFF002008BD0E2008BDAB
:10C6A40064F3070010B5064C002218212046FBF75E
:10C6B40085FF54F8043C1B1A5842584110BD00BF72
:10C6C40068F3070008B50A4BD3F82423013203D1D9
:10C6D400D3F86433013309D04FF4FE20FDF7A0F9F9
:10C6E400C92203494FF4FE20FDF7C8F9002008BD14
:10C6F400D4770020F8B5094E094CA41B0746E4087A
:10C704000025A54201D10020F8BD56F83530384641
:10C7140098470028F8D10135F3E700BFECD60700AD
:10C72400F4D60700F8B5094E094CA41B0746E408E3
:10C734000025A54201D10020F8BD06EBC50338460B
:10C744005B6898470028F7D10135F2E7ECD607007B
:10C75400F4D6070008B50C22002100F061FF024B5B
:10C7640000221A6308BD00BFD477002043F20403FB
:10C774001A68084B9A4201BF43F20803186800F68E
:10C78400FF7020F47F600CBF20F00F004FF4805046
:10C79400704700BFDBE5B15108B5FFF7E7FF054B74
:10C7A4009B69184400F6FF7020F47F6020F00F00AE
:10C7B40008BD00BFD47700204FF4805070470000BC
:10C7C4002DE9F74F1F46244BDFF894B01B6ADFF8BE
:10C7D40094900193054616464FF0000843F2040A6C
:10C7E4005FFA88F4012C1CD0022C26D0FFF7D4FF6A
:10C7F400AEB1019B5A1E53425341A9EB0000A8421B
:10C8040000D301B3EBB9B8F1020F04D008F1010869
:10C81400B8F1030FE4D1A84216D2042018E033463D
:10C82400EBE7FFF7A3FF37B9DAF80030B3EB0B03FC
:10C8340018BF0123E1E73B46DFE701234FF48050B3
:10C84400DBE7A842E9D314B10448FFF783FF0020D3
:10C8540003B0BDE8F08F00BFD4770020EC77002050
:10C86400DBE5B1510050070090F8552012F0FB0FA2
:10C8740007D190F8643023B1836ECBB10B600120F3
:10C88400704712F0010303D090F8563003B1836D62
:10C894009207F2D590F85C20002AEED0054A006E8B
:10C8A400C2F5FC22904201D80344E6E70420704715
:10C8B4000F2070470080070010B5084C4FF4007239
:10C8C400FF21204600F0ACFE20220021A4F1240028
:10C8D40000F0A6FE002344F82C3C10BD3078002064
:10C8E4005B68DA680F4B9A42F0B519D10E490A68B1
:10C8F4009AB90E4A146884B9456887682C4620465C
:10C904003B1B90F90060002E2B4404F10104F6DB7C
:10C91400013B13600C60012200E00022044B1A70FA
:10C92400F0BD00BF90DA07007C7B0020787B0020FC
:10C93400807B002043F2040310B5194A1C6894421A
:10C9440001462BD042F20403C358981A4342434190
:10C954009442184621D142F20403CB58A3421CD17D
:10C964004FF4405301F500521B781278142B81BF09
:10C9740043F214030B481B68B3FBF0F398BF002386
:10C98400142A89BF42F2140200208858054A88BF3D
:10C99400B0FBF2F0181A18BF012010BD0023D7E72E
:10C9A400DBE5B15140420F002DE9FF472F49304DDF
:10C9B4008A6B304C304FDFF8D890DFF8D8A05C3168
:10C9C4006846FCF7B7FC9DE80F0085E80F000021DE
:10C9D4002A4BEB604FF4477220463970C9F80010B7
:10C9E400CAF8001000F01CFE224625492846FCF730
:10C9F40039FF234620B90027384604B0BDE8F08744
:10CA04003F78002FF7D094F86C2122B394F800807B
:10CA1400B8F1000FEFD194F87221E2B1DAF80020F6
:10CA2400D9F800106846FCF785FC9DE80F0085E8FE
:10CA34000F004FF4B272414604F5BA7000F0F0FDF5
:10CA440004F5BA720F492846FCF70CFF0028D2D02F
:10CA540004F5BA7406E01A78002ACCD09B79002B2E
:10CA6400C9D0094C094B1C60C6E700BFD47700202D
:10CA7400A07E0020847B0020807B0020E5C8070086
:10CA840044DB070090DA07008C7B00205C7F0020E9
:10CA94007C7B0020787B002000B591B0FDF7DCF8AA
:10CAA400684620220749FDF70AF96A4640230649E9
:10CAB4000648FDF725F8064B01221A7011B05DF8FF
:10CAC40004FB00BFE4D80700B07E0020B0D8070004
:10CAD400547B0020F0B5A3B006460F4615461C460D
:10CAE40078222023002104A8029300F099FD00235A
:10CAF4000393194B1B780BB9FFF7CEFF2FB336BB4B
:10CB040002AB164E01930096289B1549224604A8B1
:10CB1400FDF788F8E8B9402D1BD1124C2A46394656
:10CB2400204600F053FD20212046FDF7D4F88DE87F
:10CB34003000029B0C49324603A8FCF7FDFF002895
:10CB440014BF0520012023B0F0BD1320FBE71620FD
:10CB5400F9E70A20F7E700BF547B0020F87E0020A5
:10CB6400E8D90700187F0020B07E0020F0B5ABB0F4
:10CB740004460E4617461D467822202300210CA8A1
:10CB8400039300F04DFD114B1B780BB9FFF784FFA5
:10CB94002DB12146202204A8FDF786F804AC03AB8E
:10CBA4000B4D019300953B4632460A490CA8FDF70C
:10CBB40039F848B920222146284600F0E7FCB0FAAB
:10CBC40080F040092BB0F0BD0020FBE7547B00202F
:10CBD400557B0020E8D90700064B9B6B10B5064C2B
:10CBE4002BB1FFF7E1FE10B10123237010BD002328
:10CBF400FBE700BFD4770020587F002010B504461F
:10CC040058B1B0F5007F0AD8064B00221A70FFF71E
:10CC140053FE054B01209C6310BD032010BD04206E
:10CC240010BD00BF587F0020D477002070B50E4C93
:10CC34000646E06BA36B42189A420D4611D85C304D
:10CC44000A462044314600F0C1FCE36B04F1400283
:10CC54002B4429463046E363FBF7B0FC20640120F3
:10CC640070BD032070BD00BFD4770020014B18783D
:10CC7400704700BF587F002013B5104C94F86C2106
:10CC8400B2B194F8D802B4F8DA2204F5377104F595
:10CC9400B8740B4B1B6800930A4B1B68FFF71AFF11
:10CCA400012809D1201D02B0BDE8104000F0C0B930
:10CCB400114610460434ECE702B010BD847B00201A
:10CCC400787B00207C7B0020204BDA6B9B6B9A42A4
:10CCD4002DE9F04107460D462FD1DFF8788098F80A
:10CCE40000604EB1FFF758FD194B386029461868AB
:10CCF400BDE8F041FFF7B8BDFFF756FEF8B1FFF706
:10CD0400BBFF01283E6004462E601BD1104B294610
:10CD14001868FFF7A9FD0128044613D103463246DB
:10CD240031462868FFF74CFD58B9FFF735FD88F800
:10CD3400004038602046BDE8F0810824FAE7052465
:10CD4400F8E70424FFF7B8FDF4E700BFD477002028
:10CD54005C7F0020587F002001237230FFF706BF5C
:10CD6400037837B50D461146032B03D8DFE803F0EB
:10CD740022051019002003B030BDD0F80140002274
:10CD84002846FBF71BFC844214BF00200120F2E775
:10CD94000A4600232946013003B0BDE83040FFF7BE
:10CDA400E5BE00912B46411C40220020FFF792FE75
:10CDB4000128E9E70120DEE72DE9F041A2B00446AD
:10CDC4000D46174600217822984604A82023039391
:10CDD4009DF8A06000F024FC41220021204600F0D0
:10CDE4001FFCB5F894300BB195F896602670032EAD
:10CDF4001ED8DFE806F00902111F0022414638461A
:10CE0400FBF7DCFBC4F80100424639462046FFF735
:10CE1400A7FF22B0BDE8F08103AB0193631C00932C
:10CE24003A464346074904A8FCF7FCFE0028EBD029
:10CE34000020EEE7B5F8982005F19A01601C00F097
:10CE4400C5FBE1E7E8D907002DE9F047704B1D6801
:10CE5400A4B004460F4690460A4601462846FFF70A
:10CE64007BFF002800F0CE8095F8556046BB4FF05C
:10CE74000109CDF800903B462246294613A8FFF746
:10CE84009BFF002800F08780B8F1000F71D0412289
:10CE940013A9604800F09AFB5F4B6A68C3F82C90B2
:10CEA4001E629A60002239462046FBF787FB5A4BE4
:10CEB400012598625F62FFF7FFFC574B9C645BE0BF
:10CEC4004122002102A800F0ABFB06F00109412237
:10CED400002113A806F0020600F0A2FBB9F1000F2E
:10CEE4004ED042F20403E15803F1A34303F5471380
:10CEF40003F2D75399424ED1D5F858A00AF5FF5200
:10CF04000AF6FF73C3F30B031F32D21A42F208036B
:10CF1400E35893423FD343F204031B688B4213D17B
:10CF24004FF440531B78102B8ABF43F210030022A6
:10CF34001A6804F500531B78102B8ABF42F21003C1
:10CF44000023E3589A4226D12046FFF7F3FC00B1B0
:10CF54000EB30123009322465346294602A8FFF745
:10CF64002BFFC0B1AB6DE218FB1A66B9B8F1000F24
:10CF740018D1294B01255D61284624B0BDE8F0870E
:10CF84003B462246F1E70021009113A82946FFF70A
:10CF940013FF0028EAD1B8F1000F2ED10525FFF7C1
:10CFA4008BFCE9E7DFF87080B9F1000F21D020464F
:10CFB400FFF7C0FC18B108F11800FFF7CBFB4122C2
:10CFC40002A9164800F002FB002E14BFAC23A523CF
:10CFD400C8F82C30AB6DC8F83430002E3FF462AF83
:10CFE400412213A90E4800F0F1FA6B68C8F80C301E
:10CFF40058E7AA23C8F82C30EFE705250948FFF7BE
:10D00400A9FB58E71725B8F1000FF7D1C7E700BF10
:10D014005C7F0020757A0020D4770020347A0020C9
:10D02400B67A0020F87700200122FFF70DBF000038
:10D0340090F85430F0B51BB190F85520032A33D939
:10D044000F20F0BD348855F82170A74204D0013177
:10D0540045E06AB9012B45D80378E3B1012A224B94
:10D06400406812D89B6898422CBF01201020F0BD64
:10D0740012F1FF3318BF0123002B33D0ECE713B1B7
:10D084004369002B2ED10378F6E7DB68984294BFFE
:10D0940010200120F0BD012A14BF0F200120F0BD93
:10D0A4001120F0BD1420F0BD90F86E30032BF9D19F
:10D0B400037A002BC4D0C368342BF1D143F20403A8
:10D0C40019680A4B9942038AD9D15BB14169002995
:10D0D400BFD000F11405DBB2002143F20C06CCB240
:10D0E4009C42AFD31220F0BDD4770020DBE5B151D0
:10D0F40038B1054B0360054B4360012303720020E4
:10D1040070470E20704700BF3BD1070015D10700C0
:10D1140069B10B78022B0CD1022804D003280CBF70
:10D1240011200820704703230B70002070470E2045
:10D1340070470820704710B50C4679B10B78042B62
:10D1440004D8DFE803F00D05030D0D00112010BD18
:10D15400FFF780FA28B90223237010BD0E2010BDFA
:10D16400082010BD38B504468069124B124A10F8E5
:10D17400025CD21A0C21B2FBF1F245B9206901FB21
:10D1840002330C4A934205D10123236038BD4FF08A
:10D19400FF30F4E71168A9420AD1411C05D1956812
:10D1A40094E80F00A847206038BD51688842F6D043
:10D1B4000C32E7E7F4D6070000D707001EF0040F8F
:10D1C4000CBFEFF30880EFF30980FFF7CBBF00BF7C
:10D1D40010DF704711DF704713B5044609496846EC
:10D1E400FBF762FD019808B902B010BD03684168FD
:10D1F4002046984718B16846FBF760FDF2E7112016
:10D20400F2E700BFE4DB070013B5044607496846AC
:10D21400FBF74AFD019B0BB902B010BD20461A680A
:10D22400596890476846FBF749FDF3E7FCDB0700C4
:10D23400064B9A6822B11A6822F480021A60704779
:10D24400034B4FF48002C3F880207047C859002074
:10D2540000E100E00C4991F816335A09EC2313411C
:10D26400DB0708D442F20200FCF775BD1A6842F4E9
:10D2740080021A607047054B9A68002AF6D14FF471
:10D2840080030B60704700BF00E100E0C859002034
:10D29400F7B5184F3C785CBB174E01252046357016
:10D2A400FFF79AFF112820D02046FFF7ADFF134B5C
:10D2B4001868019002A800F8054DFBF745F91049DC
:10D2C40001A8FFF785FF0446B0FA80F040093870E2
:10D2D4009DF80300FBF75CF93CB90A4B34701C70F1
:10D2E400FFF7B8FF2846FFF78FFF204603B0F0BDD5
:10D2F4000824FAE7617F0020607F0020DEDB07005E
:10D30400559D0700627F0020F7B5154F3B7813B396
:10D31400144E01203070FFF75FFF11284FF0000515
:10D324001BD00220FFF770FF02A800F8015DFBF795
:10D334000BF9FFF74FFF04469DF807003D70FBF71C
:10D3440027F92CB93470FFF773FF0320FFF75CFF54
:10D35400204603B0F0BD0824FAE72C46F8E700BFE6
:10D36400617F0020607F0020054B1B7833B1054BA3
:10D374001B780BB1FFF7C8BFFFF78ABF08207047BF
:10D38400607F0020617F0020014B1878704700BF48
:10D39400617F002007B508496846FBF785FC019BBF
:10D3A40013B903B05DF804FB58681A6890476846DF
:10D3B400FBF784FCF3E700BFF0DB0700FFF7EABFED
:10D3C40060DF704769DF704761DF704730B5114D2A
:10D3D400ADF5017D4FF4FA740DF1020103A8ADF827
:10D3E4000240FFF7F1FF70B9294601A8FBF75CFC86
:10D3F400029B002BF0D003A81A685968904701A833
:10D40400FBF75CFCF4E7052801D0FCF7A4FC0DF560
:10D41400017D30BD08DC0700024B1B780BB1FFF720
:10D42400D5BF7047637F002018B1034B0360002011
:10D4340070470E20704700BF68590020F0B50746BA
:10D4440085B00D4600295FD0304B0B600C220021C3
:10D4540001A800F0E5F8012606232A68ADF8083093
:10D4640001A920208DF804708DF80660FFF7AAFF4B
:10D474000C22002101A800F0D3F800242A688DF8BA
:10D48400056001A940208DF806408DF80740FFF79C
:10D4940099FF0C22214601A800F0C2F8F7232A685C
:10D4A400ADF8063001A923208DF80470FFF78AFF38
:10D4B4000C22214601A800F0B3F82A688DF8046014
:10D4C40001A93046FFF77EFF0C22214601A800F097
:10D4D400A7F84FF4B0632A68019301A9A120FFF7CC
:10D4E40071FF0C22214601A800F09AF89DF804303F
:10D4F4002A6864F3000301A9A0208DF80430FFF723
:10D5040061FF204605B0F0BD0E20FBE768590020FE
:10D5140008B5FFF755FF10B9014B01221A7008BD79
:10D52400637F00204BDF70471FB50D4C01A8FFF748
:10D53400F9FF70B9214602A8FBF7B6FB039B002B49
:10D54400F4D001981A685968904702A8FBF7B6FB13
:10D55400F4E7052801D0FCF7FEFB04B010BD00BFC2
:10D5640014DC0700B2F120030AD5C2F1200301FA4A
:10D5740002F120FA03F341EA030100FA02F07047D2
:10D5840000FA03F14FF00000704700BFE2B170B43D
:10D59400561E15D002780B789A4213D1431C0131E0
:10D5A400064418460A46B34205D0013301310578D2
:10D5B4001478A542F5D000781378C01A70BC70476F
:10D5C4000A46F8E70A46F6E700207047844640EA30
:10D5D400010313F0030F18D18446202A0BD32DE93D
:10D5E400F007B1E8F807A0E8F807A2F12002202A22
:10D5F400F7D2BDE8F007042A07D351F8043B40F8FA
:10D60400043BA2F10402042AF7D2002A05D011F83F
:10D61400013B00F8013B013AF9D16046704700BF75
:10D624008446002A2DD010F0030F04D000F8011B0B
:10D63400013A26D0F7E7C9B241EA012141EA0141A2
:10D64400202A12D3A2F120022DE9F0030B460C4646
:10D654000D460E460F4688468946A0E8FA03203A4E
:10D66400FBD2BDE8F00320320BD0042A05D340F8E6
:10D67400041B043A05D0042AF9D200F8011B013A2C
:10D68400FBD16046704700BF00F1010110F0030FA9
:10D6940011D010F8012B002A23D010F0030F0AD068
:10D6A40010F8012B002A1CD010F0030F03D010F83F
:10D6B400012B002A15D02DE970004FF001324FF0F4
:10D6C400803350F8044BA4EB020525EA04051D4001
:10D6D40000D1F6E7A0F1040070BC10F8012B002A79
:08D6E400FBD1A0EB010070472F
:08D6EC002DBF07007DBC070003
:0CD6F4000000000003000000F5D007005B
:10D700003460002070700020817000203C60002098
:04D71000F400000021
:08D714008DB9070000000000C0
:08D71C00D18B070000000000A2
:10D724001DD40700000000002DD5070000000000F4
:08D73400118A0700000000004B
:08D73C002D8B07000000000026
:10D74400000000000000000025C0070000100000D9
:04D7540000000800C9
:10D75800001000000400000001000000A588070078
:10D76800C9880700D988070049890700E9880700A0
:10D77800B1880700B5880700B988070000100000C5
:10D788000400000001000000558A0700358A0700E0
:10D79800258A07005D8C0700118C0700F9890700AE
:10D7A800FD890700018A0700982F8A429144377142
:10D7B800CFFBC0B5A5DBB5E95BC25639F111F1590C
:10D7C800A4823F92D55E1CAB98AA07D8015B83124E
:10D7D800BE853124C37D0C55745DBE72FEB1DE80FA
:10D7E800A706DC9B74F19BC1C1699BE48647BEEF29
:10D7F800C69DC10FCCA10C246F2CE92DAA84744AB4
:10D80800DCA9B05CDA88F97652513E986DC631A829
:10D81800C82703B0C77F59BFF30BE0C64791A7D508
:10D828005163CA0667292914850AB72738211B2E90
:10D83800FC6D2C4D130D385354730A65BB0A6A7678
:10D848002EC9C281852C7292A1E8BFA24B661AA884
:10D85800708B4BC2A3516CC719E892D1240699D694
:10D8680085350EF470A06A1016C1A419086C371E0D
:10D878004C774827B5BCB034B30C1C394AAAD84EEB
:10D888004FCA9C5BF36F2E68EE828F746F63A57826
:10D898001478C8840802C78CFAFFBE90EB6C50A4B9
:10D8A800F7A3F9BEF27871C64800280000204000AE
:10D8B80051AA07000B940700AF930700EF980700E1
:10D8C8006199070081990700F9920700BD92070046
:10D8D8008798070000000000111213143BBDE10EE9
:10D8E80031C9B7539CCFFE61694668E5E005FB99ED
:10D8F800EC400266361DD35849DBC82C2C977305BB
:10D9080004B9121C9826004C7E98A4C18D0522C922
:10D918003D8FF5CA9C0C92E00023383408200001A2
:10D92800FFFFFFFFFFFFFFFFFFFFFFFF00000000FB
:10D93800000000000000000001000000FFFFFFFFE2
:10D94800512563FCC2CAB9F3849E17A7ADFAE6BC99
:10D95800FFFFFFFFFFFFFFFF00000000FFFFFFFFCB
:10D9680096C298D84539A1F4A033EB2D817D037771
:10D97800F240A463E5E6BCF847422CE1F2D1176B0C
:10D98800F551BF376840B6CBCE5E316B5733CE2BDF
:10D99800169E0F7C4AEBE78E9B7F1AFEE242E34F0E
:10D9A8004B60D2273E3CCE3BF6B053CCB0061D654B
:10D9B800BC86987655BDEBB3E7933AAAD835C65AD4
:10D9C80023A4070075A50700D9A5070000000000DB
:10D9D80000000000000000000338FDD87047000078
:10D9E800F7B70700F1B70700D1B70700200000001C
:10D9F80078000000000000000100010000000000A5
:10DA08000100000000000000020005000100000005
:10DA180042000000000000000000000000000000BC
:10DA28000000000000000000010011000100FFFFDD
:10DA38000100000000000000020017000200FEFFC5
:10DA48006401000090DA07000000000000000000F8
:10DA580000000000000000000100010000000000BC
:10DA680001000000000000000200050001000000A5
:10DA7800220000000000000000000000000000007C
:10DA88000000000000000000010011000400FCFF7D
:10DA98000400000000000000020011000400FCFF68
:10DAA8000400000000000000030021000400FCFF47
:10DAB8000400100000000000040011000100FFFF36
:10DAC8000100000000000000050011000200FEFF38
:10DAD8000400000000000000060011000400FCFF24
:10DAE8000400000000000000070011000400FCFF13
:10DAF8000400000000000000080017000200FEFFFC
:10DB08002400000060DA0700090010000100FFFF90
:10DB18000100000040DB07000A0027000200FEFFAA
:10DB28004400030000DA07000000000000000000C5
:10DB380000000000000000000000000001001700C5
:10DB48000400FCFF6801000030DA0700020017003B
:10DB58000400FCFFAC01000074DB070000000000BB
:10DB680000000000000000000000000001000700A5
:10DB7800000000006801000030DA07000200010020
:10DB88000000000001000000000000000300050084
:10DB9800010000004200000000000000000000003A
:10DBA80000000000000000000000000050EADA3029
:10DBB8008883B89F604F15F30000C98E44465532DC
:10DBC80042313600000000000338FDD870470C00D1
:10DBD8000C000000580201000007000034D70700BD
:10DBE8003CD707000800000024D7070034D70700F7
:10DBF800080000001CD7070024D707000800000011
:10DC080014D707001CD70700080000003CD70700FE
:08DC180044D7070008000000DA
:10DC200000000000000000000000000000000000F4
:10DC300000000000000000000000000001000000E3
:10DC40007C5900208C5900200090D003FF00FFFF7A
:08DC50000100000000E00700E4
:020000020000FC
:020000041000EA
:041014000080070051
:0410180000E00700ED
:04000003700083798D
:00000001FF
