:020000022000DC
:106000000000042061620200B9620200BB6202006B
:10601000BD620200BF620200C16202000000000017
:10602000000000000000000000000000C362020049
:10603000C562020000000000C7620200C9620200DF
:1060400041990200CF620200F59D0200D362020076
:10605000D5620200D76202004D9C0200DB620200A2
:10606000DD620200DF620200E1620200E362020020
:10607000E5620200E7620200E9620200EB620200F0
:10608000ED620200F1730200F1620200F3620200AD
:106090008D740200F762020031EE0200FB62020022
:1060A000FD620200FF62020001630200036302005E
:1060B0000563020007630200CB620200CB620200AC
:1060C000096302000B6302000D6302000F6302000C
:1060D00011630200136302001563020017630200DC
:1060E000196302001B6302001D630200CB62020001
:1060F000CB62020021630200CB6202001F63020038
:10610000364937480A1A02D0072291438D4635494D
:1061100035480A1A06D00722914381F309880222E2
:1061200082F3148831483249324A00F045F8324847
:106130003249334A00F040F832483349334A00F0DC
:106140003BF833483349344A00F036F83348344991
:10615000344A00F031F834483449354A00F02CF81C
:1061600034483549354A00F027F83548354900228A
:1061700000F02DF834483549002200F028F8344862
:106180003449091A082903DB002202600430016047
:10619000314A90471F482049884205D002680430A0
:1061A00003B4904703BCF7E700208646EC46002086
:1061B00000212A4A9047FEE7884207D0521A05D0AC
:1061C000037801300B700131013AF9D170478842F0
:1061D00002D002700130FAE770470000000004208E
:1061E00000E003200000042000000420FC0703005E
:1061F00074220020E82200202463020024630200AD
:10620000CCF30200FC07030074220020742200205B
:1062100054F5020054F5020054F5020054F5020052
:1062200054F5020054F5020054F5020054F5020042
:10623000FC07030070080300E8220020E822002089
:10624000E82200207C3100207C3100207C310020BD
:106250007C3100207C5100208562020049AF0200A1
:106260000F484FF00701884385460E4880470E4887
:10627000016841F470010160BFF34F8FBFF36F8F6E
:10628000FFF73EBF09480A490A4A884207D0521A16
:1062900005D0037801300B700131013AF9D1704714
:1062A00000000420CD6E020088ED00E000F5020041
:1062B0002022002074220020FEE7FEE7FEE7FEE732
:1062C000FEE7FEE7FEE7FEE7FEE7FEE7FEE7FEE7A6
:1062D000FEE7FEE7FEE7FEE7FEE7FEE7FEE7FEE796
:1062E000FEE7FEE7FEE7FEE7FEE7FEE7FEE7FEE786
:1062F000FEE7FEE7FEE7FEE7FEE7FEE7FEE7FEE776
:10630000FEE7FEE7FEE7FEE7FEE7FEE7FEE7FEE765
:10631000FEE7FEE7FEE7FEE7FEE7FEE7FEE7FEE755
:04632000FEE700BFD5
:10632400F0B595B01C4608460D46164603F06FF8C6
:106334001A9B099400240D930822234605A9284694
:1063440008960A948DF82C400C9403F09EF8079B51
:106354000293BDF81830ADF80C30BDF81A30ADF822
:106364000E309DF814308DF8114003F00302012A19
:106374001DD1BDF81440059EC3F3C203C4F38314B6
:106384008DF81030A20008230EA9284603F07DF8EA
:10639400C6F3952608AB0093224602AB0EA93046FD
:1063A40000F0F2FB284603F036F815B0F0BD022ADF
:1063B400F8D1BDF81640C3F3C203C4F389148DF8B1
:1063C40010300827082C264628BF08263B463246AC
:1063D4000EA9284603F059F8A41B08AB02AA3146BB
:1063E4000EA8374400F034FC002CEBD1DAE70000AF
:1063F400014B01221A7070472923002070470000C6
:1064040070B50E4D06460FCD88B06C460FC495E8A6
:106414000F0084E80F0008A9002E4FF00603084A75
:1064240041F8203D08BF0022064803F011FA08B1E4
:1064340000F030FF044B1E7008B070BD54F502002C
:10644400F563020074220020E822002007B5044B03
:106454000093044A4023FFF763FF03B05DF804FB95
:106464006D640200E922002038B50D4B0D4D00206B
:1064740018700D4804782D5DD2B21C4665B1043005
:1064840004F02EF908B100F005FF084B1A7812B198
:106494002378002BFBD038BD0C3003F0FBFEF1E772
:1064A400292300209C2B002074220020E8220020B5
:1064B40008B50848084A0378D35C3BB1043004F0BB
:1064C400B9F80020BDE80840FFF79ABF0C3003F08C
:1064D4008BFEF6E7742200209C2B00200120FFF79E
:1064E4008FBF000010B5054CFFF7F8FF04212046CC
:1064F40000F0BAFA0123637210BD00BF88220020A5
:10650400037813F0030F10B503F0040402D004F071
:10651400FF02F4B1B4B103F00303012B03D0022B47
:1065240009D0012010BD0A6800880232C0F383102C
:1065340002440A60F5E70B684288023303EB9213C6
:106544000B60EEE70B684288013303EB9213028879
:10655400F4E7104610BD00002DE9F04F89B006465F
:10656400851C08A8494C019200230F4600F8113DF0
:1065740001F076F923683B606268A36813442268DB
:1065840001339B1A04F21C4704F5836A04F214488D
:10659400AB421AD3019A0023002A6FD0012262F37E
:1065A400010343F0040366F389132168A2689DF88C
:1065B4000F000A4003320D4444F82230256001F0F4
:1065C40073F9012009B0BDE8F08F0121384602F0CB
:1065D400DBF9504602F0F5F9404602F0F2F90DF10C
:1065E40020096068D4F808B049F8100D00EA0B00DF
:1065F400033004EB80004946FFF782FF049BB8B9DF
:106604000BEA030204EB8202D16805919A1C013360
:1066140003EA0B0B04EB8B0E0492DEF80C300693AA
:1066240001F00303012B21D0022B04D083460CE09C
:106634000BEA0300DCE7BDF81630BDF81AB0C3F36B
:106644008913033302EB93030493404602F0BCF92D
:1066540008B1049B63605946384602F095F96268B4
:10666400A3681344226801339B1A91E7BDF81430E0
:10667400BDF81AB0C3F383131344E5E7022262F3AF
:10668400010343F0040366F39F538EE7FC230020C9
:1066940008B50E4B0E48FF229A600022C3F8182456
:1066A4001A605A60C3F8142483F8202402F066FEAA
:1066B40038B9084A084B09499B1ADB0802469A4232
:1066C40000D108BD21F822200132F8E7FC23002084
:1066D400B8F4020038F40200B8F4020020220020CA
:1066E40030B50B4C79B10B4A0B49121BD20800236D
:1066F4009A4201D1002030BD01EB83056D888542AB
:1067040002D00133F4E7034654F8330030BD00BF30
:1067140038F40200B8F4020020220020094B0139A9
:1067240003EBC000032909D8DFE801F00A020406DC
:106734000420704700797047407970470020704703
:106744000220704738F40200034B58681B68C31AD0
:1067540058425841704700BFFC2300202DE9F04304
:1067640087B0FFF7F1FF0746002840F0E6807B4D35
:10677400C5F81804BFF34F8F6868AC680DF11808AA
:1067840048F8100D2040033005EB80004146FFF728
:10679400B7FE029B064600285AD104EA0302991C5C
:1067A400013305EB8202234005EB8303D268DB68E7
:1067B400049302F00303022B039202915AD1BDF811
:1067C4000E306748C3F389194F46502FA8BF50278E
:1067D40067F38F1307F10801ADF80E3002F0E6FD00
:1067E4008046002800F0B08002F011FE082203A9C0
:1067F4003346404602F01EFE029924EA01020132A9
:10680400920097422FD9002A00F099802140D6B2F5
:106814000331BF1B534C05EB8101FFB20823324601
:10682400404602F007FE34B106F108033A46214619
:10683400404602F0FFFD029B09F1030903EB9903B3
:106844000293D5F81834002B47D1D5F8104450E002
:106854002A689A4204D86A60384607B0BDE8F083D3
:1068640004EA03008FE70C40E11C08233A4605EBD9
:106874008101DDE7012B67D1BDF80C303848C3F343
:106884008311062928BF062161F389130231890087
:10689400ADF80C3002F08AFD8046002854D002F096
:1068A400B6FD3346082203A9404602F0C3FDBDF8F5
:1068B4000C20C2F38312B31C96424FEA8303C0D266
:1068C40002994A1C21400331029205EB8101042202
:1068D400404602F0AFFD0136E9E7404602F09BFD79
:1068E400FFF732FF80F00100C7B2B5E7637A73BBEC
:1068F4006468002CFAD1404602F08DFD06A800F829
:10690400114D00F0ADFFD5F818340BB9029B6B6044
:106914009DF8070000F0C8FFE2E7236820469B6863
:1069240098476468002CF8D10F4B1049188800046C
:1069340040F0020000F074F8D2E700278CE7FEB2C2
:1069440014460849174669E7D5F81044EAE723686E
:1069540041461B6820469847CAE700BFFC23002035
:10696400B8F40200082400203422002080F502003C
:106974002DE9F74F284C80460F46924601A9012283
:1069840018469B46A568FFF7E7FD88B3DDF8049039
:10699400002609F102025E4534D100211F4801F0AE
:1069A400A6FF80F3100009F101022A4004EB8202E1
:1069B400000405EA0903033340EA1840D06014F8E0
:1069C400232068F3C50204F8232034F8232066F357
:1069D400891224F8232054F82320012167F39F22ED
:1069E40044F8232061F301026FF3820204F82320A8
:1069F40094F820341BB1FFF7B1FE0028FBD103B09B
:106A0400BDE8F08F02EA050104EB81015AF8263053
:106A1400CB6001360132BEE7FC2300201828002099
:106A240000231A46FFF7A4BF13B502AC012344F8B0
:106A3400042D2246FFF79CFF02B010BD07B58DE878
:106A44000C0002236A46FFF793FF03B05DF804FBD2
:106A54001FB50293069B0192039301AA0323FFF738
:106A640087FF05B05DF804FB0F4A30B5D2F8104437
:106A74000023214641B90372D2F810444CB9C2F83C
:106A840010044160184630BD0D7A9D4205D0496816
:106A9400F0E7626842606060F4E701330A2BE8D1F2
:106AA4004FF0FF33EEE700BFFC230020084A38B55F
:106AB4000123D2F8104482F820341D4604B938BDAD
:106AC4002368657220465B6898476468F6E700BFF0
:106AD400FC230020C38873B504460D4633B1144A21
:106AE40000921449144A284601F0CFFF217A05295F
:106AF4001CD0637A4BB1A088FFF710FE0F4B1049EE
:106B040053F82020284601F0C0FF227A0D4BA088BC
:106B140053F822600021FFF7E3FD0B490346324698
:106B2400284602B0BDE8704001F0AFBF02B070BDAE
:106B3400FBF50200E3F50200DBF50200A8F5020014
:106B440000F6020010F6020003F60200037A052B99
:106B540010B50C460FD0437A23B1084A08492046A1
:106B640001F093FF0749204601F08FFF2046BDE85E
:106B7400104001F07FBF002AF8D0F3E7FBF50200D4
:106B840000F60200F8F502002DE9F04385B01F4637
:106B94000C9D002306460C46904695F80C902B73EA
:106BA40029463846FFF796FFB8F1060F09D8DFE803
:106BB40008F00412181F283340003146284601F01B
:106BC40064FF002229463846FFF7C0FF85F80C9081
:106BD40005B0BDE8F08322683146284601F055FF30
:106BE400EFE794E80C003146284601F04EFFE8E751
:106BF400A3680093314694E80C00284601F045FF51
:106C0400DFE7E3680193A3680093314694E80C003E
:106C1400284601F03AFFD4E723690293E36801931D
:106C2400A3680093314694E80C00284601F02DFF38
:106C3400C7E76369039323690293E3680193A36835
:106C44000093314694E80C00284601F01EFFB8E793
:106C540008292DE9F84F80460E4617461C4636D8BB
:106C6400002593F80C901D7319461046FFF732FF68
:106C7400DFF87CA0DFF87CB0AE422AD918F80520F2
:106C84005946204601F001FF0135082DF4D116497B
:106C9400DFF864B0204601F0F8FE0025AE421DD9AD
:106CA40018F805A0504608F0DBFA002814BF524635
:106CB4002E225946204601F0E8FE0135082DEDD17B
:106CC400012221463846FFF741FF84F80C90BDE8C5
:106CD400F88F5146204601F0D8FED5E703492046F7
:106CE40001F0D3FEE9E700BFD6F50200D4F50200B7
:106CF400D2F50200CCF50200D8F50200074B1B5C6C
:106D04001F2B8ABF064A4FF0A04203F01F03D2F89C
:106D14000405D840C04300F00100704773F6020038
:106D240000030050074B1B5C1F2B86BF03F01F039F
:106D340005494FF0A041012202FA03F3C1F80C35D2
:106D4400704700BF73F6020000030050074B1B5C42
:106D54001F2B86BF03F01F0305494FF0A0410122FA
:106D640002FA03F3C1F80835704700BF73F6020056
:106D74000003005008B50020FFF7E8FF0120FFF7EB
:106D8400E5FF0220FFF7E2FF0320BDE80840FFF71C
:106D9400DDBF08B50020FFF7C5FF0120FFF7C2FFE4
:106DA4000220FFF7BFFF0320BDE80840FFF7BABF8A
:106DB4000A4B185C1F288ABF094B4FF0A04300F010
:106DC4001F00D3F804250121814021EA02000A4072
:106DD400C3F80805C3F80C25704700BF73F602001A
:106DE40000030050074B1B5C1F2B8ABF064A4FF061
:106DF400A04203F01F03D2F81005D840C04300F0AE
:106E0400010070476FF60200000300500B2809D000
:106E14000C2809D0182809D019280CBF03204FF0DA
:106E2400FF307047002070470120704702207047F0
:106E3400014B185C704700BF6FF60200C20770B5C3
:106E4400044614D5154D164E00220320535D1F2B06
:106E540086BF03F01F0331464FF0A04103F5E073F2
:106E64000132042A41F82300F0D1FFF783FFA3077E
:106E740012D50C4C0A4D00220C20135D1F2B86BF2B
:106E840003F01F0329464FF0A04103F5E0730132DC
:106E9400042A41F82300F0D170BD00BF73F602004C
:106EA400000300506FF60200054B1B68082B01BF5E
:106EB400044B1868B0FA80F0400918BF00207047EE
:106EC400300100103401001008B54FF08043002257
:106ED400C3F80C21C3F81021C3F838254FF08052B1
:106EE40003F54043D2F80414C3F82015D2F808146B
:106EF400C3F82415D2F80C14C3F82815D2F81014CA
:106F0400C3F82C15D2F81414C3F83015D2F8181499
:106F1400C3F83415D2F81C14C3F84015D2F8201461
:106F2400C3F84415D2F82414C3F84815D2F8281429
:106F3400C3F84C15D2F82C14C3F85015D2F83014F9
:106F4400C3F85415D2F83414C3F86015D2F83814C1
:106F5400C3F86415D2F83C14C3F86815D2F8401489
:106F6400C3F86C15D2F84424C3F87025FFF79CFFCE
:106F740010B1384B384A1A60FFF796FF18B1374BF7
:106F8400FB22C3F81825FFF78FFF48B13449354B6E
:106F94000A681B6822F00F0203F00F0313430B600F
:106FA400FFF782FF18B1304B4FF400721A604FF0B4
:106FB4008043D3F80024D20744BF6FF00102C3F822
:106FC40000242A4AD2F8883043F47003C2F8883087
:106FD400BFF34F8FBFF36F8F4FF01023D3F800220E
:106FE400002A03DBD3F80432002B2FDA204B0122D2
:106FF400C3F80425D3F80024002AFBD04FF0102254
:107004001221C2F80012D3F80024002AFBD04FF05A
:1070140010231222C3F80422154B1A46D3F8001485
:107024000029FBD00021C3F80415D2F80034002B4A
:10703400FBD0BFF34F8F0D490E4BCA6802F4E062D8
:107044001343CB60BFF34F8F00BFFDE70A4B0B4ADE
:107054001A6008BD8C5600404881030000F00040CF
:10706400E40E0040580200104096024000ED00E09B
:1070740000E001400400FA05942200200090D003AF
:107084002DE9F84FDFF8A4B00025254B1B78ECB2AE
:10709400A34201D8BDE8F88F224BD3F8008018F83A
:1070A400349001204A46002108F006F8DBE9002369
:1070B40000EA020601EA03073E4308EBC40A2CD0A7
:1070C40023EA010122EA0000CBE90001484602F06C
:1070D400ABFD18F83440814622460120002107F018
:1070E400EBFF114BD3E90067224606400F404846A8
:1070F400002107F0E1FF8F4208BF86420DD1DAF884
:10710400043053B19AF801104A1E51425141A1EB87
:10711400090041424141204698470135B5E700BF87
:10712400202800205828002048280020502800202B
:107134002DE9F84307461F4800F082FB002837D1A9
:107144003A460120002107F0B7FF1B4B04460D46C9
:10715400D3E9000104EA000805EA010958EA090232
:107164001E461FD1384602F05FFD144B98B1D3E997
:10717400000120432943C3E90001D6E900231D434C
:107184000F4B0C4819681443C6E900450022BDE8BA
:10719400F84300F00FBBD3E9000120EA040021EA20
:1071A4000501E8E720EA040421EA0505C3E90045EE
:1071B400BDE8F88328280020502800204828002013
:1071C40024280020042AF7B505460C46164638D96B
:1071D40002F058FCC8B11C4B1C491D601C4B1D4FD0
:1071E4001C701D4B00221E600023C1E900231B49B3
:1071F400C1E90023013CE4B20026FF2C0BD1184A5C
:107204001848002100F0C4FA03E002F003FC00284F
:10721400E1D003B0F0BD23B205EBC30203219278A1
:107224008DF804108DF8052001A93A4615F83300AD
:107234008DF8066002F030FC013CE4B20028DCD09A
:10724400E7E70720E5E700BF58280020482800208A
:107254002028002035710200242800205028002016
:107264008570020078F6020070B5084D084E0024BF
:107274002B789C4201D3002070BD3368012113F8A0
:10728400340002F087FC0134F2E700BF202800201C
:10729400582800201FB50021039001AA44F20100E0
:1072A4000191029100F004F805B05DF804FB0000C0
:1072B40010B572B6FFF7FAFBFFF750FA0028FBD1BE
:1072C400104C11492088000440F00100FFF7A8FB8E
:1072D4000E4B1B68DB0700D500BE20880C49000458
:1072E40040F00200FFF79CFBBFF34F8F09490A4BA4
:1072F400CA6802F4E0621343CB60BFF34F8F00BF50
:10730400FDE700BF342200207CF60200F0ED00E02F
:1073140088F6020000ED00E00400FA05094A5378FB
:1073240091780133DBB2994208BF00231178994266
:107334001FBF03705078182303FB002014BF0430D0
:10734400002070475C28002073B5054602A800247D
:1073540000F8014D0E4600F083FA0DF10600FFF728
:10736400DDFF90B106700A4B9DF8062045605A7007
:107374009DF8070000F098FA24B9064B4FF48012E8
:10738400C3F80021204602B070BD0424F0E700BF1A
:107394005C28002000E100E0024B4FF43C6043F025
:1073A40001031847A0F6020038B50C4B0C4C4FF4FF
:1073B4000032C3F8802001254FF48033C4F84833E9
:1073C400C4F808336560FFF7E7FF064BA5600024A7
:1073D4001C60FFF7E1FF044B1C7038BD00E100E0C6
:1073E400001001407829002069290020F8B51F4BBE
:1073F4001F491B680025C1F84051C1F84451C1F828
:107404004851C1F84C51C1F80051C1F804514BB373
:10741400D1F8044517490968641A24F07F442F46BB
:107424001A68A24209D8A41A15441A7CDE691AB152
:107434001F745A6998699047AEB90F4B0F4A19786F
:1074440013788B4205D10133DBB2022B08BF002332
:10745400137012780A4B43F822500A4B4FF48012EF
:10746400C3F80021F8BD3346DAE700BF7C290020C9
:10747400001001407829002074290020752900207B
:107484006C29002000E100E02DE9F74F9C4A9D495A
:10749400137809789C4E994257D00133DBB2022B02
:1074A40008BF0023137099491278994B0F6853F859
:1074B40022003B1823F07F4300220B6033681546FB
:1074C4001446964613B942B1336006E01968814206
:1074D40029D902B13360091A19604FF001083368E1
:1074E4008C4FDFF83CB200934FF00009002D61D0BF
:1074F4002C46ED69854B60681A68831A23F07F4136
:10750400854B9942A36800F2B7800B4423600023A3
:107514006360A360E361336801222274002B40F0AE
:10752400B3803460E2E7401A0C44D968C3F800E041
:10753400D3F81CC031B13A1922F07F42DD615A60A0
:1075440099601D4663460122BCE70025A846C6E7AC
:10755400531CB978DBB299423B704FF0180303FB1C
:10756400027208BF3D7013799468022B1BD0032B61
:1075740011D0012B1ED1217CE1B9D368636013695A
:10758400A3605369E3609369A361644B1B78002B88
:10759400B0D06160AEE7002335681A46002D67D18C
:1075A40043B1356006E0326813469246002B5AD147
:1075B400002323743A787B789342C9D1B9F1000F40
:1075C40006D13368009A9A4202D1B8F1000F44D030
:1075D4003368002B73D0D3F800A0514D4B4BD5F832
:1075E40004751C68DFF840813E1B98F8003026F0D3
:1075F4007F4603369BB94FF48033C5F84433C5F84E
:107604000433484B4FF400324FF00109C3F8802192
:107614001A60C5F80090FFF7BFFE88F80090B245E5
:107624002CBF5444A41924F07F44C5F84045D5F830
:107634000435DB1B23F07F43E41B033324F07F4436
:10764400A3420AD9D5F80435C5F84035FFF7A4FE9E
:10765400344B4FF40032C3F80021304B00221A702F
:1076640003B0BDE8F08F9C422CD09A46DB699DE7BD
:107674002A740123ED6991E7121A22F07F429A429B
:1076840034BF9B1A002341E7226819688A420BD849
:107694008A1A1A60E36144E7521AD969184661B933
:1076A4002260E161DC6121E7184619689142F3D355
:1076B400891A196019460346F2E70B46F5E7FFF706
:1076C40073FECAE754450DD1D369336053B90F48EB
:1076D40001920121CBF808100360104B1970FFF7D9
:1076E4005BFE019AE1692368CAF81C1011B10868AD
:1076F40003440B6033689A4218BF4FF0010957E7FF
:1077040074290020752900207C2900207829002074
:107714006C2900205C280020FEFF7F0068290020DF
:107724000010014000E100E06929002008B5FFF7DE
:107734003BFE114B00200B2218709A7058700F4BAF
:1077440018600F4B18700F4B18700F4B4FF48012CA
:10775400E021C3F8802183F814131A6002F18042F7
:10776400A2F56F22C2F8080583F81113074BD2F86B
:1077740004251A6008BD00BF5C2800207C29002075
:10778400742900207529002000E100E078290020F8
:10779400074B9B784BB132B128B10368187C20B9F0
:1077A40059745A617047072070470820704700BF1A
:1077B4005C2800202DE9F7431E4FBB7805460E4692
:1077C4009046ABB3A0B3042930D9436983B3437C57
:1077D40002A80024012B00F8014D0CBF8946A146E4
:1077E40000F03EF80DF10600FFF798FDE0B101232B
:1077F4000370114B4560D3F8043583609DF806305F
:10780400C660C0F81090C0F814807B709DF8070023
:1078140000F04AF824B9094B4FF48012C3F8002150
:10782400204603B0BDE8F0830424EFE70724F7E71C
:107834000824F5E75C2800200010014000E100E086
:10784400064A92783AB130B1426922B100220274F8
:107854000221FFF779BD0820704700BF5C28002093
:1078640070B5EFF3108672B60C4A946801239CB984
:1078740093600B4B0B4DD3F8801029401160C3F873
:107884008050D3F8841051604FF0FF32C3F8842045
:10789400047006B962B670BD0370FAE7802900204F
:1078A40000E100E0FC06FFBD084B9A6810B55AB130
:1078B40050B9EFF3108272B605491C680C605C681D
:1078C4004C60986002B962B610BD00BF80290020E8
:1078D40000E100E070B5064E0546002456F8243059
:1078E4000BB1284698470134042CF7D170BD00BF72
:1078F40098290020033080B240F2FD33984230B51D
:107904001FD8124B1A783AB95C891D892C44044457
:10791400A4B2B4F5806F0AD31A7DA2B99A8BDC8B1A
:107924002244024492B2B2F5806F0CD201220A8042
:107934001446142202FB04335A891044588100204F
:1079440030BD092030BD072030BD00BFCC29002048
:107954000B4A0C4B5188142000FB0131CB6833B91E
:107964000420496810700122074801F0FBBA05237E
:107974000649137002238B80012200230968F3E770
:10798400B0290020CC29002060220020842A002075
:1079940007B5002305490093054A096805480823EB
:1079A40001F058FA03B05DF804FB00BF842A0020FC
:1079B400B4F602006022002007B5002300930146BC
:1079C4000823034A034801F045FA03B05DF804FBB9
:1079D400ACF602006022002013B500230C4600938D
:1079E40001460423074A084801F034FA38B9074B22
:1079F400142202FB04340123237402B010BD0E20B0
:107A0400FBE700BFA8F6020060220020CC2900207A
:107A140037B50A480A4B42689C881968538803257D
:107A2400033305709BB2002000909B0001EB84019E
:107A3400044801F00FFA03B030BD00BFB0290020A4
:107A4400842A00206022002010B50146044800F07A
:107A540082FE1C220446002107F052FC204610BD81
:107A6400982200204388033300EB8303994209D30F
:107A740082884FF6FF739A4206D00088B0FA80F0ED
:107A84004009704702207047012070472DE9F843F0
:107A94000223DFF864800B800D46174600F58056FC
:107AA40000F108044FF00109B44222D223680133E3
:107AB4001FD031462046FFF7D5FF48B10FB187F8F4
:107AC400009002280BD14FF480632B80BDE8F8832B
:107AD400A368D8F80020934201D9C8F800302B8855
:107AE4006288033313442B806388033304EB8304D9
:107AF400DAE7BDE8F88300BFC4290020144A142340
:107B040003FB002070B50B6844680D4604F58056ED
:107B140053B15C88033403EB8404A64202D923687E
:107B240001330BD1002070BD0834F6E72C6001202E
:107B340070BD6388033304EB8304EEE731462046CB
:107B4400FFF790FF0128F4D0F0D30228EAD0E4E74D
:107B5400CC290020436873B505460C466BB3254A0F
:107B6400D1688B4229D31269934226D813F00302B9
:107B740023D121490089098988421ED1286899683E
:107B840088421AD11D494868834203D900F58050C0
:107B940083420ED38A6993420DD902F580529342EF
:107BA40009D2012323800020B0FA80F0400902B0FA
:107BB40070BD1346F6E70A20F6E7002323801E462D
:107BC4002388012B01D90020F1E7019601A920881F
:107BD400FFF794FF18B9238801332380F0E7019B52
:107BE4002A6899689142F1D16B60034B1B892B8100
:107BF400DDE700BF60220020B0290020CC2900204E
:107C04002DE9F8431C461E4B1B7806460F461546C5
:107C14007BB38AB384B3DFF870804FF01409A38870
:107C2400012B02D90A20BDE8F88309FB03F318F8F5
:107C340003302BB92146A088FFF760FF20B92060EC
:107C4400A3880133A380EAE723681EB199883288A8
:107C54009142EFD147B99A6885E80C00094B1B891A
:107C64002B810020BDE8F88319883A889142E1D13C
:107C7400F1E70220BDE8F8830520BDE8F88300BFE2
:107C8400A8290020B0290020CC29002008B5074BE2
:107C9400191D5888FFF732FF18B1BDE80840FFF7F7
:107CA400B7BEBDE80840FFF753BE00BFB0290020AF
:107CB4002DE9F04FA04FDFF8A49289B00646B846EC
:107CC4003B6823B949469D4800F07FFD3860D8F8E9
:107CD40000502A78531E052B00F2EC81DFE813F0E4
:107CE400060070007000020102015B0126B1944B92
:107CF40000225A60012425E02B79032B1ED8DFE8EB
:107D040003F016023C478F490B78022B084632D009
:107D14000B7D022B4FF0010340F0108214225343D9
:107D2400C2180020C8545068FFF746FE03E0012340
:107D34002B71FFF72DFE002800F0CE80804B00222F
:107D44005A600E241422002103A807F0D9FA41F640
:107D54001D539C4208BF0024D8F8003004941A78BC
:107D6400023A042A00F2C581DFE812F0A601B2014A
:107D7400D501DD01E4010023D0E7734973480023F2
:107D840002222B718A800122096801F0EBF8D2E704
:107D94006D4C00262E7120686A4DFFF70DFE6C4B6A
:107DA400D4F800E05A8814235343EA18EE54516877
:107DB4002160A188C2F804E011810222A280BAE7FE
:107DC400B5F814A0DFF87CB1B6B1AA7DEB88022A1D
:107DD40006D9142101FB0AB1DA1C088902440A817C
:107DE400142202FB0ABAC3F57F43BAF80A20FD3312
:107DF4001344AAF80A307DE7142303FB0AB3198954
:107E04005C68AB7D04EB8104062B05D8DFE803F046
:107E1400274D35431C5967000F24AA7DEB88022A9D
:107E240006D9142101FB0AB1DA1C088902440A812B
:107E3400142202FB0ABAC3F57F43BAF80A20FD33C1
:107E44001344AAF80A307DE74248434900234360BB
:107E5400AB690360FFF77EFE002800F0298102234E
:107E6400AB75002300930423EA182146374800F039
:107E7400F1FF002830D00E24CFE72B69002B14BF6C
:107E840003230123AB750023009305F10C020423A3
:107E940004F10801EAE70123AB750022EB880092A4
:107EA4009B002A6904F10C01E0E7032A0CBF0523B7
:107EB4000623AB7500230093042305F10802E1189F
:107EC400D4E70623AB75244B1988224B5868FFF777
:107ED40083FD04460028A0D109B0BDE8F08F41F627
:107EE4001D549AE7002E7FF405AF2B79012B37D070
:107EF40005D3022B41F61D5418BF0F2422E7022399
:107F04002B71039604960596EB6803930DF10A0111
:107F140003A8FFF71FFE002800F0CA800498BDF8EC
:107F24000A108388EB8003882B81FFF755FD0446F4
:107F3400002C7FF407AFCFE7C82900209822002047
:107F4400A8290020CC290020842A002060220020B7
:107F5400B02900208C290020902A0020C02900206C
:107F6400DFF8FCA103AA53463146A81DFFF748FEDB
:107F7400044650B9BAF804100498FFF72DFD0446DE
:107F84000A2CD5D141F61D54DCE608223146504670
:107F940007F0B6F9F4E7002E7FF4ACAE6A4B1A7B17
:107FA4005AB11E731A78013A062A00F28380DFE878
:107FB40002F04A5F676A816D78001A78072AF1D85F
:107FC40001A151F822F000BFED7F0200A97F020059
:107FD400A97F02001380020027800200478002006C
:107FE400478002000F8002001A89584901321A8121
:107FF40000225A801A730A78B2FA82F252099A72EB
:108004000A7DB2FA82F25209DA72012207E050497B
:1080140058688A884088033202448A8002221A708F
:10802400C0E74A4C5A884A49142505FB02420868AD
:10803400546850608888108102228A800C6006226D
:10804400EDE70722EBE79A7A32B1404900229A72AF
:10805400CA680AB9097C51B9DA7A62B10022DA72C3
:108064003A4A116A39B992F8242022B101225A807D
:10807400FFF70CFE5BE700221A705A805A6081E712
:10808400FFF7C6FC53E7FFF763FC50E706221A70BC
:108094002E4A5B88142101FB03235868FFF78CFCEC
:1080A40045E707221A7000225A60FFF771FC3EE789
:1080B4000A2447E60F2445E601228DF80C201A898C
:1080C400ADF818209A88ADF81A20DB68059310E003
:1080D40002228DF80C201A89ADF818209A88ADF880
:1080E4001A20DA6805929B7D9A1F534253418DF8FA
:1080F4001C3003A8FFF7EEFB002649461548C8F8D4
:10810400006000F08DFB0121134800F04AFC0028B8
:108114007FF4D6ADE0E603228DF80C20DA88ADF8C2
:1081240018201A89CFE704228DF80C20DB88ADF8DB
:108134001830DEE705238DF80C30DAE7074A1370B0
:10814400002353601EE700BFB0290020CC29002083
:10815400842A002098220020802A0020A8290020B8
:10816400942A00204068FFF7A3BD000008B5012150
:10817400044800F0FCFB18B9BDE80840FFF798BDBF
:1081840008BD00BF802A00202DE9F3419846344BF6
:108194001B7806460D46002B59D0002959D0098872
:1081A4004FF6FF73994256D06B88002B53D06B68FF
:1081B4009B0752D14AB92F890DF102013846FFF7C6
:1081C40099FB30B102B0BDE8F08113885788ADF84F
:1081D400023001A8FFF738FC044658B9BDF8023054
:1081E400204A142101FB032358890338C01B5881FA
:1081F4000820E7E700238375BDF8023083826B68AB
:10820400036180F800800121174800F0BDFBE060A5
:108214002B8823816B88A380B8F1030F04BF042348
:10822400A375E78004BF3368A3610025658101A9B4
:108234000E4800F0BAFA36B17560E36833600C4B4F
:10824400B5721B893381FFF791FF0020BAE7022042
:10825400B8E70520B6E70420B4E70320B2E700BF7F
:10826400A8290020CC290020C4290020982200201D
:10827400B029002008B5084B1A68042A09D01968E7
:10828400064A42F821000121184600F07DFB002037
:1082940008BD0C2008BD00BF8C2A002098290020AE
:1082A4002DE9F04F89B01422002103A807F028F823
:1082B4007A4A137803F0FF01009191463BB103A879
:1082C400FFF708FB0026304609B0BDE8F08F101D0B
:1082D40000F074FB05460028F4D14FF010234FF052
:1082E40080525B6911695269DFF8DCA1581C08BF30
:1082F40002FB01F3CAF810300022A3F54053684989
:10830400CAF80C30504600F077FD06460028DAD152
:108314001C238C226349644800F0E8F93746B046D0
:108324004FF0030B3446CDF804A0019BDA6818EB38
:1083340002000CD058F802205C4B9A4207D14268E4
:108344005B4B9A4200F083805A498A425ED0021FF6
:1083540000F6FC7152F8043F013340F091809142E1
:10836400F8D1554A116829B902210123106091807E
:1083740000930EE014226243504B4FF0020C991804
:1083840003F802C04E4A486054800134A1F808C082
:10839400A4B247F0010708F58058B8F5405FC4D18E
:1083A400BBF1010F88BF3D46EDB2022D02D0062D70
:1083B40002D05DB90B2686E7012389F8003003A8B3
:1083C4000023C9F80430FFF785FA7CE702A8FFF719
:1083D4003BFBC8B10123013D03700A2D09D8DFE836
:1083E40005F006080608070807080F110F00002308
:1083F400037102A92C4800F0D8F9FFF7B7FE62E731
:108404000323F5E70223F3E708265CE7009BDFF884
:10841400A8A073B1294B1422624399184FF0020E9D
:1084240003F802E00134DAF800204A60A1F808E019
:10843400A4B200222349CAF80000FFF727FBBAF8C8
:108444000420022A14BF082204221743A3E71B496D
:108454004FF0140E0EFB04FE01EB0E024FF0000C65
:1084640001F80EC050600EF110020EF1080E0A441D
:108474007144FFF70BFB47F002070134A4B28AE70B
:108484000E491422624301EB020E0BF1FF33CEF8C6
:10849400040003201FFA83FB8854EEE7A829002078
:1084A400B8F80200F429002098220020DEC0ADDED6
:1084B400FE011EF1FF011EF1842A0020CC290020B8
:1084C400B0290020882A00206022002073B50D46C0
:1084D4000446C8B1C1B10DF10601FFF73BFBA8B1D9
:1084E4000B4BBDF806006668142202FB0030012124
:1084F4000C3000F049FA63682E600C336B60012382
:10850400A372002002B070BD0520FBE70A20F9E742
:10851400CC29002013B50446A8B10DF10601FFF7DC
:1085240019FB90B10B4ABDF80630142101FB03235B
:10853400DA6862B1A27A52B1DA680020013ADA60EC
:10854400A07202B010BD0520FBE70A20F9E706205F
:10855400F7E700BFCC2900200B4B1B7837B5044646
:108564000D4663B168B10DF106012846FFF7C2F963
:1085740018B9BDF806302380658003B030BD0220F1
:10858400FBE70520F9E700BFA8290020104B1B7862
:1085940010B5B3B1B8B10288022A16D80D49438880
:1085A400142404FB02129C1C51898C420DDAC3F57D
:1085B4007F43FD330B4453810023038043801846DB
:1085C40010BD022010BD052010BD042010BD00BF49
:1085D400A8290020CC29002002230022FFF7D4BDC3
:1085E40012B10223FFF7D0BD0520704718B1032351
:1085F4000022FFF7C9BD052070470000104B1B780F
:1086040013B50446ABB14FF6FF73984213D001A8DB
:10861400FFF71AFA88B10523037001230371C4809C
:1086240001A9084800F0C1F8FFF7A0FD002002B03E
:1086340010BD0220FBE70420F9E70820F7E700BF9C
:10864400A8290020982200200E4B1B7807B5A3B15F
:1086540001A8FFF7F9F990B10623037001A90A48AC
:1086640000F0A3F8094B1A780AB101221A73FFF734
:108674007DFD002003B05DF804FB0220FAE708202A
:10868400F8E700BFA829002098220020B029002084
:1086940007B5ADF8060002A820F8041D01460DF147
:1086A4000600FFF7ADFA03B05DF804FB13B502ACA6
:1086B400134624F8020D0A4600202146FFF7A0FACB
:1086C40002B010BD13B502AC134624F8020D0A46DD
:1086D40020460021FFF794FA02B010BD20B119B171
:1086E40003680B60002070470520704710B561B126
:1086F400B2FBF3F403FB1424A4B244B980E81200DF
:1087040084608281C381204610BD0E2010BD0920E3
:1087140010BD82B050E8022FC188B2EB324F4FF047
:10872400000317BF92B241EA014142EA014104E069
:108734004268B2EB324F08BF012340E80212002A1C
:10874400E8D18DF807309DF80730002B0CBF1120BD
:10875400002002B0704737B550E8013F9DB2C4898C
:1087640025448489A54228BF2D1B0489A54202BF44
:10877400BFF32F8F002207E0C5EA030540E8015448
:10878400002CE9D14FF001028DF803200193019BE5
:108794009DF803200B6002F0FF0322B10B880068F0
:1087A400184403B030BD1846FBE70A884B889A4248
:1087B40009D150E8012FC2EA024240E80123002B0C
:1087C400F7D1012070470020704737B550E8023FC9
:1087D4001FFAA3F5C488A54202BFBFF32F8F00225E
:1087E4000DE0C48925448489A54228BF2D1BC3EA12
:1087F400054540E80254002CE8D14FF001028DF801
:1088040003200193019B9DF803200B6002F0FF03FA
:1088140022B14B880068184403B030BD1846FBE70A
:108824000A884B889A4209D150E8022FC2EA2242B0
:1088340040E80223002BF7D1012070470020704745
:1088440001F01F024B090121914000EB830000F06D
:1088540067B84B0910B501F01F040121A14000EBDA
:10886400830000F050F8E04000F0010010BD01F07A
:108874001F0301229A404B0900EB8300D14300F00F
:1088840069B84B0901F01F0150F82300C84000F0FB
:10889400010070472DE9F0474E1E760980460F46C9
:1088A4000136002558F8254008EB850AE44394FA7C
:1088B400A4F4B4FA84F44FEA4519202C06D1013506
:1088C400AE42EFD83C462046BDE8F0874C44A74270
:1088D400F5D921464046FFF7BCFF0028F3D0DAF86B
:1088E4000040E44394FAA4F4B4FA84F4E5E700B550
:1088F40050E8002F0B4640E8003E9EF0000FF7D1F1
:1089040010465DF804FB00B550E8002F42EA01036D
:1089140040E8003E9EF0000FF6D110465DF804FBDF
:1089240000B550E8003F43EA010240E8002E9EF003
:10893400000FF6D110465DF804FB00B550E8002F97
:1089440002EA010340E8003E9EF0000FF6D1104613
:108954005DF804FB00B550E8003F03EA010240E87B
:10896400002E9EF0000FF6D110465DF804FB00B512
:1089740050E8002F02EB010340E8003E9EF0000F98
:10898400F6D110465DF804FB00B550E8003F03EB58
:10899400010240E8002E9EF0000FF6D110465DF86B
:1089A40004FB00B550E8003FA3EB010240E8002EB1
:1089B4009EF0000FF6D110465DF804FB0121FFF78D
:1089C400A2BF0121FFF7ACBF0021FFF7B6BF10B56E
:1089D40090B14268836801689B1ADBB20A60013B6C
:1089E400DBB2FF2B026802D10020107110BD1168A8
:1089F4004C1C14600B70F2E70E2010BD37B5054611
:108A040002A8002400F8014DFEF72AFF2A686B68CB
:108A1400116899420ED9481E106011F8014CEB6898
:108A2400A98A01FB0434AB6811791B1ADBB29942A1
:108A340038BF13719DF80700FEF736FF204603B0D8
:108A440030BD37B5054602A8002300F8013D0C46A9
:108A5400FEF706FF2A681368591C1160E968641A56
:108A6400A98AB4FBF1F41C709DF80700FEF71CFF03
:108A740003B030BD826810B504462AB14369016869
:108A8400006998470023A36010BD0EB403B5039991
:108A940029B102AA04AB42F8043D00F06DF802B01B
:108AA4005DF804EB03B07047826830B40468551C69
:108AB4008560A154826843689A4202D330BCFFF7B0
:108AC400D9BF30BC704700002DE9F84F0A9C994685
:108AD4000B9B1746824688460A460126BA420FD2A5
:108AE4004E4538BF4E4613F0010B01D164B9002442
:108AF4000125B9F1010F1AD909F1FF397D43F8E7CE
:108B0400B2FBF7F20136E9E79B070ED5B9F1000F86
:108B14000CBF30252025A642EAD2013C2946504606
:108B2400FFF7C2FF002CF6D1E1E72025F3E7B8FBFD
:108B3400F5F39F42E2D9DFF83C90B8FBF5F35046D9
:108B440019F8031005FB1388FFF7AEFFB5FBF7F523
:108B5400002DF2D1BBF1000F0AD03CB9BDE8F88F6B
:108B6400013C20215046FFF79FFF0CB1A642F7D3EA
:108B7400BDE8F88FCBF602002DE9F74F05461746FE
:108B84000C46002900F0358114F8011B49B92B7BF0
:108B9400002B00F02E81284603B0BDE8F04FFFF70C
:108BA40069BF252940F0218123460026194611F882
:108BB400012B2D2A24D0302A26D02B2A27D000247A
:108BC4002A2A994603F1010124D13B681A1D1B6826
:108BD4003A601C44894699F800302E2B25D109F1BE
:108BE40001014FF00008894611F8012BA2F1300071
:108BF40009281CD80A2303FB0823A3F13008F2E751
:108C040046F001060B46D1E746F00206FAE746F0C5
:108C14000406F7E71A780B46A2F130010929DAD8DD
:108C24000A2101FB0424303CCAE74FF0000899F8FC
:108C3400001001F0FB02682A02D119F8011FF8E7BD
:108C440069290FD04BD8582965D007D825296ED06B
:108C540009F101042378002B96D198E7632962D0A7
:108C64006429F5D13A68D2F800A0111D8AEAEA72A3
:108C74003960A2EBEA724FF0010B092A5BDCC345B1
:108C840038BFC3462CB1BAF1000F01DB710700D520
:108C9400013CB20702D5B8F1000F04D0F30702D4A7
:108CA400002C4ED10024BAF1000F52DACAF1000AA6
:108CB4002D212846FFF7F8FE06F00302022A05D10B
:108CC400B8F1000F02D1002C47D100248DE85000E8
:108CD40043460A2251462846FFF7F6FEB8E77329B1
:108CE4004CD014D87029B3D13B681A1D3A60302196
:108CF40028461C68FFF7D8FE78212846FFF7D4FEE3
:108D0400002301930823009310222146E3E77529E9
:108D14002BD078299CD139680A1D3A6043468DE8E6
:108D24005000102228E03B681A1D19783A60284642
:108D3400FFF7BAFE8CE70A230BF1010B92FBF3F267
:108D44009BE7A345AFD220212846013CFFF7ACFEA8
:108D5400A6E77007B0D52B21ABE7A345B6D23021E7
:108D64002846013CFFF7A0FEADE739680A1D3A60CA
:108D74008DE8500043460A220968ACE73B681A1D97
:108D84003A60F107D3F800A012D55646A6EB0A0BB9
:108D940016F8011B41B95C457FF65AAF20212846DD
:108DA400013CFFF781FEF6E72846FFF77DFEEDE77D
:108DB400BAF1000F11D0504606F0D6FA0646B44276
:108DC40000D964B90AF1FF3A1AF8011F00293FF4E7
:108DD4003FAF2846FFF768FEF6E75646EFE7202147
:108DE4002846013CFFF760FEE9E72846FFF75CFEF2
:108DF40030E703B0BDE8F08F07B50B4678B9104BE8
:108E0400104A18880E2300930F4B00040F4940F0BA
:108E14000100FDF71DFE0E2003B05DF804FB3BB915
:108E2400074B0B4A18880E2300930004064BEDE70A
:108E340003601B68114603B05DF804EB184700BFDC
:108E44004C22002088F70200DBF602008DF70200B6
:108E540004F802002DE9F743DDF828C078B9364B51
:108E6400364A1888364B0E2400040094354940F0E5
:108E74000100FDF7EDFD204603B0BDE8F0833AB9EB
:108E84002D4B314A18882E4B0E2400040094EDE734
:108E9400D0F800E0BEF1000F07D1274B2B4A188809
:108EA400274B082400040094E0E73BB9224B284AEE
:108EB4001888234B092400040094D7E74768D7F89F
:108EC4000490B3FBF9F709FB17373FB11A4B214A5A
:108ED40018881B4B092400040094C7E78F0707D0A8
:108EE400154B1D4A1888164B102400040094BDE746
:108EF40012F0030F07D0104B184A1888104B102497
:108F040000040094B2E7C768B9420DD34C1E05694A
:108F14001C44AC4208D8CDF828C0DEF80C40A44666
:108F240003B0BDE8F0436047034B0D4A1888044B77
:108F340010240004009499E74C22002088F70200D2
:108F4400EDF602008DF702000AF80200FEF70200B7
:108F5400BDF7020010F802003AF8020052F80200CD
:108F640075F80200F7B570B9254B264A1888264BC8
:108F74000E2400040094254940F00100FDF768FD2B
:108F8400204603B0F0BDD0F800E0BEF1000F07D1D9
:108F94001B4B1F4A18881C4B082400040094EAE762
:108FA4003AB9174B1B4A1888174B0924000400943C
:108FB400E1E74768D7F800C00CF1FF370F4207D04C
:108FC4000F4B154A1888104B102400040094D2E764
:108FD400C768B94205D34C1E05690CFB0244AC4278
:108FE40007D9074B0D4A1888074B10240004009436
:108FF400C1E7DEF81040A44603B0BDE8F040604786
:109004004C22002088F7020000F702008DF70200CE
:10901400FEF70200BDF7020013F7020039F7020061
:1090240070B508B10368B3B90D4D0E4B14225B1B28
:109034000024B3FBF2F302FB03F6A64201D10020A5
:1090440070BD2B5928190BB91434F6E7DB6998471E
:109054000028F9D070BDDB69BDE87040184700BF37
:10906400602200207422002029DF704728DF704727
:1090740070B503689D6886B004460E466DB118222B
:109084000021684606F03CF9A3680593237901960C
:109094002BB1012B0DD06846A84706B070BD012343
:1090A4008DF8003023690293E368039363690493A2
:1090B400F1E702238DF80030E3681B030293F5E720
:1090C4000846704700207047024B187A003018BFDA
:1090D40001207047282B0020034B187A0122B0FA94
:1090E40080F05A7440097047282B002008B51046B8
:1090F4001A4606F0DBF8002008BD000008B514226B
:109104000021044806F0FCF80348FFF702FB0020A6
:1091140008BD00BF282B0020AC22002010B5094C4C
:10912400094B43602046FFF749FC40B905F064FE53
:109134001C2320748C2205490548FFF7D7FA002028
:1091440010BD00BF282B0020ACF802009C2A002090
:10915400AC22002070B5244D244E2B7A2C463BB90A
:1091640023492448FFF731FB306008B9686070BDBB
:109174000223237233681A7972B1012A24D0184663
:109184000321FFF775FF0023237263601849194810
:10919400BDE87040FFF744BB98695A69D9681D69F6
:1091A400121AB2F5805F28BF4FF480529208012A48
:1091B400014438BF01222844FFF756FF50B111285B
:1091C400DDD10123237270BDD8681A691044FFF7FA
:1091D4004DFFF3E7237C2BB90146BDE87040022024
:1091E40000F00AB870BD00BF282B0020402B0020DF
:1091F4003C2B0020AC22002038B5831E012B45D81F
:10920400234C237A002B41D0022B09D1032830D0E0
:10921400204B1B680022E2601A793AB1012A22D05D
:10922400637C7BBBBDE83840FFF794BF9A695969FA
:109234008D1AB5F5805F94BF521902F580529A6178
:109244009142EDD102284FF0000308BF1946237262
:10925400104B18BF0D211868FFF70AFF0E490F487D
:10926400FFF7DEFADCE71A6901321A615B699A4298
:10927400E7E7E3680133082B01D8E360D0E7002374
:10928400E360DFE7BDE8384005F0A6BD38BD00BFA8
:10929400282B0020402B00203C2B0020AC22002057
:1092A40000F0FD03012B08D1044B00225A74421E26
:1092B400504250411874FFF74DBF7047282B0020CF
:1092C40010B5064C201DFFF779FB28B9637C1BB948
:1092D400BDE81040FFF73EBF10BD00BF282B0020A3
:1092E4002DE9F34180460D460F4801A916461F4655
:1092F400FFF731FA0446A8B11C22002106F000F859
:109304002D0B0123237101A9C4F80080A760E56037
:1093140066610548FFF749FAFFF7D2FF002002B063
:10932400BDE8F0810420FAE7AC2200202DE9F743E0
:1093340081468846104801A917461E46FFF70BFAD6
:109344000446B8B11C22002105F0DAFF00250A9B6F
:10935400A36001A92571C4F80090C4F81080E760E7
:1093640066610548FFF721FAFFF7AAFF284603B014
:10937400BDE8F0830420FAE7AC220020FFF727BB06
:10938400F8B546790446721E00239342246804D338
:1093940001460025B54202D3F8BD0133F5E70F6855
:1093A4002046FFF74EFB01353946F3E72DE9F84334
:1093B400878ACD1C8046FFF721FB043F3D440446C9
:1093C400B5FBF7F5002650B10123EDB206714371E8
:1093D400C780013DC0F800808146AE4202D32046DA
:1093E400BDE8F8834046FFF709FB074648B16379B7
:1093F400013363710136C9F80000C0F8008081466A
:10940400EBE72046FFF7BCFF3846BDE8F8830121AF
:109414000430FFF7B9BA10B5012104460430FFF750
:10942400C0FA10F0FF0F04D12046BDE81040FFF74A
:10943400A7BF10BD2DE9F843C68804330F46B3FB1C
:10944400F6F4154606FB143380463CB9A6EB030933
:10945400A94528BFA9462DB9BDE8F883D8F80080EE
:10946400013CF2E7043308EB0300A5EB09054A4687
:10947400391905F01BFFAE424C44D8F80080B146C0
:109484004FF0000328BFA946E5E72DE9F843C68855
:109494000F46191D1546B1FBF6F4804606FB141160
:1094A4003CB9A6EB0109A94528BFA9462DB9BDE8D9
:1094B400F883D8F80080013CF2E704314144A5EB7D
:1094C40009054A46381905F0F1FEAE424C44D8F875
:1094D4000080B1464FF0000128BFA946E6E733DF1C
:1094E400704741DF704700000D4A08B50023137030
:1094F4000C4A1360BFF35F8F0B490C4800F0AAF8C5
:109504000B4A0C480121FEF743F9024630B94FF4E7
:1095140000410948BDE80840FEF74CB908BD00BF4A
:10952400702B0020742B0020ECF80200442B002048
:1095340045960200E8F80200502B002007B502A867
:10954400002300F8013DFEF78BF9F1EE103A23F009
:109554009F03E1EE103ABFF35F8F0A4B4022C3F83A
:1095640084219DF80700FEF79FF905F045FC20B122
:10957400FFF7B7FF03B05DF804FB20BF40BF20BF77
:10958400F8E700BF00E100E070B5274C0546012173
:109594002046FFF7ACF9BFF35F8F2646002841D180
:1095A400042D0AD0214B1A781AB1BFF35F8F2060C3
:1095B40070BD1F4A157001221A701E4C1C4D636841
:1095C400BBB9FDF773FAFDF7C9F80028FBD1184BB6
:1095D4001B78023B012B14D8BFF34F8F1649174B4E
:1095E400CA6802F4E0621343CB60BFF34F8F00BF3D
:1095F400FDE71B682878984788B1204600F034F8C6
:10960400DDE705F0F9FB08B1FFF769FF4FF0804390
:109614000122C3F80025BFF34F8F20BFFDE7BFF33E
:109624005F8F306070BD00BF742B0020702B002052
:109634004C2B0020442B002000ED00E00400FA0530
:10964400034B1B7813B10420FFF79EBF704700BF84
:10965400702B00200B684A684360934208BF0023C4
:10966400016008BF43607047436843B10268916872
:1096740052680B449342436004BF00234360704725
:109684000D4930B5A1F594720225914201D800200C
:1096940030BD8B1ADB1093FBF5F302EBC30452F8D5
:1096A4003330834205D802D204F10802EDE7606842
:1096B40030BD2146E9E700BF3CFA020008B5FFF7D8
:1096C400DFFF024B002808BF184608BD01F902005D
:1096D40038B5084C04F108030546002818BF1C4699
:1096E40023682BB11A6822605B6828469847F7E71D
:1096F40038BD00BF802B002020B9054B01225A70D1
:10970400FFF7E6BF012802D1014A9070F8E77047DD
:10971400782B002020B9034B01225A70FFF7D8BFE1
:10972400704700BF782B002038B50B4C237883B9E1
:109734000A486360A3602361E36000F0D1F8054642
:1097440005F05AFB08B900F0D9F801232370284624
:1097540038BD8525FBE700BF782B0020FD9602006D
:1097640037B502A80023094C00F8013DFEF778F84C
:10977400E368013BE360E56815B900F0D3F8A57030
:109784009DF80700FEF790F803B030BD782B002059
:10979400012813B509D003D303281BD002B010BD90
:1097A4000F4B0122C3F88020F8E702A800230D4CD8
:1097B40000F8013DFEF754F823780BB9FFF7B4FF26
:1097C400E3689DF807000133E3600123A370FEF70B
:1097D4006BF8E3E700F092F8FFF7C2FFDEE700BFA3
:1097E40000E100E0782B00201FB503788DF80030ED
:1097F40043680193037A8DF80830C3680393054ADC
:10980400054B684653F8213052F82110984705B0AB
:109814005DF804FB8C2B0020942B00201FB50378EB
:109824008DF800304368019383688DF80830C3686D
:109834000393054A054B684653F8213052F821102A
:10984400984705B05DF804FB8C2B0020942B002076
:10985400F0B5194B0678DFF870C043F82620174B93
:1098640096460A6943F826204B7F0CF806300C46CE
:1098740007460FCC89B06D460FC594E80F0085E804
:109884000F001CF80630049653B1BEF1000F0C4AC9
:10989400694608BF0022381D00F0E8FD09B0F0BD9C
:1098A400BEF1000F074A694608BF002207F10C0009
:1098B40000F0BEFBF2E700BF942B00208C2B0020AD
:1098C400ED970200219802009C2B002000F18040BB
:1098D4000023036082B003680193019B02B07047C8
:1098E400054A13792BB9012110601171537118467F
:1098F40070478520704700BFA02B0020084B1A68D2
:10990400D20706D4E02283F800230122C3F8802181
:109914001A604FF080430122C3F81825704700BF36
:1099240000E100E0044B01221A604FF08042D2F8BB
:109934001834DB03FBD470470C000040124B1B6847
:1099440010B573B14FF48070FFF7C0FF4FF0804340
:109954000122C3F808230D4B587910B95A711B68BA
:1099640098470B4B1B6873B14FF48270FFF7AEFF3F
:109974004FF080430222C3F80823044B01201B68E4
:10998400BDE81040184710BD00010040A02B002086
:109994000401004000F1804000F5C040002382B083
:1099A400036003680193019B02B0704703681F2B97
:1099B40083BF03F01F03036001484FF0A0407047CA
:1099C4000003005007B502AB43F8040D1846FFF737
:1099D400EDFF019B00EB8300D0F8003723F4403304
:1099E400C0F80037D0F8003743EA0141C0F8001747
:1099F40003B05DF804FB0000054B4FF0FF3207286D
:109A040043F8202084BF1B1883F85820704700BFF8
:109A1400A82B002010B5174C94F86A3043BBFF21E3
:109A2400E2180133302B82F83010F9D10021C8B28A
:109A3400FFF7E2FF01310C29F9D1002106220E487B
:109A440005F05EFC0D4BE02283F806234022C3F8A8
:109A540080214FF4BE701A60FFF79CFF084B4FF053
:109A64000042C3F80423012384F86A30002010BDA7
:109A7400082010BDA82B00200C2C002000E100E0E1
:109A840000600040034B93F86A00003018BF0120C7
:109A9400704700BFA82B0020F7B53C4C231806469E
:109AA40093F93030002B6FDA8878C0F34000002837
:109AB4000BBF082300230C250825AB4202D1042048
:109AC40003B0F0BD54F82370013745D1A7195DB236
:109AD40087F8305044F8232010B9234483F85860A1
:109AE4008B785A0718D4D80738D502A840F8086DDF
:109AF400FFF75CFF009B00EB8300D0F8003723F0F6
:109B04000203C0F800372248F20806F007070123D1
:109B1400BB40875C3B43835488780A7810F002008A
:109B240029D0AB0003F1804303F5C0433602D3F8D8
:109B3400101521F44F3121F44071C3F810151204AB
:109B4400D3F8101506F47C5602F4403216430E4343
:109B5400C3F810650020B3E70133AEE702A84A78E2
:109B640040F8046DFFF722FF019B03F5E0739200B8
:109B740040F82320C7E7083D2C4494F8606046EA87
:109B8400821284F860209BE7082099E7A82B002024
:109B94000C2C002073B5224C2518064695F930206C
:109BA400072A1ADD224492F858309B09032B10D15E
:109BB40002A840F8046DFFF7F9FE019AD0F81035B9
:109BC400D340DB0707D402213046FFF7FBFE02B087
:109BD40070BD012BF7D00321F6E7D3B2072BF6D8DB
:109BE400930003F1804303F5C043D3F8100540F01C
:109BF4000100C3F8100502F14000800080B2FFF7B5
:109C0400C9FE0029E3D095F9303054F82330002BF5
:109C1400DDD0012303FA02F2024BC3F80423D6E792
:109C2400A82B00200060004007B502AB43F8040DE8
:109C34001846FFF7BBFE019BD0F81005D84000F092
:109C4400010003B05DF804FB2DE9F04F89B0002456
:109C5400614A624E624D029403940121A2F5C04010
:109C640052F8043B012B80B206D1D6F804330B42E0
:109C740002D0FFF78FFE0C43AA424FEA4101EDD117
:109C8400584B1B68012B0ED14FF4BE70FFF782FEB8
:109C94004FF0A04344F00044D3F810350293524BE4
:109CA400D3F81035039314F0FF0F34D1002C80F255
:109CB4008F8004AE0023049373604C4F4FF0FF3346
:109CC400069307934FF00108002425467B1993F966
:109CD4006020531C63D0D2B222F0C00908AB4FEA13
:109CE400D90003EB000B02F007011BF8083C08FA4B
:109CF40001F10B4253D007EB0903920993F9303079
:109D040057F823A0BAF1000F21D1032A47D1335CBD
:109D14000B4333541DE0354F01260025344210D047
:109D2400AB0003F1804303F5C043D3F81005D3F827
:109D3400101557F8253023B1C1F30141C0F30520B4
:109D440098470135082D4FEA4606E7D1AEE7032AC6
:109D5400DDD001A8CDF80490FFF728FE019B03F5A0
:109D6400E07350F823301BF8180C0842C3F3014386
:109D740005D0022B13D1032A0BD1114604E0032B87
:109D84000DD1032A05D102214846FFF71BFE0134F9
:109D9400E4B2BAF1000F02D011464846D04701356B
:109DA400042D93D1A4B14FF0A0430299D3F8102508
:109DB40003F540739142D3F8103502D103999942C7
:109DC40006D002920393049A059B069207937BE7BD
:109DD40009B0BDE8F08F00BF0061004000600040A2
:109DE400206100407C61004000030050A82B00204B
:109DF400014B1B68184700BF142C00200D4B9842E0
:109E040037B50D4610D102A8002300F8013DFDF737
:109E140027FD094B1C7914B901221D601A719DF8A4
:109E24000700FDF741FD14B9002003B030BD112037
:109E3400FBE700BF00200040142C0020034B984295
:109E440001BF034B00221A601A71704700200040C2
:109E5400142C00200023435082B043580193019BEB
:109E640002B070470A4610B54FF48E71FFF7F2FF47
:109E7400136A9168C95C136A01331362C0F81C1534
:109E840010BD8B690A4610B54FF4847123B9FFF7EE
:109E9400E1FFD0F8183510BDFFF7DCFF536AD16835
:109EA400D0F81805C854536A0133536210BD00003A
:109EB4001FB501238DF80030044B029001916846D0
:109EC40093E80600904705B05DF804FB1C2C0020C5
:109ED40030B54D4AD2F8043313F4007F85B01546EB
:109EE4004FD0D2F82431002B4BD04FF4927110464E
:109EF400FFF7B0FF4FF40173C2F80833434B93F8F4
:109F0400291009B9012151603F4902228DF800202E
:109F1400D1F88024C1F8802403929A690292DA6805
:109F2400019200229A61DA61684693E8060090473C
:109F34003548D0F81C315BB134490A6A4B699A42FE
:109F44000A464CD291F82830002B48D1FFF78AFFFB
:109F54002D4AD2F8443193B14FF4A2711046FFF761
:109F640079FF2A4B93F8291009B1012111609A69EC
:109F74002AB100229A61586AD968FFF799FF05B09F
:109F840030BDD5F804335B07D2D5D5F80831002BA2
:109F9400CED01E4C1C482146FFF773FF636AA269AA
:109FA4009A422346C4D1E26952B12369E168E3606D
:109FB4000023606AA261E3616362FFF779FFB7E798
:109FC40094F829200AB901226A600F4A4FF40171FA
:109FD400C2F8081300229A61586AD968EDE74FF471
:109FE4008E710948FFF736FF51690029B0D000236C
:109FF400029191688DF8003001915361684692E8AE
:10A004000A009847A4E700BF002000401C2C002051
:10A014001F2886BF00F01F00044B4FF0A04300F53B
:10A02400E070022243F82020704700BF0003005074
:10A034002DE9F843674B047991462C2202FB043244
:10A04400064692F82A200D469846002A40F0BE8023
:10A0540061490068FFF7D2FE0746002840F0B88047
:10A0640029684A1C10D01F2987BF01F01F035B4ACF
:10A074000B464FF0A0420120984003F5E073C2F86C
:10A084000805032042F823006868431C0DD01F28EC
:10A094008BBF00F01F030346504A4FF0A04203F564
:10A0A400E0734FF0000E42F823E03368AA6995F894
:10A0B40014E0C3F824256A7DBEF1010F4EEA0202C2
:10A0C400C3F86C25C3F81405C3F80C152BD1A96883
:10A0D400481C0DD01F298BBF01F01F020A463F48C0
:10A0E4004FF0A04002F5E0724FF0000E40F822E07D
:10A0F400E868421C13D01F2887BF00F01F0E374AA0
:10A1040086464FF0A0424FF0010C0CFA0EFC0EF5FF
:10A11400E07EC2F808C54FF0030C42F82EC0C3F825
:10A124000805C3F810152C23634308EB0302C2F897
:10A1340004902A6948F80320B9F1000F33D04FF492
:10A144008E7130682D7FFFF785FE30684FF4A27161
:10A15400FFF780FE3268224BC2F80433120B53B26D
:10A16400002BA8BF03F160404FEA53134FEA451197
:10A17400BABF1C4802F00F0500F561404FEA8303A3
:10A18400B4BFC9B2C9B203F16043B4BF415580F84A
:10A19400001303F5614302F01F02012101FA02F2E8
:10A1A400C3F880211A6033680422C3F800252C23E5
:10A1B40003FB048300229A61DA6183F829205A613F
:10A1C400012283F82A203846BDE8F8830827FAE7F5
:10A1D4001127F8E71C2C0020D59E02000003005034
:10A1E4008000020014ED00E02DE9F04103680479D9
:10A1F400254D0022C3F800252C2202FB04520646FA
:10A20400526872B1214AC3F80823190B4AB20120DB
:10A21400520901F01F0100FA01F120321C4840F8F4
:10A224002210D3F80C05D3F81485D3F80815D3F805
:10A2340010754FF0FF329042C3F81425C3F80C2573
:10A24400C3F80825C3F8102501D0FFF7E1FEB8F1E3
:10A25400FF3F02D04046FFF7DBFE7A1C02D03846AF
:10A26400FFF7D6FE4B1C02D00846FFF7D1FE30683C
:10A27400FFF7E4FD2C2303FB0454002384F82A3065
:10A284006360BDE8F08100BF1C2C00208402020042
:10A2940000E100E02DE9F843234F06794FF02C0943
:10A2A40009FB067480466569002D37D16261A1609F
:10A2B40025624FF48E71006884F82850FFF7CAFDB8
:10A2C400D8F80000012383602146FFF7CBFD6368C3
:10A2D400A14633BBD8F80050226A63699A4212D36C
:10A2E400D8F80030D3F81C21002AFBD00122DA6010
:10A2F40000202C2303FB067600237361BDE8F8835A
:10A3040094F8283043B9D5F81C31002BF8D04946CD
:10A314002846FFF7A7FDDFE70F20EAE71120BDE895
:10A32400F8832846BDE8F8831C2C00200023435002
:10A3340082B043580193019B02B070471FB50123BB
:10A344008DF80030054B8DF808000191684693E8BC
:10A354000600904705B05DF804FB00BF482C0020C0
:10A364007FB5384AD2F82461002E49D010464FF404
:10A374009271FFF7DBFF02238DF80030D2F88034AE
:10A38400C2F880340393D2F83C358DF808302E4B54
:10A39400DA68019200229A61DA61684693E806005D
:10A3A4009047284AD2F8443173B14FF4A271104651
:10A3B400FFF7BCFF244B996931B100219961D2F8B0
:10A3C4003C05D968FFF7BAFF1E4AD2F82031ABB179
:10A3D4004FF490711046FFF7A9FF1B4B596969B1FF
:10A3E400D2F84C158DF80810002299688DF80020D9
:10A3F40001915A61684693E80600904704B070BD25
:10A40400D2F81031002BCCD04FF488711046FFF7EE
:10A414008DFF0D4BD2F83C0599698842C1D1DC69A6
:10A424006CB1D2F80052D96825F02005C2F8005268
:10A434001A699C61DA60DE61FFF780FFB1E79C6115
:10A44400D968F9E700200040482C00201F2886BF67
:10A4540000F01F00044B4FF0A04300F5E07002220F
:10A4640043F82020704700BF000300502DE9F84353
:10A474006B4B06799146242202FB0632044692F87D
:10A4840020200D469846002A40F0C68065490068A1
:10A49400FFF7B4FC0746002840F0C0802868421C3F
:10A4A40010D01F2887BF00F01F035F4A03464FF0F8
:10A4B400A0420121994003F5E073C2F80815032175
:10A4C40042F8231069684B1C0DD01F298BBF01F083
:10A4D4001F030B46544A4FF0A04203F5E0734FF0BC
:10A4E400000E42F823E02368AA6995F814E0C3F843
:10A4F40024256A7DBEF1010F4EEA0202C3F86C25E1
:10A50400C3F80C05C3F814152BD1A968481C0DD049
:10A514001F298BBF01F01F020A4643484FF0A04099
:10A5240002F5E0724FF0000E40F822E0E868421CA9
:10A5340013D01F2887BF00F01F0E3B4A86464FF0FA
:10A54400A0424FF0010C0CFA0EFC0EF5E07EC2F8AE
:10A5540008C54FF0030C42F82EC0C3F80805C3F831
:10A5640010152423734308EB0302C2F804902A69EC
:10A5740048F80320B9F1000F3DD04FF488712068EA
:10A584002D7FFFF7D3FE4FF490712068FFF7CEFEC6
:10A594004FF492712068FFF7C9FE20684FF4A2714E
:10A5A400FFF7C4FE2268214BC2F80433120B53B2E6
:10A5B400002BA8BF03F160404FEA53134FEA451143
:10A5C400BABF1B4802F00F0500F561404FEA830350
:10A5D400B4BFC9B2C9B203F16043B4BF415580F8F6
:10A5E400001303F5614302F01F02012101FA02F294
:10A5F400C3F880211A6023680822C3F800252423A5
:10A6040003FB068300229A61DA615A61012283F80E
:10A6140020203846BDE8F8830827FAE71127F8E731
:10A62400482C002065A30200000300501003020020
:10A6340014ED00E02DE9F04103680479254D002272
:10A64400C3F80025242202FB04520646526872B164
:10A65400214AC3F80823190B4AB20120520901F018
:10A664001F0100FA01F120321C4840F82210D3F8EF
:10A674000C05D3F81485D3F80815D3F810754FF0EA
:10A68400FF329042C3F80C25C3F81425C3F80825FB
:10A69400C3F8102501D0FFF7D9FEB8F1FF3F02D06F
:10A6A4004046FFF7D3FE7A1C02D03846FFF7CEFEB1
:10A6B4004B1C02D00846FFF7C9FE3068FFF7BEFB0B
:10A6C400242303FB0454002384F820306360BDE892
:10A6D400F08100BF482C00201003020000E100E0DC
:10A6E40001F06043B3F1005F2DE9F041074632D138
:10A6F4001D4B0679242505FB063598466C696CBB11
:10A704006A61A96000684FF49071FFF70FFE4FF47F
:10A71400AC713868FFF70AFE3B686A69A968C3F838
:10A724004415C3F8482501229A606A68CAB9D3F867
:10A734002011D3F8582149B9002AF8D00F20242336
:10A7440003FB068600237361BDE8F081002A14BF71
:10A754000F200020F3E71020BDE8F0811120BDE8B0
:10A76400F0812046BDE8F081482C00200220FCF74F
:10A774001FBB000008B5094B1B7853B10020FCF740
:10A78400E5FA0120FCF7E2FA0320BDE80840FCF7F3
:10A79400DDBABDE80840FCF7EDBA00BF6D2C00201F
:10A7A400F8B5764C237805461BB100232370FFF7D8
:10A7B400E1FF172D00F28380DFE805F00C13133F4F
:10A7C4005060717B83888388909494949494BEC2DF
:10A7D400C9D0DADAFFF7CEFF694B00241C7020469B
:10A7E400F8BD0020FCF78AFAF8B10020FCF7AEFAB5
:10A7F400022D0CBF4FF4E1614FF47A61604B1D7080
:10A804004FF400404FF4FA740025E0FB01454FF487
:10A814007A7200232046294604F062FC0022014695
:10A824005848BDE8F840FCF7C5BFFCF77BFA022D99
:10A834000CBFC8214FF4C871E0E70020FCF75EFAB2
:10A8440040B10020FCF782FA4FF4487103224C4BCC
:10A854001A70D5E7FCF766FAC821F7E70020FCF781
:10A864004DFA30B10020FCF771FA4FF47A610422FA
:10A87400EDE7FCF757FA4FF4C871F8E70020FCF74E
:10A884003DFA48B10020FCF761FA3D4B05221A70ED
:10A8940041F69A110022C3E7FCF744FAF5E70020D9
:10A8A400FCF786FA364B06221A70002240F6CD4198
:10A8B400B6E70020FCF736FA0722314B1A70002461
:10A8C4008DE701202070FCF773FAEEE70120207079
:10A8D400FCF76EFA00224FF48041A1E7FCF759FA25
:10A8E4000C22EAE72848294EFCF7AAFFD5F1110506
:10A8F40004461CD0D8B9012D13D0C8235D434FF4AE
:10A90400FA7000214FF400474FF47A720023C7FB1A
:10A91400050104F0E5FB224601461B48FCF74AFF0B
:10A9240004460220FCF7FEF90123337057E70220A6
:10A93400FCF70CFA0023F8E7FFF71CFF1222BCE730
:10A94400FFF718FF0020FCF7EDF91322B5E7FFF736
:10A9540011FF0120FCF7E6F91422AEE7FFF70AFF26
:10A964000020FCF7DFF90120FCF7DCF91522A4E74D
:10A97400FCF70FFA024B1D70A1E700BFE02C00208A
:10A98400E82C0020B02C0020702C00206D2C00201E
:10A994002DE9F04781460D46FCF738FA03280446B2
:10A9A40031D8012D04D022D3022D2ED0BDE8F0875A
:10A9B400194D47003A18A918AE5C4A7852B1DFF82D
:10A9C4006880164842464FF40041FCF7F3FE08B98C
:10A9D40088F800903B192B449A78114B1A5596B17C
:10A9E400104B1B687BB13046BDE8F04718470B4855
:10A9F400FCF726FF084B04EB440213449E78084BF3
:10AA04001B5DB342EBD0BDE8F087034B00EB400481
:10AA14001C446678E3E700BFD02C0020902C002073
:10AA2400E92C0020E42C00206C2C0020022100786A
:10AA3400FFF7AEBF044B1B68DB0703D5034B187845
:10AA4400FFF7AEBE704700BFDC2C0020E82C0020CE
:10AA5400002910B514BF03240024FCF7E9F91F28CA
:10AA64008ABF0A4B4FF0A04300F01F0003EB8000A5
:10AA7400D0F8002722F44032C0F80027D0F800377D
:10AA840043EA0443C0F80037002010BD000300501F
:10AA9400032801D8FCF7A6B900207047044B1B68B3
:10AAA40013F0010301D0FFF77BBE1846704700BFC7
:10AAB400DC2C002038B51C4B18601C4B10F0020431
:10AAC400054619601AD01A4B1A480E221A700F2222
:10AAD400DA7010229A7111225A72042140F26662CD
:10AAE400FCF770FB044648B9FCF7BEFB044628B9E2
:10AAF4000146114A1148FCF74BFE0446EB0711D5F9
:10AB04000120FCF79BF96CB921460D4A0D48FCF76E
:10AB14003FFE044630B90C4A0C480121BDE83840D8
:10AB2400FCF736BE204638BDDC2C0020E42C002087
:10AB3400D02C002018FE020031AA02003CFE0200C4
:10AB440039AA020040FE020071A7020038FE02008A
:10AB5400032812D8012A0BD1012908D100F10E02D1
:10AB6400D2B200EB40000C4B1A5400207047002274
:10AB74000129F6D009D3022901D007207047064BDA
:10AB840000EB400018444270EFE7034B00EB400039
:10AB940018448270E9E700BFD02C0020032802D8B3
:10ABA4000121FFF755BF0620704708B50122022195
:10ABB4000020FFF7CDFF08B1072810D1072202219A
:10ABC4000120FFF7C5FF08B1072808D100210A2298
:10ABD4000846FFF7BDFF10B1072808BF002008BDD5
:10ABE4000388102B10B502D0112B1ED010BD194CA8
:10ABF4002168B1B901220846FFF7AAFF08B1072866
:10AC040021D1072202210120FFF7A2FF08B1072862
:10AC140019D1042202210020FFF79AFF08B1072866
:10AC240011D123680133236010BD0A4A1368013B24
:10AC3400136073B9FFF7B9FF58B1074B1B6843B1F1
:10AC4400BDE810401847044B1B68002BE9D0984717
:10AC5400E7E710BDF42C0020F02C002008B50020FC
:10AC6400FFF79CFF08B1062806D10120FFF796FFE5
:10AC740010B1062808BF002008BD00000D4B10B518
:10AC840018600C4629B10120FFF702FF40B10223EE
:10AC94002370094B1B6853B9BDE81040FFF785BF0B
:10ACA400FFF7F6FE08B10B23F2E72070F1E700206E
:10ACB40010BD00BFF02C0020F42C002076DF70477C
:10ACC4007ADF70477CDF70478FDF7047FCF7E2BAAA
:10ACD40008B50020FFF7E2FE08B1FCF7DBFAFFF746
:10ACE400BDFF08B1FCF7D6FA04F046F818B1BDE888
:10ACF4000840FCF7CFBA08BD0388212B13B50446DE
:10AD04001ED003D8102B0AD002B010BD3B2B01D0AB
:10AD1400562BF9D11321A088FFF7D0FF0BE00720B1
:10AD2400FFF7BCFE08B1FCF7B5FA0A4BA1880A4844
:10AD3400198001F0BFFF0028E6D0FCF7ABFAE3E787
:10AD4400002301A980888DF804308DF80530FFF7C1
:10AD5400BBFFF0E7C4220020C42D0020022810B558
:10AD64000ED1084C08492088000440F00300FBF78A
:10AD740057FE20880549000440F00300FBF750FE0D
:10AD8400012010BD3422002044FE020071FE0200A6
:10AD94000F4B032818D8DFE800F002090D131888B8
:10ADA4000C49000440F00300FBF73ABE18880A4936
:10ADB4000004F7E718880949000440F00100F3E7AC
:10ADC400188807490004F8E7188806490004F4E7DE
:10ADD40034220020A0FE0200CEFE0200F1FE02009A
:10ADE4002AFF020057FF0200032807D14FF08043D7
:10ADF400A922C3F820250020FEF7C6BB7047000037
:10AE040008B503784BB9054B3B211888FFF756FF6B
:10AE140018B1BDE80840FCF73DBA08BDC4220020C3
:10AE2400072808B513D00A280DD0042819D10D4BD2
:10AE340013211888FFF742FF30F0080311D0BDE852
:10AE44000840FCF727BABDE80840FFF741BF054BAF
:10AE54001A884FF6FF739A4203D1034800F042FE6A
:10AE6400EAE708BDC4220020F82C002008B548B148
:10AE740003280BD10220FFF711FE38B1BDE80840CA
:10AE8400FCF708BABDE80840FFF722BF08BD000080
:10AE940008B50321044800F0C4FC18B1BDE808401B
:10AEA400FCF7F8B908BD00BFF82C002030B50378D2
:10AEB40085B004460D2B10D8DFE803F0070F110FFF
:10AEC400220F2A390F350F3932391A4B1A4918888B
:10AED400000440F00300FBF7A3FD05B030BD154BA3
:10AEE40040881D8800F0FAFF2D04227A009245F074
:10AEF40003050246638811492846FBF7A9FDECE7E0
:10AF040004A9002301F8043D408802F0C1FCE4E7F1
:10AF1400FDF79AFB30F00803DFD0FCF7BBF9DCE760
:10AF2400FFF7B6FFD9E700690028D6D0F5E78068B7
:10AF3400FAE700BF34220020B7FF0200E0FF02005E
:10AF4400FCF7A8B900B54FF40041ADB00020FBF701
:10AF54009FFB08B1FCF79EF9FBF7C4FAFCF7E6FB8C
:10AF640008B1FCF797F9FEF7BFFA08B1FCF792F9BC
:10AF740083490320FFF79EFD08B1FCF78BF901A973
:10AF84000020FFF77BFE08B1FCF784F99DF804501C
:10AF940003F0B6FE08B1FCF77DF9002301A90120F6
:10AFA400019303F073FF08B1FCF774F901A804F0EE
:10AFB40019F808B1FCF76EF902F016FC08B1FCF7B9
:10AFC40069F90522002101A804F09AF99DF80430DA
:10AFD40043F00103032203F0F10362F306136FF35A
:10AFE400C7138DF8043007238DF8053010238DF82E
:10AFF40006309DF8073013438DF807309DF808306C
:10B0040001A813438DF8083002F038FC08B1FCF7AE
:10B0140041F95C4802F01AFC08B1FCF73BF99DF8D1
:10B0240000305948012262F303032CAC62F3071386
:10B0340004F8B03D04F098F9534982B22046FFF772
:10B0440041FE08B1FCF726F90822002101A804F00A
:10B0540057F95023ADF80430A023ADF8063000238F
:10B06400ADF8083001A84FF4C873ADF80A30FFF703
:10B0740027FE08B1FCF70EF90021444801F010FD49
:10B0840008B1FCF707F9AC22002101A804F038F953
:10B0940002238DF8043001238DF80630ADF8143006
:10B0A4008DF880304FF496730622239344F2506354
:10B0B4008DF807202493364A364B3748069201A967
:10B0C4002A9300F046FB08B1FCF7E4F8012132486A
:10B0D40000F03CFB002301932146304B30480093A1
:10B0E40001F0D6FD08B1FCF7D5F803F0E5FC08B192
:10B0F400FCF7D0F82B4B019301A803F065FC08B1D1
:10B10400FCF7C8F81C22002101A804F0F9F8002378
:10B114004FF4203201930292ADF812304FF47022B2
:10B124008DF81430204B0392069303221F4B8DF8A5
:10B13400102001A8079300F0F3FD08B1FCF7AAF86A
:10B144001B4C1C492088000440F00300FBF768FCFA
:10B15400022D12D120881849000440F00300FBF7A7
:10B164005FFC02F0A3FB08B1FCF794F8FBF7F6FAD6
:10B174000028FBD1FEF7E2F9F8E7FFF789FEF5E7CF
:10B1840025AE0200B1AE02007EFF0200B02D002009
:10B19400C022002071AE0200F82C002045AF02004E
:10B1A400C42D002095AD020005AE0200D1AC020012
:10B1B4003422002086FF0200AAFF020013DF70473A
:10B1C40038B54FF01024114D6369013315D0288828
:10B1D40062690F49000440F00300FBF725FC606935
:10B1E400FFF7ECFF044630B128880A49000440F018
:10B1F4000100FBF715FC204638BD288806490004E9
:10B2040040F00100FBF70CFC0424F4E73422002096
:10B21400200003004B0003007E00030038B50B4DF3
:10B224000B4A28880B49000440F00300FBF7FCFBA1
:10B234000748FFF7C3FF044630B1288806490004D5
:10B2440040F00100FBF7ECFB204638BD342200201F
:10B2540000600200960003004B0003006DDF70479E
:10B2640079DF70477DDF704764DF70472DE9F74F62
:10B274000C9CBDF834B02788002580468A46914648
:10B284002E46B8F8002096420BDB35B12288013AED
:10B29400D21B92B2FF2A39D8DA55002003B0BDE898
:10B2A400F08FD8F8042052F82600019000220DF106
:10B2B400030101A8FFF7D8FF0028EFD19DF8032070
:10B2C4004A4521D12288002D14BF0020022002EB20
:10B2D40009010144594519DC3DB9013292B2228079
:10B2E40003F802A022880132228022880DF1030192
:10B2F4001A4401A8FFF7B8FF0028CFD121889DF890
:10B3040003200A44228001250136BAE70C20C5E750
:10B314002DE9F341089CBDF8245017468DE8300010
:10B3240002220646FFF7A2FF48B9102239463046EA
:10B334000995089402B0BDE8F041FFF797BF02B049
:10B34400BDE8F0812DE9F04F00231688138090F8B2
:10B354002D3085B007460D46144643B3082E4ED90A
:10B3640002A8FFF77BFF002840F0FF801388082223
:10B37400CA54238801339BB21B222380CA542088D9
:10B38400013080B2208006220DF10901284403F027
:10B394008DFF23889DF8082006339BB212F0FE022D
:10B3A40018BF01222380EA54238801332380BB7809
:10B3B400FBB123880433B34221D802A8FFF750FF1E
:10B3C400002840F0D28023880322EA5423880133E2
:10B3D4009BB219222380EA542388BDF80820013344
:10B3E4009BB2E9182380EA54120A4A702388023374
:10B3F4002380FA78AAB12388D91CB14201D90C2040
:10B40400B3E00221E954238801339BB20121238054
:10B41400E95423880B449BB22380EA5423880B44C9
:10B4240023807A68AAB12388D91CB142E7D80221C3
:10B4340092F90020E954238801339BB20A21238026
:10B44400E954238801339BB22380EA5423880133CF
:10B4540023803B89002B7CD13B8A53B18DE850007B
:10B464002B460722032107F11000FFF751FF0028A4
:10B474007BD13B8B53B18DE850002B461522142110
:10B4840007F11800FFF744FF00286ED13A6A002A3A
:10B494006ED1D7F82480B8F1000F2ED0B8F804305C
:10B4A4002188981C8A1C0244B242A8D8FE28A6D837
:10B4B40003336B54238801339BB2FF222380EA5465
:10B4C400238801339BB22380B8F80020EA54E9189A
:10B4D400120A4A702088023080B22080B8F8042012
:10B4E4005AB1D8F8081000294CD0284403F0DEFEE5
:10B4F4002388B8F804201344238097F82C30002BB9
:10B504007BD1387888B33B88012B3BD021888A1CB7
:10B51400B2423FF674AF012805D17B7802330B4465
:10B524009E42FFF46CAF023E761A04A9B6B221F82B
:10B53400086DA818FFF796FEB8B93B78022B40F0C7
:10B544009F80BDF80830B34240F2B680ADF8086081
:10B554009FE08DE850002B460622022107F10800E7
:10B56400FFF7D6FE00283FF477AF05B0BDE8F08FB3
:10B57400B4F800E00EF10603B3423FF640AF118881
:10B58400052901D80720F0E76FF4486C01EB0C03A0
:10B594009BB24FF27D3C6345F4D95388052BF1D916
:10B5A4006FF44860181880B26045EBD94FF6FF700D
:10B5B400814203D0834201D09942E3D8052305F8A0
:10B5C4000E30238801339BB212212380E95423884F
:10B5D40001339BB223801188E954E818090A4170A9
:10B5E400238802339BB223805288EA54E918120A52
:10B5F4004A702388023323804BE7BB6A002BC1D0F7
:10B604004FF000094FF00C0A4FF0160B97F82C304E
:10B614005FFA89F293427FF674AFB96A0AFB02F2C9
:10B6240001EB0208B8F80430981CFE283FF6E7AE98
:10B63400208803332B54238801339BB2238005F8DD
:10B6440003B0238801339BB223808A5AEA54E91851
:10B65400120A4A702088023080B22080B8F8042090
:10B664005AB1D8F8081000298CD0284403F01EFEE3
:10B674002388B8F804201344238009F10109C5E79D
:10B68400012B7FF463AF7B789E42FFF45FAFADF88C
:10B6940008300821BDF80830FE2B3FF6B0AE2288F2
:10B6A4000133AB542288013292B22280A9542288F9
:10B6B40013442380002058E70921EBE770B558B103
:10B6C4004AB116880024B44203D305196D789D420B
:10B6D40008D08C4201D3002070BD055D01352C4497
:10B6E400A4B2F0E78C42F6D2A31C1380005D0138AB
:10B6F40080B270BD37B502AC002324F8023D134676
:10B7040022460546FFF7DAFF10B1BDF806002844CB
:10B7140003B030BD72DF704773DF704774DF70476A
:10B7240038B5012204460D46B0F89810D0F89400BC
:10B73400FFF7E0FF00B1057004F13C0204F194014D
:10B7440004F15400BDE83840FFF7E4BF80F830103E
:10B754007047F8B504460F4641B138B191F87A30D4
:10B7640033B191F898301BB10720F8BD0E20F8BD15
:10B7740007F178060FCE4FF0000E251D84F802E085
:10B784000FC50FCE0FC596E8070085E8070084F8BB
:10B7940030E0D7F8A4306363D7F8A830A3634FF63A
:10B7A400FF7504F19403C4F8A430A4F8A850072248
:10B7B400714604F1AA0003F0A3FD23780BB984F8C1
:10B7C4005450224604F155011F25C4F894103846FC
:10B7D40022F8985FFFF7B6FD10BB224604F174010E
:10B7E400C4F89C1007F13C0022F8A05FFFF7AAFD03
:10B7F400B0B9A269A4F8482001236269206484F8DE
:10B8040050006264014684F8513084F83C3004F1FD
:10B814003C0204F15400FFF77DFF08B92370F8BD22
:10B82400F8BDF8B5077804460D46002F00F00C81EA
:10B83400A1700020FDF7F4FB014618B101236370E9
:10B844000020F8BD04F1AA060722304603F058FD93
:10B85400E38813B1A378012B04D0E3794BB1A37827
:10B86400022B06D1636B9BB1012284F8B12008201E
:10B874009847324604F1B00112F8013F5BB98A429D
:10B88400FAD16A1E032A52D8DFE802F0070D111418
:10B8940084F8B130EDE73B46F3E7A2791AB194F8A6
:10B8A400242002B95BB9E2790AB1002B41D1237A91
:10B8B400002B40D1637A002B0CBF00250425636B59
:10B8C400A570002B39D0033D012D36D86279A2B37F
:10B8D40094F8B2208ABB84F8B420012284F8B320FF
:10B8E4000720984704F13C0518220021284603F05C
:10B8F40007FDE36A0122591E914284F83C2002D9D3
:10B90400042B40F0A38084F8513094F824201AB119
:10B91400BFB1A36A84F85230A178002384F8503070
:10B9240004291DD8DFE801F07C0F273A5E000025CA
:10B93400C5E70225C3E70325C1E7002384F8B33034
:10B94400D0E70123E6E7C4F8A430636402230122AC
:10B9540084F83C30802384F831202664A4F84830ED
:10B96400A378002B5FD1636B002B3FF469AF94F88D
:10B974003100984764E7022384F8313062B1072329
:10B9840084F83C302369A4F848300023C4F8A43078
:10B99400E36826646364E3E70323F1E763696364AC
:10B9A400A369A4F8483012B1062384F83C306379C3
:10B9B400B3B194F8B2309BB994F8B43083B1022394
:10B9C40084F8503004212046FFF7AAFE0028C7D18E
:10B9D400052384F8313004F19403C4F8A430BFE79C
:10B9E4000323F6E7E3696364236AA4F8483012B1D9
:10B9F400062384F83C30637983B194F8B2306BB990
:10BA040094F8B43053B1022384F850300421204612
:10BA1400FFF786FE0028A3D10623DAE70423D8E73C
:10BA240084F831309CE72A46D4F8A41004F1540079
:10BA3400FFF770FE70B994F8301094F85400FFF7D3
:10BA44006BFE00288FD0F8BD0820F8BD84F8512083
:10BA540000275AE7F8BD0388112B10B50C460AD00D
:10BA6400262B1CD0102B28D1C37B012B25D18388F6
:10BA7400A1F8A83010BD0022838881F8B220B1F863
:10BA8400A8209A4219D10B79BBB901212046FFF7AE
:10BA9400C8FE90B1A36B83B1BDE810401847037A88
:10BAA400013B012B09D889780523013191FBF3F37C
:10BAB40003EB8303C91AC9B2E8E710BD02380128B1
:10BAC40010B50C460DD84B785BB100234B70204663
:10BAD4008978FFF7A6FE20B1A36B13B1BDE810402F
:10BAE400184710BD38B5044690F85400FFF716FE09
:10BAF400012384F8B230002384F8B43084F8503041
:10BB040006212046FFF70CFE054638B9A1782046E9
:10BB1400FFF787FE10B1A36B03B19847284638BDE1
:10BB240075DF704776DF70477ADF70477BDF7047D9
:10BB3400034B1A8882420CBF18460020704700BF8E
:10BB4400EC2D0020024B9B6903B11847704700BFDE
:10BB5400D02D002037B585B22846FFF7E9FF03460C
:10BB640070B1164C017A227B91420BD200F10A018A
:10BB74002846FFF7D5FFE8B1112801D0FFF7E2FF0F
:10BB840003B030BD237C0022027243B13B2128461E
:10BB9400FFF7C8FF30F0080301D0FFF7D3FF636954
:10BBA400002BEDD000228DF80420ADF8065001A83A
:10BBB4009847E5E71A7A01321A72E1E7D02D00209E
:10BBC40013B50B46497A0F4C024669B9A0686168FF
:10BBD4001C7A002C18BF01465868FBF7EBFD08B12E
:10BBE400FFF7B0FF02B010BD002119726369002B8A
:10BBF400F8D00121ADF806008DF8041001A898478B
:10BC0400F0E700BFD02D00208388B3F5FA7F28BF6A
:10BC14006FF4F97230B528BF9C1805884A8838BF7C
:10BC2400002495420CD84088904209D38A88A242C5
:10BC340006D303F2F310904234BF0020012030BD3C
:10BC4400002030BD0388112B70B501462ED002D8D8
:10BC5400102B05D070BD122B51D0502B35D070BD98
:10BC6400C37B012B4AD14FF6FF70FFF761FF0546F6
:10BC740020B90420BDE87040FFF764BF264A8E88CF
:10BC84000680002303721368C5F80A300A3053682B
:10BC940043601031FFF7B8FF204B6872DB896BBB40
:10BCA40029463046BDE87040FFF78ABF8088FFF719
:10BCB4003FFF044610B34068FBF7C2FD08B1FFF72D
:10BCC40041FF4FF6FF73238070BD144BC288DB899C
:10BCD4009A4213D1038A022B10D186883046FFF78B
:10BCE40027FF054650B101F1120000F06DF900285C
:10BCF400D6D16868FBF7A4FD0028BBD170BD868847
:10BD04003046FFF715FF05460028F7D008310A3002
:10BD1400FFF77AFF6872C3E7002E0020D02D0020C1
:10BD2400F8B5064650B305460FCD154F3C460FC433
:10BD340095E8070084E807003068124B3B60B8B10F
:10BD4400FFF7F2FED8B931680A681A604A685A6087
:10BD54000D480E4A4FF6FF7303800D4B40F8043F25
:10BD64000021FBF715FD002814BF03200020F8BDB7
:10BD74001846FFF7DBFE0028EAD0F8BD0E20F8BD18
:10BD8400D02D0020002E0020EC2D002059BB0200F5
:10BD9400082E0020F7B5174601900E4691B1019C7C
:10BDA4006CB100252C46294601A8FCF76AFD18B1A0
:10BDB4003946A8B2B04701340135142DF3D12046D9
:10BDC40003B0F0BD0C46FAE773B50191019C064639
:10BDD4006CB100242546294601A8FCF752FD18B190
:10BDE40006EB440301349D800135142DF3D1304614
:10BDF400346002B070BD00002DE9F04703888488E8
:10BE0400112B8CB0064638D01A2B3BD0102B24D1E2
:10BE1400274DAB680CA8DB4340F8303D6968FCF75C
:10BE240099FD009901A8FFF7CFFF0DF106094FF026
:10BE34000008019B984513D3132C35D821461D487F
:10BE4400FCF7FEFC21461C48FCF7FAFCF37B012BB3
:10BE540003D01A482146FCF7F3FC0CB0BDE8F08788
:10BE640039F802AF002704375146E819FCF7FFFC04
:10BE7400742FF8D108F10108DBE70E482146FCF7DE
:10BE8400F6FCEAE7057A0E482D09012D214606DD68
:10BE9400FCF7D6FC022D21460A48F0D0DBE7FCF77C
:10BEA400E6FC21460748EAE70420FBF7F3F9D4E768
:10BEB400282E0020302E00202C2E0020342E00208E
:10BEC400382E00203C2E00201328014602D80248B8
:10BED400FCF7D7BC002070472C2E002010B5044678
:10BEE400FFF7F2FF38B121460348FCF7CAFC0028EB
:10BEF40014BF0220012010BD342E002010B50446CA
:10BF0400FFF7E2FF28B121460248BDE81040FCF7E4
:10BF1400B8BC10BD382E002008B518210248FCF723
:10BF2400B9FCC0B208BD00BF282E002070B50A4D70
:10BF3400064628460C46FCF7A4FC58B13046FFF7E9
:10BF4400C3FF38B1A01D314605EB8000BDE8704049
:10BF5400FCF797BC002070BD282E0020F8B50D4DCD
:10BF6400064628460C461746FCF78BFC80B1304643
:10BF7400FFF7AAFF60B1A01D314605EB80001FB199
:10BF8400BDE8F840FCF75CBCBDE8F840FCF76FBCCA
:10BF9400F8BD00BF282E0020F8B50A4C05460E4611
:10BFA400014620461746FCF76CFC48B1043504EB07
:10BFB40085043A46A0683146BDE8F840FFF7EABE7A
:10BFC400F8BD00BF282E0020007800F00100704763
:10BFD4000078C0F34000704710B50446408800F074
:10BFE400B5FBA0802046BDE8104001F0F9BB30B598
:10BFF40087B005460C461422002101A803F080F9FD
:10C00400072301A88DF80430ADF806500394FFF718
:10C01400E3FF07B030BD000030B587B005461422F9
:10C02400002101A803F06CF94FF6FF739D42ADF8AF
:10C0340006501AD0284600F028FA0B2804461DD0D2
:10C0440005D8A0B121462846FFF7D1FF05E0112805
:10C0540005D043F202039842F4D1002200E0012209
:10C06400074B28461978FFF779FF07B030BD0E2338
:10C0740001A88DF80430FFF7AFFFEEE70F23F7E7D1
:10C08400A12E0020FFF7C8BF024B034918780022F5
:10C09400FFF782BFA32E0020B5C00200024B034964
:10C0A40018780022FFF778BFA22E00204DC10200AD
:10C0B40070B5234E86B031780446FFF737FF054646
:10C0C400C0BB204600F030FA0828014622D006D82A
:10C0D40088B106281ED02046FFF789FF09E043F205
:10C0E4000203984205D043F20143984224D0112818
:10C0F400F1D1012214E02946142201A803F000F929
:10C10400102301A88DF80430ADF806400125FFF78F
:10C1140063FFEEE7204600F019FB00F01FFA00224F
:10C12400084B20461978FFF719FF2A463178204634
:10C13400FFF714FF06B070BD2046FFF76DFFD8E788
:10C14400A42E0020A32E002070B5002186B0064640
:10C154001C4801F071FD054608B3304600F050F963
:10C16400112801461DD004D860B13046FFF73FFFC7
:10C1740005E0862817D043F202039842F5D1002443
:10C18400254601E02C4605460F4B2A4619783046D1
:10C19400FFF7E4FE1CB921460A4801F072FD06B01F
:10C1A40070BD0024F0E71422002101A803F0A8F8D0
:10C1B400062301A88DF80430ADF80660FFF70CFFE4
:10C1C400DDE700BFA02E0020A22E0020037810B5CA
:10C1D400044673B94088FFF71FFF608800F092F9A6
:10C1E40038B1044B608819780122BDE81040FFF78C
:10C1F400B5BE10BDA32E00200378082B37B5044626
:10C204002CD1417A51BB057A072D1BD0082D29D09A
:10C21400012D23D16A462946808801F009F9E8B93D
:10C22400019B1B78D3B1A08800F0B8FA4FF6FF73D6
:10C23400984213D00D4B2A461978FFF78FFEFFF76B
:10C2440023FF0BE0808800F0A9FA4FF6FF739842B1
:10C2540004D0074B01221978FFF780FEFFF71EFF79
:10C2640003B030BD034801F00CFDF7E7A32E002016
:10C27400A22E0020A02E002070B5FFF74DFE104E18
:10C28400104D3070FFF748FE2870FFF745FE0E4C46
:10C294002070FFF741FE0D4B18703378182B0DD02A
:10C2A4002B78182B0AD02378182B07D0182805D000
:10C2B4000121074801F0B9FC002070BD032070BDC6
:10C2C400A22E0020A12E0020A32E0020A42E0020A8
:10C2D400A02E002010B503888488522B86B016D077
:10C2E400542B21D0502B15D1037B012B12D1827AF0
:10C2F400012A0FD1018942F6021399420AD11B4B3C
:10C3040020461978FFF72AFEFFF7C8FE02E0204610
:10C31400FFF782FE164B174918780022FFF73CFE00
:10C32400FFF7B2FE06B010BD1422002101A802F0EE
:10C33400E7FF112320468DF80430ADF8064000F0E5
:10C3440005FAADF8080000F009F90B4B20461978FE
:10C354000022FFF703FE094B204600221978FFF75D
:10C36400FDFD01A8FFF738FED4E700BFA22E002090
:10C37400A12E002089C00200A42E0020A32E00209C
:10C38400AFDF7047B1DF7047B2DF7047B3DF70478C
:10C3940073B50F4B0F4C93E8030000228DE80300A4
:10C3A4006946208801F043F96D464FF6FF762388ED
:10C3B400B34201D0112801D102B070BD184601F07A
:10C3C40028F900222946208001F031F9EFE700BF67
:10C3D400C0000300A62E0020044B1A884FF6FF73FA
:10C3E4009A4201D0FFF7D4BF704700BFA62E0020A9
:10C3F400024B4FF6FF721A8000207047A62E0020D1
:10C404002DE9F743804600F0A1F94FF6FF739842F7
:10C41400064637D001224FF003096B460821304607
:10C42400571C01F009F8BFB2054630BB01990A4612
:10C43400032342F8049B06314046FFF7A5FF044658
:10C4440048B932460821304601F0D0F80446204667
:10C4540003B0BDE8F0830C280DD0052800D12C468C
:10C464000821304601F05AF8002818BF03243A4640
:10C47400002DD2D1EBE70125F2E7072814BF0446CB
:10C484000C24E4E743F20204E1E72DE9F34180469A
:10C4940000F05CF94FF6FF73984217D1002403258E
:10C4A400264601272B46224631464046FFF76AFFBF
:10C4B400042820D0082823D00B281DD115F002030E
:10C4C4000FD18EB9A4B902B0BDE8F0816A46082143
:10C4D40000F0AEFF0028E1D1019B9E1D9C881D68E1
:10C4E400DFE701250027DDE703251C461E46F9E7A3
:10C4F40003253446F6E71120002F08BF0B20E2E79E
:10C504000020F9E71FB50DF10703039300F01EF9AE
:10C5140002AA012100F08CFF20B9039B187805B012
:10C524005DF804FB0020FAE738B504460A48FFF733
:10C534002DFF70B9084B43F203054FF6FF721988BB
:10C544002046FFF71DFFA84204D11A8801321A8041
:10C55400F3E7032038BD00BFA82E002013B5064A18
:10C56400044692E8030000228DE803006946204651
:10C5740001F05DF802B010BDC800030046DF70474B
:10C58400F8B5094D094E00240C2707FB04632978EC
:10C594005888FFF7CBFC08B9E0B2F8BD0134142C7D
:10C5A400F3D1FF20F8BD00BFAA2E0020AC2E00203E
:10C5B4000A4B10B519780446FFF7B8FC60B1084B74
:10C5C40000200C2202FB00314988A14201D1C0B2F3
:10C5D40010BD01301428F5D1FF2010BDAA2E002073
:10C5E400AC2E002038B505460C4609B9FF2038BDED
:10C5F4004FF6FF739842F9D00E4B01221978FFF7DA
:10C60400ADFC2846FFF7D4FFFF2803D1FFF7B8FF9E
:10C61400FF28EBD008490C234343CA1855804FF632
:10C62400FF75CD5221685160131DA2889A80A279AA
:10C634009A7138BDAA2E0020AC2E0020421E00F1B3
:10C644000F0312F8010F10B99A42FAD17047012072
:10C65400704708B580B171B103780A78534013F07C
:10C66400FE0F08D106220131013002F0FEFDB0FABE
:10C6740080F0400908BD002008BD2DE9F04700F115
:10C6840001084F1C06460D4600F1110901F1110A7B
:10C6940010223946404602F0E8FD0446E0B940461F
:10C6A400FFF7CCFF18B13846FFF7C8FF04465146E0
:10C6B4004846FFF7CEFF737C03F0FC03042B04D041
:10C6C4006B7C03F0FC03042B02D1201C18BF012057
:10C6D40000F00100BDE8F0870024E8E730B585B03C
:10C6E40004460D4600F074FC02AA0DF10601072071
:10C6F40000F076FC10B94FF6FF700BE0BDF8063081
:10C70400AB42F1D003992046FFF7B7FF0028EBD0E6
:10C71400BDF8060005B030BD10B50A4C0A48182211
:10C7240022704FF6FF71002283180C32F02A5980D0
:10C73400FAD1FFF7F1FB182820700CBF032000206A
:10C7440010BD00BFAA2E0020AC2E002008B5FFF7B4
:10C754002FFFFF281FBF0C235843034B185A08BF51
:10C764004FF6FF7008BD00BFAC2E002010B50C467C
:10C77400FFF71EFFFF280CD0074B0C2202FB0030F2
:10C7840050F8043F23608388A3808379A371002039
:10C7940010BD052010BD00BFAC2E0020084A30B5E6
:10C7A40000230C2404FB03F18D5A854202D10A4470
:10C7B400508830BD0133142BF4D14FF6FF7030BDD7
:10C7C400AC2E0020038843B9821C00F10A0312F83E
:10C7D400010B10B99A42FAD170470120704710B585
:10C7E4000446FFF7EFFF68B122880B889A4208D10C
:10C7F40008220231A01C02F038FDB0FA80F0400992
:10C8040010BD002010BD1FB5044600F0E1FB02AAD4
:10C814000DF10601072000F0E3FB10B94FF6FF709D
:10C8240007E0039920464631FFF7D9FF18B1BDF858
:10C83400060004B010BD039920462A31FFF7CFFF4C
:10C844000028E4D0F3E7000010B50C46FFF7B0FE73
:10C85400FF281FBF0C235843014B1C5210BD00BFBF
:10C86400AC2E002070B50446FFF798FF064620461C
:10C8740000F068FE4FF6FF75AE42044609D040B999
:10C884003046FFF795FEFF281FBF0C235843024B89
:10C894001D52204670BD00BFAC2E002030B58DB0B7
:10C8A40014460D4600F110030DF1FF3213F8011D7B
:10C8B40002F8011F9842F9D10D22002104A802F0C8
:10C8C4001FFD2B788DF81F306B788DF81E3068466D
:10C8D400AB788DF81D30FFF751FE9DF82F30237093
:10C8E4009DF82E3063709DF82D30A3700DB030BDCF
:10C8F40030B5037803F0FE03042B85B004460D46DF
:10C9040018D1411C032201A802F0D0FC0322211DEE
:10C9140003A802F0CBFC02AA03A92846FFF7BEFF36
:10C92400032202A901A802F0A0FCB0FA80F0400999
:10C9340005B030BD0020FBE730B50388102B93B061
:10C9440055D1041D0FCC07AD0FC50FCC0FC594E80E
:10C95400070085E8070012AD15F8283D03F0FE0333
:10C96400062B4ED000F034FB9DF820305B08012BE1
:10C974003FD9022B45D102AA0DF10601072000F090
:10C984002FFB00283DD0039928460131FFF7B0FF63
:10C994000028F0D005E0039928461131FFF759FE2D
:10C9A40038B3BDF80640BDF81C002946FFF71AFE4F
:10C9B4004FF6FF739C421AD0BDF81C00FFF7F8FD38
:10C9C400FF281EBF0C2358430F4BADF80C4018BF73
:10C9D4001C52BDF81C30ADF80A3012AC002304F828
:10C9E400403D204600F0FEFE2046FFF7EFFB13B06B
:10C9F40030BD02AA0DF10601072000F0F1FA00286B
:10CA0400C9D14FF6FF74CEE7AC2E002090DF7047FB
:10CA1400A5DF7047B5DF7047F0B585B00023ADF8EA
:10CA24000810ADF80A106A4602A90746ADF80C30A2
:10CA3400ADF80E300093ADF80430FFF7E7FF06467B
:10CA440018B3134C2588FCF739FE2D0445F0010575
:10CA540003463A460F492846F9F7F0FFBDF800208F
:10CA6400BDF8023002B933B120880B49000440F00C
:10CA74000100F9F7E3FFBDF8042032B1208807492B
:10CA8400000440F00100F9F7CFFF304605B0F0BDD7
:10CA940048220020D80003002201030061010300A2
:10CAA40070B117231B2203804380C38003810023BA
:10CAB400016102718372C372027342731846704734
:10CAC4000E20704737B5034680880C46A0B91A88F3
:10CAD400232A00F0AB8011D8102A24D0112A52D076
:10CAE400A37A4BB1E1880020FFF792FF002840F0C1
:10CAF400A3800123A072E37203B030BD3A2A4BD065
:10CB0400552A65D0242AEBD11A7A0B694A73002B73
:10CB1400E6D04DF67A210090ADF80400ADF800108F
:10CB24008DF804207EE0DB7B0A790A73012B13D095
:10CB3400022B14D0E18823898B4205D20020FFF711
:10CB440067FF70B90123E372217B637B8B42C7D2F9
:10CB54000020FFF761FFC3E70B88E380EAE74B8817
:10CB6400FBE7112802D10123A372EDE73A4B1D889C
:10CB7400FCF7A4FD2D0445F001050246374928467B
:10CB8400F9F752FFE0E71723CB800B811B23887250
:10CB9400C8720B734B73A3E75B89CA88934228BF9F
:10CBA4001346172B0A6938BF17230B8162B1C97A60
:10CBB40051B140F67721ADF80010ADF80200ADF8A0
:10CBC40004306946204690470023E372A37287E746
:10CBD400DB88C988A072172B38BF17238B4228BF64
:10CBE4000B462381FFF716FF58B11B4B1D88FCF73A
:10CBF40065FD2D0445F00105024619492846F9F75B
:10CC040013FFE27A002A7FF46BAF2369002B3FF411
:10CC140067AF40F67721ADF802202289ADF8001005
:10CC2400ADF8042069462046984759E7197A237BD2
:10CC3400994228BF19468CE711283FF45DAF064B93
:10CC44001C88FCF73BFD240444F00104024603491C
:10CC54002046F9F7E9FE4FE748220020B701030018
:10CC6400E8010300B0DF704766DF7047034610B584
:10CC740000214088FFF7F8FF024608B91A7210BD78
:10CC8400112801D10122F9E75B68BDE8104018477B
:10CC940060B159B10378DE2B0AD00B684360DE2300
:10CCA40003704FF6FF734380002070470E207047D7
:10CCB4000820704728B10378DE2B04D1418000207E
:10CCC40070470E20704708207047F0B5054685B0C0
:10CCD4000C46F1B1E8B10B78DE2B1AD182884B886F
:10CCE4009A4204D10B7A13B10846FFF7BFFF2B8891
:10CCF400112B32D0512B0ED0012B0AD12B7A012BC0
:10CD040007D1A9886288914203D123722046FFF794
:10CD1400ADFF05B0F0BDAE886388B342F9D1AF79F9
:10CD2400022FF6D1AD7B2B1F022BF2D8002110224B
:10CD3400684602F0E5FA052D14BF4FF4C0730023D2
:10CD4400694630468DF80070ADF80430FFF78AFF6D
:10CD54000028DED063689847DBE76388AA889A4294
:10CD640004BF4FF6FF736380D3E7012804D004386F
:10CD740004288CBF0020012070474FF6FF734380C6
:10CD840000F0A4BAF0B51F4D8BB00021082268460C
:10CD9400297002F0B5FA4FF6FF7000F0F1FC4FF67F
:10CDA400FF770446BC4211D0A4F58046B6B26A4669
:10CDB40002A93046FBF786FC0A2809D03046FBF767
:10CDC4001DFC082806460BD101232B700BB0F0BDC7
:10CDD400204600F079FC204600F0D2FC0446E1E74E
:10CDE400002EF3D0142200210DEB020002F088FA89
:10CDF400072305A88DF81430ADF818400796FFF7FF
:10CE0400BCFFE3E7A42F002070B5044686B01422CB
:10CE1400002101A802F074FAA08923782B4D00F5B3
:10CE2400804080B25A1EADF80800042A25D8DFE8F5
:10CE340002F00303032F440043F6FE76B042E18977
:10CE440004D901F5804292B2B24216D8DA1E534296
:10CE540053418DF80D30A368049363688DF80C106A
:10CE64008BB908238DF804309DF8143043F0010386
:10CE74008DF8143001A8FFF780FF2B780BB1FFF772
:10CE840081FF06B070BD09228DF804200593F1E7F7
:10CE940043F6FE739842F0D8E389002BEDD1636822
:10CEA4003BB90A238DF8043000F00EFC01232B70EB
:10CEB400E0E70B238DF80430F8E713238DF80430F2
:10CEC4004FF6FF73ADF80830D4E700BFA42F00205D
:10CED40073B504460D46164600210822684602F042
:10CEE4000FFAA5F58041A4F580406B46324689B21D
:10CEF40080B2FBF7CDFB002814BF0520002002B050
:10CF040070BD000030B5174889B0FBF7B3F920BBFA
:10CF1400FBF7C6F9044610BB00F0A8FB0822214623
:10CF240003A802F0EDF903AA05A94CF20700FBF7E8
:10CF3400BDFB10B1204609B030BD01A905A8FBF71F
:10CF4400C5FA019B9D8805F58045ADB205A8FBF7A0
:10CF5400E1FA284600F0A0FBE5E70324EAE786248B
:10CF6400E8E700BF0DCE0200F0B5FF2887B0044605
:10CF74000E4615461F4627D80846FFF7F6FE18B397
:10CF840003AA2046FFF7A4FF18B10524204607B0E2
:10CF9400F0BD01A903A8FBF799FA04460028F4D1CF
:10CFA400019BAE705A882A802FB9029B6B6003A83C
:10CFB400FBF7B0FAEAE73B6892009A4206D8029976
:10CFC400686802F073F9F2E70724DFE70424DDE779
:10CFD40008220021014802F093B900BF9C2F0020D1
:10CFE400F0B587B007460E461546FFF7BEFE044669
:10CFF400F8B1A7F58040104A03A980B2FBF756FBAD
:10D0040018B10024204607B0F0BD01A903A8FBF71E
:10D014005DFA0028F5D1019BAF705A882A80029AE4
:10D024006A609B8803F58043338003A8FBF772FA98
:10D03400E8E70124E6E700BF9C2F002008B503467B
:10D0440080780A46FFF791FE68B119881046FBF70D
:10D0540083FA072805D0092806D0002818BF032022
:10D0640008BD862008BD072008BD07B502AB43F8FC
:10D07400040D1846FBF78AFA002814BF0320002089
:10D0840003B05DF804FB30B589B0FF280446019273
:10D094001D4645D88B781846FFF767FE00283FD019
:10D0A400A4F58042ADF80820A3F58042ADF80A202B
:10D0B4004A6803920A880492194605AA2046FFF793
:10D0C40007FF0528019B11D153B902A905A8FBF755
:10D0D40083FA0728044618D011D8D0B1032415E0E8
:10D0E40001AA02A905A8FBF77BFAF2E713B101A88C
:10D0F400FBF74CFA02A905A8FBF778FAE9E7082838
:10D1040001D00E28EAD1112400E08624204609B07B
:10D1140030BD002DFAD0294605A8FBF7DFFAF5E764
:10D124000724F3E74FF6FF7000F0B6BAFF2808B5FE
:10D1340005D800F0B7FAFFF725FE002008BD072048
:10D1440008BD00F0D5BA00F001BB00F019BB000027
:10D1540030B50A68064B012A01D9002030BD1401FC
:10D16400E55A854202D10A60181930BD0132F2E74E
:10D174005C30002073B502AC002344F8043D0E4635
:10D1840005462146FFF7E4FF38B18378B34206D160
:10D19400837B9B0703D183680BB902B070BD019BED
:10D1A4000133019321462846ECE7000070B5054E93
:10D1B4000546002456F82430284601349847042CA8
:10D1C400F8D170BD240203008378013B072B07D8F4
:10D1D400DFE803F0070606060607040914230380A4
:10D1E40070470123FBE743689B8809339B08F6E7F4
:10D1F40070B50F4E04460025237B9D4210D34FF695
:10D20400FF732380A370FF236373A37B03F0FD03E9
:10D214006FF30003A373002323736360A36070BDE3
:10D22400617B2944C9B2304600F0BAFC0135E3E71A
:10D234004C30002037B58378417B002504462148D3
:10D24400009501958DF8023000F093FCB8B1237B72
:10D25400A278019003EB83039B0068468DF80220BB
:10D26400ADF80030FFF7B0FF04F1080362682088CE
:10D274006946FFF708FF072817D002D878B10320C2
:10D2840013E0112813D08628F9D1A37B03F0FD0302
:10D2940043F00103A3730C4B01221A7005E0A37B36
:10D2A40060F3410360F30003A37303B030BDA37BB9
:10D2B40043F0020365F30003A373034B01221A70C6
:10D2C4002846F2E74C30002048300020F0B5384DB5
:10D2D400C368AA68934287B0064615D0AA699342E8
:10D2E40014D1012405EB04103378324F092B14D0E8
:10D2F400132B0DD0082B51D1747A002C4ED1002859
:10D304004ED0FFF775FF04E00024EBE70020EBE7C5
:10D3140001243046FFF74AFF0BE0747A002C3DD11C
:10D3240000283DD0837B846043F002038373012390
:10D334003B703E783EB3AB7B980726D51C48FFF77D
:10D3440079FF48BB3346AA7F910702D4D2072AD576
:10D354004CB31948FFF76EFF20B301231B01862845
:10D36400EB5AADF808304FF6FF720EBF06230723C1
:10D37400039001A8ADF806200CBF8DF804308DF899
:10D384000430FFF713FF07B0F0BD13F00103DAD048
:10D39400002CD3D12346D6E70023DFE70024B8E7E7
:10D3A4000446B6E73346002BEDD13B70EBE700BFF4
:10D3B4005C300020483000206C3000201FB5174B33
:10D3C4001748FF225A739A7B4FF6FF7119809970A0
:10D3D40019829974597702F0FD02997F6FF3000264
:10D3E4009A7301F0FD01002262F300011A735A607E
:10D3F4009A6099771A775A619A610121022250231F
:10D404008DE80E00074B0849A02200F097FB002886
:10D4140014BF0320002005B05DF804FB5C3000203D
:10D424004C3000207C300020A82F0020FFF77ABE6B
:10D434000023FFF799BD00002DE9F84381460E460D
:10D4440014461F46002B61D0CB1F012B02D90720A5
:10D45400BDE8F883531E012BF9D8FFF772FE054689
:10D464000028F4D031464846FFF784FE804668BB66
:10D47400FF214FF6FF70FFF77DFE804618B3A0F83A
:10D484000090867098F80D30FF2B25D12146224854
:10D4940000F09BFBFF2888F80D001ED14FF6FF73A8
:10D4A400A8F8003098F80E3088F8020003F0FD0365
:10D4B4006FF3000388F80E30002388F80C30C8F8A6
:10D4C4000430C8F808301120BDE8F883037B9C427F
:10D4D400D8D00F20BDE8F883002588F80C4098F8D0
:10D4E4000D100D4800F045FB98B104EB84042401B1
:10D4F400A4B2A408BE7078603C8025B1082E02D185
:10D50400A400063C84800020BDE8F8830E20BDE81A
:10D51400F8830320BDE8F8834C30002038B5FFF7CA
:10D5240029FE054660B1406810B1FFF79EFD28B999
:10D5340000242846FFF75CFE204638BD0324F8E7A4
:10D544000524F9E773B502AD002445F8044D0646F9
:10D554002946FFF7FDFD58B93CB93046FFF7E6FD13
:10D56400044610B1072818BF0324204602B070BD3A
:10D5740081783046FFF7D2FF10B1052818BF032485
:10D58400019B0133019329463046E2E7CB1F012B6F
:10D5940073B50E4621D8FFF7EDFD0446F8B1456892
:10D5A400FDB9417B104800F0E4FA009501958DF82F
:10D5B400026078B1237B019003EB83039B006846F0
:10D5C400ADF80030FFF700FE211D6846FFF736FD79
:10D5D400092800D1032002B070BD0720FBE7052015
:10D5E400F9E70020F7E700BF4C30002038B5CB1F27
:10D5F400012B0C46154608D8FFF7BCFD38B1058051
:10D604008470BDE83840FFF715BE072038BD0520FB
:10D6140038BDFFF798BDFFF798BD13B5148802AB6A
:10D62400A40043F8044DFFF79FFC02B010BD13465D
:10D634000022FFF728BD10B54FF6FF7304469C4245
:10D6440008460AD14FF4807100F038FBB0F5807FB2
:10D65400044609D14FF6FF7406E0FF2CFAD82146A0
:10D6640000F0EAFA0028F5D0204610BD10B5094CA8
:10D6740040220021204601F043FE20464FF48071F1
:10D6840000F0D3FA04F120004FF48071BDE810409B
:10D6940000F0CBBA7D3000200149FFF7CCBF00BFBA
:10D6A4007D3000204FF6FF73984210B5044606D033
:10D6B4000449FFF7C0FF231A5842584110BD002007
:10D6C40010BD00BF9D300020FF2810B5044609D8C6
:10D6D4000146054800F0D5FA21460448BDE810404B
:10D6E40000F0CFBA10BD00BF7D3000209D30002077
:10D6F400FF28014602D8024800F014BB00207047FE
:10D704007D300020FF28014602D8024800F00ABB01
:10D71400002070479D30002038B54FF6FF739842C3
:10D7240018BF01300D4614BF84B20024FF2C03D966
:10D734004FF6FF74204638BD2146284600F0F2FA21
:10D744000028F7D10134A4B2F0E7000070B50B490A
:10D754000A4EFFF7E1FF4FF6FF750446AC4201D1D4
:10D76400204670BD2046FFF7CDFF0028F8D02046A4
:10D774003146FFF7D1FF0446F0E700BF7D300020BB
:10D784000149FFF7C9BF00BF9D300020F8B5074D20
:10D79400074F064600242B789C4200DBF8BD57F85F
:10D7A4002430304698470134F5E700BFD7300020D5
:10D7B400C8300020074B1B7810B504464BB1FFF767
:10D7C400BBF8204600F0FEFF2046BDE81040FEF7FF
:10D7D40081BD10BDD630002008B1FFF7D7BF704718
:10D7E400FFF7D4BFFFF7D2BF08B5FFF78BFB08B133
:10D7F400032008BDFFF7E2FD0028F9D100F0BCFFCB
:10D804000028F5D100F080FB0028F1D1FEF734FDAB
:10D814000028EDD1FEF7ECFD0028E9D1FEF77CFFEE
:10D824000028E5D1054B4FF6FF721A80044B1860AF
:10D83400044B1870044B01221A7008BDD430002028
:10D84400DC300020D8300020D6300020084B1B7874
:10D8540053B1084A1378022B08D8074941F823002A
:10D86400013313700020704708207047042070476C
:10D87400D6300020D7300020C8300020034B1B785E
:10D884000BB100F0AFBF0820704700BFD6300020B6
:10D8940009B100F0C5BF7047034B1B780BB1FEF70D
:10D8A400E1BF0820704700BFD630002070B51A4B86
:10D8B4001B7886B063B3194E01234FF6FF703370A3
:10D8C400FFF7A7FE4FF6FF739842054613D10024D5
:10D8D4001422214601A8347001F012FD0C2301A882
:10D8E4008DF80430ADF80850ADF80650FFF74EFF40
:10D8F400204606B070BD1E462846FFF7CDFF0446FD
:10D9040040B92846FFF785FEB0420546F4D1EFE75B
:10D914000824EDE70324EBE7D6300020C4300020D0
:10D924002DE9F04F1C462C4B1B7887B083468A4662
:10D934009146002B4DD04FF6FF70FFF76AFE00258D
:10D944000123049504AAADF81030062103AB064662
:10D9540003950593FFF761FE072836D04FF6FF784D
:10D9640043464FF0FF37E0B1052818D04FF6FF7259
:10D9740096422CD1BBF1000F01D0ABF80030BAF1C4
:10D98400000F01D0CAF80050B9F1000F01D0A9F876
:10D99400008004B12760002007B0BDE8F08F0022AA
:10D9A4000392039AAA4224BF334615463046BA422C
:10D9B4003CBFB04617460193FFF72BFE04AA06218D
:10D9C4000646FFF72AFE019BCDE70520E4E7032086
:10D9D400E2E70820E0E700BFD630002008B50023C6
:10D9E4001A4606490648FFF79BFF28B1431F5842D1
:10D9F4005841044B187008BD0120FAE7C0300020DC
:10DA0400D4300020D8300020F0B5044687B0808898
:10DA1400FEF7C4FE23786080083B032B20D8DFE8A0
:10DA240003F002213166637A5BB93F4A116851B150
:10DA3400E068814207D113603C4AA1881180E36009
:10DA44000EE0012B0CD13A4B1B784BB1374BA2881B
:10DA54001B889A4204D1237A062B01D1FFF7BEFF1B
:10DA640020465DE0637A002BFAD12F4A1168002921
:10DA7400F6D0E0688142F3D12E4913600A68013A76
:10DA84000A60DCE72C4F3B7873B90125284B1B78DF
:10DA940033B1264BA2881B889A4201D1FFF79EFF1F
:10DAA400002DDDD107B0F0BD4FF6FF70FFF7B1FDDB
:10DAB4004FF6FF7398420546E7D1FFF7ACFDA84245
:10DAC4000646E2D100251422294601A83D7001F042
:10DAD40017FC0C2320468DF80430ADF80860ADF82F
:10DAE4000660FFF753FE01A8FFF750FECEE7124B86
:10DAF4001A78002AB4D00021142201A8197001F068
:10DB0400FFFB0D238DF804304FF6FF73ADF808309A
:10DB1400ADF806302046A3680393FFF737FE01A84B
:10DB2400FFF734FEBEE700BFDC300020D430002015
:10DB3400D8300020C0300020C430002070B5059CCF
:10DB4400069DA0B199B193B105FB04F696420ED897
:10DB5400049AE61DB2EBD60F09D344B13DB180E877
:10DB64003A001846A1B200F060F8002070BD07200A
:10DB740070BD38B50C46054608B9002038BD0368A9
:10DB8400002BFAD040680028F7D0FF29F5D000F028
:10DB9400C9F80028F1D0EB68286803FB040038BDFD
:10DBA40038B5054680B1036873B1406860B1FF2998
:10DBB4000AD08CB2214600F0B5F828B12146686835
:10DBC400BDE8384000F05DB838BD2DE9F041884625
:10DBD400064618B9FF242046BDE8F0810368002BEF
:10DBE400F8D04368002BF5D00027FF24B368FDB2BA
:10DBF400AB42EFD92946706800F01EF840B1FF2C03
:10DC040008BF2C462D1B01354545E4D00137EDE70F
:10DC1400FF2C07D1FF24F9E721463046FFF7C0FF68
:10DC24000134E4B2A542F7D8F4E720B1CA1DD210FA
:10DC3400002101F065BB70472DE9F3410546D0B1E1
:10DC4400CF0801F007044FF0010808FA04F4C65D98
:10DC5400E4B2264013D102A800F8016DF9F700FEE2
:10DC6400EB5D9DF807001C4205BF1C43EC5535468F
:10DC74004546F9F719FE284602B0BDE8F0810025B3
:10DC8400F9E773B5C1F3C706012501F007018D401B
:10DC9400EAB2044680B1835D1A420DD002A8002383
:10DCA40000F8013DF9F7DCFDA15D9DF8070021EACC
:10DCB4000505A555F9F7F8FD02B070BD2DE9F74F3C
:10DCC4000E46824620B9B046404603B0BDE8F08F08
:10DCD4004FF0000901274E451FFA89F8F3D04FEAA7
:10DCE400D80B08F0070407FA04F41AF80B50E4B24E
:10DCF400254002D009F10109EDE70DF107008DF887
:10DD04000750F9F7ADFD1AF80B309DF807001C42D7
:10DD140002BF1C430AF80B400125F9F7C5FD002D8D
:10DD2400E8D0D1E758B1CB0801F00701C25C012368
:10DD340003FA01F10A4214BF18460020704701207B
:10DD440070477EDF70477FDF704786DF7047037858
:10DD5400182B10B5044602D1FEF7DEF8207010BD72
:10DD640010B504464088FEF7F1FCA0802046BDE8CB
:10DD7400104000F0A1BC10B586B004461422002166
:10DD840001A801F0BDFA04230DEB03008DF8043063
:10DD9400ADF80640FFF7E4FF06B010BD30B587B01C
:10DDA40005460C461422002101A801F0A9FA072314
:10DDB40001A88DF80430ADF806500394FFF7D0FFA6
:10DDC40007B030BDF0B587B004460F4616460021B3
:10DDD400142201A81D4601F093FA03238DF80430A0
:10DDE400094BADF80640002219788DF80C702046D6
:10DDF400ADF80E608DF81050FEF7B0F801A8FFF7EB
:10DE0400AFFF07B0F0BD00BFC722002030B5144BF0
:10DE14000A1C87B00C4618BF012219780546FEF784
:10DE24009DF8631E5A425A410E4B28461978FEF754
:10DE340095F80D4B284619780022FEF78FF8142226
:10DE4400002101A801F05CFA012301A88DF8043037
:10DE5400ADF806508DF80C40FFF782FF07B030BDD7
:10DE6400CA220020C8220020C92200201F4B2DE90D
:10DE7400F0410E46197804461746FEF757F8014656
:10DE840080B32046FEF762FC194B054619782046FC
:10DE9400FEF74CF8174B00281978204614BF4FF0B2
:10DEA40001084FF00208FEF741F850B12846FEF78A
:10DEB400D9FC3B46324641462046BDE8F041FFF7D7
:10DEC40081BF4FF6FF739D42F3D007212846FFF729
:10DED40025FB01460028ECD00528EAD02046FFF7B0
:10DEE4005DFFE6E73B463246E6E700BFCA22002074
:10DEF400C8220020C9220020024B0A781978FEF7B4
:10DF04002DB800BFC62200202DE9F041DFF864805F
:10DF1400144F154E154D164C4046FFF718FF384662
:10DF2400FFF715FF3046FFF712FF2846FFF70FFFF4
:10DF34002046FFF70CFF98F80030182B0FD03B78E1
:10DF4400182B0CD03378182B09D02B78182B06D02B
:10DF54002378182B0CBF03200020BDE8F081032098
:10DF6400BDE8F081CA220020C8220020C922002076
:10DF7400C6220020C72200202DE9F04F8BB0934623
:10DF840006468846FDF7AAFF554C074621783046D9
:10DF9400FDF7CCFF20228246002102A801F0B0F94F
:10DFA400012FA1460CD14F4B002219783046FDF7C2
:10DFB400D5FFB8F1000F0CD185274FF6FF7540E06F
:10DFC400002F5AD0B8F1000F03D185274FF6FF7503
:10DFD4000DE098F80030DB070CD4434BCDF814B0B7
:10DFE40009934FF6FF75012F4FF0000729D002ABBC
:10DFF400002228E03046FEF7A9FB4FF6FF73984253
:10E00400054604460CD1FFF711FAA042054637D164
:10E014000324BAF1000F2CD02846FEF723FC28E095
:10E02400012F2FD12F4C30462178FDF77FFF48BBBD
:10E034003046FFF7A0FE21783046FDF777FF08BB96
:10E04400852702AB424639463046FFF77CFE04463C
:10E054000028DED1002FDCD1BAF1000F09D099F8E5
:10E06400001030460122FDF779FF29463046FEF7BD
:10E07400EBFB20460BB0BDE8F08F43F20204F8E757
:10E084004FF0010A6B46012207212846FFF7D4F915
:10E0940011280446BDD0002CBAD121465022019843
:10E0A40001F02EF901990B46304603F8347B0293B4
:10E0B40001F1180306934B1C079311310A4BCDF859
:10E0C40014B00993FEF752FB0028A1D1072128467A
:10E0D400FFF75CFA052804469AD0002899D182E714
:10E0E400C9220020C6220020E030002038B50546B1
:10E0F4000C46FDF7F3FE012806D144B1214628461B
:10E10400BDE83840FFF71DBE43F2020038BD20468B
:10E1140038BD00002DE9F0410388113B88B0044666
:10E12400092B71D8DFE813F00A0070001F004700C4
:10E13400700070007000700097001201037A8588E7
:10E144003D2B994B2846197841F23D0418BF4FF4F2
:10E154008854FDF7EBFE002856D0002221462846BD
:10E16400FFF784FE50E08088FDF7B8FE01280246E0
:10E174000FD1237AA58813F0010F8B4B14BF01260E
:10E18400022619782846FDF7E9FE31462846FFF7AE
:10E194003DFE34F8045F1422002103A801F0B0F816
:10E1A400043405238DF80C30ADF80E50059403A803
:10E1B400FFF7D6FD28E000F110063046FEF723FBFA
:10E1C4004FF6FF7398420546A08820D1FEF7BEFAA9
:10E1D4000546754BA788197801223846FDF7BEFE1F
:10E1E40000213846FFF712FE4FF6FF739D4212D10D
:10E1F4000025002329461A46A088FFF7A6FD0146FC
:10E20400F8B1A088FFF7CAFD08B0BDE8F08129463F
:10E21400FEF71AFBDDE703AA07212846FFF708F9F2
:10E224000028E5D1049D95F84430DB0701D5343549
:10E23400DFE7314605F14600FEF7D1FA0028F6D1B2
:10E24400D6E7002DE0D1A0882B4641F206022946EC
:10E25400FFF7B8FDD8E7057A534F8688002D67D1BC
:10E264003046FEF773FA397880462A463046FDF781
:10E2740075FE637A13F004074DD0072101AB012228
:10E284004046FFF7D9F8014690B13046FFF786FDC6
:10E2940002238DF80C30637AADF80E6013F0040F8E
:10E2A40014BF012302238DF814308DF815507EE736
:10E2B4004FF6FF710298FEF711FA4FF6FF7398427A
:10E2C400074664D0394D01463046FEF7BDFA297839
:10E2D4003046FDF72BFE002863D13046FFF74BFD97
:10E2E40029783046FDF722FE0546002859D1304BE7
:10E2F40030461978FDF71AFE0028C9D04046FEF7CB
:10E30400B1FAC5E73046FFF749FD00254FF6FF7324
:10E314009F42ECD1BCE7264B30461978FDF706FE48
:10E3240005460028B4D04046FEF79CFA3D46AFE7C8
:10E33400447A3978304604F00304FDF7F7FD0028E9
:10E344003FF462AF22462946304609E7194B8088DC
:10E354001978FDF7EBFD054600287FF455AFA0883A
:10E36400FDF7CCFD0146A08819B9012341F206024C
:10E374006EE70D4B2A461978FDF7F0FD02238DF860
:10E384000C30A388ADF80E308DF814508DE742465A
:10E3940007214046FFF72AF901460028B2D101259A
:10E3A400B4E73A46F4E700BFC7220020C6220020A3
:10E3B400C9220020CA220020002242608260024A50
:10E3C40012680260704700BF2C31002060B30278ED
:10E3D40002F08203802B26D0C2F30213042B22DC2A
:10E3E40002F0F203322B1ED04178837899421AD876
:10E3F400062918D9102B16D8C17811F0040312D1AC
:10E40400007943070FD4084303070CD412F0010F1B
:10E4140000F0030003D1B0FA80F0400970470030E7
:10E4240018BF0120704700207047FFF7D5B9037863
:10E43400182B10B5044602D1FDF76EFD207010BDF7
:10E4440070B586B006460C4615460021142201A874
:10E4540000F056FF3046ADF80660FEF777F90D2C54
:10E46400ADF8080019D103238DF804309DB12B7841
:10E4740013F0010F0CBF022301238DF80C3000238D
:10E484008DF8103041F20113ADF80E3001A8FFF7FA
:10E49400CCFF06B070BD0223EFE7862C0BBF06232A
:10E4A40007238DF804308DF8043018BF0394EDE78A
:10E4B4002DE9F047054688B091469A460F46002953
:10E4C4003ED16846FFF778FF052628468DF80C6094
:10E4D400ADF80E50FEF73AF9ADF8100003A8059711
:10E4E400CDF818D0FFF7A1FF354B1B781BB99DF869
:10E4F4000930002B3FD0DDF800804A4641462846CB
:10E50400FFF7F4FD862804461DD0A0F111035E42F6
:10E514005E4100222B4B28461978FDF71FFD2A4B3C
:10E52400324619782846FDF719FD0D2C06D00DD872
:10E53400082C03D00B2C01D0002C36D1264635E014
:10E544004FF00008D9E700260122E3E7862C16D015
:10E5540043F202039C42F1D0112C26D11B4B3A46C4
:10E5640019782846FDF7FAFC194B4A4619782846CB
:10E57400FDF7F4FC0026304608B0BDE8F087134BE5
:10E584003A4619782846FDF7E9FC114B4A461978B2
:10E594002846FDF7E3FC2646BAF1000FEBD04246CD
:10E5A40021462846FFF74CFFE5E70326BAF1000FA2
:10E5B400E1D034F00803DED0112CF0D1DBE700BF4A
:10E5C40029310020CE220020CD220020CC220020A0
:10E5D400CB220020094B70B519780446FDF7A6FC40
:10E5E400074B054619782046FDF7A0FC2A4601464C
:10E5F40001232046BDE87040FFF75ABFCB2200201C
:10E60400CC22002070B588B0044668460D46FFF75A
:10E61400D3FE052320468DF80C30ADF80E40FEF7EE
:10E6240095F8ADF8100003A80595CDF818D0FFF7BC
:10E63400FCFE1A4B00991A682046FFF79DFC8628B9
:10E64400054627D0A0F111035E425E410022144B1F
:10E6540020461978FDF782FC124B32461978204681
:10E66400FDF77CFC104B002219782046FDF776FC60
:10E674000E4B002219782046FDF770FC35F0080394
:10E6840006D0112D04D0009A29462046FFF7D8FE63
:10E6940008B070BD00260122D9E700BF2031002058
:10E6A400D0220020CF220020CE220020CD22002024
:10E6B4000021FFF7A7BF00000378052B10B504461F
:10E6C40006D0122B0AD02046BDE81040FFF7ADBE9D
:10E6D40081684088BDE81040FFF794BF0C4B1B686D
:10E6E4009BB10C4B1978037A01F001029A420CDBBE
:10E6F400437AC1F340019942ACBF002101210123B7
:10E7040000226088FFF7D4FEDDE70121F7E700BFB0
:10E714002C3100202431002008B50378082B1DD3A8
:10E724000B2B0DD9132B19D10D4B0E491878002240
:10E73400FDF732FC0C4B0D4918780022FDF72CFC38
:10E744000B4B084918780022FDF726FC094B0749B2
:10E7540018780022BDE80840FDF71EBC08BD00BFC4
:10E76400D0220020B5E60200CE220020D9E5020026
:10E77400CF220020CD22002010B50C480C4CFFF70E
:10E7840056FE0C48FFF753FE0B48FFF750FE0B48AC
:10E79400FFF74DFE0A48FFF74AFE2046FFF747FE03
:10E7A4002378182B0CBF0320002010BDCD2200209D
:10E7B400D0220020CE220020CB220020CC22002018
:10E7C400CF22002008B5FFF7A5FC044B04491878B4
:10E7D4000022BDE80840FDF7DFBB00BFCD220020CA
:10E7E400D9E5020010B5044630B90A4B18600A4B4B
:10E7F40001221A70002010BDFFF7E8FD38B1074B65
:10E8040022681A6022791A71024A1360EFE707201E
:10E8140010BD00BF2C3100202931002024310020FC
:10E82400FFF76ABBA8DF7047AEDF7047B0DF704701
:10E8340062DF70473CDF70473DDF70477FB50446B9
:10E8440038B10388502B5AD005D8102B17D0112B70
:10E8540019D004B070BD512B1DD0532BF9D1334DB9
:10E86400C288EB889A42F4D16B7E002BF1D000F081
:10E87400DBF90028EDD06B6902209847E9E782882C
:10E884002A4B9A80E5E7294B81889A889142E0D106
:10E894004FF6FF72F5E7254D8288AB889A42D8D1AE
:10E8A4008679022ED5D10289EB889A42D1D1837B15
:10E8B400043B022BCDD910220021684600F020FD34
:10E8C4002B7E8DF80060BBB19DF8063043F0010348
:10E8D4008DF806300023ADF804306946A888FFF7A8
:10E8E400A5FF1128F9D0BDF80430002BB1D104F1F3
:10E8F400080000F039F9ACE740F2FD13EBE70B4DEB
:10E90400C2886B899A42A4D1038A022BA1D1123006
:10E91400FDF75EFB064B28761B8806491B0402465E
:10E9240043F00300F8F780F893E700BF303100208C
:10E93400342200204402030030B587B005460C465B
:10E944001022002102A800F0DBFC0323ADF8023002
:10E9540020238DF804300F4B8DF80550DA88ADF87C
:10E96400082002228DF80A200022ADF80C200DF1B7
:10E974000202049202A901AA98888DF80640059221
:10E98400FFF752FF20B9BDF80230032B18BF0C204B
:10E9940007B030BD3031002010B54FF0FF310020FA
:10E9A400FFF74AFF044658B9B121FFF743FF044675
:10E9B40030B9044B01205B6998470220FAF7E4FD63
:10E9C400204610BD30310020F0B51A4B87B002AAA2
:10E9D400064603F11007154618685968144603C41F
:10E9E4000833BB422246F7D116B3134C4FF6FF73DC
:10E9F400A38033686361204600236376237600F0A6
:10EA040051F898B906A94FF65963012021F8143D2D
:10EA1400A21C8DF80600FFF705FF38B921462846E9
:10EA2400FFF706FF10B9204600F056F807B0F0BD16
:10EA34000E20FBE73402030030310020AADF7047C8
:10EA44004FF0030C00DF704714490B6810B523B373
:10EA54004B68F3B910BD124C236858B9987601215C
:10EA64000220FFF769FFC0B123685B690320BDE89A
:10EA74001040184700229A7606210220FFF75CFF17
:10EA840018B1236803205B699847236802205B69F7
:10EA9400EDE7083198470828DDD110BD6C3100201E
:10EAA4006831002018B1034B1860002070470E2015
:10EAB400704700BF6831002008B5FCF781FB38B906
:10EAC4000448FFF7BDFF18B9BDE80840FCF7A6BB32
:10EAD40008BD00BF6C31002010B590B004461C2264
:10EAE400002109A800F00CFC1422002104A800F065
:10EAF40007FC0122134662F307138DF80430134612
:10EB040062F307138DF805304FF0000362F34203FC
:10EB14008DF8063028238DF8243001AB0E9323465C
:10EB2400608813F8061B8DF80E100321ADF80C1045
:10EB3400114662F307118DF80810114662F30711AC
:10EB4400924042F011028DF80A2003AA049202AA0C
:10EB5400059217228DF80910ADF81C2009A904AA02
:10EB6400FFF76CFF10B010BD70B50546007B294C53
:10EB740001280ED0022825D00221287BFFF7DCFED5
:10EB840018B1236803205B699847236802205B69F6
:10EB94000AE023689E7E56B10621FFF7CDFE0028C9
:10EBA40037D023685B690320BDE870401847587666
:10EBB4000146FFF7C1FE60B3236811285E7624D1B5
:10EBC4000621DAE76A7B531E132B20D8124E05F177
:10EBD4000E01301D00F06AFB6B7BB36123689B7EE2
:10EBE4009BB90E49304651F8083B984718B9236839
:10EBF40001229A7670BD0F2807D1094B094918885C
:10EC0400000440F00100F7F70BFF0421B5E70521EC
:10EC1400B3E770BD683100204C3100206C31002016
:10EC2400342200206102030008B5044B1B68002055
:10EC34005B699847BDE80840FFF7AEBE6831002025
:10EC440010DF704711DF704713B504460949684661
:10EC5400FAF700FD019808B902B010BD03684168D5
:10EC64002046984718B16846FAF7FEFCF2E71120EF
:10EC7400F2E700BF3403030013B5044607496846AE
:10EC8400FAF7E8FC019B0BB902B010BD20461A68E4
:10EC9400596890476846FAF7E7FCF3E74C0303002A
:10ECA400064B9A6822B11A6822F480021A607047EF
:10ECB400034B4FF48002C3F8802070478029002062
:10ECC40000E100E00C4A92F816335B09012B01D9EC
:10ECD400042B08D142F20200F8F7DCBA1A6842F4B5
:10ECE40080021A607047054B99680029F6D14FF4E9
:10ECF40080031360704700BF00E100E0802900201A
:10ED0400F7B5184F3C785CBB174E0125204635708B
:10ED1400FFF79AFF112820D02046FFF7ADFF134BD1
:10ED24001868019002A800F8054DF8F799FD1049FC
:10ED340001A8FFF785FF0446B0FA80F04009387057
:10ED44009DF80300F8F7B0FD3CB90A4B34701C7011
:10ED5400FFF7B8FF2846FFF78FFF204603B0F0BD4A
:10ED64000824FAE779310020783100202F030300CA
:10ED7400B57202007A310020F7B5154F3B7813B312
:10ED8400144E01203070FFF75FFF11284FF000058B
:10ED94001BD00220FFF770FF02A800F8015DF8F70E
:10EDA4005FFDFFF74FFF04469DF807003D70F8F73D
:10EDB4007BFD2CB93470FFF773FF0320FFF75CFF72
:10EDC400204603B0F0BD0824FAE72C46F8E700BF5C
:10EDD4007931002078310020054B1B7833B1054B85
:10EDE4001B780BB1FFF7C8BFFFF78ABF0820704735
:10EDF4007831002079310020014B1878704700BF2A
:10EE04007931002007B508496846FAF723FC019BCD
:10EE140013B903B05DF804FB58681A689047684654
:10EE2400FAF722FCF3E700BF40030300FFF7EABF51
:10EE340060DF704769DF704761DF704730B5114BA1
:10EE44001B7891B0E3B1104D34240DF1020103A8F5
:10EE5400ADF80240FFF7F0FF70B9294601A8FAF7B0
:10EE6400F9FB029B002BF0D003A81A68596890475D
:10EE740001A8FAF7F9FBF4E7052801D0F8F70AFA34
:10EE840011B030BD7B3100208C05030030B5054640
:10EE940085B00C46002900F093804B4B0B600C228C
:10EEA400002101A800F02CFA01238DF80630226815
:10EEB4008DF80450062301A92020ADF80830FFF78F
:10EEC400B9FF58B1414B1D88FAF7F8FB2D0445F002
:10EED400010502463E492846F7F7A6FD0C2200210B
:10EEE40001A800F00DFA01238DF8053022680023F3
:10EEF40001A940208DF806308DF80730FFF79AFFFE
:10EF040058B1324B1D88FAF7D9FB2D0445F00105A1
:10EF1400024630492846F7F787FD0C22002101A854
:10EF240000F0EEF9012022688DF8040001A9FFF732
:10EF340081FF58B1254B1D88FAF7C0FB2D0445F01D
:10EF44000105024624492846F7F76EFD0C220021EC
:10EF540001A800F0D5F94FF4B0632268019301A928
:10EF6400A120FFF767FF58B1184B1D88FAF7A6FBDD
:10EF74002D0445F00105024618492846F7F754FDCB
:10EF84000C22002101A800F0BBF99DF8043022688E
:10EF940043F0010301A9A0208DF80430FFF74AFFD4
:10EFA40080B10A4B1C88FAF789FB240444F001045D
:10EFB40002460B492046F7F737FD002005B030BD67
:10EFC4000E20FBE7FAE700BF202200205422002095
:10EFD40060030300A6030300F20303003E040300DE
:10EFE4008F040300F8B504460768FFF721FF236880
:10EFF4009F42054620D21A4E1A493088000440F038
:10F004000200F7F70DFD30882368174900043A46DB
:10F0140040F00200F7F712FD4FF080533088D3F828
:10F024000C31226811499B0203F1005300049A1A1F
:10F0340040F00200F7F7F8FC25B90D4B01221A70D5
:10F044002846F8BD064B28461C88FAF737FB2404EB
:10F0540044F00104024607492046F7F7E5FCEFE7D0
:10F0640054220020E20403001105030042050300BA
:10F074007B3100206C0503004BDF70471FB50D4C3E
:10F0840001A8FFF7F9FF70B9214602A8FAF7E2FADE
:10F09400039B002BF4D001981A685968904702A882
:10F0A400FAF7E2FAF4E7052801D0F8F7F3F804B028
:10F0B40010BD00BFA4050300B2F120030AD5C2F1BC
:10F0C400200301FA02F120FA03F341EA030100FAF2
:10F0D40002F0704700FA03F14FF00000704700BFE0
:10F0E40053EA020C61D02DE9F04BB3FA83F51E000C
:10F0F40007BFB2FA82F502FA05F403FA05F41646DC
:10F10400C5F120051EBF22FA05F73C43203556EA17
:10F11400044C4FEA144418BF0134A3464FF00009CD
:10F12400C846904271EB030C39D3094207BFB0FAC9
:10F1340080F700FA07F6B1FA81F701FA07F6C7F18A
:10F1440020071EBF20FA07FC46EA0C062037B6FB50
:10F15400FBFC7F1B103F07F01F04C4F120060CFAD0
:10F1640004F42CFA06F644BF34460026202FA4BF2C
:10F174002646002454EA060C08BF012418EB0408B0
:10F1840049EB0609A4FB027CC01B06FB02CC04FB72
:10F1940003CC71EB0C01904271EB030CC5D20B460E
:10F1A400024649464046BDE8F08BB2FBF3F200BF8D
:10F1B4007F2805D8034B185C034B5B5C18407047F1
:10F1C40000207047BC0503003C060300A0F1610366
:10F1D400192B98BF20387047A0F14103192B98BF11
:10F1E400203070477F2805D8034B185C034B5B5CC9
:10F1F4001840704700207047BC0503003C0603001C
:10F20400A0F16103192B98BF20387047A0F1410386
:10F21400192B98BF203070477F299ABF01700120B5
:10F224006FF02E0070475AB10A787F2A0AD800B1CD
:10F234000260002119605960501A18BF01207047FC
:10F24400002070476FF02E007047000008B5034B94
:10F254005B689B681B68984708BD00BFD4220020E8
:10F2640008B50921FFF7F2FF08BDE2B170B4561EDC
:10F2740015D002780B789A4213D1431C013106440D
:10F2840018460A46B34205D0013301310578147893
:10F29400A542F5D000781378C01A70BC70470A46AE
:10F2A400F8E70A46F6E7002070470000844640EA83
:10F2B400010313F0030F18D18446202A0BD32DE940
:10F2C400F007B1E8F807A0E8F807A2F12002202A25
:10F2D400F7D2BDE8F007042A07D351F8043B40F8FD
:10F2E400043BA2F10402042AF7D2002A05D011F843
:10F2F400013B00F8013B013AF9D16046704700BF79
:10F304008446002A2DD010F0030F04D000F8011B0E
:10F31400013A26D0F7E7C9B241EA012141EA0141A5
:10F32400202A12D3A2F120022DE9F0030B460C4649
:10F334000D460E460F4688468946A0E8FA03203A51
:10F34400FBD2BDE8F00320320BD0042A05D340F8E9
:10F35400041B043A05D0042AF9D200F8011B013A2F
:10F36400FBD16046704700BF00F1010110F0030FAC
:10F3740011D010F8012B002A23D010F0030F0AD06B
:10F3840010F8012B002A1CD010F0030F03D010F842
:10F39400012B002A15D02DE970004FF001324FF0F7
:10F3A400803350F8044BA4EB020525EA04051D4004
:10F3B40000D1F6E7A0F1040070BC10F8012B002A7C
:08F3C400FBD1A0EB0100704732
:10F3CC00FDBD020000000000E5AB020000000000E3
:10F3DC005BBA0200F82C0020C9CA0200B02D002034
:10F3EC0049BC020000000000B9D702000000000078
:10F3FC00CFCC0200C42D002041E8020030310020A7
:08F40C00FDAC0200000000004D
:10F41400FD910200000000001997020000000000A6
:10F42400C1BA0200F82C00204DEA020000000000DE
:04F4340061AD0200C4
:10F43800FCFD02000000000002FE020000000000C7
:10F4480009FE0200000000000DFE0200000000009E
:10F4580012FE02000000000091F502000000030304
:10F46800D8F8020000000003BCF602000000000308
:10F4780095F5020000000003F6FD02000000000000
:10F4880017020300000003039CF8020000000303B6
:10F49800580303000000030398050300000003035A
:10F4A800B005030000000303F8F8020000000000A4
:10F4B8002C230020F4230020FC23002034230020E8
:08F4C8004022002018000000A2
:10F4D000A5920200000000009597020000000000C5
:08F4E000EDAD02000000000088
:10F4E80041EE02000000000081F002000000000070
:08F4F800DD900200000000009D
:10F5000000000000000000000000000000000000FB
:10F5100000000000000000000000000000000000EB
:10F5200000000000000000000000000000000000DB
:10F5300000000000000000000000000000000000CB
:10F5400000000000000000006981020000000000CF
:04F5500000000000B7
:10F55400FFFFFFFFFFFFFFFFFFFFFFFFFFFFFFFFB7
:10F5640000000000000000000000D60107010000B8
:10F5740051640200B5640200016402004261636BDD
:10F58400656E647320666C75736865640061707081
:10F594000062616C6C6F632E6C6F675F6D656D707C
:10F5A4006F6F6C00FBF5020024F60200DBF502002D
:10F5B4002CF6020034F602003CF6020044F6020087
:10F5C4004CF6020054F60200202530327800202048
:10F5D40020007C002563001B5B313B33316D00252B
:10F5E400734C6F67732064726F7070656420282594
:10F5F400642925730D0A001B5B306D002573003CE4
:10F6040025733E2025733A2000000000000000000E
:10F6140082F602005CF6020064F6020069F602005B
:10F624001B5B313B33306D001B5B313B33326D0070
:10F634001B5B313B33336D001B5B313B33346D005B
:10F644001B5B313B33356D001B5B313B33366D0047
:10F654001B5B313B33376D007761726E696E6700F7
:10F66400696E666F006465627567000B0C18190D8E
:10F674000E0F100028280020466174616C2065720A
:10F68400726F720053797374656D2072657365745B
:10F694000000000000000000000000000338FDD856
:10F6A400704700000000FFFFDEC0ADDEFE011EF16A
:10F6B400DEC0ADDEFF011EF161746669666F2E6DFA
:10F6C4005F717565756500303132333435363738DE
:10F6D400394142434445466E72665F6673746F7285
:10F6E4006167655F696E6974006E72665F667374E4
:10F6F4006F726167655F7772697465006E72665FC9
:10F704006673746F726167655F65726173650061CA
:10F714006464725F69735F706167655F616C696778
:10F724006E656428705F66732C20706167655F6125
:10F734006464722900616464725F69735F776974D9
:10F7440068696E5F626F756E647328705F66732C90
:10F7540020706167655F616464722C20286C656E3B
:10F76400202A20705F66732D3E705F666C6173683B
:10F774005F696E666F2D3E65726173655F756E6954
:10F7840074292900705F66730025732063686563BC
:10F794006B206661696C656420696E202573282975
:10F7A40020776974682076616C75652030782578D7
:10F7B4002E00705F64657374006C656E0061646430
:10F7C400725F69735F616C69676E65643332287355
:10F7D40072632900616464725F69735F7769746836
:10F7E400696E5F626F756E647328705F66732C2038
:10F7F4007372632C206C656E2900705F66732D3EF6
:10F80400705F61706900705F7372630021286C65BA
:10F814006E202520705F66732D3E705F666C617389
:10F82400685F696E666F2D3E70726F6772616D5F9F
:10F83400756E69742900616464725F69735F616CD9
:10F8440069676E6564333228646573742900616482
:10F8540064725F69735F616C69676E6564333228D3
:10F864002875696E7433325F7429705F737263290B
:10F8740000616464725F69735F77697468696E5F5D
:10F88400626F756E647328705F66732C2064657391
:10F89400742C206C656E29006E72665F6673746FDB
:10F8A40072616765000000000010000004000000A1
:10F8B400010000002191020001910200F190020078
:10F8C40031930200E5920200C5900200C990020043
:10F8D400CD90020061746669666F2E6D5F6669661D
:10F8E4006F000000502B002034F4020038F40200B2
:10F8F400040000007077725F6D676D7400556E6B65
:10F904006E6F776E206572726F7220636F6465002C
:10F91400000000003CFA02000100000048FA020066
:10F924000200000066FA02000300000087FA0200E9
:10F93400040000009AFA020005000000ABFA02007D
:10F9440006000000BFFA020007000000D7FA020018
:10F9540008000000EFFA02000900000007FB0200A3
:10F964000A00000020FB02000B00000038FB02002C
:10F974000C0000004FFB02000D00000063FB0200BE
:10F984000E00000075FB02000F00000084FB020063
:10F994001000000098FB020011000000AFFB020001
:10F9A40012000000BEFB020013000000D3FB0200A3
:10F9B40080000000E7FB02008100000008FC020058
:10F9C4008200000024FC02008300000040FC0200CE
:10F9D400840000005EFC0200850000007FFC020041
:10F9E40086000000A4FC020090000000BBFC0200A2
:10F9F40091000000D9FC020092000000F7FC020014
:10FA0400008200000CFD0200018200002AFD0200B9
:10FA14000282000046FD02000084000062FD020034
:10FA24000184000086FD020002840000B0FD020093
:10FA340003840000D5FD02004E52465F53554343F4
:10FA4400455353004E52465F4552524F525F5356F0
:10FA5400435F48414E444C45525F4D495353494ED0
:10FA640047004E52465F4552524F525F534F4654E1
:10FA74004445564943455F4E4F545F454E41424CC1
:10FA84004544004E52465F4552524F525F494E54D0
:10FA940045524E414C004E52465F4552524F525FC2
:10FAA4004E4F5F4D454D004E52465F4552524F52A8
:10FAB4005F4E4F545F464F554E44004E52465F458D
:10FAC40052524F525F4E4F545F535550504F525401
:10FAD4004544004E52465F4552524F525F494E567E
:10FAE400414C49445F504152414D004E52465F459E
:10FAF40052524F525F494E56414C49445F53544110
:10FB04005445004E52465F4552524F525F494E563D
:10FB1400414C49445F4C454E475448004E52465F61
:10FB24004552524F525F494E56414C49445F464CF0
:10FB3400414753004E52465F4552524F525F494E21
:10FB440056414C49445F44415441004E52465F453E
:10FB540052524F525F444154415F53495A45004EFB
:10FB640052465F4552524F525F54494D454F55548A
:10FB7400004E52465F4552524F525F4E554C4C0018
:10FB84004E52465F4552524F525F464F524249448D
:10FB940044454E004E52465F4552524F525F494EC5
:10FBA40056414C49445F41444452004E52465F45DD
:10FBB40052524F525F42555359004E52465F45527E
:10FBC400524F525F434F4E4E5F434F554E54004E7B
:10FBD40052465F4552524F525F5245534F5552431E
:10FBE4004553004E52465F4552524F525F4D4F446B
:10FBF400554C455F4E4F545F494E495449414C4919
:10FC04005A4544004E52465F4552524F525F4D553D
:10FC14005445585F494E49545F4641494C45440058
:10FC24004E52465F4552524F525F4D555445585FB0
:10FC34004C4F434B5F4641494C4544004E52465F4E
:10FC44004552524F525F4D555445585F554E4C4F97
:10FC5400434B5F4641494C4544004E52465F455232
:10FC6400524F525F4D555445585F434F4E445F4980
:10FC74004E49545F4641494C4544004E52465F4507
:10FC840052524F525F4D4F44554C455F414C524583
:10FC94004144595F494E495449414C495A454400ED
:10FCA4004E52465F4552524F525F53544F52414752
:10FCB400455F46554C4C004E52465F4552524F529A
:10FCC4005F4150495F4E4F545F494D504C454D453F
:10FCD4004E544544004E52465F4552524F525F4681
:10FCE4004541545552455F4E4F545F454E41424C39
:10FCF4004544004E52465F4552524F525F494F5F52
:10FD040050454E44494E47004E52465F4552524F6D
:10FD1400525F4452565F5457495F4552525F4F56A3
:10FD2400455252554E004E52465F4552524F525F15
:10FD34004452565F5457495F4552525F414E4143C6
:10FD44004B004E52465F4552524F525F4452565FEB
:10FD54005457495F4552525F444E41434B004E5203
:10FD6400465F4552524F525F424C455F4950535093
:10FD74005F52585F504B545F5452554E4341544563
:10FD840044004E52465F4552524F525F424C455FCB
:10FD9400495053505F4348414E4E454C5F414C528D
:10FDA400454144595F455849535453004E52465FA8
:10FDB4004552524F525F424C455F495053505F4C3D
:10FDC400494E4B5F444953434F4E4E45435445447B
:10FDD400004E52465F4552524F525F424C455F4976
:10FDE4005053505F504545525F52454A4543544530
:10FDF4004400636C6F636B00434C4F434B004750AC
:10FE0400494F5445005052530055415254005541F6
:10FE1400525445000B00030095A902000C00030096
:10FE240095A902001800030095A902001900030017
:10FE340095A90200702C0020902C0020B02C0020EA
:10FE4400506F776572206D616E6167656D656E7464
:10FE54002077616E747320746F20726573657420EB
:10FE6400746F20444655206D6F64652E00506F7783
:10FE74006572206D616E6167656D656E7420616C7D
:10FE84006C6F77656420746F207265736574207479
:10FE94006F20444655206D6F64652E004465766975
:10FEA400636520697320707265706172696E672082
:10FEB400746F20656E74657220626F6F746C6F610D
:10FEC400646572206D6F64652E00446576696365B0
:10FED4002077696C6C20656E74657220626F6F7434
:10FEE4006C6F61646572206D6F64652E005265717C
:10FEF4007565737420746F20656E74657220626F0B
:10FF04006F746C6F61646572206D6F6465206661E7
:10FF1400696C6564206173796E6368726F6E656F76
:10FF240075736C792E005265717565737420746FE6
:10FF34002073656E64206120726573706F6E7365E3
:10FF440020746F20636C69656E74206661696C65EA
:10FF5400642E00556E6B6E6F776E206576656E74D9
:10FF64002066726F6D20626C655F6466755F627592
:10FF740074746F6E6C6573732E004446553341314F
:10FF84003500427574746F6E6C6573732044465506
:10FF9400204170706C69636174696F6E2073746161
:10FFA400727465642E00457261736520626F6E64BD
:10FFB400732100436F6E6E656374656420746F20F3
:10FFC400612070726576696F75736C7920626F6EEB
:10FFD400646564206465766963652E00436F6E6EA4
:10FFE400656374696F6E20736563757265643A2026
:0CFFF400726F6C653A2025642C20636F4E
:020000023000CC
:100000006E6E5F68616E646C653A20307825782C7E
:100010002070726F6365647572653A2025642E00E6
:1000200053657474696E6720766563746F722074AB
:1000300061626C6520746F20626F6F746C6F6164B5
:1000400065723A20307825303878004661696C65F1
:10005000642072756E6E696E672073645F736F667D
:10006000746465766963655F766563746F725F74E7
:1000700061626C655F626173655F736574004E6F8A
:1000800020626F6F746C6F6164657220776173209A
:10009000666F756E640053657474696E672076656B
:1000A00063746F72207461626C6520746F206D617F
:1000B000696E206170703A20307825303878000001
:1000C00001000100D000030001000100D400030082
:1000D000010000000000000073645F626C655F67F0
:1000E00061705F646174615F6C656E6774685F7591
:1000F0007064617465282920287265717565737450
:1001000029206F6E20636F6E6E656374696F6E2059
:10011000307825782072657475726E656420257359
:100120002E0054686520726571756573746564206E
:1001300054582F5258207061636B6574206C656E43
:1001400067746820697320746F6F206C6F6E67200E
:1001500062792025752F2575206F63746574732E61
:1001600000546865207265717565737465642063F9
:100170006F6D62696E6174696F6E206F662054588E
:1001800020616E64205258207061636B6574206C2E
:10019000656E6774687320697320746F6F206C6F6D
:1001A0006E67206279202575206D6963726F7365B3
:1001B000636F6E64732E0073645F626C655F67616A
:1001C0007474635F65786368616E67655F6D74758D
:1001D0005F72657175657374282920726574757214
:1001E0006E65642025732E0073645F626C655F67C3
:1001F000617474735F65786368616E67655F6D7461
:10020000755F7265706C7928292072657475726EDD
:1002100065642025732E006E72665F626C655F6791
:10022000617474000DDA02001DE70200DDC30200F4
:10023000FDC1020050EADA308883B89F604F15F3A1
:100240000000C98E526563656976656420696E64D5
:1002500069636174696F6E207374617465202564CD
:100260000054686520626F6F746C6F616465722002
:100270006861732077726974652070726F7465634A
:10028000746564206974732073657474696E677330
:1002900020706167652E20546869732070726F68E2
:1002A00069626974732073657474696E6720746819
:1002B00065206164766572746973696E67206E612A
:1002C0006D652E2054686520626F6F746C6F616479
:1002D0006572206D75737420626520636F6D70693F
:1002E0006C65642077697468204E52465F424C5FAB
:1002F00053455454494E47535F504147455F505210
:100300004F544543543D3020746F20616C6C6F77BF
:100310002073657474696E67207468652061647603
:100320006572746973696E67206E616D652E000178
:1003300000000700F8F4020000F5020008000000C9
:10034000E8F40200F8F4020008000000D0F4020013
:10035000E8F40200080000006E72665F73646800D3
:1003600073645F626C655F6366675F736574282999
:100370002072657475726E656420257320776865D8
:100380006E20617474656D7074696E6720746F207F
:1003900073657420424C455F434F4E4E5F43464762
:1003A0005F4741502E0073645F626C655F636667F0
:1003B0005F73657428292072657475726E65642098
:1003C0002573207768656E20617474656D7074693B
:1003D0006E6720746F2073657420424C455F4741FF
:1003E000505F4346475F524F4C455F434F554E5415
:1003F0002E0073645F626C655F6366675F7365742C
:1004000028292072657475726E65642025732077C3
:1004100068656E20617474656D7074696E672074B0
:100420006F2073657420424C455F434F4D4D4F4ED6
:100430005F4346475F56535F555549442E007364EA
:100440005F626C655F6366675F73657428292072FD
:10045000657475726E6564202573207768656E20FB
:10046000617474656D7074696E6720746F20736554
:100470007420424C455F47415454535F4346475FA5
:10048000415454525F5441425F53495A452E0073C0
:10049000645F626C655F6366675F736574282920BB
:1004A00072657475726E6564202573207768656E59
:1004B00020617474656D7074696E6720746F207349
:1004C000657420424C455F47415454535F4346474F
:1004D0005F534552564943455F4348414E47454463
:1004E0002E00496E73756666696369656E74205285
:1004F000414D20616C6C6F636174656420666F723E
:100500002074686520536F66744465766963652E50
:10051000004368616E6765207468652052414D2014
:100520007374617274206C6F636174696F6E20669E
:10053000726F6D203078257820746F2030782578A0
:100540002E004D6178696D756D2052414D207369A3
:100550007A6520666F72206170706C69636174697E
:100560006F6E20697320307825782E0073645F6287
:100570006C655F656E61626C6528292072657475B3
:10058000726E65642025732E00000000CCF302001B
:1005900014F40200080000006E72665F7364685F06
:1005A000626C650014F4020034F4020008000000DC
:1005B0006E72665F7364685F736F63002020202033
:1005C00020202020206828282828202020202020C3
:1005D0002020202020202020202020204810101023
:1005E000101010101010101010101010848484843B
:1005F00084848484848410101010101010818181F0
:10060000818181010101010101010101010101015A
:1006100001010101010101101010101010828282ED
:10062000828282020202020202020202020202022A
:100630000202020202020210101010200007032022
:10064000041702010857104080000000F007030063
:10065000B4060300C807030053756E004D6F6E00AB
:1006600054756500576564005468750046726900EA
:1006700053617400000000004A616E00466562002C
:100680004D617200417072004D6179004A756E00D3
:100690004A756C0041756700536570004F637400C4
:1006A0004E6F76004465630000000000414D00502D
:1006B0004D000000EC070300E8070300E807030013
:1006C000E8070300E8070300E8070300E807030062
:1006D000E8070300E8070300E8070300FFFFFFFF48
:1006E000FFFFFFFFFFFFFFFFFFFF000028070300E2
:1006F000580603006407030078060300AC060300F5
:100700000C070300BC07030018070300256D2F2505
:10071000642F2579000000002561202562202565D1
:10072000202554202559000053756E646179004DD1
:100730006F6E646179005475657364617900576503
:10074000646E65736461790054687572736461796D
:1007500000467269646179005361747572646179ED
:10076000000000004A616E75617279004665627230
:1007700075617279004D6172636800417072696CD5
:10078000004D6179004A756E65004A756C790041CB
:1007900075677573740053657074656D626572007A
:1007A0004F63746F626572004E6F76656D6265723D
:1007B00000446563656D62657200000025483A2556
:1007C0004D3A255300000000B5F10200D1F10200BE
:1007D000DDF10200E9F1020005F2020011F202006F
:1007E0001DF202002BF20200000000002E000000AB
:0C07F00043000000504F53495800000027
:1007FC00000000000020004000000000002000402D
:10080C000000000074F50200000000000000000071
:10081C000090D00300000000000000000000000069
:10082C00000000003C22002000000000000000003E
:10083C000000000000000000382200200A1801000F
:10084C00FFFF181818181818181818181800000096
:10085C004C0603004C0603004C0603004C06030038
:04086C004C06030033
:040000032000626116
:00000001FF
