:020000022000DC
:106000000000042079630200616302006363020000
:10601000656302006763020069630200000000001C
:106020000000000000000000000000006B630200A0
:106030006D630200000000006F63020071630200E4
:1060400089990200736302003D9E0200736302009F
:106050007363020073630200959C02007363020085
:1060600073630200736302007363020073630200D0
:1060700073630200736302007363020073630200C0
:1060800073630200B1740200736302007363020061
:106090004D750200736302003DFA02007363020053
:1060A0007363020073630200736302007363020090
:1060B0007363020073630200000000000000000030
:1060C0007363020073630200736302007363020070
:1060D0007363020073630200736302007363020060
:1060E0007363020073630200736302000000000028
:1060F00000000000736302000000000073630200F0
:10610000000000000000000000000000000000008F
:10611000000000000000000000000000000000007F
:10612000000000000000000000000000000000006F
:10613000000000000000000000000000000000005F
:10614000000000000000000000000000000000004F
:10615000000000000000000000000000000000003F
:10616000000000000000000000000000000000002F
:10617000000000000000000000000000000000001F
:10618000000000000000000000000000000000000F
:1061900000000000000000000000000000000000FF
:1061A00000000000000000000000000000000000EF
:1061B00000000000000000000000000000000000DF
:1061C00000000000000000000000000000000000CF
:1061D00000000000000000000000000000000000BF
:1061E00000000000000000000000000000000000AF
:1061F000000000000000000000000000000000009F
:10620000364937480A1A02D0072291438D4635494C
:1062100035480A1A06D00722914381F309880222E1
:1062200082F3148831483249324A00F045F8324846
:106230003249334A00F040F832483349334A00F0DB
:106240003BF833483349344A00F036F83348344990
:10625000344A00F031F834483449354A00F02CF81B
:1062600034483549354A00F027F835483549002289
:1062700000F02DF834483549002200F028F8344861
:106280003449091A082903DB002202600430016046
:10629000314A90471F482049884205D0026804309F
:1062A00003B4904703BCF7E700208646EC46002085
:1062B00000212A4A9047FEE7884207D0521A05D0AB
:1062C000037801300B700131013AF9D170478842EF
:1062D00002D002700130FAE770470000000004208D
:1062E00000E0032000000420000004206C270300CD
:1062F0003422002088220020D8630200D8630200E4
:10630000E4FF02006C270300342200203422002026
:1063100068010300680103006801030068010300CD
:1063200068010300680103006801030068010300BD
:106330006C270300C0270300882200208822002049
:10634000882200200834002008340020083400206F
:106350000834002008540020A16302009DAF020011
:10636000FEE7FEE7FEE7FEE7FEE7FEE7FEE7FEE705
:10637000FEE7FEE7704700BF1048804710484FF027
:106380000701884385460F4880470F48016841F45C
:1063900070010160BFF34F8FBFF36F8FFFF730BF06
:1063A0000A480B490B4A884207D0521A05D0037895
:1063B00001300B700131013AF9D170477563020069
:1063C00000000420896F020088ED00E05401030002
:0863D0002022002034220020ED
:1063D800F0B595B01C4608460D46164603F06EF813
:1063E8001A9B099400240D930822234605A92846E0
:1063F80008960A948DF82C400C9403F07DF8079BBE
:106408000293BDF81830ADF80C30BDF81A30ADF86D
:106418000E309DF814308DF8114003F00302012A64
:106428001DD1BDF81440059EC3F3C203C4F3831401
:106438008DF81030A20008230EA9284603F05CF856
:10644800C6F3952608AB0093224602AB0EA9304648
:1064580000F0F6FB284603F035F815B0F0BD022A27
:10646800F8D1BDF81640C3F3C203C4F389148DF8FC
:1064780010300827082C264628BF08263B463246F7
:106488000EA9284603F038F8A41B08AB02AA314627
:106498000EA8374400F038FC002CEBD1DAE70000F6
:1064A800014B01221A707047C92200207047000072
:1064B80070B50E4D06460FCD88B06C460FC495E8F2
:1064C8000F0084E80F0008A9002E4FF00603084AC1
:1064D80041F8203D08BF0022064803F0DBF908B167
:1064E80000F034FF044B1E7008B070BD6801030053
:1064F800A9640200342200208822002007B5044B3A
:106508000093044A4023FFF763FF03B05DF804FBE0
:10651800216502008922002038B50D4B0D4D002061
:1065280018700D4804782D5DD2B21C4665B1043050
:1065380004F0F8F808B100F009FF084B1A7812B116
:106548002378002BFBD038BD0C3003F0C5FEF1E7F3
:10655800C9220020F42B00203422002088220020A9
:1065680008B50848084A0378D35C3BB1043004F006
:1065780083F80020BDE80840FFF79ABF0C3003F00D
:1065880055FEF6E734220020F42B00200120FFF707
:106598008FBF000008B5FFF7F9FF0421034800F09A
:1065A800BDFA034B01225A7108BD00BF3001030038
:1065B80048220020037813F0040216D003F00303E6
:1065C800012B03D0022B09D0012070470A680088EC
:1065D8000232C0F3831002440A60F5E70B68428870
:1065E800023303EB92130B60EEE71046704700008E
:1065F8002DE9F04F89B00646851C08A8494C019240
:1066080000230F4600F8113D01F088F923683B602C
:106618006268A3681344226801339B1A04F21C477A
:1066280004F5836A04F21448AB421AD3019A002392
:10663800002A6FD0012262F3010343F0040366F3DA
:1066480089132168A2689DF80F000A4003320D449F
:1066580044F82230256001F085F9012009B0BDE831
:10666800F08F0121384602F0A7F9504602F0C1F92F
:10667800404602F0BEF90DF120096068D4F808B070
:1066880049F8100D00EA0B00033004EB800049467E
:10669800FFF790FF049BB8B90BEA030204EB8202F0
:1066A800D16805919A1C013303EA0B0B04EB8B0E9E
:1066B8000492DEF80C30069301F00303012B21D07D
:1066C800022B04D083460CE00BEA0300DCE7BDF89C
:1066D8001630BDF81AB0C3F38913033302EB9303E2
:1066E8000493404602F088F908B1049B6360594658
:1066F800384602F061F96268A368134422680133DE
:106708009B1A91E7BDF81430BDF81AB0C3F3831390
:106718001344E5E7022262F3010343F0040366F33E
:106728009F538EE79C2300200B4B0C48FF2210B58B
:106738009A600022C3F818241A605A60C3F8142417
:1067480083F8202402F071FE044610B9044802F0D0
:1067580099FF204610BD00BF9C2300204001030084
:10676800A801030030B50A4C71B10A4A0A49121B44
:10677800D20800239A4201D1002030BD31F82350BD
:10678800854202D00133F5E7034654F8330030BDA3
:10679800500003000001030020220020094B0139AA
:1067A80003EBC000032909D8DFE801F00A02040658
:1067B800042070470079704740797047002070477F
:1067C8000220704750000300034B58681B68C31A27
:1067D80058425841704700BF9C2300202DE9F043E0
:1067E80087B0FFF7F1FF0646002840F0F080804DA3
:1067F800C5F81804BFF34F8F6868AC6806AF47F850
:10680800100D2040033005EB80003946FFF7D2FE1B
:10681800029B18B1D5F81824002A5CD004EA0302B8
:10682800991C013305EB8202234005EB8303D268F0
:10683800DB68049302F00303022B039202915CD1FC
:10684800BDF80E306B48C3F389184646502EA8BFD2
:10685800502666F38F1306F10801ADF80E3002F0EA
:10686800FCFD0746002800F0BA8002F027FE082247
:1068780003A90023384602F034FE029924EA0102F3
:1068880001329200964231D9002A00F0A2802140BC
:106898005FFA82F90331A6EB0906574C05EB810133
:1068A800F6B208234A46384602F01BFE34B109F115
:1068B800080332462146384602F013FE029B08F1CF
:1068C800030803EB98030293D5F81834002B48D13A
:1068D800D5F8104454E02A689A4204D86A603046D1
:1068E80007B0BDE8F08304EA03008BE70C40E11C25
:1068F8000823324605EB8101DDE7012B6FD1BDF896
:106908000C303C48C3F38311062928BF062161F3E4
:10691800891302318900ADF80C3002F09EFD07465C
:1069280000285CD002F0CAFD0023082203A93846DB
:1069380002F0D7FD0026BDF80C20C2F38312B31C69
:1069480096424FEA8303BFD202994A1C2140033181
:10695800029205EB81010422384602F0C2FD01369D
:10696800E9E7384602F0AEFDFFF72EFF80F00100A0
:10697800C6B2B4E7E3685B79002B33D1E3681C68DF
:10698800002CF7D1384602F09DFD06A800F8114DFD
:1069980000F0C4FFD5F818340BB9029B6B609DF862
:1069A800070000F0DFFFDFE7236820469B68984771
:1069B800E3681C68002CF7D1104B11481149C01A24
:1069C800C008000440F0020000F076F8CCE700268A
:1069D80085E75FFA86F914460749164661E7D5F850
:1069E8001044E7E7236839461B6820469847C5E7FF
:1069F8009C23002040010300A8230020500003002E
:106A080078000300B40103002DE9F74F284C8046B5
:106A18000F46924601A9012218469B46A568FFF732
:106A2800E7FD88B3DDF80490002609F102025E450F
:106A380034D100211F4801F072FF80F3100009F1E2
:106A480001022A4004EB8202000405EA0903033329
:106A580040EA1840D06014F8232068F3C50204F80F
:106A6800232034F8232066F3891224F8232054F8CD
:106A78002320012167F39F2244F8232061F30102B8
:106A88006FF3820204F8232094F820341BB1FFF737
:106A9800A5FE0028FBD103B0BDE8F08F02EA05018E
:106AA80004EB81015AF82630CB6001360132BEE78B
:106AB8009C230020B827002000231A46FFF7A4BF14
:106AC80013B502AC012344F8042D2246FFF79CFFBE
:106AD80002B010BD07B58DE80C0002236A46FFF727
:106AE80093FF03B05DF804FB1FB50293069B019268
:106AF800039301AA0323FFF787FF05B05DF804FBA2
:106B08001FB58DE80C00069B0293079B03936A460A
:106B18000423FFF779FF05B05DF804FB30B50F4992
:106B2800D1F81024002314463CB9C468237152B923
:106B3800C1F810042260184630BDE46825799D42EA
:106B480006D02468F0E7D268116821601060F2E787
:106B580001330A2BE7D14FF0FF33ECE79C230020E9
:106B6800094A38B50123D2F8104482F820341D466A
:106B780004B938BDE3685D71236820465B689847AF
:106B8800E3681C68F4E700BF9C230020C38873B542
:106B980004460D4633B1144A00921449144A284653
:106BA80001F08BFF217A05291CD0637A4BB1A088AC
:106BB800FFF7F4FD0F4B104953F82020284601F049
:106BC8007CFF227A0D4BA08853F822600021FFF742
:106BD800C9FD0B4903463246284602B0BDE870405D
:106BE80001F06BBF02B070BD1F0203000702030073
:106BF800FF010300CC010300AB1A030030020300BD
:106C080024020300037A052B10B50C460FD0437AF3
:106C180023B1084A0849204601F04FFF074920469A
:106C280001F04BFF2046BDE8104001F03BBF002AB1
:106C3800F8D0F3E71F020300AB1A03001C0203009D
:106C48002DE9F04385B01F460C9D002306460C46EF
:106C5800904695F80C902B7329463846FFF796FF17
:106C6800B8F1060F09D8DFE808F00412181F283316
:106C780040003146284601F020FF002229463846C8
:106C8800FFF7C0FF85F80C9005B0BDE8F0832268D7
:106C98003146284601F011FFEFE794E80C00314631
:106CA800284601F00AFFE8E7A3680093314694E814
:106CB8000C00284601F001FFDFE7E3680193A368B1
:106CC8000093314694E80C00284601F0F6FED4E71C
:106CD80023690293E3680193A3680093314694E81B
:106CE8000C00284601F0E9FEC7E7636903932369AE
:106CF8000293E3680193A3680093314694E80C007B
:106D0800284601F0DAFEB8E708292DE9F84F804651
:106D18000E4617461C4636D8002593F80C901D736E
:106D280019461046FFF732FFDFF87CA0DFF87CB089
:106D3800AE422AD918F805205946204601F0BDFE72
:106D48000135082DF4D11649DFF864B0204601F06A
:106D5800B4FE0025AE421DD918F805A0504609F02A
:106D680089F8002814BF52462E225946204601F0C1
:106D7800A4FE0135082DEDD1012221463846FFF742
:106D880041FF84F80C90BDE8F88F5146204601F089
:106D980094FED5E70349204601F08FFEE9E700BFDE
:106DA800FA010300F8010300F6010300F0010300F3
:106DB800FC010300074B1B5C1F2B8ABF064A4FF0E0
:106DC800A04203F01F03D2F80405D840C04300F0E6
:106DD800010070479302030000030050074B1B5C3F
:106DE8001F2B86BF03F01F0305494FF0A041012266
:106DF80002FA03F3C1F80C35704700BF9302030091
:106E080000030050074B1B5C1F2B86BF03F01F03BA
:106E180005494FF0A041012202FA03F3C1F80835F1
:106E2800704700BF930203000003005008B500201C
:106E3800FFF7E8FF0120FFF7E5FF0220FFF7E2FF79
:106E48000320BDE80840FFF7DDBF08B50020FFF7C5
:106E5800C5FF0120FFF7C2FF0220FFF7BFFF032095
:106E6800BDE80840FFF7BABF0A4B185C1F288ABF65
:106E7800094B4FF0A04300F01F00D3F8042501216F
:106E8800814021EA02000A40C3F80805C3F80C252E
:106E9800704700BF9302030000030050074B1B5CC0
:106EA8001F2B8ABF064A4FF0A04203F01F03D2F8F7
:106EB8001005D840C04300F0010070478F0203005E
:106EC800000300500B2809D00C2809D0182809D035
:106ED80019280CBF03204FF0FF307047002070477F
:106EE8000120704702207047014B185C704700BFB3
:106EF8008F020300C20770B5044614D5154D164E0F
:106F080000220320535D1F2B86BF03F01F03314669
:106F18004FF0A04103F5E0730132042A41F8230041
:106F2800F0D1FFF783FFA30712D50C4C0A4D0022BE
:106F38000C20135D1F2B86BF03F01F0329464FF05B
:106F4800A04103F5E0730132042A41F82300F0D18F
:106F580070BD00BF93020300000300508F020300BE
:106F6800054B1B68082B01BF044B1868B0FA80F06A
:106F7800400918BF0020704730010010340100108C
:106F880008B54FF080430022C3F80C21C3F8102144
:106F9800C3F838254FF0805203F54043D2F8041463
:106FA800C3F82015D2F80814C3F82415D2F80C1425
:106FB800C3F82815D2F81014C3F82C15D2F81414F5
:106FC800C3F83015D2F81814C3F83415D2F81C14C5
:106FD800C3F84015D2F82014C3F84415D2F8241485
:106FE800C3F84815D2F82814C3F84C15D2F82C1455
:106FF800C3F85015D2F83014C3F85415D2F8341425
:10700800C3F86015D2F83814C3F86415D2F83C14E4
:10701800C3F86815D2F84014C3F86C15D2F84424A4
:10702800C3F87025FFF79CFF10B1384B384A1A6037
:10703800FFF796FF18B1374BFB22C3F81825FFF767
:107048008FFF48B13449354B0A681B6822F00F029C
:1070580003F00F0313430B60FFF782FF18B1304BA7
:107068004FF400721A604FF08043D3F80024D2071F
:1070780044BF6FF00102C3F800242A4AD2F88830CE
:1070880043F47003C2F88830BFF34F8FBFF36F8F9C
:107098004FF01023D3F80022002A03DBD3F8043280
:1070A800002B2FDA204B0122C3F80425D3F8002443
:1070B800002AFBD04FF010221221C2F80012D3F898
:1070C8000024002AFBD04FF010231222C3F8042218
:1070D800154B1A46D3F800140029FBD00021C3F839
:1070E8000415D2F80034002BFBD0BFF34F8F0D49A5
:1070F8000E4BCA6802F4E0621343CB60BFF34F8FB4
:1071080000BFFDE70A4B0B4A1A6008BD8C560040C9
:107118004881030000F00040E40E004058020010CF
:107128004096024000ED00E000E001400400FA054E
:10713800502200200090D0032DE9F84FDFF8A4B0CA
:107148000025254B1B78ECB2A34201D8BDE8F88F87
:10715800224BD3F8008018F8349001204A460021C9
:1071680008F0B4FDDBE9002300EA020601EA0307A0
:107178003E4308EBC40A2CD023EA010122EA0000AE
:10718800CBE90001484602F071FD18F83440814609
:1071980022460120002108F099FD114BD3E9006730
:1071A800224606400F404846002108F08FFD8F42D6
:1071B80008BF86420DD1DAF8043053B19AF80110AD
:1071C8004A1E51425141A1EB09004142414120462A
:1071D80098470135B5E700BF5828002090280020BF
:1071E80080280020882800202DE9F84307461F48FA
:1071F80000F084FB002837D13A460120002108F02E
:1072080065FD1B4B04460D46D3E9000104EA00085E
:1072180005EA010958EA09021E461FD1384602F05C
:1072280025FD144B98B1D3E9000120432943C3E954
:107238000001D6E900231D430F4B0C48196814437D
:10724800C6E900450022BDE8F84300F011BBD3E9C8
:10725800000120EA040021EA0501E8E720EA040425
:1072680021EA0505C3E90045BDE8F8836028002048
:1072780088280020802800205C280020042AF7B5F0
:1072880005460C46164638D902F01EFCC8B11C4B00
:107298001C491D601C4B1D4F1C701D4B00221E609D
:1072A8000023C1E900231B49C1E90023013CE4B2E2
:1072B8000026FF2C0BD1184A1848002100F0C6FA06
:1072C80003E002F0C9FB0028E1D003B0F0BD23B20F
:1072D80005EBC302032192788DF804108DF8052080
:1072E80001A93A4615F833008DF8066002F0F6FB5E
:1072F800013CE4B20028DCD0E7E70720E5E700BF5F
:10730800902800208028002058280020F1710200D1
:107318005C280020882800204171020098020300A0
:1073280070B5084D084E00242B789C4201D30020EC
:1073380070BD3368012113F8340002F04DFC0134AC
:10734800F2E700BF58280020902800201FB5002130
:10735800039001AA44F201000191029100F004F89F
:1073680005B05DF804FB000010B572B6FFF7F8FB36
:10737800FFF734FA0028FBD1104B114C1149E41ADD
:10738800E408240444F00100FFF796FB0E4B1B6849
:10739800DB0700D500BE0D4944F00200FFF78CFB67
:1073A800BFF34F8F0A490B4BCA6802F4E0621343DC
:1073B800CB60BFF34F8F00BFFDE700BF5000030055
:1073C800780003009C020300F0ED00E0A80203002F
:1073D80000ED00E00400FA05094A5378917801337A
:1073E800DBB2994208BF0023117899421FBF03708E
:1073F8005078182303FB002014BF04300020704786
:107408009428002073B5054602A8002400F8014D11
:107418000E4600F083FA0DF10600FFF7DDFF90B18C
:1074280006700A4B9DF8062045605A709DF80700C3
:1074380000F098FA24B9064B4FF48012C3F80021E3
:10744800204602B070BD0424F0E700BF9428002055
:1074580000E100E0024B4FF43C6043F001031847A1
:10746800C002030038B50C4B0C4C4FF40032C3F883
:10747800802001254FF48033C4F84833C4F808331A
:107488006560FFF7E7FF064BA56000241C60FFF767
:10749800E1FF044B1C7038BD00E100E00010014022
:1074A800B0290020A1290020F8B51F4B1F491B68EF
:1074B8000025C1F84051C1F84451C1F84851C1F8FC
:1074C8004C51C1F80051C1F804514BB3D1F80445EF
:1074D80017490968641A24F07F442F461A68A242A3
:1074E80009D8A41A15441A7CDE691AB11F745A699E
:1074F80098699047AEB90F4B0F4A197813788B42A9
:1075080005D10133DBB2022B08BF002313701278B8
:107518000A4B43F822500A4B4FF48012C3F800215B
:10752800F8BD3346DAE700BFB42900200010014057
:10753800B0290020AC290020AD290020A429002072
:1075480000E100E02DE9F74F9C4A9D49137809783E
:107558009C4E994257D00133DBB2022B08BF00235F
:10756800137099491278994B0F6853F822003B1809
:1075780023F07F4300220B60336815461446964675
:1075880013B942B1336006E01968814229D902B1C2
:107598003360091A19604FF0010833688C4FDFF81F
:1075A8003CB200934FF00009002D61D02C46ED69E4
:1075B800854B60681A68831A23F07F41854B99428E
:1075C800A36800F2B7800B44236000236360A360C4
:1075D800E361336801222274002B40F0B3803460E9
:1075E800E2E7401A0C44D968C3F800E0D3F81CC09D
:1075F80031B13A1922F07F42DD615A6099601D4627
:1076080063460122BCE70025A846C6E7531CB978A3
:10761800DBB299423B704FF0180303FB027208BFBC
:107628003D7013799468022B1BD0032B11D0012BCA
:107638001ED1217CE1B9D36863601369A3605369E3
:10764800E3609369A361644B1B78002BB0D0616041
:10765800AEE7002335681A46002D67D143B135607F
:1076680006E0326813469246002B5AD10023237451
:107678003A787B789342C9D1B9F1000F06D13368C3
:10768800009A9A4202D1B8F1000F44D03368002B17
:1076980073D0D3F800A0514D4B4BD5F804751C6836
:1076A800DFF840813E1B98F8003026F07F4603360D
:1076B8009BB94FF48033C5F84433C5F80433484BBD
:1076C8004FF400324FF00109C3F880211A60C5F861
:1076D8000090FFF7BFFE88F80090B2452CBF5444D5
:1076E800A41924F07F44C5F84045D5F80435DB1BC0
:1076F80023F07F43E41B033324F07F44A3420AD9D9
:10770800D5F80435C5F84035FFF7A4FE344B4FF4DF
:107718000032C3F80021304B00221A7003B0BDE8D4
:10772800F08F9C422CD09A46DB699DE72A7401238E
:10773800ED6991E7121A22F07F429A4234BF9B1AF0
:10774800002341E7226819688A420BD88A1A1A600E
:10775800E36144E7521AD969184661B92260E161C8
:10776800DC6121E7184619689142F3D3891A196038
:1077780019460346F2E70B46F5E7FFF773FECAE73B
:1077880054450DD1D369336053B90F480192012193
:10779800CBF808100360104B1970FFF75BFE019AD5
:1077A800E1692368CAF81C1011B1086803440B602A
:1077B80033689A4218BF4FF0010957E7AC290020F7
:1077C800AD290020B4290020B0290020A4290020D8
:1077D80094280020FEFF7F00A0290020001001400F
:1077E80000E100E0A129002008B5FFF73BFE114B9E
:1077F80000200B2218709A7058700F4B18600F4BAE
:1078080018700F4B18700F4B4FF48012C021C3F83B
:10781800802183F814131A6002F18042A2F56F22C6
:10782800C2F8080583F81113074BD2F804251A602B
:1078380008BD00BF94280020B4290020AC290020EE
:10784800AD29002000E100E0B0290020074B9B781B
:107858004BB132B128B10368187C20B959745A6108
:107868007047072070470820704700BF9428002001
:107878002DE9F7431E4FBB7805460E469046ABB33D
:10788800A0B3042930D9436983B3437C02A80024F8
:10789800012B00F8014D0CBF8946A14600F03EF8C7
:1078A8000DF10600FFF798FDE0B101230370114BBD
:1078B8004560D3F8043583609DF80630C660C0F88B
:1078C8001090C0F814807B709DF8070000F04AF80B
:1078D80024B9094B4FF48012C3F80021204603B0A5
:1078E800BDE8F0830424EFE70724F7E70824F5E769
:1078F800942800200010014000E100E0064A927838
:107908003AB130B1426922B1002202740221FFF774
:1079180079BD0820704700BF9428002070B5EFF3A8
:10792800108672B60C4A946801239CB993600B4B7D
:107938000B4DD3F8801029401160C3F88050D3F85C
:10794800841051604FF0FF32C3F88420047006B9E8
:1079580062B670BD0370FAE7B829002000E100E0C4
:10796800FC06FFBD084B9A6810B55AB150B9EFF341
:10797800108272B605491C680C605C684C6098609F
:1079880002B962B610BD00BFB829002000E100E0CE
:1079980070B5064E0546002456F824300BB128462B
:1079A80098470134042CF7D170BD00BFD0290020BE
:1079B800033080B240F2FD33984230B51FD8124BE5
:1079C8001A783AB95C891D892C440444A4B2B4F5E8
:1079D800806F0AD31A7DA2B99A8BDC8B22440244A9
:1079E80092B2B2F5806F0CD201220A80144614229A
:1079F80002FB04335A8910445881002030BD092005
:107A080030BD072030BD00BF042A00200B4A0C4BB4
:107A18005188142000FB0131CB6833B90420496830
:107A280010700122074801F0CDBA052306491370EA
:107A380002238B80012200230968F3E7E82900204C
:107A4800042A002020220020CC2A002007B5002389
:107A580005490093054A09680548082301F018FA02
:107A680003B05DF804FB00BFCC2A0020D402030059
:107A78002022002007B50023009301460823034A6B
:107A8800034801F005FA03B05DF804FBCC020300DB
:107A98002022002013B500230C460093014604233E
:107AA800074A084801F0F4F938B9074B142202FBD9
:107AB80004340123237402B010BD0E20FBE700BF7D
:107AC800C802030020220020042A002037B50A48F3
:107AD8000A4B42689C88196853880325033305704C
:107AE8009BB2002000909B0001EB8401044801F048
:107AF800CFF903B030BD00BFE8290020CC2A002010
:107B08002022002010B50146044800F03CFE1C224B
:107B18000446002108F0FEF9204610BDB82A0020CE
:107B28004388033300EB8303994209D382884FF6D5
:107B3800FF739A4206D00088B0FA80F04009704777
:107B480002207047012070472DE9F8430223DFF82F
:107B580064800B800D46174600F5805600F1080436
:107B68004FF00109B44222D2236801331FD03146B5
:107B78002046FFF7D5FF48B10FB187F800900228DB
:107B88000BD14FF480632B80BDE8F883A368D8F845
:107B98000020934201D9C8F800302B88628803334B
:107BA80013442B806388033304EB8304DAE7BDE8CE
:107BB800F88300BFFC290020144A142303FB00208B
:107BC80070B50B6844680D4604F5805653B15C885F
:107BD800033403EB8404A64202D9236801330BD192
:107BE800002070BD0834F6E72C60012070BD638862
:107BF800033304EB8304EEE731462046FFF790FF9A
:107C08000128F4D0F0D30228EAD0E4E7042A0020BF
:107C1800436873B505460C466BB3254AD1688B4259
:107C280029D31269934226D813F0030223D121499C
:107C38000089098988421ED12868996888421AD122
:107C48001D494868834203D900F5805083420ED30A
:107C58008A6993420DD902F58052934209D20123D1
:107C680023800020B0FA80F0400902B070BD1346AE
:107C7800F6E70A20F6E7002323801E462388012B17
:107C880001D90020F1E7019601A92088FFF794FFA8
:107C980018B9238801332380F0E7019B2A68996883
:107CA8009142F1D16B60034B1B892B81DDE700BF4B
:107CB80020220020E8290020042A00202DE9F8438A
:107CC8001C461E4B1B7806460F4615467BB38AB3E7
:107CD80084B3DFF870804FF01409A388012B02D910
:107CE8000A20BDE8F88309FB03F318F803302BB921
:107CF8002146A088FFF760FF20B92060A3880133E0
:107D0800A380EAE723681EB1998832889142EFD1AF
:107D180047B99A6885E80C00094B1B892B8100201C
:107D2800BDE8F88319883A889142E1D1F1E7022049
:107D3800BDE8F8830520BDE8F88300BFE0290020EE
:107D4800E8290020042A002008B5074B191D588887
:107D5800FFF732FF18B1BDE80840FFF7B7BEBDE82E
:107D68000840FFF753BE00BFE82900202DE9F04F77
:107D7800A04FDFF8A49289B00646B8463B6823B9FD
:107D880049469D4800F039FD3860D8F800502A78F7
:107D9800531E052B00F2EC81DFE813F0060070009B
:107DA8007000020102015B0126B1944B00225A6067
:107DB800012425E02B79032B1ED8DFE803F01602F7
:107DC8003C478F490B78022B084632D00B7D022B9B
:107DD8004FF0010340F0108214225343C2180020D0
:107DE800C8545068FFF746FE03E001232B71FFF7E4
:107DF8002DFE002800F0CE80804B00225A600E2411
:107E08001422002103A808F085F841F61D539C426E
:107E180008BF0024D8F8003004941A78023A042ADB
:107E280000F2C581DFE812F0A601B201D501DD013B
:107E3800E4010023D0E773497348002302222B7121
:107E48008A800122096801F0BDF8D2E76D4C00264E
:107E58002E7120686A4DFFF70DFE6C4BD4F800E0D8
:107E68005A8814235343EA18EE5451682160A188B4
:107E7800C2F804E011810222A280BAE7B5F814A082
:107E8800DFF87CB1B6B1AA7DEB88022A06D91421A5
:107E980001FB0AB1DA1C088902440A81142202FB98
:107EA8000ABAC3F57F43BAF80A20FD331344AAF887
:107EB8000A307DE7142303FB0AB319895C68AB7D9C
:107EC80004EB8104062B05D8DFE803F0274D354382
:107ED8001C5967000F24AA7DEB88022A06D91421B1
:107EE80001FB0AB1DA1C088902440A81142202FB48
:107EF8000ABAC3F57F43BAF80A20FD331344AAF837
:107F08000A307DE74248434900234360AB69036078
:107F1800FFF77EFE002800F029810223AB750023BD
:107F280000930423EA182146374800F0B1FF0028DF
:107F380030D00E24CFE72B69002B14BF0323012375
:107F4800AB750023009305F10C02042304F108012A
:107F5800EAE70123AB750022EB8800929B002A69AF
:107F680004F10C01E0E7032A0CBF05230623AB75D7
:107F780000230093042305F10802E118D4E706233F
:107F8800AB75244B1988224B5868FFF783FD0446CC
:107F98000028A0D109B0BDE8F08F41F61D549AE73A
:107FA800002E7FF405AF2B79012B37D005D3022B98
:107FB80041F61D5418BF0F2422E702232B710396A4
:107FC80004960596EB6803930DF10A0103A8FFF7E1
:107FD8001FFE002800F0CA800498BDF80A108388A4
:107FE800EB8003882B81FFF755FD0446002C7FF4B6
:107FF80007AFCFE7002A0020B82A0020E029002098
:10800800042A0020CC2A002020220020E829002071
:10801800C4290020D82A0020F8290020DFF8FCA174
:1080280003AA53463146A81DFFF748FE044650B937
:10803800BAF804100498FFF72DFD04460A2CD5D190
:1080480041F61D54DCE608223146504607F062FF2F
:10805800F4E7002E7FF4ACAE6A4B1A7B5AB11E735C
:108068001A78013A062A00F28380DFE802F04A5FB4
:10807800676A816D78001A78072AF1D801A151F84A
:1080880022F000BFAD800200698002006980020012
:10809800D3800200E7800200078102000781020006
:1080A800CF8002001A89584901321A8100225A8069
:1080B8001A730A78B2FA82F252099A720A7DB2FAEF
:1080C80082F25209DA72012207E0504958688A8818
:1080D8004088033202448A8002221A70C0E74A4C60
:1080E8005A884A49142505FB0242086854685060BA
:1080F8008888108102228A800C600622EDE7072218
:10810800EBE79A7A32B1404900229A72CA680AB9F2
:10811800097C51B9DA7A62B10022DA723A4A116AF4
:1081280039B992F8242022B101225A80FFF70CFEB7
:108138005BE700221A705A805A6081E7FFF7C6FC95
:1081480053E7FFF763FC50E706221A702E4A5B8854
:10815800142101FB03235868FFF78CFC45E707222D
:108168001A7000225A60FFF771FC3EE70A2447E6BE
:108178000F2445E601228DF80C201A89ADF8182045
:108188009A88ADF81A20DB68059310E002228DF872
:108198000C201A89ADF818209A88ADF81A20DA68E8
:1081A80005929B7D9A1F534253418DF81C3003A8BA
:1081B800FFF7EEFB002649461548C8F8006000F0B6
:1081C80047FB0121134800F004FC00287FF4D6ADDA
:1081D800E0E603228DF80C20DA88ADF818201A8919
:1081E800CFE704228DF80C20DB88ADF81830DEE7E5
:1081F80005238DF80C30DAE7074A13700023536023
:108208001EE700BFE8290020042A0020CC2A00200D
:10821800B82A0020C82A0020E0290020DC2A0020F3
:108228004068FFF7A3BD000008B50121044800F02D
:10823800B6FB18B9BDE80840FFF798BD08BD00BFF8
:10824800C82A00202DE9F3419846344B1B7806468E
:108258000D46002B59D0002959D009884FF6FF73D5
:10826800994256D06B88002B53D06B689B0752D12C
:108278004AB92F890DF102013846FFF799FB30B151
:1082880002B0BDE8F08113885788ADF8023001A824
:10829800FFF738FC044658B9BDF80230204A1421CB
:1082A80001FB032358890338C01B58810820E7E7DE
:1082B80000238375BDF8023083826B68036180F800
:1082C80000800121174800F077FBE0602B882381AC
:1082D8006B88A380B8F1030F04BF0423A375E7805C
:1082E80004BF3368A3610025658101A90E4800F029
:1082F80074FA36B17560E36833600C4BB5721B894C
:108308003381FFF791FF0020BAE70220B8E7052084
:10831800B6E70420B4E70320B2E700BFE029002055
:10832800042A0020FC290020B82A0020E82900207F
:1083380008B5084B1A68042A09D01968064A42F891
:1083480021000121184600F037FB002008BD0C2051
:1083580008BD00BFD42A0020D02900202DE9F04F05
:1083680089B01422002103A807F0D4FD7A4A1378B3
:1083780003F0FF01009191463BB103A8FFF708FB0A
:108388000026304609B0BDE8F08F101D00F02EFB26
:1083980005460028F4D14FF010234FF080525B6956
:1083A80011695269DFF8DCA1581C08BF02FB01F310
:1083B800CAF810300022A3F540536849CAF80C30B7
:1083C800504600F031FD06460028DAD11C238C22E5
:1083D8006349644800F0A2F93746B0464FF0030BF2
:1083E8003446CDF804A0019BDA6818EB02000CD0E3
:1083F80058F802205C4B9A4207D142685B4B9A427C
:1084080000F083805A498A425ED0021F00F6FC7150
:1084180052F8043F013340F091809142F8D1554A17
:10842800116829B9022101231060918000930EE0A0
:1084380014226243504B4FF0020C991803F802C003
:108448004E4A486054800134A1F808C0A4B247F0ED
:10845800010708F58058B8F5405FC4D1BBF1010F9A
:1084680088BF3D46EDB2022D02D0062D02D05DB97F
:108478000B2686E7012389F8003003A80023C9F8F2
:108488000430FFF785FA7CE702A8FFF73BFBC8B189
:108498000123013D03700A2D09D8DFE805F006081D
:1084A8000608070807080F110F000023037102A927
:1084B8002C4800F092F9FFF7B7FE62E70323F5E7CF
:1084C8000223F3E708265CE7009BDFF8A8A073B156
:1084D800294B1422624399184FF0020E03F802E068
:1084E8000134DAF800204A60A1F808E0A4B20022BA
:1084F8002349CAF80000FFF727FBBAF80420022A2C
:1085080014BF082204221743A3E71B494FF0140E97
:108518000EFB04FE01EB0E024FF0000C01F80EC03A
:1085280050600EF110020EF1080E0A447144FFF774
:108538000BFB47F002070134A4B28AE70E49142264
:10854800624301EB020E0BF1FF33CEF80400032067
:108558001FFA83FB8854EEE7E0290020C8040300D3
:108568002C2A0020B82A0020DEC0ADDEFE011EF154
:10857800FF011EF1CC2A0020042A0020E82900204F
:10858800D02A00202022002073B50D460446C8B129
:10859800C1B10DF10601FFF73BFBA8B10B4BBDF8CC
:1085A80006006668142202FB003001210C3000F03E
:1085B80003FA63682E600C336B600123A3720020FA
:1085C80002B070BD0520FBE70A20F9E7042A002065
:1085D80013B50446A8B10DF10601FFF719FB90B1D8
:1085E8000B4ABDF80630142101FB0323DA6862B197
:1085F800A27A52B1DA680020013ADA60A07202B0B9
:1086080010BD0520FBE70A20F9E70620F7E700BFC1
:10861800042A002002230022FFF714BE18B1032306
:108628000022FFF70FBE052070470000104B1B7893
:1086380013B50446ABB14FF6FF73984213D001A8A7
:10864800FFF760FA88B10523037001230371C48022
:1086580001A9084800F0C1F8FFF7E6FD002002B0C4
:1086680010BD0220FBE70420F9E70820F7E700BF68
:10867800E0290020B82A00200E4B1B7807B5A3B1CB
:1086880001A8FFF73FFA90B10623037001A90A4831
:1086980000F0A3F8094B1A780AB101221A73FFF700
:1086A800C3FD002003B05DF804FB0220FAE70820B0
:1086B800F8E700BFE0290020B82A0020E8290020B8
:1086C80007B5ADF8060002A820F8041D01460DF113
:1086D8000600FFF7F3FA03B05DF804FB13B502AC2C
:1086E800134624F8020D0A4600202146FFF7E6FA51
:1086F80002B010BD13B502AC134624F8020D0A46A9
:1087080020460021FFF7DAFA02B010BD20B119B1F6
:1087180003680B60002070470520704710B561B1F1
:10872800B2FBF3F403FB1424A4B244B980E81200AA
:1087380084608281C381204610BD0E2010BD0920AF
:1087480010BD82B050E8022FC188B2EB324F4FF013
:10875800000317BF92B241EA014142EA014104E035
:108768004268B2EB324F08BF012340E80212002AE8
:10877800E8D18DF807309DF80730002B0CBF112089
:10878800002002B0704737B550E8013F9DB2C48958
:1087980025448489A54228BF2D1B0489A54202BF10
:1087A800BFF32F8F002207E0C5EA030540E8015414
:1087B800002CE9D14FF001028DF803200193019BB1
:1087C8009DF803200B6002F0FF0322B10B880068BC
:1087D800184403B030BD1846FBE70A884B889A4214
:1087E80009D150E8012FC2EA024240E80123002BD8
:1087F800F7D1012070470020704737B550E8023F95
:108808001FFAA3F5C488A54202BFBFF32F8F002229
:108818000DE0C48925448489A54228BF2D1BC3EADD
:10882800054540E80254002CE8D14FF001028DF8CC
:1088380003200193019B9DF803200B6002F0FF03C6
:1088480022B14B880068184403B030BD1846FBE7D6
:108858000A884B889A4209D150E8022FC2EA22427C
:1088680040E80223002BF7D1012070470020704711
:1088780001F01F024B090121914000EB830000F039
:1088880067B84B0910B501F01F040121A14000EBA6
:10889800830000F050F8E04000F0010010BD01F046
:1088A8001F0301229A404B0900EB8300D14300F0DB
:1088B80069B84B0901F01F0150F82300C84000F0C7
:1088C800010070472DE9F0474E1E760980460F4695
:1088D8000136002558F8254008EB850AE44394FA48
:1088E800A4F4B4FA84F44FEA4519202C06D10135D2
:1088F800AE42EFD83C462046BDE8F0874C44A7423C
:10890800F5D921464046FFF7BCFF0028F3D0DAF836
:108918000040E44394FAA4F4B4FA84F4E5E700B51B
:1089280050E8002F0B4640E8003E9EF0000FF7D1BC
:1089380010465DF804FB00B550E8002F42EA010339
:1089480040E8003E9EF0000FF6D110465DF804FBAB
:1089580000B550E8003F43EA010240E8002E9EF0CF
:10896800000FF6D110465DF804FB00B550E8002F63
:1089780002EA010340E8003E9EF0000FF6D11046DF
:108988005DF804FB00B550E8003F03EA010240E847
:10899800002E9EF0000FF6D110465DF804FB00B5DE
:1089A80050E8002F02EB010340E8003E9EF0000F64
:1089B800F6D110465DF804FB00B550E8003F03EB24
:1089C800010240E8002E9EF0000FF6D110465DF837
:1089D80004FB00B550E8003FA3EB010240E8002E7D
:1089E8009EF0000FF6D110465DF804FB0121FFF759
:1089F800A2BF0121FFF7ACBF0021FFF7B6BF10B53A
:108A080090B14268836801689B1ADBB20A60013B37
:108A1800DBB2FF2B026802D10020107110BD116873
:108A28004C1C14600B70F2E70E2010BD37B50546DC
:108A380002A8002400F8014DFEF770FF2A686B6851
:108A4800116899420ED9481E106011F8014CEB6864
:108A5800298A01FB0434AB6811791B1ADBB29942ED
:108A680038BF13719DF80700FEF77CFF204603B05E
:108A780030BD37B5054602A8002300F8013D0C4675
:108A8800FEF74CFF2A681368591C1160E968641ADC
:108A9800298AB4FBF1F41C709DF80700FEF762FF09
:108AA80003B030BD826810B504462AB14369016835
:108AB800006998470023A36010BD0EB403B503995D
:108AC80029B102AA04AB42F8043D00F06DF802B0E7
:108AD8005DF804EB03B07047826830B40468551C35
:108AE8008560A154826843689A4202D330BCFFF77C
:108AF800D9BF30BC704700002DE9F84F0A9C994651
:108B08000B9B1746824688460A460126BA420FD270
:108B18004E4538BF4E4613F0010B01D164B900240D
:108B28000125B9F1010F1AD909F1FF397D43F8E799
:108B3800B2FBF7F20136E9E79B070ED5B9F1000F52
:108B48000CBF30252025A642EAD2013C29465046D2
:108B5800FFF7C2FF002CF6D1E1E72025F3E7B8FBC9
:108B6800F5F39F42E2D9DFF83C90B8FBF5F35046A5
:108B780019F8031005FB1388FFF7AEFFB5FBF7F5EF
:108B8800002DF2D1BBF1000F0AD03CB9BDE8F88F37
:108B9800013C20215046FFF79FFF0CB1A642F7D3B6
:108BA800BDE8F88FDC0203002DE9F74F05461746AC
:108BB8000C46002900F0358114F8011B49B92B7BBC
:108BC800002B00F02E81284603B0BDE8F04FFFF7D8
:108BD80069BF252940F0218123460026194611F84E
:108BE800012B2D2A24D0302A26D02B2A27D0002446
:108BF8002A2A994603F1010124D13B681A1D1B68F2
:108C08003A601C44894699F800302E2B25D109F189
:108C180001014FF00008894611F8012BA2F130003C
:108C280009281CD80A2303FB0823A3F13008F2E71C
:108C380046F001060B46D1E746F00206FAE746F091
:108C48000406F7E71A780B46A2F130010929DAD8A9
:108C58000A2101FB0424303CCAE74FF0000899F8C8
:108C6800001001F0FB02682A02D119F8011FF8E789
:108C780069290FD04BD8582965D007D825296ED037
:108C880009F101042378002B96D198E7632962D073
:108C98006429F5D13A68D2F800A0111D8AEAEA726F
:108CA8003960A2EBEA724FF0010B092A5BDCC3457D
:108CB80038BFC3462CB1BAF1000F01DB710700D5EC
:108CC800013CB20702D5B8F1000F04D0F30702D473
:108CD800002C4ED10024BAF1000F52DACAF1000A72
:108CE8002D212846FFF7F8FE06F00302022A05D1D7
:108CF800B8F1000F02D1002C47D100248DE85000B4
:108D080043460A2251462846FFF7F6FEB8E773297C
:108D18004CD014D87029B3D13B681A1D3A60302161
:108D280028461C68FFF7D8FE78212846FFF7D4FEAE
:108D3800002301930823009310222146E3E77529B5
:108D48002BD078299CD139680A1D3A6043468DE8B2
:108D58005000102228E03B681A1D19783A6028460E
:108D6800FFF7BAFE8CE70A230BF1010B92FBF3F233
:108D78009BE7A345AFD220212846013CFFF7ACFE74
:108D8800A6E77007B0D52B21ABE7A345B6D23021B3
:108D98002846013CFFF7A0FEADE739680A1D3A6096
:108DA8008DE8500043460A220968ACE73B681A1D63
:108DB8003A60F107D3F800A012D55646A6EB0A0B85
:108DC80016F8011B41B95C457FF65AAF20212846A9
:108DD800013CFFF781FEF6E72846FFF77DFEEDE749
:108DE800BAF1000F11D0504607F0C8F80646B44251
:108DF80000D964B90AF1FF3A1AF8011F00293FF4B3
:108E08003FAF2846FFF768FEF6E75646EFE7202112
:108E18002846013CFFF760FEE9E72846FFF75CFEBD
:108E280030E703B0BDE8F08F07B50B4688B9124BA1
:108E38001248134AC01A0E23C0080093114B0004AD
:108E4800114940F00100FDF74FFE0E2003B05DF818
:108E580004FB4BB9084B09480C4AC01AC0080E233A
:108E680000930004074BEBE703601B68114603B04F
:108E78005DF804EB184700BF5000030090000300A2
:108E880099030300EC0203009E030300150403008A
:108E98002DE9F743DDF828C088B93E4B3E483F4AE4
:108EA800C01AC0080E243E4B009400043D4940F00F
:108EB8000100FDF719FE204603B0BDE8F0834AB96A
:108EC800344B3548384AC01AC0080E2400040094B0
:108ED800334BEBE7D0F800E0BEF1000F09D12D4B82
:108EE8002D48324AC01AC0080824000400942C4BAC
:108EF800DCE74BB9274B28482D4AC01AC00809247B
:108F080000040094264BD1E74768D7F80490B3FBD8
:108F1800F9F709FB17374FB11E4B1F48254AC01AEE
:108F2800C0080924000400941D4BBFE78F0709D02F
:108F3800184B1948204AC01AC0081024000400948D
:108F4800174BB3E712F0030F09D0124B12481B4A14
:108F5800C01AC008102400040094114BA6E7C76883
:108F6800B9420DD34C1E05691C44AC4208D8CDF853
:108F780028C0DEF80C40A44603B0BDE8F0436047C3
:108F8800044B05480E4AC01AC00810240004009477
:108F9800034B8BE750000300900003009903030084
:108FA800FE0203009E0303001B0403000F040300DA
:108FB800CE030300210403004B04030063040300F1
:108FC80086040300F7B580B92A4B2B482B4AC01AF0
:108FD800C0080E242A4B009400042A4940F00100DE
:108FE800FDF782FD204603B0F0BDD0F800E0BEF1E9
:108FF800000F09D11F4B2048234AC01AC008082473
:10900800000400941E4BE8E74AB91A4B1A481F4A55
:10901800C01AC008092400040094194BDDE747680A
:10902800D7F800C00CF1FF370F4209D0114B124896
:10903800174AC01AC008102400040094104BCCE74B
:10904800C768B94205D34C1E05690CFB0244AC4203
:1090580009D9084B08480F4AC01AC0081024000450
:109068000094074BB9E7DEF81040A44603B0BDE80A
:10907800F04060475000030090000300990303008C
:10908800110303009E0303000F040300CE03030033
:10909800240303004A03030029DF704728DF7047D1
:1090A80070B503689D6886B004460E466DB11822F7
:1090B8000021684606F02EFFA368059323790196E0
:1090C8002BB1012B0DD06846A84706B070BD01230F
:1090D8008DF8003023690293E3680393636904936E
:1090E800F1E702238DF80030E3681B030293F5E7EC
:1090F8000846704700207047024B187A003018BFA6
:1091080001207047802B0020034B187A0122B0FA07
:1091180080F05A7440097047802B002008B510462B
:109128001A4606F0CDFE002008BD000008B514223E
:109138000021044806F0EEFE0348FFF702FB00207A
:1091480008BD00BF802B0020702B002010B5094CF3
:10915800094B43602046FFF749FC40B906F050FC34
:109168001C2320748C2205490548FFF7D7FA0020F4
:1091780010BD00BF802B0020BC040300E42A00209F
:10918800702B002070B5244D244E2B7A2C463BB909
:1091980023492448FFF731FB306008B9686070BD87
:1091A8000223237233681A7972B1012A24D018462F
:1091B8000321FFF775FF00232372636018491948DC
:1091C800BDE87040FFF744BB98695A69D9681D69C2
:1091D800121AB2F5805F28BF4FF480529208012A14
:1091E800014438BF01222844FFF756FF50B1112827
:1091F800DDD10123237270BDD8681A691044FFF7C6
:109208004DFFF3E7237C2BB90146BDE870400220EF
:1092180000F00AB870BD00BF802B0020982B0020FA
:10922800942B0020702B002038B5831E012B45D8C5
:10923800234C237A002B41D0022B09D1032830D0AC
:10924800204B1B680022E2601A793AB1012A22D029
:10925800637C7BBBBDE83840FFF794BF9A695969C6
:109268008D1AB5F5805F94BF521902F580529A6144
:109278009142EDD102284FF0000308BF194623722E
:10928800104B18BF0D211868FFF70AFF0E490F4849
:10929800FFF7DEFADCE71A6901321A615B699A4264
:1092A800E7E7E3680133082B01D8E360D0E7002340
:1092B800E360DFE7BDE8384006F092BB38BD00BF89
:1092C800802B0020982B0020942B0020702B00204E
:1092D80000F0FD03012B08D1044B00225A74421EF2
:1092E800504250411874FFF74DBF7047802B002043
:1092F80010B5064C201DFFF779FB28B9637C1BB914
:10930800BDE81040FFF73EBF10BD00BF802B002016
:109318002DE9F34180460D460F4801A916461F4620
:10932800FFF731FA0446A8B11C22002106F0F2FD2D
:109338002D0B0123237101A9C4F80080A760E56003
:1093480066610548FFF749FAFFF7D2FF002002B02F
:10935800BDE8F0810420FAE7702B00202DE9F743DF
:1093680081468846104801A917461E46FFF70BFAA2
:109378000446B8B11C22002106F0CCFD00250A9B4A
:10938800A36001A92571C4F80090C4F81080E760B3
:1093980066610548FFF721FAFFF7AAFF284603B0E0
:1093A800BDE8F0830420FAE7702B00202DE9F04790
:1093B800B0F806804479D2F800909DF8207008FB38
:1093C80004F4043C03EB090E744538BFA4EB03090D
:1093D8000E46191DC2F80090B1FBF8F5044608FBCB
:1093E80015114DB9A8EB010ACA4528BFCA46B9F1FB
:1093F800000F04D1BDE8F0872468013DF1E704318E
:109408007019631852466FB11946A9EB0A0906F09C
:1094180057FDC84555442468C2464FF0000128BF8F
:10942800CA46E4E701461846EFE7FFF7E8BAF8B599
:1094380046790446721E00239342246804D30146E9
:109448000025B54202D3F8BD0133F5E70F68204681
:10945800FFF70FFB01353946F3E72DE9F843078A93
:10946800CD1C8046FFF7E2FA043F3D440446B5FBB5
:10947800F7F5002650B10123EDB206714371C7809C
:10948800013DC0F800808146AE4202D32046BDE8C7
:10949800F8834046FFF7CAFA074648B163790133B3
:1094A80063710136C9F80000C0F800808146EBE717
:1094B8002046FFF7BCFF3846BDE8F8830121043099
:1094C800FFF77ABA10B5012104460430FFF781FA94
:1094D80010F0FF0F04D12046BDE81040FFF7A7BFEA
:1094E80010BD1FB504AC44F8042D0022009222469A
:1094F800FFF75CFF04B010BD1FB504AC44F8042DA1
:10950800012200922246FFF751FF04B010BD33DF5D
:10951800704741DF704700000D4A08B500231370FB
:109528000C4A1360BFF35F8F0B490C4800F0B3F887
:109538000B4A0C480121FEF789F9024630B94FF46D
:1095480000410948BDE80840FEF792B908BD00BFD0
:10955800C82B0020CC2B0020EC0403009C2B0020FF
:1095680079960200E8040300A82B002007B502A89A
:10957800002300F8013DFEF7D1F9F1EE103A23F08F
:109588009F03E1EE103ABFF35F8F0A4B4022C3F806
:1095980084219DF80700FEF7E5F906F031FA20B1BD
:1095A800FFF7B7FF03B05DF804FB20BF40BF20BF43
:1095B800F8E700BF00E100E070B5274C054601213F
:1095C8002046FFF7ACF9BFF35F8F2646002841D14C
:1095D800042D0AD0214B1A781AB1BFF35F8F20608F
:1095E80070BD1F4A157001221A701E4C1C4D63680D
:1095F800BBB9FDF7B5FAFDF7F1F80028FBD1184B18
:109608001B78023B012B14D8BFF34F8F1649174B19
:10961800CA6802F4E0621343CB60BFF34F8F00BF08
:10962800FDE71B682878984788B1204600F03DF888
:10963800DDE706F0E5F908B1FFF769FF4FF0804371
:109648000122C3F80025BFF34F8F20BFFDE7BFF30A
:109658005F8F306070BD00BFCC2B0020C82B00206E
:10966800A42B00209C2B002000ED00E00400FA054C
:10967800034B1B7813B10420FFF79EBF704700BF50
:10968800C82B0020836800225A609A601A615A61C8
:10969800DA601A6070470B684A684360934208BFF3
:1096A8000023016008BF43607047436843B1026804
:1096B800916852680B449342436004BF002343609F
:1096C800704700000D4930B5A1F59472022591420A
:1096D80001D8002030BD8B1ADB1093FBF5F302EBA9
:1096E800C30452F83330834205D802D204F1080289
:1096F800EDE7606830BD2146E9E700BF3C0603009E
:1097080008B5FFF7DFFF024B002808BF184608BD61
:109718000105030038B5084C04F108030546002884
:1097280018BF1C4623682BB11A6822605B6828465C
:109738009847F7E738BD00BFD82B002020B9054B64
:1097480001225A70FFF7E6BF012802D1014A907042
:10975800F8E77047D02B002020B9034B01225A703C
:10976800FFF7D8BF704700BFD02B002038B50B4C8F
:10977800237883B90A486360A3602361E36000F03B
:10978800D1F8054606F03CF908B900F0D9F80123EC
:109798002370284638BD8525FBE700BFD02B002065
:1097A8004597020037B502A80023094C00F8013D8F
:1097B800FEF7B4F8E368013BE360E56815B900F02B
:1097C800D3F8A5709DF80700FEF7CCF803B030BDBC
:1097D800D02B0020012813B509D003D303281BD0B0
:1097E80002B010BD0F4B0122C3F88020F8E702A891
:1097F80000230D4C00F8013DFEF790F823780BB9D3
:10980800FFF7B4FFE3689DF807000133E360012325
:10981800A370FEF7A7F8E3E700F092F8FFF7C2FF9E
:10982800DEE700BF00E100E0D02B00201FB5037881
:109838008DF8003043680193037A8DF80830C368C7
:109848000393054A054B684653F8213052F8211016
:10985800984705B05DF804FBE42B0020EC2B0020B2
:109868001FB503788DF800304368019383688DF83D
:109878000830C3680393054A054B684653F82130FE
:1098880052F82110984705B05DF804FBE42B00203E
:10989800EC2B0020F0B5194B0678DFF870C043F8C0
:1098A8002620174B96460A6943F826204B7F0CF86A
:1098B80006300C4607460FCC89B06D460FC594E8B4
:1098C8000F0085E80F001CF80630049653B1BEF16E
:1098D800000F0C4A694608BF0022381D00F0E8FD59
:1098E80009B0F0BDBEF1000F074A694608BF002263
:1098F80007F10C0000F0BEFBF2E700BFEC2B0020E4
:10990800E42B00203598020069980200F42B00200F
:1099180000F180400023036082B003680193019B3B
:1099280002B07047054A13792BB9012110601171F3
:109938005371184670478520704700BFF82B0020E8
:10994800084B1A68D20706D4C02283F800230122E4
:10995800C3F880211A604FF080430122C3F818250C
:10996800704700BF00E100E0044B01221A604FF08D
:109978008042D2F81834DB03FBD470470C00004057
:10998800124B1B6810B573B14FF48070FFF7C0FF1E
:109998004FF080430122C3F808230D4B587910B9C2
:1099A8005A711B6898470B4B1B6873B14FF4827050
:1099B800FFF7AEFF4FF080430222C3F80823044BA1
:1099C80001201B68BDE81040184710BD0001004089
:1099D800F82B00200401004000F1804000F5C04051
:1099E800002382B0036003680193019B02B07047B3
:1099F80003681F2B83BF03F01F03036001484FF068
:109A0800A04070470003005007B502AB43F8040DAF
:109A18001846FFF7EDFF019B00EB8300D0F80037F5
:109A280023F44033C0F80037D0F8003743EA014147
:109A3800C0F8001703B05DF804FB0000054B4FF0B9
:109A4800FF32072843F8202084BF1B1883F85820CA
:109A5800704700BF002C002010B5174C94F86A30EE
:109A680043BBFF21E2180133302B82F83010F9D1C3
:109A78000021C8B2FFF7E2FF01310C29F9D100211A
:109A880006220E4806F046FA0D4BC02283F806233C
:109A98004022C3F880214FF4BE701A60FFF79CFF84
:109AA800084B4FF00042C3F80423012384F86A30BE
:109AB800002010BD082010BD002C0020642C0020C0
:109AC80000E100E000600040034B93F86A000030BA
:109AD80018BF0120704700BF002C0020F7B53C4C90
:109AE8002318064693F93030002B6FDA8878C0F3D4
:109AF800400000280BBF082300230C250825AB4293
:109B080002D1042003B0F0BD54F82370013745D1C9
:109B1800A7195DB287F8305044F8232010B92344C0
:109B280083F858608B785A0718D4D80738D502A814
:109B380040F8086DFFF75CFF009B00EB8300D0F84E
:109B4800003723F00203C0F800372248F20806F075
:109B580007070123BB40875C3B43835488780A7816
:109B680010F0020029D0AB0003F1804303F5C04395
:109B78003602D3F8101521F44F3121F44071C3F89F
:109B880010151204D3F8101506F47C5602F440326E
:109B980016430E43C3F810650020B3E70133AEE760
:109BA80002A84A7840F8046DFFF722FF019B03F5ED
:109BB800E073920040F82320C7E7083D2C4494F84E
:109BC800606046EA821284F860209BE7082099E7E3
:109BD800002C0020642C002073B5224C2518064662
:109BE80095F93020072A1ADD224492F858309B094B
:109BF800032B10D102A840F8046DFFF7F9FE019A73
:109C0800D0F81035D340DB0707D402213046FFF7E0
:109C1800FBFE02B070BD012BF7D00321F6E7D3B2EB
:109C2800072BF6D8930003F1804303F5C043D3F81C
:109C3800100540F00100C3F8100502F14000800053
:109C480080B2FFF7C9FE0029E3D095F9303054F807
:109C58002330002BDDD0012303FA02F2024BC3F8B4
:109C68000423D6E7002C00200060004007B502ABB3
:109C780043F8040D1846FFF7BBFE019BD0F810050A
:109C8800D84000F0010003B05DF804FB2DE9F04F67
:109C980089B00024614A624E624D02940394012106
:109CA800A2F5C04052F8043B012B80B206D1D6F889
:109CB80004330B4202D0FFF78FFE0C43AA424FEA4F
:109CC8004101EDD1584B1B68012B0ED14FF4BE70EA
:109CD800FFF782FE4FF0A04344F00044D3F810355C
:109CE8000293524BD3F81035039314F0FF0F34D17D
:109CF800002C80F28F8004AE0023049373604C4FD5
:109D08004FF0FF33069307934FF0010800242546D0
:109D18007B1993F96020531C63D0D2B222F0C0099A
:109D280008AB4FEAD90003EB000B02F007011BF860
:109D3800083C08FA01F10B4253D007EB09039209DA
:109D480093F9303057F823A0BAF1000F21D1032A34
:109D580047D1335C0B4333541DE0354F01260025B2
:109D6800344210D0AB0003F1804303F5C043D3F86D
:109D78001005D3F8101557F8253023B1C1F3014168
:109D8800C0F3052098470135082D4FEA4606E7D16C
:109D9800AEE7032ADDD001A8CDF80490FFF728FE2E
:109DA800019B03F5E07350F823301BF8180C0842A8
:109DB800C3F3014305D0022B13D1032A0BD111465B
:109DC80004E0032B0DD1032A05D102214846FFF7F1
:109DD8001BFE0134E4B2BAF1000F02D01146484626
:109DE800D0470135042D93D1A4B14FF0A043029977
:109DF800D3F8102503F540739142D3F8103502D1FA
:109E08000399994206D002920393049A059B0692FD
:109E180007937BE709B0BDE8F08F00BF0061004001
:109E280000600040206100407C6100400003005059
:109E3800002C0020014B1B68184700BF6C2C002029
:109E48000D4B984237B50D4610D102A8002300F8F3
:109E5800013DFDF763FD094B1C7914B901221D6012
:109E68001A719DF80700FDF77DFD14B9002003B0B5
:109E780030BD1120FBE700BF002000406C2C002003
:109E8800034B984201BF034B00221A601A717047B6
:109E9800002000406C2C00200023435082B043581F
:109EA8000193019B02B070470A4610B54FF48E71BA
:109EB800FFF7F2FF136A9168C95C136A01331362F2
:109EC800C0F81C1510BD8B690A4610B54FF4847193
:109ED80023B9FFF7E1FFD0F8183510BDFFF7DCFF15
:109EE800536AD168D0F81805C854536A01335362CD
:109EF80010BD00001FB501238DF80030044B0290FF
:109F08000191684693E80600904705B05DF804FBA8
:109F1800742C002030B54D4AD2F8043313F4007F76
:109F280085B015464FD0D2F82431002B4BD04FF4D2
:109F380092711046FFF7B0FF4FF40173C2F808336F
:109F4800434B93F8291009B9012151603F49022276
:109F58008DF80020D1F88024C1F8802403929A69F2
:109F68000292DA68019200229A61DA61684693E8FF
:109F7800060090473548D0F81C315BB134490A6A6D
:109F88004B699A420A464CD291F82830002B48D1A6
:109F9800FFF78AFF2D4AD2F8443193B14FF4A271EA
:109FA8001046FFF779FF2A4B93F8291009B10121D0
:109FB80011609A692AB100229A61586AD968FFF734
:109FC80099FF05B030BDD5F804335B07D2D5D5F875
:109FD8000831002BCED01E4C1C482146FFF773FFDA
:109FE800636AA2699A422346C4D1E26952B12369DD
:109FF800E168E3600023606AA261E3616362FFF7DE
:10A0080079FFB7E794F829200AB901226A600F4A54
:10A018004FF40171C2F8081300229A61586AD9688E
:10A02800EDE74FF48E710948FFF736FF51690029B3
:10A03800B0D00023029191688DF8003001915361EE
:10A04800684692E80A009847A4E700BF002000404D
:10A05800742C00201F2886BF00F01F00044B4FF00F
:10A06800A04300F5E070022243F82020704700BFAB
:10A07800000300502DE9F843674B047991462C22E0
:10A0880002FB0432064692F82A200D469846002A1A
:10A0980040F0BE8061490068FFF7D2FE07460028FD
:10A0A80040F0B88029684A1C10D01F2987BF01F0EA
:10A0B8001F035B4A0B464FF0A0420120984003F56E
:10A0C800E073C2F80805032042F823006868431CBF
:10A0D8000DD01F288BBF00F01F030346504A4FF0D6
:10A0E800A04203F5E0734FF0000E42F823E0336816
:10A0F800AA6995F814E0C3F824256A7DBEF1010F1A
:10A108004EEA0202C3F86C25C3F81405C3F80C150F
:10A118002BD1A968481C0DD01F298BBF01F01F0245
:10A128000A463F484FF0A04002F5E0724FF0000E9B
:10A1380040F822E0E868421C13D01F2887BF00F0CF
:10A148001F0E374A86464FF0A0424FF0010C0CFA1A
:10A158000EFC0EF5E07EC2F808C54FF0030C42F87D
:10A168002EC0C3F80805C3F810152C23634308EB69
:10A178000302C2F804902A6948F80320B9F1000FD5
:10A1880033D04FF48E7130682D7FFFF785FE30682D
:10A198004FF4A271FFF780FE3268224BC2F80433F5
:10A1A800120B53B2002BA8BF03F160404FEA5313C0
:10A1B8004FEA4511BABF1C4802F00F0500F561408F
:10A1C8004FEA8303B4BFC9B2C9B203F16043B4BF55
:10A1D800415580F8001303F5614302F01F02012185
:10A1E80001FA02F2C3F880211A6033680422C3F826
:10A1F80000252C2303FB048300229A61DA6183F88B
:10A2080029205A61012283F82A203846BDE8F883BC
:10A218000827FAE71127F8E7742C00201D9F020091
:10A22800000300508000020014ED00E02DE9F04129
:10A2380003680479254D0022C3F800252C2202FB6F
:10A2480004520646526872B1214AC3F80823190B12
:10A258004AB20120520901F01F0100FA01F120322F
:10A268001C4840F82210D3F80C05D3F81485D3F80D
:10A278000815D3F810754FF0FF329042C3F8142533
:10A28800C3F80C25C3F80825C3F8102501D0FFF73B
:10A29800E1FEB8F1FF3F02D04046FFF7DBFE7A1C33
:10A2A80002D03846FFF7D6FE4B1C02D00846FFF70F
:10A2B800D1FE3068FFF7E4FD2C2303FB0454002390
:10A2C80084F82A306360BDE8F08100BF742C002058
:10A2D8008402020000E100E02DE9F843234F0679EB
:10A2E8004FF02C0909FB067480466569002D37D1AB
:10A2F8006261A16025624FF48E71006884F828506D
:10A30800FFF7CAFDD8F80000012383602146FFF754
:10A31800CBFD6368A14633BBD8F80050226A636955
:10A328009A4212D3D8F80030D3F81C21002AFBD067
:10A338000122DA6000202C2303FB067600237361D8
:10A34800BDE8F88394F8283043B9D5F81C31002BC0
:10A35800F8D049462846FFF7A7FDDFE70F20EAE7D0
:10A368001120BDE8F8832846BDE8F883742C002046
:10A378000023435082B043580193019B02B07047B9
:10A388001FB501238DF80030054B8DF808000191A9
:10A39800684693E80600904705B05DF804FB00BFE7
:10A3A800A02C00207FB5384AD2F82461002E49D06D
:10A3B80010464FF49271FFF7DBFF02238DF800304F
:10A3C800D2F88034C2F880340393D2F83C358DF843
:10A3D80008302E4BDA68019200229A61DA616846E9
:10A3E80093E806009047284AD2F8443173B14FF4F5
:10A3F800A2711046FFF7BCFF244B996931B10021C7
:10A408009961D2F83C05D968FFF7BAFF1E4AD2F81D
:10A418002031ABB14FF490711046FFF7A9FF1B4BE9
:10A42800596969B1D2F84C158DF80810002299685D
:10A438008DF8002001915A61684693E8060090471C
:10A4480004B070BDD2F81031002BCCD04FF4887115
:10A458001046FFF78DFF0D4BD2F83C0599698842ED
:10A46800C1D1DC696CB1D2F80052D96825F0200559
:10A47800C2F800521A699C61DA60DE61FFF780FF5A
:10A48800B1E79C61D968F9E700200040A02C0020C2
:10A498001F2886BF00F01F00044B4FF0A04300F5B3
:10A4A800E070022243F82020704700BF00030050EC
:10A4B8002DE9F8436B4B06799146242202FB0632BC
:10A4C800044692F820200D469846002A40F0C6809F
:10A4D80065490068FFF7B4FC0746002840F0C080D3
:10A4E8002868421C10D01F2887BF00F01F035F4A4E
:10A4F80003464FF0A0420121994003F5E073C2F8EA
:10A508000815032142F8231069684B1C0DD01F2938
:10A518008BBF01F01F030B46544A4FF0A04203F5CE
:10A52800E0734FF0000E42F823E02368AA6995F81B
:10A5380014E0C3F824256A7DBEF1010F4EEA020239
:10A54800C3F86C25C3F80C05C3F814152BD1A968FA
:10A55800481C0DD01F298BBF01F01F020A46434833
:10A568004FF0A04002F5E0724FF0000E40F822E0F4
:10A57800E868421C13D01F2887BF00F01F0E3B4A13
:10A5880086464FF0A0424FF0010C0CFA0EFC0EF577
:10A59800E07EC2F808C54FF0030C42F82EC0C3F89D
:10A5A8000805C3F810152423734308EB0302C2F807
:10A5B80004902A6948F80320B9F1000F3DD04FF400
:10A5C800887120682D7FFFF7D3FE4FF490712068C3
:10A5D800FFF7CEFE4FF492712068FFF7C9FE20689E
:10A5E8004FF4A271FFF7C4FE2268214BC2F804336E
:10A5F800120B53B2002BA8BF03F160404FEA53136C
:10A608004FEA4511BABF1B4802F00F0500F561403B
:10A618004FEA8303B4BFC9B2C9B203F16043B4BF00
:10A62800415580F8001303F5614302F01F02012130
:10A6380001FA02F2C3F880211A6023680822C3F8DD
:10A648000025242303FB068300229A61DA615A61FC
:10A65800012283F820203846BDE8F8830827FAE766
:10A668001127F8E7A02C0020ADA30200000300503A
:10A678001003020014ED00E02DE9F04103680479AD
:10A68800254D0022C3F80025242202FB0452064669
:10A69800526872B1214AC3F80823190B4AB2012043
:10A6A800520901F01F0100FA01F120321C4840F85C
:10A6B8002210D3F80C05D3F81485D3F80815D3F86D
:10A6C80010754FF0FF329042C3F80C25C3F81425DB
:10A6D800C3F80825C3F8102501D0FFF7D9FEB8F153
:10A6E800FF3F02D04046FFF7D3FE7A1C02D038461F
:10A6F800FFF7CEFE4B1C02D00846FFF7C9FE3068B4
:10A70800FFF7BEFB242303FB0454002384F8203006
:10A718006360BDE8F08100BFA02C00201003020098
:10A7280000E100E001F06043B3F1005F2DE9F04182
:10A73800074632D11D4B0679242505FB0635984678
:10A748006C696CBB6A61A96000684FF49071FFF78F
:10A758000FFE4FF4AC713868FFF70AFE3B686A6970
:10A76800A968C3F84415C3F8482501229A606A68A5
:10A77800CAB9D3F82011D3F8582149B9002AF8D01A
:10A788000F20242303FB068600237361BDE8F081B4
:10A79800002A14BF0F200020F3E71020BDE8F08145
:10A7A8001120BDE8F0812046BDE8F081A02C0020F2
:10A7B8000220FCF759BB000008B5094B1B7853B1C0
:10A7C8000020FCF71FFB0120FCF71CFB0320BDE861
:10A7D8000840FCF717BBBDE80840FCF727BB00BFE3
:10A7E800C52C0020F8B5784C237805461BB100230A
:10A7F8002370FFF7E1FF172D00F28780DFE805F0EF
:10A808000C1717435464757F878C878C9498989895
:10A818009898C2C6CDD4DEDEFFF7CEFF6B48FDF7B1
:10A828006DF86B4B002204461A702046F8BD0020D4
:10A83800FCF7C0FAF8B10020FCF7E4FA022D0CBFCF
:10A848004FF4E1614FF47A61614B1D704FF40040A1
:10A858004FF4FA740025E0FB01454FF47A720023A7
:10A868002046294605F046FA002201465748BDE829
:10A87800F840FCF7FDBFFCF7B1FA022D0CBFC82168
:10A888004FF4C871E0E70020FCF794FA40B10020CB
:10A89800FCF7B8FA4FF4487103224D4B1A70D5E70C
:10A8A800FCF79CFAC821F7E70020FCF783FA30B1DF
:10A8B8000020FCF7A7FA4FF47A610422EDE7FCF7D1
:10A8C8008DFA4FF4C871F8E70020FCF773FA48B125
:10A8D8000020FCF797FA3E4B05221A7041F69A11B0
:10A8E8000022C3E7FCF77AFAF5E70020FCF7BCFA88
:10A8F800374B06221A70002240F6CD41B6E70020F9
:10A90800FCF76CFA0722324B1A7000248DE70120FD
:10A918002070FCF7A9FAEEE701202070FCF7A4FAF2
:10A9280000224FF48041A1E7FCF78FFA0C22EAE7F6
:10A938002848294EFCF7E2FFD5F1110504461CD042
:10A94800D8B9012D13D0C8235D434FF4FA70002104
:10A958004FF400474FF47A720023C7FB050105F056
:10A96800C9F9224601461B48FCF782FF044602202B
:10A97800FCF734FA0123337057E70220FCF742FA58
:10A988000023F8E7FFF718FF1222BCE7FFF714FFD0
:10A998000020FCF723FA1322B5E7FFF70DFF01208B
:10A9A800FCF71CFA1422AEE7FFF706FF0020FCF7BD
:10A9B80015FA0120FCF712FA1522A4E7FCF745FA6C
:10A9C800034B1D70A1E700BF382D0020082D002083
:10A9D800402D0020C82C0020C52C00202DE9F04770
:10A9E80081460D46FCF76EFA0328044631D8012D3E
:10A9F80004D022D3022D2ED0BDE8F087194D470090
:10AA08003A18A918AE5C4A7852B1DFF8688016483F
:10AA180042464FF40041FCF72BFF08B988F8009034
:10AA28003B192B449A78114B1A5596B1104B1B6859
:10AA38007BB13046BDE8F04718470B48FCF75EFF8E
:10AA4800084B04EB440213449E78084B1B5DB34249
:10AA5800EBD0BDE8F087034B00EB40041C4466785C
:10AA6800E3E700BF282D0020E82C0020412D00201E
:10AA78003C2D0020C42C002002210078FFF7AEBF37
:10AA8800044B1B68DB0703D5034B1878FFF7AABEF6
:10AA9800704700BF342D0020402D0020002910B53C
:10AAA80014BF03240024FCF71FFA1F288ABF0A4B8F
:10AAB8004FF0A04300F01F0003EB8000D0F8002700
:10AAC80022F44032C0F80027D0F8003743EA0443A4
:10AAD800C0F80037002010BD00030050032801D83B
:10AAE800FCF7DCB900207047044B1B6813F0010326
:10AAF80001D0FFF777BE1846704700BF342D0020FD
:10AB080038B51C4B18601C4B10F002040546196040
:10AB18001AD01A4B1A480E221A700F22DA70102215
:10AB28009A7111225A72042140F26662FCF7A6FB60
:10AB3800044648B9FCF7F4FB044628B90146114A13
:10AB48001148FCF783FE0446EB0711D50120FCF7FA
:10AB5800D1F96CB921460D4A0D48FCF777FE044639
:10AB680030B90C4A0C480121BDE83840FCF76EBEEC
:10AB7800204638BD342D00203C2D0020282D0020F3
:10AB8800180A030081AA02003C0A030089AA0200ED
:10AB9800400A0300B9A70200380A0300032812D8A4
:10ABA800012A0BD1012908D100F10E02D2B200EB23
:10ABB80040000C4B1A540020704700220129F6D09F
:10ABC80009D3022901D007207047064B00EB40004B
:10ABD80018444270EFE7034B00EB400018448270C2
:10ABE800E9E700BF282D0020032802D80121FFF73C
:10ABF80055BF0620704708B5012202210020FFF743
:10AC0800CDFF08B1072810D1072202210120FFF744
:10AC1800C5FF08B1072808D100210A220846FFF716
:10AC2800BDFF10B1072808BF002008BD0388102BFE
:10AC380010B502D0112B1ED010BD194C2168B1B926
:10AC480001220846FFF7AAFF08B1072821D10722E9
:10AC580002210120FFF7A2FF08B1072819D1042219
:10AC680002210020FFF79AFF08B1072811D12368B5
:10AC78000133236010BD0A4A1368013B136073B99E
:10AC8800FFF7B9FF58B1074B1B6843B1BDE8104047
:10AC98001847044B1B68002BE9D09847E7E710BD1D
:10ACA8004C2D0020482D002008B50020FFF79CFF00
:10ACB80008B1062806D10120FFF796FF10B1062833
:10ACC80008BF002008BD00000D4B10B518600C46E9
:10ACD80029B10120FFF702FF40B102232370094B7D
:10ACE8001B6853B9BDE81040FFF785BFFFF7F6FEB4
:10ACF80008B10B23F2E72070F1E7002010BD00BF78
:10AD0800482D00204C2D002076DF70477ADF7047F1
:10AD18007CDF70478FDF7047FCF718BB08B5002051
:10AD2800FFF7E2FE08B1FCF711FBFFF7BDFF08B122
:10AD3800FCF70CFB04F024FE18B1BDE80840FCF752
:10AD480005BB08BD0388212B13B504461ED003D8C4
:10AD5800102B0AD002B010BD3B2B01D0562BF9D1D5
:10AD68001321A088FFF7D0FF0BE00720FFF7BCFEF8
:10AD780008B1FCF7EBFA0A4BA1880A48198002F0DF
:10AD8800F1F90028E6D0FCF7E1FAE3E7002301A98E
:10AD980080888DF804308DF80530FFF7BBFFF0E7A9
:10ADA80058220020BC2F002010B5044603F0ECFC0C
:10ADB8002046BDE8104003F00DBB000010B5254B40
:10ADC800254C8CB0032840D8DFE800F0022A333A3B
:10ADD800181BC408240444F0030420492046FBF748
:10ADE8006BFE2C22002101A805F094F84FF496720E
:10ADF8000123059201A944F25062194806928DF880
:10AE080008308DF8043000F0C0FE0021154801F02C
:10AE180023F9154902462046FBF752FE0CB010BD37
:10AE2800181BC0080004114940F00300FBF744FE5A
:10AE3800F4E7181BC0080E49000440F00100F5E7CC
:10AE4800181BC00800040B49F7E7181BC0080004CA
:10AE58000949F2E77800030050000300A00A030044
:10AE6800502D002085AE0200CE0A0300E50A03003B
:10AE7800080B0300410B03006E0B030010B51321F0
:10AE88000246FFF741FF034658B10648064C0749FA
:10AE9800241AE408240444F00200BDE81040FBF73B
:10AEA80019BE10BD5000030078000300950B030085
:10AEB800022810B50ED1084B084C0949E41AE408D9
:10AEC800240444F003042046FBF7F6FD0549204618
:10AED800FBF7F2FD012010BD5000030078000300CD
:10AEE800440A0300710A0300032807D14FF0804386
:10AEF800A922C3F820250020FEF75EBB704700009A
:10AF080008B503784BB9054B3B211888FFF7FCFEC1
:10AF180018B1BDE80840FCF719BA08BD582200204E
:10AF2800072808B513D00A280DD0042819D10D4BCD
:10AF380013211888FFF7E8FE30F0080311D0BDE8A8
:10AF48000840FCF703BABDE80840FFF7E7BE054B29
:10AF58001A884FF6FF739A4203D1034800F0F7FDB1
:10AF6800EAE708BD58220020502D002008B548B156
:10AF780003280BD10220FFF7B7FD38B1BDE8084020
:10AF8800FCF7E4B9BDE80840FFF7C8BE08BDFCF708
:10AF9800DDB9000070B54FF40041ACB00020FBF7FC
:10AFA800C3FB08B1FCF7D2F9FBF7F4FA04F0A2FBF3
:10AFB80008B1FCF7CBF9FCF717FC08B1FCF7C6F9A8
:10AFC800FEF7AAFA08B1FCF7C1F985490320FFF793
:10AFD80097FD08B1FCF7BAF901A90020FFF774FE44
:10AFE80008B1FCF7B3F99DF8045004F08DFC08B1E2
:10AFF800FCF7ACF9002301A90120019304F04AFDF4
:10B0080008B1FCF7A3F901A804F0F6FD08B1FCF7B4
:10B018009DF902F07FFE08B1FCF798F9052200219E
:10B0280001A804F077FF9DF8043043F001030322E0
:10B0380003F0F10362F306136FF3C7138DF80430BE
:10B0480007238DF8053010238DF806309DF807305A
:10B0580013438DF807309DF8083001A813438DF885
:10B06800083002F0F1FE08B1FCF770F95D4802F013
:10B07800D3FE08B1FCF76AF99DF800305A4801225E
:10B0880062F303032CAC62F3071304F8B03D04F039
:10B0980075FF554982B22046FFF73AFE08B1FCF722
:10B0A80055F90822002101A804F034FF5023ADF817
:10B0B8000430A023ADF806300023ADF8083001A80D
:10B0C8004FF4C873ADF80A30FFF720FE08B1FCF75B
:10B0D8003DF90021454801F035FF08B1FCF736F984
:10B0E800AC22002101A804F015FF02238DF80430DA
:10B0F800062301268DF8073000213D4B06932C22AC
:10B108001FA88DF80660ADF8146004F003FF4FF433
:10B118009673239344F25063249301A9354B364820
:10B128008DF880602A9300F054FB08B1FCF70EF903
:10B138000121314800F04AFB0023019321462F4B9F
:10B148002F48009301F0FCFF08B1FCF7FFF82D4BE6
:10B15800019301A804F050FA08B1FCF7F7F81C2293
:10B16800002101A804F0D6FE00234FF420320193F9
:10B178000292ADF812304FF470228DF81430224B41
:10B18800039206930322214B8DF8102001A8079300
:10B1980000F008FE08B1FCF7D9F81D4B1D4C1E49FC
:10B1A800E41AE408240444F003042046FBF784FC72
:10B1B800022D0FD119492046FBF77EFC02F09CFEB8
:10B1C80008B1FCF7C3F8FBF709FB0028FBD1FEF731
:10B1D800CDF9F8E70321084800F072FBF0E700BF5B
:10B1E80029AF0200B1AD0200D60B0300A82F002042
:10B1F8005422002075AF0200502D002097AF0200A6
:10B20800BC2F0020C5AD020009AF020021AD02002D
:10B218005000030078000300DF0B0300030C030059
:10B2280013DF704738B54FF01025124C6B69124880
:10B23800013314D0241AE40824046A690F4944F03D
:10B248000300FBF73DFC6869FFF7EAFF054620B1FC
:10B258000B4944F00100FBF72FFC284638BD201AA3
:10B26800C0080004074940F00100FBF725FC04254D
:10B27800F3E700BF7800030050000300100C030040
:10B288003B0C03006E0C030038B50B4B0B4C0C4AFF
:10B298000C49E41AE408240444F00300FBF710FC0A
:10B2A8000748FFF7BDFF054620B1074944F00100F4
:10B2B800FBF702FC284638BD500003007800030065
:10B2C80000600200860C03003B0C03006DDF704732
:10B2D80079DF70477DDF704764DF70472DE9F74FEE
:10B2E8000C9CBDF834B02788002580468A469146D4
:10B2F8002E46B8F8002096420BDB35B12288013A79
:10B30800D21B92B2FF2A39D8DA55002003B0BDE823
:10B31800F08FD8F8042052F82600019000220DF191
:10B32800030101A8FFF7D8FF0028EFD19DF80320FB
:10B338004A4521D12288002D14BF0020022002EBAB
:10B3480009010144594519DC3DB9013292B2228004
:10B3580003F802A022880132228022880DF103011D
:10B368001A4401A8FFF7B8FF0028CFD121889DF81B
:10B3780003200A44228001250136BAE70C20C5E7DC
:10B388002DE9F341089CBDF8245017468DE830009C
:10B3980002220646FFF7A2FF48B910223946304676
:10B3A8000995089402B0BDE8F041FFF797BF02B0D5
:10B3B800BDE8F0812DE9F04F00231788138090F83D
:10B3C8002D3085B006460D46144643B3082F4ED996
:10B3D80002A8FFF77BFF002840F02081138808228D
:10B3E800CA54238801339BB21B222380CA54208865
:10B3F800013080B2208006220DF10901284404F0B2
:10B408005FFD23889DF8082006339BB212F0FE02E8
:10B4180018BF01222380EA54238801332380B3789C
:10B42800FBB123880433BB4221D802A8FFF750FFA1
:10B43800002840F0F38023880322EA54238801334C
:10B448009BB219222380EA542388BDF808200133CF
:10B458009BB2E9182380EA54120A4A7023880233FF
:10B468002380F278AAB12388D91CB94201D90C20CB
:10B47800D4E00221E954238801339BB201212380BF
:10B48800E95423880B449BB22380EA5423880B4455
:10B4980023807268AAB12388D91CB942E7D802214F
:10B4A80092F90020E954238801339BB20A212380B2
:10B4B800E954238801339BB22380EA54238801335B
:10B4C80023803389002B40F09D80338A5BB18DE85F
:10B4D80090002B460722032106F11000FFF750FFCA
:10B4E800002840F09B80338B5BB18DE890002B46A1
:10B4F8001522142106F11800FFF742FF002840F03A
:10B508008D80326A002A40F08C80D6F82480B8F109
:10B51800000F2ED0B8F804302188981C8A1C0244E9
:10B52800BA42A4D8FE28A2D803336B542388013327
:10B538009BB2FF222380EA54238801339BB22380E5
:10B54800B8F80020EA54E918120A4A702088023034
:10B5580080B22080B8F804205AB1D8F80810002921
:10B5680069D0284404F0ACFC2388B8F804201344BC
:10B57800238096F82C30002B40F0988030780028F3
:10B588004CD03388012B56D021888A1CBA423FF60A
:10B598006EAF012805D1737802330B449F42FFF444
:10B5A80066AF023F7F1A04A9BFB221F8087DA81828
:10B5B800FFF790FE90BB3378BDF80820022B02D02D
:10B5C8007178914202D3BA4240F2B680012B40F022
:10B5D800B08073789F42C0F0AC80ADF80830082185
:10B5E800BDF80830FE2B3FF642AF22880133AB543A
:10B5F8002288013292B22280A954228813442380DF
:10B6080000200BE08DE890002B460622022106F16F
:10B618000800FFF7B5FE00283FF457AF05B0BDE8B6
:10B62800F08FB4F800E00EF10603BB423FF61FAFFF
:10B638001188052901D80720F0E76FF4486C01EB61
:10B648000C039BB24FF27D3C6345F4D95388052B1C
:10B65800F1D96FF44860181880B26045EBD94FF6FD
:10B66800FF70814203D0834201D09942E3D8052379
:10B6780005F80E30238801339BB212212380E95448
:10B68800238801339BB223801188E954E818090AFA
:10B698004170238802339BB223805288EA54E91808
:10B6A800120A4A702388023323802EE7B36A002BDC
:10B6B800C1D04FF000094FF00C0A4FF0160B96F866
:10B6C8002C305FFA89F293427FF658AFB16A0AFBD1
:10B6D80002F201EB0208B8F80430981CFE283FF685
:10B6E800C6AE208803332B54238801339BB22380B2
:10B6F80005F803B0238801339BB223808A5AEA54A1
:10B70800E918120A4A702088023080B22080B8F8FE
:10B7180004205AB1D8F8081000298CD0284404F025
:10B72800CFFB2388B8F804201344238009F10109CA
:10B73800C5E7ADF8087052E7092151E770B558B16F
:10B748004AB116880024B44203D305196D789D4286
:10B7580008D08C4201D3002070BD055D01352C4412
:10B76800A4B2F0E78C42F6D2A31C1380005D013826
:10B7780080B270BD37B502AC002324F8023D1346F1
:10B7880022460546FFF7DAFF10B1BDF80600284447
:10B7980003B030BD72DF704773DF704774DF7047E6
:10B7A80038B5012204460D46B0F83812D0F83402F4
:10B7B800FFF7E0FF00B1057004F13C0204F50D71DC
:10B7C80004F15400BDE83840FFF7E4BF80F83010BA
:10B7D8007047F8B504460F4661B158B191F87A3010
:10B7E80053B191F898303BB10720F8BD1F2335E0DD
:10B7F8001F2346E00E20F8BD07F178060FCE4FF064
:10B80800000E251D84F802E00FC50FCE0FC596E87F
:10B81800070085E8070084F830E0D7F8A4306363B0
:10B82800D7F8A830A3634FF6FF7504F50D73C4F875
:10B838004432A4F848520722714604F24A2004F020
:10B8480069FB23780BB984F8545094F8243004F138
:10B858005501C4F83412002BC8D0EE23A4F83832AE
:10B8680004F50E723846FFF7A5FD40BB94F8243066
:10B8780004F2431107F13C00C4F83C12002BB7D086
:10B88800EE23A4F8403204F51072FFF793FDB0B927
:10B89800A269A4F8482001236269206484F8500052
:10B8A8006264014684F8513084F83C3004F13C026B
:10B8B80004F15400FFF76EFF08B92370F8BDF8BD16
:10B8C800F8B5077804460D46002F00F0058100F210
:10B8D8004A26A17007220021304604F01BFBE388AA
:10B8E80013B1A378012B04D0E3794BB1A378022BD1
:10B8F80006D1636B9BB1012284F851220820984736
:10B90800324604F5147112F8013F5BB98A42FAD144
:10B918006A1E032A52D8DFE802F0070D111484F8D2
:10B928005132EDE73B46F3E7A2791AB194F82420A7
:10B9380002B95BB9E2790AB1002B41D1237A002B15
:10B9480040D1637A002B0CBF00250425636BA570DA
:10B95800002B39D0033D012D36D86279A2B394F873
:10B9680052228ABB84F85422012284F853220720E9
:10B97800984704F13C0518220021284604F0CAFA29
:10B98800E36A0122591E914284F83C2002D9042B13
:10B9980040F0A48084F8513094F824201AB1BFB143
:10B9A800A36A84F85230A178002384F8503004291F
:10B9B8001DD8DFE801F0790F24375B000025C5E7C3
:10B9C8000225C3E70325C1E7002384F85332D0E7F3
:10B9D8000123E6E7C4F8443263640223012284F8B1
:10B9E8003C30802384F831202664A4F84830A378BA
:10B9F800002B5CD1636B002B6AD10020F8BD0223B9
:10BA080084F8313062B1072384F83C302369A4F804
:10BA180048300023C4F84432E36826646364E6E7E8
:10BA28000323F1E763696364A369A4F8483012B19A
:10BA3800062384F83C306379B3B194F852329BB949
:10BA480094F8543283B1022384F8503004212046FC
:10BA5800FFF7A6FE0028CAD1052384F8313004F583
:10BA68000D73C4F84432C2E70323F6E7E36963645D
:10BA7800236AA4F8483012B1062384F83C3063796D
:10BA880083B194F852326BB994F8543253B102230B
:10BA980084F8503004212046FFF782FE0028A6D102
:10BAA8000623DAE70423D8E784F831309FE72A46EB
:10BAB800D4F8441204F15400FFF76CFE90B994F8DE
:10BAC800301094F85400FFF767FE002892D0F8BDB4
:10BAD80094F83100984790E70820F8BD84F8512081
:10BAE800002759E7F8BD0388112B10B50C460AD07A
:10BAF800262B1CD0102B28D1C37B012B25D1838862
:10BB0800A1F8483210BD0022838881F85222B1F88A
:10BB180048229A4219D10B79BBB901212046FFF777
:10BB2800CFFE90B1A36B83B1BDE810401847037AEC
:10BB3800013B012B09D889780523013191FBF3F3E7
:10BB480003EB8303C91AC9B2E8E710BD704738B5DB
:10BB5800044690F85400FFF721FE012384F852327E
:10BB6800002384F8543284F8503006212046FFF729
:10BB780017FE054638B9A1782046FFF7A1FE10B197
:10BB8800A36B03B19847284638BD30B50D46041D50
:10BB98000FCD0FC40FCD0FC495E8070084E8070048
:10BBA80030BD75DF704776DF70477ADF70477BDF1F
:10BBB80070470000034B1A8882420CBF18460020C9
:10BBC800704700BFE42F0020024B9B6903B1184760
:10BBD800704700BFC82F002037B585B22846FFF749
:10BBE800E9FF034670B1164C017A227B91420BD2D1
:10BBF80000F10A012846FFF7D4FFE8B1112801D067
:10BC0800FFF7E2FF03B030BD237C0022027243B18C
:10BC18003B212846FFF7C7FF30F0080301D0FFF7A4
:10BC2800D3FF6369002BEDD000228DF80420ADF816
:10BC3800065001A89847E5E71A7A01321A72E1E737
:10BC4800C82F002013B50B46497A0F4C024669B934
:10BC5800A06861681C7A002C18BF01465868FBF779
:10BC680007FE08B1FFF7B0FF02B010BD002119723E
:10BC78006369002BF8D00121ADF806008DF8041097
:10BC880001A89847F0E700BFC82F00208388B3F5C4
:10BC9800FA7F28BF6FF4F97230B528BF9C18058861
:10BCA8004A8838BF002495420CD84088904209D36E
:10BCB8008A88A24206D303F2F310904234BF0020D0
:10BCC800012030BD002030BD0388112B70B501461E
:10BCD8002ED002D8102B05D070BD122B51D0502B6E
:10BCE80035D070BDC37B012B4AD14FF6FF70FFF7EB
:10BCF80061FF054620B90420BDE87040FFF764BF26
:10BD0800264A8E880680002303721368C5F80A3015
:10BD18000A30536843601031FFF7B8FF204B687250
:10BD2800DB896BBB29463046BDE87040FFF78ABF08
:10BD38008088FFF73FFF044610B34068FBF7DEFD3D
:10BD480008B1FFF741FF4FF6FF73238070BD144B16
:10BD5800C288DB899A4213D1038A022B10D18688C4
:10BD68003046FFF727FF054650B101F1120000F0F9
:10BD7800C2F90028D6D16868FBF7C0FD0028BBD1FE
:10BD880070BD86883046FFF715FF05460028F7D0B6
:10BD980008310A30FFF77AFF6872C3E7F82F0020EE
:10BDA800C82F0020F8B5064650B305460FCD154FED
:10BDB8003C460FC495E8070084E807003068124B3A
:10BDC8003B60B8B1FFF7F1FED8B931680A681A606C
:10BDD8004A685A600D480E4A4FF6FF7303800D4BB0
:10BDE80040F8043F0021FBF731FD002814BF032071
:10BDF8000020F8BD1846FFF7DAFE0028EAD0F8BDA3
:10BE08000E20F8BDC82F0020F82F0020E42F0020B6
:10BE1800E1BB020000300020F7B5174601900E463E
:10BE280091B1019C6CB100252C46294601A8FCF76C
:10BE380040FD18B13946A8B2B04701340135142D78
:10BE4800F3D1204603B0F0BD0C46FAE773B5019173
:10BE5800019C06466CB100242546294601A8FCF73A
:10BE680028FD18B106EB440301349D800135142DDB
:10BE7800F3D13046346002B070BD00002DE9F047C0
:10BE880003888488112B8CB0064638D01A2B3BD0F7
:10BE9800102B24D1274DAB680CA8DB4340F8303D6C
:10BEA8006968FCF76FFD009901A8FFF7CFFF0DF156
:10BEB80006094FF00008019B984513D3132C35D879
:10BEC80021461D48FCF7D4FC21461C48FCF7D0FC51
:10BED800F37B012B03D01A482146FCF7C9FC0CB0B0
:10BEE800BDE8F08739F802AF002704375146E81952
:10BEF800FCF7D5FC742FF8D108F10108DBE70E48F0
:10BF08002146FCF7CCFCEAE7057A0E482D09012DFD
:10BF1800214606DDFCF7ACFC022D21460A48F0D08C
:10BF2800DBE7FCF7BCFC21460748EAE70420FBF7FF
:10BF38000DFAD4E7203000202830002024300020DB
:10BF48002C300020303000203430002013280146E7
:10BF580002D80248FCF7ADBC00207047243000200E
:10BF680010B50446FFF7F2FF38B121460348FCF745
:10BF7800A0FC002814BF0220012010BD2C30002096
:10BF880010B50446FFF7E2FF38B121460348FCF735
:10BF980090FC002814BF0220012010BD283000208A
:10BFA80010B50446FFF7D2FF28B121460248BDE884
:10BFB8001040FCF77EBC10BD3030002010B50446A0
:10BFC800FFF7C4FF28B121460248BDE81040FCF73E
:10BFD80070BC10BD3430002008B518210248FCF7A9
:10BFE80071FCC0B208BD00BF2030002070B50A4DFA
:10BFF800064628460C46FCF75CFC58B13046FFF76D
:10C00800A5FF38B1A01D314605EB8000BDE87040A2
:10C01800FCF74FBC002070BD20300020F8B50D4D56
:10C02800064628460C461746FCF743FC80B13046C6
:10C03800FFF78CFF60B1A01D314605EB80001FB1F2
:10C04800BDE8F840FCF714BCBDE8F840FCF727BC95
:10C05800F8BD00BF20300020034B9B680A4601460C
:10C068001846FFF7D9BE00BF20300020F8B50A4CAB
:10C0780005460E46014620461746FCF71AFC48B10D
:10C08800043504EB85043A46A0683146BDE8F8401B
:10C09800FFF7C2BEF8BD00BF20300020AADF7047FE
:10C0A8000B7803F0F0036FF3071301380B700428C3
:10C0B80011D8DFE800F0030811171D000B780122E2
:10C0C80062F3030304E00B78012262F30303022204
:10C0D80062F307130B7070470B78012262F30303B6
:10C0E8000322F5E70B78022262F303030122EFE74C
:10C0F8000B780222E4E7007800F00100704700782E
:10C10800C0F340007047F0B58B7891B005460C46F7
:10C11800164603B9012303228DF80E300021238827
:10C12800ADF80C30684603F0F5FE6946607CFFF711
:10C13800B7FF0DF10101A07CFFF7B2FF9DF80230B7
:10C14800E27B62F3C303227C62F30413227B62F373
:10C158000003227D002A14BF0222012262F3420357
:10C1680000211C2209A88DF8023003F0D3FE637B5E
:10C1780013F0300F1AD002AF03220021384603F023
:10C18800C9FE0DF10901E07CFFF78AFF9DF8083030
:10C198000E97012262F3030362F307138DF8083048
:10C1A8009DF80A3062F342038DF80A30637B8DF8FC
:10C1B80024301422A37B8DF82530002104A803F035
:10C1C800A9FE03AB0493A388ADF81C30A368CDF88F
:10C1D80014D01BB1E288ADF818200893A369002B8E
:10C1E8002ED001AF03220021384603F093FEA36945
:10C1F8001A88ADF82C205A88187BADF82E203946BD
:10C208005A680A920D97FFF74BFFA3690DF10501D4
:10C21800587BFFF745FFA2699DF80630917A61F3D4
:10C22800C303D17A61F30413117A927B002A61F374
:10C23800000314BF0222012262F342038DF8063084
:10C24800E36903B10C93334604AA09A92846FFF70A
:10C2580025FF11B0F0BDA0DF704710B50446408837
:10C2680000F0C2FCA0802046BDE8104001F04EBDA1
:10C2780030B587B005460C4618220021684603F001
:10C2880049FE072368468DF80030ADF80250029445
:10C29800FFF7E3FF07B030BD70B586B0054618223A
:10C2A8000021684603F036FE4FF6FF739D42ADF855
:10C2B800025029D0284600F081FB0B2804462CD0D8
:10C2C80014D818B32046FDF71BFA1B4E1B4B1C490C
:10C2D800F61AF608360402462B4646F00100FAF72D
:10C2E800F9FB21462846FFF7C3FF05E0112805D0D2
:10C2F80043F202039842E5D1002200E00122114BEB
:10C3080028461978FFF78AFE06B070BD0E238DF80F
:10C3180000306846FFF7A1FFEEE70F238DF80030E5
:10C328000548064B0849C01AC00800042A4640F0D0
:10C338000200FAF7C5FBECE7B80003005000030061
:10C34800CB0E03009D3000204B0E0300FFF7A4BF67
:10C35800024B034918780022FFF788BE9F3000205F
:10C36800A1C3020013B5042204460021684603F065
:10C37800D1FD42F6A623ADF8003001238DF8023036
:10C38800044B1868019001AA69462046FFF763FF2D
:10C3980002B010BDB00C03002DE9F0412D4D86B060
:10C3A80029780446FFF722FEA8460746002849D107
:10C3B800204600F06BFB0828054632D016D808B393
:10C3C80006282ED02846FDF79BF9234E234B2449F7
:10C3D800F61AF60836040246234646F00100FAF734
:10C3E80079FB29462046FFF743FF09E043F20203A1
:10C3F800984205D043F20143984226D01128E1D152
:10C40800012214E039461822684603F083FD102300
:10C4180068468DF80030ADF802400127FFF71DFF90
:10C42800EEE7204600F0E0FB00F05EFB00220D4B3B
:10C4380020461978FFF7F2FD3A4698F80010204692
:10C44800FFF7ECFD06B0BDE8F0812046FFF724FFBA
:10C45800D6E700BFA0300020B8000300500003005A
:10C468001C0F03009F30002013B5044600F0BCFBEE
:10C4780000236A46092101F013F8052805D1044B69
:10C48800012219782046FFF7C9FD02B010BD00BF90
:10C498009C30002008B5084B084918780022FFF79F
:10C4A800E5FD024630B9064B06491878BDE8084054
:10C4B800FFF7DCBD08BD00BF9E300020D1C40200DC
:10C4C8009C3000206DC3020070B5012186B006467D
:10C4D8002A48FCF724FA0446BFF35F8F80BB304636
:10C4E80000F010FA112805462CD015D8E0B12846DE
:10C4F800FDF706F9224C234B2349E41AE4082404E7
:10C508000246334644F00100FAF7E4FA2946304679
:10C51800FFF7AEFE002405E0862815D043F202039B
:10C528009842E4D1224601E001240246174B3046E6
:10C538001978FFF773FD1CB9BFF35F8F0F4B1C60B1
:10C5480006B070BD0122F1E721461822684603F0C3
:10C55800E1FC06238DF8003009480A4B0C49ADF878
:10C568000260C01AC0080004324640F00200FAF720
:10C57800A7FA6846FFF771FED4E700BF983000209D
:10C58800B800030050000300F10C03009E300020A7
:10C59800BC0C030038B503780446A3B94088FFF7FC
:10C5A8007BFE6588284600F05FFA28B1064B012219
:10C5B80019782846FFF732FD6088FFF755FFBDE878
:10C5C8003840FFF767BF38BD9F3000200378082B3D
:10C5D80037B5044630D1427A72BB057A072D1BD095
:10C5E800082D2DD0012D27D16A462946808801F0D3
:10C5F800DDF908BB019B1B78F3B1A08800F022FB92
:10C608004FF6FF73984217D0114B2A461978FFF757
:10C6180005FDFFF79DFE0FE0808800F013FB4FF645
:10C62800FF739842044607D00A4B01221978FFF796
:10C63800F5FC2046FFF718FFFFF72CFF03B030BDCD
:10C64800054B19680129F7D1BFF35F8F1A60F3E72B
:10C658009F3000209E30002098300020F8B5FFF76A
:10C66800BBFC194F194E3870FFF7B6FC3070FFF756
:10C67800B3FC174D174C2870FFF7AEFC2070FFF77E
:10C68800ABFC154B18703B78182B0AD03378182B55
:10C6980007D02B78182B04D02378182B01D0182812
:10C6A8000BD10E4B0E480F49C01AC008000440F0C9
:10C6B8000100FAF701FA0320F8BD0B4B00201860BF
:10C6C800BFF35F8FF8BD00BF9E3000209D30002073
:10C6D8009F300020A03000209C3000205000030034
:10C6E800B8000300DC0D03009830002013B50123C7
:10C6F80000240094ADF8003009230F4A8DF8023069
:10C708000E4BA14214BF19461146019100F06CFA74
:10C718002246694600F032FF60B1FCF7F1FF084A93
:10C72800084B09499B1ADB081B04024643F0020028
:10C73800FAF7C6F902B010BDB40C0300B80C030038
:10C7480050000300B80003005C0F030030B50388F5
:10C758008588502B87B0044635D00BD8352B45D06B
:10C768003D4B3E4918780022FFF780FCFFF7F0FDAB
:10C7780007B030BD522B22D0542BF1D11822002102
:10C78800684603F0C7FB112328468DF80030ADF842
:10C79800025000F029FAADF8040000F0A5F9304B7A
:10C7A800284619780022FFF739FC2E4B284600222C
:10C7B8001978FFF733FC6846FFF74FFDD0E72846A6
:10C7C800FFF76AFDCCE7037B012BC9D1827A012AE6
:10C7D800C6D1018942F602139942C1D1224B28469B
:10C7E8001978FFF71BFCFFF755FEB9E71F4B00222E
:10C7F80019782846FFF712FCE288B2F5857F0AD03F
:10C808005AB11B4B1B481C49C01AC008000440F011
:10C818000200FAF755F900211AE06289012A09D0C5
:10C82800134B14481549C01AC008000440F0020010
:10C83800FAF746F9A289012A06D00D4B0D4810498E
:10C84800C01AC0080004E2E7A17B003118BF01212B
:10C858002846FFF74BFF83E79D30002055C30200B1
:10C86800A03000209F3000209E3000209C30002007
:10C8780050000300B80003002E0D0300680D0300EC
:10C88800A20D0300AFDF7047B1DF7047B2DF70471A
:10C89800B3DF704773B50F4B0F4C93E803000022CA
:10C8A8008DE803006946208800F068FE6D464FF663
:10C8B800FF762388B34201D0112801D102B070BDA0
:10C8C800184600F0BEFE00222946208000F056FEE1
:10C8D800EFE700BFCC0F0300A2300020044B1A88FA
:10C8E8004FF6FF739A4201D0FFF7D4BF704700BFDD
:10C8F800A2300020024B4FF6FF721A8000207047CA
:10C90800A23000202DE9F347804600F06DF94FF67C
:10C91800FF739842074647D0254B264EDFF898A06C
:10C92800F61AF608360446F0010601226B4608217D
:10C93800384602F1010901F03DF81FFA89F9054668
:10C9480068BB01990A46032342F8043B0631404676
:10C95800FFF79CFF044648B93A460821384601F0DB
:10C96800F3F80446204602B0BDE8F0870C2814D03E
:10C97800052800D12C460821384601F091F840B12D
:10C98800FCF7BEFE3A46034651463046FAF7A2F88F
:10C9980003244A46002DC9D1E4E70125EBE707281F
:10C9A80014BF04460C24DDE743F20204DAE700BFB3
:10C9B80050000300C0000300541003002DE9F743A2
:10C9C800074600F011F94FF6FF73984227D100256A
:10C9D8000326A8464FF0010933462A464146384601
:10C9E800FFF752FF0428044630D0082834D00B281B
:10C9F8002DD116F002031ED1B8F1000F1FD115BBBF
:10CA0800164B17481749C01AC00800043A4640F0A8
:10CA18000100FAF755F8204603B0BDE8F0836A46EE
:10CA2800082100F0C3FF0028D1D1019B03F10608BB
:10CA38009D881E68CEE701264FF00009CCE7032643
:10CA48001D469846F8E703264546F5E71124B9F14F
:10CA5800000F08BF0B24DEE70024F8E750000300AE
:10CA6800C0000300DC0F03001FB50DF1070303939B
:10CA780000F0BAF802AA012100F098FF20B9039B40
:10CA8800187805B05DF804FB0020FAE738B50446CD
:10CA98001148FFF7FDFE70B90F4B43F203054FF63F
:10CAA800FF7219882046FFF7EDFEA84212D11A88B6
:10CAB80001321A80F3E7FCF723FE084A084B0949BC
:10CAC8009B1ADB081B04024643F00100F9F7F8FF44
:10CAD800032038BD38BD00BFA4300020500003003B
:10CAE800C0000300D310030013B5064A044692E8B9
:10CAF800030000228DE803006946204600F03EFD51
:10CB080002B010BDD40F030046DF7047421E00F18B
:10CB18000F0312F8010F10B99A42FAD17047012099
:10CB2800704708B580B171B103780A78534013F0A3
:10CB3800FE0F08D106220131013003F0A0F9B0FA46
:10CB480080F0400908BD002008BD2DE9F04700F13C
:10CB580001084F1C06460D4600F1110901F1110AA2
:10CB680010223946404603F08AF90446E0B94046A7
:10CB7800FFF7CCFF18B13846FFF7C8FF0446514607
:10CB88004846FFF7CEFF737C03F0FC03042B04D068
:10CB98006B7C03F0FC03042B02D1201C18BF01207E
:10CBA80000F00100BDE8F0870024E8E730B585B063
:10CBB80004460D4600F0ACFC02AA0DF10601072060
:10CBC80000F0AEFC10B94FF6FF700BE0BDF8063070
:10CBD800AB42F1D003992046FFF7B7FF0028EBD00E
:10CBE800BDF8060005B030BD132810B5044602D9BB
:10CBF8004FF6FF7010BDFFF7A9F90028F8D00A20FA
:10CC08006043014B185A10BDA6300020132838B5D0
:10CC180004460D4602D943F2020038BDFFF796F9E3
:10CC28000028F8D006480A2303FB040050F8023F06
:10CC38002B608388AB808379AB71002038BD00BF3F
:10CC4800A63000204FF6FF7398422DE9F0410646C2
:10CC580004D14FF6FF752846BDE8F081094F00243E
:10CC68004FF00A0808FB04F3A5B2DB5BB34203D01C
:10CC78000134142CF6D1ECE72846FFF767F90028B1
:10CC8800F6D0E8E7A6300020038843B9821C00F1FB
:10CC98000A0312F8010B10B99A42FAD17047012021
:10CCA800704710B50446FFF7EFFF68B122880B887C
:10CCB8009A4208D108220231A01C03F0E0F8B0FA29
:10CCC80080F0400910BD002010BD1FB5044600F0DB
:10CCD8001FFC02AA0DF10601072000F021FC10B983
:10CCE8004FF6FF7007E0039920464631FFF7D9FF5A
:10CCF80018B1BDF8060004B010BD039920462A31CA
:10CD0800FFF7CFFF0028E4D0F3E7000013289FBF08
:10CD18000A235843014B1952704700BFA630002020
:10CD280038B50546FFF78EFF0446284600F0C2FED8
:10CD380038B9132C05D80A236343024A4FF6FF710A
:10CD4800D15238BDA630002030B58DB014460D46FE
:10CD580000F110030DF1FF3213F8011D02F8011F55
:10CD68009842F9D10D22002104A803F0D3F82B78BA
:10CD78008DF81F306B788DF81E306846AB788DF8CB
:10CD88001D30FFF7C1FE9DF82F3023709DF82E301F
:10CD980063709DF82D30A3700DB030BD30B50378A9
:10CDA80003F0FE03042B85B004460D4618D1411C40
:10CDB800032201A803F084F80322211D03A803F02D
:10CDC8007FF802AA03A92846FFF7BEFF032202A99B
:10CDD80001A803F054F8B0FA80F0400905B030BD5E
:10CDE8000020FBE730B50388102B93B052D1041D07
:10CDF8000FCC07AD0FC50FCC0FC594E8070012ACD8
:10CE080085E8070014F8283D03F0FE03062B4BD0F5
:10CE180000F07EFB9DF820305B08012B3CD9022BEB
:10CE280042D101AA0DF10201072000F079FB002888
:10CE38003AD0029920460131FFF7B0FF0028F0D020
:10CE480005E0029920461131FFF76BFE20B3BDF8CB
:10CE58000230BDF81C1016480A224A43851883522E
:10CE6800AA1C0898C5F80200A588A0799580907139
:10CE78004FF6FF7293420DD012ACADF80830002384
:10CE880004F8443D2046ADF8061000F041FF204666
:10CE9800FFF780FB13B030BD01AA0DF10201072096
:10CEA80000F03EFB0028CCD14FF6FF73D1E700BF5E
:10CEB800A630002090DF7047A5DF7047B5DF7047C8
:10CEC8007FB50023ADF80810ADF80A106A4602A92C
:10CED8000646ADF80C30ADF80E300093ADF80430CE
:10CEE800FFF7E8FF0546F8B1114B124CE41AE408C5
:10CEF800FCF706FC240444F00104034632460E49BC
:10CF08002046F9F7E7FDBDF80020BDF8023002B968
:10CF18001BB10A492046F9F7DDFDBDF804201AB116
:10CF280007492046F9F7CCFD284604B070BD00BF7C
:10CF380050000300880003004A1103009411030005
:10CF4800D311030070B117231B2203804380C380D1
:10CF580003810023016102718372C37202734273F9
:10CF6800184670470E20704713B5034680880C4654
:10CF7800A0B91A88232A00F0AD8011D8102A24D02D
:10CF8800112A53D0A37A4BB1E1880020FFF794FF10
:10CF9800002840F0A5800123A072E37202B010BD02
:10CFA8003A2A4CD0552A66D0242AEBD11A7A0B6932
:10CFB8004A73002BE6D04DF67A210090ADF80400B4
:10CFC800ADF800108DF8042080E0DB7B0A790A7345
:10CFD800012B13D0022B14D0E18823898B4205D270
:10CFE8000020FFF769FF70B90123E372217B637B9F
:10CFF8008B42C7D20020FFF763FFC3E70B88E380AB
:10D00800EAE74B88FBE7112802D10123A372EDE779
:10D01800FCF776FB3B4A3C4B3C499B1ADB081B045C
:10D02800024643F00100F9F74BFDDFE71723CB80F9
:10D038000B811B238872C8720B734B73A2E75B8941
:10D04800CA88934228BF1346172B0A6938BF17238B
:10D058000B8162B1C97A51B140F67721ADF8001061
:10D06800ADF80200ADF80430694620469047002329
:10D07800E372A37286E7DB88C988A072172B38BFD2
:10D0880017238B4228BF0B462381FFF717FF60B198
:10D09800FCF736FB1B4A1C4B1D499B1ADB081B047B
:10D0A800024643F00100F9F70BFDE27A002A7FF40B
:10D0B80069AF2369002B3FF465AF40F67721ADF8DF
:10D0C80002202289ADF80010ADF8042069462046F8
:10D0D800984757E7197A237B994228BF19468AE768
:10D0E80011283FF45BAFFCF70BFB064A064B0749D8
:10D0F8009B1ADB081B04024643F00100F9F7E0FC29
:10D108004CE700BF50000300880003002912030009
:10D118005A120300B0DF704766DF7047034610B548
:10D1280000214088FFF7F8FF024608B91A7210BDBF
:10D13800112801D10122F9E75B68BDE810401847C2
:10D1480060B159B10378DE2B0AD00B684360DE2347
:10D1580003704FF6FF734380002070470E2070471E
:10D168000820704728B10378DE2B04D141800020C5
:10D1780070470E20704708207047F0B5054685B007
:10D188000C46F1B1E8B10B78DE2B1AD182884B88B6
:10D198009A4204D10B7A13B10846FFF7BFFF2B88D8
:10D1A800112B32D0512B0ED0012B0AD12B7A012B07
:10D1B80007D1A9886288914203D123722046FFF7DC
:10D1C800ADFF05B0F0BDAE886388B342F9D1AF7941
:10D1D800022FF6D1AD7B2B1F022BF2D80021102293
:10D1E800684602F097FE052D14BF4FF4C073002364
:10D1F800694630468DF80070ADF80430FFF78AFFB5
:10D208000028DED063689847DBE76388AA889A42DB
:10D2180004BF4FF6FF736380D3E7012804D00438B6
:10D2280005288CBF0020012070474FF6FF7343800C
:10D2380000F0E8BA73B504460D46164600210822E8
:10D24800684602F067FEA5F58041A4F580406B466C
:10D25800324689B280B2FBF733FA002814BF0520A2
:10D26800002002B070BD0000F0B5274D8DB0002140
:10D27800082201A8297002F04DFE4FF6FF7000F059
:10D2880015FD4FF6FF770446BC4211D0A4F5804641
:10D29800B6B201AA03A93046FBF72CFA0A2809D02E
:10D2A8003046FBF7C3F9082806460BD101232B703B
:10D2B8000DB0F0BD204600F09DFC204600F0F6FCC5
:10D2C8000446E1E7002EF3D0104B11481149C01A6B
:10D2D800C00800042346324640F00100F9F7FAFB83
:10D2E800182200210DEB020002F014FE07238DF82E
:10D2F800183006A80123ADF81C4008968DF8243094
:10D30800FFF793FFD4E700BF7831002050000300F7
:10D31800E00003006C13030070B5044686B01822C1
:10D328000021684602F0F6FDA0892378334D00F508
:10D33800804080B25A1EADF80400042A25D8DFE8E0
:10D3480002F0030303324B0043F6FE76B042E18954
:10D3580004D901F5804292B2B24216D8DA1E53427D
:10D3680053418DF80930A368039363688DF808105A
:10D378008BB908238DF800309DF8103043F0010375
:10D388008DF810306846FFF750FF2B780BB1FFF788
:10D398006BFF06B070BD0922049301238DF80020AD
:10D3A8008DF81430EEE743F6FE739842EDD8E38922
:10D3B800002BEAD163683BB90A238DF8003000F0EE
:10D3C80019FC01232B70DDE70B22029301238DF852
:10D3D80000208DF80C30F4E763683BB913238DF80F
:10D3E80000304FF6FF73ADF80430CBE714220293F8
:10D3F80001238DF800208DF80C30F2E778310020F9
:10D4080030B5224889B0FAF793FF024668B1204840
:10D41800204B21491B1ADB081B0443F00100F9F7D4
:10D428004FFB0324204609B030BDFAF797FF0446A6
:10D4380060B1174B17481949C01AC00800042246A2
:10D4480040F00100F9F73CFB8624EBE700F0B2FB63
:10D458000822214603A802F05DFD03AA05A94CF2A3
:10D468000700FBF73BF90028DCD101A905A8FBF769
:10D478008BF8019B9D8805F58045ADB205A8FBF7A3
:10D48800A7F8284600F09EFBE7E700BF21D302007B
:10D4980050000300E000030096120300D8120300B6
:10D4A800F0B5FF2887B004460D4617461E462CD80F
:10D4B8000846FFF7B2FE40B303AA2046FFF7BAFEBC
:10D4C80018B10524204607B0F0BD01A903A8FBF751
:10D4D8005BF804460028F4D1019BBD705D883D804F
:10D4E8002EB9029B7B6003A8FBF772F8EAE736883F
:10D4F80002997868AD00AE4228BF2E46324602F047
:10D50800DFFCB542EFD90C24DCE70724DAE700009A
:10D5180008220021014802F0FDBC00BF7031002044
:10D52800F0B587B007460E461546FFF776FE044667
:10D53800F8B1A7F58040104A03A980B2FBF7CEF8EE
:10D5480018B10024204607B0F0BD01A903A8FBF7D5
:10D558001BF80028F5D1019BAF705A882A80029ADF
:10D568006A609B8803F58043338003A8FBF730F893
:10D57800E8E70124E6E700BF7031002070B5FF2816
:10D5880086B00546164643D88B781846FFF745FE01
:10D5980000283DD0A5F58042ADF80020A3F58042D3
:10D5A800ADF802204A6801920A880292194603AA35
:10D5B8002846FFF73FFE0528694603A814D1FBF764
:10D5C80029F80728044618D011D8D0B1114B1248B1
:10D5D8001249C01AC008000422462B4640F0010038
:10D5E800F9F778FA032409E0FBF718F8E9E70828BF
:10D5F80001D00E28EAD1112400E08624204606B086
:10D6080070BD002EFAD0314603A8FBF77FF8F5E786
:10D618000724F3E750000300E0000300161303009B
:10D628004FF6FF7000F0CEBAFF2808B505D800F015
:10D63800CFFAFFF719FE002008BD072008BD00F04B
:10D64800EDBA00F019BB00F031BB00000A68084BC6
:10D6580070B50C25032A01D9002070BD05FB02F422
:10D66800E65A864202D10A60181970BD0132F1E704
:10D67800D032002073B502AC002344F8043D0E46B6
:10D6880005462146FFF7E2FF38B18378B34206D159
:10D69800837A9B0703D143680BB902B070BD019B25
:10D6A8000133019321462846ECE7000070B5054E8A
:10D6B8000546002456F82430284601349847042C9F
:10D6C800F8D170BDCC13030070B50F4E0446002589
:10D6D800237A9D420FD34FF6FF732380A370FF2355
:10D6E8006372A37A03F0FD036FF30003A3720023B0
:10D6F8002372636070BD617A2944C9B2304601F073
:10D7080093F80135E4E700BFC032002037B50023A5
:10D71800009304460193417A837834488DF80230A7
:10D7280001F069F860B9324B3248627A3249C01A5E
:10D73800C008000440F00100F9F7C2F9032047E0EF
:10D74800237AA2788DF8022003EB83039B00ADF8BF
:10D758000030531E0190072B08D8DFE803F01F079D
:10D768000707071F04211423ADF80030221D69465E
:10D778002088FFF703FF07282AD015D810B3FBF736
:10D78800BFFF1C4D1A4B1D49ED1AED082D0402462A
:10D79800238845F00100F9F79DF9CFE70123E3E776
:10D7A800838809339B08DFE7112813D08628E6D140
:10D7B800A37A03F0FD0343F00103A372104B012287
:10D7C8001A7005E0A37A60F3410360F30003A372C3
:10D7D80003B030BDA37A43F002036FF30003A372D2
:10D7E800074B01221A700020F2E700BFC032002068
:10D7F80050000300D800030087150300C715030075
:10D80800BC3200202DE9F0473E4AC16886B0054683
:10D8180000230C24174604FB03204668B14203D0BA
:10D828000133042BF7D100202B78374E092B10D069
:10D83800132B09D0082B60D16C7A002C5DD10028FD
:10D848005DD0FFF741FF00E001242846FFF72EFFD7
:10D858000BE06C7A002C50D1002850D0837A4460B9
:10D8680043F0020383720123337033783BB30025FE
:10D8780035704FF00C094FF0010A09FB05739A7ACD
:10D88800C2F340030BB9D20733D586F800A003B919
:10D898007CB309FB05784046FFF738FF48B34FF6DD
:10D8A800FF72ADF802208628B8F80020ADF80420F1
:10D8B80008D106238DF800306846FFF7F7FE06B05A
:10D8C800BDE8F087072200238DF800208DF80C3082
:10D8D80002900E4CFBF714FF0D4B0E49E41AE408B6
:10D8E80024040246B8F8003044F00100F9F7F2F8D1
:10D8F800E2E70135042DC0D1E1E70024A5E704469D
:10D90800A3E700BFD0320020BC320020D8000300BB
:10D9180050000300FA1303001D4BF7B500221E4602
:10D928004FF6FF754FF0FF0E0C27144607FB0261F8
:10D938001D809D7083F809E0887A013200F0FD00AF
:10D948006FF30000042A887203F10C0303F8044CF7
:10D9580043F8084CEAD150238DE80C000D490E4BD2
:10D968000E484FF4A07200F033FF034668B1FBF78E
:10D97800C7FE0B4A0B4B0C499B1ADB081B040246DB
:10D9880043F00100F9F79CF80323184603B0F0BDF3
:10D99800D03200207C31002000330020C03200202B
:10D9A80050000300D8000300DC1303000023FFF736
:10D9B80077BD00002DE9F04180460E4614461F460B
:10D9C800002B5FD0CB1F012B5FD8531E032B5CD8D5
:10D9D800FFF750FE054618BBFF214FF6FF70FFF713
:10D9E80049FE0546C8B1A0F8008086706B7AFF2B07
:10D9F8001CD12146264800F02FFFFF2868722BD142
:10DA08004FF6FF732B80AB7AA87003F0FD036FF31A
:10DA18000003AB7200232B726B601120BDE8F0810C
:10DA2800037A9C42E2D00F20BDE8F0814FF0000855
:10DA38002C72697A164800F0DEFE80B9154B16483C
:10DA48006A7A1649C01AC008000440F00100F9F7C4
:10DA580037F80320BDE8F0814FF00108E8E704EB50
:10DA680084042401A4B2A408BE7078603C80B8F194
:10DA7800000F04D0082E02D1A400063C84800020A8
:10DA8800BDE8F0810E20BDE8F0810720BDE8F081F7
:10DA9800C032002050000300D80003000215030024
:10DAA80008B5FFF7E7FD18B1FFF70EFE002008BD27
:10DAB800052008BD7FB504AC002344F8043D0546A5
:10DAC8002146FFF7C3FD0646A8B92846FFF7ACFD77
:10DAD800034640B3072826D0FBF712FE164C174B17
:10DAE8001749E41AE408240403462A4644F00100CE
:10DAF800F8F7F0FF16E0B1782846FFF7D1FFA8B194
:10DB0800052813D0FBF7FCFD0B4C0C4B0D49E41A10
:10DB1800E408B3780093240402462B4644F001003D
:10DB2800F8F7E2FF0323184604B070BD039B0133E6
:10DB3800039321462846C4E7D80003005000030099
:10DB4800B01403005A140300CB1F012B70B506460E
:10DB58000C46154601D9072070BD1046FFF76FFD2A
:10DB68000028F8D021463046FFF784FD28B105800B
:10DB78008470BDE87040FFF7C9BD052070BD10B5C1
:10DB88004FF6FF7304469C4208460AD14FF4807151
:10DB9800FAF798FE84B2B4F5807F09D14FF6FF7486
:10DBA80006E0FF2CFAD82146FAF76BFE0028F5D1DB
:10DBB800204610BD40220021014802F0ABB900BF49
:10DBC800043300200149FFF7DABF00BF0433002007
:10DBD8004FF6FF73984210B5044606D00449FFF784
:10DBE800CEFF231A5842584110BD002010BD00BF77
:10DBF80024330020FF2810B5044609D801460548FB
:10DC0800FAF74DFE21460448BDE81040FAF747BE32
:10DC180010BD00BF0433002024330020FF28014634
:10DC280002D80248FAF745BE0020704704330020A6
:10DC3800FF28014602D80248FAF73BBE0020704789
:10DC4800243300204FF6FF73984270B518BF441C68
:10DC58000E4614BFA4B20024A5B2FF2D02D94FF678
:10DC6800FF7506E021463046FAF723FE0134002806
:10DC7800F2D0284670BD000070B50B490A4EFFF778
:10DC8800E1FF4FF6FF750446AC4201D1204670BD56
:10DC98002046FFF7CDFF0028F8D020463146FFF791
:10DCA800D1FF0446F0E700BF043300200149FFF725
:10DCB800C9BF00BF24330020F8B5074D074F0646FB
:10DCC80000242B789C4200DBF8BD57F824303046FE
:10DCD80098470134F5E700BF5B3300204C33002040
:10DCE800074B1B7810B504464BB1FFF77BF820466D
:10DCF80001F06EFB2046BDE81040FEF727BD10BDC1
:10DD08005A33002008B1FFF7D7BF7047FFF7D4BFD9
:10DD1800FFF7D2BF10B5FFF773FB80B1FBF7F0FC3C
:10DD2800304C314B314A3249E41AE40824040346A2
:10DD380044F00100F8F7CEFE0323184610BDFFF7A4
:10DD4800EBFD50B1FBF7DCFC264C274B274A294951
:10DD5800E41AE40824040346EAE701F00BFB50B197
:10DD6800FBF7CEFC1F4C204B204A2349E41AE40859
:10DD780024040346DCE700F08DFE50B1FBF7C0FC3D
:10DD8800184C194B194A1D49E41AE408240403469F
:10DD9800CEE7FEF763FC50B1FBF7B2FC114C124B17
:10DDA800124A1749E41AE40824040346C0E7FEF7B8
:10DDB800A1FD034650B1FBF7A3FC0A4C0A4B0B4AE2
:10DDC8001049E41AE40824040346B1E70E4A4FF662
:10DDD800FF7111800D4A10600D4A10700D4A012123
:10DDE8001170AAE7B00003005000030000160300FA
:10DDF80018160300421603006C160300951603005C
:10DE0800BF160300E91603005833002060330020D2
:10DE18005C3300205A330020084B1B7853B1084A62
:10DE28001378022B08D8074941F8230001331370EF
:10DE38000020704708207047042070475A3300209C
:10DE48005B3300204C330020034B1B780BB101F0EF
:10DE5800D9BA0820704700BF5A33002008B5054BCF
:10DE68001B782BB101F0ECFA082808BF112008BD77
:10DE7800082008BD5A33002038B5194B1B780546D1
:10DE88000C4633B339B3FEF77BF830B3831E5842E0
:10DE98005841237860F3000323702846FEF7A4FE58
:10DEA8004FF6FF73C01A237818BF012060F3C3032D
:10DEB80023702846FEF774F8237860F34103237033
:10DEC8002846FEF77BF8237860F38203237000204E
:10DED80038BD082038BD0E2038BD43F2020038BDD9
:10DEE8005A330020034B1B780BB1FEF719BF0820EB
:10DEF800704700BF5A33002070B5224B1B7888B09A
:10DF0800002B3DD0204E01234FF6FF703370FFF7F2
:10DF180098FB4FF6FF739842054613D10024182248
:10DF2800214602A8347001F0F5FF0C2302A88DF8F1
:10DF38000830ADF80C50ADF80A50FFF7BDFE20468A
:10DF480008B070BD1E462846FFF7CCFF044680B1D6
:10DF5800FBF7D6FB0D4C0E4B0095E41AE40824049D
:10DF680003460C4A0C4944F00100F8F7BDFD0324B0
:10DF7800E5E72846FFF765FBB0420546E3D1DEE753
:10DF88000824DCE75A33002048330020B00003009F
:10DF980050000300081603009C1703002DE9F04FFA
:10DFA80087B08DE80C00354B1B7882468946002BDC
:10DFB80061D04FF6FF70FFF744FB0423ADF80A3039
:10DFC8000DF10A0B03AB0025059304AA5B46062155
:10DFD800044603950495FFF763FA072849D04FF6DE
:10DFE800FF76B0464FF0FF37F0B1052825D04FF641
:10DFF800FF739C422DD1A04529D0A6420CBF052015
:10E008000020BAF1000F01D0AAF80080B9F1000F82
:10E0180001D0C9F80050009B03B11E80019B03B1D9
:10E028001F6007B0BDE8F08F039BAB4224BFA0463A
:10E038001D46BB423CBF26461F462046FFF701FB54
:10E048005B4604AA06210446FFF72AFACCE7052016
:10E05800D7E7FBF755FB0A4D0A4B0B49ED1AED08BC
:10E068002D040246234645F00100F8F733FD03204E
:10E07800D7E70520D5E70820D3E700BF5A330020AB
:10E08800B0000300500003005417030008B5002334
:10E098001A4606490648FFF781FF28B1431F584230
:10E0A8005841044B187008BD0120FAE7443300209A
:10E0B800583300205C330020F0B5044687B08088D0
:10E0C800FEF7C0FD23786080083B032B20D8DFE8EB
:10E0D80003F002213166637A5BB9404A116851B195
:10E0E800E068814207D113603D4AA1881180E3604E
:10E0F8000EE0012B0CD13B4B1B784BB1384BA2885F
:10E108001B889A4204D1237A062B01D1FFF7BEFF60
:10E11800204660E0637A002BFAD1304A1168002962
:10E12800F6D0E0688142F3D12F4913600A68013ABA
:10E138000A60DCE72D4F3B7873B90125294B1B7822
:10E1480033B1274BA2881B889A4201D1FFF79EFF63
:10E15800002DDDD107B0F0BD4FF6FF70FFF771FA63
:10E168004FF6FF7398420546E7D1FFF76CFAA842CD
:10E178000646E2D100251822294668463D7001F07E
:10E18800C9FE0C2320468DF80030ADF80460ADF8C8
:10E198000260FFF791FD6846FFF78EFDCEE7134B4F
:10E1A8001A78002AB4D0002118226846197001F0A4
:10E1B800B1FE0D238DF800304FF6FF73ADF8043033
:10E1C800ADF80230A36802932046237B8DF80C300B
:10E1D800FFF772FD6846FFF76FFDBBE7603300206D
:10E1E800583300205C33002044330020483300209B
:10E1F8002DE9F041384B1B7888B00546002B66D0D6
:10E20800364B374C93E8030022786F468DE80300BD
:10E218000AB9FFF73BFF237823B91124204608B039
:10E22800BDE8F0812F4B1C689846002CF5D12E4B89
:10E238002E4E1B88AB4220D13368F3B118222146F9
:10E2480002A801F067FE082328468DF80830FEF77B
:10E25800F9FC06238DF810309DF81830ADF80A0047
:10E2680064F3000302A8ADF80C508DF81140059432
:10E278008DF81830FFF720FDD0E733685A1C28D0F6
:10E288000133184A336039462846FFF777F90446C0
:10E298000028C3D00023C8F800303368112803F1E0
:10E2A800FF333360B9D08628B8D00728B6D0FBF73B
:10E2B80027FA0F4C0F4B1049E41AE40824040246CD
:10E2C8002B4644F00100F8F705FC0324A6E70824D0
:10E2D800A4E71324A2E700BF5A330020F81503006F
:10E2E8005C33002060330020583300204433002082
:10E2F800B0000300500003001417030076DF7047D6
:10E30800F7B5054669B901A9FFF7B6FD43F2020260
:10E31800904202D008B1F9F719F89DF804309B072C
:10E3280022D400212846FFF799FD0646E0B11128BE
:10E338001AD00D28204C214F18D1E41BE4082404DE
:10E3480044F002041E4920462A46F8F7B9FB132177
:10E358002846FFF7D3FF38B1FBF7D2F92B46024620
:10E3680018492046F8F7B6FB03B0F0BD0B2809D1D1
:10E37800E01BC008144900042A4640F00200F8F7E0
:10E388009FFBF1E743F20203984205D1E01BC00866
:10E3980000042A460D49F0E7FBF7B2F9E41BE4084C
:10E3A800240402462B4644F001000949F8F792FB81
:10E3B8003046F8F7CBFFD7E7C8000300500003004A
:10E3C800F11703006218030099180300F7180300F7
:10E3D800411903002DE9F041037886B00446142B57
:10E3E8003CD8DFE803F00B3B2D3B3B3B3E3B813BFE
:10E3F800813B3B3B3B3B3B3B3B85AB008088FFF78E
:10E40800F7FE862801D0112811D15349534A0B68C9
:10E41800A08822F8130001335A4202F0070203F0E1
:10E42800070358BF53420B6000F0ACF816E01328FE
:10E4380003D84B4BC340DB0710D4F8F787FF0DE038
:10E44800037A012B0AD8848818220021684601F033
:10E4580061FD6846ADF80440FFF7BCFF06B0BDE8B3
:10E46800F081404E3378002BF8D13F4B3F4C404F62
:10E478004049E41AE408240444F003084046F8F745
:10E488001BFB3B783BBB6A4619461846FFF786FDDF
:10E49800054678B9BDF8002037494046F8F710FB23
:10E4A800BDF80000FFF71EFD054608B1F8F74EFF5E
:10E4B80001233B70052D05D1304944F00100F8F7E0
:10E4C800FBFACBE7062D03D12D4944F00200F6E70D
:10E4D8000DB12846B1E7FAF7CFF810B90123337028
:10E4E800BCE70828A9D1B9E7214B01221A70B5E782
:10E4F8001C4B1A4D00241C701D4B1C70164B1F68BA
:10E508004FF6FF76E3195A4202F0070203F00703B9
:10E5180058BF534235F81380B0450BD0182200215C
:10E52800684625F8136001F0F5FC6846ADF80480EC
:10E53800FFF750FF0134082CE4D18FE7094B002284
:10E548001A70037B002B89D083680E2B3FF46CAFC5
:10E55800012B83D168E700BF683300205A220020CE
:10E56800C10008006433002050000300C800030005
:10E5780065330020C4190300DF190300091A0300DA
:10E58800271A03007FB518220021684601F0C2FC53
:10E59800062368468DF80030FFF71CFF07B05DF8CA
:10E5A80004FB0000F7B502780446142A00F2BE8086
:10E5B800DFE802F021210B2321213C4921566F7D00
:10E5C800909921A421212121AF0040885C4DFDF7BD
:10E5D800C7FC5C4A217A6388AD1A5B4A52F821204D
:10E5E8000092ED08594A5A4952F820202D0445F066
:10E5F8000300F8F779FA03B0F0BD4088504DFDF7F5
:10E60800AFFC504A6388AD1A62890192217A4E4A5A
:10E6180052F821200092ED084C4A4E4952F8202029
:10E628002D0445F00300F8F76BFAE4E7454B44483E
:10E638004949C01AC008000440F0020003B0BDE810
:10E64800F040F8F739BA8068FBF75AF83D4A3C4B76
:10E6580042499B1ADB081B04024643F0010021E0F3
:10E66800027A3F4B858853F82260427A3D4B006915
:10E6780053F82270324CFBF743F8324B0190E41AFE
:10E68800E4082404009733462A46374944F0020038
:10E69800C9E72C4B2A48A2883449C01AC00800048C
:10E6A80040F0010003B0BDE8F040F8F709BA8588EA
:10E6B8008068234CFBF724F8224B2D49E41AE40820
:10E6C800240403462A4644F0010003B0BDE8F040A4
:10E6D800F8F700BA1B4B1A482649C01AC0080004AC
:10E6E80040F00300AAE78068FBF70AF8154A144BC4
:10E6F80021499B1ADB081B040246AEE7114B104860
:10E7080062881E49C01AC0080004A38840F00200AD
:10E71800DBE78068FAF7F4FF0A4A094B18499B1AA5
:10E72800DB081B04024643F00200BBE7054B044824
:10E738001449C01AC008000440F00200B2E700BF44
:10E74800C800030050000300B8190300AC19030007
:10E75800711A0300AE1A0300001B0300161B030006
:10E76800841903007C190300411B03008B1B030061
:10E77800B21B0300DF1B0300F21B0300161C03007F
:10E78800521C0300811C030010B50446FFF70AFF62
:10E79800217821B96088BDE81040FFF7B1BD07298D
:10E7A8000FD1084B08480949C01AC008000440F0B6
:10E7B8000100F8F781F9A06818B1BDE81040F8F732
:10E7C800C5BD10BD50000300C8000300661A030051
:10E7D80070B5049D059C60B159B153B104FB05F6B1
:10E7E800964206D82DB124B180E82A00C4600020E2
:10E7F80070BD072070BD38B50C46054608B9002025
:10E8080038BD0368002BFAD040680028F7D0FF29EC
:10E81800F5D0BFF35F8FFAF74CF80028EFD0EB681C
:10E82800286803FB040038BD38B50D46044690B18E
:10E83800036883B1406870B1FF290CD0BFF35F8FC4
:10E84800FAF737F838B16068BFF35F8F2946BDE83B
:10E858003840FAF724B838BD2DE9F0418846064615
:10E8680018B9FF242046BDE8F0810368002BF8D0D2
:10E878004368002BF5D00027FF24B368FDB2AB42F4
:10E88800EFD929467068F9F7FCFFBFF35F8F40B9ED
:10E89800FF2C08BF2C462D1B01354545E2D001371A
:10E8A800EBE7FF2C07D1FF24F9E721463046FFF7B5
:10E8B800BBFF0134E4B2A542F7D8F4E77EDF704726
:10E8C8007FDF704786DF70470378182B10B5044642
:10E8D80002D1FDF781FB207010BD10B504464088B9
:10E8E800FEF782F9A0802046BDE8104000F0EEBC9B
:10E8F80010B586B0044618220021684601F00AFBCC
:10E90800042368468DF80030ADF80240FFF7E5FFB4
:10E9180006B010BD30B587B005460C461822002158
:10E92800684601F0F7FA072368468DF80030ADF81D
:10E9380002500294FFF7D1FF07B030BDF0B587B0A1
:10E9480004460F4616460021182268461D4601F067
:10E95800E1FA03238DF80030094BADF8024000229C
:10E9680019788DF808702046ADF80A608DF80C50BB
:10E97800FDF754FB6846FFF7B0FF07B0F0BD00BFD6
:10E988006B2200207FB502238DF800300388ADF894
:10E99800023043798DF8091013F0040F14BF0123D6
:10E9A800022368468DF80830FFF797FF07B05DF837
:10E9B80004FB000030B5114B0A1C87B00C4618BF89
:10E9C800012219780546FDF729FB631E5A425A4170
:10E9D8000B4B28461978FDF721FB182200216846C1
:10E9E80001F098FA012368468DF80030ADF802501E
:10E9F8008DF80840FFF771FF07B030BD6D22002089
:10EA08006C2200201E4B2DE9F0470E46197805466A
:10EA18001746FDF7EBFA014678B31A4B28461978E2
:10EA2800FDF7E4FA002805F580704FF0070180B281
:10EA380014BF4FF001094FF00209FFF731F8804683
:10EA480098B1052811D0FAF75BFE0F4C0F4B10490F
:10EA5800E41AE408240402462B4644F00100F8F7BF
:10EA680039F841462846FFF755FF3B4632464946A6
:10EA78002846BDE8F047FFF761BF3B463246F7E757
:10EA88006D2200206C220020F000030050000300DB
:10EA9800A31D0300F8B5154F154E164D164C3846F4
:10EAA800FFF712FF3046FFF70FFF2846FFF70CFF6E
:10EAB8002046FFF709FF3B78182B08D03378182B2E
:10EAC80005D02B78182B02D02378182B0BD10B4BA1
:10EAD8000B480C49C01AC008000440F00100F7F7C1
:10EAE800EBFF0320F8BD0020F8BD00BF6B2200201B
:10EAF8006D2200206C2200206A22002050000300B2
:10EB0800F0000300DC0D03002DE9F0418AB00F4648
:10EB180090460446FDF724FA20220646002102A862
:10EB280001F0F8F9012E08D1444B0022197820464B
:10EB3800FDF774FA2FB9852514E0002E7BD0002F3D
:10EB480075D02046FEF750F84FF6FF73984211D162
:10EB580000253B78DB0721D4394BCDF81480099385
:10EB6800012E65D102AB3A4629462046FFF7A8FE9A
:10EB7800014630E0012EEBD1304D20462978FDF7D3
:10EB880035FA0028E4D12046FFF7B2FE297820465E
:10EB9800FDF72CFA0028DBD18525DAE7852DDFD0B3
:10EBA80004F5807007216B46012280B2FEF702FF50
:10EBB800112801460FD090B1FAF7A2FD214D224B42
:10EBC8002249ED1AED082D040246234645F00100BE
:10EBD800F7F780FF032108460AB0BDE8F08150220C
:10EBE800019801F097F901990B46204603F8346B18
:10EBF800029301F1180306934B1C07931131104B34
:10EC0800CDF814800993FEF701F80028A8D0FAF788
:10EC180077FD0C4D0C4B0E49ED1AED082D040246FC
:10EC2800234645F00200F7F755FF0821D3E785256D
:10EC380002AB002298E743F20201CCE76A220020E7
:10EC48006C330020F0000300500003005F1F030036
:10EC5800C11F030038B505460C46FDF781F90128A8
:10EC680008D154B121462846FFF728FE042808BFDA
:10EC7800112038BD43F2020038BD204638BD0000DF
:10EC88002DE9F0470388113B8AB00446092B00F2AE
:10EC98008280DFE813F00A0080001F004700800030
:10ECA800800080008000A7005501037A85883D2BED
:10ECB800BF4B2846197841F23D0418BF4FF48854D9
:10ECC800FDF794F9002866D0002221462846FFF770
:10ECD80099FE60E08088FDF743F9012802460FD1CC
:10ECE800237AA58813F0010FB14B14BF0126022621
:10ECF80019782846FDF792F931462846FFF75AFE5B
:10ED080034F8045F1822002104A801F003F9043440
:10ED180005238DF81030ADF81250069404A8FFF7BB
:10ED2800DCFD38E000F110073846FDF7CEFF4FF65E
:10ED3800FF7398420646A08830D1FDF755FF064676
:10ED48009B4BA588197801222846FDF767F9002111
:10ED58002846FFF72FFE4FF6FF739E4222D100256B
:10ED680000231A462946A088FFF7ACFD074678B36A
:10ED7800FAF7C6FC8F4D904AA38890490096AD1AC1
:10ED8800ED082D04024645F00100F7F7ADFE3946BF
:10ED9800A088FFF7BFFD0AB0BDE8F0873146FDF750
:10EDA800B5FFCDE704AA07213046FEF7FFFD00288E
:10EDB800D5D1059D95F84430DB0701D53435CFE72B
:10EDC800394605F14600FDF76CFF0028F6D1C6E785
:10EDD800002DE0D1A0882B4641F206022946FFF714
:10EDE800ADFDD8E790F80880714B8588B8F1000F21
:10EDF80040F099801978061D42462846FDF70EF91D
:10EE0800617A11F0040103D13046FFF7BBFDC2E778
:10EE180005F580791FFA89F902AB012207214846D6
:10EE2800FEF7C8FD074698B1FAF76AFC614C624BD9
:10EE38006349E41AE408240402462B4644F001001E
:10EE4800F7F748FE39462846FFF764FD4146DBE7F9
:10EE58002846FDF7C9FE4FF6FF73984204468246DE
:10EE680030D101460398FDF7A1FE5045044680467F
:10EE780000F08980DFF858A101462846FDF746FFD3
:10EE88009AF800102846FDF7B1F88046D0B9284610
:10EE9800FFF72EFD9AF800102846FDF7A7F801465F
:10EEA8000028B1D0484622460721FEF74DFE81468C
:10EEB80050B90121A8E721462846FDF727FF4FF062
:10EEC8000108EFE7B846EDE786280DD118220021A2
:10EED80004A801F01FF8062304A88DF81030ADF837
:10EEE8001250FFF7FAFCE4E7FAF70AFC314F324B0D
:10EEF80034490094FF1AFF083F0402462B4647F0A6
:10EF08000100F7F7F1FD49462846FFF703FD002108
:10EF18003046FFF737FDB8F1000F3FF43CAF20460D
:10EF2800FDF7FEFE37E7447A1978284604F0030413
:10EF3800FDF75CF800283FF42EAF22464146C5E6AF
:10EF4800214B80881978FDF751F8054600287FF491
:10EF580022AFA088FDF724F80146A08819B901233B
:10EF680041F206023BE7124B2A461978FDF756F89C
:10EF780002238DF81030A388ADF812308DF81850A0
:10EF88008DF81950CAE6FEF74BFB4045044692D16E
:10EF9800094B08480D49C01AC008000440F0010098
:10EFA800F7F78AFD04212846FFF7B4FC39462BE71A
:10EFB8006B220020F0000300500003000C1E030029
:10EFC8007C1E0300091F03006D220020D71E0300CA
:10EFD8006A220020002242608260024A12680260AF
:10EFE800704700BFB833002060B3027802F0820394
:10EFF800802B26D0C2F30213042B22DC02F0F2038A
:10F00800322B1ED04178837899421AD8062918D90C
:10F01800102B16D8C17811F0040312D100794307D8
:10F028000FD4084303070CD412F0010F00F00300BB
:10F0380003D1B0FA80F040097047003018BF0120B2
:10F04800704700207047FEF75DBE0378182B10B597
:10F05800044602D1FCF7C0FF207010BD2DE9F04135
:10F0680086B005460E46904600211822684600F0F4
:10F0780051FF2846ADF80250FDF7B6FD0D2EADF84C
:10F0880004001F4C1F4F26D1E01BC00800042A466D
:10F098001D4940F00200F7F713FD03238DF80030F7
:10F0A800B8F1000F15D098F8003013F0010F0CBF1D
:10F0B800022301238DF8083000238DF80C3041F22B
:10F0C8000113ADF80A306846FFF7BDFF06B0BDE88A
:10F0D800F0810223EEE73046FAF712FBE41BE4085E
:10F0E80024042B460246094944F00100F7F7F2FCD4
:10F0F80007238DF80030002302968DF80C30E2E7E4
:10F10800E80003005000030020200300D52003007E
:10F118002DE9F04705468AB092461F46894691BBBD
:10F1280001AC2046FFF756FF052628468DF81060EB
:10F13800ADF81250FDF758FDADF8140004A8CDF84D
:10F1480018900794FFF77FFF2B4B1B7813B99DF896
:10F158000D3083B3DDF80480524641462846FFF758
:10F1680079FDA0F111035A425A41244B04461978FB
:10F178002846FCF753FF0B2C03D007D80CB1082CFA
:10F188001DD126462BE04FF00008E5E7112C05D0ED
:10F1980043F202039C42F4D00D2CF1E7184B4A4687
:10F1A80019782846FCF73AFF164B52461978284634
:10F1B800FCF734FF002630460AB0BDE8F087204649
:10F1C800FAF79EFA104E114B1149F61AF608360452
:10F1D80002462B4646F00100F7F77CFC0326002F79
:10F1E800E9D034F00803E6D0112CE4D04246214699
:10F1F8002846FFF733FFDEE7B533002070220020F2
:10F208006F2200206E220020E80003005000030057
:10F2180040210300094B70B519780446FCF7E6FE57
:10F22800074B054619782046FCF7E0FE2A460146BA
:10F2380001232046BDE87040FFF76ABF6E22002018
:10F248006F22002070B58AB001AD044628460E46EC
:10F25800FFF7C0FE052320468DF81030ADF81240A8
:10F26800FDF7C2FCADF8140004A807950696FFF751
:10F27800EAFE114B01991A682046FFF745FCA0F1F8
:10F2880011035A425A410D4B054619782046FCF79E
:10F29800C5FE0B4B002219782046FCF7BFFE35F05F
:10F2A800080306D0112D04D0019A29462046FFF7FD
:10F2B800D5FE0AB070BD00BFAC330020712200201B
:10F2C800702200200021FFF7BDBF00000378052B46
:10F2D80010B5044606D0122B0AD02046BDE81040CF
:10F2E800FFF7B1BE81684088BDE81040FFF7AABFAC
:10F2F8000C4B1B689BB10C4B1978037A01F0010287
:10F308009A420CDB437AC1F340019942ACBF002119
:10F318000121012300226088FFF7FAFEDDE70121C1
:10F32800F7E700BFB8330020B033002008B50378F2
:10F33800083BDBB20B2B14D8012202FA03F340F688
:10F348000F0213420DD0074B074918780022FCF72B
:10F358008DFE064B064918780022BDE80840FCF7E8
:10F3680085BE08BD71220020CDF202007022002067
:10F378001DF2020010B50F480F4CFFF766FE0F484C
:10F38800FFF763FE0E48FFF760FE2046FFF75DFEBD
:10F398002378182B0BD10B4B0B480C49C01AC0080B
:10F3A800000440F00100F7F787FB032010BD0020A0
:10F3B80010BD00BF70220020712200206E220020A4
:10F3C8006F22002050000300E8000300DC0D03005A
:10F3D80008B5FFF755FC074B074918780022FCF7DA
:10F3E80045FE064B064918780022BDE80840FCF7A0
:10F3F8003DBE00BF71220020CDF202007022002025
:10F408001DF2020010B5044630B90A4B18600A4BC9
:10F4180001221A70002010BDFFF7E6FD38B1074B36
:10F4280022681A6022791A71024A1360EFE70720EE
:10F4380010BD00BFB8330020B5330020B033002022
:10F4480000230A461946FFF763BEA8DF7047AEDF00
:10F458007047B0DF704762DF70473CDF70473DDFC1
:10F46800704770477FB5044638B10388502B5AD08F
:10F4780005D8102B17D0112B19D004B070BD512B03
:10F488001DD0532BF9D1344DC288EB889A42F4D160
:10F498006B7E002BF1D000F0CBF90028EDD06B6922
:10F4A80002209847E9E782882B4B9A80E5E72A4BA8
:10F4B80081889A889142E0D14FF6FF72F5E7264D90
:10F4C8008288AB889A42D8D18679022ED5D1028912
:10F4D800EB889A42D1D1837B043B022BCDD91022F1
:10F4E8000021684600F016FD2B7E8DF80060BBB148
:10F4F8009DF8063043F001038DF806300023ADF87F
:10F5080004306946A888FFF7A4FF1128F9D0BDF890
:10F518000430002BB1D104F1080000F025F9ACE764
:10F5280040F2FD13EBE70C4DC2886B899A42A4D1D7
:10F53800038A022BA1D11230FCF7E1FD074B287694
:10F548000246074807491B1ADB081B0443F003005F
:10F55800F7F7B6FA91E700BFBC3300207800030044
:10F5680050000300B521030030B587B005460C46AE
:10F578001022002102A800F0CDFC0323ADF80230D0
:10F5880020238DF804300F4B8DF80550DA88ADF83C
:10F59800082002228DF80A200022ADF80C200DF177
:10F5A8000202049202A901AA98888DF806400592E1
:10F5B800FFF74DFF20B9BDF80230032B18BF0C2010
:10F5C80007B030BDBC33002010B54FF0FF3100202C
:10F5D800FFF745FF044658B9B121FFF73EFF04463F
:10F5E80030B9044B01205B6998470220F9F7E4FF22
:10F5F800204610BDBC330020F0B51C4B87B002AAD2
:10F60800064603F11007154618685968144603C4DE
:10F618000833BB422246F7D12EB3154B4FF6FF7283
:10F628009A8032685A610021597619760AB9114AC6
:10F638005A610F4800F054F898B906A94FF6596373
:10F64800012021F8143D0C4A8DF80600FFF7FDFE55
:10F6580038B907492846FFF7FEFE10B9044800F0FC
:10F6680059F807B0F0BD0E20FBE700BFA521030045
:10F67800BC3300206BF40200BE3300204FF0030CB3
:10F6880000DF704714490B6810B523B34B68F3B912
:10F6980010BD124C236858B9987601210220FFF753
:10F6A80063FFC0B123685B690320BDE810401847B9
:10F6B80000229A7606210220FFF756FF18B1236828
:10F6C80003205B699847236802205B69EDE70831EE
:10F6D80098470828DDD110BDF8330020F433002006
:10F6E80018B1034B1860002070470E20704700BF08
:10F6F800F433002008B5FBF795FD38B90448FFF747
:10F70800BDFF18B9BDE80840FBF7BEBD08BD00BF86
:10F71800F833002010B588B004462022002168463E
:10F7280000F0F8FB22460323ADF8003012F8063B40
:10F738008DF802309DF80D30608843F028031721BA
:10F748008DF80D30ADF80410012369468DF810309E
:10F758008DF80C308DF813308DF812308DF811308B
:10F76800FCF7D1FC08B010BD70B50546007B2A4CEB
:10F7780001280ED0022825D00221287BFFF7F4FEAD
:10F7880018B1236803205B699847236802205B69E6
:10F798000AE023689E7E56B10621FFF7E5FE0028A1
:10F7A80039D023685B690320BDE870401847587654
:10F7B8000146FFF7D9FE70B3236811285E7626D17B
:10F7C8000621DAE76A7B531E132B22D8134E05F164
:10F7D8000E01301D00F074FB6B7BB36123689B7EC8
:10F7E800ABB90F49304651F8083B984718B9236818
:10F7F80001229A7670BD0F2809D10A4B0A480B4995
:10F80800C01AC008000440F00100F7F755F90421B8
:10F81800B3E70521B1E770BDF4330020D8330020E9
:10F82800F83300205000030078000300D2210300C1
:10F8380008B5044B1B6800205B699847BDE8084081
:10F84800FFF7C2BEF433002010DF704711DF7047A6
:10F8580013B5044609496846F9F71DFF019808B928
:10F8680002B010BD036841682046984718B1684641
:10F87800F9F71BFFF2E71120F2E700BFA42203000B
:10F8880013B5044607496846F9F705FF019B0BB90C
:10F8980002B010BD20461A68596890476846F9F7C3
:10F8A80004FFF3E7BC220300064B9A6822B11A68EA
:10F8B80022F480021A607047034B4FF48002C3F8A9
:10F8C80080207047B829002000E100E00C4991F839
:10F8D80016335A09EC231341DB0708D442F202001D
:10F8E800F7F734BD1A6842F480021A607047054B76
:10F8F8009A68002AF6D14FF480030B60704700BF66
:10F9080000E100E0B8290020F7B5184F3C785CBB4F
:10F91800174E012520463570FFF79AFF112820D091
:10F928002046FFF7ADFF134B1868019002A800F8B6
:10F93800054DF7F7F3FF104901A8FFF785FF0446C7
:10F94800B0FA80F0400938709DF80300F8F70AF81B
:10F958003CB90A4B34701C70FFF7B8FF2846FFF714
:10F968008FFF204603B0F0BD0824FAE705340020D5
:10F9780004340020A0220300717302000634002022
:10F98800F7B5154F3B7813B3144E01203070FFF7CD
:10F998005FFF11284FF000051BD00220FFF770FF12
:10F9A80002A800F8015DF7F7B9FFFFF74FFF04461B
:10F9B8009DF807003D70F7F7D5FF2CB93470FFF7B5
:10F9C80073FF0320FFF75CFF204603B0F0BD082457
:10F9D800FAE72C46F8E700BF05340020043400207D
:10F9E800054B1B7833B1054B1B780BB1FFF7C8BF2C
:10F9F800FFF78ABF08207047043400200534002030
:10FA0800014B1878704700BF0534002007B5084936
:10FA18006846F9F740FE019B13B903B05DF804FB93
:10FA280058681A6890476846F9F73FFEF3E700BF41
:10FA3800B0220300FFF7EABF60DF704769DF704755
:10FA480061DF704730B5114B1B7891B0E3B1104DB1
:10FA580034240DF1020103A8ADF80240FFF7F0FFCE
:10FA680070B9294601A8F9F716FE029B002BF0D0C1
:10FA780003A81A685968904701A8F9F716FEF4E731
:10FA8800052801D0F7F762FC11B030BD073400201B
:10FA9800FC24030030B5054685B00C46002900F06B
:10FAA80098804D4B0B600C22002101A800F032FA1F
:10FAB80001238DF8063022688DF80450062301A929
:10FAC8002020ADF80830FFF7B9FF60B1F9F718FE4C
:10FAD800424A434B43499B1ADB081B04024643F046
:10FAE8000100F6F7EDFF0C22002101A800F012FA40
:10FAF80001238DF805302268002301A940208DF8E4
:10FB080006308DF80730FFF799FF60B1F9F7F8FD77
:10FB1800324A334B34499B1ADB081B04024643F034
:10FB28000100F6F7CDFF0C22002101A800F0F2F940
:10FB3800012022688DF8040001A9FFF77FFF60B15A
:10FB4800F9F7DEFD254A264B28499B1ADB081B04DA
:10FB5800024643F00100F6F7B3FF0C22002101A88A
:10FB680000F0D8F94FF4B0632268019301A9A120ED
:10FB7800FFF764FF60B1F9F7C3FD184A184B1C4939
:10FB88009B1ADB081B04024643F00100F6F798FFB6
:10FB98000C22002101A800F0BDF99DF8043022686C
:10FBA80043F0010301A9A0208DF80430FFF746FFB8
:10FBB80088B1F9F7A5FD094A094B0E499B1ADB08DC
:10FBC8001B04024643F00100F6F77AFF002005B057
:10FBD80030BD0E20FBE7FAE720220020500003008A
:10FBE800A0000300D02203001623030062230300B1
:10FBF800AE230300FF230300F8B506460768FFF7A6
:10FC08001BFF33689F4205461DD2194B194C1A49F0
:10FC1800E41AE408240444F002042046F6F74CFFF2
:10FC2800336816493A462046F6F754FF4FF080539A
:10FC38003268D3F80C3112499B0203F100539A1A27
:10FC48002046F6F73DFF25B90E4B01221A702846CB
:10FC5800F8BD2846F9F754FD054A064B0A499B1A90
:10FC6800DB081B04024643F00100F6F729FFEEE724
:10FC780050000300A0000300522403008124030065
:10FC8800B224030007340020DC2403004BDF704754
:10FC98001FB50D4C01A8FFF7F9FF70B9214602A85E
:10FCA800F9F7F9FC039B002BF4D001981A685968FE
:10FCB800904702A8F9F7F9FCF4E7052801D0F7F70F
:10FCC80045FB04B010BD00BF14250300B2F12003AA
:10FCD8000AD5C2F1200301FA02F120FA03F341EA3E
:10FCE800030100FA02F0704700FA03F14FF0000038
:10FCF800704700BF53EA020C61D02DE9F04BB3FA0C
:10FD080083F51E0007BFB2FA82F502FA05F403FA7A
:10FD180005F41646C5F120051EBF22FA05F73C4337
:10FD2800203556EA044C4FEA144418BF0134A34660
:10FD38004FF00009C846904271EB030C39D30942D1
:10FD480007BFB0FA80F700FA07F6B1FA81F701FAAF
:10FD580007F6C7F120071EBF20FA07FC46EA0C0683
:10FD68002037B6FBFBFC7F1B103F07F01F04C4F1D4
:10FD780020060CFA04F42CFA06F644BF3446002692
:10FD8800202FA4BF2646002454EA060C08BF0124ED
:10FD980018EB040849EB0609A4FB027CC01B06FB10
:10FDA80002CC04FB03CC71EB0C01904271EB030C09
:10FDB800C5D20B46024649464046BDE8F08BB2FB29
:10FDC800F3F200BF7F2805D8034B185C034B5B5C3C
:10FDD80018407047002070472C250300AC2503000D
:10FDE800A0F16103192B98BF20387047A0F1410397
:10FDF800192B98BF203070477F2805D8034B185C13
:10FE0800034B5B5C18407047002070472C250300AB
:10FE1800AC250300A0F16103192B98BF2038704767
:10FE2800A0F14103192B98BF203070477F299ABF52
:10FE3800017001206FF02E0070475AB10A787F2AAE
:10FE48000AD800B10260002119605960501A18BF21
:10FE580001207047002070476FF02E0070470000A7
:10FE680008B5034B5B689B681B68984708BD00BFD3
:10FE78007422002008B50921FFF7F2FF08BDE2B19E
:10FE880070B4561E15D002780B789A4213D1431CD1
:10FE98000131064418460A46B34205D00133013100
:10FEA80005781478A542F5D000781378C01A70BC8C
:10FEB80070470A46F8E70A46F6E700207047000050
:10FEC800844640EA010313F0030F18D18446202A20
:10FED8000BD32DE9F007B1E8F807A0E8F807A2F17D
:10FEE8002002202AF7D2BDE8F007042A07D351F8E8
:10FEF800043B40F8043BA2F10402042AF7D2002A8A
:10FF080005D011F8013B00F8013B013AF9D16046F0
:10FF1800704700BF8446002A2DD010F0030F04D08C
:10FF280000F8011B013A26D0F7E7C9B241EA0121DE
:10FF380041EA0141202A12D3A2F120022DE9F0035F
:10FF48000B460C460D460E460F4688468946A0E8E5
:10FF5800FA03203AFBD2BDE8F00320320BD0042A82
:10FF680005D340F8041B043A05D0042AF9D200F856
:10FF7800011B013AFBD16046704700BF00F1010147
:10FF880010F0030F11D010F8012B002A23D010F025
:10FF9800030F0AD010F8012B002A1CD010F0030F11
:10FFA80003D010F8012B002A15D02DE970004FF06E
:10FFB80001324FF0803350F8044BA4EB020525EAD8
:10FFC80004051D4000D1F6E7A0F1040070BC10F84C
:0CFFD800012B002AFBD1A0EB01007047B8
:10FFE40085BE02000000000035AC020000000000E5
:0CFFF400EFBA0200502D002071CF020077
:020000023000CC
:10000000A82F0020D1BC020000000000E9DC0200A3
:100010000000000083D10200BC2F00206DF402001C
:0C002000BC3300204DAD020000000000C9
:10002C003192020000000000619702000000000005
:10003C0055BB0200502D00208DF602000000000080
:04004C00B9AE020047
:10005000FC09030000000000020A03000000000089
:10006000090A0300000000000D0A03000000000060
:10007000120A030000000000C50103000000030392
:10008000F6090300000000008912030000000303CA
:10009000AD04030000000303C822030000000303B3
:1000A00008250300000003032025030000000303CC
:1000B000E417030000000303B90F0300000003036B
:1000C00028110300000003038E1D0300000003033A
:1000D0003A11030000000303761503000000030338
:1000E000B81303000000030395210300000003037D
:1000F0000F20030000000303F804030000000000C9
:100100004DFA02000000000099FC0200000000000F
:08011000119102000000000043
:10011800D992020000000000DD97020000000000F4
:08012800F1AE0200000000002E
:100130008801030000000000940103004822002011
:10014000CC220020942300209C230020D4220020D5
:040150001800000093
:1001540000000000000000002982020000000000EE
:040164000000000097
:10016800FFFFFFFFFFFFFFFFFFFFFFFFFFFFFFFF97
:1001780000000000000000000000D6010601000099
:100188000565020069650200B56402007561727454
:100198005F6C6F675F6261636B656E64000000008F
:1001A800C02700207F000000402800204261636BC8
:1001B800656E647320666C75736865640061707041
:1001C800000000001F02030044020300FF010300B7
:1001D8004C020300540203005C02030064020300A3
:1001E8006C020300740203002025303278002020BE
:1001F80020007C002563001B5B313B33316D0025FB
:10020800734C6F67732064726F7070656420282563
:10021800642925730D0A001B5B306D003C25733E75
:100228002025733A2000000000000000A20203000D
:100238007C02030084020300890203001B5B313B3C
:1002480033306D001B5B313B33326D001B5B313B40
:1002580033336D001B5B313B33346D001B5B313B2B
:1002680033356D001B5B313B33366D001B5B313B17
:1002780033376D007761726E696E6700696E666FFD
:10028800006465627567000B0C18190D0E0F1000DD
:1002980060280020466174616C206572726F72007C
:1002A80053797374656D207265736574000000007E
:1002B80000000000000000000338FDD8704700006F
:1002C8000000FFFFDEC0ADDEFE011EF1DEC0ADDEC8
:1002D800FF011EF130313233343536373839414277
:1002E800434445466E72665F6673746F72616765F4
:1002F8005F696E6974006E72665F6673746F7261AF
:1003080067655F7772697465006E72665F6673749D
:100318006F726167655F65726173650061646472BD
:100328005F69735F706167655F616C69676E65645B
:1003380028705F66732C20706167655F6164647202
:100348002900616464725F69735F77697468696EB4
:100358005F626F756E647328705F66732C207061BE
:1003680067655F616464722C20286C656E202A20A2
:10037800705F66732D3E705F666C6173685F696E4F
:10038800666F2D3E65726173655F756E69742929A4
:1003980000705F667300257320636865636B206671
:1003A80061696C656420696E202573282920776946
:1003B80074682076616C756520307825782E007019
:1003C8005F64657374006C656E00616464725F6974
:1003D800735F616C69676E65643332287372632971
:1003E80000616464725F69735F77697468696E5FDE
:1003F800626F756E647328705F66732C2073726306
:100408002C206C656E2900705F66732D3E705F61ED
:10041800706900705F7372630021286C656E202517
:1004280020705F66732D3E705F666C6173685F69EC
:100438006E666F2D3E70726F6772616D5F756E6963
:10044800742900616464725F69735F616C69676EC7
:100458006564333228646573742900616464725F6B
:1004680069735F616C69676E6564333228287569E2
:100478006E7433325F7429705F737263290061642C
:1004880064725F69735F77697468696E5F626F75BC
:100498006E647328705F66732C20646573742C20F7
:1004A8006C656E29006E72665F6673746F72616741
:1004B80065000000001000000400000001000000BA
:1004C80055910200359102002591020065930200C2
:1004D80019930200F9900200FD90020001910200B8
:1004E800A82B00204C00030050000300040000006B
:1004F8007077725F6D676D7400556E6B6E6F776E97
:10050800206572726F7220636F64650000000000DE
:100518003C0603000100000048060300020000003A
:1005280066060300030000008706030004000000BD
:100538009A06030005000000AB0603000600000051
:10054800BF06030007000000D706030008000000EC
:10055800EF06030009000000070703000A00000077
:10056800200703000B000000380703000C00000000
:100578004F0703000D000000630703000E00000092
:10058800750703000F000000840703001000000037
:100598009807030011000000AF07030012000000D5
:1005A800BE07030013000000D3070300800000000B
:1005B800E70703008100000008080300820000002C
:1005C80024080300830000004008030084000000A2
:1005D8005E080300850000007F0803008600000015
:1005E800A408030090000000BB080300910000006D
:1005F800D908030092000000F708030000820000F9
:100608000C090300018200002A090300028200008D
:100618004609030000840000620903000184000009
:100628008609030002840000B00903000384000067
:10063800D50903004E52465F535543434553530073
:100648004E52465F4552524F525F5356435F4841A0
:100658004E444C45525F4D495353494E47004E5204
:10066800465F4552524F525F534F46544445564990
:1006780043455F4E4F545F454E41424C4544004E02
:1006880052465F4552524F525F494E5445524E4171
:100698004C004E52465F4552524F525F4E4F5F4D8F
:1006A800454D004E52465F4552524F525F4E4F5491
:1006B8005F464F554E44004E52465F4552524F5288
:1006C8005F4E4F545F535550504F52544544004E5F
:1006D80052465F4552524F525F494E56414C49442B
:1006E8005F504152414D004E52465F4552524F5263
:1006F8005F494E56414C49445F5354415445004E5E
:1007080052465F4552524F525F494E56414C4944FA
:100718005F4C454E475448004E52465F4552524F33
:10072800525F494E56414C49445F464C414753003D
:100738004E52465F4552524F525F494E56414C49C0
:10074800445F44415441004E52465F4552524F5215
:100758005F444154415F53495A45004E52465F45F4
:1007680052524F525F54494D454F5554004E5246D0
:100778005F4552524F525F4E554C4C004E52465FA9
:100788004552524F525F464F5242494444454E00EB
:100798004E52465F4552524F525F494E56414C4960
:1007A800445F41444452004E52465F4552524F52B4
:1007B8005F42555359004E52465F4552524F525F61
:1007C800434F4E4E5F434F554E54004E52465F4581
:1007D80052524F525F5245534F5552434553004E64
:1007E80052465F4552524F525F4D4F44554C455FFC
:1007F8004E4F545F494E495449414C495A4544006B
:100808004E52465F4552524F525F4D555445585FC0
:10081800494E49545F4641494C4544004E52465F53
:100828004552524F525F4D555445585F4C4F434BBC
:100838005F4641494C4544004E52465F4552524F2F
:10084800525F4D555445585F554E4C4F434B5F468C
:1008580041494C4544004E52465F4552524F525F03
:100868004D555445585F434F4E445F494E49545F78
:100878004641494C4544004E52465F4552524F52FC
:100888005F4D4F44554C455F414C52454144595F7B
:10089800494E495449414C495A4544004E52465FD5
:1008A8004552524F525F53544F524147455F465548
:1008B8004C4C004E52465F4552524F525F41504990
:1008C8005F4E4F545F494D504C454D454E5445443D
:1008D800004E52465F4552524F525F46454154556D
:1008E80052455F4E4F545F454E41424C4544004E81
:1008F80052465F4552524F525F494F5F50454E44F2
:10090800494E47004E52465F4552524F525F44523D
:10091800565F5457495F4552525F4F56455252559C
:100928004E004E52465F4552524F525F4452565FF8
:100938005457495F4552525F414E41434B004E5216
:10094800465F4552524F525F4452565F5457495F73
:100958004552525F444E41434B004E52465F45520A
:10096800524F525F424C455F495053505F52585F57
:10097800504B545F5452554E4341544544004E52D7
:10098800465F4552524F525F424C455F4950535063
:100998005F4348414E4E454C5F414C524541445996
:1009A8005F455849535453004E52465F4552524F83
:1009B800525F424C455F495053505F4C494E4B5F24
:1009C800444953434F4E4E4543544544004E5246C6
:1009D8005F4552524F525F424C455F495053505FFA
:1009E800504545525F52454A454354454400636C5F
:1009F8006F636B00434C4F434B004750494F54457E
:100A0800005052530055415254005541525445002C
:100A18000B000300E5A902000C000300E5A9020091
:100A280018000300E5A9020019000300E5A9020067
:100A3800C82C0020E82C0020082D0020506F776576
:100A480072206D616E6167656D656E742077616E89
:100A5800747320746F20726573657420746F2044FA
:100A68004655206D6F64652E00506F776572206D56
:100A7800616E6167656D656E7420616C6C6F77651A
:100A88006420746F20726573657420746F20444607
:100A980055206D6F64652E0044657669636520692D
:100AA8007320707265706172696E6720746F20655B
:100AB8006E74657220626F6F746C6F61646572200A
:100AC8006D6F64652E00446973636F6E6E65637441
:100AD8006564202564206C696E6B732E004465760E
:100AE8006963652077696C6C20656E746572206235
:100AF8006F6F746C6F61646572206D6F64652E0032
:100B08005265717565737420746F20656E746572B3
:100B180020626F6F746C6F61646572206D6F6465BD
:100B2800206661696C6564206173796E6368726FB1
:100B38006E656F75736C792E005265717565737487
:100B480020746F2073656E64206120726573706F06
:100B58006E736520746F20636C69656E74206661BE
:100B6800696C65642E00556E6B6E6F776E206576C6
:100B7800656E742066726F6D20626C655F64667561
:100B88005F627574746F6E6C6573732E004661696D
:100B98006C656420746F20646973636F6E6E65633F
:100BA8007420636F6E6E656374696F6E2E20436F79
:100BB8006E6E656374696F6E2068616E646C653A09
:100BC800202564204572726F723A202564004446DD
:100BD80055334131353200427574746F6E6C6573EC
:100BE8007320444655204170706C69636174696F65
:100BF8006E20737461727465642E0045726173654A
:100C080020626F6E6473210053657474696E672087
:100C1800766563746F72207461626C6520746F20EE
:100C2800626F6F746C6F616465723A20307825303A
:100C38003878004661696C65642072756E6E696EFD
:100C4800672073645F736F66746465766963655F54
:100C5800766563746F725F7461626C655F626173FD
:100C6800655F736574004E6F20626F6F746C6F619F
:100C78006465722077617320666F756E64005365D2
:100C88007474696E6720766563746F72207461622C
:100C98006C6520746F206D61696E206170703A20F8
:100CA80030782530387800000100FFFF0000000090
:100CB80001000000466C6173682066756C6C2E201C
:100CC800436F756C64206E6F742073746F72652047
:100CD8006461746120666F7220636F6E6E5F686115
:100CE8006E646C653A202564006773636D5F6C6F92
:100CF80063616C5F64625F63616368655F7570649C
:100D080061746528292072657475726E6564202582
:100D18007320666F7220636F6E6E5F68616E646CBD
:100D2800653A20256400556E65787065637465645E
:100D3800204741545420737461747573207768692F
:100D48006C652067657474696E672043415220633F
:100D58006861722076616C75653A20307825780074
:100D68004D756C7469706C65202825642920434191
:100D78005220636861726163746572697374696330
:100D88007320666F756E642C207573696E672074A6
:100D980068652066697273742E00556E6578706593
:100DA80063746564204341522063686172616374AF
:100DB800657269737469632076616C7565206C650A
:100DC8006E67746820282564292C2073746F7265F7
:100DD80020302E00436F756C64206E6F7420616341
:100DE800717569726520636F6E6E5F737461746587
:100DF800207573657220666C6167732E20496E6377
:100E0800726561736520424C455F434F4E4E5F5398
:100E1800544154455F555345525F464C41475F43E3
:100E28004F554E5420696E2074686520626C655F6A
:100E3800636F6E6E5F7374617465206D6F64756C3B
:100E4800652E00546865206C6F63616C2064617462
:100E5800616261736520686173206368616E6765AC
:100E6800642C20736F20736F6D65207375627363D4
:100E780072697074696F6E7320746F206E6F746915
:100E88006669636174696F6E7320616E6420696E50
:100E98006469636174696F6E7320636F756C642035
:100EA8006E6F7420626520726573746F726564205A
:100EB800666F7220636F6E6E5F68616E646C65202A
:100EC8002564006773636D5F6C6F63616C5F646258
:100ED8005F63616368655F6170706C79282920724F
:100EE800657475726E656420257320776869636818
:100EF8002073686F756C64206E6F74206861707001
:100F0800656E2E20636F6E6E5F68616E646C653A05
:100F1800202564006773636D5F7365727669636526
:100F28005F6368616E6765645F696E645F73656E51
:100F38006428292072657475726E65642025732093
:100F4800666F7220636F6E6E5F68616E646C653A7F
:100F58002025640043415220636861722076616CE9
:100F6800756520636F756C646E27742062652073E5
:100F7800746F72656420286572726F723A202573E7
:100F8800292E205265617474656D70742077696CC0
:100F98006C2068617070656E206F6E2074686520C3
:100FA8006E65787420636F6E6E656374696F6E2EFC
:100FB80000706565725F6D616E616765725F67631A
:100FC8006D00000001000100201103000100010074
:100FD8002411030073645F626C655F6761747473E6
:100FE8005F7379735F617474725F73657428292005
:100FF80072657475726E6564204E52465F45525232
:101008004F525F494E56414C49445F444154412038
:10101800666F72204E554C4C20706F696E74657205
:101028002077686963682073686F756C64206E65E3
:101038007665722068617070656E2E20636F6E6EC3
:101048005F68616E646C653A2025640044696420B9
:10105800616E6F7468657220746872656164206D72
:10106800616E6970756C61746520504D5F504545BF
:10107800525F444154415F49445F474154545F4C77
:101088004F43414C20666F7220706565725F6964DA
:10109800202564206174207468652073616D652063
:1010A80074696D653F207064625F77726974655F0B
:1010B8006275665F72656C65617365282920726563
:1010C8007475726E65642025732E0073645F626C9C
:1010D800655F67617474735F696E697469616C5F79
:1010E800757365725F68616E646C655F67657428A7
:1010F800292072657475726E65642025732077687F
:101108006963682073686F756C64206E6F742068FB
:10111800617070656E2E0000010000000000000084
:10112800706565725F6D616E616765725F67736335
:101138006D00706565725F6D616E616765725F698C
:101148006D0073645F626C655F6761705F64617492
:10115800615F6C656E6774685F757064617465283B
:101168002920287265717565737429206F6E206354
:101178006F6E6E656374696F6E20307825782072A3
:10118800657475726E65642025732E005468652039
:101198007265717565737465642054582F525820B0
:1011A8007061636B6574206C656E67746820697321
:1011B80020746F6F206C6F6E672062792025752F01
:1011C8002575206F63746574732E005468652072EA
:1011D800657175657374656420636F6D62696E61AE
:1011E80074696F6E206F6620545820616E642052B7
:1011F80058207061636B6574206C656E67746873E2
:1012080020697320746F6F206C6F6E67206279207D
:101218002575206D6963726F7365636F6E64732ED5
:101228000073645F626C655F67617474635F65789F
:101238006368616E67655F6D74755F72657175650A
:10124800737428292072657475726E65642025731D
:101258002E0073645F626C655F67617474735F65A9
:10126800786368616E67655F6D74755F7265706CD1
:101278007928292072657475726E65642025732E2D
:10128800006E72665F626C655F6761747400436FBD
:10129800756C64206E6F7420696E697469616C691D
:1012A8007A6520666C6173682073746F7261676514
:1012B8002E206664735F7265676973746572282986
:1012C8002072657475726E656420307825782E00FA
:1012D800436F756C64206E6F7420696E6974696100
:1012E8006C697A6520666C6173682073746F7261CB
:1012F80067652E206664735F696E69742829207299
:10130800657475726E656420307825782E00436F99
:10131800756C64206E6F74207772697465206461DF
:10132800746120746F20666C6173682E2066647324
:101338005F7265636F72645F7B77726974657C75D1
:1013480070646174657D28292072657475726E6594
:101358006420307825782E20706565725F69643A5C
:1013680020256400436F756C64206E6F742064657B
:101378006C657465207065657220646174612E20E7
:101388006664735F66696C655F64656C657465281F
:10139800292072657475726E65642030782578200E
:1013A800666F7220706565725F69643A2025640013
:1013B800706565725F6D616E616765725F70647399
:1013C80000000000C1E0020035F30200E5C8020099
:1013D800D5C50200504D5F4255464645525F494EBD
:1013E800495428292072657475726E6564202573C6
:1013F8002E00536F6D65207065657220646174619D
:1014080020776173206E6F742070726F7065726CD4
:1014180079207772697474656E20746F20666C61C8
:1014280073682E2077726974655F6275665F73747E
:101438006F726528292072657475726E656420253F
:101448007320666F7220706565725F69643A202543
:1014580064007064625F77726974655F6275665F65
:1014680072656C6561736528292072657475726E82
:1014780065642025732077686963682073686F75D1
:101488006C64206E6F742068617070656E2E2070B9
:101498006565725F69643A2025642C206461746113
:1014A8005F69643A202564005065657220494420CC
:1014B800256420776173206E6F742070726F706579
:1014C800726C792072656C65617365642E20706436
:1014D800735F706565725F69645F66726565282908
:1014E8002072657475726E65642025732E20706590
:1014F80065725F69643A2025640043616E6E6F749B
:101508002073746F7265206461746120746F206643
:101518006C617368206265636175736520706D5FC7
:101528006275666665725F7074725F676574282994
:1015380020636F756C64206E6F74207265747269B5
:101548006576652052414D206275666665722E206B
:10155800497320626C6F636B5F6964202564206E39
:101568006F7420616C6C6F63617465643F007065B3
:1015780065725F6D616E616765725F70646200704D
:101588006D5F6275666665725F7074725F676574B9
:10159800282920636F756C64206E6F7420726574DF
:1015A80072696576652052414D206275666665727E
:1015B8002E20626C6F636B5F69643A20256400704B
:1015C80064735F706565725F646174615F73746F83
:1015D800726528292072657475726E65642025739A
:1015E8002E20706565725F69643A202564000000EA
:1015F8000100060044330020706D5F696E69740055
:10160800706D5F70656572735F64656C65746500A5
:101618002573206661696C65642062656361757312
:1016280065207064735F696E697428292072657417
:1016380075726E65642025732E00257320666169B6
:101648006C65642062656361757365207064625FB0
:10165800696E697428292072657475726E656420D4
:1016680025732E002573206661696C6564206265A8
:10167800636175736520736D5F696E6974282920CD
:1016880072657475726E65642025732E002573204B
:101698006661696C65642062656361757365207352
:1016A8006D645F696E697428292072657475726E3D
:1016B80065642025732E002573206661696C656456
:1016C80020626563617573652067636D5F696E6924
:1016D8007428292072657475726E65642025732ECE
:1016E800002573206661696C6564206265636175B5
:1016F8007365206773636D5F696E6974282920724A
:10170800657475726E65642025732E00436F756C61
:1017180064206E6F74207570646174652072616EE8
:101728006B2E207064625F7261775F73746F72658D
:1017380028292072657475726E65642025732E20C1
:10174800706565725F69643A20256400436F756C43
:1017580064206E6F74207265747265697665207294
:10176800616E6B732E207064625F706565725F6472
:101778006174615F6C6F6164282920726574757289
:101788006E65642025732E20706565725F69643A02
:101798002025640025732829206661696C6564200A
:1017A8006265636175736520612063616C6C207488
:1017B8006F20706D5F706565725F64656C657465D8
:1017C80028292072657475726E65642025732E2031
:1017D800706565725F69643A20256400706565729A
:1017E8005F6D616E6167657200706D5F636F6E6ECD
:1017F8005F7365637572652829206661696C656425
:10180800206265636175736520616E20534D5020B9
:1018180074696D656F75742069732070726576657B
:101828006E74696E67207365637572697479206F69
:101838006E20746865206C696E6B2E204469736332
:101848006F6E6E656374696E6720636F6E6E5F6836
:10185800616E646C652025642E0073645F626C653C
:101868005F6761705F646973636F6E6E6563742828
:10187800292072657475726E6564202573206F6EF9
:1018880020636F6E6E5F68616E646C652025642EE0
:1018980000706D5F636F6E6E5F7365637572652848
:1018A80029206661696C656420626563617573658A
:1018B800207468652073746F726564206461746154
:1018C80020666F7220636F6E6E5F68616E646C6510
:1018D80020256420646F6573206E6F7420686176BC
:1018E8006520612076616C6964206B65792E0070D3
:1018F8006D5F636F6E6E5F7365637572652829200F
:101908006661696C656420626563617573652063EF
:101918006F6E6E5F68616E646C6520256420697304
:10192800206E6F7420612076616C696420636F6E2D
:101938006E656374696F6E2E0041737365727469A6
:101948006E672E20706D5F636F6E6E5F7365637573
:10195800726528292072657475726E656420257316
:10196800206F6E20636F6E6E5F68616E646C6520B9
:1019780025642E009F1C0300A61C0300AD1C030059
:10198800BA1C0300D71C0300E41C0300F11C03006D
:10199800021D0300121D03001C1D0300291D030066
:1019A800381D03006E1D03007B1D0300861D030008
:1019B800531D03005E1D0300661D0300417474651A
:1019C8006D7074696E6720746F20636C65616E203A
:1019D800666C6173682E0044656C6574696E672077
:1019E8006C6F776573742072616E6B6564207065C7
:1019F80065722028706565725F69643A20256429DC
:101A080000546865726520617265206E6F2070658C
:101A180065727320746F2064656C6574652E005060
:101A28006565722072616E6B732066756E6374698A
:101A38006F6E616C6974792069732064697361627F
:101A48006C65642C20736F206E6F207065657273EF
:101A5800206172652064656C657465642E0041734D
:101A680073657274696E672E00436F6E6E6563747A
:101A7800696F6E20736563757265643A20726F6C66
:101A8800653A2025732C20636F6E6E5F68616E6403
:101A98006C653A2025642C2070726F6365647572DA
:101AA800653A20257300436F6E6E656374696F6EC7
:101AB800207365637572697479206661696C656401
:101AC8003A20726F6C653A2025732C20636F6E6E16
:101AD8005F68616E646C653A20307825782C2070D8
:101AE800726F6365647572653A2025732C20657280
:101AF800726F723A20256400466C617368207374B3
:101B08006F726167652069732066756C6C00556E2D
:101B1800657870656374656420666174616C2065BE
:101B280072726F72206F636375727265643A2065B2
:101B380072726F723A202573005065657220646175
:101B480074612075706461746564206661696C6590
:101B5800643A20706565725F69643A2025642C20B8
:101B6800646174615F69643A2025732C2061637431
:101B7800696F6E3A2025732C206572726F723A2055
:101B8800257300506565722064656C657465642012
:101B98007375636365737366756C6C793A207065E9
:101BA80065725F69643A2025640050656572206437
:101BB800656C6574696F6E206661696C65643A204E
:101BC800706565725F69643A2025642C20657272BD
:101BD8006F723A20257300416C6C207065657273D2
:101BE8002064656C657465642E00416C6C207065BA
:101BF80065722064656C6574696F6E206661696CD6
:101C080065643A206572726F723A202573004C6FD2
:101C180063616C20444220636F756C64206E6F743E
:101C2800206265206170706C6965643A20636F6E2C
:101C38006E5F68616E646C653A2025642C2070655F
:101C480065725F69643A20256400466C6173682098
:101C58006761726261676520636F6C6C6563746944
:101C68006F6E206661696C656420776974682065A9
:101C780072726F722025732E00556E6578706563D9
:101C880074656420504D206576656E742049443A29
:101C980020307825782E005570646174650044659D
:101CA8006C657465004F75746461746564202830D0
:101CB800290053657276696365206368616E67659C
:101CC800642070656E64696E6720666C6167004F9A
:101CD8007574646174656420283229004F757464D2
:101CE8006174656420283329004170706C696361F0
:101CF80074696F6E20646174610052656D6F7465FC
:101D08002064617461626173650050656572207258
:101D1800616E6B00426F6E64696E67206461746106
:101D2800004C6F63616C206461746162617365006B
:101D380043656E7472616C206164647265737320AC
:101D48007265736F6C7574696F6E00456E63727936
:101D58007074696F6E00426F6E64696E67005061DF
:101D68006972696E6700496E76616C696420526FAA
:101D78006C65005065726970686572616C004365D6
:101D88006E7472616C00706565725F6D616E61671B
:101D980065725F68616E646C657200436F756C6430
:101DA800206E6F7420636C65616E207570206166AB
:101DB800746572206661696C656420626F6E64691F
:101DC8006E672070726F6365647572652E2070642B
:101DD800625F77726974655F6275665F72656C656C
:101DE80061736528292072657475726E6564202593
:101DF800732E20636F6E6E5F68616E646C653A2047
:101E080025642E00436F756C64206E6F7420636FB9
:101E18006D706C65746520656E6372797074696F36
:101E28006E2070726F6365647572652E2073645FCF
:101E3800626C655F6761705F7365635F696E666F2B
:101E48005F7265706C7928292072657475726E6589
:101E5800642025732E20636F6E6E5F68616E646CFC
:101E6800653A2025642C20706565725F69643A20A4
:101E780025642E0052414D206275666665722066A3
:101E88006F72206E657720626F6E642077617320B1
:101E9800756E617661696C61626C652E2070646232
:101EA8005F77726974655F6275665F676574282914
:101EB8002072657475726E65642025732E20636FB9
:101EC8006E6E5F68616E646C653A2025642E00430F
:101ED8006F756C64206E6F7420616C6C6F636174D5
:101EE80065206E657720706565725F696420666F2E
:101EF8007220696E636F6D696E6720626F6E642E03
:101F080000436F756C64206E6F742073746F726514
:101F180020626F6E642E207064625F7772697465E8
:101F28005F6275665F73746F7265282920726574C5
:101F380075726E65642025732E20636F6E6E5F6800
:101F4800616E646C653A2025642C20706565725F4B
:101F580069643A20256400436F756C64206E6F7461
:101F68002072657472696576652052414D206275EC
:101F78006666657220666F7220696E636F6D696E42
:101F88006720626F6E642E207064625F7772697476
:101F9800655F6275665F6765742829207265747568
:101FA800726E65642025732E20636F6E6E5F6861A4
:101FB8006E646C653A20256400696D5F626C655FCC
:101FC800616464725F67657428292072657475722C
:101FD8006E65642025732E20636F6E6E5F68616E78
:101FE800646C653A2025642E204C696E6B207761FD
:101FF80073206C696B656C7920646973636F6E6EAE
:1020080065637465642E00706565725F6D616E61ED
:102018006765725F736D640043616E6E6F742073E1
:102028006563757265206C696E6B206265636175A6
:10203800736520612070726576696F7573207365AA
:102048006375726974792070726F636564757265FF
:1020580020656E64656420696E2074696D656F75AE
:10206800742E20446973636F6E6E65637420616EAD
:10207800642072657472792E20736D645F7061726A
:10208800616D735F7265706C792829206F72207397
:102098006D645F6C696E6B5F736563757265282923
:1020A8002072657475726E6564204E52465F4552A3
:1020B800524F525F54494D454F55542E20636F6E11
:1020C8006E5F68616E646C653A20256400436F75C5
:1020D8006C64206E6F7420706572666F726D207309
:1020E800656375726974792070726F63656475725F
:1020F800652E20736D645F706172616D735F7265C8
:10210800706C792829206F7220736D645F6C696E1A
:102118006B5F7365637572652829207265747572C3
:102128006E65642025732E20636F6E6E5F68616E26
:10213800646C653A20256400436F756C64206E6F8B
:102148007420706572666F726D207365637572694D
:1021580074792070726F6365647572652E20736D73
:10216800645F6C696E6B5F7365637572652829209F
:1021780072657475726E65642025732E20636F6EA8
:102188006E5F68616E646C653A20256400706565F1
:10219800725F6D616E616765725F736D0050EADA38
:1021A800308883B89F604F15F30000C98E5265636D
:1021B800656976656420696E6469636174696F6EC8
:1021C8002073746174652025640054686520626F0B
:1021D8006F746C6F616465722068617320777269CF
:1021E80074652070726F74656374656420697473B4
:1021F8002073657474696E677320706167652E203B
:10220800546869732070726F6869626974732073A7
:10221800657474696E672074686520616476657298
:10222800746973696E67206E616D652E20546865E8
:1022380020626F6F746C6F61646572206D75737462
:1022480020626520636F6D70696C656420776974BE
:1022580068204E52465F424C5F53455454494E479E
:10226800535F504147455F50524F544543543D30AA
:1022780020746F20616C6C6F772073657474696E5D
:102288006720746865206164766572746973696E25
:1022980067206E616D652E000100000710010300C4
:1022A80018010300080000000001030010010300EA
:1022B80008000000180103003001030008000000B6
:1022C8006E72665F7364680073645F626C655F63F7
:1022D80066675F73657428292072657475726E6508
:1022E80064202573207768656E20617474656D704D
:1022F80074696E6720746F2073657420424C455F63
:10230800434F4E4E5F4346475F4741502E0073642C
:102318005F626C655F6366675F7365742829207206
:10232800657475726E6564202573207768656E2004
:10233800617474656D7074696E6720746F2073655D
:102348007420424C455F4741505F4346475F524FB8
:102358004C455F434F554E542E0073645F626C6565
:102368005F6366675F736574282920726574757288
:102378006E6564202573207768656E2061747465C6
:102388006D7074696E6720746F2073657420424C99
:10239800455F434F4D4D4F4E5F4346475F56535F32
:1023A800555549442E0073645F626C655F636667C8
:1023B8005F73657428292072657475726E65642070
:1023C8002573207768656E20617474656D70746913
:1023D8006E6720746F2073657420424C455F4741D7
:1023E8005454535F4346475F415454525F544142EB
:1023F8005F53495A452E0073645F626C655F63667C
:10240800675F73657428292072657475726E6564D8
:10241800202573207768656E20617474656D70740B
:10242800696E6720746F2073657420424C455F475E
:10243800415454535F4346475F53455256494345B9
:102448005F4348414E4745442E00496E73756666A2
:10245800696369656E742052414D20616C6C6F63CD
:102468006174656420666F722074686520536F66B6
:10247800744465766963652E004368616E676520FC
:102488007468652052414D207374617274206C6FBA
:10249800636174696F6E2066726F6D20307825787D
:1024A80020746F20307825782E004D6178696D751D
:1024B8006D2052414D2073697A6520666F722061E4
:1024C80070706C69636174696F6E2069732030780D
:1024D80025782E0073645F626C655F656E61626C5F
:1024E8006528292072657475726E65642025732EBF
:1024F80000000000E4FF02002C00030008000000B8
:102508006E72665F7364685F626C65002C0003001E
:102518004C000300080000006E72665F7364685F19
:10252800736F630020202020202020202068282886
:102538002828202020202020202020202020202083
:10254800202020204810101010101010101010100B
:1025580010101010848484848484848484841010EB
:102568001010101010818181818181010101010108
:102578000101010101010101010101010101011034
:1025880010101010108282828282820202020202DD
:102598000202020202020202020202020202021005
:1025A80010101020000703200417020108571040DC
:1025B800800000006027030024260300382703005A
:1025C80053756E004D6F6E00547565005765640055
:1025D8005468750046726900536174000000000079
:1025E8004A616E00466562004D617200417072007A
:1025F8004D6179004A756E004A756C004175670037
:10260800536570004F6374004E6F76004465630035
:1026180000000000414D00504D0000005C27030001
:10262800582703005827030058270300582703009A
:10263800582703005827030058270300582703008A
:1026480058270300FFFFFFFFFFFFFFFFFFFFFFFF0C
:10265800FFFF000098260300C8250300D4260300C6
:10266800E82503001C2603007C2603002C27030012
:1026780088260300256D2F25642F2579000000008A
:102688002561202562202565202554202559000034
:1026980053756E646179004D6F6E6461790054758D
:1026A8006573646179005765646E65736461790068
:1026B800546875727364617900467269646179005F
:1026C8005361747572646179000000004A616E7527
:1026D800617279004665627275617279004D617246
:1026E800636800417072696C004D6179004A756ECB
:1026F80065004A756C790041756775737400536598
:102708007074656D626572004F63746F6265720004
:102718004E6F76656D62657200446563656D6265CE
:102728007200000025483A254D3A25530000000064
:10273800CDFD0200E9FD0200F5FD020001FE0200E8
:102748001DFE020029FE020035FE020043FE0200C3
:10275800000000002E00000043000000504F5349C5
:042768005800000015
:10276C00000000000020004000000000002000409D
:10277C000000000000000000FF0000000090D003EB
:10278C000A180100FFFFFFFFFFFFFFFFFFFFFFFF26
:10279C00FFFFFFFFFFFF1818181818181818000073
:1027AC00BC250300BC250300BC250300BC2503008D
:0427BC00BC25030035
:0400000320006379FD
:00000001FF
