:02000002F0000C
:108000000000042079830F0061830F0063830F0059
:1080100065830F0067830F0069830F000000000075
:1080200000000000000000000000000021A10F007F
:108030006D830F00000000006F830F0071830F003D
:1080400073830F0073830F0073830F0073830F001C
:1080500073830F0073830F0073830F0073830F000C
:1080600073830F0073830F0073830F0073830F00FC
:1080700073830F0073830F0073830F0073830F00EC
:1080800009A80F0073830F0073830F0073830F0021
:1080900073830F0073830F00419B0F0073830F00E6
:1080A00073830F0073830F0073830F0073830F00BC
:1080B00073830F0073830F000000000000000000B6
:1080C00073830F0073830F0073830F0073830F009C
:1080D000FDA40F0073830F0073830F0073830F00E1
:1080E00073830F0073830F0015D50F00000000008D
:1080F0000000000073830F000000000073830F0076
:10810000000000000000000000000000000000006F
:10811000000000000000000000000000000000005F
:10812000000000000000000000000000000000004F
:10813000000000000000000000000000000000003F
:10814000000000000000000000000000000000002F
:10815000000000000000000000000000000000001F
:10816000000000000000000000000000000000000F
:1081700000000000000000000000000000000000FF
:1081800000000000000000000000000000000000EF
:1081900000000000000000000000000000000000DF
:1081A00000000000000000000000000000000000CF
:1081B00000000000000000000000000000000000BF
:1081C00000000000000000000000000000000000AF
:1081D000000000000000000000000000000000009F
:1081E000000000000000000000000000000000008F
:1081F000000000000000000000000000000000007F
:10820000364937480A1A02D0072291438D4635492C
:1082100035480A1A06D00722914381F309880222C1
:1082200082F3148831483249324A00F045F8324826
:108230003249334A00F040F832483349334A00F0BB
:108240003BF833483349344A00F036F83348344970
:10825000344A00F031F834483449354A00F02CF8FB
:1082600034483549354A00F027F835483549002269
:1082700000F02DF834483549002200F028F8344841
:108280003449091A082903DB002202600430016026
:10829000314A90471F482049884205D0026804307F
:1082A00003B4904703BCF7E700208646EC46002065
:1082B00000212A4A9047FEE7884207D0521A05D08B
:1082C000037801300B700131013AF9D170478842CF
:1082D00002D002700130FAE770470000000004206D
:1082E00000F803200000042000000420ACDA0F0096
:1082F000CC57002004580020D8830F00D8830F00EB
:10830000BCD60F00ACDA0F00CC570020CC570020B1
:1083100030D70F0030D70F0030D70F0030D70F0005
:1083200030D70F0030D70F0030D70F0030D70F00F5
:10833000ACDA0F00E4DA0F000458002004580020E3
:1083400004580020DC870020DC870020DC87002028
:10835000DC870020DC870020A1830F0015A00F0020
:10836000FEE7FEE7FEE7FEE7FEE7FEE7FEE7FEE7E5
:10837000FEE7FEE7704700BF1048804710484FF007
:108380000701884385460F4880470F48016841F43C
:1083900070010160BFF34F8FBFF36F8FFFF730BFE6
:1083A0000A480B490B4A884207D0521A05D0037875
:1083B00001300B700131013AF9D1704775830F001C
:1083C00000000420A1A80F0088ED00E01CD70F00DA
:0883D000B8570020CC57002033
:1083D80012F0030310B511D1094C22604C1CE400C3
:1083E800A4B22244074C2260074A1370074A13704C
:1083F800074A1080074A1846118010BD072010BD93
:108408000C58002008580020045800201458002058
:1084180010580020125800202DE9F3472B4D2B88C7
:108428008B4206460C4617464BD302A84FF000086D
:1084380000F8018D00F088F8254B264A1878117845
:10844800CBB2254909888B4238BF0133C0B238BF47
:108458005FFA83F840452ED092F800801378DBB29B
:10846800994286BF0133DBB2002313709DF80700E1
:1084780000F08EF84FF6FF73984524D0DFF860A01F
:10848800DAF800304FEAC80903EB090243F83870FC
:10849800A6B19CB1114B28881B68224608FB003006
:1084A800314605F079F8DAF800304B4400209C801A
:1084B80002B0BDE8F0874FF6FF78D7E7002090803C
:1084C800F6E70920F4E70420F2E700BF105800207F
:1084D8001458002004580020125800200858002082
:1084E8000C580020F8B5124C124D264622782B78ED
:1084F8009A4200D1F8BD23780F48104A07881268BD
:108508000F48DBB219B202EBC10E006852F83120F5
:10851800BEF8041003FB070090470A4A2378128824
:10852800DBB29A4286BF0133DBB200233370DDE74A
:108538001458002004580020105800200C5800201F
:10854800085800201258002070B5EFF3108672B654
:108558000C4A946801239CB993600B4B0B4DD3F8DC
:10856800801029401160C3F88050D3F884105160FE
:108578004FF0FF32C3F88420047006B962B670BDAC
:108588000370FAE71858002000E100E0FC06FFBD80
:10859800084B9A6810B55AB150B9EFF3108272B609
:1085A80005491C680C605C684C60986002B962B64A
:1085B80010BD00BF1858002000E100E030B53AB106
:1085C8001368DB430B4C0144814204D1D84330BDCE
:1085D8004FF0FF33F6E710F8012B5340082213F051
:1085E800010F14BF25460025013A85EA5303F6D149
:1085F800EAE700BF2083B8ED10B561B1B2FBF3F430
:1086080003FB1424A4B244B980E812008460828178
:10861800C381204610BD0E2010BD092010BD82B0B8
:1086280050E8022FC188B2EB324F4FF0000317BF5A
:1086380092B241EA014142EA014104E04268B2EBE8
:10864800324F08BF012340E80212002AE8D18DF812
:1086580007309DF80730002B0CBF1120002002B016
:10866800704737B550E8013F9DB2C48925448489D5
:10867800A54228BF2D1B0489A54202BFBFF32F8F37
:10868800002207E0C5EA030540E80154002CE9D1BF
:108698004FF001028DF803200193019B9DF8032000
:1086A8000B6002F0FF0322B10B880068184403B086
:1086B80030BD1846FBE70A884B889A4209D150E832
:1086C800012FC2EA024240E80123002BF7D1012022
:1086D80070470020704737B550E8023F1FFAA3F5EE
:1086E800C488A54202BFBFF32F8F00220DE0C489C2
:1086F80025448489A54228BF2D1BC3EA054540E8C7
:108708000254002CE8D14FF001028DF803200193A8
:10871800019B9DF803200B6002F0FF0322B14B88F8
:108728000068184403B030BD1846FBE70A884B8838
:108738009A4209D150E8022FC2EA224240E80223B5
:10874800002BF7D1012070470020704700B550E892
:10875800002F0B4640E8003E9EF0000FF7D1104670
:108768005DF804FB00B550E8002F42EA010340E839
:10877800003E9EF0000FF6D110465DF804FB00B5F0
:1087880050E8003F03EA010240E8002E9EF0000F87
:10879800F6D110465DF804FB0121FFF7E3BF002185
:1087A800FFF7EDBF10B590B14268836801689B1A66
:1087B800DBB20A60013BDBB2FF2B026802D100206A
:1087C800107110BD11684C1C14600B70F2E70E207C
:1087D80010BD37B5054602A8002400F8014DFFF783
:1087E800B3FE2A686B68116899420ED9481E10605A
:1087F80011F8014CEB68298A01FB0434AB68117944
:108808001B1ADBB2994238BF13719DF80700FFF7B6
:10881800BFFE204603B030BD37B5054602A8002389
:1088280000F8013D0C46FFF78FFE2A681368591CB3
:108838001160E968641A298AB4FBF1F41C709DF888
:108848000700FFF7A5FE03B030BD01600B681146B5
:10885800184710B40468E468A4465DF8044B604700
:1088680010B404682469A4465DF8044B604700000E
:1088780070B508B10368B3B90D4D0E4B14225B1BDC
:108888000024B3FBF2F302FB03F6A64201D1002059
:1088980070BD2B5928190BB91434F6E7DB699847D2
:1088A8000028F9D070BDDB69BDE87040184700BFEB
:1088B800B8570020CC570020014B43600020704778
:1088C80030D70F000846704700207047024B1868E1
:1088D800003018BF012070472458002008B502480E
:1088E800FFF75DFF002008BD2458002008B510469A
:1088F8001A4604F051FE002008BD00002DE9F041A1
:10890800804686B014480E4615461F46FFF744FFBA
:108918000446F0B9A54214D10F48FFF740FFD8F834
:10892800083000249BB1022268468DF8002001948B
:1089380002960394049505979847204606B0BDE82B
:10894800F08106EB043001F0D3F90134E2E7184670
:10895800F4E71120F2E700BF245800202DE9F04188
:10896800804686B012480F4616461D46FFF714FF8C
:108978000446D8B9AA083146384601F0D1F90C485E
:10898800FFF70DFFD8F8083073B101228DF80020E9
:108998000C9A0194684602970396049505929847A5
:1089A800204606B0BDE8F0811846FAE71120F8E73E
:1089B8002458002029DF704728DF704770B5036806
:1089C8009D6886B004460E466DB11822002168469F
:1089D80004F00CFEA3680593237901962BB1012BB3
:1089E8000DD06846A84706B070BD01238DF8003049
:1089F80023690293E368039363690493F1E702230D
:108A08008DF80030E3681B030293F5E708467047CA
:108A180000207047024B187A003018BF01207047B9
:108A2800145A0020034B187A0122B0FA80F05A74C5
:108A380040097047145A002008B510461A4604F039
:108A4800ABFD002008BD000008B514220021044831
:108A580004F0CCFD0348FFF7E2FD002008BD00BF8D
:108A6800145A0020045A002010B5094C094B4360E1
:108A78002046FFF791FE48B901F044F81C23207402
:108A88004FF4EE7204490548FFF7B6FD002010BD0B
:108A9800145A00205CD70F0028580020045A0020E0
:108AA80070B5234D234E2B7A2C463BB922492348D7
:108AB800FFF711FE306008B9686070BD02232372A9
:108AC80033681A7972B1012A22D018460321FFF7B8
:108AD80075FF00232372636017491848BDE870408A
:108AE800FFF724BE98695A69D9681D69121A142AB1
:108AF80028BF14229208012A014438BF01222844C1
:108B0800FFF758FF50B11128DFD10123237270BD40
:108B1800D8681A691044FFF74FFFF3E7237C2BB995
:108B28000146BDE87040022000F00AB870BD00BFE1
:108B3800145A00202C5A0020285A0020045A0020D9
:108B480038B5831E012B43D8224C237A002B3FD003
:108B5800022B09D103282ED01F4B1B680022E2608C
:108B68001A793AB1012A20D0637C6BBBBDE8384042
:108B7800FFF796BF9A6959698D1A142D94BF521937
:108B880014329A619142EFD102284FF0000308BFD6
:108B980019462372104B18BF0D211868FFF70EFFF6
:108BA8000E490F48FFF7C2FDDEE71A6901321A6164
:108BB8005B699A42E7E7E3680133082B01D8E36071
:108BC800D2E70023E360DFE7BDE8384000F08ABF62
:108BD80038BD00BF145A00202C5A0020285A002003
:108BE800045A002000F0FD03012B08D1044B002299
:108BF8005A74421E504250411874FFF751BF7047D3
:108C0800145A002010B5064C201DFFF7C5FD28B9E1
:108C1800637C1BB9BDE81040FFF742BF10BD00BF21
:108C2800145A00202DE9F34180460D460F4801A94A
:108C380016461F46FFF715FD0446A8B11C22002161
:108C480004F0D4FC2D0B0123237101A9C4F8008082
:108C5800A760E56066610548FFF72DFDFFF7D2FFC5
:108C6800002002B0BDE8F0810420FAE7045A002091
:108C78002DE9F74381468846104801A917461E4644
:108C8800FFF7EFFC0446B8B11C22002104F0AEFC4B
:108C980000250A9BA36001A92571C4F80090C4F8B7
:108CA8001080E76066610548FFF705FDFFF7AAFF3A
:108CB800284603B0BDE8F0830420FAE7045A0020F0
:108CC8000B684A684360934208BF0023016008BFED
:108CD80043607047436843B10268916852680B4427
:108CE8009342436004BF0023436070470023C2607F
:108CF8000160416083608B781A44026191F9033006
:108D08001A4442610878003018BF0120704738B50E
:108D1800426811780346002938D002F10C014160FD
:108D2800147B2CB9C2680168FFF7E0FF204638BD04
:108D38005078117900F03005302D14D1547B04F0AF
:108D48003004302C0FD190781969091A1961002163
:108D5800907B084419690144196192F90F20114464
:108D68005961012038BD00F0F004202C08D1507959
:108D780010FB01F1002DEBD1986801309860E7E70E
:108D880000F0C000802808BF0421F3E7084638BD7A
:108D980070B5456804460E4663681A78B24204D135
:108DA8005B7803F00F03082B07D12046FFF7AFFFCE
:108DB80063689D42F0D1002070BD012070BD4368FA
:108DC8001A44426011B10139934201D10120704720
:108DD80013F8010B01F8010FF6E770B542685378F4
:108DE80003F00F04082C86B01FD103691C68002605
:108DF8000CB906B070BD236862689D682673294661
:108E08006846FFF773FF6368049304F10C03059346
:108E18006B7803F0C003802B08BF231D684608BF8A
:108E28000493FFF7DAFFA468E2E713F0C0011BD14F
:108E380003F03005102D08D143691970072C09D1AA
:108E48000169906800F01AF8D3E79D06F6D54369E2
:108E58001970CEE791680069127911B104F09CFB92
:108E6800C7E704F0C3FBC4E78029C2D10169002227
:108E78009B060A60BDD543691A70BAE77FB50A46F2
:108E880001466846FFF732FF30B16846FFF7A5FF95
:108E98006846FFF73CFFF7E707B05DF804FB836817
:108EA8002DE9F3410446884623B90027384602B025
:108EB800BDE8F081036801220DF1070198470746D4
:108EC8000028F2D0A3689DF80750013B2A06A3604A
:108ED8001AD505F07F050726A368002BE5D023687F
:108EE80001220DF10701204698470028DDD0A3682C
:108EF8009DF80720013BA36002F07F03B3401D43A8
:108F0800130606F1070602D4C8F80050CEE7232E50
:108F1800E2D1CAE730B5044685B01546A9B902685A
:108F2800114B9A4211D0102D06D82A466946204680
:108F3800FFF7F0FF05B030BD102269462046FFF765
:108F4800E9FF0028F6D0103DEDE7A3689D4201D95E
:108F58000020EFE723682A46204698470028F7D0E4
:108F6800A3685D1BA560E5E7C78D0F0073B50D46C7
:108F780001A906461446FFF792FF88B1019A511CD1
:108F880010D26B7803F0C003802B0BD02B79994259
:108F980008D821463046FFF7BDFF019B0022E25466
:108FA80002B070BD0020FBE773B50D4601A9064667
:108FB8001446FFF774FF90B1019AFF2A11D8511C8B
:108FC8000FD26B7803F0C003802B0AD02B7999421B
:108FD80007D82146304601F8012BFFF79BFF02B066
:108FE80070BD0020FBE7000010B58260024C0460F1
:108FF80000224160C26010BDC78D0F002DE9F34704
:1090080004460F464FF000084FF000090025A368FA
:1090180003B3236801220DF107012046984706464D
:10902800C0B1A3689DF807A0013B2A46A3600AF0D7
:109038007F00002104F07CFA1AF0800F48EA00084B
:1090480049EA010905F1070502D1C7E9008902E0EB
:10905800462DDCD10026304602B0BDE8F08737B592
:109068000D4669461446FFF7C9FF68B12B79082BEE
:109078000CD1DDE90001C4E90001DDE900238B42E0
:1090880006BF82420120002003B030BD042B04D16A
:10909800DDE9000120600021EFE7022B03D10098F1
:1090A800208080B2F7E7012B05D1DDE900012070AF
:1090B80000F0FF00EFE70020E6E737B50D46694608
:1090C8001446FFF79BFF30B12A79082A05D1DDE95C
:1090D8000023C4E9002303B030BD009B042A1846CE
:1090E8004FEAE37108D123601A460B468B4206BF4C
:1090F800824201200020EEE7022A04D11BB223801D
:109108001AB2D317F2E7012A03D15BB223705AB21D
:10911800F7E70020DFE7F7B50C460021197021704A
:10912800116001A9074615461E46FFF7B8FE30B97B
:10913800BB6813B901233370002003B0F0BD019957
:109148000029F7D0CB0801F007012B602170F4E764
:1091580013B5044605291FD8DFE801F0030F151ED3
:109168001E1C012201A92046FFF7D4FE18B19DF963
:109178000430002BF5DB02B010BD08220021204688
:10918800FFF7C8FEF7E701A9FFF789FE0028F2D02C
:10919800019AF3E70422F1E70020ECE773B50D46E6
:1091A80001A90446FFF77BFE064618B9002630469B
:1091B80002B070BD94E80F0085E80F0001998A425B
:1091C800F4D3A960A3685B1AA360F0E72DE9F04324
:1091D80055686B7813F0C00C89B006468E46144665
:1091E80004D0BCF1400F68D0002544E003F00F0222
:1091F8005C4903F03003102B51F822701DD006D8BB
:10920800002BF1D122692946B847054633E0202BC7
:1092180017D0302BE8D1636929781970072A0AD149
:10922800636820691A79614604F0E0F96368216986
:109238009868FFF723FE22693CE0636901221A70EF
:10924800E0E7BEF1020FD4F8148027D1042A25D80C
:1092580004A9FFF7A3FF05460028C5D0069B2BB13C
:10926800616898F800304A799A4208D8059B73607B
:10927800069B002BB8D1284609B0BDE8F0830879D1
:10928800226900FB032204A8B84728B198F80030E7
:10929800013388F80030E1E70546E7E798F8003041
:1092A8006A799A42A0D922692979581C88F800005D
:1092B80001FB032261683046A6E717693B6807F19E
:1092C800040913B9FFF744FF9FE7022913D104A942
:1092D800FFF764FF002887D03B6861684A4604A806
:1092E8009847054600283FF47FAF069B002BF3D133
:1092F800059B7360BFE701292AD009D305297FF4AC
:1093080073AF04220DEB0201FFF704FE042524E0ED
:1093180000250DF1040801350B2D3FF465AF01223E
:1093280041463046FFF7F6FD00283FF45DAF18F9D7
:10933800013B002BEFDB0C4B049301AB059300239F
:10934800069507933B6861684A4604A898475CE716
:10935800082201A9FFF7DEFD082500283FF444AFE5
:10936800E9E700BF88D70F00C78D0F002DE9F04F40
:1093780091B00026044604A802960396FFF7B6FCAF
:10938800A3683BBB059B069C5D7804A8FFF7BFFC60
:109398000028F7D115F0300F03D1059B1B7803B1D6
:1093A8000134002C00F0B4806209002302A9934222
:1093B80040F0A78010AA02EB830304F01F04C4F155
:1093C80020044FF0FF3053F8383CE040C31A5842AD
:1093D80058410EE00DF1030301AA0DF102012046E8
:1093E800FFF799FE814638B99DF80330002BC9D1A3
:1093F800002011B0BDE8F08F019904A8FFF7C8FC60
:1094080000285AD1019B9E421DD8059D059A537884
:1094180003F00F03082B7DD004A8FFF778FC059B09
:109428009D42F3D14FF0FF36019FBE420BD8089BF7
:10943800D4F808809DF802A01D68A3680DB198456E
:1094480009D098459CD19DF802102046FFF780FE70
:10945800002895D1CCE72B68D3F800B0BBF1000FFA
:1094680008D053463A4629462046D8470028BFD058
:10947800AD68E2E7D3F808B09BF800309F421AD1F4
:109488006A6859460AA8FFF731FC6B680E9305F124
:109498000C030F939BF8013003F0C003802B04BF2B
:1094A8002B1D0E934FF001032B730AAA5146204639
:1094B800FFF78CFEDAE74846D8E7059B5B7813F0A0
:1094C800300F0FD1069A3F2A0CD8510910AB03EB85
:1094D800810102F01F020123934051F8382C1343F5
:1094E80041F8383CE5682DB104AB9DF8022001999C
:1094F8002046A84704AA9DF802102046FFF766FEFA
:10950800A6E751F8235001357FF473AF01334EE7D6
:1095180001206EE7167887E770B50C4606461546B3
:1095280011462046FFF7AAFC2A4621463046BDE8E8
:109538007040FFF71BBFF0B585B00C468D686946D3
:1095480007461646FFF72AFE68B1A06858B1637847
:1095580003F03003202B32462946684605D1FFF731
:10956800DBFF019B7B6005B0F0BDFFF7FFFEF8E76E
:10957800D3B50C466946FFF741FD70B1DDE900231C
:10958800002702F001065B084FEA320256EA07019B
:109598001CBFD243DB43C4E9002302B0D0BD37B5BA
:1095A8000D4669461446FFF7E3FF68B12B79082B8F
:1095B8000CD1DDE90001C4E90001DDE900238B429B
:1095C80006BF82420120002003B030BD042B03D126
:1095D80000982060C117F0E7022B04D1BDF9000004
:1095E800208000B2F6E7012B04D19DF9000020701D
:1095F80040B2EFE70020E7E713B504220C460DEB75
:109608000201FFF787FC08B1019B236002B010BD7F
:109618001146FFF7F1BF13B508220C466946FFF75C
:1096280079FC18B1DDE90023C4E9002302B010BDBC
:109638001146FFF7F0BF38B52022044608300D4622
:1096480003F0AAFF2022A91804F1280003F0A4FFC0
:10965800002038BD2DE9F743184D9946184B036093
:1096680004460F46284601219046FFF76FF8064644
:10967800BFF35F8FE0B900F0DFF843460A9ACDF8F0
:10968800009007F10801204602F0E6FD044600F0CC
:10969800E1F8BFF35F8F2E606CB10A4A48F21650AA
:1096A80048F24253944208BF184603B0BDE8F0831D
:1096B80048F20450F9E72046F7E700BF306A002077
:1096C800DD55AABB8408F0000E4B984216D006D888
:1096D80020B1013B98420ED048F2165070470A4B11
:1096E8009842F9D00333984208D00D3B9842F3D101
:1096F80048F20250704748F20150704748F2035050
:10970800704700BF0102F0000C02F00008B50830F5
:1097180002F00CFEBDE80840FFF7D6BF13681F2B08
:109728002DE9F0410746884614461DD9124D0121FE
:109738002846FFF70BF80646BFF35F8FC0B900F065
:109748007BF8414607F1080002F062FE074600F088
:1097580081F8BFF35F8F38462E60FFF7B5FF48B931
:1097680020232360BDE8F08148F21450BDE8F08161
:1097780048F20450BDE8F081306A00202DE9F0413C
:1097880007460C46194801211546FEF7DFFFBFF3CF
:109798005F8F30BB00F050F8DFF854800837B5F51C
:1097A800805F2E4628BF4FF48056324621464046F9
:1097B80003F0F2FE32464146384602F0D1FDAD1BB9
:1097C8003444064608B9002DE9D100F043F8BFF348
:1097D8005F8F064B00223046BDE8F0411A60FFF764
:1097E80073BF48F20450BDE8F08100BF306A002022
:1097F800305A0020024B0020C3F80005704700BF14
:1098080000A0025038B50A4B00251D60BFF35F8FDA
:10981800084C0123C4F8003502F02AFEC4F80055AC
:1098280020B1052848F2035018BF032038BD00BFF7
:10983800306A002000A00250044B0122C3F8002522
:10984800034B4FF480625A60704700BF00A002507B
:1098580000E100E0044B0022C3F80025034B4FF45D
:109868008062C3F88420704700A0025000E100E045
:10987800074B1B5C1F2B86BF03F01F0305494FF0E6
:10988800A041012202FA03F3C1F80C35704700BF6A
:10989800D4D70F0000030050074B1B5C1F2B86BF5B
:1098A80003F01F0305494FF0A041012202FA03F318
:1098B800C1F80835704700BFD4D70F000003005027
:1098C80008B50020FFF7E8FF0120FFF7E5FF0220B9
:1098D800FFF7E2FF0320BDE80840FFF7DDBF000007
:1098E800C20770B5044614D5154D164E0022032044
:1098F800535D1F2B86BF03F01F0331464FF0A04175
:1099080003F5E0730132042A41F82300F0D1FFF790
:10991800D7FFA30712D50C4C0A4D00220C20135D6B
:109928001F2B86BF03F01F0329464FF0A04103F504
:10993800E0730132042A41F82300F0D170BD00BF62
:10994800D4D70F0000030050D0D70F0010DF7047A6
:1099580011DF704713B5044609496846FFF7B0F9A7
:10996800019808B902B010BD0368416820469847BD
:1099780018B16846FFF7AEF9F2E71120F2E700BF29
:10998800DCD70F0013B5044607496846FFF798F976
:10999800019B0BB902B010BD20461A685968904760
:1099A8006846FFF797F9F3E7F4D70F00064B9A6874
:1099B80022B11A6822F480021A607047034B4FF4F0
:1099C8008002C3F8802070471858002000E100E0AA
:1099D8000C4991F816335A09EC231341DB0708D4D4
:1099E80042F2020000F00FBB1A6842F480021A60CB
:1099F8007047054B9A68002AF6D14FF480030B6034
:109A0800704700BF00E100E018580020F7B5184F74
:109A18003C785CBB174E012520463570FFF79AFF4E
:109A2800112820D02046FFF7ADFF134B186801908E
:109A380002A800F8054DFEF787FD104901A8FFF7B9
:109A480085FF0446B0FA80F0400938709DF803009D
:109A5800FEF79EFD3CB90A4B34701C70FFF7B8FF47
:109A68002846FFF78FFF204603B0F0BD0824FAE729
:109A7800356A0020346A0020D8D70F0009A00F00EB
:109A8800366A0020F7B5154F3B7813B3144E012002
:109A98003070FFF75FFF11284FF000051BD0022040
:109AA800FFF770FF02A800F8015DFEF74DFDFFF714
:109AB8004FFF04469DF807003D70FEF769FD2CB97D
:109AC8003470FFF773FF0320FFF75CFF204603B0F5
:109AD800F0BD0824FAE72C46F8E700BF356A0020F5
:109AE800346A0020054B1B7833B1054B1B780BB14A
:109AF800FFF7C8BFFFF78ABF08207047346A002005
:109B0800356A0020014B1878704700BF356A00207D
:109B180007B508496846FFF7D3F8019B13B903B0A6
:109B28005DF804FB58681A6890476846FFF7D2F852
:109B3800F3E700BFE8D70F00FFF7EABF60DF704721
:109B480069DF704761DF704730B5114DADF5017DB4
:109B58004FF4FA740DF1020103A8ADF80240FFF7C3
:109B6800F1FF70B9294601A8FFF7AAF8029B002B5C
:109B7800F0D003A81A685968904701A8FFF7AAF817
:109B8800F4E7052801D000F03EFA0DF5017D30BD5F
:109B980000D80F00024B1B780BB1FFF7D5BF7047F9
:109BA800376A002018B1034B0360002070470E206D
:109BB800704700BFB8570020F0B5074685B00D467E
:109BC80000295ED0304B0B600C22002101A803F065
:109BD8000DFD012606232A68ADF8083001A92020CA
:109BE8008DF804708DF80660FFF7AAFF0C2200219B
:109BF80001A803F0FBFC00242A688DF8056001A980
:109C080040208DF806408DF80740FFF799FF0C2299
:109C1800214601A803F0EAFCF7232A68ADF80630CC
:109C280001A923208DF80470FFF78AFF0C22214632
:109C380001A803F0DBFC2A688DF8046001A930460E
:109C4800FFF77EFF0C22214601A803F0CFFC4FF45A
:109C5800B0632A68019301A9A120FFF771FF0C22C4
:109C6800214601A803F0C2FC9DF804302A6833435A
:109C780001A9A0208DF80430FFF762FF204605B047
:109C8800F0BD0E20FBE700BFB857002008B5FFF76E
:109C980055FF10B9014B01221A7008BD376A002020
:109CA8004BDF70471FB50D4C01A8FFF7F9FF70B9DE
:109CB800214602A8FFF704F8039B002BF4D0019873
:109CC8001A685968904702A8FFF704F8F4E70528CE
:109CD80001D000F098F904B010BD00BF0CD80F00F7
:109CE800024AD2F80034002BFBD0704700E0014054
:109CF8000A4908B50223C1F80435BFF36F8FBFF3D3
:109D08004F8FC1F80805FFF7EBFF0023C1F80435B2
:109D1800BFF36F8FBFF34F8F08BD00BF00E0014056
:109D280070B50E4D16460122C5F80425BFF36F8F96
:109D3800BFF34F8F0024B44207D10023C5F8043580
:109D4800BFF36F8FBFF34F8F70BD51F8243040F8C9
:109D58002430FFF7C5FF0134EDE700BF00E0014004
:109D680028B139B1002348600B601846704748F2A3
:109D78001050704748F21350704730B1036848F2EA
:109D880040508B4208BF0020704748F2105070477F
:109D980028B148F21150914208BF0020704748F29C
:109DA8001050704770B506460C461D46FFF7D8FFA1
:109DB80040B9B37952B1AB420BD111462046FFF7F7
:109DC8003AFC00B170BD044B236070BD48F21050DE
:109DD80070BD48F2115070BD7052464D2DE9F043E8
:109DE80083B00D4602AF04461149D7F820802846B3
:109DF80016469946FFF7C1FF98B96B68796A5A7990
:109E080040465200FFF7C4FF58B976B10CB9ACB060
:109E180002ACCDF800804B46324629462046FFF773
:109E280019FC0437BD46BDE8F08348F21050F8E746
:109E38007052464D10B5044638B149B141600B68BF
:109E4800984738B9044B236010BD48F2015010BD43
:109E580048F2105010BD00BF6E524648F0B4134689
:109E6800044660B107680A4EB7420CD111B948F2EE
:109E7800105006E053B16368F0BC5B68184748F2BD
:109E88000150F0BC704748F20250FAE71846F8E76C
:109E98006E524648F0B40346154678B107680C4E32
:109EA800B7420FD111B948F2135009E05B682D6829
:109EB800DC68A54209D39B68F0BC184748F20150FA
:109EC800F0BC704748F20250FAE748F21450F7E73E
:109ED8006E5246482DE9F041069D079E04461746F6
:109EE8009846FFF7A7FF60B9424639462046FFF774
:109EF800B5FF30B9324629462046BDE8F041FFF7A4
:109F0800C9BFBDE8F0810000F8B50A4F0A4C0B4DF7
:109F1800E41B0121E40829700026A64203D102238C
:109F28002B700020F8BD57F8363098470028F9D133
:109F38000136F2E7BCD60F00C4D60F00386A0020FD
:109F480001390144884200D9704703780A7800F83B
:109F5800012B01F80139F5E7013A0244013982423F
:109F680000D2704711F8013F02F80139F7E770B5E0
:109F780016460D46FFF7F0FF3246A9193044BDE8F2
:109F88007040FFF7E9BF38B50D460446FFF7D8FF24
:109F980029466019BDE83840FFF7D2BFBFF34F8F9D
:109FA8000549064BCA6802F4E0621343CB60BFF36D
:109FB8004F8F00BFFDE700BF00ED00E00400FA0589
:109FC80008B507281BD8DFE800F004121A1A1A048B
:109FD8001A040120FFF784FC0020FFF749FC012048
:109FE800FFF746FC0220BDE80840FFF755BC0120FA
:109FF800FFF752FC0220BDE80840FFF739BC08BD56
:10A0080008B5FFF7CBFF08B5FFF7C8FF00221046D9
:10A0180010B54FF4805100F07DF9024608B1FFF702
:10A02800BDFF0848C0F57E2100F074F90028F6D17C
:10A03800054800F0CBF804460028F0D100F058F9A4
:10A04800204610BD00800F00C99F0F0038B1054B96
:10A058000360054B436001230372002070470E2004
:10A06800704700BF9BA00F0075A00F0069B10B7867
:10A07800022B0CD1022804D003280CBF1120082081
:10A08800704703230B70002070470E20704708208C
:10A09800704710B50C4679B10B78042B04D8DFE86B
:10A0A80003F00D05030D0D00112010BD01F026FC75
:10A0B80028B90223237010BD0E2010BD082010BD42
:10A0C80038B504468069124B124A10F8025CD21A5D
:10A0D8000C21B2FBF1F245B9206901FB02330C4AAD
:10A0E800934205D10123236038BD4FF0FF30F4E7D8
:10A0F8001168A9420AD1411C05D1956894E80F005E
:10A10800A847206038BD51688842F6D00C32E7E78E
:10A11800CCD60F00D8D60F001EF0040F0CBFEFF3FB
:10A128000880EFF30980FFF7CBBF00BF007800F08D
:10A138000100704741DF7047014B01221A707047D8
:10A148005C6E0020BFF34F8F0549064BCA6802F4C6
:10A15800E0621343CB60BFF34F8F00BFFDE700BF42
:10A1680000ED00E00400FA05024B034800221A70D3
:10A1780001F0ACBB5C6E00204DA10F00C31E10B5F2
:10A188000446042B09D8DFE803F00303080F0F0087
:10A1980009494FF4701000F0F5F9084B1B6853B1EA
:10A1A8002046BDE810401847054B064800221A70A3
:10A1B80001F08CFBF1E710BD71A10F00606E00206B
:10A1C8005C6E00204DA10F0000207047404B414AB3
:10A1D80010B518604FF0A0430020C3F8642701F0C1
:10A1E80001FB044630B900F099FA012830D003D3B6
:10A1F800022833D0032010BD4FF08043D3F8000469
:10A2080010F4803017D04FF48032C3F80024204671
:10A2180001F02CFC60B14FF0A043D3F810359B013E
:10A2280006D54FF08043D3F81C3513F0B10F42D058
:10A238004FF4701414E0D3F8202512F0A90F1DBFB5
:10A24800D3F8202502F05602C3F820250120DFE7C5
:10A25800214B22481C7001F039FBCBE74FF4A024B6
:10A2680000F0DAFA1E4A20211820FEF7B1F808B1EA
:10A27800FFF7C9FE4FF08043D3F81C2512F0B10F49
:10A288001EBFD3F81C2502F04E02C3F81C25FFF7A9
:10A298009BFF0028AED12046124900F073F91248FE
:10A2A80000F0E8FB0028A5D100F0DCFAFEF71AF967
:10A2B800FFF740FFF8E701F059FB00289AD1064B59
:10A2C80018700A4801F002FB00F012F892E700BF8C
:10A2D800606E00200C0003005C6E00204DA10F0092
:10A2E8003C6A002071A10F0085A10F0041A10F0059
:10A2F80008B5074B4FF0FF32C3F88020C3F8802120
:10A3080001F013F84FF48050BDE8084000F03EB863
:10A3180000E100E0F0B5C1F30B048CBBB0F57F2F72
:10A328002ED8184D184F2B68002A18BF062622462B
:10A3380008BF02262C46072B05D902B1236004204A
:10A34800F0BD0122F7E71D0105F1804202F5F03268
:10A358003D44C2F80008C2F80418C5F80868D2F8E5
:10A3680000E8704503F10103EBD1D2F804289142CB
:10A37800E7D1D5F808289642E3D123600020F0BD44
:10A388000720F0BD646E002000E0014030B50546AE
:10A398001B4889B00022C0F57F21FFF7BBFFEFF310
:10A3A800058200232C68696883F3148883F3108876
:10A3B80083F3118883F31388C2F308023AB984F34C
:10A3C80008884FF0FF339E46084709B030BD203C4F
:10A3D8000093019302930393049306914FF08073C3
:10A3E8004FF0FF352022694620460595079303F074
:10A3F800D3F884F30888AE466FF006031847E4E7FD
:10A4080000800F0037B56FF07F42154C057BD4F8FC
:10A4180004358A4228BF0A46891A13444A1E942AD8
:10A4280023F07F4305F5A8729BBF963B96314160A8
:10A43800416044F822300B4B4FF4F86043F00103BD
:10A448009847094BAA00134400221A601B6801931D
:10A45800019B4FF48033AB40C4F8043303B030BDE4
:10A468000040024060D80F0040410240194802787D
:10A4780084B0002A2BD14FF08043A021D3F81834A0
:10A48800DB035EBF144B01221A60144A00231360D9
:10A4980012680392039A124A136012680292029A8F
:10A4A800104A136012680192019A0F4A82F8241325
:10A4B8001021C2F8841151600C4A0D49C2F80835C0
:10A4C80001230B6002211360C2F80413037004B067
:10A4D800704700BF6C6E0020080000400041024039
:10A4E800404102404441024000E100E00040024097
:10A4F800084002401C4BF7B51A6842B11B490A686C
:10A5080001320A6000221A601B680093009B184CF5
:10A51800184E194D2368A3B10023236023680193C3
:10A52800A719019BBB00E8184FF48032017B8A40D1
:10A538001249C1F80823416800F5A06239B1FFF754
:10A5480061FF0F4B04349C42E4D103B0F0BDA2F587
:10A558009F63196809B1FFF755FF55F82730002B9D
:10A56800EFD09847EDE700BF04410240686E002035
:10A5780040410240C0BEFD3FCC5700200040024091
:10A588004841024070B50B4B1C68227B4FF4803366
:10A598009340094A0E46C2F80833054640B1FFF712
:10A5A80065FF266029462046BDE87040FFF72ABFB0
:10A5B80070BD00BFEC5700200040024070B5074B4B
:10A5C8001C6805460E46A060FFF750FF2660294626
:10A5D8002046BDE87040FFF715BF00BFF0570020C8
:10A5E800014B01221A7070476D6E002038B50F4B71
:10A5F800DA6A5D6A9C6CAC2A10D15B6B1C44ED1A5C
:10A608002A4621460A4802F0A7FF68B100F02AF955
:10A6180029462046BDE8384000F068BE002CEFD13E
:10A6280001F00EFA0446EBE738BD00BFA082002017
:10A6380000800F002DE9F74F80468946A9EB0804F2
:10A64800240B02F6FF76154600F0E6F8082C28BF22
:10A6580008242303DFF860B00193360B0DB92B46AD
:10A6680026E0B4422CBFB246A2464FF00002514643
:10A6780040462CBF2F46019F00F020FE0346B8B984
:10A68800FA1C22F003024946404600F009FE034640
:10A6980070B9DBF83030ED1BB844B9441F44CBF82F
:10A6A800307001F019F9A6EB0A0603460028D5D048
:10A6B800184603B0BDE8F08FA082002010B501F065
:10A6C800D1F9154A42F20403916CCC5803F1A34323
:10A6D80003F5471303F2D7539C4218D1136B526BFF
:10A6E800934216D018441944884204D10020BDE88A
:10A6F800104001F0F1B8D21A02F6FF7222F47F621C
:10A7080022F00F02FFF796FF0028EFD010BD0320BC
:10A7180010BD0020FAE700BFA082002070B5264CCB
:10A72800E36AA52B32D003D8012B0BD0002070BDD3
:10A73800AA2B2FD0AC2BF9D1FFF7C0FF40BBFFF7F6
:10A7480055FF25E0A56C666A01F064F9226B104498
:10A75800A91888422AD101F05DF900223146FDF797
:10A768002DFFA36A984201BF01232362E061A6611D
:10A778000024124801F042F9114B124800221A70C5
:10A7880001F0AAF880B944B9012070BDFFF796FF1F
:10A798000124EEE7FFF72AFFEAE7012001F066F956
:10A7A8000028F1D0022070BD032070BDB21AFFF757
:10A7B80041FF0028DCD1CEE7A0820020C48200201F
:10A7C8006D6E0020E9A50F000A4AD2F800347BB16B
:10A7D80009480023D2F80815D940C90748BF03F52E
:10A7E800C07103F1010348BF42F82100072BF1D1E2
:10A7F800704700BF000001403546526EFFF7E4BFC6
:10A80800044B00221A6082B01B680193019B02B0BE
:10A81800704700BF0001014038B50E4D2A78C2B913
:10A828000D4BD3F8002492B1D3F8044540F61553E4
:10A838009C42CCBFA4F548649624FFF7C5FF07499E
:10A848002046FFF7BBFE064B4FF480321A60012307
:10A858002B7038BD6E6E00200000014005A80F0067
:10A8680000E100E0034BD3F800340BB1FFF7ACBFB5
:10A87800704700BF00000140054B1B68082B01BF53
:10A88800044B1868B0FA80F0400918BF00207047E0
:10A89800300100103401001008B54FF08043002249
:10A8A800C3F80C21C3F81021C3F838254FF08052A3
:10A8B80003F54043D2F80414C3F82015D2F808145D
:10A8C800C3F82415D2F80C14C3F82815D2F81014BC
:10A8D800C3F82C15D2F81414C3F83015D2F818148C
:10A8E800C3F83415D2F81C14C3F84015D2F8201454
:10A8F800C3F84415D2F82414C3F84815D2F828141C
:10A90800C3F84C15D2F82C14C3F85015D2F83014EB
:10A91800C3F85415D2F83414C3F86015D2F83814B3
:10A92800C3F86415D2F83C14C3F86815D2F840147B
:10A93800C3F86C15D2F84424C3F87025FFF79CFFC0
:10A9480010B1384B384A1A60FFF796FF18B1374BE9
:10A95800FB22C3F81825FFF78FFF48B13449354B60
:10A968000A681B6822F00F0203F00F0313430B6001
:10A97800FFF782FF18B1304B4FF400721A604FF0A6
:10A988008043D3F80024D20744BF6FF00102C3F814
:10A9980000242A4AD2F8883043F47003C2F8883079
:10A9A800BFF34F8FBFF36F8F4FF01023D3F8002200
:10A9B800002A03DBD3F80432002B2FDA204B0122C4
:10A9C800C3F80425D3F80024002AFBD04FF0102246
:10A9D8001221C2F80012D3F80024002AFBD04FF04D
:10A9E80010231222C3F80422154B1A46D3F8001478
:10A9F8000029FBD00021C3F80415D2F80034002B3D
:10AA0800FBD0BFF34F8F0D490E4BCA6802F4E062CA
:10AA18001343CB60BFF34F8F00BFFDE70A4B0B4AD0
:10AA28001A6008BD8C5600404881030000F00040C1
:10AA3800E40E0040580200104096024000ED00E08D
:10AA480000E001400400FA05F45700200090D0030C
:10AA5800062810B5044602D1002000F0B7FF044BC9
:10AA68001B681BB12046BDE81040184710BD00BF49
:10AA7800706E002008B5074B18600020FFF7E8FF4C
:10AA8800054800F08BFF20B90348BDE8084000F0F6
:10AA980043BE08BD706E002059AA0F006CDF7047D6
:10AAA8006DDF704772DF704773DF704774DF704780
:10AAB80075DF704776DF70477ADF70477CDF704755
:10AAC8007DDF70477FDF704786DF70478FDF704715
:10AAD80090DF7047A8DF7047AADF7047ADDF704787
:10AAE800AEDF7047B0DF7047B1DF7047B5DF704742
:10AAF80062DF704766DF704713DF704710B586B0B6
:10AB08000446ADF806101022002102A802F06EFDDE
:10AB1800084B05949B89ADF8083001238DF80A305D
:10AB28000DF106030493044B02A91888FFF7D8FF18
:10AB380006B010BDDE7E0020FA570020014601480D
:10AB4800FDF76ABED8D60F0030B518228DB00021A7
:10AB58000DEB020002F04AFD28230124089310227D
:10AB68001623002102A8ADF806308DF818408DF89C
:10AB78002D4002F03BFD184B0293022206210925C5
:10AB88001A7099701A7103215922D9705A710DF1EE
:10AB98000601FE225819ADF80C505C709A71FFF747
:10ABA8008FFFB8B9BDF806201D721119D971BDF80B
:10ABB8000C301A44094BADF80C2002A906AA184615
:10ABC800FFF770FF30B91878FFF770FF2146187843
:10ABD800FFF76AFF0DB030BDF27E0020F857002065
:10ABE800F0B503881F2B8BB0044600F0C38028D82B
:10ABF800112B57D006D8012B00F0CD80102B43D055
:10AC08000BB0F0BD142B00F044811A2B35D0132B58
:10AC1800F6D10023A24C04930223ADF8103004AA05
:10AC280002AB42F6052120880593FFF757FF08B1CC
:10AC3800FFF7E9F900231A4685212088FFF742FF2C
:10AC480088E0512B00F0AD8010D8232B00F08A80CB
:10AC5800502B3BD0212BD3D1002304A980888DF819
:10AC680010308DF81130FFF731FF73E0552B59D0B4
:10AC7800562B00F08680522BC2D100231A46194663
:10AC8800A088FFF731FF65E0854B82881A80854AE6
:10AC980012681C460AB10120904783492088FFF7B3
:10ACA80007FFADE77E4B4FF6FF721A807F4B1B689C
:10ACB8005A0704D4FFF748FF08B1FFF7A4F9794B06
:10ACC8001B68002B9CD00220984799E7784EC288D1
:10ACD800B3889A4294D17748FDF77BFD0546002852
:10ACE8008ED0228A04F1120102F056FC18220021AB
:10ACF80004A802F07BFC08238DF810306E4B0693F5
:10AD08006E4B079304A8238A05960895ADF824305E
:10AD180000F0F8FC00283FF473AF29466548FDF7BA
:10AD28007BFD6DE7C188F6291AD8CB1E9B070DD08D
:10AD3800CB1F9BB2013B5A4202F0030203F003030C
:10AD480001F1FF3158BF5342C91A89B2544B1888D0
:10AD5800FFF7CCFE00283FF453AFFFF754F94FE755
:10AD6800F721F3E7002204A9808804920592FFF7EF
:10AD7800AFFEEFE74A4B00F108011888FFF798FE8D
:10AD8800E8E78379002B7FF43BAF454B1321188804
:10AD9800FFF790FEDEE7424B00211888FFF7AAFE76
:10ADA800D8E78579002D3FF42BAF022D7FF428AF2B
:10ADB8003F4E0289B3899A4237467FF421AF837B9D
:10ADC800012B7FF41DAF102200210DEB020002F0D1
:10ADD8000DFC01238DF81630238AADF81830638AEC
:10ADE800ADF81A3004F114030793002302938DF889
:10ADF8001050ADF808502A4D318A288801AB02AAB4
:10AE08000393FFF76BFE2E4660B91846FFF78EF9DD
:10AE180040B940F2FD1304A92888ADF81430FFF7B3
:10AE280061FEEDE6002304A93088ADF81430FFF781
:10AE380059FE014600287FF4E3AE182204A802F068
:10AE4800D5FB237D1C4A8DF81030022B05970692FE
:10AE580016D0062B0ED0012B0ED1194800F0B6FDE6
:10AE6800184B1A88184B1A80637D0893D4F816304B
:10AE7800099301E0637D089304A800F043FCBFE652
:10AE8800A27D637D43EA02230E4A13800E4A138093
:10AE9800F2E700231A4619468088FFF715FE59E79E
:10AEA800FA570020187F0020A6D90F00147F002031
:10AEB800DE7E0020D8D60F003DAF0F0045AB0F0057
:10AEC800C4D60F001C7F00201E7F002014490A688A
:10AED80038B512F0010321D0124B98421ED0124B04
:10AEE80018884FF6FF73984213D042F004020A60A4
:10AEF8001321FFF7DFFD90B90C4DC82445F001057B
:10AF08004FF47A40A847013CFAD1BDE83840FEF733
:10AF1800B9BD074B1878FFF7C9FDF6E7002038BD23
:10AF2800147F0020C4D60F00FA570020A0D90F00C4
:10AF3800F857002010B5044686B01122002101A858
:10AF480002F054FB2378082B0BD1374A3749138872
:10AF58000988013B9BB21380D9B1D3B9032311806F
:10AF68002370627823788DF805306021012A8DF8E6
:10AF780004108DF806200ED00B2A52D100F0ACF93F
:10AF88008DF80700002000F0A1F9042101A8FFF7BF
:10AF9800B5FD06B010BD062B1DD0082B01D0032B24
:10AFA8003FD16268A3688DF80720110A8DF8081050
:10AFB800110C120E8DF80A201A0A8DF80B308DF834
:10AFC8000C201A0C1B0E8DF809108DF80D208DF829
:10AFD8000E300B21DAE7E16862688DF80710080A7D
:10AFE8008DF80800080C090EA3688DF80A10110ADC
:10AFF8008DF80B208DF80C10110C120E8DF80E2008
:10B008001A0A8DF80F308DF810201A0C1B0E8DF8C7
:10B018000D108DF809008DF811208DF812300F21D0
:10B02800B4E70321B2E700BF1E7F00201C7F002089
:10B038002DE9F0434F4B95B04FF6FF7214A91A80D3
:10B0480080464FF65963012021F8483D42468DF865
:10B058000A00FFF73FFD0446002840F08780464B72
:10B0680004AA03F11006154618685968144603C463
:10B078000833B3422246F7D108F102012846FFF708
:10B0880037FD0446002871D101461C220DA802F0A4
:10B09800ADFA9DF83430ADF8044043F004038DF860
:10B0A80034300223ADF80C3098F802308DF80E30A9
:10B0B8004FF00109230A69F3030369F307138DF8B5
:10B0C8000530E3B243EA090369F342032146142237
:10B0D80008A88DF8063002F089FAF423ADF82C3070
:10B0E80001AD03AE08F1040308AA0DA9B8F80000E1
:10B0F80008960995FFF7F0FC27460446B0BB0146C1
:10B108001C220DA802F072FA9DF83430ADF8044004
:10B1180043F018038DF8343098F802308DF80E306B
:10B12800230A69F3030369F307138DF80530FBB2AB
:10B1380043EA090369F34203DBB243F010032146F3
:10B14800142208A88DF80630ADF80C9002F04EFADB
:10B158001723ADF82C3008AA08F10C030DA9B8F88C
:10B16800000008960995FFF7B7FC0446204615B07D
:10B17800BDE8F083FA57002080D90F0030B5354C70
:10B18800236813F0010585B05AD1334B1860334852
:10B19800FDF708FB029500F0BAF898BB3048FFF7B6
:10B1A800ABFC78BBFEF732FC60BB02A8FEF7FAFCEA
:10B1B80040BB02A90120FEF7FFFC18BB02A8FEF75E
:10B1C80065FDF8B900F0C2FB30B1264800F0B2FBCB
:10B1D800236843F0020323609DF80430012262F3E0
:10B1E800030362F3071302A88DF80430FFF758FC35
:10B1F80040B99DF8093002A801338DF80930FFF7EE
:10B208004DFCF8B105B030BD16498869043182B2E9
:10B2180001A8FFF753FC0028F4D11348FFF74CFCB2
:10B228000028EFD11148FFF703FF0028EAD1FFF704
:10B238008BFC0028E6D1236843F001032360E1E793
:10B248000020DFE723689B07DED4094802F002FAF2
:10B258000749DCE7147F0020187F0020D8D60F00AC
:10B2680000800F00746E0020A6D90F00DE7E00203B
:10B2780090D90F0043690BB1C068184770470000A8
:10B28800044B05490022904208BF19460348FDF7C0
:10B29800DCBA00BF3CD70F0068D70F00B8570020B2
:10B2A80007B5009313460A4601460348FDF7D1FA4D
:10B2B80003B05DF804FB00BFB857002013460A46E8
:10B2C80001460148FDF7CCBAB8570020014B187069
:10B2D8000B207047207F0020024B002218781A703C
:10B2E800704700BF207F002018DF704730B585B059
:10B2F800054610220C466846002102F077F9A4089A
:10B30800684601950294FFF7EFFF05B030BD1FB501
:10B3180010220021684602F069F90223684600936A
:10B32800FFF7E2FF05B05DF804FB4FF000534FF460
:10B3380080521A6000207047014B06201B6818478E
:10B348002C7F00200A2803D90B38C0B2FFF7BEBFF4
:10B358007047000010B5044686B00020FDF788FA53
:10B36800014630B1164A18212046FDF755F806B0B7
:10B3780010BD1822684602F039F904238DF8003010
:10B38800104B196D104B1B68994211D10F4B18685F
:10B3980000F056FD8DF80100FFF7D4FFA3688DF883
:10B3A8000100616868469847094800F095FADEE7A9
:10B3B80001238DF801306168A36868469847D6E78D
:10B3C8005DB30F00A0820020247F0020287F00208A
:10B3D80041B30F0070B5044686B0182200216846B4
:10B3E80002F004F923788DF8003001228DF801204D
:10B3F8000C2B00F28181DFE813F00D0079000F00BB
:10B40800790079007F017900700079006E001C00D6
:10B418002F0074008DF80420A36861686846984777
:10B428009DF80130012B00F05C819D4B05201B68C5
:10B4380056E14FF08053D3F800210192D3F804214C
:10B448000292D3F80C2192020492D3F810219202AE
:10B4580003921B690593DFE743F20403914D1868D3
:10B4680091492E6A227C884214BF01230223012EAF
:10B4780008BF013352B902238DF80430EB680293F8
:10B488008A4B0393C3F57E230493C5E7012A12D19F
:10B49800884210D14FF440531B78142B8ABF43F2D3
:10B4A800140300231B6802934FF48053039343F261
:10B4B80008031B68E8E79A4209D201238DF8043093
:10B4C800AB68029300F0CCFAAB690390DCE7FF238A
:10B4D8008DF80430A0E7237CFAE7238AADF804301E
:10B4E8009AE76F4B07201B68984795E7062B704A29
:10B4F80001D0012B01D1216911701178012904D0E3
:10B50800022957D0002313709AE0013B072B83D8F8
:10B5180001A252F823F000BF41B50F0021B40F007B
:10B52800B1B50F0081B50F0021B40F00ABB50F0006
:10B5380021B40F0059B50F00594B03201B689847D9
:10B54800606900F07BFBFFF7FDFE8DF8010063E703
:10B55800A18A206900F08EFBFFF7F4FE514B8DF8AD
:10B568000100DA6B1B6C0293E3680192002B3FF435
:10B5780053AF206998474FE74E494F4800F0A0FB6A
:10B58800FFF7E0FE01288DF801007FF445AF0020A9
:10B5980000F0A2F900283FF43FAF0A238DF80130EC
:10B5A8003AE74FF4807303933E4BDA6B1B6C0192BE
:10B5B800029331E7013B072B3FF62EAF01A252F869
:10B5C80023F000BFEDB50F0021B40F009FB60F00A8
:10B5D800C5B60F0021B40F00EFB60F0021B40F005D
:10B5E8004DB60F0000F066FB08B90823D6E762697C
:10B5F8000AB90323D2E7C2F30B0333B1294B2D4910
:10B608005B6D096813448B42F3D1B2F5805F01D9B1
:10B618000423C3E7234B2749586D096815188D4241
:10B62800E3D85A64DA6C9A6418651863224B1B686D
:10B63800002201211844FFF741FE00283FF4ECAE38
:10B648000523ABE700F036FB0028CED0154DA28AC3
:10B65800696D2B6D5B1A696C13448B42C9D8164B04
:10B668002E6B18682169E3683044FFF719FE08B1AA
:10B67800E3687EE7A18A2B6B0B442B632B6D0B448D
:10B688002B6505F148022069FCF798FF2B6DA8642B
:10B6980002900193C0E6034B9A6C02921B6DF8E787
:10B6A8002C7F0020A0820020DBE5B15100800F0034
:10B6B800FC570020247F0020287F00200F4B186DA6
:10B6C8005A6D596C821A8A428FD19A6C586500213A
:10B6D80020465964DA64FFF73DFE094B1B680420D5
:10B6E800984706B070BD054B9A6C1B6D01934FF4DB
:10B6F8008053029203938FE602234FE7A082002033
:10B708002C7F002083681BB1024A1821FCF784BEF5
:10B7180007207047DDB30F0038B50546C0B10120DA
:10B72800FFF7AEFD044648B900F060FA00F0C2FA2F
:10B7380030B9084B00201D60FFF7C8FD204638BD12
:10B748000549064800F0BCFA0128F2D00324F5E7C1
:10B758000724F3E72C7F0020247F0020287F002087
:10B768002DE9F04115464FF4DC72064688461F461F
:10B7780001F0F2FE20B905B1A8470020BDE8F0812C
:10B78800002201213046FFF799FD10B10320BDE8E2
:10B79800F0814FF4DC724146384601F0FDFE2B463D
:10B7A8004FF4DC7239463046FFF77AFD0028EDD1B8
:10B7B800E3E7000070B5084C054600225821201D1B
:10B7C800FCF7FCFE2A4620602146044B0448BDE8ED
:10B7D8007040FFF7C5BF00BFA0820020307F002067
:10B7E80000F00F002DE9F041FFF74AFD044618B1BB
:10B7F80003242046BDE8F0812A4D2B6801331FD071
:10B8080002465821281DFCF7D9FE2D682B1A5D42E7
:10B818005D41254ED6F80080D8F800300133374610
:10B8280027D00022582108F10400FCF7C7FED8F8F9
:10B83800003083421DD12DB94FF4DC72316827E006
:10B848000546E6E7386819495422043001F084FEB9
:10B858000546386816494FF480725C3001F07CFE6A
:10B868009DB990B94FF4DC720E49124801F094FE6C
:10B87800BFE7002DF6D10F4C4FF4DC722946204665
:10B8880001F0B4FE0123636005E039684FF4DC720F
:10B89800084801F081FE0020FFF78CFF04460028CD
:10B8A800A6D1A6E700F00F000058002004F00F0012
:10B8B8005CF00F00A082002002460248024B00689C
:10B8C800FFF74EBF00580020E88000200149FFF72D
:10B8D800F3BF00BF00F00F0038B505460020FFF7A2
:10B8E80069FF044618B903492846FFF7E5FF2046D3
:10B8F80038BD00BFA082002029DF704738B5044654
:10B9080090B10B4DD5F89C3101330FD1002218218D
:10B918000430FCF753FE21462060072205F5CE705F
:10B92800BDE83840FFF7E8BF0E2038BD082038BD15
:10B9380000F00F0008B528B11C22034901F02CFEC5
:10B94800002008BD0E2008BD9CF10F0010B5064C64
:10B95800002218212046FCF731FE54F8043C1B1A3B
:10B968005842584110BD00BFA0F10F0008B50A4B5E
:10B97800D3F85C21013203D1D3F89C31013309D0CB
:10B988004FF47F20FEF7B4F9572203494FF47F2084
:10B99800FEF7C6F9002008BDA0820020F8B5094EC0
:10B9A800094CA41B0746E4080025A54201D1002044
:10B9B800F8BD56F83530384698470028F8D1013593
:10B9C800F3E700BFC4D60F00CCD60F00F8B5094E78
:10B9D800094CA41B0746E4080025A54201D1002014
:10B9E800F8BD06EBC50338465B6898470028F7D1D1
:10B9F8000135F2E7C4D60F00CCD60F0008B50C22EB
:10BA0800002101F0F3FD024B00221A6308BD00BFBC
:10BA1800A082002043F204031A68084B9A4201BF2F
:10BA280043F20803186800F6FF7020F47F600CBF2B
:10BA380020F00F004FF48050704700BFDBE5B15194
:10BA480008B5FFF7E7FF054B9B69184400F6FF7040
:10BA580020F47F6020F00F0008BD00BFA082002006
:10BA6800FFF7D8BF4FF480507047000010B50B4C5B
:10BA7800236A012B0DD170B1E3696BB1FFF7CAFFDF
:10BA88000022A169FCF79AFDE3691B1A5842584144
:10BA980010BD002010BD184610BD00BFA0820020B8
:10BAA8002DE9F74F2D4CDFF8C4B001911F46236AEA
:10BAB8000093054616464FF0000943F2040A5FFA60
:10BAC80089F8B8F1010F22D0B8F1020F2CD0FFF796
:10BAD800B7FFD6B1009B013BD3F1000E4EEB030E2E
:10BAE8001F4B181AA84201D3019B23B3BEF1000FC4
:10BAF8001FD1B9F1020F04D009F10109B9F1030FFF
:10BB0800DDD1A8421AD2042024E0B646E8E7FFF7C0
:10BB180081FF3FB9DAF80030B3EB0B0E18BF4FF0D6
:10BB2800010EDDE7BE46DBE74FF0010E4FF4805013
:10BB3800D6E7A842E7D3B8F1000F02D00948FFF7CB
:10BB48005DFF00260123084826616361FFF756FF61
:10BB58006562304603B0BDE8F08F00BFA0820020C8
:10BB680000500F00B8820020C4820020DBE5B151EC
:10BB780030B50D490D4C8A6B85B068465C31FDF7D0
:10BB880033FA9DE80F0084E80F00094B094AE36087
:10BB980000231360084A09491360094A204605B082
:10BBA800BDE83040FDF7B8BCA08200209886002090
:10BBB800CDBB0F00F8840020F48400202CD90F009E
:10BBC8001C8500205B689A68054B9A4207D1426839
:10BBD8000449836801320A60034A013B13607047D5
:10BBE800B0D80F00F8840020F484002030B50E4D42
:10BBF8000E4CAB6B91B0ABB1FFF7BAFF90B16B6A6B
:10BC080083B101232370FEF77FF968462022084993
:10BC1800FEF7ADF940236A4606490748FEF7C2F821
:10BC280011B030BD0023EDE7A0820020308700204E
:10BC380018D80F00A8860020ACD70F0038B50546E5
:10BC480078B1B0F5807F0ED8084C094B002120222E
:10BC580004F138001970216301F0C8FCA5630120C4
:10BC680038BD032038BD042038BD00BFA0820020A5
:10BC78003087002070B50E4C0646E06BA36B421867
:10BC88009A420D4611D85C300A462044314601F0EC
:10BC980083FCE36B04F140022B4429463046E363FE
:10BCA800FCF78CFC2064012070BD032070BD00BF30
:10BCB800A0820020014B1878704700BF3087002011
:10BCC8002DE9F04F504CE26BA36B9A4287B00646C1
:10BCD8000F4640F08D804D4B1A7898464AB1FFF7D1
:10BCE800AFFE3060636A3B600124204607B0BDE8C0
:10BCF800F08FFFF73DFF002800F08480444B93F855
:10BD08009C401A4614B91B78002B7BD00023336063
:10BD18003B60002C52D03F4C92F83831A4F1990581
:10BD28004FF0200BCDF814B0002C65D0002B65D156
:10BD380005AB0193DFF800A1374B384ACDF800A0D6
:10BD48001B68126836493748FEF7C4F8002857D1EF
:10BD58002378402B54D1DFF8E49003931A46611CF2
:10BD6800484601F019FC59464846FEF70CF9039B72
:10BD78000193CDF80090059B2B492C485246FEF7BD
:10BD88002DF800283ED1281D00F018F90128044696
:10BD9800ABD195F8593088F8004093B995F86820E8
:10BDA8007AB1E86E30B30022386001231146FFF7FC
:10BDB80077FEC8B9FFF744FE306096E723461C4D6E
:10BDC800AEE713F0010003D095F85A0000B1E86D12
:10BDD8009B07E7D595F86030002BE3D0154B6A6ECA
:10BDE800C3F57E239A4201D904247EE71044D9E79B
:10BDF80008247AE70F2478E7132476E7162474E7F3
:10BE08000A2472E7052470E7A0820020308700200A
:10BE18001C85002055860020F4840020F88400202A
:10BE2800B8D70F0078840020A88600203487002027
:10BE38002085002000800F00FC840020F086002070
:10BE48002DE9F043524BDFF8709193F89C20514C48
:10BE580003F1A40508338DB0002A08BF1D464FF032
:10BE6800200806460F46424605F16F0104A8CDF8A2
:10BE78000C80FEF771F803AB0193CDF800903B46B8
:10BE8800324645494548FEF725F800287ED1424606
:10BE980004A9484601F060FB002877D195F85520A1
:10BEA800002A4BD0D30702F0020867D542F20403F8
:10BEB8003B4AF358934264D1AA6D02F5FF5102F64A
:10BEC800FF721F31C2F30B028A1A42F2080171583D
:10BED800914256D343F2040212689A4214BF0123D6
:10BEE80000231AD14FF440531B78142B81BF43F21F
:10BEF800140318682B4BB0FBF3F006F500531B78BE
:10BF0800142B89BF42F214030023F358254A88BF33
:10BF1800B3FBF2F3C31A18BF01234BB3B8F1000FF8
:10BF28002FD02148FFF76AFDAC23E362AB6D636352
:10BF3800B8F1000F07D06B68E36004E06B68226219
:10BF48000121E162A360A36CA3626762012520223C
:10BF58000021164801F04AFBF422FF21144801F0A1
:10BF680045FB002328462363A6640DB0BDE8F08393
:10BF7800B8F1000F14BFAC23A523D6E7AA23E362C8
:10BF8800D6E705250B48FFF739FDE0E71725F9E760
:10BF98001C850020A0820020B8D70F0078840020DC
:10BFA800DBE5B15140420F00B8820020D882002062
:10BFB800FC820020C48200205884002090F854306D
:10BFC80070B51BB190F85520032A37D90F2070BDE2
:10BFD80051F8046B2588AE424CD103782BB3012A63
:10BFE8004368264A1BD89268934234BF0023012332
:10BFF800002B14BF0120102070BD2AB9012BECD9E9
:10C008004369002B38D0E8E712F1FF3318BF01234A
:10C01800F7E713B14369002B2ED10378F1E7D26813
:10C02800934294BF00230123E2E7012A14BF0F20A3
:10C03800012070BD112070BD142070BD90F86D30C6
:10C04800032BF9D1037A002BC0D0C368342BF1D16C
:10C0580043F2040319680A4B9942037CD9D1002B97
:10C06800CBD041690029C8D000F1140101EB83034A
:10C0780043F20C049942ABD1122070BDA08200207B
:10C08800DBE5B15130B10268034B04489A4208BF5E
:10C098000020704702487047DD55AABB8208F000AF
:10C0A8007108F00038B50D460446B0B1A022002151
:10C0B800043000F045FD95B12946082204F16400DA
:10C0C80000F044FD082205F1200104F1840000F08D
:10C0D8003DFD044B2360002038BD034838BD0348AC
:10C0E80038BD00BFDD55AABB7108F0008308F00019
:10C0F8002DE9F74305460E4699461146FFF7C2FF5C
:10C108000446002840F08480002E00F08580002935
:10C1180000F08480B9F1200F40F0828005F14404DA
:10C12800082205F10408204600F010FD05F1240757
:10C1380008223146404600F009FD06F12001082298
:10C14800384600F003FD02A94FF4807041F8049DC1
:10C1580000F0A6FA002865D1334A4FF480731360C3
:10C16800012193600823314A00F04AFB0121084667
:10C1780005232F4A00F044FB0823424601211C20D6
:10C1880000F03EFB08233A460121032000F038FB6B
:10C19800224608230121022000F032FB0823254A09
:10C1A80001211A2000F02CFB0523234A01211B2022
:10C1B80000F026FB0823214A0121142000F020FB6F
:10C1C80008231F4A0121152000F01AFB082305F156
:10C1D80064020121162000F013FB082305F18402F4
:10C1E8000121172000F00CFB0823164A01210B201F
:10C1F80000F006FB00F060FB0446019800F0EEFA40
:10C20800114B002C18BF1C46A421284600F09AFCAC
:10C21800204603B0BDE8F0830C4CF9E70C4CF7E777
:10C228000C4CF5E7084CEFE790B00250F0D90F003E
:10C2380068DA0F00B0D90F0054DA0F0014DA0F00D3
:10C2480034DA0F00D0D90F008408F0007608F00027
:10C258008008F0008108F0002DE9F041069F0446AF
:10C2680015461E46FFF71EFF38B93B46324629469B
:10C278002046BDE8F041FFF73BBFBDE8F081000074
:10C288000C4BC2691A60826943F8042C426943F86E
:10C29800082C026943F80C2CC26843F8102C8268F9
:10C2A80043F8142C426843F8182C026843F81C2CF5
:10C2B800704700BF5CB602500C4B1B68C3610C4B47
:10C2C8001B6883610B4B1B6843610B4B1B68036145
:10C2D8000A4B1B68C3600A4B1B688360094B1B68C9
:10C2E8004360094B1B680360704700BF5CB602508F
:10C2F80058B6025054B6025050B602504CB60250CE
:10C3080048B6025044B6025040B6025030B10268F6
:10C31800034B04489A4208BF002070470248704700
:10C32800DD55AABB0202F0000002F00038B5044651
:10C3380068B1051D2846702100F004FC284620221B
:10C34800044900F0FBFB044B2360002038BD034880
:10C3580038BD00BF8CDA0F00DD55AABB0002F00023
:10C36800294B2DE9F04304460E4615460FCB85B000
:10C378006F468DE80F002DB94FF00009484605B00B
:10C38800BDE8F0832046FFF7C1FF81460028F5D1BC
:10C39800231D0193636AA3BB236F8BB1C3F14008CC
:10C3A800A84528BFA84604F1300031461844424643
:10C3B80000F0C4FB236F434446442367A5EB0805FC
:10C3C800226F402A06D104F13001384600F0CCFB38
:10C3D8000023236705F03F0835F03F0505D03146B7
:10C3E8002A46384600F0C0FB2E44B8F1000FC3D0EF
:10C3F8004246314604F1300000F0A0FBC4F87080DA
:10C40800BCE7DFF80890B9E77CDA0F000C02F0000F
:10C418002DE9FF41144B04460E460FCB8DE80F0063
:10C428002046FFF773FF8046B0B9CEB1636A251D79
:10C4380001953BB901236362226F04F1300168461C
:10C4480000F092FB2B46043E243453F8042B12BA16
:10C45800A34246F8042FF8D1404604B0BDE8F08165
:10C46800DFF80880F8E700BF7CDA0F000502F0006B
:10C47800084B1B681B0EF02B08D1074B1A68074B9B
:10C488009A4205D1064B0020186070470520704776
:10C498000620704728B9025024BA02500000E02054
:10C4A8000CBA025030B500220C4C49001346023831
:10C4B80040F6FC75904202F10102CABF2360256074
:10C4C8005B181E2A04F10404F4D1054A19441360C8
:10C4D800044B054A19609A6030BD00BF00B0025095
:10C4E80078B002507CB0025020F80F0030B51E4BD7
:10C4F80085B01A46196800910099CC07FAD500F161
:10C50800A05000F52C408000016813680193019B3E
:10C51800D807FAD5154B164C1868164D1F3020232E
:10C5280090FBF3F00138002810DA002301304001B5
:10C5380053B1A0F120014FF00042134204D1013859
:10C5480081424FEA5202F8D105B030BD1368039317
:10C55800039BDB07FAD5431823602B680293029BE1
:10C56800002BE3D10138DEE7B4B00250ACB0025082
:10C57800E4B00250DCB002507FB51C681CB901F071
:10C588001F041F2C27D1174C254626680196019EAB
:10C59800F607FAD500F1A05000F52C40800000689D
:10C5A8002C680394039CE407FAD50F4C00EB611048
:10C5B80020600E4801F01F04006802901F2C18BF6D
:10C5C800C94302980FBF106001F01F0100FA01F182
:10C5D80011600021196010684300C00F136004B097
:10C5E80070BD00BFB4B00250E4B00250DCB00250DD
:10C5F8000C4B18603F3020F03F00890140305860F4
:10C608009960D9601961596199611C3306481960AC
:10C6180082B002680192019AD207FAD5196002B075
:10C62800704700BF90B00250B4B0025038B5A0F1C6
:10C638002003B3F5426F05462CD88F2826D800F181
:10C64800470300F16604DB064FEA541400D00134B6
:10C6580064013F34A409013411B1A1421AD30C4634
:10C66800E3004FF48050B0FBF3F0202828BF2020CF
:10C6780002B11060084B01221A602146FFF712FF31
:10C6880028462146FFF7B4FF002038BD00F11F04FB
:10C698006409DDE7014838BD1CB802502221F000CA
:10C6A8000A460021FFF7C2BFF0B5464B89B01D46C8
:10C6B8001C680194019CE407FAD5434BDFF810C1CC
:10C6C800DFF810E113449B000A181B681E2A88BF74
:10C6D800C0F11E011F330A185B095A43B2F5806F77
:10C6E80088BF4FF480614FF0000484BFB1FBF3F1C1
:10C6F800091A00F1A05000F52C402746A14233DC6E
:10C708002A680492049AD207FAD5304A126829682E
:10C7180005910599CF07FAD52D482E4C02600022C5
:10C7280016469A4202F1010140D12A4C134621F0E3
:10C73800010100268B423CD32B680693069BDE073B
:10C74800FAD5254B1B682C680794079CE407FAD593
:10C75800036000231F481C469A422DD11D4A002021
:10C768008B422CD309B0F0BD2A680292029AD207F4
:10C77800FAD50219920012682E680396039EF607EE
:10C78800FAD5CCF8002000229A4202F1010206D123
:10C798001E4622F00102964204D30134AEE7CEF8D9
:10C7A8000070F1E7CEF800700136F4E726600A461B
:10C7B800B7E726600133BDE704600133CCE71060BA
:10C7C8000133CDE7B4B0025024AC00147CB0025061
:10C7D800D4B00250D8B0025078B0025008B540B179
:10C7E800202801464FF0070228BF20210020FFF72C
:10C7F8005BFF024B00221A6008BD00BF1CB8025044
:10C80800F0B5294D85B02C462E680096009EF60797
:10C81800FAD500F1A05000F52C408000056820688A
:10C8280001900198C707FAD52048214F056002EB0F
:10C838008306B24229D15A1C1D4E22F0010200275C
:10C84800934227D323680293029BDE07FAD5194B3C
:10C858000B449B001B681F335B099A4213D2216863
:10C8680003910399C907FAD5154400219B1A104A68
:10C8780005600846994210D35A1C0D4922F001025E
:10C88800002093420CD305B0F0BD52F804EBC7F872
:10C8980000E0CEE737600133D2E710600131E9E705
:10C8A80008600133EDE700BFB4B00250D4B00250C5
:10C8B800D8B0025024AC00142DE9F041814B1D681A
:10C8C80098682033A0B01E461A680192019AD707CB
:10C8D800FAD57D4B7D4A1A6032680292029AD407D3
:10C8E800FAD57B4A1A607B4A14461168039103996A
:10C8F800C907FAD5784A1168C1F340213768049707
:10C90800049FFF07FAD5754F1F6027680597059F95
:10C91800FF07FAD51768002900F0CF80B90540F164
:10C92800CC80316806910699CF07FAD56C49196011
:10C93800216807910799C907FAD51168C1F3402101
:10C9480037680897089FFF07FAD5664F1F60276862
:10C958000997099FFF07FAD51268002900F0AF80F0
:10C96800910540F1AC8032680A920A9AD207FAD54A
:10C97800564A1A6032680B920B9AD707FAD55A4A68
:10C988001A6031680C910C99CC07FAD5574919608F
:10C9980031680D910D99C907FAD555491960316863
:10C9A8000E910E99CF07FAD55249196031680F9147
:10C9B8000F99CC07FAD550491960504B1E46196893
:10C9C80010911099C907FAD53F4C4D4B2360336835
:10C9D8001193119BDB07FAD54A4B236033681293F6
:10C9E800129BDF07FAD5484B23603A4B98461968E3
:10C9F80013911399C907FAD5324F386033681493E5
:10CA0800149BDB07FAD5226033681593159BD8076A
:10CA1800FAD53E4B236033681693169BD907FAD58F
:10CA28003B4B236033681793179BDA07FAD5394BCA
:10CA3800236033681893189BDB07FAD5364B2360BD
:10CA480033681993199BD807FAD5344B2360336898
:10CA58001A931A9BD907FAD5314B236033681B9375
:10CA68001B9BDA07FAD52F4B236000F037FC08BB75
:10CA7800D8F800301C931C9BDB07F9D53D60336860
:10CA88001D931D9BD907FAD5274B236033681E9346
:10CA98001E9BDA07FAD5254B2360D8F800301F9380
:10CAA8001F9BDB07F9D50C4B1B6813F4805F204BE9
:10CAB80008BF184620B0BDE8F0811E48FAE71E48B6
:10CAC800F8E700BF90B0025080B002500010025149
:10CAD800C01F7229B4B0025088B00250C0CF0129DB
:10CAE800C01F0E29C03F002940010249003184A817
:10CAF80000001649400108A180440888B0B00250DF
:10CB0800C044708880077A41C0077E4100006A49A6
:10CB18008006164940006E4900020021008220214B
:10CB2800408220218082242140A161A100C8615156
:10CB38000308F1000108F1000208F10000F02CBD23
:10CB480000F054BD0A46002100F050BD01EB8202FE
:10CB580004388A4201D10020704752F8043D1BBABC
:10CB680040F8043FF5E700002DE9F74F314B4468E2
:10CB78008046924699461A68002AFCD12E4B9B465D
:10CB88001A68002AFCD14FF0FF30019100F098FCA0
:10CB9800802000F09BFC294D294A2A4F2A4E012368
:10CBA80007202B60A2F59E72C2F83C011360636AED
:10CBB8003B60A36A3360D8F8003042F8043CD8F8E8
:10CBC8000830204698470199D9F80030002BFBD14E
:10CBD800BAF1000F20D11D4B04221A60D9F8003099
:10CBE800002BFBD1DBF800A0BAF1000FFAD1D8F87E
:10CBF8000C30204698473B6863623368A362144B45
:10CC0800C3F800A0C3F844A1D9F80030002BFBD129
:10CC18002B6003B0BDE8F08F236A012B04BF0C4AD8
:10CC280013600C4B40201960C3F804A000F054FCBA
:10CC3800D4E700BF10B9025020BC025018B8025007
:10CC480000B90250CCB70250D0B70250C8B7025052
:10CC580084B6025028BC025010B5544B98B01946FF
:10CC68001A680192019AD207FAD5514B514A1A60B3
:10CC78000A680292029AD407FAD54F4A1A600A68DB
:10CC88000392039AD007FAD54C4818600A680492B0
:10CC9800049AD207FAD54A4A1A600A680592059A90
:10CCA800D407FAD5474A1A600A680692069AD20744
:10CCB800FAD5454A1A600A680792079AD407FAD53E
:10CCC800424A1A600A680892089AD207FAD5404A76
:10CCD8001A600A680992099AD407FAD53D4A1A6077
:10CCE8000A680A920A9AD207FAD53B4A1A600A6871
:10CCF8000B920B9AD407FAD5384A1A600A680C9234
:10CD08000C9AD207FAD5364A1A600A680D920D9A1B
:10CD1800D407FAD5334A1A600A680E920E9AD207D7
:10CD2800FAD5314A1A600A680F920F9AD407FAD5D1
:10CD38002E4A1A600A681092109AD207FAD52C4A1D
:10CD48001A601A4B19461C681194119CE407FAD50D
:10CD5800174B1860086812901298C407FAD51A6021
:10CD68000A681392139AD007FAD5124A1A600A6809
:10CD78001492149AD207FAD51E4A1A600A681592B4
:10CD8800159AD407FAD51C4A1A600A681692169A98
:10CD9800D007FAD5194A1A600A681792179AD20763
:10CDA800FAD5174A1A6018B010BD00BFB0B00250CB
:10CDB80080B0025000936521000431904096659040
:10CDC8000083612100C3302100C364900081619019
:10CDD80000461021008111210041442100C320296F
:10CDE8000C4610C80086312100C3602140C12829A3
:10CDF800409665210013319040962529594614C85C
:10CE08004004324910B5494B94B019461A6800924B
:10CE1800009AD207FAD5464B464A1A600A68019228
:10CE2800019AD407FAD5444A1A600A680292029A0B
:10CE3800D007FAD5414818600A680392039AD207C6
:10CE4800FAD53F4A1A600A680492049AD407FAD5B8
:10CE58003C4A1A600A680592059AD207FAD53A4AF6
:10CE68001A600A680692069AD407FAD5374A1A60F1
:10CE78000A680792079AD207FAD5354A1A600A68EB
:10CE88000892089AD407FAD5324A1A600A680992B1
:10CE9800099AD207FAD5304A1A600A680A920A9A99
:10CEA800D407FAD52D4A1A600A680B920B9AD20752
:10CEB800FAD52B4A1A600A680C920C9AD407FAD54C
:10CEC800284A1A600A680D920D9AD207FAD5264A9E
:10CED8001A600A680E920E9AD407FAD5234A1A6085
:10CEE8000A680F920F9AD207FAD5214A1A600F4B97
:10CEF80019461C681094109CE407FAD50C4B18606E
:10CF0800086811901198C407FAD51A600A68129235
:10CF1800129AD007FAD5174A1A600A681392139A18
:10CF2800D207FAD5144A1A6014B010BDB0B0025036
:10CF380080B0025080906521000409904096659069
:10CF48008080612180200821802064900081619088
:10CF58000046102100811121004144218020202910
:10CF6800024610C800860921802060214021282916
:10CF78004096652140962529594614C810B5504B4E
:10CF880096B01C461A680192019AD207FAD54D4B01
:10CF98004D4A1A6022680292029AD207FAD54B4A81
:10CFA8001A604B4A42EA804022680392039AD207E9
:10CFB800FAD5186022680492049AD007FAD5454A2F
:10CFC8001A60A2F5800242EA814122680592059A18
:10CFD800D207FAD5196022680692069AD007FAD5C0
:10CFE8003D4A1A6022680792079AD107FAD53B4A48
:10CFF8001A6022680892089AD207FAD5384A1A6045
:10D0080022680992099AD007FAD5364A1A60226826
:10D018000A920A9AD107FAD5334A1A6022680B9203
:10D028000B9AD207FAD5314A1A6022680C920C9AE8
:10D03800D007FAD52E4A1A6022680D920D9AD107A8
:10D04800FAD52C4A1A6022680E920E9AD207FAD59F
:10D05800294A1A6022680F920F9AD007FAD5274AF0
:10D068001A60216810911099C907FAD51A60144BF3
:10D078001A46196811911199C807FAD5114B204918
:10D088001960116812911299C907FAD51D491960DA
:10D09800116813911399CC07FAD50B4919601168D7
:10D0A80014911499C807FAD5174919601168159190
:10D0B8001599C907FAD5154A1A6016B010BD00BFF0
:10D0C800B0B0025080B00250400441900086292937
:10D0D800D81001C8401441904014212940146521FA
:10D0E8000034409000310C90C0400C90C030202992
:10D0F80040960D9000416090031645C800861121A6
:10D1080000416021594644C84014459040142D9070
:10D1180070B5264888B0054604680094009CE60768
:10D12800FAD52348234C0460234C44EA83432C68F3
:10D138000194019CE407FAD50360930143EA824213
:10D1480042F0104444F4C0442B680293029BDE076B
:10D15800FAD504602B680393039BDB07FAD5174BBA
:10D1680003608B0143EA814141F0104343F4C0431B
:10D178002E680496049EF607FAD503602B6805937B
:10D18800059BDE07FAD5046041F058412B680693E9
:10D19800069BDC07FAD5016042F058422B680793DA
:10D1A800079BDB07FAD5026008B070BDB0B002502B
:10D1B80080B00250C02102298071009880611890C7
:10D1C80000B5374B8FB019461A680092009AD207FB
:10D1D800FAD5344B344A1A600A680192019AD0078A
:10D1E800FAD5324A1A600A680292029AD207FAD528
:10D1F8002F4A1A600A680392039AD007FAD52D4A73
:10D208001A600A680492049AD207FAD52A4A1A6060
:10D218000A680592059AD007FAD5284A1A600A685A
:10D228000692069AD207FAD5254A1A600A68079222
:10D23800079AD007FAD5234A1A600A680892089A0A
:10D24800D207FAD5204A1A600A680992099AD007C3
:10D25800FAD51E4A1A600A680A920A9AD207FAD5BB
:10D268001B4A1A6008680B900B98C007FAD51A6019
:10D278000A680C920C9AD007FAD5164A1A600A68FE
:10D288000D920D9AD207FAD5134A1A600E210D2372
:10D298000F220020FFF73CFF0FB05DF804FB00BF32
:10D2A800B0B0025080B00250804301294063392158
:10D2B800807001298020542100D13490C0403490DE
:10D2C800C0302029C0530D9000413890832308C8EE
:10D2D80080E3102100413821CF4308C82DE9F041EF
:10D2E80092B0012303930493624B1D461A6805927A
:10D2F800059AD207FAD5604C604B2360604B1946FB
:10D308001A680692069AD707FAD55E4B1A68D604A9
:10D3180000F1A8802A680792079AD007FAD55A4AD6
:10D3280022600A680892089AD207FAD51E68C6F3DE
:10D338000036002E40F098801220FFF7D7F80746F5
:10D348001320FFF7D3F887428CBF12201320FFF772
:10D35800CDF8471EFFF734FF03AB01AA3946122068
:10D36800FFF70AF904AB804602AA39461320FFF7F3
:10D3780003F900EB4800022832D003283ED00128E8
:10D3880074D12B680993099BDB07FAD53F4B2360BF
:10D398002B680A930A9BD807FAD53D4B23602B6864
:10D3A8000F930F9BD907FAD53A4B23602B6810933C
:10D3B800109BDA07FAD5384B23602B681193119B21
:10D3C800DB07FAD5354B2360013F25D510231922F9
:10D3D80018210020FFF79CFE304612B0BDE8F0810E
:10D3E8002B680B930B9BD907FAD52D4B23602B6821
:10D3F8000C930C9BDA07FAD52A4BCFE72B680D93D1
:10D408000D9BDB07FAD5284B23602B680E930E9BE8
:10D41800D807FAD5254BC1E703AB01AA3946122034
:10D42800FFF7AAF804AB044602AA39461320FFF70F
:10D43800A3F810EB440402D1FFF70EFCC4E7FFF792
:10D44800E1FC022C08D0032C09D0012C10D11721A3
:10D458001620FFF793FDB7E715211420F9E70F21F0
:10D468000E20F6E7124EB7E7124EB5E7124EB3E7B5
:10D47800124EB1E7B0B0025080B0025000084A51D5
:10D48800B4B0025088B0025000084E5100065A4904
:10D4980040065E49000442410014424940042E49B6
:10D4A800000652494006564900063A4940063E4998
:10D4B8000608F1000708F1000408F1000508F1006A
:10D4C800014B1860704700BF08BA0250014B186042
:10D4D800704700BF04BA0250094BC2431A60043BAC
:10D4E80082B01B680193074B019A104204D0064A88
:10D4F8001060186802B0704720BF1A680192F3E7FD
:10D5080004BA0250D887002008BA0250054B4FF0E1
:10D51800FF321A6053F8042C034B1A601A68034B45
:10D528001A60704704BA0250D887002008BA02501F
:10D53800B2F120030AD5C2F1200301FA02F120FA60
:10D5480003F341EA030100FA02F0704700FA03F11D
:10D558004FF00000704700BFE2B170B4561E15D0FE
:10D5680002780B789A4213D1431C013106441846BD
:10D578000A46B34205D00133013105781478A54233
:10D58800F5D000781378C01A70BC70470A46F8E7DF
:10D598000A46F6E700207047844640EA010313F084
:10D5A800030F18D18446202A0BD32DE9F007B1E8E0
:10D5B800F807A0E8F807A2F12002202AF7D2BDE870
:10D5C800F007042A07D351F8043B40F8043BA2F1C2
:10D5D8000402042AF7D2002A05D011F8013B00F80A
:10D5E800013B013AF9D16046704700BF8446002AE2
:10D5F8002DD010F0030F04D000F8011B013A26D0FB
:10D60800F7E7C9B241EA012141EA0141202A12D3D0
:10D61800A2F120022DE9F0030B460C460D460E46FA
:10D628000F4688468946A0E8FA03203AFBD2BDE8AF
:10D63800F00320320BD0042A05D340F8041B043A27
:10D6480005D0042AF9D200F8011B013AFBD1604643
:10D65800704700BF00F1010110F0030F11D010F85E
:10D66800012B002A23D010F0030F0AD010F8012B49
:10D67800002A1CD010F0030F03D010F8012B002A49
:10D6880015D02DE970004FF001324FF0803350F87B
:10D69800044BA4EB020525EA04051D4000D1F6E77A
:10D6A800A0F1040070BC10F8012B002AFBD1A0EBFC
:04D6B80001007047B6
:08D6BC000D980F00FD970F000F
:08D6C40085B10F00D5AE0F0087
:0CD6CC00000000000300000055A00F004B
:10D6D800906E0020CC7E0020DD7E0020986E002019
:04D6E800F40000004A
:08D6EC00E9AB0F000000000093
:10D6F4009D9B0F0000000000AD9C0F000000000087
:08D704002D8A0F000000000057
:08D70C00ED8B0F00000000008E
:08D71400498B0F00000000002A
:10D71C0000000000000000007DB20F0000100000AF
:04D72C0000001000E9
:10D73000001000000400000001000000C1880F007C
:10D74000E5880F00F5880F0065890F0005890F0037
:10D75000CD880F00D1880F00D5880F000010000081
:10D760000400000001000000718A0F00518A0F00C0
:10D77000418A0F00798C0F002D8C0F00158A0F0045
:10D78000198A0F001D8A0F00C3900F0067900F00C9
:10D79000A7950F0019960F0039960F00B18F0F0053
:10D7A000758F0F003F950F0000000000480000003B
:10D7B000002040000000000015970F0085970F0023
:10D7C00025970F002000000000000000000000006E
:10D7D0000B0C18190D0E0F100100000704D70F00D5
:10D7E0000CD70F0008000000F4D60F0004D70F007C
:10D7F000080000000CD70F0014D70F00080000002D
:10D80000ECD60F00F4D60F000800000014D70F006C
:10D810001CD70F00080000003BBDE10E31C9B75313
:10D820009CCFFE61694668E5E005FB99EC40026625
:10D83000361DD35849DBC82C2C97730504B9121C2C
:10D840009826004C7E98A4C18D0522C93D8FF5CA4B
:10D850009C0C92E00023383400000000000000001F
:10D860000338FDD870470000011101FF01000000DE
:10D8700000000000021702FE94000000B0D80F0064
:10D880000000000000000000000000000101000096
:10D89000010000000000000002050000210000005F
:10D8A0000000000000000000000000000000000078
:10D8B000011104FC0400000000000000021104FC3F
:10D8C0000400000000000000032104FC041000001C
:10D8D00000000000041101FF010000000000000032
:10D8E000051102FE0400000000000000061104FC07
:10D8F0000400000000000000071104FC0400000008
:10D9000000000000081701FF220000008CD80F0063
:10D91000091001FF0100000028D90F0000000000DD
:10D92000000000000000000000000000011704FCDF
:10D930009800000068D80F00021704FCDC0000000B
:10D9400050D90F000000000000000000000000009F
:10D95000010700009800000068D80F0002010000D5
:10D96000010000000000000003050000410000006D
:10D9700000000000000000000000000000000000A7
:10D9800050EADA308883B89F604F15F30000C98EE3
:10D99000444655334231353200000000000000009B
:10D9A0000338FDD870470C000C000000580200003E
:10D9B000FFFFFFFFFFFFFFFFFFFFFFFF0000000073
:10D9C000000000000000000001000000FFFFFFFF5A
:10D9D000FCFFFFFFFFFFFFFFFFFFFFFF0000000056
:10D9E000000000000000000001000000FFFFFFFF3A
:10D9F000512563FCC2CAB9F3849E17A7ADFAE6BCF1
:10DA0000FFFFFFFFFFFFFFFF00000000FFFFFFFF22
:10DA10000000000096C298D84539A1F4A033EB2D40
:10DA2000817D0377F240A463E5E6BCF847422CE130
:10DA3000F2D1176BF551BF376840B6CBCE5E316B74
:10DA40005733CE2B169E0F7C4AEBE78E9B7F1AFE38
:10DA5000E242E34FFFFFFFFF7F0000008000000075
:10DA60000000000000000000FFFFFFFF7F0000003B
:10DA70008000000000000000000000000200000024
:10DA80000000000089C20F00C1C20F0067E6096AEA
:10DA900085AE67BB72F36E3C3AF54FA57F520E51CF
:0CDAA0008C68059BABD9831F19CDE05B9F
:10DAAC00000000000000000000000000000000006A
:10DABC000000000000000000000000000100000059
:10DACC00CC570020DC5700200090D003FF00FFFF54
:08DADC000100000000E00F0052
:020000020000FC
:020000041000EA
:0410140000800F0049
:0410180000E00F00E5
:04000003F00083790D
:00000001FF
