:020000040007F3
:108000001854002059850700618507006385070023
:108010006585070067850700698507000000000087
:1080200000000000000000000000000015840700B0
:108030006D850700000000006F850700718507004F
:108040007385070073850700738507007385070034
:108050007385070073850700738507007385070024
:108060007385070073850700738507007385070014
:108070007385070073850700738507007385070004
:1080800073850700C58607007385070073850700A1
:10809000E986070073850700ED86070073850700F2
:1080A00073850700738507007385070073850700D4
:1080B00073850700738507000000000000000000C2
:1080C00073850700738507007385070073850700B4
:1080D00073850700738507007385070000000000A3
:1080E0000000000000000000000000000000000090
:1080F0000000000000000000000000000000000080
:10810000000000000000000000000000000000006F
:10811000000000000000000000000000000000005F
:10840000DFF80CD000F0ECF800480047D9AA0700CC
:10841000185400206FF00200704502D1EFF309817B
:1084200001E0EFF30881886902380078004A1047BC
:1084300005860700401E00BF00BF00BF00BF00BF91
:1084400000BF00BF00BF00BF00BF00BF00BF00BF34
:1084500000BF00BF00BF00BF00BF00BF00BF00BF24
:1084600000BF00BF00BF00BF00BF00BF00BF00BF14
:1084700000BF00BF00BF00BF00BF00BF00BF00BF04
:1084800000BF00BF00BF00BF00BF00BF00BF00BFF4
:1084900000BF00BF00BF00BF00BF00BF00BF00BFE4
:1084A00000BF00BF00BFC5D170470000401E00BF25
:1084B00000BF00BF00BF00BF00BF00BF00BF00BFC4
:1084C00000BF00BF00BF00BF00BF00BF00BF00BFB4
:1084D00000BF00BF00BF00BF00BF00BF00BF00BFA4
:1084E00000BF00BF00BF00BF00BF00BF00BF00BF94
:1084F00000BF00BF00BF00BF00BF00BF00BF00BF84
:1085000000BF00BF00BF00BF00BF00BF00BF00BF73
:1085100000BF00BF00BF00BF00BF00BF00BFC5D18C
:1085200070470000056885F308884068FF2464B23E
:10853000EFF30585002D01D1A646004725460646E6
:1085400021273FBAF0B40024002500260027F0B40C
:10855000F92040B20047000006488047064800471F
:10856000FEE7FEE7FEE7FEE7FEE7FEE7FEE7FEE7E3
:10857000FEE7FEE7118707000184070040EA0103D8
:108580009B0703D009E008C9121F08C0042AFAD2C9
:1085900003E011F8013B00F8013B521EF9D270478D
:1085A000D2B201E000F8012B491EFBD27047002235
:1085B000F6E710B513460A4604461946FFF7F0FFE2
:1085C000204610BD30B504460020034600E05B1C89
:1085D000934203D2E05CCD5C401BF8D030BD00007C
:1085E000064C074D06E0E06840F0010394E8070000
:1085F00098471034AC42F6D3FFF706FF90B9070056
:10860000B0B9070010B50C4610B10120086010BDCC
:10861000216891B11148421A814213D03C2A0ED2EE
:1086200001223C3011F13C0111F8013900F8013907
:108630001346521C3C2BF7D904E00E200BE03C22E1
:10864000FFF79CFF00223C21044801F05BFA03493C
:10865000891E08800020206010BD000082FF0020DD
:1086600000F01F02012191404009800000F1E0204C
:10867000C0F88012704700F01F02012191404009AC
:10868000800000F1E020C0F80011704700F01F02E8
:10869000012191404009800000F1E020C0F8001263
:1086A00070474907090E002806DA00F00F0000F1B4
:1086B000E02080F8141D704700F1E02080F80014DD
:1086C0007047000007480021C0F84011C0F844116D
:1086D000C0F84811C0F84C11C0F80011C0F80411DE
:1086E00002F0E4BF0010014002F07CBF074810B563
:1086F000406830B18047002807D0BDE8104000F046
:1087000047BBBDE8104002F0ADB810BDB42C00204E
:1087100070B58D480023021D0178101D0124062923
:1087200007D115782D0704D10578C5F30315032D5E
:1087300002D0062904D00FE0854E844D75670EE007
:1087400015782D0708D10578C5F30315032D06D03C
:10875000042D04D0052D02D0062909D010E04FF0D9
:108760008055D5F844527B4EC5F34235356002E062
:1087700015782D0704D10578C5F30315032D02D014
:10878000062906D011E0744D2E6826F080762E6002
:108790000EE015782D0708D10578C5F30315032DD4
:1087A00006D0042D04D0052D02D006290AD011E0F0
:1087B0004FF08045C5F80C31C5F81031654D2D1FBF
:1087C0002B6002E015782D0704D10578C5F3031559
:1087D000032D02D0062905D00CE05E4A0321643245
:1087E00011600AE015782D0704D10578C5F303154B
:1087F000032D02D006290DD06AE0584A05211160E8
:10880000564978310C60554908310B603F21121DE3
:10881000116002E0117809075AD10078C0F3031003
:10882000052855D14E4800684E4908604C48001D47
:108830000068091D08604A4808300068091D086082
:1088400047480C300068091D086045481030006832
:10885000091D0860424814300068091D086040483E
:10886000183000683F49203108603D481C300068DE
:10887000091D08603A4820300068091D0860384822
:1088800024300068091D0860354828300068091D3B
:10889000086033482C300068091D086030483030CB
:1088A00000683049403108602D4834300068091DA7
:1088B00008602B4838300068091D086028483C30A3
:1088C0000068091D0860264840300068091D0860DE
:1088D00021487438016841F470010160BFF34F8F83
:1088E000BFF36F8F4FF01021D1F80002002803DB97
:1088F000D1F80402002822DA1B4A14601B480468DD
:10890000002CFCD01524C1F800420568002DFCD0D5
:10891000C1F8044201680029FCD0136001680029F5
:10892000FCD0BFF34F8F0C48F0380168104A01F4B7
:10893000E06111430160BFF34F8F00BFFDE70E49B7
:108940000C48086070BD0000E00F00F00DF0ADBAFB
:1089500000C007403C050040FCED00E01056004020
:108960000404001020C5004004E5014000E401407B
:108970000400FA050090D003C82C002002E008C8CB
:10898000121F08C1002AFAD170477047002001E089
:1089900001C1121F002AFBD170472DE9FC5F0025A1
:1089A000168807461580406B14468946A8464FF046
:1089B0000C0A11234FF0020B98B101784846032EA0
:1089C00048D380F800B02288521C92B2228083548F
:1089D0002288521C92B2228009F802102088401C82
:1089E00020803A6BDAB12088494600F11205B54281
:1089F00030D80B5420881023401C80B220800B54A8
:108A00002088401C20800F202388155C401ECD54F8
:108A1000238840B25B1C23800028F5DA454697F88E
:108A20002E0030B133462246494601F067FF05006B
:108A300011D197F82D0030B132462146484600F05A
:108A40001DFC050007D1B87820B32088C846001D5A
:108A5000B04202D95046BDE8FC9F684679DF002845
:108A6000F9D12188032008F8010020881921401C31
:108A700080B2208008F800102088401C80B220803E
:108A800000EB0801BDF8000002F052FE014620880C
:108A900008442080F878B8B1228897F90310D31CD5
:108AA0004846B342D6D800F802B022880123521CAF
:108AB00092B2228083542288521C92B2228009F8FA
:108AC00002102088401C20807868B8B1218890F975
:108AD0000020CB1C4846B342BCD800F801B0218826
:108AE0000A23491C89B2218043542188491C89B238
:108AF000218009F801202088401C2080388950B14D
:108B0000CDE900464B460622022107F1080002F09B
:108B100080FE05009FD1388A50B1CDE900464B4612
:108B20000722032107F1100002F073FE050092D125
:108B3000388B50B1CDE900464B461522142107F180
:108B4000180002F066FE050085D1386A30B1334660
:108B50002246494600F062FF0500DBD1786A30B159
:108B600033462246494602F055F80500D2D197F81F
:108B70002C0038B1334622464946384602F04CFCB8
:108B80000500C7D1387838B13346224649463846C1
:108B900002F072F80500BDD128465CE710B5044626
:108BA000114890B0382180798DF83A0041F2305068
:108BB000ADF838006846FFF7FAFC02208DF8000097
:108BC00000208DF802000120ADF808000EA80390E7
:108BD0008DF803400021684600F0A8FA002801D073
:108BE00000F0D6F810B010BD643200202DE9F0433B
:108BF000284C8BB0A078002838D118212648FFF7E0
:108C0000D6FCA046E078244C00254FF02809012628
:108C100078B304F148070095019502951022694642
:108C2000F81D0395FFF7CEFC20B3F81DCDE908072A
:108C300009A8049008A806908DF814608DF81C60AF
:108C40000420FFF7ABFF25700220207204A8E0602B
:108C5000A4F810906582104873DF08B100F098F80E
:108C60000E494FF40030086088F802600BB0BDE890
:108C7000F08307E00520FFF791FF267067602572FB
:108C80002582E7E70620FFF789FF257065602572DA
:108C9000DEE700008C2C00204C3200200C05005038
:108CA0002DE9FF410546087A0E4681070AD00322C6
:108CB0001146284600F012FC002801D000F068F8A8
:108CC000BDE8FF812849009001F076FD010011D137
:108CD000254C7168143C009A6069FFF74FFC0098BE
:108CE00001F036FD010005D169461F4801F040FD45
:108CF000010003D0284601F0CDF8E1E704200190FF
:108D00000098800802906069039001A801F08CF837
:108D100007000BD0092F10D0606901F0E3FC0100BF
:108D200002D0284601F0B6F83946E3E7307A2169E7
:108D3000084420616069A061C2E7307A216901447A
:108D4000216160780028BBD06089401E0004000CBF
:108D50006081B5D1284600F089FB08B100F018F811
:108D600020896081ACE70000A02C0020BFF34F8F6A
:108D700005480168054A01F4E06111430160BFF351
:108D80004F8F00BFFDE700000CED00E00400FA0586
:108D90000EB500210091CDE901106A4644F20100B0
:108DA000FFF7E4FF0EBD000038B50C46064BE26845
:108DB000097853F8225062680092024604F10C00D0
:108DC0006369A84738BD00005C31002070B50F4BC7
:108DD000054605201C785E78A64216D01C781878C7
:108DE0009E88B04201DA401C00E0002018705E88C6
:108DF000D86804FB06002860986800EBC4039B88D1
:108E00000B8050F834001060002070BD242C00202E
:108E10002DE9F84F254C8146924660880E468142E6
:108E200041D800274FF6FF788DF80070684600F0B3
:108E30003FF922786078A188884201DA401C00E07E
:108E40000020C0B2904204D19DF8000000F054F917
:108E500027E065786078884201DA401C00E0002055
:108E600060709DF8000000F047F9454519D0A068F2
:108E7000B9F1000F40F835A00DD066B16188E06807
:108E8000324605FB01004946FFF778FBA06800EB7E
:108E9000C500868002E000EBC50087800020BDE8A9
:108EA000F88F0420FBE70920F9E70000242C0020BC
:108EB0000EB504E0029ABDF804100098904702AA8B
:108EC00001A96846FFF782FF0028F3D00EBD00001D
:108ED00030B5CB0008339DB293074FF0000401D0AA
:108EE000072030BD044B9A602A44DA605C701C7025
:108EF00058809980002030BD242C0020074B9B68AF
:108F000023B12AB120B10068037C1BB1082070474F
:108F1000072070474174426100207047342C0020C4
:108F200010B50446082902D00020FFF731FFD4E92C
:108F30000010BDE8104008471CB5044ACDE9000107
:108F400008216846FFF764FF1CBD0000218F070061
:108F50002DE9F0478046994614460F4690074FF09A
:108F6000000634D11C4D8CB302F0A2F90320C5F8E1
:108F70001490287004F11800002107EB4703AC603F
:108F800004EBC102491C167056709770506000EBDC
:108F9000C3000329F4DBEE606E70AE701420FFF79F
:108FA0005FFB06211420FFF77CFB1420FFF763FB17
:108FB0000A49C1F8008006211120FFF772FB07481B
:108FC000001F006828610020BDE8F08701E007204D
:108FD000FAE7AE60FBE70000342C002008150140E2
:108FE0002DE9F843DFF870900D461746D9F80810C0
:108FF000044651B34CB3052D02D20720BDE8F883D7
:10900000606910B3607C012821D0002602F0CEFBFD
:10901000D9F80810804601EBC800694602F0E5FB6C
:10902000B8B1012100F8041B0C4910C0096880E8A0
:10903000E200D9F8081001EBC8009DF8001041705B
:109040001420FFF723FB0020D8E70820D6E72E46A0
:10905000DCE70420D2E70000342C00200415014096
:10906000F8B5124E0446B168E1B1DCB16069C8B12F
:109070000027277402F09AFB0546B068694600EBAA
:10908000C50002F0B2FB78B1022101704460B06803
:109090009DF8001000EBC50041701420FFF7F6FAB0
:1090A0003846F8BD0820F8BD0420F8BD342C002057
:1090B00030B5EFF3108172B60D4A9468012324B1E4
:1090C0000370002900D162B630BD93604FF0E023F9
:1090D000D3F88051074C25401560C3F88041D3F880
:1090E000844154605A17C3F8842100220270E8E7D3
:1090F0000C340020FC06FFBC0B498A68002A11D002
:1091000000280FD1EFF3108072B60B684FF0E02209
:10911000C2F800314B68C2F8043100228A6000288E
:1091200000D162B6704700000C340020F0B50C4648
:1091300093B01F210726ADF80010ADF804100027EA
:1091400050B1C17849070DD56A4602A9FFF725FC41
:10915000002808D102AD02E00025ADF800706CB126
:10916000E07810B1304613B0F0BD01AA0AA920463C
:10917000FFF713FC0028F6D10AAA02E00022ADF89E
:109180000470BDF80400C3B2BDF80000C1B22846A7
:1091900072DFE8E770B5054601461C220F48FFF76D
:1091A000EDF90F4C00262670286830B10168616027
:1091B0004068A060201D7ADF02E00948001D7BDFC7
:1091C00000280AD14FF6FF7060806670BDE87040DD
:1091D000044A00210448FFF791BE70BD4C300020C6
:1091E000002C00204DB7070018B9070070B51E4CC1
:1091F000068800251B49E289102E15D01B4B112E25
:109200001CD0122E29D0502E17D130F8061F9142B3
:1092100013D14189022910D1007B10F0010F11D028
:10922000BDE8704000F040BC83884B808369CB6010
:10923000C06908614D70002AF2D070BD4FF6FF7012
:1092400048804D701868FFF70BFF0028F5D0A16922
:109250000029F2D0BDE8704008478268CA60C06843
:109260000861DDE7002C00204C30002018B9070011
:1092700001480068FFF7F4BE18B907007CB5054641
:1092800008880C460930904201D90C207CBD684604
:1092900071DF0028FAD121880820685420881B211A
:1092A000401C80B2208029542088401C80B220803D
:1092B0002844DDF801100160BDF805108180208888
:1092C000801D80B220809DF8001001B10121295439
:1092D0002088401C208000207CBD0000F0B585B0B7
:1092E0000A4605002FD02888A0F57F41FF392CD0F1
:1092F0001748007848B3164C1020641C01272070D2
:1093000007206070A7700320ADF810000026E11C54
:10931000104602F012FABDF8101000960844ADF89D
:109320001000019602960396288AADF8000004A862
:10933000CDE902048DF80270ADF804602888694612
:10934000A6DF05B0F0BD0E20FBE70820F9E700001E
:10935000142C002030B585B00D46040039D0BDB3C3
:109360006868A8B31C4B4FF6FF7020800FCB0DF13F
:10937000040C8CE80F0041F23050ADF8000001A859
:10938000811E63DF002821D1221D69460120A0DF54
:1093900000281BD19DF80200A071204600F0A4FE19
:1093A000002813D1204600F0F0FC00280ED12946F9
:1093B000204600F029FF002808D16868A062A8684C
:1093C00000B1E062054901200870002005B030BD01
:1093D000FFE70E20FAE700001CB90700142C00205C
:1093E0003EB500283CD000293AD0826A002A37D006
:1093F0000A88102A23D0112A33D0502A21D0512A8A
:109400002ED104460A4611F8060F022828D14888B2
:10941000238A984224D1907B042821D006281FD08B
:1094200005281DD02046891C01F07EFD002817D09C
:10943000E16A002914D003B0BDE8304008478988AC
:1094400011E0CA8803899A420AD108228DF80020C7
:109450000A7C12318DF808200191826A6946904792
:109460003EBD4FF6FF7101803EBD0000F0B585B0F6
:109470000A4605002BD02888A0F57F41FF3928D067
:109480001548007828B3144C1120641C0127207063
:109490000026ADF81070611C104602F04EF9BDF8C0
:1094A000101000960844ADF810000196029603963D
:1094B000288AADF8000004A8CDE902048DF80270F6
:1094C000ADF8046028886946A6DF05B0F0BD0E201F
:1094D000FBE70820F9E70000142C002030B585B028
:1094E00028B30388A3F57F44FF3C22D0124B1B789E
:1094F000FBB1114B10255B1C00241D7059709A7034
:1095000001250321ADF810100094019402940394F6
:10951000018AADF8001004A9CDE902138DF80250BC
:10952000ADF8044000886946A6DF05B030BD0E20C6
:10953000FBE70820F9E70000142C002010B50446D2
:10954000FFF754FE21460448FFF74AFF2046BDE8D6
:10955000104001F027BC00006432002030B51C49E7
:109560008BB00A1D0DF1140C3CCA8CE83C00096854
:10957000099120B105A818DF08B1FFF709FC4FF4E5
:10958000F02013DF08B1FFF703FC124B4822124909
:1095900009A801F0C1FF08B1FFF7FAFB01216A46F3
:1095A000084601F093FF08B1FFF7F2FB01208DF8A8
:1095B0000C00684601F080FF08B1FFF7E9FB07489F
:1095C00001F0C4FF002801D0FFF7E2FB0BB030BD73
:1095D00004B9070005B50700942E0020E1B5070087
:1095E00038B50068401C18D00024684600F04AF9DD
:1095F0000098017801290FD1418851B181684FF459
:1096000040500022806800F07DFA0099498881422C
:1096100001D1012400E00024204638BD70B511DFDF
:1096200008B1FFF7B5FB4FF0E0210020D1F8003181
:109630005FF0010404FA00F21A420AD042B202F0CA
:109640001F0504FA05F15209920002F1E022C2F866
:109650008011401C2028EDD34FF44054A06813DF44
:1096600008B1FFF795FBA068BDE8704000F008B9AD
:1096700008B5684600F006F900980178A52904D0DD
:109680000079AA2801D0002008BD012008BD10B52E
:1096900000F046FE18B900F0D3FA002813D0642079
:1096A00001F038FB00F0FFFD08B1FFF771FB00F09F
:1096B00037FE08B1FFF76CFB00F09CFA041E01D0E6
:1096C000FFF766FB204610BD00B587B0142208499D
:1096D00001A8FEF753FF05980DF1040C00909CE8DB
:1096E0000F0000F013F802F0FBF807B0002000BDF7
:1096F00038B9070010B500F019FC002805D100F0BA
:109700001FFF044602F0ECF8204610BD2DE9F84397
:1097100004460E4617461D466846DDF8208000F0D8
:10972000B1F814F0FF024FEA14412F4C2F484FF0CC
:1097300001034FF0FF0C10D0012A14D0032A23D0CC
:109740000021022A2DD0052A3FD0042A44D0062A1F
:1097500001D104202070BDE8F8834180856003704A
:1097600080F804C00BE04180F11929448160A521F3
:10977000017080F804C0C0F81880C6600EE0237045
:109780001A4800F065F8E6E700990A7802704A88FE
:10979000428089688160AA210171C660C0E90475B0
:1097A000EDE7009A1578A52D0AD0057055884580FB
:1097B0009268826080F804C0C16001614161DEE7A7
:1097C0004180816080F800C0F4E700F095FE08B1A8
:1097D000FFF7DEFA0320BDE74180816080F800C01A
:1097E000009909790171CBE7542C002068310020E1
:1097F0000EB5084A07CA8DE8070001F0BFFC002833
:1098000006D105494FF4FE204860684601F0D6FCB9
:109810000EBD00002CB90700582C002038B50446B6
:10982000684600F02FF80098007820700098408873
:10983000608000988168A16001792171C168E16050
:1098400001692161416961618069A06138BD0000E1
:1098500010B504461C21094801F086FC08B1FFF749
:1098600097FA00231C222146044801F0BBFC002883
:1098700003D0BDE81040FFF78BBA10BD582C002074
:10988000FEF750BE014901607047000000F007007C
:1098900070B5174C0F20217801EB410104EBC10298
:1098A0001449536912F8045F4968012D0ED0032D45
:1098B0000BD14FF08050006980B2B3FBF0F0084448
:1098C00028DF002801D10121A17070BD0803516873
:1098D00056690D1A3118926818441044B5F5805F26
:1098E00002D2AA0829DFECE74FF4806229DFE8E71B
:1098F000683000201C2C002000EB400205480021AD
:1099000000EBC200032201718160C0E90421816182
:10991000C1607047683000202DE9F041134C069E6D
:1099200065780A2D1FD027783D44EDB20A2D01D36A
:109930000A3DEDB205EB450504EBC5052871AA61AA
:10994000D1E90001C5E90401C5E90236A17800208A
:1099500021B9FFF79DFF112800D100206178491C33
:109960006170BDE8F0810420FBE700006830002052
:109970002DE9F05F2648C168F1B3DFF898B00E68B2
:109980008146DBF800400769C078E11B21F07F4584
:10999000ED1CB0B9DFF880804FF48030C8F8440384
:1099A000C8F804031120FEF75BFE1120FEF763FEEA
:1099B0004FF0010AC8F800A02F20FEF777FD89F8C4
:1099C00003A0B54200D23546124BE8193C3320F0D3
:1099D0007F401860DBF800105A46091B21F07F41D8
:1099E000001B20F07F40C91C81420FD9106818600D
:1099F0002F20FEF75BFD00E004E0BDE8F05F1120E2
:109A0000FEF744BEBDE8F05F01F052BCBDE8F09F38
:109A1000342C002004150140001001402DE9F041D4
:109A200017880646B81D14460D46984202D90C20E8
:109A3000BDE8F0813188072206290AD34FF4486C2B
:109A40004FF6FF73614501D9994202D1708806280B
:109A500001D21046ECE7604501D99842F9D199420C
:109A600003D0984201D08142F3D80520E8552088E0
:109A70001221401C80B2208029542088401C80B2D2
:109A800020804119308801F053FE2188084480B2BB
:109A900020804119708801F04BFE21880844208005
:109AA0000020C5E7FFF774B9F8B5134800F012FFBE
:109AB000114D0026114C0C3D30B16169B9B1012046
:109AC0008DF80000684611E0287820B1616971B115
:109AD0008DF80060F6E7687858B1A1680848002260
:109AE0000068FFF77DFA10B1A16901B188472E70B7
:109AF000F8BD6168F2E700000C2C00204C3000201B
:109B000018B9070010B5044612B11088002211E000
:109B10004FF6FF70FAE7030A43EA0023A05C5840BF
:109B2000C0F30313584080EA003080B2C3B280EA29
:109B30004310521C8A42EED310BD000030B5164CC3
:109B400087B01648E16801F00FFB08B1FFF720F974
:109B50001248E268083800234168083001F042FBEF
:109B6000050015D1142101A8FEF721FD00208DF874
:109B700004000A480DF1040C20388088ADF8060076
:109B8000E0680490059800909CE80F00FFF7BEFD88
:109B900007B0284630BD0000A4310020802C0020F2
:109BA000032161F3070008B50549064B898861F375
:109BB0001F400ECB0094FFF7A9FD002008BD000058
:109BC000602C0020A8310020012138B561F3070086
:109BD0000649074B898861F31F404FF440518C6858
:109BE0000ECB0094FFF792FD002038BD602C0020C2
:109BF000A831002000B58BB004A8FFF70FFE08982D
:109C000000280CD0079860B107990A9808440021F1
:109C1000CDE90010089880080290684618DF0BB064
:109C200000BD4FF440508068C0F5EA22C0F5F02135
:109C3000C2F30C02891AA1F5405100EB5100E6E78E
:109C400000B58BB004A8FFF7E9FD089800280FD0F5
:109C5000079878B107990A980844032100914FF4B6
:109C6000F021CDE90110089880080390684618DFBC
:109C70000BB000BD4FF440508068C0F5EA22C0F53B
:109C8000F021C2F30C02891AA1F5405100EB5100FA
:109C9000E3E7000070B504000BD000223C210B4824
:109CA000FFF730FF094DAD1E2988884203D00B20F5
:109CB00070BD0E2070BD3C2204492046FEF75EFCBC
:109CC0002888401C2880002070BD000082FF0020F2
:109CD00070B515460A4603281FD0042824D1134C1A
:109CE00039B1E088A0F57F41FF391DD0132176DF1F
:109CF0000DE0284600F0F6FC08B1FFF749F8A0692E
:109D0000A84211D1012203210948FFF7E7FB0028EF
:109D10000AD0BDE87040FFF73BB80121104601F0C2
:109D200006F802460121EFE770BD00008C2C0020F0
:109D30006432002000B587B01422074901A8FEF75D
:109D40001DFC05980DF1040C00909CE80F00FFF736
:109D5000DDFC07B000BD000050B9070070471FB51B
:109D600003230093CDE9010190080390684618DFB2
:109D700004B010BD1FB501230093CDE90101900887
:109D80000390684618DF04B010BD30B58FB00546AB
:109D90001C216846FEF70BFC00249DF8000001948E
:109DA00040F018008DF80000039404940594069484
:109DB000A8798DF8360041F23150ADF834000C949A
:109DC0009DF83000142120F0FF008DF830009DF840
:109DD000310020F00F00401C20F0F00010308DF812
:109DE00031009DF8320020F00600801C20F00800B1
:109DF00040F011008DF8320007A8FEF7D8FB0DA83F
:109E000007900CA80890ADF824401720ADF8264024
:109E1000ADF828000B94A88805F1100307AA69463D
:109E2000A2DF0FB030BD000070B5050004D0287A65
:109E3000800703D0102070BD0E2070BD144C6078D8
:109E4000032803D0042801D0052801D0082070BDC4
:109E50006868E1688600A0683044884204D94FF001
:109E6000FF30A0600C2070BD00F028FB0028FAD164
:109E7000A9683246A368206901F0B4F90028F2D13C
:109E8000A1683144A160E2689142ECD0092070BD24
:109E9000602C002010B50A4604460321104600F04D
:109EA00046FF024603212046FFF718FB002803D097
:109EB000BDE81040FEF76CBF10BD0000094810B5AA
:109EC0004078072801D0082010BD07480068FFF738
:109ED000C7F808B1FEF75CFF04488068BDE8104091
:109EE00000470000602C00204CB9070034320020ED
:109EF00010B50D4C6078052813D1D4E902018842D1
:109F00000FD10620607000F0D9FA002808D120692E
:109F1000E168406800F096F8002801D107216170DF
:109F200010BD082010BD0000602C0020FEB51F4EA3
:109F30001F4C06F11800002507C88DE80700A57022
:109F4000A58004F12001684601F038F908B1657078
:109F5000FEBD4FF44050164980682031C0F5EA221A
:109F60004860216AA161C0F5F021C2F30C02891A90
:109F7000A1F5405100EB51000D490E4A18314860DF
:109F800000210A48FEF7BAFF08B1FEF701FF0022E0
:109F90004FF470113068FFF723F808B1FEF7F8FEB0
:109FA0000120A56060700020FEBD00004CB90700D4
:109FB000602C0020A1A4070010B5094C0820A1685E
:109FC00001B110BD61780429FBD1A178054800F0EA
:109FD00047F810B10021A17010BD0521617010BDBE
:109FE000602C0020B43100202DE9F041134C0746CD
:109FF0006078032805D0042805D008252846BDE848
:10A00000F08104206070A06808B10820F7E700F034
:10A0100055FA0500F3D178688600A0788119802967
:10A0200001D90920EBE7064AB96810443246FEF729
:10A03000A5FAA0783044A070E0E70000602C002072
:10A04000B431002010B50022FFF75CFD03490988F8
:10A05000884201D00B2010BD002010BD40320020EE
:10A0600070B500250C290ED343180189044600EB76
:10A070004101581A0A38C2B21948022A027002D3A2
:10A080000A318B4201D2092070BD1648FEF776FADC
:10A090004FF010214FF6FF70B1F88020824202D0BD
:10A0A0002388934219D1B1F88210814202D060888E
:10A0B000884212D120894FF6FE724FF44053A842D5
:10A0C0000BD904EB45014989914204D09E896D1C4E
:10A0D000B6B2B142F3D1002070BD0B2070BD0000BC
:10A0E000882C00204032002030B58FB005461C215E
:10A0F0006846FEF75CFA00249DF80000019440F0E9
:10A1000004008DF800000394049405940694A87943
:10A110008DF8360041F23250ADF834000C949DF8C1
:10A120003000142120F0FF008DF830009DF8310040
:10A1300020F00F00401C20F0F00010308DF83100AE
:10A140009DF8320020F00600801C20F0180040F03E
:10A1500001008DF8320007A8FEF729FA0DA8079034
:10A160000CA80890ADF824401420ADF82640ADF8B6
:10A1700028000B94A88805F1080307AA6946A2DF06
:10A180000FB030BD084910B5A1F1200001610221D6
:10A190004170C168203000F0E7FF002803D0BDE81F
:10A1A0001040FEF7F5BD10BD802C00200E4910B503
:10A1B000A1F118000161022141704FF44050806804
:10A1C000C0F5F021C0F5EA20C0F30C00081AA0F594
:10A1D00040504108044800F0C7FF002803D0BDE804
:10A1E0001040FEF7D5BD10BD782C00200149486114
:10A1F00070470000602C002038B5062565F3070085
:10A200000094FFF783FA38BD70B58EB00E46054650
:10A210001C216846FEF7CBF900249DF8000001944C
:10A2200040F002008DF80000039404940594069415
:10A23000A8798DF8360041F23450ADF834000C9412
:10A240009DF83000142120F00F00401C20F0F00099
:10A2500010308DF830009DF8310020F0FF008DF8AF
:10A2600031009DF8320020F00600801C20F018001C
:10A2700040F001008DF8320007A8FEF798F90DA80C
:10A2800007900CA808900220ADF82400ADF82640F5
:10A29000ADF828000B96A88805F1200307AA6946A7
:10A2A000A2DF0EB070BD2DE9F04188B06846FFF71F
:10A2B000B5FA039800282BD0069A00F580504FF489
:10A2C0008051904227D9A2F5805044081046039A45
:10A2D00000EB440687184FF440500D46806801EBB0
:10A2E000440890420ED204F5805004220146FFF744
:10A2F00041FD00280CD1294604220846FFF73AFD0B
:10A30000002805D1BA1B23464146304600F038F8F4
:10A3100008B0BDE8F081039A0698FFF72BFDF7E738
:10A3200030B58FB002A8FFF779FA0598002817D04A
:10A33000089A00F580504FF48051904216D9A2F54A
:10A340008050430810464FF44054059AA468059D78
:10A35000024400EB430001EB4301AC4202D20E2069
:10A360000FB030BD121A00F00BF8F9E70BAB032069
:10A3700083E80700059880080E900BA818DFEFE728
:10A380002DE9F0411C4617460D460646FFF7E7FC4F
:10A39000002818D0B5F5805F07D92346291B301B4C
:10A3A0001A46FFF7EDFF00280DD13A462946304600
:10A3B000FFF7E0FC002806D13A4629463046BDE8C2
:10A3C000F041FFF7CCBCBDE8F081000070B54268F9
:10A3D0002A48D2E90043D2E90212C0E90212C0E9D8
:10A3E00000430078440701D5840705D19C0703D1B9
:10A3F0008C0701D1940701D0062070BD204D0B447D
:10A400001A44EA60B1F5E04F1ED81C4CC3074FF464
:10A41000405104F190040AD08868C0F5EA209042C7
:10A4200012D31848206018486060184817E08968FF
:10A43000C1F5F023C1F5EA21C1F30C01591AA1F5C8
:10A440004051B2EB510F01D90C2070BD1049216071
:10A4500010496160800701D50F4800E00F48A060F7
:10A460006878012802D00826304670BD00F026F832
:10A470000600FAD12168E8688847F5E7A431002092
:10A48000602C002085A10700359D0700C99B0700AF
:10A49000ADA107005D9D0700A19B07003D9B070044
:10A4A00068B5054E01253570052565F30700009454
:10A4B000FFF72CF968BD0000602C00200C4810B597
:10A4C000007808B1082010BD0A4C2068FEF7C8FDCE
:10A4D00008B1FEF75DFC00224FF470112068FEF712
:10A4E0007FFD041E01D0FEF753FC204610BD000086
:10A4F000602C00204CB9070010B5104C01202070D2
:10A50000E088A0F57F41FF3905D0132176DF68B1DF
:10A51000FEF73EFC0AE0A07840B174DF08B1FEF718
:10A5200037FC112000F036FC0020A070FEF7A0FEE2
:10A5300008B1FEF72DFC002010BD00008C2C00207F
:10A5400030B5454D87B000242C702C71112000F0DF
:10A5500019FC122000F016FC112000F01BFC122048
:10A5600000F018FC3D4800F09DFF00286FD13C48EA
:10A57000FFF73CFE00F0A2F8002868D13948FFF749
:10A5800089FB002865D0684671DF08B1FEF700FC42
:10A590009DF801006946401C8DF80100002070DF25
:10A5A00008B1FEF7F5FB9DF808002FA120F00F0081
:10A5B000401C20F0F00010308DF80800072202A89F
:10A5C0007CDF08B1FEF7E4FB00940C20ADF800003E
:10A5D00018200194ADF80200ADF804404FF4C870A3
:10A5E000ADF8060068467ADF08B1FEF7D1FB082017
:10A5F0000094ADF800001E4801901E4802901948D2
:10A6000069463038FEF7A6FE08B1FEF7C1FB1C21F3
:10A610006846FDF7CCFF40F6CD40CDE900404FF451
:10A620008040029003208DF80C001348ADF80E40D6
:10A630008DF81040CDE905406846FEF7ABFD08B146
:10A64000FEF7A6FB00F0A6FEFEF7D0FA002007B04A
:10A6500030BD0120E870A6E78C2C00203D95070056
:10A66000D19C0700943200204446553242313100DB
:10A6700021B00700A1B40700A59A07000E4910B544
:10A680004A788C780023A24212D0521CD2B24A706F
:10A69000022A00D14B70084A4B78183252F8232016
:10A6A00002600869104420F07F400861012010BD5D
:10A6B0000360002010BD0000342C0020074800215A
:10A6C000074A017002F5907002600822C0E901217A
:10A6D000C16001614161816108467047AD2C002075
:10A6E000D0320020F0B5194A0646916861B3556929
:10A6F0001020691A01F00701D2F800700B460124FE
:10A7000001EBC10C07EB8C0CB44506D1956904FA3A
:10A7100001F675400020956104E0491C01F0070135
:10A720008D42EDD1491C956901F0070104FA03F34C
:10A730001D420AD19368002B07D05B1E93605368BB
:10A740005B1C53600B46F1E70420F0BDF0330020A2
:10A75000064920230A7C0968521E02F0070202EB18
:10A76000C20203EB8202885000207047F0330020C1
:10A7700070B5D0B1C9B10F4AD368C3B15B1ED36005
:10A7800093685B1C93605369156803EBC30405EB86
:10A7900084060660202000EB84005B1C28580860BB
:10A7A00003F007005061002070BD0E2070BD042032
:10A7B00070BD0000F033002010B5E9B100220A603E
:10A7C000104A5368E3B1202818D85B1E5360D06844
:10A7D000401CD0601069136800EBC00403EB8403D5
:10A7E0000B60012383409169401C194300F007006E
:10A7F00091611061002010BD0E2010BD0C2010BD15
:10A80000042010BDF0330020FEB50446087A82070C
:10A810000ED000F00302C2F104030022154604E04A
:10A820004E683554401CC0B2521C9A42F8D308728C
:10A830000120009048680290087A800801906846DC
:10A84000FFF7D2FB00280BD0022100F070FA02467D
:10A8500002212046FEF742FE002801D0FEF798FABA
:10A86000FEBD0000F8B51A4C207800282ED02069D3
:10A8700028B10026E06820B1002526B110E00126AD
:10A88000F8E70125F9E7684652DF052803D020B133
:10A89000FEF77EFA04E0012602E02169009888476D
:10A8A00085B96088ADF800006946A06861DF0528B9
:10A8B00003D020B1FEF76CFA04E0012502E0D4E9F0
:10A8C00002018847002EDED0002DD6D0F8BD000052
:10A8D000B42C0020054940880A88904204D3498856
:10A8E000884201D80120704700207047042C0020C6
:10A8F000800701D0002070470120704730B51488D0
:10A90000E51C9D4201D90C2030BD02250D55138850
:10A910001C245B1C9BB21380CC5413885B1C9BB221
:10A920001380012807D0022807D0032807D0042865
:10A9300007D0072030BD002004E0012002E0CD5404
:10A9400001E00320C8541088401C1080002030BD56
:10A950002DE9F047DFF8ACA0DAF80C009AF80040D7
:10A9600080469AF80460DAF80890DAF810703AE055
:10A9700009EBC4052A7833E002EB42016B68521CF4
:10A9800003EBC101AB78D2B2934200D100220B7825
:10A99000022B02D0032B23D11FE0D1F804C00346C1
:10A9A000014603E0614503D00B46C969C1B1F9E72F
:10A9B000B1B18B4205D1C06918B9134F0126BE60F1
:10A9C0000027D1F800C0C969D96149B10B68634457
:10A9D0000B6005E00174C06900E000210028F9D196
:10A9E00069789142C8D1641EE4B2C1D2CAE90307B2
:10A9F0008AF80460404502D00120BDE8F0870020BD
:10AA0000FBE70000342C0020001001402DE9F04746
:10AA100005462F48002680460778D0F80C904BE07A
:10AA2000D8F8080000EBC70440E002D02846ED69E2
:10AA30001EE02078616800EB4002401CC0B201EBD0
:10AA4000C2012070A278904200D126700A7848682E
:10AA5000012A2DD1027C5ABB8A684260CA68826092
:10AA60000A69C2604969816198F8041001B14660C1
:10AA70004268D8F81030DFF85CC0D11A21F07F416D
:10AA8000614502D28268114406E0991A826821F079
:10AA90007F418A4202D9511A016000E00660466097
:10AAA000012186600174C66100F0E2FD002DBCD179
:10AAB000207861788842BCD17F1EFFB2B0D2D8F82E
:10AAC0000C10494502D00120BDE8F0870020FBE7CB
:10AAD000342C0020FFFF7F001CB548480168002689
:10AAE000B12950D0002511241427012220460096B8
:10AAF00000231146019600F034F9641CBC42F4D9DD
:10AB00003F4F4FF4F01038604FF010204069B0F51F
:10AB1000F02F02D00020FEF73BF94FF08050006983
:10AB2000B0F5805F02D00020FEF732F9354B364A8F
:10AB300005210020FEF70CFA08B1FEF729F90323DE
:10AB4000CDE9006300221020114600F00AF9FEF75B
:10AB50004FFEFEF78DFD2A4E4FF40024361DA8B19E
:10AB60003460FEF794FD08B1FEF712F985F001009C
:10AB7000FEF7F4FC00F0BAFBFEF7A6FD08B1FEF705
:10AB800007F93C6008E001250660ACE785F00100AC
:10AB9000FEF7E4FC00F0AAFB194808300068000C3E
:10ABA00010F0010F05D0002028434FF4405506D186
:10ABB00001E00120F8E7A868FEF712FD30B9346023
:10ABC000FEF798FD08B1FEF7E3F83C60A868FEF7D1
:10ABD00007FD28B1FEF74CFD10B9A868FEF71EFD71
:10ABE000BFF34F8F09480168094A01F4E06111433E
:10ABF0000160BFF34F8F00BFFDE700001C05004060
:10AC000008050050398F0700CC2C00200CED00E027
:10AC10000400FA0570B5144682880E460546208861
:10AC2000111D0144921C994201D8FE2A01D90C2021
:10AC300070BD521C32542088FF21401C80B22080FD
:10AC400031542088401C80B220808119288800F06F
:10AC50006FFD2188084480B22080AA8842B1A9688B
:10AC600041B13044FDF78AFC2088A988084420803F
:10AC7000002070BD072070BDF8B50E46017814465F
:10AC80000546012901D1687830B12088821C9A429A
:10AC90002DD8012902D006E00720F8BD69780144CB
:10ACA000891C994223D8181A801E87B2ADF800700B
:10ACB0002188B01C084469467DDF0028EDD1287842
:10ACC000022805D1BDF80010B94201D809210AE0D7
:10ACD0000821012805D16878B84202D8ADF80000F3
:10ACE00001E0ADF80070BDF80000FE2801D90C208D
:10ACF000F8BD2288401CB0542088401C80B22080BF
:10AD000031542088401C2080BDF800100844208069
:10AD10000020F8BD31B540F2E73404E0401E009059
:10AD20002046FDF787FB00980028F7D138BD08289A
:10AD30000BD003DC38B106280FD108E00B280AD06D
:10AD40000C280AD105E0012070470220704703203B
:10AD5000704704207047042901D006207047052061
:10AD6000704730B541EA4201DDE9034541EA83011C
:10AD7000800041EA042100F1A04041EA0541C0F809
:10AD8000001730BD0321800000F1A040C0F800177B
:10AD900070470000012181400148016070470000B8
:10ADA00008050050F0B55C4C0546008800270122DC
:10ADB000E688A7B0192810D024DC112843D00EDC77
:10ADC000022878D0102808D1544980030860112047
:10ADD000FFF7E0FFA888E080A77027B0F0BD5049DA
:10ADE000132801F1180446D01428F6D1288A4A8D78
:10ADF0000026904200D126460023CA1DA88831466D
:10AE000086DF1BE0512868D00EDC1A287CD01B2876
:10AE1000E3D1287A0028E0D1A770E068401EE06006
:10AE20004AD0FDF7E3FED8E7522872D05528D4D196
:10AE3000A8790028D1D11321304676DF0028CCD064
:10AE4000FDF7A6FFC9E78020ADF894003220E0604E
:10AE50001220FFF79FFF012325AA01A9E088AADF9E
:10AE600008B1FDF795FF207808B9FDF7BFFE4FF652
:10AE7000FF70E080B1E72A48C91D483850F8482FD4
:10AE800005928288ADF8182080798DF81A0010227A
:10AE900001A8FDF773FB1C22214610A8FDF76EFBED
:10AEA00001A80C901C4A10A81C320B9007AB8521FE
:10AEB00030467FDFC2E70CE014221A4901A8FDF7F3
:10AEC0005DFB059801AC009094E80F00FEF71EFCB6
:10AED00083E70021304667DFB0E7A9790029A2D0D7
:10AEE000A87B042803D0062801D005289BD102297D
:10AEF0000BD08DF8842000BF4FF4C170ADF88800EE
:10AF000021A93046A8DF99E703E002208DF88400EC
:10AF1000F2E700F04FFA91E78C2C00200C0500506E
:10AF2000943200207CB90700F0B58BB001274FF0B8
:10AF3000020E05468DF80CE08DF812700889ADF808
:10AF400014004889ADF8160001F10C00002608969F
:10AF50000690ADF820E007A8ADF8226009900C46F5
:10AF6000A98A288808AAA5DF18B1E96AC9B1884763
:10AF700017E09DF81C0010F0010F12D0ADF8106022
:10AF8000288803A9A8DF002812D1217B04F10D0035
:10AF9000092943D2DFE801F0420E1D2326282A406A
:10AFA0002C0040F2FD10ADF81000288803A9A8DF9E
:10AFB0000BB0F0BD8DF800600DE006221DE000BF73
:10AFC0008DF808700190AA6A6946284690470020CB
:10AFD000EEE78DF800706289022AF1D2EDE78DF874
:10AFE00000E0F0E7032012E0042010E005200EE06E
:10AFF0006089032805D2032208212846FEF76EFA4D
:10B00000D6E7B4F80D00ADF8040018B106208DF8AD
:10B010000000D8E70720FAE70920F8E70322ECE769
:10B0200070B504460B780120314A0A2B16D2DFE8AE
:10B0300003F01F243A050D1651563D5AFEF758FFEE
:10B040000421FFF774FE0246042123E0FFF754FABF
:10B0500008B1FDF79DFEFEF731FF28B970BDFFF77F
:10B060004BFA08B1FDF794FEBDE87040FFF7C4B895
:10B07000107148680078507170BD022010714868E6
:10B0800000780128F8D1FEF797FF0221FFF74FFE65
:10B09000024602212046FEF721FA0028ECD0BDE846
:10B0A0007040FDF775BE0320107170BD1279204607
:10B0B000012A07D0022A09D0032AF6D1BDE8704040
:10B0C000FDF7EEBDBDE8704000F04ABABDE8704043
:10B0D000FFF79ABB507088881081508170BD0020A6
:10B0E0005070108170BD20461169FEF7F7F8D4E763
:10B0F0008C2C002006480378012B03D1012901D1B3
:10B1000002210170100001D0FDF742BE704700001F
:10B11000542C002070B5124C1E461546607801294B
:10B1200002D0032914D107E0052811D163697BB14E
:10B130003246294604200AE0022809D1094840681D
:10B14000804703206070636913B1324629469847EF
:10B15000280003D0BDE87040FDF71ABE70BD0000A6
:10B16000602C00203432002008B50B460022014636
:10B1700003200092FEF7D0FB08BD000070B50D4E15
:10B1800000240D487460254604704470847028467D
:10B19000FEF7B2FB6D1C0A2DF9D30749346000207D
:10B1A000F431746041F82040401C0328FAD3002099
:10B1B00070BD00001C2C002068300020074B1A686E
:10B1C000032A08D00A600649006841F82200521C90
:10B1D00000201A6070470420704700001C2C0020DB
:10B1E0005C310020F8B507461D4616460C46084659
:10B1F000FFF77EFB58B16019FFF77AFB38B1334691
:10B200002246394601200095FEF786FBF8BD102046
:10B21000F8BD000070B5244C06460022A078012835
:10B2200041D100232146A3700D78022E05EB450085
:10B2300001EBC00103D0032E35D10D202EE01B48B9
:10B240004668761C46608968B1EB063F15D84360B6
:10B250006078401E6070681CC0B220700A2801D35C
:10B260000A38207005EB450004EBC0011046091DAB
:10B27000FDF79AFD2846FEF73FFB6078002812D0C4
:10B28000A07800280FD1FEF703FB00280BD011286F
:10B2900009D0217801EB410104EBC101BDE8704008
:10B2A000091DFDF781BD70BD683000201C2C0020F9
:10B2B00070B5012670044FF0E0210025C1F880012F
:10B2C000084C4010C4F84803C4F8080366602F20F7
:10B2D000FDF7ECF8A660044C2F202561FDF7E6F899
:10B2E000E57070BD00100140342C002010B5064AF6
:10B2F00014210820FDF7ECFD002803D0BDE8104024
:10B30000FDF746BD10BD0000DC2E002010B5012168
:10B31000202803DA1D4A8140114004E0402803DA66
:10B32000A0F12002914041B1002809DA00F00F019C
:10B3300001F1E02191F8141D06E042F2010010BD78
:10B3400000F1E02191F800144909082914D299B1BB
:10B35000012911D004290FD005290DD00C4A946879
:10B3600000F01F0301219940400944B152F82030F8
:10B370000B4342F8203007E042F2020010BD80008B
:10B3800000F1E020C0F80011002010BDFC06FFBC59
:10B390000C3400200648017821F07F01303121F083
:10B3A00080010170072141701021817070470000F9
:10B3B000A82C002070B5164C4FF6FF75E088A84207
:10B3C00001D1082070BDE178E1B1012308221149C3
:10B3D000A9DF0028F6D1022300221146E088A9DF68
:10B3E0000028EFD12A460C21E088A7DFA0F54051C4
:10B3F000023905D0082803D0A0F540510439E1D125
:10B40000002070BD00231A461946A9DF70BD000058
:10B410008C2C0020C83200202DE9F0410746806ABC
:10B4200014468846C8B3002531E000BFB96A05EB71
:10B43000450001EB8006B088801CFE2802D90C2054
:10B44000BDE8F0812288401C08F8020020881622FE
:10B45000401C80B2208008F800202088401C80B268
:10B46000208000EB0801308800F062F92188084450
:10B4700080B22080B28842B1B16871B14044FDF71A
:10B480007DF82088B188084420806D1CEDB297F8C3
:10B490002C00A842CAD80020D2E7FFE70720CFE758
:10B4A000FDF776BC18B10349C860002070470E2034
:10B4B00070470000B42C00201CB503490191009195
:10B4C000694660DF1CBD0000002C002070B50E46F0
:10B4D0000546144614211046FDF769F80120208026
:10B4E0000021216121732672657205B1A0720020CE
:10B4F00070BD10B511B10020FDF74AFCBDE8104049
:10B50000FFF7B0B90021024A0846FDF781BC0000F0
:10B51000F3B40700FDF72ABC30B409B18C0702D0A0
:10B52000072030BC7047074C0125A16062800649A6
:10B53000636010DF0028F4D1257030BC1620FFF7BF
:10B54000E5BE0000B42C002015B5070018B1034972
:10B550000861002070470E2070470000B42C0020C6
:10B5600010B588B00446002000900190029003902E
:10B5700019481A4A40798DF80000106892680490C2
:10B580006846CDE90502087A0C2805D003221CE0A4
:10B59000FDF7FEFB08B010BD4868C278016862F391
:10B5A0001F610191C279416862F31F610291C17A02
:10B5B000806861F31F60039004A8FEF707FF00286E
:10B5C000E8D00121FFF7B3FB024601212046FDF739
:10B5D00085FF0028DCD1DDE78C2C002070B9070046
:10B5E000FFF718BE2DE9F84F204C00256846D4E936
:10B5F00003B6FFF743F88046FFF7AAF90746A946C6
:10B60000B8F1000F25D00023009ACC46E06819E07D
:10B6100007680146974202D9BA1A026014E0C1F8DD
:10B6200000C0D1F80C80D21BC8693B448A46B8F1EF
:10B63000000F07D0F71827F07F47C1E90178CAF853
:10B640001C500D460028E3D1E0602846FFF7DEF9E4
:10B6500004E02846FFF7DAF900B917B15846FEF7BB
:10B6600087F984F80490BDE8F88F0000342C00209E
:10B670000D4B10B5D96831B102680C68A24204D8EC
:10B68000A21A0A60C161D86010BD0B4603E00B46E8
:10B69000C969121B21B10C689442F8D3A41A0C603A
:10B6A0000260C161D86110BD342C00202DE9F04149
:10B6B0001D4DEC68002C35D01C4800270068296916
:10B6C000B846401A20F07F462068B04215D822467E
:10B6D000361A0744E469107C68B182F810806B69FF
:10B6E00033B1D2E90501984728B1FDF751FB02E0DB
:10B6F000D2E905108847002CE6D16978A878814204
:10B7000006D1401CC0B2A870022801D185F8028081
:10B710000548A978183040F82170BDE8F0411420A0
:10B72000FCF7B4BFBDE8F081342C002004150140C3
:10B730000870000A4870022070470870020A4A70B8
:10B74000020C8A70000EC8700420704738B5154985
:10B750004888A0F57F42FF3A23D04A78124C521C09
:10B76000D2B24A70237B93420AD3091D75DF0028A9
:10B7700017D0A169002914D001B0BDE830400847B6
:10B7800000254D70217C29B13B2176DF10B1A169E4
:10B7900001B188476169002903D08DF800506846DF
:10B7A000884738BD002C00204C300020EFF3058086
:10B7B000C005C00D13D0103840B2002806DA00F0E2
:10B7C0000F0000F1E02090F8140D03E000F1E020FC
:10B7D00090F800044009022803D0062803D0022074
:10B7E0007047002070470120704742788378521CD0
:10B7F000D2B2934200D100220378934201D10020BB
:10B8000070470A704168407800EB400001EBC000CF
:10B8100070472DE9FC411646DDE90854CDE9005496
:10B820001F468046022200F00CF8002807D1CDE91F
:10B8300000543B4610223146404600F002F8BDE875
:10B84000FC812DE9FC5F0026DDE90C4B9946924610
:10B850008E4680462788354630E0D8F8040000221E
:10B8600000EB850069460068019001A865DF0028AB
:10B8700030D19DF8000050451FD10EB1002100E0ED
:10B880000221228808441118594522D846B9521C71
:10B8900090B2208009F800E02088401C208001261A
:10B8A000218801A801EB0902694665DF002811D152
:10B8B00020889DF80010084420806D1CB8F8000016
:10B8C000A842CADC56B12088C01B401E80B2FF28A7
:10B8D00002D90C20BDE8FC9F09F807000020F9E719
:10B8E00010B5074C48DF08B1FDF752FAFDF7E0FA52
:10B8F0002078022803D0032801D00428F2D110BDFB
:10B90000542C00200100000702000000000000008D
:10B9100000000000000000002C30002023D1BCEA11
:10B920005F782315DEEF121200000000F5B007006B
:10B930000000000000000000020000000000000005
:10B940000000000000000000000000008431002022
:10B9500004000000000000000000000000000000E3
:10B960000000000015B1070000000000000000000A
:10B9700003000000000000000000000005000000BF
:10B9800000000000000000000000000000000000B7
:10B99000B0B90700002C0020CC0000007C89070013
:10B9A0007CBA0700CC2C00204C2700008C890700B3
:10B9B0000000000000000000000000000000000087
:10B9C0000000000000000000000000000000000077
:10B9D0000000000000000000000000000000000067
:10B9E0000000000000000000000000000000000057
:10B9F0000000000000000000000000000000000047
:10BA00000000000000000000000000000000000036
:10BA10000000000000000000000000000000000026
:10BA20000000000000000000000000000000000016
:10BA30000000000000000000000000000000000006
:10BA40000000FFFF000000003200000000000000C6
:10BA500000000000000000000000000000000000E6
:10BA600000000000000000000000000000000000D6
:0CBA700000000000000000000090D00367
:020000041000EA
:041014000080070051
:020000041000EA
:0410180000E00700ED
:04000005000784016B
:00000001FF
