:020000040003F7
:10AC000050340020CDAE0300DFAE0300E1AE030000
:10AC10000000000000000000000000000000000034
:10AC2000000000000000000000000000E3AE030090
:10AC30000000000000000000E5AE0300E7AE0300E6
:10AC4000E9AE0300E9AE0300E9AE0300E9AE03009C
:10AC5000E9AE03000000000091CA0300E9AE030062
:10AC6000E9AE0300E9AE0300E9AE0300E9AE03007C
:10AC7000E9AE0300E9AE0300E9AE0300E9AE03006C
:10AC8000E9AE030087C30300E9AE0300E9AE0300A9
:10AC90009DC30300E9AE03008DCC0300E9AE0300C1
:10ACA000E9AE0300E9AE0300000000000000000070
:10ACB0000000000000000000000000000000000094
:10ACC00000F002F800F03EF80CA030C80838241854
:10ACD0002D18A246671EAB4654465D46AC4201D1D4
:10ACE00000F030F87E460F3E0FCCB64601263342C8
:10ACF00000D0FB1AA246AB463343184794370000F6
:10AD0000B4370000103A02D378C878C1FAD8520795
:10AD100001D330C830C101D504680C607047000011
:10AD20000023002400250026103A01D378C1FBD867
:10AD3000520700D330C100D50B6070471FB51FBD4F
:10AD400010B510BD03F034FB1146FFF7F7FF00F01C
:10AD500029F903F04CFB03B4FFF7F2FF03BC03F047
:10AD600053FB0000144C144D0646064FF0B4034C40
:10AD7000024D024E014FF0B40748004700000000AA
:10AD800000000000000000210000000000000000A2
:10AD90000000000000000000F9FFFFFF016881F3E0
:10ADA00008884068034AEFF305839A42DAD1024CDF
:10ADB000A646004700000000FFFFFFFF401E00BF47
:10ADC00000BF00BF00BF00BF00BF00BF00BF00BF8B
:10ADD00000BF00BF00BFF1D170470000401E00BFA0
:10ADE00000BF00BF00BF00BF00BF00BF00BF00BF6B
:10ADF00000BF00BF00BFF1D17047000070B505462D
:10AE00000C46164602E00FCC0FC5103E102EFAD2AB
:10AE1000082E02D303CC03C5083E042E07D301CC71
:10AE200001C5361F03E021782970641C6D1C761E55
:10AE3000F9D270BD10B500F01DF8002805D01F49EB
:10AE40001D484860C8131E4988611E48018CC9B25C
:10AE500001290ED1818C09070BD1018D0906090F3B
:10AE6000042906D1808D0006000F02D11649012069
:10AE7000886010BD1348018CC9B2012917D1818C9B
:10AE8000090714D1018D09060A0F03D1828D12061C
:10AE9000120F0ED0090F012903D1828D1206120F55
:10AEA00007D0032903D1808D0006000F01D00020B8
:10AEB0007047012070470000DFFF07C00005004019
:10AEC000006C0040C00F00F0000600400A48026815
:10AED00003210A4302600948804709480047FEE70A
:10AEE000FEE7FEE7FEE7FEE7FEE70000054806494D
:10AEF000064A074B704700002405004035AE0300AA
:10AF0000C1AC03005028002050340020502C0020F9
:10AF1000502C002001209C490006C86000F0EFF88A
:10AF20000A4601469948FFF7F5FF10B502F024F8EC
:10AF300010BD10B5964C86B01ECC03946C460EC462
:10AF4000002806D0684618DF002802D091A2C2214E
:10AF500024E0EB20800213DF002802D08DA2C6215E
:10AF60001CE08F4B50228F49082001F06BFE002817
:10AF700002D088A2C82111E000206946049008741C
:10AF800004A860DF002802D082A2CF2106E0864814
:10AF900001F074FE002803D07EA2D221FFF7BAFF91
:10AFA00006B010BD08B58148C069B12823D000247F
:10AFB0007F4903200860091D0860091D0860091DFC
:10AFC00008607C48EB2140698902884215D1012044
:10AFD0000007006901218902884211D1764800905A
:10AFE000764B05220321002001F0FEF900280CD049
:10AFF00073A2962107E00124DAE766A2EA2101E0C4
:10B0000064A2EB210020FFF785FF6C490120143971
:10B0100001F07EFD002802D069A28D21F3E764498A
:10B02000032000040839086000F019FD00F05EFDFF
:10B030000125002813D000F068FD002802D055A299
:10B04000F621E0E720466840FFF773FF00F074F850
:10B0500000F084FD002808D04EA2FC21D3E7204652
:10B060006840FFF766FF00F067F8474D2869C00C9D
:10B07000C007C00F04D000202043544C07D101E08A
:10B080000120F9E7A06800F041FC002815D1FF205D
:10B090003DDF002803D0FF213EA20C31B3E70120A1
:10B0A000C005E86000F0ECFC002803D0FF2139A2C5
:10B0B0001231A8E7172000F02AF8A06800F026FC5B
:10B0C00000280ED0152000F022F8162000F01FF8FE
:10B0D000172000F01CF8182000F019F8A06800F004
:10B0E000DBFC152000F013F8162000F010F81720F4
:10B0F00000F00DF8182000F00AF800F000F8BFF397
:10B100004F8F34493248C860BFF34F8FFEE70121AB
:10B1100081401D48816070471CB5019100902E4A06
:10B120000821684601F0CCFB1CBD10B500212B4A5C
:10B13000084601F0C5FB10BD1A4A10B55032142163
:10B14000082001F0A9FB002803D01DA2DA21FFF797
:10B15000E1FE10BD10B50246082905D0FF2120A24E
:10B160001B310020FFF7D6FE11685068884710BDDC
:10B1700010B5002904D026A299210020FFF7CAFEAD
:10B1800001F022FD10BD000000050050EFBEADDE55
:10B1900030E403002E2E5C6D61696E2E63000000AA
:10B1A0002BB10300482300202BAF03000005004013
:10B1B000540700500010001019B1030008210020AE
:10B1C0002E2E5C6D61696E2E630000000030000061
:10B1D0000400FA0500ED00E055B1030071B1030071
:10B1E0002E2E5C2E2E5C2E2E5C2E2E5C2E2E5C497E
:10B1F0006E636C7564655C6170705F636F6D6D6FBD
:10B200006E5C6170705F74696D65722E680000001D
:10B210002E2E5C2E2E5C2E2E5C2E2E5C2E2E5C494D
:10B220006E636C7564655C73645F636F6D6D6F6E88
:10B230005C736F66746465766963655F68616E648C
:10B240006C65722E6800000070B5FA4D1E46AB6941
:10B2500086B01446002B20D028464078022902D020
:10B2600004291AD105E0052817D1324621460320CA
:10B2700012E0022811D11422EF4901A8FFF7BEFD08
:10B280000598009001A80FC800F07AFB03206870B1
:10B29000AB693246214602209847200003D0E7A23E
:10B2A0005D21FFF737FE06B070BD00B5E14987B0FC
:10B2B000012008700620694608710598009001A8D1
:10B2C0000FC800F05DFB07B000BD10B5D94C207869
:10B2D000002801D0082010BD206901F08BF900285A
:10B2E00003D0D6A28021FFF715FE0F21002289048A
:10B2F000206901F015F9041E03D0D0A28321FFF7C5
:10B3000009FE204610BDCB4910B5CA482431416121
:10B3100002214170C168243002F045F8002803D0B2
:10B32000C6A29921FFF7F6FD10BDC249C1481C31E4
:10B330004161032141708369002B03D00022114633
:10B3400002201847704700B587B001216846017197
:10B35000B84881886846C180032000038068059052
:10B36000C4484168029181680391C06804900598BF
:10B3700000900A46049B0299019800F001FB00200E
:10B38000A1E730B5BB4CAB4887B02430E16802F090
:10B390000AF8002803D0A9A2F321FFF7BBFDA548B6
:10B3A000E2681C3041680023083001F0CCFF050042
:10B3B0000ED10021684601719E4881886846C1808F
:10B3C000E06804900598009001A80FC800F0D8FA32
:10B3D000284607B030BD00B587B00321684601712B
:10B3E000944881886846C180A2484168029181687A
:10B3F0000391C0680490059800900A46049B029946
:10B40000019800F0BDFA00205DE7F0B58A4A91B0DE
:10B41000143207CA0DAB07C303263603B068EB210D
:10B420008902091A834C490847180025A57021464E
:10B43000A58024310DA801F06AFF002824D12146FF
:10B440002431B068486024390A46526ACA61EB2147
:10B450008902091A4908401821461C31486006A88B
:10B4600000F08EFB6846007FFE2802D13868401C41
:10B4700016D0EB20B1688002401A41086D481C309C
:10B4800001F091FF002802D0657011B0F0BD0520D9
:10B4900069460871059801AE00900FCE00F070FA71
:10B4A0006448754A0021103000F0F1FF002804D0F4
:10B4B000FF2162A24C31FFF72DFD0F2100228904EC
:10B4C000206901F02DF8002804D0FF215BA2503143
:10B4D000FFF720FD0120A56060700020D5E75549E9
:10B4E0008861704770B54268624814685368916813
:10B4F000D26804604360C26081600078440701D56F
:10B50000840705D19C0703D18C0701D1940701D092
:10B51000062070BD5B189A18464D05231B03EA6090
:10B52000994214D85549564CC30709D088687521EB
:10B53000C902081A90420AD35248206052480FE0CC
:10B540008968EB239B02591A4908914201D20C20C9
:10B5500070BD4E492160800701D54D4800E04D483F
:10B5600060606878012802D00826304670BDFFF779
:10B57000ACFE0600FAD12168E8688847F5E770B5A7
:10B58000050004D0287A800703D0102070BD0E205B
:10B5900070BD284C6078032805D0042803D0052806
:10B5A00003D0082070BD052060706868E1688600DF
:10B5B000A0688019884204D90020C043A0600C20F4
:10B5C00070BDFFF782FE0028FAD1A9683246A36851
:10B5D000606901F0B8FE0028F2D1A1688919A16064
:10B5E000E2689142ECD0092070BDF8B5114C0546D7
:10B5F0006078032802D0042805D101E0042060709F
:10B60000A068002801D00820F8BDFFF75EFE0028E2
:10B61000FAD1184B0021103308E0AA688E00965921
:10B62000A2789700521CDE51A270491C6A688A42B7
:10B63000F3D8F8BD0420002040E403002E2E5C2E39
:10B640002E5C2E2E5C2E2E5C2E2E5C536F7572633C
:10B65000655C626F6F746C6F616465725F64667560
:10B660005C6466755F6475616C5F62616E6B2E63AE
:10B6700000000000E8240020ABB20300003000000E
:10B680003020002007B3030047B303002BB30300AF
:10B69000D7B3030083B3030010B5884C6078052846
:10B6A0000CD106206070E168A068884206D1FFF7DF
:10B6B0000CFE002801D10721617010BD082010BDCB
:10B6C00010B57E484178072901D0082010BD0069D7
:10B6D00000F090FF002803D0794A7A49FFF71AFC5E
:10B6E00076482C304068804710BD00B587B00720F1
:10B6F000694608710598009001A80FC800F040F94C
:10B70000E1E5F8B51C4617460D46064600F0C1F8BF
:10B71000002817D001200003854207D92346291BA2
:10B72000301B1A46FFF7EDFF00280BD13A46294699
:10B73000304600F0B9F8002804D13A462946304690
:10B7400000F0A7F8F8BDF0B589B0684600F018FA27
:10B75000039800282AD001210903069A4018904234
:10B7600026D9501A45081046039A0C4687180246F7
:10B7700068001618001907900320000380680399D9
:10B7800088420DD261190846042200F08DF8002885
:10B790000CD121460422084600F086F8002805D185
:10B7A000BA1B2B4630460799FFF7ABFF09B0F0BD37
:10B7B000039A069800F078F8F8E700B58BB004A873
:10B7C00000F0DEF9089800280DD0079800280CD06A
:10B7D00007990A9840180190002108980091800864
:10B7E0000290684618DF0BB000BD0320000380689C
:10B7F000EB218902091A4908ECE700B58BB004A8CF
:10B8000000F0BEF908980028EDD0EB2107988902D6
:10B8100000280CD0079A0A98019180180290032200
:10B820000898009280080390684618DFDBE7032041
:10B83000000380680A1A5208EEE730B58FB06846F8
:10B8400000F09EF90398002814D001210903069AFC
:10B850004018904214D9501A43081046039A5C00CD
:10B8600082180019611803242403A468039DAC42C4
:10B8700002D20E200FB030BD121AFFF742FFF9E7D7
:10B8800003200BAB07C3039880080E900BA818DFAA
:10B89000F0E71FB5032301909008039000930291F5
:10B8A000684618DF04B010BD1FB501230190900851
:10B8B000039000930291684618DFF3E7042000200C
:10B8C0003CB603006A02000010B5BD480378012BA6
:10B8D00002D1022900D10170100003D0B9A2422187
:10B8E000FFF718FB10BD10B5B54C40DF002803D0A2
:10B8F000B4A25421FFF70EFB01F05AF82078022879
:10B9000003D0032801D00428EFD110BD38B500685A
:10B91000401C19D00024684600F07AF9009801789C
:10B92000012910D1418800290AD081680320000331
:10B930008068002201F024F900994988814201D1F0
:10B94000012400E00024204638BD10B504469C4880
:10B950001C21001D01F0A1FC002803D099A289211F
:10B96000FFF7D8FA964800231C222146001D01F05B
:10B9700003FC002803D093A28F21FFF7CBFA10BD60
:10B980000FB4F8B5684600F043F96846027E418B73
:10B9900001238B4CFF259848002A12D0012A16D08B
:10B9A000032A2AD00021022A36D0062A46D0042AA9
:10B9B0004ED0072A01D104202070F8BC08BC04B086
:10B9C00018474180099981600370057110E041803A
:10B9D000089A07998918099A89188160A521017028
:10B9E00005710799C1600899426101610A998161F5
:10B9F00023708148FFF7A9FFDFE700990A780270FA
:10BA00004A88428089688160AA2101710799C160D2
:10BA10000899016109990BE0009A1678A52E09D0C2
:10BA2000067056884680926882600571C160016127
:10BA30004161DDE7418081600570F6E701F014FEA9
:10BA4000002803D05FA2E121FFF764FA0320B3E7E7
:10BA5000418081600570009909790171C9E70EB5CF
:10BA6000664800901C2001900120029001F0EAFA43
:10BA7000002804D152496846091D01F00CFB0EBD97
:10BA800010B5FFF7C2FC002805D101F03FFF0446C6
:10BA9000FFF729FF204610BD70B511DF002804D044
:10BAA000FF2148A24931FFF735FA554900200A68BD
:10BAB000534B012180330C468440144204D0C50608
:10BAC000ED0E0C46AC401C60401C2028F3D3032430
:10BAD0002403A06813DF002804D0FF2139A24E31CF
:10BAE000FFF718FAA06800F08FF870BD08B5684637
:10BAF00000F08EF800980178A52904D00079AA28D2
:10BB000001D0002008BD012008BD10B5FFF795FE4B
:10BB1000002803D1FFF771FE00281ED0642001F039
:10BB200079FCFFF710FE002804D0FF2125A2733115
:10BB3000FFF7F0F9FFF781FE002804D0FF2121A2D2
:10BB40007631FFF7E7F9FFF738FE041E04D0FF2136
:10BB50001CA27931FFF7DEF9204610BD00B587B091
:10BB60001422284901A8FFF749F90598009001A877
:10BB70000FC8FFF705FFFFF7B6FE002007B000BDB6
:10BB800010B50F4988B0044600231C22091D6846E1
:10BB900001F035FB68460078207068464088608078
:10BBA0000298A0606846007920710398E0600498CC
:10BBB0002061059860610698A06108B010BD000082
:10BBC000382000202E2E5C2E2E5C2E2E5C2E2E5C1D
:10BBD0002E2E5C536F757263655C626F6F746C6F51
:10BBE000616465725F6466755C626F6F746C6F61CF
:10BBF0006465722E6300000038250020C9B8030078
:10BC000000E100E060E4030010B5FFF7C7F810BDE5
:10BC1000014901607047000000FC030030B585B0A9
:10BC2000002822D00388FD4CA34220D0FC4B1B7877
:10BC3000002B1CD0FA4B10255B1C1D705970002482
:10BC400001259A70032269460A82009401940294A5
:10BC50000394C2890A808D708C8004A90291039399
:10BC600000886946A6DF05B030BD0E20FBE708203E
:10BC7000F9E7F0B589B004460227684607700D461B
:10BC80008783608A08AB07AA0021A5DF0026002869
:10BC900004D0616A00291AD0884718E06846008CF1
:10BCA000C007C00F13D06846868020886946A8DF89
:10BCB000002812D1A97E284601221B300B0002F079
:10BCC000AAFB09430E1F2225272A412C4300FF20EF
:10BCD000FE30694688802088A8DF09B0F0BD69463B
:10BCE0000E74298B022902D26846067502E0694665
:10BCF0000A750690226A04A9204690470020ECE7C6
:10BD000068460274F6E768460774F3E7032000E02C
:10BD10000420694612E00520FBE7298B032905D2A0
:10BD2000032208212046FFF779FFD6E74178027801
:10BD3000080210436946888202D006200874D9E7B9
:10BD40000720FBE70920E4E70322EBE730B585B0E5
:10BD50000D46040032D0002D30D0286800282DD0A8
:10BD60000020C043AF4B20800FCB049301AB07C32F
:10BD7000AD486946088001A8811E63DF00281CD1F8
:10BD8000A21C69460120A0DF002816D168468078F1
:10BD90002071204600F0C0F800280ED1204600F0A7
:10BDA000FBF8002809D1286820626868002800D0C4
:10BDB00060629B4901200870002054E70E2052E782
:10BDC0003EB5002820D000291ED0026A002A1BD0D0
:10BDD0000A88102A19D0112A28D0502A17D0512A9F
:10BDE00012D104468879891D02280DD14888E2893C
:10BDF000904209D12046891CFFF73BFF002803D061
:10BE0000616A002900D088473EBD898810E0CA8851
:10BE1000C3889A42F8D108226B461A708A7F1A7139
:10BE200020310291026A694690473EBD0021C94314
:10BE300001803EBDF0B585B00A4605002DD02888AA
:10BE4000764988422BD076480078002827D0744C59
:10BE50001020641C2070072060700127A770032148
:10BE6000684601820026E11C104600F04CF80146AD
:10BE70006846008A09186846018200960196029673
:10BE80000396E98901808770868004A80394029054
:10BE900028886946A6DF05B0F0BD0E20FBE7082024
:10BEA000F9E7F0B585B00A46050028D028885B4937
:10BEB000884226D05A480078002822D0584C1120B9
:10BEC000641C20700127684607820026611C10460A
:10BED00000F019F801466846008A09186846018290
:10BEE0000096019602960396E98901808770868004
:10BEF00004A80394029028886946A6DFCBE70E20A9
:10BF0000C9E70820C7E70870020A4A70020C8A7065
:10BF1000000EC8700420704730B58FB005461C2154
:10BF2000684602F082F969460878042108436946A8
:10BF300008700024019403940494059406942879CD
:10BF400008A9887038486946801C0884601C00076E
:10BF50000794000F0C77103048778A7FF920024051
:10BF6000F720921C0240EF200240012002438A7712
:10BF7000142109A802F059F908A8099007A80A9005
:10BF800069468C851420CC8508860D946888AB1D85
:10BF900009AAA2DF0FB030BD30B58FB005461C2115
:10BFA000684602F042F969460878082108431022E1
:10BFB0001043694608700024019403940494059486
:10BFC0000694287908A9887017486946401C088497
:10BFD000601C00070794000F0C7710304877887FAB
:10BFE000F9210840F721801C084010430121084333
:10BFF00069468877142109A802F017F908A8099062
:10C0000007A80A9069468C851720CC8508860D9470
:10C010002B4668880E3309AAA2DFBBE7FFFF0000AA
:10C020004420002074E40300301500004B48002138
:10C0300001704C484A4A02608160C1600161082277
:10C040004161426081610846704710B500291DD0EA
:10C0500000220A60434A5368002B1BD0202817D8BF
:10C060005B1E5360D0682423401CD06010691468A4
:10C070004343E3180B60012383409169401C19433B
:10C080004007400F91611061002010BD0E2010BDCF
:10C090000C2010BD042010BDF0B5324A0646916850
:10C0A00000292AD057691020791A4907490F1468C6
:10C0B0000B4624254D436519B54206D101249569E7
:10C0C0008C4065400020956104E0491C4907490FF8
:10C0D0008F42EED1491C4E07760F956901210C461F
:10C0E0009C4025420AD19368002B07D05B1E9360C9
:10C0F00053685B1C53603346F1E70420F0BD194AD6
:10C100002423117C1268491E4907490F59432031E5
:10C1100050500020704770B500281AD0002918D060
:10C12000104AD368002B16D05B1ED3609368242678
:10C130005B1C9360536915681C467343EE182033EB
:10C140000660E858641C08606007400F50610020DA
:10C1500070BD0E2070BD042070BD00004C2000207A
:10C1600054250020742600208307FF22DB0E9A400E
:10C170008907090E994000280BDA0007000F0838DC
:10C180008308FF489B001818C36993430B43C3619E
:10C1900070478308FB489B001B18186890430843AE
:10C1A0001860704770B50124F74960040860F749CA
:10C1B00040108860F54940398860F54D6C602F204B
:10C1C000FEF7FCFDAC60F34D00242F206C61FEF700
:10C1D000F5FD2C7170BDF0B5EE4F2421BC684143D4
:10C1E0000D1939694A1C09D024224A4316196B6873
:10C1F0007268934204D8D21A726029623861F0BD25
:10C200000A4602E00A46396A9B1B4E1C0BD02426C4
:10C210004E4337197E689E42F4D324264E43361986
:10C220007768FF1A77606B60296224214A431119ED
:10C230000862F0BDF8B5D74C2569681C36D0D648E1
:10C24000002640686169401A07023F0A1AE024206C
:10C250004543A0682A185068B84215D8A3693F1A08
:10C260008619156A002B0AD0D16990699847002871
:10C2700008D0FF21C9A26431FEF74CFE02E09169AB
:10C28000D0698847681CE2D1A178E078814206D164
:10C29000401CC0B2E070022801D10020E070BD490E
:10C2A0000006800D1C310E5000F0CDF9F8BDF8B538
:10C2B0000446B84801690091467856E0B548F10057
:10C2C000C2688D184BE0601C07D0B24A24219268E6
:10C2D0006143204689180C6A20E0287818214143E0
:10C2E0006A68401CC0B252182870A978884201D1EF
:10C2F00000202870A74B506824219B684143C9182F
:10C300001378012B2DD10B7D002B2AD193688B60E4
:10C31000D368CB6013690B615269CA619D4A8F680B
:10C320005369BC46FA1A1202A84F120ABA4202D244
:10C33000CB68D21809E062469A1A1202CB68120A38
:10C34000934201D99A1A00E000224A6000228A60D2
:10C35000CA6001220A75921E0A62FFF73CFF601C48
:10C36000B1D1287869788842ADD13046761EF6B2D0
:10C370000028A3D1874801690098814201D001209B
:10C38000F8BD0020F8BD9249002008604860886030
:10C39000C8608F494039086048604BE7F0B500201D
:10C3A00087B0C04302907B4846690569684600F043
:10C3B0004FF9074600F069F90446002F08D002AA99
:10C3C0003146009800F0A9F90298FFF770FF06E0E7
:10C3D0000298FFF76CFF002801D1002C02D02846FC
:10C3E00000F0C4F907B0F0BDFFB59807002481B094
:10C3F0001E4615460F4600280BD1002E09D0FFF728
:10C40000D1FE64490A9888610F70324600208E6020
:10C4100008E0072005B0F0BD24234343D4549B1803
:10C420001C75401CB842F7DB24204743BB1903208E
:10C4300048700F461846CB60194618300022182362
:10C440002E465E43D3005B181C705C709D70586074
:10C450003018521C032AF5DB0020C0433861BC7041
:10C46000FC7001245B482405046003211420FFF7BD
:10C470007BFE454880380460474C0198A06003214A
:10C480001120FFF771FE606878610020C2E770B587
:10C49000404CA568002D06D0002A06D0002804D004
:10C4A0000023247809E0082070BD072070BD2426F1
:10C4B0005E43AE5D002E04D05B1CA342F7DB04207C
:10C4C00070BD242401265C432E5564196170A2615D
:10C4D0000360002070BD2A494868C005C00D19D00E
:10C4E000103840B2002807DA0207120F083A920803
:10C4F00092005118C96904E08108224A890089180C
:10C5000009688007C00EC1400806800F012803D0CB
:10C51000032803D002207047002070470120704795
:10C52000FEB504461B48174682680D46002A0CD00B
:10C5300001788C4201D2052D01D20720FEBD214693
:10C5400024235943535C012B01D00820FEBD8818D9
:10C55000407801284AD00026FFF7BDFFC0000D49F2
:10C560000190C9684018694600F046F900283FD09C
:10C57000012101700849446049680830E2C02BE09D
:10C5800000ED00E000E400E080E100E04013014045
:10C590000010014054200020001501402E2E5C2E7A
:10C5A0002E5C2E2E5C2E2E5C2E2E5C536F757263CD
:10C5B000655C6170705F636F6D6D6F6E5C617070F4
:10C5C0005F74696D65722E6300000000FFFF7F00DD
:10C5D0004011014080E200E0A9490198C968411872
:10C5E0000098487000F02FF80020FEBD2E46B3E7FB
:10C5F0000420FEBDF8B5A24D0446A868002809D065
:10C6000029788C4201D30720F8BD24216143405C86
:10C61000012801D00820F8BDFFF75DFFC600E868DB
:10C620006946301800F0E8F800280AD002210170AD
:10C630004460E86831180098487000F004F8002061
:10C64000F8BD0420F8BD01208E4900050860704740
:10C6500010B58B4900238A78CC78A24212D0521CA4
:10C66000D2B28A70022A00D18B708A78844B9200F1
:10C670001C339A580260486910180002000A486189
:10C68000012010BD0360002010BDF8B57C48016991
:10C690000091457833E07A48E900C0680E18347894
:10C6A0002AE0182060437168641C0818B178E4B26D
:10C6B000A14200D100240178022902D003291BD114
:10C6C00013E06F4A40682421926841438F18397DF6
:10C6D000002911D000F0A2F8002038750CE02427C2
:10C6E0007843C0180275006A03E0654900228B6830
:10C6F0000869471CF3D108617078A042D1D128465F
:10C700006D1EEDB20028C6D15D48016900988142D6
:10C7100001D00120F8BD0020F8BDF7B5584C002528
:10C72000A76823691EE024215943C9194E6886422F
:10C7300002D9301A486017E0801B751900264E6038
:10C740000E750E699C460B6AB646002E0AD0019EF5
:10C7500076193602360A8E607646CE6016680E620C
:10C7600061461160591CDED12361FEBDF8B5444815
:10C7700001694A1C3DD024225143826889184E68C1
:10C7800041494C6847690079E11B0D022D0AED1CF7
:10C79000002815D101203D4A000450603B4A403A30
:10C7A0005060384940008031086039490860394993
:10C7B000012008602F20FEF701FB3149012008719C
:10C7C000B54200D23546E81900022F49000A40312F
:10C7D00008602D494968001B091B0902090A00026B
:10C7E000000AC91C814203D901202649400408607F
:10C7F000F8BDFFF7D7FCF8BD42788378521C93420E
:10C8000000D100220378934201D1002070470A60D2
:10C8100041684078182250430818704770B5184E88
:10C820003569B26829460C4606E0844207D02546A1
:10C8300024235C43A3181C6A631CF6D170BD002B33
:10C84000FCD0A54208D1242041438818006A3061F9
:10C85000401C01D1FFF7A6FCB168242044436018B6
:10C86000242342685D43006A6B181862431CE5D0BC
:10C8700024235843401841688918416070BD000066
:10C880005420002000E200E0001501404013014068
:10C8900000E100E00010014030B5CB0008339DB24C
:10C8A00093070024002B01D0072030BD574B9A601E
:10C8B0005219DA605C701C7058809980002030BD7D
:10C8C000F7B5524C82B060880F4681426ED8002086
:10C8D000694608704F494E4E4868C005C00D18D0D3
:10C8E000103840B2002807DA0207120F083A9208FF
:10C8F00092005118C96904E08108474A89008918E3
:10C9000009688007C00EC1400806850F012D01D1BE
:10C910000AE0042568462EDF02280BD0002803D049
:10C920003EA25921FEF7F6FA6178A088814203D22F
:10C93000491C02E072B6F7E700212278C9B29142A1
:10C9400007D066786178814201DA491C00E0002155
:10C950006170012D0BD062B6684600782FDF022887
:10C9600005D0002803D02DA26121FEF7D3FA284874
:10C97000864219D0A068F500049941510299002916
:10C980000CD0002F0AD060883A464643E068301841
:10C9900001F0ECFBA0682818878002E0002128182D
:10C9A0008180002005B0F0BD0420FBE70920F9E7F5
:10C9B0000EB504E068468188029A0098904702AA62
:10C9C00001A9684600F003F80028F3D00EBD70B549
:10C9D0000E4B05245D781E78B54215D01D781C7865
:10C9E0009E88B44201DA641C00E000241C705C885C
:10C9F000DE686C43A41904609B68E800C418A4882E
:10CA00000C80185800241060204670BD782000204B
:10CA1000FFFF000000ED00E000E400E02E2E5C2EA1
:10CA20002E5C2E2E5C2E2E5C2E2E5C536F75726348
:10CA3000655C6170705F636F6D6D6F6E5C6170706F
:10CA40005F7363686564756C65722E630000000037
:10CA5000F0B500220123032636041F4697403942D1
:10CA600012D0C5683D4203D1012464043D4301E076
:10CA70003446BD43C5603A4D97007D192F68B743D2
:10CA80002F602F6827432F60521C202AE5D3F0BD6A
:10CA9000F8B53448056934490020C863074632E0D8
:10CAA00014213A464A434168806854180121B9402C
:10CAB000014226D0E068C64320686E4006403146F9
:10CAC0002046FFF7C5FF2748006968400CD00543A2
:10CAD000E0682168C0436840084001460090204655
:10CAE000FFF7B6FF009806433046A168A84301400F
:10CAF0002A4660683240104002460A4301D022694B
:10CB000090477F1CFFB2194841788F42C8D3F8BDC7
:10CB100010B5002903D08A070024002A01D007207D
:10CB200010BD124A0B4651601070142154704143DD
:10CB30001846946001F079FB00200D49C0438860DD
:10CB40000C48402101600C4A1068FF231B049843E5
:10CB50000B041843106009480160002010BD00005C
:10CB60000007005000050050406100408820002070
:10CB70000063004080E200E004E400E000E100E047
:10CB800010B50446002A02D01088002210E00A489E
:10CB9000FBE7030A00020343A05C584003061B0F97
:10CBA00043401803584083B21806C00C5840521C2A
:10CBB0008A42EED310BD0000FFFF000010B508460A
:10CBC0001146FEF7ADF910BDF8B5394C20780028B4
:10CBD00037D02069002807D00026E068002805D05B
:10CBE0000025002E04D013E00126F6E70125F8E722
:10CBF000684651DF052806D0002806D02DA26921FD
:10CC0000FEF788F904E0012602E0216900988847D0
:10CC1000002D12D1608869460880A06861DF052870
:10CC200006D0002806D023A28021FEF773F904E085
:10CC3000012502E0E168A0688847002ED8D0002DC9
:10CC4000CFD0F8BD70B5002901D08C0701D00720E6
:10CC500070BD174C0125A16062802449636010DF1C
:10CC60000028F5D12570162026DF70BD002803D0DE
:10CC70000F49C860002070470E207047002803D07D
:10CC80000B490861002070470E20704710B5084816
:10CC90004068002808D08047002804D0FF2105A262
:10CCA0003331FEF737F910BDFFF78EFF10BD0000DE
:10CCB000942000202E2E5C2E2E5C2E2E5C2E2E5CC0
:10CCC0002E2E5C536F757263655C73645F636F6D6A
:10CCD0006D6F6E5C736F66746465766963655F68BB
:10CCE000616E646C65722E6300000000BDCB0300B2
:10CCF00018225043FE4A0021801801718160416171
:10CD0000012281610261C1607047FFB581B0F94CB9
:10CD1000049B039A054666781A4303200092002E6E
:10CD200003D1002A0ED0012262706778039A01268F
:10CD3000360792003B0001F06EFB072707162940DB
:10CD4000526127000222EFE77069326992B25043C4
:10CD5000326933691204920C9BB2594321DF0028D7
:10CD600012D102210FE0084620DF00280CD10399E0
:10CD7000002901D0032106E00499002916D1297861
:10CD8000042946D017E0617005B0F0BD70693269C2
:10CD900092B25043326993B24B4301461846039A0C
:10CDA00021DF0028F0D10499002901D00421EAE70D
:10CDB0002978042920D00521E5E7736930693669AF
:10CDC00080B2434368681B189B18B6B24E433018B4
:10CDD00080181946049A21DF0028E9D0D4E7306989
:10CDE00080B24843696880188A08696921DF002891
:10CDF000CAD1009900290CD00621C4E770693169B5
:10CE000089B24843316989B201F022FA20DF002853
:10CE1000BAD10721B7E7F8B5B54918230A780F202A
:10CE20005A435418B34922796669241DCF68022AEF
:10CE30001BD001252D07042A2AD0052A5BD1286999
:10CE400081B2304601F004FA0146A36828699A19B4
:10CE500080B24843101A8208606818188619286939
:10CE60004B1C80B25843801B34E0B8026268616991
:10CE7000121A0918A3683018181801239B029A4245
:10CE800002D2920821DF31E0FF22013221DF2DE0C2
:10CE9000E268974914205043F4314018001D0BC834
:10CEA000B04203D160685943814218D0022A16D09B
:10CEB000286981B2304601F0CBF90146286980B279
:10CEC0004843301A820828694B1C80B25843636873
:10CED0009B19C01A83082046FFF717FF06E0286950
:10CEE00081B2304601F0B4F9C01920DF002802D128
:10CEF0007F4901228A70F8BDF8B57D4C069E6578A1
:10CF00000A2D1DD027787D19EDB20A2D01D30A3DD7
:10CF1000EDB218277D432D192871AA6103C9EE606F
:10CF2000AB6069612861A1780020002904D1FFF776
:10CF300072FF112800D100206178491C6170F8BD92
:10CF40000420F8BD38B502466948182301785943D2
:10CF5000081803690179022B0AD014246343644C36
:10CF6000F434E4588368009383691030A04738BDD7
:10CF7000604B10331C68F5E7F8B55D4B99780129D3
:10CF800014D100255B499D704A78082A05D00228F3
:10CF90000FD003280AD10D2006E0022807D00D701B
:10CFA00000F025FA002801D0FFF7CCFFF8BD4D7046
:10CFB000F6E74F48182403784E496343CC681818A5
:10CFC000641CCC600379001D022B05D14668A102C8
:10CFD000B14201D3012700E00027052B01D1072A28
:10CFE00003D00021042B02D003E00121FAE7072A35
:10CFF00003D00026042B02D007E00126FAE74068A0
:10D00000A302834201D3002A1AD0002031430143F6
:10D010003943C5D0374E28467570FFF793FF344C1F
:10D020002078FFF765FEF5606078401E607020781C
:10D03000401CC0B220700A28B2D30A382070AFE773
:10D040000120E3E770B500252A4C2948E5606570AA
:10D050000570457085702E463046FFF749FE761CF8
:10D060000A2EF9D301221207656051692846126918
:10D07000491E92B25143E560A1601D49F4310D6033
:10D080008D600D61CD601B4910310D6088800121DC
:10D090002170607070BDF8B5164A044610780E46CF
:10D0A000002830D0002C30D0002E2ED02068002850
:10D0B0002BD0012000076768016989B28F4228D808
:10D0C000102F26D3A168002923D09568794343699E
:10D0D0004A19006980B243439A421AD801200007D6
:10D0E000006980B2814212D901200007006903E083
:10D0F00090260020A820002080B2394601F0A8F830
:10D10000002906D103E00820F8BD0E20F8BDB807BD
:10D1100001D00720F8BDBD49486801281CD00F4642
:10D1200021C61421BA4A41438E18756023685350B2
:10D130006168B160A168F160A26861680023514331
:10D14000012212075B1C14699BB2A4B28C4205D267
:10D150001469A4B2091B02E00420F8BD002114697F
:10D16000A4B265191469A4B28C42EBD9BD60401C0D
:10D17000336178600020F8BDF8B50446A3481E4628
:10D18000007815460F46002807D0002F07D0002C46
:10D1900005D02068002817D103E00820F8BD0E2034
:10D1A000F8BD9B48016800290ED0C26881684068BC
:10D1B0004A4310186268904206D9002D04D0A94253
:10D1C00002D3A819884201D90720F8BD384600F0DB
:10D1D00008F9002811D0304600F003F900280CD0DF
:10D1E000606800F0FEF8002807D02B463A4621463A
:10D1F00002200096FFF780FEF8BD1020F8BDFFB5B5
:10D20000824881B000781F4616460D46002808D097
:10D21000002D08D00198002805D02868002817D1D3
:10D2200003E00820B0E50E20AEE5794C2068002828
:10D230000ED0E168A0686268414389186A6891422B
:10D2400006D9002E04D0B04202D3F119814201D98F
:10D25000072099E5019800F0C4F800281BD0384653
:10D2600000F0BFF8002816D0686800F0BAF800286F
:10D2700011D068683246C119019800F077FF009616
:10D280002868142148432458002203212846019B82
:10D29000A047002078E5102076E5F8B505465B4804
:10D2A0000F460078002805D0002D05D028680028FA
:10D2B00021D103E00820F8BD0E20F8BD544C002613
:10D2C0002068002817D0A168E068484361684118C9
:10D2D000686881420FD900F084F800280DD02968D1
:10D2E00014225143091968684A688968801A00F055
:10D2F000AFFF002903D00720F8BD1020F8BD3B4642
:10D300000022294604200096FFF7F6FDF8BD3F4AAB
:10D310001278002A0DD000280DD000290BD0026809
:10D32000002A08D0394A10321368002B05D0042097
:10D330007047082070470E20704702230B6000687A
:10D34000106000207047F8B5044630481E4600784B
:10D3500017460D46002807D0002D07D0002C05D019
:10D36000206802281BD103E00820F8BD0E20F8BD7C
:10D37000264810300068002811D0084600F031F827
:10D3800000280ED0304600F02CF8002809D03B468B
:10D390002A46214602200096FFF7AEFDF8BD072081
:10D3A000F8BD1020F8BD08B5184A1278002A05D03B
:10D3B000002805D00268022A11D103E0082008BD28
:10D3C0000E2008BD114A10321268002A07D00B4601
:10D3D0000022014604200092FFF78EFD08BD0720C1
:10D3E00008BD800701D00020704701207047084920
:10D3F00010B5F43949780020002906D0FFF70BFD5D
:10D40000002802D0112800D1002010BDA820002043
:10D410008427002031B5054C04E0401E00902046D2
:10D42000FDF7DCFC00980028F7D138BDE7030000C9
:10D4300008280CD004DC002807D006280FD108E00B
:10D440000B280AD00C280AD105E0012070470220E1
:10D4500070470320704704207047042901D006203C
:10D4600070470520704710B50B46022819D00328D5
:10D4700016D100290BD0F648F649C08888420FD053
:10D48000132176DF00280BD0F3A2A42106E010467A
:10D49000FEF702FE002803D0EFA2AA21FDF73AFD15
:10D4A00010BD01211846FFF7C3FF02460121F948CC
:10D4B000FEF7B4FB0028F3D0E7A2B521EEE710B5E4
:10D4C0000A46044603211046FFF7B2FF0246032135
:10D4D0002046FEF7A3FB002803D0DFA2CF21FDF7F3
:10D4E00019FD10BD30B5054687B0002000900190B1
:10D4F00002900390D6486A4600791070E64A106898
:10D500009268049068460692059008790C2825D008
:10D51000042809D0032201212846FEF77FFB0028BA
:10D520001AD0CDA2ED2115E0886800F023FA03900F
:10D5300004A8FDF7D7FF00280ED00121FFF778FFE0
:10D54000024601212846FEF769FB002804D0FF218E
:10D55000C1A20E31FDF7DEFC07B030BD8C6820465D
:10D5600000F008FA0190201D00F004FA0290204615
:10D570000830DAE7F0B5054608790E4685B0810730
:10D580000AD0032211462846FEF748FB00281FD088
:10D59000FF21B1A2543143E0AD4900901031FEF7B4
:10D5A00054FD010011D1AA4CB168009A206900F025
:10D5B000DDFD0098FEF7A3FD010006D12046694677
:10D5C0001030FEF7A8FD010004D02846FFF777FFD2
:10D5D00005B0F0BD032001900098800802902069FA
:10D5E000039001A8FDF7CBFF07000BD0092F1AD03D
:10D5F0002069FEF751FD010002D02846FFF75FFFCA
:10D600003946E2E73079E16801224018E060032101
:10D610002846FEF703FB0028DAD0FF218EA28431D2
:10D62000FDF778FCD4E73079E1684118E160607873
:10D630000028CDD06089401E0004000C6081C7D155
:10D640002846FEF72EFC002804D0FF2182A2953147
:10D65000FDF760FC20896081BAE710B5FF217EA24A
:10D66000D031FDF757FC10BD10B5794C7949E088F1
:10D67000884208D0132176DF002815D076A287498A
:10D68000FDF748FC10E0A07800280DD074DF0028DA
:10D6900004D0824982A2FD39FDF73CFC01208F496C
:10D6A000400588600020A07000F09FFA002804D098
:10D6B0006D2169A2C900FDF72DFC002010BD70B5D9
:10D6C0000D7804460120624A2B0000F0A4FE0A2FC8
:10D6D000393B0615234F543E5822FDF7DDFF042148
:10D6E000FFF7A6FE024604212046FEF797FA00281F
:10D6F0000FD059A27A494BE0FFF7B6FF002804D0BB
:10D70000774955A2491DFDF705FCFDF7D9FF002813
:10D7100009D170BDFFF7A8FF002804D070494EA2C0
:10D720001231FDF7F7FBFDF7E0FF70BDD07008790F
:10D73000002803D088680078107170BD0420FBE7D2
:10D74000022000E00320D07070BDD2782046012A6C
:10D7500006D0022A07D0032AF6D1FFF70BFF70BDCF
:10D76000FFF7C0FE70BD00F00FF970BD50708888E3
:10D770001081508170BD00205070108170BD204616
:10D78000D168FEF757FB0028F8D0554932A23C314A
:10D79000FDF7C0FB70BD10B52D4CA07800280ED150
:10D7A0003C48143873DF002804D025212AA209013F
:10D7B000FDF7B0FB0120494A4105D160A07010BDC2
:10D7C00070B5234C0588E388132D2CD00ADC454A1C
:10D7D0004249102D18D0112D15D18A6020780028CB
:10D7E0001BD01CE0522D29D0552D0CD1807900285A
:10D7F00009D11321184676DF002804D0384916A233
:10D800009831FDF787FB70BDCA60012252058A601E
:10D810008088E0800020A07070BDFFF7BCFF002072
:10D82000C043E08070BD0A4A1846143200217FDFF1
:10D830000028F7D02A4908A29031E2E700221146D9
:10D840001846A9DF0028EDD0254903A29E31D8E76C
:10D85000C0200020FFFF00002E2E5C2E2E5C2E2EFE
:10D860005C2E2E5C2E2E5C536F757263655C626F4E
:10D870006F746C6F616465725F6466755C64667515
:10D880005F7472616E73706F72745F626C652E6329
:10D8900000000000AC27002084E403005F030000C8
:10D8A0002E2E5C2E2E5C2E2E5C2E2E5C2E2E5C538D
:10D8B0006F757263655C626F6F746C6F61646572C3
:10D8C0005F6466755C6466755F7472616E73706FB9
:10D8D00072745F626C652E630000000000050050EA
:10D8E000010200000000400010B5044600F0B0F94D
:10D8F00021468748FEF764FA2046FFF761FF10BD16
:10D9000010B5844A8449FDF705FB10BD1CB5834959
:10D910000020C870824903200860091D0860804902
:10D920000C3108607F48FFF7A1F9002821D17E481B
:10D93000FDF7D5FDFEF77AFB00281AD100F077F845
:10D940007A4800907A48019069467148FEF7FEF9DE
:10D95000002805D06F4AC92148328900FDF7DAFA5C
:10D9600000F08CF800F041F800F0BFF8FFF713FF6B
:10D9700000201CBD10B5044600F059FC0002E178FF
:10D98000000A0906084310BDFEB5044601200090B8
:10D99000886802900879002283070ED08007800FE4
:10D9A0000422121A0020034605E00E79029D361863
:10D9B000B600AB51401C9042F7D30879801880081C
:10D9C00001906846FDF711FE0221FFF731FD024686
:10D9D00002212046FEF722F9002805D04D4AFF21FA
:10D9E00048324031FDF796FAFEBD00B587B01C21E4
:10D9F000684600F01AFC4F4901910121890300207B
:10DA000002910090032269460A73C8810874059048
:10DA100049480690684600F0C4F8002805D03D4A01
:10DA2000FF214832E731FDF775FA07B000BD0EB5AA
:10DA3000112069460872082240A102A87CDF002854
:10DA400005D0344A344948323E39FDF763FA0020A4
:10DA500000900C22694601900A8018224A80888032
:10DA6000FF209130C88068467ADF002805D0294A17
:10DA7000294948323439FDF74DFA0EBD10B590B042
:10DA800006216846017122480179684681702E4955
:10DA90000180382102A800F0C8FB0221684601720B
:10DAA000002484720121818101A8049068460183C9
:10DAB0000790214602A800F03BFA002805D0154A3D
:10DAC000154948321639FDF725FA11481421143842
:10DAD00000F0ABFB0E48FF21143804704460047260
:10DAE00091310182448210B010BD0C491E201431C6
:10DAF0000880887801221043E1221040DF220C3098
:10DB0000104088700720C87010200871704700000E
:10DB1000AC27002058D8030011030000C0200020CB
:10DB200054070050E9D8030067D40300BFD60300B0
:10DB300001D90300CD0C00005BD6030044465531EB
:10DB400042303631000000003015000038B5684919
:10DB5000684A488890420FD04A78674C521CD2B22B
:10DB60004A70237B934208D3083175DF002803D025
:10DB7000A169002900D0884738BD00254D70217C5F
:10DB8000002907D03B2176DF002803D0A1690029B6
:10DB900000D0884761690029EED068460570884743
:10DBA00038BD70B5054601461C225348FDF726F9DD
:10DBB0004F4C002626702968002907D00822A0189B
:10DBC00000F0D4FA204608307ADF02E048480830F6
:10DBD0007BDF002808D1401E608045486670474AB8
:10DBE0000021001DFEF753FC70BD10B54048406891
:10DBF000FEF700FD10BDF8B53D48103000F06BF8A1
:10DC000000263B4D3C4C002807D0616900291BD001
:10DC100001206A461070684615E02878002805D073
:10DC20006169002910D0684606700CE06878002809
:10DC30000CD0A16800226868FEF772FC002803D0AF
:10DC4000A169002900D088472E70F8BD6168F1E70E
:10DC5000F8B5294C02880027254DE689102A18D0EE
:10DC600029464968112A21D0122A2DD0502A0FD1D5
:10DC7000C288801DB2420BD1028B022A08D1C27E1B
:10DC8000837E10021843C007C00F13D0FFF7B3FF05
:10DC9000F8BD818869800146154808220E31103090
:10DCA00000F064FA6F70002EF0D0F8BD0020C04381
:10DCB00068806F700846FEF79DFC0028F5D0A169CA
:10DCC0000029F2D08847F8BD811D0948082210308C
:10DCD00000F04CFADAE741880548083002889142A2
:10DCE00004D34088814201D801207047002070474A
:10DCF000DC200020FFFF0000D42700204DDB0300C4
:10DD0000FFB583B0074600200C9C86462678054662
:10DD10003AE07868A90041180A88684682804988F4
:10DD2000C1800022694601A865DF002810D168463D
:10DD300001780598814226D17046002801D0002242
:10DD400000E002222078891841181F2902D90C20EE
:10DD500007B0F0BD7146002908D1401CC0B2411C7B
:10DD6000069B049A21701A54012086462178069851
:10DD70000A18694601A865DF0028E9D169462078BC
:10DD80000978401820706D1C3888A842C1DC7046A4
:10DD9000002804D020780699801B401E885500205A
:10DDA000D6E7F8B51546069C1E46074602220094A3
:10DDB000FFF7A6FF002806D1334610222946384631
:10DDC0000094FFF79DFFF8BDF7B582B00026054629
:10DDD000167000781446002805D02846039900F0F4
:10DDE000DFF806002DD1A87800281BD02078039FEB
:10DDF000001D1F2824D8684679DF002821D121780A
:10DE00000322481C20707A5421781922481C207063
:10DE10007A542078C1196846008800F0BCF821784F
:10DE200040182070A988002923D001208446AA68C0
:10DE30000398002A07D0227853189B1C1F2B04D963
:10DE40000C2005B0F0BD0720FBE71346521C2270E2
:10DE5000491CC15422786746511C2170875423788D
:10DE6000AA881818A96800F081F920782979401843
:10DE70002070E868002815D00021415622788C4691
:10DE8000D01C03991F28DBD8501C022320708B5410
:10DE900022780A23501C20708B5420786246431C41
:10DEA00023700A54288A002809D0284600940622A4
:10DEB00002211030039BFFF774FF0600C1D1288BAD
:10DEC000002809D028460094072203211830039B1C
:10DED000FFF767FF0600B4D1288C2F4620370028B3
:10DEE00008D00094152214213846039BFFF759FFF0
:10DEF0000600A6D1A86A002805D02246039900F0A2
:10DF000084F806009DD1E86A002805D022460399CE
:10DF100000F0BAF8060094D1387D002806D02246D9
:10DF20002846039900F0E2F806008AD1304688E7D7
:10DF300070B50D4692B000216A4611700724117128
:10DF4000002812D08188002905D08168002902D0DC
:10DF50000978490702D4204612B070BD02A9FFF724
:10DF600033FF0028F8D102AE00E00026002D0BD0D0
:10DF7000A8880028EFD101AA0AA92846FFF724FFA4
:10DF80000028E9D10AAA00E0002268460379017856
:10DF9000304672DFE0E70870000A487002207047E0
:10DFA000F8B514780746A01C15460E461F2803D85E
:10DFB0007878801C1F2801D90C20F8BD1D20001B7B
:10DFC00080B26946864608803019801C7DDF0028B3
:10DFD000F3D13878022805D168460088704501D809
:10DFE000092107E078780821002801D0704501D97F
:10DFF00068460088421C3255641CE2B2B15429784C
:10E00000801C081828700020F8BDF8B50D4611785E
:10E010000646881D14461F2801D90C20F8BD3388F8
:10E020000720062BFAD31927FF01BB4202D94E4A1B
:10E030009342F3D17288062AF0D3BA4202D94A4FEA
:10E04000BA42EBD1484FBB4203D0BA4201D093420F
:10E05000E4D8481C052220706A5420781222411C02
:10E0600021702A54207841193088FFF794FF2178D5
:10E070004018C0B2207041197088FFF78CFF2178DA
:10E08000401820700020F8BD70B5054600790E4696
:10E09000801C1446C0B21178821C8A181F2A01D92C
:10E0A0000C2070BD0A46491C2170401CB0542078D9
:10E0B000FF22411C21703254207881192888FFF7F3
:10E0C0006AFF21784018C0B22070AA88002A09D0BF
:10E0D000A968002908D0801900F048F8207829792B
:10E0E00040182070002070BD072070BDF7B582B0C9
:10E0F00002981446006B0F46002832D00298002583
:10E100002030009028E00298016B0C2068430E1824
:10E11000217830794A1C2270C01C7854207816224D
:10E12000411C21703A542078C1193088FFF733FF21
:10E1300021784018C0B22070B288002A09D0B16896
:10E1400000290ED0C01900F011F82078317940185C
:10E1500020706D1C0098EDB2007DA842D3D800203D
:10E160006FE607206DE60000FFFF0000F8B5042A07
:10E170002CD3830712D00B78491C0370401C521E0D
:10E1800083070BD00B78491C0370401C521E830779
:10E1900004D00B78491C0370401C521E8B079B0F48
:10E1A00005D0C91ADF002023DE1B08C90AE0FCF7EE
:10E1B00025FEF8BD1D4608C9FD401C46B4402C4351
:10E1C00010C0121F042AF5D2F308C91A521EF0D447
:10E1D0000B78491C0370401C521EEAD40B78491C72
:10E1E0000370401C012AE4D409780170F8BD01E0F5
:10E1F00004C0091F0429FBD28B0701D50280801CB3
:10E20000C90700D00270704700290BD0C30702D0A5
:10E210000270401C491E022904D3830702D50280E4
:10E22000801C891EE3E70022EEE70022DFE7037887
:10E23000C2781946437812061B0219438378C078C6
:10E240001B04194311430902090A000608437047D9
:10E25000002203098B422CD3030A8B4211D30023E3
:10E260009C464EE003460B433CD4002243088B42BD
:10E2700031D303098B421CD3030A8B4201D394464A
:10E280003FE0C3098B4201D3CB01C01A524183093D
:10E290008B4201D38B01C01A524143098B4201D3F7
:10E2A0004B01C01A524103098B4201D30B01C01A22
:10E2B0005241C3088B4201D3CB00C01A524183089C
:10E2C0008B4201D38B00C01A524143088B4201D3C9
:10E2D0004B00C01A5241411A00D201465241104629
:10E2E00070475DE0CA0F00D04942031000D340429E
:10E2F000534000229C4603098B422DD3030A8B42D4
:10E3000012D3FC22890112BA030A8B420CD3890171
:10E3100092118B4208D3890192118B4204D3890157
:10E320003AD0921100E08909C3098B4201D3CB0195
:10E33000C01A524183098B4201D38B01C01A52414A
:10E3400043098B4201D34B01C01A524103098B424E
:10E3500001D30B01C01A5241C3088B4201D3CB0039
:10E36000C01A524183088B4201D38B00C01A52411C
:10E37000D9D243088B4201D34B00C01A5241411AF3
:10E3800000D20146634652415B10104601D3404221
:10E39000002B00D54942704763465B1000D34042D2
:10E3A00001B50020C046C04602BD704770477047A7
:10E3B000754600F025F8AE46050069465346C0088C
:10E3C000C000854618B020B5FCF790FD60BC002762
:10E3D0004908B6460026C0C5C0C5C0C5C0C5C0C531
:10E3E000C0C5C0C5C0C5403D49008D46704710B589
:10E3F0000446C046C0462046FCF7ADFC10BD0000F8
:10E4000000487047F027002001491820ABBEFEE706
:10E4100026000200704730B47446641E2578641CE0
:10E42000AB4200D21D46635D5B00E31830BC184769
:10E4300002000000000000000000000000000000DA
:10E4400004000000000000000000000000000000C8
:10E450000000000049B203000000000000000000BE
:10E4600002000000000000000000000000000000AA
:10E470000000000023D1BCEA5F782315DEEF121202
:10E48000000000000200000000000000000000008A
:10E49000B0E4030000200020F400000004AD0300FD
:10E4A000A4E50300F42000205C13000020AD03006D
:10E4B0000024F40000000000000000000000000044
:10E4C000000000000000000000000000000000004C
:10E4D000000000000000000000000000000000003C
:10E4E000000000000000000000000000000000002C
:10E4F000000000000000000000000000000000001C
:10E50000000000000000000000000000000000000B
:10E5100000000000000000000000000000000000FB
:10E5200000000000000000000000000000000000EB
:10E5300000000000000000000000000000000000DB
:10E5400000000000000000000000000000000000CB
:10E5500000000000000000000000000000000000BB
:10E5600000000000000000000000000000000000AB
:10E57000000000000000FFFF00000000000000009D
:10E58000000000000000000000000000000000008B
:10E59000000000000000000000000000000000007B
:04E5A0000000000077
:020000041000EA
:0410140000AC030029
:040000050003ACC187
:00000001FF
