:020000040001F9
:10B00000C8350020D5B00100EFB00100F1B001005B
:10B010000000000000000000000000000000000030
:10B02000000000000000000000000000F3B001007C
:10B030000000000000000000F5B00100F7B00100C2
:10B04000D5B30100F9B0010011B50100F9B001005C
:10B05000F9B001000000000019B20100F9B00100D0
:10B06000F9B00100F9B00100F9B00100F9B0010038
:10B07000F9B00100F9B00100F9B00100F9B0010028
:10B08000F9B0010029B40100F9B00100F9B00100E4
:10B0900049B40100F9B0010051B40100F9B0010058
:10B0A000F9B00100F9B0010000000000000000004C
:10B0B0000000000000000000000000000000000090
:10B0C0000348854600F06AF800480047D5E70100CC
:10B0D000C83500200321094802680A430260084875
:10B0E00002680A4302600748804707480047FEE7B6
:10B0F000FEE7FEE7FEE7FEE7FEE70000240500406E
:10B100005405004071B40100C1B0010030B50B46D8
:10B11000014600202022012409E00D46D5409D4231
:10B1200005D31D469540491B2546954040191546B7
:10B13000521E002DF1DC30BD03460B439B0703D0AC
:10B1400009E008C9121F08C0042AFAD203E00B78EC
:10B150000370401C491C521EF9D27047D2B201E064
:10B160000270401C491EFBD270470022F6E710B562
:10B1700013460A4604461946FFF7F0FF204610BD65
:10B1800030B504460020034600E05B1C934203D226
:10B19000E05CCD5C401BF8D030BD0000064C0125C2
:10B1A000064E05E0E36807CC2B430C3C984710346F
:10B1B000B442F7D3FFF788FFF01F0200102002000F
:10B1C00070B58C180578401C6B075B0F01D10378B4
:10B1D000401C2A1106D10278401C03E006780E704C
:10B1E000401C491C5B1EF9D12B0705D40023521EBD
:10B1F0000DD40B70491CFAE70378401CCB1A921C43
:10B2000003E01D780D70491C5B1C521EF9D5A1424C
:10B21000D8D3002070BD0000F0B50024FF268BB00D
:10B220000136012527460694304603F0FBFE002830
:10B2300007D054484068284203D0304603F0EAFE65
:10B240002C43361D6D007F1CB6B2042FECD3FF25B6
:10B250007D35284603F0E6FE002809D0284603F095
:10B26000D9FE6807044306AA0121002003F0BEFEB0
:10B27000454D200714D00127002627420CD0434813
:10B28000B200111808690969C004C00E8903AA58E0
:10B29000890F002A00D090477F00761C042EECD343
:10B2A000002C6DDA00200890401E63E02819403021
:10B2B0000778B906890E009100214156491C49D0F2
:10B2C00009A9009803F00AFC002843D0B8090190AE
:10B2D000009801F091FB80002F580198002F02D0B8
:10B2E000032802D00DE0032834D1009808ABC2082F
:10B2F00041079446985C490F01228A4010436246F8
:10B300009854009805210907800040180721090278
:10B310004018006806A98003800F0290009803F08F
:10B32000DDFB0028029802D0022802D012E0032898
:10B3300010D10198032808D1029802281ED00221BA
:10B34000009803F036FE761CF6B2002F02D0019969
:10B350000098B847641C042CA8D3002E10D06A466D
:10B360000121002003F042FE06990098884207D090
:10B370000690089800263446099097E70321DFE7F6
:10B380000BB0F0BD00630040C02B00200065004002
:10B390008307FF22DB0E9A408907090E9940002897
:10B3A0000BDA0007000F0838830808489B001818BC
:10B3B000C36993430B43C3617047830804489B00F0
:10B3C0001B181868904308431860704700ED00E0B0
:10B3D00000E400E0F8B5FF20013003F087FB002413
:10B3E00001250E4E0E4F002807D00E4804600120A4
:10B3F000B0607D70002001F041FBFF20053003F0BC
:10B4000075FB002808D00748001D04600220B060CA
:10B41000BD70012001F032FBF8BD000000030040C8
:10B42000AC2B00200001004010B506490020086048
:10B4300048608860C860034940390860486006F089
:10B44000FDF910BD4011014010B506F069F910BDBD
:10B4500010B506484068002805D08047002801D074
:10B4600000F03EFA10BD02F059FE10BD3021002060
:10B4700010B502F0A1FE002805D01F491D48486004
:10B48000C8131E4988611E48018CC9B201290BD11D
:10B49000828C120708D1028D1206120F042A03D1E2
:10B4A000828D1206120F0AD0012921D1818C090741
:10B4B0001ED1018D0906090F0A2904D007E0114A9F
:10B4C00001219160F5E7828D1206120F05D00D293A
:10B4D0000ED1808D0006000F0AD10B4801680129AA
:10B4E00004D00A49016001680129FCD1C0214161F1
:10B4F00010BD0000DFFF07C000050040006C0040E9
:10B50000C00F00F00006004000EC064075930000FC
:10B5100010B50249024806F0ECF910BD082C0020D5
:10B520000020004030B47446641E2578641CAB4291
:10B5300000D21D46635D5B00E31830BC184702E093
:10B5400008C8121F08C1002AFAD1704770470020AE
:10B5500001E001C1121F002AFBD17047202804DA44
:10B56000012181400348014201D0012070470020A1
:10B5700070470000FC06FFBC10B500280CD0002965
:10B580000AD002780B789A4206D10622401C491C48
:10B59000FFF7F6FD002801D0002010BD012010BDEE
:10B5A000F7B584B006460025178815802030029034
:10B5B000407B1446002806D03A462146059800F004
:10B5C0001DFE050009D1B078002823D005988646D5
:10B5D0002088001DB84202D90C2007B0F0BD684693
:10B5E00079DF0028F9D12188032072465054208841
:10B5F0001921401C80B22080115420887146401CC3
:10B6000080B2208041186846008806F006FA21883A
:10B6100040182080F078002817D0218803230A469C
:10B62000F356C91C0598B942D6D802218154218805
:10B630000122491C89B2218042542188491C89B2C7
:10B64000218043542088401C20807068002817D037
:10B6500021880023C3560A46C91C0598B942BBD8A5
:10B660000221815421880A22491C89B22180425436
:10B670002188491C89B2218043542088401C2080A5
:10B68000308900280AD00094304601970622022112
:10B690000830059B06F01AFA05009ED1308A002872
:10B6A0000AD0009430460197072203211030059BF1
:10B6B00006F00CFA050090D1308B00280AD00094D7
:10B6C00030460197152214211830059B06F0FEF92B
:10B6D000050082D1306A002806D03B4622460599F3
:10B6E00001F034FA0500D8D1706A002806D03B4634
:10B6F0002246059903F026F90500CED10298007B79
:10B70000002807D03B4622463046059905F0A8FCA4
:10B710000500C2D13078002807D03B46224630468B
:10B72000059903F043F90500B7D1284655E7000015
:10B73000174A0021535C002B01D0012203E0491C71
:10B740000629F7D300221349012806D002280BD07E
:10B75000032810D0042818D112E04878002803D01C
:10B76000002A01D0012070478878002803D0002AE1
:10B7700001D002207047C878002801D0032070470C
:10B780000879002801D0042070470020704700008D
:10B7900029200020AC22002010B501220221002027
:10B7A00000F0ACFF002801D0072812D107220221A7
:10B7B000012000F0A3FF002801D0072809D10021B3
:10B7C0000A22084600F09AFF002801D0072800D17D
:10B7D000002010BDF0B50F468DB0002116466D4615
:10B7E0000F24621A825C6A54491C1029F9D3284636
:10B7F0000D211030FFF7B9FC0020221A395C5219D4
:10B80000401C11740328F8D368464DDF0020211A2C
:10B810004919203109783154401C0328F7D30DB061
:10B82000F0BD10B5022000F01FFE10BD70B5002461
:10B83000064D06E06968E000085C012103F0A0FA0B
:10B84000641C28788442F5D3002070BDC4200020F9
:10B85000F8B515460C460646052A01D20720F8BD64
:10B8600003F066FB002803D103F034FB0028F6D177
:10B87000104900204E600C70C8608D6008610E4D4C
:10B880000DE0E00069688019009181786A46517086
:10B8900000780A4A694603F0BFFA0028DFD1204643
:10B8A000641EE4B20028ECD1054A0021024800F0F1
:10B8B00041F8F8BDC4200020D41F020011DB0100B4
:10B8C0005DCD0100BFF34F8F04490348C860BFF34B
:10B8D0004F8F00BFFDE700000400FA0500ED00E017
:10B8E0000EB50021029000916A4601910148FFF7D0
:10B8F000E9FF0EBD0140000010B50D4C03E0401CF7
:10B9000000E0002020702078617881420FD02178FB
:10B910006088E26848438018A368CA00D1189A5822
:10B92000898890472078A1888842EADAE7E710BD45
:10B93000D8200020094B5B68002B07D0002A07D0D5
:10B94000002805D00068037C002B03D00820704736
:10B95000072070474174426100207047F8200020A2
:10B96000FFB507469007002581B01E461446002803
:10B9700025D1002C23D005F09DF83046114EF06003
:10B9800030461030057045700299817044607560D2
:10B99000357001240C4875702405046003211420BF
:10B9A000FFF7F6FC09480460094CA7600321112049
:10B9B000FFF7EEFC6068B060002005B0F0BD072026
:10B9C000FBE70000E820002080E200E000E100E06A
:10B9D00000150140FEB51F4B5B68002B30D00028DE
:10B9E0002ED0052901D20720FEBD4369002B27D0A8
:10B9F000437C012B26D0002702910446002569468E
:10BA000016460D70684600F03DF801A806F048F8AB
:10BA1000002819D0012101700F49446049688160F4
:10BA2000029907614661C16068460A490079487019
:10BA30006846007800F044F805F0B4FE2846FEBDE4
:10BA40000820FEBD0F46D7E768460425007800F0C1
:10BA500037F8F3E7F82000200015014010B5084939
:10BA6000496800290AD0002808D04169002905D07A
:10BA700000210174022105F0BDFE10BD082010BD9B
:10BA8000F820002030B5EFF3108172B6094A5468EF
:10BA90000123002C04D00370002900D162B630BD10
:10BAA0005360054B1D68054C254015601C60002245
:10BAB0000270F1E70C21002080E100E0FC06FFBCF1
:10BAC00008494A68002A0CD000280AD1EFF31080F8
:10BAD00072B60A68044B1A6000224A60002800D13E
:10BAE00062B670470C21002000E100E0F0B504468A
:10BAF0008BB0008800F01EFB0590208802F07CFAD5
:10BB00000646A0680090657A684605741E4F208836
:10BB10000022397800F05EFB0598002831D060796A
:10BB2000400710D50721304603F090FE002813D0BF
:10BB3000082269460A7422884A828E82069004A8E6
:10BB400001F008FA08E02088B97800F031FB0028FD
:10BB500002D0304602F03AFA03216846017121888A
:10BB6000C18060794007C10F68460172A079400723
:10BB7000C10F6846417201788172C57201A801F057
:10BB8000E9F90BB0F0BD0000A0200020F0B50C4694
:10BB900093B01F216A461180072600279180002854
:10BBA00009D0C17849070DD502A9FFF7F9FC002893
:10BBB00009D102AD01E000251780002C0ED0E078FD
:10BBC000002802D0304613B0F0BD01AA0AA92046D1
:10BBD000FFF7E6FC0028F6D10AAA02E06846002238
:10BBE000878068468088C3B268460088C1B228460C
:10BBF00072DFE8E7FFB581B01E460A9F13460400D6
:10BC000047D0002B45D0504D012028700020E8700F
:10BC1000202219464D48FFF78FFA00206F61C0437C
:10BC20002E612881284607211830FFF79EFA4748E1
:10BC30003C212030FFF799FA4448217820300170E8
:10BC4000A1788170E178C170617841703F4A65697F
:10BC500023695563114613632031E368A268CB6002
:10BC60008A603A49E369A269CB638A63616A002901
:10BC70001AD001463C310246483241628A60636A0A
:10BC80001B880B80616A436A898899800021436A16
:10BC900007E00E2005B0F0BD656AAD686D5C5554D7
:10BCA000491C9D888D42F7D8A16A00291CD0274ADB
:10BCB000943211460C398A608162A36A9B888B801A
:10BCC000A16A836A098819800021836A04E0A56A51
:10BCD000AD686D5C5554491C9D888D42F7D82C2168
:10BCE0000A5D1A4940310A73216A002909D01649B0
:10BCF0000A310162226A52884A80216A026A0988EE
:10BD000011806168002900D04160104A0E4900206E
:10BD1000B3322031C3001B1A85009B180C68401CED
:10BD200063510828F6DB094A0020EB320301850045
:10BD30009B188C68401C63510828F7DB0348029964
:10BD40002030FFF723FFA5E710200020AC220020C1
:10BD500010B50188134C102915D0112919D01B29B1
:10BD600010D1007A00280DD1E0780521401CFFF7A2
:10BD7000CDF9084600F04EF8002803D0616900298B
:10BD800000D0884710BD817D0129FBD180882081AA
:10BD900010BD00216171808821898842F8D101207D
:10BDA000E8E700001020002010B5022801D0032889
:10BDB0000ED1084C607800280AD000206070E0782E
:10BDC00000F028F8002803D06169002900D08847D6
:10BDD00010BD00001020002010B574DF0B4C0120B6
:10BDE00060710B490620C87000210948FFF7CEFE9C
:10BDF000002809D1E07800F00DF8002803D061692F
:10BE0000002900D08847002010BD0000102000202D
:10BE1000CC220020F1B53F4C88B0207800280AD011
:10BE20000898E07006A801F0BFFB069801250028DD
:10BE300004D065706AE0082009B0F0BD35480027DD
:10BE400007211830FFF791F9334E7078002802D09F
:10BE5000E078012807D0B07800280CD0E0780128DD
:10BE600001D0022807D12169002903D025710820BB
:10BE7000884700E027710898FFF75AFCE0702169B5
:10BE8000002909D0032801D0042805D130780028E2
:10BE900002D06079002811D0A77118216846FFF7F9
:10BEA00064F9684607700772E1781A480B00183089
:10BEB000FFF738FB052E080F191D2000A57107207C
:10BEC0008847EAE7A57001906846057047820782B7
:10BED00013E00221A170019068460570B18941828A
:10BEE0003189018209E0684605F002F902E06846FE
:10BEF00005F02AF9E078002803D0684673DF0028AF
:10BF00009AD12169002901D0A0788847002093E7C1
:10BF1000A770F6E710200020AC22002070B505467F
:10BF200001461C220E48FFF707F90E4C002626702A
:10BF30002968002906D00822201DFFF7FDF8201DE2
:10BF40007ADF02E00748001D7BDF002807D1401E92
:10BF500060806670044A00210448FFF7EBFC70BD66
:10BF60007824002040200020251A02002C1F020007
:10BF7000F8B5214C0146028800261E48E589102AA2
:10BF800013D01E4F112A1FD0122A2BD0502A1AD19B
:10BF9000881DC988A94216D14189022913D10C30C4
:10BFA00000F00CFA00280CD112E08A880446428086
:10BFB000104808220C301831FFF7BEF86670002DCB
:10BFC00001D100F00BFEF8BD0021C943418046704D
:10BFD0003868FFF743FD0028F5D0A1690029F2D0A9
:10BFE0008847F8BD034808220C300831FFF7A4F851
:10BFF000E7E7000040200020782400202C1F0200EA
:10C0000010B503490A7D091D04F077FE10BD00003C
:10C0100094240020034B10B50246D97D181D04F06E
:10C0200059FE10BD94240020034B10B50246197E22
:10C03000181D04F04FFE10BD94240020F0B50446F6
:10C0400002883A488DB0014615310191102A09D075
:10C05000112A50D01A2A4AD1217A090901294ED928
:10C0600001234DE0027D417D05468A43011D07A85D
:10C0700004F043FE142207A902A8FFF75DF800268A
:10C080002A483746143008900AE0710002A80818C0
:10C0900083881D220097281D089904F0DBFD761C7B
:10C0A0000298B042F1D8287DA688C043C0B204F0FF
:10C0B000F5FD1F49884217D04000401986800123B2
:10C0C0003246281D019904F03BFE01233246281D0B
:10C0D000089904F035FEA07D02280AD000231349F8
:10C0E000A2881631281D1DE00420FFF7F9FB0DB0D2
:10C0F000F0BD0123F3E70023A288001D12E0002316
:10C100000A490546A2881731001D04F019FE207A5D
:10C110000009022801D9012300E000230349A28875
:10C120001831281D04F00CFEE1E7000094240020E3
:10C13000FFFF000070B50B4E05460024317D2A46F6
:10C14000301D04F0C7FD002809D0B17D2A46301DFE
:10C1500004F0C0FD002801D0022400E001242046A4
:10C1600070BD00009424002010B50024204605F086
:10C170008BFC002805D0641CE4B2182CF6D31820E0
:10C1800010BD044801220168A2401143016020460D
:10C1900010BD00009424002010B5044605F074FC86
:10C1A000002802D001480019407E10BD94240020D0
:10C1B00070B505460C46084605F066FC002806D01A
:10C1C00003482A460119497E001D04F083FD70BD15
:10C1D0009424002070B5064615460C46084605F026
:10C1E00053FC002807D004482B4601193246001D95
:10C1F000193104F0A5FD70BD942400207CB50546DE
:10C2000008880C460930904201D90C207CBD684654
:10C2100071DF0028FAD121880820685420881B216A
:10C22000401C80B220802954208800A9401C80B284
:10C230002080401906220131FEF77EFF20886946E2
:10C24000801D80B220800978002900D00121295466
:10C250002088401C208000207CBD704730B51B4BDF
:10C260000D4604000FCB85B003936B4607C32BD05C
:10C27000002D29D01648214604600020C043A0802C
:10C280002868206100202075A073684663DF0028BD
:10C2900018D121786846817401210182A21C04A969
:10C2A0000120A0DF00280DD12946204604F037FCEC
:10C2B000002807D1012002F05BFC002802D102F027
:10C2C00089FC002005B030BD0E20FBE7301F0200C6
:10C2D0005420002038B5002820D000291ED00A881C
:10C2E000102A1CD0112A1DD0502A2ED0512A15D127
:10C2F0008A8883889A4211D18A79891D022A0DD1B0
:10C300004A88C3889A4209D10A7A042A06D0062AA2
:10C3100004D0052A02D0891C02F00EFF38BD89889E
:10C32000818038BD828889888A42FAD10021C94338
:10C330008180007D0028F4D0BFF34F8F1149104851
:10C34000C860BFF34F8F00BFFDE70446C88862890D
:10C35000891D9042E5D148890228E2D108460C3077
:10C3600000F02CF8A0732269002ADAD0002801D04E
:10C37000012000E00220694608702046904738BD41
:10C380000400FA0500ED00E010B50446FFF756FE84
:10C39000204603F03BFF2046FFF7EAFD204600F071
:10C3A000EFF8204602F066FE2046FFF7D1FC21465A
:10C3B0000148FFF78FFF10BD282200204178027846
:10C3C00008021043C007C00F7047000000B51748AF
:10C3D00087B00068059000234822154905A805F09C
:10C3E0005BF9002801D0FFF77BFA6A4601210020A3
:10C3F00005F03AF9002801D0FFF772FA684605F017
:10C4000029F9002801D0FFF76BFA0A4805F018F95E
:10C41000002801D0FFF764FA074805F06FF90028FB
:10C4200001D0FFF75DFA07B000BD0000F41E020066
:10C43000E021002089C30100111702000149085CB6
:10C4400070470000FC1E02000549095C05480069B0
:10C45000C840C007C00F00D00120012148407047EC
:10C46000FC1E02000005005005490B5C05494A68A6
:10C4700001209840034693438B601040C86070478A
:10C48000F81E02000005005010B50349085C0121A8
:10C4900002F0A0FD10BD0000F81E020010B5034917
:10C4A000085C002102F096FD10BD0000F81E02009D
:10C4B0000549095C05484068C840C007C00F00D066
:10C4C0000120012148407047F81E0200000500507D
:10C4D0007CB50024074E2546305D012200950023DF
:10C4E0001146019502F02CFD641C042CF4D300F0DD
:10C4F00003F87CBDF81E020010B500242046FFF7AB
:10C50000C3FF641C042CF9D310BD10B500242046D1
:10C51000FFF7C4FF641C042CF9D310BD02460020B1
:10C5200010B5C043054B00215C5C944201D1084624
:10C5300010BD491C0429F7D310BD0000FC1E0200E9
:10C5400070B50E4E00250C46306000290DD001203C
:10C5500000F0AEF8002801D0022005E0002000F035
:10C56000A7F8002800D00B2020707068002802D1A6
:10C57000FFF712F90546284670BD0000082000208C
:10C5800010B51C4C0188606810290DD011290AD102
:10C59000401E606007D1FFF7FFF8002803D0216834
:10C5A000002900D0884710BD00281ED1002101229B
:10C5B000084600F0A3F8002801D0072811D107226F
:10C5C0000221012000F09AF8002801D0072808D1A4
:10C5D00004220221002000F091F8002805D007284D
:10C5E00003D02168002900D088476068401C606043
:10C5F00010BD00000820002010B5002000F0BCF99C
:10C60000002801D0062807D1012000F0B5F9002844
:10C6100001D0062800D1002010BD0000F3B581B084
:10C620000D460198FFF77AFF0446042813D21D48EF
:10C630001D4F1E4E002D27D0012D0DD0022D0AD1E9
:10C6400060002018C0194578002D04D0F168002939
:10C6500001D028468847FEBD610061187D5CCF1976
:10C66000797800290BD071680A2251430F4A8068FB
:10C67000921CFFF7AFF9002801D10198B0700B4868
:10C68000B97810300155DFE78068FFF7E7F9074810
:10C69000610061181030C919005D8D78A842D3D0AF
:10C6A000FEBD0000001F020080220020F41F0020B9
:10C6B00010B5FFF7C9FE10BD014610B50D4804299D
:10C6C000008806D007290CD00A2901D104F066FDA4
:10C6D00010BD132176DF09E00028F9D0FFF700F93B
:10C6E00010BD05498842FBD1FFF776FB0828F3D13E
:10C6F00010BD0000E81F0020FFFF000070B5002300
:10C70000042811D2440004190D4D012A02D1012937
:10C710000DD0002246008019094E801900290CD046
:10C72000012906D0022906D00723184670BD0E3015
:10C73000C2B22A55F9E74270F7E78270F5E70000C8
:10C740008022002010B5054A0146127A0020D20747
:10C7500002D0084600F050F810BD0000F41F002081
:10C76000F8B506461F4800248660C26041600F4647
:10C77000B00720D50025012211462846FFF7BEFF4D
:10C780006D1C0446042D02D2002CF4D013E0002CC2
:10C7900011D17A0804211448FFF75AF804000AD18D
:10C7A000FFF744F8040006D10F48104A0021001F8B
:10C7B000FFF7C0F80446F00701D0FFF789FE002C10
:10C7C0000ED109480A4A00210C38FFF7B3F80400DB
:10C7D00006D10548074A01210838FFF7ABF804469F
:10C7E0002046F8BDF41F00200C1F020089C901007B
:10C7F00025E2010023B80100F8B55D4C05466078DC
:10C800000026002803D000206070FFF775FE01208D
:10C81000584F2B00FEF786FE18970D0D2E3D4A5FF0
:10C8200064686F686FA97777777777979A9DA0A9E3
:10C83000A9950020FFF73CFE00280AD00020FFF752
:10C8400023FE022D02D1E120C0000BE07D2040013B
:10C8500008E00020FFF722FE022D01D1C82001E0F0
:10C86000FF20913025706421FEF750FC6168414340
:10C8700000222BE00020FFF71BFE002805D000203F
:10C88000FFF702FE19204001ECE70020FFF706FE4B
:10C89000E4E70020FFF70CFE002803D00020FFF79C
:10C8A000F3FDD3E70020FFF7F9FDD9E70020FFF7FC
:10C8B000FFFD002803D00020FFF7E6FD02E0002086
:10C8C000FFF7ECFD25706068410000223868FFF733
:10C8D00081F8064635E00020FFF7C6FD257007E029
:10C8E00000203FE025702CE060700120FFF7BCFDC8
:10C8F00000226168EAE760700120FFF7B5FD60681B
:10C9000081004118E1E77868FFF7A8F80646112092
:10C91000401B01D0002E03D00220FFF7B5FD10E030
:10C9200001280BD9C82148436421FEF7EFFB616859
:10C93000002241437868FFF74DF806460220FFF7D2
:10C94000ADFD3046F8BDFFF7D7FDCBE7FFF7D4FDCF
:10C95000C6E7FFF7D1FD04E0FFF7CEFD0020FFF7AB
:10C960009DFD0120FFF79AFDBCE7FFF7CEFDB9E77B
:10C97000F41F0020001F020010B5FFF75FFD032128
:10C9800002F006FB002010BD10B500780221FFF771
:10C9900045FE10BD0022D243830004490428CA503A
:10C9A00002D308182030027770470000C02B002007
:10C9B000F0B50025ED43002A02D00023042601E053
:10C9C000042308260B4C04E09F00E7597F1C04D089
:10C9D0005B1CB342F8D32846F0BD26185DB2203662
:10C9E00035709E00A151002AF5D1E1182031087759
:10C9F000F1E70000C02B002002490918202008564A
:10CA000070470000C02B0020002807D00449814255
:10CA100004D80449814201D90120704700207047A1
:10CA20004821002068210020044A0168914201D079
:10CA3000083101E00149383901607047202D00209C
:10CA400070B50D4D04460A462846AC4208D1FF2475
:10CA500001342146104603F097FBA0420AD070BD76
:10CA6000FF2CFCD82146104603F080FB002801D0A3
:10CA7000204670BD284670BDFFFF000070B5084C11
:10CA8000050009D010342168002907D0086820600B
:10CA9000496828468847F6E70834F4E770BD000087
:10CAA000AC2B0020F8B52348416800293ED00E6821
:10CAB00021494C6887688078E11B0D022D0AED1C26
:10CAC000002814D101201D4A000450601B4A403A3E
:10CAD00050601B49400008601A4908601A4901204B
:10CAE00008602F2002F00AF8124901208870B54230
:10CAF00000D23546E81900020F4B000A4033186097
:10CB00000D4A5168001B091B0902090A0002000AAC
:10CB1000C91C814209D9506818602F2001F0EEFF2E
:10CB200001200749400480390860F8BD03F0C2FFC6
:10CB3000F8BD0000E820002000150140401301402E
:10CB400080E200E000E100E000100140F8B5064698
:10CB5000108814468446801D0D46984201D90C2049
:10CB6000F8BD32880720062AFAD31927FF01184B8F
:10CB7000BA4201D99A42F3D171880629F0D3B94259
:10CB800001D99942ECD19A4203D0994201D08A420C
:10CB9000E6D805216046295420881221401C80B225
:10CBA000208029542088401C80B220804119308880
:10CBB00004F033FF2188401880B22080411970882A
:10CBC00004F02BFF2188401820800020F8BD0000D1
:10CBD000FFFF000010B5FEF783FE10BDF8B5164844
:10CBE00001F0DCFA144D00260C3D144C002807D04F
:10CBF000616900291CD001206A461070684616E061
:10CC00002878002805D06169002911D0684606708F
:10CC10000DE0687800280DD0A1680948002200685E
:10CC2000FEF7D8FE002803D0A169002900D088476C
:10CC30002E70F8BD6168F0E74C20002078240020B9
:10CC40002C1F0200F0B50026F643002A04D012681B
:10CC5000D2430023094F0DE03246FAE7C45C62403C
:10CC600008245508D20700D032463A406A40641E74
:10CC7000F7D15B1C8B42F1D3D043F0BD2083B8EDDC
:10CC800010B50B4909480B4A096800BF00BF00BF37
:10CC900000BF00BF00BF00BF00BF914200D000BF77
:10CCA000401EF2D1FEF728FE10BD0000A086010054
:10CCB000442100200024F400F0B585B00C46002883
:10CCC00002D0012005B0F0BD207900270126002800
:10CCD00006D01F4D012820D002282CD00F20F1E7CC
:10CCE00002970397E0680190694601A803F00CFEE3
:10CCF00000280ED002988188E18000882081029867
:10CD000003F07CFE694609880A01124951188E73A6
:10CD100000E00A2002212171D4E70F4B6A4600216E
:10CD2000A01D03F0AFFD002807D00B4908398F6024
:10CD3000CF600A28C6D12846C4E7019803F05EFEFA
:10CD4000054989880A01034951188E73F1E70000EB
:10CD50001D1D0000302D00201C210020F8B50026EC
:10CD60000124154D23E06968F00047183878214602
:10CD70002A698140114218D08A432A6102F0A0F842
:10CD80003A782146EB689140194003469340994216
:10CD90000BD17978012901D0012100E000217B68C5
:10CDA0004140002B01D010469847761CF6B22878F7
:10CDB0008642D8D3F8BD0000C4200020044A0029D0
:10CDC00001D1002313705268002A00D01047704729
:10CDD000BC20002010B50E4900230A784C78A242EE
:10CDE00012D0521CD2B20A70022A00D10B700A78FB
:10CDF000074B920018339A58026088681018000296
:10CE0000000A8860012010BD0360002010BD0000F2
:10CE1000E82000203EB5094D38CD009302950194DD
:10CE20006B46588099809A71054900220978FFF76E
:10CE3000D1F9684600F08EF83EBD0000C01F020028
:10CE4000A020002010B5047800222300FEF76AFB22
:10CE5000070605070D1D262C06000A7010BD0122CD
:10CE60000A7002898A81828814E002220A7002898B
:10CE70008A818288CA81C2688A60007C062802D0C2
:10CE80000020087410BD0120FBE703220A70C2884D
:10CE90008A810289CA81C068886010BD04230B7032
:10CEA000C0888881CA8110BD0520087010BD0000AF
:10CEB00070B5064D06460024A0002958002901D06F
:10CEC00030468847641C082CF6D370BD502C0020D7
:10CED0000EB5002910D011290ED000220092029226
:10CEE0006A46508001910D2907D0862907D0092074
:10CEF0001070104600F03CF80EBD0B20F8E70A2039
:10CF0000F6E700000149096808470000602000209A
:10CF100070B5054D06460024A000295830468847C4
:10CF2000641C022CF8D370BD581F0200F8B50746E8
:10CF30000024064E064D04E0A000315838468847CC
:10CF4000641CE8788442F7DBF8BD0000A8280020C4
:10CF50009020002070B5054D06460024A0002958F9
:10CF600030468847641C022CF8D370BD881F02002D
:10CF70000149096808470000CC1F02007FB504463C
:10CF8000406800280BD00020039020780026414DF7
:10CF90000300FEF7C7FA066D0606304E7B6D0120D2
:10CFA000F2E7A08900F0DCF9002804D1E08903F061
:10CFB0003DFD00285CD0A08900F0CCF90146684610
:10CFC0004180E08903F02CFD01466846017120781C
:10CFD0000128606807D0002809D00420694608703D
:10CFE0006068039020E00028F8D00320F6E70120D5
:10CFF000F4E708463AE0A08900F0B2F9002804D12D
:10D00000E08903F013FD002832D0A08900F0A2F9D6
:10D0100069464880E08903F003FD6946087160684D
:10D02000002804D005200870A0680290E1E70220E3
:10D03000F9E7A08900F094F9002819D0E0890028C8
:10D0400016D1A08900F086F969464880E08903F08E
:10D05000E7FCFF2069460871606800280FD00720B0
:10D0600008706E70AE7002F0CBFD684602F086FC70
:10D070006878002802D06E7002F0C2FD7FBD0621E4
:10D0800068460170408802F049FEEAE708206946D8
:10D090000870AEE77C20002000B5104987B0097801
:10D0A000890702D4022007B000BD0D49884201D192
:10D0B0000420F8E7052269460A7001220A71C88037
:10D0C00000221146684602F0B7F8002803D003F0AA
:10D0D000BDFB0020E7E70820E5E700001421002061
:10D0E000FFFF000000B50F4887B00078800702D42A
:10D0F000022007B000BD06206946087000221146D4
:10D10000684602F099F8002809D0074801780029FC
:10D1100001D00121017303F099FB0020E9E7082009
:10D12000E7E7000014210020502D002000B58DB04D
:10D1300014216846FEF719F81E480078810703D5C8
:10D140006846FFF7B5FE32E0C00730D1012000F09D
:10D150002DF900F0C9F902F001F900280ED00628D7
:10D160000FD001216A4611750300FEF7DBF90C1997
:10D170001119111918191819131613190B200DB0BC
:10D1800000BD022000F012F9012000F0F5F8D7E709
:10D19000002000E00320107602E00220FBE7117679
:10D1A0000022114605A802F047F803F04FFB0020CB
:10D1B000E5E700001421002038B5040014D06946CA
:10D1C00003F0A2FB002813D068460088010109483B
:10D1D00009188889002809D0A27A002A06D0401EA2
:10D1E00088810020A07238BD052038BD062038BDDA
:10D1F0000A2038BD302D00201FB501A9684603F074
:10D2000041FB04B010BD07B513460A46694600202D
:10D2100003F038FB0EBD07B513460A4600216846E9
:10D2200003F030FB0EBD002805D0002903D00068B4
:10D2300008600020704705207047000038B50D4693
:10D24000040017D0002D15D0694603F05DFB0028BF
:10D2500012D0684600886168020108481218908957
:10D26000401C9081296060680C3068600120A072C9
:10D27000002038BD052038BD0A2038BD302D0020E3
:10D2800010B5002804D00323002204F001FD10BDD6
:10D29000052010BD10B50223002204F0F9FC10BDDA
:10D2A00010B5002A03D0022304F0F2FC10BD0520C3
:10D2B00010BD000010B5064A5178082906D08B0031
:10D2C000044C491CE0505170002010BD0C2010BDD2
:10D2D00014210020502C002038B504460A480D4681
:10D2E0000078800701D4022038BD002C0AD069469E
:10D2F000284604F0D9FD0028F6D169460988218026
:10D30000658038BD052038BD1421002010B50446C5
:10D310000E480078800701D4022010BD002C10D0E8
:10D32000218802290FD80A4A08018018428960889A
:10D33000121A032A07D404F0ADFD0020208060807B
:10D3400010BD052010BD042010BD000014210020D8
:10D35000302D002003218903401A80B2704700005D
:10D3600003218903401A0349884201D801207047EC
:10D3700000207047FE3F000002490A7882430A708D
:10D38000704700001421002010B5044600781828CA
:10D3900002D1FEF7E9FE207010BD10B504460078FA
:10D3A000182802D1FEF7E0FE207010BD02490A786D
:10D3B00002430A70704700001421002070B5064631
:10D3C00000200546862906D0112902D0002903D065
:10D3D00070BD012500E001200E4C002A02460FD04E
:10D3E00061793046FEF7F6FE2A4621793046FEF78F
:10D3F000F1FE002261783046FEF7ECFE002204E0E8
:10D4000061783046FEF7E6FE2A4621783046FEF780
:10D41000E1FE70BDA420002010B5002907D1044C06
:10D4200013212068808876DF21680120087510BDEF
:10D4300054200020F8B506461C481F4600781546C3
:10D440000C46C0070AD03046FFF7DEFA002807D0A6
:10D45000002C07D0A00507D00620F8BD0120F8BD9C
:10D460000220F8BD0320F8BD3068A04204D8A8020D
:10D4700071680019884201D90520F8BD002D10D02F
:10D48000684603F035F900280DD000980221C0C08D
:10D490000170A101090C8180058103F0E5F90020EC
:10D4A000F8BD0420F8BD0720F8BD00002C210020A5
:10D4B00010B5084603F038F910BD000030B4094B30
:10D4C00002241A68520852001A60002906D022432A
:10D4D0001A604268002A03D030BC1047A243F7E725
:10D4E00030BC7047F01F0020F0B52648264C001BCA
:10D4F0000309264819464069421C03D10120000750
:10D5000040698002224A12789646D2070CD0002049
:10D51000F0BD1D4C15012C192568002D03D0646841
:10D52000002C00D0491E521C9A42F2D3002420E065
:10D53000E2B2002594462A460FE0134E1701BE19A9
:10D540003768002F02D07768002F05D1767BAE4276
:10D5500002D93546D6B2B446521C9A42EDD3624641
:10D560001501094AAA185060157BAD02401B641CC6
:10D5700010608C42DCD306487146012211430170D1
:10D58000C5E700006821002048210020001000109D
:10D590002C2100200348406E042801D00020704751
:10D5A00001207047602D0020002804D00349496EF7
:10D5B000016000207047032070470000602D0020AC
:10D5C000F8B507461E481E46007815460C46C007AB
:10D5D0000ED03846FFF718FA00280BD0002D0BD0DC
:10D5E000002C09D028462043800707D00620F8BD2C
:10D5F0000120F8BD0220F8BD0320F8BD3868A04224
:10D6000004D8B10078680919884201D20520F8BD14
:10D61000002E11D0684603F06BF800280ED0009859
:10D6200006990760416001210172C560046186822C
:10D6300003F01AF90020F8BD0420F8BD0720F8BD5A
:10D640002C21002070B5174B0446186E1821484352
:10D650001549C0180A78950715D5022C02D0032C5D
:10D660001CD102E001F0BEFD18E04A78521CD2B293
:10D670004A70032A12D900224A70082103F032FCB2
:10D6800003F020F80AE0500708D5FB2002400A709A
:10D69000586E002802D0022002430A7003F0A0F85E
:10D6A00070BD0000602D00202C21002070B50028E6
:10D6B00001D0012070BD164C0025207B002801D030
:10D6C000257301E000F09CF820780300FDF72AFFA5
:10D6D000081E05080B0E1E111A1E00F01BF870BD67
:10D6E00000F07EF870BD00F061F870BD00F038F811
:10D6F00070BD60880649000120394018406801F07B
:10D700000DFE70BD656001F017FE70BD0F2070BD8D
:10D71000502D002070B5104900208A1C0D4603468C
:10D72000203D0C18A67A002E08D0A37204016419BB
:10D73000A689002E02D1A47B012C08D0401C80B207
:10D740000228EED30B704B8004484B6070BD1080F4
:10D7500000F046F870BD0000502D00201D1D000097
:10D7600010B50F4C608801012046203808188189C7
:10D7700000290BD0052020700A4802218180016811
:10D78000002301220848FFF755FE10BD4168002321
:10D7900001220548FFF74EFE0421217010BD000054
:10D7A000502D0020242100205821002038B50A499E
:10D7B00008480B68898842688900591853880324EF
:10D7C00004700020DB1C00909BB20448FFF7F8FEB9
:10D7D00038BD0000502D00202421002058210020B9
:10D7E00010B506494888091D03F0DEF8002802D06C
:10D7F000FFF7DCFF10BDFFF7B3FF10BD502D002079
:10D80000F0B51D481D4907780246012502268C887F
:10D81000203A3B00FDF786FE080517171A212C2C2D
:10D8200016170189491C01810021418001730B01F8
:10D83000D35C002B08D000234418491C89B2A37282
:10D840000229F4D30570F0BD0123F5E74268528840
:10D85000D21CA2188A800670F0BD45880B682D0185
:10D86000AA1855680D60536014818E80062100E06F
:10D8700007210170F0BD0000502D00202421002060
:10D88000F0B504460088384D8DB050281DD0522880
:10D8900002D0542826D103E0A08800F009FF21E03F
:10D8A000062069460870A08800F0A6FB69464880FB
:10D8B000A2888A8000F054F9A0880022E978FEF757
:10D8C00089FC6846FFF71EFB0CE0207B012809D18C
:10D8D000A07A012806D120892449884202D1A08853
:10D8E00000F022FFA878FEF757FC002819D008A8FE
:10D8F000FEF786FB142208A903A8FDF71DFC0024EF
:10D9000003AE0BE060008719B888A978FEF750FCD9
:10D91000002802D0B88800F0CBFE641C0398A04217
:10D92000F0D86878FEF738FC002819D008A8FEF770
:10D9300067FB142208A903A8FDF7FEFB002403AE31
:10D940000BE060008719B8886978FEF731FC002881
:10D9500002D0B88800F0E8FE641C0398A042F0D81A
:10D9600003F0E4FA0DB0F0BD5820002002290000B9
:10D970003EB504464088694648802078002814D087
:10D9800001281DD002280FD1207900280CD06088F2
:10D9900000F066FA0E49884206D00E490122C97885
:10D9A000FEF718FC03F0C2FA3EBD002008700846DE
:10D9B000FFF7A8FA608800F053FA00F079FE3EBD48
:10D9C000012168460170A1888180FFF79BFA3EBD66
:10D9D000FFFF00005820002010B504460078012801
:10D9E0000DD1608800F064FE608800F07DF90028A9
:10D9F00005D0034960880122C978FEF7EBFB10BD12
:10DA00005820002010B5104C00202070FEF7ACFB11
:10DA10006070FEF7A9FBA070FEF7A6FBE070FEF7B2
:10DA2000A3FB2071617818290BD0A178182908D0A0
:10DA3000E178182905D0182803D001202070002093
:10DA400010BD032010BD000058200020F0B585B0A7
:10DA500000F09EF86846FEF7D3FA00246D460C4F9E
:10DA60000EE060004619B08800F0C6FAB84205D151
:10DA70000849B0880122C978FEF7ACFB641CA4B247
:10DA80000098A042EDD803F051FA05B0F0BD0000B7
:10DA9000FFFF00005820002010B50178072902D1AF
:10DAA000408800F041FE10BD10B504460A48417898
:10DAB0002046FEF77DFB00280CD0084800210C22F0
:10DAC0004A4312185288A24201D1C8B210BD491C63
:10DAD0000829F4D3FF2010BD70200020C8240020A6
:10DAE00070B5094D094E00240C2060434019408850
:10DAF0007178FEF75DFB002804D0641C082CF3D37A
:10DB0000FF2070BDE0B270BDC8240020702000204E
:10DB1000F8B50746104E0125BD403068FDF79EFF61
:10DB200000280DD10D4C2069284207D1384601F05C
:10DB3000C7F90028E06804D0284303E0A843206127
:10DB4000F8BDA843E0602069002228432061A16855
:10DB50003068FDF73FFFF8BDD41F0200C42000204D
:10DB60001CB5054A9168D26801920091002269466D
:10DB700001F0CCFD1CBD0000441F02000348002141
:10DB8000C94381800121017000207047642000207A
:10DB900010B5044801F0E6FC0349888003F0F2F96F
:10DBA00010BD0000FFFF000064200020F1B582B02E
:10DBB000029800F021FA0024164903250127264681
:10DBC000884209D06A46082101F076FD002803D179
:10DBD000019886880568841D2B46324621460298A6
:10DBE000A9DF042804D0082804D00B2807D002E0BD
:10DBF000112000E00020002F00D10B20FEBD0027E7
:10DC0000A80701D50125E7E73443F6D000242646CE
:10DC10000325E1E7FFFF0000F1B582B0029800F0B4
:10DC2000EBF907461B48874201D11B48FEBD012581
:10DC30002A466D1C0026ADB26B460821384601F01D
:10DC40006BFD040002D0072C21D021E001990323B1
:10DC50000B600A1D891D0298AADF040004D00C2C59
:10DC600008D0052C08D008E00821384601F0EEFD68
:10DC700004460DE0012600E000240821384601F0AA
:10DC8000CFFD002800D00324002ED1D100E00C24C9
:10DC90002046FEBDFFFF0000023000001FB5044615
:10DCA0000078012813D12079012810D1608802AAB8
:10DCB000012101F001FD002809D10221684601700F
:10DCC000618841800121017105490968884704483C
:10DCD000044908388088884201D003F053F91FBDF9
:10DCE0006C200020FFFF00001CB500F085F96A469B
:10DCF000012101F0E1FC002801D000201CBD0198A9
:10DD000000781CBDF8B5074E074C084D0746324653
:10DD100061883846A7DFA84203D16088401C608034
:10DD2000F5E7F8BDFFFF000064200020033000008D
:10DD30008188054A914204D00088002801D0012042
:10DD40007047002070470000FFFF00003EB504460A
:10DD500000780D46022815D10322611C6846FDF7A4
:10DD6000EBF90322211D02A8FDF7E6F901AA02A999
:10DD70002846FDF72FFD032201A96846FDF700FAAA
:10DD8000002801D000203EBD01203EBD10B50C464C
:10DD9000FFF78AFEFF280AD00C21484305490722D5
:10DDA00041182046091DFDF7C7F9002010BD0520C8
:10DDB00010BD0000C824002070B5018890B0102963
:10DDC00049D1011D2C2202A8FDF7B6F96846234E61
:10DDD000007B344602AD03282AD001F03FFE68469E
:10DDE000007B00280ED001280CD0022820D118E09A
:10DDF0000E99281D1131FDF7BFFB002802D068469F
:10DE0000048815E00DAA6946072001F0FDFD0028F1
:10DE1000EED10DE00E99281D491CFFF797FF002851
:10DE2000EDD10DAA6946072001F0EEFD0028F1D1E1
:10DE300068460089291D00F009FEB4420BD06846EF
:10DE40000089214600F086F8684601894180012159
:10DE50000170FFF75DF810B070BD0000FFFF00001B
:10DE6000084A00210C234B43D35A834204D10C208F
:10DE70004143881840887047491C0829F2D302485A
:10DE800070470000C8240020FFFF000010B50E4CB2
:10DE9000182060700D4A0E4900200C2343435B1884
:10DEA000401C5A800828F8D3FEF75EF960701828E5
:10DEB00004D00548C01C71DF002801D0032010BD2C
:10DEC00001202070002010BD70200020FFFF000006
:10DED000C824002070B504460D46401C00F090F99F
:10DEE000002810D01022691C601CFDF749F9002899
:10DEF0000AD000262946204611311130FDF73CFB9F
:10DF000001463046084370BD0126F3E70188002929
:10DF100003D142189278002A01D001207047491C91
:10DF20000829F6D30020704710B50C460346FFF7CA
:10DF3000EDFF00280BD018882188884206D10822DE
:10DF4000A11C981CFDF71CF9002801D0002010BD71
:10DF5000012010BD10B501F03DFF10BD10B5044605
:10DF6000007888B0002826D12079072823D160883E
:10DF700001AA072101F0A0FB00281CD101F06EFDD1
:10DF80001BE0694660880988884216D00499029887
:10DF9000FFF7A0FF002810D06088FFF761FF01465F
:10DFA0006846C1820021017561880183018841832F
:10DFB00005A8FEF7ADFF08B010BD03AA694607200B
:10DFC00001F022FD0028DCD1F5E7000070B5044621
:10DFD000FFF746FF0546204601F073FB054904465E
:10DFE0008D4204D0002C02D1284601F0F3FE2046D9
:10DFF00070BD0000FFFF000010B5FFF755FDFF28C2
:10E0000004D00C2148430249085A10BD014810BDF4
:10E01000C8240020FFFF00003EB5044601F01EFDAD
:10E0200010E0019920464631FFF77EFF002806D117
:10E03000019920462A31FFF777FF002802D0684671
:10E0400000893EBD6A4602A9072001F0DDFC0028D8
:10E05000E7D101483EBD0000FFFF0000F8B50F46C4
:10E06000002804D00120FFF787F90120F8BD397995
:10E0700000290AD00026254D01290BD0244C022965
:10E0800020681FD003293BD125E001F055F901217B
:10E09000397133E000200101695C02290BD0401C7A
:10E0A00080B20228F7D30220FFF780F90120FFF7A2
:10E0B00063F91848F8BD04016019406801F02EF9B1
:10E0C0002E551BE00146002301221348FFF7B2F949
:10E0D0000221A18011E001F021F90C4923682031CF
:10E0E00049880A01094951184D6825604B60A38889
:10E0F0000B810221A18005498E543E710028D9D0A0
:10E100000120FFF739F90E20F8BD0000302D002066
:10E11000242100201D1D000058210020F8B51E4CB0
:10E120002078002836D0E068002600280CD0002592
:10E13000607800282ED1684652DF052806D00028D6
:10E1400006D0FDF7CDFB0BE00125F1E7012607E046
:10E15000009800F0DFFD2169002901D00098884770
:10E16000002D13D16078002814D16088694608809A
:10E17000A06861DF052804D0002804D0FDF7B0FBBB
:10E1800004E0012502E0E168A0688847002ECFD0B6
:10E19000002DE5D0F8BD0000302100204188054861
:10E1A0000288914204D34088814201D801207047FF
:10E1B00000207047442000201048018CC9B201297A
:10E1C00017D1818C090714D1018D09060A0F03D1DB
:10E1D000828D1206120F0ED0090F012903D1828DF4
:10E1E0001206120F07D0032903D1808D0006000FFD
:10E1F00001D000207047012070470000C00F00F0E0
:10E200000021425C002A01D001207047491C1029DE
:10E21000F7D300207047800701D00020704701200D
:10E220007047000010B50448017AC90702D0007891
:10E23000FEF7E2FA10BD0000F41F0020FFB5244DE8
:10E2400081B0287A1F460E46084304D0039A002E58
:10E2500004D0002104E0052005B0F0BD1C491031B8
:10E26000019803F0EFF80446014600220198FFF7F9
:10E27000A5F8002F03D021460198FEF729FE112CA6
:10E280000FD006DC002C0AD0082C08D00D2C05D1AC
:10E2900005E0862C11D00F48C44200D0032420464C
:10E2A000DAE73246E9780198FDF794FFA978039AF6
:10E2B0000198FDF78FFF0024F1E73246E9780198D5
:10E2C000FDF788FFA978039A0198FDF783FFE6E739
:10E2D000A4200020FECFFFFFFEB517460C00064627
:10E2E00004D02078C00704D0012003E000217EDFA5
:10E2F000FEBD0220694608713046FFF77DFE1749D2
:10E300000546884208D001A800902B463A4621468F
:10E31000304600F025F806E020782146C007304658
:10E3200003D000F081F804460BE07EDF04460020B5
:10E330000090002C08D0002201232946304602F02C
:10E340009DFD002C02D006E00122F5E76846017928
:10E35000304602F0B9FD2046FEBD0000FFFF000080
:10E36000FFB585B000252E4601AA07210E9F08980B
:10E3700001F0A2F9040008D1029D4420405D183547
:10E38000C607F60F01D0029D34350798204312D1FD
:10E39000002D10D0002E05D128461230FFF7B6FD13
:10E3A000002808D029462A461231059885DF044600
:10E3B0000020387023E0002C01D0052C1FD10698D6
:10E3C0000078C0070DD003AB01220721089801F0A7
:10E3D000A3F904000AD10721089801F09BFA040070
:10E3E00004D1069905987EDF040008D0072108981B
:10E3F00001F016FA002802D0052800D003240020DE
:10E4000000903878002801D0012300E00023002C80
:10E4100007D000220899059802F030FD204609B087
:10E42000F0BD0122F6E70000FEB50F46064601F0FA
:10E4300037F905461848854220D001AB0122072153
:10E44000284601F069F904000AD10721284601F0A5
:10E4500061FA040004D1394630467EDF040008D05A
:10E460000721284601F0DCF9002802D0052800D059
:10E47000032401200090002C0BD002E00324002094
:10E480000090002201232946304602F0F7FC204686
:10E49000FEBD0122F6E70000FFFF0000F7B5114DB9
:10E4A0000F46164629780098FDF782FE002812D004
:10E4B0000098FFF7A1FD04460B4884420BD0697811
:10E4C0000098FDF775FE002806D033463A462146EF
:10E4D000009800F0BBFFFEBD324639460098FEF7BB
:10E4E00099FCFEBDA0200020FFFF0000F1B586B022
:10E4F0000698FDF751FE002821D06846FDF780FD03
:10E5000000246E4618E060008519A8880699FDF77A
:10E510004FFE00280FD00B4FA888B978FDF748FEB2
:10E520000590A888F978FDF743FE0146A8880123E5
:10E53000059AFFF783FE641C0098A042E3D807B059
:10E54000F0BD0000A4200020F0B5284C2146103971
:10E5500048688B68227886469C46CF78667836E095
:10E56000182353436168521CC918A378D2B293424E
:10E5700000D100220B78022B02D0032B27D123E0FD
:10E5800003464D68194603E0A94204D00B46C96909
:10E5900000291CD0F8E7002919D08B4208D1C069A6
:10E5A000002805D1124F0125BD600025AC4601278A
:10E5B0000D68C969D961002909D00B685B190B6026
:10E5C00005E00174C06900E000210028F9D19642FD
:10E5D000C6D10649624610398A604860CF707045DE
:10E5E00001D00120F0BD0020F0BD0000F820002087
:10E5F00000100140F8B52C4E0446706800250090CC
:10E6000041E0002C02D02046E46920E0264818238F
:10E610001030017842684B43491CC9B2D2180170CE
:10E620008378994200D105701178506801292CD166
:10E63000017C002929D191684160D168816011690C
:10E64000C16051698161F178002900D0456043685B
:10E65000B268164F991A0902090AB94202D28268B1
:10E66000891806E0D11A09028268090A8A4202D989
:10E67000511A016000E00560456001218560017468
:10E68000C56103F097F8002CBBD107481030017822
:10E6900040788142BAD171680098814201D001204E
:10E6A000F8BD0020F8BD0000E8200020FFFF7F003B
:10E6B000FEB504461948002684422DD02046FFF7B7
:10E6C00075FA050012D00B2D14D0112D10D014485E
:10E6D000C5421BD00921684601702046FFF78CFC1B
:10E6E000014668464180848002950DE0022102E0E7
:10E6F00001260BE00321684601702046FFF77CFCF1
:10E700000146684641808480FEF7FCFB054832469E
:10E7100081782046FDF75EFDFEBD0000FFFF000092
:10E72000FECFFFFF58200020FEB504460026FFF76D
:10E7300073FA0546112818D004DC002D13D00C2DD7
:10E7400005D114E0862D25D01348C5421BD00921E0
:10E75000684601702046FFF74FFC0146684641803D
:10E76000848002950DE0012102E001260BE00721E3
:10E770006846017084802046FFF73EFC01466846EB
:10E780004180FEF7BFFB0548324641782046FDF741
:10E7900021FDFEBD0821EBE7FECFFFFF5820002042
:10E7A000F8B5054600780C46002620420FD100201F
:10E7B000694608706846FDF765F92878204202D15D
:10E7C00020432870012668460078FDF779F9304625
:10E7D000F8BD0000002398B04F4A05211846FDF708
:10E7E000BFF8002801D0FDF77BF84C4A4C490320C4
:10E7F000FDF7B6FF002801D0FDF772F8694600204A
:10E80000FDF79EFE002801D0FDF76AF86846007803
:10E81000022879D0002168460171FDF7D7FD6846CE
:10E82000007901F0EBFA01200146103168460173CE
:10E8300008223CA103A87CDF002801D0FDF750F896
:10E84000002400945021684601940180A021418059
:10E85000FF2184809131C1807ADF002801D0FDF74B
:10E860003FF83C2101A8FCF780FC022168460171B9
:10E87000012585710621C17185822D4806902021D0
:10E8800010A8FCF772FC10A8C570FF202D30149062
:10E89000B4201590274B10AA0021009401A8FDF781
:10E8A000A9F9002801D0FDF71BF823480090019436
:10E8B00004206946087148711748C030FDF7CEFC46
:10E8C000002801D0FDF70CF81C216846FCF74DFC30
:10E8D0000520C00301900F20000402900094032142
:10E8E00068460173C4810474144805901448069066
:10E8F0006846FDF713FB002801D0FCF7F1FF032069
:10E90000FDF788FA03E0FFE7012184E748DF0028EC
:10E91000FCD0FCF7E5FFF9E768210020B9C601004B
:10E92000CD0C000044465531413132320000000028
:10E93000EA1F002053F001005BC2010019F1010041
:10E94000D5CB010070B5144682880E460546208856
:10E95000111D4118921C994201D8FE2A01D90C20A0
:10E9600070BD521C32542088FF21401C80B2208090
:10E9700031542088401C80B220808119288803F0FF
:10E980004CF82188401880B22080AA88002A09D03B
:10E99000A968002908D08019FCF7CEFB2088A98837
:10E9A00040182080002070BD072070BDF8B50F46CC
:10E9B000017814460546012902D16878002806D05E
:10E9C0002088821C9A422DD8012902D006E0072017
:10E9D000F8BD69784118891C994223D8181A801EFD
:10E9E00086B2684606802188B81C081869467DDF13
:10E9F0000028EDD12878022805D169460988B1425E
:10EA000001D809210AE00821012805D16878B0421F
:10EA100002D86A46108001E0684606806846008891
:10EA2000FE2801D90C20F8BD2288401CB85420884B
:10EA3000401C80B22080395420886946401C2080C8
:10EA40000988401820800020F8BD0000F8B5FF2498
:10EA50000F46054600291FD0104EB5421CD0104865
:10EA6000012241782846FDF7B5FB2846FFF71CF840
:10EA70000446FF2804D1FFF733F80446FF280BD0E3
:10EA80000C21484307490246401845808E52072210
:10EA90003946001DFCF750FB2046F8BDFFFF000083
:10EAA00070200020C824002070B50B4D0E46A842EF
:10EAB00001D1002000E0401C84B209E0214630462C
:10EAC00001F07CFB002801D0204670BD641CA4B27C
:10EAD000FF2CF3D9284670BDFFFF0000C208430792
:10EAE0005B0F0120895C984008407047012189072D
:10EAF00040180068002800D00120704700280FD07F
:10EB00000849094A096800BF00BF00BF00BF00BF35
:10EB100000BF00BF00BF914200D000BF401EF2D135
:10EB200070470000442100200024F40070B50E4C12
:10EB30000B460146256800206E0702D5A80701D5BF
:10EB40000A2070BD98B20126134635430246074895
:10EB50002560FEF76FFC2168002801D0B14300E07A
:10EB60003143216070BD0000F01F002048210020CB
:10EB7000024904200860002070470000F01F0020B8
:10EB8000F8B50D4C002627687D0712D5BD0701D5C5
:10EB90000A20F8BD01252F432760009393B20A464F
:10EBA00001460648FEF70CFD0600F2D12068284316
:10EBB00020603046F8BD0000F01F002048210020F2
:10EBC00010B5002258210248FEF73CF810BD0000A5
:10EBD000542A002070B5104900200870FF255D35CB
:10EBE0002A460E490E48FCF7A7FA0D4C2068401C37
:10EBF00004D0FFF7E5FF216881420CD02946084880
:10EC0000FCF7B3FA01206060002000F00BF8002848
:10EC100001D0FCF765FE70BDBC20002000FC0300A5
:10EC2000502A002070B50546164C01E0FEF728F882
:10EC300020780028FAD101202070656002F0B5FF2D
:10EC4000002201211048FFF771FF0728F6D00025A8
:10EC5000002814D1FFF7B4FF0C49FF225D32086091
:10EC6000881AFCF769FA02F0A0FF094B57220949FC
:10EC70000548FFF785FF0728F5D0002801D025704B
:10EC8000032070BDBC20002000FC0300502A00209F
:10EC9000BDCD0100F428002070B50E4C0025207871
:10ECA000002801D0852513E00021A1606160216169
:10ECB000E160094800680126304002D1032100F0DC
:10ECC0002FF802F015FD002801D104488661267056
:10ECD000284670BDAC2B002000E100E0000500409C
:10ECE00038B50020694608706846FCF7CBFE084C32
:10ECF0002078002801D1FFF7CFFFE068401CE060DA
:10ED00000120A07068460078FCF7DAFE38BD0000EC
:10ED1000AC2B002010B5002801D1FDF7AFFE10BDCF
:10ED20008207D30EFF229A408907090E10B5994039
:10ED300000280BDA03071B0F083B9C080C4BA400B0
:10ED4000E318DC6994430C43DC6107E08408094B59
:10ED5000A400E418236893430B432360C106C90E43
:10ED600001208840044908600449086010BD000083
:10ED700000ED00E000E400E080E200E000E100E0FF
:10ED8000F3B581B0054601F075F81F4F00282846FD
:10ED900017D0FDF731FEC0192030007F800903280D
:10EDA00002D001280BD005E018480069E840C007F0
:10EDB000C00F04D00321284600F0FBF8FEBD02215D
:10EDC000F9E701F063F80028F8D02846FDF714FEB3
:10EDD00004468000C11D0E4AF9318018026989B2CB
:10EDE000012632430261084600F014F90298002817
:10EDF000E4D02846FDF700FE800038580028DDD01A
:10EE00000448A6404660FEBDC02B0020000500500F
:10EE10000065004000630040FEB5044625480E46EC
:10EE20000019202141560027C8171346401C01D065
:10EE300008273CE0F27819462046FDF7B9FD054663
:10EE4000401C33D0B07800280BD005200007A1006B
:10EE50000918072000020918086802229043086078
:10EE600007E000217378204600910A46019100F0E6
:10EE70007BF8F078002810D00F48AA0010183178DD
:10EE800002690E4B1A400261E206D20C8907890B17
:10EE90000A4301690A43026109E0064832784019D1
:10EEA0002030017F92011143017700E004273846AA
:10EEB000FEBD0000C02B002000650040FFE0FCFF0D
:10EEC00003490969C140C807C00F00D0012070473D
:10EED0000005005070B5144D2879002801D0082095
:10EEE00070BD114900204039421E0B182033401CD0
:10EEF000C0B21A702028F8D300242046FDF74AFD3E
:10EF0000641CE4B2082CF8D303210620FFF708FFA5
:10EF1000FF207D3000F07EF801200449C0074860E2
:10EF200001202871002070BD002C002000630040EB
:10EF300002480079002800D001207047002C0020F2
:10EF400070B552000A439900049D0A432902059EA8
:10EF50000A43310405240A432407800007210019CD
:10EF600009024018026070BD70B552000A43990052
:10EF7000049D0A432902059E0A43310405240A43DD
:10EF8000240780000721001909024018026070BDA3
:10EF9000052212078000821807200002101802685C
:10EFA00003231B049A430260026809040A430260B7
:10EFB00070470522120780008218072000021018EF
:10EFC000026803231B049A430260026809040A438F
:10EFD00002607047012282400348002901D082600C
:10EFE0007047C260704700000005005038B5084BFC
:10EFF00005241B68009324026B46411805E0850038
:10F000005D592D192D69401C20C28142F7D838BDA9
:10F01000D01F020002494018002101607047000023
:10F0200000600040034940180068012800D000201B
:10F0300070470000006000404058002800D00120C8
:10F0400070470322120280184068084000D0012057
:10F05000704710B5002809D0032806D10220FDF71B
:10F0600071FB002801D0FCF73BFC10BD02F096F8C4
:10F0700010BD000010B50446008888B03A2821D0A1
:10F0800009DC022824D0102811D011280DD100202D
:10F09000FDF758FB19E051281ED0552805D1A0884E
:10F0A000132176DF11E0FCF71BFC08B010BD072030
:10F0B000FDF748FB002801D0FCF712FC1549A08899
:10F0C0000880F2E7A088132176DF0028EBD1ECE777
:10F0D000A088002167DFF8E71022A11D04A8FCF733
:10F0E0002BF86846017C0029DFD0007E042803D07D
:10F0F000062801D00528D8D1022908D00120694668
:10F100000870FF2083308880A088A8DFDDE7022018
:10F11000F5E70000E81F002010B50078002807D1AF
:10F1200004483B21008876DF002801D0FCF7D8FB9B
:10F1300010BD0000E81F0020F0B58BB000260F4680
:10F1400004460096019602960220694603960870CE
:10F15000A07B002803D0012088718E8002E0FF2070
:10F16000FE308880A0886946A8DF1128FAD068465A
:10F17000808800282ED1397B01292DD0022500223C
:10F1800005920692079203236846089283842023FF
:10F19000037441748574E188818201268675028337
:10F1A00009A8079004A80890A08805A9A6DF012D4A
:10F1B00010D1387B01280DD122692046002A04D0C5
:10F1C00000216B46197404A99047044886650448D9
:10F1D000FFF728FD0BB0F0BD0125D0E7502A002035
:10F1E00019D4010010B5134A00215170017A012988
:10F1F00011D002290ED18189491C8181C189491C04
:10F2000089B2C181028A914204D1002101F06AFED3
:10F2100001F058FA10BD838AC28A991AFF2901DCCD
:10F2200089B201E0FF210131511889B2C1829942AE
:10F23000EBD010BD2C210020F7B51C4D0E46014629
:10F240006A6F002082B0032A2DD82C467834082714
:10F25000636CBF1BBB4226D8286F10188007800F35
:10F260001C2250434019FBF767FF686F401C68671A
:10F27000002E17D0216C606C40184007800E0019DA
:10F280000023009009E00498D9000A1806CA0098E3
:10F2900006C06846FDF7C8FB5B1CB342F3D3606C45
:10F2A00080196064012005B0F0BD0000702C0020C2
:10F2B0000389CA1C9A1802814289511AC91E4181C8
:10F2C00070470000F7B50D46012189024718044632
:10F2D000002608340220288012E02046FEF728FD90
:10F2E000002817D00C48A1684268914200D94160BB
:10F2F000608881000C1929880818C01C28800C34EB
:10F30000BC4202D22068401CE7D10298002800D0FD
:10F310000670FEBD0126EBE71421002008B5002190
:10F32000009101460223024A0248FEF749F908BD4E
:10F33000E81F02005821002008B500200090044872
:10F3400002230168034A0448FEF73AF908BD0000A9
:10F3500024210020E01F020058210020F8B50025DC
:10F36000354F2C462E4600953448B10200684018AF
:10F370000168B94205D1324A4168891830D0012963
:10F380000CD000218A0082580346521C36D003203C
:10F390002C4922018854641CA4B21BE00099002966
:10F3A0000CD0284B022221015A54274A1368254ABF
:10F3B000891802224B60641C0A81A4B222490022EF
:10F3C0000860091DFFF77EFF1F488088022831D0A2
:10F3D00008200543761CB6B2032EC5D3E8B2F8BDAB
:10F3E0001849002322018B5451180A4648600E32F6
:10F3F0000831FFF767FF02200543CCE7491CFF29CE
:10F40000C0D911490A68002A0CD00E4A02212301F2
:10F41000D1549A1850600B48118120304480641CEC
:10F42000A4B204E002200B6088800120009001203B
:10F430000543CFE70420CCE7DEC0ADDE5821002035
:10F4400002FEE10E302D00202421002070B5184D61
:10F450000E46044623CD86B0029500900191684681
:10F46000448082808371134D2046A978FCF7A0FE6A
:10F47000002803D03046FEF7A9FD0FE007213046F3
:10F4800000F0CEF9002809D0052807D109226946E5
:10F490000A73CC81049003A8FDF75CFD0022297853
:10F4A0002046FCF797FE6846FDF754FD06B070BD98
:10F4B000B41F0200A0200020F0B585B00746FCF77D
:10F4C0006BFE002814D06846FCF79AFD00246D46B8
:10F4D0000BE060004619B0883946FCF769FE002849
:10F4E00002D0B08802F04EF8641C0098A042F0D818
:10F4F00005B0F0BD70B5054D06460024A0002958A2
:10F5000030468847641C052CF8D370BD641F020088
:10F510003EB50F4D002414206043401902F092FBC9
:10F52000641C082CF7D30821502001910A490124BA
:10F53000C2000290074B0094881800F0E2FC0028FB
:10F5400001D003203EBD0348447000203EBD0000B2
:10F55000C8270020882000203825002010B500F0A2
:10F560004BFA10BD10B500F04BFA10BDF0B50025F8
:10F5700085B000950195029503950446418868463B
:10F580004180217901712E462179608802F034FB97
:10F5900022780421404F1300FBF7C4FF0A06063609
:10F5A0001C1C383E43484B4D00280DD0417CC907F8
:10F5B0000AD002F059FB684606702078012800D076
:10F5C0000020694608722AE0012069460870A06898
:10F5D000029024E000280ED08268A3689A420AD1E3
:10F5E000427CD30707D07B6852085B1C52000A4359
:10F5F0007B6042741FE0022069460870E068039057
:10F600000DE0FFF777FF16E0032006E06846017083
:10F61000E06802906846F4E70520694608700846ED
:10F62000EFE7062069460870E068D1E7012507206A
:10F63000F3E7E06802907868002824D0174E002491
:10F64000142027464743B819417C4A0703D4890749
:10F65000C90F29421CD08178F05B00F0F7F8002830
:10F6600016D014214C43325B69464A80B9198A7816
:10F6700069460A71862808D009216A4611700290ED
:10F680006846FFF737FF05B0F0BD08200870F7E7C0
:10F69000641C082CD4D3F6E788200020C82700205B
:10F6A00010B500F071FA10BD08B513889B000093E7
:10F6B0006B4600F0DBF908BD10B5002300F0D6F969
:10F6C00010BD38B50546002420460AE0817828465A
:10F6D00000F0A6F8002802D0052800D003240098E6
:10F6E000401C00906946284602F098FA0028EDD1A7
:10F6F000002C07D1284600F04FFA002802D0072836
:10F7000002D00324204638BD0724FBE710B513467A
:10F71000002200F0E3F910BDFFB581B00498154652
:10F720000E46002804D0072E05D0082E19D102E07D
:10F730000E2005B0F0BD002D13D0082D11D8019872
:10F7400000F035FA00280CD00020009031460198D6
:10F7500002F052FA041E26D0E068A84212D2002716
:10F7600009E00720E5E7207CC019C1B22A4800F073
:10F7700000FC7F1CFFB2E068B842F4D8204602F0DB
:10F7800061FA10E0A84217D9EFB207E0207CC01957
:10F79000C1B2214800F0EDFB7F1CFFB2E068B84227
:10F7A000F4D8002C08D1FF211C48019F02F024FA54
:10F7B000041E05D00780A670207CFF2802D00AE036
:10F7C0001120B6E72946144800F06CFB2074FF288E
:10F7D00013D001200090E560217C0F4800F0B2FBBF
:10F7E00002000ED0ABB23146049800F071FA0098D6
:10F7F00000280FD0082E06D00CE0204602F022FA96
:10F80000DEE7032095E704980499008849688000A2
:10F81000801F888000208CE7B8270020FFFF0000B1
:10F8200070B5002402F0E8F905000CD068680028E3
:10F8300004D000F0D8F9040000D00324284602F0D8
:10F8400013FA204670BD052070BD00007CB50D4642
:10F850000646072903D0082D01D007207CBD0020D3
:10F8600000900190684685702946304602F0C4F940
:10F87000040004D0607CC00703D000207CBD0520BC
:10F880007CBD217C214800F05DFB020025D029468B
:10F890006846E36800F0AFF9684602F09BF923463A
:10F8A000083369463046626800F018F90246607C09
:10F8B0001749430704D5830702D54B685B1E4B608D
:10F8C000FB25FD23002A0AD0112A0DD0862A14D048
:10F8D000072A00D0032210467CBD03207CBD0121F5
:10F8E0000843284018400EE04A68521C4A60042130
:10F8F0000843184060740022EDE74B6828405B1C09
:10F900004B60022108436074E5E70000B82700203F
:10F91000882000207CB50D46072903D0082D01D092
:10F9200007207CBD002602F067F9040003D0606860
:10F93000002802D01BE005207CBD217C0E4800F091
:10F9400001FB024600200090019068468570002A65
:10F950000FD02946E36800F04EF9684602F03AF904
:10F96000211D684600F027F90646092801D03046D7
:10F970007CBD03207CBD0000B82700200149096838
:10F9800008470000601F020070B588B01748FDF7F7
:10F9900091FC002802D0032008B070BDFDF7C6FB23
:10F9A000002801D08620F7E700F0E8F90020104C8D
:10F9B0000290E61F03900DE0694604A8FDF73EFCA7
:10F9C00000988088801B85B204A8FDF7F5FB2846C7
:10F9D00000F088F902AA04A92046FDF714FC0028CB
:10F9E000EAD00449012008700020D5E77DCF01004E
:10F9F00007C000007C20002010B500F09DF910BD6C
:10FA000010B500F0A1F910BD70B5054603208003C4
:10FA100086B014460E46281880B20F4A6946FDF794
:10FA2000F2FB002805D103A96846FDF707FC002872
:10FA300002D0002006B070BDA570039840882080D9
:10FA40000498606003988088FDF784FC30806846E5
:10FA5000FDF7B2FB0120EDE78020002002480021E5
:10FA600041608160704700007C200020F0B587B0C5
:10FA70001D46144607460E46FF280CD8084600F0DF
:10FA800017F9002807D003AA3146384600F0F8F8E5
:10FA9000002809D102E0072007B0F0BD01A903A8A2
:10FAA000FDF7CCFB002801D00520F5E7A6700198F2
:10FAB000002D408820800AD082002868904204D817
:10FAC00002996068FBF738FB03E00420E4E7029842
:10FAD000606003A8FDF770FB0020DDE77FB588B00C
:10FAE0001D460C460646FF2831D8A07800F0E0F805
:10FAF00000282CD0606806902088694688833046AC
:10FB000000F076F969460880A0780321890340183F
:10FB10006946488006A8019001200881A17803AABF
:10FB2000304600F0ADF8052813D00AA8FDF7EEFB2B
:10FB3000694603A8FDF7A4FB002818D0072820D0A9
:10FB400008281CD00E281AD003200CB070BD072046
:10FB5000FBE70A98002805D00AAA694603A8FDF722
:10FB60009FFBE9E7694603A8FDF794FBE4E7002D56
:10FB700003D0294603A8FDF756FB0020E5E7112036
:10FB8000E3E78620E1E7000010B5024800F0AAF89C
:10FB900010BD0000FFFF000010B5FF2801D90720AD
:10FBA00010BD00F0A7F800F02BF8002010BD10B534
:10FBB00000F0F8F810BD70B504460D46807800F0EE
:10FBC00077F800280BD021882846FDF785FB002810
:10FBD00004D0072805D0092800D0032070BD0720D5
:10FBE00070BD862070BD01B56846FDF78FFB00280B
:10FBF00000D0032008BD10B59BB200F069F810BD1D
:10FC0000F0B589B000261C4F04963846059603E0EF
:10FC1000204600F083F8204600F08EF80446B842F3
:10FC200007D000F0E5F804AA06A9FDF7F4FA0A28BF
:10FC3000EED0124DA878002819D1BC4217D003206D
:10FC4000800301272018AF7080B2FDF725FA08283D
:10FC50000FD000280BD0AE70092269460A704C8084
:10FC6000FF220A71039002966846FFF787FE09B0EB
:10FC7000F0BD6F70FBE70000FFFF00007C2000205C
:10FC80007CB5054616460C46084600F011F80020E3
:10FC900003210090890301906818611880B289B22D
:10FCA0006B463246FDF7A8FA002800D005207CBD3F
:10FCB00007280BD0012809D0082807D0052805D02F
:10FCC000062803D0042801D0002070470120704787
:10FCD00010B5502463439BB28170DB1C99084260CD
:10FCE000018010BD10B50249FCF7AAFE10BD00004E
:10FCF0006828002010B504460648844207D006490B
:10FD00002046FCF79DFEA04201D1012010BD00203D
:10FD100010BD0000FFFF00008828002010B5044639
:10FD2000044900F0BDFE03492046203100F0B8FE32
:10FD300010BD00006828002010B50249FEF7B4FE8F
:10FD400010BD00008828002070B50A49FEF7ACFEFF
:10FD50000446094D08E000F031F8002807D00549B5
:10FD60002046FEF7A1FE0446AC42F4D170BD204609
:10FD700070BD000068280020FFFF000010B5084893
:10FD80004021FBF7F2F9FF2401342146044800F03A
:10FD9000E5F903482146203000F0E0F910BD0000ED
:10FDA0006828002010B5FF2804D80146024800F05A
:10FDB00005FA10BD002010BD6828002010B5FF28EE
:10FDC00004D80146024800F0F9F910BD002010BD2A
:10FDD0008828002010B50C46FDF766FEFF2803D0EA
:10FDE0000C21484301490C5210BD0000C8240020DA
:10FDF00003218903401880B2704700001CB50446F7
:10FE000000F06AF9002801D0FBF76AFD002C05D04C
:10FE100000F070FB002801D0FBF762FD002000908D
:10FE2000019068460078012210438121084030305B
:10FE30004106490E6846017007214170102181700A
:10FE4000C178022311431943C17001791143194349
:10FE5000017100F085FB002801D0FBF741FD04484B
:10FE600000F066FB002801D0FBF73AFD1CBD000046
:10FE7000A5FF01000449081820214156042901DB8F
:10FE80000120704700207047C02B0020044908184B
:10FE900020214156042901D20120704700207047DB
:10FEA000C02B0020F8B50F46060028D03068002887
:10FEB00025D07068002822D0FF2400251CE02946A8
:10FEC000706800F053F9002808D0FF2C00D12C46B0
:10FED000281B401CB8420DD12046F8BDFF2C06D18E
:10FEE00008E02146304600F044F8641CE4B2AC421D
:10FEF000F7D3FF246D1CEDB2B068A842DFD8FF2015
:10FF0000F8BDF8B50400069E089D079818D0002992
:10FF100016D0002B14D007466F43974210D8C21D4D
:10FF2000D208B2420CD800280AD0002D08D0E560D3
:10FF3000A0600AC481B2184600F010F90020F8BD94
:10FF40000720F8BD70B504000D4610D020680028C9
:10FF50000DD0606800280AD0FF2D08D000F02EF9DF
:10FF6000002804D0E06821686843081870BD0020AC
:10FF700070BD70B504000D460FD0206800280CD06D
:10FF80006068002809D0FF2D07D000F017F900287D
:10FF900003D02946606800F01DF970BD10B501F06E
:10FFA0001BF910BD08B501780B00FBF7BBFA0F0970
:10FFB000120912131A2712211227232712291200BD
:10FFC000808800F0DFF9112803D0002801D0FBF76A
:10FFD00087FC08BD0021009140886946FFF7DEFFDD
:10FFE00008BDFDF77FF80E28FAD00828F8D0ECE716
:10FFF0000020ECE70320FBF70DFFE6E78068E4E76D
:020000040002F8
:1000000000F0A2F808BD70B586B004461421684619
:10001000FBF7ABF8608869468880FDF721FF6946E9
:100020004880267800200822072105253300FBF7A9
:1000300079FA0A06060B0D0F1416281A1D256B46B1
:10004000197058721A7219E00D2009E00E2007E0AD
:100050006A4611705072157210E00F2000E01020F7
:10006000694608700AE06846057007E006216846A0
:100070000170A0680290A188684641806846FCF73C
:1000800055FF06B070BD000010B50446007886B07C
:1000900000281AD0012816D10E496088012249791A
:1000A000FCF798F814216846FBF75FF8608869460A
:1000B00048806088FDF7A0FF6946888000200870AE
:1000C0006846FCF733FF06B010BDE08800F04EF93B
:1000D000F9E700009020002070B5FFF755FC0028DC
:1000E0002ED1FFF715FA00282AD101F083F8002855
:1000F00026D101F089F9002822D1FDF783FC0028E0
:100100001ED1FDF73BFD00281AD1FDF7BFFE0028E8
:1001100016D10C4C401EE08000251820A5602071EF
:100120006071FCF721F82071182809D0FCF71CF841
:100130006071182804D0657001202070002070BD07
:10014000032070BD9020002010B5034800780028DF
:1001500001D0FDF77BFC10BD9020002010B50028D9
:1001600003D0C91DC908FBF700F810BD10B5002861
:1001700009D04B075B0F01229A40C908D2B2081878
:100180001146FEF70DFB10BDF8B50D46060013D065
:10019000002401270EE06107490F38468840C1B2AC
:1001A000E0088019FEF7FCFA002801D02046F8BDCF
:1001B000641CA4B2AC42EED32846F8BD002807D098
:1001C000CA08805C4A07520F01219140084000D0C4
:1001D00001207047F8B504464805050E4907490F48
:1001E00001208840C6B2002C0ED0605D30420BD09A
:1001F000002168460170FBF745FC605DB043605527
:1002000068460078FBF75CFCF8BD000010B50446BA
:1002100006480078002808D02046FDF7CDFD20468E
:1002200000F0D0FF2046FDF72BFB10BD90200020F2
:10023000F0B58BB0044614216846FAF796FF608843
:1002400069468880FDF70CFE6946488027780120C2
:10025000082207210026434D3B00FBF763F90A06FD
:100260000E20353B435F80787A806A461170217991
:1002700011725672039690726EE06A46117021797F
:1002800011725672A16803919072A868002863D019
:10029000A168814260D1AE609088E88012E0684633
:1002A0000270217901724672A0680390E0680490A0
:1002B000A868002850D0A16881424DD1AE60E8689E
:1002C000401EE860039647E06A461170217911727A
:1002D0005072F7E769460A7022790A724872A0687C
:1002E000049039E0092069460870A878002833D0C6
:1002F0001D4C2046FFF736F9A0422DD12046FFF7CE
:100300002DF9A04228D1AE70142105A8FAF72DFFCF
:100310000B21684601750483C48214E00A206946F3
:100320000870A0680290A878002815D0AE7014213B
:1003300005A8FAF71AFF0C20694608750A480883D1
:10034000C882A068079005A8FCF7F0FD04E005202E
:1003500000E00620694608706846FCF7E7FD0BB030
:10036000F0BD000090200020FFFF000010B5044900
:100370000978002902D0FDF729FE10BD082010BD24
:1003800090200020F0B52D4C0646207887B000283C
:1003900008D02B498868C9680691059060780028C4
:1003A00003D00FE0082007B0F0BD244900230C3132
:1003B0001A46881F00F046F8002801D0052801D110
:1003C000012060706078A168401E084301D01125AB
:1003D00031E0E0880027864219D1E068002816D075
:1003E000002514216846FAF7C0FE0721684601700F
:1003F0003046FDF735FD014668464180868006217E
:100400000172477203978772FCF790FD13E0E06872
:100410000A4A401CE060083205A93046FFF776F929
:10042000050008D0A760E068401EE060112D02D0F2
:10043000862D00D003252846B5E700009020002037
:10044000781F0200FFB5284885B00078002816D034
:10045000264E3046FFF786F800900020039024488F
:1004600001AA0068019003A8029006210098FFF7F6
:100470001BF900256C1E3746072803D016E008201C
:1004800009B0F0BD0520FBE700200390A84201D38E
:10049000009F0546A04201D2009E04460098FFF747
:1004A00061F801AA06210090FFF7FEF8002817D096
:1004B0000528E9D00D490098884213D105990020FC
:1004C000002900D00F800699002900D00D600799FF
:1004D000002900D00E8008990029D1D00C60CFE708
:1004E0000398D3E70320CBE790200020FFFF000014
:1004F000781F020070B50C480178002904D0012152
:100500000A4D8170284608E0082070BDFFF72EFFD5
:10051000002801D0032070BD2046FFF723F80446D1
:10052000A842F3D1002070BD90200020FFFF000002
:1005300010B5094A1178002904D0D178032903D3D2
:10054000042010BD082010BD8B00044C491CE05055
:10055000D170002010BD000090200020A8280020AD
:1005600010B504490978002902D000F085FE10BDBD
:10057000082010BD90200020F0B585B0044601266B
:1005800014216846FAF7F1FD6088694648804B4FB0
:100590002078002539797A790300FAF7C3FF0D82B4
:1005A0008D081C30424C5159646A6C7E82000120D7
:1005B0006A4610702079002801D0012200E0002254
:1005C000012806D000256088FBF704FE60882A46D3
:1005D00011E00125F7E702206A4610702079002813
:1005E00001D0012000E00220107260880122FBF798
:1005F000F1FD227960887979FBF7ECFD52E0032068
:100600006946087060881146FBF7D2FD002801D0CA
:10061000012100E0022168460172A1790173A188DD
:1006200039E06088FBF7C4FD002845D10220694607
:1006300008700D7236E00321684601700572ECE720
:10064000072069460870A2888A8008724D7230E0DF
:10065000082168460170A1888180072101724572D6
:10066000A068049025E00620694608706068029042
:1006700018E0052012E003206946087060881146E2
:10068000FBF796FD002801D0012100E00221684619
:1006900001720B490573418104E00420694608702A
:1006A00000E000266088FDF7A7FC69468880002EE0
:1006B00002D06846FCF73AFC05B0F0BD902000205F
:1006C000011100000848416E491E416604D10749E6
:1006D000FD230A781A400A70016E491C016604293C
:1006E00001D1002101667047602D00202C210020DF
:1006F00070B50C490446486E042810D00A6E1218D2
:10070000042A00D3121F401C486618204243551883
:1007100001462846FAF729FD0120256070BD00201A
:1007200070BD0000602D0020F0B52B4C1C22216F05
:1007300085B051430D192978284E00270B00FAF790
:10074000F1FE07190509090D0D1119002946FDF7DC
:1007500085FC09E0294601F027FB05E02946FCF766
:10076000ABFA01E0FCF7A2FF00282FD0B04202D183
:10077000019710E00F2001902878022801D003286B
:1007800009D11548AA7D7830016C89180164AA7DC9
:10079000416C891A416469462846FCF753FB684658
:1007A000FCF786FB206F1C2148430019FAF7DDFC9B
:1007B000606F00280CD0216F491C8907890F2167C1
:1007C000401E606704D00020FFF7AEFF05B0F0BD0B
:1007D0000420FCF7D1FDF9E7702C00201D1D00005E
:1007E00010B518481822016E51430C18406E0028AD
:1007F0001FD0207A012802D0022816D10FE0A18A4A
:10080000E08A091AFF2901DC8AB201E0FF220132E5
:10081000E168800023690918181829DF01E0A08920
:1008200028DF112806D0002803D00921204600F037
:1008300059FB10BD0449FD220878104004221043E2
:10084000087010BD602D00202C21002010B5054837
:100850000078400705D40420FCF7A8FD0020FFF72E
:1008600063FF10BD1421002010B5054801784A0728
:10087000920F04D1022211430170FFF7B1FF10BDA6
:100880002C210020F8B507461D481C460078154667
:100890000E46800701D40220F8BD002D01D0002CA7
:1008A00028D10520F8BD01011648405C00281ED162
:1008B00016E02068002F03D081883A8891420FD13A
:1008C000002E03D001883288914209D180682860C7
:1008D000206868600B482030008928810020F8BD1E
:1008E000A088214600F060F80028E2D12060A088AE
:1008F000401CA080A0880228D5D30A20F8BD0000A3
:1009000014210020302D0020F8B505464068244F02
:1009100000260C46002828D022490A68824224D8A2
:100920004968814221D3FDF776FC00281DD0288933
:100930003989884219D103CD083D8A68904214D183
:100940003A460020203A0125AD0203019B185B685E
:100950008B4204D25B198B4201D9208011E0401CEC
:1009600080B20228F1D30020F8BD268000960AE06C
:10097000009829688068884205D1009868603889A5
:1009800028810120F8BD2088694600F00DF8002874
:10099000EED12088401C80B220800228E6D3E2E716
:1009A000502D002058210020F8B50E460A68124943
:1009B00000014518002A04D05088800084180C34A7
:1009C00001E06C6808340127BF026868C019A042C2
:1009D0000FD92068401C0CD02046FDF7A9F900284B
:1009E00002D001203460F8BD6088800004190C3406
:1009F000EBE70020F8BD0000302D002008B50021F5
:100A0000009101460123044A0448FCF7D9FD00285F
:100A100000D00E2008BD0000DC1F0200582100207D
:100A200003218903401AC0B27047000003218903E3
:100A3000401A0349884201D80120704700207047BE
:100A4000FE3F000038B5044613480025436C002BD8
:100A500008D0026CD500521C52072D18520F5B1E95
:100A60004364026400200090A08AAB888000411893
:100A70000A482A68FCF7A4FDA18AAA888918A182DD
:100A8000A17D491E0906090EA17501D1012121741C
:100A9000002800D00E2038BDE82C0020582100206E
:100AA00010B50A46FF2803D801461046FFF792FB0F
:100AB00010BD000070B501240B49600408600B49AB
:100AC00040108860094940398860094D6C602F20CA
:100AD000FEF714F8AC60074D00242F20AC60FEF741
:100AE0000DF8AC7070BD000080E100E040130140E3
:100AF00000100140E820002030B5FF220523CD7D05
:100B0000002409321B02C318002D8450986905D0B7
:100B10004B7ECA68D054487E401C487630BD70B5C4
:100B200000240546601C90B00007000F08A9103093
:100B300008940870601C0007000F10304870887817
:100B4000F9263040801C88701C2101A8FAF70DFBA3
:100B500069460A791020024308210A4369460A714E
:100B6000029408A904940594079406912A788A713E
:100B7000012269468A84131800940B7013184B7075
:100B80008B78F72133409B1C0B400343134369468A
:100B90008B7014210AA8FAF7E8FA09A80A906846A7
:100BA0000B9069460C8617204C8688866888AB1D9A
:100BB0000AAA01A9A2DF10B070BD1FB501246B46BF
:100BC0001C701972019206C8684690471FBD00004C
:100BD00010B50446FAF7C2FC00280CD0A007C00EDE
:100BE000002C0ADA2107090F08398908144A8900FC
:100BF0008918C96906E0134810BDA108124A890086
:100C000089180968C1400806800F042811D20028FD
:100C10000FD002280DD00D494B68E206D20E0120FC
:100C20009040002B08D0620992008B5803438B50F0
:100C300004E00448401C10BD05490860002010BDB8
:100C400000ED00E00120000000E400E00C210020A5
:100C500000E100E070B5049D002819D0002917D0EC
:100C6000002A15D000246600865B9E4211D1002028
:100C70000123A3400AE0002D03D00C1826781E4360
:100C800002E00C1826789E432670401C9042F2D356
:100C900070BD641C082CE6D370BD000070B505461D
:100CA00000242146284600F00DF8002801D02046F7
:100CB00070BD641CA4B2082CF3D3014870BD0000C1
:100CC000FFFF000001228A40024201D0012070474C
:100CD0000020704710B50C4603000CD000204100E6
:100CE000595A914204D181B22046FFF7EBFF10BD63
:100CF000401C0828F3D3002010BDF7B5002086B0B3
:100D000017460D460090002913D000246E46A1B26C
:100D10003846FFF7D7FF002808D000996000490047
:100D2000285A891988800098401C0090641C082C5F
:100D3000EDD3142269460698FAF7FEF909B0F0BD22
:100D400008B5009313460122FFF784FF08BD000099
:100D5000F0B5054687B00C3000270090FDF75CF930
:100D60000646264C28886946C880A64203D12888B2
:100D7000FDF742F90646A64213D004AA07213046E1
:100D8000FEF79AFC00280CD1059C3434207CC00767
:100D900006D1204612300099FDF7C6F8002800D091
:100DA0002746002328881A46394686DF002808D0BF
:100DB00009216A461171029001A8FCF7CBF807B02F
:100DC000F0BD0024002F0BD02888002100F07CF813
:100DD0000094012228880023314600F04FF8EEE706
:100DE00006216846017106490181847201A8FCF759
:100DF000B1F80094002328881A46EDE7FFFF0000B1
:100E000006100000002835D00278910701D4D109DE
:100E10002FD15106490F04292BD8930703D5032955
:100E200001D1D10925D041788378994221D8072969
:100E30001FD3102B1DD8C1784B071AD40079430754
:100E400017D40B0715D4030713D4D20702D0CA074F
:100E500009D010E0CA070CD189070AD4C10708D10C
:100E6000800706D407E0890705D4C10703D18007AE
:100E700001D400207047012070470000FFB581B009
:100E8000104D1F46164629780A9C0198FBF7A2F9D7
:100E9000002E11D03A4669780198FBF79BF922465B
:100EA000A9780198FBF796F9002C03D002990198D4
:100EB000FDF750F805B0F0BD002CFBD00298FDF70F
:100EC00085F8F7E7A02000203EB5054C6D461CCC08
:100ED0001CC56A46508011716846FCF73BF83EBD60
:100EE000901F02001FB5002200920192029203920D
:100EF000037A012B02D0022B11D106E06B461A7047
:100F000002690292828A9A8109E001236A4613707B
:100F10008289C389D31A6A461381838953814268BF
:100F2000019200688268684690471FBDF0B5144D75
:100F30008BB0E878FBF730F900281FD005A8FBF745
:100F40005FF8142205A96846FAF7F6F800246F4600
:100F500011E06000C619B088E978FBF729F900288C
:100F600008D0B0882979FBF723F9002802D1B0888E
:100F700000F02AF8641C0098A042EAD80BB0F0BD3B
:100F8000582000207CB50D490D4C03C901910090FB
:100F900000226946A088FEF7B9FB0A4D07E0084623
:100FA000FEF7E0FAA08000226946FEF7AFFBA188B9
:100FB000A94201D01128F2D17CBD0000441F0200DB
:100FC00064200020FFFF0000FEB506460125002436
:100FD000FCF798FE11281ED006DC002827D0062832
:100FE00031D008280AD12EE01A49411813D01A4AE4
:100FF000D14203D13046FDF75BFB0CE00922694684
:101000000A708E8002903046FCF7F6FF69464880F1
:101010006846FBF777FF2A46104D3046E978FBF724
:10102000D9F8224629793046FBF7D4F8FEBD0521D0
:101030006846017001243046FCF7DEFF0146684631
:1010400041808680E5E700253046FCF7D5FFFCF7B8
:1010500087FDE0E7FECFFFFF01FCFFFF58200020E7
:10106000FFB50746806A81B0144600283DD00025B0
:1010700038462030009033E00C20B96A68430E18DF
:10108000B088801CFE2802D90C2005B0F0BD228853
:101090000299401C885420881622401C80B220806F
:1010A00002990A542088401C80B22080029941187D
:1010B000308800F0B2FC2188401880B22080B288CD
:1010C000002A0AD0B16800290FD0029BC018FAF795
:1010D00033F82088B188401820806D1C0098EDB24C
:1010E000007BA842C8D80020CFE70720CDE700004A
:1010F00070B504461248134D018A2182818A6182AB
:101100000078002818D06879002815D100F056FD25
:10111000002811D028462030E060022008492072C3
:1011200004202031C870064800212030FAF72EFD37
:10113000002804D1052000E00320A870002070BD25
:10114000AC2200201020002070B50446114804266F
:10115000018B2182818B618200780F4D002816D08F
:101160006879002813D100F029FD00280FD0284607
:101170002030E06002202072064800212030C67036
:10118000FAF704FD002804D10620A87000E0AE7034
:10119000002070BDAC2200201020002010B50020DF
:1011A000FBF7D0FA002801D0FAF79AFBFBF724FAF4
:1011B000002801D0FAF794FB3CDF002801D0FAF7B1
:1011C0008FFB10BD10B500F0ADF802480078FDF7B8
:1011D0008DF910BDA420002010B50978002905D094
:1011E000002203498979FAF7F5FF10BD0122F8E7DB
:1011F000A420002010B51248FCF7CFF81048401C7E
:10120000FCF7CBF80E48801CFCF7C7F80C48C01C54
:10121000FCF7C3F80A48001DFCF7BFF80848401D5A
:10122000FCF7BBF80648801DFCF7B7F80448817945
:10123000182903D00121C171002010BD032010BD69
:10124000A420002010B500780A4C0300FAF76AF9D0
:10125000080B0B0B0B0B0B0B05116079FEF72CF930
:101260006078FDF743F92079FEF726F92078FDF73D
:101270003DF910BDA420002070B50A4D04000DD02A
:10128000FFF7C0FD00280BD028460522214610306C
:10129000F9F752FF01202872002070BD0020FAE704
:1012A000072070BDA42000203EB50446007803004E
:1012B000FAF738F90A060A282828282828282809A9
:1012C000608800F05FF93EBD15480021007A0028D3
:1012D00012D01348237910300078C207D20F002BA8
:1012E00000D001239A4207D380076279C00F002AF9
:1012F00000D00122904200D2012160880123002207
:10130000FCF79CFF21786846017061884180A168E4
:101310006068019002916846FBF72AFE3EBD00001E
:10132000A42000203EB504460088192834D009DCEA
:1013300011281FD0132827D0142802D1201DFFF711
:1013400007FD3EBD1A2835D01E28FAD12B4A6B4620
:1013500007CA07C3A18868464180207AC107C90F20
:1013600068460171207A8007C10F68464171FBF71A
:10137000F1FD3EBD207A3D2804D011210902A0884C
:10138000002211E01E49FAE700200090019002902F
:10139000A0886946488028E0217A201D002906D0CF
:1013A000427900889207920FFDF778F83EBDFAF770
:1013B0009DFB3EBDA088FAF72DFE0028A08816D020
:1013C000104D6978FAF7F4FE002804D1A0880022B5
:1013D0002978FAF7FFFEA088694648800520087042
:1013E000A088FAF721FE694608710846BFE704495C
:1013F00001223739FBF70EFD3EBD0000A81F020099
:101400003D100000A020002010B50D48FBF7BCFFE8
:101410000B48401CFBF7B8FF0948801CFBF7B4FFE2
:1014200007480178182909D04178182906D0817811
:10143000182903D00121C170002010BD032010BD68
:10144000A020002070B516460C460546FAF772FE3D
:10145000012809D0022801D0054870BD3246214636
:101460002846FCF739FF70BD284621467EDF70BD57
:1014700002300000F7B58CB00E460C98FAF75AFE11
:10148000009000203C4D074603902C46202104A8E4
:10149000F9F76BFE0098002818D0002E19D030788C
:1014A000C0073BD00C98FCF7A7FD0446A84205D125
:1014B000FEF7F6F80446A8420ED0012701AB012240
:1014C0000721FEF729F9050009D03AE02B480FB0B3
:1014D000F0BD8520039021E00325009744E05021D2
:1014E0000298F9F742FE0299009808700298343089
:1014F00004900E980790029802991830089002986C
:101500001131401C09901E480B900C98FCF73EFCD2
:1015100007212046FEF7FEF9050012D1009804AB22
:10152000022809D0324603990C987FDF0546002E29
:1015300007D0002D09D004E0002203990C987FDF2A
:1015400005460097002D0AD00EE03078C00701D084
:10155000012100E002210C98FFF7B6FC00970398E8
:10156000852801D0012200E00022012321460C98A9
:10157000FFF784FC2846AAE7FFFF000002300000C6
:10158000B42800203EB50546FAF7D4FD1D4C0128CD
:1015900015D12846FCF730FD1B4988420FD00122A7
:1015A000A1792846FAF716FE0020009001900290DB
:1015B0000C21684601704580FBF7DAFC04E000224C
:1015C000A1792846FAF706FE207A002805D0A179ED
:1015D0002846FAF7EDFD00280FD0002211462846D4
:1015E000FFF748FF0446014601222846FBF7E6FEC6
:1015F00021462846FBF76CFC3EBD0249E2681031EB
:10160000EDE70000A4200020FFFF00003EB50446E7
:101610000078002810D1207907280DD1074A6B46A1
:1016200007CA07C36088FCF71BFC694648806088CE
:1016300088806846FBF78EFC3EBD00009C1F0200C0
:10164000002803D00249C860002070470E20704770
:10165000302100201CB5034901910091694660DFEB
:101660001CBD0000E81F002070B50E46054614465C
:1016700014211046F9F779FD012000212080216115
:10168000217326726572002D00D0A072002070BDFB
:1016900010B5FAF717F910BDF8B5002903D08C077B
:1016A0000025002C01D00720F8BD0E4E0E4FB16072
:1016B0007280736039680124214003D00A492546AD
:1016C00080310C60094910DF002803D0002DEBD0D9
:1016D0003C60F8BD3470FDF703FB1620FFF778FA85
:1016E000F8BD00003021002000E100E0911602006A
:1016F000014800787047000030210020002803D006
:1017000002490861002070470E20704730210020F8
:1017100010B50446FBF796FF2046FAF745FB10BDCF
:10172000FEB51F4C0025A768606802906846FBF76D
:1017300051FB0190FCF708FF06460198002822D0D3
:1017400000230098616817E00E680A46864202D9B5
:10175000301A086012E0801BF31800261660D66865
:10176000D169B446002E07D0FE183602360A5660FC
:1017700066469660D56115460029E5D12846616028
:10178000FCF738FF06E02846FCF734FF002801D1BB
:10179000002E02D00298FBF785F90020E070FEBD14
:1017A000E820002001200249000508607047000081
:1017B00000E200E010B50E4B5968002906D002681F
:1017C0000C68A24204D8A21A0A60C161586010BD18
:1017D0000B4604E00B46C969121B002904D00C68B3
:1017E0009442F7D3A41A0C600260C161D86110BDA5
:1017F000E82000207CB50D460646002469460C70A2
:101800006846FAF73FF901A800F04AF900280DD020
:101810000570466068460849007948706846007857
:10182000FAF74EF9FFF7BEFF20467CBD6846042458
:101830000078FAF745F9F7E7F8200020F8B51D4DD4
:101840006C68002C34D01C4800274068A968401AF6
:101850000602360A2068B04218D8361AC71922463E
:10186000107CE46900280FD000201074EB68002B76
:1018700007D0916950699847002805D0FAF730F8E9
:1018800002E0516990698847002CE3D12978687893
:10189000814206D1401CC0B26870022801D10020EC
:1018A000687004490006800D18310F50FFF77AFF69
:1018B000F8BD0000E820002000150140FF221D3285
:1018C000002383508B8A8A68D25C8B8A5B1C8B8254
:1018D000052109024018C26170471FB500226B46FE
:1018E0001A70197281680191827506C8684690471E
:1018F0001FBDF0B50C46012185B005464902FDF734
:10190000A0FB032109026F180026002826D0FF2122
:1019100025312846FDF790FB00281FD0FF202530F9
:101920002E5081208000B860A07E002801D10120C7
:1019300068600221684601700920C0012918086802
:1019400008600390E17D68460172E0680190E675E9
:10195000267606CC6846083C90472DE004212846B0
:10196000FDF76FFB002827D0FF2109312846FDF73E
:1019700063FB002820D021462846FFF7BDF8E07D14
:10198000617E884218D1207E002807D0617EE268FF
:10199000E0752069E060267666760AE0A07E002881
:1019A00001D10120686081208000B860E675617E09
:1019B000E2682046FFF701F9FF271D373946284620
:1019C000FDF73AFB00280FD0A08AA17D884204D2FF
:1019D00021462846FFF772FF06E0EE51A17D00295F
:1019E00002D02046FFF779FFFF27453739462846C2
:1019F000FDF722FB00280ED0EE51A07E002801D07A
:101A000001202860E07D002805D0E675617EE2684F
:101A10002046FFF7D2F805B0F0BD0870000A487004
:101A20000220704738B51549154A488890420FD0B2
:101A30004A78144C521CD2B24A70237B934208D38A
:101A4000091D75DF002803D0A169002900D088474F
:101A500038BD00254D70217C002907D03B2176DF61
:101A6000002803D0A169002900D0884761690029B6
:101A7000EED068460570884738BD00004020002041
:101A8000FFFF0000782400200449012209688240F9
:101A9000114201D00120704700207047942400209B
:101AA00010B509494B788C785A1CD2B2944200D1B7
:101AB00000220C78944201D1002010BD02704868C9
:101AC00018214B43C01810BDF8200020FFB583B08B
:101AD00016460C9D0D9C1F4602220095019403980A
:101AE00000F00CF8002807D13B4610223146009543
:101AF0000194039800F002F807B0F0BDFFB583B081
:101B0000074600200C9C8646268805463AE0786801
:101B1000A90042181188684681805188C18000223E
:101B2000694601A865DF002839D168460178059823
:101B3000814226D17046002801D0002200E0022216
:101B40002088891842180D998A4227D871460029A1
:101B50000AD1401C80B22080069A04991154208832
:101B6000401C208001208646218806980A18694674
:101B700001A865DF002812D169462088097840183D
:101B800020806D1C3888A842C1DC704600280AD02D
:101B90002088801B401E80B2FF2802D90C2007B08D
:101BA000F0BD069988550020F9E710B501E0FBF774
:101BB00067F8FBF7EFFC0028F9D110BD0448017964
:101BC000002902D1007B002800D0012070470000CE
:101BD0003020002082780121012A0BD0062A09D06A
:101BE000072A06D0082A06D1416889880931890860
:101BF00000E014210180704738B505460C460020EE
:101C000001E00098401C00906946284600F006F864
:101C1000002802D08178A142F3D138BD0968084A72
:101C200009E014234B43D35A834203D11420414388
:101C300088187047491C0829F3D30020704700001A
:101C4000C82700200021C9430180FF218170017451
:101C5000417CF92211404908490041740021C160CA
:101C6000416081607047000070B50546002406E0C1
:101C7000287C0019C1B20548FEF77BF9641CE868AE
:101C8000A042F5D82846FFF7DDFF70BDB827002039
:101C9000FFB5054600208BB0064608903F480C462D
:101CA0000078800702D402200FB0F0BD002C0CD0C9
:101CB00021883B4881420AD06088002807D06068AC
:101CC0000A902089002709900BE00520ECE704200A
:101CD000EAE70A98F9004058FCF79DFA002825D059
:101CE0007F1C09988742F4D30D98002820D00088E3
:101CF000694688830D98468868460E9901700027CA
:101D00000774818B4182217A817503218182234965
:101D10004868401C486003902188684601816188BA
:101D20008180C6800E98032815D019E00320BBE7F8
:101D30000020218906E0C2006368121D9A5A921998
:101D400096B2401C8142F6D807A9304600F0ACF8A4
:101D50000028A9D1D0E704206946087428680690B5
:101D6000694608984881218968466268FDF764FAE7
:101D700000280CD0002D06D06F6003982860094819
:101D8000AF7200892881FEF761FD00208CE768466C
:101D9000818B304600F07EF8082085E71421002072
:101DA000FFFF0000502D0020F8B50C46498A364A46
:101DB00009018E18002805D0E1883046FDF778FA31
:101DC0000120F8BD3189706889004518217C2E48B2
:101DD0000027EC380B00F9F7A5FB070F311B2B058B
:101DE000445254004760A169016027486946EC38B5
:101DF000FEF78AFD002809D029460123221D234829
:101E00000097FBF7DDFB0221217424E00A20F8BDD6
:101E10002246294601230C3208311C480097FBF763
:101E2000CFFBA17D002901D0032213E0012211E0A4
:101E300029462046FEF706FE074618E02246012303
:101E40000832291D11480097FBF7BAFB21780329B6
:101E500005D00622227400280FD00E2709E00522A3
:101E6000F8E74068FEF7CAFD074606202074002FF9
:101E700003D0E1883046FDF71BFA3846F8BD044F21
:101E8000F7E70F27F5E70000302D0020582100204C
:101E90001D1D00000A01034951184A89101AC01E6D
:101EA00048817047302D002030B5C01C82B2FE2A18
:101EB00001D3092030BD0E4B002004011D5D002D13
:101EC0000FD1E5182C896D89A4182C19A4B2FF2C08
:101ED00007D808800001C018418989184181002075
:101EE00030BD401C80B20228E7D3072030BD00007F
:101EF000302D0020010000071516171811121314B9
:101F000040220020602200208C22002011000300CB
:101F10001DC60100120003001DC6010013000300CE
:101F20001DC60100140003001DC601005824002036
:101F300050EADA308883B89F604F15F30000408E76
:101F40000100000001000100401F0200010001002B
:101F5000541F02000000000089000200D9D90100CE
:101F60006DF50100310202005DDF01004512020043
:101F70000D1602009DDC01000100000000000000C1
:101F8000010006009C200020A912020099DA01003D
:101F90000200000000000000000000000700000038
:101FA0000000000000000000010000000000000030
:101FB000000000000400000000000000000000001D
:101FC000060000000000000000000000790502008B
:101FD00000000050242C0020030000000000FFFF40
:101FE000DEC0ADDEFF011EF1DEC0ADDEFE011EF182
:101FF00010200200E81F002080010000C0B1010095
:102000004820020068210020601400004EB5010045
:102010000643FFFF0A180113182442205A3808010A
:1020200020120792020B3071D9822C18181804293B
:1020300001019A2324F43210130C04CBBDD4E41A0A
:08204000B1102303FF000000B2
:040000050001B0C185
:00000001FF
